{"contracts/StrategyManager.sol":{"StrategyManager":{"abi":[{"inputs":[{"internalType":"contract IERC20","name":"_asset","type":"address"}],"stateMutability":"nonpayable","type":"constructor"},{"inputs":[],"name":"InactiveStrategy","type":"error"},{"inputs":[],"name":"InvalidAsset","type":"error"},{"inputs":[],"name":"StrategyAlreadyActive","type":"error"},{"inputs":[],"name":"StrategyHasDebt","type":"error"},{"inputs":[],"name":"ZeroAddress","type":"error"},{"anonymous":false,"inputs":[{"indexed":true,"internalType":"address","name":"strategy","type":"address"},{"indexed":false,"internalType":"uint256","name":"amount","type":"uint256"}],"name":"DebtPurchased","type":"event"},{"anonymous":false,"inputs":[{"indexed":true,"internalType":"address","name":"strategy","type":"address"},{"indexed":false,"internalType":"uint256","name":"currentDebt","type":"uint256"},{"indexed":false,"internalType":"uint256","name":"newDebt","type":"uint256"}],"name":"DebtUpdated","type":"event"},{"anonymous":false,"inputs":[{"indexed":true,"internalType":"address","name":"account","type":"address"},{"indexed":false,"internalType":"bytes32","name":"role","type":"bytes32"}],"name":"RoleSet","type":"event"},{"anonymous":false,"inputs":[{"indexed":true,"internalType":"bytes32","name":"role","type":"bytes32"},{"indexed":true,"internalType":"enum RoleStatusChange","name":"status","type":"uint8"}],"name":"RoleStatusChanged","type":"event"},{"anonymous":false,"inputs":[],"name":"Shutdown","type":"event"},{"anonymous":false,"inputs":[{"indexed":true,"internalType":"address","name":"strategy","type":"address"},{"indexed":false,"internalType":"enum StrategyChangeType","name":"changeType","type":"uint8"}],"name":"StrategyChanged","type":"event"},{"anonymous":false,"inputs":[{"indexed":true,"internalType":"address","name":"strategy","type":"address"},{"indexed":false,"internalType":"uint256","name":"gain","type":"uint256"},{"indexed":false,"internalType":"uint256","name":"loss","type":"uint256"},{"indexed":false,"internalType":"uint256","name":"currentDebt","type":"uint256"},{"indexed":false,"internalType":"uint256","name":"protocolFees","type":"uint256"},{"indexed":false,"internalType":"uint256","name":"totalFees","type":"uint256"},{"indexed":false,"internalType":"uint256","name":"totalRefunds","type":"uint256"}],"name":"StrategyReported","type":"event"},{"anonymous":false,"inputs":[{"indexed":true,"internalType":"address","name":"accountant","type":"address"}],"name":"UpdateAccountant","type":"event"},{"anonymous":false,"inputs":[{"indexed":false,"internalType":"address[]","name":"newDefaultQueue","type":"address[]"}],"name":"UpdateDefaultQueue","type":"event"},{"anonymous":false,"inputs":[{"indexed":false,"internalType":"uint256","name":"depositLimit","type":"uint256"}],"name":"UpdateDepositLimit","type":"event"},{"anonymous":false,"inputs":[{"indexed":true,"internalType":"address","name":"depositLimitModule","type":"address"}],"name":"UpdateDepositLimitModule","type":"event"},{"anonymous":false,"inputs":[{"indexed":false,"internalType":"uint256","name":"minimumTotalIdle","type":"uint256"}],"name":"UpdateMinimumTotalIdle","type":"event"},{"anonymous":false,"inputs":[{"indexed":false,"internalType":"uint256","name":"profitMaxUnlockTime","type":"uint256"}],"name":"UpdateProfitMaxUnlockTime","type":"event"},{"anonymous":false,"inputs":[{"indexed":true,"internalType":"address","name":"roleManager","type":"address"}],"name":"UpdateRoleManager","type":"event"},{"anonymous":false,"inputs":[{"indexed":false,"internalType":"bool","name":"useDefaultQueue","type":"bool"}],"name":"UpdateUseDefaultQueue","type":"event"},{"anonymous":false,"inputs":[{"indexed":true,"internalType":"address","name":"withdrawLimitModule","type":"address"}],"name":"UpdateWithdrawLimitModule","type":"event"},{"anonymous":false,"inputs":[{"indexed":true,"internalType":"address","name":"sender","type":"address"},{"indexed":true,"internalType":"address","name":"strategy","type":"address"},{"indexed":false,"internalType":"uint256","name":"newDebt","type":"uint256"}],"name":"UpdatedMaxDebtForStrategy","type":"event"},{"inputs":[],"name":"ACCOUNTANT_MANAGER","outputs":[{"internalType":"bytes32","name":"","type":"bytes32"}],"stateMutability":"view","type":"function"},{"inputs":[],"name":"ADD_STRATEGY_MANAGER","outputs":[{"internalType":"bytes32","name":"","type":"bytes32"}],"stateMutability":"view","type":"function"},{"inputs":[],"name":"API_VERSION","outputs":[{"internalType":"string","name":"","type":"string"}],"stateMutability":"view","type":"function"},{"inputs":[],"name":"ASSET","outputs":[{"internalType":"contract IERC20","name":"","type":"address"}],"stateMutability":"view","type":"function"},{"inputs":[],"name":"DEBT_MANAGER","outputs":[{"internalType":"bytes32","name":"","type":"bytes32"}],"stateMutability":"view","type":"function"},{"inputs":[],"name":"DEBT_PURCHASER","outputs":[{"internalType":"bytes32","name":"","type":"bytes32"}],"stateMutability":"view","type":"function"},{"inputs":[],"name":"DEPOSIT_LIMIT_MANAGER","outputs":[{"internalType":"bytes32","name":"","type":"bytes32"}],"stateMutability":"view","type":"function"},{"inputs":[],"name":"DOMAIN_SEPARATOR","outputs":[{"internalType":"bytes32","name":"","type":"bytes32"}],"stateMutability":"view","type":"function"},{"inputs":[],"name":"DOMAIN_TYPE_HASH","outputs":[{"internalType":"bytes32","name":"","type":"bytes32"}],"stateMutability":"view","type":"function"},{"inputs":[],"name":"EMERGENCY_MANAGER","outputs":[{"internalType":"bytes32","name":"","type":"bytes32"}],"stateMutability":"view","type":"function"},{"inputs":[],"name":"FORCE_REVOKE_MANAGER","outputs":[{"internalType":"bytes32","name":"","type":"bytes32"}],"stateMutability":"view","type":"function"},{"inputs":[],"name":"MAX_BPS","outputs":[{"internalType":"uint256","name":"","type":"uint256"}],"stateMutability":"view","type":"function"},{"inputs":[],"name":"MAX_BPS_EXTENDED","outputs":[{"internalType":"uint256","name":"","type":"uint256"}],"stateMutability":"view","type":"function"},{"inputs":[],"name":"MAX_DEBT_MANAGER","outputs":[{"internalType":"bytes32","name":"","type":"bytes32"}],"stateMutability":"view","type":"function"},{"inputs":[],"name":"MAX_QUEUE","outputs":[{"internalType":"uint256","name":"","type":"uint256"}],"stateMutability":"view","type":"function"},{"inputs":[],"name":"MINIMUM_IDLE_MANAGER","outputs":[{"internalType":"bytes32","name":"","type":"bytes32"}],"stateMutability":"view","type":"function"},{"inputs":[],"name":"PERMIT_TYPE_HASH","outputs":[{"internalType":"bytes32","name":"","type":"bytes32"}],"stateMutability":"view","type":"function"},{"inputs":[],"name":"PROFIT_UNLOCK_MANAGER","outputs":[{"internalType":"bytes32","name":"","type":"bytes32"}],"stateMutability":"view","type":"function"},{"inputs":[],"name":"QUEUE_MANAGER","outputs":[{"internalType":"bytes32","name":"","type":"bytes32"}],"stateMutability":"view","type":"function"},{"inputs":[],"name":"REPORTING_MANAGER","outputs":[{"internalType":"bytes32","name":"","type":"bytes32"}],"stateMutability":"view","type":"function"},{"inputs":[],"name":"REVOKE_STRATEGY_MANAGER","outputs":[{"internalType":"bytes32","name":"","type":"bytes32"}],"stateMutability":"view","type":"function"},{"inputs":[],"name":"ROLE_MANAGER","outputs":[{"internalType":"bytes32","name":"","type":"bytes32"}],"stateMutability":"view","type":"function"},{"inputs":[],"name":"WITHDRAW_LIMIT_MANAGER","outputs":[{"internalType":"bytes32","name":"","type":"bytes32"}],"stateMutability":"view","type":"function"},{"inputs":[],"name":"accountant","outputs":[{"internalType":"address","name":"","type":"address"}],"stateMutability":"view","type":"function"},{"inputs":[{"internalType":"address","name":"newStrategy","type":"address"}],"name":"addStrategy","outputs":[],"stateMutability":"nonpayable","type":"function"},{"inputs":[{"internalType":"uint256","name":"","type":"uint256"}],"name":"defaultQueue","outputs":[{"internalType":"address","name":"","type":"address"}],"stateMutability":"view","type":"function"},{"inputs":[],"name":"depositLimit","outputs":[{"internalType":"uint256","name":"","type":"uint256"}],"stateMutability":"view","type":"function"},{"inputs":[],"name":"depositLimitModule","outputs":[{"internalType":"address","name":"","type":"address"}],"stateMutability":"view","type":"function"},{"inputs":[],"name":"fullProfitUnlockDate","outputs":[{"internalType":"uint256","name":"","type":"uint256"}],"stateMutability":"view","type":"function"},{"inputs":[],"name":"futureRoleManager","outputs":[{"internalType":"address","name":"","type":"address"}],"stateMutability":"view","type":"function"},{"inputs":[],"name":"lastProfitUpdate","outputs":[{"internalType":"uint256","name":"","type":"uint256"}],"stateMutability":"view","type":"function"},{"inputs":[],"name":"minimumTotalIdle","outputs":[{"internalType":"uint256","name":"","type":"uint256"}],"stateMutability":"view","type":"function"},{"inputs":[{"internalType":"address","name":"","type":"address"}],"name":"nonces","outputs":[{"internalType":"uint256","name":"","type":"uint256"}],"stateMutability":"view","type":"function"},{"inputs":[{"internalType":"bytes32","name":"","type":"bytes32"}],"name":"openRoles","outputs":[{"internalType":"bool","name":"","type":"bool"}],"stateMutability":"view","type":"function"},{"inputs":[],"name":"profitMaxUnlockTime","outputs":[{"internalType":"uint256","name":"","type":"uint256"}],"stateMutability":"view","type":"function"},{"inputs":[],"name":"profitUnlockingRate","outputs":[{"internalType":"uint256","name":"","type":"uint256"}],"stateMutability":"view","type":"function"},{"inputs":[{"internalType":"address","name":"strategy","type":"address"},{"internalType":"bool","name":"force","type":"bool"}],"name":"revokeStrategy","outputs":[],"stateMutability":"nonpayable","type":"function"},{"inputs":[],"name":"roleManager","outputs":[{"internalType":"address","name":"","type":"address"}],"stateMutability":"view","type":"function"},{"inputs":[{"internalType":"address","name":"","type":"address"}],"name":"roles","outputs":[{"internalType":"bytes32","name":"","type":"bytes32"}],"stateMutability":"view","type":"function"},{"inputs":[],"name":"shutdown","outputs":[{"internalType":"bool","name":"","type":"bool"}],"stateMutability":"view","type":"function"},{"inputs":[{"internalType":"address","name":"","type":"address"}],"name":"strategies","outputs":[{"internalType":"uint256","name":"activation","type":"uint256"},{"internalType":"uint256","name":"lastReport","type":"uint256"},{"internalType":"uint256","name":"currentDebt","type":"uint256"},{"internalType":"uint256","name":"maxDebt","type":"uint256"}],"stateMutability":"view","type":"function"},{"inputs":[],"name":"totalDebtAmount","outputs":[{"internalType":"uint256","name":"","type":"uint256"}],"stateMutability":"view","type":"function"},{"inputs":[],"name":"totalIdleAmount","outputs":[{"internalType":"uint256","name":"","type":"uint256"}],"stateMutability":"view","type":"function"},{"inputs":[],"name":"totalSupplyAmount","outputs":[{"internalType":"uint256","name":"","type":"uint256"}],"stateMutability":"view","type":"function"},{"inputs":[],"name":"useDefaultQueue","outputs":[{"internalType":"bool","name":"","type":"bool"}],"stateMutability":"view","type":"function"},{"inputs":[],"name":"withdrawLimitModule","outputs":[{"internalType":"address","name":"","type":"address"}],"stateMutability":"view","type":"function"}],"devdoc":{"kind":"dev","methods":{},"title":"STRATEGY MANAGEMENT","version":1},"evm":{"bytecode":{"linkReferences":{},"object":"60a060405234801561001057600080fd5b50604051620010a1380380620010a183398101604081905261003191610082565b6001600160a01b03166080526100ab565b60006001600160a01b0382165b92915050565b600061004f82610042565b61006981610055565b811461007457600080fd5b50565b805161004f81610060565b60006020828403121561009757610097600080fd5b60006100a38484610077565b949350505050565b608051610fd3620000ce6000396000818161034301526107630152610fd36000f3fe608060405234801561001057600080fd5b50600436106102195760003560e01c8062435da51461021e57806303dcd12c146102475780630835a3fc1461027b5780630952864e146102845780630ad283d01461028d578063223e5479146102b45780632d632692146102c95780633644e515146102d257806336fba084146102db57806339ebf823146102e75780633cd7b5ab1461032d5780633f7b5e40146103365780634800d97f1461033e5780634ce1d38a146103725780634cfe51dc146103995780634d4bb197146103c05780634fb3ccc5146103e75780635141eebb146103fa57806353a66132146104035780635bf6b4fb14610433578063652da3241461045a57806377e3b267146104815780637ecebe00146104b25780638afca8f0146104d257806391986003146104db57806399374642146104ee5780639e34e3481461050e5780639f3988f314610521578063a98222c414610548578063ab5b4d491461056f578063b3c187f214610596578063bbe4eb49146105a9578063c065ca07146105b6578063c0993eea146105dd578063c8d74b6014610604578063c8dffa951461062b578063d4ae064f14610634578063ecf708581461065b578063f1daeba814610664578063f42c77ae1461068b578063f5b944eb1461069e578063f828f50b146106c5578063fc0e74d1146106ce578063fd967f47146106e2578063fec61f06146106eb578063ff1e7f0814610712575b600080fd5b601054610231906001600160a01b031681565b60405161023e9190610c3b565b60405180910390f35b61026e7f633076a97f32ae349b28772e7b1483f67a926f150cbc501d02bdbd77389325ab81565b60405161023e9190610c4f565b61026e60095481565b61026e60125481565b61026e7fc723f4dd6268e1c374639e36d629c765285ee7003913389d582c300f186dde9781565b6102c76102c2366004610c7f565b610725565b005b61026e60135481565b61026e60175481565b61026e64e8d4a5100081565b61031d6102f5366004610c7f565b6001602081905260009182526040909120805491810154600282015460039092015490919084565b60405161023e9493929190610ca8565b61026e60085481565b61026e600a81565b6103657f000000000000000000000000000000000000000000000000000000000000000081565b60405161023e9190610d1e565b61026e7f69d1171ac0a63777a6733cda21aec9ed3d48a4fd11f273c934a691dec5e5589c81565b61026e7f862f91c9d89d6135b19873b921c90b702cb2e175c371b8430026b9577e69111981565b61026e7f6e71edae12b1b97f4d1f60370fef10105fa2faae0126114a169c64845d6126c981565b600b54610231906001600160a01b031681565b61026e60145481565b610426610411366004610d3d565b600f6020526000908152604090205460ff1681565b60405161023e9190610d66565b61026e7fea672c1c09cd95c51af9509f646f3615ff0071aae8652bd821471ee9037fd72c81565b61026e7fcd9f023a942ee35097ead74b2505bea9f2c5d47465db92dd195cf7f01a41cfe181565b6104a5604051806040016040528060058152602001640312e302e360dc1b81525081565b60405161023e9190610dca565b61026e6104c0366004610c7f565b60166020526000908152604090205481565b61026e60155481565b600d54610231906001600160a01b031681565b61026e6104fc366004610c7f565b600e6020526000908152604090205481565b600c54610231906001600160a01b031681565b61026e7f6f430d649a8640e48ff9bfbc353b3f99ed630163857821b3b4075e3871dafbf581565b61026e7f2f0dbbe8c2c0170206c50ec0cafa1c0dbd03e73e67c2a960178df30a0a30ee2e81565b61026e7f900d80def0427daac599092fcb16b21808ec68dd9a2e1eae89d1e8db2135737581565b601154610231906001600160a01b031681565b6003546104269060ff1681565b61026e7f2a0e761830cc61f2707ea7bb138008bf9dda7f7d34c77736d0a116604e95ea1681565b61026e7f8b73c3c69bb8fe3d512ecc4cf759cc79239f7b179b0ffacaa9a75d522b39400f81565b61026e7f152ebba56b9738ee3d8baea1b76fa31dcdcd79b1929bfea7d58ee12cfdf1a65381565b61026e60075481565b61026e7fa18eaea71a088b547b8c932b48861853b3434d9a3240b94466c607e28b69659581565b61026e600a5481565b61026e7f7cbb3cdf689b8ea3e9d265f66bc4e0a99069268217017d38d2a5a559abc6271981565b6102c7610699366004610df5565b61092e565b61026e7ff206625bad3d9112d5609b8d356e6fbd514cd1f69980d4ce2b3e6e68e1789ace81565b61026e60065481565b60115461042690600160a01b900460ff1681565b61026e61271081565b61026e7fd45f7ccff42f059d4e47c3f027c444272257266f7e88b981e142f0aa38fbfd7881565b610231610720366004610d3d565b610b6b565b6001600160a01b038116158061074357506001600160a01b03811630145b156107615760405163d92e233d60e01b815260040160405180910390fd5b7f00000000000000000000000000000000000000000000000000000000000000006001600160a01b0316816001600160a01b03166338d52e0f6040518163ffffffff1660e01b8152600401602060405180830381865afa1580156107c9573d6000803e3d6000fd5b505050506040513d601f19601f820116820180604052508101906107ed9190610e3d565b6001600160a01b03161461081457604051636448d6e960e11b815260040160405180910390fd5b6001600160a01b0381166000908152600160205260409020541561084b5760405163c976754d60e01b815260040160405180910390fd5b604080516080810182524280825260208083019182526000838501818152606085018281526001600160a01b0388168352600193849052959091209351845591519083015551600280830191909155915160039091015554600a8110156108fa57816002826108b981610e74565b9350815481106108cb576108cb610e8e565b9060005260206000200160006101000a8154816001600160a01b0302191690836001600160a01b031602179055505b816001600160a01b0316600080516020610f7e83398151915260006040516109229190610eed565b60405180910390a25050565b6001600160a01b038216600090815260016020526040812054900361096657604051630631bc2160e51b815260040160405180910390fd5b6001600160a01b0382166000908152600160205260408120600201541580159061098e575081155b156109ac57604051633546382f60e21b815260040160405180910390fd5b506001600160a01b03821660009081526001602052604081206002015460078054919283926109dc908490610efb565b92505081905550826001600160a01b03167f7f2ad1d3ba35276f35ef140f83e3e0f17b23064fd710113d3f7a5ab30d267811600083600080600080604051610a2996959493929190610f23565b60405180910390a2604080516080810182526000808252602080830182815283850183815260608086018581526001600160a01b038b1686526001948590529690942094518555905191840191909155516002808401919091559251600390920191909155905415610b215760005b600254811015610b1f57600060028281548110610ab757610ab7610e8e565b6000918252602090912001546001600160a01b03908116915086168114610b0c5780838381518110610aeb57610aeb610e8e565b60200260200101906001600160a01b031690816001600160a01b0316815250505b5080610b1781610e74565b915050610a98565b505b8051610b34906002906020840190610b95565b50836001600160a01b0316600080516020610f7e8339815191526001604051610b5d9190610eed565b60405180910390a250505050565b60028181548110610b7b57600080fd5b6000918252602090912001546001600160a01b0316905081565b828054828255906000526020600020908101928215610bea579160200282015b82811115610bea57825182546001600160a01b0319166001600160a01b03909116178255602090920191600190910190610bb5565b50610bf6929150610bfa565b5090565b5b80821115610bf65760008155600101610bfb565b6001600160a01b031690565b6000610c2682610c0f565b92915050565b610c3581610c1b565b82525050565b60208101610c268284610c2c565b80610c35565b60208101610c268284610c49565b610c6681610c1b565b8114610c7157600080fd5b50565b8035610c2681610c5d565b600060208284031215610c9457610c94600080fd5b6000610ca08484610c74565b949350505050565b60808101610cb68287610c49565b610cc36020830186610c49565b610cd06040830185610c49565b610cdd6060830184610c49565b95945050505050565b6000610c26610cfa610cf784610c0f565b90565b610c0f565b6000610c2682610ce6565b6000610c2682610cff565b610c3581610d0a565b60208101610c268284610d15565b80610c66565b8035610c2681610d2c565b600060208284031215610d5257610d52600080fd5b6000610ca08484610d32565b801515610c35565b60208101610c268284610d5e565b60005b83811015610d8f578181015183820152602001610d77565b50506000910152565b6000610da2825190565b808452602084019350610db9818560208601610d74565b601f01601f19169290920192915050565b60208082528101610ddb8184610d98565b9392505050565b801515610c66565b8035610c2681610de2565b60008060408385031215610e0b57610e0b600080fd5b6000610e178585610c74565b9250506020610e2885828601610dea565b9150509250929050565b8051610c2681610c5d565b600060208284031215610e5257610e52600080fd5b6000610ca08484610e32565b634e487b7160e01b600052601160045260246000fd5b60006000198203610e8757610e87610e5e565b5060010190565b634e487b7160e01b600052603260045260246000fd5b634e487b7160e01b600052602160045260246000fd5b60028110610c7157610c71610ea4565b80610ed481610eba565b919050565b6000610c2682610eca565b610c3581610ed9565b60208101610c268284610ee4565b81810381811115610c2657610c26610e5e565b6000610c26610cf78381565b610c3581610f0e565b60c08101610f318289610f1a565b610f3e6020830188610c49565b610f4b6040830187610f1a565b610f586060830186610f1a565b610f656080830185610f1a565b610f7260a0830184610f1a565b97965050505050505056febcf55f13710eed7eda89416c2984da5475fcff67e96fe85e56eed808559a5222a264697066735822122013a7b6972bcd85b0b3d2bc8797221f0bb4acb94eb447dca1ddc95cd87da438f464736f6c63430008100033","opcodes":"PUSH1 0xA0 PUSH1 0x40 MSTORE CALLVALUE DUP1 ISZERO PUSH2 0x10 JUMPI PUSH1 0x0 DUP1 REVERT JUMPDEST POP PUSH1 0x40 MLOAD PUSH3 0x10A1 CODESIZE SUB DUP1 PUSH3 0x10A1 DUP4 CODECOPY DUP2 ADD PUSH1 0x40 DUP2 SWAP1 MSTORE PUSH2 0x31 SWAP2 PUSH2 0x82 JUMP JUMPDEST PUSH1 0x1 PUSH1 0x1 PUSH1 0xA0 SHL SUB AND PUSH1 0x80 MSTORE PUSH2 0xAB JUMP JUMPDEST PUSH1 0x0 PUSH1 0x1 PUSH1 0x1 PUSH1 0xA0 SHL SUB DUP3 AND JUMPDEST SWAP3 SWAP2 POP POP JUMP JUMPDEST PUSH1 0x0 PUSH2 0x4F DUP3 PUSH2 0x42 JUMP JUMPDEST PUSH2 0x69 DUP2 PUSH2 0x55 JUMP JUMPDEST DUP2 EQ PUSH2 0x74 JUMPI PUSH1 0x0 DUP1 REVERT JUMPDEST POP JUMP JUMPDEST DUP1 MLOAD PUSH2 0x4F DUP2 PUSH2 0x60 JUMP JUMPDEST PUSH1 0x0 PUSH1 0x20 DUP3 DUP5 SUB SLT ISZERO PUSH2 0x97 JUMPI PUSH2 0x97 PUSH1 0x0 DUP1 REVERT JUMPDEST PUSH1 0x0 PUSH2 0xA3 DUP5 DUP5 PUSH2 0x77 JUMP JUMPDEST SWAP5 SWAP4 POP POP POP POP JUMP JUMPDEST PUSH1 0x80 MLOAD PUSH2 0xFD3 PUSH3 0xCE PUSH1 0x0 CODECOPY PUSH1 0x0 DUP2 DUP2 PUSH2 0x343 ADD MSTORE PUSH2 0x763 ADD MSTORE PUSH2 0xFD3 PUSH1 0x0 RETURN INVALID PUSH1 0x80 PUSH1 0x40 MSTORE CALLVALUE DUP1 ISZERO PUSH2 0x10 JUMPI PUSH1 0x0 DUP1 REVERT JUMPDEST POP PUSH1 0x4 CALLDATASIZE LT PUSH2 0x219 JUMPI PUSH1 0x0 CALLDATALOAD PUSH1 0xE0 SHR DUP1 PUSH3 0x435DA5 EQ PUSH2 0x21E JUMPI DUP1 PUSH4 0x3DCD12C EQ PUSH2 0x247 JUMPI DUP1 PUSH4 0x835A3FC EQ PUSH2 0x27B JUMPI DUP1 PUSH4 0x952864E EQ PUSH2 0x284 JUMPI DUP1 PUSH4 0xAD283D0 EQ PUSH2 0x28D JUMPI DUP1 PUSH4 0x223E5479 EQ PUSH2 0x2B4 JUMPI DUP1 PUSH4 0x2D632692 EQ PUSH2 0x2C9 JUMPI DUP1 PUSH4 0x3644E515 EQ PUSH2 0x2D2 JUMPI DUP1 PUSH4 0x36FBA084 EQ PUSH2 0x2DB JUMPI DUP1 PUSH4 0x39EBF823 EQ PUSH2 0x2E7 JUMPI DUP1 PUSH4 0x3CD7B5AB EQ PUSH2 0x32D JUMPI DUP1 PUSH4 0x3F7B5E40 EQ PUSH2 0x336 JUMPI DUP1 PUSH4 0x4800D97F EQ PUSH2 0x33E JUMPI DUP1 PUSH4 0x4CE1D38A EQ PUSH2 0x372 JUMPI DUP1 PUSH4 0x4CFE51DC EQ PUSH2 0x399 JUMPI DUP1 PUSH4 0x4D4BB197 EQ PUSH2 0x3C0 JUMPI DUP1 PUSH4 0x4FB3CCC5 EQ PUSH2 0x3E7 JUMPI DUP1 PUSH4 0x5141EEBB EQ PUSH2 0x3FA JUMPI DUP1 PUSH4 0x53A66132 EQ PUSH2 0x403 JUMPI DUP1 PUSH4 0x5BF6B4FB EQ PUSH2 0x433 JUMPI DUP1 PUSH4 0x652DA324 EQ PUSH2 0x45A JUMPI DUP1 PUSH4 0x77E3B267 EQ PUSH2 0x481 JUMPI DUP1 PUSH4 0x7ECEBE00 EQ PUSH2 0x4B2 JUMPI DUP1 PUSH4 0x8AFCA8F0 EQ PUSH2 0x4D2 JUMPI DUP1 PUSH4 0x91986003 EQ PUSH2 0x4DB JUMPI DUP1 PUSH4 0x99374642 EQ PUSH2 0x4EE JUMPI DUP1 PUSH4 0x9E34E348 EQ PUSH2 0x50E JUMPI DUP1 PUSH4 0x9F3988F3 EQ PUSH2 0x521 JUMPI DUP1 PUSH4 0xA98222C4 EQ PUSH2 0x548 JUMPI DUP1 PUSH4 0xAB5B4D49 EQ PUSH2 0x56F JUMPI DUP1 PUSH4 0xB3C187F2 EQ PUSH2 0x596 JUMPI DUP1 PUSH4 0xBBE4EB49 EQ PUSH2 0x5A9 JUMPI DUP1 PUSH4 0xC065CA07 EQ PUSH2 0x5B6 JUMPI DUP1 PUSH4 0xC0993EEA EQ PUSH2 0x5DD JUMPI DUP1 PUSH4 0xC8D74B60 EQ PUSH2 0x604 JUMPI DUP1 PUSH4 0xC8DFFA95 EQ PUSH2 0x62B JUMPI DUP1 PUSH4 0xD4AE064F EQ PUSH2 0x634 JUMPI DUP1 PUSH4 0xECF70858 EQ PUSH2 0x65B JUMPI DUP1 PUSH4 0xF1DAEBA8 EQ PUSH2 0x664 JUMPI DUP1 PUSH4 0xF42C77AE EQ PUSH2 0x68B JUMPI DUP1 PUSH4 0xF5B944EB EQ PUSH2 0x69E JUMPI DUP1 PUSH4 0xF828F50B EQ PUSH2 0x6C5 JUMPI DUP1 PUSH4 0xFC0E74D1 EQ PUSH2 0x6CE JUMPI DUP1 PUSH4 0xFD967F47 EQ PUSH2 0x6E2 JUMPI DUP1 PUSH4 0xFEC61F06 EQ PUSH2 0x6EB JUMPI DUP1 PUSH4 0xFF1E7F08 EQ PUSH2 0x712 JUMPI JUMPDEST PUSH1 0x0 DUP1 REVERT JUMPDEST PUSH1 0x10 SLOAD PUSH2 0x231 SWAP1 PUSH1 0x1 PUSH1 0x1 PUSH1 0xA0 SHL SUB AND DUP2 JUMP JUMPDEST PUSH1 0x40 MLOAD PUSH2 0x23E SWAP2 SWAP1 PUSH2 0xC3B JUMP JUMPDEST PUSH1 0x40 MLOAD DUP1 SWAP2 SUB SWAP1 RETURN JUMPDEST PUSH2 0x26E PUSH32 0x633076A97F32AE349B28772E7B1483F67A926F150CBC501D02BDBD77389325AB DUP2 JUMP JUMPDEST PUSH1 0x40 MLOAD PUSH2 0x23E SWAP2 SWAP1 PUSH2 0xC4F JUMP JUMPDEST PUSH2 0x26E PUSH1 0x9 SLOAD DUP2 JUMP JUMPDEST PUSH2 0x26E PUSH1 0x12 SLOAD DUP2 JUMP JUMPDEST PUSH2 0x26E PUSH32 0xC723F4DD6268E1C374639E36D629C765285EE7003913389D582C300F186DDE97 DUP2 JUMP JUMPDEST PUSH2 0x2C7 PUSH2 0x2C2 CALLDATASIZE PUSH1 0x4 PUSH2 0xC7F JUMP JUMPDEST PUSH2 0x725 JUMP JUMPDEST STOP JUMPDEST PUSH2 0x26E PUSH1 0x13 SLOAD DUP2 JUMP JUMPDEST PUSH2 0x26E PUSH1 0x17 SLOAD DUP2 JUMP JUMPDEST PUSH2 0x26E PUSH5 0xE8D4A51000 DUP2 JUMP JUMPDEST PUSH2 0x31D PUSH2 0x2F5 CALLDATASIZE PUSH1 0x4 PUSH2 0xC7F JUMP JUMPDEST PUSH1 0x1 PUSH1 0x20 DUP2 SWAP1 MSTORE PUSH1 0x0 SWAP2 DUP3 MSTORE PUSH1 0x40 SWAP1 SWAP2 KECCAK256 DUP1 SLOAD SWAP2 DUP2 ADD SLOAD PUSH1 0x2 DUP3 ADD SLOAD PUSH1 0x3 SWAP1 SWAP3 ADD SLOAD SWAP1 SWAP2 SWAP1 DUP5 JUMP JUMPDEST PUSH1 0x40 MLOAD PUSH2 0x23E SWAP5 SWAP4 SWAP3 SWAP2 SWAP1 PUSH2 0xCA8 JUMP JUMPDEST PUSH2 0x26E PUSH1 0x8 SLOAD DUP2 JUMP JUMPDEST PUSH2 0x26E PUSH1 0xA DUP2 JUMP JUMPDEST PUSH2 0x365 PUSH32 0x0 DUP2 JUMP JUMPDEST PUSH1 0x40 MLOAD PUSH2 0x23E SWAP2 SWAP1 PUSH2 0xD1E JUMP JUMPDEST PUSH2 0x26E PUSH32 0x69D1171AC0A63777A6733CDA21AEC9ED3D48A4FD11F273C934A691DEC5E5589C DUP2 JUMP JUMPDEST PUSH2 0x26E PUSH32 0x862F91C9D89D6135B19873B921C90B702CB2E175C371B8430026B9577E691119 DUP2 JUMP JUMPDEST PUSH2 0x26E PUSH32 0x6E71EDAE12B1B97F4D1F60370FEF10105FA2FAAE0126114A169C64845D6126C9 DUP2 JUMP JUMPDEST PUSH1 0xB SLOAD PUSH2 0x231 SWAP1 PUSH1 0x1 PUSH1 0x1 PUSH1 0xA0 SHL SUB AND DUP2 JUMP JUMPDEST PUSH2 0x26E PUSH1 0x14 SLOAD DUP2 JUMP JUMPDEST PUSH2 0x426 PUSH2 0x411 CALLDATASIZE PUSH1 0x4 PUSH2 0xD3D JUMP JUMPDEST PUSH1 0xF PUSH1 0x20 MSTORE PUSH1 0x0 SWAP1 DUP2 MSTORE PUSH1 0x40 SWAP1 KECCAK256 SLOAD PUSH1 0xFF AND DUP2 JUMP JUMPDEST PUSH1 0x40 MLOAD PUSH2 0x23E SWAP2 SWAP1 PUSH2 0xD66 JUMP JUMPDEST PUSH2 0x26E PUSH32 0xEA672C1C09CD95C51AF9509F646F3615FF0071AAE8652BD821471EE9037FD72C DUP2 JUMP JUMPDEST PUSH2 0x26E PUSH32 0xCD9F023A942EE35097EAD74B2505BEA9F2C5D47465DB92DD195CF7F01A41CFE1 DUP2 JUMP JUMPDEST PUSH2 0x4A5 PUSH1 0x40 MLOAD DUP1 PUSH1 0x40 ADD PUSH1 0x40 MSTORE DUP1 PUSH1 0x5 DUP2 MSTORE PUSH1 0x20 ADD PUSH5 0x312E302E3 PUSH1 0xDC SHL DUP2 MSTORE POP DUP2 JUMP JUMPDEST PUSH1 0x40 MLOAD PUSH2 0x23E SWAP2 SWAP1 PUSH2 0xDCA JUMP JUMPDEST PUSH2 0x26E PUSH2 0x4C0 CALLDATASIZE PUSH1 0x4 PUSH2 0xC7F JUMP JUMPDEST PUSH1 0x16 PUSH1 0x20 MSTORE PUSH1 0x0 SWAP1 DUP2 MSTORE PUSH1 0x40 SWAP1 KECCAK256 SLOAD DUP2 JUMP JUMPDEST PUSH2 0x26E PUSH1 0x15 SLOAD DUP2 JUMP JUMPDEST PUSH1 0xD SLOAD PUSH2 0x231 SWAP1 PUSH1 0x1 PUSH1 0x1 PUSH1 0xA0 SHL SUB AND DUP2 JUMP JUMPDEST PUSH2 0x26E PUSH2 0x4FC CALLDATASIZE PUSH1 0x4 PUSH2 0xC7F JUMP JUMPDEST PUSH1 0xE PUSH1 0x20 MSTORE PUSH1 0x0 SWAP1 DUP2 MSTORE PUSH1 0x40 SWAP1 KECCAK256 SLOAD DUP2 JUMP JUMPDEST PUSH1 0xC SLOAD PUSH2 0x231 SWAP1 PUSH1 0x1 PUSH1 0x1 PUSH1 0xA0 SHL SUB AND DUP2 JUMP JUMPDEST PUSH2 0x26E PUSH32 0x6F430D649A8640E48FF9BFBC353B3F99ED630163857821B3B4075E3871DAFBF5 DUP2 JUMP JUMPDEST PUSH2 0x26E PUSH32 0x2F0DBBE8C2C0170206C50EC0CAFA1C0DBD03E73E67C2A960178DF30A0A30EE2E DUP2 JUMP JUMPDEST PUSH2 0x26E PUSH32 0x900D80DEF0427DAAC599092FCB16B21808EC68DD9A2E1EAE89D1E8DB21357375 DUP2 JUMP JUMPDEST PUSH1 0x11 SLOAD PUSH2 0x231 SWAP1 PUSH1 0x1 PUSH1 0x1 PUSH1 0xA0 SHL SUB AND DUP2 JUMP JUMPDEST PUSH1 0x3 SLOAD PUSH2 0x426 SWAP1 PUSH1 0xFF AND DUP2 JUMP JUMPDEST PUSH2 0x26E PUSH32 0x2A0E761830CC61F2707EA7BB138008BF9DDA7F7D34C77736D0A116604E95EA16 DUP2 JUMP JUMPDEST PUSH2 0x26E PUSH32 0x8B73C3C69BB8FE3D512ECC4CF759CC79239F7B179B0FFACAA9A75D522B39400F DUP2 JUMP JUMPDEST PUSH2 0x26E PUSH32 0x152EBBA56B9738EE3D8BAEA1B76FA31DCDCD79B1929BFEA7D58EE12CFDF1A653 DUP2 JUMP JUMPDEST PUSH2 0x26E PUSH1 0x7 SLOAD DUP2 JUMP JUMPDEST PUSH2 0x26E PUSH32 0xA18EAEA71A088B547B8C932B48861853B3434D9A3240B94466C607E28B696595 DUP2 JUMP JUMPDEST PUSH2 0x26E PUSH1 0xA SLOAD DUP2 JUMP JUMPDEST PUSH2 0x26E PUSH32 0x7CBB3CDF689B8EA3E9D265F66BC4E0A99069268217017D38D2A5A559ABC62719 DUP2 JUMP JUMPDEST PUSH2 0x2C7 PUSH2 0x699 CALLDATASIZE PUSH1 0x4 PUSH2 0xDF5 JUMP JUMPDEST PUSH2 0x92E JUMP JUMPDEST PUSH2 0x26E PUSH32 0xF206625BAD3D9112D5609B8D356E6FBD514CD1F69980D4CE2B3E6E68E1789ACE DUP2 JUMP JUMPDEST PUSH2 0x26E PUSH1 0x6 SLOAD DUP2 JUMP JUMPDEST PUSH1 0x11 SLOAD PUSH2 0x426 SWAP1 PUSH1 0x1 PUSH1 0xA0 SHL SWAP1 DIV PUSH1 0xFF AND DUP2 JUMP JUMPDEST PUSH2 0x26E PUSH2 0x2710 DUP2 JUMP JUMPDEST PUSH2 0x26E PUSH32 0xD45F7CCFF42F059D4E47C3F027C444272257266F7E88B981E142F0AA38FBFD78 DUP2 JUMP JUMPDEST PUSH2 0x231 PUSH2 0x720 CALLDATASIZE PUSH1 0x4 PUSH2 0xD3D JUMP JUMPDEST PUSH2 0xB6B JUMP JUMPDEST PUSH1 0x1 PUSH1 0x1 PUSH1 0xA0 SHL SUB DUP2 AND ISZERO DUP1 PUSH2 0x743 JUMPI POP PUSH1 0x1 PUSH1 0x1 PUSH1 0xA0 SHL SUB DUP2 AND ADDRESS EQ JUMPDEST ISZERO PUSH2 0x761 JUMPI PUSH1 0x40 MLOAD PUSH4 0xD92E233D PUSH1 0xE0 SHL DUP2 MSTORE PUSH1 0x4 ADD PUSH1 0x40 MLOAD DUP1 SWAP2 SUB SWAP1 REVERT JUMPDEST PUSH32 0x0 PUSH1 0x1 PUSH1 0x1 PUSH1 0xA0 SHL SUB AND DUP2 PUSH1 0x1 PUSH1 0x1 PUSH1 0xA0 SHL SUB AND PUSH4 0x38D52E0F PUSH1 0x40 MLOAD DUP2 PUSH4 0xFFFFFFFF AND PUSH1 0xE0 SHL DUP2 MSTORE PUSH1 0x4 ADD PUSH1 0x20 PUSH1 0x40 MLOAD DUP1 DUP4 SUB DUP2 DUP7 GAS STATICCALL ISZERO DUP1 ISZERO PUSH2 0x7C9 JUMPI RETURNDATASIZE PUSH1 0x0 DUP1 RETURNDATACOPY RETURNDATASIZE PUSH1 0x0 REVERT JUMPDEST POP POP POP POP PUSH1 0x40 MLOAD RETURNDATASIZE PUSH1 0x1F NOT PUSH1 0x1F DUP3 ADD AND DUP3 ADD DUP1 PUSH1 0x40 MSTORE POP DUP2 ADD SWAP1 PUSH2 0x7ED SWAP2 SWAP1 PUSH2 0xE3D JUMP JUMPDEST PUSH1 0x1 PUSH1 0x1 PUSH1 0xA0 SHL SUB AND EQ PUSH2 0x814 JUMPI PUSH1 0x40 MLOAD PUSH4 0x6448D6E9 PUSH1 0xE1 SHL DUP2 MSTORE PUSH1 0x4 ADD PUSH1 0x40 MLOAD DUP1 SWAP2 SUB SWAP1 REVERT JUMPDEST PUSH1 0x1 PUSH1 0x1 PUSH1 0xA0 SHL SUB DUP2 AND PUSH1 0x0 SWAP1 DUP2 MSTORE PUSH1 0x1 PUSH1 0x20 MSTORE PUSH1 0x40 SWAP1 KECCAK256 SLOAD ISZERO PUSH2 0x84B JUMPI PUSH1 0x40 MLOAD PUSH4 0xC976754D PUSH1 0xE0 SHL DUP2 MSTORE PUSH1 0x4 ADD PUSH1 0x40 MLOAD DUP1 SWAP2 SUB SWAP1 REVERT JUMPDEST PUSH1 0x40 DUP1 MLOAD PUSH1 0x80 DUP2 ADD DUP3 MSTORE TIMESTAMP DUP1 DUP3 MSTORE PUSH1 0x20 DUP1 DUP4 ADD SWAP2 DUP3 MSTORE PUSH1 0x0 DUP4 DUP6 ADD DUP2 DUP2 MSTORE PUSH1 0x60 DUP6 ADD DUP3 DUP2 MSTORE PUSH1 0x1 PUSH1 0x1 PUSH1 0xA0 SHL SUB DUP9 AND DUP4 MSTORE PUSH1 0x1 SWAP4 DUP5 SWAP1 MSTORE SWAP6 SWAP1 SWAP2 KECCAK256 SWAP4 MLOAD DUP5 SSTORE SWAP2 MLOAD SWAP1 DUP4 ADD SSTORE MLOAD PUSH1 0x2 DUP1 DUP4 ADD SWAP2 SWAP1 SWAP2 SSTORE SWAP2 MLOAD PUSH1 0x3 SWAP1 SWAP2 ADD SSTORE SLOAD PUSH1 0xA DUP2 LT ISZERO PUSH2 0x8FA JUMPI DUP2 PUSH1 0x2 DUP3 PUSH2 0x8B9 DUP2 PUSH2 0xE74 JUMP JUMPDEST SWAP4 POP DUP2 SLOAD DUP2 LT PUSH2 0x8CB JUMPI PUSH2 0x8CB PUSH2 0xE8E JUMP JUMPDEST SWAP1 PUSH1 0x0 MSTORE PUSH1 0x20 PUSH1 0x0 KECCAK256 ADD PUSH1 0x0 PUSH2 0x100 EXP DUP2 SLOAD DUP2 PUSH1 0x1 PUSH1 0x1 PUSH1 0xA0 SHL SUB MUL NOT AND SWAP1 DUP4 PUSH1 0x1 PUSH1 0x1 PUSH1 0xA0 SHL SUB AND MUL OR SWAP1 SSTORE POP JUMPDEST DUP2 PUSH1 0x1 PUSH1 0x1 PUSH1 0xA0 SHL SUB AND PUSH1 0x0 DUP1 MLOAD PUSH1 0x20 PUSH2 0xF7E DUP4 CODECOPY DUP2 MLOAD SWAP2 MSTORE PUSH1 0x0 PUSH1 0x40 MLOAD PUSH2 0x922 SWAP2 SWAP1 PUSH2 0xEED JUMP JUMPDEST PUSH1 0x40 MLOAD DUP1 SWAP2 SUB SWAP1 LOG2 POP POP JUMP JUMPDEST PUSH1 0x1 PUSH1 0x1 PUSH1 0xA0 SHL SUB DUP3 AND PUSH1 0x0 SWAP1 DUP2 MSTORE PUSH1 0x1 PUSH1 0x20 MSTORE PUSH1 0x40 DUP2 KECCAK256 SLOAD SWAP1 SUB PUSH2 0x966 JUMPI PUSH1 0x40 MLOAD PUSH4 0x631BC21 PUSH1 0xE5 SHL DUP2 MSTORE PUSH1 0x4 ADD PUSH1 0x40 MLOAD DUP1 SWAP2 SUB SWAP1 REVERT JUMPDEST PUSH1 0x1 PUSH1 0x1 PUSH1 0xA0 SHL SUB DUP3 AND PUSH1 0x0 SWAP1 DUP2 MSTORE PUSH1 0x1 PUSH1 0x20 MSTORE PUSH1 0x40 DUP2 KECCAK256 PUSH1 0x2 ADD SLOAD ISZERO DUP1 ISZERO SWAP1 PUSH2 0x98E JUMPI POP DUP2 ISZERO JUMPDEST ISZERO PUSH2 0x9AC JUMPI PUSH1 0x40 MLOAD PUSH4 0x3546382F PUSH1 0xE2 SHL DUP2 MSTORE PUSH1 0x4 ADD PUSH1 0x40 MLOAD DUP1 SWAP2 SUB SWAP1 REVERT JUMPDEST POP PUSH1 0x1 PUSH1 0x1 PUSH1 0xA0 SHL SUB DUP3 AND PUSH1 0x0 SWAP1 DUP2 MSTORE PUSH1 0x1 PUSH1 0x20 MSTORE PUSH1 0x40 DUP2 KECCAK256 PUSH1 0x2 ADD SLOAD PUSH1 0x7 DUP1 SLOAD SWAP2 SWAP3 DUP4 SWAP3 PUSH2 0x9DC SWAP1 DUP5 SWAP1 PUSH2 0xEFB JUMP JUMPDEST SWAP3 POP POP DUP2 SWAP1 SSTORE POP DUP3 PUSH1 0x1 PUSH1 0x1 PUSH1 0xA0 SHL SUB AND PUSH32 0x7F2AD1D3BA35276F35EF140F83E3E0F17B23064FD710113D3F7A5AB30D267811 PUSH1 0x0 DUP4 PUSH1 0x0 DUP1 PUSH1 0x0 DUP1 PUSH1 0x40 MLOAD PUSH2 0xA29 SWAP7 SWAP6 SWAP5 SWAP4 SWAP3 SWAP2 SWAP1 PUSH2 0xF23 JUMP JUMPDEST PUSH1 0x40 MLOAD DUP1 SWAP2 SUB SWAP1 LOG2 PUSH1 0x40 DUP1 MLOAD PUSH1 0x80 DUP2 ADD DUP3 MSTORE PUSH1 0x0 DUP1 DUP3 MSTORE PUSH1 0x20 DUP1 DUP4 ADD DUP3 DUP2 MSTORE DUP4 DUP6 ADD DUP4 DUP2 MSTORE PUSH1 0x60 DUP1 DUP7 ADD DUP6 DUP2 MSTORE PUSH1 0x1 PUSH1 0x1 PUSH1 0xA0 SHL SUB DUP12 AND DUP7 MSTORE PUSH1 0x1 SWAP5 DUP6 SWAP1 MSTORE SWAP7 SWAP1 SWAP5 KECCAK256 SWAP5 MLOAD DUP6 SSTORE SWAP1 MLOAD SWAP2 DUP5 ADD SWAP2 SWAP1 SWAP2 SSTORE MLOAD PUSH1 0x2 DUP1 DUP5 ADD SWAP2 SWAP1 SWAP2 SSTORE SWAP3 MLOAD PUSH1 0x3 SWAP1 SWAP3 ADD SWAP2 SWAP1 SWAP2 SSTORE SWAP1 SLOAD ISZERO PUSH2 0xB21 JUMPI PUSH1 0x0 JUMPDEST PUSH1 0x2 SLOAD DUP2 LT ISZERO PUSH2 0xB1F JUMPI PUSH1 0x0 PUSH1 0x2 DUP3 DUP2 SLOAD DUP2 LT PUSH2 0xAB7 JUMPI PUSH2 0xAB7 PUSH2 0xE8E JUMP JUMPDEST PUSH1 0x0 SWAP2 DUP3 MSTORE PUSH1 0x20 SWAP1 SWAP2 KECCAK256 ADD SLOAD PUSH1 0x1 PUSH1 0x1 PUSH1 0xA0 SHL SUB SWAP1 DUP2 AND SWAP2 POP DUP7 AND DUP2 EQ PUSH2 0xB0C JUMPI DUP1 DUP4 DUP4 DUP2 MLOAD DUP2 LT PUSH2 0xAEB JUMPI PUSH2 0xAEB PUSH2 0xE8E JUMP JUMPDEST PUSH1 0x20 MUL PUSH1 0x20 ADD ADD SWAP1 PUSH1 0x1 PUSH1 0x1 PUSH1 0xA0 SHL SUB AND SWAP1 DUP2 PUSH1 0x1 PUSH1 0x1 PUSH1 0xA0 SHL SUB AND DUP2 MSTORE POP POP JUMPDEST POP DUP1 PUSH2 0xB17 DUP2 PUSH2 0xE74 JUMP JUMPDEST SWAP2 POP POP PUSH2 0xA98 JUMP JUMPDEST POP JUMPDEST DUP1 MLOAD PUSH2 0xB34 SWAP1 PUSH1 0x2 SWAP1 PUSH1 0x20 DUP5 ADD SWAP1 PUSH2 0xB95 JUMP JUMPDEST POP DUP4 PUSH1 0x1 PUSH1 0x1 PUSH1 0xA0 SHL SUB AND PUSH1 0x0 DUP1 MLOAD PUSH1 0x20 PUSH2 0xF7E DUP4 CODECOPY DUP2 MLOAD SWAP2 MSTORE PUSH1 0x1 PUSH1 0x40 MLOAD PUSH2 0xB5D SWAP2 SWAP1 PUSH2 0xEED JUMP JUMPDEST PUSH1 0x40 MLOAD DUP1 SWAP2 SUB SWAP1 LOG2 POP POP POP POP JUMP JUMPDEST PUSH1 0x2 DUP2 DUP2 SLOAD DUP2 LT PUSH2 0xB7B JUMPI PUSH1 0x0 DUP1 REVERT JUMPDEST PUSH1 0x0 SWAP2 DUP3 MSTORE PUSH1 0x20 SWAP1 SWAP2 KECCAK256 ADD SLOAD PUSH1 0x1 PUSH1 0x1 PUSH1 0xA0 SHL SUB AND SWAP1 POP DUP2 JUMP JUMPDEST DUP3 DUP1 SLOAD DUP3 DUP3 SSTORE SWAP1 PUSH1 0x0 MSTORE PUSH1 0x20 PUSH1 0x0 KECCAK256 SWAP1 DUP2 ADD SWAP3 DUP3 ISZERO PUSH2 0xBEA JUMPI SWAP2 PUSH1 0x20 MUL DUP3 ADD JUMPDEST DUP3 DUP2 GT ISZERO PUSH2 0xBEA JUMPI DUP3 MLOAD DUP3 SLOAD PUSH1 0x1 PUSH1 0x1 PUSH1 0xA0 SHL SUB NOT AND PUSH1 0x1 PUSH1 0x1 PUSH1 0xA0 SHL SUB SWAP1 SWAP2 AND OR DUP3 SSTORE PUSH1 0x20 SWAP1 SWAP3 ADD SWAP2 PUSH1 0x1 SWAP1 SWAP2 ADD SWAP1 PUSH2 0xBB5 JUMP JUMPDEST POP PUSH2 0xBF6 SWAP3 SWAP2 POP PUSH2 0xBFA JUMP JUMPDEST POP SWAP1 JUMP JUMPDEST JUMPDEST DUP1 DUP3 GT ISZERO PUSH2 0xBF6 JUMPI PUSH1 0x0 DUP2 SSTORE PUSH1 0x1 ADD PUSH2 0xBFB JUMP JUMPDEST PUSH1 0x1 PUSH1 0x1 PUSH1 0xA0 SHL SUB AND SWAP1 JUMP JUMPDEST PUSH1 0x0 PUSH2 0xC26 DUP3 PUSH2 0xC0F JUMP JUMPDEST SWAP3 SWAP2 POP POP JUMP JUMPDEST PUSH2 0xC35 DUP2 PUSH2 0xC1B JUMP JUMPDEST DUP3 MSTORE POP POP JUMP JUMPDEST PUSH1 0x20 DUP2 ADD PUSH2 0xC26 DUP3 DUP5 PUSH2 0xC2C JUMP JUMPDEST DUP1 PUSH2 0xC35 JUMP JUMPDEST PUSH1 0x20 DUP2 ADD PUSH2 0xC26 DUP3 DUP5 PUSH2 0xC49 JUMP JUMPDEST PUSH2 0xC66 DUP2 PUSH2 0xC1B JUMP JUMPDEST DUP2 EQ PUSH2 0xC71 JUMPI PUSH1 0x0 DUP1 REVERT JUMPDEST POP JUMP JUMPDEST DUP1 CALLDATALOAD PUSH2 0xC26 DUP2 PUSH2 0xC5D JUMP JUMPDEST PUSH1 0x0 PUSH1 0x20 DUP3 DUP5 SUB SLT ISZERO PUSH2 0xC94 JUMPI PUSH2 0xC94 PUSH1 0x0 DUP1 REVERT JUMPDEST PUSH1 0x0 PUSH2 0xCA0 DUP5 DUP5 PUSH2 0xC74 JUMP JUMPDEST SWAP5 SWAP4 POP POP POP POP JUMP JUMPDEST PUSH1 0x80 DUP2 ADD PUSH2 0xCB6 DUP3 DUP8 PUSH2 0xC49 JUMP JUMPDEST PUSH2 0xCC3 PUSH1 0x20 DUP4 ADD DUP7 PUSH2 0xC49 JUMP JUMPDEST PUSH2 0xCD0 PUSH1 0x40 DUP4 ADD DUP6 PUSH2 0xC49 JUMP JUMPDEST PUSH2 0xCDD PUSH1 0x60 DUP4 ADD DUP5 PUSH2 0xC49 JUMP JUMPDEST SWAP6 SWAP5 POP POP POP POP POP JUMP JUMPDEST PUSH1 0x0 PUSH2 0xC26 PUSH2 0xCFA PUSH2 0xCF7 DUP5 PUSH2 0xC0F JUMP JUMPDEST SWAP1 JUMP JUMPDEST PUSH2 0xC0F JUMP JUMPDEST PUSH1 0x0 PUSH2 0xC26 DUP3 PUSH2 0xCE6 JUMP JUMPDEST PUSH1 0x0 PUSH2 0xC26 DUP3 PUSH2 0xCFF JUMP JUMPDEST PUSH2 0xC35 DUP2 PUSH2 0xD0A JUMP JUMPDEST PUSH1 0x20 DUP2 ADD PUSH2 0xC26 DUP3 DUP5 PUSH2 0xD15 JUMP JUMPDEST DUP1 PUSH2 0xC66 JUMP JUMPDEST DUP1 CALLDATALOAD PUSH2 0xC26 DUP2 PUSH2 0xD2C JUMP JUMPDEST PUSH1 0x0 PUSH1 0x20 DUP3 DUP5 SUB SLT ISZERO PUSH2 0xD52 JUMPI PUSH2 0xD52 PUSH1 0x0 DUP1 REVERT JUMPDEST PUSH1 0x0 PUSH2 0xCA0 DUP5 DUP5 PUSH2 0xD32 JUMP JUMPDEST DUP1 ISZERO ISZERO PUSH2 0xC35 JUMP JUMPDEST PUSH1 0x20 DUP2 ADD PUSH2 0xC26 DUP3 DUP5 PUSH2 0xD5E JUMP JUMPDEST PUSH1 0x0 JUMPDEST DUP4 DUP2 LT ISZERO PUSH2 0xD8F JUMPI DUP2 DUP2 ADD MLOAD DUP4 DUP3 ADD MSTORE PUSH1 0x20 ADD PUSH2 0xD77 JUMP JUMPDEST POP POP PUSH1 0x0 SWAP2 ADD MSTORE JUMP JUMPDEST PUSH1 0x0 PUSH2 0xDA2 DUP3 MLOAD SWAP1 JUMP JUMPDEST DUP1 DUP5 MSTORE PUSH1 0x20 DUP5 ADD SWAP4 POP PUSH2 0xDB9 DUP2 DUP6 PUSH1 0x20 DUP7 ADD PUSH2 0xD74 JUMP JUMPDEST PUSH1 0x1F ADD PUSH1 0x1F NOT AND SWAP3 SWAP1 SWAP3 ADD SWAP3 SWAP2 POP POP JUMP JUMPDEST PUSH1 0x20 DUP1 DUP3 MSTORE DUP2 ADD PUSH2 0xDDB DUP2 DUP5 PUSH2 0xD98 JUMP JUMPDEST SWAP4 SWAP3 POP POP POP JUMP JUMPDEST DUP1 ISZERO ISZERO PUSH2 0xC66 JUMP JUMPDEST DUP1 CALLDATALOAD PUSH2 0xC26 DUP2 PUSH2 0xDE2 JUMP JUMPDEST PUSH1 0x0 DUP1 PUSH1 0x40 DUP4 DUP6 SUB SLT ISZERO PUSH2 0xE0B JUMPI PUSH2 0xE0B PUSH1 0x0 DUP1 REVERT JUMPDEST PUSH1 0x0 PUSH2 0xE17 DUP6 DUP6 PUSH2 0xC74 JUMP JUMPDEST SWAP3 POP POP PUSH1 0x20 PUSH2 0xE28 DUP6 DUP3 DUP7 ADD PUSH2 0xDEA JUMP JUMPDEST SWAP2 POP POP SWAP3 POP SWAP3 SWAP1 POP JUMP JUMPDEST DUP1 MLOAD PUSH2 0xC26 DUP2 PUSH2 0xC5D JUMP JUMPDEST PUSH1 0x0 PUSH1 0x20 DUP3 DUP5 SUB SLT ISZERO PUSH2 0xE52 JUMPI PUSH2 0xE52 PUSH1 0x0 DUP1 REVERT JUMPDEST PUSH1 0x0 PUSH2 0xCA0 DUP5 DUP5 PUSH2 0xE32 JUMP JUMPDEST PUSH4 0x4E487B71 PUSH1 0xE0 SHL PUSH1 0x0 MSTORE PUSH1 0x11 PUSH1 0x4 MSTORE PUSH1 0x24 PUSH1 0x0 REVERT JUMPDEST PUSH1 0x0 PUSH1 0x0 NOT DUP3 SUB PUSH2 0xE87 JUMPI PUSH2 0xE87 PUSH2 0xE5E JUMP JUMPDEST POP PUSH1 0x1 ADD SWAP1 JUMP JUMPDEST PUSH4 0x4E487B71 PUSH1 0xE0 SHL PUSH1 0x0 MSTORE PUSH1 0x32 PUSH1 0x4 MSTORE PUSH1 0x24 PUSH1 0x0 REVERT JUMPDEST PUSH4 0x4E487B71 PUSH1 0xE0 SHL PUSH1 0x0 MSTORE PUSH1 0x21 PUSH1 0x4 MSTORE PUSH1 0x24 PUSH1 0x0 REVERT JUMPDEST PUSH1 0x2 DUP2 LT PUSH2 0xC71 JUMPI PUSH2 0xC71 PUSH2 0xEA4 JUMP JUMPDEST DUP1 PUSH2 0xED4 DUP2 PUSH2 0xEBA JUMP JUMPDEST SWAP2 SWAP1 POP JUMP JUMPDEST PUSH1 0x0 PUSH2 0xC26 DUP3 PUSH2 0xECA JUMP JUMPDEST PUSH2 0xC35 DUP2 PUSH2 0xED9 JUMP JUMPDEST PUSH1 0x20 DUP2 ADD PUSH2 0xC26 DUP3 DUP5 PUSH2 0xEE4 JUMP JUMPDEST DUP2 DUP2 SUB DUP2 DUP2 GT ISZERO PUSH2 0xC26 JUMPI PUSH2 0xC26 PUSH2 0xE5E JUMP JUMPDEST PUSH1 0x0 PUSH2 0xC26 PUSH2 0xCF7 DUP4 DUP2 JUMP JUMPDEST PUSH2 0xC35 DUP2 PUSH2 0xF0E JUMP JUMPDEST PUSH1 0xC0 DUP2 ADD PUSH2 0xF31 DUP3 DUP10 PUSH2 0xF1A JUMP JUMPDEST PUSH2 0xF3E PUSH1 0x20 DUP4 ADD DUP9 PUSH2 0xC49 JUMP JUMPDEST PUSH2 0xF4B PUSH1 0x40 DUP4 ADD DUP8 PUSH2 0xF1A JUMP JUMPDEST PUSH2 0xF58 PUSH1 0x60 DUP4 ADD DUP7 PUSH2 0xF1A JUMP JUMPDEST PUSH2 0xF65 PUSH1 0x80 DUP4 ADD DUP6 PUSH2 0xF1A JUMP JUMPDEST PUSH2 0xF72 PUSH1 0xA0 DUP4 ADD DUP5 PUSH2 0xF1A JUMP JUMPDEST SWAP8 SWAP7 POP POP POP POP POP POP POP JUMP INVALID 0xBC CREATE2 0x5F SGT PUSH18 0xEED7EDA89416C2984DA5475FCFF67E96FE8 0x5E JUMP 0xEE 0xD8 ADDMOD SSTORE SWAP11 MSTORE 0x22 LOG2 PUSH5 0x6970667358 0x22 SLT KECCAK256 SGT 0xA7 0xB6 SWAP8 0x2B 0xCD DUP6 0xB0 0xB3 0xD2 0xBC DUP8 SWAP8 0x22 0x1F SIGNEXTEND 0xB4 0xAC 0xB9 0x4E 0xB4 SELFBALANCE 0xDC LOG1 0xDD 0xC9 0x5C 0xD8 PUSH30 0xA438F464736F6C6343000810003300000000000000000000000000000000 "},"gasEstimates":{"creation":{"codeDepositCost":"810200","executionCost":"infinite","totalCost":"infinite"},"external":{"ACCOUNTANT_MANAGER()":"690","ADD_STRATEGY_MANAGER()":"954","API_VERSION()":"infinite","ASSET()":"infinite","DEBT_MANAGER()":"998","DEBT_PURCHASER()":"888","DEPOSIT_LIMIT_MANAGER()":"866","DOMAIN_SEPARATOR()":"2504","DOMAIN_TYPE_HASH()":"976","EMERGENCY_MANAGER()":"1218","FORCE_REVOKE_MANAGER()":"668","MAX_BPS()":"1196","MAX_BPS_EXTENDED()":"426","MAX_DEBT_MANAGER()":"1086","MAX_QUEUE()":"492","MINIMUM_IDLE_MANAGER()":"338","PERMIT_TYPE_HASH()":"580","PROFIT_UNLOCK_MANAGER()":"1042","QUEUE_MANAGER()":"558","REPORTING_MANAGER()":"272","REVOKE_STRATEGY_MANAGER()":"844","ROLE_MANAGER()":"1130","WITHDRAW_LIMIT_MANAGER()":"536","accountant()":"infinite","addStrategy(address)":"infinite","defaultQueue(uint256)":"infinite","depositLimit()":"3164","depositLimitModule()":"infinite","fullProfitUnlockDate()":"2482","futureRoleManager()":"infinite","lastProfitUpdate()":"2856","minimumTotalIdle()":"2394","nonces(address)":"infinite","openRoles(bytes32)":"infinite","profitMaxUnlockTime()":"2416","profitUnlockingRate()":"2724","revokeStrategy(address,bool)":"infinite","roleManager()":"infinite","roles(address)":"infinite","shutdown()":"3306","strategies(address)":"infinite","totalDebtAmount()":"3120","totalIdleAmount()":"2570","totalSupplyAmount()":"3252","useDefaultQueue()":"3047","withdrawLimitModule()":"infinite"}},"methodIdentifiers":{"ACCOUNTANT_MANAGER()":"652da324","ADD_STRATEGY_MANAGER()":"c065ca07","API_VERSION()":"77e3b267","ASSET()":"4800d97f","DEBT_MANAGER()":"c8d74b60","DEBT_PURCHASER()":"ab5b4d49","DEPOSIT_LIMIT_MANAGER()":"a98222c4","DOMAIN_SEPARATOR()":"3644e515","DOMAIN_TYPE_HASH()":"c0993eea","EMERGENCY_MANAGER()":"fec61f06","FORCE_REVOKE_MANAGER()":"5bf6b4fb","MAX_BPS()":"fd967f47","MAX_BPS_EXTENDED()":"36fba084","MAX_DEBT_MANAGER()":"f1daeba8","MAX_QUEUE()":"3f7b5e40","MINIMUM_IDLE_MANAGER()":"0ad283d0","PERMIT_TYPE_HASH()":"4d4bb197","PROFIT_UNLOCK_MANAGER()":"d4ae064f","QUEUE_MANAGER()":"4cfe51dc","REPORTING_MANAGER()":"03dcd12c","REVOKE_STRATEGY_MANAGER()":"9f3988f3","ROLE_MANAGER()":"f5b944eb","WITHDRAW_LIMIT_MANAGER()":"4ce1d38a","accountant()":"4fb3ccc5","addStrategy(address)":"223e5479","defaultQueue(uint256)":"ff1e7f08","depositLimit()":"ecf70858","depositLimitModule()":"9e34e348","fullProfitUnlockDate()":"2d632692","futureRoleManager()":"b3c187f2","lastProfitUpdate()":"8afca8f0","minimumTotalIdle()":"0835a3fc","nonces(address)":"7ecebe00","openRoles(bytes32)":"53a66132","profitMaxUnlockTime()":"0952864e","profitUnlockingRate()":"5141eebb","revokeStrategy(address,bool)":"f42c77ae","roleManager()":"00435da5","roles(address)":"99374642","shutdown()":"fc0e74d1","strategies(address)":"39ebf823","totalDebtAmount()":"c8dffa95","totalIdleAmount()":"3cd7b5ab","totalSupplyAmount()":"f828f50b","useDefaultQueue()":"bbe4eb49","withdrawLimitModule()":"91986003"}},"storageLayout":{"storage":[{"astId":7573,"contract":"contracts/StrategyManager.sol:StrategyManager","label":"strategyManager","offset":0,"slot":"0","type":"t_address"},{"astId":7578,"contract":"contracts/StrategyManager.sol:StrategyManager","label":"strategies","offset":0,"slot":"1","type":"t_mapping(t_address,t_struct(StrategyParams)7734_storage)"},{"astId":7581,"contract":"contracts/StrategyManager.sol:StrategyManager","label":"defaultQueue","offset":0,"slot":"2","type":"t_array(t_address)dyn_storage"},{"astId":7583,"contract":"contracts/StrategyManager.sol:StrategyManager","label":"useDefaultQueue","offset":0,"slot":"3","type":"t_bool"},{"astId":7587,"contract":"contracts/StrategyManager.sol:StrategyManager","label":"_balanceOf","offset":0,"slot":"4","type":"t_mapping(t_address,t_uint256)"},{"astId":7593,"contract":"contracts/StrategyManager.sol:StrategyManager","label":"_allowance","offset":0,"slot":"5","type":"t_mapping(t_address,t_mapping(t_address,t_uint256))"},{"astId":7595,"contract":"contracts/StrategyManager.sol:StrategyManager","label":"totalSupplyAmount","offset":0,"slot":"6","type":"t_uint256"},{"astId":7597,"contract":"contracts/StrategyManager.sol:StrategyManager","label":"totalDebtAmount","offset":0,"slot":"7","type":"t_uint256"},{"astId":7599,"contract":"contracts/StrategyManager.sol:StrategyManager","label":"totalIdleAmount","offset":0,"slot":"8","type":"t_uint256"},{"astId":7601,"contract":"contracts/StrategyManager.sol:StrategyManager","label":"minimumTotalIdle","offset":0,"slot":"9","type":"t_uint256"},{"astId":7603,"contract":"contracts/StrategyManager.sol:StrategyManager","label":"depositLimit","offset":0,"slot":"10","type":"t_uint256"},{"astId":7605,"contract":"contracts/StrategyManager.sol:StrategyManager","label":"accountant","offset":0,"slot":"11","type":"t_address"},{"astId":7607,"contract":"contracts/StrategyManager.sol:StrategyManager","label":"depositLimitModule","offset":0,"slot":"12","type":"t_address"},{"astId":7609,"contract":"contracts/StrategyManager.sol:StrategyManager","label":"withdrawLimitModule","offset":0,"slot":"13","type":"t_address"},{"astId":7613,"contract":"contracts/StrategyManager.sol:StrategyManager","label":"roles","offset":0,"slot":"14","type":"t_mapping(t_address,t_bytes32)"},{"astId":7617,"contract":"contracts/StrategyManager.sol:StrategyManager","label":"openRoles","offset":0,"slot":"15","type":"t_mapping(t_bytes32,t_bool)"},{"astId":7619,"contract":"contracts/StrategyManager.sol:StrategyManager","label":"roleManager","offset":0,"slot":"16","type":"t_address"},{"astId":7621,"contract":"contracts/StrategyManager.sol:StrategyManager","label":"futureRoleManager","offset":0,"slot":"17","type":"t_address"},{"astId":7623,"contract":"contracts/StrategyManager.sol:StrategyManager","label":"shutdown","offset":20,"slot":"17","type":"t_bool"},{"astId":7625,"contract":"contracts/StrategyManager.sol:StrategyManager","label":"profitMaxUnlockTime","offset":0,"slot":"18","type":"t_uint256"},{"astId":7627,"contract":"contracts/StrategyManager.sol:StrategyManager","label":"fullProfitUnlockDate","offset":0,"slot":"19","type":"t_uint256"},{"astId":7629,"contract":"contracts/StrategyManager.sol:StrategyManager","label":"profitUnlockingRate","offset":0,"slot":"20","type":"t_uint256"},{"astId":7631,"contract":"contracts/StrategyManager.sol:StrategyManager","label":"lastProfitUpdate","offset":0,"slot":"21","type":"t_uint256"},{"astId":7635,"contract":"contracts/StrategyManager.sol:StrategyManager","label":"nonces","offset":0,"slot":"22","type":"t_mapping(t_address,t_uint256)"},{"astId":7642,"contract":"contracts/StrategyManager.sol:StrategyManager","label":"DOMAIN_SEPARATOR","offset":0,"slot":"23","type":"t_bytes32"}],"types":{"t_address":{"encoding":"inplace","label":"address","numberOfBytes":"20"},"t_array(t_address)dyn_storage":{"base":"t_address","encoding":"dynamic_array","label":"address[]","numberOfBytes":"32"},"t_bool":{"encoding":"inplace","label":"bool","numberOfBytes":"1"},"t_bytes32":{"encoding":"inplace","label":"bytes32","numberOfBytes":"32"},"t_mapping(t_address,t_bytes32)":{"encoding":"mapping","key":"t_address","label":"mapping(address => bytes32)","numberOfBytes":"32","value":"t_bytes32"},"t_mapping(t_address,t_mapping(t_address,t_uint256))":{"encoding":"mapping","key":"t_address","label":"mapping(address => mapping(address => uint256))","numberOfBytes":"32","value":"t_mapping(t_address,t_uint256)"},"t_mapping(t_address,t_struct(StrategyParams)7734_storage)":{"encoding":"mapping","key":"t_address","label":"mapping(address => struct StrategyParams)","numberOfBytes":"32","value":"t_struct(StrategyParams)7734_storage"},"t_mapping(t_address,t_uint256)":{"encoding":"mapping","key":"t_address","label":"mapping(address => uint256)","numberOfBytes":"32","value":"t_uint256"},"t_mapping(t_bytes32,t_bool)":{"encoding":"mapping","key":"t_bytes32","label":"mapping(bytes32 => bool)","numberOfBytes":"32","value":"t_bool"},"t_struct(StrategyParams)7734_storage":{"encoding":"inplace","label":"struct StrategyParams","members":[{"astId":7727,"contract":"contracts/StrategyManager.sol:StrategyManager","label":"activation","offset":0,"slot":"0","type":"t_uint256"},{"astId":7729,"contract":"contracts/StrategyManager.sol:StrategyManager","label":"lastReport","offset":0,"slot":"1","type":"t_uint256"},{"astId":7731,"contract":"contracts/StrategyManager.sol:StrategyManager","label":"currentDebt","offset":0,"slot":"2","type":"t_uint256"},{"astId":7733,"contract":"contracts/StrategyManager.sol:StrategyManager","label":"maxDebt","offset":0,"slot":"3","type":"t_uint256"}],"numberOfBytes":"128"},"t_uint256":{"encoding":"inplace","label":"uint256","numberOfBytes":"32"}}},"userdoc":{"kind":"user","methods":{},"version":1}}}}