{"contracts/FathomVault.sol":{"FathomVault":{"abi":[{"inputs":[{"internalType":"contract IERC20","name":"_asset","type":"address"},{"internalType":"string","name":"_name","type":"string"},{"internalType":"string","name":"_symbol","type":"string"},{"internalType":"address","name":"_roleManager","type":"address"},{"internalType":"uint256","name":"_profitMaxUnlockTime","type":"uint256"},{"internalType":"address","name":"_strategyManagerAddress","type":"address"}],"stateMutability":"nonpayable","type":"constructor"},{"inputs":[],"name":"CallerIsNotTheFutureRoleManager","type":"error"},{"inputs":[],"name":"DebtDidntChange","type":"error"},{"inputs":[],"name":"DebtHigherThanMaxDebt","type":"error"},{"inputs":[],"name":"ERC20InsufficientAllowance","type":"error"},{"inputs":[],"name":"ERC20PermitExpired","type":"error"},{"inputs":[],"name":"ERC20PermitInvalidSignature","type":"error"},{"inputs":[],"name":"ExceedDepositLimit","type":"error"},{"inputs":[],"name":"InactiveStrategy","type":"error"},{"inputs":[],"name":"InsufficientAssets","type":"error"},{"inputs":[],"name":"InsufficientFunds","type":"error"},{"inputs":[],"name":"InsufficientShares","type":"error"},{"inputs":[],"name":"InvalidAsset","type":"error"},{"inputs":[],"name":"InvalidAssetDecimals","type":"error"},{"inputs":[],"name":"MaxLoss","type":"error"},{"inputs":[],"name":"ProfitUnlockTimeTooLong","type":"error"},{"inputs":[],"name":"StrategyAlreadyActive","type":"error"},{"inputs":[],"name":"StrategyDebtIsLessThanAssetsNeeded","type":"error"},{"inputs":[],"name":"StrategyHasDebt","type":"error"},{"inputs":[],"name":"StrategyHasUnrealisedLosses","type":"error"},{"inputs":[],"name":"StrategyIsShutdown","type":"error"},{"inputs":[],"name":"TooMuchLoss","type":"error"},{"inputs":[],"name":"UsingDepositLimit","type":"error"},{"inputs":[],"name":"UsingModule","type":"error"},{"inputs":[],"name":"ZeroAddress","type":"error"},{"inputs":[],"name":"ZeroValue","type":"error"},{"anonymous":false,"inputs":[{"indexed":true,"internalType":"address","name":"owner","type":"address"},{"indexed":true,"internalType":"address","name":"spender","type":"address"},{"indexed":false,"internalType":"uint256","name":"value","type":"uint256"}],"name":"Approval","type":"event"},{"anonymous":false,"inputs":[{"indexed":true,"internalType":"address","name":"strategy","type":"address"},{"indexed":false,"internalType":"uint256","name":"amount","type":"uint256"}],"name":"DebtPurchased","type":"event"},{"anonymous":false,"inputs":[{"indexed":true,"internalType":"address","name":"strategy","type":"address"},{"indexed":false,"internalType":"uint256","name":"currentDebt","type":"uint256"},{"indexed":false,"internalType":"uint256","name":"newDebt","type":"uint256"}],"name":"DebtUpdated","type":"event"},{"anonymous":false,"inputs":[{"indexed":true,"internalType":"address","name":"sender","type":"address"},{"indexed":true,"internalType":"address","name":"owner","type":"address"},{"indexed":false,"internalType":"uint256","name":"assets","type":"uint256"},{"indexed":false,"internalType":"uint256","name":"shares","type":"uint256"}],"name":"Deposit","type":"event"},{"anonymous":false,"inputs":[{"indexed":true,"internalType":"bytes32","name":"role","type":"bytes32"},{"indexed":true,"internalType":"bytes32","name":"previousAdminRole","type":"bytes32"},{"indexed":true,"internalType":"bytes32","name":"newAdminRole","type":"bytes32"}],"name":"RoleAdminChanged","type":"event"},{"anonymous":false,"inputs":[{"indexed":true,"internalType":"bytes32","name":"role","type":"bytes32"},{"indexed":true,"internalType":"address","name":"account","type":"address"},{"indexed":true,"internalType":"address","name":"sender","type":"address"}],"name":"RoleGranted","type":"event"},{"anonymous":false,"inputs":[{"indexed":true,"internalType":"bytes32","name":"role","type":"bytes32"},{"indexed":true,"internalType":"address","name":"account","type":"address"},{"indexed":true,"internalType":"address","name":"sender","type":"address"}],"name":"RoleRevoked","type":"event"},{"anonymous":false,"inputs":[{"indexed":true,"internalType":"address","name":"account","type":"address"},{"indexed":false,"internalType":"bytes32","name":"role","type":"bytes32"}],"name":"RoleSet","type":"event"},{"anonymous":false,"inputs":[{"indexed":true,"internalType":"bytes32","name":"role","type":"bytes32"},{"indexed":true,"internalType":"enum RoleStatusChange","name":"status","type":"uint8"}],"name":"RoleStatusChanged","type":"event"},{"anonymous":false,"inputs":[],"name":"Shutdown","type":"event"},{"anonymous":false,"inputs":[{"indexed":true,"internalType":"address","name":"strategy","type":"address"},{"indexed":false,"internalType":"enum StrategyChangeType","name":"changeType","type":"uint8"}],"name":"StrategyChanged","type":"event"},{"anonymous":false,"inputs":[{"indexed":true,"internalType":"address","name":"strategy","type":"address"},{"indexed":false,"internalType":"uint256","name":"gain","type":"uint256"},{"indexed":false,"internalType":"uint256","name":"loss","type":"uint256"},{"indexed":false,"internalType":"uint256","name":"currentDebt","type":"uint256"},{"indexed":false,"internalType":"uint256","name":"protocolFees","type":"uint256"},{"indexed":false,"internalType":"uint256","name":"totalFees","type":"uint256"},{"indexed":false,"internalType":"uint256","name":"totalRefunds","type":"uint256"}],"name":"StrategyReported","type":"event"},{"anonymous":false,"inputs":[{"indexed":true,"internalType":"address","name":"from","type":"address"},{"indexed":true,"internalType":"address","name":"to","type":"address"},{"indexed":false,"internalType":"uint256","name":"value","type":"uint256"}],"name":"Transfer","type":"event"},{"anonymous":false,"inputs":[{"indexed":true,"internalType":"address","name":"accountant","type":"address"}],"name":"UpdateAccountant","type":"event"},{"anonymous":false,"inputs":[{"indexed":false,"internalType":"address[]","name":"newDefaultQueue","type":"address[]"}],"name":"UpdateDefaultQueue","type":"event"},{"anonymous":false,"inputs":[{"indexed":false,"internalType":"uint256","name":"depositLimit","type":"uint256"}],"name":"UpdateDepositLimit","type":"event"},{"anonymous":false,"inputs":[{"indexed":true,"internalType":"address","name":"depositLimitModule","type":"address"}],"name":"UpdateDepositLimitModule","type":"event"},{"anonymous":false,"inputs":[{"indexed":false,"internalType":"uint256","name":"minimumTotalIdle","type":"uint256"}],"name":"UpdateMinimumTotalIdle","type":"event"},{"anonymous":false,"inputs":[{"indexed":false,"internalType":"uint256","name":"profitMaxUnlockTime","type":"uint256"}],"name":"UpdateProfitMaxUnlockTime","type":"event"},{"anonymous":false,"inputs":[{"indexed":true,"internalType":"address","name":"roleManager","type":"address"}],"name":"UpdateRoleManager","type":"event"},{"anonymous":false,"inputs":[{"indexed":false,"internalType":"bool","name":"useDefaultQueue","type":"bool"}],"name":"UpdateUseDefaultQueue","type":"event"},{"anonymous":false,"inputs":[{"indexed":true,"internalType":"address","name":"withdrawLimitModule","type":"address"}],"name":"UpdateWithdrawLimitModule","type":"event"},{"anonymous":false,"inputs":[{"indexed":true,"internalType":"address","name":"sender","type":"address"},{"indexed":true,"internalType":"address","name":"strategy","type":"address"},{"indexed":false,"internalType":"uint256","name":"newDebt","type":"uint256"}],"name":"UpdatedMaxDebtForStrategy","type":"event"},{"anonymous":false,"inputs":[{"indexed":true,"internalType":"address","name":"sender","type":"address"},{"indexed":true,"internalType":"address","name":"receiver","type":"address"},{"indexed":true,"internalType":"address","name":"owner","type":"address"},{"indexed":false,"internalType":"uint256","name":"assets","type":"uint256"},{"indexed":false,"internalType":"uint256","name":"shares","type":"uint256"}],"name":"Withdraw","type":"event"},{"inputs":[],"name":"ACCOUNTANT_MANAGER","outputs":[{"internalType":"bytes32","name":"","type":"bytes32"}],"stateMutability":"view","type":"function"},{"inputs":[],"name":"ADD_STRATEGY_MANAGER","outputs":[{"internalType":"bytes32","name":"","type":"bytes32"}],"stateMutability":"view","type":"function"},{"inputs":[],"name":"API_VERSION","outputs":[{"internalType":"string","name":"","type":"string"}],"stateMutability":"view","type":"function"},{"inputs":[],"name":"ASSET","outputs":[{"internalType":"contract IERC20","name":"","type":"address"}],"stateMutability":"view","type":"function"},{"inputs":[],"name":"DEBT_MANAGER","outputs":[{"internalType":"bytes32","name":"","type":"bytes32"}],"stateMutability":"view","type":"function"},{"inputs":[],"name":"DEBT_PURCHASER","outputs":[{"internalType":"bytes32","name":"","type":"bytes32"}],"stateMutability":"view","type":"function"},{"inputs":[],"name":"DECIMALS","outputs":[{"internalType":"uint256","name":"","type":"uint256"}],"stateMutability":"view","type":"function"},{"inputs":[],"name":"DEFAULT_ADMIN_ROLE","outputs":[{"internalType":"bytes32","name":"","type":"bytes32"}],"stateMutability":"view","type":"function"},{"inputs":[],"name":"DEPOSIT_LIMIT_MANAGER","outputs":[{"internalType":"bytes32","name":"","type":"bytes32"}],"stateMutability":"view","type":"function"},{"inputs":[],"name":"DOMAIN_SEPARATOR","outputs":[{"internalType":"bytes32","name":"","type":"bytes32"}],"stateMutability":"view","type":"function"},{"inputs":[],"name":"DOMAIN_TYPE_HASH","outputs":[{"internalType":"bytes32","name":"","type":"bytes32"}],"stateMutability":"view","type":"function"},{"inputs":[],"name":"EMERGENCY_MANAGER","outputs":[{"internalType":"bytes32","name":"","type":"bytes32"}],"stateMutability":"view","type":"function"},{"inputs":[],"name":"FACTORY","outputs":[{"internalType":"address","name":"","type":"address"}],"stateMutability":"view","type":"function"},{"inputs":[],"name":"FORCE_REVOKE_MANAGER","outputs":[{"internalType":"bytes32","name":"","type":"bytes32"}],"stateMutability":"view","type":"function"},{"inputs":[],"name":"MAX_BPS","outputs":[{"internalType":"uint256","name":"","type":"uint256"}],"stateMutability":"view","type":"function"},{"inputs":[],"name":"MAX_BPS_EXTENDED","outputs":[{"internalType":"uint256","name":"","type":"uint256"}],"stateMutability":"view","type":"function"},{"inputs":[],"name":"MAX_DEBT_MANAGER","outputs":[{"internalType":"bytes32","name":"","type":"bytes32"}],"stateMutability":"view","type":"function"},{"inputs":[],"name":"MAX_QUEUE","outputs":[{"internalType":"uint256","name":"","type":"uint256"}],"stateMutability":"view","type":"function"},{"inputs":[],"name":"MINIMUM_IDLE_MANAGER","outputs":[{"internalType":"bytes32","name":"","type":"bytes32"}],"stateMutability":"view","type":"function"},{"inputs":[],"name":"ONE_YEAR","outputs":[{"internalType":"uint256","name":"","type":"uint256"}],"stateMutability":"view","type":"function"},{"inputs":[],"name":"PERMIT_TYPE_HASH","outputs":[{"internalType":"bytes32","name":"","type":"bytes32"}],"stateMutability":"view","type":"function"},{"inputs":[],"name":"PROFIT_UNLOCK_MANAGER","outputs":[{"internalType":"bytes32","name":"","type":"bytes32"}],"stateMutability":"view","type":"function"},{"inputs":[],"name":"QUEUE_MANAGER","outputs":[{"internalType":"bytes32","name":"","type":"bytes32"}],"stateMutability":"view","type":"function"},{"inputs":[],"name":"REPORTING_MANAGER","outputs":[{"internalType":"bytes32","name":"","type":"bytes32"}],"stateMutability":"view","type":"function"},{"inputs":[],"name":"REVOKE_STRATEGY_MANAGER","outputs":[{"internalType":"bytes32","name":"","type":"bytes32"}],"stateMutability":"view","type":"function"},{"inputs":[],"name":"ROLE_MANAGER","outputs":[{"internalType":"bytes32","name":"","type":"bytes32"}],"stateMutability":"view","type":"function"},{"inputs":[],"name":"WITHDRAW_LIMIT_MANAGER","outputs":[{"internalType":"bytes32","name":"","type":"bytes32"}],"stateMutability":"view","type":"function"},{"inputs":[],"name":"acceptRoleManager","outputs":[],"stateMutability":"nonpayable","type":"function"},{"inputs":[],"name":"accountant","outputs":[{"internalType":"address","name":"","type":"address"}],"stateMutability":"view","type":"function"},{"inputs":[{"internalType":"address","name":"account","type":"address"},{"internalType":"bytes32","name":"role","type":"bytes32"}],"name":"addRole","outputs":[],"stateMutability":"nonpayable","type":"function"},{"inputs":[{"internalType":"address","name":"newStrategy","type":"address"}],"name":"addStrategy","outputs":[],"stateMutability":"nonpayable","type":"function"},{"inputs":[{"internalType":"address","name":"owner","type":"address"},{"internalType":"address","name":"spender","type":"address"}],"name":"allowance","outputs":[{"internalType":"uint256","name":"","type":"uint256"}],"stateMutability":"view","type":"function"},{"inputs":[{"internalType":"address","name":"spender","type":"address"},{"internalType":"uint256","name":"amount","type":"uint256"}],"name":"approve","outputs":[{"internalType":"bool","name":"","type":"bool"}],"stateMutability":"nonpayable","type":"function"},{"inputs":[{"internalType":"address","name":"strategy","type":"address"},{"internalType":"uint256","name":"assetsNeeded","type":"uint256"}],"name":"assessShareOfUnrealisedLosses","outputs":[{"internalType":"uint256","name":"","type":"uint256"}],"stateMutability":"view","type":"function"},{"inputs":[],"name":"asset","outputs":[{"internalType":"address","name":"","type":"address"}],"stateMutability":"view","type":"function"},{"inputs":[{"internalType":"address","name":"addr","type":"address"}],"name":"balanceOf","outputs":[{"internalType":"uint256","name":"","type":"uint256"}],"stateMutability":"view","type":"function"},{"inputs":[{"internalType":"address","name":"strategy","type":"address"},{"internalType":"uint256","name":"amount","type":"uint256"}],"name":"buyDebt","outputs":[],"stateMutability":"nonpayable","type":"function"},{"inputs":[{"internalType":"bytes32","name":"role","type":"bytes32"}],"name":"closeOpenRole","outputs":[],"stateMutability":"nonpayable","type":"function"},{"inputs":[{"internalType":"uint256","name":"shares","type":"uint256"}],"name":"convertToAssets","outputs":[{"internalType":"uint256","name":"","type":"uint256"}],"stateMutability":"view","type":"function"},{"inputs":[{"internalType":"uint256","name":"assets","type":"uint256"}],"name":"convertToShares","outputs":[{"internalType":"uint256","name":"","type":"uint256"}],"stateMutability":"view","type":"function"},{"inputs":[],"name":"decimals","outputs":[{"internalType":"uint8","name":"","type":"uint8"}],"stateMutability":"view","type":"function"},{"inputs":[{"internalType":"address","name":"spender","type":"address"},{"internalType":"uint256","name":"amount","type":"uint256"}],"name":"decreaseAllowance","outputs":[{"internalType":"bool","name":"","type":"bool"}],"stateMutability":"nonpayable","type":"function"},{"inputs":[{"internalType":"uint256","name":"","type":"uint256"}],"name":"defaultQueue","outputs":[{"internalType":"address","name":"","type":"address"}],"stateMutability":"view","type":"function"},{"inputs":[{"internalType":"uint256","name":"assets","type":"uint256"},{"internalType":"address","name":"receiver","type":"address"}],"name":"deposit","outputs":[{"internalType":"uint256","name":"","type":"uint256"}],"stateMutability":"nonpayable","type":"function"},{"inputs":[],"name":"depositLimit","outputs":[{"internalType":"uint256","name":"","type":"uint256"}],"stateMutability":"view","type":"function"},{"inputs":[],"name":"depositLimitModule","outputs":[{"internalType":"address","name":"","type":"address"}],"stateMutability":"view","type":"function"},{"inputs":[{"internalType":"address","name":"strategy","type":"address"}],"name":"forceRevokeStrategy","outputs":[],"stateMutability":"nonpayable","type":"function"},{"inputs":[],"name":"fullProfitUnlockDate","outputs":[{"internalType":"uint256","name":"","type":"uint256"}],"stateMutability":"view","type":"function"},{"inputs":[],"name":"futureRoleManager","outputs":[{"internalType":"address","name":"","type":"address"}],"stateMutability":"view","type":"function"},{"inputs":[{"internalType":"bytes32","name":"role","type":"bytes32"}],"name":"getRoleAdmin","outputs":[{"internalType":"bytes32","name":"","type":"bytes32"}],"stateMutability":"view","type":"function"},{"inputs":[{"internalType":"bytes32","name":"role","type":"bytes32"},{"internalType":"address","name":"account","type":"address"}],"name":"grantRole","outputs":[],"stateMutability":"nonpayable","type":"function"},{"inputs":[{"internalType":"bytes32","name":"role","type":"bytes32"},{"internalType":"address","name":"account","type":"address"}],"name":"hasRole","outputs":[{"internalType":"bool","name":"","type":"bool"}],"stateMutability":"view","type":"function"},{"inputs":[{"internalType":"address","name":"spender","type":"address"},{"internalType":"uint256","name":"amount","type":"uint256"}],"name":"increaseAllowance","outputs":[{"internalType":"bool","name":"","type":"bool"}],"stateMutability":"nonpayable","type":"function"},{"inputs":[],"name":"lastProfitUpdate","outputs":[{"internalType":"uint256","name":"","type":"uint256"}],"stateMutability":"view","type":"function"},{"inputs":[{"internalType":"address","name":"receiver","type":"address"}],"name":"maxDeposit","outputs":[{"internalType":"uint256","name":"","type":"uint256"}],"stateMutability":"view","type":"function"},{"inputs":[{"internalType":"address","name":"receiver","type":"address"}],"name":"maxMint","outputs":[{"internalType":"uint256","name":"","type":"uint256"}],"stateMutability":"view","type":"function"},{"inputs":[{"internalType":"address","name":"owner","type":"address"},{"internalType":"uint256","name":"maxLoss","type":"uint256"},{"internalType":"address[]","name":"_strategies","type":"address[]"}],"name":"maxRedeem","outputs":[{"internalType":"uint256","name":"","type":"uint256"}],"stateMutability":"nonpayable","type":"function"},{"inputs":[{"internalType":"address","name":"owner","type":"address"},{"internalType":"uint256","name":"maxLoss","type":"uint256"},{"internalType":"address[]","name":"_strategies","type":"address[]"}],"name":"maxWithdraw","outputs":[{"internalType":"uint256","name":"","type":"uint256"}],"stateMutability":"nonpayable","type":"function"},{"inputs":[],"name":"minimumTotalIdle","outputs":[{"internalType":"uint256","name":"","type":"uint256"}],"stateMutability":"view","type":"function"},{"inputs":[{"internalType":"uint256","name":"shares","type":"uint256"},{"internalType":"address","name":"receiver","type":"address"}],"name":"mint","outputs":[{"internalType":"uint256","name":"","type":"uint256"}],"stateMutability":"nonpayable","type":"function"},{"inputs":[],"name":"name","outputs":[{"internalType":"string","name":"","type":"string"}],"stateMutability":"view","type":"function"},{"inputs":[{"internalType":"address","name":"","type":"address"}],"name":"nonces","outputs":[{"internalType":"uint256","name":"","type":"uint256"}],"stateMutability":"view","type":"function"},{"inputs":[{"internalType":"bytes32","name":"","type":"bytes32"}],"name":"openRoles","outputs":[{"internalType":"bool","name":"","type":"bool"}],"stateMutability":"view","type":"function"},{"inputs":[{"internalType":"address","name":"owner","type":"address"},{"internalType":"address","name":"spender","type":"address"},{"internalType":"uint256","name":"amount","type":"uint256"},{"internalType":"uint256","name":"deadline","type":"uint256"},{"internalType":"uint8","name":"v","type":"uint8"},{"internalType":"bytes32","name":"r","type":"bytes32"},{"internalType":"bytes32","name":"s","type":"bytes32"}],"name":"permit","outputs":[{"internalType":"bool","name":"","type":"bool"}],"stateMutability":"nonpayable","type":"function"},{"inputs":[{"internalType":"uint256","name":"assets","type":"uint256"}],"name":"previewDeposit","outputs":[{"internalType":"uint256","name":"","type":"uint256"}],"stateMutability":"view","type":"function"},{"inputs":[{"internalType":"uint256","name":"shares","type":"uint256"}],"name":"previewMint","outputs":[{"internalType":"uint256","name":"","type":"uint256"}],"stateMutability":"view","type":"function"},{"inputs":[{"internalType":"uint256","name":"shares","type":"uint256"}],"name":"previewRedeem","outputs":[{"internalType":"uint256","name":"","type":"uint256"}],"stateMutability":"view","type":"function"},{"inputs":[{"internalType":"uint256","name":"assets","type":"uint256"}],"name":"previewWithdraw","outputs":[{"internalType":"uint256","name":"","type":"uint256"}],"stateMutability":"view","type":"function"},{"inputs":[],"name":"pricePerShare","outputs":[{"internalType":"uint256","name":"","type":"uint256"}],"stateMutability":"view","type":"function"},{"inputs":[{"internalType":"address","name":"strategy","type":"address"}],"name":"processReport","outputs":[{"internalType":"uint256","name":"","type":"uint256"},{"internalType":"uint256","name":"","type":"uint256"}],"stateMutability":"nonpayable","type":"function"},{"inputs":[],"name":"profitMaxUnlockTime","outputs":[{"internalType":"uint256","name":"","type":"uint256"}],"stateMutability":"view","type":"function"},{"inputs":[],"name":"profitUnlockingRate","outputs":[{"internalType":"uint256","name":"","type":"uint256"}],"stateMutability":"view","type":"function"},{"inputs":[{"internalType":"uint256","name":"shares","type":"uint256"},{"internalType":"address","name":"receiver","type":"address"},{"internalType":"address","name":"owner","type":"address"},{"internalType":"uint256","name":"maxLoss","type":"uint256"},{"internalType":"address[]","name":"_strategies","type":"address[]"}],"name":"redeem","outputs":[{"internalType":"uint256","name":"","type":"uint256"}],"stateMutability":"nonpayable","type":"function"},{"inputs":[{"internalType":"address","name":"account","type":"address"},{"internalType":"bytes32","name":"role","type":"bytes32"}],"name":"removeRole","outputs":[],"stateMutability":"nonpayable","type":"function"},{"inputs":[{"internalType":"bytes32","name":"role","type":"bytes32"},{"internalType":"address","name":"account","type":"address"}],"name":"renounceRole","outputs":[],"stateMutability":"nonpayable","type":"function"},{"inputs":[{"internalType":"bytes32","name":"role","type":"bytes32"},{"internalType":"address","name":"account","type":"address"}],"name":"revokeRole","outputs":[],"stateMutability":"nonpayable","type":"function"},{"inputs":[{"internalType":"address","name":"strategy","type":"address"}],"name":"revokeStrategy","outputs":[],"stateMutability":"nonpayable","type":"function"},{"inputs":[],"name":"roleManager","outputs":[{"internalType":"address","name":"","type":"address"}],"stateMutability":"view","type":"function"},{"inputs":[{"internalType":"address","name":"","type":"address"}],"name":"roles","outputs":[{"internalType":"bytes32","name":"","type":"bytes32"}],"stateMutability":"view","type":"function"},{"inputs":[{"internalType":"address","name":"newAccountant","type":"address"}],"name":"setAccountant","outputs":[],"stateMutability":"nonpayable","type":"function"},{"inputs":[{"internalType":"address[]","name":"newDefaultQueue","type":"address[]"}],"name":"setDefaultQueue","outputs":[],"stateMutability":"nonpayable","type":"function"},{"inputs":[{"internalType":"uint256","name":"_depositLimit","type":"uint256"}],"name":"setDepositLimit","outputs":[],"stateMutability":"nonpayable","type":"function"},{"inputs":[{"internalType":"address","name":"_depositLimitModule","type":"address"}],"name":"setDepositLimitModule","outputs":[],"stateMutability":"nonpayable","type":"function"},{"inputs":[{"internalType":"uint256","name":"_minimumTotalIdle","type":"uint256"}],"name":"setMinimumTotalIdle","outputs":[],"stateMutability":"nonpayable","type":"function"},{"inputs":[{"internalType":"bytes32","name":"role","type":"bytes32"}],"name":"setOpenRole","outputs":[],"stateMutability":"nonpayable","type":"function"},{"inputs":[{"internalType":"uint256","name":"_newProfitMaxUnlockTime","type":"uint256"}],"name":"setProfitMaxUnlockTime","outputs":[],"stateMutability":"nonpayable","type":"function"},{"inputs":[{"internalType":"bool","name":"_useDefaultQueue","type":"bool"}],"name":"setUseDefaultQueue","outputs":[],"stateMutability":"nonpayable","type":"function"},{"inputs":[{"internalType":"address","name":"_withdrawLimitModule","type":"address"}],"name":"setWithdrawLimitModule","outputs":[],"stateMutability":"nonpayable","type":"function"},{"inputs":[],"name":"shutdown","outputs":[{"internalType":"bool","name":"","type":"bool"}],"stateMutability":"view","type":"function"},{"inputs":[],"name":"shutdownVault","outputs":[],"stateMutability":"nonpayable","type":"function"},{"inputs":[{"internalType":"address","name":"","type":"address"}],"name":"strategies","outputs":[{"internalType":"uint256","name":"activation","type":"uint256"},{"internalType":"uint256","name":"lastReport","type":"uint256"},{"internalType":"uint256","name":"currentDebt","type":"uint256"},{"internalType":"uint256","name":"maxDebt","type":"uint256"}],"stateMutability":"view","type":"function"},{"inputs":[{"internalType":"bytes4","name":"interfaceId","type":"bytes4"}],"name":"supportsInterface","outputs":[{"internalType":"bool","name":"","type":"bool"}],"stateMutability":"view","type":"function"},{"inputs":[],"name":"symbol","outputs":[{"internalType":"string","name":"","type":"string"}],"stateMutability":"view","type":"function"},{"inputs":[],"name":"totalAssets","outputs":[{"internalType":"uint256","name":"","type":"uint256"}],"stateMutability":"view","type":"function"},{"inputs":[],"name":"totalDebtAmount","outputs":[{"internalType":"uint256","name":"","type":"uint256"}],"stateMutability":"view","type":"function"},{"inputs":[],"name":"totalIdleAmount","outputs":[{"internalType":"uint256","name":"","type":"uint256"}],"stateMutability":"view","type":"function"},{"inputs":[],"name":"totalSupply","outputs":[{"internalType":"uint256","name":"","type":"uint256"}],"stateMutability":"view","type":"function"},{"inputs":[],"name":"totalSupplyAmount","outputs":[{"internalType":"uint256","name":"","type":"uint256"}],"stateMutability":"view","type":"function"},{"inputs":[{"internalType":"address","name":"receiver","type":"address"},{"internalType":"uint256","name":"amount","type":"uint256"}],"name":"transfer","outputs":[{"internalType":"bool","name":"","type":"bool"}],"stateMutability":"nonpayable","type":"function"},{"inputs":[{"internalType":"address","name":"sender","type":"address"},{"internalType":"address","name":"receiver","type":"address"},{"internalType":"uint256","name":"amount","type":"uint256"}],"name":"transferFrom","outputs":[{"internalType":"bool","name":"","type":"bool"}],"stateMutability":"nonpayable","type":"function"},{"inputs":[{"internalType":"address","name":"newRoleManager","type":"address"}],"name":"transferRoleManager","outputs":[],"stateMutability":"nonpayable","type":"function"},{"inputs":[],"name":"unlockedShares","outputs":[{"internalType":"uint256","name":"","type":"uint256"}],"stateMutability":"view","type":"function"},{"inputs":[{"internalType":"address","name":"strategy","type":"address"},{"internalType":"uint256","name":"targetDebt","type":"uint256"}],"name":"updateDebt","outputs":[{"internalType":"uint256","name":"","type":"uint256"}],"stateMutability":"nonpayable","type":"function"},{"inputs":[{"internalType":"address","name":"strategy","type":"address"},{"internalType":"uint256","name":"newMaxDebt","type":"uint256"}],"name":"updateMaxDebtForStrategy","outputs":[],"stateMutability":"nonpayable","type":"function"},{"inputs":[],"name":"useDefaultQueue","outputs":[{"internalType":"bool","name":"","type":"bool"}],"stateMutability":"view","type":"function"},{"inputs":[{"internalType":"uint256","name":"assets","type":"uint256"},{"internalType":"address","name":"receiver","type":"address"},{"internalType":"address","name":"owner","type":"address"},{"internalType":"uint256","name":"maxLoss","type":"uint256"},{"internalType":"address[]","name":"_strategies","type":"address[]"}],"name":"withdraw","outputs":[{"internalType":"uint256","name":"","type":"uint256"}],"stateMutability":"nonpayable","type":"function"},{"inputs":[],"name":"withdrawLimitModule","outputs":[{"internalType":"address","name":"","type":"address"}],"stateMutability":"view","type":"function"}],"devdoc":{"kind":"dev","methods":{"allowance(address,address)":{"details":"Returns the remaining number of tokens that `spender` will be allowed to spend on behalf of `owner` through {transferFrom}. This is zero by default. This value changes when {approve} or {transferFrom} are called."},"approve(address,uint256)":{"details":"Sets `amount` as the allowance of `spender` over the caller's tokens. Returns a boolean value indicating whether the operation succeeded. IMPORTANT: Beware that changing an allowance with this method brings the risk that someone may use both the old and the new allowance by unfortunate transaction ordering. One possible solution to mitigate this race condition is to first reduce the spender's allowance to 0 and set the desired value afterwards: https://github.com/ethereum/EIPs/issues/20#issuecomment-263524729 Emits an {Approval} event."},"asset()":{"details":"Returns the address of the underlying token used for the Vault for accounting, depositing, and withdrawing. - MUST be an ERC-20 token contract. - MUST NOT revert."},"convertToAssets(uint256)":{"details":"Returns the amount of assets that the Vault would exchange for the amount of shares provided, in an ideal scenario where all the conditions are met. - MUST NOT be inclusive of any fees that are charged against assets in the Vault. - MUST NOT show any variations depending on the caller. - MUST NOT reflect slippage or other on-chain conditions, when performing the actual exchange. - MUST NOT revert. NOTE: This calculation MAY NOT reflect the “per-user” price-per-share, and instead should reflect the “average-user’s” price-per-share, meaning what the average user should expect to see when exchanging to and from."},"convertToShares(uint256)":{"details":"Returns the amount of shares that the Vault would exchange for the amount of assets provided, in an ideal scenario where all the conditions are met. - MUST NOT be inclusive of any fees that are charged against assets in the Vault. - MUST NOT show any variations depending on the caller. - MUST NOT reflect slippage or other on-chain conditions, when performing the actual exchange. - MUST NOT revert. NOTE: This calculation MAY NOT reflect the “per-user” price-per-share, and instead should reflect the “average-user’s” price-per-share, meaning what the average user should expect to see when exchanging to and from."},"decimals()":{"details":"Returns the decimals places of the token."},"deposit(uint256,address)":{"details":"Mints shares Vault shares to receiver by depositing exactly amount of underlying tokens. - MUST emit the Deposit event. - MAY support an additional flow in which the underlying tokens are owned by the Vault contract before the   deposit execution, and are accounted for during deposit. - MUST revert if all of assets cannot be deposited (due to deposit limit being reached, slippage, the user not   approving enough underlying tokens to the Vault contract, etc). NOTE: most implementations will require pre-approval of the Vault with the Vault’s underlying asset token."},"getRoleAdmin(bytes32)":{"details":"Returns the admin role that controls `role`. See {grantRole} and {revokeRole}. To change a role's admin, use {_setRoleAdmin}."},"grantRole(bytes32,address)":{"details":"Grants `role` to `account`. If `account` had not been already granted `role`, emits a {RoleGranted} event. Requirements: - the caller must have ``role``'s admin role. May emit a {RoleGranted} event."},"hasRole(bytes32,address)":{"details":"Returns `true` if `account` has been granted `role`."},"maxDeposit(address)":{"details":"Returns the maximum amount of the underlying asset that can be deposited into the Vault for the receiver, through a deposit call. - MUST return a limited value if receiver is subject to some deposit limit. - MUST return 2 ** 256 - 1 if there is no limit on the maximum amount of assets that may be deposited. - MUST NOT revert."},"maxMint(address)":{"details":"Returns the maximum amount of the Vault shares that can be minted for the receiver, through a mint call. - MUST return a limited value if receiver is subject to some mint limit. - MUST return 2 ** 256 - 1 if there is no limit on the maximum amount of shares that may be minted. - MUST NOT revert."},"mint(uint256,address)":{"details":"Mints exactly shares Vault shares to receiver by depositing amount of underlying tokens. - MUST emit the Deposit event. - MAY support an additional flow in which the underlying tokens are owned by the Vault contract before the mint   execution, and are accounted for during mint. - MUST revert if all of shares cannot be minted (due to deposit limit being reached, slippage, the user not   approving enough underlying tokens to the Vault contract, etc). NOTE: most implementations will require pre-approval of the Vault with the Vault’s underlying asset token."},"previewDeposit(uint256)":{"details":"Allows an on-chain or off-chain user to simulate the effects of their deposit at the current block, given current on-chain conditions. - MUST return as close to and no more than the exact amount of Vault shares that would be minted in a deposit   call in the same transaction. I.e. deposit should return the same or more shares as previewDeposit if called   in the same transaction. - MUST NOT account for deposit limits like those returned from maxDeposit and should always act as though the   deposit would be accepted, regardless if the user has enough tokens approved, etc. - MUST be inclusive of deposit fees. Integrators should be aware of the existence of deposit fees. - MUST NOT revert. NOTE: any unfavorable discrepancy between convertToShares and previewDeposit SHOULD be considered slippage in share price or some other type of condition, meaning the depositor will lose assets by depositing."},"previewMint(uint256)":{"details":"Allows an on-chain or off-chain user to simulate the effects of their mint at the current block, given current on-chain conditions. - MUST return as close to and no fewer than the exact amount of assets that would be deposited in a mint call   in the same transaction. I.e. mint should return the same or fewer assets as previewMint if called in the   same transaction. - MUST NOT account for mint limits like those returned from maxMint and should always act as though the mint   would be accepted, regardless if the user has enough tokens approved, etc. - MUST be inclusive of deposit fees. Integrators should be aware of the existence of deposit fees. - MUST NOT revert. NOTE: any unfavorable discrepancy between convertToAssets and previewMint SHOULD be considered slippage in share price or some other type of condition, meaning the depositor will lose assets by minting."},"previewRedeem(uint256)":{"details":"Allows an on-chain or off-chain user to simulate the effects of their redeemption at the current block, given current on-chain conditions. - MUST return as close to and no more than the exact amount of assets that would be withdrawn in a redeem call   in the same transaction. I.e. redeem should return the same or more assets as previewRedeem if called in the   same transaction. - MUST NOT account for redemption limits like those returned from maxRedeem and should always act as though the   redemption would be accepted, regardless if the user has enough shares, etc. - MUST be inclusive of withdrawal fees. Integrators should be aware of the existence of withdrawal fees. - MUST NOT revert. NOTE: any unfavorable discrepancy between convertToAssets and previewRedeem SHOULD be considered slippage in share price or some other type of condition, meaning the depositor will lose assets by redeeming."},"previewWithdraw(uint256)":{"details":"Allows an on-chain or off-chain user to simulate the effects of their withdrawal at the current block, given current on-chain conditions. - MUST return as close to and no fewer than the exact amount of Vault shares that would be burned in a withdraw   call in the same transaction. I.e. withdraw should return the same or fewer shares as previewWithdraw if   called   in the same transaction. - MUST NOT account for withdrawal limits like those returned from maxWithdraw and should always act as though   the withdrawal would be accepted, regardless if the user has enough shares, etc. - MUST be inclusive of withdrawal fees. Integrators should be aware of the existence of withdrawal fees. - MUST NOT revert. NOTE: any unfavorable discrepancy between convertToShares and previewWithdraw SHOULD be considered slippage in share price or some other type of condition, meaning the depositor will lose assets by depositing."},"renounceRole(bytes32,address)":{"details":"Revokes `role` from the calling account. Roles are often managed via {grantRole} and {revokeRole}: this function's purpose is to provide a mechanism for accounts to lose their privileges if they are compromised (such as when a trusted device is misplaced). If the calling account had been revoked `role`, emits a {RoleRevoked} event. Requirements: - the caller must be `account`. May emit a {RoleRevoked} event."},"revokeRole(bytes32,address)":{"details":"Revokes `role` from `account`. If `account` had been granted `role`, emits a {RoleRevoked} event. Requirements: - the caller must have ``role``'s admin role. May emit a {RoleRevoked} event."},"supportsInterface(bytes4)":{"details":"See {IERC165-supportsInterface}."},"totalAssets()":{"details":"Returns the total amount of the underlying asset that is “managed” by Vault. - SHOULD include any compounding that occurs from yield. - MUST be inclusive of any fees that are charged against assets in the Vault. - MUST NOT revert."}},"stateVariables":{"name":{"details":"Returns the name of the token."},"symbol":{"details":"Returns the symbol of the token."}},"title":"Yearn V3 Vault","version":1},"evm":{"bytecode":{"linkReferences":{},"object":"6101006040526301e1855860e0523480156200001a57600080fd5b5060405162006761380380620067618339810160408190526200003d91620003a9565b600180556001600160a01b03861660808190526040805163313ce56760e01b8152905163313ce567916004808201926020929091908290030181865afa1580156200008c573d6000803e3d6000fd5b505050506040513d601f19601f82011682018060405250810190620000b2919062000490565b60ff1660a081905261010011620000dc5760405163e236476560e01b815260040160405180910390fd5b3360c0526301e18558821115620001065760405163fdfbb0b760e01b815260040160405180910390fd5b6014829055601a620001198682620005b2565b50601b620001288582620005b2565b50601280546001600160a01b0319166001600160a01b038516179055845160208087019190912060408051808201825260058152640312e302e360dc1b9084015251620001bf927f8b73c3c69bb8fe3d512ecc4cf759cc79239f7b179b0ffacaa9a75d522b39400f92917f06c015bd22b4c69690933c1058878ebdfef31f9aaae40bbe86d8a09fe1b2972c91469130910162000695565b60408051808303601f190181529190528051602090910120601955600280546001600160a01b0319166001600160a01b039290921691909117905550620006eb9350505050565b60006001600160a01b0382165b92915050565b6000620002138262000206565b620002318162000219565b81146200023d57600080fd5b50565b8051620002138162000226565b634e487b7160e01b600052604160045260246000fd5b601f19601f83011681018181106001600160401b03821117156200028b576200028b6200024d565b6040525050565b60006200029e60405190565b9050620002ac828262000263565b919050565b60006001600160401b03821115620002cd57620002cd6200024d565b601f19601f83011660200192915050565b60005b83811015620002fb578181015183820152602001620002e1565b50506000910152565b60006200031b6200031584620002b1565b62000292565b905082815260208101848484011115620003385762000338600080fd5b62000345848285620002de565b509392505050565b600082601f830112620003635762000363600080fd5b81516200037584826020860162000304565b949350505050565b620002318162000206565b805162000213816200037d565b8062000231565b8051620002138162000395565b60008060008060008060c08789031215620003c757620003c7600080fd5b6000620003d5898962000240565b96505060208701516001600160401b03811115620003f657620003f6600080fd5b6200040489828a016200034d565b95505060408701516001600160401b03811115620004255762000425600080fd5b6200043389828a016200034d565b94505060606200044689828a0162000388565b93505060806200045989828a016200039c565b92505060a06200046c89828a0162000388565b9150509295509295509295565b60ff811662000231565b8051620002138162000479565b600060208284031215620004a757620004a7600080fd5b600062000375848462000483565b634e487b7160e01b600052602260045260246000fd5b600281046001821680620004e057607f821691505b602082108103620004f557620004f5620004b5565b50919050565b600062000213620005098381565b90565b6200051783620004fb565b81546008840282811b60001990911b908116901990911617825550505050565b6000620005468184846200050c565b505050565b818110156200056a576200056160008262000537565b6001016200054b565b5050565b601f82111562000546576000818152602090206020601f85010481016020851015620005975750805b620005ab6020601f8601048301826200054b565b5050505050565b81516001600160401b03811115620005ce57620005ce6200024d565b620005da8254620004cb565b620005e78282856200056e565b6020601f8311600181146200061e5760008415620006055750858201515b600019600886021c19811660028602178655506200067a565b600085815260208120601f198616915b828110156200065057888501518255602094850194600190920191016200062e565b868310156200066d5784890151600019601f89166008021c191682555b6001600288020188555050505b505050505050565b805b82525050565b620006848162000206565b60a08101620006a5828862000682565b620006b4602083018762000682565b620006c3604083018662000682565b620006d2606083018562000682565b620006e160808301846200068a565b9695505050505050565b60805160a05160c05160e051615fb0620007b1600039600081816105e20152611aef015260008181610666015261474d01526000818161068d015281816106c4015261179901526000818161072d015281816107fa0152818161120401528181612ab901528181612b5501528181612d7001528181612db001528181612eb501528181612f32015281816131bf0152818161338401528181613a5a01528181613e66015281816140f0015281816148d10152818161496501526149b00152615fb06000f3fe608060405234801561001057600080fd5b50600436106104c85760003560e01c80636d020808116102815780636d020808146109565780636e553f651461095e57806370a082311461097157806377e3b267146109845780637ecebe00146109a85780638212fd43146109c85780638afca8f0146109db57806391986003146109e457806391d14854146109f757806394bf804d14610a0a57806395d89b4114610a1d5780639937464214610a2557806399530b0614610a455780639bbca88414610a4d5780639e34e34814610a605780639f3988f314610a73578063a217fddf14610a88578063a457c2d714610a90578063a73f7f8a14610aa3578063a9059cbb14610ab6578063a98222c414610ac9578063ab5b4d4914610ade578063b3c187f214610af3578063b3d7f6b914610b06578063b6cc2d1f14610b19578063bb994d4814610b3a578063bbe4eb4914610b4d578063bdc8144b14610b5a578063c065ca0714610b6d578063c0993eea14610b82578063c63d75b614610ba9578063c6e6f59214610bbc578063c8d74b6014610bcf578063c8dffa9514610be4578063c9a16ea414610bed578063d4ae064f14610c00578063d505accf14610c15578063d538e90414610c28578063d547741f14610c3b578063d81a09f614610c4e578063d9a0e97a14610c61578063dd62ed3e14610c69578063df69b22a14610ca2578063e5236cc914610cb5578063ecf7085814610cbd578063ef8b30f714610bbc578063f1daeba814610cc6578063f5b944eb14610cdb578063f6d7bfa014610cf0578063f828f50b14610d03578063fc0e74d114610d0c578063fd967f4714610d20578063fec61f0614610d29578063ff1e7f0814610d3e57600080fd5b8062435da5146104cd57806301e1d114146104f657806301ffc9a71461050b57806303dcd12c1461052b57806306580f2d1461054057806306fdde031461055357806307a2d13a146105685780630835a3fc1461057b5780630952864e14610584578063095ea7b31461058d5780630a28a477146105a05780630ad283d0146105b357806316b87ac0146105c857806316d3bfbb146105dd57806318160ddd14610604578063223e54791461060c57806323b872dd1461061f578063248a9ca3146106325780632d632692146106455780632d7721681461064e5780632dd31000146106615780632e0f2625146106885780632f2ff15d146106af578063313ce567146106c257806334b5fab6146106f05780633644e5151461070357806336568abe1461070c57806336fba0841461071f57806338d52e0f1461072b578063395093511461075157806339ebf823146107645780633cd7b5ab146107ab5780633f7b5e40146107b4578063402d267d146107bc578063405977e7146107cf57806346e6ac49146107e25780634800d97f146107f557806348ea7127146108295780634bbd71e91461083c5780634cdad506146105685780634ce1d38a1461084f5780634cfe51dc146108645780634d4bb197146108795780634fb3ccc51461088e5780635141eebb146108a157806353a66132146108aa5780635a569099146108cd5780635bf6b4fb146108e0578063629b9142146108f5578063633f228c14610908578063652da3241461091b57806365cb6765146109305780636853920e14610943575b600080fd5b6012546104e0906001600160a01b031681565b6040516104ed9190614eb6565b60405180910390f35b6104fe610d51565b6040516104ed9190614eca565b61051e610519366004614efa565b610d60565b6040516104ed9190614f23565b6104fe600080516020615cfb83398151915281565b6104fe61054e366004615066565b610d97565b61055b610dd4565b6040516104ed9190615150565b6104fe610576366004615161565b610e62565b6104fe600b5481565b6104fe60145481565b61051e61059b366004615182565b610e6f565b6104fe6105ae366004615161565b610e83565b6104fe600080516020615d1b83398151915281565b6105db6105d63660046151bf565b610e90565b005b6104fe7f000000000000000000000000000000000000000000000000000000000000000081565b6104fe610eb7565b6105db61061a3660046151bf565b610ec1565b61051e61062d3660046151e0565b610ee2565b6104fe610640366004615161565b610f33565b6104fe60155481565b6105db61065c3660046151bf565b610f48565b6104e07f000000000000000000000000000000000000000000000000000000000000000081565b6104fe7f000000000000000000000000000000000000000000000000000000000000000081565b6105db6106bd366004615230565b610fec565b7f00000000000000000000000000000000000000000000000000000000000000006040516104ed919061526c565b6104fe6106fe36600461527a565b61100d565b6104fe60195481565b6105db61071a366004615230565b61105b565b6104fe64e8d4a5100081565b7f00000000000000000000000000000000000000000000000000000000000000006104e0565b61051e61075f366004615182565b611096565b61079b6107723660046151bf565b600360208190526000918252604090912080546001820154600283015492909301549092919084565b6040516104ed94939291906152da565b6104fe600a5481565b6104fe600a81565b6104fe6107ca3660046151bf565b6110a3565b6105db6107dd366004615182565b6110ae565b6104fe6107f0366004615182565b61131e565b61081c7f000000000000000000000000000000000000000000000000000000000000000081565b6040516104ed9190615347565b6105db6108373660046151bf565b61135c565b6105db61084a3660046151bf565b6113bf565b6104fe600080516020615f5b83398151915281565b6104fe600080516020615d9b83398151915281565b6104fe600080516020615e5b83398151915281565b600d546104e0906001600160a01b031681565b6104fe60165481565b61051e6108b8366004615161565b60116020526000908152604090205460ff1681565b6104fe6108db366004615182565b611422565b6104fe600080516020615d7b83398151915281565b6105db6109033660046151bf565b611468565b6105db61091636600461539f565b6114a3565b6104fe600080516020615cdb83398151915281565b6104fe61093e36600461527a565b611588565b6105db610951366004615182565b611595565b6105db6115fd565b6104fe61096c366004615230565b611672565b6104fe61097f3660046151bf565b611692565b61055b604051806040016040528060058152602001640312e302e360dc1b81525081565b6104fe6109b63660046151bf565b60186020526000908152604090205481565b6105db6109d6366004615161565b6116eb565b6104fe60175481565b600f546104e0906001600160a01b031681565b61051e610a05366004615230565b611744565b6104fe610a18366004615230565b61176d565b61055b611782565b6104fe610a333660046151bf565b60106020526000908152604090205481565b6104fe61178f565b6105db610a5b3660046153f9565b6117c6565b600e546104e0906001600160a01b031681565b6104fe600080516020615e9b83398151915281565b6104fe600081565b61051e610a9e366004615182565b61181c565b6105db610ab1366004615182565b611829565b61051e610ac4366004615182565b61184b565b6104fe600080516020615f3b83398151915281565b6104fe600080516020615ebb83398151915281565b6013546104e0906001600160a01b031681565b6104fe610b14366004615161565b61189d565b610b2c610b273660046151bf565b6118aa565b6040516104ed92919061541a565b6105db610b483660046151bf565b6118e9565b60055461051e9060ff1681565b6105db610b68366004615161565b61190c565b6104fe600080516020615ddb83398151915281565b6104fe7f8b73c3c69bb8fe3d512ecc4cf759cc79239f7b179b0ffacaa9a75d522b39400f81565b6104fe610bb73660046151bf565b6119a0565b6104fe610bca366004615161565b6119b9565b6104fe600080516020615cbb83398151915281565b6104fe60095481565b6105db610bfb366004615161565b6119c6565b6104fe600080516020615edb83398151915281565b61051e610c23366004615449565b611a26565b6105db610c36366004615161565b611a45565b6105db610c49366004615230565b611a7b565b6104fe610c5c366004615066565b611a97565b6104fe611acb565b6104fe610c773660046154e8565b6001600160a01b03918216600090815260076020908152604080832093909416825291909152205490565b6105db610cb0366004615161565b611ad5565b6105db611b8f565b6104fe600c5481565b6104fe600080516020615e1b83398151915281565b6104fe600080516020615dfb83398151915281565b6105db610cfe366004615182565b611c93565b6104fe60085481565b60135461051e90600160a01b900460ff1681565b6104fe61271081565b6104fe600080516020615d5b83398151915281565b6104e0610d4c366004615161565b611d40565b6000610d5b611d6a565b905090565b60006001600160e01b03198216637965db0b60e01b1480610d9157506301ffc9a760e01b6001600160e01b03198316145b92915050565b6000610da1611d7c565b6000610dae876000611da5565b9050610dbf338787848b8989611e3b565b915050610dcb60018055565b95945050505050565b601a8054610de190615520565b80601f0160208091040260200160405190810160405280929190818152602001828054610e0d90615520565b8015610e5a5780601f10610e2f57610100808354040283529160200191610e5a565b820191906000526020600020905b815481529060010190602001808311610e3d57829003601f168201915b505050505081565b6000610d91826000611da5565b6000610e7c338484611ed8565b9392505050565b6000610d91826001611f70565b600080516020615d7b833981519152610ea88161201e565b610eb382600161202b565b5050565b6000610d5b612093565b600080516020615ddb833981519152610ed98161201e565b610eb3826120aa565b60006001600160a01b038316301480610f0257506001600160a01b038316155b15610f205760405163d92e233d60e01b815260040160405180910390fd5b610f2b84848461210f565b949350505050565b60009081526020819052604090206001015490565b600080516020615f3b833981519152610f608161201e565b601354600160a01b900460ff161515600103610f8f57604051630f3c386760e01b815260040160405180910390fd5b600019600c5414610fb357604051634e41418560e11b815260040160405180910390fd5b600e80546001600160a01b0319166001600160a01b038416908117909155604051600080516020615d3b83398151915290600090a25050565b610ff582610f33565b610ffe8161201e565b6110088383612131565b505050565b60008061101b8585856121b5565b9050600061102a826001611f70565b6001600160a01b03871660009081526006602052604090205490915061105190829061257f565b9695505050505050565b6001600160a01b038116331461108c5760405162461bcd60e51b81526004016110839061554c565b60405180910390fd5b610eb38282612595565b6000610e7c3384846125fa565b6000610d9182612648565b600080516020615ebb8339815191526110c68161201e565b6110ce611d7c565b6001600160a01b038316600090815260036020526040812054900361110657604051630631bc2160e51b815260040160405180910390fd5b6001600160a01b03831660009081526003602052604090206002015480158061112d575082155b1561114b57604051637c946ed760e01b815260040160405180910390fd5b80831115611157578092505b60008184866001600160a01b03166370a08231306040518263ffffffff1660e01b81526004016111879190614eb6565b602060405180830381865afa1580156111a4573d6000803e3d6000fd5b505050506040513d601f19601f820116820180604052508101906111c891906155aa565b6111d291906155e1565b6111dc9190615616565b9050600081116111ff57604051637c946ed760e01b815260040160405180910390fd5b61122b7f0000000000000000000000000000000000000000000000000000000000000000333087612720565b6001600160a01b0385166000908152600360205260408120600201805486929061125690849061562a565b92505081905550836009600082825461126f919061562a565b9250508190555083600a6000828254611288919061563d565b90915550506001600160a01b038516600080516020615f1b833981519152836112b1878261562a565b6040516112bf92919061541a565b60405180910390a26112d2853383612802565b846001600160a01b03167fe94e7f88819f66c19b097748cb754149f63b1a176ed425dee1f1ee933e6d09b08560405161130b9190614eca565b60405180910390a2505061100860018055565b6000600080516020615cbb8339815191526113388161201e565b611340611d7c565b61134a84846128ca565b915061135560018055565b5092915050565b600080516020615cdb8339815191526113748161201e565b600d80546001600160a01b0319166001600160a01b0384169081179091556040517f28709a2dab2a5d5e8688e96159011151c51644ab21839a8a45b449634d7c8b2b90600090a25050565b600080516020615f5b8339815191526113d78161201e565b600f80546001600160a01b0319166001600160a01b0384169081179091556040517fce6e3f8beda82a13c441d76efd4a6335760f219f38c60502e6680060874e109d90600090a25050565b6001600160a01b03821660009081526003602052604081206002015482111561145e576040516337deae0760e01b815260040160405180910390fd5b610e7c8383612ff7565b600080516020615dfb8339815191526114808161201e565b50601380546001600160a01b0319166001600160a01b0392909216919091179055565b600080516020615d9b8339815191526114bb8161201e565b60005b8281101561153c5760008484838181106114da576114da615650565b90506020020160208101906114ef91906151bf565b6001600160a01b0381166000908152600360205260408120549192500361152957604051630631bc2160e51b815260040160405180910390fd5b508061153481615666565b9150506114be565b5061154960048484614dc6565b507f0bc0cb8c5ccee13e6a2fd26a699f57ad7ff6e454e6aae97ec41cd2eb9ebd63a5838360405161157b9291906156eb565b60405180910390a1505050565b6000610f2b8484846121b5565b600080516020615dfb8339815191526115ad8161201e565b6115b78284612595565b826001600160a01b03167f1395522074be2925cc0fe997dc4fe5d15a507c2a971e00c315e5a2e08c9b0e50836040516115f09190614eca565b60405180910390a2505050565b6013546001600160a01b031633146116285760405163967642d960e01b815260040160405180910390fd5b60128054336001600160a01b031991821681179092556013805490911690556040517fce93baa0b608a7d420822b6b90cfcccb70574363ba4fd26ef5ac17dd465016c490600090a2565b600061167c611d7c565b61168733838561314d565b9050610d9160018055565b6000306001600160a01b038316036116cf576116ac6132a5565b6001600160a01b038316600090815260066020526040902054610d91919061562a565b506001600160a01b031660009081526006602052604090205490565b600080516020615d1b8339815191526117038161201e565b600b8290556040517f01a4494beed88920b88742cc58f2744e198f55ff192635a1fbabc6be8ffade8190611738908490614eca565b60405180910390a15050565b6000918252602082815260408084206001600160a01b0393909316845291905290205460ff1690565b6000611777611d7c565b611687338385613303565b601b8054610de190615520565b6000610d5b6117bf7f0000000000000000000000000000000000000000000000000000000000000000600a61580b565b6000611da5565b600080516020615d9b8339815191526117de8161201e565b6005805460ff19168315151790556040517f1f88e73ebc721f227812938fe07a069ec1f7136aafacb397ed460bd15dee13f190611738908490614f23565b6000610e7c338484613456565b600080516020615dfb8339815191526118418161201e565b6115b78284612131565b60006001600160a01b03831630148061186b57506001600160a01b038316155b156118895760405163d92e233d60e01b815260040160405180910390fd5b61189433848461348b565b50600192915050565b6000610d91826001611da5565b600080600080516020615cfb8339815191526118c58161201e565b6118cd611d7c565b6118d684613588565b925092506118e360018055565b50915091565b600080516020615e9b8339815191526119018161201e565b610eb382600061202b565b600080516020615f3b8339815191526119248161201e565b601354600160a01b900460ff16151560010361195357604051630f3c386760e01b815260040160405180910390fd5b600e546001600160a01b03161561197d576040516364b9991160e11b815260040160405180910390fd5b600c829055604051600080516020615dbb83398151915290611738908490614eca565b6000806119ac83612648565b9050610e7c816000611f70565b6000610d91826000611f70565b600080516020615dfb8339815191526119de8161201e565b6000828152601160205260409020805460ff1916905560015b60405183907f9f6d8ceb5fe3a6380949b0777bd5802511579b6fbbc87194c108a91d372f952790600090a35050565b6000611a37888888888888886136bc565b90505b979650505050505050565b600080516020615dfb833981519152611a5d8161201e565b6000828152601160205260408120805460ff191660011790556119f7565b611a8482610f33565b611a8d8161201e565b6110088383612595565b6000611aa1611d7c565b6000611aae876001611f70565b9050611abf3387878a858989611e3b565b509050610dcb60018055565b6000610d5b6132a5565b600080516020615edb833981519152611aed8161201e565b7f0000000000000000000000000000000000000000000000000000000000000000821115611b2e5760405163fdfbb0b760e01b815260040160405180910390fd5b81600003611b5a5730600081815260066020526040902054611b4f916138ac565b600060168190556015555b60148290556040517ff361aed463da6fa20358e45c6209f1d3e16d4eca706e6eab0b0aeb338729c77a90611738908490614eca565b600080516020615d5b833981519152611ba78161201e565b601354600160a01b900460ff161515600103611bd657604051630631bc2160e51b815260040160405180910390fd5b6013805460ff60a01b1916600160a01b179055600e546001600160a01b031615611c2457600e80546001600160a01b0319169055604051600090600080516020615d3b833981519152908290a25b6000600c819055604051600080516020615dbb83398151915291611c4791615845565b60405180910390a1611c6733600080516020615cbb833981519152611829565b6040517f4426aa1fb73e391071491fcfe21a88b5c38a0a0333a1f6e77161470439704cf890600090a150565b600080516020615e1b833981519152611cab8161201e565b6001600160a01b0383166000908152600360205260408120549003611ce357604051630631bc2160e51b815260040160405180910390fd5b6001600160a01b038316600081815260036020819052604091829020018490555133907fb3eef2123fec1523a6bbc90aceb203000154c1a4974335fe06b544c7534d4b8990611d33908690614eca565b60405180910390a3505050565b60048181548110611d5057600080fd5b6000918252602090912001546001600160a01b0316905081565b6000600954600a54610d5b919061563d565b600260015403611d9e5760405162461bcd60e51b81526004016110839061588a565b6002600155565b6000600019831480611db5575082155b15611dc1575081610d91565b6000611dcb612093565b905080600003611dde5783915050610d91565b6000611de8611d6a565b611df290866155e1565b90506000611e008383615616565b90506001856001811115611e1657611e1661581a565b148015611e2b5750611e28838361589a565b15155b15610dcb5761105160018261563d565b6000611e4987878686613963565b611e54868986613a07565b600080611e618785613a2b565b91509150611e748989888a86868b61407f565b876001600160a01b0316896001600160a01b03168b6001600160a01b03167ffbde797d201c681b91056529119e0b02407c7bb96a4a2c75c01fc9667232c8db858a604051611ec392919061541a565b60405180910390a45098975050505050505050565b60006001600160a01b0384161580611ef757506001600160a01b038316155b15611f155760405163d92e233d60e01b815260040160405180910390fd5b6001600160a01b038085166000818152600760209081526040808320948816808452949091529081902085905551600080516020615e7b83398151915290611f5e908690614eca565b60405180910390a35060019392505050565b6000600019831480611f80575082155b15611f8c575081610d91565b6000611f96612093565b90506000611fa2611d6a565b905080600003611fc95781600003611fbe578492505050610d91565b600092505050610d91565b6000611fd583876155e1565b90506000611fe38383615616565b90506001866001811115611ff957611ff961581a565b14801561200e575061200b838361589a565b15155b1561105157611a3a60018261563d565b612028813361411f565b50565b600254604051637a163bd760e11b81526001600160a01b039091169063f42c77ae9061205d90859085906004016158ae565b600060405180830381600087803b15801561207757600080fd5b505af115801561208b573d6000803e3d6000fd5b505050505050565b600061209d6132a5565b600854610d5b919061562a565b60025460405163223e547960e01b81526001600160a01b039091169063223e5479906120da908490600401614eb6565b600060405180830381600087803b1580156120f457600080fd5b505af1158015612108573d6000803e3d6000fd5b5050505050565b600061211c843384614178565b61212784848461348b565b5060019392505050565b61213b8282611744565b610eb3576000828152602081815260408083206001600160a01b03851684529091529020805460ff191660011790556121713390565b6001600160a01b0316816001600160a01b0316837f2f8788117e7eff1d82e926ec794901d17c78024a50270940304540a733656f0d60405160405180910390a45050565b6001600160a01b03831660009081526006602052604081205481906121da9082611da5565b600f549091506001600160a01b03161561227c57600f54604051632319b8cf60e01b81526000916001600160a01b031690632319b8cf9061222390899089908990600401615907565b6020604051808303816000875af1158015612242573d6000803e3d6000fd5b505050506040513d601f19601f8201168201806040525081019061226691906155aa565b905081811015612274578091505b509050610e7c565b600a548082111561257657835181906000908190158015906122a1575060055460ff16155b6123055760048054806020026020016040519081016040528092919081815260200182805480156122fb57602002820191906000526020600020905b81546001600160a01b031681526001909101906020018083116122dd575b5050505050612307565b865b905060005b815181101561256f57600082828151811061232957612329615650565b6020026020010151905060036000826001600160a01b03166001600160a01b031681526020019081526020016000206000015460000361237c57604051630631bc2160e51b815260040160405180910390fd5b60006123ac61238b878a61562a565b6001600160a01b03841660009081526003602052604090206002015461257f565b905060006123ba8383612ff7565b90506000836001600160a01b03166307a2d13a856001600160a01b031663d905777e306040518263ffffffff1660e01b81526004016123f99190614eb6565b602060405180830381865afa158015612416573d6000803e3d6000fd5b505050506040513d601f19601f8201168201806040525081019061243a91906155aa565b6040518263ffffffff1660e01b81526004016124569190614eca565b602060405180830381865afa158015612473573d6000803e3d6000fd5b505050506040513d601f19601f8201168201806040525081019061249791906155aa565b90506124a3828461562a565b8110156124ce57826124b582846155e1565b6124bf9190615616565b91506124cb828261563d565b92505b826000036124df575050505061255d565b6000821180156124f057506127108d105b15612530576127108d612503858b61563d565b61250d91906155e1565b6125179190615616565b612521838961563d565b1115612530575050505061256f565b61253a838961563d565b975089881061254c575050505061256f565b612556828861563d565b9650505050505b8061256781615666565b91505061230c565b5091935050505b50949350505050565b600081831061258e5781610e7c565b5090919050565b61259f8282611744565b15610eb3576000828152602081815260408083206001600160a01b0385168085529252808320805460ff1916905551339285917ff6391f5c32d9c69d2a47ea670b442974b53935d1edc7fd64eb21e047a839171b9190a45050565b6001600160a01b038084166000908152600760209081526040808320938616835292905290812054819061262f90849061563d565b905061263c858583611ed8565b50600195945050505050565b60006001600160a01b03821630148061266857506001600160a01b038216155b1561267557506000919050565b600e546001600160a01b031680156126f457604051632355178960e11b81526001600160a01b038216906346aa2f12906126b3908690600401614eb6565b602060405180830381865afa1580156126d0573d6000803e3d6000fd5b505050506040513d601f19601f82011682018060405250810190610e7c91906155aa565b60006126fe611d6a565b600c5490915080821061271657506000949350505050565b610dcb828261562a565b6001600160a01b038416158061273d57506001600160a01b038316155b8061274f57506001600160a01b038216155b1561276d5760405163d92e233d60e01b815260040160405180910390fd5b6040516323b872dd60e01b81526001600160a01b038516906323b872dd9061279d90869086908690600401615934565b6020604051808303816000875af11580156127bc573d6000803e3d6000fd5b505050506040513d601f19601f820116820180604052508101906127e09190615967565b6127fc5760405162461bcd60e51b8152600401611083906159ae565b50505050565b6001600160a01b038316158061281f57506001600160a01b038216155b1561283d5760405163d92e233d60e01b815260040160405180910390fd5b60405163a9059cbb60e01b81526001600160a01b0384169063a9059cbb9061286b90859085906004016159be565b6020604051808303816000875af115801561288a573d6000803e3d6000fd5b505050506040513d601f19601f820116820180604052508101906128ae9190615967565b6110085760405162461bcd60e51b8152600401611083906159ae565b6001600160a01b038216600090815260036020526040812060020154601354839190600160a01b900460ff16151560010361290457600091505b8082036129245760405163084df06b60e41b815260040160405180910390fd5b81811115612c38576000612938838361562a565b9050600b5481600a5461294b919061563d565b101561296e57600a54600b54612961919061562a565b90508181111561296e5750805b604051636c82bbbf60e11b81526000906001600160a01b038816906307a2d13a90829063d905777e906129a5903090600401614eb6565b602060405180830381865afa1580156129c2573d6000803e3d6000fd5b505050506040513d601f19601f820116820180604052508101906129e691906155aa565b6040518263ffffffff1660e01b8152600401612a029190614eca565b602060405180830381865afa158015612a1f573d6000803e3d6000fd5b505050506040513d601f19601f82011682018060405250810190612a4391906155aa565b905060008111612a6657604051637c946ed760e01b815260040160405180910390fd5b81811015612a72578091505b6000612a7e8884612ff7565b90508015612a9f576040516339589fdd60e21b815260040160405180910390fd5b6040516370a0823160e01b81526000906001600160a01b037f000000000000000000000000000000000000000000000000000000000000000016906370a0823190612aee903090600401614eb6565b602060405180830381865afa158015612b0b573d6000803e3d6000fd5b505050506040513d601f19601f82011682018060405250810190612b2f91906155aa565b9050612b3b89856141d3565b6040516370a0823160e01b81526000906001600160a01b037f000000000000000000000000000000000000000000000000000000000000000016906370a0823190612b8a903090600401614eb6565b602060405180830381865afa158015612ba7573d6000803e3d6000fd5b505050506040513d601f19601f82011682018060405250810190612bcb91906155aa565b90506000612be2612bdc848461562a565b8861257f565b905085811115612bf0578095505b80600a6000828254612c02919061563d565b925050819055508560096000828254612c1b919061562a565b90915550612c2b9050868861562a565b9750505050505050612fa9565b6001600160a01b03851660009081526003602081905260409091200154821115612c755760405163d49d8c2360e01b815260040160405180910390fd5b60405163402d267d60e01b81526000906001600160a01b0387169063402d267d90612ca4903090600401614eb6565b602060405180830381865afa158015612cc1573d6000803e3d6000fd5b505050506040513d601f19601f82011682018060405250810190612ce591906155aa565b905060008111612d0857604051637c946ed760e01b815260040160405180910390fd5b6000612d14838561562a565b905081811115612d215750805b600b54600a5411612d455760405163356680b760e01b815260040160405180910390fd5b6000600b54600a54612d57919061562a565b905080821115612d65578091505b8115612fa557612d967f0000000000000000000000000000000000000000000000000000000000000000898461432d565b6040516370a0823160e01b81526000906001600160a01b037f000000000000000000000000000000000000000000000000000000000000000016906370a0823190612de5903090600401614eb6565b602060405180830381865afa158015612e02573d6000803e3d6000fd5b505050506040513d601f19601f82011682018060405250810190612e2691906155aa565b604051636e553f6560e01b81529091506001600160a01b038a1690636e553f6590612e5790869030906004016159cc565b6020604051808303816000875af1158015612e76573d6000803e3d6000fd5b505050506040513d601f19601f82011682018060405250810190612e9a91906155aa565b506040516370a0823160e01b81526000906001600160a01b037f000000000000000000000000000000000000000000000000000000000000000016906370a0823190612eea903090600401614eb6565b602060405180830381865afa158015612f07573d6000803e3d6000fd5b505050506040513d601f19601f82011682018060405250810190612f2b91906155aa565b9050612f597f00000000000000000000000000000000000000000000000000000000000000008b600061432d565b612f63818361562a565b935083600a6000828254612f77919061562a565b925050819055508360096000828254612f90919061563d565b90915550612fa09050848761563d565b965050505b5050505b6001600160a01b0385166000818152600360205260409081902060020184905551600080516020615f1b83398151915290612fe7908490869061541a565b60405180910390a2509392505050565b6001600160a01b0382166000818152600360205260408082206002015490516370a0823160e01b8152919290918391906370a082319061303b903090600401614eb6565b602060405180830381865afa158015613058573d6000803e3d6000fd5b505050506040513d601f19601f8201168201806040525081019061307c91906155aa565b90506000856001600160a01b03166307a2d13a836040518263ffffffff1660e01b81526004016130ac9190614eca565b602060405180830381865afa1580156130c9573d6000803e3d6000fd5b505050506040513d601f19601f820116820180604052508101906130ed91906155aa565b905082811015806130fc575082155b1561310d5760009350505050610d91565b600061311982876155e1565b905060006131278583615616565b613131908861562a565b905061313d858361589a565b15611a3a57611a3760018261563d565b601354600090600160a01b900460ff16151560010361317f57604051630f3c386760e01b815260040160405180910390fd5b61318883612648565b8211156131a8576040516325d16c5160e01b815260040160405180910390fd5b6040516323b872dd60e01b81526001600160a01b037f000000000000000000000000000000000000000000000000000000000000000016906323b872dd906131f890339030908790600401615934565b6020604051808303816000875af1158015613217573d6000803e3d6000fd5b505050506040513d601f19601f8201168201806040525081019061323b9190615967565b5081600a600082825461324e919061563d565b909155506000905061326083856143f5565b9050836001600160a01b0316856001600160a01b0316600080516020615efb833981519152858460405161329592919061541a565b60405180910390a3949350505050565b60155460009081428211156132e65764e8d4a51000601754426132c8919061562a565b6016546132d591906155e1565b6132df9190615616565b9050610d91565b8115610d9157503060009081526006602052604090205492915050565b601354600090600160a01b900460ff16151560010361333557604051630f3c386760e01b815260040160405180910390fd5b6000613342836001611da5565b905061334d84612648565b81111561336d576040516325d16c5160e01b815260040160405180910390fd5b6040516323b872dd60e01b81526001600160a01b037f000000000000000000000000000000000000000000000000000000000000000016906323b872dd906133bd90339030908690600401615934565b6020604051808303816000875af11580156133dc573d6000803e3d6000fd5b505050506040513d601f19601f820116820180604052508101906134009190615967565b5080600a6000828254613413919061563d565b90915550613423905083856144a6565b836001600160a01b0316856001600160a01b0316600080516020615efb833981519152838660405161329592919061541a565b6001600160a01b038084166000908152600760209081526040808320938616835292905290812054819061262f90849061562a565b6001600160a01b038316600090815260066020526040902054818110156134c55760405163356680b760e01b815260040160405180910390fd5b6001600160a01b03841615806134e257506001600160a01b038316155b156135005760405163d92e233d60e01b815260040160405180910390fd5b61350a828261562a565b6001600160a01b038086166000908152600660205260408082209390935590851681522054613539838261563d565b6001600160a01b038086166000818152600660205260409081902093909355915190871690600080516020615e3b83398151915290613579908790614eca565b60405180910390a35050505050565b6001600160a01b038116600090815260036020526040812054819081036135c257604051630631bc2160e51b815260040160405180910390fd5b6135ca61453f565b6000806135d68561456f565b9150915060006135e78684846146a5565b905060006135fe8383600001518460400151614813565b9050600080613610838588888d614898565b9150915061361e8282614ba8565b6001600160a01b03891660008181526003602052604080822042600182015560020154908601517f7f2ad1d3ba35276f35ef140f83e3e0f17b23064fd710113d3f7a5ab30d267811928a928a9290916136779190611da5565b61368e89602001518a604001516117bf919061563d565b8a602001516040516136a5969594939291906159e7565b60405180910390a250939792965091945050505050565b60006001600160a01b0388166136e55760405163d92e233d60e01b815260040160405180910390fd5b42851015613706576040516363bef56160e11b815260040160405180910390fd5b6001600160a01b038816600090815260186020908152604080832054905190929161374b91600080516020615e5b833981519152918d918d918d9188918e9101615a36565b60405160208183030381529060405280519060200120905060006019548260405160200161377a929190615a5e565b6040516020818303038152906040528051906020012090506000600182898989604051600081526020016040526040516137b79493929190615a8f565b6020604051602081039080840390855afa1580156137d9573d6000803e3d6000fd5b5050604051601f1901519150506001600160a01b038116158061380e57508b6001600160a01b0316816001600160a01b031614155b1561382c576040516310454c9960e31b815260040160405180910390fd5b6138378c8c8c611ed8565b506001600160a01b038c16600090815260186020526040812080549161385c83615666565b91905055508a6001600160a01b03168c6001600160a01b0316600080516020615e7b8339815191528c6040516138929190614eca565b60405180910390a35060019b9a5050505050505050505050565b6001600160a01b0381166000908152600660205260409020548211156138e557604051633999656760e01b815260040160405180910390fd5b6001600160a01b0381166000908152600660205260408120805484929061390d90849061562a565b925050819055508160086000828254613926919061562a565b90915550506040516000906001600160a01b03831690600080516020615e3b83398151915290613957908690614eca565b60405180910390a35050565b6001600160a01b03841661398a5760405163d92e233d60e01b815260040160405180910390fd5b6127108111156139ad57604051631a7ed0a160e31b815260040160405180910390fd5b600082116139ce57604051637c946ed760e01b815260040160405180910390fd5b6001600160a01b0383166000908152600660205260409020548211156127fc57604051633999656760e01b815260040160405180910390fd5b826001600160a01b0316826001600160a01b03161461100857611008838383614178565b60008060006040518060c00160405280868152602001600a5481526020016009548152602001600081526020017f00000000000000000000000000000000000000000000000000000000000000006001600160a01b03166370a08231306040518263ffffffff1660e01b8152600401613aa49190614eb6565b602060405180830381865afa158015613ac1573d6000803e3d6000fd5b505050506040513d601f19601f82011682018060405250810190613ae591906155aa565b815260006020918201528101518151919250101561406a5760008451600014158015613b14575060055460ff16155b613b78576004805480602002602001604051908101604052809291908181526020018280548015613b6e57602002820191906000526020600020905b81546001600160a01b03168152600190910190602001808311613b50575b5050505050613b7a565b845b60208301518351919250613b8d9161562a565b606083015260005b8151811015614039576000828281518110613bb257613bb2615650565b6020026020010151905060036000826001600160a01b03166001600160a01b0316815260200190815260200160002060000154600003613c0557604051630631bc2160e51b815260040160405180910390fd5b6001600160a01b0381166000908152600360205260408120600201546060860151909190613c33908361257f565b90506000836001600160a01b03166307a2d13a856001600160a01b031663d905777e306040518263ffffffff1660e01b8152600401613c729190614eb6565b602060405180830381865afa158015613c8f573d6000803e3d6000fd5b505050506040513d601f19601f82011682018060405250810190613cb391906155aa565b6040518263ffffffff1660e01b8152600401613ccf9190614eca565b602060405180830381865afa158015613cec573d6000803e3d6000fd5b505050506040513d601f19601f82011682018060405250810190613d1091906155aa565b90506000613d1e8584612ff7565b90508015613e2457613d30818461562a565b821015613d6a576000613d43828561562a565b905080613d5084846155e1565b613d5a9190615616565b9150613d66828461563d565b9350505b613d74818461562a565b92508088600001818151613d88919061562a565b905250606088018051829190613d9f90839061562a565b905250604088018051829190613db690839061562a565b90525081158015613dc75750600081115b15613e24576000613dd8828661562a565b6001600160a01b038716600081815260036020526040908190206002018390555191925090600080516020615f1b83398151915290613e1a908890859061541a565b60405180910390a2505b613e2e838361257f565b925082600003613e42575050505050614027565b613e4c85846141d3565b6040516370a0823160e01b81526000906001600160a01b037f000000000000000000000000000000000000000000000000000000000000000016906370a0823190613e9b903090600401614eb6565b602060405180830381865afa158015613eb8573d6000803e3d6000fd5b505050506040513d601f19601f82011682018060405250810190613edc91906155aa565b90506000896080015182613ef0919061562a565b9050600085821115613f275786821115613f0c57869550613f3c565b613f16868361562a565b613f20908761563d565b9550613f3c565b85821015613f3c57613f39828761562a565b90505b613f46818761562a565b8b602001818151613f57919061563d565b9052508a5181908c90613f6b90839061562a565b90525060408b018051879190613f8290839061562a565b9052506000613f91858861563d565b613f9b908961562a565b6001600160a01b038a16600081815260036020526040908190206002018390555191925090600080516020615f1b83398151915290613fdd908b90859061541a565b60405180910390a260208c01518c5111613fff57505050505050505050614039565b60808c0184905260608c01805188919061401a90839061562a565b9052505050505050505050505b8061403181615666565b915050613b95565b50815160208301511015614060576040516396d8043360e01b815260040160405180910390fd5b5060408101516009555b805160209091015190925090505b9250929050565b828411801561408f575061271081105b156140d4576127106140a182866155e1565b6140ab9190615616565b6140b5848661562a565b11156140d4576040516307f65e3960e11b815260040160405180910390fd5b6140de85876138ac565b6140e8838361562a565b600a556141167f00000000000000000000000000000000000000000000000000000000000000008885612802565b50505050505050565b6141298282611744565b610eb35761413681614c49565b614141836020614c5b565b604051602001614152929190615acc565b60408051601f198184030181529082905262461bcd60e51b825261108391600401615150565b6001600160a01b03808416600090815260076020908152604080832093861683529290522054818110156141bf5760405163017e286b60e51b815260040160405180910390fd5b61210884846141ce858561562a565b611ed8565b60006142b7836001600160a01b0316630a28a477846040518263ffffffff1660e01b81526004016142049190614eca565b602060405180830381865afa158015614221573d6000803e3d6000fd5b505050506040513d601f19601f8201168201806040525081019061424591906155aa565b6040516370a0823160e01b81526001600160a01b038616906370a0823190614271903090600401614eb6565b602060405180830381865afa15801561428e573d6000803e3d6000fd5b505050506040513d601f19601f820116820180604052508101906142b291906155aa565b61257f565b604051635d043b2960e11b81529091506001600160a01b0384169063ba087652906142ea90849030908190600401615b1e565b6020604051808303816000875af1158015614309573d6000803e3d6000fd5b505050506040513d601f19601f820116820180604052508101906127fc91906155aa565b6001600160a01b038316158061434a57506001600160a01b038216155b156143685760405163d92e233d60e01b815260040160405180910390fd5b60405163095ea7b360e01b81526001600160a01b0384169063095ea7b39061439690859085906004016159be565b6020604051808303816000875af11580156143b5573d6000803e3d6000fd5b505050506040513d601f19601f820116820180604052508101906143d99190615967565b6110085760405162461bcd60e51b815260040161108390615b6c565b60006001600160a01b03821661441e5760405163d92e233d60e01b815260040160405180910390fd5b6000614428612093565b90506000614434611d6a565b905060008260000361444757508461448c565b8582111561447457614459868361562a565b61446384886155e1565b61446d9190615616565b905061448c565b60405162461bcd60e51b815260040161108390615ba2565b806000036144a05760009350505050610d91565b610dcb81865b6001600160a01b0381166144cd5760405163d92e233d60e01b815260040160405180910390fd5b6001600160a01b038116600090815260066020526040812080548492906144f590849061563d565b92505081905550816008600082825461450e919061563d565b90915550506040516001600160a01b03821690600090600080516020615e3b83398151915290613957908690614eca565b60006145496132a5565b9050806000036145565750565b42601554111561456557426017555b61202881306138ac565b6000806000836001600160a01b03166370a08231306040518263ffffffff1660e01b81526004016145a09190614eb6565b602060405180830381865afa1580156145bd573d6000803e3d6000fd5b505050506040513d601f19601f820116820180604052508101906145e191906155aa565b90506000846001600160a01b03166307a2d13a836040518263ffffffff1660e01b81526004016146119190614eca565b602060405180830381865afa15801561462e573d6000803e3d6000fd5b505050506040513d601f19601f8201168201806040525081019061465291906155aa565b6001600160a01b038616600090815260036020526040812060020154919250808284111561468b57614684838561562a565b9150614698565b614695848461562a565b90505b9097909650945050505050565b6146ad614e29565b6146b5614e29565b600d546001600160a01b031615610f2b57600d5460405163921f8a8f60e01b81526001600160a01b039091169063921f8a8f906146fa90889088908890600401615bb2565b60408051808303816000875af1158015614718573d6000803e3d6000fd5b505050506040513d601f19601f8201168201806040525081019061473c9190615bcd565b602083015280825215610f2b5760007f00000000000000000000000000000000000000000000000000000000000000006001600160a01b03166307d3277f6040518163ffffffff1660e01b81526004016040805180830381865afa1580156147a8573d6000803e3d6000fd5b505050506040513d601f19601f820116820180604052508101906147cc9190615c20565b6001600160a01b03166060840152905061ffff811615612576578151612710906147fb9061ffff8416906155e1565b6148059190615616565b604083015250949350505050565b61481b614e5a565b614823614e5a565b600061482f858761563d565b1115610f2b57614849614842858761563d565b6001611f70565b8151829061485890839061563d565b9052508315610f2b5761487561486e848661562a565b6000611f70565b60208201528215610f2b5761488b836000611f70565b6040820152949350505050565b600080600080876020015111156149fd576020870151600d546040516370a0823160e01b81526149a092916142b2916001600160a01b037f00000000000000000000000000000000000000000000000000000000000000008116926370a082319261490a929190911690600401614eb6565b602060405180830381865afa158015614927573d6000803e3d6000fd5b505050506040513d601f19601f8201168201806040525081019061494b91906155aa565b600d54604051636eb1769f60e11b81526001600160a01b037f000000000000000000000000000000000000000000000000000000000000000081169263dd62ed3e926142719291909116903090600401615c53565b60208801819052600d546149e1917f0000000000000000000000000000000000000000000000000000000000000000916001600160a01b0316903090612720565b8660200151600a60008282546149f7919061563d565b90915550505b8515614a4d576001600160a01b03841660009081526003602052604081206002018054889290614a2e90849061563d565b925050819055508560096000828254614a47919061563d565b90915550505b6000876020015187614a5f919061563d565b118015614a6d575060145415155b15614a8e57614a8b876020015187614a85919061563d565b306143f5565b90505b8415614ade576001600160a01b03841660009081526003602052604081206002018054879290614abf90849061562a565b925050819055508460096000828254614ad8919061562a565b90915550505b30600090815260066020526040812054614af990839061562a565b895190915015614b5a578851614b13906142b2848461563d565b808a52614b2090306138ac565b6000614b308a600001518461257f565b9050614b3c818461562a565b8a51909350614b4c90829061562a565b614b56908361562a565b9150505b602089015115614b7f576020890151600d54614b7f91906001600160a01b03166144a6565b604089015115614b9b57614b9b896040015189606001516144a6565b9890975095505050505050565b6000614bb4828461563d565b90508015614c3f576000426015541115614be35742601554614bd6919061562a565b614be090856155e1565b90505b60008260145485614bf491906155e1565b614bfe908461563d565b614c089190615616565b905080614c1a64e8d4a51000856155e1565b614c249190615616565b601655614c31814261563d565b601555505042601755505050565b6000601655505050565b6060610d916001600160a01b03831660145b60606000614c6a8360026155e1565b614c7590600261563d565b6001600160401b03811115614c8c57614c8c614f60565b6040519080825280601f01601f191660200182016040528015614cb6576020820181803683370190505b509050600360fc1b81600081518110614cd157614cd1615650565b60200101906001600160f81b031916908160001a905350600f60fb1b81600181518110614d0057614d00615650565b60200101906001600160f81b031916908160001a9053506000614d248460026155e1565b614d2f90600161563d565b90505b6001811115614da7576f181899199a1a9b1b9c1cb0b131b232b360811b85600f1660108110614d6357614d63615650565b1a60f81b828281518110614d7957614d79615650565b60200101906001600160f81b031916908160001a90535060049490941c93614da081615c61565b9050614d32565b508315610e7c5760405162461bcd60e51b815260040161108390615caa565b828054828255906000526020600020908101928215614e19579160200282015b82811115614e195781546001600160a01b0319166001600160a01b03843516178255602090920191600190910190614de6565b50614e25929150614e7b565b5090565b604051806080016040528060008152602001600081526020016000815260200160006001600160a01b031681525090565b60405180606001604052806000815260200160008152602001600081525090565b5b80821115614e255760008155600101614e7c565b6001600160a01b031690565b6000610d9182614e90565b614eb081614e9c565b82525050565b60208101610d918284614ea7565b80614eb0565b60208101610d918284614ec4565b6001600160e01b031981165b811461202857600080fd5b8035610d9181614ed8565b600060208284031215614f0f57614f0f600080fd5b6000610f2b8484614eef565b801515614eb0565b60208101610d918284614f1b565b80614ee4565b8035610d9181614f31565b614ee481614e9c565b8035610d9181614f42565b601f01601f191690565b634e487b7160e01b600052604160045260246000fd5b614f7f82614f56565b81018181106001600160401b0382111715614f9c57614f9c614f60565b6040525050565b6000614fae60405190565b9050614fba8282614f76565b919050565b60006001600160401b03821115614fd857614fd8614f60565b5060209081020190565b6000614ff5614ff084614fbf565b614fa3565b8381529050602080820190840283018581111561501457615014600080fd5b835b8181101561503857806150298882614f4b565b84525060209283019201615016565b5050509392505050565b600082601f83011261505657615056600080fd5b8135610f2b848260208601614fe2565b600080600080600060a0868803121561508157615081600080fd5b600061508d8888614f37565b955050602061509e88828901614f4b565b94505060406150af88828901614f4b565b93505060606150c088828901614f37565b92505060808601356001600160401b038111156150df576150df600080fd5b6150eb88828901615042565b9150509295509295909350565b60005b838110156151135781810151838201526020016150fb565b50506000910152565b6000615126825190565b80845260208401935061513d8185602086016150f8565b61514681614f56565b9093019392505050565b60208082528101610e7c818461511c565b60006020828403121561517657615176600080fd5b6000610f2b8484614f37565b6000806040838503121561519857615198600080fd5b60006151a48585614f4b565b92505060206151b585828601614f37565b9150509250929050565b6000602082840312156151d4576151d4600080fd5b6000610f2b8484614f4b565b6000806000606084860312156151f8576151f8600080fd5b60006152048686614f4b565b935050602061521586828701614f4b565b925050604061522686828701614f37565b9150509250925092565b6000806040838503121561524657615246600080fd5b60006152528585614f37565b92505060206151b585828601614f4b565b60ff8116614eb0565b60208101610d918284615263565b60008060006060848603121561529257615292600080fd5b600061529e8686614f4b565b93505060206152af86828701614f37565b92505060408401356001600160401b038111156152ce576152ce600080fd5b61522686828701615042565b608081016152e88287614ec4565b6152f56020830186614ec4565b6153026040830185614ec4565b610dcb6060830184614ec4565b6000610d9161532361532084614e90565b90565b614e90565b6000610d918261530f565b6000610d9182615328565b614eb081615333565b60208101610d91828461533e565b60008083601f84011261536a5761536a600080fd5b5081356001600160401b0381111561538457615384600080fd5b60208301915083602082028301111561407857614078600080fd5b600080602083850312156153b5576153b5600080fd5b82356001600160401b038111156153ce576153ce600080fd5b6153da85828601615355565b92509250509250929050565b801515614ee4565b8035610d91816153e6565b60006020828403121561540e5761540e600080fd5b6000610f2b84846153ee565b604081016154288285614ec4565b610e7c6020830184614ec4565b60ff8116614ee4565b8035610d9181615435565b600080600080600080600060e0888a03121561546757615467600080fd5b60006154738a8a614f4b565b97505060206154848a828b01614f4b565b96505060406154958a828b01614f37565b95505060606154a68a828b01614f37565b94505060806154b78a828b0161543e565b93505060a06154c88a828b01614f37565b92505060c06154d98a828b01614f37565b91505092959891949750929550565b600080604083850312156154fe576154fe600080fd5b60006152528585614f4b565b634e487b7160e01b600052602260045260246000fd5b60028104600182168061553457607f821691505b6020821081036155465761554661550a565b50919050565b60208082528101610d9181602f81527f416363657373436f6e74726f6c3a2063616e206f6e6c792072656e6f756e636560208201526e103937b632b9903337b91039b2b63360891b604082015260600190565b8051610d9181614f31565b6000602082840312156155bf576155bf600080fd5b6000610f2b848461559f565b634e487b7160e01b600052601160045260246000fd5b60008160001904831182151516156155fb576155fb6155cb565b500290565b634e487b7160e01b600052601260045260246000fd5b60008261562557615625615600565b500490565b81810381811115610d9157610d916155cb565b80820180821115610d9157610d916155cb565b634e487b7160e01b600052603260045260246000fd5b60006000198203615679576156796155cb565b5060010190565b600061568c8383614ea7565b505060200190565b6000610e7c6020840184614f4b565b8183526000602084019350818060005b858110156156e0576156c58284615694565b6156cf8882615680565b9750602083019250506001016156b3565b509495945050505050565b60208082528101610f2b8184866156a3565b80825b600185111561573c5780860481111561571b5761571b6155cb565b600185161561572957908102905b80026157358560011c90565b9450615700565b94509492505050565b60008261575457506001610e7c565b8161576157506000610e7c565b81600181146157775760028114615781576157ae565b6001915050610e7c565b60ff841115615792576157926155cb565b8360020a9150848211156157a8576157a86155cb565b50610e7c565b5060208310610133831016604e8410600b84101617156157e1575081810a838111156157dc576157dc6155cb565b610e7c565b6157ee84848460016156fd565b92509050818404811115615804576158046155cb565b0292915050565b6000610e7c6000198484615745565b634e487b7160e01b600052602160045260246000fd5b6000610d916153208381565b614eb081615830565b60208101610d91828461583c565b601f81526000602082017f5265656e7472616e637947756172643a207265656e7472616e742063616c6c00815291505b5060200190565b60208082528101610d9181615853565b6000826158a9576158a9615600565b500690565b604081016158bc8285614ea7565b610e7c6020830184614f1b565b60006158d3825190565b80845260209384019383018060005b838110156156e05781516158f68882615680565b9750602083019250506001016158e2565b606081016159158286614ea7565b6159226020830185614ec4565b8181036040830152610dcb81846158c9565b606081016159428286614ea7565b61594f6020830185614ea7565b610f2b6040830184614ec4565b8051610d91816153e6565b60006020828403121561597c5761597c600080fd5b6000610f2b848461595c565b600f81526000602082016e1d1c985b9cd9995c8819985a5b1959608a1b81529150615883565b60208082528101610d9181615988565b604081016154288285614ea7565b604081016159da8285614ec4565b610e7c6020830184614ea7565b60c081016159f58289614ec4565b615a026020830188614ec4565b615a0f6040830187614ec4565b615a1c6060830186614ec4565b615a296080830185614ec4565b611a3a60a0830184614ec4565b60c08101615a448289614ec4565b615a516020830188614ea7565b615a0f6040830187614ea7565b61190160f01b81526002016000615a758285614ec4565b602082019150615a858284614ec4565b5060200192915050565b60808101615a9d8287614ec4565b6152f56020830186615263565b6000615ab4825190565b615ac28185602086016150f8565b9290920192915050565b76020b1b1b2b9b9a1b7b73a3937b61d1030b1b1b7bab73a1604d1b81526017016000615af88285615aaa565b7001034b99036b4b9b9b4b733903937b6329607d1b81526011019150610f2b8284615aaa565b60608101615b2c8286614ec4565b615b396020830185614ea7565b610f2b6040830184614ea7565b600f81526000602082016e185c1c1c9bdd985b0819985a5b1959608a1b81529150615883565b60208082528101610d9181615b46565b600f81526000602082016e0c2dadeeadce840e8dede40d0d2ced608b1b81529150615883565b60208082528101610d9181615b7c565b60608101615bc08286614ea7565b61594f6020830185614ec4565b60008060408385031215615be357615be3600080fd5b6000615bef858561559f565b92505060206151b58582860161559f565b61ffff8116614ee4565b8051610d9181615c00565b8051610d9181614f42565b60008060408385031215615c3657615c36600080fd5b6000615c428585615c0a565b92505060206151b585828601615c15565b604081016159da8285614ea7565b600081615c7057615c706155cb565b506000190190565b60208082527f537472696e67733a20686578206c656e67746820696e73756666696369656e7491019081526000615883565b60208082528101610d9181615c7856fe152ebba56b9738ee3d8baea1b76fa31dcdcd79b1929bfea7d58ee12cfdf1a653cd9f023a942ee35097ead74b2505bea9f2c5d47465db92dd195cf7f01a41cfe1633076a97f32ae349b28772e7b1483f67a926f150cbc501d02bdbd77389325abc723f4dd6268e1c374639e36d629c765285ee7003913389d582c300f186dde97777d215db24fb9fee4ded85c66b422abd7162a1caa6ed3ec4c031f6cd29ada52d45f7ccff42f059d4e47c3f027c444272257266f7e88b981e142f0aa38fbfd78ea672c1c09cd95c51af9509f646f3615ff0071aae8652bd821471ee9037fd72c862f91c9d89d6135b19873b921c90b702cb2e175c371b8430026b9577e691119ae565aab888bca5e19e25a13db7b0c9144305bf55cb0f3f4d724f730e5acdd622a0e761830cc61f2707ea7bb138008bf9dda7f7d34c77736d0a116604e95ea16f206625bad3d9112d5609b8d356e6fbd514cd1f69980d4ce2b3e6e68e1789ace7cbb3cdf689b8ea3e9d265f66bc4e0a99069268217017d38d2a5a559abc62719ddf252ad1be2c89b69c2b068fc378daa952ba7f163c4a11628f55a4df523b3ef6e71edae12b1b97f4d1f60370fef10105fa2faae0126114a169c64845d6126c98c5be1e5ebec7d5bd14f71427d1e84f3dd0314c0f7b2291e5b200ac8c7c3b9256f430d649a8640e48ff9bfbc353b3f99ed630163857821b3b4075e3871dafbf5900d80def0427daac599092fcb16b21808ec68dd9a2e1eae89d1e8db21357375a18eaea71a088b547b8c932b48861853b3434d9a3240b94466c607e28b696595dcbc1c05240f31ff3ad067ef1ee35ce4997762752e3a095284754544f4c709d75e2b8821ad6e0e26207e0cb4d242d07eeb1cbb1cfd853e645bdcd27cc5484f952f0dbbe8c2c0170206c50ec0cafa1c0dbd03e73e67c2a960178df30a0a30ee2e69d1171ac0a63777a6733cda21aec9ed3d48a4fd11f273c934a691dec5e5589ca2646970667358221220dcd930a98a726b092ec8b55124692becb7843441f6c97e5458c8f7ec55338fbc64736f6c63430008100033","opcodes":"PUSH2 0x100 PUSH1 0x40 MSTORE PUSH4 0x1E18558 PUSH1 0xE0 MSTORE CALLVALUE DUP1 ISZERO PUSH3 0x1A JUMPI PUSH1 0x0 DUP1 REVERT JUMPDEST POP PUSH1 0x40 MLOAD PUSH3 0x6761 CODESIZE SUB DUP1 PUSH3 0x6761 DUP4 CODECOPY DUP2 ADD PUSH1 0x40 DUP2 SWAP1 MSTORE PUSH3 0x3D SWAP2 PUSH3 0x3A9 JUMP JUMPDEST PUSH1 0x1 DUP1 SSTORE PUSH1 0x1 PUSH1 0x1 PUSH1 0xA0 SHL SUB DUP7 AND PUSH1 0x80 DUP2 SWAP1 MSTORE PUSH1 0x40 DUP1 MLOAD PUSH4 0x313CE567 PUSH1 0xE0 SHL DUP2 MSTORE SWAP1 MLOAD PUSH4 0x313CE567 SWAP2 PUSH1 0x4 DUP1 DUP3 ADD SWAP3 PUSH1 0x20 SWAP3 SWAP1 SWAP2 SWAP1 DUP3 SWAP1 SUB ADD DUP2 DUP7 GAS STATICCALL ISZERO DUP1 ISZERO PUSH3 0x8C JUMPI RETURNDATASIZE PUSH1 0x0 DUP1 RETURNDATACOPY RETURNDATASIZE PUSH1 0x0 REVERT JUMPDEST POP POP POP POP PUSH1 0x40 MLOAD RETURNDATASIZE PUSH1 0x1F NOT PUSH1 0x1F DUP3 ADD AND DUP3 ADD DUP1 PUSH1 0x40 MSTORE POP DUP2 ADD SWAP1 PUSH3 0xB2 SWAP2 SWAP1 PUSH3 0x490 JUMP JUMPDEST PUSH1 0xFF AND PUSH1 0xA0 DUP2 SWAP1 MSTORE PUSH2 0x100 GT PUSH3 0xDC JUMPI PUSH1 0x40 MLOAD PUSH4 0xE2364765 PUSH1 0xE0 SHL DUP2 MSTORE PUSH1 0x4 ADD PUSH1 0x40 MLOAD DUP1 SWAP2 SUB SWAP1 REVERT JUMPDEST CALLER PUSH1 0xC0 MSTORE PUSH4 0x1E18558 DUP3 GT ISZERO PUSH3 0x106 JUMPI PUSH1 0x40 MLOAD PUSH4 0xFDFBB0B7 PUSH1 0xE0 SHL DUP2 MSTORE PUSH1 0x4 ADD PUSH1 0x40 MLOAD DUP1 SWAP2 SUB SWAP1 REVERT JUMPDEST PUSH1 0x14 DUP3 SWAP1 SSTORE PUSH1 0x1A PUSH3 0x119 DUP7 DUP3 PUSH3 0x5B2 JUMP JUMPDEST POP PUSH1 0x1B PUSH3 0x128 DUP6 DUP3 PUSH3 0x5B2 JUMP JUMPDEST POP PUSH1 0x12 DUP1 SLOAD PUSH1 0x1 PUSH1 0x1 PUSH1 0xA0 SHL SUB NOT AND PUSH1 0x1 PUSH1 0x1 PUSH1 0xA0 SHL SUB DUP6 AND OR SWAP1 SSTORE DUP5 MLOAD PUSH1 0x20 DUP1 DUP8 ADD SWAP2 SWAP1 SWAP2 KECCAK256 PUSH1 0x40 DUP1 MLOAD DUP1 DUP3 ADD DUP3 MSTORE PUSH1 0x5 DUP2 MSTORE PUSH5 0x312E302E3 PUSH1 0xDC SHL SWAP1 DUP5 ADD MSTORE MLOAD PUSH3 0x1BF SWAP3 PUSH32 0x8B73C3C69BB8FE3D512ECC4CF759CC79239F7B179B0FFACAA9A75D522B39400F SWAP3 SWAP2 PUSH32 0x6C015BD22B4C69690933C1058878EBDFEF31F9AAAE40BBE86D8A09FE1B2972C SWAP2 CHAINID SWAP2 ADDRESS SWAP2 ADD PUSH3 0x695 JUMP JUMPDEST PUSH1 0x40 DUP1 MLOAD DUP1 DUP4 SUB PUSH1 0x1F NOT ADD DUP2 MSTORE SWAP2 SWAP1 MSTORE DUP1 MLOAD PUSH1 0x20 SWAP1 SWAP2 ADD KECCAK256 PUSH1 0x19 SSTORE PUSH1 0x2 DUP1 SLOAD PUSH1 0x1 PUSH1 0x1 PUSH1 0xA0 SHL SUB NOT AND PUSH1 0x1 PUSH1 0x1 PUSH1 0xA0 SHL SUB SWAP3 SWAP1 SWAP3 AND SWAP2 SWAP1 SWAP2 OR SWAP1 SSTORE POP PUSH3 0x6EB SWAP4 POP POP POP POP JUMP JUMPDEST PUSH1 0x0 PUSH1 0x1 PUSH1 0x1 PUSH1 0xA0 SHL SUB DUP3 AND JUMPDEST SWAP3 SWAP2 POP POP JUMP JUMPDEST PUSH1 0x0 PUSH3 0x213 DUP3 PUSH3 0x206 JUMP JUMPDEST PUSH3 0x231 DUP2 PUSH3 0x219 JUMP JUMPDEST DUP2 EQ PUSH3 0x23D JUMPI PUSH1 0x0 DUP1 REVERT JUMPDEST POP JUMP JUMPDEST DUP1 MLOAD PUSH3 0x213 DUP2 PUSH3 0x226 JUMP JUMPDEST PUSH4 0x4E487B71 PUSH1 0xE0 SHL PUSH1 0x0 MSTORE PUSH1 0x41 PUSH1 0x4 MSTORE PUSH1 0x24 PUSH1 0x0 REVERT JUMPDEST PUSH1 0x1F NOT PUSH1 0x1F DUP4 ADD AND DUP2 ADD DUP2 DUP2 LT PUSH1 0x1 PUSH1 0x1 PUSH1 0x40 SHL SUB DUP3 GT OR ISZERO PUSH3 0x28B JUMPI PUSH3 0x28B PUSH3 0x24D JUMP JUMPDEST PUSH1 0x40 MSTORE POP POP JUMP JUMPDEST PUSH1 0x0 PUSH3 0x29E PUSH1 0x40 MLOAD SWAP1 JUMP JUMPDEST SWAP1 POP PUSH3 0x2AC DUP3 DUP3 PUSH3 0x263 JUMP JUMPDEST SWAP2 SWAP1 POP JUMP JUMPDEST PUSH1 0x0 PUSH1 0x1 PUSH1 0x1 PUSH1 0x40 SHL SUB DUP3 GT ISZERO PUSH3 0x2CD JUMPI PUSH3 0x2CD PUSH3 0x24D JUMP JUMPDEST PUSH1 0x1F NOT PUSH1 0x1F DUP4 ADD AND PUSH1 0x20 ADD SWAP3 SWAP2 POP POP JUMP JUMPDEST PUSH1 0x0 JUMPDEST DUP4 DUP2 LT ISZERO PUSH3 0x2FB JUMPI DUP2 DUP2 ADD MLOAD DUP4 DUP3 ADD MSTORE PUSH1 0x20 ADD PUSH3 0x2E1 JUMP JUMPDEST POP POP PUSH1 0x0 SWAP2 ADD MSTORE JUMP JUMPDEST PUSH1 0x0 PUSH3 0x31B PUSH3 0x315 DUP5 PUSH3 0x2B1 JUMP JUMPDEST PUSH3 0x292 JUMP JUMPDEST SWAP1 POP DUP3 DUP2 MSTORE PUSH1 0x20 DUP2 ADD DUP5 DUP5 DUP5 ADD GT ISZERO PUSH3 0x338 JUMPI PUSH3 0x338 PUSH1 0x0 DUP1 REVERT JUMPDEST PUSH3 0x345 DUP5 DUP3 DUP6 PUSH3 0x2DE JUMP JUMPDEST POP SWAP4 SWAP3 POP POP POP JUMP JUMPDEST PUSH1 0x0 DUP3 PUSH1 0x1F DUP4 ADD SLT PUSH3 0x363 JUMPI PUSH3 0x363 PUSH1 0x0 DUP1 REVERT JUMPDEST DUP2 MLOAD PUSH3 0x375 DUP5 DUP3 PUSH1 0x20 DUP7 ADD PUSH3 0x304 JUMP JUMPDEST SWAP5 SWAP4 POP POP POP POP JUMP JUMPDEST PUSH3 0x231 DUP2 PUSH3 0x206 JUMP JUMPDEST DUP1 MLOAD PUSH3 0x213 DUP2 PUSH3 0x37D JUMP JUMPDEST DUP1 PUSH3 0x231 JUMP JUMPDEST DUP1 MLOAD PUSH3 0x213 DUP2 PUSH3 0x395 JUMP JUMPDEST PUSH1 0x0 DUP1 PUSH1 0x0 DUP1 PUSH1 0x0 DUP1 PUSH1 0xC0 DUP8 DUP10 SUB SLT ISZERO PUSH3 0x3C7 JUMPI PUSH3 0x3C7 PUSH1 0x0 DUP1 REVERT JUMPDEST PUSH1 0x0 PUSH3 0x3D5 DUP10 DUP10 PUSH3 0x240 JUMP JUMPDEST SWAP7 POP POP PUSH1 0x20 DUP8 ADD MLOAD PUSH1 0x1 PUSH1 0x1 PUSH1 0x40 SHL SUB DUP2 GT ISZERO PUSH3 0x3F6 JUMPI PUSH3 0x3F6 PUSH1 0x0 DUP1 REVERT JUMPDEST PUSH3 0x404 DUP10 DUP3 DUP11 ADD PUSH3 0x34D JUMP JUMPDEST SWAP6 POP POP PUSH1 0x40 DUP8 ADD MLOAD PUSH1 0x1 PUSH1 0x1 PUSH1 0x40 SHL SUB DUP2 GT ISZERO PUSH3 0x425 JUMPI PUSH3 0x425 PUSH1 0x0 DUP1 REVERT JUMPDEST PUSH3 0x433 DUP10 DUP3 DUP11 ADD PUSH3 0x34D JUMP JUMPDEST SWAP5 POP POP PUSH1 0x60 PUSH3 0x446 DUP10 DUP3 DUP11 ADD PUSH3 0x388 JUMP JUMPDEST SWAP4 POP POP PUSH1 0x80 PUSH3 0x459 DUP10 DUP3 DUP11 ADD PUSH3 0x39C JUMP JUMPDEST SWAP3 POP POP PUSH1 0xA0 PUSH3 0x46C DUP10 DUP3 DUP11 ADD PUSH3 0x388 JUMP JUMPDEST SWAP2 POP POP SWAP3 SWAP6 POP SWAP3 SWAP6 POP SWAP3 SWAP6 JUMP JUMPDEST PUSH1 0xFF DUP2 AND PUSH3 0x231 JUMP JUMPDEST DUP1 MLOAD PUSH3 0x213 DUP2 PUSH3 0x479 JUMP JUMPDEST PUSH1 0x0 PUSH1 0x20 DUP3 DUP5 SUB SLT ISZERO PUSH3 0x4A7 JUMPI PUSH3 0x4A7 PUSH1 0x0 DUP1 REVERT JUMPDEST PUSH1 0x0 PUSH3 0x375 DUP5 DUP5 PUSH3 0x483 JUMP JUMPDEST PUSH4 0x4E487B71 PUSH1 0xE0 SHL PUSH1 0x0 MSTORE PUSH1 0x22 PUSH1 0x4 MSTORE PUSH1 0x24 PUSH1 0x0 REVERT JUMPDEST PUSH1 0x2 DUP2 DIV PUSH1 0x1 DUP3 AND DUP1 PUSH3 0x4E0 JUMPI PUSH1 0x7F DUP3 AND SWAP2 POP JUMPDEST PUSH1 0x20 DUP3 LT DUP2 SUB PUSH3 0x4F5 JUMPI PUSH3 0x4F5 PUSH3 0x4B5 JUMP JUMPDEST POP SWAP2 SWAP1 POP JUMP JUMPDEST PUSH1 0x0 PUSH3 0x213 PUSH3 0x509 DUP4 DUP2 JUMP JUMPDEST SWAP1 JUMP JUMPDEST PUSH3 0x517 DUP4 PUSH3 0x4FB JUMP JUMPDEST DUP2 SLOAD PUSH1 0x8 DUP5 MUL DUP3 DUP2 SHL PUSH1 0x0 NOT SWAP1 SWAP2 SHL SWAP1 DUP2 AND SWAP1 NOT SWAP1 SWAP2 AND OR DUP3 SSTORE POP POP POP POP JUMP JUMPDEST PUSH1 0x0 PUSH3 0x546 DUP2 DUP5 DUP5 PUSH3 0x50C JUMP JUMPDEST POP POP POP JUMP JUMPDEST DUP2 DUP2 LT ISZERO PUSH3 0x56A JUMPI PUSH3 0x561 PUSH1 0x0 DUP3 PUSH3 0x537 JUMP JUMPDEST PUSH1 0x1 ADD PUSH3 0x54B JUMP JUMPDEST POP POP JUMP JUMPDEST PUSH1 0x1F DUP3 GT ISZERO PUSH3 0x546 JUMPI PUSH1 0x0 DUP2 DUP2 MSTORE PUSH1 0x20 SWAP1 KECCAK256 PUSH1 0x20 PUSH1 0x1F DUP6 ADD DIV DUP2 ADD PUSH1 0x20 DUP6 LT ISZERO PUSH3 0x597 JUMPI POP DUP1 JUMPDEST PUSH3 0x5AB PUSH1 0x20 PUSH1 0x1F DUP7 ADD DIV DUP4 ADD DUP3 PUSH3 0x54B JUMP JUMPDEST POP POP POP POP POP JUMP JUMPDEST DUP2 MLOAD PUSH1 0x1 PUSH1 0x1 PUSH1 0x40 SHL SUB DUP2 GT ISZERO PUSH3 0x5CE JUMPI PUSH3 0x5CE PUSH3 0x24D JUMP JUMPDEST PUSH3 0x5DA DUP3 SLOAD PUSH3 0x4CB JUMP JUMPDEST PUSH3 0x5E7 DUP3 DUP3 DUP6 PUSH3 0x56E JUMP JUMPDEST PUSH1 0x20 PUSH1 0x1F DUP4 GT PUSH1 0x1 DUP2 EQ PUSH3 0x61E JUMPI PUSH1 0x0 DUP5 ISZERO PUSH3 0x605 JUMPI POP DUP6 DUP3 ADD MLOAD JUMPDEST PUSH1 0x0 NOT PUSH1 0x8 DUP7 MUL SHR NOT DUP2 AND PUSH1 0x2 DUP7 MUL OR DUP7 SSTORE POP PUSH3 0x67A JUMP JUMPDEST PUSH1 0x0 DUP6 DUP2 MSTORE PUSH1 0x20 DUP2 KECCAK256 PUSH1 0x1F NOT DUP7 AND SWAP2 JUMPDEST DUP3 DUP2 LT ISZERO PUSH3 0x650 JUMPI DUP9 DUP6 ADD MLOAD DUP3 SSTORE PUSH1 0x20 SWAP5 DUP6 ADD SWAP5 PUSH1 0x1 SWAP1 SWAP3 ADD SWAP2 ADD PUSH3 0x62E JUMP JUMPDEST DUP7 DUP4 LT ISZERO PUSH3 0x66D JUMPI DUP5 DUP10 ADD MLOAD PUSH1 0x0 NOT PUSH1 0x1F DUP10 AND PUSH1 0x8 MUL SHR NOT AND DUP3 SSTORE JUMPDEST PUSH1 0x1 PUSH1 0x2 DUP9 MUL ADD DUP9 SSTORE POP POP POP JUMPDEST POP POP POP POP POP POP JUMP JUMPDEST DUP1 JUMPDEST DUP3 MSTORE POP POP JUMP JUMPDEST PUSH3 0x684 DUP2 PUSH3 0x206 JUMP JUMPDEST PUSH1 0xA0 DUP2 ADD PUSH3 0x6A5 DUP3 DUP9 PUSH3 0x682 JUMP JUMPDEST PUSH3 0x6B4 PUSH1 0x20 DUP4 ADD DUP8 PUSH3 0x682 JUMP JUMPDEST PUSH3 0x6C3 PUSH1 0x40 DUP4 ADD DUP7 PUSH3 0x682 JUMP JUMPDEST PUSH3 0x6D2 PUSH1 0x60 DUP4 ADD DUP6 PUSH3 0x682 JUMP JUMPDEST PUSH3 0x6E1 PUSH1 0x80 DUP4 ADD DUP5 PUSH3 0x68A JUMP JUMPDEST SWAP7 SWAP6 POP POP POP POP POP POP JUMP JUMPDEST PUSH1 0x80 MLOAD PUSH1 0xA0 MLOAD PUSH1 0xC0 MLOAD PUSH1 0xE0 MLOAD PUSH2 0x5FB0 PUSH3 0x7B1 PUSH1 0x0 CODECOPY PUSH1 0x0 DUP2 DUP2 PUSH2 0x5E2 ADD MSTORE PUSH2 0x1AEF ADD MSTORE PUSH1 0x0 DUP2 DUP2 PUSH2 0x666 ADD MSTORE PUSH2 0x474D ADD MSTORE PUSH1 0x0 DUP2 DUP2 PUSH2 0x68D ADD MSTORE DUP2 DUP2 PUSH2 0x6C4 ADD MSTORE PUSH2 0x1799 ADD MSTORE PUSH1 0x0 DUP2 DUP2 PUSH2 0x72D ADD MSTORE DUP2 DUP2 PUSH2 0x7FA ADD MSTORE DUP2 DUP2 PUSH2 0x1204 ADD MSTORE DUP2 DUP2 PUSH2 0x2AB9 ADD MSTORE DUP2 DUP2 PUSH2 0x2B55 ADD MSTORE DUP2 DUP2 PUSH2 0x2D70 ADD MSTORE DUP2 DUP2 PUSH2 0x2DB0 ADD MSTORE DUP2 DUP2 PUSH2 0x2EB5 ADD MSTORE DUP2 DUP2 PUSH2 0x2F32 ADD MSTORE DUP2 DUP2 PUSH2 0x31BF ADD MSTORE DUP2 DUP2 PUSH2 0x3384 ADD MSTORE DUP2 DUP2 PUSH2 0x3A5A ADD MSTORE DUP2 DUP2 PUSH2 0x3E66 ADD MSTORE DUP2 DUP2 PUSH2 0x40F0 ADD MSTORE DUP2 DUP2 PUSH2 0x48D1 ADD MSTORE DUP2 DUP2 PUSH2 0x4965 ADD MSTORE PUSH2 0x49B0 ADD MSTORE PUSH2 0x5FB0 PUSH1 0x0 RETURN INVALID PUSH1 0x80 PUSH1 0x40 MSTORE CALLVALUE DUP1 ISZERO PUSH2 0x10 JUMPI PUSH1 0x0 DUP1 REVERT JUMPDEST POP PUSH1 0x4 CALLDATASIZE LT PUSH2 0x4C8 JUMPI PUSH1 0x0 CALLDATALOAD PUSH1 0xE0 SHR DUP1 PUSH4 0x6D020808 GT PUSH2 0x281 JUMPI DUP1 PUSH4 0x6D020808 EQ PUSH2 0x956 JUMPI DUP1 PUSH4 0x6E553F65 EQ PUSH2 0x95E JUMPI DUP1 PUSH4 0x70A08231 EQ PUSH2 0x971 JUMPI DUP1 PUSH4 0x77E3B267 EQ PUSH2 0x984 JUMPI DUP1 PUSH4 0x7ECEBE00 EQ PUSH2 0x9A8 JUMPI DUP1 PUSH4 0x8212FD43 EQ PUSH2 0x9C8 JUMPI DUP1 PUSH4 0x8AFCA8F0 EQ PUSH2 0x9DB JUMPI DUP1 PUSH4 0x91986003 EQ PUSH2 0x9E4 JUMPI DUP1 PUSH4 0x91D14854 EQ PUSH2 0x9F7 JUMPI DUP1 PUSH4 0x94BF804D EQ PUSH2 0xA0A JUMPI DUP1 PUSH4 0x95D89B41 EQ PUSH2 0xA1D JUMPI DUP1 PUSH4 0x99374642 EQ PUSH2 0xA25 JUMPI DUP1 PUSH4 0x99530B06 EQ PUSH2 0xA45 JUMPI DUP1 PUSH4 0x9BBCA884 EQ PUSH2 0xA4D JUMPI DUP1 PUSH4 0x9E34E348 EQ PUSH2 0xA60 JUMPI DUP1 PUSH4 0x9F3988F3 EQ PUSH2 0xA73 JUMPI DUP1 PUSH4 0xA217FDDF EQ PUSH2 0xA88 JUMPI DUP1 PUSH4 0xA457C2D7 EQ PUSH2 0xA90 JUMPI DUP1 PUSH4 0xA73F7F8A EQ PUSH2 0xAA3 JUMPI DUP1 PUSH4 0xA9059CBB EQ PUSH2 0xAB6 JUMPI DUP1 PUSH4 0xA98222C4 EQ PUSH2 0xAC9 JUMPI DUP1 PUSH4 0xAB5B4D49 EQ PUSH2 0xADE JUMPI DUP1 PUSH4 0xB3C187F2 EQ PUSH2 0xAF3 JUMPI DUP1 PUSH4 0xB3D7F6B9 EQ PUSH2 0xB06 JUMPI DUP1 PUSH4 0xB6CC2D1F EQ PUSH2 0xB19 JUMPI DUP1 PUSH4 0xBB994D48 EQ PUSH2 0xB3A JUMPI DUP1 PUSH4 0xBBE4EB49 EQ PUSH2 0xB4D JUMPI DUP1 PUSH4 0xBDC8144B EQ PUSH2 0xB5A JUMPI DUP1 PUSH4 0xC065CA07 EQ PUSH2 0xB6D JUMPI DUP1 PUSH4 0xC0993EEA EQ PUSH2 0xB82 JUMPI DUP1 PUSH4 0xC63D75B6 EQ PUSH2 0xBA9 JUMPI DUP1 PUSH4 0xC6E6F592 EQ PUSH2 0xBBC JUMPI DUP1 PUSH4 0xC8D74B60 EQ PUSH2 0xBCF JUMPI DUP1 PUSH4 0xC8DFFA95 EQ PUSH2 0xBE4 JUMPI DUP1 PUSH4 0xC9A16EA4 EQ PUSH2 0xBED JUMPI DUP1 PUSH4 0xD4AE064F EQ PUSH2 0xC00 JUMPI DUP1 PUSH4 0xD505ACCF EQ PUSH2 0xC15 JUMPI DUP1 PUSH4 0xD538E904 EQ PUSH2 0xC28 JUMPI DUP1 PUSH4 0xD547741F EQ PUSH2 0xC3B JUMPI DUP1 PUSH4 0xD81A09F6 EQ PUSH2 0xC4E JUMPI DUP1 PUSH4 0xD9A0E97A EQ PUSH2 0xC61 JUMPI DUP1 PUSH4 0xDD62ED3E EQ PUSH2 0xC69 JUMPI DUP1 PUSH4 0xDF69B22A EQ PUSH2 0xCA2 JUMPI DUP1 PUSH4 0xE5236CC9 EQ PUSH2 0xCB5 JUMPI DUP1 PUSH4 0xECF70858 EQ PUSH2 0xCBD JUMPI DUP1 PUSH4 0xEF8B30F7 EQ PUSH2 0xBBC JUMPI DUP1 PUSH4 0xF1DAEBA8 EQ PUSH2 0xCC6 JUMPI DUP1 PUSH4 0xF5B944EB EQ PUSH2 0xCDB JUMPI DUP1 PUSH4 0xF6D7BFA0 EQ PUSH2 0xCF0 JUMPI DUP1 PUSH4 0xF828F50B EQ PUSH2 0xD03 JUMPI DUP1 PUSH4 0xFC0E74D1 EQ PUSH2 0xD0C JUMPI DUP1 PUSH4 0xFD967F47 EQ PUSH2 0xD20 JUMPI DUP1 PUSH4 0xFEC61F06 EQ PUSH2 0xD29 JUMPI DUP1 PUSH4 0xFF1E7F08 EQ PUSH2 0xD3E JUMPI PUSH1 0x0 DUP1 REVERT JUMPDEST DUP1 PUSH3 0x435DA5 EQ PUSH2 0x4CD JUMPI DUP1 PUSH4 0x1E1D114 EQ PUSH2 0x4F6 JUMPI DUP1 PUSH4 0x1FFC9A7 EQ PUSH2 0x50B JUMPI DUP1 PUSH4 0x3DCD12C EQ PUSH2 0x52B JUMPI DUP1 PUSH4 0x6580F2D EQ PUSH2 0x540 JUMPI DUP1 PUSH4 0x6FDDE03 EQ PUSH2 0x553 JUMPI DUP1 PUSH4 0x7A2D13A EQ PUSH2 0x568 JUMPI DUP1 PUSH4 0x835A3FC EQ PUSH2 0x57B JUMPI DUP1 PUSH4 0x952864E EQ PUSH2 0x584 JUMPI DUP1 PUSH4 0x95EA7B3 EQ PUSH2 0x58D JUMPI DUP1 PUSH4 0xA28A477 EQ PUSH2 0x5A0 JUMPI DUP1 PUSH4 0xAD283D0 EQ PUSH2 0x5B3 JUMPI DUP1 PUSH4 0x16B87AC0 EQ PUSH2 0x5C8 JUMPI DUP1 PUSH4 0x16D3BFBB EQ PUSH2 0x5DD JUMPI DUP1 PUSH4 0x18160DDD EQ PUSH2 0x604 JUMPI DUP1 PUSH4 0x223E5479 EQ PUSH2 0x60C JUMPI DUP1 PUSH4 0x23B872DD EQ PUSH2 0x61F JUMPI DUP1 PUSH4 0x248A9CA3 EQ PUSH2 0x632 JUMPI DUP1 PUSH4 0x2D632692 EQ PUSH2 0x645 JUMPI DUP1 PUSH4 0x2D772168 EQ PUSH2 0x64E JUMPI DUP1 PUSH4 0x2DD31000 EQ PUSH2 0x661 JUMPI DUP1 PUSH4 0x2E0F2625 EQ PUSH2 0x688 JUMPI DUP1 PUSH4 0x2F2FF15D EQ PUSH2 0x6AF JUMPI DUP1 PUSH4 0x313CE567 EQ PUSH2 0x6C2 JUMPI DUP1 PUSH4 0x34B5FAB6 EQ PUSH2 0x6F0 JUMPI DUP1 PUSH4 0x3644E515 EQ PUSH2 0x703 JUMPI DUP1 PUSH4 0x36568ABE EQ PUSH2 0x70C JUMPI DUP1 PUSH4 0x36FBA084 EQ PUSH2 0x71F JUMPI DUP1 PUSH4 0x38D52E0F EQ PUSH2 0x72B JUMPI DUP1 PUSH4 0x39509351 EQ PUSH2 0x751 JUMPI DUP1 PUSH4 0x39EBF823 EQ PUSH2 0x764 JUMPI DUP1 PUSH4 0x3CD7B5AB EQ PUSH2 0x7AB JUMPI DUP1 PUSH4 0x3F7B5E40 EQ PUSH2 0x7B4 JUMPI DUP1 PUSH4 0x402D267D EQ PUSH2 0x7BC JUMPI DUP1 PUSH4 0x405977E7 EQ PUSH2 0x7CF JUMPI DUP1 PUSH4 0x46E6AC49 EQ PUSH2 0x7E2 JUMPI DUP1 PUSH4 0x4800D97F EQ PUSH2 0x7F5 JUMPI DUP1 PUSH4 0x48EA7127 EQ PUSH2 0x829 JUMPI DUP1 PUSH4 0x4BBD71E9 EQ PUSH2 0x83C JUMPI DUP1 PUSH4 0x4CDAD506 EQ PUSH2 0x568 JUMPI DUP1 PUSH4 0x4CE1D38A EQ PUSH2 0x84F JUMPI DUP1 PUSH4 0x4CFE51DC EQ PUSH2 0x864 JUMPI DUP1 PUSH4 0x4D4BB197 EQ PUSH2 0x879 JUMPI DUP1 PUSH4 0x4FB3CCC5 EQ PUSH2 0x88E JUMPI DUP1 PUSH4 0x5141EEBB EQ PUSH2 0x8A1 JUMPI DUP1 PUSH4 0x53A66132 EQ PUSH2 0x8AA JUMPI DUP1 PUSH4 0x5A569099 EQ PUSH2 0x8CD JUMPI DUP1 PUSH4 0x5BF6B4FB EQ PUSH2 0x8E0 JUMPI DUP1 PUSH4 0x629B9142 EQ PUSH2 0x8F5 JUMPI DUP1 PUSH4 0x633F228C EQ PUSH2 0x908 JUMPI DUP1 PUSH4 0x652DA324 EQ PUSH2 0x91B JUMPI DUP1 PUSH4 0x65CB6765 EQ PUSH2 0x930 JUMPI DUP1 PUSH4 0x6853920E EQ PUSH2 0x943 JUMPI JUMPDEST PUSH1 0x0 DUP1 REVERT JUMPDEST PUSH1 0x12 SLOAD PUSH2 0x4E0 SWAP1 PUSH1 0x1 PUSH1 0x1 PUSH1 0xA0 SHL SUB AND DUP2 JUMP JUMPDEST PUSH1 0x40 MLOAD PUSH2 0x4ED SWAP2 SWAP1 PUSH2 0x4EB6 JUMP JUMPDEST PUSH1 0x40 MLOAD DUP1 SWAP2 SUB SWAP1 RETURN JUMPDEST PUSH2 0x4FE PUSH2 0xD51 JUMP JUMPDEST PUSH1 0x40 MLOAD PUSH2 0x4ED SWAP2 SWAP1 PUSH2 0x4ECA JUMP JUMPDEST PUSH2 0x51E PUSH2 0x519 CALLDATASIZE PUSH1 0x4 PUSH2 0x4EFA JUMP JUMPDEST PUSH2 0xD60 JUMP JUMPDEST PUSH1 0x40 MLOAD PUSH2 0x4ED SWAP2 SWAP1 PUSH2 0x4F23 JUMP JUMPDEST PUSH2 0x4FE PUSH1 0x0 DUP1 MLOAD PUSH1 0x20 PUSH2 0x5CFB DUP4 CODECOPY DUP2 MLOAD SWAP2 MSTORE DUP2 JUMP JUMPDEST PUSH2 0x4FE PUSH2 0x54E CALLDATASIZE PUSH1 0x4 PUSH2 0x5066 JUMP JUMPDEST PUSH2 0xD97 JUMP JUMPDEST PUSH2 0x55B PUSH2 0xDD4 JUMP JUMPDEST PUSH1 0x40 MLOAD PUSH2 0x4ED SWAP2 SWAP1 PUSH2 0x5150 JUMP JUMPDEST PUSH2 0x4FE PUSH2 0x576 CALLDATASIZE PUSH1 0x4 PUSH2 0x5161 JUMP JUMPDEST PUSH2 0xE62 JUMP JUMPDEST PUSH2 0x4FE PUSH1 0xB SLOAD DUP2 JUMP JUMPDEST PUSH2 0x4FE PUSH1 0x14 SLOAD DUP2 JUMP JUMPDEST PUSH2 0x51E PUSH2 0x59B CALLDATASIZE PUSH1 0x4 PUSH2 0x5182 JUMP JUMPDEST PUSH2 0xE6F JUMP JUMPDEST PUSH2 0x4FE PUSH2 0x5AE CALLDATASIZE PUSH1 0x4 PUSH2 0x5161 JUMP JUMPDEST PUSH2 0xE83 JUMP JUMPDEST PUSH2 0x4FE PUSH1 0x0 DUP1 MLOAD PUSH1 0x20 PUSH2 0x5D1B DUP4 CODECOPY DUP2 MLOAD SWAP2 MSTORE DUP2 JUMP JUMPDEST PUSH2 0x5DB PUSH2 0x5D6 CALLDATASIZE PUSH1 0x4 PUSH2 0x51BF JUMP JUMPDEST PUSH2 0xE90 JUMP JUMPDEST STOP JUMPDEST PUSH2 0x4FE PUSH32 0x0 DUP2 JUMP JUMPDEST PUSH2 0x4FE PUSH2 0xEB7 JUMP JUMPDEST PUSH2 0x5DB PUSH2 0x61A CALLDATASIZE PUSH1 0x4 PUSH2 0x51BF JUMP JUMPDEST PUSH2 0xEC1 JUMP JUMPDEST PUSH2 0x51E PUSH2 0x62D CALLDATASIZE PUSH1 0x4 PUSH2 0x51E0 JUMP JUMPDEST PUSH2 0xEE2 JUMP JUMPDEST PUSH2 0x4FE PUSH2 0x640 CALLDATASIZE PUSH1 0x4 PUSH2 0x5161 JUMP JUMPDEST PUSH2 0xF33 JUMP JUMPDEST PUSH2 0x4FE PUSH1 0x15 SLOAD DUP2 JUMP JUMPDEST PUSH2 0x5DB PUSH2 0x65C CALLDATASIZE PUSH1 0x4 PUSH2 0x51BF JUMP JUMPDEST PUSH2 0xF48 JUMP JUMPDEST PUSH2 0x4E0 PUSH32 0x0 DUP2 JUMP JUMPDEST PUSH2 0x4FE PUSH32 0x0 DUP2 JUMP JUMPDEST PUSH2 0x5DB PUSH2 0x6BD CALLDATASIZE PUSH1 0x4 PUSH2 0x5230 JUMP JUMPDEST PUSH2 0xFEC JUMP JUMPDEST PUSH32 0x0 PUSH1 0x40 MLOAD PUSH2 0x4ED SWAP2 SWAP1 PUSH2 0x526C JUMP JUMPDEST PUSH2 0x4FE PUSH2 0x6FE CALLDATASIZE PUSH1 0x4 PUSH2 0x527A JUMP JUMPDEST PUSH2 0x100D JUMP JUMPDEST PUSH2 0x4FE PUSH1 0x19 SLOAD DUP2 JUMP JUMPDEST PUSH2 0x5DB PUSH2 0x71A CALLDATASIZE PUSH1 0x4 PUSH2 0x5230 JUMP JUMPDEST PUSH2 0x105B JUMP JUMPDEST PUSH2 0x4FE PUSH5 0xE8D4A51000 DUP2 JUMP JUMPDEST PUSH32 0x0 PUSH2 0x4E0 JUMP JUMPDEST PUSH2 0x51E PUSH2 0x75F CALLDATASIZE PUSH1 0x4 PUSH2 0x5182 JUMP JUMPDEST PUSH2 0x1096 JUMP JUMPDEST PUSH2 0x79B PUSH2 0x772 CALLDATASIZE PUSH1 0x4 PUSH2 0x51BF JUMP JUMPDEST PUSH1 0x3 PUSH1 0x20 DUP2 SWAP1 MSTORE PUSH1 0x0 SWAP2 DUP3 MSTORE PUSH1 0x40 SWAP1 SWAP2 KECCAK256 DUP1 SLOAD PUSH1 0x1 DUP3 ADD SLOAD PUSH1 0x2 DUP4 ADD SLOAD SWAP3 SWAP1 SWAP4 ADD SLOAD SWAP1 SWAP3 SWAP2 SWAP1 DUP5 JUMP JUMPDEST PUSH1 0x40 MLOAD PUSH2 0x4ED SWAP5 SWAP4 SWAP3 SWAP2 SWAP1 PUSH2 0x52DA JUMP JUMPDEST PUSH2 0x4FE PUSH1 0xA SLOAD DUP2 JUMP JUMPDEST PUSH2 0x4FE PUSH1 0xA DUP2 JUMP JUMPDEST PUSH2 0x4FE PUSH2 0x7CA CALLDATASIZE PUSH1 0x4 PUSH2 0x51BF JUMP JUMPDEST PUSH2 0x10A3 JUMP JUMPDEST PUSH2 0x5DB PUSH2 0x7DD CALLDATASIZE PUSH1 0x4 PUSH2 0x5182 JUMP JUMPDEST PUSH2 0x10AE JUMP JUMPDEST PUSH2 0x4FE PUSH2 0x7F0 CALLDATASIZE PUSH1 0x4 PUSH2 0x5182 JUMP JUMPDEST PUSH2 0x131E JUMP JUMPDEST PUSH2 0x81C PUSH32 0x0 DUP2 JUMP JUMPDEST PUSH1 0x40 MLOAD PUSH2 0x4ED SWAP2 SWAP1 PUSH2 0x5347 JUMP JUMPDEST PUSH2 0x5DB PUSH2 0x837 CALLDATASIZE PUSH1 0x4 PUSH2 0x51BF JUMP JUMPDEST PUSH2 0x135C JUMP JUMPDEST PUSH2 0x5DB PUSH2 0x84A CALLDATASIZE PUSH1 0x4 PUSH2 0x51BF JUMP JUMPDEST PUSH2 0x13BF JUMP JUMPDEST PUSH2 0x4FE PUSH1 0x0 DUP1 MLOAD PUSH1 0x20 PUSH2 0x5F5B DUP4 CODECOPY DUP2 MLOAD SWAP2 MSTORE DUP2 JUMP JUMPDEST PUSH2 0x4FE PUSH1 0x0 DUP1 MLOAD PUSH1 0x20 PUSH2 0x5D9B DUP4 CODECOPY DUP2 MLOAD SWAP2 MSTORE DUP2 JUMP JUMPDEST PUSH2 0x4FE PUSH1 0x0 DUP1 MLOAD PUSH1 0x20 PUSH2 0x5E5B DUP4 CODECOPY DUP2 MLOAD SWAP2 MSTORE DUP2 JUMP JUMPDEST PUSH1 0xD SLOAD PUSH2 0x4E0 SWAP1 PUSH1 0x1 PUSH1 0x1 PUSH1 0xA0 SHL SUB AND DUP2 JUMP JUMPDEST PUSH2 0x4FE PUSH1 0x16 SLOAD DUP2 JUMP JUMPDEST PUSH2 0x51E PUSH2 0x8B8 CALLDATASIZE PUSH1 0x4 PUSH2 0x5161 JUMP JUMPDEST PUSH1 0x11 PUSH1 0x20 MSTORE PUSH1 0x0 SWAP1 DUP2 MSTORE PUSH1 0x40 SWAP1 KECCAK256 SLOAD PUSH1 0xFF AND DUP2 JUMP JUMPDEST PUSH2 0x4FE PUSH2 0x8DB CALLDATASIZE PUSH1 0x4 PUSH2 0x5182 JUMP JUMPDEST PUSH2 0x1422 JUMP JUMPDEST PUSH2 0x4FE PUSH1 0x0 DUP1 MLOAD PUSH1 0x20 PUSH2 0x5D7B DUP4 CODECOPY DUP2 MLOAD SWAP2 MSTORE DUP2 JUMP JUMPDEST PUSH2 0x5DB PUSH2 0x903 CALLDATASIZE PUSH1 0x4 PUSH2 0x51BF JUMP JUMPDEST PUSH2 0x1468 JUMP JUMPDEST PUSH2 0x5DB PUSH2 0x916 CALLDATASIZE PUSH1 0x4 PUSH2 0x539F JUMP JUMPDEST PUSH2 0x14A3 JUMP JUMPDEST PUSH2 0x4FE PUSH1 0x0 DUP1 MLOAD PUSH1 0x20 PUSH2 0x5CDB DUP4 CODECOPY DUP2 MLOAD SWAP2 MSTORE DUP2 JUMP JUMPDEST PUSH2 0x4FE PUSH2 0x93E CALLDATASIZE PUSH1 0x4 PUSH2 0x527A JUMP JUMPDEST PUSH2 0x1588 JUMP JUMPDEST PUSH2 0x5DB PUSH2 0x951 CALLDATASIZE PUSH1 0x4 PUSH2 0x5182 JUMP JUMPDEST PUSH2 0x1595 JUMP JUMPDEST PUSH2 0x5DB PUSH2 0x15FD JUMP JUMPDEST PUSH2 0x4FE PUSH2 0x96C CALLDATASIZE PUSH1 0x4 PUSH2 0x5230 JUMP JUMPDEST PUSH2 0x1672 JUMP JUMPDEST PUSH2 0x4FE PUSH2 0x97F CALLDATASIZE PUSH1 0x4 PUSH2 0x51BF JUMP JUMPDEST PUSH2 0x1692 JUMP JUMPDEST PUSH2 0x55B PUSH1 0x40 MLOAD DUP1 PUSH1 0x40 ADD PUSH1 0x40 MSTORE DUP1 PUSH1 0x5 DUP2 MSTORE PUSH1 0x20 ADD PUSH5 0x312E302E3 PUSH1 0xDC SHL DUP2 MSTORE POP DUP2 JUMP JUMPDEST PUSH2 0x4FE PUSH2 0x9B6 CALLDATASIZE PUSH1 0x4 PUSH2 0x51BF JUMP JUMPDEST PUSH1 0x18 PUSH1 0x20 MSTORE PUSH1 0x0 SWAP1 DUP2 MSTORE PUSH1 0x40 SWAP1 KECCAK256 SLOAD DUP2 JUMP JUMPDEST PUSH2 0x5DB PUSH2 0x9D6 CALLDATASIZE PUSH1 0x4 PUSH2 0x5161 JUMP JUMPDEST PUSH2 0x16EB JUMP JUMPDEST PUSH2 0x4FE PUSH1 0x17 SLOAD DUP2 JUMP JUMPDEST PUSH1 0xF SLOAD PUSH2 0x4E0 SWAP1 PUSH1 0x1 PUSH1 0x1 PUSH1 0xA0 SHL SUB AND DUP2 JUMP JUMPDEST PUSH2 0x51E PUSH2 0xA05 CALLDATASIZE PUSH1 0x4 PUSH2 0x5230 JUMP JUMPDEST PUSH2 0x1744 JUMP JUMPDEST PUSH2 0x4FE PUSH2 0xA18 CALLDATASIZE PUSH1 0x4 PUSH2 0x5230 JUMP JUMPDEST PUSH2 0x176D JUMP JUMPDEST PUSH2 0x55B PUSH2 0x1782 JUMP JUMPDEST PUSH2 0x4FE PUSH2 0xA33 CALLDATASIZE PUSH1 0x4 PUSH2 0x51BF JUMP JUMPDEST PUSH1 0x10 PUSH1 0x20 MSTORE PUSH1 0x0 SWAP1 DUP2 MSTORE PUSH1 0x40 SWAP1 KECCAK256 SLOAD DUP2 JUMP JUMPDEST PUSH2 0x4FE PUSH2 0x178F JUMP JUMPDEST PUSH2 0x5DB PUSH2 0xA5B CALLDATASIZE PUSH1 0x4 PUSH2 0x53F9 JUMP JUMPDEST PUSH2 0x17C6 JUMP JUMPDEST PUSH1 0xE SLOAD PUSH2 0x4E0 SWAP1 PUSH1 0x1 PUSH1 0x1 PUSH1 0xA0 SHL SUB AND DUP2 JUMP JUMPDEST PUSH2 0x4FE PUSH1 0x0 DUP1 MLOAD PUSH1 0x20 PUSH2 0x5E9B DUP4 CODECOPY DUP2 MLOAD SWAP2 MSTORE DUP2 JUMP JUMPDEST PUSH2 0x4FE PUSH1 0x0 DUP2 JUMP JUMPDEST PUSH2 0x51E PUSH2 0xA9E CALLDATASIZE PUSH1 0x4 PUSH2 0x5182 JUMP JUMPDEST PUSH2 0x181C JUMP JUMPDEST PUSH2 0x5DB PUSH2 0xAB1 CALLDATASIZE PUSH1 0x4 PUSH2 0x5182 JUMP JUMPDEST PUSH2 0x1829 JUMP JUMPDEST PUSH2 0x51E PUSH2 0xAC4 CALLDATASIZE PUSH1 0x4 PUSH2 0x5182 JUMP JUMPDEST PUSH2 0x184B JUMP JUMPDEST PUSH2 0x4FE PUSH1 0x0 DUP1 MLOAD PUSH1 0x20 PUSH2 0x5F3B DUP4 CODECOPY DUP2 MLOAD SWAP2 MSTORE DUP2 JUMP JUMPDEST PUSH2 0x4FE PUSH1 0x0 DUP1 MLOAD PUSH1 0x20 PUSH2 0x5EBB DUP4 CODECOPY DUP2 MLOAD SWAP2 MSTORE DUP2 JUMP JUMPDEST PUSH1 0x13 SLOAD PUSH2 0x4E0 SWAP1 PUSH1 0x1 PUSH1 0x1 PUSH1 0xA0 SHL SUB AND DUP2 JUMP JUMPDEST PUSH2 0x4FE PUSH2 0xB14 CALLDATASIZE PUSH1 0x4 PUSH2 0x5161 JUMP JUMPDEST PUSH2 0x189D JUMP JUMPDEST PUSH2 0xB2C PUSH2 0xB27 CALLDATASIZE PUSH1 0x4 PUSH2 0x51BF JUMP JUMPDEST PUSH2 0x18AA JUMP JUMPDEST PUSH1 0x40 MLOAD PUSH2 0x4ED SWAP3 SWAP2 SWAP1 PUSH2 0x541A JUMP JUMPDEST PUSH2 0x5DB PUSH2 0xB48 CALLDATASIZE PUSH1 0x4 PUSH2 0x51BF JUMP JUMPDEST PUSH2 0x18E9 JUMP JUMPDEST PUSH1 0x5 SLOAD PUSH2 0x51E SWAP1 PUSH1 0xFF AND DUP2 JUMP JUMPDEST PUSH2 0x5DB PUSH2 0xB68 CALLDATASIZE PUSH1 0x4 PUSH2 0x5161 JUMP JUMPDEST PUSH2 0x190C JUMP JUMPDEST PUSH2 0x4FE PUSH1 0x0 DUP1 MLOAD PUSH1 0x20 PUSH2 0x5DDB DUP4 CODECOPY DUP2 MLOAD SWAP2 MSTORE DUP2 JUMP JUMPDEST PUSH2 0x4FE PUSH32 0x8B73C3C69BB8FE3D512ECC4CF759CC79239F7B179B0FFACAA9A75D522B39400F DUP2 JUMP JUMPDEST PUSH2 0x4FE PUSH2 0xBB7 CALLDATASIZE PUSH1 0x4 PUSH2 0x51BF JUMP JUMPDEST PUSH2 0x19A0 JUMP JUMPDEST PUSH2 0x4FE PUSH2 0xBCA CALLDATASIZE PUSH1 0x4 PUSH2 0x5161 JUMP JUMPDEST PUSH2 0x19B9 JUMP JUMPDEST PUSH2 0x4FE PUSH1 0x0 DUP1 MLOAD PUSH1 0x20 PUSH2 0x5CBB DUP4 CODECOPY DUP2 MLOAD SWAP2 MSTORE DUP2 JUMP JUMPDEST PUSH2 0x4FE PUSH1 0x9 SLOAD DUP2 JUMP JUMPDEST PUSH2 0x5DB PUSH2 0xBFB CALLDATASIZE PUSH1 0x4 PUSH2 0x5161 JUMP JUMPDEST PUSH2 0x19C6 JUMP JUMPDEST PUSH2 0x4FE PUSH1 0x0 DUP1 MLOAD PUSH1 0x20 PUSH2 0x5EDB DUP4 CODECOPY DUP2 MLOAD SWAP2 MSTORE DUP2 JUMP JUMPDEST PUSH2 0x51E PUSH2 0xC23 CALLDATASIZE PUSH1 0x4 PUSH2 0x5449 JUMP JUMPDEST PUSH2 0x1A26 JUMP JUMPDEST PUSH2 0x5DB PUSH2 0xC36 CALLDATASIZE PUSH1 0x4 PUSH2 0x5161 JUMP JUMPDEST PUSH2 0x1A45 JUMP JUMPDEST PUSH2 0x5DB PUSH2 0xC49 CALLDATASIZE PUSH1 0x4 PUSH2 0x5230 JUMP JUMPDEST PUSH2 0x1A7B JUMP JUMPDEST PUSH2 0x4FE PUSH2 0xC5C CALLDATASIZE PUSH1 0x4 PUSH2 0x5066 JUMP JUMPDEST PUSH2 0x1A97 JUMP JUMPDEST PUSH2 0x4FE PUSH2 0x1ACB JUMP JUMPDEST PUSH2 0x4FE PUSH2 0xC77 CALLDATASIZE PUSH1 0x4 PUSH2 0x54E8 JUMP JUMPDEST PUSH1 0x1 PUSH1 0x1 PUSH1 0xA0 SHL SUB SWAP2 DUP3 AND PUSH1 0x0 SWAP1 DUP2 MSTORE PUSH1 0x7 PUSH1 0x20 SWAP1 DUP2 MSTORE PUSH1 0x40 DUP1 DUP4 KECCAK256 SWAP4 SWAP1 SWAP5 AND DUP3 MSTORE SWAP2 SWAP1 SWAP2 MSTORE KECCAK256 SLOAD SWAP1 JUMP JUMPDEST PUSH2 0x5DB PUSH2 0xCB0 CALLDATASIZE PUSH1 0x4 PUSH2 0x5161 JUMP JUMPDEST PUSH2 0x1AD5 JUMP JUMPDEST PUSH2 0x5DB PUSH2 0x1B8F JUMP JUMPDEST PUSH2 0x4FE PUSH1 0xC SLOAD DUP2 JUMP JUMPDEST PUSH2 0x4FE PUSH1 0x0 DUP1 MLOAD PUSH1 0x20 PUSH2 0x5E1B DUP4 CODECOPY DUP2 MLOAD SWAP2 MSTORE DUP2 JUMP JUMPDEST PUSH2 0x4FE PUSH1 0x0 DUP1 MLOAD PUSH1 0x20 PUSH2 0x5DFB DUP4 CODECOPY DUP2 MLOAD SWAP2 MSTORE DUP2 JUMP JUMPDEST PUSH2 0x5DB PUSH2 0xCFE CALLDATASIZE PUSH1 0x4 PUSH2 0x5182 JUMP JUMPDEST PUSH2 0x1C93 JUMP JUMPDEST PUSH2 0x4FE PUSH1 0x8 SLOAD DUP2 JUMP JUMPDEST PUSH1 0x13 SLOAD PUSH2 0x51E SWAP1 PUSH1 0x1 PUSH1 0xA0 SHL SWAP1 DIV PUSH1 0xFF AND DUP2 JUMP JUMPDEST PUSH2 0x4FE PUSH2 0x2710 DUP2 JUMP JUMPDEST PUSH2 0x4FE PUSH1 0x0 DUP1 MLOAD PUSH1 0x20 PUSH2 0x5D5B DUP4 CODECOPY DUP2 MLOAD SWAP2 MSTORE DUP2 JUMP JUMPDEST PUSH2 0x4E0 PUSH2 0xD4C CALLDATASIZE PUSH1 0x4 PUSH2 0x5161 JUMP JUMPDEST PUSH2 0x1D40 JUMP JUMPDEST PUSH1 0x0 PUSH2 0xD5B PUSH2 0x1D6A JUMP JUMPDEST SWAP1 POP SWAP1 JUMP JUMPDEST PUSH1 0x0 PUSH1 0x1 PUSH1 0x1 PUSH1 0xE0 SHL SUB NOT DUP3 AND PUSH4 0x7965DB0B PUSH1 0xE0 SHL EQ DUP1 PUSH2 0xD91 JUMPI POP PUSH4 0x1FFC9A7 PUSH1 0xE0 SHL PUSH1 0x1 PUSH1 0x1 PUSH1 0xE0 SHL SUB NOT DUP4 AND EQ JUMPDEST SWAP3 SWAP2 POP POP JUMP JUMPDEST PUSH1 0x0 PUSH2 0xDA1 PUSH2 0x1D7C JUMP JUMPDEST PUSH1 0x0 PUSH2 0xDAE DUP8 PUSH1 0x0 PUSH2 0x1DA5 JUMP JUMPDEST SWAP1 POP PUSH2 0xDBF CALLER DUP8 DUP8 DUP5 DUP12 DUP10 DUP10 PUSH2 0x1E3B JUMP JUMPDEST SWAP2 POP POP PUSH2 0xDCB PUSH1 0x1 DUP1 SSTORE JUMP JUMPDEST SWAP6 SWAP5 POP POP POP POP POP JUMP JUMPDEST PUSH1 0x1A DUP1 SLOAD PUSH2 0xDE1 SWAP1 PUSH2 0x5520 JUMP JUMPDEST DUP1 PUSH1 0x1F ADD PUSH1 0x20 DUP1 SWAP2 DIV MUL PUSH1 0x20 ADD PUSH1 0x40 MLOAD SWAP1 DUP2 ADD PUSH1 0x40 MSTORE DUP1 SWAP3 SWAP2 SWAP1 DUP2 DUP2 MSTORE PUSH1 0x20 ADD DUP3 DUP1 SLOAD PUSH2 0xE0D SWAP1 PUSH2 0x5520 JUMP JUMPDEST DUP1 ISZERO PUSH2 0xE5A JUMPI DUP1 PUSH1 0x1F LT PUSH2 0xE2F JUMPI PUSH2 0x100 DUP1 DUP4 SLOAD DIV MUL DUP4 MSTORE SWAP2 PUSH1 0x20 ADD SWAP2 PUSH2 0xE5A JUMP JUMPDEST DUP3 ADD SWAP2 SWAP1 PUSH1 0x0 MSTORE PUSH1 0x20 PUSH1 0x0 KECCAK256 SWAP1 JUMPDEST DUP2 SLOAD DUP2 MSTORE SWAP1 PUSH1 0x1 ADD SWAP1 PUSH1 0x20 ADD DUP1 DUP4 GT PUSH2 0xE3D JUMPI DUP3 SWAP1 SUB PUSH1 0x1F AND DUP3 ADD SWAP2 JUMPDEST POP POP POP POP POP DUP2 JUMP JUMPDEST PUSH1 0x0 PUSH2 0xD91 DUP3 PUSH1 0x0 PUSH2 0x1DA5 JUMP JUMPDEST PUSH1 0x0 PUSH2 0xE7C CALLER DUP5 DUP5 PUSH2 0x1ED8 JUMP JUMPDEST SWAP4 SWAP3 POP POP POP JUMP JUMPDEST PUSH1 0x0 PUSH2 0xD91 DUP3 PUSH1 0x1 PUSH2 0x1F70 JUMP JUMPDEST PUSH1 0x0 DUP1 MLOAD PUSH1 0x20 PUSH2 0x5D7B DUP4 CODECOPY DUP2 MLOAD SWAP2 MSTORE PUSH2 0xEA8 DUP2 PUSH2 0x201E JUMP JUMPDEST PUSH2 0xEB3 DUP3 PUSH1 0x1 PUSH2 0x202B JUMP JUMPDEST POP POP JUMP JUMPDEST PUSH1 0x0 PUSH2 0xD5B PUSH2 0x2093 JUMP JUMPDEST PUSH1 0x0 DUP1 MLOAD PUSH1 0x20 PUSH2 0x5DDB DUP4 CODECOPY DUP2 MLOAD SWAP2 MSTORE PUSH2 0xED9 DUP2 PUSH2 0x201E JUMP JUMPDEST PUSH2 0xEB3 DUP3 PUSH2 0x20AA JUMP JUMPDEST PUSH1 0x0 PUSH1 0x1 PUSH1 0x1 PUSH1 0xA0 SHL SUB DUP4 AND ADDRESS EQ DUP1 PUSH2 0xF02 JUMPI POP PUSH1 0x1 PUSH1 0x1 PUSH1 0xA0 SHL SUB DUP4 AND ISZERO JUMPDEST ISZERO PUSH2 0xF20 JUMPI PUSH1 0x40 MLOAD PUSH4 0xD92E233D PUSH1 0xE0 SHL DUP2 MSTORE PUSH1 0x4 ADD PUSH1 0x40 MLOAD DUP1 SWAP2 SUB SWAP1 REVERT JUMPDEST PUSH2 0xF2B DUP5 DUP5 DUP5 PUSH2 0x210F JUMP JUMPDEST SWAP5 SWAP4 POP POP POP POP JUMP JUMPDEST PUSH1 0x0 SWAP1 DUP2 MSTORE PUSH1 0x20 DUP2 SWAP1 MSTORE PUSH1 0x40 SWAP1 KECCAK256 PUSH1 0x1 ADD SLOAD SWAP1 JUMP JUMPDEST PUSH1 0x0 DUP1 MLOAD PUSH1 0x20 PUSH2 0x5F3B DUP4 CODECOPY DUP2 MLOAD SWAP2 MSTORE PUSH2 0xF60 DUP2 PUSH2 0x201E JUMP JUMPDEST PUSH1 0x13 SLOAD PUSH1 0x1 PUSH1 0xA0 SHL SWAP1 DIV PUSH1 0xFF AND ISZERO ISZERO PUSH1 0x1 SUB PUSH2 0xF8F JUMPI PUSH1 0x40 MLOAD PUSH4 0xF3C3867 PUSH1 0xE0 SHL DUP2 MSTORE PUSH1 0x4 ADD PUSH1 0x40 MLOAD DUP1 SWAP2 SUB SWAP1 REVERT JUMPDEST PUSH1 0x0 NOT PUSH1 0xC SLOAD EQ PUSH2 0xFB3 JUMPI PUSH1 0x40 MLOAD PUSH4 0x4E414185 PUSH1 0xE1 SHL DUP2 MSTORE PUSH1 0x4 ADD PUSH1 0x40 MLOAD DUP1 SWAP2 SUB SWAP1 REVERT JUMPDEST PUSH1 0xE DUP1 SLOAD PUSH1 0x1 PUSH1 0x1 PUSH1 0xA0 SHL SUB NOT AND PUSH1 0x1 PUSH1 0x1 PUSH1 0xA0 SHL SUB DUP5 AND SWAP1 DUP2 OR SWAP1 SWAP2 SSTORE PUSH1 0x40 MLOAD PUSH1 0x0 DUP1 MLOAD PUSH1 0x20 PUSH2 0x5D3B DUP4 CODECOPY DUP2 MLOAD SWAP2 MSTORE SWAP1 PUSH1 0x0 SWAP1 LOG2 POP POP JUMP JUMPDEST PUSH2 0xFF5 DUP3 PUSH2 0xF33 JUMP JUMPDEST PUSH2 0xFFE DUP2 PUSH2 0x201E JUMP JUMPDEST PUSH2 0x1008 DUP4 DUP4 PUSH2 0x2131 JUMP JUMPDEST POP POP POP JUMP JUMPDEST PUSH1 0x0 DUP1 PUSH2 0x101B DUP6 DUP6 DUP6 PUSH2 0x21B5 JUMP JUMPDEST SWAP1 POP PUSH1 0x0 PUSH2 0x102A DUP3 PUSH1 0x1 PUSH2 0x1F70 JUMP JUMPDEST PUSH1 0x1 PUSH1 0x1 PUSH1 0xA0 SHL SUB DUP8 AND PUSH1 0x0 SWAP1 DUP2 MSTORE PUSH1 0x6 PUSH1 0x20 MSTORE PUSH1 0x40 SWAP1 KECCAK256 SLOAD SWAP1 SWAP2 POP PUSH2 0x1051 SWAP1 DUP3 SWAP1 PUSH2 0x257F JUMP JUMPDEST SWAP7 SWAP6 POP POP POP POP POP POP JUMP JUMPDEST PUSH1 0x1 PUSH1 0x1 PUSH1 0xA0 SHL SUB DUP2 AND CALLER EQ PUSH2 0x108C JUMPI PUSH1 0x40 MLOAD PUSH3 0x461BCD PUSH1 0xE5 SHL DUP2 MSTORE PUSH1 0x4 ADD PUSH2 0x1083 SWAP1 PUSH2 0x554C JUMP JUMPDEST PUSH1 0x40 MLOAD DUP1 SWAP2 SUB SWAP1 REVERT JUMPDEST PUSH2 0xEB3 DUP3 DUP3 PUSH2 0x2595 JUMP JUMPDEST PUSH1 0x0 PUSH2 0xE7C CALLER DUP5 DUP5 PUSH2 0x25FA JUMP JUMPDEST PUSH1 0x0 PUSH2 0xD91 DUP3 PUSH2 0x2648 JUMP JUMPDEST PUSH1 0x0 DUP1 MLOAD PUSH1 0x20 PUSH2 0x5EBB DUP4 CODECOPY DUP2 MLOAD SWAP2 MSTORE PUSH2 0x10C6 DUP2 PUSH2 0x201E JUMP JUMPDEST PUSH2 0x10CE PUSH2 0x1D7C JUMP JUMPDEST PUSH1 0x1 PUSH1 0x1 PUSH1 0xA0 SHL SUB DUP4 AND PUSH1 0x0 SWAP1 DUP2 MSTORE PUSH1 0x3 PUSH1 0x20 MSTORE PUSH1 0x40 DUP2 KECCAK256 SLOAD SWAP1 SUB PUSH2 0x1106 JUMPI PUSH1 0x40 MLOAD PUSH4 0x631BC21 PUSH1 0xE5 SHL DUP2 MSTORE PUSH1 0x4 ADD PUSH1 0x40 MLOAD DUP1 SWAP2 SUB SWAP1 REVERT JUMPDEST PUSH1 0x1 PUSH1 0x1 PUSH1 0xA0 SHL SUB DUP4 AND PUSH1 0x0 SWAP1 DUP2 MSTORE PUSH1 0x3 PUSH1 0x20 MSTORE PUSH1 0x40 SWAP1 KECCAK256 PUSH1 0x2 ADD SLOAD DUP1 ISZERO DUP1 PUSH2 0x112D JUMPI POP DUP3 ISZERO JUMPDEST ISZERO PUSH2 0x114B JUMPI PUSH1 0x40 MLOAD PUSH4 0x7C946ED7 PUSH1 0xE0 SHL DUP2 MSTORE PUSH1 0x4 ADD PUSH1 0x40 MLOAD DUP1 SWAP2 SUB SWAP1 REVERT JUMPDEST DUP1 DUP4 GT ISZERO PUSH2 0x1157 JUMPI DUP1 SWAP3 POP JUMPDEST PUSH1 0x0 DUP2 DUP5 DUP7 PUSH1 0x1 PUSH1 0x1 PUSH1 0xA0 SHL SUB AND PUSH4 0x70A08231 ADDRESS PUSH1 0x40 MLOAD DUP3 PUSH4 0xFFFFFFFF AND PUSH1 0xE0 SHL DUP2 MSTORE PUSH1 0x4 ADD PUSH2 0x1187 SWAP2 SWAP1 PUSH2 0x4EB6 JUMP JUMPDEST PUSH1 0x20 PUSH1 0x40 MLOAD DUP1 DUP4 SUB DUP2 DUP7 GAS STATICCALL ISZERO DUP1 ISZERO PUSH2 0x11A4 JUMPI RETURNDATASIZE PUSH1 0x0 DUP1 RETURNDATACOPY RETURNDATASIZE PUSH1 0x0 REVERT JUMPDEST POP POP POP POP PUSH1 0x40 MLOAD RETURNDATASIZE PUSH1 0x1F NOT PUSH1 0x1F DUP3 ADD AND DUP3 ADD DUP1 PUSH1 0x40 MSTORE POP DUP2 ADD SWAP1 PUSH2 0x11C8 SWAP2 SWAP1 PUSH2 0x55AA JUMP JUMPDEST PUSH2 0x11D2 SWAP2 SWAP1 PUSH2 0x55E1 JUMP JUMPDEST PUSH2 0x11DC SWAP2 SWAP1 PUSH2 0x5616 JUMP JUMPDEST SWAP1 POP PUSH1 0x0 DUP2 GT PUSH2 0x11FF JUMPI PUSH1 0x40 MLOAD PUSH4 0x7C946ED7 PUSH1 0xE0 SHL DUP2 MSTORE PUSH1 0x4 ADD PUSH1 0x40 MLOAD DUP1 SWAP2 SUB SWAP1 REVERT JUMPDEST PUSH2 0x122B PUSH32 0x0 CALLER ADDRESS DUP8 PUSH2 0x2720 JUMP JUMPDEST PUSH1 0x1 PUSH1 0x1 PUSH1 0xA0 SHL SUB DUP6 AND PUSH1 0x0 SWAP1 DUP2 MSTORE PUSH1 0x3 PUSH1 0x20 MSTORE PUSH1 0x40 DUP2 KECCAK256 PUSH1 0x2 ADD DUP1 SLOAD DUP7 SWAP3 SWAP1 PUSH2 0x1256 SWAP1 DUP5 SWAP1 PUSH2 0x562A JUMP JUMPDEST SWAP3 POP POP DUP2 SWAP1 SSTORE POP DUP4 PUSH1 0x9 PUSH1 0x0 DUP3 DUP3 SLOAD PUSH2 0x126F SWAP2 SWAP1 PUSH2 0x562A JUMP JUMPDEST SWAP3 POP POP DUP2 SWAP1 SSTORE POP DUP4 PUSH1 0xA PUSH1 0x0 DUP3 DUP3 SLOAD PUSH2 0x1288 SWAP2 SWAP1 PUSH2 0x563D JUMP JUMPDEST SWAP1 SWAP2 SSTORE POP POP PUSH1 0x1 PUSH1 0x1 PUSH1 0xA0 SHL SUB DUP6 AND PUSH1 0x0 DUP1 MLOAD PUSH1 0x20 PUSH2 0x5F1B DUP4 CODECOPY DUP2 MLOAD SWAP2 MSTORE DUP4 PUSH2 0x12B1 DUP8 DUP3 PUSH2 0x562A JUMP JUMPDEST PUSH1 0x40 MLOAD PUSH2 0x12BF SWAP3 SWAP2 SWAP1 PUSH2 0x541A JUMP JUMPDEST PUSH1 0x40 MLOAD DUP1 SWAP2 SUB SWAP1 LOG2 PUSH2 0x12D2 DUP6 CALLER DUP4 PUSH2 0x2802 JUMP JUMPDEST DUP5 PUSH1 0x1 PUSH1 0x1 PUSH1 0xA0 SHL SUB AND PUSH32 0xE94E7F88819F66C19B097748CB754149F63B1A176ED425DEE1F1EE933E6D09B0 DUP6 PUSH1 0x40 MLOAD PUSH2 0x130B SWAP2 SWAP1 PUSH2 0x4ECA JUMP JUMPDEST PUSH1 0x40 MLOAD DUP1 SWAP2 SUB SWAP1 LOG2 POP POP PUSH2 0x1008 PUSH1 0x1 DUP1 SSTORE JUMP JUMPDEST PUSH1 0x0 PUSH1 0x0 DUP1 MLOAD PUSH1 0x20 PUSH2 0x5CBB DUP4 CODECOPY DUP2 MLOAD SWAP2 MSTORE PUSH2 0x1338 DUP2 PUSH2 0x201E JUMP JUMPDEST PUSH2 0x1340 PUSH2 0x1D7C JUMP JUMPDEST PUSH2 0x134A DUP5 DUP5 PUSH2 0x28CA JUMP JUMPDEST SWAP2 POP PUSH2 0x1355 PUSH1 0x1 DUP1 SSTORE JUMP JUMPDEST POP SWAP3 SWAP2 POP POP JUMP JUMPDEST PUSH1 0x0 DUP1 MLOAD PUSH1 0x20 PUSH2 0x5CDB DUP4 CODECOPY DUP2 MLOAD SWAP2 MSTORE PUSH2 0x1374 DUP2 PUSH2 0x201E JUMP JUMPDEST PUSH1 0xD DUP1 SLOAD PUSH1 0x1 PUSH1 0x1 PUSH1 0xA0 SHL SUB NOT AND PUSH1 0x1 PUSH1 0x1 PUSH1 0xA0 SHL SUB DUP5 AND SWAP1 DUP2 OR SWAP1 SWAP2 SSTORE PUSH1 0x40 MLOAD PUSH32 0x28709A2DAB2A5D5E8688E96159011151C51644AB21839A8A45B449634D7C8B2B SWAP1 PUSH1 0x0 SWAP1 LOG2 POP POP JUMP JUMPDEST PUSH1 0x0 DUP1 MLOAD PUSH1 0x20 PUSH2 0x5F5B DUP4 CODECOPY DUP2 MLOAD SWAP2 MSTORE PUSH2 0x13D7 DUP2 PUSH2 0x201E JUMP JUMPDEST PUSH1 0xF DUP1 SLOAD PUSH1 0x1 PUSH1 0x1 PUSH1 0xA0 SHL SUB NOT AND PUSH1 0x1 PUSH1 0x1 PUSH1 0xA0 SHL SUB DUP5 AND SWAP1 DUP2 OR SWAP1 SWAP2 SSTORE PUSH1 0x40 MLOAD PUSH32 0xCE6E3F8BEDA82A13C441D76EFD4A6335760F219F38C60502E6680060874E109D SWAP1 PUSH1 0x0 SWAP1 LOG2 POP POP JUMP JUMPDEST PUSH1 0x1 PUSH1 0x1 PUSH1 0xA0 SHL SUB DUP3 AND PUSH1 0x0 SWAP1 DUP2 MSTORE PUSH1 0x3 PUSH1 0x20 MSTORE PUSH1 0x40 DUP2 KECCAK256 PUSH1 0x2 ADD SLOAD DUP3 GT ISZERO PUSH2 0x145E JUMPI PUSH1 0x40 MLOAD PUSH4 0x37DEAE07 PUSH1 0xE0 SHL DUP2 MSTORE PUSH1 0x4 ADD PUSH1 0x40 MLOAD DUP1 SWAP2 SUB SWAP1 REVERT JUMPDEST PUSH2 0xE7C DUP4 DUP4 PUSH2 0x2FF7 JUMP JUMPDEST PUSH1 0x0 DUP1 MLOAD PUSH1 0x20 PUSH2 0x5DFB DUP4 CODECOPY DUP2 MLOAD SWAP2 MSTORE PUSH2 0x1480 DUP2 PUSH2 0x201E JUMP JUMPDEST POP PUSH1 0x13 DUP1 SLOAD PUSH1 0x1 PUSH1 0x1 PUSH1 0xA0 SHL SUB NOT AND PUSH1 0x1 PUSH1 0x1 PUSH1 0xA0 SHL SUB SWAP3 SWAP1 SWAP3 AND SWAP2 SWAP1 SWAP2 OR SWAP1 SSTORE JUMP JUMPDEST PUSH1 0x0 DUP1 MLOAD PUSH1 0x20 PUSH2 0x5D9B DUP4 CODECOPY DUP2 MLOAD SWAP2 MSTORE PUSH2 0x14BB DUP2 PUSH2 0x201E JUMP JUMPDEST PUSH1 0x0 JUMPDEST DUP3 DUP2 LT ISZERO PUSH2 0x153C JUMPI PUSH1 0x0 DUP5 DUP5 DUP4 DUP2 DUP2 LT PUSH2 0x14DA JUMPI PUSH2 0x14DA PUSH2 0x5650 JUMP JUMPDEST SWAP1 POP PUSH1 0x20 MUL ADD PUSH1 0x20 DUP2 ADD SWAP1 PUSH2 0x14EF SWAP2 SWAP1 PUSH2 0x51BF JUMP JUMPDEST PUSH1 0x1 PUSH1 0x1 PUSH1 0xA0 SHL SUB DUP2 AND PUSH1 0x0 SWAP1 DUP2 MSTORE PUSH1 0x3 PUSH1 0x20 MSTORE PUSH1 0x40 DUP2 KECCAK256 SLOAD SWAP2 SWAP3 POP SUB PUSH2 0x1529 JUMPI PUSH1 0x40 MLOAD PUSH4 0x631BC21 PUSH1 0xE5 SHL DUP2 MSTORE PUSH1 0x4 ADD PUSH1 0x40 MLOAD DUP1 SWAP2 SUB SWAP1 REVERT JUMPDEST POP DUP1 PUSH2 0x1534 DUP2 PUSH2 0x5666 JUMP JUMPDEST SWAP2 POP POP PUSH2 0x14BE JUMP JUMPDEST POP PUSH2 0x1549 PUSH1 0x4 DUP5 DUP5 PUSH2 0x4DC6 JUMP JUMPDEST POP PUSH32 0xBC0CB8C5CCEE13E6A2FD26A699F57AD7FF6E454E6AAE97EC41CD2EB9EBD63A5 DUP4 DUP4 PUSH1 0x40 MLOAD PUSH2 0x157B SWAP3 SWAP2 SWAP1 PUSH2 0x56EB JUMP JUMPDEST PUSH1 0x40 MLOAD DUP1 SWAP2 SUB SWAP1 LOG1 POP POP POP JUMP JUMPDEST PUSH1 0x0 PUSH2 0xF2B DUP5 DUP5 DUP5 PUSH2 0x21B5 JUMP JUMPDEST PUSH1 0x0 DUP1 MLOAD PUSH1 0x20 PUSH2 0x5DFB DUP4 CODECOPY DUP2 MLOAD SWAP2 MSTORE PUSH2 0x15AD DUP2 PUSH2 0x201E JUMP JUMPDEST PUSH2 0x15B7 DUP3 DUP5 PUSH2 0x2595 JUMP JUMPDEST DUP3 PUSH1 0x1 PUSH1 0x1 PUSH1 0xA0 SHL SUB AND PUSH32 0x1395522074BE2925CC0FE997DC4FE5D15A507C2A971E00C315E5A2E08C9B0E50 DUP4 PUSH1 0x40 MLOAD PUSH2 0x15F0 SWAP2 SWAP1 PUSH2 0x4ECA JUMP JUMPDEST PUSH1 0x40 MLOAD DUP1 SWAP2 SUB SWAP1 LOG2 POP POP POP JUMP JUMPDEST PUSH1 0x13 SLOAD PUSH1 0x1 PUSH1 0x1 PUSH1 0xA0 SHL SUB AND CALLER EQ PUSH2 0x1628 JUMPI PUSH1 0x40 MLOAD PUSH4 0x967642D9 PUSH1 0xE0 SHL DUP2 MSTORE PUSH1 0x4 ADD PUSH1 0x40 MLOAD DUP1 SWAP2 SUB SWAP1 REVERT JUMPDEST PUSH1 0x12 DUP1 SLOAD CALLER PUSH1 0x1 PUSH1 0x1 PUSH1 0xA0 SHL SUB NOT SWAP2 DUP3 AND DUP2 OR SWAP1 SWAP3 SSTORE PUSH1 0x13 DUP1 SLOAD SWAP1 SWAP2 AND SWAP1 SSTORE PUSH1 0x40 MLOAD PUSH32 0xCE93BAA0B608A7D420822B6B90CFCCCB70574363BA4FD26EF5AC17DD465016C4 SWAP1 PUSH1 0x0 SWAP1 LOG2 JUMP JUMPDEST PUSH1 0x0 PUSH2 0x167C PUSH2 0x1D7C JUMP JUMPDEST PUSH2 0x1687 CALLER DUP4 DUP6 PUSH2 0x314D JUMP JUMPDEST SWAP1 POP PUSH2 0xD91 PUSH1 0x1 DUP1 SSTORE JUMP JUMPDEST PUSH1 0x0 ADDRESS PUSH1 0x1 PUSH1 0x1 PUSH1 0xA0 SHL SUB DUP4 AND SUB PUSH2 0x16CF JUMPI PUSH2 0x16AC PUSH2 0x32A5 JUMP JUMPDEST PUSH1 0x1 PUSH1 0x1 PUSH1 0xA0 SHL SUB DUP4 AND PUSH1 0x0 SWAP1 DUP2 MSTORE PUSH1 0x6 PUSH1 0x20 MSTORE PUSH1 0x40 SWAP1 KECCAK256 SLOAD PUSH2 0xD91 SWAP2 SWAP1 PUSH2 0x562A JUMP JUMPDEST POP PUSH1 0x1 PUSH1 0x1 PUSH1 0xA0 SHL SUB AND PUSH1 0x0 SWAP1 DUP2 MSTORE PUSH1 0x6 PUSH1 0x20 MSTORE PUSH1 0x40 SWAP1 KECCAK256 SLOAD SWAP1 JUMP JUMPDEST PUSH1 0x0 DUP1 MLOAD PUSH1 0x20 PUSH2 0x5D1B DUP4 CODECOPY DUP2 MLOAD SWAP2 MSTORE PUSH2 0x1703 DUP2 PUSH2 0x201E JUMP JUMPDEST PUSH1 0xB DUP3 SWAP1 SSTORE PUSH1 0x40 MLOAD PUSH32 0x1A4494BEED88920B88742CC58F2744E198F55FF192635A1FBABC6BE8FFADE81 SWAP1 PUSH2 0x1738 SWAP1 DUP5 SWAP1 PUSH2 0x4ECA JUMP JUMPDEST PUSH1 0x40 MLOAD DUP1 SWAP2 SUB SWAP1 LOG1 POP POP JUMP JUMPDEST PUSH1 0x0 SWAP2 DUP3 MSTORE PUSH1 0x20 DUP3 DUP2 MSTORE PUSH1 0x40 DUP1 DUP5 KECCAK256 PUSH1 0x1 PUSH1 0x1 PUSH1 0xA0 SHL SUB SWAP4 SWAP1 SWAP4 AND DUP5 MSTORE SWAP2 SWAP1 MSTORE SWAP1 KECCAK256 SLOAD PUSH1 0xFF AND SWAP1 JUMP JUMPDEST PUSH1 0x0 PUSH2 0x1777 PUSH2 0x1D7C JUMP JUMPDEST PUSH2 0x1687 CALLER DUP4 DUP6 PUSH2 0x3303 JUMP JUMPDEST PUSH1 0x1B DUP1 SLOAD PUSH2 0xDE1 SWAP1 PUSH2 0x5520 JUMP JUMPDEST PUSH1 0x0 PUSH2 0xD5B PUSH2 0x17BF PUSH32 0x0 PUSH1 0xA PUSH2 0x580B JUMP JUMPDEST PUSH1 0x0 PUSH2 0x1DA5 JUMP JUMPDEST PUSH1 0x0 DUP1 MLOAD PUSH1 0x20 PUSH2 0x5D9B DUP4 CODECOPY DUP2 MLOAD SWAP2 MSTORE PUSH2 0x17DE DUP2 PUSH2 0x201E JUMP JUMPDEST PUSH1 0x5 DUP1 SLOAD PUSH1 0xFF NOT AND DUP4 ISZERO ISZERO OR SWAP1 SSTORE PUSH1 0x40 MLOAD PUSH32 0x1F88E73EBC721F227812938FE07A069EC1F7136AAFACB397ED460BD15DEE13F1 SWAP1 PUSH2 0x1738 SWAP1 DUP5 SWAP1 PUSH2 0x4F23 JUMP JUMPDEST PUSH1 0x0 PUSH2 0xE7C CALLER DUP5 DUP5 PUSH2 0x3456 JUMP JUMPDEST PUSH1 0x0 DUP1 MLOAD PUSH1 0x20 PUSH2 0x5DFB DUP4 CODECOPY DUP2 MLOAD SWAP2 MSTORE PUSH2 0x1841 DUP2 PUSH2 0x201E JUMP JUMPDEST PUSH2 0x15B7 DUP3 DUP5 PUSH2 0x2131 JUMP JUMPDEST PUSH1 0x0 PUSH1 0x1 PUSH1 0x1 PUSH1 0xA0 SHL SUB DUP4 AND ADDRESS EQ DUP1 PUSH2 0x186B JUMPI POP PUSH1 0x1 PUSH1 0x1 PUSH1 0xA0 SHL SUB DUP4 AND ISZERO JUMPDEST ISZERO PUSH2 0x1889 JUMPI PUSH1 0x40 MLOAD PUSH4 0xD92E233D PUSH1 0xE0 SHL DUP2 MSTORE PUSH1 0x4 ADD PUSH1 0x40 MLOAD DUP1 SWAP2 SUB SWAP1 REVERT JUMPDEST PUSH2 0x1894 CALLER DUP5 DUP5 PUSH2 0x348B JUMP JUMPDEST POP PUSH1 0x1 SWAP3 SWAP2 POP POP JUMP JUMPDEST PUSH1 0x0 PUSH2 0xD91 DUP3 PUSH1 0x1 PUSH2 0x1DA5 JUMP JUMPDEST PUSH1 0x0 DUP1 PUSH1 0x0 DUP1 MLOAD PUSH1 0x20 PUSH2 0x5CFB DUP4 CODECOPY DUP2 MLOAD SWAP2 MSTORE PUSH2 0x18C5 DUP2 PUSH2 0x201E JUMP JUMPDEST PUSH2 0x18CD PUSH2 0x1D7C JUMP JUMPDEST PUSH2 0x18D6 DUP5 PUSH2 0x3588 JUMP JUMPDEST SWAP3 POP SWAP3 POP PUSH2 0x18E3 PUSH1 0x1 DUP1 SSTORE JUMP JUMPDEST POP SWAP2 POP SWAP2 JUMP JUMPDEST PUSH1 0x0 DUP1 MLOAD PUSH1 0x20 PUSH2 0x5E9B DUP4 CODECOPY DUP2 MLOAD SWAP2 MSTORE PUSH2 0x1901 DUP2 PUSH2 0x201E JUMP JUMPDEST PUSH2 0xEB3 DUP3 PUSH1 0x0 PUSH2 0x202B JUMP JUMPDEST PUSH1 0x0 DUP1 MLOAD PUSH1 0x20 PUSH2 0x5F3B DUP4 CODECOPY DUP2 MLOAD SWAP2 MSTORE PUSH2 0x1924 DUP2 PUSH2 0x201E JUMP JUMPDEST PUSH1 0x13 SLOAD PUSH1 0x1 PUSH1 0xA0 SHL SWAP1 DIV PUSH1 0xFF AND ISZERO ISZERO PUSH1 0x1 SUB PUSH2 0x1953 JUMPI PUSH1 0x40 MLOAD PUSH4 0xF3C3867 PUSH1 0xE0 SHL DUP2 MSTORE PUSH1 0x4 ADD PUSH1 0x40 MLOAD DUP1 SWAP2 SUB SWAP1 REVERT JUMPDEST PUSH1 0xE SLOAD PUSH1 0x1 PUSH1 0x1 PUSH1 0xA0 SHL SUB AND ISZERO PUSH2 0x197D JUMPI PUSH1 0x40 MLOAD PUSH4 0x64B99911 PUSH1 0xE1 SHL DUP2 MSTORE PUSH1 0x4 ADD PUSH1 0x40 MLOAD DUP1 SWAP2 SUB SWAP1 REVERT JUMPDEST PUSH1 0xC DUP3 SWAP1 SSTORE PUSH1 0x40 MLOAD PUSH1 0x0 DUP1 MLOAD PUSH1 0x20 PUSH2 0x5DBB DUP4 CODECOPY DUP2 MLOAD SWAP2 MSTORE SWAP1 PUSH2 0x1738 SWAP1 DUP5 SWAP1 PUSH2 0x4ECA JUMP JUMPDEST PUSH1 0x0 DUP1 PUSH2 0x19AC DUP4 PUSH2 0x2648 JUMP JUMPDEST SWAP1 POP PUSH2 0xE7C DUP2 PUSH1 0x0 PUSH2 0x1F70 JUMP JUMPDEST PUSH1 0x0 PUSH2 0xD91 DUP3 PUSH1 0x0 PUSH2 0x1F70 JUMP JUMPDEST PUSH1 0x0 DUP1 MLOAD PUSH1 0x20 PUSH2 0x5DFB DUP4 CODECOPY DUP2 MLOAD SWAP2 MSTORE PUSH2 0x19DE DUP2 PUSH2 0x201E JUMP JUMPDEST PUSH1 0x0 DUP3 DUP2 MSTORE PUSH1 0x11 PUSH1 0x20 MSTORE PUSH1 0x40 SWAP1 KECCAK256 DUP1 SLOAD PUSH1 0xFF NOT AND SWAP1 SSTORE PUSH1 0x1 JUMPDEST PUSH1 0x40 MLOAD DUP4 SWAP1 PUSH32 0x9F6D8CEB5FE3A6380949B0777BD5802511579B6FBBC87194C108A91D372F9527 SWAP1 PUSH1 0x0 SWAP1 LOG3 POP POP JUMP JUMPDEST PUSH1 0x0 PUSH2 0x1A37 DUP9 DUP9 DUP9 DUP9 DUP9 DUP9 DUP9 PUSH2 0x36BC JUMP JUMPDEST SWAP1 POP JUMPDEST SWAP8 SWAP7 POP POP POP POP POP POP POP JUMP JUMPDEST PUSH1 0x0 DUP1 MLOAD PUSH1 0x20 PUSH2 0x5DFB DUP4 CODECOPY DUP2 MLOAD SWAP2 MSTORE PUSH2 0x1A5D DUP2 PUSH2 0x201E JUMP JUMPDEST PUSH1 0x0 DUP3 DUP2 MSTORE PUSH1 0x11 PUSH1 0x20 MSTORE PUSH1 0x40 DUP2 KECCAK256 DUP1 SLOAD PUSH1 0xFF NOT AND PUSH1 0x1 OR SWAP1 SSTORE PUSH2 0x19F7 JUMP JUMPDEST PUSH2 0x1A84 DUP3 PUSH2 0xF33 JUMP JUMPDEST PUSH2 0x1A8D DUP2 PUSH2 0x201E JUMP JUMPDEST PUSH2 0x1008 DUP4 DUP4 PUSH2 0x2595 JUMP JUMPDEST PUSH1 0x0 PUSH2 0x1AA1 PUSH2 0x1D7C JUMP JUMPDEST PUSH1 0x0 PUSH2 0x1AAE DUP8 PUSH1 0x1 PUSH2 0x1F70 JUMP JUMPDEST SWAP1 POP PUSH2 0x1ABF CALLER DUP8 DUP8 DUP11 DUP6 DUP10 DUP10 PUSH2 0x1E3B JUMP JUMPDEST POP SWAP1 POP PUSH2 0xDCB PUSH1 0x1 DUP1 SSTORE JUMP JUMPDEST PUSH1 0x0 PUSH2 0xD5B PUSH2 0x32A5 JUMP JUMPDEST PUSH1 0x0 DUP1 MLOAD PUSH1 0x20 PUSH2 0x5EDB DUP4 CODECOPY DUP2 MLOAD SWAP2 MSTORE PUSH2 0x1AED DUP2 PUSH2 0x201E JUMP JUMPDEST PUSH32 0x0 DUP3 GT ISZERO PUSH2 0x1B2E JUMPI PUSH1 0x40 MLOAD PUSH4 0xFDFBB0B7 PUSH1 0xE0 SHL DUP2 MSTORE PUSH1 0x4 ADD PUSH1 0x40 MLOAD DUP1 SWAP2 SUB SWAP1 REVERT JUMPDEST DUP2 PUSH1 0x0 SUB PUSH2 0x1B5A JUMPI ADDRESS PUSH1 0x0 DUP2 DUP2 MSTORE PUSH1 0x6 PUSH1 0x20 MSTORE PUSH1 0x40 SWAP1 KECCAK256 SLOAD PUSH2 0x1B4F SWAP2 PUSH2 0x38AC JUMP JUMPDEST PUSH1 0x0 PUSH1 0x16 DUP2 SWAP1 SSTORE PUSH1 0x15 SSTORE JUMPDEST PUSH1 0x14 DUP3 SWAP1 SSTORE PUSH1 0x40 MLOAD PUSH32 0xF361AED463DA6FA20358E45C6209F1D3E16D4ECA706E6EAB0B0AEB338729C77A SWAP1 PUSH2 0x1738 SWAP1 DUP5 SWAP1 PUSH2 0x4ECA JUMP JUMPDEST PUSH1 0x0 DUP1 MLOAD PUSH1 0x20 PUSH2 0x5D5B DUP4 CODECOPY DUP2 MLOAD SWAP2 MSTORE PUSH2 0x1BA7 DUP2 PUSH2 0x201E JUMP JUMPDEST PUSH1 0x13 SLOAD PUSH1 0x1 PUSH1 0xA0 SHL SWAP1 DIV PUSH1 0xFF AND ISZERO ISZERO PUSH1 0x1 SUB PUSH2 0x1BD6 JUMPI PUSH1 0x40 MLOAD PUSH4 0x631BC21 PUSH1 0xE5 SHL DUP2 MSTORE PUSH1 0x4 ADD PUSH1 0x40 MLOAD DUP1 SWAP2 SUB SWAP1 REVERT JUMPDEST PUSH1 0x13 DUP1 SLOAD PUSH1 0xFF PUSH1 0xA0 SHL NOT AND PUSH1 0x1 PUSH1 0xA0 SHL OR SWAP1 SSTORE PUSH1 0xE SLOAD PUSH1 0x1 PUSH1 0x1 PUSH1 0xA0 SHL SUB AND ISZERO PUSH2 0x1C24 JUMPI PUSH1 0xE DUP1 SLOAD PUSH1 0x1 PUSH1 0x1 PUSH1 0xA0 SHL SUB NOT AND SWAP1 SSTORE PUSH1 0x40 MLOAD PUSH1 0x0 SWAP1 PUSH1 0x0 DUP1 MLOAD PUSH1 0x20 PUSH2 0x5D3B DUP4 CODECOPY DUP2 MLOAD SWAP2 MSTORE SWAP1 DUP3 SWAP1 LOG2 JUMPDEST PUSH1 0x0 PUSH1 0xC DUP2 SWAP1 SSTORE PUSH1 0x40 MLOAD PUSH1 0x0 DUP1 MLOAD PUSH1 0x20 PUSH2 0x5DBB DUP4 CODECOPY DUP2 MLOAD SWAP2 MSTORE SWAP2 PUSH2 0x1C47 SWAP2 PUSH2 0x5845 JUMP JUMPDEST PUSH1 0x40 MLOAD DUP1 SWAP2 SUB SWAP1 LOG1 PUSH2 0x1C67 CALLER PUSH1 0x0 DUP1 MLOAD PUSH1 0x20 PUSH2 0x5CBB DUP4 CODECOPY DUP2 MLOAD SWAP2 MSTORE PUSH2 0x1829 JUMP JUMPDEST PUSH1 0x40 MLOAD PUSH32 0x4426AA1FB73E391071491FCFE21A88B5C38A0A0333A1F6E77161470439704CF8 SWAP1 PUSH1 0x0 SWAP1 LOG1 POP JUMP JUMPDEST PUSH1 0x0 DUP1 MLOAD PUSH1 0x20 PUSH2 0x5E1B DUP4 CODECOPY DUP2 MLOAD SWAP2 MSTORE PUSH2 0x1CAB DUP2 PUSH2 0x201E JUMP JUMPDEST PUSH1 0x1 PUSH1 0x1 PUSH1 0xA0 SHL SUB DUP4 AND PUSH1 0x0 SWAP1 DUP2 MSTORE PUSH1 0x3 PUSH1 0x20 MSTORE PUSH1 0x40 DUP2 KECCAK256 SLOAD SWAP1 SUB PUSH2 0x1CE3 JUMPI PUSH1 0x40 MLOAD PUSH4 0x631BC21 PUSH1 0xE5 SHL DUP2 MSTORE PUSH1 0x4 ADD PUSH1 0x40 MLOAD DUP1 SWAP2 SUB SWAP1 REVERT JUMPDEST PUSH1 0x1 PUSH1 0x1 PUSH1 0xA0 SHL SUB DUP4 AND PUSH1 0x0 DUP2 DUP2 MSTORE PUSH1 0x3 PUSH1 0x20 DUP2 SWAP1 MSTORE PUSH1 0x40 SWAP2 DUP3 SWAP1 KECCAK256 ADD DUP5 SWAP1 SSTORE MLOAD CALLER SWAP1 PUSH32 0xB3EEF2123FEC1523A6BBC90ACEB203000154C1A4974335FE06B544C7534D4B89 SWAP1 PUSH2 0x1D33 SWAP1 DUP7 SWAP1 PUSH2 0x4ECA JUMP JUMPDEST PUSH1 0x40 MLOAD DUP1 SWAP2 SUB SWAP1 LOG3 POP POP POP JUMP JUMPDEST PUSH1 0x4 DUP2 DUP2 SLOAD DUP2 LT PUSH2 0x1D50 JUMPI PUSH1 0x0 DUP1 REVERT JUMPDEST PUSH1 0x0 SWAP2 DUP3 MSTORE PUSH1 0x20 SWAP1 SWAP2 KECCAK256 ADD SLOAD PUSH1 0x1 PUSH1 0x1 PUSH1 0xA0 SHL SUB AND SWAP1 POP DUP2 JUMP JUMPDEST PUSH1 0x0 PUSH1 0x9 SLOAD PUSH1 0xA SLOAD PUSH2 0xD5B SWAP2 SWAP1 PUSH2 0x563D JUMP JUMPDEST PUSH1 0x2 PUSH1 0x1 SLOAD SUB PUSH2 0x1D9E JUMPI PUSH1 0x40 MLOAD PUSH3 0x461BCD PUSH1 0xE5 SHL DUP2 MSTORE PUSH1 0x4 ADD PUSH2 0x1083 SWAP1 PUSH2 0x588A JUMP JUMPDEST PUSH1 0x2 PUSH1 0x1 SSTORE JUMP JUMPDEST PUSH1 0x0 PUSH1 0x0 NOT DUP4 EQ DUP1 PUSH2 0x1DB5 JUMPI POP DUP3 ISZERO JUMPDEST ISZERO PUSH2 0x1DC1 JUMPI POP DUP2 PUSH2 0xD91 JUMP JUMPDEST PUSH1 0x0 PUSH2 0x1DCB PUSH2 0x2093 JUMP JUMPDEST SWAP1 POP DUP1 PUSH1 0x0 SUB PUSH2 0x1DDE JUMPI DUP4 SWAP2 POP POP PUSH2 0xD91 JUMP JUMPDEST PUSH1 0x0 PUSH2 0x1DE8 PUSH2 0x1D6A JUMP JUMPDEST PUSH2 0x1DF2 SWAP1 DUP7 PUSH2 0x55E1 JUMP JUMPDEST SWAP1 POP PUSH1 0x0 PUSH2 0x1E00 DUP4 DUP4 PUSH2 0x5616 JUMP JUMPDEST SWAP1 POP PUSH1 0x1 DUP6 PUSH1 0x1 DUP2 GT ISZERO PUSH2 0x1E16 JUMPI PUSH2 0x1E16 PUSH2 0x581A JUMP JUMPDEST EQ DUP1 ISZERO PUSH2 0x1E2B JUMPI POP PUSH2 0x1E28 DUP4 DUP4 PUSH2 0x589A JUMP JUMPDEST ISZERO ISZERO JUMPDEST ISZERO PUSH2 0xDCB JUMPI PUSH2 0x1051 PUSH1 0x1 DUP3 PUSH2 0x563D JUMP JUMPDEST PUSH1 0x0 PUSH2 0x1E49 DUP8 DUP8 DUP7 DUP7 PUSH2 0x3963 JUMP JUMPDEST PUSH2 0x1E54 DUP7 DUP10 DUP7 PUSH2 0x3A07 JUMP JUMPDEST PUSH1 0x0 DUP1 PUSH2 0x1E61 DUP8 DUP6 PUSH2 0x3A2B JUMP JUMPDEST SWAP2 POP SWAP2 POP PUSH2 0x1E74 DUP10 DUP10 DUP9 DUP11 DUP7 DUP7 DUP12 PUSH2 0x407F JUMP JUMPDEST DUP8 PUSH1 0x1 PUSH1 0x1 PUSH1 0xA0 SHL SUB AND DUP10 PUSH1 0x1 PUSH1 0x1 PUSH1 0xA0 SHL SUB AND DUP12 PUSH1 0x1 PUSH1 0x1 PUSH1 0xA0 SHL SUB AND PUSH32 0xFBDE797D201C681B91056529119E0B02407C7BB96A4A2C75C01FC9667232C8DB DUP6 DUP11 PUSH1 0x40 MLOAD PUSH2 0x1EC3 SWAP3 SWAP2 SWAP1 PUSH2 0x541A JUMP JUMPDEST PUSH1 0x40 MLOAD DUP1 SWAP2 SUB SWAP1 LOG4 POP SWAP9 SWAP8 POP POP POP POP POP POP POP POP JUMP JUMPDEST PUSH1 0x0 PUSH1 0x1 PUSH1 0x1 PUSH1 0xA0 SHL SUB DUP5 AND ISZERO DUP1 PUSH2 0x1EF7 JUMPI POP PUSH1 0x1 PUSH1 0x1 PUSH1 0xA0 SHL SUB DUP4 AND ISZERO JUMPDEST ISZERO PUSH2 0x1F15 JUMPI PUSH1 0x40 MLOAD PUSH4 0xD92E233D PUSH1 0xE0 SHL DUP2 MSTORE PUSH1 0x4 ADD PUSH1 0x40 MLOAD DUP1 SWAP2 SUB SWAP1 REVERT JUMPDEST PUSH1 0x1 PUSH1 0x1 PUSH1 0xA0 SHL SUB DUP1 DUP6 AND PUSH1 0x0 DUP2 DUP2 MSTORE PUSH1 0x7 PUSH1 0x20 SWAP1 DUP2 MSTORE PUSH1 0x40 DUP1 DUP4 KECCAK256 SWAP5 DUP9 AND DUP1 DUP5 MSTORE SWAP5 SWAP1 SWAP2 MSTORE SWAP1 DUP2 SWAP1 KECCAK256 DUP6 SWAP1 SSTORE MLOAD PUSH1 0x0 DUP1 MLOAD PUSH1 0x20 PUSH2 0x5E7B DUP4 CODECOPY DUP2 MLOAD SWAP2 MSTORE SWAP1 PUSH2 0x1F5E SWAP1 DUP7 SWAP1 PUSH2 0x4ECA JUMP JUMPDEST PUSH1 0x40 MLOAD DUP1 SWAP2 SUB SWAP1 LOG3 POP PUSH1 0x1 SWAP4 SWAP3 POP POP POP JUMP JUMPDEST PUSH1 0x0 PUSH1 0x0 NOT DUP4 EQ DUP1 PUSH2 0x1F80 JUMPI POP DUP3 ISZERO JUMPDEST ISZERO PUSH2 0x1F8C JUMPI POP DUP2 PUSH2 0xD91 JUMP JUMPDEST PUSH1 0x0 PUSH2 0x1F96 PUSH2 0x2093 JUMP JUMPDEST SWAP1 POP PUSH1 0x0 PUSH2 0x1FA2 PUSH2 0x1D6A JUMP JUMPDEST SWAP1 POP DUP1 PUSH1 0x0 SUB PUSH2 0x1FC9 JUMPI DUP2 PUSH1 0x0 SUB PUSH2 0x1FBE JUMPI DUP5 SWAP3 POP POP POP PUSH2 0xD91 JUMP JUMPDEST PUSH1 0x0 SWAP3 POP POP POP PUSH2 0xD91 JUMP JUMPDEST PUSH1 0x0 PUSH2 0x1FD5 DUP4 DUP8 PUSH2 0x55E1 JUMP JUMPDEST SWAP1 POP PUSH1 0x0 PUSH2 0x1FE3 DUP4 DUP4 PUSH2 0x5616 JUMP JUMPDEST SWAP1 POP PUSH1 0x1 DUP7 PUSH1 0x1 DUP2 GT ISZERO PUSH2 0x1FF9 JUMPI PUSH2 0x1FF9 PUSH2 0x581A JUMP JUMPDEST EQ DUP1 ISZERO PUSH2 0x200E JUMPI POP PUSH2 0x200B DUP4 DUP4 PUSH2 0x589A JUMP JUMPDEST ISZERO ISZERO JUMPDEST ISZERO PUSH2 0x1051 JUMPI PUSH2 0x1A3A PUSH1 0x1 DUP3 PUSH2 0x563D JUMP JUMPDEST PUSH2 0x2028 DUP2 CALLER PUSH2 0x411F JUMP JUMPDEST POP JUMP JUMPDEST PUSH1 0x2 SLOAD PUSH1 0x40 MLOAD PUSH4 0x7A163BD7 PUSH1 0xE1 SHL DUP2 MSTORE PUSH1 0x1 PUSH1 0x1 PUSH1 0xA0 SHL SUB SWAP1 SWAP2 AND SWAP1 PUSH4 0xF42C77AE SWAP1 PUSH2 0x205D SWAP1 DUP6 SWAP1 DUP6 SWAP1 PUSH1 0x4 ADD PUSH2 0x58AE JUMP JUMPDEST PUSH1 0x0 PUSH1 0x40 MLOAD DUP1 DUP4 SUB DUP2 PUSH1 0x0 DUP8 DUP1 EXTCODESIZE ISZERO DUP1 ISZERO PUSH2 0x2077 JUMPI PUSH1 0x0 DUP1 REVERT JUMPDEST POP GAS CALL ISZERO DUP1 ISZERO PUSH2 0x208B JUMPI RETURNDATASIZE PUSH1 0x0 DUP1 RETURNDATACOPY RETURNDATASIZE PUSH1 0x0 REVERT JUMPDEST POP POP POP POP POP POP JUMP JUMPDEST PUSH1 0x0 PUSH2 0x209D PUSH2 0x32A5 JUMP JUMPDEST PUSH1 0x8 SLOAD PUSH2 0xD5B SWAP2 SWAP1 PUSH2 0x562A JUMP JUMPDEST PUSH1 0x2 SLOAD PUSH1 0x40 MLOAD PUSH4 0x223E5479 PUSH1 0xE0 SHL DUP2 MSTORE PUSH1 0x1 PUSH1 0x1 PUSH1 0xA0 SHL SUB SWAP1 SWAP2 AND SWAP1 PUSH4 0x223E5479 SWAP1 PUSH2 0x20DA SWAP1 DUP5 SWAP1 PUSH1 0x4 ADD PUSH2 0x4EB6 JUMP JUMPDEST PUSH1 0x0 PUSH1 0x40 MLOAD DUP1 DUP4 SUB DUP2 PUSH1 0x0 DUP8 DUP1 EXTCODESIZE ISZERO DUP1 ISZERO PUSH2 0x20F4 JUMPI PUSH1 0x0 DUP1 REVERT JUMPDEST POP GAS CALL ISZERO DUP1 ISZERO PUSH2 0x2108 JUMPI RETURNDATASIZE PUSH1 0x0 DUP1 RETURNDATACOPY RETURNDATASIZE PUSH1 0x0 REVERT JUMPDEST POP POP POP POP POP JUMP JUMPDEST PUSH1 0x0 PUSH2 0x211C DUP5 CALLER DUP5 PUSH2 0x4178 JUMP JUMPDEST PUSH2 0x2127 DUP5 DUP5 DUP5 PUSH2 0x348B JUMP JUMPDEST POP PUSH1 0x1 SWAP4 SWAP3 POP POP POP JUMP JUMPDEST PUSH2 0x213B DUP3 DUP3 PUSH2 0x1744 JUMP JUMPDEST PUSH2 0xEB3 JUMPI PUSH1 0x0 DUP3 DUP2 MSTORE PUSH1 0x20 DUP2 DUP2 MSTORE PUSH1 0x40 DUP1 DUP4 KECCAK256 PUSH1 0x1 PUSH1 0x1 PUSH1 0xA0 SHL SUB DUP6 AND DUP5 MSTORE SWAP1 SWAP2 MSTORE SWAP1 KECCAK256 DUP1 SLOAD PUSH1 0xFF NOT AND PUSH1 0x1 OR SWAP1 SSTORE PUSH2 0x2171 CALLER SWAP1 JUMP JUMPDEST PUSH1 0x1 PUSH1 0x1 PUSH1 0xA0 SHL SUB AND DUP2 PUSH1 0x1 PUSH1 0x1 PUSH1 0xA0 SHL SUB AND DUP4 PUSH32 0x2F8788117E7EFF1D82E926EC794901D17C78024A50270940304540A733656F0D PUSH1 0x40 MLOAD PUSH1 0x40 MLOAD DUP1 SWAP2 SUB SWAP1 LOG4 POP POP JUMP JUMPDEST PUSH1 0x1 PUSH1 0x1 PUSH1 0xA0 SHL SUB DUP4 AND PUSH1 0x0 SWAP1 DUP2 MSTORE PUSH1 0x6 PUSH1 0x20 MSTORE PUSH1 0x40 DUP2 KECCAK256 SLOAD DUP2 SWAP1 PUSH2 0x21DA SWAP1 DUP3 PUSH2 0x1DA5 JUMP JUMPDEST PUSH1 0xF SLOAD SWAP1 SWAP2 POP PUSH1 0x1 PUSH1 0x1 PUSH1 0xA0 SHL SUB AND ISZERO PUSH2 0x227C JUMPI PUSH1 0xF SLOAD PUSH1 0x40 MLOAD PUSH4 0x2319B8CF PUSH1 0xE0 SHL DUP2 MSTORE PUSH1 0x0 SWAP2 PUSH1 0x1 PUSH1 0x1 PUSH1 0xA0 SHL SUB AND SWAP1 PUSH4 0x2319B8CF SWAP1 PUSH2 0x2223 SWAP1 DUP10 SWAP1 DUP10 SWAP1 DUP10 SWAP1 PUSH1 0x4 ADD PUSH2 0x5907 JUMP JUMPDEST PUSH1 0x20 PUSH1 0x40 MLOAD DUP1 DUP4 SUB DUP2 PUSH1 0x0 DUP8 GAS CALL ISZERO DUP1 ISZERO PUSH2 0x2242 JUMPI RETURNDATASIZE PUSH1 0x0 DUP1 RETURNDATACOPY RETURNDATASIZE PUSH1 0x0 REVERT JUMPDEST POP POP POP POP PUSH1 0x40 MLOAD RETURNDATASIZE PUSH1 0x1F NOT PUSH1 0x1F DUP3 ADD AND DUP3 ADD DUP1 PUSH1 0x40 MSTORE POP DUP2 ADD SWAP1 PUSH2 0x2266 SWAP2 SWAP1 PUSH2 0x55AA JUMP JUMPDEST SWAP1 POP DUP2 DUP2 LT ISZERO PUSH2 0x2274 JUMPI DUP1 SWAP2 POP JUMPDEST POP SWAP1 POP PUSH2 0xE7C JUMP JUMPDEST PUSH1 0xA SLOAD DUP1 DUP3 GT ISZERO PUSH2 0x2576 JUMPI DUP4 MLOAD DUP2 SWAP1 PUSH1 0x0 SWAP1 DUP2 SWAP1 ISZERO DUP1 ISZERO SWAP1 PUSH2 0x22A1 JUMPI POP PUSH1 0x5 SLOAD PUSH1 0xFF AND ISZERO JUMPDEST PUSH2 0x2305 JUMPI PUSH1 0x4 DUP1 SLOAD DUP1 PUSH1 0x20 MUL PUSH1 0x20 ADD PUSH1 0x40 MLOAD SWAP1 DUP2 ADD PUSH1 0x40 MSTORE DUP1 SWAP3 SWAP2 SWAP1 DUP2 DUP2 MSTORE PUSH1 0x20 ADD DUP3 DUP1 SLOAD DUP1 ISZERO PUSH2 0x22FB JUMPI PUSH1 0x20 MUL DUP3 ADD SWAP2 SWAP1 PUSH1 0x0 MSTORE PUSH1 0x20 PUSH1 0x0 KECCAK256 SWAP1 JUMPDEST DUP2 SLOAD PUSH1 0x1 PUSH1 0x1 PUSH1 0xA0 SHL SUB AND DUP2 MSTORE PUSH1 0x1 SWAP1 SWAP2 ADD SWAP1 PUSH1 0x20 ADD DUP1 DUP4 GT PUSH2 0x22DD JUMPI JUMPDEST POP POP POP POP POP PUSH2 0x2307 JUMP JUMPDEST DUP7 JUMPDEST SWAP1 POP PUSH1 0x0 JUMPDEST DUP2 MLOAD DUP2 LT ISZERO PUSH2 0x256F JUMPI PUSH1 0x0 DUP3 DUP3 DUP2 MLOAD DUP2 LT PUSH2 0x2329 JUMPI PUSH2 0x2329 PUSH2 0x5650 JUMP JUMPDEST PUSH1 0x20 MUL PUSH1 0x20 ADD ADD MLOAD SWAP1 POP PUSH1 0x3 PUSH1 0x0 DUP3 PUSH1 0x1 PUSH1 0x1 PUSH1 0xA0 SHL SUB AND PUSH1 0x1 PUSH1 0x1 PUSH1 0xA0 SHL SUB AND DUP2 MSTORE PUSH1 0x20 ADD SWAP1 DUP2 MSTORE PUSH1 0x20 ADD PUSH1 0x0 KECCAK256 PUSH1 0x0 ADD SLOAD PUSH1 0x0 SUB PUSH2 0x237C JUMPI PUSH1 0x40 MLOAD PUSH4 0x631BC21 PUSH1 0xE5 SHL DUP2 MSTORE PUSH1 0x4 ADD PUSH1 0x40 MLOAD DUP1 SWAP2 SUB SWAP1 REVERT JUMPDEST PUSH1 0x0 PUSH2 0x23AC PUSH2 0x238B DUP8 DUP11 PUSH2 0x562A JUMP JUMPDEST PUSH1 0x1 PUSH1 0x1 PUSH1 0xA0 SHL SUB DUP5 AND PUSH1 0x0 SWAP1 DUP2 MSTORE PUSH1 0x3 PUSH1 0x20 MSTORE PUSH1 0x40 SWAP1 KECCAK256 PUSH1 0x2 ADD SLOAD PUSH2 0x257F JUMP JUMPDEST SWAP1 POP PUSH1 0x0 PUSH2 0x23BA DUP4 DUP4 PUSH2 0x2FF7 JUMP JUMPDEST SWAP1 POP PUSH1 0x0 DUP4 PUSH1 0x1 PUSH1 0x1 PUSH1 0xA0 SHL SUB AND PUSH4 0x7A2D13A DUP6 PUSH1 0x1 PUSH1 0x1 PUSH1 0xA0 SHL SUB AND PUSH4 0xD905777E ADDRESS PUSH1 0x40 MLOAD DUP3 PUSH4 0xFFFFFFFF AND PUSH1 0xE0 SHL DUP2 MSTORE PUSH1 0x4 ADD PUSH2 0x23F9 SWAP2 SWAP1 PUSH2 0x4EB6 JUMP JUMPDEST PUSH1 0x20 PUSH1 0x40 MLOAD DUP1 DUP4 SUB DUP2 DUP7 GAS STATICCALL ISZERO DUP1 ISZERO PUSH2 0x2416 JUMPI RETURNDATASIZE PUSH1 0x0 DUP1 RETURNDATACOPY RETURNDATASIZE PUSH1 0x0 REVERT JUMPDEST POP POP POP POP PUSH1 0x40 MLOAD RETURNDATASIZE PUSH1 0x1F NOT PUSH1 0x1F DUP3 ADD AND DUP3 ADD DUP1 PUSH1 0x40 MSTORE POP DUP2 ADD SWAP1 PUSH2 0x243A SWAP2 SWAP1 PUSH2 0x55AA JUMP JUMPDEST PUSH1 0x40 MLOAD DUP3 PUSH4 0xFFFFFFFF AND PUSH1 0xE0 SHL DUP2 MSTORE PUSH1 0x4 ADD PUSH2 0x2456 SWAP2 SWAP1 PUSH2 0x4ECA JUMP JUMPDEST PUSH1 0x20 PUSH1 0x40 MLOAD DUP1 DUP4 SUB DUP2 DUP7 GAS STATICCALL ISZERO DUP1 ISZERO PUSH2 0x2473 JUMPI RETURNDATASIZE PUSH1 0x0 DUP1 RETURNDATACOPY RETURNDATASIZE PUSH1 0x0 REVERT JUMPDEST POP POP POP POP PUSH1 0x40 MLOAD RETURNDATASIZE PUSH1 0x1F NOT PUSH1 0x1F DUP3 ADD AND DUP3 ADD DUP1 PUSH1 0x40 MSTORE POP DUP2 ADD SWAP1 PUSH2 0x2497 SWAP2 SWAP1 PUSH2 0x55AA JUMP JUMPDEST SWAP1 POP PUSH2 0x24A3 DUP3 DUP5 PUSH2 0x562A JUMP JUMPDEST DUP2 LT ISZERO PUSH2 0x24CE JUMPI DUP3 PUSH2 0x24B5 DUP3 DUP5 PUSH2 0x55E1 JUMP JUMPDEST PUSH2 0x24BF SWAP2 SWAP1 PUSH2 0x5616 JUMP JUMPDEST SWAP2 POP PUSH2 0x24CB DUP3 DUP3 PUSH2 0x563D JUMP JUMPDEST SWAP3 POP JUMPDEST DUP3 PUSH1 0x0 SUB PUSH2 0x24DF JUMPI POP POP POP POP PUSH2 0x255D JUMP JUMPDEST PUSH1 0x0 DUP3 GT DUP1 ISZERO PUSH2 0x24F0 JUMPI POP PUSH2 0x2710 DUP14 LT JUMPDEST ISZERO PUSH2 0x2530 JUMPI PUSH2 0x2710 DUP14 PUSH2 0x2503 DUP6 DUP12 PUSH2 0x563D JUMP JUMPDEST PUSH2 0x250D SWAP2 SWAP1 PUSH2 0x55E1 JUMP JUMPDEST PUSH2 0x2517 SWAP2 SWAP1 PUSH2 0x5616 JUMP JUMPDEST PUSH2 0x2521 DUP4 DUP10 PUSH2 0x563D JUMP JUMPDEST GT ISZERO PUSH2 0x2530 JUMPI POP POP POP POP PUSH2 0x256F JUMP JUMPDEST PUSH2 0x253A DUP4 DUP10 PUSH2 0x563D JUMP JUMPDEST SWAP8 POP DUP10 DUP9 LT PUSH2 0x254C JUMPI POP POP POP POP PUSH2 0x256F JUMP JUMPDEST PUSH2 0x2556 DUP3 DUP9 PUSH2 0x563D JUMP JUMPDEST SWAP7 POP POP POP POP POP JUMPDEST DUP1 PUSH2 0x2567 DUP2 PUSH2 0x5666 JUMP JUMPDEST SWAP2 POP POP PUSH2 0x230C JUMP JUMPDEST POP SWAP2 SWAP4 POP POP POP JUMPDEST POP SWAP5 SWAP4 POP POP POP POP JUMP JUMPDEST PUSH1 0x0 DUP2 DUP4 LT PUSH2 0x258E JUMPI DUP2 PUSH2 0xE7C JUMP JUMPDEST POP SWAP1 SWAP2 SWAP1 POP JUMP JUMPDEST PUSH2 0x259F DUP3 DUP3 PUSH2 0x1744 JUMP JUMPDEST ISZERO PUSH2 0xEB3 JUMPI PUSH1 0x0 DUP3 DUP2 MSTORE PUSH1 0x20 DUP2 DUP2 MSTORE PUSH1 0x40 DUP1 DUP4 KECCAK256 PUSH1 0x1 PUSH1 0x1 PUSH1 0xA0 SHL SUB DUP6 AND DUP1 DUP6 MSTORE SWAP3 MSTORE DUP1 DUP4 KECCAK256 DUP1 SLOAD PUSH1 0xFF NOT AND SWAP1 SSTORE MLOAD CALLER SWAP3 DUP6 SWAP2 PUSH32 0xF6391F5C32D9C69D2A47EA670B442974B53935D1EDC7FD64EB21E047A839171B SWAP2 SWAP1 LOG4 POP POP JUMP JUMPDEST PUSH1 0x1 PUSH1 0x1 PUSH1 0xA0 SHL SUB DUP1 DUP5 AND PUSH1 0x0 SWAP1 DUP2 MSTORE PUSH1 0x7 PUSH1 0x20 SWAP1 DUP2 MSTORE PUSH1 0x40 DUP1 DUP4 KECCAK256 SWAP4 DUP7 AND DUP4 MSTORE SWAP3 SWAP1 MSTORE SWAP1 DUP2 KECCAK256 SLOAD DUP2 SWAP1 PUSH2 0x262F SWAP1 DUP5 SWAP1 PUSH2 0x563D JUMP JUMPDEST SWAP1 POP PUSH2 0x263C DUP6 DUP6 DUP4 PUSH2 0x1ED8 JUMP JUMPDEST POP PUSH1 0x1 SWAP6 SWAP5 POP POP POP POP POP JUMP JUMPDEST PUSH1 0x0 PUSH1 0x1 PUSH1 0x1 PUSH1 0xA0 SHL SUB DUP3 AND ADDRESS EQ DUP1 PUSH2 0x2668 JUMPI POP PUSH1 0x1 PUSH1 0x1 PUSH1 0xA0 SHL SUB DUP3 AND ISZERO JUMPDEST ISZERO PUSH2 0x2675 JUMPI POP PUSH1 0x0 SWAP2 SWAP1 POP JUMP JUMPDEST PUSH1 0xE SLOAD PUSH1 0x1 PUSH1 0x1 PUSH1 0xA0 SHL SUB AND DUP1 ISZERO PUSH2 0x26F4 JUMPI PUSH1 0x40 MLOAD PUSH4 0x23551789 PUSH1 0xE1 SHL DUP2 MSTORE PUSH1 0x1 PUSH1 0x1 PUSH1 0xA0 SHL SUB DUP3 AND SWAP1 PUSH4 0x46AA2F12 SWAP1 PUSH2 0x26B3 SWAP1 DUP7 SWAP1 PUSH1 0x4 ADD PUSH2 0x4EB6 JUMP JUMPDEST PUSH1 0x20 PUSH1 0x40 MLOAD DUP1 DUP4 SUB DUP2 DUP7 GAS STATICCALL ISZERO DUP1 ISZERO PUSH2 0x26D0 JUMPI RETURNDATASIZE PUSH1 0x0 DUP1 RETURNDATACOPY RETURNDATASIZE PUSH1 0x0 REVERT JUMPDEST POP POP POP POP PUSH1 0x40 MLOAD RETURNDATASIZE PUSH1 0x1F NOT PUSH1 0x1F DUP3 ADD AND DUP3 ADD DUP1 PUSH1 0x40 MSTORE POP DUP2 ADD SWAP1 PUSH2 0xE7C SWAP2 SWAP1 PUSH2 0x55AA JUMP JUMPDEST PUSH1 0x0 PUSH2 0x26FE PUSH2 0x1D6A JUMP JUMPDEST PUSH1 0xC SLOAD SWAP1 SWAP2 POP DUP1 DUP3 LT PUSH2 0x2716 JUMPI POP PUSH1 0x0 SWAP5 SWAP4 POP POP POP POP JUMP JUMPDEST PUSH2 0xDCB DUP3 DUP3 PUSH2 0x562A JUMP JUMPDEST PUSH1 0x1 PUSH1 0x1 PUSH1 0xA0 SHL SUB DUP5 AND ISZERO DUP1 PUSH2 0x273D JUMPI POP PUSH1 0x1 PUSH1 0x1 PUSH1 0xA0 SHL SUB DUP4 AND ISZERO JUMPDEST DUP1 PUSH2 0x274F JUMPI POP PUSH1 0x1 PUSH1 0x1 PUSH1 0xA0 SHL SUB DUP3 AND ISZERO JUMPDEST ISZERO PUSH2 0x276D JUMPI PUSH1 0x40 MLOAD PUSH4 0xD92E233D PUSH1 0xE0 SHL DUP2 MSTORE PUSH1 0x4 ADD PUSH1 0x40 MLOAD DUP1 SWAP2 SUB SWAP1 REVERT JUMPDEST PUSH1 0x40 MLOAD PUSH4 0x23B872DD PUSH1 0xE0 SHL DUP2 MSTORE PUSH1 0x1 PUSH1 0x1 PUSH1 0xA0 SHL SUB DUP6 AND SWAP1 PUSH4 0x23B872DD SWAP1 PUSH2 0x279D SWAP1 DUP7 SWAP1 DUP7 SWAP1 DUP7 SWAP1 PUSH1 0x4 ADD PUSH2 0x5934 JUMP JUMPDEST PUSH1 0x20 PUSH1 0x40 MLOAD DUP1 DUP4 SUB DUP2 PUSH1 0x0 DUP8 GAS CALL ISZERO DUP1 ISZERO PUSH2 0x27BC JUMPI RETURNDATASIZE PUSH1 0x0 DUP1 RETURNDATACOPY RETURNDATASIZE PUSH1 0x0 REVERT JUMPDEST POP POP POP POP PUSH1 0x40 MLOAD RETURNDATASIZE PUSH1 0x1F NOT PUSH1 0x1F DUP3 ADD AND DUP3 ADD DUP1 PUSH1 0x40 MSTORE POP DUP2 ADD SWAP1 PUSH2 0x27E0 SWAP2 SWAP1 PUSH2 0x5967 JUMP JUMPDEST PUSH2 0x27FC JUMPI PUSH1 0x40 MLOAD PUSH3 0x461BCD PUSH1 0xE5 SHL DUP2 MSTORE PUSH1 0x4 ADD PUSH2 0x1083 SWAP1 PUSH2 0x59AE JUMP JUMPDEST POP POP POP POP JUMP JUMPDEST PUSH1 0x1 PUSH1 0x1 PUSH1 0xA0 SHL SUB DUP4 AND ISZERO DUP1 PUSH2 0x281F JUMPI POP PUSH1 0x1 PUSH1 0x1 PUSH1 0xA0 SHL SUB DUP3 AND ISZERO JUMPDEST ISZERO PUSH2 0x283D JUMPI PUSH1 0x40 MLOAD PUSH4 0xD92E233D PUSH1 0xE0 SHL DUP2 MSTORE PUSH1 0x4 ADD PUSH1 0x40 MLOAD DUP1 SWAP2 SUB SWAP1 REVERT JUMPDEST PUSH1 0x40 MLOAD PUSH4 0xA9059CBB PUSH1 0xE0 SHL DUP2 MSTORE PUSH1 0x1 PUSH1 0x1 PUSH1 0xA0 SHL SUB DUP5 AND SWAP1 PUSH4 0xA9059CBB SWAP1 PUSH2 0x286B SWAP1 DUP6 SWAP1 DUP6 SWAP1 PUSH1 0x4 ADD PUSH2 0x59BE JUMP JUMPDEST PUSH1 0x20 PUSH1 0x40 MLOAD DUP1 DUP4 SUB DUP2 PUSH1 0x0 DUP8 GAS CALL ISZERO DUP1 ISZERO PUSH2 0x288A JUMPI RETURNDATASIZE PUSH1 0x0 DUP1 RETURNDATACOPY RETURNDATASIZE PUSH1 0x0 REVERT JUMPDEST POP POP POP POP PUSH1 0x40 MLOAD RETURNDATASIZE PUSH1 0x1F NOT PUSH1 0x1F DUP3 ADD AND DUP3 ADD DUP1 PUSH1 0x40 MSTORE POP DUP2 ADD SWAP1 PUSH2 0x28AE SWAP2 SWAP1 PUSH2 0x5967 JUMP JUMPDEST PUSH2 0x1008 JUMPI PUSH1 0x40 MLOAD PUSH3 0x461BCD PUSH1 0xE5 SHL DUP2 MSTORE PUSH1 0x4 ADD PUSH2 0x1083 SWAP1 PUSH2 0x59AE JUMP JUMPDEST PUSH1 0x1 PUSH1 0x1 PUSH1 0xA0 SHL SUB DUP3 AND PUSH1 0x0 SWAP1 DUP2 MSTORE PUSH1 0x3 PUSH1 0x20 MSTORE PUSH1 0x40 DUP2 KECCAK256 PUSH1 0x2 ADD SLOAD PUSH1 0x13 SLOAD DUP4 SWAP2 SWAP1 PUSH1 0x1 PUSH1 0xA0 SHL SWAP1 DIV PUSH1 0xFF AND ISZERO ISZERO PUSH1 0x1 SUB PUSH2 0x2904 JUMPI PUSH1 0x0 SWAP2 POP JUMPDEST DUP1 DUP3 SUB PUSH2 0x2924 JUMPI PUSH1 0x40 MLOAD PUSH4 0x84DF06B PUSH1 0xE4 SHL DUP2 MSTORE PUSH1 0x4 ADD PUSH1 0x40 MLOAD DUP1 SWAP2 SUB SWAP1 REVERT JUMPDEST DUP2 DUP2 GT ISZERO PUSH2 0x2C38 JUMPI PUSH1 0x0 PUSH2 0x2938 DUP4 DUP4 PUSH2 0x562A JUMP JUMPDEST SWAP1 POP PUSH1 0xB SLOAD DUP2 PUSH1 0xA SLOAD PUSH2 0x294B SWAP2 SWAP1 PUSH2 0x563D JUMP JUMPDEST LT ISZERO PUSH2 0x296E JUMPI PUSH1 0xA SLOAD PUSH1 0xB SLOAD PUSH2 0x2961 SWAP2 SWAP1 PUSH2 0x562A JUMP JUMPDEST SWAP1 POP DUP2 DUP2 GT ISZERO PUSH2 0x296E JUMPI POP DUP1 JUMPDEST PUSH1 0x40 MLOAD PUSH4 0x6C82BBBF PUSH1 0xE1 SHL DUP2 MSTORE PUSH1 0x0 SWAP1 PUSH1 0x1 PUSH1 0x1 PUSH1 0xA0 SHL SUB DUP9 AND SWAP1 PUSH4 0x7A2D13A SWAP1 DUP3 SWAP1 PUSH4 0xD905777E SWAP1 PUSH2 0x29A5 SWAP1 ADDRESS SWAP1 PUSH1 0x4 ADD PUSH2 0x4EB6 JUMP JUMPDEST PUSH1 0x20 PUSH1 0x40 MLOAD DUP1 DUP4 SUB DUP2 DUP7 GAS STATICCALL ISZERO DUP1 ISZERO PUSH2 0x29C2 JUMPI RETURNDATASIZE PUSH1 0x0 DUP1 RETURNDATACOPY RETURNDATASIZE PUSH1 0x0 REVERT JUMPDEST POP POP POP POP PUSH1 0x40 MLOAD RETURNDATASIZE PUSH1 0x1F NOT PUSH1 0x1F DUP3 ADD AND DUP3 ADD DUP1 PUSH1 0x40 MSTORE POP DUP2 ADD SWAP1 PUSH2 0x29E6 SWAP2 SWAP1 PUSH2 0x55AA JUMP JUMPDEST PUSH1 0x40 MLOAD DUP3 PUSH4 0xFFFFFFFF AND PUSH1 0xE0 SHL DUP2 MSTORE PUSH1 0x4 ADD PUSH2 0x2A02 SWAP2 SWAP1 PUSH2 0x4ECA JUMP JUMPDEST PUSH1 0x20 PUSH1 0x40 MLOAD DUP1 DUP4 SUB DUP2 DUP7 GAS STATICCALL ISZERO DUP1 ISZERO PUSH2 0x2A1F JUMPI RETURNDATASIZE PUSH1 0x0 DUP1 RETURNDATACOPY RETURNDATASIZE PUSH1 0x0 REVERT JUMPDEST POP POP POP POP PUSH1 0x40 MLOAD RETURNDATASIZE PUSH1 0x1F NOT PUSH1 0x1F DUP3 ADD AND DUP3 ADD DUP1 PUSH1 0x40 MSTORE POP DUP2 ADD SWAP1 PUSH2 0x2A43 SWAP2 SWAP1 PUSH2 0x55AA JUMP JUMPDEST SWAP1 POP PUSH1 0x0 DUP2 GT PUSH2 0x2A66 JUMPI PUSH1 0x40 MLOAD PUSH4 0x7C946ED7 PUSH1 0xE0 SHL DUP2 MSTORE PUSH1 0x4 ADD PUSH1 0x40 MLOAD DUP1 SWAP2 SUB SWAP1 REVERT JUMPDEST DUP2 DUP2 LT ISZERO PUSH2 0x2A72 JUMPI DUP1 SWAP2 POP JUMPDEST PUSH1 0x0 PUSH2 0x2A7E DUP9 DUP5 PUSH2 0x2FF7 JUMP JUMPDEST SWAP1 POP DUP1 ISZERO PUSH2 0x2A9F JUMPI PUSH1 0x40 MLOAD PUSH4 0x39589FDD PUSH1 0xE2 SHL DUP2 MSTORE PUSH1 0x4 ADD PUSH1 0x40 MLOAD DUP1 SWAP2 SUB SWAP1 REVERT JUMPDEST PUSH1 0x40 MLOAD PUSH4 0x70A08231 PUSH1 0xE0 SHL DUP2 MSTORE PUSH1 0x0 SWAP1 PUSH1 0x1 PUSH1 0x1 PUSH1 0xA0 SHL SUB PUSH32 0x0 AND SWAP1 PUSH4 0x70A08231 SWAP1 PUSH2 0x2AEE SWAP1 ADDRESS SWAP1 PUSH1 0x4 ADD PUSH2 0x4EB6 JUMP JUMPDEST PUSH1 0x20 PUSH1 0x40 MLOAD DUP1 DUP4 SUB DUP2 DUP7 GAS STATICCALL ISZERO DUP1 ISZERO PUSH2 0x2B0B JUMPI RETURNDATASIZE PUSH1 0x0 DUP1 RETURNDATACOPY RETURNDATASIZE PUSH1 0x0 REVERT JUMPDEST POP POP POP POP PUSH1 0x40 MLOAD RETURNDATASIZE PUSH1 0x1F NOT PUSH1 0x1F DUP3 ADD AND DUP3 ADD DUP1 PUSH1 0x40 MSTORE POP DUP2 ADD SWAP1 PUSH2 0x2B2F SWAP2 SWAP1 PUSH2 0x55AA JUMP JUMPDEST SWAP1 POP PUSH2 0x2B3B DUP10 DUP6 PUSH2 0x41D3 JUMP JUMPDEST PUSH1 0x40 MLOAD PUSH4 0x70A08231 PUSH1 0xE0 SHL DUP2 MSTORE PUSH1 0x0 SWAP1 PUSH1 0x1 PUSH1 0x1 PUSH1 0xA0 SHL SUB PUSH32 0x0 AND SWAP1 PUSH4 0x70A08231 SWAP1 PUSH2 0x2B8A SWAP1 ADDRESS SWAP1 PUSH1 0x4 ADD PUSH2 0x4EB6 JUMP JUMPDEST PUSH1 0x20 PUSH1 0x40 MLOAD DUP1 DUP4 SUB DUP2 DUP7 GAS STATICCALL ISZERO DUP1 ISZERO PUSH2 0x2BA7 JUMPI RETURNDATASIZE PUSH1 0x0 DUP1 RETURNDATACOPY RETURNDATASIZE PUSH1 0x0 REVERT JUMPDEST POP POP POP POP PUSH1 0x40 MLOAD RETURNDATASIZE PUSH1 0x1F NOT PUSH1 0x1F DUP3 ADD AND DUP3 ADD DUP1 PUSH1 0x40 MSTORE POP DUP2 ADD SWAP1 PUSH2 0x2BCB SWAP2 SWAP1 PUSH2 0x55AA JUMP JUMPDEST SWAP1 POP PUSH1 0x0 PUSH2 0x2BE2 PUSH2 0x2BDC DUP5 DUP5 PUSH2 0x562A JUMP JUMPDEST DUP9 PUSH2 0x257F JUMP JUMPDEST SWAP1 POP DUP6 DUP2 GT ISZERO PUSH2 0x2BF0 JUMPI DUP1 SWAP6 POP JUMPDEST DUP1 PUSH1 0xA PUSH1 0x0 DUP3 DUP3 SLOAD PUSH2 0x2C02 SWAP2 SWAP1 PUSH2 0x563D JUMP JUMPDEST SWAP3 POP POP DUP2 SWAP1 SSTORE POP DUP6 PUSH1 0x9 PUSH1 0x0 DUP3 DUP3 SLOAD PUSH2 0x2C1B SWAP2 SWAP1 PUSH2 0x562A JUMP JUMPDEST SWAP1 SWAP2 SSTORE POP PUSH2 0x2C2B SWAP1 POP DUP7 DUP9 PUSH2 0x562A JUMP JUMPDEST SWAP8 POP POP POP POP POP POP POP PUSH2 0x2FA9 JUMP JUMPDEST PUSH1 0x1 PUSH1 0x1 PUSH1 0xA0 SHL SUB DUP6 AND PUSH1 0x0 SWAP1 DUP2 MSTORE PUSH1 0x3 PUSH1 0x20 DUP2 SWAP1 MSTORE PUSH1 0x40 SWAP1 SWAP2 KECCAK256 ADD SLOAD DUP3 GT ISZERO PUSH2 0x2C75 JUMPI PUSH1 0x40 MLOAD PUSH4 0xD49D8C23 PUSH1 0xE0 SHL DUP2 MSTORE PUSH1 0x4 ADD PUSH1 0x40 MLOAD DUP1 SWAP2 SUB SWAP1 REVERT JUMPDEST PUSH1 0x40 MLOAD PUSH4 0x402D267D PUSH1 0xE0 SHL DUP2 MSTORE PUSH1 0x0 SWAP1 PUSH1 0x1 PUSH1 0x1 PUSH1 0xA0 SHL SUB DUP8 AND SWAP1 PUSH4 0x402D267D SWAP1 PUSH2 0x2CA4 SWAP1 ADDRESS SWAP1 PUSH1 0x4 ADD PUSH2 0x4EB6 JUMP JUMPDEST PUSH1 0x20 PUSH1 0x40 MLOAD DUP1 DUP4 SUB DUP2 DUP7 GAS STATICCALL ISZERO DUP1 ISZERO PUSH2 0x2CC1 JUMPI RETURNDATASIZE PUSH1 0x0 DUP1 RETURNDATACOPY RETURNDATASIZE PUSH1 0x0 REVERT JUMPDEST POP POP POP POP PUSH1 0x40 MLOAD RETURNDATASIZE PUSH1 0x1F NOT PUSH1 0x1F DUP3 ADD AND DUP3 ADD DUP1 PUSH1 0x40 MSTORE POP DUP2 ADD SWAP1 PUSH2 0x2CE5 SWAP2 SWAP1 PUSH2 0x55AA JUMP JUMPDEST SWAP1 POP PUSH1 0x0 DUP2 GT PUSH2 0x2D08 JUMPI PUSH1 0x40 MLOAD PUSH4 0x7C946ED7 PUSH1 0xE0 SHL DUP2 MSTORE PUSH1 0x4 ADD PUSH1 0x40 MLOAD DUP1 SWAP2 SUB SWAP1 REVERT JUMPDEST PUSH1 0x0 PUSH2 0x2D14 DUP4 DUP6 PUSH2 0x562A JUMP JUMPDEST SWAP1 POP DUP2 DUP2 GT ISZERO PUSH2 0x2D21 JUMPI POP DUP1 JUMPDEST PUSH1 0xB SLOAD PUSH1 0xA SLOAD GT PUSH2 0x2D45 JUMPI PUSH1 0x40 MLOAD PUSH4 0x356680B7 PUSH1 0xE0 SHL DUP2 MSTORE PUSH1 0x4 ADD PUSH1 0x40 MLOAD DUP1 SWAP2 SUB SWAP1 REVERT JUMPDEST PUSH1 0x0 PUSH1 0xB SLOAD PUSH1 0xA SLOAD PUSH2 0x2D57 SWAP2 SWAP1 PUSH2 0x562A JUMP JUMPDEST SWAP1 POP DUP1 DUP3 GT ISZERO PUSH2 0x2D65 JUMPI DUP1 SWAP2 POP JUMPDEST DUP2 ISZERO PUSH2 0x2FA5 JUMPI PUSH2 0x2D96 PUSH32 0x0 DUP10 DUP5 PUSH2 0x432D JUMP JUMPDEST PUSH1 0x40 MLOAD PUSH4 0x70A08231 PUSH1 0xE0 SHL DUP2 MSTORE PUSH1 0x0 SWAP1 PUSH1 0x1 PUSH1 0x1 PUSH1 0xA0 SHL SUB PUSH32 0x0 AND SWAP1 PUSH4 0x70A08231 SWAP1 PUSH2 0x2DE5 SWAP1 ADDRESS SWAP1 PUSH1 0x4 ADD PUSH2 0x4EB6 JUMP JUMPDEST PUSH1 0x20 PUSH1 0x40 MLOAD DUP1 DUP4 SUB DUP2 DUP7 GAS STATICCALL ISZERO DUP1 ISZERO PUSH2 0x2E02 JUMPI RETURNDATASIZE PUSH1 0x0 DUP1 RETURNDATACOPY RETURNDATASIZE PUSH1 0x0 REVERT JUMPDEST POP POP POP POP PUSH1 0x40 MLOAD RETURNDATASIZE PUSH1 0x1F NOT PUSH1 0x1F DUP3 ADD AND DUP3 ADD DUP1 PUSH1 0x40 MSTORE POP DUP2 ADD SWAP1 PUSH2 0x2E26 SWAP2 SWAP1 PUSH2 0x55AA JUMP JUMPDEST PUSH1 0x40 MLOAD PUSH4 0x6E553F65 PUSH1 0xE0 SHL DUP2 MSTORE SWAP1 SWAP2 POP PUSH1 0x1 PUSH1 0x1 PUSH1 0xA0 SHL SUB DUP11 AND SWAP1 PUSH4 0x6E553F65 SWAP1 PUSH2 0x2E57 SWAP1 DUP7 SWAP1 ADDRESS SWAP1 PUSH1 0x4 ADD PUSH2 0x59CC JUMP JUMPDEST PUSH1 0x20 PUSH1 0x40 MLOAD DUP1 DUP4 SUB DUP2 PUSH1 0x0 DUP8 GAS CALL ISZERO DUP1 ISZERO PUSH2 0x2E76 JUMPI RETURNDATASIZE PUSH1 0x0 DUP1 RETURNDATACOPY RETURNDATASIZE PUSH1 0x0 REVERT JUMPDEST POP POP POP POP PUSH1 0x40 MLOAD RETURNDATASIZE PUSH1 0x1F NOT PUSH1 0x1F DUP3 ADD AND DUP3 ADD DUP1 PUSH1 0x40 MSTORE POP DUP2 ADD SWAP1 PUSH2 0x2E9A SWAP2 SWAP1 PUSH2 0x55AA JUMP JUMPDEST POP PUSH1 0x40 MLOAD PUSH4 0x70A08231 PUSH1 0xE0 SHL DUP2 MSTORE PUSH1 0x0 SWAP1 PUSH1 0x1 PUSH1 0x1 PUSH1 0xA0 SHL SUB PUSH32 0x0 AND SWAP1 PUSH4 0x70A08231 SWAP1 PUSH2 0x2EEA SWAP1 ADDRESS SWAP1 PUSH1 0x4 ADD PUSH2 0x4EB6 JUMP JUMPDEST PUSH1 0x20 PUSH1 0x40 MLOAD DUP1 DUP4 SUB DUP2 DUP7 GAS STATICCALL ISZERO DUP1 ISZERO PUSH2 0x2F07 JUMPI RETURNDATASIZE PUSH1 0x0 DUP1 RETURNDATACOPY RETURNDATASIZE PUSH1 0x0 REVERT JUMPDEST POP POP POP POP PUSH1 0x40 MLOAD RETURNDATASIZE PUSH1 0x1F NOT PUSH1 0x1F DUP3 ADD AND DUP3 ADD DUP1 PUSH1 0x40 MSTORE POP DUP2 ADD SWAP1 PUSH2 0x2F2B SWAP2 SWAP1 PUSH2 0x55AA JUMP JUMPDEST SWAP1 POP PUSH2 0x2F59 PUSH32 0x0 DUP12 PUSH1 0x0 PUSH2 0x432D JUMP JUMPDEST PUSH2 0x2F63 DUP2 DUP4 PUSH2 0x562A JUMP JUMPDEST SWAP4 POP DUP4 PUSH1 0xA PUSH1 0x0 DUP3 DUP3 SLOAD PUSH2 0x2F77 SWAP2 SWAP1 PUSH2 0x562A JUMP JUMPDEST SWAP3 POP POP DUP2 SWAP1 SSTORE POP DUP4 PUSH1 0x9 PUSH1 0x0 DUP3 DUP3 SLOAD PUSH2 0x2F90 SWAP2 SWAP1 PUSH2 0x563D JUMP JUMPDEST SWAP1 SWAP2 SSTORE POP PUSH2 0x2FA0 SWAP1 POP DUP5 DUP8 PUSH2 0x563D JUMP JUMPDEST SWAP7 POP POP POP JUMPDEST POP POP POP JUMPDEST PUSH1 0x1 PUSH1 0x1 PUSH1 0xA0 SHL SUB DUP6 AND PUSH1 0x0 DUP2 DUP2 MSTORE PUSH1 0x3 PUSH1 0x20 MSTORE PUSH1 0x40 SWAP1 DUP2 SWAP1 KECCAK256 PUSH1 0x2 ADD DUP5 SWAP1 SSTORE MLOAD PUSH1 0x0 DUP1 MLOAD PUSH1 0x20 PUSH2 0x5F1B DUP4 CODECOPY DUP2 MLOAD SWAP2 MSTORE SWAP1 PUSH2 0x2FE7 SWAP1 DUP5 SWAP1 DUP7 SWAP1 PUSH2 0x541A JUMP JUMPDEST PUSH1 0x40 MLOAD DUP1 SWAP2 SUB SWAP1 LOG2 POP SWAP4 SWAP3 POP POP POP JUMP JUMPDEST PUSH1 0x1 PUSH1 0x1 PUSH1 0xA0 SHL SUB DUP3 AND PUSH1 0x0 DUP2 DUP2 MSTORE PUSH1 0x3 PUSH1 0x20 MSTORE PUSH1 0x40 DUP1 DUP3 KECCAK256 PUSH1 0x2 ADD SLOAD SWAP1 MLOAD PUSH4 0x70A08231 PUSH1 0xE0 SHL DUP2 MSTORE SWAP2 SWAP3 SWAP1 SWAP2 DUP4 SWAP2 SWAP1 PUSH4 0x70A08231 SWAP1 PUSH2 0x303B SWAP1 ADDRESS SWAP1 PUSH1 0x4 ADD PUSH2 0x4EB6 JUMP JUMPDEST PUSH1 0x20 PUSH1 0x40 MLOAD DUP1 DUP4 SUB DUP2 DUP7 GAS STATICCALL ISZERO DUP1 ISZERO PUSH2 0x3058 JUMPI RETURNDATASIZE PUSH1 0x0 DUP1 RETURNDATACOPY RETURNDATASIZE PUSH1 0x0 REVERT JUMPDEST POP POP POP POP PUSH1 0x40 MLOAD RETURNDATASIZE PUSH1 0x1F NOT PUSH1 0x1F DUP3 ADD AND DUP3 ADD DUP1 PUSH1 0x40 MSTORE POP DUP2 ADD SWAP1 PUSH2 0x307C SWAP2 SWAP1 PUSH2 0x55AA JUMP JUMPDEST SWAP1 POP PUSH1 0x0 DUP6 PUSH1 0x1 PUSH1 0x1 PUSH1 0xA0 SHL SUB AND PUSH4 0x7A2D13A DUP4 PUSH1 0x40 MLOAD DUP3 PUSH4 0xFFFFFFFF AND PUSH1 0xE0 SHL DUP2 MSTORE PUSH1 0x4 ADD PUSH2 0x30AC SWAP2 SWAP1 PUSH2 0x4ECA JUMP JUMPDEST PUSH1 0x20 PUSH1 0x40 MLOAD DUP1 DUP4 SUB DUP2 DUP7 GAS STATICCALL ISZERO DUP1 ISZERO PUSH2 0x30C9 JUMPI RETURNDATASIZE PUSH1 0x0 DUP1 RETURNDATACOPY RETURNDATASIZE PUSH1 0x0 REVERT JUMPDEST POP POP POP POP PUSH1 0x40 MLOAD RETURNDATASIZE PUSH1 0x1F NOT PUSH1 0x1F DUP3 ADD AND DUP3 ADD DUP1 PUSH1 0x40 MSTORE POP DUP2 ADD SWAP1 PUSH2 0x30ED SWAP2 SWAP1 PUSH2 0x55AA JUMP JUMPDEST SWAP1 POP DUP3 DUP2 LT ISZERO DUP1 PUSH2 0x30FC JUMPI POP DUP3 ISZERO JUMPDEST ISZERO PUSH2 0x310D JUMPI PUSH1 0x0 SWAP4 POP POP POP POP PUSH2 0xD91 JUMP JUMPDEST PUSH1 0x0 PUSH2 0x3119 DUP3 DUP8 PUSH2 0x55E1 JUMP JUMPDEST SWAP1 POP PUSH1 0x0 PUSH2 0x3127 DUP6 DUP4 PUSH2 0x5616 JUMP JUMPDEST PUSH2 0x3131 SWAP1 DUP9 PUSH2 0x562A JUMP JUMPDEST SWAP1 POP PUSH2 0x313D DUP6 DUP4 PUSH2 0x589A JUMP JUMPDEST ISZERO PUSH2 0x1A3A JUMPI PUSH2 0x1A37 PUSH1 0x1 DUP3 PUSH2 0x563D JUMP JUMPDEST PUSH1 0x13 SLOAD PUSH1 0x0 SWAP1 PUSH1 0x1 PUSH1 0xA0 SHL SWAP1 DIV PUSH1 0xFF AND ISZERO ISZERO PUSH1 0x1 SUB PUSH2 0x317F JUMPI PUSH1 0x40 MLOAD PUSH4 0xF3C3867 PUSH1 0xE0 SHL DUP2 MSTORE PUSH1 0x4 ADD PUSH1 0x40 MLOAD DUP1 SWAP2 SUB SWAP1 REVERT JUMPDEST PUSH2 0x3188 DUP4 PUSH2 0x2648 JUMP JUMPDEST DUP3 GT ISZERO PUSH2 0x31A8 JUMPI PUSH1 0x40 MLOAD PUSH4 0x25D16C51 PUSH1 0xE0 SHL DUP2 MSTORE PUSH1 0x4 ADD PUSH1 0x40 MLOAD DUP1 SWAP2 SUB SWAP1 REVERT JUMPDEST PUSH1 0x40 MLOAD PUSH4 0x23B872DD PUSH1 0xE0 SHL DUP2 MSTORE PUSH1 0x1 PUSH1 0x1 PUSH1 0xA0 SHL SUB PUSH32 0x0 AND SWAP1 PUSH4 0x23B872DD SWAP1 PUSH2 0x31F8 SWAP1 CALLER SWAP1 ADDRESS SWAP1 DUP8 SWAP1 PUSH1 0x4 ADD PUSH2 0x5934 JUMP JUMPDEST PUSH1 0x20 PUSH1 0x40 MLOAD DUP1 DUP4 SUB DUP2 PUSH1 0x0 DUP8 GAS CALL ISZERO DUP1 ISZERO PUSH2 0x3217 JUMPI RETURNDATASIZE PUSH1 0x0 DUP1 RETURNDATACOPY RETURNDATASIZE PUSH1 0x0 REVERT JUMPDEST POP POP POP POP PUSH1 0x40 MLOAD RETURNDATASIZE PUSH1 0x1F NOT PUSH1 0x1F DUP3 ADD AND DUP3 ADD DUP1 PUSH1 0x40 MSTORE POP DUP2 ADD SWAP1 PUSH2 0x323B SWAP2 SWAP1 PUSH2 0x5967 JUMP JUMPDEST POP DUP2 PUSH1 0xA PUSH1 0x0 DUP3 DUP3 SLOAD PUSH2 0x324E SWAP2 SWAP1 PUSH2 0x563D JUMP JUMPDEST SWAP1 SWAP2 SSTORE POP PUSH1 0x0 SWAP1 POP PUSH2 0x3260 DUP4 DUP6 PUSH2 0x43F5 JUMP JUMPDEST SWAP1 POP DUP4 PUSH1 0x1 PUSH1 0x1 PUSH1 0xA0 SHL SUB AND DUP6 PUSH1 0x1 PUSH1 0x1 PUSH1 0xA0 SHL SUB AND PUSH1 0x0 DUP1 MLOAD PUSH1 0x20 PUSH2 0x5EFB DUP4 CODECOPY DUP2 MLOAD SWAP2 MSTORE DUP6 DUP5 PUSH1 0x40 MLOAD PUSH2 0x3295 SWAP3 SWAP2 SWAP1 PUSH2 0x541A JUMP JUMPDEST PUSH1 0x40 MLOAD DUP1 SWAP2 SUB SWAP1 LOG3 SWAP5 SWAP4 POP POP POP POP JUMP JUMPDEST PUSH1 0x15 SLOAD PUSH1 0x0 SWAP1 DUP2 TIMESTAMP DUP3 GT ISZERO PUSH2 0x32E6 JUMPI PUSH5 0xE8D4A51000 PUSH1 0x17 SLOAD TIMESTAMP PUSH2 0x32C8 SWAP2 SWAP1 PUSH2 0x562A JUMP JUMPDEST PUSH1 0x16 SLOAD PUSH2 0x32D5 SWAP2 SWAP1 PUSH2 0x55E1 JUMP JUMPDEST PUSH2 0x32DF SWAP2 SWAP1 PUSH2 0x5616 JUMP JUMPDEST SWAP1 POP PUSH2 0xD91 JUMP JUMPDEST DUP2 ISZERO PUSH2 0xD91 JUMPI POP ADDRESS PUSH1 0x0 SWAP1 DUP2 MSTORE PUSH1 0x6 PUSH1 0x20 MSTORE PUSH1 0x40 SWAP1 KECCAK256 SLOAD SWAP3 SWAP2 POP POP JUMP JUMPDEST PUSH1 0x13 SLOAD PUSH1 0x0 SWAP1 PUSH1 0x1 PUSH1 0xA0 SHL SWAP1 DIV PUSH1 0xFF AND ISZERO ISZERO PUSH1 0x1 SUB PUSH2 0x3335 JUMPI PUSH1 0x40 MLOAD PUSH4 0xF3C3867 PUSH1 0xE0 SHL DUP2 MSTORE PUSH1 0x4 ADD PUSH1 0x40 MLOAD DUP1 SWAP2 SUB SWAP1 REVERT JUMPDEST PUSH1 0x0 PUSH2 0x3342 DUP4 PUSH1 0x1 PUSH2 0x1DA5 JUMP JUMPDEST SWAP1 POP PUSH2 0x334D DUP5 PUSH2 0x2648 JUMP JUMPDEST DUP2 GT ISZERO PUSH2 0x336D JUMPI PUSH1 0x40 MLOAD PUSH4 0x25D16C51 PUSH1 0xE0 SHL DUP2 MSTORE PUSH1 0x4 ADD PUSH1 0x40 MLOAD DUP1 SWAP2 SUB SWAP1 REVERT JUMPDEST PUSH1 0x40 MLOAD PUSH4 0x23B872DD PUSH1 0xE0 SHL DUP2 MSTORE PUSH1 0x1 PUSH1 0x1 PUSH1 0xA0 SHL SUB PUSH32 0x0 AND SWAP1 PUSH4 0x23B872DD SWAP1 PUSH2 0x33BD SWAP1 CALLER SWAP1 ADDRESS SWAP1 DUP7 SWAP1 PUSH1 0x4 ADD PUSH2 0x5934 JUMP JUMPDEST PUSH1 0x20 PUSH1 0x40 MLOAD DUP1 DUP4 SUB DUP2 PUSH1 0x0 DUP8 GAS CALL ISZERO DUP1 ISZERO PUSH2 0x33DC JUMPI RETURNDATASIZE PUSH1 0x0 DUP1 RETURNDATACOPY RETURNDATASIZE PUSH1 0x0 REVERT JUMPDEST POP POP POP POP PUSH1 0x40 MLOAD RETURNDATASIZE PUSH1 0x1F NOT PUSH1 0x1F DUP3 ADD AND DUP3 ADD DUP1 PUSH1 0x40 MSTORE POP DUP2 ADD SWAP1 PUSH2 0x3400 SWAP2 SWAP1 PUSH2 0x5967 JUMP JUMPDEST POP DUP1 PUSH1 0xA PUSH1 0x0 DUP3 DUP3 SLOAD PUSH2 0x3413 SWAP2 SWAP1 PUSH2 0x563D JUMP JUMPDEST SWAP1 SWAP2 SSTORE POP PUSH2 0x3423 SWAP1 POP DUP4 DUP6 PUSH2 0x44A6 JUMP JUMPDEST DUP4 PUSH1 0x1 PUSH1 0x1 PUSH1 0xA0 SHL SUB AND DUP6 PUSH1 0x1 PUSH1 0x1 PUSH1 0xA0 SHL SUB AND PUSH1 0x0 DUP1 MLOAD PUSH1 0x20 PUSH2 0x5EFB DUP4 CODECOPY DUP2 MLOAD SWAP2 MSTORE DUP4 DUP7 PUSH1 0x40 MLOAD PUSH2 0x3295 SWAP3 SWAP2 SWAP1 PUSH2 0x541A JUMP JUMPDEST PUSH1 0x1 PUSH1 0x1 PUSH1 0xA0 SHL SUB DUP1 DUP5 AND PUSH1 0x0 SWAP1 DUP2 MSTORE PUSH1 0x7 PUSH1 0x20 SWAP1 DUP2 MSTORE PUSH1 0x40 DUP1 DUP4 KECCAK256 SWAP4 DUP7 AND DUP4 MSTORE SWAP3 SWAP1 MSTORE SWAP1 DUP2 KECCAK256 SLOAD DUP2 SWAP1 PUSH2 0x262F SWAP1 DUP5 SWAP1 PUSH2 0x562A JUMP JUMPDEST PUSH1 0x1 PUSH1 0x1 PUSH1 0xA0 SHL SUB DUP4 AND PUSH1 0x0 SWAP1 DUP2 MSTORE PUSH1 0x6 PUSH1 0x20 MSTORE PUSH1 0x40 SWAP1 KECCAK256 SLOAD DUP2 DUP2 LT ISZERO PUSH2 0x34C5 JUMPI PUSH1 0x40 MLOAD PUSH4 0x356680B7 PUSH1 0xE0 SHL DUP2 MSTORE PUSH1 0x4 ADD PUSH1 0x40 MLOAD DUP1 SWAP2 SUB SWAP1 REVERT JUMPDEST PUSH1 0x1 PUSH1 0x1 PUSH1 0xA0 SHL SUB DUP5 AND ISZERO DUP1 PUSH2 0x34E2 JUMPI POP PUSH1 0x1 PUSH1 0x1 PUSH1 0xA0 SHL SUB DUP4 AND ISZERO JUMPDEST ISZERO PUSH2 0x3500 JUMPI PUSH1 0x40 MLOAD PUSH4 0xD92E233D PUSH1 0xE0 SHL DUP2 MSTORE PUSH1 0x4 ADD PUSH1 0x40 MLOAD DUP1 SWAP2 SUB SWAP1 REVERT JUMPDEST PUSH2 0x350A DUP3 DUP3 PUSH2 0x562A JUMP JUMPDEST PUSH1 0x1 PUSH1 0x1 PUSH1 0xA0 SHL SUB DUP1 DUP7 AND PUSH1 0x0 SWAP1 DUP2 MSTORE PUSH1 0x6 PUSH1 0x20 MSTORE PUSH1 0x40 DUP1 DUP3 KECCAK256 SWAP4 SWAP1 SWAP4 SSTORE SWAP1 DUP6 AND DUP2 MSTORE KECCAK256 SLOAD PUSH2 0x3539 DUP4 DUP3 PUSH2 0x563D JUMP JUMPDEST PUSH1 0x1 PUSH1 0x1 PUSH1 0xA0 SHL SUB DUP1 DUP7 AND PUSH1 0x0 DUP2 DUP2 MSTORE PUSH1 0x6 PUSH1 0x20 MSTORE PUSH1 0x40 SWAP1 DUP2 SWAP1 KECCAK256 SWAP4 SWAP1 SWAP4 SSTORE SWAP2 MLOAD SWAP1 DUP8 AND SWAP1 PUSH1 0x0 DUP1 MLOAD PUSH1 0x20 PUSH2 0x5E3B DUP4 CODECOPY DUP2 MLOAD SWAP2 MSTORE SWAP1 PUSH2 0x3579 SWAP1 DUP8 SWAP1 PUSH2 0x4ECA JUMP JUMPDEST PUSH1 0x40 MLOAD DUP1 SWAP2 SUB SWAP1 LOG3 POP POP POP POP POP JUMP JUMPDEST PUSH1 0x1 PUSH1 0x1 PUSH1 0xA0 SHL SUB DUP2 AND PUSH1 0x0 SWAP1 DUP2 MSTORE PUSH1 0x3 PUSH1 0x20 MSTORE PUSH1 0x40 DUP2 KECCAK256 SLOAD DUP2 SWAP1 DUP2 SUB PUSH2 0x35C2 JUMPI PUSH1 0x40 MLOAD PUSH4 0x631BC21 PUSH1 0xE5 SHL DUP2 MSTORE PUSH1 0x4 ADD PUSH1 0x40 MLOAD DUP1 SWAP2 SUB SWAP1 REVERT JUMPDEST PUSH2 0x35CA PUSH2 0x453F JUMP JUMPDEST PUSH1 0x0 DUP1 PUSH2 0x35D6 DUP6 PUSH2 0x456F JUMP JUMPDEST SWAP2 POP SWAP2 POP PUSH1 0x0 PUSH2 0x35E7 DUP7 DUP5 DUP5 PUSH2 0x46A5 JUMP JUMPDEST SWAP1 POP PUSH1 0x0 PUSH2 0x35FE DUP4 DUP4 PUSH1 0x0 ADD MLOAD DUP5 PUSH1 0x40 ADD MLOAD PUSH2 0x4813 JUMP JUMPDEST SWAP1 POP PUSH1 0x0 DUP1 PUSH2 0x3610 DUP4 DUP6 DUP9 DUP9 DUP14 PUSH2 0x4898 JUMP JUMPDEST SWAP2 POP SWAP2 POP PUSH2 0x361E DUP3 DUP3 PUSH2 0x4BA8 JUMP JUMPDEST PUSH1 0x1 PUSH1 0x1 PUSH1 0xA0 SHL SUB DUP10 AND PUSH1 0x0 DUP2 DUP2 MSTORE PUSH1 0x3 PUSH1 0x20 MSTORE PUSH1 0x40 DUP1 DUP3 KECCAK256 TIMESTAMP PUSH1 0x1 DUP3 ADD SSTORE PUSH1 0x2 ADD SLOAD SWAP1 DUP7 ADD MLOAD PUSH32 0x7F2AD1D3BA35276F35EF140F83E3E0F17B23064FD710113D3F7A5AB30D267811 SWAP3 DUP11 SWAP3 DUP11 SWAP3 SWAP1 SWAP2 PUSH2 0x3677 SWAP2 SWAP1 PUSH2 0x1DA5 JUMP JUMPDEST PUSH2 0x368E DUP10 PUSH1 0x20 ADD MLOAD DUP11 PUSH1 0x40 ADD MLOAD PUSH2 0x17BF SWAP2 SWAP1 PUSH2 0x563D JUMP JUMPDEST DUP11 PUSH1 0x20 ADD MLOAD PUSH1 0x40 MLOAD PUSH2 0x36A5 SWAP7 SWAP6 SWAP5 SWAP4 SWAP3 SWAP2 SWAP1 PUSH2 0x59E7 JUMP JUMPDEST PUSH1 0x40 MLOAD DUP1 SWAP2 SUB SWAP1 LOG2 POP SWAP4 SWAP8 SWAP3 SWAP7 POP SWAP2 SWAP5 POP POP POP POP POP JUMP JUMPDEST PUSH1 0x0 PUSH1 0x1 PUSH1 0x1 PUSH1 0xA0 SHL SUB DUP9 AND PUSH2 0x36E5 JUMPI PUSH1 0x40 MLOAD PUSH4 0xD92E233D PUSH1 0xE0 SHL DUP2 MSTORE PUSH1 0x4 ADD PUSH1 0x40 MLOAD DUP1 SWAP2 SUB SWAP1 REVERT JUMPDEST TIMESTAMP DUP6 LT ISZERO PUSH2 0x3706 JUMPI PUSH1 0x40 MLOAD PUSH4 0x63BEF561 PUSH1 0xE1 SHL DUP2 MSTORE PUSH1 0x4 ADD PUSH1 0x40 MLOAD DUP1 SWAP2 SUB SWAP1 REVERT JUMPDEST PUSH1 0x1 PUSH1 0x1 PUSH1 0xA0 SHL SUB DUP9 AND PUSH1 0x0 SWAP1 DUP2 MSTORE PUSH1 0x18 PUSH1 0x20 SWAP1 DUP2 MSTORE PUSH1 0x40 DUP1 DUP4 KECCAK256 SLOAD SWAP1 MLOAD SWAP1 SWAP3 SWAP2 PUSH2 0x374B SWAP2 PUSH1 0x0 DUP1 MLOAD PUSH1 0x20 PUSH2 0x5E5B DUP4 CODECOPY DUP2 MLOAD SWAP2 MSTORE SWAP2 DUP14 SWAP2 DUP14 SWAP2 DUP14 SWAP2 DUP9 SWAP2 DUP15 SWAP2 ADD PUSH2 0x5A36 JUMP JUMPDEST PUSH1 0x40 MLOAD PUSH1 0x20 DUP2 DUP4 SUB SUB DUP2 MSTORE SWAP1 PUSH1 0x40 MSTORE DUP1 MLOAD SWAP1 PUSH1 0x20 ADD KECCAK256 SWAP1 POP PUSH1 0x0 PUSH1 0x19 SLOAD DUP3 PUSH1 0x40 MLOAD PUSH1 0x20 ADD PUSH2 0x377A SWAP3 SWAP2 SWAP1 PUSH2 0x5A5E JUMP JUMPDEST PUSH1 0x40 MLOAD PUSH1 0x20 DUP2 DUP4 SUB SUB DUP2 MSTORE SWAP1 PUSH1 0x40 MSTORE DUP1 MLOAD SWAP1 PUSH1 0x20 ADD KECCAK256 SWAP1 POP PUSH1 0x0 PUSH1 0x1 DUP3 DUP10 DUP10 DUP10 PUSH1 0x40 MLOAD PUSH1 0x0 DUP2 MSTORE PUSH1 0x20 ADD PUSH1 0x40 MSTORE PUSH1 0x40 MLOAD PUSH2 0x37B7 SWAP5 SWAP4 SWAP3 SWAP2 SWAP1 PUSH2 0x5A8F JUMP JUMPDEST PUSH1 0x20 PUSH1 0x40 MLOAD PUSH1 0x20 DUP2 SUB SWAP1 DUP1 DUP5 SUB SWAP1 DUP6 GAS STATICCALL ISZERO DUP1 ISZERO PUSH2 0x37D9 JUMPI RETURNDATASIZE PUSH1 0x0 DUP1 RETURNDATACOPY RETURNDATASIZE PUSH1 0x0 REVERT JUMPDEST POP POP PUSH1 0x40 MLOAD PUSH1 0x1F NOT ADD MLOAD SWAP2 POP POP PUSH1 0x1 PUSH1 0x1 PUSH1 0xA0 SHL SUB DUP2 AND ISZERO DUP1 PUSH2 0x380E JUMPI POP DUP12 PUSH1 0x1 PUSH1 0x1 PUSH1 0xA0 SHL SUB AND DUP2 PUSH1 0x1 PUSH1 0x1 PUSH1 0xA0 SHL SUB AND EQ ISZERO JUMPDEST ISZERO PUSH2 0x382C JUMPI PUSH1 0x40 MLOAD PUSH4 0x10454C99 PUSH1 0xE3 SHL DUP2 MSTORE PUSH1 0x4 ADD PUSH1 0x40 MLOAD DUP1 SWAP2 SUB SWAP1 REVERT JUMPDEST PUSH2 0x3837 DUP13 DUP13 DUP13 PUSH2 0x1ED8 JUMP JUMPDEST POP PUSH1 0x1 PUSH1 0x1 PUSH1 0xA0 SHL SUB DUP13 AND PUSH1 0x0 SWAP1 DUP2 MSTORE PUSH1 0x18 PUSH1 0x20 MSTORE PUSH1 0x40 DUP2 KECCAK256 DUP1 SLOAD SWAP2 PUSH2 0x385C DUP4 PUSH2 0x5666 JUMP JUMPDEST SWAP2 SWAP1 POP SSTORE POP DUP11 PUSH1 0x1 PUSH1 0x1 PUSH1 0xA0 SHL SUB AND DUP13 PUSH1 0x1 PUSH1 0x1 PUSH1 0xA0 SHL SUB AND PUSH1 0x0 DUP1 MLOAD PUSH1 0x20 PUSH2 0x5E7B DUP4 CODECOPY DUP2 MLOAD SWAP2 MSTORE DUP13 PUSH1 0x40 MLOAD PUSH2 0x3892 SWAP2 SWAP1 PUSH2 0x4ECA JUMP JUMPDEST PUSH1 0x40 MLOAD DUP1 SWAP2 SUB SWAP1 LOG3 POP PUSH1 0x1 SWAP12 SWAP11 POP POP POP POP POP POP POP POP POP POP POP JUMP JUMPDEST PUSH1 0x1 PUSH1 0x1 PUSH1 0xA0 SHL SUB DUP2 AND PUSH1 0x0 SWAP1 DUP2 MSTORE PUSH1 0x6 PUSH1 0x20 MSTORE PUSH1 0x40 SWAP1 KECCAK256 SLOAD DUP3 GT ISZERO PUSH2 0x38E5 JUMPI PUSH1 0x40 MLOAD PUSH4 0x39996567 PUSH1 0xE0 SHL DUP2 MSTORE PUSH1 0x4 ADD PUSH1 0x40 MLOAD DUP1 SWAP2 SUB SWAP1 REVERT JUMPDEST PUSH1 0x1 PUSH1 0x1 PUSH1 0xA0 SHL SUB DUP2 AND PUSH1 0x0 SWAP1 DUP2 MSTORE PUSH1 0x6 PUSH1 0x20 MSTORE PUSH1 0x40 DUP2 KECCAK256 DUP1 SLOAD DUP5 SWAP3 SWAP1 PUSH2 0x390D SWAP1 DUP5 SWAP1 PUSH2 0x562A JUMP JUMPDEST SWAP3 POP POP DUP2 SWAP1 SSTORE POP DUP2 PUSH1 0x8 PUSH1 0x0 DUP3 DUP3 SLOAD PUSH2 0x3926 SWAP2 SWAP1 PUSH2 0x562A JUMP JUMPDEST SWAP1 SWAP2 SSTORE POP POP PUSH1 0x40 MLOAD PUSH1 0x0 SWAP1 PUSH1 0x1 PUSH1 0x1 PUSH1 0xA0 SHL SUB DUP4 AND SWAP1 PUSH1 0x0 DUP1 MLOAD PUSH1 0x20 PUSH2 0x5E3B DUP4 CODECOPY DUP2 MLOAD SWAP2 MSTORE SWAP1 PUSH2 0x3957 SWAP1 DUP7 SWAP1 PUSH2 0x4ECA JUMP JUMPDEST PUSH1 0x40 MLOAD DUP1 SWAP2 SUB SWAP1 LOG3 POP POP JUMP JUMPDEST PUSH1 0x1 PUSH1 0x1 PUSH1 0xA0 SHL SUB DUP5 AND PUSH2 0x398A JUMPI PUSH1 0x40 MLOAD PUSH4 0xD92E233D PUSH1 0xE0 SHL DUP2 MSTORE PUSH1 0x4 ADD PUSH1 0x40 MLOAD DUP1 SWAP2 SUB SWAP1 REVERT JUMPDEST PUSH2 0x2710 DUP2 GT ISZERO PUSH2 0x39AD JUMPI PUSH1 0x40 MLOAD PUSH4 0x1A7ED0A1 PUSH1 0xE3 SHL DUP2 MSTORE PUSH1 0x4 ADD PUSH1 0x40 MLOAD DUP1 SWAP2 SUB SWAP1 REVERT JUMPDEST PUSH1 0x0 DUP3 GT PUSH2 0x39CE JUMPI PUSH1 0x40 MLOAD PUSH4 0x7C946ED7 PUSH1 0xE0 SHL DUP2 MSTORE PUSH1 0x4 ADD PUSH1 0x40 MLOAD DUP1 SWAP2 SUB SWAP1 REVERT JUMPDEST PUSH1 0x1 PUSH1 0x1 PUSH1 0xA0 SHL SUB DUP4 AND PUSH1 0x0 SWAP1 DUP2 MSTORE PUSH1 0x6 PUSH1 0x20 MSTORE PUSH1 0x40 SWAP1 KECCAK256 SLOAD DUP3 GT ISZERO PUSH2 0x27FC JUMPI PUSH1 0x40 MLOAD PUSH4 0x39996567 PUSH1 0xE0 SHL DUP2 MSTORE PUSH1 0x4 ADD PUSH1 0x40 MLOAD DUP1 SWAP2 SUB SWAP1 REVERT JUMPDEST DUP3 PUSH1 0x1 PUSH1 0x1 PUSH1 0xA0 SHL SUB AND DUP3 PUSH1 0x1 PUSH1 0x1 PUSH1 0xA0 SHL SUB AND EQ PUSH2 0x1008 JUMPI PUSH2 0x1008 DUP4 DUP4 DUP4 PUSH2 0x4178 JUMP JUMPDEST PUSH1 0x0 DUP1 PUSH1 0x0 PUSH1 0x40 MLOAD DUP1 PUSH1 0xC0 ADD PUSH1 0x40 MSTORE DUP1 DUP7 DUP2 MSTORE PUSH1 0x20 ADD PUSH1 0xA SLOAD DUP2 MSTORE PUSH1 0x20 ADD PUSH1 0x9 SLOAD DUP2 MSTORE PUSH1 0x20 ADD PUSH1 0x0 DUP2 MSTORE PUSH1 0x20 ADD PUSH32 0x0 PUSH1 0x1 PUSH1 0x1 PUSH1 0xA0 SHL SUB AND PUSH4 0x70A08231 ADDRESS PUSH1 0x40 MLOAD DUP3 PUSH4 0xFFFFFFFF AND PUSH1 0xE0 SHL DUP2 MSTORE PUSH1 0x4 ADD PUSH2 0x3AA4 SWAP2 SWAP1 PUSH2 0x4EB6 JUMP JUMPDEST PUSH1 0x20 PUSH1 0x40 MLOAD DUP1 DUP4 SUB DUP2 DUP7 GAS STATICCALL ISZERO DUP1 ISZERO PUSH2 0x3AC1 JUMPI RETURNDATASIZE PUSH1 0x0 DUP1 RETURNDATACOPY RETURNDATASIZE PUSH1 0x0 REVERT JUMPDEST POP POP POP POP PUSH1 0x40 MLOAD RETURNDATASIZE PUSH1 0x1F NOT PUSH1 0x1F DUP3 ADD AND DUP3 ADD DUP1 PUSH1 0x40 MSTORE POP DUP2 ADD SWAP1 PUSH2 0x3AE5 SWAP2 SWAP1 PUSH2 0x55AA JUMP JUMPDEST DUP2 MSTORE PUSH1 0x0 PUSH1 0x20 SWAP2 DUP3 ADD MSTORE DUP2 ADD MLOAD DUP2 MLOAD SWAP2 SWAP3 POP LT ISZERO PUSH2 0x406A JUMPI PUSH1 0x0 DUP5 MLOAD PUSH1 0x0 EQ ISZERO DUP1 ISZERO PUSH2 0x3B14 JUMPI POP PUSH1 0x5 SLOAD PUSH1 0xFF AND ISZERO JUMPDEST PUSH2 0x3B78 JUMPI PUSH1 0x4 DUP1 SLOAD DUP1 PUSH1 0x20 MUL PUSH1 0x20 ADD PUSH1 0x40 MLOAD SWAP1 DUP2 ADD PUSH1 0x40 MSTORE DUP1 SWAP3 SWAP2 SWAP1 DUP2 DUP2 MSTORE PUSH1 0x20 ADD DUP3 DUP1 SLOAD DUP1 ISZERO PUSH2 0x3B6E JUMPI PUSH1 0x20 MUL DUP3 ADD SWAP2 SWAP1 PUSH1 0x0 MSTORE PUSH1 0x20 PUSH1 0x0 KECCAK256 SWAP1 JUMPDEST DUP2 SLOAD PUSH1 0x1 PUSH1 0x1 PUSH1 0xA0 SHL SUB AND DUP2 MSTORE PUSH1 0x1 SWAP1 SWAP2 ADD SWAP1 PUSH1 0x20 ADD DUP1 DUP4 GT PUSH2 0x3B50 JUMPI JUMPDEST POP POP POP POP POP PUSH2 0x3B7A JUMP JUMPDEST DUP5 JUMPDEST PUSH1 0x20 DUP4 ADD MLOAD DUP4 MLOAD SWAP2 SWAP3 POP PUSH2 0x3B8D SWAP2 PUSH2 0x562A JUMP JUMPDEST PUSH1 0x60 DUP4 ADD MSTORE PUSH1 0x0 JUMPDEST DUP2 MLOAD DUP2 LT ISZERO PUSH2 0x4039 JUMPI PUSH1 0x0 DUP3 DUP3 DUP2 MLOAD DUP2 LT PUSH2 0x3BB2 JUMPI PUSH2 0x3BB2 PUSH2 0x5650 JUMP JUMPDEST PUSH1 0x20 MUL PUSH1 0x20 ADD ADD MLOAD SWAP1 POP PUSH1 0x3 PUSH1 0x0 DUP3 PUSH1 0x1 PUSH1 0x1 PUSH1 0xA0 SHL SUB AND PUSH1 0x1 PUSH1 0x1 PUSH1 0xA0 SHL SUB AND DUP2 MSTORE PUSH1 0x20 ADD SWAP1 DUP2 MSTORE PUSH1 0x20 ADD PUSH1 0x0 KECCAK256 PUSH1 0x0 ADD SLOAD PUSH1 0x0 SUB PUSH2 0x3C05 JUMPI PUSH1 0x40 MLOAD PUSH4 0x631BC21 PUSH1 0xE5 SHL DUP2 MSTORE PUSH1 0x4 ADD PUSH1 0x40 MLOAD DUP1 SWAP2 SUB SWAP1 REVERT JUMPDEST PUSH1 0x1 PUSH1 0x1 PUSH1 0xA0 SHL SUB DUP2 AND PUSH1 0x0 SWAP1 DUP2 MSTORE PUSH1 0x3 PUSH1 0x20 MSTORE PUSH1 0x40 DUP2 KECCAK256 PUSH1 0x2 ADD SLOAD PUSH1 0x60 DUP7 ADD MLOAD SWAP1 SWAP2 SWAP1 PUSH2 0x3C33 SWAP1 DUP4 PUSH2 0x257F JUMP JUMPDEST SWAP1 POP PUSH1 0x0 DUP4 PUSH1 0x1 PUSH1 0x1 PUSH1 0xA0 SHL SUB AND PUSH4 0x7A2D13A DUP6 PUSH1 0x1 PUSH1 0x1 PUSH1 0xA0 SHL SUB AND PUSH4 0xD905777E ADDRESS PUSH1 0x40 MLOAD DUP3 PUSH4 0xFFFFFFFF AND PUSH1 0xE0 SHL DUP2 MSTORE PUSH1 0x4 ADD PUSH2 0x3C72 SWAP2 SWAP1 PUSH2 0x4EB6 JUMP JUMPDEST PUSH1 0x20 PUSH1 0x40 MLOAD DUP1 DUP4 SUB DUP2 DUP7 GAS STATICCALL ISZERO DUP1 ISZERO PUSH2 0x3C8F JUMPI RETURNDATASIZE PUSH1 0x0 DUP1 RETURNDATACOPY RETURNDATASIZE PUSH1 0x0 REVERT JUMPDEST POP POP POP POP PUSH1 0x40 MLOAD RETURNDATASIZE PUSH1 0x1F NOT PUSH1 0x1F DUP3 ADD AND DUP3 ADD DUP1 PUSH1 0x40 MSTORE POP DUP2 ADD SWAP1 PUSH2 0x3CB3 SWAP2 SWAP1 PUSH2 0x55AA JUMP JUMPDEST PUSH1 0x40 MLOAD DUP3 PUSH4 0xFFFFFFFF AND PUSH1 0xE0 SHL DUP2 MSTORE PUSH1 0x4 ADD PUSH2 0x3CCF SWAP2 SWAP1 PUSH2 0x4ECA JUMP JUMPDEST PUSH1 0x20 PUSH1 0x40 MLOAD DUP1 DUP4 SUB DUP2 DUP7 GAS STATICCALL ISZERO DUP1 ISZERO PUSH2 0x3CEC JUMPI RETURNDATASIZE PUSH1 0x0 DUP1 RETURNDATACOPY RETURNDATASIZE PUSH1 0x0 REVERT JUMPDEST POP POP POP POP PUSH1 0x40 MLOAD RETURNDATASIZE PUSH1 0x1F NOT PUSH1 0x1F DUP3 ADD AND DUP3 ADD DUP1 PUSH1 0x40 MSTORE POP DUP2 ADD SWAP1 PUSH2 0x3D10 SWAP2 SWAP1 PUSH2 0x55AA JUMP JUMPDEST SWAP1 POP PUSH1 0x0 PUSH2 0x3D1E DUP6 DUP5 PUSH2 0x2FF7 JUMP JUMPDEST SWAP1 POP DUP1 ISZERO PUSH2 0x3E24 JUMPI PUSH2 0x3D30 DUP2 DUP5 PUSH2 0x562A JUMP JUMPDEST DUP3 LT ISZERO PUSH2 0x3D6A JUMPI PUSH1 0x0 PUSH2 0x3D43 DUP3 DUP6 PUSH2 0x562A JUMP JUMPDEST SWAP1 POP DUP1 PUSH2 0x3D50 DUP5 DUP5 PUSH2 0x55E1 JUMP JUMPDEST PUSH2 0x3D5A SWAP2 SWAP1 PUSH2 0x5616 JUMP JUMPDEST SWAP2 POP PUSH2 0x3D66 DUP3 DUP5 PUSH2 0x563D JUMP JUMPDEST SWAP4 POP POP JUMPDEST PUSH2 0x3D74 DUP2 DUP5 PUSH2 0x562A JUMP JUMPDEST SWAP3 POP DUP1 DUP9 PUSH1 0x0 ADD DUP2 DUP2 MLOAD PUSH2 0x3D88 SWAP2 SWAP1 PUSH2 0x562A JUMP JUMPDEST SWAP1 MSTORE POP PUSH1 0x60 DUP9 ADD DUP1 MLOAD DUP3 SWAP2 SWAP1 PUSH2 0x3D9F SWAP1 DUP4 SWAP1 PUSH2 0x562A JUMP JUMPDEST SWAP1 MSTORE POP PUSH1 0x40 DUP9 ADD DUP1 MLOAD DUP3 SWAP2 SWAP1 PUSH2 0x3DB6 SWAP1 DUP4 SWAP1 PUSH2 0x562A JUMP JUMPDEST SWAP1 MSTORE POP DUP2 ISZERO DUP1 ISZERO PUSH2 0x3DC7 JUMPI POP PUSH1 0x0 DUP2 GT JUMPDEST ISZERO PUSH2 0x3E24 JUMPI PUSH1 0x0 PUSH2 0x3DD8 DUP3 DUP7 PUSH2 0x562A JUMP JUMPDEST PUSH1 0x1 PUSH1 0x1 PUSH1 0xA0 SHL SUB DUP8 AND PUSH1 0x0 DUP2 DUP2 MSTORE PUSH1 0x3 PUSH1 0x20 MSTORE PUSH1 0x40 SWAP1 DUP2 SWAP1 KECCAK256 PUSH1 0x2 ADD DUP4 SWAP1 SSTORE MLOAD SWAP2 SWAP3 POP SWAP1 PUSH1 0x0 DUP1 MLOAD PUSH1 0x20 PUSH2 0x5F1B DUP4 CODECOPY DUP2 MLOAD SWAP2 MSTORE SWAP1 PUSH2 0x3E1A SWAP1 DUP9 SWAP1 DUP6 SWAP1 PUSH2 0x541A JUMP JUMPDEST PUSH1 0x40 MLOAD DUP1 SWAP2 SUB SWAP1 LOG2 POP JUMPDEST PUSH2 0x3E2E DUP4 DUP4 PUSH2 0x257F JUMP JUMPDEST SWAP3 POP DUP3 PUSH1 0x0 SUB PUSH2 0x3E42 JUMPI POP POP POP POP POP PUSH2 0x4027 JUMP JUMPDEST PUSH2 0x3E4C DUP6 DUP5 PUSH2 0x41D3 JUMP JUMPDEST PUSH1 0x40 MLOAD PUSH4 0x70A08231 PUSH1 0xE0 SHL DUP2 MSTORE PUSH1 0x0 SWAP1 PUSH1 0x1 PUSH1 0x1 PUSH1 0xA0 SHL SUB PUSH32 0x0 AND SWAP1 PUSH4 0x70A08231 SWAP1 PUSH2 0x3E9B SWAP1 ADDRESS SWAP1 PUSH1 0x4 ADD PUSH2 0x4EB6 JUMP JUMPDEST PUSH1 0x20 PUSH1 0x40 MLOAD DUP1 DUP4 SUB DUP2 DUP7 GAS STATICCALL ISZERO DUP1 ISZERO PUSH2 0x3EB8 JUMPI RETURNDATASIZE PUSH1 0x0 DUP1 RETURNDATACOPY RETURNDATASIZE PUSH1 0x0 REVERT JUMPDEST POP POP POP POP PUSH1 0x40 MLOAD RETURNDATASIZE PUSH1 0x1F NOT PUSH1 0x1F DUP3 ADD AND DUP3 ADD DUP1 PUSH1 0x40 MSTORE POP DUP2 ADD SWAP1 PUSH2 0x3EDC SWAP2 SWAP1 PUSH2 0x55AA JUMP JUMPDEST SWAP1 POP PUSH1 0x0 DUP10 PUSH1 0x80 ADD MLOAD DUP3 PUSH2 0x3EF0 SWAP2 SWAP1 PUSH2 0x562A JUMP JUMPDEST SWAP1 POP PUSH1 0x0 DUP6 DUP3 GT ISZERO PUSH2 0x3F27 JUMPI DUP7 DUP3 GT ISZERO PUSH2 0x3F0C JUMPI DUP7 SWAP6 POP PUSH2 0x3F3C JUMP JUMPDEST PUSH2 0x3F16 DUP7 DUP4 PUSH2 0x562A JUMP JUMPDEST PUSH2 0x3F20 SWAP1 DUP8 PUSH2 0x563D JUMP JUMPDEST SWAP6 POP PUSH2 0x3F3C JUMP JUMPDEST DUP6 DUP3 LT ISZERO PUSH2 0x3F3C JUMPI PUSH2 0x3F39 DUP3 DUP8 PUSH2 0x562A JUMP JUMPDEST SWAP1 POP JUMPDEST PUSH2 0x3F46 DUP2 DUP8 PUSH2 0x562A JUMP JUMPDEST DUP12 PUSH1 0x20 ADD DUP2 DUP2 MLOAD PUSH2 0x3F57 SWAP2 SWAP1 PUSH2 0x563D JUMP JUMPDEST SWAP1 MSTORE POP DUP11 MLOAD DUP2 SWAP1 DUP13 SWAP1 PUSH2 0x3F6B SWAP1 DUP4 SWAP1 PUSH2 0x562A JUMP JUMPDEST SWAP1 MSTORE POP PUSH1 0x40 DUP12 ADD DUP1 MLOAD DUP8 SWAP2 SWAP1 PUSH2 0x3F82 SWAP1 DUP4 SWAP1 PUSH2 0x562A JUMP JUMPDEST SWAP1 MSTORE POP PUSH1 0x0 PUSH2 0x3F91 DUP6 DUP9 PUSH2 0x563D JUMP JUMPDEST PUSH2 0x3F9B SWAP1 DUP10 PUSH2 0x562A JUMP JUMPDEST PUSH1 0x1 PUSH1 0x1 PUSH1 0xA0 SHL SUB DUP11 AND PUSH1 0x0 DUP2 DUP2 MSTORE PUSH1 0x3 PUSH1 0x20 MSTORE PUSH1 0x40 SWAP1 DUP2 SWAP1 KECCAK256 PUSH1 0x2 ADD DUP4 SWAP1 SSTORE MLOAD SWAP2 SWAP3 POP SWAP1 PUSH1 0x0 DUP1 MLOAD PUSH1 0x20 PUSH2 0x5F1B DUP4 CODECOPY DUP2 MLOAD SWAP2 MSTORE SWAP1 PUSH2 0x3FDD SWAP1 DUP12 SWAP1 DUP6 SWAP1 PUSH2 0x541A JUMP JUMPDEST PUSH1 0x40 MLOAD DUP1 SWAP2 SUB SWAP1 LOG2 PUSH1 0x20 DUP13 ADD MLOAD DUP13 MLOAD GT PUSH2 0x3FFF JUMPI POP POP POP POP POP POP POP POP POP PUSH2 0x4039 JUMP JUMPDEST PUSH1 0x80 DUP13 ADD DUP5 SWAP1 MSTORE PUSH1 0x60 DUP13 ADD DUP1 MLOAD DUP9 SWAP2 SWAP1 PUSH2 0x401A SWAP1 DUP4 SWAP1 PUSH2 0x562A JUMP JUMPDEST SWAP1 MSTORE POP POP POP POP POP POP POP POP POP POP JUMPDEST DUP1 PUSH2 0x4031 DUP2 PUSH2 0x5666 JUMP JUMPDEST SWAP2 POP POP PUSH2 0x3B95 JUMP JUMPDEST POP DUP2 MLOAD PUSH1 0x20 DUP4 ADD MLOAD LT ISZERO PUSH2 0x4060 JUMPI PUSH1 0x40 MLOAD PUSH4 0x96D80433 PUSH1 0xE0 SHL DUP2 MSTORE PUSH1 0x4 ADD PUSH1 0x40 MLOAD DUP1 SWAP2 SUB SWAP1 REVERT JUMPDEST POP PUSH1 0x40 DUP2 ADD MLOAD PUSH1 0x9 SSTORE JUMPDEST DUP1 MLOAD PUSH1 0x20 SWAP1 SWAP2 ADD MLOAD SWAP1 SWAP3 POP SWAP1 POP JUMPDEST SWAP3 POP SWAP3 SWAP1 POP JUMP JUMPDEST DUP3 DUP5 GT DUP1 ISZERO PUSH2 0x408F JUMPI POP PUSH2 0x2710 DUP2 LT JUMPDEST ISZERO PUSH2 0x40D4 JUMPI PUSH2 0x2710 PUSH2 0x40A1 DUP3 DUP7 PUSH2 0x55E1 JUMP JUMPDEST PUSH2 0x40AB SWAP2 SWAP1 PUSH2 0x5616 JUMP JUMPDEST PUSH2 0x40B5 DUP5 DUP7 PUSH2 0x562A JUMP JUMPDEST GT ISZERO PUSH2 0x40D4 JUMPI PUSH1 0x40 MLOAD PUSH4 0x7F65E39 PUSH1 0xE1 SHL DUP2 MSTORE PUSH1 0x4 ADD PUSH1 0x40 MLOAD DUP1 SWAP2 SUB SWAP1 REVERT JUMPDEST PUSH2 0x40DE DUP6 DUP8 PUSH2 0x38AC JUMP JUMPDEST PUSH2 0x40E8 DUP4 DUP4 PUSH2 0x562A JUMP JUMPDEST PUSH1 0xA SSTORE PUSH2 0x4116 PUSH32 0x0 DUP9 DUP6 PUSH2 0x2802 JUMP JUMPDEST POP POP POP POP POP POP POP JUMP JUMPDEST PUSH2 0x4129 DUP3 DUP3 PUSH2 0x1744 JUMP JUMPDEST PUSH2 0xEB3 JUMPI PUSH2 0x4136 DUP2 PUSH2 0x4C49 JUMP JUMPDEST PUSH2 0x4141 DUP4 PUSH1 0x20 PUSH2 0x4C5B JUMP JUMPDEST PUSH1 0x40 MLOAD PUSH1 0x20 ADD PUSH2 0x4152 SWAP3 SWAP2 SWAP1 PUSH2 0x5ACC JUMP JUMPDEST PUSH1 0x40 DUP1 MLOAD PUSH1 0x1F NOT DUP2 DUP5 SUB ADD DUP2 MSTORE SWAP1 DUP3 SWAP1 MSTORE PUSH3 0x461BCD PUSH1 0xE5 SHL DUP3 MSTORE PUSH2 0x1083 SWAP2 PUSH1 0x4 ADD PUSH2 0x5150 JUMP JUMPDEST PUSH1 0x1 PUSH1 0x1 PUSH1 0xA0 SHL SUB DUP1 DUP5 AND PUSH1 0x0 SWAP1 DUP2 MSTORE PUSH1 0x7 PUSH1 0x20 SWAP1 DUP2 MSTORE PUSH1 0x40 DUP1 DUP4 KECCAK256 SWAP4 DUP7 AND DUP4 MSTORE SWAP3 SWAP1 MSTORE KECCAK256 SLOAD DUP2 DUP2 LT ISZERO PUSH2 0x41BF JUMPI PUSH1 0x40 MLOAD PUSH4 0x17E286B PUSH1 0xE5 SHL DUP2 MSTORE PUSH1 0x4 ADD PUSH1 0x40 MLOAD DUP1 SWAP2 SUB SWAP1 REVERT JUMPDEST PUSH2 0x2108 DUP5 DUP5 PUSH2 0x41CE DUP6 DUP6 PUSH2 0x562A JUMP JUMPDEST PUSH2 0x1ED8 JUMP JUMPDEST PUSH1 0x0 PUSH2 0x42B7 DUP4 PUSH1 0x1 PUSH1 0x1 PUSH1 0xA0 SHL SUB AND PUSH4 0xA28A477 DUP5 PUSH1 0x40 MLOAD DUP3 PUSH4 0xFFFFFFFF AND PUSH1 0xE0 SHL DUP2 MSTORE PUSH1 0x4 ADD PUSH2 0x4204 SWAP2 SWAP1 PUSH2 0x4ECA JUMP JUMPDEST PUSH1 0x20 PUSH1 0x40 MLOAD DUP1 DUP4 SUB DUP2 DUP7 GAS STATICCALL ISZERO DUP1 ISZERO PUSH2 0x4221 JUMPI RETURNDATASIZE PUSH1 0x0 DUP1 RETURNDATACOPY RETURNDATASIZE PUSH1 0x0 REVERT JUMPDEST POP POP POP POP PUSH1 0x40 MLOAD RETURNDATASIZE PUSH1 0x1F NOT PUSH1 0x1F DUP3 ADD AND DUP3 ADD DUP1 PUSH1 0x40 MSTORE POP DUP2 ADD SWAP1 PUSH2 0x4245 SWAP2 SWAP1 PUSH2 0x55AA JUMP JUMPDEST PUSH1 0x40 MLOAD PUSH4 0x70A08231 PUSH1 0xE0 SHL DUP2 MSTORE PUSH1 0x1 PUSH1 0x1 PUSH1 0xA0 SHL SUB DUP7 AND SWAP1 PUSH4 0x70A08231 SWAP1 PUSH2 0x4271 SWAP1 ADDRESS SWAP1 PUSH1 0x4 ADD PUSH2 0x4EB6 JUMP JUMPDEST PUSH1 0x20 PUSH1 0x40 MLOAD DUP1 DUP4 SUB DUP2 DUP7 GAS STATICCALL ISZERO DUP1 ISZERO PUSH2 0x428E JUMPI RETURNDATASIZE PUSH1 0x0 DUP1 RETURNDATACOPY RETURNDATASIZE PUSH1 0x0 REVERT JUMPDEST POP POP POP POP PUSH1 0x40 MLOAD RETURNDATASIZE PUSH1 0x1F NOT PUSH1 0x1F DUP3 ADD AND DUP3 ADD DUP1 PUSH1 0x40 MSTORE POP DUP2 ADD SWAP1 PUSH2 0x42B2 SWAP2 SWAP1 PUSH2 0x55AA JUMP JUMPDEST PUSH2 0x257F JUMP JUMPDEST PUSH1 0x40 MLOAD PUSH4 0x5D043B29 PUSH1 0xE1 SHL DUP2 MSTORE SWAP1 SWAP2 POP PUSH1 0x1 PUSH1 0x1 PUSH1 0xA0 SHL SUB DUP5 AND SWAP1 PUSH4 0xBA087652 SWAP1 PUSH2 0x42EA SWAP1 DUP5 SWAP1 ADDRESS SWAP1 DUP2 SWAP1 PUSH1 0x4 ADD PUSH2 0x5B1E JUMP JUMPDEST PUSH1 0x20 PUSH1 0x40 MLOAD DUP1 DUP4 SUB DUP2 PUSH1 0x0 DUP8 GAS CALL ISZERO DUP1 ISZERO PUSH2 0x4309 JUMPI RETURNDATASIZE PUSH1 0x0 DUP1 RETURNDATACOPY RETURNDATASIZE PUSH1 0x0 REVERT JUMPDEST POP POP POP POP PUSH1 0x40 MLOAD RETURNDATASIZE PUSH1 0x1F NOT PUSH1 0x1F DUP3 ADD AND DUP3 ADD DUP1 PUSH1 0x40 MSTORE POP DUP2 ADD SWAP1 PUSH2 0x27FC SWAP2 SWAP1 PUSH2 0x55AA JUMP JUMPDEST PUSH1 0x1 PUSH1 0x1 PUSH1 0xA0 SHL SUB DUP4 AND ISZERO DUP1 PUSH2 0x434A JUMPI POP PUSH1 0x1 PUSH1 0x1 PUSH1 0xA0 SHL SUB DUP3 AND ISZERO JUMPDEST ISZERO PUSH2 0x4368 JUMPI PUSH1 0x40 MLOAD PUSH4 0xD92E233D PUSH1 0xE0 SHL DUP2 MSTORE PUSH1 0x4 ADD PUSH1 0x40 MLOAD DUP1 SWAP2 SUB SWAP1 REVERT JUMPDEST PUSH1 0x40 MLOAD PUSH4 0x95EA7B3 PUSH1 0xE0 SHL DUP2 MSTORE PUSH1 0x1 PUSH1 0x1 PUSH1 0xA0 SHL SUB DUP5 AND SWAP1 PUSH4 0x95EA7B3 SWAP1 PUSH2 0x4396 SWAP1 DUP6 SWAP1 DUP6 SWAP1 PUSH1 0x4 ADD PUSH2 0x59BE JUMP JUMPDEST PUSH1 0x20 PUSH1 0x40 MLOAD DUP1 DUP4 SUB DUP2 PUSH1 0x0 DUP8 GAS CALL ISZERO DUP1 ISZERO PUSH2 0x43B5 JUMPI RETURNDATASIZE PUSH1 0x0 DUP1 RETURNDATACOPY RETURNDATASIZE PUSH1 0x0 REVERT JUMPDEST POP POP POP POP PUSH1 0x40 MLOAD RETURNDATASIZE PUSH1 0x1F NOT PUSH1 0x1F DUP3 ADD AND DUP3 ADD DUP1 PUSH1 0x40 MSTORE POP DUP2 ADD SWAP1 PUSH2 0x43D9 SWAP2 SWAP1 PUSH2 0x5967 JUMP JUMPDEST PUSH2 0x1008 JUMPI PUSH1 0x40 MLOAD PUSH3 0x461BCD PUSH1 0xE5 SHL DUP2 MSTORE PUSH1 0x4 ADD PUSH2 0x1083 SWAP1 PUSH2 0x5B6C JUMP JUMPDEST PUSH1 0x0 PUSH1 0x1 PUSH1 0x1 PUSH1 0xA0 SHL SUB DUP3 AND PUSH2 0x441E JUMPI PUSH1 0x40 MLOAD PUSH4 0xD92E233D PUSH1 0xE0 SHL DUP2 MSTORE PUSH1 0x4 ADD PUSH1 0x40 MLOAD DUP1 SWAP2 SUB SWAP1 REVERT JUMPDEST PUSH1 0x0 PUSH2 0x4428 PUSH2 0x2093 JUMP JUMPDEST SWAP1 POP PUSH1 0x0 PUSH2 0x4434 PUSH2 0x1D6A JUMP JUMPDEST SWAP1 POP PUSH1 0x0 DUP3 PUSH1 0x0 SUB PUSH2 0x4447 JUMPI POP DUP5 PUSH2 0x448C JUMP JUMPDEST DUP6 DUP3 GT ISZERO PUSH2 0x4474 JUMPI PUSH2 0x4459 DUP7 DUP4 PUSH2 0x562A JUMP JUMPDEST PUSH2 0x4463 DUP5 DUP9 PUSH2 0x55E1 JUMP JUMPDEST PUSH2 0x446D SWAP2 SWAP1 PUSH2 0x5616 JUMP JUMPDEST SWAP1 POP PUSH2 0x448C JUMP JUMPDEST PUSH1 0x40 MLOAD PUSH3 0x461BCD PUSH1 0xE5 SHL DUP2 MSTORE PUSH1 0x4 ADD PUSH2 0x1083 SWAP1 PUSH2 0x5BA2 JUMP JUMPDEST DUP1 PUSH1 0x0 SUB PUSH2 0x44A0 JUMPI PUSH1 0x0 SWAP4 POP POP POP POP PUSH2 0xD91 JUMP JUMPDEST PUSH2 0xDCB DUP2 DUP7 JUMPDEST PUSH1 0x1 PUSH1 0x1 PUSH1 0xA0 SHL SUB DUP2 AND PUSH2 0x44CD JUMPI PUSH1 0x40 MLOAD PUSH4 0xD92E233D PUSH1 0xE0 SHL DUP2 MSTORE PUSH1 0x4 ADD PUSH1 0x40 MLOAD DUP1 SWAP2 SUB SWAP1 REVERT JUMPDEST PUSH1 0x1 PUSH1 0x1 PUSH1 0xA0 SHL SUB DUP2 AND PUSH1 0x0 SWAP1 DUP2 MSTORE PUSH1 0x6 PUSH1 0x20 MSTORE PUSH1 0x40 DUP2 KECCAK256 DUP1 SLOAD DUP5 SWAP3 SWAP1 PUSH2 0x44F5 SWAP1 DUP5 SWAP1 PUSH2 0x563D JUMP JUMPDEST SWAP3 POP POP DUP2 SWAP1 SSTORE POP DUP2 PUSH1 0x8 PUSH1 0x0 DUP3 DUP3 SLOAD PUSH2 0x450E SWAP2 SWAP1 PUSH2 0x563D JUMP JUMPDEST SWAP1 SWAP2 SSTORE POP POP PUSH1 0x40 MLOAD PUSH1 0x1 PUSH1 0x1 PUSH1 0xA0 SHL SUB DUP3 AND SWAP1 PUSH1 0x0 SWAP1 PUSH1 0x0 DUP1 MLOAD PUSH1 0x20 PUSH2 0x5E3B DUP4 CODECOPY DUP2 MLOAD SWAP2 MSTORE SWAP1 PUSH2 0x3957 SWAP1 DUP7 SWAP1 PUSH2 0x4ECA JUMP JUMPDEST PUSH1 0x0 PUSH2 0x4549 PUSH2 0x32A5 JUMP JUMPDEST SWAP1 POP DUP1 PUSH1 0x0 SUB PUSH2 0x4556 JUMPI POP JUMP JUMPDEST TIMESTAMP PUSH1 0x15 SLOAD GT ISZERO PUSH2 0x4565 JUMPI TIMESTAMP PUSH1 0x17 SSTORE JUMPDEST PUSH2 0x2028 DUP2 ADDRESS PUSH2 0x38AC JUMP JUMPDEST PUSH1 0x0 DUP1 PUSH1 0x0 DUP4 PUSH1 0x1 PUSH1 0x1 PUSH1 0xA0 SHL SUB AND PUSH4 0x70A08231 ADDRESS PUSH1 0x40 MLOAD DUP3 PUSH4 0xFFFFFFFF AND PUSH1 0xE0 SHL DUP2 MSTORE PUSH1 0x4 ADD PUSH2 0x45A0 SWAP2 SWAP1 PUSH2 0x4EB6 JUMP JUMPDEST PUSH1 0x20 PUSH1 0x40 MLOAD DUP1 DUP4 SUB DUP2 DUP7 GAS STATICCALL ISZERO DUP1 ISZERO PUSH2 0x45BD JUMPI RETURNDATASIZE PUSH1 0x0 DUP1 RETURNDATACOPY RETURNDATASIZE PUSH1 0x0 REVERT JUMPDEST POP POP POP POP PUSH1 0x40 MLOAD RETURNDATASIZE PUSH1 0x1F NOT PUSH1 0x1F DUP3 ADD AND DUP3 ADD DUP1 PUSH1 0x40 MSTORE POP DUP2 ADD SWAP1 PUSH2 0x45E1 SWAP2 SWAP1 PUSH2 0x55AA JUMP JUMPDEST SWAP1 POP PUSH1 0x0 DUP5 PUSH1 0x1 PUSH1 0x1 PUSH1 0xA0 SHL SUB AND PUSH4 0x7A2D13A DUP4 PUSH1 0x40 MLOAD DUP3 PUSH4 0xFFFFFFFF AND PUSH1 0xE0 SHL DUP2 MSTORE PUSH1 0x4 ADD PUSH2 0x4611 SWAP2 SWAP1 PUSH2 0x4ECA JUMP JUMPDEST PUSH1 0x20 PUSH1 0x40 MLOAD DUP1 DUP4 SUB DUP2 DUP7 GAS STATICCALL ISZERO DUP1 ISZERO PUSH2 0x462E JUMPI RETURNDATASIZE PUSH1 0x0 DUP1 RETURNDATACOPY RETURNDATASIZE PUSH1 0x0 REVERT JUMPDEST POP POP POP POP PUSH1 0x40 MLOAD RETURNDATASIZE PUSH1 0x1F NOT PUSH1 0x1F DUP3 ADD AND DUP3 ADD DUP1 PUSH1 0x40 MSTORE POP DUP2 ADD SWAP1 PUSH2 0x4652 SWAP2 SWAP1 PUSH2 0x55AA JUMP JUMPDEST PUSH1 0x1 PUSH1 0x1 PUSH1 0xA0 SHL SUB DUP7 AND PUSH1 0x0 SWAP1 DUP2 MSTORE PUSH1 0x3 PUSH1 0x20 MSTORE PUSH1 0x40 DUP2 KECCAK256 PUSH1 0x2 ADD SLOAD SWAP2 SWAP3 POP DUP1 DUP3 DUP5 GT ISZERO PUSH2 0x468B JUMPI PUSH2 0x4684 DUP4 DUP6 PUSH2 0x562A JUMP JUMPDEST SWAP2 POP PUSH2 0x4698 JUMP JUMPDEST PUSH2 0x4695 DUP5 DUP5 PUSH2 0x562A JUMP JUMPDEST SWAP1 POP JUMPDEST SWAP1 SWAP8 SWAP1 SWAP7 POP SWAP5 POP POP POP POP POP JUMP JUMPDEST PUSH2 0x46AD PUSH2 0x4E29 JUMP JUMPDEST PUSH2 0x46B5 PUSH2 0x4E29 JUMP JUMPDEST PUSH1 0xD SLOAD PUSH1 0x1 PUSH1 0x1 PUSH1 0xA0 SHL SUB AND ISZERO PUSH2 0xF2B JUMPI PUSH1 0xD SLOAD PUSH1 0x40 MLOAD PUSH4 0x921F8A8F PUSH1 0xE0 SHL DUP2 MSTORE PUSH1 0x1 PUSH1 0x1 PUSH1 0xA0 SHL SUB SWAP1 SWAP2 AND SWAP1 PUSH4 0x921F8A8F SWAP1 PUSH2 0x46FA SWAP1 DUP9 SWAP1 DUP9 SWAP1 DUP9 SWAP1 PUSH1 0x4 ADD PUSH2 0x5BB2 JUMP JUMPDEST PUSH1 0x40 DUP1 MLOAD DUP1 DUP4 SUB DUP2 PUSH1 0x0 DUP8 GAS CALL ISZERO DUP1 ISZERO PUSH2 0x4718 JUMPI RETURNDATASIZE PUSH1 0x0 DUP1 RETURNDATACOPY RETURNDATASIZE PUSH1 0x0 REVERT JUMPDEST POP POP POP POP PUSH1 0x40 MLOAD RETURNDATASIZE PUSH1 0x1F NOT PUSH1 0x1F DUP3 ADD AND DUP3 ADD DUP1 PUSH1 0x40 MSTORE POP DUP2 ADD SWAP1 PUSH2 0x473C SWAP2 SWAP1 PUSH2 0x5BCD JUMP JUMPDEST PUSH1 0x20 DUP4 ADD MSTORE DUP1 DUP3 MSTORE ISZERO PUSH2 0xF2B JUMPI PUSH1 0x0 PUSH32 0x0 PUSH1 0x1 PUSH1 0x1 PUSH1 0xA0 SHL SUB AND PUSH4 0x7D3277F PUSH1 0x40 MLOAD DUP2 PUSH4 0xFFFFFFFF AND PUSH1 0xE0 SHL DUP2 MSTORE PUSH1 0x4 ADD PUSH1 0x40 DUP1 MLOAD DUP1 DUP4 SUB DUP2 DUP7 GAS STATICCALL ISZERO DUP1 ISZERO PUSH2 0x47A8 JUMPI RETURNDATASIZE PUSH1 0x0 DUP1 RETURNDATACOPY RETURNDATASIZE PUSH1 0x0 REVERT JUMPDEST POP POP POP POP PUSH1 0x40 MLOAD RETURNDATASIZE PUSH1 0x1F NOT PUSH1 0x1F DUP3 ADD AND DUP3 ADD DUP1 PUSH1 0x40 MSTORE POP DUP2 ADD SWAP1 PUSH2 0x47CC SWAP2 SWAP1 PUSH2 0x5C20 JUMP JUMPDEST PUSH1 0x1 PUSH1 0x1 PUSH1 0xA0 SHL SUB AND PUSH1 0x60 DUP5 ADD MSTORE SWAP1 POP PUSH2 0xFFFF DUP2 AND ISZERO PUSH2 0x2576 JUMPI DUP2 MLOAD PUSH2 0x2710 SWAP1 PUSH2 0x47FB SWAP1 PUSH2 0xFFFF DUP5 AND SWAP1 PUSH2 0x55E1 JUMP JUMPDEST PUSH2 0x4805 SWAP2 SWAP1 PUSH2 0x5616 JUMP JUMPDEST PUSH1 0x40 DUP4 ADD MSTORE POP SWAP5 SWAP4 POP POP POP POP JUMP JUMPDEST PUSH2 0x481B PUSH2 0x4E5A JUMP JUMPDEST PUSH2 0x4823 PUSH2 0x4E5A JUMP JUMPDEST PUSH1 0x0 PUSH2 0x482F DUP6 DUP8 PUSH2 0x563D JUMP JUMPDEST GT ISZERO PUSH2 0xF2B JUMPI PUSH2 0x4849 PUSH2 0x4842 DUP6 DUP8 PUSH2 0x563D JUMP JUMPDEST PUSH1 0x1 PUSH2 0x1F70 JUMP JUMPDEST DUP2 MLOAD DUP3 SWAP1 PUSH2 0x4858 SWAP1 DUP4 SWAP1 PUSH2 0x563D JUMP JUMPDEST SWAP1 MSTORE POP DUP4 ISZERO PUSH2 0xF2B JUMPI PUSH2 0x4875 PUSH2 0x486E DUP5 DUP7 PUSH2 0x562A JUMP JUMPDEST PUSH1 0x0 PUSH2 0x1F70 JUMP JUMPDEST PUSH1 0x20 DUP3 ADD MSTORE DUP3 ISZERO PUSH2 0xF2B JUMPI PUSH2 0x488B DUP4 PUSH1 0x0 PUSH2 0x1F70 JUMP JUMPDEST PUSH1 0x40 DUP3 ADD MSTORE SWAP5 SWAP4 POP POP POP POP JUMP JUMPDEST PUSH1 0x0 DUP1 PUSH1 0x0 DUP1 DUP8 PUSH1 0x20 ADD MLOAD GT ISZERO PUSH2 0x49FD JUMPI PUSH1 0x20 DUP8 ADD MLOAD PUSH1 0xD SLOAD PUSH1 0x40 MLOAD PUSH4 0x70A08231 PUSH1 0xE0 SHL DUP2 MSTORE PUSH2 0x49A0 SWAP3 SWAP2 PUSH2 0x42B2 SWAP2 PUSH1 0x1 PUSH1 0x1 PUSH1 0xA0 SHL SUB PUSH32 0x0 DUP2 AND SWAP3 PUSH4 0x70A08231 SWAP3 PUSH2 0x490A SWAP3 SWAP2 SWAP1 SWAP2 AND SWAP1 PUSH1 0x4 ADD PUSH2 0x4EB6 JUMP JUMPDEST PUSH1 0x20 PUSH1 0x40 MLOAD DUP1 DUP4 SUB DUP2 DUP7 GAS STATICCALL ISZERO DUP1 ISZERO PUSH2 0x4927 JUMPI RETURNDATASIZE PUSH1 0x0 DUP1 RETURNDATACOPY RETURNDATASIZE PUSH1 0x0 REVERT JUMPDEST POP POP POP POP PUSH1 0x40 MLOAD RETURNDATASIZE PUSH1 0x1F NOT PUSH1 0x1F DUP3 ADD AND DUP3 ADD DUP1 PUSH1 0x40 MSTORE POP DUP2 ADD SWAP1 PUSH2 0x494B SWAP2 SWAP1 PUSH2 0x55AA JUMP JUMPDEST PUSH1 0xD SLOAD PUSH1 0x40 MLOAD PUSH4 0x6EB1769F PUSH1 0xE1 SHL DUP2 MSTORE PUSH1 0x1 PUSH1 0x1 PUSH1 0xA0 SHL SUB PUSH32 0x0 DUP2 AND SWAP3 PUSH4 0xDD62ED3E SWAP3 PUSH2 0x4271 SWAP3 SWAP2 SWAP1 SWAP2 AND SWAP1 ADDRESS SWAP1 PUSH1 0x4 ADD PUSH2 0x5C53 JUMP JUMPDEST PUSH1 0x20 DUP9 ADD DUP2 SWAP1 MSTORE PUSH1 0xD SLOAD PUSH2 0x49E1 SWAP2 PUSH32 0x0 SWAP2 PUSH1 0x1 PUSH1 0x1 PUSH1 0xA0 SHL SUB AND SWAP1 ADDRESS SWAP1 PUSH2 0x2720 JUMP JUMPDEST DUP7 PUSH1 0x20 ADD MLOAD PUSH1 0xA PUSH1 0x0 DUP3 DUP3 SLOAD PUSH2 0x49F7 SWAP2 SWAP1 PUSH2 0x563D JUMP JUMPDEST SWAP1 SWAP2 SSTORE POP POP JUMPDEST DUP6 ISZERO PUSH2 0x4A4D JUMPI PUSH1 0x1 PUSH1 0x1 PUSH1 0xA0 SHL SUB DUP5 AND PUSH1 0x0 SWAP1 DUP2 MSTORE PUSH1 0x3 PUSH1 0x20 MSTORE PUSH1 0x40 DUP2 KECCAK256 PUSH1 0x2 ADD DUP1 SLOAD DUP9 SWAP3 SWAP1 PUSH2 0x4A2E SWAP1 DUP5 SWAP1 PUSH2 0x563D JUMP JUMPDEST SWAP3 POP POP DUP2 SWAP1 SSTORE POP DUP6 PUSH1 0x9 PUSH1 0x0 DUP3 DUP3 SLOAD PUSH2 0x4A47 SWAP2 SWAP1 PUSH2 0x563D JUMP JUMPDEST SWAP1 SWAP2 SSTORE POP POP JUMPDEST PUSH1 0x0 DUP8 PUSH1 0x20 ADD MLOAD DUP8 PUSH2 0x4A5F SWAP2 SWAP1 PUSH2 0x563D JUMP JUMPDEST GT DUP1 ISZERO PUSH2 0x4A6D JUMPI POP PUSH1 0x14 SLOAD ISZERO ISZERO JUMPDEST ISZERO PUSH2 0x4A8E JUMPI PUSH2 0x4A8B DUP8 PUSH1 0x20 ADD MLOAD DUP8 PUSH2 0x4A85 SWAP2 SWAP1 PUSH2 0x563D JUMP JUMPDEST ADDRESS PUSH2 0x43F5 JUMP JUMPDEST SWAP1 POP JUMPDEST DUP5 ISZERO PUSH2 0x4ADE JUMPI PUSH1 0x1 PUSH1 0x1 PUSH1 0xA0 SHL SUB DUP5 AND PUSH1 0x0 SWAP1 DUP2 MSTORE PUSH1 0x3 PUSH1 0x20 MSTORE PUSH1 0x40 DUP2 KECCAK256 PUSH1 0x2 ADD DUP1 SLOAD DUP8 SWAP3 SWAP1 PUSH2 0x4ABF SWAP1 DUP5 SWAP1 PUSH2 0x562A JUMP JUMPDEST SWAP3 POP POP DUP2 SWAP1 SSTORE POP DUP5 PUSH1 0x9 PUSH1 0x0 DUP3 DUP3 SLOAD PUSH2 0x4AD8 SWAP2 SWAP1 PUSH2 0x562A JUMP JUMPDEST SWAP1 SWAP2 SSTORE POP POP JUMPDEST ADDRESS PUSH1 0x0 SWAP1 DUP2 MSTORE PUSH1 0x6 PUSH1 0x20 MSTORE PUSH1 0x40 DUP2 KECCAK256 SLOAD PUSH2 0x4AF9 SWAP1 DUP4 SWAP1 PUSH2 0x562A JUMP JUMPDEST DUP10 MLOAD SWAP1 SWAP2 POP ISZERO PUSH2 0x4B5A JUMPI DUP9 MLOAD PUSH2 0x4B13 SWAP1 PUSH2 0x42B2 DUP5 DUP5 PUSH2 0x563D JUMP JUMPDEST DUP1 DUP11 MSTORE PUSH2 0x4B20 SWAP1 ADDRESS PUSH2 0x38AC JUMP JUMPDEST PUSH1 0x0 PUSH2 0x4B30 DUP11 PUSH1 0x0 ADD MLOAD DUP5 PUSH2 0x257F JUMP JUMPDEST SWAP1 POP PUSH2 0x4B3C DUP2 DUP5 PUSH2 0x562A JUMP JUMPDEST DUP11 MLOAD SWAP1 SWAP4 POP PUSH2 0x4B4C SWAP1 DUP3 SWAP1 PUSH2 0x562A JUMP JUMPDEST PUSH2 0x4B56 SWAP1 DUP4 PUSH2 0x562A JUMP JUMPDEST SWAP2 POP POP JUMPDEST PUSH1 0x20 DUP10 ADD MLOAD ISZERO PUSH2 0x4B7F JUMPI PUSH1 0x20 DUP10 ADD MLOAD PUSH1 0xD SLOAD PUSH2 0x4B7F SWAP2 SWAP1 PUSH1 0x1 PUSH1 0x1 PUSH1 0xA0 SHL SUB AND PUSH2 0x44A6 JUMP JUMPDEST PUSH1 0x40 DUP10 ADD MLOAD ISZERO PUSH2 0x4B9B JUMPI PUSH2 0x4B9B DUP10 PUSH1 0x40 ADD MLOAD DUP10 PUSH1 0x60 ADD MLOAD PUSH2 0x44A6 JUMP JUMPDEST SWAP9 SWAP1 SWAP8 POP SWAP6 POP POP POP POP POP POP JUMP JUMPDEST PUSH1 0x0 PUSH2 0x4BB4 DUP3 DUP5 PUSH2 0x563D JUMP JUMPDEST SWAP1 POP DUP1 ISZERO PUSH2 0x4C3F JUMPI PUSH1 0x0 TIMESTAMP PUSH1 0x15 SLOAD GT ISZERO PUSH2 0x4BE3 JUMPI TIMESTAMP PUSH1 0x15 SLOAD PUSH2 0x4BD6 SWAP2 SWAP1 PUSH2 0x562A JUMP JUMPDEST PUSH2 0x4BE0 SWAP1 DUP6 PUSH2 0x55E1 JUMP JUMPDEST SWAP1 POP JUMPDEST PUSH1 0x0 DUP3 PUSH1 0x14 SLOAD DUP6 PUSH2 0x4BF4 SWAP2 SWAP1 PUSH2 0x55E1 JUMP JUMPDEST PUSH2 0x4BFE SWAP1 DUP5 PUSH2 0x563D JUMP JUMPDEST PUSH2 0x4C08 SWAP2 SWAP1 PUSH2 0x5616 JUMP JUMPDEST SWAP1 POP DUP1 PUSH2 0x4C1A PUSH5 0xE8D4A51000 DUP6 PUSH2 0x55E1 JUMP JUMPDEST PUSH2 0x4C24 SWAP2 SWAP1 PUSH2 0x5616 JUMP JUMPDEST PUSH1 0x16 SSTORE PUSH2 0x4C31 DUP2 TIMESTAMP PUSH2 0x563D JUMP JUMPDEST PUSH1 0x15 SSTORE POP POP TIMESTAMP PUSH1 0x17 SSTORE POP POP POP JUMP JUMPDEST PUSH1 0x0 PUSH1 0x16 SSTORE POP POP POP JUMP JUMPDEST PUSH1 0x60 PUSH2 0xD91 PUSH1 0x1 PUSH1 0x1 PUSH1 0xA0 SHL SUB DUP4 AND PUSH1 0x14 JUMPDEST PUSH1 0x60 PUSH1 0x0 PUSH2 0x4C6A DUP4 PUSH1 0x2 PUSH2 0x55E1 JUMP JUMPDEST PUSH2 0x4C75 SWAP1 PUSH1 0x2 PUSH2 0x563D JUMP JUMPDEST PUSH1 0x1 PUSH1 0x1 PUSH1 0x40 SHL SUB DUP2 GT ISZERO PUSH2 0x4C8C JUMPI PUSH2 0x4C8C PUSH2 0x4F60 JUMP JUMPDEST PUSH1 0x40 MLOAD SWAP1 DUP1 DUP3 MSTORE DUP1 PUSH1 0x1F ADD PUSH1 0x1F NOT AND PUSH1 0x20 ADD DUP3 ADD PUSH1 0x40 MSTORE DUP1 ISZERO PUSH2 0x4CB6 JUMPI PUSH1 0x20 DUP3 ADD DUP2 DUP1 CALLDATASIZE DUP4 CALLDATACOPY ADD SWAP1 POP JUMPDEST POP SWAP1 POP PUSH1 0x3 PUSH1 0xFC SHL DUP2 PUSH1 0x0 DUP2 MLOAD DUP2 LT PUSH2 0x4CD1 JUMPI PUSH2 0x4CD1 PUSH2 0x5650 JUMP JUMPDEST PUSH1 0x20 ADD ADD SWAP1 PUSH1 0x1 PUSH1 0x1 PUSH1 0xF8 SHL SUB NOT AND SWAP1 DUP2 PUSH1 0x0 BYTE SWAP1 MSTORE8 POP PUSH1 0xF PUSH1 0xFB SHL DUP2 PUSH1 0x1 DUP2 MLOAD DUP2 LT PUSH2 0x4D00 JUMPI PUSH2 0x4D00 PUSH2 0x5650 JUMP JUMPDEST PUSH1 0x20 ADD ADD SWAP1 PUSH1 0x1 PUSH1 0x1 PUSH1 0xF8 SHL SUB NOT AND SWAP1 DUP2 PUSH1 0x0 BYTE SWAP1 MSTORE8 POP PUSH1 0x0 PUSH2 0x4D24 DUP5 PUSH1 0x2 PUSH2 0x55E1 JUMP JUMPDEST PUSH2 0x4D2F SWAP1 PUSH1 0x1 PUSH2 0x563D JUMP JUMPDEST SWAP1 POP JUMPDEST PUSH1 0x1 DUP2 GT ISZERO PUSH2 0x4DA7 JUMPI PUSH16 0x181899199A1A9B1B9C1CB0B131B232B3 PUSH1 0x81 SHL DUP6 PUSH1 0xF AND PUSH1 0x10 DUP2 LT PUSH2 0x4D63 JUMPI PUSH2 0x4D63 PUSH2 0x5650 JUMP JUMPDEST BYTE PUSH1 0xF8 SHL DUP3 DUP3 DUP2 MLOAD DUP2 LT PUSH2 0x4D79 JUMPI PUSH2 0x4D79 PUSH2 0x5650 JUMP JUMPDEST PUSH1 0x20 ADD ADD SWAP1 PUSH1 0x1 PUSH1 0x1 PUSH1 0xF8 SHL SUB NOT AND SWAP1 DUP2 PUSH1 0x0 BYTE SWAP1 MSTORE8 POP PUSH1 0x4 SWAP5 SWAP1 SWAP5 SHR SWAP4 PUSH2 0x4DA0 DUP2 PUSH2 0x5C61 JUMP JUMPDEST SWAP1 POP PUSH2 0x4D32 JUMP JUMPDEST POP DUP4 ISZERO PUSH2 0xE7C JUMPI PUSH1 0x40 MLOAD PUSH3 0x461BCD PUSH1 0xE5 SHL DUP2 MSTORE PUSH1 0x4 ADD PUSH2 0x1083 SWAP1 PUSH2 0x5CAA JUMP JUMPDEST DUP3 DUP1 SLOAD DUP3 DUP3 SSTORE SWAP1 PUSH1 0x0 MSTORE PUSH1 0x20 PUSH1 0x0 KECCAK256 SWAP1 DUP2 ADD SWAP3 DUP3 ISZERO PUSH2 0x4E19 JUMPI SWAP2 PUSH1 0x20 MUL DUP3 ADD JUMPDEST DUP3 DUP2 GT ISZERO PUSH2 0x4E19 JUMPI DUP2 SLOAD PUSH1 0x1 PUSH1 0x1 PUSH1 0xA0 SHL SUB NOT AND PUSH1 0x1 PUSH1 0x1 PUSH1 0xA0 SHL SUB DUP5 CALLDATALOAD AND OR DUP3 SSTORE PUSH1 0x20 SWAP1 SWAP3 ADD SWAP2 PUSH1 0x1 SWAP1 SWAP2 ADD SWAP1 PUSH2 0x4DE6 JUMP JUMPDEST POP PUSH2 0x4E25 SWAP3 SWAP2 POP PUSH2 0x4E7B JUMP JUMPDEST POP SWAP1 JUMP JUMPDEST PUSH1 0x40 MLOAD DUP1 PUSH1 0x80 ADD PUSH1 0x40 MSTORE DUP1 PUSH1 0x0 DUP2 MSTORE PUSH1 0x20 ADD PUSH1 0x0 DUP2 MSTORE PUSH1 0x20 ADD PUSH1 0x0 DUP2 MSTORE PUSH1 0x20 ADD PUSH1 0x0 PUSH1 0x1 PUSH1 0x1 PUSH1 0xA0 SHL SUB AND DUP2 MSTORE POP SWAP1 JUMP JUMPDEST PUSH1 0x40 MLOAD DUP1 PUSH1 0x60 ADD PUSH1 0x40 MSTORE DUP1 PUSH1 0x0 DUP2 MSTORE PUSH1 0x20 ADD PUSH1 0x0 DUP2 MSTORE PUSH1 0x20 ADD PUSH1 0x0 DUP2 MSTORE POP SWAP1 JUMP JUMPDEST JUMPDEST DUP1 DUP3 GT ISZERO PUSH2 0x4E25 JUMPI PUSH1 0x0 DUP2 SSTORE PUSH1 0x1 ADD PUSH2 0x4E7C JUMP JUMPDEST PUSH1 0x1 PUSH1 0x1 PUSH1 0xA0 SHL SUB AND SWAP1 JUMP JUMPDEST PUSH1 0x0 PUSH2 0xD91 DUP3 PUSH2 0x4E90 JUMP JUMPDEST PUSH2 0x4EB0 DUP2 PUSH2 0x4E9C JUMP JUMPDEST DUP3 MSTORE POP POP JUMP JUMPDEST PUSH1 0x20 DUP2 ADD PUSH2 0xD91 DUP3 DUP5 PUSH2 0x4EA7 JUMP JUMPDEST DUP1 PUSH2 0x4EB0 JUMP JUMPDEST PUSH1 0x20 DUP2 ADD PUSH2 0xD91 DUP3 DUP5 PUSH2 0x4EC4 JUMP JUMPDEST PUSH1 0x1 PUSH1 0x1 PUSH1 0xE0 SHL SUB NOT DUP2 AND JUMPDEST DUP2 EQ PUSH2 0x2028 JUMPI PUSH1 0x0 DUP1 REVERT JUMPDEST DUP1 CALLDATALOAD PUSH2 0xD91 DUP2 PUSH2 0x4ED8 JUMP JUMPDEST PUSH1 0x0 PUSH1 0x20 DUP3 DUP5 SUB SLT ISZERO PUSH2 0x4F0F JUMPI PUSH2 0x4F0F PUSH1 0x0 DUP1 REVERT JUMPDEST PUSH1 0x0 PUSH2 0xF2B DUP5 DUP5 PUSH2 0x4EEF JUMP JUMPDEST DUP1 ISZERO ISZERO PUSH2 0x4EB0 JUMP JUMPDEST PUSH1 0x20 DUP2 ADD PUSH2 0xD91 DUP3 DUP5 PUSH2 0x4F1B JUMP JUMPDEST DUP1 PUSH2 0x4EE4 JUMP JUMPDEST DUP1 CALLDATALOAD PUSH2 0xD91 DUP2 PUSH2 0x4F31 JUMP JUMPDEST PUSH2 0x4EE4 DUP2 PUSH2 0x4E9C JUMP JUMPDEST DUP1 CALLDATALOAD PUSH2 0xD91 DUP2 PUSH2 0x4F42 JUMP JUMPDEST PUSH1 0x1F ADD PUSH1 0x1F NOT AND SWAP1 JUMP JUMPDEST PUSH4 0x4E487B71 PUSH1 0xE0 SHL PUSH1 0x0 MSTORE PUSH1 0x41 PUSH1 0x4 MSTORE PUSH1 0x24 PUSH1 0x0 REVERT JUMPDEST PUSH2 0x4F7F DUP3 PUSH2 0x4F56 JUMP JUMPDEST DUP2 ADD DUP2 DUP2 LT PUSH1 0x1 PUSH1 0x1 PUSH1 0x40 SHL SUB DUP3 GT OR ISZERO PUSH2 0x4F9C JUMPI PUSH2 0x4F9C PUSH2 0x4F60 JUMP JUMPDEST PUSH1 0x40 MSTORE POP POP JUMP JUMPDEST PUSH1 0x0 PUSH2 0x4FAE PUSH1 0x40 MLOAD SWAP1 JUMP JUMPDEST SWAP1 POP PUSH2 0x4FBA DUP3 DUP3 PUSH2 0x4F76 JUMP JUMPDEST SWAP2 SWAP1 POP JUMP JUMPDEST PUSH1 0x0 PUSH1 0x1 PUSH1 0x1 PUSH1 0x40 SHL SUB DUP3 GT ISZERO PUSH2 0x4FD8 JUMPI PUSH2 0x4FD8 PUSH2 0x4F60 JUMP JUMPDEST POP PUSH1 0x20 SWAP1 DUP2 MUL ADD SWAP1 JUMP JUMPDEST PUSH1 0x0 PUSH2 0x4FF5 PUSH2 0x4FF0 DUP5 PUSH2 0x4FBF JUMP JUMPDEST PUSH2 0x4FA3 JUMP JUMPDEST DUP4 DUP2 MSTORE SWAP1 POP PUSH1 0x20 DUP1 DUP3 ADD SWAP1 DUP5 MUL DUP4 ADD DUP6 DUP2 GT ISZERO PUSH2 0x5014 JUMPI PUSH2 0x5014 PUSH1 0x0 DUP1 REVERT JUMPDEST DUP4 JUMPDEST DUP2 DUP2 LT ISZERO PUSH2 0x5038 JUMPI DUP1 PUSH2 0x5029 DUP9 DUP3 PUSH2 0x4F4B JUMP JUMPDEST DUP5 MSTORE POP PUSH1 0x20 SWAP3 DUP4 ADD SWAP3 ADD PUSH2 0x5016 JUMP JUMPDEST POP POP POP SWAP4 SWAP3 POP POP POP JUMP JUMPDEST PUSH1 0x0 DUP3 PUSH1 0x1F DUP4 ADD SLT PUSH2 0x5056 JUMPI PUSH2 0x5056 PUSH1 0x0 DUP1 REVERT JUMPDEST DUP2 CALLDATALOAD PUSH2 0xF2B DUP5 DUP3 PUSH1 0x20 DUP7 ADD PUSH2 0x4FE2 JUMP JUMPDEST PUSH1 0x0 DUP1 PUSH1 0x0 DUP1 PUSH1 0x0 PUSH1 0xA0 DUP7 DUP9 SUB SLT ISZERO PUSH2 0x5081 JUMPI PUSH2 0x5081 PUSH1 0x0 DUP1 REVERT JUMPDEST PUSH1 0x0 PUSH2 0x508D DUP9 DUP9 PUSH2 0x4F37 JUMP JUMPDEST SWAP6 POP POP PUSH1 0x20 PUSH2 0x509E DUP9 DUP3 DUP10 ADD PUSH2 0x4F4B JUMP JUMPDEST SWAP5 POP POP PUSH1 0x40 PUSH2 0x50AF DUP9 DUP3 DUP10 ADD PUSH2 0x4F4B JUMP JUMPDEST SWAP4 POP POP PUSH1 0x60 PUSH2 0x50C0 DUP9 DUP3 DUP10 ADD PUSH2 0x4F37 JUMP JUMPDEST SWAP3 POP POP PUSH1 0x80 DUP7 ADD CALLDATALOAD PUSH1 0x1 PUSH1 0x1 PUSH1 0x40 SHL SUB DUP2 GT ISZERO PUSH2 0x50DF JUMPI PUSH2 0x50DF PUSH1 0x0 DUP1 REVERT JUMPDEST PUSH2 0x50EB DUP9 DUP3 DUP10 ADD PUSH2 0x5042 JUMP JUMPDEST SWAP2 POP POP SWAP3 SWAP6 POP SWAP3 SWAP6 SWAP1 SWAP4 POP JUMP JUMPDEST PUSH1 0x0 JUMPDEST DUP4 DUP2 LT ISZERO PUSH2 0x5113 JUMPI DUP2 DUP2 ADD MLOAD DUP4 DUP3 ADD MSTORE PUSH1 0x20 ADD PUSH2 0x50FB JUMP JUMPDEST POP POP PUSH1 0x0 SWAP2 ADD MSTORE JUMP JUMPDEST PUSH1 0x0 PUSH2 0x5126 DUP3 MLOAD SWAP1 JUMP JUMPDEST DUP1 DUP5 MSTORE PUSH1 0x20 DUP5 ADD SWAP4 POP PUSH2 0x513D DUP2 DUP6 PUSH1 0x20 DUP7 ADD PUSH2 0x50F8 JUMP JUMPDEST PUSH2 0x5146 DUP2 PUSH2 0x4F56 JUMP JUMPDEST SWAP1 SWAP4 ADD SWAP4 SWAP3 POP POP POP JUMP JUMPDEST PUSH1 0x20 DUP1 DUP3 MSTORE DUP2 ADD PUSH2 0xE7C DUP2 DUP5 PUSH2 0x511C JUMP JUMPDEST PUSH1 0x0 PUSH1 0x20 DUP3 DUP5 SUB SLT ISZERO PUSH2 0x5176 JUMPI PUSH2 0x5176 PUSH1 0x0 DUP1 REVERT JUMPDEST PUSH1 0x0 PUSH2 0xF2B DUP5 DUP5 PUSH2 0x4F37 JUMP JUMPDEST PUSH1 0x0 DUP1 PUSH1 0x40 DUP4 DUP6 SUB SLT ISZERO PUSH2 0x5198 JUMPI PUSH2 0x5198 PUSH1 0x0 DUP1 REVERT JUMPDEST PUSH1 0x0 PUSH2 0x51A4 DUP6 DUP6 PUSH2 0x4F4B JUMP JUMPDEST SWAP3 POP POP PUSH1 0x20 PUSH2 0x51B5 DUP6 DUP3 DUP7 ADD PUSH2 0x4F37 JUMP JUMPDEST SWAP2 POP POP SWAP3 POP SWAP3 SWAP1 POP JUMP JUMPDEST PUSH1 0x0 PUSH1 0x20 DUP3 DUP5 SUB SLT ISZERO PUSH2 0x51D4 JUMPI PUSH2 0x51D4 PUSH1 0x0 DUP1 REVERT JUMPDEST PUSH1 0x0 PUSH2 0xF2B DUP5 DUP5 PUSH2 0x4F4B JUMP JUMPDEST PUSH1 0x0 DUP1 PUSH1 0x0 PUSH1 0x60 DUP5 DUP7 SUB SLT ISZERO PUSH2 0x51F8 JUMPI PUSH2 0x51F8 PUSH1 0x0 DUP1 REVERT JUMPDEST PUSH1 0x0 PUSH2 0x5204 DUP7 DUP7 PUSH2 0x4F4B JUMP JUMPDEST SWAP4 POP POP PUSH1 0x20 PUSH2 0x5215 DUP7 DUP3 DUP8 ADD PUSH2 0x4F4B JUMP JUMPDEST SWAP3 POP POP PUSH1 0x40 PUSH2 0x5226 DUP7 DUP3 DUP8 ADD PUSH2 0x4F37 JUMP JUMPDEST SWAP2 POP POP SWAP3 POP SWAP3 POP SWAP3 JUMP JUMPDEST PUSH1 0x0 DUP1 PUSH1 0x40 DUP4 DUP6 SUB SLT ISZERO PUSH2 0x5246 JUMPI PUSH2 0x5246 PUSH1 0x0 DUP1 REVERT JUMPDEST PUSH1 0x0 PUSH2 0x5252 DUP6 DUP6 PUSH2 0x4F37 JUMP JUMPDEST SWAP3 POP POP PUSH1 0x20 PUSH2 0x51B5 DUP6 DUP3 DUP7 ADD PUSH2 0x4F4B JUMP JUMPDEST PUSH1 0xFF DUP2 AND PUSH2 0x4EB0 JUMP JUMPDEST PUSH1 0x20 DUP2 ADD PUSH2 0xD91 DUP3 DUP5 PUSH2 0x5263 JUMP JUMPDEST PUSH1 0x0 DUP1 PUSH1 0x0 PUSH1 0x60 DUP5 DUP7 SUB SLT ISZERO PUSH2 0x5292 JUMPI PUSH2 0x5292 PUSH1 0x0 DUP1 REVERT JUMPDEST PUSH1 0x0 PUSH2 0x529E DUP7 DUP7 PUSH2 0x4F4B JUMP JUMPDEST SWAP4 POP POP PUSH1 0x20 PUSH2 0x52AF DUP7 DUP3 DUP8 ADD PUSH2 0x4F37 JUMP JUMPDEST SWAP3 POP POP PUSH1 0x40 DUP5 ADD CALLDATALOAD PUSH1 0x1 PUSH1 0x1 PUSH1 0x40 SHL SUB DUP2 GT ISZERO PUSH2 0x52CE JUMPI PUSH2 0x52CE PUSH1 0x0 DUP1 REVERT JUMPDEST PUSH2 0x5226 DUP7 DUP3 DUP8 ADD PUSH2 0x5042 JUMP JUMPDEST PUSH1 0x80 DUP2 ADD PUSH2 0x52E8 DUP3 DUP8 PUSH2 0x4EC4 JUMP JUMPDEST PUSH2 0x52F5 PUSH1 0x20 DUP4 ADD DUP7 PUSH2 0x4EC4 JUMP JUMPDEST PUSH2 0x5302 PUSH1 0x40 DUP4 ADD DUP6 PUSH2 0x4EC4 JUMP JUMPDEST PUSH2 0xDCB PUSH1 0x60 DUP4 ADD DUP5 PUSH2 0x4EC4 JUMP JUMPDEST PUSH1 0x0 PUSH2 0xD91 PUSH2 0x5323 PUSH2 0x5320 DUP5 PUSH2 0x4E90 JUMP JUMPDEST SWAP1 JUMP JUMPDEST PUSH2 0x4E90 JUMP JUMPDEST PUSH1 0x0 PUSH2 0xD91 DUP3 PUSH2 0x530F JUMP JUMPDEST PUSH1 0x0 PUSH2 0xD91 DUP3 PUSH2 0x5328 JUMP JUMPDEST PUSH2 0x4EB0 DUP2 PUSH2 0x5333 JUMP JUMPDEST PUSH1 0x20 DUP2 ADD PUSH2 0xD91 DUP3 DUP5 PUSH2 0x533E JUMP JUMPDEST PUSH1 0x0 DUP1 DUP4 PUSH1 0x1F DUP5 ADD SLT PUSH2 0x536A JUMPI PUSH2 0x536A PUSH1 0x0 DUP1 REVERT JUMPDEST POP DUP2 CALLDATALOAD PUSH1 0x1 PUSH1 0x1 PUSH1 0x40 SHL SUB DUP2 GT ISZERO PUSH2 0x5384 JUMPI PUSH2 0x5384 PUSH1 0x0 DUP1 REVERT JUMPDEST PUSH1 0x20 DUP4 ADD SWAP2 POP DUP4 PUSH1 0x20 DUP3 MUL DUP4 ADD GT ISZERO PUSH2 0x4078 JUMPI PUSH2 0x4078 PUSH1 0x0 DUP1 REVERT JUMPDEST PUSH1 0x0 DUP1 PUSH1 0x20 DUP4 DUP6 SUB SLT ISZERO PUSH2 0x53B5 JUMPI PUSH2 0x53B5 PUSH1 0x0 DUP1 REVERT JUMPDEST DUP3 CALLDATALOAD PUSH1 0x1 PUSH1 0x1 PUSH1 0x40 SHL SUB DUP2 GT ISZERO PUSH2 0x53CE JUMPI PUSH2 0x53CE PUSH1 0x0 DUP1 REVERT JUMPDEST PUSH2 0x53DA DUP6 DUP3 DUP7 ADD PUSH2 0x5355 JUMP JUMPDEST SWAP3 POP SWAP3 POP POP SWAP3 POP SWAP3 SWAP1 POP JUMP JUMPDEST DUP1 ISZERO ISZERO PUSH2 0x4EE4 JUMP JUMPDEST DUP1 CALLDATALOAD PUSH2 0xD91 DUP2 PUSH2 0x53E6 JUMP JUMPDEST PUSH1 0x0 PUSH1 0x20 DUP3 DUP5 SUB SLT ISZERO PUSH2 0x540E JUMPI PUSH2 0x540E PUSH1 0x0 DUP1 REVERT JUMPDEST PUSH1 0x0 PUSH2 0xF2B DUP5 DUP5 PUSH2 0x53EE JUMP JUMPDEST PUSH1 0x40 DUP2 ADD PUSH2 0x5428 DUP3 DUP6 PUSH2 0x4EC4 JUMP JUMPDEST PUSH2 0xE7C PUSH1 0x20 DUP4 ADD DUP5 PUSH2 0x4EC4 JUMP JUMPDEST PUSH1 0xFF DUP2 AND PUSH2 0x4EE4 JUMP JUMPDEST DUP1 CALLDATALOAD PUSH2 0xD91 DUP2 PUSH2 0x5435 JUMP JUMPDEST PUSH1 0x0 DUP1 PUSH1 0x0 DUP1 PUSH1 0x0 DUP1 PUSH1 0x0 PUSH1 0xE0 DUP9 DUP11 SUB SLT ISZERO PUSH2 0x5467 JUMPI PUSH2 0x5467 PUSH1 0x0 DUP1 REVERT JUMPDEST PUSH1 0x0 PUSH2 0x5473 DUP11 DUP11 PUSH2 0x4F4B JUMP JUMPDEST SWAP8 POP POP PUSH1 0x20 PUSH2 0x5484 DUP11 DUP3 DUP12 ADD PUSH2 0x4F4B JUMP JUMPDEST SWAP7 POP POP PUSH1 0x40 PUSH2 0x5495 DUP11 DUP3 DUP12 ADD PUSH2 0x4F37 JUMP JUMPDEST SWAP6 POP POP PUSH1 0x60 PUSH2 0x54A6 DUP11 DUP3 DUP12 ADD PUSH2 0x4F37 JUMP JUMPDEST SWAP5 POP POP PUSH1 0x80 PUSH2 0x54B7 DUP11 DUP3 DUP12 ADD PUSH2 0x543E JUMP JUMPDEST SWAP4 POP POP PUSH1 0xA0 PUSH2 0x54C8 DUP11 DUP3 DUP12 ADD PUSH2 0x4F37 JUMP JUMPDEST SWAP3 POP POP PUSH1 0xC0 PUSH2 0x54D9 DUP11 DUP3 DUP12 ADD PUSH2 0x4F37 JUMP JUMPDEST SWAP2 POP POP SWAP3 SWAP6 SWAP9 SWAP2 SWAP5 SWAP8 POP SWAP3 SWAP6 POP JUMP JUMPDEST PUSH1 0x0 DUP1 PUSH1 0x40 DUP4 DUP6 SUB SLT ISZERO PUSH2 0x54FE JUMPI PUSH2 0x54FE PUSH1 0x0 DUP1 REVERT JUMPDEST PUSH1 0x0 PUSH2 0x5252 DUP6 DUP6 PUSH2 0x4F4B JUMP JUMPDEST PUSH4 0x4E487B71 PUSH1 0xE0 SHL PUSH1 0x0 MSTORE PUSH1 0x22 PUSH1 0x4 MSTORE PUSH1 0x24 PUSH1 0x0 REVERT JUMPDEST PUSH1 0x2 DUP2 DIV PUSH1 0x1 DUP3 AND DUP1 PUSH2 0x5534 JUMPI PUSH1 0x7F DUP3 AND SWAP2 POP JUMPDEST PUSH1 0x20 DUP3 LT DUP2 SUB PUSH2 0x5546 JUMPI PUSH2 0x5546 PUSH2 0x550A JUMP JUMPDEST POP SWAP2 SWAP1 POP JUMP JUMPDEST PUSH1 0x20 DUP1 DUP3 MSTORE DUP2 ADD PUSH2 0xD91 DUP2 PUSH1 0x2F DUP2 MSTORE PUSH32 0x416363657373436F6E74726F6C3A2063616E206F6E6C792072656E6F756E6365 PUSH1 0x20 DUP3 ADD MSTORE PUSH15 0x103937B632B9903337B91039B2B633 PUSH1 0x89 SHL PUSH1 0x40 DUP3 ADD MSTORE PUSH1 0x60 ADD SWAP1 JUMP JUMPDEST DUP1 MLOAD PUSH2 0xD91 DUP2 PUSH2 0x4F31 JUMP JUMPDEST PUSH1 0x0 PUSH1 0x20 DUP3 DUP5 SUB SLT ISZERO PUSH2 0x55BF JUMPI PUSH2 0x55BF PUSH1 0x0 DUP1 REVERT JUMPDEST PUSH1 0x0 PUSH2 0xF2B DUP5 DUP5 PUSH2 0x559F JUMP JUMPDEST PUSH4 0x4E487B71 PUSH1 0xE0 SHL PUSH1 0x0 MSTORE PUSH1 0x11 PUSH1 0x4 MSTORE PUSH1 0x24 PUSH1 0x0 REVERT JUMPDEST PUSH1 0x0 DUP2 PUSH1 0x0 NOT DIV DUP4 GT DUP3 ISZERO ISZERO AND ISZERO PUSH2 0x55FB JUMPI PUSH2 0x55FB PUSH2 0x55CB JUMP JUMPDEST POP MUL SWAP1 JUMP JUMPDEST PUSH4 0x4E487B71 PUSH1 0xE0 SHL PUSH1 0x0 MSTORE PUSH1 0x12 PUSH1 0x4 MSTORE PUSH1 0x24 PUSH1 0x0 REVERT JUMPDEST PUSH1 0x0 DUP3 PUSH2 0x5625 JUMPI PUSH2 0x5625 PUSH2 0x5600 JUMP JUMPDEST POP DIV SWAP1 JUMP JUMPDEST DUP2 DUP2 SUB DUP2 DUP2 GT ISZERO PUSH2 0xD91 JUMPI PUSH2 0xD91 PUSH2 0x55CB JUMP JUMPDEST DUP1 DUP3 ADD DUP1 DUP3 GT ISZERO PUSH2 0xD91 JUMPI PUSH2 0xD91 PUSH2 0x55CB JUMP JUMPDEST PUSH4 0x4E487B71 PUSH1 0xE0 SHL PUSH1 0x0 MSTORE PUSH1 0x32 PUSH1 0x4 MSTORE PUSH1 0x24 PUSH1 0x0 REVERT JUMPDEST PUSH1 0x0 PUSH1 0x0 NOT DUP3 SUB PUSH2 0x5679 JUMPI PUSH2 0x5679 PUSH2 0x55CB JUMP JUMPDEST POP PUSH1 0x1 ADD SWAP1 JUMP JUMPDEST PUSH1 0x0 PUSH2 0x568C DUP4 DUP4 PUSH2 0x4EA7 JUMP JUMPDEST POP POP PUSH1 0x20 ADD SWAP1 JUMP JUMPDEST PUSH1 0x0 PUSH2 0xE7C PUSH1 0x20 DUP5 ADD DUP5 PUSH2 0x4F4B JUMP JUMPDEST DUP2 DUP4 MSTORE PUSH1 0x0 PUSH1 0x20 DUP5 ADD SWAP4 POP DUP2 DUP1 PUSH1 0x0 JUMPDEST DUP6 DUP2 LT ISZERO PUSH2 0x56E0 JUMPI PUSH2 0x56C5 DUP3 DUP5 PUSH2 0x5694 JUMP JUMPDEST PUSH2 0x56CF DUP9 DUP3 PUSH2 0x5680 JUMP JUMPDEST SWAP8 POP PUSH1 0x20 DUP4 ADD SWAP3 POP POP PUSH1 0x1 ADD PUSH2 0x56B3 JUMP JUMPDEST POP SWAP5 SWAP6 SWAP5 POP POP POP POP POP JUMP JUMPDEST PUSH1 0x20 DUP1 DUP3 MSTORE DUP2 ADD PUSH2 0xF2B DUP2 DUP5 DUP7 PUSH2 0x56A3 JUMP JUMPDEST DUP1 DUP3 JUMPDEST PUSH1 0x1 DUP6 GT ISZERO PUSH2 0x573C JUMPI DUP1 DUP7 DIV DUP2 GT ISZERO PUSH2 0x571B JUMPI PUSH2 0x571B PUSH2 0x55CB JUMP JUMPDEST PUSH1 0x1 DUP6 AND ISZERO PUSH2 0x5729 JUMPI SWAP1 DUP2 MUL SWAP1 JUMPDEST DUP1 MUL PUSH2 0x5735 DUP6 PUSH1 0x1 SHR SWAP1 JUMP JUMPDEST SWAP5 POP PUSH2 0x5700 JUMP JUMPDEST SWAP5 POP SWAP5 SWAP3 POP POP POP JUMP JUMPDEST PUSH1 0x0 DUP3 PUSH2 0x5754 JUMPI POP PUSH1 0x1 PUSH2 0xE7C JUMP JUMPDEST DUP2 PUSH2 0x5761 JUMPI POP PUSH1 0x0 PUSH2 0xE7C JUMP JUMPDEST DUP2 PUSH1 0x1 DUP2 EQ PUSH2 0x5777 JUMPI PUSH1 0x2 DUP2 EQ PUSH2 0x5781 JUMPI PUSH2 0x57AE JUMP JUMPDEST PUSH1 0x1 SWAP2 POP POP PUSH2 0xE7C JUMP JUMPDEST PUSH1 0xFF DUP5 GT ISZERO PUSH2 0x5792 JUMPI PUSH2 0x5792 PUSH2 0x55CB JUMP JUMPDEST DUP4 PUSH1 0x2 EXP SWAP2 POP DUP5 DUP3 GT ISZERO PUSH2 0x57A8 JUMPI PUSH2 0x57A8 PUSH2 0x55CB JUMP JUMPDEST POP PUSH2 0xE7C JUMP JUMPDEST POP PUSH1 0x20 DUP4 LT PUSH2 0x133 DUP4 LT AND PUSH1 0x4E DUP5 LT PUSH1 0xB DUP5 LT AND OR ISZERO PUSH2 0x57E1 JUMPI POP DUP2 DUP2 EXP DUP4 DUP2 GT ISZERO PUSH2 0x57DC JUMPI PUSH2 0x57DC PUSH2 0x55CB JUMP JUMPDEST PUSH2 0xE7C JUMP JUMPDEST PUSH2 0x57EE DUP5 DUP5 DUP5 PUSH1 0x1 PUSH2 0x56FD JUMP JUMPDEST SWAP3 POP SWAP1 POP DUP2 DUP5 DIV DUP2 GT ISZERO PUSH2 0x5804 JUMPI PUSH2 0x5804 PUSH2 0x55CB JUMP JUMPDEST MUL SWAP3 SWAP2 POP POP JUMP JUMPDEST PUSH1 0x0 PUSH2 0xE7C PUSH1 0x0 NOT DUP5 DUP5 PUSH2 0x5745 JUMP JUMPDEST PUSH4 0x4E487B71 PUSH1 0xE0 SHL PUSH1 0x0 MSTORE PUSH1 0x21 PUSH1 0x4 MSTORE PUSH1 0x24 PUSH1 0x0 REVERT JUMPDEST PUSH1 0x0 PUSH2 0xD91 PUSH2 0x5320 DUP4 DUP2 JUMP JUMPDEST PUSH2 0x4EB0 DUP2 PUSH2 0x5830 JUMP JUMPDEST PUSH1 0x20 DUP2 ADD PUSH2 0xD91 DUP3 DUP5 PUSH2 0x583C JUMP JUMPDEST PUSH1 0x1F DUP2 MSTORE PUSH1 0x0 PUSH1 0x20 DUP3 ADD PUSH32 0x5265656E7472616E637947756172643A207265656E7472616E742063616C6C00 DUP2 MSTORE SWAP2 POP JUMPDEST POP PUSH1 0x20 ADD SWAP1 JUMP JUMPDEST PUSH1 0x20 DUP1 DUP3 MSTORE DUP2 ADD PUSH2 0xD91 DUP2 PUSH2 0x5853 JUMP JUMPDEST PUSH1 0x0 DUP3 PUSH2 0x58A9 JUMPI PUSH2 0x58A9 PUSH2 0x5600 JUMP JUMPDEST POP MOD SWAP1 JUMP JUMPDEST PUSH1 0x40 DUP2 ADD PUSH2 0x58BC DUP3 DUP6 PUSH2 0x4EA7 JUMP JUMPDEST PUSH2 0xE7C PUSH1 0x20 DUP4 ADD DUP5 PUSH2 0x4F1B JUMP JUMPDEST PUSH1 0x0 PUSH2 0x58D3 DUP3 MLOAD SWAP1 JUMP JUMPDEST DUP1 DUP5 MSTORE PUSH1 0x20 SWAP4 DUP5 ADD SWAP4 DUP4 ADD DUP1 PUSH1 0x0 JUMPDEST DUP4 DUP2 LT ISZERO PUSH2 0x56E0 JUMPI DUP2 MLOAD PUSH2 0x58F6 DUP9 DUP3 PUSH2 0x5680 JUMP JUMPDEST SWAP8 POP PUSH1 0x20 DUP4 ADD SWAP3 POP POP PUSH1 0x1 ADD PUSH2 0x58E2 JUMP JUMPDEST PUSH1 0x60 DUP2 ADD PUSH2 0x5915 DUP3 DUP7 PUSH2 0x4EA7 JUMP JUMPDEST PUSH2 0x5922 PUSH1 0x20 DUP4 ADD DUP6 PUSH2 0x4EC4 JUMP JUMPDEST DUP2 DUP2 SUB PUSH1 0x40 DUP4 ADD MSTORE PUSH2 0xDCB DUP2 DUP5 PUSH2 0x58C9 JUMP JUMPDEST PUSH1 0x60 DUP2 ADD PUSH2 0x5942 DUP3 DUP7 PUSH2 0x4EA7 JUMP JUMPDEST PUSH2 0x594F PUSH1 0x20 DUP4 ADD DUP6 PUSH2 0x4EA7 JUMP JUMPDEST PUSH2 0xF2B PUSH1 0x40 DUP4 ADD DUP5 PUSH2 0x4EC4 JUMP JUMPDEST DUP1 MLOAD PUSH2 0xD91 DUP2 PUSH2 0x53E6 JUMP JUMPDEST PUSH1 0x0 PUSH1 0x20 DUP3 DUP5 SUB SLT ISZERO PUSH2 0x597C JUMPI PUSH2 0x597C PUSH1 0x0 DUP1 REVERT JUMPDEST PUSH1 0x0 PUSH2 0xF2B DUP5 DUP5 PUSH2 0x595C JUMP JUMPDEST PUSH1 0xF DUP2 MSTORE PUSH1 0x0 PUSH1 0x20 DUP3 ADD PUSH15 0x1D1C985B9CD9995C8819985A5B1959 PUSH1 0x8A SHL DUP2 MSTORE SWAP2 POP PUSH2 0x5883 JUMP JUMPDEST PUSH1 0x20 DUP1 DUP3 MSTORE DUP2 ADD PUSH2 0xD91 DUP2 PUSH2 0x5988 JUMP JUMPDEST PUSH1 0x40 DUP2 ADD PUSH2 0x5428 DUP3 DUP6 PUSH2 0x4EA7 JUMP JUMPDEST PUSH1 0x40 DUP2 ADD PUSH2 0x59DA DUP3 DUP6 PUSH2 0x4EC4 JUMP JUMPDEST PUSH2 0xE7C PUSH1 0x20 DUP4 ADD DUP5 PUSH2 0x4EA7 JUMP JUMPDEST PUSH1 0xC0 DUP2 ADD PUSH2 0x59F5 DUP3 DUP10 PUSH2 0x4EC4 JUMP JUMPDEST PUSH2 0x5A02 PUSH1 0x20 DUP4 ADD DUP9 PUSH2 0x4EC4 JUMP JUMPDEST PUSH2 0x5A0F PUSH1 0x40 DUP4 ADD DUP8 PUSH2 0x4EC4 JUMP JUMPDEST PUSH2 0x5A1C PUSH1 0x60 DUP4 ADD DUP7 PUSH2 0x4EC4 JUMP JUMPDEST PUSH2 0x5A29 PUSH1 0x80 DUP4 ADD DUP6 PUSH2 0x4EC4 JUMP JUMPDEST PUSH2 0x1A3A PUSH1 0xA0 DUP4 ADD DUP5 PUSH2 0x4EC4 JUMP JUMPDEST PUSH1 0xC0 DUP2 ADD PUSH2 0x5A44 DUP3 DUP10 PUSH2 0x4EC4 JUMP JUMPDEST PUSH2 0x5A51 PUSH1 0x20 DUP4 ADD DUP9 PUSH2 0x4EA7 JUMP JUMPDEST PUSH2 0x5A0F PUSH1 0x40 DUP4 ADD DUP8 PUSH2 0x4EA7 JUMP JUMPDEST PUSH2 0x1901 PUSH1 0xF0 SHL DUP2 MSTORE PUSH1 0x2 ADD PUSH1 0x0 PUSH2 0x5A75 DUP3 DUP6 PUSH2 0x4EC4 JUMP JUMPDEST PUSH1 0x20 DUP3 ADD SWAP2 POP PUSH2 0x5A85 DUP3 DUP5 PUSH2 0x4EC4 JUMP JUMPDEST POP PUSH1 0x20 ADD SWAP3 SWAP2 POP POP JUMP JUMPDEST PUSH1 0x80 DUP2 ADD PUSH2 0x5A9D DUP3 DUP8 PUSH2 0x4EC4 JUMP JUMPDEST PUSH2 0x52F5 PUSH1 0x20 DUP4 ADD DUP7 PUSH2 0x5263 JUMP JUMPDEST PUSH1 0x0 PUSH2 0x5AB4 DUP3 MLOAD SWAP1 JUMP JUMPDEST PUSH2 0x5AC2 DUP2 DUP6 PUSH1 0x20 DUP7 ADD PUSH2 0x50F8 JUMP JUMPDEST SWAP3 SWAP1 SWAP3 ADD SWAP3 SWAP2 POP POP JUMP JUMPDEST PUSH23 0x20B1B1B2B9B9A1B7B73A3937B61D1030B1B1B7BAB73A1 PUSH1 0x4D SHL DUP2 MSTORE PUSH1 0x17 ADD PUSH1 0x0 PUSH2 0x5AF8 DUP3 DUP6 PUSH2 0x5AAA JUMP JUMPDEST PUSH17 0x1034B99036B4B9B9B4B733903937B6329 PUSH1 0x7D SHL DUP2 MSTORE PUSH1 0x11 ADD SWAP2 POP PUSH2 0xF2B DUP3 DUP5 PUSH2 0x5AAA JUMP JUMPDEST PUSH1 0x60 DUP2 ADD PUSH2 0x5B2C DUP3 DUP7 PUSH2 0x4EC4 JUMP JUMPDEST PUSH2 0x5B39 PUSH1 0x20 DUP4 ADD DUP6 PUSH2 0x4EA7 JUMP JUMPDEST PUSH2 0xF2B PUSH1 0x40 DUP4 ADD DUP5 PUSH2 0x4EA7 JUMP JUMPDEST PUSH1 0xF DUP2 MSTORE PUSH1 0x0 PUSH1 0x20 DUP3 ADD PUSH15 0x185C1C1C9BDD985B0819985A5B1959 PUSH1 0x8A SHL DUP2 MSTORE SWAP2 POP PUSH2 0x5883 JUMP JUMPDEST PUSH1 0x20 DUP1 DUP3 MSTORE DUP2 ADD PUSH2 0xD91 DUP2 PUSH2 0x5B46 JUMP JUMPDEST PUSH1 0xF DUP2 MSTORE PUSH1 0x0 PUSH1 0x20 DUP3 ADD PUSH15 0xC2DADEEADCE840E8DEDE40D0D2CED PUSH1 0x8B SHL DUP2 MSTORE SWAP2 POP PUSH2 0x5883 JUMP JUMPDEST PUSH1 0x20 DUP1 DUP3 MSTORE DUP2 ADD PUSH2 0xD91 DUP2 PUSH2 0x5B7C JUMP JUMPDEST PUSH1 0x60 DUP2 ADD PUSH2 0x5BC0 DUP3 DUP7 PUSH2 0x4EA7 JUMP JUMPDEST PUSH2 0x594F PUSH1 0x20 DUP4 ADD DUP6 PUSH2 0x4EC4 JUMP JUMPDEST PUSH1 0x0 DUP1 PUSH1 0x40 DUP4 DUP6 SUB SLT ISZERO PUSH2 0x5BE3 JUMPI PUSH2 0x5BE3 PUSH1 0x0 DUP1 REVERT JUMPDEST PUSH1 0x0 PUSH2 0x5BEF DUP6 DUP6 PUSH2 0x559F JUMP JUMPDEST SWAP3 POP POP PUSH1 0x20 PUSH2 0x51B5 DUP6 DUP3 DUP7 ADD PUSH2 0x559F JUMP JUMPDEST PUSH2 0xFFFF DUP2 AND PUSH2 0x4EE4 JUMP JUMPDEST DUP1 MLOAD PUSH2 0xD91 DUP2 PUSH2 0x5C00 JUMP JUMPDEST DUP1 MLOAD PUSH2 0xD91 DUP2 PUSH2 0x4F42 JUMP JUMPDEST PUSH1 0x0 DUP1 PUSH1 0x40 DUP4 DUP6 SUB SLT ISZERO PUSH2 0x5C36 JUMPI PUSH2 0x5C36 PUSH1 0x0 DUP1 REVERT JUMPDEST PUSH1 0x0 PUSH2 0x5C42 DUP6 DUP6 PUSH2 0x5C0A JUMP JUMPDEST SWAP3 POP POP PUSH1 0x20 PUSH2 0x51B5 DUP6 DUP3 DUP7 ADD PUSH2 0x5C15 JUMP JUMPDEST PUSH1 0x40 DUP2 ADD PUSH2 0x59DA DUP3 DUP6 PUSH2 0x4EA7 JUMP JUMPDEST PUSH1 0x0 DUP2 PUSH2 0x5C70 JUMPI PUSH2 0x5C70 PUSH2 0x55CB JUMP JUMPDEST POP PUSH1 0x0 NOT ADD SWAP1 JUMP JUMPDEST PUSH1 0x20 DUP1 DUP3 MSTORE PUSH32 0x537472696E67733A20686578206C656E67746820696E73756666696369656E74 SWAP2 ADD SWAP1 DUP2 MSTORE PUSH1 0x0 PUSH2 0x5883 JUMP JUMPDEST PUSH1 0x20 DUP1 DUP3 MSTORE DUP2 ADD PUSH2 0xD91 DUP2 PUSH2 0x5C78 JUMP INVALID ISZERO 0x2E 0xBB 0xA5 PUSH12 0x9738EE3D8BAEA1B76FA31DCD 0xCD PUSH26 0xB1929BFEA7D58EE12CFDF1A653CD9F023A942EE35097EAD74B25 SDIV 0xBE 0xA9 CALLCODE 0xC5 0xD4 PUSH21 0x65DB92DD195CF7F01A41CFE1633076A97F32AE349B 0x28 PUSH24 0x2E7B1483F67A926F150CBC501D02BDBD77389325ABC723F4 0xDD PUSH3 0x68E1C3 PUSH21 0x639E36D629C765285EE7003913389D582C300F186D 0xDE SWAP8 PUSH24 0x7D215DB24FB9FEE4DED85C66B422ABD7162A1CAA6ED3EC4C SUB 0x1F PUSH13 0xD29ADA52D45F7CCFF42F059D4E SELFBALANCE 0xC3 CREATE 0x27 0xC4 DIFFICULTY 0x27 0x22 JUMPI 0x26 PUSH16 0x7E88B981E142F0AA38FBFD78EA672C1C MULMOD 0xCD SWAP6 0xC5 BYTE 0xF9 POP SWAP16 PUSH5 0x6F3615FF00 PUSH18 0xAAE8652BD821471EE9037FD72C862F91C9D8 SWAP14 PUSH2 0x35B1 SWAP9 PUSH20 0xB921C90B702CB2E175C371B8430026B9577E6911 NOT 0xAE JUMP GAS 0xAB DUP9 DUP12 0xCA 0x5E NOT 0xE2 GAS SGT 0xDB PUSH28 0xC9144305BF55CB0F3F4D724F730E5ACDD622A0E761830CC61F2707E 0xA7 0xBB SGT DUP1 ADDMOD 0xBF SWAP14 0xDA PUSH32 0x7D34C77736D0A116604E95EA16F206625BAD3D9112D5609B8D356E6FBD514CD1 0xF6 SWAP10 DUP1 0xD4 0xCE 0x2B RETURNDATACOPY PUSH15 0x68E1789ACE7CBB3CDF689B8EA3E9D2 PUSH6 0xF66BC4E0A990 PUSH10 0x268217017D38D2A5A559 0xAB 0xC6 0x27 NOT 0xDD CALLCODE MSTORE 0xAD SHL 0xE2 0xC8 SWAP12 PUSH10 0xC2B068FC378DAA952BA7 CALL PUSH4 0xC4A11628 CREATE2 GAS 0x4D CREATE2 0x23 0xB3 0xEF PUSH15 0x71EDAE12B1B97F4D1F60370FEF1010 0x5F LOG2 STATICCALL 0xAE ADD 0x26 GT 0x4A AND SWAP13 PUSH5 0x845D6126C9 DUP13 JUMPDEST 0xE1 0xE5 0xEB 0xEC PUSH30 0x5BD14F71427D1E84F3DD0314C0F7B2291E5B200AC8C7C3B9256F430D649A DUP7 BLOCKHASH 0xE4 DUP16 0xF9 0xBF 0xBC CALLDATALOAD EXTCODESIZE EXTCODEHASH SWAP10 0xED PUSH4 0x1638578 0x21 0xB3 0xB4 SMOD 0x5E CODESIZE PUSH18 0xDAFBF5900D80DEF0427DAAC599092FCB16B2 XOR ADDMOD 0xEC PUSH9 0xDD9A2E1EAE89D1E8DB 0x21 CALLDATALOAD PUSH20 0x75A18EAEA71A088B547B8C932B48861853B3434D SWAP11 ORIGIN BLOCKHASH 0xB9 DIFFICULTY PUSH7 0xC607E28B696595 0xDC 0xBC SHR SDIV 0x24 0xF BALANCE SELFDESTRUCT GASPRICE 0xD0 PUSH8 0xEF1EE35CE4997762 PUSH22 0x2E3A095284754544F4C709D75E2B8821AD6E0E26207E 0xC 0xB4 0xD2 TIMESTAMP 0xD0 PUSH31 0xEB1CBB1CFD853E645BDCD27CC5484F952F0DBBE8C2C0170206C50EC0CAFA1C 0xD 0xBD SUB 0xE7 RETURNDATACOPY PUSH8 0xC2A960178DF30A0A ADDRESS 0xEE 0x2E PUSH10 0xD1171AC0A63777A6733C 0xDA 0x21 0xAE 0xC9 0xED RETURNDATASIZE BASEFEE LOG4 REVERT GT CALLCODE PUSH20 0xC934A691DEC5E5589CA2646970667358221220DC 0xD9 ADDRESS 0xA9 DUP11 PUSH19 0x6B092EC8B55124692BECB7843441F6C97E5458 0xC8 0xF7 0xEC SSTORE CALLER DUP16 0xBC PUSH5 0x736F6C6343 STOP ADDMOD LT STOP CALLER "},"gasEstimates":{"creation":{"codeDepositCost":"4899200","executionCost":"infinite","totalCost":"infinite"},"external":{"ACCOUNTANT_MANAGER()":"infinite","ADD_STRATEGY_MANAGER()":"infinite","API_VERSION()":"infinite","ASSET()":"infinite","DEBT_MANAGER()":"infinite","DEBT_PURCHASER()":"infinite","DECIMALS()":"infinite","DEFAULT_ADMIN_ROLE()":"624","DEPOSIT_LIMIT_MANAGER()":"infinite","DOMAIN_SEPARATOR()":"2923","DOMAIN_TYPE_HASH()":"910","EMERGENCY_MANAGER()":"infinite","FACTORY()":"infinite","FORCE_REVOKE_MANAGER()":"infinite","MAX_BPS()":"1394","MAX_BPS_EXTENDED()":"867","MAX_DEBT_MANAGER()":"infinite","MAX_QUEUE()":"977","MINIMUM_IDLE_MANAGER()":"infinite","ONE_YEAR()":"infinite","PERMIT_TYPE_HASH()":"infinite","PROFIT_UNLOCK_MANAGER()":"infinite","QUEUE_MANAGER()":"infinite","REPORTING_MANAGER()":"infinite","REVOKE_STRATEGY_MANAGER()":"infinite","ROLE_MANAGER()":"infinite","WITHDRAW_LIMIT_MANAGER()":"infinite","acceptRoleManager()":"51892","accountant()":"infinite","addRole(address,bytes32)":"infinite","addStrategy(address)":"infinite","allowance(address,address)":"infinite","approve(address,uint256)":"infinite","assessShareOfUnrealisedLosses(address,uint256)":"infinite","asset()":"infinite","balanceOf(address)":"infinite","buyDebt(address,uint256)":"infinite","closeOpenRole(bytes32)":"infinite","convertToAssets(uint256)":"infinite","convertToShares(uint256)":"infinite","decimals()":"infinite","decreaseAllowance(address,uint256)":"infinite","defaultQueue(uint256)":"infinite","deposit(uint256,address)":"infinite","depositLimit()":"3340","depositLimitModule()":"infinite","forceRevokeStrategy(address)":"infinite","fullProfitUnlockDate()":"2769","futureRoleManager()":"infinite","getRoleAdmin(bytes32)":"infinite","grantRole(bytes32,address)":"infinite","hasRole(bytes32,address)":"infinite","increaseAllowance(address,uint256)":"infinite","lastProfitUpdate()":"2504","maxDeposit(address)":"infinite","maxMint(address)":"infinite","maxRedeem(address,uint256,address[])":"infinite","maxWithdraw(address,uint256,address[])":"infinite","minimumTotalIdle()":"2527","mint(uint256,address)":"infinite","name()":"infinite","nonces(address)":"infinite","openRoles(bytes32)":"infinite","permit(address,address,uint256,uint256,uint8,bytes32,bytes32)":"infinite","previewDeposit(uint256)":"infinite","previewMint(uint256)":"infinite","previewRedeem(uint256)":"infinite","previewWithdraw(uint256)":"infinite","pricePerShare()":"infinite","processReport(address)":"infinite","profitMaxUnlockTime()":"2549","profitUnlockingRate()":"3341","redeem(uint256,address,address,uint256,address[])":"infinite","removeRole(address,bytes32)":"infinite","renounceRole(bytes32,address)":"infinite","revokeRole(bytes32,address)":"infinite","revokeStrategy(address)":"infinite","roleManager()":"infinite","roles(address)":"infinite","setAccountant(address)":"infinite","setDefaultQueue(address[])":"infinite","setDepositLimit(uint256)":"infinite","setDepositLimitModule(address)":"infinite","setMinimumTotalIdle(uint256)":"infinite","setOpenRole(bytes32)":"infinite","setProfitMaxUnlockTime(uint256)":"infinite","setUseDefaultQueue(bool)":"infinite","setWithdrawLimitModule(address)":"infinite","shutdown()":"3504","shutdownVault()":"infinite","strategies(address)":"infinite","supportsInterface(bytes4)":"infinite","symbol()":"infinite","totalAssets()":"infinite","totalDebtAmount()":"3098","totalIdleAmount()":"3055","totalSupply()":"infinite","totalSupplyAmount()":"3450","transfer(address,uint256)":"infinite","transferFrom(address,address,uint256)":"infinite","transferRoleManager(address)":"infinite","unlockedShares()":"infinite","updateDebt(address,uint256)":"infinite","updateMaxDebtForStrategy(address,uint256)":"infinite","useDefaultQueue()":"2959","withdraw(uint256,address,address,uint256,address[])":"infinite","withdrawLimitModule()":"infinite"},"internal":{"_addStrategy(address)":"infinite","_approve(address,address,uint256)":"infinite","_assessFees(address,uint256,uint256)":"infinite","_assessProfitAndLoss(address)":"infinite","_assessShareOfUnrealisedLosses(address,uint256)":"infinite","_burnShares(uint256,address)":"infinite","_burnUnlockedShares()":"infinite","_calculateShareManagement(uint256,uint256,uint256)":"infinite","_convertToAssets(uint256,enum Rounding)":"infinite","_convertToShares(uint256,enum Rounding)":"infinite","_decreaseAllowance(address,address,uint256)":"infinite","_deposit(address,address,uint256)":"infinite","_erc20SafeApprove(address,address,uint256)":"infinite","_erc20SafeTransfer(address,address,uint256)":"infinite","_erc20SafeTransferFrom(address,address,address,uint256)":"infinite","_finalizeRedeem(address,address,uint256,uint256,uint256,uint256,uint256)":"infinite","_handleAllowance(address,address,uint256)":"infinite","_handleShareBurnsAndIssues(struct ShareManagement memory,struct FeeAssessment memory,uint256,uint256,address)":"infinite","_increaseAllowance(address,address,uint256)":"infinite","_issueShares(uint256,address)":"infinite","_issueSharesForAmount(uint256,address)":"infinite","_manageUnlockingOfShares(uint256,uint256)":"infinite","_maxDeposit(address)":"infinite","_maxWithdraw(address,uint256,address[] memory)":"infinite","_mint(address,address,uint256)":"infinite","_permit(address,address,uint256,uint256,uint8,bytes32,bytes32)":"infinite","_processReport(address)":"infinite","_redeem(address,address,address,uint256,uint256,uint256,address[] memory)":"infinite","_revokeStrategy(address,bool)":"infinite","_spendAllowance(address,address,uint256)":"infinite","_totalAssets()":"4316","_totalSupply()":"6576","_transfer(address,address,uint256)":"infinite","_transferFrom(address,address,uint256)":"infinite","_unlockedShares()":"infinite","_updateDebt(address,uint256)":"infinite","_validateRedeem(address,address,uint256,uint256)":"infinite","_withdrawAssets(uint256,address[] memory)":"infinite","_withdrawFromStrategy(address,uint256)":"infinite","domainSeparator()":"infinite"}},"methodIdentifiers":{"ACCOUNTANT_MANAGER()":"652da324","ADD_STRATEGY_MANAGER()":"c065ca07","API_VERSION()":"77e3b267","ASSET()":"4800d97f","DEBT_MANAGER()":"c8d74b60","DEBT_PURCHASER()":"ab5b4d49","DECIMALS()":"2e0f2625","DEFAULT_ADMIN_ROLE()":"a217fddf","DEPOSIT_LIMIT_MANAGER()":"a98222c4","DOMAIN_SEPARATOR()":"3644e515","DOMAIN_TYPE_HASH()":"c0993eea","EMERGENCY_MANAGER()":"fec61f06","FACTORY()":"2dd31000","FORCE_REVOKE_MANAGER()":"5bf6b4fb","MAX_BPS()":"fd967f47","MAX_BPS_EXTENDED()":"36fba084","MAX_DEBT_MANAGER()":"f1daeba8","MAX_QUEUE()":"3f7b5e40","MINIMUM_IDLE_MANAGER()":"0ad283d0","ONE_YEAR()":"16d3bfbb","PERMIT_TYPE_HASH()":"4d4bb197","PROFIT_UNLOCK_MANAGER()":"d4ae064f","QUEUE_MANAGER()":"4cfe51dc","REPORTING_MANAGER()":"03dcd12c","REVOKE_STRATEGY_MANAGER()":"9f3988f3","ROLE_MANAGER()":"f5b944eb","WITHDRAW_LIMIT_MANAGER()":"4ce1d38a","acceptRoleManager()":"6d020808","accountant()":"4fb3ccc5","addRole(address,bytes32)":"a73f7f8a","addStrategy(address)":"223e5479","allowance(address,address)":"dd62ed3e","approve(address,uint256)":"095ea7b3","assessShareOfUnrealisedLosses(address,uint256)":"5a569099","asset()":"38d52e0f","balanceOf(address)":"70a08231","buyDebt(address,uint256)":"405977e7","closeOpenRole(bytes32)":"c9a16ea4","convertToAssets(uint256)":"07a2d13a","convertToShares(uint256)":"c6e6f592","decimals()":"313ce567","decreaseAllowance(address,uint256)":"a457c2d7","defaultQueue(uint256)":"ff1e7f08","deposit(uint256,address)":"6e553f65","depositLimit()":"ecf70858","depositLimitModule()":"9e34e348","forceRevokeStrategy(address)":"16b87ac0","fullProfitUnlockDate()":"2d632692","futureRoleManager()":"b3c187f2","getRoleAdmin(bytes32)":"248a9ca3","grantRole(bytes32,address)":"2f2ff15d","hasRole(bytes32,address)":"91d14854","increaseAllowance(address,uint256)":"39509351","lastProfitUpdate()":"8afca8f0","maxDeposit(address)":"402d267d","maxMint(address)":"c63d75b6","maxRedeem(address,uint256,address[])":"34b5fab6","maxWithdraw(address,uint256,address[])":"65cb6765","minimumTotalIdle()":"0835a3fc","mint(uint256,address)":"94bf804d","name()":"06fdde03","nonces(address)":"7ecebe00","openRoles(bytes32)":"53a66132","permit(address,address,uint256,uint256,uint8,bytes32,bytes32)":"d505accf","previewDeposit(uint256)":"ef8b30f7","previewMint(uint256)":"b3d7f6b9","previewRedeem(uint256)":"4cdad506","previewWithdraw(uint256)":"0a28a477","pricePerShare()":"99530b06","processReport(address)":"b6cc2d1f","profitMaxUnlockTime()":"0952864e","profitUnlockingRate()":"5141eebb","redeem(uint256,address,address,uint256,address[])":"06580f2d","removeRole(address,bytes32)":"6853920e","renounceRole(bytes32,address)":"36568abe","revokeRole(bytes32,address)":"d547741f","revokeStrategy(address)":"bb994d48","roleManager()":"00435da5","roles(address)":"99374642","setAccountant(address)":"48ea7127","setDefaultQueue(address[])":"633f228c","setDepositLimit(uint256)":"bdc8144b","setDepositLimitModule(address)":"2d772168","setMinimumTotalIdle(uint256)":"8212fd43","setOpenRole(bytes32)":"d538e904","setProfitMaxUnlockTime(uint256)":"df69b22a","setUseDefaultQueue(bool)":"9bbca884","setWithdrawLimitModule(address)":"4bbd71e9","shutdown()":"fc0e74d1","shutdownVault()":"e5236cc9","strategies(address)":"39ebf823","supportsInterface(bytes4)":"01ffc9a7","symbol()":"95d89b41","totalAssets()":"01e1d114","totalDebtAmount()":"c8dffa95","totalIdleAmount()":"3cd7b5ab","totalSupply()":"18160ddd","totalSupplyAmount()":"f828f50b","transfer(address,uint256)":"a9059cbb","transferFrom(address,address,uint256)":"23b872dd","transferRoleManager(address)":"629b9142","unlockedShares()":"d9a0e97a","updateDebt(address,uint256)":"46e6ac49","updateMaxDebtForStrategy(address,uint256)":"f6d7bfa0","useDefaultQueue()":"bbe4eb49","withdraw(uint256,address,address,uint256,address[])":"d81a09f6","withdrawLimitModule()":"91986003"}},"storageLayout":{"storage":[{"astId":24,"contract":"contracts/FathomVault.sol:FathomVault","label":"_roles","offset":0,"slot":"0","type":"t_mapping(t_bytes32,t_struct(RoleData)19_storage)"},{"astId":399,"contract":"contracts/FathomVault.sol:FathomVault","label":"_status","offset":0,"slot":"1","type":"t_uint256"},{"astId":7573,"contract":"contracts/FathomVault.sol:FathomVault","label":"strategyManager","offset":0,"slot":"2","type":"t_address"},{"astId":7578,"contract":"contracts/FathomVault.sol:FathomVault","label":"strategies","offset":0,"slot":"3","type":"t_mapping(t_address,t_struct(StrategyParams)7734_storage)"},{"astId":7581,"contract":"contracts/FathomVault.sol:FathomVault","label":"defaultQueue","offset":0,"slot":"4","type":"t_array(t_address)dyn_storage"},{"astId":7583,"contract":"contracts/FathomVault.sol:FathomVault","label":"useDefaultQueue","offset":0,"slot":"5","type":"t_bool"},{"astId":7587,"contract":"contracts/FathomVault.sol:FathomVault","label":"_balanceOf","offset":0,"slot":"6","type":"t_mapping(t_address,t_uint256)"},{"astId":7593,"contract":"contracts/FathomVault.sol:FathomVault","label":"_allowance","offset":0,"slot":"7","type":"t_mapping(t_address,t_mapping(t_address,t_uint256))"},{"astId":7595,"contract":"contracts/FathomVault.sol:FathomVault","label":"totalSupplyAmount","offset":0,"slot":"8","type":"t_uint256"},{"astId":7597,"contract":"contracts/FathomVault.sol:FathomVault","label":"totalDebtAmount","offset":0,"slot":"9","type":"t_uint256"},{"astId":7599,"contract":"contracts/FathomVault.sol:FathomVault","label":"totalIdleAmount","offset":0,"slot":"10","type":"t_uint256"},{"astId":7601,"contract":"contracts/FathomVault.sol:FathomVault","label":"minimumTotalIdle","offset":0,"slot":"11","type":"t_uint256"},{"astId":7603,"contract":"contracts/FathomVault.sol:FathomVault","label":"depositLimit","offset":0,"slot":"12","type":"t_uint256"},{"astId":7605,"contract":"contracts/FathomVault.sol:FathomVault","label":"accountant","offset":0,"slot":"13","type":"t_address"},{"astId":7607,"contract":"contracts/FathomVault.sol:FathomVault","label":"depositLimitModule","offset":0,"slot":"14","type":"t_address"},{"astId":7609,"contract":"contracts/FathomVault.sol:FathomVault","label":"withdrawLimitModule","offset":0,"slot":"15","type":"t_address"},{"astId":7613,"contract":"contracts/FathomVault.sol:FathomVault","label":"roles","offset":0,"slot":"16","type":"t_mapping(t_address,t_bytes32)"},{"astId":7617,"contract":"contracts/FathomVault.sol:FathomVault","label":"openRoles","offset":0,"slot":"17","type":"t_mapping(t_bytes32,t_bool)"},{"astId":7619,"contract":"contracts/FathomVault.sol:FathomVault","label":"roleManager","offset":0,"slot":"18","type":"t_address"},{"astId":7621,"contract":"contracts/FathomVault.sol:FathomVault","label":"futureRoleManager","offset":0,"slot":"19","type":"t_address"},{"astId":7623,"contract":"contracts/FathomVault.sol:FathomVault","label":"shutdown","offset":20,"slot":"19","type":"t_bool"},{"astId":7625,"contract":"contracts/FathomVault.sol:FathomVault","label":"profitMaxUnlockTime","offset":0,"slot":"20","type":"t_uint256"},{"astId":7627,"contract":"contracts/FathomVault.sol:FathomVault","label":"fullProfitUnlockDate","offset":0,"slot":"21","type":"t_uint256"},{"astId":7629,"contract":"contracts/FathomVault.sol:FathomVault","label":"profitUnlockingRate","offset":0,"slot":"22","type":"t_uint256"},{"astId":7631,"contract":"contracts/FathomVault.sol:FathomVault","label":"lastProfitUpdate","offset":0,"slot":"23","type":"t_uint256"},{"astId":7635,"contract":"contracts/FathomVault.sol:FathomVault","label":"nonces","offset":0,"slot":"24","type":"t_mapping(t_address,t_uint256)"},{"astId":7642,"contract":"contracts/FathomVault.sol:FathomVault","label":"DOMAIN_SEPARATOR","offset":0,"slot":"25","type":"t_bytes32"},{"astId":1902,"contract":"contracts/FathomVault.sol:FathomVault","label":"name","offset":0,"slot":"26","type":"t_string_storage"},{"astId":1905,"contract":"contracts/FathomVault.sol:FathomVault","label":"symbol","offset":0,"slot":"27","type":"t_string_storage"}],"types":{"t_address":{"encoding":"inplace","label":"address","numberOfBytes":"20"},"t_array(t_address)dyn_storage":{"base":"t_address","encoding":"dynamic_array","label":"address[]","numberOfBytes":"32"},"t_bool":{"encoding":"inplace","label":"bool","numberOfBytes":"1"},"t_bytes32":{"encoding":"inplace","label":"bytes32","numberOfBytes":"32"},"t_mapping(t_address,t_bool)":{"encoding":"mapping","key":"t_address","label":"mapping(address => bool)","numberOfBytes":"32","value":"t_bool"},"t_mapping(t_address,t_bytes32)":{"encoding":"mapping","key":"t_address","label":"mapping(address => bytes32)","numberOfBytes":"32","value":"t_bytes32"},"t_mapping(t_address,t_mapping(t_address,t_uint256))":{"encoding":"mapping","key":"t_address","label":"mapping(address => mapping(address => uint256))","numberOfBytes":"32","value":"t_mapping(t_address,t_uint256)"},"t_mapping(t_address,t_struct(StrategyParams)7734_storage)":{"encoding":"mapping","key":"t_address","label":"mapping(address => struct StrategyParams)","numberOfBytes":"32","value":"t_struct(StrategyParams)7734_storage"},"t_mapping(t_address,t_uint256)":{"encoding":"mapping","key":"t_address","label":"mapping(address => uint256)","numberOfBytes":"32","value":"t_uint256"},"t_mapping(t_bytes32,t_bool)":{"encoding":"mapping","key":"t_bytes32","label":"mapping(bytes32 => bool)","numberOfBytes":"32","value":"t_bool"},"t_mapping(t_bytes32,t_struct(RoleData)19_storage)":{"encoding":"mapping","key":"t_bytes32","label":"mapping(bytes32 => struct AccessControl.RoleData)","numberOfBytes":"32","value":"t_struct(RoleData)19_storage"},"t_string_storage":{"encoding":"bytes","label":"string","numberOfBytes":"32"},"t_struct(RoleData)19_storage":{"encoding":"inplace","label":"struct AccessControl.RoleData","members":[{"astId":16,"contract":"contracts/FathomVault.sol:FathomVault","label":"members","offset":0,"slot":"0","type":"t_mapping(t_address,t_bool)"},{"astId":18,"contract":"contracts/FathomVault.sol:FathomVault","label":"adminRole","offset":0,"slot":"1","type":"t_bytes32"}],"numberOfBytes":"64"},"t_struct(StrategyParams)7734_storage":{"encoding":"inplace","label":"struct StrategyParams","members":[{"astId":7727,"contract":"contracts/FathomVault.sol:FathomVault","label":"activation","offset":0,"slot":"0","type":"t_uint256"},{"astId":7729,"contract":"contracts/FathomVault.sol:FathomVault","label":"lastReport","offset":0,"slot":"1","type":"t_uint256"},{"astId":7731,"contract":"contracts/FathomVault.sol:FathomVault","label":"currentDebt","offset":0,"slot":"2","type":"t_uint256"},{"astId":7733,"contract":"contracts/FathomVault.sol:FathomVault","label":"maxDebt","offset":0,"slot":"3","type":"t_uint256"}],"numberOfBytes":"128"},"t_uint256":{"encoding":"inplace","label":"uint256","numberOfBytes":"32"}}},"userdoc":{"kind":"user","methods":{},"notice":"The Yearn VaultV3 is designed as a non-opinionated system to distribute funds of  depositors for a specific `asset` into different opportunities (aka Strategies) and manage accounting in a robust way.","version":1}}}}