{"contracts/VaultV3.sol":{"YearnV3Vault":{"abi":[{"inputs":[{"internalType":"contract IERC20","name":"_asset","type":"address"},{"internalType":"string","name":"_name","type":"string"},{"internalType":"string","name":"_symbol","type":"string"},{"internalType":"address","name":"_roleManager","type":"address"},{"internalType":"uint256","name":"_profitMaxUnlockTime","type":"uint256"}],"stateMutability":"nonpayable","type":"constructor"},{"inputs":[],"name":"CallerIsNotTheFutureRoleManager","type":"error"},{"inputs":[],"name":"DebtDidntChange","type":"error"},{"inputs":[],"name":"DebtHigherThanMaxDebt","type":"error"},{"inputs":[],"name":"ERC20InsufficientAllowance","type":"error"},{"inputs":[],"name":"ERC20PermitExpired","type":"error"},{"inputs":[],"name":"ERC20PermitInvalidSignature","type":"error"},{"inputs":[],"name":"ExceedDepositLimit","type":"error"},{"inputs":[],"name":"InactiveStrategy","type":"error"},{"inputs":[],"name":"InsufficientAssetsInVault","type":"error"},{"inputs":[],"name":"InsufficientFunds","type":"error"},{"inputs":[],"name":"InsufficientShares","type":"error"},{"inputs":[],"name":"InvalidAsset","type":"error"},{"inputs":[],"name":"InvalidAssetDecimals","type":"error"},{"inputs":[],"name":"MaxLoss","type":"error"},{"inputs":[],"name":"ProfitUnlockTimeTooLong","type":"error"},{"inputs":[],"name":"StrategyAlreadyActive","type":"error"},{"inputs":[],"name":"StrategyDebtIsLessThanAssetsNeeded","type":"error"},{"inputs":[],"name":"StrategyHasDebt","type":"error"},{"inputs":[],"name":"StrategyHasUnrealisedLosses","type":"error"},{"inputs":[],"name":"StrategyIsShutdown","type":"error"},{"inputs":[],"name":"TooMuchLoss","type":"error"},{"inputs":[],"name":"UsingDepositLimit","type":"error"},{"inputs":[],"name":"UsingModule","type":"error"},{"inputs":[],"name":"ZeroAddress","type":"error"},{"inputs":[],"name":"ZeroValue","type":"error"},{"anonymous":false,"inputs":[{"indexed":true,"internalType":"address","name":"owner","type":"address"},{"indexed":true,"internalType":"address","name":"spender","type":"address"},{"indexed":false,"internalType":"uint256","name":"value","type":"uint256"}],"name":"Approval","type":"event"},{"anonymous":false,"inputs":[{"indexed":true,"internalType":"address","name":"strategy","type":"address"},{"indexed":false,"internalType":"uint256","name":"amount","type":"uint256"}],"name":"DebtPurchased","type":"event"},{"anonymous":false,"inputs":[{"indexed":true,"internalType":"address","name":"strategy","type":"address"},{"indexed":false,"internalType":"uint256","name":"currentDebt","type":"uint256"},{"indexed":false,"internalType":"uint256","name":"newDebt","type":"uint256"}],"name":"DebtUpdated","type":"event"},{"anonymous":false,"inputs":[{"indexed":true,"internalType":"address","name":"sender","type":"address"},{"indexed":true,"internalType":"address","name":"owner","type":"address"},{"indexed":false,"internalType":"uint256","name":"assets","type":"uint256"},{"indexed":false,"internalType":"uint256","name":"shares","type":"uint256"}],"name":"Deposit","type":"event"},{"anonymous":false,"inputs":[{"indexed":true,"internalType":"bytes32","name":"role","type":"bytes32"},{"indexed":true,"internalType":"bytes32","name":"previousAdminRole","type":"bytes32"},{"indexed":true,"internalType":"bytes32","name":"newAdminRole","type":"bytes32"}],"name":"RoleAdminChanged","type":"event"},{"anonymous":false,"inputs":[{"indexed":true,"internalType":"bytes32","name":"role","type":"bytes32"},{"indexed":true,"internalType":"address","name":"account","type":"address"},{"indexed":true,"internalType":"address","name":"sender","type":"address"}],"name":"RoleGranted","type":"event"},{"anonymous":false,"inputs":[{"indexed":true,"internalType":"bytes32","name":"role","type":"bytes32"},{"indexed":true,"internalType":"address","name":"account","type":"address"},{"indexed":true,"internalType":"address","name":"sender","type":"address"}],"name":"RoleRevoked","type":"event"},{"anonymous":false,"inputs":[{"indexed":true,"internalType":"address","name":"account","type":"address"},{"indexed":false,"internalType":"bytes32","name":"role","type":"bytes32"}],"name":"RoleSet","type":"event"},{"anonymous":false,"inputs":[{"indexed":true,"internalType":"bytes32","name":"role","type":"bytes32"},{"indexed":true,"internalType":"enum RoleStatusChange","name":"status","type":"uint8"}],"name":"RoleStatusChanged","type":"event"},{"anonymous":false,"inputs":[],"name":"Shutdown","type":"event"},{"anonymous":false,"inputs":[{"indexed":true,"internalType":"address","name":"strategy","type":"address"},{"indexed":false,"internalType":"enum StrategyChangeType","name":"changeType","type":"uint8"}],"name":"StrategyChanged","type":"event"},{"anonymous":false,"inputs":[{"indexed":true,"internalType":"address","name":"strategy","type":"address"},{"indexed":false,"internalType":"uint256","name":"gain","type":"uint256"},{"indexed":false,"internalType":"uint256","name":"loss","type":"uint256"},{"indexed":false,"internalType":"uint256","name":"currentDebt","type":"uint256"},{"indexed":false,"internalType":"uint256","name":"protocolFees","type":"uint256"},{"indexed":false,"internalType":"uint256","name":"totalFees","type":"uint256"},{"indexed":false,"internalType":"uint256","name":"totalRefunds","type":"uint256"}],"name":"StrategyReported","type":"event"},{"anonymous":false,"inputs":[{"indexed":true,"internalType":"address","name":"from","type":"address"},{"indexed":true,"internalType":"address","name":"to","type":"address"},{"indexed":false,"internalType":"uint256","name":"value","type":"uint256"}],"name":"Transfer","type":"event"},{"anonymous":false,"inputs":[{"indexed":true,"internalType":"address","name":"accountant","type":"address"}],"name":"UpdateAccountant","type":"event"},{"anonymous":false,"inputs":[{"indexed":false,"internalType":"address[]","name":"newDefaultQueue","type":"address[]"}],"name":"UpdateDefaultQueue","type":"event"},{"anonymous":false,"inputs":[{"indexed":false,"internalType":"uint256","name":"depositLimit","type":"uint256"}],"name":"UpdateDepositLimit","type":"event"},{"anonymous":false,"inputs":[{"indexed":true,"internalType":"address","name":"depositLimitModule","type":"address"}],"name":"UpdateDepositLimitModule","type":"event"},{"anonymous":false,"inputs":[{"indexed":false,"internalType":"uint256","name":"minimumTotalIdle","type":"uint256"}],"name":"UpdateMinimumTotalIdle","type":"event"},{"anonymous":false,"inputs":[{"indexed":false,"internalType":"uint256","name":"profitMaxUnlockTime","type":"uint256"}],"name":"UpdateProfitMaxUnlockTime","type":"event"},{"anonymous":false,"inputs":[{"indexed":true,"internalType":"address","name":"roleManager","type":"address"}],"name":"UpdateRoleManager","type":"event"},{"anonymous":false,"inputs":[{"indexed":false,"internalType":"bool","name":"useDefaultQueue","type":"bool"}],"name":"UpdateUseDefaultQueue","type":"event"},{"anonymous":false,"inputs":[{"indexed":true,"internalType":"address","name":"withdrawLimitModule","type":"address"}],"name":"UpdateWithdrawLimitModule","type":"event"},{"anonymous":false,"inputs":[{"indexed":true,"internalType":"address","name":"sender","type":"address"},{"indexed":true,"internalType":"address","name":"strategy","type":"address"},{"indexed":false,"internalType":"uint256","name":"newDebt","type":"uint256"}],"name":"UpdatedMaxDebtForStrategy","type":"event"},{"anonymous":false,"inputs":[{"indexed":true,"internalType":"address","name":"sender","type":"address"},{"indexed":true,"internalType":"address","name":"receiver","type":"address"},{"indexed":true,"internalType":"address","name":"owner","type":"address"},{"indexed":false,"internalType":"uint256","name":"assets","type":"uint256"},{"indexed":false,"internalType":"uint256","name":"shares","type":"uint256"}],"name":"Withdraw","type":"event"},{"inputs":[],"name":"ACCOUNTANT_MANAGER","outputs":[{"internalType":"bytes32","name":"","type":"bytes32"}],"stateMutability":"view","type":"function"},{"inputs":[],"name":"ADD_STRATEGY_MANAGER","outputs":[{"internalType":"bytes32","name":"","type":"bytes32"}],"stateMutability":"view","type":"function"},{"inputs":[],"name":"API_VERSION","outputs":[{"internalType":"string","name":"","type":"string"}],"stateMutability":"view","type":"function"},{"inputs":[],"name":"ASSET","outputs":[{"internalType":"contract IERC20","name":"","type":"address"}],"stateMutability":"view","type":"function"},{"inputs":[],"name":"DEBT_MANAGER","outputs":[{"internalType":"bytes32","name":"","type":"bytes32"}],"stateMutability":"view","type":"function"},{"inputs":[],"name":"DEBT_PURCHASER","outputs":[{"internalType":"bytes32","name":"","type":"bytes32"}],"stateMutability":"view","type":"function"},{"inputs":[],"name":"DECIMALS","outputs":[{"internalType":"uint256","name":"","type":"uint256"}],"stateMutability":"view","type":"function"},{"inputs":[],"name":"DEFAULT_ADMIN_ROLE","outputs":[{"internalType":"bytes32","name":"","type":"bytes32"}],"stateMutability":"view","type":"function"},{"inputs":[],"name":"DEPOSIT_LIMIT_MANAGER","outputs":[{"internalType":"bytes32","name":"","type":"bytes32"}],"stateMutability":"view","type":"function"},{"inputs":[],"name":"DOMAIN_SEPARATOR","outputs":[{"internalType":"bytes32","name":"","type":"bytes32"}],"stateMutability":"view","type":"function"},{"inputs":[],"name":"DOMAIN_TYPE_HASH","outputs":[{"internalType":"bytes32","name":"","type":"bytes32"}],"stateMutability":"view","type":"function"},{"inputs":[],"name":"EMERGENCY_MANAGER","outputs":[{"internalType":"bytes32","name":"","type":"bytes32"}],"stateMutability":"view","type":"function"},{"inputs":[],"name":"FACTORY","outputs":[{"internalType":"address","name":"","type":"address"}],"stateMutability":"view","type":"function"},{"inputs":[],"name":"FORCE_REVOKE_MANAGER","outputs":[{"internalType":"bytes32","name":"","type":"bytes32"}],"stateMutability":"view","type":"function"},{"inputs":[],"name":"MAX_BPS","outputs":[{"internalType":"uint256","name":"","type":"uint256"}],"stateMutability":"view","type":"function"},{"inputs":[],"name":"MAX_BPS_EXTENDED","outputs":[{"internalType":"uint256","name":"","type":"uint256"}],"stateMutability":"view","type":"function"},{"inputs":[],"name":"MAX_DEBT_MANAGER","outputs":[{"internalType":"bytes32","name":"","type":"bytes32"}],"stateMutability":"view","type":"function"},{"inputs":[],"name":"MAX_QUEUE","outputs":[{"internalType":"uint256","name":"","type":"uint256"}],"stateMutability":"view","type":"function"},{"inputs":[],"name":"MINIMUM_IDLE_MANAGER","outputs":[{"internalType":"bytes32","name":"","type":"bytes32"}],"stateMutability":"view","type":"function"},{"inputs":[],"name":"ONE_YEAR","outputs":[{"internalType":"uint256","name":"","type":"uint256"}],"stateMutability":"view","type":"function"},{"inputs":[],"name":"PERMIT_TYPE_HASH","outputs":[{"internalType":"bytes32","name":"","type":"bytes32"}],"stateMutability":"view","type":"function"},{"inputs":[],"name":"PROFIT_UNLOCK_MANAGER","outputs":[{"internalType":"bytes32","name":"","type":"bytes32"}],"stateMutability":"view","type":"function"},{"inputs":[],"name":"QUEUE_MANAGER","outputs":[{"internalType":"bytes32","name":"","type":"bytes32"}],"stateMutability":"view","type":"function"},{"inputs":[],"name":"REPORTING_MANAGER","outputs":[{"internalType":"bytes32","name":"","type":"bytes32"}],"stateMutability":"view","type":"function"},{"inputs":[],"name":"REVOKE_STRATEGY_MANAGER","outputs":[{"internalType":"bytes32","name":"","type":"bytes32"}],"stateMutability":"view","type":"function"},{"inputs":[],"name":"ROLE_MANAGER","outputs":[{"internalType":"bytes32","name":"","type":"bytes32"}],"stateMutability":"view","type":"function"},{"inputs":[],"name":"WITHDRAW_LIMIT_MANAGER","outputs":[{"internalType":"bytes32","name":"","type":"bytes32"}],"stateMutability":"view","type":"function"},{"inputs":[],"name":"acceptRoleManager","outputs":[],"stateMutability":"nonpayable","type":"function"},{"inputs":[],"name":"accountant","outputs":[{"internalType":"address","name":"","type":"address"}],"stateMutability":"view","type":"function"},{"inputs":[{"internalType":"address","name":"account","type":"address"},{"internalType":"bytes32","name":"role","type":"bytes32"}],"name":"addRole","outputs":[],"stateMutability":"nonpayable","type":"function"},{"inputs":[{"internalType":"address","name":"newStrategy","type":"address"}],"name":"addStrategy","outputs":[],"stateMutability":"nonpayable","type":"function"},{"inputs":[{"internalType":"address","name":"owner","type":"address"},{"internalType":"address","name":"spender","type":"address"}],"name":"allowance","outputs":[{"internalType":"uint256","name":"","type":"uint256"}],"stateMutability":"view","type":"function"},{"inputs":[{"internalType":"address","name":"spender","type":"address"},{"internalType":"uint256","name":"amount","type":"uint256"}],"name":"approve","outputs":[{"internalType":"bool","name":"","type":"bool"}],"stateMutability":"nonpayable","type":"function"},{"inputs":[{"internalType":"address","name":"strategy","type":"address"},{"internalType":"uint256","name":"assetsNeeded","type":"uint256"}],"name":"assessShareOfUnrealisedLosses","outputs":[{"internalType":"uint256","name":"","type":"uint256"}],"stateMutability":"view","type":"function"},{"inputs":[],"name":"asset","outputs":[{"internalType":"address","name":"","type":"address"}],"stateMutability":"view","type":"function"},{"inputs":[{"internalType":"address","name":"addr","type":"address"}],"name":"balanceOf","outputs":[{"internalType":"uint256","name":"","type":"uint256"}],"stateMutability":"view","type":"function"},{"inputs":[{"internalType":"address","name":"strategy","type":"address"},{"internalType":"uint256","name":"amount","type":"uint256"}],"name":"buyDebt","outputs":[],"stateMutability":"nonpayable","type":"function"},{"inputs":[{"internalType":"bytes32","name":"role","type":"bytes32"}],"name":"closeOpenRole","outputs":[],"stateMutability":"nonpayable","type":"function"},{"inputs":[{"internalType":"uint256","name":"shares","type":"uint256"}],"name":"convertToAssets","outputs":[{"internalType":"uint256","name":"","type":"uint256"}],"stateMutability":"view","type":"function"},{"inputs":[{"internalType":"uint256","name":"assets","type":"uint256"}],"name":"convertToShares","outputs":[{"internalType":"uint256","name":"","type":"uint256"}],"stateMutability":"view","type":"function"},{"inputs":[],"name":"decimals","outputs":[{"internalType":"uint8","name":"","type":"uint8"}],"stateMutability":"view","type":"function"},{"inputs":[{"internalType":"address","name":"spender","type":"address"},{"internalType":"uint256","name":"amount","type":"uint256"}],"name":"decreaseAllowance","outputs":[{"internalType":"bool","name":"","type":"bool"}],"stateMutability":"nonpayable","type":"function"},{"inputs":[{"internalType":"uint256","name":"","type":"uint256"}],"name":"defaultQueue","outputs":[{"internalType":"address","name":"","type":"address"}],"stateMutability":"view","type":"function"},{"inputs":[{"internalType":"uint256","name":"assets","type":"uint256"},{"internalType":"address","name":"receiver","type":"address"}],"name":"deposit","outputs":[{"internalType":"uint256","name":"","type":"uint256"}],"stateMutability":"nonpayable","type":"function"},{"inputs":[],"name":"depositLimit","outputs":[{"internalType":"uint256","name":"","type":"uint256"}],"stateMutability":"view","type":"function"},{"inputs":[],"name":"depositLimitModule","outputs":[{"internalType":"address","name":"","type":"address"}],"stateMutability":"view","type":"function"},{"inputs":[{"internalType":"address","name":"strategy","type":"address"}],"name":"forceRevokeStrategy","outputs":[],"stateMutability":"nonpayable","type":"function"},{"inputs":[],"name":"fullProfitUnlockDate","outputs":[{"internalType":"uint256","name":"","type":"uint256"}],"stateMutability":"view","type":"function"},{"inputs":[],"name":"futureRoleManager","outputs":[{"internalType":"address","name":"","type":"address"}],"stateMutability":"view","type":"function"},{"inputs":[{"internalType":"bytes32","name":"role","type":"bytes32"}],"name":"getRoleAdmin","outputs":[{"internalType":"bytes32","name":"","type":"bytes32"}],"stateMutability":"view","type":"function"},{"inputs":[{"internalType":"bytes32","name":"role","type":"bytes32"},{"internalType":"address","name":"account","type":"address"}],"name":"grantRole","outputs":[],"stateMutability":"nonpayable","type":"function"},{"inputs":[{"internalType":"bytes32","name":"role","type":"bytes32"},{"internalType":"address","name":"account","type":"address"}],"name":"hasRole","outputs":[{"internalType":"bool","name":"","type":"bool"}],"stateMutability":"view","type":"function"},{"inputs":[{"internalType":"address","name":"spender","type":"address"},{"internalType":"uint256","name":"amount","type":"uint256"}],"name":"increaseAllowance","outputs":[{"internalType":"bool","name":"","type":"bool"}],"stateMutability":"nonpayable","type":"function"},{"inputs":[],"name":"lastProfitUpdate","outputs":[{"internalType":"uint256","name":"","type":"uint256"}],"stateMutability":"view","type":"function"},{"inputs":[{"internalType":"address","name":"receiver","type":"address"}],"name":"maxDeposit","outputs":[{"internalType":"uint256","name":"","type":"uint256"}],"stateMutability":"view","type":"function"},{"inputs":[{"internalType":"address","name":"receiver","type":"address"}],"name":"maxMint","outputs":[{"internalType":"uint256","name":"","type":"uint256"}],"stateMutability":"view","type":"function"},{"inputs":[{"internalType":"address","name":"owner","type":"address"},{"internalType":"uint256","name":"maxLoss","type":"uint256"},{"internalType":"address[]","name":"_strategies","type":"address[]"}],"name":"maxRedeem","outputs":[{"internalType":"uint256","name":"","type":"uint256"}],"stateMutability":"nonpayable","type":"function"},{"inputs":[{"internalType":"address","name":"owner","type":"address"},{"internalType":"uint256","name":"maxLoss","type":"uint256"},{"internalType":"address[]","name":"_strategies","type":"address[]"}],"name":"maxWithdraw","outputs":[{"internalType":"uint256","name":"","type":"uint256"}],"stateMutability":"nonpayable","type":"function"},{"inputs":[],"name":"minimumTotalIdle","outputs":[{"internalType":"uint256","name":"","type":"uint256"}],"stateMutability":"view","type":"function"},{"inputs":[{"internalType":"uint256","name":"shares","type":"uint256"},{"internalType":"address","name":"receiver","type":"address"}],"name":"mint","outputs":[{"internalType":"uint256","name":"","type":"uint256"}],"stateMutability":"nonpayable","type":"function"},{"inputs":[],"name":"name","outputs":[{"internalType":"string","name":"","type":"string"}],"stateMutability":"view","type":"function"},{"inputs":[{"internalType":"address","name":"","type":"address"}],"name":"nonces","outputs":[{"internalType":"uint256","name":"","type":"uint256"}],"stateMutability":"view","type":"function"},{"inputs":[{"internalType":"bytes32","name":"","type":"bytes32"}],"name":"openRoles","outputs":[{"internalType":"bool","name":"","type":"bool"}],"stateMutability":"view","type":"function"},{"inputs":[{"internalType":"address","name":"owner","type":"address"},{"internalType":"address","name":"spender","type":"address"},{"internalType":"uint256","name":"amount","type":"uint256"},{"internalType":"uint256","name":"deadline","type":"uint256"},{"internalType":"uint8","name":"v","type":"uint8"},{"internalType":"bytes32","name":"r","type":"bytes32"},{"internalType":"bytes32","name":"s","type":"bytes32"}],"name":"permit","outputs":[{"internalType":"bool","name":"","type":"bool"}],"stateMutability":"nonpayable","type":"function"},{"inputs":[{"internalType":"uint256","name":"assets","type":"uint256"}],"name":"previewDeposit","outputs":[{"internalType":"uint256","name":"","type":"uint256"}],"stateMutability":"view","type":"function"},{"inputs":[{"internalType":"uint256","name":"shares","type":"uint256"}],"name":"previewMint","outputs":[{"internalType":"uint256","name":"","type":"uint256"}],"stateMutability":"view","type":"function"},{"inputs":[{"internalType":"uint256","name":"shares","type":"uint256"}],"name":"previewRedeem","outputs":[{"internalType":"uint256","name":"","type":"uint256"}],"stateMutability":"view","type":"function"},{"inputs":[{"internalType":"uint256","name":"assets","type":"uint256"}],"name":"previewWithdraw","outputs":[{"internalType":"uint256","name":"","type":"uint256"}],"stateMutability":"view","type":"function"},{"inputs":[],"name":"pricePerShare","outputs":[{"internalType":"uint256","name":"","type":"uint256"}],"stateMutability":"view","type":"function"},{"inputs":[{"internalType":"address","name":"strategy","type":"address"}],"name":"processReport","outputs":[{"internalType":"uint256","name":"","type":"uint256"},{"internalType":"uint256","name":"","type":"uint256"}],"stateMutability":"nonpayable","type":"function"},{"inputs":[],"name":"profitMaxUnlockTime","outputs":[{"internalType":"uint256","name":"","type":"uint256"}],"stateMutability":"view","type":"function"},{"inputs":[],"name":"profitUnlockingRate","outputs":[{"internalType":"uint256","name":"","type":"uint256"}],"stateMutability":"view","type":"function"},{"inputs":[{"internalType":"uint256","name":"shares","type":"uint256"},{"internalType":"address","name":"receiver","type":"address"},{"internalType":"address","name":"owner","type":"address"},{"internalType":"uint256","name":"maxLoss","type":"uint256"},{"internalType":"address[]","name":"_strategies","type":"address[]"}],"name":"redeem","outputs":[{"internalType":"uint256","name":"","type":"uint256"}],"stateMutability":"nonpayable","type":"function"},{"inputs":[{"internalType":"address","name":"account","type":"address"},{"internalType":"bytes32","name":"role","type":"bytes32"}],"name":"removeRole","outputs":[],"stateMutability":"nonpayable","type":"function"},{"inputs":[{"internalType":"bytes32","name":"role","type":"bytes32"},{"internalType":"address","name":"account","type":"address"}],"name":"renounceRole","outputs":[],"stateMutability":"nonpayable","type":"function"},{"inputs":[{"internalType":"bytes32","name":"role","type":"bytes32"},{"internalType":"address","name":"account","type":"address"}],"name":"revokeRole","outputs":[],"stateMutability":"nonpayable","type":"function"},{"inputs":[{"internalType":"address","name":"strategy","type":"address"}],"name":"revokeStrategy","outputs":[],"stateMutability":"nonpayable","type":"function"},{"inputs":[],"name":"roleManager","outputs":[{"internalType":"address","name":"","type":"address"}],"stateMutability":"view","type":"function"},{"inputs":[{"internalType":"address","name":"","type":"address"}],"name":"roles","outputs":[{"internalType":"enum Roles","name":"","type":"uint8"}],"stateMutability":"view","type":"function"},{"inputs":[{"internalType":"address","name":"newAccountant","type":"address"}],"name":"setAccountant","outputs":[],"stateMutability":"nonpayable","type":"function"},{"inputs":[{"internalType":"address[]","name":"newDefaultQueue","type":"address[]"}],"name":"setDefaultQueue","outputs":[],"stateMutability":"nonpayable","type":"function"},{"inputs":[{"internalType":"uint256","name":"_depositLimit","type":"uint256"}],"name":"setDepositLimit","outputs":[],"stateMutability":"nonpayable","type":"function"},{"inputs":[{"internalType":"address","name":"_depositLimitModule","type":"address"}],"name":"setDepositLimitModule","outputs":[],"stateMutability":"nonpayable","type":"function"},{"inputs":[{"internalType":"uint256","name":"_minimumTotalIdle","type":"uint256"}],"name":"setMinimumTotalIdle","outputs":[],"stateMutability":"nonpayable","type":"function"},{"inputs":[{"internalType":"bytes32","name":"role","type":"bytes32"}],"name":"setOpenRole","outputs":[],"stateMutability":"nonpayable","type":"function"},{"inputs":[{"internalType":"uint256","name":"_newProfitMaxUnlockTime","type":"uint256"}],"name":"setProfitMaxUnlockTime","outputs":[],"stateMutability":"nonpayable","type":"function"},{"inputs":[{"internalType":"bool","name":"_useDefaultQueue","type":"bool"}],"name":"setUseDefaultQueue","outputs":[],"stateMutability":"nonpayable","type":"function"},{"inputs":[{"internalType":"address","name":"_withdrawLimitModule","type":"address"}],"name":"setWithdrawLimitModule","outputs":[],"stateMutability":"nonpayable","type":"function"},{"inputs":[],"name":"shutdown","outputs":[{"internalType":"bool","name":"","type":"bool"}],"stateMutability":"view","type":"function"},{"inputs":[],"name":"shutdownVault","outputs":[],"stateMutability":"nonpayable","type":"function"},{"inputs":[{"internalType":"address","name":"","type":"address"}],"name":"strategies","outputs":[{"internalType":"uint256","name":"activation","type":"uint256"},{"internalType":"uint256","name":"lastReport","type":"uint256"},{"internalType":"uint256","name":"currentDebt","type":"uint256"},{"internalType":"uint256","name":"maxDebt","type":"uint256"}],"stateMutability":"view","type":"function"},{"inputs":[{"internalType":"bytes4","name":"interfaceId","type":"bytes4"}],"name":"supportsInterface","outputs":[{"internalType":"bool","name":"","type":"bool"}],"stateMutability":"view","type":"function"},{"inputs":[],"name":"symbol","outputs":[{"internalType":"string","name":"","type":"string"}],"stateMutability":"view","type":"function"},{"inputs":[],"name":"totalAssets","outputs":[{"internalType":"uint256","name":"","type":"uint256"}],"stateMutability":"view","type":"function"},{"inputs":[],"name":"totalDebtAmount","outputs":[{"internalType":"uint256","name":"","type":"uint256"}],"stateMutability":"view","type":"function"},{"inputs":[],"name":"totalIdleAmount","outputs":[{"internalType":"uint256","name":"","type":"uint256"}],"stateMutability":"view","type":"function"},{"inputs":[],"name":"totalSupply","outputs":[{"internalType":"uint256","name":"","type":"uint256"}],"stateMutability":"view","type":"function"},{"inputs":[],"name":"totalSupplyAmount","outputs":[{"internalType":"uint256","name":"","type":"uint256"}],"stateMutability":"view","type":"function"},{"inputs":[{"internalType":"address","name":"receiver","type":"address"},{"internalType":"uint256","name":"amount","type":"uint256"}],"name":"transfer","outputs":[{"internalType":"bool","name":"","type":"bool"}],"stateMutability":"nonpayable","type":"function"},{"inputs":[{"internalType":"address","name":"sender","type":"address"},{"internalType":"address","name":"receiver","type":"address"},{"internalType":"uint256","name":"amount","type":"uint256"}],"name":"transferFrom","outputs":[{"internalType":"bool","name":"","type":"bool"}],"stateMutability":"nonpayable","type":"function"},{"inputs":[{"internalType":"address","name":"newRoleManager","type":"address"}],"name":"transferRoleManager","outputs":[],"stateMutability":"nonpayable","type":"function"},{"inputs":[],"name":"unlockedShares","outputs":[{"internalType":"uint256","name":"","type":"uint256"}],"stateMutability":"view","type":"function"},{"inputs":[{"internalType":"address","name":"strategy","type":"address"},{"internalType":"uint256","name":"targetDebt","type":"uint256"}],"name":"updateDebt","outputs":[{"internalType":"uint256","name":"","type":"uint256"}],"stateMutability":"nonpayable","type":"function"},{"inputs":[{"internalType":"address","name":"strategy","type":"address"},{"internalType":"uint256","name":"newMaxDebt","type":"uint256"}],"name":"updateMaxDebtForStrategy","outputs":[],"stateMutability":"nonpayable","type":"function"},{"inputs":[],"name":"useDefaultQueue","outputs":[{"internalType":"bool","name":"","type":"bool"}],"stateMutability":"view","type":"function"},{"inputs":[{"internalType":"uint256","name":"assets","type":"uint256"},{"internalType":"address","name":"receiver","type":"address"},{"internalType":"address","name":"owner","type":"address"},{"internalType":"uint256","name":"maxLoss","type":"uint256"},{"internalType":"address[]","name":"_strategies","type":"address[]"}],"name":"withdraw","outputs":[{"internalType":"uint256","name":"","type":"uint256"}],"stateMutability":"nonpayable","type":"function"},{"inputs":[],"name":"withdrawLimitModule","outputs":[{"internalType":"address","name":"","type":"address"}],"stateMutability":"view","type":"function"}],"evm":{"bytecode":{"linkReferences":{},"object":"6101006040526301e1855860e0523480156200001a57600080fd5b5060405162006bf938038062006bf98339810160408190526200003d9162000389565b600180556001600160a01b03851660808190526040805163313ce56760e01b8152905163313ce567916004808201926020929091908290030181865afa1580156200008c573d6000803e3d6000fd5b505050506040513d601f19601f82011682018060405250810190620000b291906200045c565b60ff1660a081905261010011620000dc5760405163e236476560e01b815260040160405180910390fd5b3360c0526301e18558811115620001065760405163fdfbb0b760e01b815260040160405180910390fd5b601381905560196200011985826200057e565b50601a6200012884826200057e565b50601180546001600160a01b0319166001600160a01b03841617905583516020808601919091206040805180820182526005815264332e302e3160d81b9084015251620001bf927f8b73c3c69bb8fe3d512ecc4cf759cc79239f7b179b0ffacaa9a75d522b39400f92917fc63fef2293a1f92e82ea14ecff0fffda4a757b8c20dd61198c8b9ebef0985ef491469130910162000661565b604051602081830303815290604052805190602001206018819055505050505050620006b7565b60006001600160a01b0382165b92915050565b6000620001f382620001e6565b6200021181620001f9565b81146200021d57600080fd5b50565b8051620001f38162000206565b634e487b7160e01b600052604160045260246000fd5b601f19601f83011681018181106001600160401b03821117156200026b576200026b6200022d565b6040525050565b60006200027e60405190565b90506200028c828262000243565b919050565b60006001600160401b03821115620002ad57620002ad6200022d565b601f19601f83011660200192915050565b60005b83811015620002db578181015183820152602001620002c1565b50506000910152565b6000620002fb620002f58462000291565b62000272565b905082815260208101848484011115620003185762000318600080fd5b62000325848285620002be565b509392505050565b600082601f830112620003435762000343600080fd5b815162000355848260208601620002e4565b949350505050565b6200021181620001e6565b8051620001f3816200035d565b8062000211565b8051620001f38162000375565b600080600080600060a08688031215620003a657620003a6600080fd5b6000620003b4888862000220565b95505060208601516001600160401b03811115620003d557620003d5600080fd5b620003e3888289016200032d565b94505060408601516001600160401b03811115620004045762000404600080fd5b62000412888289016200032d565b9350506060620004258882890162000368565b925050608062000438888289016200037c565b9150509295509295909350565b60ff811662000211565b8051620001f38162000445565b600060208284031215620004735762000473600080fd5b60006200035584846200044f565b634e487b7160e01b600052602260045260246000fd5b600281046001821680620004ac57607f821691505b602082108103620004c157620004c162000481565b50919050565b6000620001f3620004d58381565b90565b620004e383620004c7565b81546008840282811b60001990911b908116901990911617825550505050565b600062000512818484620004d8565b505050565b8181101562000536576200052d60008262000503565b60010162000517565b5050565b601f82111562000512576000818152602090206020601f85010481016020851015620005635750805b620005776020601f86010483018262000517565b5050505050565b81516001600160401b038111156200059a576200059a6200022d565b620005a6825462000497565b620005b38282856200053a565b6020601f831160018114620005ea5760008415620005d15750858201515b600019600886021c198116600286021786555062000646565b600085815260208120601f198616915b828110156200061c5788850151825560209485019460019092019101620005fa565b86831015620006395784890151600019601f89166008021c191682555b6001600288020188555050505b505050505050565b805b82525050565b6200065081620001e6565b60a081016200067182886200064e565b6200068060208301876200064e565b6200068f60408301866200064e565b6200069e60608301856200064e565b620006ad608083018462000656565b9695505050505050565b60805160a05160c05160e05161647562000784600039600081816105e20152611b000152600081816106660152614ab001526000818161068d015281816106c401526117aa01526000818161072d015281816107fa01528181611215015281816122b101528181612e2401528181612ec0015281816130da0152818161311a0152818161321f0152818161329c0152818161352b015281816136f001528181613db6015281816141c20152818161444c01528181614c3401528181614cc80152614d1301526164756000f3fe608060405234801561001057600080fd5b50600436106104c85760003560e01c80636d020808116102815780636d020808146109565780636e553f651461095e57806370a082311461097157806377e3b267146109845780637ecebe00146109a85780638212fd43146109c85780638afca8f0146109db57806391986003146109e457806391d14854146109f757806394bf804d14610a0a57806395d89b4114610a1d5780639937464214610a2557806399530b0614610a555780639bbca88414610a5d5780639e34e34814610a705780639f3988f314610a83578063a217fddf14610a98578063a457c2d714610aa0578063a73f7f8a14610ab3578063a9059cbb14610ac6578063a98222c414610ad9578063ab5b4d4914610aee578063b3c187f214610b03578063b3d7f6b914610b16578063b6cc2d1f14610b29578063bb994d4814610b4a578063bbe4eb4914610b5d578063bdc8144b14610b6a578063c065ca0714610b7d578063c0993eea14610b92578063c63d75b614610bb9578063c6e6f59214610bcc578063c8d74b6014610bdf578063c8dffa9514610bf4578063c9a16ea414610bfd578063d4ae064f14610c10578063d505accf14610c25578063d538e90414610c38578063d547741f14610c4b578063d81a09f614610c5e578063d9a0e97a14610c71578063dd62ed3e14610c79578063df69b22a14610cb2578063e5236cc914610cc5578063ecf7085814610ccd578063ef8b30f714610bcc578063f1daeba814610cd6578063f5b944eb14610ceb578063f6d7bfa014610d00578063f828f50b14610d13578063fc0e74d114610d1c578063fd967f4714610d30578063fec61f0614610d39578063ff1e7f0814610d4e57600080fd5b8062435da5146104cd57806301e1d114146104f657806301ffc9a71461050b57806303dcd12c1461052b57806306580f2d1461054057806306fdde031461055357806307a2d13a146105685780630835a3fc1461057b5780630952864e14610584578063095ea7b31461058d5780630a28a477146105a05780630ad283d0146105b357806316b87ac0146105c857806316d3bfbb146105dd57806318160ddd14610604578063223e54791461060c57806323b872dd1461061f578063248a9ca3146106325780632d632692146106455780632d7721681461064e5780632dd31000146106615780632e0f2625146106885780632f2ff15d146106af578063313ce567146106c257806334b5fab6146106f05780633644e5151461070357806336568abe1461070c57806336fba0841461071f57806338d52e0f1461072b578063395093511461075157806339ebf823146107645780633cd7b5ab146107ab5780633f7b5e40146107b4578063402d267d146107bc578063405977e7146107cf57806346e6ac49146107e25780634800d97f146107f557806348ea7127146108295780634bbd71e91461083c5780634cdad506146105685780634ce1d38a1461084f5780634cfe51dc146108645780634d4bb197146108795780634fb3ccc51461088e5780635141eebb146108a157806353a66132146108aa5780635a569099146108cd5780635bf6b4fb146108e0578063629b9142146108f5578063633f228c14610908578063652da3241461091b57806365cb6765146109305780636853920e14610943575b600080fd5b6011546104e0906001600160a01b031681565b6040516104ed919061526e565b60405180910390f35b6104fe610d61565b6040516104ed9190615282565b61051e6105193660046152b2565b610d70565b6040516104ed91906152db565b6104fe60008051602061618083398151915281565b6104fe61054e36600461541e565b610da7565b61055b610de4565b6040516104ed9190615508565b6104fe610576366004615519565b610e72565b6104fe600a5481565b6104fe60135481565b61051e61059b36600461553a565b610e7f565b6104fe6105ae366004615519565b610e93565b6104fe6000805160206161a083398151915281565b6105db6105d6366004615577565b610ea0565b005b6104fe7f000000000000000000000000000000000000000000000000000000000000000081565b6104fe610ec7565b6105db61061a366004615577565b610ed1565b61051e61062d366004615598565b610ef2565b6104fe610640366004615519565b610f43565b6104fe60145481565b6105db61065c366004615577565b610f58565b6104e07f000000000000000000000000000000000000000000000000000000000000000081565b6104fe7f000000000000000000000000000000000000000000000000000000000000000081565b6105db6106bd3660046155e8565b610ffc565b7f00000000000000000000000000000000000000000000000000000000000000006040516104ed9190615624565b6104fe6106fe366004615632565b61101d565b6104fe60185481565b6105db61071a3660046155e8565b61106b565b6104fe64e8d4a5100081565b7f00000000000000000000000000000000000000000000000000000000000000006104e0565b61051e61075f36600461553a565b6110a6565b61079b610772366004615577565b600260208190526000918252604090912080546001820154928201546003909201549092919084565b6040516104ed9493929190615692565b6104fe60095481565b6104fe600a81565b6104fe6107ca366004615577565b6110b3565b6105db6107dd36600461553a565b6110be565b6104fe6107f036600461553a565b61132f565b61081c7f000000000000000000000000000000000000000000000000000000000000000081565b6040516104ed91906156ff565b6105db610837366004615577565b61136d565b6105db61084a366004615577565b6113d0565b6104fe60008051602061642083398151915281565b6104fe60008051602061622083398151915281565b6104fe60008051602061632083398151915281565b600c546104e0906001600160a01b031681565b6104fe60155481565b61051e6108b8366004615519565b60106020526000908152604090205460ff1681565b6104fe6108db36600461553a565b611433565b6104fe60008051602061620083398151915281565b6105db610903366004615577565b611479565b6105db610916366004615757565b6114b4565b6104fe60008051602061616083398151915281565b6104fe61093e366004615632565b611599565b6105db61095136600461553a565b6115a6565b6105db61160e565b6104fe61096c3660046155e8565b611683565b6104fe61097f366004615577565b6116a3565b61055b60405180604001604052806005815260200164332e302e3160d81b81525081565b6104fe6109b6366004615577565b60176020526000908152604090205481565b6105db6109d6366004615519565b6116fc565b6104fe60165481565b600e546104e0906001600160a01b031681565b61051e610a053660046155e8565b611755565b6104fe610a183660046155e8565b61177e565b61055b611793565b610a48610a33366004615577565b600f6020526000908152604090205460ff1681565b6040516104ed91906157e2565b6104fe6117a0565b6105db610a6b366004615803565b6117d7565b600d546104e0906001600160a01b031681565b6104fe60008051602061636083398151915281565b6104fe600081565b61051e610aae36600461553a565b61182d565b6105db610ac136600461553a565b61183a565b61051e610ad436600461553a565b61185c565b6104fe60008051602061640083398151915281565b6104fe60008051602061638083398151915281565b6012546104e0906001600160a01b031681565b6104fe610b24366004615519565b6118ae565b610b3c610b37366004615577565b6118bb565b6040516104ed929190615824565b6105db610b58366004615577565b6118fa565b60045461051e9060ff1681565b6105db610b78366004615519565b61191d565b6104fe60008051602061628083398151915281565b6104fe7f8b73c3c69bb8fe3d512ecc4cf759cc79239f7b179b0ffacaa9a75d522b39400f81565b6104fe610bc7366004615577565b6119b1565b6104fe610bda366004615519565b6119ca565b6104fe60008051602061614083398151915281565b6104fe60085481565b6105db610c0b366004615519565b6119d7565b6104fe6000805160206163a083398151915281565b61051e610c33366004615853565b611a37565b6105db610c46366004615519565b611a56565b6105db610c593660046155e8565b611a8c565b6104fe610c6c36600461541e565b611aa8565b6104fe611adc565b6104fe610c873660046158f2565b6001600160a01b03918216600090815260066020908152604080832093909416825291909152205490565b6105db610cc0366004615519565b611ae6565b6105db611ba0565b6104fe600b5481565b6104fe6000805160206162c083398151915281565b6104fe6000805160206162a083398151915281565b6105db610d0e36600461553a565b611ca4565b6104fe60075481565b60125461051e90600160a01b900460ff1681565b6104fe61271081565b6104fe6000805160206161e083398151915281565b6104e0610d5c366004615519565b611d51565b6000610d6b611d7b565b905090565b60006001600160e01b03198216637965db0b60e01b1480610da157506301ffc9a760e01b6001600160e01b03198316145b92915050565b6000610db1611d8d565b6000610dbe876000611db6565b9050610dcf338787848b8989611e4c565b915050610ddb60018055565b95945050505050565b60198054610df19061592a565b80601f0160208091040260200160405190810160405280929190818152602001828054610e1d9061592a565b8015610e6a5780601f10610e3f57610100808354040283529160200191610e6a565b820191906000526020600020905b815481529060010190602001808311610e4d57829003601f168201915b505050505081565b6000610da1826000611db6565b6000610e8c338484611ee9565b9392505050565b6000610da1826001611f81565b600080516020616200833981519152610eb88161202f565b610ec382600161203c565b5050565b6000610d6b61225c565b600080516020616280833981519152610ee98161202f565b610ec382612273565b60006001600160a01b038316301480610f1257506001600160a01b038316155b15610f305760405163d92e233d60e01b815260040160405180910390fd5b610f3b848484612479565b949350505050565b60009081526020819052604090206001015490565b600080516020616400833981519152610f708161202f565b601254600160a01b900460ff161515600103610f9f57604051630f3c386760e01b815260040160405180910390fd5b600019600b5414610fc357604051634e41418560e11b815260040160405180910390fd5b600d80546001600160a01b0319166001600160a01b0384169081179091556040516000805160206161c083398151915290600090a25050565b61100582610f43565b61100e8161202f565b611018838361249b565b505050565b60008061102b85858561251f565b9050600061103a826001611f81565b6001600160a01b0387166000908152600560205260409020549091506110619082906128ea565b9695505050505050565b6001600160a01b038116331461109c5760405162461bcd60e51b815260040161109390615956565b60405180910390fd5b610ec38282612900565b6000610e8c338484612965565b6000610da1826129b3565b6000805160206163808339815191526110d68161202f565b6110de611d8d565b6001600160a01b038316600090815260026020526040812054900361111657604051630631bc2160e51b815260040160405180910390fd5b6001600160a01b0383166000908152600260208190526040909120015480158061113e575082155b1561115c57604051637c946ed760e01b815260040160405180910390fd5b80831115611168578092505b60008184866001600160a01b03166370a08231306040518263ffffffff1660e01b8152600401611198919061526e565b602060405180830381865afa1580156111b5573d6000803e3d6000fd5b505050506040513d601f19601f820116820180604052508101906111d991906159b4565b6111e391906159eb565b6111ed9190615a20565b90506000811161121057604051637c946ed760e01b815260040160405180910390fd5b61123c7f0000000000000000000000000000000000000000000000000000000000000000333087612a8b565b6001600160a01b03851660009081526002602081905260408220018054869290611267908490615a34565b9250508190555083600860008282546112809190615a34565b9250508190555083600960008282546112999190615a47565b90915550506001600160a01b0385166000805160206163e0833981519152836112c28782615a34565b6040516112d0929190615824565b60405180910390a26112e3853383612b6d565b846001600160a01b03167fe94e7f88819f66c19b097748cb754149f63b1a176ed425dee1f1ee933e6d09b08560405161131c9190615282565b60405180910390a2505061101860018055565b60006000805160206161408339815191526113498161202f565b611351611d8d565b61135b8484612c35565b915061136660018055565b5092915050565b6000805160206161608339815191526113858161202f565b600c80546001600160a01b0319166001600160a01b0384169081179091556040517f28709a2dab2a5d5e8688e96159011151c51644ab21839a8a45b449634d7c8b2b90600090a25050565b6000805160206164208339815191526113e88161202f565b600e80546001600160a01b0319166001600160a01b0384169081179091556040517fce6e3f8beda82a13c441d76efd4a6335760f219f38c60502e6680060874e109d90600090a25050565b6001600160a01b03821660009081526002602081905260408220015482111561146f576040516337deae0760e01b815260040160405180910390fd5b610e8c8383613361565b6000805160206162a08339815191526114918161202f565b50601280546001600160a01b0319166001600160a01b0392909216919091179055565b6000805160206162208339815191526114cc8161202f565b60005b8281101561154d5760008484838181106114eb576114eb615a5a565b90506020020160208101906115009190615577565b6001600160a01b0381166000908152600260205260408120549192500361153a57604051630631bc2160e51b815260040160405180910390fd5b508061154581615a70565b9150506114cf565b5061155a60038484615129565b507f0bc0cb8c5ccee13e6a2fd26a699f57ad7ff6e454e6aae97ec41cd2eb9ebd63a5838360405161158c929190615af5565b60405180910390a1505050565b6000610f3b84848461251f565b6000805160206162a08339815191526115be8161202f565b6115c88284612900565b826001600160a01b03167f1395522074be2925cc0fe997dc4fe5d15a507c2a971e00c315e5a2e08c9b0e50836040516116019190615282565b60405180910390a2505050565b6012546001600160a01b031633146116395760405163967642d960e01b815260040160405180910390fd5b60118054336001600160a01b031991821681179092556012805490911690556040517fce93baa0b608a7d420822b6b90cfcccb70574363ba4fd26ef5ac17dd465016c490600090a2565b600061168d611d8d565b6116983383856134b9565b9050610da160018055565b6000306001600160a01b038316036116e0576116bd613611565b6001600160a01b038316600090815260056020526040902054610da19190615a34565b506001600160a01b031660009081526005602052604090205490565b6000805160206161a08339815191526117148161202f565b600a8290556040517f01a4494beed88920b88742cc58f2744e198f55ff192635a1fbabc6be8ffade8190611749908490615282565b60405180910390a15050565b6000918252602082815260408084206001600160a01b0393909316845291905290205460ff1690565b6000611788611d8d565b61169833838561366f565b601a8054610df19061592a565b6000610d6b6117d07f0000000000000000000000000000000000000000000000000000000000000000600a615c15565b6000611db6565b6000805160206162208339815191526117ef8161202f565b6004805460ff19168315151790556040517f1f88e73ebc721f227812938fe07a069ec1f7136aafacb397ed460bd15dee13f1906117499084906152db565b6000610e8c3384846137c2565b6000805160206162a08339815191526118528161202f565b6115c8828461249b565b60006001600160a01b03831630148061187c57506001600160a01b038316155b1561189a5760405163d92e233d60e01b815260040160405180910390fd5b6118a53384846137f7565b50600192915050565b6000610da1826001611db6565b6000806000805160206161808339815191526118d68161202f565b6118de611d8d565b6118e7846138f4565b925092506118f460018055565b50915091565b6000805160206163608339815191526119128161202f565b610ec382600061203c565b6000805160206164008339815191526119358161202f565b601254600160a01b900460ff16151560010361196457604051630f3c386760e01b815260040160405180910390fd5b600d546001600160a01b03161561198e576040516364b9991160e11b815260040160405180910390fd5b600b82905560405160008051602061626083398151915290611749908490615282565b6000806119bd836129b3565b9050610e8c816000611f81565b6000610da1826000611f81565b6000805160206162a08339815191526119ef8161202f565b6000828152601060205260409020805460ff1916905560015b60405183907f9f6d8ceb5fe3a6380949b0777bd5802511579b6fbbc87194c108a91d372f952790600090a35050565b6000611a4888888888888888613a18565b90505b979650505050505050565b6000805160206162a0833981519152611a6e8161202f565b6000828152601060205260408120805460ff19166001179055611a08565b611a9582610f43565b611a9e8161202f565b6110188383612900565b6000611ab2611d8d565b6000611abf876001611f81565b9050611ad03387878a858989611e4c565b509050610ddb60018055565b6000610d6b613611565b6000805160206163a0833981519152611afe8161202f565b7f0000000000000000000000000000000000000000000000000000000000000000821115611b3f5760405163fdfbb0b760e01b815260040160405180910390fd5b81600003611b6b5730600081815260056020526040902054611b6091613c08565b600060158190556014555b60138290556040517ff361aed463da6fa20358e45c6209f1d3e16d4eca706e6eab0b0aeb338729c77a90611749908490615282565b6000805160206161e0833981519152611bb88161202f565b601254600160a01b900460ff161515600103611be757604051630631bc2160e51b815260040160405180910390fd5b6012805460ff60a01b1916600160a01b179055600d546001600160a01b031615611c3557600d80546001600160a01b03191690556040516000906000805160206161c0833981519152908290a25b6000600b81905560405160008051602061626083398151915291611c5891615c39565b60405180910390a1611c783360008051602061614083398151915261183a565b6040517f4426aa1fb73e391071491fcfe21a88b5c38a0a0333a1f6e77161470439704cf890600090a150565b6000805160206162c0833981519152611cbc8161202f565b6001600160a01b0383166000908152600260205260408120549003611cf457604051630631bc2160e51b815260040160405180910390fd5b6001600160a01b038316600081815260026020526040908190206003018490555133907fb3eef2123fec1523a6bbc90aceb203000154c1a4974335fe06b544c7534d4b8990611d44908690615282565b60405180910390a3505050565b60038181548110611d6157600080fd5b6000918252602090912001546001600160a01b0316905081565b6000600854600954610d6b9190615a47565b600260015403611daf5760405162461bcd60e51b815260040161109390615c7e565b6002600155565b6000600019831480611dc6575082155b15611dd2575081610da1565b6000611ddc61225c565b905080600003611def5783915050610da1565b6000611df9611d7b565b611e0390866159eb565b90506000611e118383615a20565b90506001856001811115611e2757611e2761579e565b148015611e3c5750611e398383615c8e565b15155b15610ddb57611061600182615a47565b6000611e5a87878686613cbf565b611e65868986613d63565b600080611e728785613d87565b91509150611e858989888a86868b6143db565b876001600160a01b0316896001600160a01b03168b6001600160a01b03167ffbde797d201c681b91056529119e0b02407c7bb96a4a2c75c01fc9667232c8db858a604051611ed4929190615824565b60405180910390a45098975050505050505050565b60006001600160a01b0384161580611f0857506001600160a01b038316155b15611f265760405163d92e233d60e01b815260040160405180910390fd5b6001600160a01b03808516600081815260066020908152604080832094881680845294909152908190208590555160008051602061634083398151915290611f6f908690615282565b60405180910390a35060019392505050565b6000600019831480611f91575082155b15611f9d575081610da1565b6000611fa761225c565b90506000611fb3611d7b565b905080600003611fda5781600003611fcf578492505050610da1565b600092505050610da1565b6000611fe683876159eb565b90506000611ff48383615a20565b9050600186600181111561200a5761200a61579e565b14801561201f575061201c8383615c8e565b15155b1561106157611a4b600182615a47565b612039813361447b565b50565b6001600160a01b038216600090815260026020526040812054900361207457604051630631bc2160e51b815260040160405180910390fd5b6001600160a01b0382166000908152600260208190526040822001541580159061209c575081155b156120ba57604051633546382f60e21b815260040160405180910390fd5b506001600160a01b03821660009081526002602081905260408220015460088054919283926120ea908490615a34565b92505081905550826001600160a01b031660008051602061630083398151915260008360008060008060405161212596959493929190615ca2565b60405180910390a2604080516080810182526000808252602080830182815283850183815260608086018581526001600160a01b038b1686526002948590529690942094518555905160018501555190830155915160039182015554156122125760005b600354811015612210576000600382815481106121a8576121a8615a5a565b6000918252602090912001546001600160a01b039081169150861681146121fd57808383815181106121dc576121dc615a5a565b60200260200101906001600160a01b031690816001600160a01b0316815250505b508061220881615a70565b915050612189565b505b805161222590600390602084019061518c565b50836001600160a01b0316600080516020616240833981519152600160405161224e9190615d1f565b60405180910390a250505050565b6000612266613611565b600754610d6b9190615a34565b6001600160a01b038116158061229157506001600160a01b03811630145b156122af5760405163d92e233d60e01b815260040160405180910390fd5b7f00000000000000000000000000000000000000000000000000000000000000006001600160a01b0316816001600160a01b03166338d52e0f6040518163ffffffff1660e01b8152600401602060405180830381865afa158015612317573d6000803e3d6000fd5b505050506040513d601f19601f8201168201806040525081019061233b9190615d38565b6001600160a01b03161461236257604051636448d6e960e11b815260040160405180910390fd5b6001600160a01b038116600090815260026020526040902054156123995760405163c976754d60e01b815260040160405180910390fd5b604080516080810182524280825260208083019182526000838501818152606085018281526001600160a01b0388168352600293849052959091209351845591516001840155905190820155905160039182015554600a811015612445578160038261240481615a70565b93508154811061241657612416615a5a565b9060005260206000200160006101000a8154816001600160a01b0302191690836001600160a01b031602179055505b816001600160a01b0316600080516020616240833981519152600060405161246d9190615d1f565b60405180910390a25050565b60006124868433846144d4565b6124918484846137f7565b5060019392505050565b6124a58282611755565b610ec3576000828152602081815260408083206001600160a01b03851684529091529020805460ff191660011790556124db3390565b6001600160a01b0316816001600160a01b0316837f2f8788117e7eff1d82e926ec794901d17c78024a50270940304540a733656f0d60405160405180910390a45050565b6001600160a01b03831660009081526005602052604081205481906125449082611db6565b600e549091506001600160a01b0316156125e657600e54604051632319b8cf60e01b81526000916001600160a01b031690632319b8cf9061258d90899089908990600401615d97565b6020604051808303816000875af11580156125ac573d6000803e3d6000fd5b505050506040513d601f19601f820116820180604052508101906125d091906159b4565b9050818110156125de578091505b509050610e8c565b600954808211156128e1578351819060009081901580159061260b575060045460ff16155b61266f57600380548060200260200160405190810160405280929190818152602001828054801561266557602002820191906000526020600020905b81546001600160a01b03168152600190910190602001808311612647575b5050505050612671565b865b905060005b81518110156128da57600082828151811061269357612693615a5a565b6020026020010151905060026000826001600160a01b03166001600160a01b03168152602001908152602001600020600001546000036126e657604051630631bc2160e51b815260040160405180910390fd5b60006127176126f5878a615a34565b6001600160a01b038416600090815260026020819052604090912001546128ea565b905060006127258383613361565b90506000836001600160a01b03166307a2d13a856001600160a01b031663d905777e306040518263ffffffff1660e01b8152600401612764919061526e565b602060405180830381865afa158015612781573d6000803e3d6000fd5b505050506040513d601f19601f820116820180604052508101906127a591906159b4565b6040518263ffffffff1660e01b81526004016127c19190615282565b602060405180830381865afa1580156127de573d6000803e3d6000fd5b505050506040513d601f19601f8201168201806040525081019061280291906159b4565b905061280e8284615a34565b811015612839578261282082846159eb565b61282a9190615a20565b91506128368282615a47565b92505b8260000361284a57505050506128c8565b60008211801561285b57506127108d105b1561289b576127108d61286e858b615a47565b61287891906159eb565b6128829190615a20565b61288c8389615a47565b111561289b57505050506128da565b6128a58389615a47565b97508988106128b757505050506128da565b6128c18288615a47565b9650505050505b806128d281615a70565b915050612676565b5091935050505b50949350505050565b60008183106128f95781610e8c565b5090919050565b61290a8282611755565b15610ec3576000828152602081815260408083206001600160a01b0385168085529252808320805460ff1916905551339285917ff6391f5c32d9c69d2a47ea670b442974b53935d1edc7fd64eb21e047a839171b9190a45050565b6001600160a01b038084166000908152600660209081526040808320938616835292905290812054819061299a908490615a47565b90506129a7858583611ee9565b50600195945050505050565b60006001600160a01b0382163014806129d357506001600160a01b038216155b156129e057506000919050565b600d546001600160a01b03168015612a5f57604051632355178960e11b81526001600160a01b038216906346aa2f1290612a1e90869060040161526e565b602060405180830381865afa158015612a3b573d6000803e3d6000fd5b505050506040513d601f19601f82011682018060405250810190610e8c91906159b4565b6000612a69611d7b565b600b54909150808210612a8157506000949350505050565b610ddb8282615a34565b6001600160a01b0384161580612aa857506001600160a01b038316155b80612aba57506001600160a01b038216155b15612ad85760405163d92e233d60e01b815260040160405180910390fd5b6040516323b872dd60e01b81526001600160a01b038516906323b872dd90612b0890869086908690600401615dc4565b6020604051808303816000875af1158015612b27573d6000803e3d6000fd5b505050506040513d601f19601f82011682018060405250810190612b4b9190615df7565b612b675760405162461bcd60e51b815260040161109390615e3e565b50505050565b6001600160a01b0383161580612b8a57506001600160a01b038216155b15612ba85760405163d92e233d60e01b815260040160405180910390fd5b60405163a9059cbb60e01b81526001600160a01b0384169063a9059cbb90612bd69085908590600401615e4e565b6020604051808303816000875af1158015612bf5573d6000803e3d6000fd5b505050506040513d601f19601f82011682018060405250810190612c199190615df7565b6110185760405162461bcd60e51b815260040161109390615e3e565b6001600160a01b038216600090815260026020819052604082200154601254839190600160a01b900460ff161515600103612c6f57600091505b808203612c8f5760405163084df06b60e41b815260040160405180910390fd5b81811115612fa3576000612ca38383615a34565b9050600a5481600954612cb69190615a47565b1015612cd957600954600a54612ccc9190615a34565b905081811115612cd95750805b604051636c82bbbf60e11b81526000906001600160a01b038816906307a2d13a90829063d905777e90612d1090309060040161526e565b602060405180830381865afa158015612d2d573d6000803e3d6000fd5b505050506040513d601f19601f82011682018060405250810190612d5191906159b4565b6040518263ffffffff1660e01b8152600401612d6d9190615282565b602060405180830381865afa158015612d8a573d6000803e3d6000fd5b505050506040513d601f19601f82011682018060405250810190612dae91906159b4565b905060008111612dd157604051637c946ed760e01b815260040160405180910390fd5b81811015612ddd578091505b6000612de98884613361565b90508015612e0a576040516339589fdd60e21b815260040160405180910390fd5b6040516370a0823160e01b81526000906001600160a01b037f000000000000000000000000000000000000000000000000000000000000000016906370a0823190612e5990309060040161526e565b602060405180830381865afa158015612e76573d6000803e3d6000fd5b505050506040513d601f19601f82011682018060405250810190612e9a91906159b4565b9050612ea68985614536565b6040516370a0823160e01b81526000906001600160a01b037f000000000000000000000000000000000000000000000000000000000000000016906370a0823190612ef590309060040161526e565b602060405180830381865afa158015612f12573d6000803e3d6000fd5b505050506040513d601f19601f82011682018060405250810190612f3691906159b4565b90506000612f4d612f478484615a34565b886128ea565b905085811115612f5b578095505b8060096000828254612f6d9190615a47565b925050819055508560086000828254612f869190615a34565b90915550612f9690508688615a34565b9750505050505050613313565b6001600160a01b038516600090815260026020526040902060030154821115612fdf5760405163d49d8c2360e01b815260040160405180910390fd5b60405163402d267d60e01b81526000906001600160a01b0387169063402d267d9061300e90309060040161526e565b602060405180830381865afa15801561302b573d6000803e3d6000fd5b505050506040513d601f19601f8201168201806040525081019061304f91906159b4565b90506000811161307257604051637c946ed760e01b815260040160405180910390fd5b600061307e8385615a34565b90508181111561308b5750805b600a54600954116130af5760405163356680b760e01b815260040160405180910390fd5b6000600a546009546130c19190615a34565b9050808211156130cf578091505b811561330f576131007f00000000000000000000000000000000000000000000000000000000000000008984614690565b6040516370a0823160e01b81526000906001600160a01b037f000000000000000000000000000000000000000000000000000000000000000016906370a082319061314f90309060040161526e565b602060405180830381865afa15801561316c573d6000803e3d6000fd5b505050506040513d601f19601f8201168201806040525081019061319091906159b4565b604051636e553f6560e01b81529091506001600160a01b038a1690636e553f65906131c19086903090600401615e5c565b6020604051808303816000875af11580156131e0573d6000803e3d6000fd5b505050506040513d601f19601f8201168201806040525081019061320491906159b4565b506040516370a0823160e01b81526000906001600160a01b037f000000000000000000000000000000000000000000000000000000000000000016906370a082319061325490309060040161526e565b602060405180830381865afa158015613271573d6000803e3d6000fd5b505050506040513d601f19601f8201168201806040525081019061329591906159b4565b90506132c37f00000000000000000000000000000000000000000000000000000000000000008b6000614690565b6132cd8183615a34565b935083600960008282546132e19190615a34565b9250508190555083600860008282546132fa9190615a47565b9091555061330a90508487615a47565b965050505b5050505b6001600160a01b03851660008181526002602081905260409182902001849055516000805160206163e0833981519152906133519084908690615824565b60405180910390a2509392505050565b6001600160a01b03821660008181526002602081905260408083209091015490516370a0823160e01b8152919290918391906370a08231906133a790309060040161526e565b602060405180830381865afa1580156133c4573d6000803e3d6000fd5b505050506040513d601f19601f820116820180604052508101906133e891906159b4565b90506000856001600160a01b03166307a2d13a836040518263ffffffff1660e01b81526004016134189190615282565b602060405180830381865afa158015613435573d6000803e3d6000fd5b505050506040513d601f19601f8201168201806040525081019061345991906159b4565b90508281101580613468575082155b156134795760009350505050610da1565b600061348582876159eb565b905060006134938583615a20565b61349d9088615a34565b90506134a98583615c8e565b15611a4b57611a48600182615a47565b601254600090600160a01b900460ff1615156001036134eb57604051630f3c386760e01b815260040160405180910390fd5b6134f4836129b3565b821115613514576040516325d16c5160e01b815260040160405180910390fd5b6040516323b872dd60e01b81526001600160a01b037f000000000000000000000000000000000000000000000000000000000000000016906323b872dd9061356490339030908790600401615dc4565b6020604051808303816000875af1158015613583573d6000803e3d6000fd5b505050506040513d601f19601f820116820180604052508101906135a79190615df7565b5081600960008282546135ba9190615a47565b90915550600090506135cc8385614758565b9050836001600160a01b0316856001600160a01b03166000805160206163c08339815191528584604051613601929190615824565b60405180910390a3949350505050565b60145460009081428211156136525764e8d4a51000601654426136349190615a34565b60155461364191906159eb565b61364b9190615a20565b9050610da1565b8115610da157503060009081526005602052604090205492915050565b601254600090600160a01b900460ff1615156001036136a157604051630f3c386760e01b815260040160405180910390fd5b60006136ae836001611db6565b90506136b9846129b3565b8111156136d9576040516325d16c5160e01b815260040160405180910390fd5b6040516323b872dd60e01b81526001600160a01b037f000000000000000000000000000000000000000000000000000000000000000016906323b872dd9061372990339030908690600401615dc4565b6020604051808303816000875af1158015613748573d6000803e3d6000fd5b505050506040513d601f19601f8201168201806040525081019061376c9190615df7565b50806009600082825461377f9190615a47565b9091555061378f90508385614809565b836001600160a01b0316856001600160a01b03166000805160206163c08339815191528386604051613601929190615824565b6001600160a01b038084166000908152600660209081526040808320938616835292905290812054819061299a908490615a34565b6001600160a01b038316600090815260056020526040902054818110156138315760405163356680b760e01b815260040160405180910390fd5b6001600160a01b038416158061384e57506001600160a01b038316155b1561386c5760405163d92e233d60e01b815260040160405180910390fd5b6138768282615a34565b6001600160a01b0380861660009081526005602052604080822093909355908516815220546138a58382615a47565b6001600160a01b0380861660008181526005602052604090819020939093559151908716906000805160206162e0833981519152906138e5908790615282565b60405180910390a35050505050565b6001600160a01b0381166000908152600260205260408120548190810361392e57604051630631bc2160e51b815260040160405180910390fd5b6139366148a2565b600080613942856148d2565b915091506000613953868484614a08565b9050600061396a8383600001518460400151614b76565b905060008061397c838588888d614bfb565b9150915061398a8282614f0b565b6001600160a01b03891660008181526002602081905260408083204260018201559091015490860151600080516020616300833981519152928a928a9290916139d39190611db6565b6139ea89602001518a604001516117d09190615a47565b8a60200151604051613a0196959493929190615e77565b60405180910390a250939792965091945050505050565b60006001600160a01b038816613a415760405163d92e233d60e01b815260040160405180910390fd5b42851015613a62576040516363bef56160e11b815260040160405180910390fd5b6001600160a01b0388166000908152601760209081526040808320549051909291613aa791600080516020616320833981519152918d918d918d9188918e9101615ec6565b604051602081830303815290604052805190602001209050600060185482604051602001613ad6929190615eee565b604051602081830303815290604052805190602001209050600060018289898960405160008152602001604052604051613b139493929190615f1f565b6020604051602081039080840390855afa158015613b35573d6000803e3d6000fd5b5050604051601f1901519150506001600160a01b0381161580613b6a57508b6001600160a01b0316816001600160a01b031614155b15613b88576040516310454c9960e31b815260040160405180910390fd5b613b938c8c8c611ee9565b506001600160a01b038c166000908152601760205260408120805491613bb883615a70565b91905055508a6001600160a01b03168c6001600160a01b03166000805160206163408339815191528c604051613bee9190615282565b60405180910390a35060019b9a5050505050505050505050565b6001600160a01b038116600090815260056020526040902054821115613c4157604051633999656760e01b815260040160405180910390fd5b6001600160a01b03811660009081526005602052604081208054849290613c69908490615a34565b925050819055508160076000828254613c829190615a34565b90915550506040516000906001600160a01b038316906000805160206162e083398151915290613cb3908690615282565b60405180910390a35050565b6001600160a01b038416613ce65760405163d92e233d60e01b815260040160405180910390fd5b612710811115613d0957604051631a7ed0a160e31b815260040160405180910390fd5b60008211613d2a57604051637c946ed760e01b815260040160405180910390fd5b6001600160a01b038316600090815260056020526040902054821115612b6757604051633999656760e01b815260040160405180910390fd5b826001600160a01b0316826001600160a01b031614611018576110188383836144d4565b60008060006040518060c0016040528086815260200160095481526020016008548152602001600081526020017f00000000000000000000000000000000000000000000000000000000000000006001600160a01b03166370a08231306040518263ffffffff1660e01b8152600401613e00919061526e565b602060405180830381865afa158015613e1d573d6000803e3d6000fd5b505050506040513d601f19601f82011682018060405250810190613e4191906159b4565b81526000602091820152810151815191925010156143c65760008451600014158015613e70575060045460ff16155b613ed4576003805480602002602001604051908101604052809291908181526020018280548015613eca57602002820191906000526020600020905b81546001600160a01b03168152600190910190602001808311613eac575b5050505050613ed6565b845b60208301518351919250613ee991615a34565b606083015260005b8151811015614395576000828281518110613f0e57613f0e615a5a565b6020026020010151905060026000826001600160a01b03166001600160a01b0316815260200190815260200160002060000154600003613f6157604051630631bc2160e51b815260040160405180910390fd5b6001600160a01b0381166000908152600260208190526040822001546060860151909190613f8f90836128ea565b90506000836001600160a01b03166307a2d13a856001600160a01b031663d905777e306040518263ffffffff1660e01b8152600401613fce919061526e565b602060405180830381865afa158015613feb573d6000803e3d6000fd5b505050506040513d601f19601f8201168201806040525081019061400f91906159b4565b6040518263ffffffff1660e01b815260040161402b9190615282565b602060405180830381865afa158015614048573d6000803e3d6000fd5b505050506040513d601f19601f8201168201806040525081019061406c91906159b4565b9050600061407a8584613361565b905080156141805761408c8184615a34565b8210156140c657600061409f8285615a34565b9050806140ac84846159eb565b6140b69190615a20565b91506140c28284615a47565b9350505b6140d08184615a34565b925080886000018181516140e49190615a34565b9052506060880180518291906140fb908390615a34565b905250604088018051829190614112908390615a34565b905250811580156141235750600081115b156141805760006141348286615a34565b6001600160a01b0387166000818152600260208190526040918290200183905551919250906000805160206163e0833981519152906141769088908590615824565b60405180910390a2505b61418a83836128ea565b92508260000361419e575050505050614383565b6141a88584614536565b6040516370a0823160e01b81526000906001600160a01b037f000000000000000000000000000000000000000000000000000000000000000016906370a08231906141f790309060040161526e565b602060405180830381865afa158015614214573d6000803e3d6000fd5b505050506040513d601f19601f8201168201806040525081019061423891906159b4565b9050600089608001518261424c9190615a34565b9050600085821115614283578682111561426857869550614298565b6142728683615a34565b61427c9087615a47565b9550614298565b85821015614298576142958287615a34565b90505b6142a28187615a34565b8b6020018181516142b39190615a47565b9052508a5181908c906142c7908390615a34565b90525060408b0180518791906142de908390615a34565b90525060006142ed8588615a47565b6142f79089615a34565b6001600160a01b038a166000818152600260208190526040918290200183905551919250906000805160206163e083398151915290614339908b908590615824565b60405180910390a260208c01518c511161435b57505050505050505050614395565b60808c0184905260608c018051889190614376908390615a34565b9052505050505050505050505b8061438d81615a70565b915050613ef1565b508151602083015110156143bc57604051634dd0d83d60e11b815260040160405180910390fd5b5060408101516008555b805160209091015190925090505b9250929050565b82841180156143eb575061271081105b15614430576127106143fd82866159eb565b6144079190615a20565b6144118486615a34565b1115614430576040516307f65e3960e11b815260040160405180910390fd5b61443a8587613c08565b6144448383615a34565b6009556144727f00000000000000000000000000000000000000000000000000000000000000008885612b6d565b50505050505050565b6144858282611755565b610ec35761449281614fac565b61449d836020614fbe565b6040516020016144ae929190615f5c565b60408051601f198184030181529082905262461bcd60e51b825261109391600401615508565b6001600160a01b038084166000908152600660209081526040808320938616835292905220548181101561451b5760405163017e286b60e51b815260040160405180910390fd5b61452f848461452a8585615a34565b611ee9565b5050505050565b600061461a836001600160a01b0316630a28a477846040518263ffffffff1660e01b81526004016145679190615282565b602060405180830381865afa158015614584573d6000803e3d6000fd5b505050506040513d601f19601f820116820180604052508101906145a891906159b4565b6040516370a0823160e01b81526001600160a01b038616906370a08231906145d490309060040161526e565b602060405180830381865afa1580156145f1573d6000803e3d6000fd5b505050506040513d601f19601f8201168201806040525081019061461591906159b4565b6128ea565b604051635d043b2960e11b81529091506001600160a01b0384169063ba0876529061464d90849030908190600401615fae565b6020604051808303816000875af115801561466c573d6000803e3d6000fd5b505050506040513d601f19601f82011682018060405250810190612b6791906159b4565b6001600160a01b03831615806146ad57506001600160a01b038216155b156146cb5760405163d92e233d60e01b815260040160405180910390fd5b60405163095ea7b360e01b81526001600160a01b0384169063095ea7b3906146f99085908590600401615e4e565b6020604051808303816000875af1158015614718573d6000803e3d6000fd5b505050506040513d601f19601f8201168201806040525081019061473c9190615df7565b6110185760405162461bcd60e51b815260040161109390615ffc565b60006001600160a01b0382166147815760405163d92e233d60e01b815260040160405180910390fd5b600061478b61225c565b90506000614797611d7b565b90506000826000036147aa5750846147ef565b858211156147d7576147bc8683615a34565b6147c684886159eb565b6147d09190615a20565b90506147ef565b60405162461bcd60e51b815260040161109390616032565b806000036148035760009350505050610da1565b610ddb81865b6001600160a01b0381166148305760405163d92e233d60e01b815260040160405180910390fd5b6001600160a01b03811660009081526005602052604081208054849290614858908490615a47565b9250508190555081600760008282546148719190615a47565b90915550506040516001600160a01b038216906000906000805160206162e083398151915290613cb3908690615282565b60006148ac613611565b9050806000036148b95750565b4260145411156148c857426016555b6120398130613c08565b6000806000836001600160a01b03166370a08231306040518263ffffffff1660e01b8152600401614903919061526e565b602060405180830381865afa158015614920573d6000803e3d6000fd5b505050506040513d601f19601f8201168201806040525081019061494491906159b4565b90506000846001600160a01b03166307a2d13a836040518263ffffffff1660e01b81526004016149749190615282565b602060405180830381865afa158015614991573d6000803e3d6000fd5b505050506040513d601f19601f820116820180604052508101906149b591906159b4565b6001600160a01b03861660009081526002602081905260408220015491925080828411156149ee576149e78385615a34565b91506149fb565b6149f88484615a34565b90505b9097909650945050505050565b614a106151e1565b614a186151e1565b600c546001600160a01b031615610f3b57600c5460405163921f8a8f60e01b81526001600160a01b039091169063921f8a8f90614a5d90889088908890600401616042565b60408051808303816000875af1158015614a7b573d6000803e3d6000fd5b505050506040513d601f19601f82011682018060405250810190614a9f919061605d565b602083015280825215610f3b5760007f00000000000000000000000000000000000000000000000000000000000000006001600160a01b03166307d3277f6040518163ffffffff1660e01b81526004016040805180830381865afa158015614b0b573d6000803e3d6000fd5b505050506040513d601f19601f82011682018060405250810190614b2f91906160a5565b6001600160a01b03166060840152905061ffff8116156128e157815161271090614b5e9061ffff8416906159eb565b614b689190615a20565b604083015250949350505050565b614b7e615212565b614b86615212565b6000614b928587615a47565b1115610f3b57614bac614ba58587615a47565b6001611f81565b81518290614bbb908390615a47565b9052508315610f3b57614bd8614bd18486615a34565b6000611f81565b60208201528215610f3b57614bee836000611f81565b6040820152949350505050565b60008060008087602001511115614d60576020870151600c546040516370a0823160e01b8152614d039291614615916001600160a01b037f00000000000000000000000000000000000000000000000000000000000000008116926370a0823192614c6d92919091169060040161526e565b602060405180830381865afa158015614c8a573d6000803e3d6000fd5b505050506040513d601f19601f82011682018060405250810190614cae91906159b4565b600c54604051636eb1769f60e11b81526001600160a01b037f000000000000000000000000000000000000000000000000000000000000000081169263dd62ed3e926145d492919091169030906004016160d8565b60208801819052600c54614d44917f0000000000000000000000000000000000000000000000000000000000000000916001600160a01b0316903090612a8b565b866020015160096000828254614d5a9190615a47565b90915550505b8515614db0576001600160a01b03841660009081526002602081905260408220018054889290614d91908490615a47565b925050819055508560086000828254614daa9190615a47565b90915550505b6000876020015187614dc29190615a47565b118015614dd0575060135415155b15614df157614dee876020015187614de89190615a47565b30614758565b90505b8415614e41576001600160a01b03841660009081526002602081905260408220018054879290614e22908490615a34565b925050819055508460086000828254614e3b9190615a34565b90915550505b30600090815260056020526040812054614e5c908390615a34565b895190915015614ebd578851614e76906146158484615a47565b808a52614e839030613c08565b6000614e938a60000151846128ea565b9050614e9f8184615a34565b8a51909350614eaf908290615a34565b614eb99083615a34565b9150505b602089015115614ee2576020890151600c54614ee291906001600160a01b0316614809565b604089015115614efe57614efe89604001518960600151614809565b9890975095505050505050565b6000614f178284615a47565b90508015614fa2576000426014541115614f465742601454614f399190615a34565b614f4390856159eb565b90505b60008260135485614f5791906159eb565b614f619084615a47565b614f6b9190615a20565b905080614f7d64e8d4a51000856159eb565b614f879190615a20565b601555614f948142615a47565b601455505042601655505050565b6000601555505050565b6060610da16001600160a01b03831660145b60606000614fcd8360026159eb565b614fd8906002615a47565b6001600160401b03811115614fef57614fef615318565b6040519080825280601f01601f191660200182016040528015615019576020820181803683370190505b509050600360fc1b8160008151811061503457615034615a5a565b60200101906001600160f81b031916908160001a905350600f60fb1b8160018151811061506357615063615a5a565b60200101906001600160f81b031916908160001a90535060006150878460026159eb565b615092906001615a47565b90505b600181111561510a576f181899199a1a9b1b9c1cb0b131b232b360811b85600f16601081106150c6576150c6615a5a565b1a60f81b8282815181106150dc576150dc615a5a565b60200101906001600160f81b031916908160001a90535060049490941c93615103816160e6565b9050615095565b508315610e8c5760405162461bcd60e51b81526004016110939061612f565b82805482825590600052602060002090810192821561517c579160200282015b8281111561517c5781546001600160a01b0319166001600160a01b03843516178255602090920191600190910190615149565b50615188929150615233565b5090565b82805482825590600052602060002090810192821561517c579160200282015b8281111561517c57825182546001600160a01b0319166001600160a01b039091161782556020909201916001909101906151ac565b604051806080016040528060008152602001600081526020016000815260200160006001600160a01b031681525090565b60405180606001604052806000815260200160008152602001600081525090565b5b808211156151885760008155600101615234565b6001600160a01b031690565b6000610da182615248565b61526881615254565b82525050565b60208101610da1828461525f565b80615268565b60208101610da1828461527c565b6001600160e01b031981165b811461203957600080fd5b8035610da181615290565b6000602082840312156152c7576152c7600080fd5b6000610f3b84846152a7565b801515615268565b60208101610da182846152d3565b8061529c565b8035610da1816152e9565b61529c81615254565b8035610da1816152fa565b601f01601f191690565b634e487b7160e01b600052604160045260246000fd5b6153378261530e565b81018181106001600160401b038211171561535457615354615318565b6040525050565b600061536660405190565b9050615372828261532e565b919050565b60006001600160401b0382111561539057615390615318565b5060209081020190565b60006153ad6153a884615377565b61535b565b838152905060208082019084028301858111156153cc576153cc600080fd5b835b818110156153f057806153e18882615303565b845250602092830192016153ce565b5050509392505050565b600082601f83011261540e5761540e600080fd5b8135610f3b84826020860161539a565b600080600080600060a0868803121561543957615439600080fd5b600061544588886152ef565b955050602061545688828901615303565b945050604061546788828901615303565b9350506060615478888289016152ef565b92505060808601356001600160401b0381111561549757615497600080fd5b6154a3888289016153fa565b9150509295509295909350565b60005b838110156154cb5781810151838201526020016154b3565b50506000910152565b60006154de825190565b8084526020840193506154f58185602086016154b0565b6154fe8161530e565b9093019392505050565b60208082528101610e8c81846154d4565b60006020828403121561552e5761552e600080fd5b6000610f3b84846152ef565b6000806040838503121561555057615550600080fd5b600061555c8585615303565b925050602061556d858286016152ef565b9150509250929050565b60006020828403121561558c5761558c600080fd5b6000610f3b8484615303565b6000806000606084860312156155b0576155b0600080fd5b60006155bc8686615303565b93505060206155cd86828701615303565b92505060406155de868287016152ef565b9150509250925092565b600080604083850312156155fe576155fe600080fd5b600061560a85856152ef565b925050602061556d85828601615303565b60ff8116615268565b60208101610da1828461561b565b60008060006060848603121561564a5761564a600080fd5b60006156568686615303565b9350506020615667868287016152ef565b92505060408401356001600160401b0381111561568657615686600080fd5b6155de868287016153fa565b608081016156a0828761527c565b6156ad602083018661527c565b6156ba604083018561527c565b610ddb606083018461527c565b6000610da16156db6156d884615248565b90565b615248565b6000610da1826156c7565b6000610da1826156e0565b615268816156eb565b60208101610da182846156f6565b60008083601f84011261572257615722600080fd5b5081356001600160401b0381111561573c5761573c600080fd5b6020830191508360208202830111156143d4576143d4600080fd5b6000806020838503121561576d5761576d600080fd5b82356001600160401b0381111561578657615786600080fd5b6157928582860161570d565b92509250509250929050565b634e487b7160e01b600052602160045260246000fd5b600e81106120395761203961579e565b80615372816157b4565b6000610da1826157c4565b615268816157ce565b60208101610da182846157d9565b80151561529c565b8035610da1816157f0565b60006020828403121561581857615818600080fd5b6000610f3b84846157f8565b60408101615832828561527c565b610e8c602083018461527c565b60ff811661529c565b8035610da18161583f565b600080600080600080600060e0888a03121561587157615871600080fd5b600061587d8a8a615303565b975050602061588e8a828b01615303565b965050604061589f8a828b016152ef565b95505060606158b08a828b016152ef565b94505060806158c18a828b01615848565b93505060a06158d28a828b016152ef565b92505060c06158e38a828b016152ef565b91505092959891949750929550565b6000806040838503121561590857615908600080fd5b600061560a8585615303565b634e487b7160e01b600052602260045260246000fd5b60028104600182168061593e57607f821691505b60208210810361595057615950615914565b50919050565b60208082528101610da181602f81527f416363657373436f6e74726f6c3a2063616e206f6e6c792072656e6f756e636560208201526e103937b632b9903337b91039b2b63360891b604082015260600190565b8051610da1816152e9565b6000602082840312156159c9576159c9600080fd5b6000610f3b84846159a9565b634e487b7160e01b600052601160045260246000fd5b6000816000190483118215151615615a0557615a056159d5565b500290565b634e487b7160e01b600052601260045260246000fd5b600082615a2f57615a2f615a0a565b500490565b81810381811115610da157610da16159d5565b80820180821115610da157610da16159d5565b634e487b7160e01b600052603260045260246000fd5b60006000198203615a8357615a836159d5565b5060010190565b6000615a96838361525f565b505060200190565b6000610e8c6020840184615303565b8183526000602084019350818060005b85811015615aea57615acf8284615a9e565b615ad98882615a8a565b975060208301925050600101615abd565b509495945050505050565b60208082528101610f3b818486615aad565b80825b6001851115615b4657808604811115615b2557615b256159d5565b6001851615615b3357908102905b8002615b3f8560011c90565b9450615b0a565b94509492505050565b600082615b5e57506001610e8c565b81615b6b57506000610e8c565b8160018114615b815760028114615b8b57615bb8565b6001915050610e8c565b60ff841115615b9c57615b9c6159d5565b8360020a915084821115615bb257615bb26159d5565b50610e8c565b5060208310610133831016604e8410600b8410161715615beb575081810a83811115615be657615be66159d5565b610e8c565b615bf88484846001615b07565b92509050818404811115615c0e57615c0e6159d5565b0292915050565b6000610e8c6000198484615b4f565b6000610da16156d88381565b61526881615c24565b60208101610da18284615c30565b601f81526000602082017f5265656e7472616e637947756172643a207265656e7472616e742063616c6c00815291505b5060200190565b60208082528101610da181615c47565b600082615c9d57615c9d615a0a565b500690565b60c08101615cb08289615c30565b615cbd602083018861527c565b615cca6040830187615c30565b615cd76060830186615c30565b615ce46080830185615c30565b611a4b60a0830184615c30565b600281106120395761203961579e565b8061537281615cf1565b6000610da182615d01565b61526881615d0b565b60208101610da18284615d16565b8051610da1816152fa565b600060208284031215615d4d57615d4d600080fd5b6000610f3b8484615d2d565b6000615d63825190565b80845260209384019383018060005b83811015615aea578151615d868882615a8a565b975060208301925050600101615d72565b60608101615da5828661525f565b615db2602083018561527c565b8181036040830152610ddb8184615d59565b60608101615dd2828661525f565b615ddf602083018561525f565b610f3b604083018461527c565b8051610da1816157f0565b600060208284031215615e0c57615e0c600080fd5b6000610f3b8484615dec565b600f81526000602082016e1d1c985b9cd9995c8819985a5b1959608a1b81529150615c77565b60208082528101610da181615e18565b60408101615832828561525f565b60408101615e6a828561527c565b610e8c602083018461525f565b60c08101615e85828961527c565b615e92602083018861527c565b615e9f604083018761527c565b615eac606083018661527c565b615eb9608083018561527c565b611a4b60a083018461527c565b60c08101615ed4828961527c565b615ee1602083018861525f565b615e9f604083018761525f565b61190160f01b81526002016000615f05828561527c565b602082019150615f15828461527c565b5060200192915050565b60808101615f2d828761527c565b6156ad602083018661561b565b6000615f44825190565b615f528185602086016154b0565b9290920192915050565b76020b1b1b2b9b9a1b7b73a3937b61d1030b1b1b7bab73a1604d1b81526017016000615f888285615f3a565b7001034b99036b4b9b9b4b733903937b6329607d1b81526011019150610f3b8284615f3a565b60608101615fbc828661527c565b615fc9602083018561525f565b610f3b604083018461525f565b600f81526000602082016e185c1c1c9bdd985b0819985a5b1959608a1b81529150615c77565b60208082528101610da181615fd6565b600f81526000602082016e0c2dadeeadce840e8dede40d0d2ced608b1b81529150615c77565b60208082528101610da18161600c565b60608101616050828661525f565b615ddf602083018561527c565b6000806040838503121561607357616073600080fd5b600061607f85856159a9565b925050602061556d858286016159a9565b61ffff811661529c565b8051610da181616090565b600080604083850312156160bb576160bb600080fd5b60006160c7858561609a565b925050602061556d85828601615d2d565b60408101615e6a828561525f565b6000816160f5576160f56159d5565b506000190190565b60208082527f537472696e67733a20686578206c656e67746820696e73756666696369656e7491019081526000615c77565b60208082528101610da1816160fd56fe152ebba56b9738ee3d8baea1b76fa31dcdcd79b1929bfea7d58ee12cfdf1a653cd9f023a942ee35097ead74b2505bea9f2c5d47465db92dd195cf7f01a41cfe1633076a97f32ae349b28772e7b1483f67a926f150cbc501d02bdbd77389325abc723f4dd6268e1c374639e36d629c765285ee7003913389d582c300f186dde97777d215db24fb9fee4ded85c66b422abd7162a1caa6ed3ec4c031f6cd29ada52d45f7ccff42f059d4e47c3f027c444272257266f7e88b981e142f0aa38fbfd78ea672c1c09cd95c51af9509f646f3615ff0071aae8652bd821471ee9037fd72c862f91c9d89d6135b19873b921c90b702cb2e175c371b8430026b9577e691119bcf55f13710eed7eda89416c2984da5475fcff67e96fe85e56eed808559a5222ae565aab888bca5e19e25a13db7b0c9144305bf55cb0f3f4d724f730e5acdd622a0e761830cc61f2707ea7bb138008bf9dda7f7d34c77736d0a116604e95ea16f206625bad3d9112d5609b8d356e6fbd514cd1f69980d4ce2b3e6e68e1789ace7cbb3cdf689b8ea3e9d265f66bc4e0a99069268217017d38d2a5a559abc62719ddf252ad1be2c89b69c2b068fc378daa952ba7f163c4a11628f55a4df523b3ef7f2ad1d3ba35276f35ef140f83e3e0f17b23064fd710113d3f7a5ab30d2678116e71edae12b1b97f4d1f60370fef10105fa2faae0126114a169c64845d6126c98c5be1e5ebec7d5bd14f71427d1e84f3dd0314c0f7b2291e5b200ac8c7c3b9256f430d649a8640e48ff9bfbc353b3f99ed630163857821b3b4075e3871dafbf5900d80def0427daac599092fcb16b21808ec68dd9a2e1eae89d1e8db21357375a18eaea71a088b547b8c932b48861853b3434d9a3240b94466c607e28b696595dcbc1c05240f31ff3ad067ef1ee35ce4997762752e3a095284754544f4c709d75e2b8821ad6e0e26207e0cb4d242d07eeb1cbb1cfd853e645bdcd27cc5484f952f0dbbe8c2c0170206c50ec0cafa1c0dbd03e73e67c2a960178df30a0a30ee2e69d1171ac0a63777a6733cda21aec9ed3d48a4fd11f273c934a691dec5e5589ca2646970667358221220dcc4aea7c02281f7cc08d96f4bc4abb11cb0714eb8b4f39462717413789e94a464736f6c63430008100033","opcodes":"PUSH2 0x100 PUSH1 0x40 MSTORE PUSH4 0x1E18558 PUSH1 0xE0 MSTORE CALLVALUE DUP1 ISZERO PUSH3 0x1A JUMPI PUSH1 0x0 DUP1 REVERT JUMPDEST POP PUSH1 0x40 MLOAD PUSH3 0x6BF9 CODESIZE SUB DUP1 PUSH3 0x6BF9 DUP4 CODECOPY DUP2 ADD PUSH1 0x40 DUP2 SWAP1 MSTORE PUSH3 0x3D SWAP2 PUSH3 0x389 JUMP JUMPDEST PUSH1 0x1 DUP1 SSTORE PUSH1 0x1 PUSH1 0x1 PUSH1 0xA0 SHL SUB DUP6 AND PUSH1 0x80 DUP2 SWAP1 MSTORE PUSH1 0x40 DUP1 MLOAD PUSH4 0x313CE567 PUSH1 0xE0 SHL DUP2 MSTORE SWAP1 MLOAD PUSH4 0x313CE567 SWAP2 PUSH1 0x4 DUP1 DUP3 ADD SWAP3 PUSH1 0x20 SWAP3 SWAP1 SWAP2 SWAP1 DUP3 SWAP1 SUB ADD DUP2 DUP7 GAS STATICCALL ISZERO DUP1 ISZERO PUSH3 0x8C JUMPI RETURNDATASIZE PUSH1 0x0 DUP1 RETURNDATACOPY RETURNDATASIZE PUSH1 0x0 REVERT JUMPDEST POP POP POP POP PUSH1 0x40 MLOAD RETURNDATASIZE PUSH1 0x1F NOT PUSH1 0x1F DUP3 ADD AND DUP3 ADD DUP1 PUSH1 0x40 MSTORE POP DUP2 ADD SWAP1 PUSH3 0xB2 SWAP2 SWAP1 PUSH3 0x45C JUMP JUMPDEST PUSH1 0xFF AND PUSH1 0xA0 DUP2 SWAP1 MSTORE PUSH2 0x100 GT PUSH3 0xDC JUMPI PUSH1 0x40 MLOAD PUSH4 0xE2364765 PUSH1 0xE0 SHL DUP2 MSTORE PUSH1 0x4 ADD PUSH1 0x40 MLOAD DUP1 SWAP2 SUB SWAP1 REVERT JUMPDEST CALLER PUSH1 0xC0 MSTORE PUSH4 0x1E18558 DUP2 GT ISZERO PUSH3 0x106 JUMPI PUSH1 0x40 MLOAD PUSH4 0xFDFBB0B7 PUSH1 0xE0 SHL DUP2 MSTORE PUSH1 0x4 ADD PUSH1 0x40 MLOAD DUP1 SWAP2 SUB SWAP1 REVERT JUMPDEST PUSH1 0x13 DUP2 SWAP1 SSTORE PUSH1 0x19 PUSH3 0x119 DUP6 DUP3 PUSH3 0x57E JUMP JUMPDEST POP PUSH1 0x1A PUSH3 0x128 DUP5 DUP3 PUSH3 0x57E JUMP JUMPDEST POP PUSH1 0x11 DUP1 SLOAD PUSH1 0x1 PUSH1 0x1 PUSH1 0xA0 SHL SUB NOT AND PUSH1 0x1 PUSH1 0x1 PUSH1 0xA0 SHL SUB DUP5 AND OR SWAP1 SSTORE DUP4 MLOAD PUSH1 0x20 DUP1 DUP7 ADD SWAP2 SWAP1 SWAP2 KECCAK256 PUSH1 0x40 DUP1 MLOAD DUP1 DUP3 ADD DUP3 MSTORE PUSH1 0x5 DUP2 MSTORE PUSH5 0x332E302E31 PUSH1 0xD8 SHL SWAP1 DUP5 ADD MSTORE MLOAD PUSH3 0x1BF SWAP3 PUSH32 0x8B73C3C69BB8FE3D512ECC4CF759CC79239F7B179B0FFACAA9A75D522B39400F SWAP3 SWAP2 PUSH32 0xC63FEF2293A1F92E82EA14ECFF0FFFDA4A757B8C20DD61198C8B9EBEF0985EF4 SWAP2 CHAINID SWAP2 ADDRESS SWAP2 ADD PUSH3 0x661 JUMP JUMPDEST PUSH1 0x40 MLOAD PUSH1 0x20 DUP2 DUP4 SUB SUB DUP2 MSTORE SWAP1 PUSH1 0x40 MSTORE DUP1 MLOAD SWAP1 PUSH1 0x20 ADD KECCAK256 PUSH1 0x18 DUP2 SWAP1 SSTORE POP POP POP POP POP POP PUSH3 0x6B7 JUMP JUMPDEST PUSH1 0x0 PUSH1 0x1 PUSH1 0x1 PUSH1 0xA0 SHL SUB DUP3 AND JUMPDEST SWAP3 SWAP2 POP POP JUMP JUMPDEST PUSH1 0x0 PUSH3 0x1F3 DUP3 PUSH3 0x1E6 JUMP JUMPDEST PUSH3 0x211 DUP2 PUSH3 0x1F9 JUMP JUMPDEST DUP2 EQ PUSH3 0x21D JUMPI PUSH1 0x0 DUP1 REVERT JUMPDEST POP JUMP JUMPDEST DUP1 MLOAD PUSH3 0x1F3 DUP2 PUSH3 0x206 JUMP JUMPDEST PUSH4 0x4E487B71 PUSH1 0xE0 SHL PUSH1 0x0 MSTORE PUSH1 0x41 PUSH1 0x4 MSTORE PUSH1 0x24 PUSH1 0x0 REVERT JUMPDEST PUSH1 0x1F NOT PUSH1 0x1F DUP4 ADD AND DUP2 ADD DUP2 DUP2 LT PUSH1 0x1 PUSH1 0x1 PUSH1 0x40 SHL SUB DUP3 GT OR ISZERO PUSH3 0x26B JUMPI PUSH3 0x26B PUSH3 0x22D JUMP JUMPDEST PUSH1 0x40 MSTORE POP POP JUMP JUMPDEST PUSH1 0x0 PUSH3 0x27E PUSH1 0x40 MLOAD SWAP1 JUMP JUMPDEST SWAP1 POP PUSH3 0x28C DUP3 DUP3 PUSH3 0x243 JUMP JUMPDEST SWAP2 SWAP1 POP JUMP JUMPDEST PUSH1 0x0 PUSH1 0x1 PUSH1 0x1 PUSH1 0x40 SHL SUB DUP3 GT ISZERO PUSH3 0x2AD JUMPI PUSH3 0x2AD PUSH3 0x22D JUMP JUMPDEST PUSH1 0x1F NOT PUSH1 0x1F DUP4 ADD AND PUSH1 0x20 ADD SWAP3 SWAP2 POP POP JUMP JUMPDEST PUSH1 0x0 JUMPDEST DUP4 DUP2 LT ISZERO PUSH3 0x2DB JUMPI DUP2 DUP2 ADD MLOAD DUP4 DUP3 ADD MSTORE PUSH1 0x20 ADD PUSH3 0x2C1 JUMP JUMPDEST POP POP PUSH1 0x0 SWAP2 ADD MSTORE JUMP JUMPDEST PUSH1 0x0 PUSH3 0x2FB PUSH3 0x2F5 DUP5 PUSH3 0x291 JUMP JUMPDEST PUSH3 0x272 JUMP JUMPDEST SWAP1 POP DUP3 DUP2 MSTORE PUSH1 0x20 DUP2 ADD DUP5 DUP5 DUP5 ADD GT ISZERO PUSH3 0x318 JUMPI PUSH3 0x318 PUSH1 0x0 DUP1 REVERT JUMPDEST PUSH3 0x325 DUP5 DUP3 DUP6 PUSH3 0x2BE JUMP JUMPDEST POP SWAP4 SWAP3 POP POP POP JUMP JUMPDEST PUSH1 0x0 DUP3 PUSH1 0x1F DUP4 ADD SLT PUSH3 0x343 JUMPI PUSH3 0x343 PUSH1 0x0 DUP1 REVERT JUMPDEST DUP2 MLOAD PUSH3 0x355 DUP5 DUP3 PUSH1 0x20 DUP7 ADD PUSH3 0x2E4 JUMP JUMPDEST SWAP5 SWAP4 POP POP POP POP JUMP JUMPDEST PUSH3 0x211 DUP2 PUSH3 0x1E6 JUMP JUMPDEST DUP1 MLOAD PUSH3 0x1F3 DUP2 PUSH3 0x35D JUMP JUMPDEST DUP1 PUSH3 0x211 JUMP JUMPDEST DUP1 MLOAD PUSH3 0x1F3 DUP2 PUSH3 0x375 JUMP JUMPDEST PUSH1 0x0 DUP1 PUSH1 0x0 DUP1 PUSH1 0x0 PUSH1 0xA0 DUP7 DUP9 SUB SLT ISZERO PUSH3 0x3A6 JUMPI PUSH3 0x3A6 PUSH1 0x0 DUP1 REVERT JUMPDEST PUSH1 0x0 PUSH3 0x3B4 DUP9 DUP9 PUSH3 0x220 JUMP JUMPDEST SWAP6 POP POP PUSH1 0x20 DUP7 ADD MLOAD PUSH1 0x1 PUSH1 0x1 PUSH1 0x40 SHL SUB DUP2 GT ISZERO PUSH3 0x3D5 JUMPI PUSH3 0x3D5 PUSH1 0x0 DUP1 REVERT JUMPDEST PUSH3 0x3E3 DUP9 DUP3 DUP10 ADD PUSH3 0x32D JUMP JUMPDEST SWAP5 POP POP PUSH1 0x40 DUP7 ADD MLOAD PUSH1 0x1 PUSH1 0x1 PUSH1 0x40 SHL SUB DUP2 GT ISZERO PUSH3 0x404 JUMPI PUSH3 0x404 PUSH1 0x0 DUP1 REVERT JUMPDEST PUSH3 0x412 DUP9 DUP3 DUP10 ADD PUSH3 0x32D JUMP JUMPDEST SWAP4 POP POP PUSH1 0x60 PUSH3 0x425 DUP9 DUP3 DUP10 ADD PUSH3 0x368 JUMP JUMPDEST SWAP3 POP POP PUSH1 0x80 PUSH3 0x438 DUP9 DUP3 DUP10 ADD PUSH3 0x37C JUMP JUMPDEST SWAP2 POP POP SWAP3 SWAP6 POP SWAP3 SWAP6 SWAP1 SWAP4 POP JUMP JUMPDEST PUSH1 0xFF DUP2 AND PUSH3 0x211 JUMP JUMPDEST DUP1 MLOAD PUSH3 0x1F3 DUP2 PUSH3 0x445 JUMP JUMPDEST PUSH1 0x0 PUSH1 0x20 DUP3 DUP5 SUB SLT ISZERO PUSH3 0x473 JUMPI PUSH3 0x473 PUSH1 0x0 DUP1 REVERT JUMPDEST PUSH1 0x0 PUSH3 0x355 DUP5 DUP5 PUSH3 0x44F JUMP JUMPDEST PUSH4 0x4E487B71 PUSH1 0xE0 SHL PUSH1 0x0 MSTORE PUSH1 0x22 PUSH1 0x4 MSTORE PUSH1 0x24 PUSH1 0x0 REVERT JUMPDEST PUSH1 0x2 DUP2 DIV PUSH1 0x1 DUP3 AND DUP1 PUSH3 0x4AC JUMPI PUSH1 0x7F DUP3 AND SWAP2 POP JUMPDEST PUSH1 0x20 DUP3 LT DUP2 SUB PUSH3 0x4C1 JUMPI PUSH3 0x4C1 PUSH3 0x481 JUMP JUMPDEST POP SWAP2 SWAP1 POP JUMP JUMPDEST PUSH1 0x0 PUSH3 0x1F3 PUSH3 0x4D5 DUP4 DUP2 JUMP JUMPDEST SWAP1 JUMP JUMPDEST PUSH3 0x4E3 DUP4 PUSH3 0x4C7 JUMP JUMPDEST DUP2 SLOAD PUSH1 0x8 DUP5 MUL DUP3 DUP2 SHL PUSH1 0x0 NOT SWAP1 SWAP2 SHL SWAP1 DUP2 AND SWAP1 NOT SWAP1 SWAP2 AND OR DUP3 SSTORE POP POP POP POP JUMP JUMPDEST PUSH1 0x0 PUSH3 0x512 DUP2 DUP5 DUP5 PUSH3 0x4D8 JUMP JUMPDEST POP POP POP JUMP JUMPDEST DUP2 DUP2 LT ISZERO PUSH3 0x536 JUMPI PUSH3 0x52D PUSH1 0x0 DUP3 PUSH3 0x503 JUMP JUMPDEST PUSH1 0x1 ADD PUSH3 0x517 JUMP JUMPDEST POP POP JUMP JUMPDEST PUSH1 0x1F DUP3 GT ISZERO PUSH3 0x512 JUMPI PUSH1 0x0 DUP2 DUP2 MSTORE PUSH1 0x20 SWAP1 KECCAK256 PUSH1 0x20 PUSH1 0x1F DUP6 ADD DIV DUP2 ADD PUSH1 0x20 DUP6 LT ISZERO PUSH3 0x563 JUMPI POP DUP1 JUMPDEST PUSH3 0x577 PUSH1 0x20 PUSH1 0x1F DUP7 ADD DIV DUP4 ADD DUP3 PUSH3 0x517 JUMP JUMPDEST POP POP POP POP POP JUMP JUMPDEST DUP2 MLOAD PUSH1 0x1 PUSH1 0x1 PUSH1 0x40 SHL SUB DUP2 GT ISZERO PUSH3 0x59A JUMPI PUSH3 0x59A PUSH3 0x22D JUMP JUMPDEST PUSH3 0x5A6 DUP3 SLOAD PUSH3 0x497 JUMP JUMPDEST PUSH3 0x5B3 DUP3 DUP3 DUP6 PUSH3 0x53A JUMP JUMPDEST PUSH1 0x20 PUSH1 0x1F DUP4 GT PUSH1 0x1 DUP2 EQ PUSH3 0x5EA JUMPI PUSH1 0x0 DUP5 ISZERO PUSH3 0x5D1 JUMPI POP DUP6 DUP3 ADD MLOAD JUMPDEST PUSH1 0x0 NOT PUSH1 0x8 DUP7 MUL SHR NOT DUP2 AND PUSH1 0x2 DUP7 MUL OR DUP7 SSTORE POP PUSH3 0x646 JUMP JUMPDEST PUSH1 0x0 DUP6 DUP2 MSTORE PUSH1 0x20 DUP2 KECCAK256 PUSH1 0x1F NOT DUP7 AND SWAP2 JUMPDEST DUP3 DUP2 LT ISZERO PUSH3 0x61C JUMPI DUP9 DUP6 ADD MLOAD DUP3 SSTORE PUSH1 0x20 SWAP5 DUP6 ADD SWAP5 PUSH1 0x1 SWAP1 SWAP3 ADD SWAP2 ADD PUSH3 0x5FA JUMP JUMPDEST DUP7 DUP4 LT ISZERO PUSH3 0x639 JUMPI DUP5 DUP10 ADD MLOAD PUSH1 0x0 NOT PUSH1 0x1F DUP10 AND PUSH1 0x8 MUL SHR NOT AND DUP3 SSTORE JUMPDEST PUSH1 0x1 PUSH1 0x2 DUP9 MUL ADD DUP9 SSTORE POP POP POP JUMPDEST POP POP POP POP POP POP JUMP JUMPDEST DUP1 JUMPDEST DUP3 MSTORE POP POP JUMP JUMPDEST PUSH3 0x650 DUP2 PUSH3 0x1E6 JUMP JUMPDEST PUSH1 0xA0 DUP2 ADD PUSH3 0x671 DUP3 DUP9 PUSH3 0x64E JUMP JUMPDEST PUSH3 0x680 PUSH1 0x20 DUP4 ADD DUP8 PUSH3 0x64E JUMP JUMPDEST PUSH3 0x68F PUSH1 0x40 DUP4 ADD DUP7 PUSH3 0x64E JUMP JUMPDEST PUSH3 0x69E PUSH1 0x60 DUP4 ADD DUP6 PUSH3 0x64E JUMP JUMPDEST PUSH3 0x6AD PUSH1 0x80 DUP4 ADD DUP5 PUSH3 0x656 JUMP JUMPDEST SWAP7 SWAP6 POP POP POP POP POP POP JUMP JUMPDEST PUSH1 0x80 MLOAD PUSH1 0xA0 MLOAD PUSH1 0xC0 MLOAD PUSH1 0xE0 MLOAD PUSH2 0x6475 PUSH3 0x784 PUSH1 0x0 CODECOPY PUSH1 0x0 DUP2 DUP2 PUSH2 0x5E2 ADD MSTORE PUSH2 0x1B00 ADD MSTORE PUSH1 0x0 DUP2 DUP2 PUSH2 0x666 ADD MSTORE PUSH2 0x4AB0 ADD MSTORE PUSH1 0x0 DUP2 DUP2 PUSH2 0x68D ADD MSTORE DUP2 DUP2 PUSH2 0x6C4 ADD MSTORE PUSH2 0x17AA ADD MSTORE PUSH1 0x0 DUP2 DUP2 PUSH2 0x72D ADD MSTORE DUP2 DUP2 PUSH2 0x7FA ADD MSTORE DUP2 DUP2 PUSH2 0x1215 ADD MSTORE DUP2 DUP2 PUSH2 0x22B1 ADD MSTORE DUP2 DUP2 PUSH2 0x2E24 ADD MSTORE DUP2 DUP2 PUSH2 0x2EC0 ADD MSTORE DUP2 DUP2 PUSH2 0x30DA ADD MSTORE DUP2 DUP2 PUSH2 0x311A ADD MSTORE DUP2 DUP2 PUSH2 0x321F ADD MSTORE DUP2 DUP2 PUSH2 0x329C ADD MSTORE DUP2 DUP2 PUSH2 0x352B ADD MSTORE DUP2 DUP2 PUSH2 0x36F0 ADD MSTORE DUP2 DUP2 PUSH2 0x3DB6 ADD MSTORE DUP2 DUP2 PUSH2 0x41C2 ADD MSTORE DUP2 DUP2 PUSH2 0x444C ADD MSTORE DUP2 DUP2 PUSH2 0x4C34 ADD MSTORE DUP2 DUP2 PUSH2 0x4CC8 ADD MSTORE PUSH2 0x4D13 ADD MSTORE PUSH2 0x6475 PUSH1 0x0 RETURN INVALID PUSH1 0x80 PUSH1 0x40 MSTORE CALLVALUE DUP1 ISZERO PUSH2 0x10 JUMPI PUSH1 0x0 DUP1 REVERT JUMPDEST POP PUSH1 0x4 CALLDATASIZE LT PUSH2 0x4C8 JUMPI PUSH1 0x0 CALLDATALOAD PUSH1 0xE0 SHR DUP1 PUSH4 0x6D020808 GT PUSH2 0x281 JUMPI DUP1 PUSH4 0x6D020808 EQ PUSH2 0x956 JUMPI DUP1 PUSH4 0x6E553F65 EQ PUSH2 0x95E JUMPI DUP1 PUSH4 0x70A08231 EQ PUSH2 0x971 JUMPI DUP1 PUSH4 0x77E3B267 EQ PUSH2 0x984 JUMPI DUP1 PUSH4 0x7ECEBE00 EQ PUSH2 0x9A8 JUMPI DUP1 PUSH4 0x8212FD43 EQ PUSH2 0x9C8 JUMPI DUP1 PUSH4 0x8AFCA8F0 EQ PUSH2 0x9DB JUMPI DUP1 PUSH4 0x91986003 EQ PUSH2 0x9E4 JUMPI DUP1 PUSH4 0x91D14854 EQ PUSH2 0x9F7 JUMPI DUP1 PUSH4 0x94BF804D EQ PUSH2 0xA0A JUMPI DUP1 PUSH4 0x95D89B41 EQ PUSH2 0xA1D JUMPI DUP1 PUSH4 0x99374642 EQ PUSH2 0xA25 JUMPI DUP1 PUSH4 0x99530B06 EQ PUSH2 0xA55 JUMPI DUP1 PUSH4 0x9BBCA884 EQ PUSH2 0xA5D JUMPI DUP1 PUSH4 0x9E34E348 EQ PUSH2 0xA70 JUMPI DUP1 PUSH4 0x9F3988F3 EQ PUSH2 0xA83 JUMPI DUP1 PUSH4 0xA217FDDF EQ PUSH2 0xA98 JUMPI DUP1 PUSH4 0xA457C2D7 EQ PUSH2 0xAA0 JUMPI DUP1 PUSH4 0xA73F7F8A EQ PUSH2 0xAB3 JUMPI DUP1 PUSH4 0xA9059CBB EQ PUSH2 0xAC6 JUMPI DUP1 PUSH4 0xA98222C4 EQ PUSH2 0xAD9 JUMPI DUP1 PUSH4 0xAB5B4D49 EQ PUSH2 0xAEE JUMPI DUP1 PUSH4 0xB3C187F2 EQ PUSH2 0xB03 JUMPI DUP1 PUSH4 0xB3D7F6B9 EQ PUSH2 0xB16 JUMPI DUP1 PUSH4 0xB6CC2D1F EQ PUSH2 0xB29 JUMPI DUP1 PUSH4 0xBB994D48 EQ PUSH2 0xB4A JUMPI DUP1 PUSH4 0xBBE4EB49 EQ PUSH2 0xB5D JUMPI DUP1 PUSH4 0xBDC8144B EQ PUSH2 0xB6A JUMPI DUP1 PUSH4 0xC065CA07 EQ PUSH2 0xB7D JUMPI DUP1 PUSH4 0xC0993EEA EQ PUSH2 0xB92 JUMPI DUP1 PUSH4 0xC63D75B6 EQ PUSH2 0xBB9 JUMPI DUP1 PUSH4 0xC6E6F592 EQ PUSH2 0xBCC JUMPI DUP1 PUSH4 0xC8D74B60 EQ PUSH2 0xBDF JUMPI DUP1 PUSH4 0xC8DFFA95 EQ PUSH2 0xBF4 JUMPI DUP1 PUSH4 0xC9A16EA4 EQ PUSH2 0xBFD JUMPI DUP1 PUSH4 0xD4AE064F EQ PUSH2 0xC10 JUMPI DUP1 PUSH4 0xD505ACCF EQ PUSH2 0xC25 JUMPI DUP1 PUSH4 0xD538E904 EQ PUSH2 0xC38 JUMPI DUP1 PUSH4 0xD547741F EQ PUSH2 0xC4B JUMPI DUP1 PUSH4 0xD81A09F6 EQ PUSH2 0xC5E JUMPI DUP1 PUSH4 0xD9A0E97A EQ PUSH2 0xC71 JUMPI DUP1 PUSH4 0xDD62ED3E EQ PUSH2 0xC79 JUMPI DUP1 PUSH4 0xDF69B22A EQ PUSH2 0xCB2 JUMPI DUP1 PUSH4 0xE5236CC9 EQ PUSH2 0xCC5 JUMPI DUP1 PUSH4 0xECF70858 EQ PUSH2 0xCCD JUMPI DUP1 PUSH4 0xEF8B30F7 EQ PUSH2 0xBCC JUMPI DUP1 PUSH4 0xF1DAEBA8 EQ PUSH2 0xCD6 JUMPI DUP1 PUSH4 0xF5B944EB EQ PUSH2 0xCEB JUMPI DUP1 PUSH4 0xF6D7BFA0 EQ PUSH2 0xD00 JUMPI DUP1 PUSH4 0xF828F50B EQ PUSH2 0xD13 JUMPI DUP1 PUSH4 0xFC0E74D1 EQ PUSH2 0xD1C JUMPI DUP1 PUSH4 0xFD967F47 EQ PUSH2 0xD30 JUMPI DUP1 PUSH4 0xFEC61F06 EQ PUSH2 0xD39 JUMPI DUP1 PUSH4 0xFF1E7F08 EQ PUSH2 0xD4E JUMPI PUSH1 0x0 DUP1 REVERT JUMPDEST DUP1 PUSH3 0x435DA5 EQ PUSH2 0x4CD JUMPI DUP1 PUSH4 0x1E1D114 EQ PUSH2 0x4F6 JUMPI DUP1 PUSH4 0x1FFC9A7 EQ PUSH2 0x50B JUMPI DUP1 PUSH4 0x3DCD12C EQ PUSH2 0x52B JUMPI DUP1 PUSH4 0x6580F2D EQ PUSH2 0x540 JUMPI DUP1 PUSH4 0x6FDDE03 EQ PUSH2 0x553 JUMPI DUP1 PUSH4 0x7A2D13A EQ PUSH2 0x568 JUMPI DUP1 PUSH4 0x835A3FC EQ PUSH2 0x57B JUMPI DUP1 PUSH4 0x952864E EQ PUSH2 0x584 JUMPI DUP1 PUSH4 0x95EA7B3 EQ PUSH2 0x58D JUMPI DUP1 PUSH4 0xA28A477 EQ PUSH2 0x5A0 JUMPI DUP1 PUSH4 0xAD283D0 EQ PUSH2 0x5B3 JUMPI DUP1 PUSH4 0x16B87AC0 EQ PUSH2 0x5C8 JUMPI DUP1 PUSH4 0x16D3BFBB EQ PUSH2 0x5DD JUMPI DUP1 PUSH4 0x18160DDD EQ PUSH2 0x604 JUMPI DUP1 PUSH4 0x223E5479 EQ PUSH2 0x60C JUMPI DUP1 PUSH4 0x23B872DD EQ PUSH2 0x61F JUMPI DUP1 PUSH4 0x248A9CA3 EQ PUSH2 0x632 JUMPI DUP1 PUSH4 0x2D632692 EQ PUSH2 0x645 JUMPI DUP1 PUSH4 0x2D772168 EQ PUSH2 0x64E JUMPI DUP1 PUSH4 0x2DD31000 EQ PUSH2 0x661 JUMPI DUP1 PUSH4 0x2E0F2625 EQ PUSH2 0x688 JUMPI DUP1 PUSH4 0x2F2FF15D EQ PUSH2 0x6AF JUMPI DUP1 PUSH4 0x313CE567 EQ PUSH2 0x6C2 JUMPI DUP1 PUSH4 0x34B5FAB6 EQ PUSH2 0x6F0 JUMPI DUP1 PUSH4 0x3644E515 EQ PUSH2 0x703 JUMPI DUP1 PUSH4 0x36568ABE EQ PUSH2 0x70C JUMPI DUP1 PUSH4 0x36FBA084 EQ PUSH2 0x71F JUMPI DUP1 PUSH4 0x38D52E0F EQ PUSH2 0x72B JUMPI DUP1 PUSH4 0x39509351 EQ PUSH2 0x751 JUMPI DUP1 PUSH4 0x39EBF823 EQ PUSH2 0x764 JUMPI DUP1 PUSH4 0x3CD7B5AB EQ PUSH2 0x7AB JUMPI DUP1 PUSH4 0x3F7B5E40 EQ PUSH2 0x7B4 JUMPI DUP1 PUSH4 0x402D267D EQ PUSH2 0x7BC JUMPI DUP1 PUSH4 0x405977E7 EQ PUSH2 0x7CF JUMPI DUP1 PUSH4 0x46E6AC49 EQ PUSH2 0x7E2 JUMPI DUP1 PUSH4 0x4800D97F EQ PUSH2 0x7F5 JUMPI DUP1 PUSH4 0x48EA7127 EQ PUSH2 0x829 JUMPI DUP1 PUSH4 0x4BBD71E9 EQ PUSH2 0x83C JUMPI DUP1 PUSH4 0x4CDAD506 EQ PUSH2 0x568 JUMPI DUP1 PUSH4 0x4CE1D38A EQ PUSH2 0x84F JUMPI DUP1 PUSH4 0x4CFE51DC EQ PUSH2 0x864 JUMPI DUP1 PUSH4 0x4D4BB197 EQ PUSH2 0x879 JUMPI DUP1 PUSH4 0x4FB3CCC5 EQ PUSH2 0x88E JUMPI DUP1 PUSH4 0x5141EEBB EQ PUSH2 0x8A1 JUMPI DUP1 PUSH4 0x53A66132 EQ PUSH2 0x8AA JUMPI DUP1 PUSH4 0x5A569099 EQ PUSH2 0x8CD JUMPI DUP1 PUSH4 0x5BF6B4FB EQ PUSH2 0x8E0 JUMPI DUP1 PUSH4 0x629B9142 EQ PUSH2 0x8F5 JUMPI DUP1 PUSH4 0x633F228C EQ PUSH2 0x908 JUMPI DUP1 PUSH4 0x652DA324 EQ PUSH2 0x91B JUMPI DUP1 PUSH4 0x65CB6765 EQ PUSH2 0x930 JUMPI DUP1 PUSH4 0x6853920E EQ PUSH2 0x943 JUMPI JUMPDEST PUSH1 0x0 DUP1 REVERT JUMPDEST PUSH1 0x11 SLOAD PUSH2 0x4E0 SWAP1 PUSH1 0x1 PUSH1 0x1 PUSH1 0xA0 SHL SUB AND DUP2 JUMP JUMPDEST PUSH1 0x40 MLOAD PUSH2 0x4ED SWAP2 SWAP1 PUSH2 0x526E JUMP JUMPDEST PUSH1 0x40 MLOAD DUP1 SWAP2 SUB SWAP1 RETURN JUMPDEST PUSH2 0x4FE PUSH2 0xD61 JUMP JUMPDEST PUSH1 0x40 MLOAD PUSH2 0x4ED SWAP2 SWAP1 PUSH2 0x5282 JUMP JUMPDEST PUSH2 0x51E PUSH2 0x519 CALLDATASIZE PUSH1 0x4 PUSH2 0x52B2 JUMP JUMPDEST PUSH2 0xD70 JUMP JUMPDEST PUSH1 0x40 MLOAD PUSH2 0x4ED SWAP2 SWAP1 PUSH2 0x52DB JUMP JUMPDEST PUSH2 0x4FE PUSH1 0x0 DUP1 MLOAD PUSH1 0x20 PUSH2 0x6180 DUP4 CODECOPY DUP2 MLOAD SWAP2 MSTORE DUP2 JUMP JUMPDEST PUSH2 0x4FE PUSH2 0x54E CALLDATASIZE PUSH1 0x4 PUSH2 0x541E JUMP JUMPDEST PUSH2 0xDA7 JUMP JUMPDEST PUSH2 0x55B PUSH2 0xDE4 JUMP JUMPDEST PUSH1 0x40 MLOAD PUSH2 0x4ED SWAP2 SWAP1 PUSH2 0x5508 JUMP JUMPDEST PUSH2 0x4FE PUSH2 0x576 CALLDATASIZE PUSH1 0x4 PUSH2 0x5519 JUMP JUMPDEST PUSH2 0xE72 JUMP JUMPDEST PUSH2 0x4FE PUSH1 0xA SLOAD DUP2 JUMP JUMPDEST PUSH2 0x4FE PUSH1 0x13 SLOAD DUP2 JUMP JUMPDEST PUSH2 0x51E PUSH2 0x59B CALLDATASIZE PUSH1 0x4 PUSH2 0x553A JUMP JUMPDEST PUSH2 0xE7F JUMP JUMPDEST PUSH2 0x4FE PUSH2 0x5AE CALLDATASIZE PUSH1 0x4 PUSH2 0x5519 JUMP JUMPDEST PUSH2 0xE93 JUMP JUMPDEST PUSH2 0x4FE PUSH1 0x0 DUP1 MLOAD PUSH1 0x20 PUSH2 0x61A0 DUP4 CODECOPY DUP2 MLOAD SWAP2 MSTORE DUP2 JUMP JUMPDEST PUSH2 0x5DB PUSH2 0x5D6 CALLDATASIZE PUSH1 0x4 PUSH2 0x5577 JUMP JUMPDEST PUSH2 0xEA0 JUMP JUMPDEST STOP JUMPDEST PUSH2 0x4FE PUSH32 0x0 DUP2 JUMP JUMPDEST PUSH2 0x4FE PUSH2 0xEC7 JUMP JUMPDEST PUSH2 0x5DB PUSH2 0x61A CALLDATASIZE PUSH1 0x4 PUSH2 0x5577 JUMP JUMPDEST PUSH2 0xED1 JUMP JUMPDEST PUSH2 0x51E PUSH2 0x62D CALLDATASIZE PUSH1 0x4 PUSH2 0x5598 JUMP JUMPDEST PUSH2 0xEF2 JUMP JUMPDEST PUSH2 0x4FE PUSH2 0x640 CALLDATASIZE PUSH1 0x4 PUSH2 0x5519 JUMP JUMPDEST PUSH2 0xF43 JUMP JUMPDEST PUSH2 0x4FE PUSH1 0x14 SLOAD DUP2 JUMP JUMPDEST PUSH2 0x5DB PUSH2 0x65C CALLDATASIZE PUSH1 0x4 PUSH2 0x5577 JUMP JUMPDEST PUSH2 0xF58 JUMP JUMPDEST PUSH2 0x4E0 PUSH32 0x0 DUP2 JUMP JUMPDEST PUSH2 0x4FE PUSH32 0x0 DUP2 JUMP JUMPDEST PUSH2 0x5DB PUSH2 0x6BD CALLDATASIZE PUSH1 0x4 PUSH2 0x55E8 JUMP JUMPDEST PUSH2 0xFFC JUMP JUMPDEST PUSH32 0x0 PUSH1 0x40 MLOAD PUSH2 0x4ED SWAP2 SWAP1 PUSH2 0x5624 JUMP JUMPDEST PUSH2 0x4FE PUSH2 0x6FE CALLDATASIZE PUSH1 0x4 PUSH2 0x5632 JUMP JUMPDEST PUSH2 0x101D JUMP JUMPDEST PUSH2 0x4FE PUSH1 0x18 SLOAD DUP2 JUMP JUMPDEST PUSH2 0x5DB PUSH2 0x71A CALLDATASIZE PUSH1 0x4 PUSH2 0x55E8 JUMP JUMPDEST PUSH2 0x106B JUMP JUMPDEST PUSH2 0x4FE PUSH5 0xE8D4A51000 DUP2 JUMP JUMPDEST PUSH32 0x0 PUSH2 0x4E0 JUMP JUMPDEST PUSH2 0x51E PUSH2 0x75F CALLDATASIZE PUSH1 0x4 PUSH2 0x553A JUMP JUMPDEST PUSH2 0x10A6 JUMP JUMPDEST PUSH2 0x79B PUSH2 0x772 CALLDATASIZE PUSH1 0x4 PUSH2 0x5577 JUMP JUMPDEST PUSH1 0x2 PUSH1 0x20 DUP2 SWAP1 MSTORE PUSH1 0x0 SWAP2 DUP3 MSTORE PUSH1 0x40 SWAP1 SWAP2 KECCAK256 DUP1 SLOAD PUSH1 0x1 DUP3 ADD SLOAD SWAP3 DUP3 ADD SLOAD PUSH1 0x3 SWAP1 SWAP3 ADD SLOAD SWAP1 SWAP3 SWAP2 SWAP1 DUP5 JUMP JUMPDEST PUSH1 0x40 MLOAD PUSH2 0x4ED SWAP5 SWAP4 SWAP3 SWAP2 SWAP1 PUSH2 0x5692 JUMP JUMPDEST PUSH2 0x4FE PUSH1 0x9 SLOAD DUP2 JUMP JUMPDEST PUSH2 0x4FE PUSH1 0xA DUP2 JUMP JUMPDEST PUSH2 0x4FE PUSH2 0x7CA CALLDATASIZE PUSH1 0x4 PUSH2 0x5577 JUMP JUMPDEST PUSH2 0x10B3 JUMP JUMPDEST PUSH2 0x5DB PUSH2 0x7DD CALLDATASIZE PUSH1 0x4 PUSH2 0x553A JUMP JUMPDEST PUSH2 0x10BE JUMP JUMPDEST PUSH2 0x4FE PUSH2 0x7F0 CALLDATASIZE PUSH1 0x4 PUSH2 0x553A JUMP JUMPDEST PUSH2 0x132F JUMP JUMPDEST PUSH2 0x81C PUSH32 0x0 DUP2 JUMP JUMPDEST PUSH1 0x40 MLOAD PUSH2 0x4ED SWAP2 SWAP1 PUSH2 0x56FF JUMP JUMPDEST PUSH2 0x5DB PUSH2 0x837 CALLDATASIZE PUSH1 0x4 PUSH2 0x5577 JUMP JUMPDEST PUSH2 0x136D JUMP JUMPDEST PUSH2 0x5DB PUSH2 0x84A CALLDATASIZE PUSH1 0x4 PUSH2 0x5577 JUMP JUMPDEST PUSH2 0x13D0 JUMP JUMPDEST PUSH2 0x4FE PUSH1 0x0 DUP1 MLOAD PUSH1 0x20 PUSH2 0x6420 DUP4 CODECOPY DUP2 MLOAD SWAP2 MSTORE DUP2 JUMP JUMPDEST PUSH2 0x4FE PUSH1 0x0 DUP1 MLOAD PUSH1 0x20 PUSH2 0x6220 DUP4 CODECOPY DUP2 MLOAD SWAP2 MSTORE DUP2 JUMP JUMPDEST PUSH2 0x4FE PUSH1 0x0 DUP1 MLOAD PUSH1 0x20 PUSH2 0x6320 DUP4 CODECOPY DUP2 MLOAD SWAP2 MSTORE DUP2 JUMP JUMPDEST PUSH1 0xC SLOAD PUSH2 0x4E0 SWAP1 PUSH1 0x1 PUSH1 0x1 PUSH1 0xA0 SHL SUB AND DUP2 JUMP JUMPDEST PUSH2 0x4FE PUSH1 0x15 SLOAD DUP2 JUMP JUMPDEST PUSH2 0x51E PUSH2 0x8B8 CALLDATASIZE PUSH1 0x4 PUSH2 0x5519 JUMP JUMPDEST PUSH1 0x10 PUSH1 0x20 MSTORE PUSH1 0x0 SWAP1 DUP2 MSTORE PUSH1 0x40 SWAP1 KECCAK256 SLOAD PUSH1 0xFF AND DUP2 JUMP JUMPDEST PUSH2 0x4FE PUSH2 0x8DB CALLDATASIZE PUSH1 0x4 PUSH2 0x553A JUMP JUMPDEST PUSH2 0x1433 JUMP JUMPDEST PUSH2 0x4FE PUSH1 0x0 DUP1 MLOAD PUSH1 0x20 PUSH2 0x6200 DUP4 CODECOPY DUP2 MLOAD SWAP2 MSTORE DUP2 JUMP JUMPDEST PUSH2 0x5DB PUSH2 0x903 CALLDATASIZE PUSH1 0x4 PUSH2 0x5577 JUMP JUMPDEST PUSH2 0x1479 JUMP JUMPDEST PUSH2 0x5DB PUSH2 0x916 CALLDATASIZE PUSH1 0x4 PUSH2 0x5757 JUMP JUMPDEST PUSH2 0x14B4 JUMP JUMPDEST PUSH2 0x4FE PUSH1 0x0 DUP1 MLOAD PUSH1 0x20 PUSH2 0x6160 DUP4 CODECOPY DUP2 MLOAD SWAP2 MSTORE DUP2 JUMP JUMPDEST PUSH2 0x4FE PUSH2 0x93E CALLDATASIZE PUSH1 0x4 PUSH2 0x5632 JUMP JUMPDEST PUSH2 0x1599 JUMP JUMPDEST PUSH2 0x5DB PUSH2 0x951 CALLDATASIZE PUSH1 0x4 PUSH2 0x553A JUMP JUMPDEST PUSH2 0x15A6 JUMP JUMPDEST PUSH2 0x5DB PUSH2 0x160E JUMP JUMPDEST PUSH2 0x4FE PUSH2 0x96C CALLDATASIZE PUSH1 0x4 PUSH2 0x55E8 JUMP JUMPDEST PUSH2 0x1683 JUMP JUMPDEST PUSH2 0x4FE PUSH2 0x97F CALLDATASIZE PUSH1 0x4 PUSH2 0x5577 JUMP JUMPDEST PUSH2 0x16A3 JUMP JUMPDEST PUSH2 0x55B PUSH1 0x40 MLOAD DUP1 PUSH1 0x40 ADD PUSH1 0x40 MSTORE DUP1 PUSH1 0x5 DUP2 MSTORE PUSH1 0x20 ADD PUSH5 0x332E302E31 PUSH1 0xD8 SHL DUP2 MSTORE POP DUP2 JUMP JUMPDEST PUSH2 0x4FE PUSH2 0x9B6 CALLDATASIZE PUSH1 0x4 PUSH2 0x5577 JUMP JUMPDEST PUSH1 0x17 PUSH1 0x20 MSTORE PUSH1 0x0 SWAP1 DUP2 MSTORE PUSH1 0x40 SWAP1 KECCAK256 SLOAD DUP2 JUMP JUMPDEST PUSH2 0x5DB PUSH2 0x9D6 CALLDATASIZE PUSH1 0x4 PUSH2 0x5519 JUMP JUMPDEST PUSH2 0x16FC JUMP JUMPDEST PUSH2 0x4FE PUSH1 0x16 SLOAD DUP2 JUMP JUMPDEST PUSH1 0xE SLOAD PUSH2 0x4E0 SWAP1 PUSH1 0x1 PUSH1 0x1 PUSH1 0xA0 SHL SUB AND DUP2 JUMP JUMPDEST PUSH2 0x51E PUSH2 0xA05 CALLDATASIZE PUSH1 0x4 PUSH2 0x55E8 JUMP JUMPDEST PUSH2 0x1755 JUMP JUMPDEST PUSH2 0x4FE PUSH2 0xA18 CALLDATASIZE PUSH1 0x4 PUSH2 0x55E8 JUMP JUMPDEST PUSH2 0x177E JUMP JUMPDEST PUSH2 0x55B PUSH2 0x1793 JUMP JUMPDEST PUSH2 0xA48 PUSH2 0xA33 CALLDATASIZE PUSH1 0x4 PUSH2 0x5577 JUMP JUMPDEST PUSH1 0xF PUSH1 0x20 MSTORE PUSH1 0x0 SWAP1 DUP2 MSTORE PUSH1 0x40 SWAP1 KECCAK256 SLOAD PUSH1 0xFF AND DUP2 JUMP JUMPDEST PUSH1 0x40 MLOAD PUSH2 0x4ED SWAP2 SWAP1 PUSH2 0x57E2 JUMP JUMPDEST PUSH2 0x4FE PUSH2 0x17A0 JUMP JUMPDEST PUSH2 0x5DB PUSH2 0xA6B CALLDATASIZE PUSH1 0x4 PUSH2 0x5803 JUMP JUMPDEST PUSH2 0x17D7 JUMP JUMPDEST PUSH1 0xD SLOAD PUSH2 0x4E0 SWAP1 PUSH1 0x1 PUSH1 0x1 PUSH1 0xA0 SHL SUB AND DUP2 JUMP JUMPDEST PUSH2 0x4FE PUSH1 0x0 DUP1 MLOAD PUSH1 0x20 PUSH2 0x6360 DUP4 CODECOPY DUP2 MLOAD SWAP2 MSTORE DUP2 JUMP JUMPDEST PUSH2 0x4FE PUSH1 0x0 DUP2 JUMP JUMPDEST PUSH2 0x51E PUSH2 0xAAE CALLDATASIZE PUSH1 0x4 PUSH2 0x553A JUMP JUMPDEST PUSH2 0x182D JUMP JUMPDEST PUSH2 0x5DB PUSH2 0xAC1 CALLDATASIZE PUSH1 0x4 PUSH2 0x553A JUMP JUMPDEST PUSH2 0x183A JUMP JUMPDEST PUSH2 0x51E PUSH2 0xAD4 CALLDATASIZE PUSH1 0x4 PUSH2 0x553A JUMP JUMPDEST PUSH2 0x185C JUMP JUMPDEST PUSH2 0x4FE PUSH1 0x0 DUP1 MLOAD PUSH1 0x20 PUSH2 0x6400 DUP4 CODECOPY DUP2 MLOAD SWAP2 MSTORE DUP2 JUMP JUMPDEST PUSH2 0x4FE PUSH1 0x0 DUP1 MLOAD PUSH1 0x20 PUSH2 0x6380 DUP4 CODECOPY DUP2 MLOAD SWAP2 MSTORE DUP2 JUMP JUMPDEST PUSH1 0x12 SLOAD PUSH2 0x4E0 SWAP1 PUSH1 0x1 PUSH1 0x1 PUSH1 0xA0 SHL SUB AND DUP2 JUMP JUMPDEST PUSH2 0x4FE PUSH2 0xB24 CALLDATASIZE PUSH1 0x4 PUSH2 0x5519 JUMP JUMPDEST PUSH2 0x18AE JUMP JUMPDEST PUSH2 0xB3C PUSH2 0xB37 CALLDATASIZE PUSH1 0x4 PUSH2 0x5577 JUMP JUMPDEST PUSH2 0x18BB JUMP JUMPDEST PUSH1 0x40 MLOAD PUSH2 0x4ED SWAP3 SWAP2 SWAP1 PUSH2 0x5824 JUMP JUMPDEST PUSH2 0x5DB PUSH2 0xB58 CALLDATASIZE PUSH1 0x4 PUSH2 0x5577 JUMP JUMPDEST PUSH2 0x18FA JUMP JUMPDEST PUSH1 0x4 SLOAD PUSH2 0x51E SWAP1 PUSH1 0xFF AND DUP2 JUMP JUMPDEST PUSH2 0x5DB PUSH2 0xB78 CALLDATASIZE PUSH1 0x4 PUSH2 0x5519 JUMP JUMPDEST PUSH2 0x191D JUMP JUMPDEST PUSH2 0x4FE PUSH1 0x0 DUP1 MLOAD PUSH1 0x20 PUSH2 0x6280 DUP4 CODECOPY DUP2 MLOAD SWAP2 MSTORE DUP2 JUMP JUMPDEST PUSH2 0x4FE PUSH32 0x8B73C3C69BB8FE3D512ECC4CF759CC79239F7B179B0FFACAA9A75D522B39400F DUP2 JUMP JUMPDEST PUSH2 0x4FE PUSH2 0xBC7 CALLDATASIZE PUSH1 0x4 PUSH2 0x5577 JUMP JUMPDEST PUSH2 0x19B1 JUMP JUMPDEST PUSH2 0x4FE PUSH2 0xBDA CALLDATASIZE PUSH1 0x4 PUSH2 0x5519 JUMP JUMPDEST PUSH2 0x19CA JUMP JUMPDEST PUSH2 0x4FE PUSH1 0x0 DUP1 MLOAD PUSH1 0x20 PUSH2 0x6140 DUP4 CODECOPY DUP2 MLOAD SWAP2 MSTORE DUP2 JUMP JUMPDEST PUSH2 0x4FE PUSH1 0x8 SLOAD DUP2 JUMP JUMPDEST PUSH2 0x5DB PUSH2 0xC0B CALLDATASIZE PUSH1 0x4 PUSH2 0x5519 JUMP JUMPDEST PUSH2 0x19D7 JUMP JUMPDEST PUSH2 0x4FE PUSH1 0x0 DUP1 MLOAD PUSH1 0x20 PUSH2 0x63A0 DUP4 CODECOPY DUP2 MLOAD SWAP2 MSTORE DUP2 JUMP JUMPDEST PUSH2 0x51E PUSH2 0xC33 CALLDATASIZE PUSH1 0x4 PUSH2 0x5853 JUMP JUMPDEST PUSH2 0x1A37 JUMP JUMPDEST PUSH2 0x5DB PUSH2 0xC46 CALLDATASIZE PUSH1 0x4 PUSH2 0x5519 JUMP JUMPDEST PUSH2 0x1A56 JUMP JUMPDEST PUSH2 0x5DB PUSH2 0xC59 CALLDATASIZE PUSH1 0x4 PUSH2 0x55E8 JUMP JUMPDEST PUSH2 0x1A8C JUMP JUMPDEST PUSH2 0x4FE PUSH2 0xC6C CALLDATASIZE PUSH1 0x4 PUSH2 0x541E JUMP JUMPDEST PUSH2 0x1AA8 JUMP JUMPDEST PUSH2 0x4FE PUSH2 0x1ADC JUMP JUMPDEST PUSH2 0x4FE PUSH2 0xC87 CALLDATASIZE PUSH1 0x4 PUSH2 0x58F2 JUMP JUMPDEST PUSH1 0x1 PUSH1 0x1 PUSH1 0xA0 SHL SUB SWAP2 DUP3 AND PUSH1 0x0 SWAP1 DUP2 MSTORE PUSH1 0x6 PUSH1 0x20 SWAP1 DUP2 MSTORE PUSH1 0x40 DUP1 DUP4 KECCAK256 SWAP4 SWAP1 SWAP5 AND DUP3 MSTORE SWAP2 SWAP1 SWAP2 MSTORE KECCAK256 SLOAD SWAP1 JUMP JUMPDEST PUSH2 0x5DB PUSH2 0xCC0 CALLDATASIZE PUSH1 0x4 PUSH2 0x5519 JUMP JUMPDEST PUSH2 0x1AE6 JUMP JUMPDEST PUSH2 0x5DB PUSH2 0x1BA0 JUMP JUMPDEST PUSH2 0x4FE PUSH1 0xB SLOAD DUP2 JUMP JUMPDEST PUSH2 0x4FE PUSH1 0x0 DUP1 MLOAD PUSH1 0x20 PUSH2 0x62C0 DUP4 CODECOPY DUP2 MLOAD SWAP2 MSTORE DUP2 JUMP JUMPDEST PUSH2 0x4FE PUSH1 0x0 DUP1 MLOAD PUSH1 0x20 PUSH2 0x62A0 DUP4 CODECOPY DUP2 MLOAD SWAP2 MSTORE DUP2 JUMP JUMPDEST PUSH2 0x5DB PUSH2 0xD0E CALLDATASIZE PUSH1 0x4 PUSH2 0x553A JUMP JUMPDEST PUSH2 0x1CA4 JUMP JUMPDEST PUSH2 0x4FE PUSH1 0x7 SLOAD DUP2 JUMP JUMPDEST PUSH1 0x12 SLOAD PUSH2 0x51E SWAP1 PUSH1 0x1 PUSH1 0xA0 SHL SWAP1 DIV PUSH1 0xFF AND DUP2 JUMP JUMPDEST PUSH2 0x4FE PUSH2 0x2710 DUP2 JUMP JUMPDEST PUSH2 0x4FE PUSH1 0x0 DUP1 MLOAD PUSH1 0x20 PUSH2 0x61E0 DUP4 CODECOPY DUP2 MLOAD SWAP2 MSTORE DUP2 JUMP JUMPDEST PUSH2 0x4E0 PUSH2 0xD5C CALLDATASIZE PUSH1 0x4 PUSH2 0x5519 JUMP JUMPDEST PUSH2 0x1D51 JUMP JUMPDEST PUSH1 0x0 PUSH2 0xD6B PUSH2 0x1D7B JUMP JUMPDEST SWAP1 POP SWAP1 JUMP JUMPDEST PUSH1 0x0 PUSH1 0x1 PUSH1 0x1 PUSH1 0xE0 SHL SUB NOT DUP3 AND PUSH4 0x7965DB0B PUSH1 0xE0 SHL EQ DUP1 PUSH2 0xDA1 JUMPI POP PUSH4 0x1FFC9A7 PUSH1 0xE0 SHL PUSH1 0x1 PUSH1 0x1 PUSH1 0xE0 SHL SUB NOT DUP4 AND EQ JUMPDEST SWAP3 SWAP2 POP POP JUMP JUMPDEST PUSH1 0x0 PUSH2 0xDB1 PUSH2 0x1D8D JUMP JUMPDEST PUSH1 0x0 PUSH2 0xDBE DUP8 PUSH1 0x0 PUSH2 0x1DB6 JUMP JUMPDEST SWAP1 POP PUSH2 0xDCF CALLER DUP8 DUP8 DUP5 DUP12 DUP10 DUP10 PUSH2 0x1E4C JUMP JUMPDEST SWAP2 POP POP PUSH2 0xDDB PUSH1 0x1 DUP1 SSTORE JUMP JUMPDEST SWAP6 SWAP5 POP POP POP POP POP JUMP JUMPDEST PUSH1 0x19 DUP1 SLOAD PUSH2 0xDF1 SWAP1 PUSH2 0x592A JUMP JUMPDEST DUP1 PUSH1 0x1F ADD PUSH1 0x20 DUP1 SWAP2 DIV MUL PUSH1 0x20 ADD PUSH1 0x40 MLOAD SWAP1 DUP2 ADD PUSH1 0x40 MSTORE DUP1 SWAP3 SWAP2 SWAP1 DUP2 DUP2 MSTORE PUSH1 0x20 ADD DUP3 DUP1 SLOAD PUSH2 0xE1D SWAP1 PUSH2 0x592A JUMP JUMPDEST DUP1 ISZERO PUSH2 0xE6A JUMPI DUP1 PUSH1 0x1F LT PUSH2 0xE3F JUMPI PUSH2 0x100 DUP1 DUP4 SLOAD DIV MUL DUP4 MSTORE SWAP2 PUSH1 0x20 ADD SWAP2 PUSH2 0xE6A JUMP JUMPDEST DUP3 ADD SWAP2 SWAP1 PUSH1 0x0 MSTORE PUSH1 0x20 PUSH1 0x0 KECCAK256 SWAP1 JUMPDEST DUP2 SLOAD DUP2 MSTORE SWAP1 PUSH1 0x1 ADD SWAP1 PUSH1 0x20 ADD DUP1 DUP4 GT PUSH2 0xE4D JUMPI DUP3 SWAP1 SUB PUSH1 0x1F AND DUP3 ADD SWAP2 JUMPDEST POP POP POP POP POP DUP2 JUMP JUMPDEST PUSH1 0x0 PUSH2 0xDA1 DUP3 PUSH1 0x0 PUSH2 0x1DB6 JUMP JUMPDEST PUSH1 0x0 PUSH2 0xE8C CALLER DUP5 DUP5 PUSH2 0x1EE9 JUMP JUMPDEST SWAP4 SWAP3 POP POP POP JUMP JUMPDEST PUSH1 0x0 PUSH2 0xDA1 DUP3 PUSH1 0x1 PUSH2 0x1F81 JUMP JUMPDEST PUSH1 0x0 DUP1 MLOAD PUSH1 0x20 PUSH2 0x6200 DUP4 CODECOPY DUP2 MLOAD SWAP2 MSTORE PUSH2 0xEB8 DUP2 PUSH2 0x202F JUMP JUMPDEST PUSH2 0xEC3 DUP3 PUSH1 0x1 PUSH2 0x203C JUMP JUMPDEST POP POP JUMP JUMPDEST PUSH1 0x0 PUSH2 0xD6B PUSH2 0x225C JUMP JUMPDEST PUSH1 0x0 DUP1 MLOAD PUSH1 0x20 PUSH2 0x6280 DUP4 CODECOPY DUP2 MLOAD SWAP2 MSTORE PUSH2 0xEE9 DUP2 PUSH2 0x202F JUMP JUMPDEST PUSH2 0xEC3 DUP3 PUSH2 0x2273 JUMP JUMPDEST PUSH1 0x0 PUSH1 0x1 PUSH1 0x1 PUSH1 0xA0 SHL SUB DUP4 AND ADDRESS EQ DUP1 PUSH2 0xF12 JUMPI POP PUSH1 0x1 PUSH1 0x1 PUSH1 0xA0 SHL SUB DUP4 AND ISZERO JUMPDEST ISZERO PUSH2 0xF30 JUMPI PUSH1 0x40 MLOAD PUSH4 0xD92E233D PUSH1 0xE0 SHL DUP2 MSTORE PUSH1 0x4 ADD PUSH1 0x40 MLOAD DUP1 SWAP2 SUB SWAP1 REVERT JUMPDEST PUSH2 0xF3B DUP5 DUP5 DUP5 PUSH2 0x2479 JUMP JUMPDEST SWAP5 SWAP4 POP POP POP POP JUMP JUMPDEST PUSH1 0x0 SWAP1 DUP2 MSTORE PUSH1 0x20 DUP2 SWAP1 MSTORE PUSH1 0x40 SWAP1 KECCAK256 PUSH1 0x1 ADD SLOAD SWAP1 JUMP JUMPDEST PUSH1 0x0 DUP1 MLOAD PUSH1 0x20 PUSH2 0x6400 DUP4 CODECOPY DUP2 MLOAD SWAP2 MSTORE PUSH2 0xF70 DUP2 PUSH2 0x202F JUMP JUMPDEST PUSH1 0x12 SLOAD PUSH1 0x1 PUSH1 0xA0 SHL SWAP1 DIV PUSH1 0xFF AND ISZERO ISZERO PUSH1 0x1 SUB PUSH2 0xF9F JUMPI PUSH1 0x40 MLOAD PUSH4 0xF3C3867 PUSH1 0xE0 SHL DUP2 MSTORE PUSH1 0x4 ADD PUSH1 0x40 MLOAD DUP1 SWAP2 SUB SWAP1 REVERT JUMPDEST PUSH1 0x0 NOT PUSH1 0xB SLOAD EQ PUSH2 0xFC3 JUMPI PUSH1 0x40 MLOAD PUSH4 0x4E414185 PUSH1 0xE1 SHL DUP2 MSTORE PUSH1 0x4 ADD PUSH1 0x40 MLOAD DUP1 SWAP2 SUB SWAP1 REVERT JUMPDEST PUSH1 0xD DUP1 SLOAD PUSH1 0x1 PUSH1 0x1 PUSH1 0xA0 SHL SUB NOT AND PUSH1 0x1 PUSH1 0x1 PUSH1 0xA0 SHL SUB DUP5 AND SWAP1 DUP2 OR SWAP1 SWAP2 SSTORE PUSH1 0x40 MLOAD PUSH1 0x0 DUP1 MLOAD PUSH1 0x20 PUSH2 0x61C0 DUP4 CODECOPY DUP2 MLOAD SWAP2 MSTORE SWAP1 PUSH1 0x0 SWAP1 LOG2 POP POP JUMP JUMPDEST PUSH2 0x1005 DUP3 PUSH2 0xF43 JUMP JUMPDEST PUSH2 0x100E DUP2 PUSH2 0x202F JUMP JUMPDEST PUSH2 0x1018 DUP4 DUP4 PUSH2 0x249B JUMP JUMPDEST POP POP POP JUMP JUMPDEST PUSH1 0x0 DUP1 PUSH2 0x102B DUP6 DUP6 DUP6 PUSH2 0x251F JUMP JUMPDEST SWAP1 POP PUSH1 0x0 PUSH2 0x103A DUP3 PUSH1 0x1 PUSH2 0x1F81 JUMP JUMPDEST PUSH1 0x1 PUSH1 0x1 PUSH1 0xA0 SHL SUB DUP8 AND PUSH1 0x0 SWAP1 DUP2 MSTORE PUSH1 0x5 PUSH1 0x20 MSTORE PUSH1 0x40 SWAP1 KECCAK256 SLOAD SWAP1 SWAP2 POP PUSH2 0x1061 SWAP1 DUP3 SWAP1 PUSH2 0x28EA JUMP JUMPDEST SWAP7 SWAP6 POP POP POP POP POP POP JUMP JUMPDEST PUSH1 0x1 PUSH1 0x1 PUSH1 0xA0 SHL SUB DUP2 AND CALLER EQ PUSH2 0x109C JUMPI PUSH1 0x40 MLOAD PUSH3 0x461BCD PUSH1 0xE5 SHL DUP2 MSTORE PUSH1 0x4 ADD PUSH2 0x1093 SWAP1 PUSH2 0x5956 JUMP JUMPDEST PUSH1 0x40 MLOAD DUP1 SWAP2 SUB SWAP1 REVERT JUMPDEST PUSH2 0xEC3 DUP3 DUP3 PUSH2 0x2900 JUMP JUMPDEST PUSH1 0x0 PUSH2 0xE8C CALLER DUP5 DUP5 PUSH2 0x2965 JUMP JUMPDEST PUSH1 0x0 PUSH2 0xDA1 DUP3 PUSH2 0x29B3 JUMP JUMPDEST PUSH1 0x0 DUP1 MLOAD PUSH1 0x20 PUSH2 0x6380 DUP4 CODECOPY DUP2 MLOAD SWAP2 MSTORE PUSH2 0x10D6 DUP2 PUSH2 0x202F JUMP JUMPDEST PUSH2 0x10DE PUSH2 0x1D8D JUMP JUMPDEST PUSH1 0x1 PUSH1 0x1 PUSH1 0xA0 SHL SUB DUP4 AND PUSH1 0x0 SWAP1 DUP2 MSTORE PUSH1 0x2 PUSH1 0x20 MSTORE PUSH1 0x40 DUP2 KECCAK256 SLOAD SWAP1 SUB PUSH2 0x1116 JUMPI PUSH1 0x40 MLOAD PUSH4 0x631BC21 PUSH1 0xE5 SHL DUP2 MSTORE PUSH1 0x4 ADD PUSH1 0x40 MLOAD DUP1 SWAP2 SUB SWAP1 REVERT JUMPDEST PUSH1 0x1 PUSH1 0x1 PUSH1 0xA0 SHL SUB DUP4 AND PUSH1 0x0 SWAP1 DUP2 MSTORE PUSH1 0x2 PUSH1 0x20 DUP2 SWAP1 MSTORE PUSH1 0x40 SWAP1 SWAP2 KECCAK256 ADD SLOAD DUP1 ISZERO DUP1 PUSH2 0x113E JUMPI POP DUP3 ISZERO JUMPDEST ISZERO PUSH2 0x115C JUMPI PUSH1 0x40 MLOAD PUSH4 0x7C946ED7 PUSH1 0xE0 SHL DUP2 MSTORE PUSH1 0x4 ADD PUSH1 0x40 MLOAD DUP1 SWAP2 SUB SWAP1 REVERT JUMPDEST DUP1 DUP4 GT ISZERO PUSH2 0x1168 JUMPI DUP1 SWAP3 POP JUMPDEST PUSH1 0x0 DUP2 DUP5 DUP7 PUSH1 0x1 PUSH1 0x1 PUSH1 0xA0 SHL SUB AND PUSH4 0x70A08231 ADDRESS PUSH1 0x40 MLOAD DUP3 PUSH4 0xFFFFFFFF AND PUSH1 0xE0 SHL DUP2 MSTORE PUSH1 0x4 ADD PUSH2 0x1198 SWAP2 SWAP1 PUSH2 0x526E JUMP JUMPDEST PUSH1 0x20 PUSH1 0x40 MLOAD DUP1 DUP4 SUB DUP2 DUP7 GAS STATICCALL ISZERO DUP1 ISZERO PUSH2 0x11B5 JUMPI RETURNDATASIZE PUSH1 0x0 DUP1 RETURNDATACOPY RETURNDATASIZE PUSH1 0x0 REVERT JUMPDEST POP POP POP POP PUSH1 0x40 MLOAD RETURNDATASIZE PUSH1 0x1F NOT PUSH1 0x1F DUP3 ADD AND DUP3 ADD DUP1 PUSH1 0x40 MSTORE POP DUP2 ADD SWAP1 PUSH2 0x11D9 SWAP2 SWAP1 PUSH2 0x59B4 JUMP JUMPDEST PUSH2 0x11E3 SWAP2 SWAP1 PUSH2 0x59EB JUMP JUMPDEST PUSH2 0x11ED SWAP2 SWAP1 PUSH2 0x5A20 JUMP JUMPDEST SWAP1 POP PUSH1 0x0 DUP2 GT PUSH2 0x1210 JUMPI PUSH1 0x40 MLOAD PUSH4 0x7C946ED7 PUSH1 0xE0 SHL DUP2 MSTORE PUSH1 0x4 ADD PUSH1 0x40 MLOAD DUP1 SWAP2 SUB SWAP1 REVERT JUMPDEST PUSH2 0x123C PUSH32 0x0 CALLER ADDRESS DUP8 PUSH2 0x2A8B JUMP JUMPDEST PUSH1 0x1 PUSH1 0x1 PUSH1 0xA0 SHL SUB DUP6 AND PUSH1 0x0 SWAP1 DUP2 MSTORE PUSH1 0x2 PUSH1 0x20 DUP2 SWAP1 MSTORE PUSH1 0x40 DUP3 KECCAK256 ADD DUP1 SLOAD DUP7 SWAP3 SWAP1 PUSH2 0x1267 SWAP1 DUP5 SWAP1 PUSH2 0x5A34 JUMP JUMPDEST SWAP3 POP POP DUP2 SWAP1 SSTORE POP DUP4 PUSH1 0x8 PUSH1 0x0 DUP3 DUP3 SLOAD PUSH2 0x1280 SWAP2 SWAP1 PUSH2 0x5A34 JUMP JUMPDEST SWAP3 POP POP DUP2 SWAP1 SSTORE POP DUP4 PUSH1 0x9 PUSH1 0x0 DUP3 DUP3 SLOAD PUSH2 0x1299 SWAP2 SWAP1 PUSH2 0x5A47 JUMP JUMPDEST SWAP1 SWAP2 SSTORE POP POP PUSH1 0x1 PUSH1 0x1 PUSH1 0xA0 SHL SUB DUP6 AND PUSH1 0x0 DUP1 MLOAD PUSH1 0x20 PUSH2 0x63E0 DUP4 CODECOPY DUP2 MLOAD SWAP2 MSTORE DUP4 PUSH2 0x12C2 DUP8 DUP3 PUSH2 0x5A34 JUMP JUMPDEST PUSH1 0x40 MLOAD PUSH2 0x12D0 SWAP3 SWAP2 SWAP1 PUSH2 0x5824 JUMP JUMPDEST PUSH1 0x40 MLOAD DUP1 SWAP2 SUB SWAP1 LOG2 PUSH2 0x12E3 DUP6 CALLER DUP4 PUSH2 0x2B6D JUMP JUMPDEST DUP5 PUSH1 0x1 PUSH1 0x1 PUSH1 0xA0 SHL SUB AND PUSH32 0xE94E7F88819F66C19B097748CB754149F63B1A176ED425DEE1F1EE933E6D09B0 DUP6 PUSH1 0x40 MLOAD PUSH2 0x131C SWAP2 SWAP1 PUSH2 0x5282 JUMP JUMPDEST PUSH1 0x40 MLOAD DUP1 SWAP2 SUB SWAP1 LOG2 POP POP PUSH2 0x1018 PUSH1 0x1 DUP1 SSTORE JUMP JUMPDEST PUSH1 0x0 PUSH1 0x0 DUP1 MLOAD PUSH1 0x20 PUSH2 0x6140 DUP4 CODECOPY DUP2 MLOAD SWAP2 MSTORE PUSH2 0x1349 DUP2 PUSH2 0x202F JUMP JUMPDEST PUSH2 0x1351 PUSH2 0x1D8D JUMP JUMPDEST PUSH2 0x135B DUP5 DUP5 PUSH2 0x2C35 JUMP JUMPDEST SWAP2 POP PUSH2 0x1366 PUSH1 0x1 DUP1 SSTORE JUMP JUMPDEST POP SWAP3 SWAP2 POP POP JUMP JUMPDEST PUSH1 0x0 DUP1 MLOAD PUSH1 0x20 PUSH2 0x6160 DUP4 CODECOPY DUP2 MLOAD SWAP2 MSTORE PUSH2 0x1385 DUP2 PUSH2 0x202F JUMP JUMPDEST PUSH1 0xC DUP1 SLOAD PUSH1 0x1 PUSH1 0x1 PUSH1 0xA0 SHL SUB NOT AND PUSH1 0x1 PUSH1 0x1 PUSH1 0xA0 SHL SUB DUP5 AND SWAP1 DUP2 OR SWAP1 SWAP2 SSTORE PUSH1 0x40 MLOAD PUSH32 0x28709A2DAB2A5D5E8688E96159011151C51644AB21839A8A45B449634D7C8B2B SWAP1 PUSH1 0x0 SWAP1 LOG2 POP POP JUMP JUMPDEST PUSH1 0x0 DUP1 MLOAD PUSH1 0x20 PUSH2 0x6420 DUP4 CODECOPY DUP2 MLOAD SWAP2 MSTORE PUSH2 0x13E8 DUP2 PUSH2 0x202F JUMP JUMPDEST PUSH1 0xE DUP1 SLOAD PUSH1 0x1 PUSH1 0x1 PUSH1 0xA0 SHL SUB NOT AND PUSH1 0x1 PUSH1 0x1 PUSH1 0xA0 SHL SUB DUP5 AND SWAP1 DUP2 OR SWAP1 SWAP2 SSTORE PUSH1 0x40 MLOAD PUSH32 0xCE6E3F8BEDA82A13C441D76EFD4A6335760F219F38C60502E6680060874E109D SWAP1 PUSH1 0x0 SWAP1 LOG2 POP POP JUMP JUMPDEST PUSH1 0x1 PUSH1 0x1 PUSH1 0xA0 SHL SUB DUP3 AND PUSH1 0x0 SWAP1 DUP2 MSTORE PUSH1 0x2 PUSH1 0x20 DUP2 SWAP1 MSTORE PUSH1 0x40 DUP3 KECCAK256 ADD SLOAD DUP3 GT ISZERO PUSH2 0x146F JUMPI PUSH1 0x40 MLOAD PUSH4 0x37DEAE07 PUSH1 0xE0 SHL DUP2 MSTORE PUSH1 0x4 ADD PUSH1 0x40 MLOAD DUP1 SWAP2 SUB SWAP1 REVERT JUMPDEST PUSH2 0xE8C DUP4 DUP4 PUSH2 0x3361 JUMP JUMPDEST PUSH1 0x0 DUP1 MLOAD PUSH1 0x20 PUSH2 0x62A0 DUP4 CODECOPY DUP2 MLOAD SWAP2 MSTORE PUSH2 0x1491 DUP2 PUSH2 0x202F JUMP JUMPDEST POP PUSH1 0x12 DUP1 SLOAD PUSH1 0x1 PUSH1 0x1 PUSH1 0xA0 SHL SUB NOT AND PUSH1 0x1 PUSH1 0x1 PUSH1 0xA0 SHL SUB SWAP3 SWAP1 SWAP3 AND SWAP2 SWAP1 SWAP2 OR SWAP1 SSTORE JUMP JUMPDEST PUSH1 0x0 DUP1 MLOAD PUSH1 0x20 PUSH2 0x6220 DUP4 CODECOPY DUP2 MLOAD SWAP2 MSTORE PUSH2 0x14CC DUP2 PUSH2 0x202F JUMP JUMPDEST PUSH1 0x0 JUMPDEST DUP3 DUP2 LT ISZERO PUSH2 0x154D JUMPI PUSH1 0x0 DUP5 DUP5 DUP4 DUP2 DUP2 LT PUSH2 0x14EB JUMPI PUSH2 0x14EB PUSH2 0x5A5A JUMP JUMPDEST SWAP1 POP PUSH1 0x20 MUL ADD PUSH1 0x20 DUP2 ADD SWAP1 PUSH2 0x1500 SWAP2 SWAP1 PUSH2 0x5577 JUMP JUMPDEST PUSH1 0x1 PUSH1 0x1 PUSH1 0xA0 SHL SUB DUP2 AND PUSH1 0x0 SWAP1 DUP2 MSTORE PUSH1 0x2 PUSH1 0x20 MSTORE PUSH1 0x40 DUP2 KECCAK256 SLOAD SWAP2 SWAP3 POP SUB PUSH2 0x153A JUMPI PUSH1 0x40 MLOAD PUSH4 0x631BC21 PUSH1 0xE5 SHL DUP2 MSTORE PUSH1 0x4 ADD PUSH1 0x40 MLOAD DUP1 SWAP2 SUB SWAP1 REVERT JUMPDEST POP DUP1 PUSH2 0x1545 DUP2 PUSH2 0x5A70 JUMP JUMPDEST SWAP2 POP POP PUSH2 0x14CF JUMP JUMPDEST POP PUSH2 0x155A PUSH1 0x3 DUP5 DUP5 PUSH2 0x5129 JUMP JUMPDEST POP PUSH32 0xBC0CB8C5CCEE13E6A2FD26A699F57AD7FF6E454E6AAE97EC41CD2EB9EBD63A5 DUP4 DUP4 PUSH1 0x40 MLOAD PUSH2 0x158C SWAP3 SWAP2 SWAP1 PUSH2 0x5AF5 JUMP JUMPDEST PUSH1 0x40 MLOAD DUP1 SWAP2 SUB SWAP1 LOG1 POP POP POP JUMP JUMPDEST PUSH1 0x0 PUSH2 0xF3B DUP5 DUP5 DUP5 PUSH2 0x251F JUMP JUMPDEST PUSH1 0x0 DUP1 MLOAD PUSH1 0x20 PUSH2 0x62A0 DUP4 CODECOPY DUP2 MLOAD SWAP2 MSTORE PUSH2 0x15BE DUP2 PUSH2 0x202F JUMP JUMPDEST PUSH2 0x15C8 DUP3 DUP5 PUSH2 0x2900 JUMP JUMPDEST DUP3 PUSH1 0x1 PUSH1 0x1 PUSH1 0xA0 SHL SUB AND PUSH32 0x1395522074BE2925CC0FE997DC4FE5D15A507C2A971E00C315E5A2E08C9B0E50 DUP4 PUSH1 0x40 MLOAD PUSH2 0x1601 SWAP2 SWAP1 PUSH2 0x5282 JUMP JUMPDEST PUSH1 0x40 MLOAD DUP1 SWAP2 SUB SWAP1 LOG2 POP POP POP JUMP JUMPDEST PUSH1 0x12 SLOAD PUSH1 0x1 PUSH1 0x1 PUSH1 0xA0 SHL SUB AND CALLER EQ PUSH2 0x1639 JUMPI PUSH1 0x40 MLOAD PUSH4 0x967642D9 PUSH1 0xE0 SHL DUP2 MSTORE PUSH1 0x4 ADD PUSH1 0x40 MLOAD DUP1 SWAP2 SUB SWAP1 REVERT JUMPDEST PUSH1 0x11 DUP1 SLOAD CALLER PUSH1 0x1 PUSH1 0x1 PUSH1 0xA0 SHL SUB NOT SWAP2 DUP3 AND DUP2 OR SWAP1 SWAP3 SSTORE PUSH1 0x12 DUP1 SLOAD SWAP1 SWAP2 AND SWAP1 SSTORE PUSH1 0x40 MLOAD PUSH32 0xCE93BAA0B608A7D420822B6B90CFCCCB70574363BA4FD26EF5AC17DD465016C4 SWAP1 PUSH1 0x0 SWAP1 LOG2 JUMP JUMPDEST PUSH1 0x0 PUSH2 0x168D PUSH2 0x1D8D JUMP JUMPDEST PUSH2 0x1698 CALLER DUP4 DUP6 PUSH2 0x34B9 JUMP JUMPDEST SWAP1 POP PUSH2 0xDA1 PUSH1 0x1 DUP1 SSTORE JUMP JUMPDEST PUSH1 0x0 ADDRESS PUSH1 0x1 PUSH1 0x1 PUSH1 0xA0 SHL SUB DUP4 AND SUB PUSH2 0x16E0 JUMPI PUSH2 0x16BD PUSH2 0x3611 JUMP JUMPDEST PUSH1 0x1 PUSH1 0x1 PUSH1 0xA0 SHL SUB DUP4 AND PUSH1 0x0 SWAP1 DUP2 MSTORE PUSH1 0x5 PUSH1 0x20 MSTORE PUSH1 0x40 SWAP1 KECCAK256 SLOAD PUSH2 0xDA1 SWAP2 SWAP1 PUSH2 0x5A34 JUMP JUMPDEST POP PUSH1 0x1 PUSH1 0x1 PUSH1 0xA0 SHL SUB AND PUSH1 0x0 SWAP1 DUP2 MSTORE PUSH1 0x5 PUSH1 0x20 MSTORE PUSH1 0x40 SWAP1 KECCAK256 SLOAD SWAP1 JUMP JUMPDEST PUSH1 0x0 DUP1 MLOAD PUSH1 0x20 PUSH2 0x61A0 DUP4 CODECOPY DUP2 MLOAD SWAP2 MSTORE PUSH2 0x1714 DUP2 PUSH2 0x202F JUMP JUMPDEST PUSH1 0xA DUP3 SWAP1 SSTORE PUSH1 0x40 MLOAD PUSH32 0x1A4494BEED88920B88742CC58F2744E198F55FF192635A1FBABC6BE8FFADE81 SWAP1 PUSH2 0x1749 SWAP1 DUP5 SWAP1 PUSH2 0x5282 JUMP JUMPDEST PUSH1 0x40 MLOAD DUP1 SWAP2 SUB SWAP1 LOG1 POP POP JUMP JUMPDEST PUSH1 0x0 SWAP2 DUP3 MSTORE PUSH1 0x20 DUP3 DUP2 MSTORE PUSH1 0x40 DUP1 DUP5 KECCAK256 PUSH1 0x1 PUSH1 0x1 PUSH1 0xA0 SHL SUB SWAP4 SWAP1 SWAP4 AND DUP5 MSTORE SWAP2 SWAP1 MSTORE SWAP1 KECCAK256 SLOAD PUSH1 0xFF AND SWAP1 JUMP JUMPDEST PUSH1 0x0 PUSH2 0x1788 PUSH2 0x1D8D JUMP JUMPDEST PUSH2 0x1698 CALLER DUP4 DUP6 PUSH2 0x366F JUMP JUMPDEST PUSH1 0x1A DUP1 SLOAD PUSH2 0xDF1 SWAP1 PUSH2 0x592A JUMP JUMPDEST PUSH1 0x0 PUSH2 0xD6B PUSH2 0x17D0 PUSH32 0x0 PUSH1 0xA PUSH2 0x5C15 JUMP JUMPDEST PUSH1 0x0 PUSH2 0x1DB6 JUMP JUMPDEST PUSH1 0x0 DUP1 MLOAD PUSH1 0x20 PUSH2 0x6220 DUP4 CODECOPY DUP2 MLOAD SWAP2 MSTORE PUSH2 0x17EF DUP2 PUSH2 0x202F JUMP JUMPDEST PUSH1 0x4 DUP1 SLOAD PUSH1 0xFF NOT AND DUP4 ISZERO ISZERO OR SWAP1 SSTORE PUSH1 0x40 MLOAD PUSH32 0x1F88E73EBC721F227812938FE07A069EC1F7136AAFACB397ED460BD15DEE13F1 SWAP1 PUSH2 0x1749 SWAP1 DUP5 SWAP1 PUSH2 0x52DB JUMP JUMPDEST PUSH1 0x0 PUSH2 0xE8C CALLER DUP5 DUP5 PUSH2 0x37C2 JUMP JUMPDEST PUSH1 0x0 DUP1 MLOAD PUSH1 0x20 PUSH2 0x62A0 DUP4 CODECOPY DUP2 MLOAD SWAP2 MSTORE PUSH2 0x1852 DUP2 PUSH2 0x202F JUMP JUMPDEST PUSH2 0x15C8 DUP3 DUP5 PUSH2 0x249B JUMP JUMPDEST PUSH1 0x0 PUSH1 0x1 PUSH1 0x1 PUSH1 0xA0 SHL SUB DUP4 AND ADDRESS EQ DUP1 PUSH2 0x187C JUMPI POP PUSH1 0x1 PUSH1 0x1 PUSH1 0xA0 SHL SUB DUP4 AND ISZERO JUMPDEST ISZERO PUSH2 0x189A JUMPI PUSH1 0x40 MLOAD PUSH4 0xD92E233D PUSH1 0xE0 SHL DUP2 MSTORE PUSH1 0x4 ADD PUSH1 0x40 MLOAD DUP1 SWAP2 SUB SWAP1 REVERT JUMPDEST PUSH2 0x18A5 CALLER DUP5 DUP5 PUSH2 0x37F7 JUMP JUMPDEST POP PUSH1 0x1 SWAP3 SWAP2 POP POP JUMP JUMPDEST PUSH1 0x0 PUSH2 0xDA1 DUP3 PUSH1 0x1 PUSH2 0x1DB6 JUMP JUMPDEST PUSH1 0x0 DUP1 PUSH1 0x0 DUP1 MLOAD PUSH1 0x20 PUSH2 0x6180 DUP4 CODECOPY DUP2 MLOAD SWAP2 MSTORE PUSH2 0x18D6 DUP2 PUSH2 0x202F JUMP JUMPDEST PUSH2 0x18DE PUSH2 0x1D8D JUMP JUMPDEST PUSH2 0x18E7 DUP5 PUSH2 0x38F4 JUMP JUMPDEST SWAP3 POP SWAP3 POP PUSH2 0x18F4 PUSH1 0x1 DUP1 SSTORE JUMP JUMPDEST POP SWAP2 POP SWAP2 JUMP JUMPDEST PUSH1 0x0 DUP1 MLOAD PUSH1 0x20 PUSH2 0x6360 DUP4 CODECOPY DUP2 MLOAD SWAP2 MSTORE PUSH2 0x1912 DUP2 PUSH2 0x202F JUMP JUMPDEST PUSH2 0xEC3 DUP3 PUSH1 0x0 PUSH2 0x203C JUMP JUMPDEST PUSH1 0x0 DUP1 MLOAD PUSH1 0x20 PUSH2 0x6400 DUP4 CODECOPY DUP2 MLOAD SWAP2 MSTORE PUSH2 0x1935 DUP2 PUSH2 0x202F JUMP JUMPDEST PUSH1 0x12 SLOAD PUSH1 0x1 PUSH1 0xA0 SHL SWAP1 DIV PUSH1 0xFF AND ISZERO ISZERO PUSH1 0x1 SUB PUSH2 0x1964 JUMPI PUSH1 0x40 MLOAD PUSH4 0xF3C3867 PUSH1 0xE0 SHL DUP2 MSTORE PUSH1 0x4 ADD PUSH1 0x40 MLOAD DUP1 SWAP2 SUB SWAP1 REVERT JUMPDEST PUSH1 0xD SLOAD PUSH1 0x1 PUSH1 0x1 PUSH1 0xA0 SHL SUB AND ISZERO PUSH2 0x198E JUMPI PUSH1 0x40 MLOAD PUSH4 0x64B99911 PUSH1 0xE1 SHL DUP2 MSTORE PUSH1 0x4 ADD PUSH1 0x40 MLOAD DUP1 SWAP2 SUB SWAP1 REVERT JUMPDEST PUSH1 0xB DUP3 SWAP1 SSTORE PUSH1 0x40 MLOAD PUSH1 0x0 DUP1 MLOAD PUSH1 0x20 PUSH2 0x6260 DUP4 CODECOPY DUP2 MLOAD SWAP2 MSTORE SWAP1 PUSH2 0x1749 SWAP1 DUP5 SWAP1 PUSH2 0x5282 JUMP JUMPDEST PUSH1 0x0 DUP1 PUSH2 0x19BD DUP4 PUSH2 0x29B3 JUMP JUMPDEST SWAP1 POP PUSH2 0xE8C DUP2 PUSH1 0x0 PUSH2 0x1F81 JUMP JUMPDEST PUSH1 0x0 PUSH2 0xDA1 DUP3 PUSH1 0x0 PUSH2 0x1F81 JUMP JUMPDEST PUSH1 0x0 DUP1 MLOAD PUSH1 0x20 PUSH2 0x62A0 DUP4 CODECOPY DUP2 MLOAD SWAP2 MSTORE PUSH2 0x19EF DUP2 PUSH2 0x202F JUMP JUMPDEST PUSH1 0x0 DUP3 DUP2 MSTORE PUSH1 0x10 PUSH1 0x20 MSTORE PUSH1 0x40 SWAP1 KECCAK256 DUP1 SLOAD PUSH1 0xFF NOT AND SWAP1 SSTORE PUSH1 0x1 JUMPDEST PUSH1 0x40 MLOAD DUP4 SWAP1 PUSH32 0x9F6D8CEB5FE3A6380949B0777BD5802511579B6FBBC87194C108A91D372F9527 SWAP1 PUSH1 0x0 SWAP1 LOG3 POP POP JUMP JUMPDEST PUSH1 0x0 PUSH2 0x1A48 DUP9 DUP9 DUP9 DUP9 DUP9 DUP9 DUP9 PUSH2 0x3A18 JUMP JUMPDEST SWAP1 POP JUMPDEST SWAP8 SWAP7 POP POP POP POP POP POP POP JUMP JUMPDEST PUSH1 0x0 DUP1 MLOAD PUSH1 0x20 PUSH2 0x62A0 DUP4 CODECOPY DUP2 MLOAD SWAP2 MSTORE PUSH2 0x1A6E DUP2 PUSH2 0x202F JUMP JUMPDEST PUSH1 0x0 DUP3 DUP2 MSTORE PUSH1 0x10 PUSH1 0x20 MSTORE PUSH1 0x40 DUP2 KECCAK256 DUP1 SLOAD PUSH1 0xFF NOT AND PUSH1 0x1 OR SWAP1 SSTORE PUSH2 0x1A08 JUMP JUMPDEST PUSH2 0x1A95 DUP3 PUSH2 0xF43 JUMP JUMPDEST PUSH2 0x1A9E DUP2 PUSH2 0x202F JUMP JUMPDEST PUSH2 0x1018 DUP4 DUP4 PUSH2 0x2900 JUMP JUMPDEST PUSH1 0x0 PUSH2 0x1AB2 PUSH2 0x1D8D JUMP JUMPDEST PUSH1 0x0 PUSH2 0x1ABF DUP8 PUSH1 0x1 PUSH2 0x1F81 JUMP JUMPDEST SWAP1 POP PUSH2 0x1AD0 CALLER DUP8 DUP8 DUP11 DUP6 DUP10 DUP10 PUSH2 0x1E4C JUMP JUMPDEST POP SWAP1 POP PUSH2 0xDDB PUSH1 0x1 DUP1 SSTORE JUMP JUMPDEST PUSH1 0x0 PUSH2 0xD6B PUSH2 0x3611 JUMP JUMPDEST PUSH1 0x0 DUP1 MLOAD PUSH1 0x20 PUSH2 0x63A0 DUP4 CODECOPY DUP2 MLOAD SWAP2 MSTORE PUSH2 0x1AFE DUP2 PUSH2 0x202F JUMP JUMPDEST PUSH32 0x0 DUP3 GT ISZERO PUSH2 0x1B3F JUMPI PUSH1 0x40 MLOAD PUSH4 0xFDFBB0B7 PUSH1 0xE0 SHL DUP2 MSTORE PUSH1 0x4 ADD PUSH1 0x40 MLOAD DUP1 SWAP2 SUB SWAP1 REVERT JUMPDEST DUP2 PUSH1 0x0 SUB PUSH2 0x1B6B JUMPI ADDRESS PUSH1 0x0 DUP2 DUP2 MSTORE PUSH1 0x5 PUSH1 0x20 MSTORE PUSH1 0x40 SWAP1 KECCAK256 SLOAD PUSH2 0x1B60 SWAP2 PUSH2 0x3C08 JUMP JUMPDEST PUSH1 0x0 PUSH1 0x15 DUP2 SWAP1 SSTORE PUSH1 0x14 SSTORE JUMPDEST PUSH1 0x13 DUP3 SWAP1 SSTORE PUSH1 0x40 MLOAD PUSH32 0xF361AED463DA6FA20358E45C6209F1D3E16D4ECA706E6EAB0B0AEB338729C77A SWAP1 PUSH2 0x1749 SWAP1 DUP5 SWAP1 PUSH2 0x5282 JUMP JUMPDEST PUSH1 0x0 DUP1 MLOAD PUSH1 0x20 PUSH2 0x61E0 DUP4 CODECOPY DUP2 MLOAD SWAP2 MSTORE PUSH2 0x1BB8 DUP2 PUSH2 0x202F JUMP JUMPDEST PUSH1 0x12 SLOAD PUSH1 0x1 PUSH1 0xA0 SHL SWAP1 DIV PUSH1 0xFF AND ISZERO ISZERO PUSH1 0x1 SUB PUSH2 0x1BE7 JUMPI PUSH1 0x40 MLOAD PUSH4 0x631BC21 PUSH1 0xE5 SHL DUP2 MSTORE PUSH1 0x4 ADD PUSH1 0x40 MLOAD DUP1 SWAP2 SUB SWAP1 REVERT JUMPDEST PUSH1 0x12 DUP1 SLOAD PUSH1 0xFF PUSH1 0xA0 SHL NOT AND PUSH1 0x1 PUSH1 0xA0 SHL OR SWAP1 SSTORE PUSH1 0xD SLOAD PUSH1 0x1 PUSH1 0x1 PUSH1 0xA0 SHL SUB AND ISZERO PUSH2 0x1C35 JUMPI PUSH1 0xD DUP1 SLOAD PUSH1 0x1 PUSH1 0x1 PUSH1 0xA0 SHL SUB NOT AND SWAP1 SSTORE PUSH1 0x40 MLOAD PUSH1 0x0 SWAP1 PUSH1 0x0 DUP1 MLOAD PUSH1 0x20 PUSH2 0x61C0 DUP4 CODECOPY DUP2 MLOAD SWAP2 MSTORE SWAP1 DUP3 SWAP1 LOG2 JUMPDEST PUSH1 0x0 PUSH1 0xB DUP2 SWAP1 SSTORE PUSH1 0x40 MLOAD PUSH1 0x0 DUP1 MLOAD PUSH1 0x20 PUSH2 0x6260 DUP4 CODECOPY DUP2 MLOAD SWAP2 MSTORE SWAP2 PUSH2 0x1C58 SWAP2 PUSH2 0x5C39 JUMP JUMPDEST PUSH1 0x40 MLOAD DUP1 SWAP2 SUB SWAP1 LOG1 PUSH2 0x1C78 CALLER PUSH1 0x0 DUP1 MLOAD PUSH1 0x20 PUSH2 0x6140 DUP4 CODECOPY DUP2 MLOAD SWAP2 MSTORE PUSH2 0x183A JUMP JUMPDEST PUSH1 0x40 MLOAD PUSH32 0x4426AA1FB73E391071491FCFE21A88B5C38A0A0333A1F6E77161470439704CF8 SWAP1 PUSH1 0x0 SWAP1 LOG1 POP JUMP JUMPDEST PUSH1 0x0 DUP1 MLOAD PUSH1 0x20 PUSH2 0x62C0 DUP4 CODECOPY DUP2 MLOAD SWAP2 MSTORE PUSH2 0x1CBC DUP2 PUSH2 0x202F JUMP JUMPDEST PUSH1 0x1 PUSH1 0x1 PUSH1 0xA0 SHL SUB DUP4 AND PUSH1 0x0 SWAP1 DUP2 MSTORE PUSH1 0x2 PUSH1 0x20 MSTORE PUSH1 0x40 DUP2 KECCAK256 SLOAD SWAP1 SUB PUSH2 0x1CF4 JUMPI PUSH1 0x40 MLOAD PUSH4 0x631BC21 PUSH1 0xE5 SHL DUP2 MSTORE PUSH1 0x4 ADD PUSH1 0x40 MLOAD DUP1 SWAP2 SUB SWAP1 REVERT JUMPDEST PUSH1 0x1 PUSH1 0x1 PUSH1 0xA0 SHL SUB DUP4 AND PUSH1 0x0 DUP2 DUP2 MSTORE PUSH1 0x2 PUSH1 0x20 MSTORE PUSH1 0x40 SWAP1 DUP2 SWAP1 KECCAK256 PUSH1 0x3 ADD DUP5 SWAP1 SSTORE MLOAD CALLER SWAP1 PUSH32 0xB3EEF2123FEC1523A6BBC90ACEB203000154C1A4974335FE06B544C7534D4B89 SWAP1 PUSH2 0x1D44 SWAP1 DUP7 SWAP1 PUSH2 0x5282 JUMP JUMPDEST PUSH1 0x40 MLOAD DUP1 SWAP2 SUB SWAP1 LOG3 POP POP POP JUMP JUMPDEST PUSH1 0x3 DUP2 DUP2 SLOAD DUP2 LT PUSH2 0x1D61 JUMPI PUSH1 0x0 DUP1 REVERT JUMPDEST PUSH1 0x0 SWAP2 DUP3 MSTORE PUSH1 0x20 SWAP1 SWAP2 KECCAK256 ADD SLOAD PUSH1 0x1 PUSH1 0x1 PUSH1 0xA0 SHL SUB AND SWAP1 POP DUP2 JUMP JUMPDEST PUSH1 0x0 PUSH1 0x8 SLOAD PUSH1 0x9 SLOAD PUSH2 0xD6B SWAP2 SWAP1 PUSH2 0x5A47 JUMP JUMPDEST PUSH1 0x2 PUSH1 0x1 SLOAD SUB PUSH2 0x1DAF JUMPI PUSH1 0x40 MLOAD PUSH3 0x461BCD PUSH1 0xE5 SHL DUP2 MSTORE PUSH1 0x4 ADD PUSH2 0x1093 SWAP1 PUSH2 0x5C7E JUMP JUMPDEST PUSH1 0x2 PUSH1 0x1 SSTORE JUMP JUMPDEST PUSH1 0x0 PUSH1 0x0 NOT DUP4 EQ DUP1 PUSH2 0x1DC6 JUMPI POP DUP3 ISZERO JUMPDEST ISZERO PUSH2 0x1DD2 JUMPI POP DUP2 PUSH2 0xDA1 JUMP JUMPDEST PUSH1 0x0 PUSH2 0x1DDC PUSH2 0x225C JUMP JUMPDEST SWAP1 POP DUP1 PUSH1 0x0 SUB PUSH2 0x1DEF JUMPI DUP4 SWAP2 POP POP PUSH2 0xDA1 JUMP JUMPDEST PUSH1 0x0 PUSH2 0x1DF9 PUSH2 0x1D7B JUMP JUMPDEST PUSH2 0x1E03 SWAP1 DUP7 PUSH2 0x59EB JUMP JUMPDEST SWAP1 POP PUSH1 0x0 PUSH2 0x1E11 DUP4 DUP4 PUSH2 0x5A20 JUMP JUMPDEST SWAP1 POP PUSH1 0x1 DUP6 PUSH1 0x1 DUP2 GT ISZERO PUSH2 0x1E27 JUMPI PUSH2 0x1E27 PUSH2 0x579E JUMP JUMPDEST EQ DUP1 ISZERO PUSH2 0x1E3C JUMPI POP PUSH2 0x1E39 DUP4 DUP4 PUSH2 0x5C8E JUMP JUMPDEST ISZERO ISZERO JUMPDEST ISZERO PUSH2 0xDDB JUMPI PUSH2 0x1061 PUSH1 0x1 DUP3 PUSH2 0x5A47 JUMP JUMPDEST PUSH1 0x0 PUSH2 0x1E5A DUP8 DUP8 DUP7 DUP7 PUSH2 0x3CBF JUMP JUMPDEST PUSH2 0x1E65 DUP7 DUP10 DUP7 PUSH2 0x3D63 JUMP JUMPDEST PUSH1 0x0 DUP1 PUSH2 0x1E72 DUP8 DUP6 PUSH2 0x3D87 JUMP JUMPDEST SWAP2 POP SWAP2 POP PUSH2 0x1E85 DUP10 DUP10 DUP9 DUP11 DUP7 DUP7 DUP12 PUSH2 0x43DB JUMP JUMPDEST DUP8 PUSH1 0x1 PUSH1 0x1 PUSH1 0xA0 SHL SUB AND DUP10 PUSH1 0x1 PUSH1 0x1 PUSH1 0xA0 SHL SUB AND DUP12 PUSH1 0x1 PUSH1 0x1 PUSH1 0xA0 SHL SUB AND PUSH32 0xFBDE797D201C681B91056529119E0B02407C7BB96A4A2C75C01FC9667232C8DB DUP6 DUP11 PUSH1 0x40 MLOAD PUSH2 0x1ED4 SWAP3 SWAP2 SWAP1 PUSH2 0x5824 JUMP JUMPDEST PUSH1 0x40 MLOAD DUP1 SWAP2 SUB SWAP1 LOG4 POP SWAP9 SWAP8 POP POP POP POP POP POP POP POP JUMP JUMPDEST PUSH1 0x0 PUSH1 0x1 PUSH1 0x1 PUSH1 0xA0 SHL SUB DUP5 AND ISZERO DUP1 PUSH2 0x1F08 JUMPI POP PUSH1 0x1 PUSH1 0x1 PUSH1 0xA0 SHL SUB DUP4 AND ISZERO JUMPDEST ISZERO PUSH2 0x1F26 JUMPI PUSH1 0x40 MLOAD PUSH4 0xD92E233D PUSH1 0xE0 SHL DUP2 MSTORE PUSH1 0x4 ADD PUSH1 0x40 MLOAD DUP1 SWAP2 SUB SWAP1 REVERT JUMPDEST PUSH1 0x1 PUSH1 0x1 PUSH1 0xA0 SHL SUB DUP1 DUP6 AND PUSH1 0x0 DUP2 DUP2 MSTORE PUSH1 0x6 PUSH1 0x20 SWAP1 DUP2 MSTORE PUSH1 0x40 DUP1 DUP4 KECCAK256 SWAP5 DUP9 AND DUP1 DUP5 MSTORE SWAP5 SWAP1 SWAP2 MSTORE SWAP1 DUP2 SWAP1 KECCAK256 DUP6 SWAP1 SSTORE MLOAD PUSH1 0x0 DUP1 MLOAD PUSH1 0x20 PUSH2 0x6340 DUP4 CODECOPY DUP2 MLOAD SWAP2 MSTORE SWAP1 PUSH2 0x1F6F SWAP1 DUP7 SWAP1 PUSH2 0x5282 JUMP JUMPDEST PUSH1 0x40 MLOAD DUP1 SWAP2 SUB SWAP1 LOG3 POP PUSH1 0x1 SWAP4 SWAP3 POP POP POP JUMP JUMPDEST PUSH1 0x0 PUSH1 0x0 NOT DUP4 EQ DUP1 PUSH2 0x1F91 JUMPI POP DUP3 ISZERO JUMPDEST ISZERO PUSH2 0x1F9D JUMPI POP DUP2 PUSH2 0xDA1 JUMP JUMPDEST PUSH1 0x0 PUSH2 0x1FA7 PUSH2 0x225C JUMP JUMPDEST SWAP1 POP PUSH1 0x0 PUSH2 0x1FB3 PUSH2 0x1D7B JUMP JUMPDEST SWAP1 POP DUP1 PUSH1 0x0 SUB PUSH2 0x1FDA JUMPI DUP2 PUSH1 0x0 SUB PUSH2 0x1FCF JUMPI DUP5 SWAP3 POP POP POP PUSH2 0xDA1 JUMP JUMPDEST PUSH1 0x0 SWAP3 POP POP POP PUSH2 0xDA1 JUMP JUMPDEST PUSH1 0x0 PUSH2 0x1FE6 DUP4 DUP8 PUSH2 0x59EB JUMP JUMPDEST SWAP1 POP PUSH1 0x0 PUSH2 0x1FF4 DUP4 DUP4 PUSH2 0x5A20 JUMP JUMPDEST SWAP1 POP PUSH1 0x1 DUP7 PUSH1 0x1 DUP2 GT ISZERO PUSH2 0x200A JUMPI PUSH2 0x200A PUSH2 0x579E JUMP JUMPDEST EQ DUP1 ISZERO PUSH2 0x201F JUMPI POP PUSH2 0x201C DUP4 DUP4 PUSH2 0x5C8E JUMP JUMPDEST ISZERO ISZERO JUMPDEST ISZERO PUSH2 0x1061 JUMPI PUSH2 0x1A4B PUSH1 0x1 DUP3 PUSH2 0x5A47 JUMP JUMPDEST PUSH2 0x2039 DUP2 CALLER PUSH2 0x447B JUMP JUMPDEST POP JUMP JUMPDEST PUSH1 0x1 PUSH1 0x1 PUSH1 0xA0 SHL SUB DUP3 AND PUSH1 0x0 SWAP1 DUP2 MSTORE PUSH1 0x2 PUSH1 0x20 MSTORE PUSH1 0x40 DUP2 KECCAK256 SLOAD SWAP1 SUB PUSH2 0x2074 JUMPI PUSH1 0x40 MLOAD PUSH4 0x631BC21 PUSH1 0xE5 SHL DUP2 MSTORE PUSH1 0x4 ADD PUSH1 0x40 MLOAD DUP1 SWAP2 SUB SWAP1 REVERT JUMPDEST PUSH1 0x1 PUSH1 0x1 PUSH1 0xA0 SHL SUB DUP3 AND PUSH1 0x0 SWAP1 DUP2 MSTORE PUSH1 0x2 PUSH1 0x20 DUP2 SWAP1 MSTORE PUSH1 0x40 DUP3 KECCAK256 ADD SLOAD ISZERO DUP1 ISZERO SWAP1 PUSH2 0x209C JUMPI POP DUP2 ISZERO JUMPDEST ISZERO PUSH2 0x20BA JUMPI PUSH1 0x40 MLOAD PUSH4 0x3546382F PUSH1 0xE2 SHL DUP2 MSTORE PUSH1 0x4 ADD PUSH1 0x40 MLOAD DUP1 SWAP2 SUB SWAP1 REVERT JUMPDEST POP PUSH1 0x1 PUSH1 0x1 PUSH1 0xA0 SHL SUB DUP3 AND PUSH1 0x0 SWAP1 DUP2 MSTORE PUSH1 0x2 PUSH1 0x20 DUP2 SWAP1 MSTORE PUSH1 0x40 DUP3 KECCAK256 ADD SLOAD PUSH1 0x8 DUP1 SLOAD SWAP2 SWAP3 DUP4 SWAP3 PUSH2 0x20EA SWAP1 DUP5 SWAP1 PUSH2 0x5A34 JUMP JUMPDEST SWAP3 POP POP DUP2 SWAP1 SSTORE POP DUP3 PUSH1 0x1 PUSH1 0x1 PUSH1 0xA0 SHL SUB AND PUSH1 0x0 DUP1 MLOAD PUSH1 0x20 PUSH2 0x6300 DUP4 CODECOPY DUP2 MLOAD SWAP2 MSTORE PUSH1 0x0 DUP4 PUSH1 0x0 DUP1 PUSH1 0x0 DUP1 PUSH1 0x40 MLOAD PUSH2 0x2125 SWAP7 SWAP6 SWAP5 SWAP4 SWAP3 SWAP2 SWAP1 PUSH2 0x5CA2 JUMP JUMPDEST PUSH1 0x40 MLOAD DUP1 SWAP2 SUB SWAP1 LOG2 PUSH1 0x40 DUP1 MLOAD PUSH1 0x80 DUP2 ADD DUP3 MSTORE PUSH1 0x0 DUP1 DUP3 MSTORE PUSH1 0x20 DUP1 DUP4 ADD DUP3 DUP2 MSTORE DUP4 DUP6 ADD DUP4 DUP2 MSTORE PUSH1 0x60 DUP1 DUP7 ADD DUP6 DUP2 MSTORE PUSH1 0x1 PUSH1 0x1 PUSH1 0xA0 SHL SUB DUP12 AND DUP7 MSTORE PUSH1 0x2 SWAP5 DUP6 SWAP1 MSTORE SWAP7 SWAP1 SWAP5 KECCAK256 SWAP5 MLOAD DUP6 SSTORE SWAP1 MLOAD PUSH1 0x1 DUP6 ADD SSTORE MLOAD SWAP1 DUP4 ADD SSTORE SWAP2 MLOAD PUSH1 0x3 SWAP2 DUP3 ADD SSTORE SLOAD ISZERO PUSH2 0x2212 JUMPI PUSH1 0x0 JUMPDEST PUSH1 0x3 SLOAD DUP2 LT ISZERO PUSH2 0x2210 JUMPI PUSH1 0x0 PUSH1 0x3 DUP3 DUP2 SLOAD DUP2 LT PUSH2 0x21A8 JUMPI PUSH2 0x21A8 PUSH2 0x5A5A JUMP JUMPDEST PUSH1 0x0 SWAP2 DUP3 MSTORE PUSH1 0x20 SWAP1 SWAP2 KECCAK256 ADD SLOAD PUSH1 0x1 PUSH1 0x1 PUSH1 0xA0 SHL SUB SWAP1 DUP2 AND SWAP2 POP DUP7 AND DUP2 EQ PUSH2 0x21FD JUMPI DUP1 DUP4 DUP4 DUP2 MLOAD DUP2 LT PUSH2 0x21DC JUMPI PUSH2 0x21DC PUSH2 0x5A5A JUMP JUMPDEST PUSH1 0x20 MUL PUSH1 0x20 ADD ADD SWAP1 PUSH1 0x1 PUSH1 0x1 PUSH1 0xA0 SHL SUB AND SWAP1 DUP2 PUSH1 0x1 PUSH1 0x1 PUSH1 0xA0 SHL SUB AND DUP2 MSTORE POP POP JUMPDEST POP DUP1 PUSH2 0x2208 DUP2 PUSH2 0x5A70 JUMP JUMPDEST SWAP2 POP POP PUSH2 0x2189 JUMP JUMPDEST POP JUMPDEST DUP1 MLOAD PUSH2 0x2225 SWAP1 PUSH1 0x3 SWAP1 PUSH1 0x20 DUP5 ADD SWAP1 PUSH2 0x518C JUMP JUMPDEST POP DUP4 PUSH1 0x1 PUSH1 0x1 PUSH1 0xA0 SHL SUB AND PUSH1 0x0 DUP1 MLOAD PUSH1 0x20 PUSH2 0x6240 DUP4 CODECOPY DUP2 MLOAD SWAP2 MSTORE PUSH1 0x1 PUSH1 0x40 MLOAD PUSH2 0x224E SWAP2 SWAP1 PUSH2 0x5D1F JUMP JUMPDEST PUSH1 0x40 MLOAD DUP1 SWAP2 SUB SWAP1 LOG2 POP POP POP POP JUMP JUMPDEST PUSH1 0x0 PUSH2 0x2266 PUSH2 0x3611 JUMP JUMPDEST PUSH1 0x7 SLOAD PUSH2 0xD6B SWAP2 SWAP1 PUSH2 0x5A34 JUMP JUMPDEST PUSH1 0x1 PUSH1 0x1 PUSH1 0xA0 SHL SUB DUP2 AND ISZERO DUP1 PUSH2 0x2291 JUMPI POP PUSH1 0x1 PUSH1 0x1 PUSH1 0xA0 SHL SUB DUP2 AND ADDRESS EQ JUMPDEST ISZERO PUSH2 0x22AF JUMPI PUSH1 0x40 MLOAD PUSH4 0xD92E233D PUSH1 0xE0 SHL DUP2 MSTORE PUSH1 0x4 ADD PUSH1 0x40 MLOAD DUP1 SWAP2 SUB SWAP1 REVERT JUMPDEST PUSH32 0x0 PUSH1 0x1 PUSH1 0x1 PUSH1 0xA0 SHL SUB AND DUP2 PUSH1 0x1 PUSH1 0x1 PUSH1 0xA0 SHL SUB AND PUSH4 0x38D52E0F PUSH1 0x40 MLOAD DUP2 PUSH4 0xFFFFFFFF AND PUSH1 0xE0 SHL DUP2 MSTORE PUSH1 0x4 ADD PUSH1 0x20 PUSH1 0x40 MLOAD DUP1 DUP4 SUB DUP2 DUP7 GAS STATICCALL ISZERO DUP1 ISZERO PUSH2 0x2317 JUMPI RETURNDATASIZE PUSH1 0x0 DUP1 RETURNDATACOPY RETURNDATASIZE PUSH1 0x0 REVERT JUMPDEST POP POP POP POP PUSH1 0x40 MLOAD RETURNDATASIZE PUSH1 0x1F NOT PUSH1 0x1F DUP3 ADD AND DUP3 ADD DUP1 PUSH1 0x40 MSTORE POP DUP2 ADD SWAP1 PUSH2 0x233B SWAP2 SWAP1 PUSH2 0x5D38 JUMP JUMPDEST PUSH1 0x1 PUSH1 0x1 PUSH1 0xA0 SHL SUB AND EQ PUSH2 0x2362 JUMPI PUSH1 0x40 MLOAD PUSH4 0x6448D6E9 PUSH1 0xE1 SHL DUP2 MSTORE PUSH1 0x4 ADD PUSH1 0x40 MLOAD DUP1 SWAP2 SUB SWAP1 REVERT JUMPDEST PUSH1 0x1 PUSH1 0x1 PUSH1 0xA0 SHL SUB DUP2 AND PUSH1 0x0 SWAP1 DUP2 MSTORE PUSH1 0x2 PUSH1 0x20 MSTORE PUSH1 0x40 SWAP1 KECCAK256 SLOAD ISZERO PUSH2 0x2399 JUMPI PUSH1 0x40 MLOAD PUSH4 0xC976754D PUSH1 0xE0 SHL DUP2 MSTORE PUSH1 0x4 ADD PUSH1 0x40 MLOAD DUP1 SWAP2 SUB SWAP1 REVERT JUMPDEST PUSH1 0x40 DUP1 MLOAD PUSH1 0x80 DUP2 ADD DUP3 MSTORE TIMESTAMP DUP1 DUP3 MSTORE PUSH1 0x20 DUP1 DUP4 ADD SWAP2 DUP3 MSTORE PUSH1 0x0 DUP4 DUP6 ADD DUP2 DUP2 MSTORE PUSH1 0x60 DUP6 ADD DUP3 DUP2 MSTORE PUSH1 0x1 PUSH1 0x1 PUSH1 0xA0 SHL SUB DUP9 AND DUP4 MSTORE PUSH1 0x2 SWAP4 DUP5 SWAP1 MSTORE SWAP6 SWAP1 SWAP2 KECCAK256 SWAP4 MLOAD DUP5 SSTORE SWAP2 MLOAD PUSH1 0x1 DUP5 ADD SSTORE SWAP1 MLOAD SWAP1 DUP3 ADD SSTORE SWAP1 MLOAD PUSH1 0x3 SWAP2 DUP3 ADD SSTORE SLOAD PUSH1 0xA DUP2 LT ISZERO PUSH2 0x2445 JUMPI DUP2 PUSH1 0x3 DUP3 PUSH2 0x2404 DUP2 PUSH2 0x5A70 JUMP JUMPDEST SWAP4 POP DUP2 SLOAD DUP2 LT PUSH2 0x2416 JUMPI PUSH2 0x2416 PUSH2 0x5A5A JUMP JUMPDEST SWAP1 PUSH1 0x0 MSTORE PUSH1 0x20 PUSH1 0x0 KECCAK256 ADD PUSH1 0x0 PUSH2 0x100 EXP DUP2 SLOAD DUP2 PUSH1 0x1 PUSH1 0x1 PUSH1 0xA0 SHL SUB MUL NOT AND SWAP1 DUP4 PUSH1 0x1 PUSH1 0x1 PUSH1 0xA0 SHL SUB AND MUL OR SWAP1 SSTORE POP JUMPDEST DUP2 PUSH1 0x1 PUSH1 0x1 PUSH1 0xA0 SHL SUB AND PUSH1 0x0 DUP1 MLOAD PUSH1 0x20 PUSH2 0x6240 DUP4 CODECOPY DUP2 MLOAD SWAP2 MSTORE PUSH1 0x0 PUSH1 0x40 MLOAD PUSH2 0x246D SWAP2 SWAP1 PUSH2 0x5D1F JUMP JUMPDEST PUSH1 0x40 MLOAD DUP1 SWAP2 SUB SWAP1 LOG2 POP POP JUMP JUMPDEST PUSH1 0x0 PUSH2 0x2486 DUP5 CALLER DUP5 PUSH2 0x44D4 JUMP JUMPDEST PUSH2 0x2491 DUP5 DUP5 DUP5 PUSH2 0x37F7 JUMP JUMPDEST POP PUSH1 0x1 SWAP4 SWAP3 POP POP POP JUMP JUMPDEST PUSH2 0x24A5 DUP3 DUP3 PUSH2 0x1755 JUMP JUMPDEST PUSH2 0xEC3 JUMPI PUSH1 0x0 DUP3 DUP2 MSTORE PUSH1 0x20 DUP2 DUP2 MSTORE PUSH1 0x40 DUP1 DUP4 KECCAK256 PUSH1 0x1 PUSH1 0x1 PUSH1 0xA0 SHL SUB DUP6 AND DUP5 MSTORE SWAP1 SWAP2 MSTORE SWAP1 KECCAK256 DUP1 SLOAD PUSH1 0xFF NOT AND PUSH1 0x1 OR SWAP1 SSTORE PUSH2 0x24DB CALLER SWAP1 JUMP JUMPDEST PUSH1 0x1 PUSH1 0x1 PUSH1 0xA0 SHL SUB AND DUP2 PUSH1 0x1 PUSH1 0x1 PUSH1 0xA0 SHL SUB AND DUP4 PUSH32 0x2F8788117E7EFF1D82E926EC794901D17C78024A50270940304540A733656F0D PUSH1 0x40 MLOAD PUSH1 0x40 MLOAD DUP1 SWAP2 SUB SWAP1 LOG4 POP POP JUMP JUMPDEST PUSH1 0x1 PUSH1 0x1 PUSH1 0xA0 SHL SUB DUP4 AND PUSH1 0x0 SWAP1 DUP2 MSTORE PUSH1 0x5 PUSH1 0x20 MSTORE PUSH1 0x40 DUP2 KECCAK256 SLOAD DUP2 SWAP1 PUSH2 0x2544 SWAP1 DUP3 PUSH2 0x1DB6 JUMP JUMPDEST PUSH1 0xE SLOAD SWAP1 SWAP2 POP PUSH1 0x1 PUSH1 0x1 PUSH1 0xA0 SHL SUB AND ISZERO PUSH2 0x25E6 JUMPI PUSH1 0xE SLOAD PUSH1 0x40 MLOAD PUSH4 0x2319B8CF PUSH1 0xE0 SHL DUP2 MSTORE PUSH1 0x0 SWAP2 PUSH1 0x1 PUSH1 0x1 PUSH1 0xA0 SHL SUB AND SWAP1 PUSH4 0x2319B8CF SWAP1 PUSH2 0x258D SWAP1 DUP10 SWAP1 DUP10 SWAP1 DUP10 SWAP1 PUSH1 0x4 ADD PUSH2 0x5D97 JUMP JUMPDEST PUSH1 0x20 PUSH1 0x40 MLOAD DUP1 DUP4 SUB DUP2 PUSH1 0x0 DUP8 GAS CALL ISZERO DUP1 ISZERO PUSH2 0x25AC JUMPI RETURNDATASIZE PUSH1 0x0 DUP1 RETURNDATACOPY RETURNDATASIZE PUSH1 0x0 REVERT JUMPDEST POP POP POP POP PUSH1 0x40 MLOAD RETURNDATASIZE PUSH1 0x1F NOT PUSH1 0x1F DUP3 ADD AND DUP3 ADD DUP1 PUSH1 0x40 MSTORE POP DUP2 ADD SWAP1 PUSH2 0x25D0 SWAP2 SWAP1 PUSH2 0x59B4 JUMP JUMPDEST SWAP1 POP DUP2 DUP2 LT ISZERO PUSH2 0x25DE JUMPI DUP1 SWAP2 POP JUMPDEST POP SWAP1 POP PUSH2 0xE8C JUMP JUMPDEST PUSH1 0x9 SLOAD DUP1 DUP3 GT ISZERO PUSH2 0x28E1 JUMPI DUP4 MLOAD DUP2 SWAP1 PUSH1 0x0 SWAP1 DUP2 SWAP1 ISZERO DUP1 ISZERO SWAP1 PUSH2 0x260B JUMPI POP PUSH1 0x4 SLOAD PUSH1 0xFF AND ISZERO JUMPDEST PUSH2 0x266F JUMPI PUSH1 0x3 DUP1 SLOAD DUP1 PUSH1 0x20 MUL PUSH1 0x20 ADD PUSH1 0x40 MLOAD SWAP1 DUP2 ADD PUSH1 0x40 MSTORE DUP1 SWAP3 SWAP2 SWAP1 DUP2 DUP2 MSTORE PUSH1 0x20 ADD DUP3 DUP1 SLOAD DUP1 ISZERO PUSH2 0x2665 JUMPI PUSH1 0x20 MUL DUP3 ADD SWAP2 SWAP1 PUSH1 0x0 MSTORE PUSH1 0x20 PUSH1 0x0 KECCAK256 SWAP1 JUMPDEST DUP2 SLOAD PUSH1 0x1 PUSH1 0x1 PUSH1 0xA0 SHL SUB AND DUP2 MSTORE PUSH1 0x1 SWAP1 SWAP2 ADD SWAP1 PUSH1 0x20 ADD DUP1 DUP4 GT PUSH2 0x2647 JUMPI JUMPDEST POP POP POP POP POP PUSH2 0x2671 JUMP JUMPDEST DUP7 JUMPDEST SWAP1 POP PUSH1 0x0 JUMPDEST DUP2 MLOAD DUP2 LT ISZERO PUSH2 0x28DA JUMPI PUSH1 0x0 DUP3 DUP3 DUP2 MLOAD DUP2 LT PUSH2 0x2693 JUMPI PUSH2 0x2693 PUSH2 0x5A5A JUMP JUMPDEST PUSH1 0x20 MUL PUSH1 0x20 ADD ADD MLOAD SWAP1 POP PUSH1 0x2 PUSH1 0x0 DUP3 PUSH1 0x1 PUSH1 0x1 PUSH1 0xA0 SHL SUB AND PUSH1 0x1 PUSH1 0x1 PUSH1 0xA0 SHL SUB AND DUP2 MSTORE PUSH1 0x20 ADD SWAP1 DUP2 MSTORE PUSH1 0x20 ADD PUSH1 0x0 KECCAK256 PUSH1 0x0 ADD SLOAD PUSH1 0x0 SUB PUSH2 0x26E6 JUMPI PUSH1 0x40 MLOAD PUSH4 0x631BC21 PUSH1 0xE5 SHL DUP2 MSTORE PUSH1 0x4 ADD PUSH1 0x40 MLOAD DUP1 SWAP2 SUB SWAP1 REVERT JUMPDEST PUSH1 0x0 PUSH2 0x2717 PUSH2 0x26F5 DUP8 DUP11 PUSH2 0x5A34 JUMP JUMPDEST PUSH1 0x1 PUSH1 0x1 PUSH1 0xA0 SHL SUB DUP5 AND PUSH1 0x0 SWAP1 DUP2 MSTORE PUSH1 0x2 PUSH1 0x20 DUP2 SWAP1 MSTORE PUSH1 0x40 SWAP1 SWAP2 KECCAK256 ADD SLOAD PUSH2 0x28EA JUMP JUMPDEST SWAP1 POP PUSH1 0x0 PUSH2 0x2725 DUP4 DUP4 PUSH2 0x3361 JUMP JUMPDEST SWAP1 POP PUSH1 0x0 DUP4 PUSH1 0x1 PUSH1 0x1 PUSH1 0xA0 SHL SUB AND PUSH4 0x7A2D13A DUP6 PUSH1 0x1 PUSH1 0x1 PUSH1 0xA0 SHL SUB AND PUSH4 0xD905777E ADDRESS PUSH1 0x40 MLOAD DUP3 PUSH4 0xFFFFFFFF AND PUSH1 0xE0 SHL DUP2 MSTORE PUSH1 0x4 ADD PUSH2 0x2764 SWAP2 SWAP1 PUSH2 0x526E JUMP JUMPDEST PUSH1 0x20 PUSH1 0x40 MLOAD DUP1 DUP4 SUB DUP2 DUP7 GAS STATICCALL ISZERO DUP1 ISZERO PUSH2 0x2781 JUMPI RETURNDATASIZE PUSH1 0x0 DUP1 RETURNDATACOPY RETURNDATASIZE PUSH1 0x0 REVERT JUMPDEST POP POP POP POP PUSH1 0x40 MLOAD RETURNDATASIZE PUSH1 0x1F NOT PUSH1 0x1F DUP3 ADD AND DUP3 ADD DUP1 PUSH1 0x40 MSTORE POP DUP2 ADD SWAP1 PUSH2 0x27A5 SWAP2 SWAP1 PUSH2 0x59B4 JUMP JUMPDEST PUSH1 0x40 MLOAD DUP3 PUSH4 0xFFFFFFFF AND PUSH1 0xE0 SHL DUP2 MSTORE PUSH1 0x4 ADD PUSH2 0x27C1 SWAP2 SWAP1 PUSH2 0x5282 JUMP JUMPDEST PUSH1 0x20 PUSH1 0x40 MLOAD DUP1 DUP4 SUB DUP2 DUP7 GAS STATICCALL ISZERO DUP1 ISZERO PUSH2 0x27DE JUMPI RETURNDATASIZE PUSH1 0x0 DUP1 RETURNDATACOPY RETURNDATASIZE PUSH1 0x0 REVERT JUMPDEST POP POP POP POP PUSH1 0x40 MLOAD RETURNDATASIZE PUSH1 0x1F NOT PUSH1 0x1F DUP3 ADD AND DUP3 ADD DUP1 PUSH1 0x40 MSTORE POP DUP2 ADD SWAP1 PUSH2 0x2802 SWAP2 SWAP1 PUSH2 0x59B4 JUMP JUMPDEST SWAP1 POP PUSH2 0x280E DUP3 DUP5 PUSH2 0x5A34 JUMP JUMPDEST DUP2 LT ISZERO PUSH2 0x2839 JUMPI DUP3 PUSH2 0x2820 DUP3 DUP5 PUSH2 0x59EB JUMP JUMPDEST PUSH2 0x282A SWAP2 SWAP1 PUSH2 0x5A20 JUMP JUMPDEST SWAP2 POP PUSH2 0x2836 DUP3 DUP3 PUSH2 0x5A47 JUMP JUMPDEST SWAP3 POP JUMPDEST DUP3 PUSH1 0x0 SUB PUSH2 0x284A JUMPI POP POP POP POP PUSH2 0x28C8 JUMP JUMPDEST PUSH1 0x0 DUP3 GT DUP1 ISZERO PUSH2 0x285B JUMPI POP PUSH2 0x2710 DUP14 LT JUMPDEST ISZERO PUSH2 0x289B JUMPI PUSH2 0x2710 DUP14 PUSH2 0x286E DUP6 DUP12 PUSH2 0x5A47 JUMP JUMPDEST PUSH2 0x2878 SWAP2 SWAP1 PUSH2 0x59EB JUMP JUMPDEST PUSH2 0x2882 SWAP2 SWAP1 PUSH2 0x5A20 JUMP JUMPDEST PUSH2 0x288C DUP4 DUP10 PUSH2 0x5A47 JUMP JUMPDEST GT ISZERO PUSH2 0x289B JUMPI POP POP POP POP PUSH2 0x28DA JUMP JUMPDEST PUSH2 0x28A5 DUP4 DUP10 PUSH2 0x5A47 JUMP JUMPDEST SWAP8 POP DUP10 DUP9 LT PUSH2 0x28B7 JUMPI POP POP POP POP PUSH2 0x28DA JUMP JUMPDEST PUSH2 0x28C1 DUP3 DUP9 PUSH2 0x5A47 JUMP JUMPDEST SWAP7 POP POP POP POP POP JUMPDEST DUP1 PUSH2 0x28D2 DUP2 PUSH2 0x5A70 JUMP JUMPDEST SWAP2 POP POP PUSH2 0x2676 JUMP JUMPDEST POP SWAP2 SWAP4 POP POP POP JUMPDEST POP SWAP5 SWAP4 POP POP POP POP JUMP JUMPDEST PUSH1 0x0 DUP2 DUP4 LT PUSH2 0x28F9 JUMPI DUP2 PUSH2 0xE8C JUMP JUMPDEST POP SWAP1 SWAP2 SWAP1 POP JUMP JUMPDEST PUSH2 0x290A DUP3 DUP3 PUSH2 0x1755 JUMP JUMPDEST ISZERO PUSH2 0xEC3 JUMPI PUSH1 0x0 DUP3 DUP2 MSTORE PUSH1 0x20 DUP2 DUP2 MSTORE PUSH1 0x40 DUP1 DUP4 KECCAK256 PUSH1 0x1 PUSH1 0x1 PUSH1 0xA0 SHL SUB DUP6 AND DUP1 DUP6 MSTORE SWAP3 MSTORE DUP1 DUP4 KECCAK256 DUP1 SLOAD PUSH1 0xFF NOT AND SWAP1 SSTORE MLOAD CALLER SWAP3 DUP6 SWAP2 PUSH32 0xF6391F5C32D9C69D2A47EA670B442974B53935D1EDC7FD64EB21E047A839171B SWAP2 SWAP1 LOG4 POP POP JUMP JUMPDEST PUSH1 0x1 PUSH1 0x1 PUSH1 0xA0 SHL SUB DUP1 DUP5 AND PUSH1 0x0 SWAP1 DUP2 MSTORE PUSH1 0x6 PUSH1 0x20 SWAP1 DUP2 MSTORE PUSH1 0x40 DUP1 DUP4 KECCAK256 SWAP4 DUP7 AND DUP4 MSTORE SWAP3 SWAP1 MSTORE SWAP1 DUP2 KECCAK256 SLOAD DUP2 SWAP1 PUSH2 0x299A SWAP1 DUP5 SWAP1 PUSH2 0x5A47 JUMP JUMPDEST SWAP1 POP PUSH2 0x29A7 DUP6 DUP6 DUP4 PUSH2 0x1EE9 JUMP JUMPDEST POP PUSH1 0x1 SWAP6 SWAP5 POP POP POP POP POP JUMP JUMPDEST PUSH1 0x0 PUSH1 0x1 PUSH1 0x1 PUSH1 0xA0 SHL SUB DUP3 AND ADDRESS EQ DUP1 PUSH2 0x29D3 JUMPI POP PUSH1 0x1 PUSH1 0x1 PUSH1 0xA0 SHL SUB DUP3 AND ISZERO JUMPDEST ISZERO PUSH2 0x29E0 JUMPI POP PUSH1 0x0 SWAP2 SWAP1 POP JUMP JUMPDEST PUSH1 0xD SLOAD PUSH1 0x1 PUSH1 0x1 PUSH1 0xA0 SHL SUB AND DUP1 ISZERO PUSH2 0x2A5F JUMPI PUSH1 0x40 MLOAD PUSH4 0x23551789 PUSH1 0xE1 SHL DUP2 MSTORE PUSH1 0x1 PUSH1 0x1 PUSH1 0xA0 SHL SUB DUP3 AND SWAP1 PUSH4 0x46AA2F12 SWAP1 PUSH2 0x2A1E SWAP1 DUP7 SWAP1 PUSH1 0x4 ADD PUSH2 0x526E JUMP JUMPDEST PUSH1 0x20 PUSH1 0x40 MLOAD DUP1 DUP4 SUB DUP2 DUP7 GAS STATICCALL ISZERO DUP1 ISZERO PUSH2 0x2A3B JUMPI RETURNDATASIZE PUSH1 0x0 DUP1 RETURNDATACOPY RETURNDATASIZE PUSH1 0x0 REVERT JUMPDEST POP POP POP POP PUSH1 0x40 MLOAD RETURNDATASIZE PUSH1 0x1F NOT PUSH1 0x1F DUP3 ADD AND DUP3 ADD DUP1 PUSH1 0x40 MSTORE POP DUP2 ADD SWAP1 PUSH2 0xE8C SWAP2 SWAP1 PUSH2 0x59B4 JUMP JUMPDEST PUSH1 0x0 PUSH2 0x2A69 PUSH2 0x1D7B JUMP JUMPDEST PUSH1 0xB SLOAD SWAP1 SWAP2 POP DUP1 DUP3 LT PUSH2 0x2A81 JUMPI POP PUSH1 0x0 SWAP5 SWAP4 POP POP POP POP JUMP JUMPDEST PUSH2 0xDDB DUP3 DUP3 PUSH2 0x5A34 JUMP JUMPDEST PUSH1 0x1 PUSH1 0x1 PUSH1 0xA0 SHL SUB DUP5 AND ISZERO DUP1 PUSH2 0x2AA8 JUMPI POP PUSH1 0x1 PUSH1 0x1 PUSH1 0xA0 SHL SUB DUP4 AND ISZERO JUMPDEST DUP1 PUSH2 0x2ABA JUMPI POP PUSH1 0x1 PUSH1 0x1 PUSH1 0xA0 SHL SUB DUP3 AND ISZERO JUMPDEST ISZERO PUSH2 0x2AD8 JUMPI PUSH1 0x40 MLOAD PUSH4 0xD92E233D PUSH1 0xE0 SHL DUP2 MSTORE PUSH1 0x4 ADD PUSH1 0x40 MLOAD DUP1 SWAP2 SUB SWAP1 REVERT JUMPDEST PUSH1 0x40 MLOAD PUSH4 0x23B872DD PUSH1 0xE0 SHL DUP2 MSTORE PUSH1 0x1 PUSH1 0x1 PUSH1 0xA0 SHL SUB DUP6 AND SWAP1 PUSH4 0x23B872DD SWAP1 PUSH2 0x2B08 SWAP1 DUP7 SWAP1 DUP7 SWAP1 DUP7 SWAP1 PUSH1 0x4 ADD PUSH2 0x5DC4 JUMP JUMPDEST PUSH1 0x20 PUSH1 0x40 MLOAD DUP1 DUP4 SUB DUP2 PUSH1 0x0 DUP8 GAS CALL ISZERO DUP1 ISZERO PUSH2 0x2B27 JUMPI RETURNDATASIZE PUSH1 0x0 DUP1 RETURNDATACOPY RETURNDATASIZE PUSH1 0x0 REVERT JUMPDEST POP POP POP POP PUSH1 0x40 MLOAD RETURNDATASIZE PUSH1 0x1F NOT PUSH1 0x1F DUP3 ADD AND DUP3 ADD DUP1 PUSH1 0x40 MSTORE POP DUP2 ADD SWAP1 PUSH2 0x2B4B SWAP2 SWAP1 PUSH2 0x5DF7 JUMP JUMPDEST PUSH2 0x2B67 JUMPI PUSH1 0x40 MLOAD PUSH3 0x461BCD PUSH1 0xE5 SHL DUP2 MSTORE PUSH1 0x4 ADD PUSH2 0x1093 SWAP1 PUSH2 0x5E3E JUMP JUMPDEST POP POP POP POP JUMP JUMPDEST PUSH1 0x1 PUSH1 0x1 PUSH1 0xA0 SHL SUB DUP4 AND ISZERO DUP1 PUSH2 0x2B8A JUMPI POP PUSH1 0x1 PUSH1 0x1 PUSH1 0xA0 SHL SUB DUP3 AND ISZERO JUMPDEST ISZERO PUSH2 0x2BA8 JUMPI PUSH1 0x40 MLOAD PUSH4 0xD92E233D PUSH1 0xE0 SHL DUP2 MSTORE PUSH1 0x4 ADD PUSH1 0x40 MLOAD DUP1 SWAP2 SUB SWAP1 REVERT JUMPDEST PUSH1 0x40 MLOAD PUSH4 0xA9059CBB PUSH1 0xE0 SHL DUP2 MSTORE PUSH1 0x1 PUSH1 0x1 PUSH1 0xA0 SHL SUB DUP5 AND SWAP1 PUSH4 0xA9059CBB SWAP1 PUSH2 0x2BD6 SWAP1 DUP6 SWAP1 DUP6 SWAP1 PUSH1 0x4 ADD PUSH2 0x5E4E JUMP JUMPDEST PUSH1 0x20 PUSH1 0x40 MLOAD DUP1 DUP4 SUB DUP2 PUSH1 0x0 DUP8 GAS CALL ISZERO DUP1 ISZERO PUSH2 0x2BF5 JUMPI RETURNDATASIZE PUSH1 0x0 DUP1 RETURNDATACOPY RETURNDATASIZE PUSH1 0x0 REVERT JUMPDEST POP POP POP POP PUSH1 0x40 MLOAD RETURNDATASIZE PUSH1 0x1F NOT PUSH1 0x1F DUP3 ADD AND DUP3 ADD DUP1 PUSH1 0x40 MSTORE POP DUP2 ADD SWAP1 PUSH2 0x2C19 SWAP2 SWAP1 PUSH2 0x5DF7 JUMP JUMPDEST PUSH2 0x1018 JUMPI PUSH1 0x40 MLOAD PUSH3 0x461BCD PUSH1 0xE5 SHL DUP2 MSTORE PUSH1 0x4 ADD PUSH2 0x1093 SWAP1 PUSH2 0x5E3E JUMP JUMPDEST PUSH1 0x1 PUSH1 0x1 PUSH1 0xA0 SHL SUB DUP3 AND PUSH1 0x0 SWAP1 DUP2 MSTORE PUSH1 0x2 PUSH1 0x20 DUP2 SWAP1 MSTORE PUSH1 0x40 DUP3 KECCAK256 ADD SLOAD PUSH1 0x12 SLOAD DUP4 SWAP2 SWAP1 PUSH1 0x1 PUSH1 0xA0 SHL SWAP1 DIV PUSH1 0xFF AND ISZERO ISZERO PUSH1 0x1 SUB PUSH2 0x2C6F JUMPI PUSH1 0x0 SWAP2 POP JUMPDEST DUP1 DUP3 SUB PUSH2 0x2C8F JUMPI PUSH1 0x40 MLOAD PUSH4 0x84DF06B PUSH1 0xE4 SHL DUP2 MSTORE PUSH1 0x4 ADD PUSH1 0x40 MLOAD DUP1 SWAP2 SUB SWAP1 REVERT JUMPDEST DUP2 DUP2 GT ISZERO PUSH2 0x2FA3 JUMPI PUSH1 0x0 PUSH2 0x2CA3 DUP4 DUP4 PUSH2 0x5A34 JUMP JUMPDEST SWAP1 POP PUSH1 0xA SLOAD DUP2 PUSH1 0x9 SLOAD PUSH2 0x2CB6 SWAP2 SWAP1 PUSH2 0x5A47 JUMP JUMPDEST LT ISZERO PUSH2 0x2CD9 JUMPI PUSH1 0x9 SLOAD PUSH1 0xA SLOAD PUSH2 0x2CCC SWAP2 SWAP1 PUSH2 0x5A34 JUMP JUMPDEST SWAP1 POP DUP2 DUP2 GT ISZERO PUSH2 0x2CD9 JUMPI POP DUP1 JUMPDEST PUSH1 0x40 MLOAD PUSH4 0x6C82BBBF PUSH1 0xE1 SHL DUP2 MSTORE PUSH1 0x0 SWAP1 PUSH1 0x1 PUSH1 0x1 PUSH1 0xA0 SHL SUB DUP9 AND SWAP1 PUSH4 0x7A2D13A SWAP1 DUP3 SWAP1 PUSH4 0xD905777E SWAP1 PUSH2 0x2D10 SWAP1 ADDRESS SWAP1 PUSH1 0x4 ADD PUSH2 0x526E JUMP JUMPDEST PUSH1 0x20 PUSH1 0x40 MLOAD DUP1 DUP4 SUB DUP2 DUP7 GAS STATICCALL ISZERO DUP1 ISZERO PUSH2 0x2D2D JUMPI RETURNDATASIZE PUSH1 0x0 DUP1 RETURNDATACOPY RETURNDATASIZE PUSH1 0x0 REVERT JUMPDEST POP POP POP POP PUSH1 0x40 MLOAD RETURNDATASIZE PUSH1 0x1F NOT PUSH1 0x1F DUP3 ADD AND DUP3 ADD DUP1 PUSH1 0x40 MSTORE POP DUP2 ADD SWAP1 PUSH2 0x2D51 SWAP2 SWAP1 PUSH2 0x59B4 JUMP JUMPDEST PUSH1 0x40 MLOAD DUP3 PUSH4 0xFFFFFFFF AND PUSH1 0xE0 SHL DUP2 MSTORE PUSH1 0x4 ADD PUSH2 0x2D6D SWAP2 SWAP1 PUSH2 0x5282 JUMP JUMPDEST PUSH1 0x20 PUSH1 0x40 MLOAD DUP1 DUP4 SUB DUP2 DUP7 GAS STATICCALL ISZERO DUP1 ISZERO PUSH2 0x2D8A JUMPI RETURNDATASIZE PUSH1 0x0 DUP1 RETURNDATACOPY RETURNDATASIZE PUSH1 0x0 REVERT JUMPDEST POP POP POP POP PUSH1 0x40 MLOAD RETURNDATASIZE PUSH1 0x1F NOT PUSH1 0x1F DUP3 ADD AND DUP3 ADD DUP1 PUSH1 0x40 MSTORE POP DUP2 ADD SWAP1 PUSH2 0x2DAE SWAP2 SWAP1 PUSH2 0x59B4 JUMP JUMPDEST SWAP1 POP PUSH1 0x0 DUP2 GT PUSH2 0x2DD1 JUMPI PUSH1 0x40 MLOAD PUSH4 0x7C946ED7 PUSH1 0xE0 SHL DUP2 MSTORE PUSH1 0x4 ADD PUSH1 0x40 MLOAD DUP1 SWAP2 SUB SWAP1 REVERT JUMPDEST DUP2 DUP2 LT ISZERO PUSH2 0x2DDD JUMPI DUP1 SWAP2 POP JUMPDEST PUSH1 0x0 PUSH2 0x2DE9 DUP9 DUP5 PUSH2 0x3361 JUMP JUMPDEST SWAP1 POP DUP1 ISZERO PUSH2 0x2E0A JUMPI PUSH1 0x40 MLOAD PUSH4 0x39589FDD PUSH1 0xE2 SHL DUP2 MSTORE PUSH1 0x4 ADD PUSH1 0x40 MLOAD DUP1 SWAP2 SUB SWAP1 REVERT JUMPDEST PUSH1 0x40 MLOAD PUSH4 0x70A08231 PUSH1 0xE0 SHL DUP2 MSTORE PUSH1 0x0 SWAP1 PUSH1 0x1 PUSH1 0x1 PUSH1 0xA0 SHL SUB PUSH32 0x0 AND SWAP1 PUSH4 0x70A08231 SWAP1 PUSH2 0x2E59 SWAP1 ADDRESS SWAP1 PUSH1 0x4 ADD PUSH2 0x526E JUMP JUMPDEST PUSH1 0x20 PUSH1 0x40 MLOAD DUP1 DUP4 SUB DUP2 DUP7 GAS STATICCALL ISZERO DUP1 ISZERO PUSH2 0x2E76 JUMPI RETURNDATASIZE PUSH1 0x0 DUP1 RETURNDATACOPY RETURNDATASIZE PUSH1 0x0 REVERT JUMPDEST POP POP POP POP PUSH1 0x40 MLOAD RETURNDATASIZE PUSH1 0x1F NOT PUSH1 0x1F DUP3 ADD AND DUP3 ADD DUP1 PUSH1 0x40 MSTORE POP DUP2 ADD SWAP1 PUSH2 0x2E9A SWAP2 SWAP1 PUSH2 0x59B4 JUMP JUMPDEST SWAP1 POP PUSH2 0x2EA6 DUP10 DUP6 PUSH2 0x4536 JUMP JUMPDEST PUSH1 0x40 MLOAD PUSH4 0x70A08231 PUSH1 0xE0 SHL DUP2 MSTORE PUSH1 0x0 SWAP1 PUSH1 0x1 PUSH1 0x1 PUSH1 0xA0 SHL SUB PUSH32 0x0 AND SWAP1 PUSH4 0x70A08231 SWAP1 PUSH2 0x2EF5 SWAP1 ADDRESS SWAP1 PUSH1 0x4 ADD PUSH2 0x526E JUMP JUMPDEST PUSH1 0x20 PUSH1 0x40 MLOAD DUP1 DUP4 SUB DUP2 DUP7 GAS STATICCALL ISZERO DUP1 ISZERO PUSH2 0x2F12 JUMPI RETURNDATASIZE PUSH1 0x0 DUP1 RETURNDATACOPY RETURNDATASIZE PUSH1 0x0 REVERT JUMPDEST POP POP POP POP PUSH1 0x40 MLOAD RETURNDATASIZE PUSH1 0x1F NOT PUSH1 0x1F DUP3 ADD AND DUP3 ADD DUP1 PUSH1 0x40 MSTORE POP DUP2 ADD SWAP1 PUSH2 0x2F36 SWAP2 SWAP1 PUSH2 0x59B4 JUMP JUMPDEST SWAP1 POP PUSH1 0x0 PUSH2 0x2F4D PUSH2 0x2F47 DUP5 DUP5 PUSH2 0x5A34 JUMP JUMPDEST DUP9 PUSH2 0x28EA JUMP JUMPDEST SWAP1 POP DUP6 DUP2 GT ISZERO PUSH2 0x2F5B JUMPI DUP1 SWAP6 POP JUMPDEST DUP1 PUSH1 0x9 PUSH1 0x0 DUP3 DUP3 SLOAD PUSH2 0x2F6D SWAP2 SWAP1 PUSH2 0x5A47 JUMP JUMPDEST SWAP3 POP POP DUP2 SWAP1 SSTORE POP DUP6 PUSH1 0x8 PUSH1 0x0 DUP3 DUP3 SLOAD PUSH2 0x2F86 SWAP2 SWAP1 PUSH2 0x5A34 JUMP JUMPDEST SWAP1 SWAP2 SSTORE POP PUSH2 0x2F96 SWAP1 POP DUP7 DUP9 PUSH2 0x5A34 JUMP JUMPDEST SWAP8 POP POP POP POP POP POP POP PUSH2 0x3313 JUMP JUMPDEST PUSH1 0x1 PUSH1 0x1 PUSH1 0xA0 SHL SUB DUP6 AND PUSH1 0x0 SWAP1 DUP2 MSTORE PUSH1 0x2 PUSH1 0x20 MSTORE PUSH1 0x40 SWAP1 KECCAK256 PUSH1 0x3 ADD SLOAD DUP3 GT ISZERO PUSH2 0x2FDF JUMPI PUSH1 0x40 MLOAD PUSH4 0xD49D8C23 PUSH1 0xE0 SHL DUP2 MSTORE PUSH1 0x4 ADD PUSH1 0x40 MLOAD DUP1 SWAP2 SUB SWAP1 REVERT JUMPDEST PUSH1 0x40 MLOAD PUSH4 0x402D267D PUSH1 0xE0 SHL DUP2 MSTORE PUSH1 0x0 SWAP1 PUSH1 0x1 PUSH1 0x1 PUSH1 0xA0 SHL SUB DUP8 AND SWAP1 PUSH4 0x402D267D SWAP1 PUSH2 0x300E SWAP1 ADDRESS SWAP1 PUSH1 0x4 ADD PUSH2 0x526E JUMP JUMPDEST PUSH1 0x20 PUSH1 0x40 MLOAD DUP1 DUP4 SUB DUP2 DUP7 GAS STATICCALL ISZERO DUP1 ISZERO PUSH2 0x302B JUMPI RETURNDATASIZE PUSH1 0x0 DUP1 RETURNDATACOPY RETURNDATASIZE PUSH1 0x0 REVERT JUMPDEST POP POP POP POP PUSH1 0x40 MLOAD RETURNDATASIZE PUSH1 0x1F NOT PUSH1 0x1F DUP3 ADD AND DUP3 ADD DUP1 PUSH1 0x40 MSTORE POP DUP2 ADD SWAP1 PUSH2 0x304F SWAP2 SWAP1 PUSH2 0x59B4 JUMP JUMPDEST SWAP1 POP PUSH1 0x0 DUP2 GT PUSH2 0x3072 JUMPI PUSH1 0x40 MLOAD PUSH4 0x7C946ED7 PUSH1 0xE0 SHL DUP2 MSTORE PUSH1 0x4 ADD PUSH1 0x40 MLOAD DUP1 SWAP2 SUB SWAP1 REVERT JUMPDEST PUSH1 0x0 PUSH2 0x307E DUP4 DUP6 PUSH2 0x5A34 JUMP JUMPDEST SWAP1 POP DUP2 DUP2 GT ISZERO PUSH2 0x308B JUMPI POP DUP1 JUMPDEST PUSH1 0xA SLOAD PUSH1 0x9 SLOAD GT PUSH2 0x30AF JUMPI PUSH1 0x40 MLOAD PUSH4 0x356680B7 PUSH1 0xE0 SHL DUP2 MSTORE PUSH1 0x4 ADD PUSH1 0x40 MLOAD DUP1 SWAP2 SUB SWAP1 REVERT JUMPDEST PUSH1 0x0 PUSH1 0xA SLOAD PUSH1 0x9 SLOAD PUSH2 0x30C1 SWAP2 SWAP1 PUSH2 0x5A34 JUMP JUMPDEST SWAP1 POP DUP1 DUP3 GT ISZERO PUSH2 0x30CF JUMPI DUP1 SWAP2 POP JUMPDEST DUP2 ISZERO PUSH2 0x330F JUMPI PUSH2 0x3100 PUSH32 0x0 DUP10 DUP5 PUSH2 0x4690 JUMP JUMPDEST PUSH1 0x40 MLOAD PUSH4 0x70A08231 PUSH1 0xE0 SHL DUP2 MSTORE PUSH1 0x0 SWAP1 PUSH1 0x1 PUSH1 0x1 PUSH1 0xA0 SHL SUB PUSH32 0x0 AND SWAP1 PUSH4 0x70A08231 SWAP1 PUSH2 0x314F SWAP1 ADDRESS SWAP1 PUSH1 0x4 ADD PUSH2 0x526E JUMP JUMPDEST PUSH1 0x20 PUSH1 0x40 MLOAD DUP1 DUP4 SUB DUP2 DUP7 GAS STATICCALL ISZERO DUP1 ISZERO PUSH2 0x316C JUMPI RETURNDATASIZE PUSH1 0x0 DUP1 RETURNDATACOPY RETURNDATASIZE PUSH1 0x0 REVERT JUMPDEST POP POP POP POP PUSH1 0x40 MLOAD RETURNDATASIZE PUSH1 0x1F NOT PUSH1 0x1F DUP3 ADD AND DUP3 ADD DUP1 PUSH1 0x40 MSTORE POP DUP2 ADD SWAP1 PUSH2 0x3190 SWAP2 SWAP1 PUSH2 0x59B4 JUMP JUMPDEST PUSH1 0x40 MLOAD PUSH4 0x6E553F65 PUSH1 0xE0 SHL DUP2 MSTORE SWAP1 SWAP2 POP PUSH1 0x1 PUSH1 0x1 PUSH1 0xA0 SHL SUB DUP11 AND SWAP1 PUSH4 0x6E553F65 SWAP1 PUSH2 0x31C1 SWAP1 DUP7 SWAP1 ADDRESS SWAP1 PUSH1 0x4 ADD PUSH2 0x5E5C JUMP JUMPDEST PUSH1 0x20 PUSH1 0x40 MLOAD DUP1 DUP4 SUB DUP2 PUSH1 0x0 DUP8 GAS CALL ISZERO DUP1 ISZERO PUSH2 0x31E0 JUMPI RETURNDATASIZE PUSH1 0x0 DUP1 RETURNDATACOPY RETURNDATASIZE PUSH1 0x0 REVERT JUMPDEST POP POP POP POP PUSH1 0x40 MLOAD RETURNDATASIZE PUSH1 0x1F NOT PUSH1 0x1F DUP3 ADD AND DUP3 ADD DUP1 PUSH1 0x40 MSTORE POP DUP2 ADD SWAP1 PUSH2 0x3204 SWAP2 SWAP1 PUSH2 0x59B4 JUMP JUMPDEST POP PUSH1 0x40 MLOAD PUSH4 0x70A08231 PUSH1 0xE0 SHL DUP2 MSTORE PUSH1 0x0 SWAP1 PUSH1 0x1 PUSH1 0x1 PUSH1 0xA0 SHL SUB PUSH32 0x0 AND SWAP1 PUSH4 0x70A08231 SWAP1 PUSH2 0x3254 SWAP1 ADDRESS SWAP1 PUSH1 0x4 ADD PUSH2 0x526E JUMP JUMPDEST PUSH1 0x20 PUSH1 0x40 MLOAD DUP1 DUP4 SUB DUP2 DUP7 GAS STATICCALL ISZERO DUP1 ISZERO PUSH2 0x3271 JUMPI RETURNDATASIZE PUSH1 0x0 DUP1 RETURNDATACOPY RETURNDATASIZE PUSH1 0x0 REVERT JUMPDEST POP POP POP POP PUSH1 0x40 MLOAD RETURNDATASIZE PUSH1 0x1F NOT PUSH1 0x1F DUP3 ADD AND DUP3 ADD DUP1 PUSH1 0x40 MSTORE POP DUP2 ADD SWAP1 PUSH2 0x3295 SWAP2 SWAP1 PUSH2 0x59B4 JUMP JUMPDEST SWAP1 POP PUSH2 0x32C3 PUSH32 0x0 DUP12 PUSH1 0x0 PUSH2 0x4690 JUMP JUMPDEST PUSH2 0x32CD DUP2 DUP4 PUSH2 0x5A34 JUMP JUMPDEST SWAP4 POP DUP4 PUSH1 0x9 PUSH1 0x0 DUP3 DUP3 SLOAD PUSH2 0x32E1 SWAP2 SWAP1 PUSH2 0x5A34 JUMP JUMPDEST SWAP3 POP POP DUP2 SWAP1 SSTORE POP DUP4 PUSH1 0x8 PUSH1 0x0 DUP3 DUP3 SLOAD PUSH2 0x32FA SWAP2 SWAP1 PUSH2 0x5A47 JUMP JUMPDEST SWAP1 SWAP2 SSTORE POP PUSH2 0x330A SWAP1 POP DUP5 DUP8 PUSH2 0x5A47 JUMP JUMPDEST SWAP7 POP POP POP JUMPDEST POP POP POP JUMPDEST PUSH1 0x1 PUSH1 0x1 PUSH1 0xA0 SHL SUB DUP6 AND PUSH1 0x0 DUP2 DUP2 MSTORE PUSH1 0x2 PUSH1 0x20 DUP2 SWAP1 MSTORE PUSH1 0x40 SWAP2 DUP3 SWAP1 KECCAK256 ADD DUP5 SWAP1 SSTORE MLOAD PUSH1 0x0 DUP1 MLOAD PUSH1 0x20 PUSH2 0x63E0 DUP4 CODECOPY DUP2 MLOAD SWAP2 MSTORE SWAP1 PUSH2 0x3351 SWAP1 DUP5 SWAP1 DUP7 SWAP1 PUSH2 0x5824 JUMP JUMPDEST PUSH1 0x40 MLOAD DUP1 SWAP2 SUB SWAP1 LOG2 POP SWAP4 SWAP3 POP POP POP JUMP JUMPDEST PUSH1 0x1 PUSH1 0x1 PUSH1 0xA0 SHL SUB DUP3 AND PUSH1 0x0 DUP2 DUP2 MSTORE PUSH1 0x2 PUSH1 0x20 DUP2 SWAP1 MSTORE PUSH1 0x40 DUP1 DUP4 KECCAK256 SWAP1 SWAP2 ADD SLOAD SWAP1 MLOAD PUSH4 0x70A08231 PUSH1 0xE0 SHL DUP2 MSTORE SWAP2 SWAP3 SWAP1 SWAP2 DUP4 SWAP2 SWAP1 PUSH4 0x70A08231 SWAP1 PUSH2 0x33A7 SWAP1 ADDRESS SWAP1 PUSH1 0x4 ADD PUSH2 0x526E JUMP JUMPDEST PUSH1 0x20 PUSH1 0x40 MLOAD DUP1 DUP4 SUB DUP2 DUP7 GAS STATICCALL ISZERO DUP1 ISZERO PUSH2 0x33C4 JUMPI RETURNDATASIZE PUSH1 0x0 DUP1 RETURNDATACOPY RETURNDATASIZE PUSH1 0x0 REVERT JUMPDEST POP POP POP POP PUSH1 0x40 MLOAD RETURNDATASIZE PUSH1 0x1F NOT PUSH1 0x1F DUP3 ADD AND DUP3 ADD DUP1 PUSH1 0x40 MSTORE POP DUP2 ADD SWAP1 PUSH2 0x33E8 SWAP2 SWAP1 PUSH2 0x59B4 JUMP JUMPDEST SWAP1 POP PUSH1 0x0 DUP6 PUSH1 0x1 PUSH1 0x1 PUSH1 0xA0 SHL SUB AND PUSH4 0x7A2D13A DUP4 PUSH1 0x40 MLOAD DUP3 PUSH4 0xFFFFFFFF AND PUSH1 0xE0 SHL DUP2 MSTORE PUSH1 0x4 ADD PUSH2 0x3418 SWAP2 SWAP1 PUSH2 0x5282 JUMP JUMPDEST PUSH1 0x20 PUSH1 0x40 MLOAD DUP1 DUP4 SUB DUP2 DUP7 GAS STATICCALL ISZERO DUP1 ISZERO PUSH2 0x3435 JUMPI RETURNDATASIZE PUSH1 0x0 DUP1 RETURNDATACOPY RETURNDATASIZE PUSH1 0x0 REVERT JUMPDEST POP POP POP POP PUSH1 0x40 MLOAD RETURNDATASIZE PUSH1 0x1F NOT PUSH1 0x1F DUP3 ADD AND DUP3 ADD DUP1 PUSH1 0x40 MSTORE POP DUP2 ADD SWAP1 PUSH2 0x3459 SWAP2 SWAP1 PUSH2 0x59B4 JUMP JUMPDEST SWAP1 POP DUP3 DUP2 LT ISZERO DUP1 PUSH2 0x3468 JUMPI POP DUP3 ISZERO JUMPDEST ISZERO PUSH2 0x3479 JUMPI PUSH1 0x0 SWAP4 POP POP POP POP PUSH2 0xDA1 JUMP JUMPDEST PUSH1 0x0 PUSH2 0x3485 DUP3 DUP8 PUSH2 0x59EB JUMP JUMPDEST SWAP1 POP PUSH1 0x0 PUSH2 0x3493 DUP6 DUP4 PUSH2 0x5A20 JUMP JUMPDEST PUSH2 0x349D SWAP1 DUP9 PUSH2 0x5A34 JUMP JUMPDEST SWAP1 POP PUSH2 0x34A9 DUP6 DUP4 PUSH2 0x5C8E JUMP JUMPDEST ISZERO PUSH2 0x1A4B JUMPI PUSH2 0x1A48 PUSH1 0x1 DUP3 PUSH2 0x5A47 JUMP JUMPDEST PUSH1 0x12 SLOAD PUSH1 0x0 SWAP1 PUSH1 0x1 PUSH1 0xA0 SHL SWAP1 DIV PUSH1 0xFF AND ISZERO ISZERO PUSH1 0x1 SUB PUSH2 0x34EB JUMPI PUSH1 0x40 MLOAD PUSH4 0xF3C3867 PUSH1 0xE0 SHL DUP2 MSTORE PUSH1 0x4 ADD PUSH1 0x40 MLOAD DUP1 SWAP2 SUB SWAP1 REVERT JUMPDEST PUSH2 0x34F4 DUP4 PUSH2 0x29B3 JUMP JUMPDEST DUP3 GT ISZERO PUSH2 0x3514 JUMPI PUSH1 0x40 MLOAD PUSH4 0x25D16C51 PUSH1 0xE0 SHL DUP2 MSTORE PUSH1 0x4 ADD PUSH1 0x40 MLOAD DUP1 SWAP2 SUB SWAP1 REVERT JUMPDEST PUSH1 0x40 MLOAD PUSH4 0x23B872DD PUSH1 0xE0 SHL DUP2 MSTORE PUSH1 0x1 PUSH1 0x1 PUSH1 0xA0 SHL SUB PUSH32 0x0 AND SWAP1 PUSH4 0x23B872DD SWAP1 PUSH2 0x3564 SWAP1 CALLER SWAP1 ADDRESS SWAP1 DUP8 SWAP1 PUSH1 0x4 ADD PUSH2 0x5DC4 JUMP JUMPDEST PUSH1 0x20 PUSH1 0x40 MLOAD DUP1 DUP4 SUB DUP2 PUSH1 0x0 DUP8 GAS CALL ISZERO DUP1 ISZERO PUSH2 0x3583 JUMPI RETURNDATASIZE PUSH1 0x0 DUP1 RETURNDATACOPY RETURNDATASIZE PUSH1 0x0 REVERT JUMPDEST POP POP POP POP PUSH1 0x40 MLOAD RETURNDATASIZE PUSH1 0x1F NOT PUSH1 0x1F DUP3 ADD AND DUP3 ADD DUP1 PUSH1 0x40 MSTORE POP DUP2 ADD SWAP1 PUSH2 0x35A7 SWAP2 SWAP1 PUSH2 0x5DF7 JUMP JUMPDEST POP DUP2 PUSH1 0x9 PUSH1 0x0 DUP3 DUP3 SLOAD PUSH2 0x35BA SWAP2 SWAP1 PUSH2 0x5A47 JUMP JUMPDEST SWAP1 SWAP2 SSTORE POP PUSH1 0x0 SWAP1 POP PUSH2 0x35CC DUP4 DUP6 PUSH2 0x4758 JUMP JUMPDEST SWAP1 POP DUP4 PUSH1 0x1 PUSH1 0x1 PUSH1 0xA0 SHL SUB AND DUP6 PUSH1 0x1 PUSH1 0x1 PUSH1 0xA0 SHL SUB AND PUSH1 0x0 DUP1 MLOAD PUSH1 0x20 PUSH2 0x63C0 DUP4 CODECOPY DUP2 MLOAD SWAP2 MSTORE DUP6 DUP5 PUSH1 0x40 MLOAD PUSH2 0x3601 SWAP3 SWAP2 SWAP1 PUSH2 0x5824 JUMP JUMPDEST PUSH1 0x40 MLOAD DUP1 SWAP2 SUB SWAP1 LOG3 SWAP5 SWAP4 POP POP POP POP JUMP JUMPDEST PUSH1 0x14 SLOAD PUSH1 0x0 SWAP1 DUP2 TIMESTAMP DUP3 GT ISZERO PUSH2 0x3652 JUMPI PUSH5 0xE8D4A51000 PUSH1 0x16 SLOAD TIMESTAMP PUSH2 0x3634 SWAP2 SWAP1 PUSH2 0x5A34 JUMP JUMPDEST PUSH1 0x15 SLOAD PUSH2 0x3641 SWAP2 SWAP1 PUSH2 0x59EB JUMP JUMPDEST PUSH2 0x364B SWAP2 SWAP1 PUSH2 0x5A20 JUMP JUMPDEST SWAP1 POP PUSH2 0xDA1 JUMP JUMPDEST DUP2 ISZERO PUSH2 0xDA1 JUMPI POP ADDRESS PUSH1 0x0 SWAP1 DUP2 MSTORE PUSH1 0x5 PUSH1 0x20 MSTORE PUSH1 0x40 SWAP1 KECCAK256 SLOAD SWAP3 SWAP2 POP POP JUMP JUMPDEST PUSH1 0x12 SLOAD PUSH1 0x0 SWAP1 PUSH1 0x1 PUSH1 0xA0 SHL SWAP1 DIV PUSH1 0xFF AND ISZERO ISZERO PUSH1 0x1 SUB PUSH2 0x36A1 JUMPI PUSH1 0x40 MLOAD PUSH4 0xF3C3867 PUSH1 0xE0 SHL DUP2 MSTORE PUSH1 0x4 ADD PUSH1 0x40 MLOAD DUP1 SWAP2 SUB SWAP1 REVERT JUMPDEST PUSH1 0x0 PUSH2 0x36AE DUP4 PUSH1 0x1 PUSH2 0x1DB6 JUMP JUMPDEST SWAP1 POP PUSH2 0x36B9 DUP5 PUSH2 0x29B3 JUMP JUMPDEST DUP2 GT ISZERO PUSH2 0x36D9 JUMPI PUSH1 0x40 MLOAD PUSH4 0x25D16C51 PUSH1 0xE0 SHL DUP2 MSTORE PUSH1 0x4 ADD PUSH1 0x40 MLOAD DUP1 SWAP2 SUB SWAP1 REVERT JUMPDEST PUSH1 0x40 MLOAD PUSH4 0x23B872DD PUSH1 0xE0 SHL DUP2 MSTORE PUSH1 0x1 PUSH1 0x1 PUSH1 0xA0 SHL SUB PUSH32 0x0 AND SWAP1 PUSH4 0x23B872DD SWAP1 PUSH2 0x3729 SWAP1 CALLER SWAP1 ADDRESS SWAP1 DUP7 SWAP1 PUSH1 0x4 ADD PUSH2 0x5DC4 JUMP JUMPDEST PUSH1 0x20 PUSH1 0x40 MLOAD DUP1 DUP4 SUB DUP2 PUSH1 0x0 DUP8 GAS CALL ISZERO DUP1 ISZERO PUSH2 0x3748 JUMPI RETURNDATASIZE PUSH1 0x0 DUP1 RETURNDATACOPY RETURNDATASIZE PUSH1 0x0 REVERT JUMPDEST POP POP POP POP PUSH1 0x40 MLOAD RETURNDATASIZE PUSH1 0x1F NOT PUSH1 0x1F DUP3 ADD AND DUP3 ADD DUP1 PUSH1 0x40 MSTORE POP DUP2 ADD SWAP1 PUSH2 0x376C SWAP2 SWAP1 PUSH2 0x5DF7 JUMP JUMPDEST POP DUP1 PUSH1 0x9 PUSH1 0x0 DUP3 DUP3 SLOAD PUSH2 0x377F SWAP2 SWAP1 PUSH2 0x5A47 JUMP JUMPDEST SWAP1 SWAP2 SSTORE POP PUSH2 0x378F SWAP1 POP DUP4 DUP6 PUSH2 0x4809 JUMP JUMPDEST DUP4 PUSH1 0x1 PUSH1 0x1 PUSH1 0xA0 SHL SUB AND DUP6 PUSH1 0x1 PUSH1 0x1 PUSH1 0xA0 SHL SUB AND PUSH1 0x0 DUP1 MLOAD PUSH1 0x20 PUSH2 0x63C0 DUP4 CODECOPY DUP2 MLOAD SWAP2 MSTORE DUP4 DUP7 PUSH1 0x40 MLOAD PUSH2 0x3601 SWAP3 SWAP2 SWAP1 PUSH2 0x5824 JUMP JUMPDEST PUSH1 0x1 PUSH1 0x1 PUSH1 0xA0 SHL SUB DUP1 DUP5 AND PUSH1 0x0 SWAP1 DUP2 MSTORE PUSH1 0x6 PUSH1 0x20 SWAP1 DUP2 MSTORE PUSH1 0x40 DUP1 DUP4 KECCAK256 SWAP4 DUP7 AND DUP4 MSTORE SWAP3 SWAP1 MSTORE SWAP1 DUP2 KECCAK256 SLOAD DUP2 SWAP1 PUSH2 0x299A SWAP1 DUP5 SWAP1 PUSH2 0x5A34 JUMP JUMPDEST PUSH1 0x1 PUSH1 0x1 PUSH1 0xA0 SHL SUB DUP4 AND PUSH1 0x0 SWAP1 DUP2 MSTORE PUSH1 0x5 PUSH1 0x20 MSTORE PUSH1 0x40 SWAP1 KECCAK256 SLOAD DUP2 DUP2 LT ISZERO PUSH2 0x3831 JUMPI PUSH1 0x40 MLOAD PUSH4 0x356680B7 PUSH1 0xE0 SHL DUP2 MSTORE PUSH1 0x4 ADD PUSH1 0x40 MLOAD DUP1 SWAP2 SUB SWAP1 REVERT JUMPDEST PUSH1 0x1 PUSH1 0x1 PUSH1 0xA0 SHL SUB DUP5 AND ISZERO DUP1 PUSH2 0x384E JUMPI POP PUSH1 0x1 PUSH1 0x1 PUSH1 0xA0 SHL SUB DUP4 AND ISZERO JUMPDEST ISZERO PUSH2 0x386C JUMPI PUSH1 0x40 MLOAD PUSH4 0xD92E233D PUSH1 0xE0 SHL DUP2 MSTORE PUSH1 0x4 ADD PUSH1 0x40 MLOAD DUP1 SWAP2 SUB SWAP1 REVERT JUMPDEST PUSH2 0x3876 DUP3 DUP3 PUSH2 0x5A34 JUMP JUMPDEST PUSH1 0x1 PUSH1 0x1 PUSH1 0xA0 SHL SUB DUP1 DUP7 AND PUSH1 0x0 SWAP1 DUP2 MSTORE PUSH1 0x5 PUSH1 0x20 MSTORE PUSH1 0x40 DUP1 DUP3 KECCAK256 SWAP4 SWAP1 SWAP4 SSTORE SWAP1 DUP6 AND DUP2 MSTORE KECCAK256 SLOAD PUSH2 0x38A5 DUP4 DUP3 PUSH2 0x5A47 JUMP JUMPDEST PUSH1 0x1 PUSH1 0x1 PUSH1 0xA0 SHL SUB DUP1 DUP7 AND PUSH1 0x0 DUP2 DUP2 MSTORE PUSH1 0x5 PUSH1 0x20 MSTORE PUSH1 0x40 SWAP1 DUP2 SWAP1 KECCAK256 SWAP4 SWAP1 SWAP4 SSTORE SWAP2 MLOAD SWAP1 DUP8 AND SWAP1 PUSH1 0x0 DUP1 MLOAD PUSH1 0x20 PUSH2 0x62E0 DUP4 CODECOPY DUP2 MLOAD SWAP2 MSTORE SWAP1 PUSH2 0x38E5 SWAP1 DUP8 SWAP1 PUSH2 0x5282 JUMP JUMPDEST PUSH1 0x40 MLOAD DUP1 SWAP2 SUB SWAP1 LOG3 POP POP POP POP POP JUMP JUMPDEST PUSH1 0x1 PUSH1 0x1 PUSH1 0xA0 SHL SUB DUP2 AND PUSH1 0x0 SWAP1 DUP2 MSTORE PUSH1 0x2 PUSH1 0x20 MSTORE PUSH1 0x40 DUP2 KECCAK256 SLOAD DUP2 SWAP1 DUP2 SUB PUSH2 0x392E JUMPI PUSH1 0x40 MLOAD PUSH4 0x631BC21 PUSH1 0xE5 SHL DUP2 MSTORE PUSH1 0x4 ADD PUSH1 0x40 MLOAD DUP1 SWAP2 SUB SWAP1 REVERT JUMPDEST PUSH2 0x3936 PUSH2 0x48A2 JUMP JUMPDEST PUSH1 0x0 DUP1 PUSH2 0x3942 DUP6 PUSH2 0x48D2 JUMP JUMPDEST SWAP2 POP SWAP2 POP PUSH1 0x0 PUSH2 0x3953 DUP7 DUP5 DUP5 PUSH2 0x4A08 JUMP JUMPDEST SWAP1 POP PUSH1 0x0 PUSH2 0x396A DUP4 DUP4 PUSH1 0x0 ADD MLOAD DUP5 PUSH1 0x40 ADD MLOAD PUSH2 0x4B76 JUMP JUMPDEST SWAP1 POP PUSH1 0x0 DUP1 PUSH2 0x397C DUP4 DUP6 DUP9 DUP9 DUP14 PUSH2 0x4BFB JUMP JUMPDEST SWAP2 POP SWAP2 POP PUSH2 0x398A DUP3 DUP3 PUSH2 0x4F0B JUMP JUMPDEST PUSH1 0x1 PUSH1 0x1 PUSH1 0xA0 SHL SUB DUP10 AND PUSH1 0x0 DUP2 DUP2 MSTORE PUSH1 0x2 PUSH1 0x20 DUP2 SWAP1 MSTORE PUSH1 0x40 DUP1 DUP4 KECCAK256 TIMESTAMP PUSH1 0x1 DUP3 ADD SSTORE SWAP1 SWAP2 ADD SLOAD SWAP1 DUP7 ADD MLOAD PUSH1 0x0 DUP1 MLOAD PUSH1 0x20 PUSH2 0x6300 DUP4 CODECOPY DUP2 MLOAD SWAP2 MSTORE SWAP3 DUP11 SWAP3 DUP11 SWAP3 SWAP1 SWAP2 PUSH2 0x39D3 SWAP2 SWAP1 PUSH2 0x1DB6 JUMP JUMPDEST PUSH2 0x39EA DUP10 PUSH1 0x20 ADD MLOAD DUP11 PUSH1 0x40 ADD MLOAD PUSH2 0x17D0 SWAP2 SWAP1 PUSH2 0x5A47 JUMP JUMPDEST DUP11 PUSH1 0x20 ADD MLOAD PUSH1 0x40 MLOAD PUSH2 0x3A01 SWAP7 SWAP6 SWAP5 SWAP4 SWAP3 SWAP2 SWAP1 PUSH2 0x5E77 JUMP JUMPDEST PUSH1 0x40 MLOAD DUP1 SWAP2 SUB SWAP1 LOG2 POP SWAP4 SWAP8 SWAP3 SWAP7 POP SWAP2 SWAP5 POP POP POP POP POP JUMP JUMPDEST PUSH1 0x0 PUSH1 0x1 PUSH1 0x1 PUSH1 0xA0 SHL SUB DUP9 AND PUSH2 0x3A41 JUMPI PUSH1 0x40 MLOAD PUSH4 0xD92E233D PUSH1 0xE0 SHL DUP2 MSTORE PUSH1 0x4 ADD PUSH1 0x40 MLOAD DUP1 SWAP2 SUB SWAP1 REVERT JUMPDEST TIMESTAMP DUP6 LT ISZERO PUSH2 0x3A62 JUMPI PUSH1 0x40 MLOAD PUSH4 0x63BEF561 PUSH1 0xE1 SHL DUP2 MSTORE PUSH1 0x4 ADD PUSH1 0x40 MLOAD DUP1 SWAP2 SUB SWAP1 REVERT JUMPDEST PUSH1 0x1 PUSH1 0x1 PUSH1 0xA0 SHL SUB DUP9 AND PUSH1 0x0 SWAP1 DUP2 MSTORE PUSH1 0x17 PUSH1 0x20 SWAP1 DUP2 MSTORE PUSH1 0x40 DUP1 DUP4 KECCAK256 SLOAD SWAP1 MLOAD SWAP1 SWAP3 SWAP2 PUSH2 0x3AA7 SWAP2 PUSH1 0x0 DUP1 MLOAD PUSH1 0x20 PUSH2 0x6320 DUP4 CODECOPY DUP2 MLOAD SWAP2 MSTORE SWAP2 DUP14 SWAP2 DUP14 SWAP2 DUP14 SWAP2 DUP9 SWAP2 DUP15 SWAP2 ADD PUSH2 0x5EC6 JUMP JUMPDEST PUSH1 0x40 MLOAD PUSH1 0x20 DUP2 DUP4 SUB SUB DUP2 MSTORE SWAP1 PUSH1 0x40 MSTORE DUP1 MLOAD SWAP1 PUSH1 0x20 ADD KECCAK256 SWAP1 POP PUSH1 0x0 PUSH1 0x18 SLOAD DUP3 PUSH1 0x40 MLOAD PUSH1 0x20 ADD PUSH2 0x3AD6 SWAP3 SWAP2 SWAP1 PUSH2 0x5EEE JUMP JUMPDEST PUSH1 0x40 MLOAD PUSH1 0x20 DUP2 DUP4 SUB SUB DUP2 MSTORE SWAP1 PUSH1 0x40 MSTORE DUP1 MLOAD SWAP1 PUSH1 0x20 ADD KECCAK256 SWAP1 POP PUSH1 0x0 PUSH1 0x1 DUP3 DUP10 DUP10 DUP10 PUSH1 0x40 MLOAD PUSH1 0x0 DUP2 MSTORE PUSH1 0x20 ADD PUSH1 0x40 MSTORE PUSH1 0x40 MLOAD PUSH2 0x3B13 SWAP5 SWAP4 SWAP3 SWAP2 SWAP1 PUSH2 0x5F1F JUMP JUMPDEST PUSH1 0x20 PUSH1 0x40 MLOAD PUSH1 0x20 DUP2 SUB SWAP1 DUP1 DUP5 SUB SWAP1 DUP6 GAS STATICCALL ISZERO DUP1 ISZERO PUSH2 0x3B35 JUMPI RETURNDATASIZE PUSH1 0x0 DUP1 RETURNDATACOPY RETURNDATASIZE PUSH1 0x0 REVERT JUMPDEST POP POP PUSH1 0x40 MLOAD PUSH1 0x1F NOT ADD MLOAD SWAP2 POP POP PUSH1 0x1 PUSH1 0x1 PUSH1 0xA0 SHL SUB DUP2 AND ISZERO DUP1 PUSH2 0x3B6A JUMPI POP DUP12 PUSH1 0x1 PUSH1 0x1 PUSH1 0xA0 SHL SUB AND DUP2 PUSH1 0x1 PUSH1 0x1 PUSH1 0xA0 SHL SUB AND EQ ISZERO JUMPDEST ISZERO PUSH2 0x3B88 JUMPI PUSH1 0x40 MLOAD PUSH4 0x10454C99 PUSH1 0xE3 SHL DUP2 MSTORE PUSH1 0x4 ADD PUSH1 0x40 MLOAD DUP1 SWAP2 SUB SWAP1 REVERT JUMPDEST PUSH2 0x3B93 DUP13 DUP13 DUP13 PUSH2 0x1EE9 JUMP JUMPDEST POP PUSH1 0x1 PUSH1 0x1 PUSH1 0xA0 SHL SUB DUP13 AND PUSH1 0x0 SWAP1 DUP2 MSTORE PUSH1 0x17 PUSH1 0x20 MSTORE PUSH1 0x40 DUP2 KECCAK256 DUP1 SLOAD SWAP2 PUSH2 0x3BB8 DUP4 PUSH2 0x5A70 JUMP JUMPDEST SWAP2 SWAP1 POP SSTORE POP DUP11 PUSH1 0x1 PUSH1 0x1 PUSH1 0xA0 SHL SUB AND DUP13 PUSH1 0x1 PUSH1 0x1 PUSH1 0xA0 SHL SUB AND PUSH1 0x0 DUP1 MLOAD PUSH1 0x20 PUSH2 0x6340 DUP4 CODECOPY DUP2 MLOAD SWAP2 MSTORE DUP13 PUSH1 0x40 MLOAD PUSH2 0x3BEE SWAP2 SWAP1 PUSH2 0x5282 JUMP JUMPDEST PUSH1 0x40 MLOAD DUP1 SWAP2 SUB SWAP1 LOG3 POP PUSH1 0x1 SWAP12 SWAP11 POP POP POP POP POP POP POP POP POP POP POP JUMP JUMPDEST PUSH1 0x1 PUSH1 0x1 PUSH1 0xA0 SHL SUB DUP2 AND PUSH1 0x0 SWAP1 DUP2 MSTORE PUSH1 0x5 PUSH1 0x20 MSTORE PUSH1 0x40 SWAP1 KECCAK256 SLOAD DUP3 GT ISZERO PUSH2 0x3C41 JUMPI PUSH1 0x40 MLOAD PUSH4 0x39996567 PUSH1 0xE0 SHL DUP2 MSTORE PUSH1 0x4 ADD PUSH1 0x40 MLOAD DUP1 SWAP2 SUB SWAP1 REVERT JUMPDEST PUSH1 0x1 PUSH1 0x1 PUSH1 0xA0 SHL SUB DUP2 AND PUSH1 0x0 SWAP1 DUP2 MSTORE PUSH1 0x5 PUSH1 0x20 MSTORE PUSH1 0x40 DUP2 KECCAK256 DUP1 SLOAD DUP5 SWAP3 SWAP1 PUSH2 0x3C69 SWAP1 DUP5 SWAP1 PUSH2 0x5A34 JUMP JUMPDEST SWAP3 POP POP DUP2 SWAP1 SSTORE POP DUP2 PUSH1 0x7 PUSH1 0x0 DUP3 DUP3 SLOAD PUSH2 0x3C82 SWAP2 SWAP1 PUSH2 0x5A34 JUMP JUMPDEST SWAP1 SWAP2 SSTORE POP POP PUSH1 0x40 MLOAD PUSH1 0x0 SWAP1 PUSH1 0x1 PUSH1 0x1 PUSH1 0xA0 SHL SUB DUP4 AND SWAP1 PUSH1 0x0 DUP1 MLOAD PUSH1 0x20 PUSH2 0x62E0 DUP4 CODECOPY DUP2 MLOAD SWAP2 MSTORE SWAP1 PUSH2 0x3CB3 SWAP1 DUP7 SWAP1 PUSH2 0x5282 JUMP JUMPDEST PUSH1 0x40 MLOAD DUP1 SWAP2 SUB SWAP1 LOG3 POP POP JUMP JUMPDEST PUSH1 0x1 PUSH1 0x1 PUSH1 0xA0 SHL SUB DUP5 AND PUSH2 0x3CE6 JUMPI PUSH1 0x40 MLOAD PUSH4 0xD92E233D PUSH1 0xE0 SHL DUP2 MSTORE PUSH1 0x4 ADD PUSH1 0x40 MLOAD DUP1 SWAP2 SUB SWAP1 REVERT JUMPDEST PUSH2 0x2710 DUP2 GT ISZERO PUSH2 0x3D09 JUMPI PUSH1 0x40 MLOAD PUSH4 0x1A7ED0A1 PUSH1 0xE3 SHL DUP2 MSTORE PUSH1 0x4 ADD PUSH1 0x40 MLOAD DUP1 SWAP2 SUB SWAP1 REVERT JUMPDEST PUSH1 0x0 DUP3 GT PUSH2 0x3D2A JUMPI PUSH1 0x40 MLOAD PUSH4 0x7C946ED7 PUSH1 0xE0 SHL DUP2 MSTORE PUSH1 0x4 ADD PUSH1 0x40 MLOAD DUP1 SWAP2 SUB SWAP1 REVERT JUMPDEST PUSH1 0x1 PUSH1 0x1 PUSH1 0xA0 SHL SUB DUP4 AND PUSH1 0x0 SWAP1 DUP2 MSTORE PUSH1 0x5 PUSH1 0x20 MSTORE PUSH1 0x40 SWAP1 KECCAK256 SLOAD DUP3 GT ISZERO PUSH2 0x2B67 JUMPI PUSH1 0x40 MLOAD PUSH4 0x39996567 PUSH1 0xE0 SHL DUP2 MSTORE PUSH1 0x4 ADD PUSH1 0x40 MLOAD DUP1 SWAP2 SUB SWAP1 REVERT JUMPDEST DUP3 PUSH1 0x1 PUSH1 0x1 PUSH1 0xA0 SHL SUB AND DUP3 PUSH1 0x1 PUSH1 0x1 PUSH1 0xA0 SHL SUB AND EQ PUSH2 0x1018 JUMPI PUSH2 0x1018 DUP4 DUP4 DUP4 PUSH2 0x44D4 JUMP JUMPDEST PUSH1 0x0 DUP1 PUSH1 0x0 PUSH1 0x40 MLOAD DUP1 PUSH1 0xC0 ADD PUSH1 0x40 MSTORE DUP1 DUP7 DUP2 MSTORE PUSH1 0x20 ADD PUSH1 0x9 SLOAD DUP2 MSTORE PUSH1 0x20 ADD PUSH1 0x8 SLOAD DUP2 MSTORE PUSH1 0x20 ADD PUSH1 0x0 DUP2 MSTORE PUSH1 0x20 ADD PUSH32 0x0 PUSH1 0x1 PUSH1 0x1 PUSH1 0xA0 SHL SUB AND PUSH4 0x70A08231 ADDRESS PUSH1 0x40 MLOAD DUP3 PUSH4 0xFFFFFFFF AND PUSH1 0xE0 SHL DUP2 MSTORE PUSH1 0x4 ADD PUSH2 0x3E00 SWAP2 SWAP1 PUSH2 0x526E JUMP JUMPDEST PUSH1 0x20 PUSH1 0x40 MLOAD DUP1 DUP4 SUB DUP2 DUP7 GAS STATICCALL ISZERO DUP1 ISZERO PUSH2 0x3E1D JUMPI RETURNDATASIZE PUSH1 0x0 DUP1 RETURNDATACOPY RETURNDATASIZE PUSH1 0x0 REVERT JUMPDEST POP POP POP POP PUSH1 0x40 MLOAD RETURNDATASIZE PUSH1 0x1F NOT PUSH1 0x1F DUP3 ADD AND DUP3 ADD DUP1 PUSH1 0x40 MSTORE POP DUP2 ADD SWAP1 PUSH2 0x3E41 SWAP2 SWAP1 PUSH2 0x59B4 JUMP JUMPDEST DUP2 MSTORE PUSH1 0x0 PUSH1 0x20 SWAP2 DUP3 ADD MSTORE DUP2 ADD MLOAD DUP2 MLOAD SWAP2 SWAP3 POP LT ISZERO PUSH2 0x43C6 JUMPI PUSH1 0x0 DUP5 MLOAD PUSH1 0x0 EQ ISZERO DUP1 ISZERO PUSH2 0x3E70 JUMPI POP PUSH1 0x4 SLOAD PUSH1 0xFF AND ISZERO JUMPDEST PUSH2 0x3ED4 JUMPI PUSH1 0x3 DUP1 SLOAD DUP1 PUSH1 0x20 MUL PUSH1 0x20 ADD PUSH1 0x40 MLOAD SWAP1 DUP2 ADD PUSH1 0x40 MSTORE DUP1 SWAP3 SWAP2 SWAP1 DUP2 DUP2 MSTORE PUSH1 0x20 ADD DUP3 DUP1 SLOAD DUP1 ISZERO PUSH2 0x3ECA JUMPI PUSH1 0x20 MUL DUP3 ADD SWAP2 SWAP1 PUSH1 0x0 MSTORE PUSH1 0x20 PUSH1 0x0 KECCAK256 SWAP1 JUMPDEST DUP2 SLOAD PUSH1 0x1 PUSH1 0x1 PUSH1 0xA0 SHL SUB AND DUP2 MSTORE PUSH1 0x1 SWAP1 SWAP2 ADD SWAP1 PUSH1 0x20 ADD DUP1 DUP4 GT PUSH2 0x3EAC JUMPI JUMPDEST POP POP POP POP POP PUSH2 0x3ED6 JUMP JUMPDEST DUP5 JUMPDEST PUSH1 0x20 DUP4 ADD MLOAD DUP4 MLOAD SWAP2 SWAP3 POP PUSH2 0x3EE9 SWAP2 PUSH2 0x5A34 JUMP JUMPDEST PUSH1 0x60 DUP4 ADD MSTORE PUSH1 0x0 JUMPDEST DUP2 MLOAD DUP2 LT ISZERO PUSH2 0x4395 JUMPI PUSH1 0x0 DUP3 DUP3 DUP2 MLOAD DUP2 LT PUSH2 0x3F0E JUMPI PUSH2 0x3F0E PUSH2 0x5A5A JUMP JUMPDEST PUSH1 0x20 MUL PUSH1 0x20 ADD ADD MLOAD SWAP1 POP PUSH1 0x2 PUSH1 0x0 DUP3 PUSH1 0x1 PUSH1 0x1 PUSH1 0xA0 SHL SUB AND PUSH1 0x1 PUSH1 0x1 PUSH1 0xA0 SHL SUB AND DUP2 MSTORE PUSH1 0x20 ADD SWAP1 DUP2 MSTORE PUSH1 0x20 ADD PUSH1 0x0 KECCAK256 PUSH1 0x0 ADD SLOAD PUSH1 0x0 SUB PUSH2 0x3F61 JUMPI PUSH1 0x40 MLOAD PUSH4 0x631BC21 PUSH1 0xE5 SHL DUP2 MSTORE PUSH1 0x4 ADD PUSH1 0x40 MLOAD DUP1 SWAP2 SUB SWAP1 REVERT JUMPDEST PUSH1 0x1 PUSH1 0x1 PUSH1 0xA0 SHL SUB DUP2 AND PUSH1 0x0 SWAP1 DUP2 MSTORE PUSH1 0x2 PUSH1 0x20 DUP2 SWAP1 MSTORE PUSH1 0x40 DUP3 KECCAK256 ADD SLOAD PUSH1 0x60 DUP7 ADD MLOAD SWAP1 SWAP2 SWAP1 PUSH2 0x3F8F SWAP1 DUP4 PUSH2 0x28EA JUMP JUMPDEST SWAP1 POP PUSH1 0x0 DUP4 PUSH1 0x1 PUSH1 0x1 PUSH1 0xA0 SHL SUB AND PUSH4 0x7A2D13A DUP6 PUSH1 0x1 PUSH1 0x1 PUSH1 0xA0 SHL SUB AND PUSH4 0xD905777E ADDRESS PUSH1 0x40 MLOAD DUP3 PUSH4 0xFFFFFFFF AND PUSH1 0xE0 SHL DUP2 MSTORE PUSH1 0x4 ADD PUSH2 0x3FCE SWAP2 SWAP1 PUSH2 0x526E JUMP JUMPDEST PUSH1 0x20 PUSH1 0x40 MLOAD DUP1 DUP4 SUB DUP2 DUP7 GAS STATICCALL ISZERO DUP1 ISZERO PUSH2 0x3FEB JUMPI RETURNDATASIZE PUSH1 0x0 DUP1 RETURNDATACOPY RETURNDATASIZE PUSH1 0x0 REVERT JUMPDEST POP POP POP POP PUSH1 0x40 MLOAD RETURNDATASIZE PUSH1 0x1F NOT PUSH1 0x1F DUP3 ADD AND DUP3 ADD DUP1 PUSH1 0x40 MSTORE POP DUP2 ADD SWAP1 PUSH2 0x400F SWAP2 SWAP1 PUSH2 0x59B4 JUMP JUMPDEST PUSH1 0x40 MLOAD DUP3 PUSH4 0xFFFFFFFF AND PUSH1 0xE0 SHL DUP2 MSTORE PUSH1 0x4 ADD PUSH2 0x402B SWAP2 SWAP1 PUSH2 0x5282 JUMP JUMPDEST PUSH1 0x20 PUSH1 0x40 MLOAD DUP1 DUP4 SUB DUP2 DUP7 GAS STATICCALL ISZERO DUP1 ISZERO PUSH2 0x4048 JUMPI RETURNDATASIZE PUSH1 0x0 DUP1 RETURNDATACOPY RETURNDATASIZE PUSH1 0x0 REVERT JUMPDEST POP POP POP POP PUSH1 0x40 MLOAD RETURNDATASIZE PUSH1 0x1F NOT PUSH1 0x1F DUP3 ADD AND DUP3 ADD DUP1 PUSH1 0x40 MSTORE POP DUP2 ADD SWAP1 PUSH2 0x406C SWAP2 SWAP1 PUSH2 0x59B4 JUMP JUMPDEST SWAP1 POP PUSH1 0x0 PUSH2 0x407A DUP6 DUP5 PUSH2 0x3361 JUMP JUMPDEST SWAP1 POP DUP1 ISZERO PUSH2 0x4180 JUMPI PUSH2 0x408C DUP2 DUP5 PUSH2 0x5A34 JUMP JUMPDEST DUP3 LT ISZERO PUSH2 0x40C6 JUMPI PUSH1 0x0 PUSH2 0x409F DUP3 DUP6 PUSH2 0x5A34 JUMP JUMPDEST SWAP1 POP DUP1 PUSH2 0x40AC DUP5 DUP5 PUSH2 0x59EB JUMP JUMPDEST PUSH2 0x40B6 SWAP2 SWAP1 PUSH2 0x5A20 JUMP JUMPDEST SWAP2 POP PUSH2 0x40C2 DUP3 DUP5 PUSH2 0x5A47 JUMP JUMPDEST SWAP4 POP POP JUMPDEST PUSH2 0x40D0 DUP2 DUP5 PUSH2 0x5A34 JUMP JUMPDEST SWAP3 POP DUP1 DUP9 PUSH1 0x0 ADD DUP2 DUP2 MLOAD PUSH2 0x40E4 SWAP2 SWAP1 PUSH2 0x5A34 JUMP JUMPDEST SWAP1 MSTORE POP PUSH1 0x60 DUP9 ADD DUP1 MLOAD DUP3 SWAP2 SWAP1 PUSH2 0x40FB SWAP1 DUP4 SWAP1 PUSH2 0x5A34 JUMP JUMPDEST SWAP1 MSTORE POP PUSH1 0x40 DUP9 ADD DUP1 MLOAD DUP3 SWAP2 SWAP1 PUSH2 0x4112 SWAP1 DUP4 SWAP1 PUSH2 0x5A34 JUMP JUMPDEST SWAP1 MSTORE POP DUP2 ISZERO DUP1 ISZERO PUSH2 0x4123 JUMPI POP PUSH1 0x0 DUP2 GT JUMPDEST ISZERO PUSH2 0x4180 JUMPI PUSH1 0x0 PUSH2 0x4134 DUP3 DUP7 PUSH2 0x5A34 JUMP JUMPDEST PUSH1 0x1 PUSH1 0x1 PUSH1 0xA0 SHL SUB DUP8 AND PUSH1 0x0 DUP2 DUP2 MSTORE PUSH1 0x2 PUSH1 0x20 DUP2 SWAP1 MSTORE PUSH1 0x40 SWAP2 DUP3 SWAP1 KECCAK256 ADD DUP4 SWAP1 SSTORE MLOAD SWAP2 SWAP3 POP SWAP1 PUSH1 0x0 DUP1 MLOAD PUSH1 0x20 PUSH2 0x63E0 DUP4 CODECOPY DUP2 MLOAD SWAP2 MSTORE SWAP1 PUSH2 0x4176 SWAP1 DUP9 SWAP1 DUP6 SWAP1 PUSH2 0x5824 JUMP JUMPDEST PUSH1 0x40 MLOAD DUP1 SWAP2 SUB SWAP1 LOG2 POP JUMPDEST PUSH2 0x418A DUP4 DUP4 PUSH2 0x28EA JUMP JUMPDEST SWAP3 POP DUP3 PUSH1 0x0 SUB PUSH2 0x419E JUMPI POP POP POP POP POP PUSH2 0x4383 JUMP JUMPDEST PUSH2 0x41A8 DUP6 DUP5 PUSH2 0x4536 JUMP JUMPDEST PUSH1 0x40 MLOAD PUSH4 0x70A08231 PUSH1 0xE0 SHL DUP2 MSTORE PUSH1 0x0 SWAP1 PUSH1 0x1 PUSH1 0x1 PUSH1 0xA0 SHL SUB PUSH32 0x0 AND SWAP1 PUSH4 0x70A08231 SWAP1 PUSH2 0x41F7 SWAP1 ADDRESS SWAP1 PUSH1 0x4 ADD PUSH2 0x526E JUMP JUMPDEST PUSH1 0x20 PUSH1 0x40 MLOAD DUP1 DUP4 SUB DUP2 DUP7 GAS STATICCALL ISZERO DUP1 ISZERO PUSH2 0x4214 JUMPI RETURNDATASIZE PUSH1 0x0 DUP1 RETURNDATACOPY RETURNDATASIZE PUSH1 0x0 REVERT JUMPDEST POP POP POP POP PUSH1 0x40 MLOAD RETURNDATASIZE PUSH1 0x1F NOT PUSH1 0x1F DUP3 ADD AND DUP3 ADD DUP1 PUSH1 0x40 MSTORE POP DUP2 ADD SWAP1 PUSH2 0x4238 SWAP2 SWAP1 PUSH2 0x59B4 JUMP JUMPDEST SWAP1 POP PUSH1 0x0 DUP10 PUSH1 0x80 ADD MLOAD DUP3 PUSH2 0x424C SWAP2 SWAP1 PUSH2 0x5A34 JUMP JUMPDEST SWAP1 POP PUSH1 0x0 DUP6 DUP3 GT ISZERO PUSH2 0x4283 JUMPI DUP7 DUP3 GT ISZERO PUSH2 0x4268 JUMPI DUP7 SWAP6 POP PUSH2 0x4298 JUMP JUMPDEST PUSH2 0x4272 DUP7 DUP4 PUSH2 0x5A34 JUMP JUMPDEST PUSH2 0x427C SWAP1 DUP8 PUSH2 0x5A47 JUMP JUMPDEST SWAP6 POP PUSH2 0x4298 JUMP JUMPDEST DUP6 DUP3 LT ISZERO PUSH2 0x4298 JUMPI PUSH2 0x4295 DUP3 DUP8 PUSH2 0x5A34 JUMP JUMPDEST SWAP1 POP JUMPDEST PUSH2 0x42A2 DUP2 DUP8 PUSH2 0x5A34 JUMP JUMPDEST DUP12 PUSH1 0x20 ADD DUP2 DUP2 MLOAD PUSH2 0x42B3 SWAP2 SWAP1 PUSH2 0x5A47 JUMP JUMPDEST SWAP1 MSTORE POP DUP11 MLOAD DUP2 SWAP1 DUP13 SWAP1 PUSH2 0x42C7 SWAP1 DUP4 SWAP1 PUSH2 0x5A34 JUMP JUMPDEST SWAP1 MSTORE POP PUSH1 0x40 DUP12 ADD DUP1 MLOAD DUP8 SWAP2 SWAP1 PUSH2 0x42DE SWAP1 DUP4 SWAP1 PUSH2 0x5A34 JUMP JUMPDEST SWAP1 MSTORE POP PUSH1 0x0 PUSH2 0x42ED DUP6 DUP9 PUSH2 0x5A47 JUMP JUMPDEST PUSH2 0x42F7 SWAP1 DUP10 PUSH2 0x5A34 JUMP JUMPDEST PUSH1 0x1 PUSH1 0x1 PUSH1 0xA0 SHL SUB DUP11 AND PUSH1 0x0 DUP2 DUP2 MSTORE PUSH1 0x2 PUSH1 0x20 DUP2 SWAP1 MSTORE PUSH1 0x40 SWAP2 DUP3 SWAP1 KECCAK256 ADD DUP4 SWAP1 SSTORE MLOAD SWAP2 SWAP3 POP SWAP1 PUSH1 0x0 DUP1 MLOAD PUSH1 0x20 PUSH2 0x63E0 DUP4 CODECOPY DUP2 MLOAD SWAP2 MSTORE SWAP1 PUSH2 0x4339 SWAP1 DUP12 SWAP1 DUP6 SWAP1 PUSH2 0x5824 JUMP JUMPDEST PUSH1 0x40 MLOAD DUP1 SWAP2 SUB SWAP1 LOG2 PUSH1 0x20 DUP13 ADD MLOAD DUP13 MLOAD GT PUSH2 0x435B JUMPI POP POP POP POP POP POP POP POP POP PUSH2 0x4395 JUMP JUMPDEST PUSH1 0x80 DUP13 ADD DUP5 SWAP1 MSTORE PUSH1 0x60 DUP13 ADD DUP1 MLOAD DUP9 SWAP2 SWAP1 PUSH2 0x4376 SWAP1 DUP4 SWAP1 PUSH2 0x5A34 JUMP JUMPDEST SWAP1 MSTORE POP POP POP POP POP POP POP POP POP POP JUMPDEST DUP1 PUSH2 0x438D DUP2 PUSH2 0x5A70 JUMP JUMPDEST SWAP2 POP POP PUSH2 0x3EF1 JUMP JUMPDEST POP DUP2 MLOAD PUSH1 0x20 DUP4 ADD MLOAD LT ISZERO PUSH2 0x43BC JUMPI PUSH1 0x40 MLOAD PUSH4 0x4DD0D83D PUSH1 0xE1 SHL DUP2 MSTORE PUSH1 0x4 ADD PUSH1 0x40 MLOAD DUP1 SWAP2 SUB SWAP1 REVERT JUMPDEST POP PUSH1 0x40 DUP2 ADD MLOAD PUSH1 0x8 SSTORE JUMPDEST DUP1 MLOAD PUSH1 0x20 SWAP1 SWAP2 ADD MLOAD SWAP1 SWAP3 POP SWAP1 POP JUMPDEST SWAP3 POP SWAP3 SWAP1 POP JUMP JUMPDEST DUP3 DUP5 GT DUP1 ISZERO PUSH2 0x43EB JUMPI POP PUSH2 0x2710 DUP2 LT JUMPDEST ISZERO PUSH2 0x4430 JUMPI PUSH2 0x2710 PUSH2 0x43FD DUP3 DUP7 PUSH2 0x59EB JUMP JUMPDEST PUSH2 0x4407 SWAP2 SWAP1 PUSH2 0x5A20 JUMP JUMPDEST PUSH2 0x4411 DUP5 DUP7 PUSH2 0x5A34 JUMP JUMPDEST GT ISZERO PUSH2 0x4430 JUMPI PUSH1 0x40 MLOAD PUSH4 0x7F65E39 PUSH1 0xE1 SHL DUP2 MSTORE PUSH1 0x4 ADD PUSH1 0x40 MLOAD DUP1 SWAP2 SUB SWAP1 REVERT JUMPDEST PUSH2 0x443A DUP6 DUP8 PUSH2 0x3C08 JUMP JUMPDEST PUSH2 0x4444 DUP4 DUP4 PUSH2 0x5A34 JUMP JUMPDEST PUSH1 0x9 SSTORE PUSH2 0x4472 PUSH32 0x0 DUP9 DUP6 PUSH2 0x2B6D JUMP JUMPDEST POP POP POP POP POP POP POP JUMP JUMPDEST PUSH2 0x4485 DUP3 DUP3 PUSH2 0x1755 JUMP JUMPDEST PUSH2 0xEC3 JUMPI PUSH2 0x4492 DUP2 PUSH2 0x4FAC JUMP JUMPDEST PUSH2 0x449D DUP4 PUSH1 0x20 PUSH2 0x4FBE JUMP JUMPDEST PUSH1 0x40 MLOAD PUSH1 0x20 ADD PUSH2 0x44AE SWAP3 SWAP2 SWAP1 PUSH2 0x5F5C JUMP JUMPDEST PUSH1 0x40 DUP1 MLOAD PUSH1 0x1F NOT DUP2 DUP5 SUB ADD DUP2 MSTORE SWAP1 DUP3 SWAP1 MSTORE PUSH3 0x461BCD PUSH1 0xE5 SHL DUP3 MSTORE PUSH2 0x1093 SWAP2 PUSH1 0x4 ADD PUSH2 0x5508 JUMP JUMPDEST PUSH1 0x1 PUSH1 0x1 PUSH1 0xA0 SHL SUB DUP1 DUP5 AND PUSH1 0x0 SWAP1 DUP2 MSTORE PUSH1 0x6 PUSH1 0x20 SWAP1 DUP2 MSTORE PUSH1 0x40 DUP1 DUP4 KECCAK256 SWAP4 DUP7 AND DUP4 MSTORE SWAP3 SWAP1 MSTORE KECCAK256 SLOAD DUP2 DUP2 LT ISZERO PUSH2 0x451B JUMPI PUSH1 0x40 MLOAD PUSH4 0x17E286B PUSH1 0xE5 SHL DUP2 MSTORE PUSH1 0x4 ADD PUSH1 0x40 MLOAD DUP1 SWAP2 SUB SWAP1 REVERT JUMPDEST PUSH2 0x452F DUP5 DUP5 PUSH2 0x452A DUP6 DUP6 PUSH2 0x5A34 JUMP JUMPDEST PUSH2 0x1EE9 JUMP JUMPDEST POP POP POP POP POP JUMP JUMPDEST PUSH1 0x0 PUSH2 0x461A DUP4 PUSH1 0x1 PUSH1 0x1 PUSH1 0xA0 SHL SUB AND PUSH4 0xA28A477 DUP5 PUSH1 0x40 MLOAD DUP3 PUSH4 0xFFFFFFFF AND PUSH1 0xE0 SHL DUP2 MSTORE PUSH1 0x4 ADD PUSH2 0x4567 SWAP2 SWAP1 PUSH2 0x5282 JUMP JUMPDEST PUSH1 0x20 PUSH1 0x40 MLOAD DUP1 DUP4 SUB DUP2 DUP7 GAS STATICCALL ISZERO DUP1 ISZERO PUSH2 0x4584 JUMPI RETURNDATASIZE PUSH1 0x0 DUP1 RETURNDATACOPY RETURNDATASIZE PUSH1 0x0 REVERT JUMPDEST POP POP POP POP PUSH1 0x40 MLOAD RETURNDATASIZE PUSH1 0x1F NOT PUSH1 0x1F DUP3 ADD AND DUP3 ADD DUP1 PUSH1 0x40 MSTORE POP DUP2 ADD SWAP1 PUSH2 0x45A8 SWAP2 SWAP1 PUSH2 0x59B4 JUMP JUMPDEST PUSH1 0x40 MLOAD PUSH4 0x70A08231 PUSH1 0xE0 SHL DUP2 MSTORE PUSH1 0x1 PUSH1 0x1 PUSH1 0xA0 SHL SUB DUP7 AND SWAP1 PUSH4 0x70A08231 SWAP1 PUSH2 0x45D4 SWAP1 ADDRESS SWAP1 PUSH1 0x4 ADD PUSH2 0x526E JUMP JUMPDEST PUSH1 0x20 PUSH1 0x40 MLOAD DUP1 DUP4 SUB DUP2 DUP7 GAS STATICCALL ISZERO DUP1 ISZERO PUSH2 0x45F1 JUMPI RETURNDATASIZE PUSH1 0x0 DUP1 RETURNDATACOPY RETURNDATASIZE PUSH1 0x0 REVERT JUMPDEST POP POP POP POP PUSH1 0x40 MLOAD RETURNDATASIZE PUSH1 0x1F NOT PUSH1 0x1F DUP3 ADD AND DUP3 ADD DUP1 PUSH1 0x40 MSTORE POP DUP2 ADD SWAP1 PUSH2 0x4615 SWAP2 SWAP1 PUSH2 0x59B4 JUMP JUMPDEST PUSH2 0x28EA JUMP JUMPDEST PUSH1 0x40 MLOAD PUSH4 0x5D043B29 PUSH1 0xE1 SHL DUP2 MSTORE SWAP1 SWAP2 POP PUSH1 0x1 PUSH1 0x1 PUSH1 0xA0 SHL SUB DUP5 AND SWAP1 PUSH4 0xBA087652 SWAP1 PUSH2 0x464D SWAP1 DUP5 SWAP1 ADDRESS SWAP1 DUP2 SWAP1 PUSH1 0x4 ADD PUSH2 0x5FAE JUMP JUMPDEST PUSH1 0x20 PUSH1 0x40 MLOAD DUP1 DUP4 SUB DUP2 PUSH1 0x0 DUP8 GAS CALL ISZERO DUP1 ISZERO PUSH2 0x466C JUMPI RETURNDATASIZE PUSH1 0x0 DUP1 RETURNDATACOPY RETURNDATASIZE PUSH1 0x0 REVERT JUMPDEST POP POP POP POP PUSH1 0x40 MLOAD RETURNDATASIZE PUSH1 0x1F NOT PUSH1 0x1F DUP3 ADD AND DUP3 ADD DUP1 PUSH1 0x40 MSTORE POP DUP2 ADD SWAP1 PUSH2 0x2B67 SWAP2 SWAP1 PUSH2 0x59B4 JUMP JUMPDEST PUSH1 0x1 PUSH1 0x1 PUSH1 0xA0 SHL SUB DUP4 AND ISZERO DUP1 PUSH2 0x46AD JUMPI POP PUSH1 0x1 PUSH1 0x1 PUSH1 0xA0 SHL SUB DUP3 AND ISZERO JUMPDEST ISZERO PUSH2 0x46CB JUMPI PUSH1 0x40 MLOAD PUSH4 0xD92E233D PUSH1 0xE0 SHL DUP2 MSTORE PUSH1 0x4 ADD PUSH1 0x40 MLOAD DUP1 SWAP2 SUB SWAP1 REVERT JUMPDEST PUSH1 0x40 MLOAD PUSH4 0x95EA7B3 PUSH1 0xE0 SHL DUP2 MSTORE PUSH1 0x1 PUSH1 0x1 PUSH1 0xA0 SHL SUB DUP5 AND SWAP1 PUSH4 0x95EA7B3 SWAP1 PUSH2 0x46F9 SWAP1 DUP6 SWAP1 DUP6 SWAP1 PUSH1 0x4 ADD PUSH2 0x5E4E JUMP JUMPDEST PUSH1 0x20 PUSH1 0x40 MLOAD DUP1 DUP4 SUB DUP2 PUSH1 0x0 DUP8 GAS CALL ISZERO DUP1 ISZERO PUSH2 0x4718 JUMPI RETURNDATASIZE PUSH1 0x0 DUP1 RETURNDATACOPY RETURNDATASIZE PUSH1 0x0 REVERT JUMPDEST POP POP POP POP PUSH1 0x40 MLOAD RETURNDATASIZE PUSH1 0x1F NOT PUSH1 0x1F DUP3 ADD AND DUP3 ADD DUP1 PUSH1 0x40 MSTORE POP DUP2 ADD SWAP1 PUSH2 0x473C SWAP2 SWAP1 PUSH2 0x5DF7 JUMP JUMPDEST PUSH2 0x1018 JUMPI PUSH1 0x40 MLOAD PUSH3 0x461BCD PUSH1 0xE5 SHL DUP2 MSTORE PUSH1 0x4 ADD PUSH2 0x1093 SWAP1 PUSH2 0x5FFC JUMP JUMPDEST PUSH1 0x0 PUSH1 0x1 PUSH1 0x1 PUSH1 0xA0 SHL SUB DUP3 AND PUSH2 0x4781 JUMPI PUSH1 0x40 MLOAD PUSH4 0xD92E233D PUSH1 0xE0 SHL DUP2 MSTORE PUSH1 0x4 ADD PUSH1 0x40 MLOAD DUP1 SWAP2 SUB SWAP1 REVERT JUMPDEST PUSH1 0x0 PUSH2 0x478B PUSH2 0x225C JUMP JUMPDEST SWAP1 POP PUSH1 0x0 PUSH2 0x4797 PUSH2 0x1D7B JUMP JUMPDEST SWAP1 POP PUSH1 0x0 DUP3 PUSH1 0x0 SUB PUSH2 0x47AA JUMPI POP DUP5 PUSH2 0x47EF JUMP JUMPDEST DUP6 DUP3 GT ISZERO PUSH2 0x47D7 JUMPI PUSH2 0x47BC DUP7 DUP4 PUSH2 0x5A34 JUMP JUMPDEST PUSH2 0x47C6 DUP5 DUP9 PUSH2 0x59EB JUMP JUMPDEST PUSH2 0x47D0 SWAP2 SWAP1 PUSH2 0x5A20 JUMP JUMPDEST SWAP1 POP PUSH2 0x47EF JUMP JUMPDEST PUSH1 0x40 MLOAD PUSH3 0x461BCD PUSH1 0xE5 SHL DUP2 MSTORE PUSH1 0x4 ADD PUSH2 0x1093 SWAP1 PUSH2 0x6032 JUMP JUMPDEST DUP1 PUSH1 0x0 SUB PUSH2 0x4803 JUMPI PUSH1 0x0 SWAP4 POP POP POP POP PUSH2 0xDA1 JUMP JUMPDEST PUSH2 0xDDB DUP2 DUP7 JUMPDEST PUSH1 0x1 PUSH1 0x1 PUSH1 0xA0 SHL SUB DUP2 AND PUSH2 0x4830 JUMPI PUSH1 0x40 MLOAD PUSH4 0xD92E233D PUSH1 0xE0 SHL DUP2 MSTORE PUSH1 0x4 ADD PUSH1 0x40 MLOAD DUP1 SWAP2 SUB SWAP1 REVERT JUMPDEST PUSH1 0x1 PUSH1 0x1 PUSH1 0xA0 SHL SUB DUP2 AND PUSH1 0x0 SWAP1 DUP2 MSTORE PUSH1 0x5 PUSH1 0x20 MSTORE PUSH1 0x40 DUP2 KECCAK256 DUP1 SLOAD DUP5 SWAP3 SWAP1 PUSH2 0x4858 SWAP1 DUP5 SWAP1 PUSH2 0x5A47 JUMP JUMPDEST SWAP3 POP POP DUP2 SWAP1 SSTORE POP DUP2 PUSH1 0x7 PUSH1 0x0 DUP3 DUP3 SLOAD PUSH2 0x4871 SWAP2 SWAP1 PUSH2 0x5A47 JUMP JUMPDEST SWAP1 SWAP2 SSTORE POP POP PUSH1 0x40 MLOAD PUSH1 0x1 PUSH1 0x1 PUSH1 0xA0 SHL SUB DUP3 AND SWAP1 PUSH1 0x0 SWAP1 PUSH1 0x0 DUP1 MLOAD PUSH1 0x20 PUSH2 0x62E0 DUP4 CODECOPY DUP2 MLOAD SWAP2 MSTORE SWAP1 PUSH2 0x3CB3 SWAP1 DUP7 SWAP1 PUSH2 0x5282 JUMP JUMPDEST PUSH1 0x0 PUSH2 0x48AC PUSH2 0x3611 JUMP JUMPDEST SWAP1 POP DUP1 PUSH1 0x0 SUB PUSH2 0x48B9 JUMPI POP JUMP JUMPDEST TIMESTAMP PUSH1 0x14 SLOAD GT ISZERO PUSH2 0x48C8 JUMPI TIMESTAMP PUSH1 0x16 SSTORE JUMPDEST PUSH2 0x2039 DUP2 ADDRESS PUSH2 0x3C08 JUMP JUMPDEST PUSH1 0x0 DUP1 PUSH1 0x0 DUP4 PUSH1 0x1 PUSH1 0x1 PUSH1 0xA0 SHL SUB AND PUSH4 0x70A08231 ADDRESS PUSH1 0x40 MLOAD DUP3 PUSH4 0xFFFFFFFF AND PUSH1 0xE0 SHL DUP2 MSTORE PUSH1 0x4 ADD PUSH2 0x4903 SWAP2 SWAP1 PUSH2 0x526E JUMP JUMPDEST PUSH1 0x20 PUSH1 0x40 MLOAD DUP1 DUP4 SUB DUP2 DUP7 GAS STATICCALL ISZERO DUP1 ISZERO PUSH2 0x4920 JUMPI RETURNDATASIZE PUSH1 0x0 DUP1 RETURNDATACOPY RETURNDATASIZE PUSH1 0x0 REVERT JUMPDEST POP POP POP POP PUSH1 0x40 MLOAD RETURNDATASIZE PUSH1 0x1F NOT PUSH1 0x1F DUP3 ADD AND DUP3 ADD DUP1 PUSH1 0x40 MSTORE POP DUP2 ADD SWAP1 PUSH2 0x4944 SWAP2 SWAP1 PUSH2 0x59B4 JUMP JUMPDEST SWAP1 POP PUSH1 0x0 DUP5 PUSH1 0x1 PUSH1 0x1 PUSH1 0xA0 SHL SUB AND PUSH4 0x7A2D13A DUP4 PUSH1 0x40 MLOAD DUP3 PUSH4 0xFFFFFFFF AND PUSH1 0xE0 SHL DUP2 MSTORE PUSH1 0x4 ADD PUSH2 0x4974 SWAP2 SWAP1 PUSH2 0x5282 JUMP JUMPDEST PUSH1 0x20 PUSH1 0x40 MLOAD DUP1 DUP4 SUB DUP2 DUP7 GAS STATICCALL ISZERO DUP1 ISZERO PUSH2 0x4991 JUMPI RETURNDATASIZE PUSH1 0x0 DUP1 RETURNDATACOPY RETURNDATASIZE PUSH1 0x0 REVERT JUMPDEST POP POP POP POP PUSH1 0x40 MLOAD RETURNDATASIZE PUSH1 0x1F NOT PUSH1 0x1F DUP3 ADD AND DUP3 ADD DUP1 PUSH1 0x40 MSTORE POP DUP2 ADD SWAP1 PUSH2 0x49B5 SWAP2 SWAP1 PUSH2 0x59B4 JUMP JUMPDEST PUSH1 0x1 PUSH1 0x1 PUSH1 0xA0 SHL SUB DUP7 AND PUSH1 0x0 SWAP1 DUP2 MSTORE PUSH1 0x2 PUSH1 0x20 DUP2 SWAP1 MSTORE PUSH1 0x40 DUP3 KECCAK256 ADD SLOAD SWAP2 SWAP3 POP DUP1 DUP3 DUP5 GT ISZERO PUSH2 0x49EE JUMPI PUSH2 0x49E7 DUP4 DUP6 PUSH2 0x5A34 JUMP JUMPDEST SWAP2 POP PUSH2 0x49FB JUMP JUMPDEST PUSH2 0x49F8 DUP5 DUP5 PUSH2 0x5A34 JUMP JUMPDEST SWAP1 POP JUMPDEST SWAP1 SWAP8 SWAP1 SWAP7 POP SWAP5 POP POP POP POP POP JUMP JUMPDEST PUSH2 0x4A10 PUSH2 0x51E1 JUMP JUMPDEST PUSH2 0x4A18 PUSH2 0x51E1 JUMP JUMPDEST PUSH1 0xC SLOAD PUSH1 0x1 PUSH1 0x1 PUSH1 0xA0 SHL SUB AND ISZERO PUSH2 0xF3B JUMPI PUSH1 0xC SLOAD PUSH1 0x40 MLOAD PUSH4 0x921F8A8F PUSH1 0xE0 SHL DUP2 MSTORE PUSH1 0x1 PUSH1 0x1 PUSH1 0xA0 SHL SUB SWAP1 SWAP2 AND SWAP1 PUSH4 0x921F8A8F SWAP1 PUSH2 0x4A5D SWAP1 DUP9 SWAP1 DUP9 SWAP1 DUP9 SWAP1 PUSH1 0x4 ADD PUSH2 0x6042 JUMP JUMPDEST PUSH1 0x40 DUP1 MLOAD DUP1 DUP4 SUB DUP2 PUSH1 0x0 DUP8 GAS CALL ISZERO DUP1 ISZERO PUSH2 0x4A7B JUMPI RETURNDATASIZE PUSH1 0x0 DUP1 RETURNDATACOPY RETURNDATASIZE PUSH1 0x0 REVERT JUMPDEST POP POP POP POP PUSH1 0x40 MLOAD RETURNDATASIZE PUSH1 0x1F NOT PUSH1 0x1F DUP3 ADD AND DUP3 ADD DUP1 PUSH1 0x40 MSTORE POP DUP2 ADD SWAP1 PUSH2 0x4A9F SWAP2 SWAP1 PUSH2 0x605D JUMP JUMPDEST PUSH1 0x20 DUP4 ADD MSTORE DUP1 DUP3 MSTORE ISZERO PUSH2 0xF3B JUMPI PUSH1 0x0 PUSH32 0x0 PUSH1 0x1 PUSH1 0x1 PUSH1 0xA0 SHL SUB AND PUSH4 0x7D3277F PUSH1 0x40 MLOAD DUP2 PUSH4 0xFFFFFFFF AND PUSH1 0xE0 SHL DUP2 MSTORE PUSH1 0x4 ADD PUSH1 0x40 DUP1 MLOAD DUP1 DUP4 SUB DUP2 DUP7 GAS STATICCALL ISZERO DUP1 ISZERO PUSH2 0x4B0B JUMPI RETURNDATASIZE PUSH1 0x0 DUP1 RETURNDATACOPY RETURNDATASIZE PUSH1 0x0 REVERT JUMPDEST POP POP POP POP PUSH1 0x40 MLOAD RETURNDATASIZE PUSH1 0x1F NOT PUSH1 0x1F DUP3 ADD AND DUP3 ADD DUP1 PUSH1 0x40 MSTORE POP DUP2 ADD SWAP1 PUSH2 0x4B2F SWAP2 SWAP1 PUSH2 0x60A5 JUMP JUMPDEST PUSH1 0x1 PUSH1 0x1 PUSH1 0xA0 SHL SUB AND PUSH1 0x60 DUP5 ADD MSTORE SWAP1 POP PUSH2 0xFFFF DUP2 AND ISZERO PUSH2 0x28E1 JUMPI DUP2 MLOAD PUSH2 0x2710 SWAP1 PUSH2 0x4B5E SWAP1 PUSH2 0xFFFF DUP5 AND SWAP1 PUSH2 0x59EB JUMP JUMPDEST PUSH2 0x4B68 SWAP2 SWAP1 PUSH2 0x5A20 JUMP JUMPDEST PUSH1 0x40 DUP4 ADD MSTORE POP SWAP5 SWAP4 POP POP POP POP JUMP JUMPDEST PUSH2 0x4B7E PUSH2 0x5212 JUMP JUMPDEST PUSH2 0x4B86 PUSH2 0x5212 JUMP JUMPDEST PUSH1 0x0 PUSH2 0x4B92 DUP6 DUP8 PUSH2 0x5A47 JUMP JUMPDEST GT ISZERO PUSH2 0xF3B JUMPI PUSH2 0x4BAC PUSH2 0x4BA5 DUP6 DUP8 PUSH2 0x5A47 JUMP JUMPDEST PUSH1 0x1 PUSH2 0x1F81 JUMP JUMPDEST DUP2 MLOAD DUP3 SWAP1 PUSH2 0x4BBB SWAP1 DUP4 SWAP1 PUSH2 0x5A47 JUMP JUMPDEST SWAP1 MSTORE POP DUP4 ISZERO PUSH2 0xF3B JUMPI PUSH2 0x4BD8 PUSH2 0x4BD1 DUP5 DUP7 PUSH2 0x5A34 JUMP JUMPDEST PUSH1 0x0 PUSH2 0x1F81 JUMP JUMPDEST PUSH1 0x20 DUP3 ADD MSTORE DUP3 ISZERO PUSH2 0xF3B JUMPI PUSH2 0x4BEE DUP4 PUSH1 0x0 PUSH2 0x1F81 JUMP JUMPDEST PUSH1 0x40 DUP3 ADD MSTORE SWAP5 SWAP4 POP POP POP POP JUMP JUMPDEST PUSH1 0x0 DUP1 PUSH1 0x0 DUP1 DUP8 PUSH1 0x20 ADD MLOAD GT ISZERO PUSH2 0x4D60 JUMPI PUSH1 0x20 DUP8 ADD MLOAD PUSH1 0xC SLOAD PUSH1 0x40 MLOAD PUSH4 0x70A08231 PUSH1 0xE0 SHL DUP2 MSTORE PUSH2 0x4D03 SWAP3 SWAP2 PUSH2 0x4615 SWAP2 PUSH1 0x1 PUSH1 0x1 PUSH1 0xA0 SHL SUB PUSH32 0x0 DUP2 AND SWAP3 PUSH4 0x70A08231 SWAP3 PUSH2 0x4C6D SWAP3 SWAP2 SWAP1 SWAP2 AND SWAP1 PUSH1 0x4 ADD PUSH2 0x526E JUMP JUMPDEST PUSH1 0x20 PUSH1 0x40 MLOAD DUP1 DUP4 SUB DUP2 DUP7 GAS STATICCALL ISZERO DUP1 ISZERO PUSH2 0x4C8A JUMPI RETURNDATASIZE PUSH1 0x0 DUP1 RETURNDATACOPY RETURNDATASIZE PUSH1 0x0 REVERT JUMPDEST POP POP POP POP PUSH1 0x40 MLOAD RETURNDATASIZE PUSH1 0x1F NOT PUSH1 0x1F DUP3 ADD AND DUP3 ADD DUP1 PUSH1 0x40 MSTORE POP DUP2 ADD SWAP1 PUSH2 0x4CAE SWAP2 SWAP1 PUSH2 0x59B4 JUMP JUMPDEST PUSH1 0xC SLOAD PUSH1 0x40 MLOAD PUSH4 0x6EB1769F PUSH1 0xE1 SHL DUP2 MSTORE PUSH1 0x1 PUSH1 0x1 PUSH1 0xA0 SHL SUB PUSH32 0x0 DUP2 AND SWAP3 PUSH4 0xDD62ED3E SWAP3 PUSH2 0x45D4 SWAP3 SWAP2 SWAP1 SWAP2 AND SWAP1 ADDRESS SWAP1 PUSH1 0x4 ADD PUSH2 0x60D8 JUMP JUMPDEST PUSH1 0x20 DUP9 ADD DUP2 SWAP1 MSTORE PUSH1 0xC SLOAD PUSH2 0x4D44 SWAP2 PUSH32 0x0 SWAP2 PUSH1 0x1 PUSH1 0x1 PUSH1 0xA0 SHL SUB AND SWAP1 ADDRESS SWAP1 PUSH2 0x2A8B JUMP JUMPDEST DUP7 PUSH1 0x20 ADD MLOAD PUSH1 0x9 PUSH1 0x0 DUP3 DUP3 SLOAD PUSH2 0x4D5A SWAP2 SWAP1 PUSH2 0x5A47 JUMP JUMPDEST SWAP1 SWAP2 SSTORE POP POP JUMPDEST DUP6 ISZERO PUSH2 0x4DB0 JUMPI PUSH1 0x1 PUSH1 0x1 PUSH1 0xA0 SHL SUB DUP5 AND PUSH1 0x0 SWAP1 DUP2 MSTORE PUSH1 0x2 PUSH1 0x20 DUP2 SWAP1 MSTORE PUSH1 0x40 DUP3 KECCAK256 ADD DUP1 SLOAD DUP9 SWAP3 SWAP1 PUSH2 0x4D91 SWAP1 DUP5 SWAP1 PUSH2 0x5A47 JUMP JUMPDEST SWAP3 POP POP DUP2 SWAP1 SSTORE POP DUP6 PUSH1 0x8 PUSH1 0x0 DUP3 DUP3 SLOAD PUSH2 0x4DAA SWAP2 SWAP1 PUSH2 0x5A47 JUMP JUMPDEST SWAP1 SWAP2 SSTORE POP POP JUMPDEST PUSH1 0x0 DUP8 PUSH1 0x20 ADD MLOAD DUP8 PUSH2 0x4DC2 SWAP2 SWAP1 PUSH2 0x5A47 JUMP JUMPDEST GT DUP1 ISZERO PUSH2 0x4DD0 JUMPI POP PUSH1 0x13 SLOAD ISZERO ISZERO JUMPDEST ISZERO PUSH2 0x4DF1 JUMPI PUSH2 0x4DEE DUP8 PUSH1 0x20 ADD MLOAD DUP8 PUSH2 0x4DE8 SWAP2 SWAP1 PUSH2 0x5A47 JUMP JUMPDEST ADDRESS PUSH2 0x4758 JUMP JUMPDEST SWAP1 POP JUMPDEST DUP5 ISZERO PUSH2 0x4E41 JUMPI PUSH1 0x1 PUSH1 0x1 PUSH1 0xA0 SHL SUB DUP5 AND PUSH1 0x0 SWAP1 DUP2 MSTORE PUSH1 0x2 PUSH1 0x20 DUP2 SWAP1 MSTORE PUSH1 0x40 DUP3 KECCAK256 ADD DUP1 SLOAD DUP8 SWAP3 SWAP1 PUSH2 0x4E22 SWAP1 DUP5 SWAP1 PUSH2 0x5A34 JUMP JUMPDEST SWAP3 POP POP DUP2 SWAP1 SSTORE POP DUP5 PUSH1 0x8 PUSH1 0x0 DUP3 DUP3 SLOAD PUSH2 0x4E3B SWAP2 SWAP1 PUSH2 0x5A34 JUMP JUMPDEST SWAP1 SWAP2 SSTORE POP POP JUMPDEST ADDRESS PUSH1 0x0 SWAP1 DUP2 MSTORE PUSH1 0x5 PUSH1 0x20 MSTORE PUSH1 0x40 DUP2 KECCAK256 SLOAD PUSH2 0x4E5C SWAP1 DUP4 SWAP1 PUSH2 0x5A34 JUMP JUMPDEST DUP10 MLOAD SWAP1 SWAP2 POP ISZERO PUSH2 0x4EBD JUMPI DUP9 MLOAD PUSH2 0x4E76 SWAP1 PUSH2 0x4615 DUP5 DUP5 PUSH2 0x5A47 JUMP JUMPDEST DUP1 DUP11 MSTORE PUSH2 0x4E83 SWAP1 ADDRESS PUSH2 0x3C08 JUMP JUMPDEST PUSH1 0x0 PUSH2 0x4E93 DUP11 PUSH1 0x0 ADD MLOAD DUP5 PUSH2 0x28EA JUMP JUMPDEST SWAP1 POP PUSH2 0x4E9F DUP2 DUP5 PUSH2 0x5A34 JUMP JUMPDEST DUP11 MLOAD SWAP1 SWAP4 POP PUSH2 0x4EAF SWAP1 DUP3 SWAP1 PUSH2 0x5A34 JUMP JUMPDEST PUSH2 0x4EB9 SWAP1 DUP4 PUSH2 0x5A34 JUMP JUMPDEST SWAP2 POP POP JUMPDEST PUSH1 0x20 DUP10 ADD MLOAD ISZERO PUSH2 0x4EE2 JUMPI PUSH1 0x20 DUP10 ADD MLOAD PUSH1 0xC SLOAD PUSH2 0x4EE2 SWAP2 SWAP1 PUSH1 0x1 PUSH1 0x1 PUSH1 0xA0 SHL SUB AND PUSH2 0x4809 JUMP JUMPDEST PUSH1 0x40 DUP10 ADD MLOAD ISZERO PUSH2 0x4EFE JUMPI PUSH2 0x4EFE DUP10 PUSH1 0x40 ADD MLOAD DUP10 PUSH1 0x60 ADD MLOAD PUSH2 0x4809 JUMP JUMPDEST SWAP9 SWAP1 SWAP8 POP SWAP6 POP POP POP POP POP POP JUMP JUMPDEST PUSH1 0x0 PUSH2 0x4F17 DUP3 DUP5 PUSH2 0x5A47 JUMP JUMPDEST SWAP1 POP DUP1 ISZERO PUSH2 0x4FA2 JUMPI PUSH1 0x0 TIMESTAMP PUSH1 0x14 SLOAD GT ISZERO PUSH2 0x4F46 JUMPI TIMESTAMP PUSH1 0x14 SLOAD PUSH2 0x4F39 SWAP2 SWAP1 PUSH2 0x5A34 JUMP JUMPDEST PUSH2 0x4F43 SWAP1 DUP6 PUSH2 0x59EB JUMP JUMPDEST SWAP1 POP JUMPDEST PUSH1 0x0 DUP3 PUSH1 0x13 SLOAD DUP6 PUSH2 0x4F57 SWAP2 SWAP1 PUSH2 0x59EB JUMP JUMPDEST PUSH2 0x4F61 SWAP1 DUP5 PUSH2 0x5A47 JUMP JUMPDEST PUSH2 0x4F6B SWAP2 SWAP1 PUSH2 0x5A20 JUMP JUMPDEST SWAP1 POP DUP1 PUSH2 0x4F7D PUSH5 0xE8D4A51000 DUP6 PUSH2 0x59EB JUMP JUMPDEST PUSH2 0x4F87 SWAP2 SWAP1 PUSH2 0x5A20 JUMP JUMPDEST PUSH1 0x15 SSTORE PUSH2 0x4F94 DUP2 TIMESTAMP PUSH2 0x5A47 JUMP JUMPDEST PUSH1 0x14 SSTORE POP POP TIMESTAMP PUSH1 0x16 SSTORE POP POP POP JUMP JUMPDEST PUSH1 0x0 PUSH1 0x15 SSTORE POP POP POP JUMP JUMPDEST PUSH1 0x60 PUSH2 0xDA1 PUSH1 0x1 PUSH1 0x1 PUSH1 0xA0 SHL SUB DUP4 AND PUSH1 0x14 JUMPDEST PUSH1 0x60 PUSH1 0x0 PUSH2 0x4FCD DUP4 PUSH1 0x2 PUSH2 0x59EB JUMP JUMPDEST PUSH2 0x4FD8 SWAP1 PUSH1 0x2 PUSH2 0x5A47 JUMP JUMPDEST PUSH1 0x1 PUSH1 0x1 PUSH1 0x40 SHL SUB DUP2 GT ISZERO PUSH2 0x4FEF JUMPI PUSH2 0x4FEF PUSH2 0x5318 JUMP JUMPDEST PUSH1 0x40 MLOAD SWAP1 DUP1 DUP3 MSTORE DUP1 PUSH1 0x1F ADD PUSH1 0x1F NOT AND PUSH1 0x20 ADD DUP3 ADD PUSH1 0x40 MSTORE DUP1 ISZERO PUSH2 0x5019 JUMPI PUSH1 0x20 DUP3 ADD DUP2 DUP1 CALLDATASIZE DUP4 CALLDATACOPY ADD SWAP1 POP JUMPDEST POP SWAP1 POP PUSH1 0x3 PUSH1 0xFC SHL DUP2 PUSH1 0x0 DUP2 MLOAD DUP2 LT PUSH2 0x5034 JUMPI PUSH2 0x5034 PUSH2 0x5A5A JUMP JUMPDEST PUSH1 0x20 ADD ADD SWAP1 PUSH1 0x1 PUSH1 0x1 PUSH1 0xF8 SHL SUB NOT AND SWAP1 DUP2 PUSH1 0x0 BYTE SWAP1 MSTORE8 POP PUSH1 0xF PUSH1 0xFB SHL DUP2 PUSH1 0x1 DUP2 MLOAD DUP2 LT PUSH2 0x5063 JUMPI PUSH2 0x5063 PUSH2 0x5A5A JUMP JUMPDEST PUSH1 0x20 ADD ADD SWAP1 PUSH1 0x1 PUSH1 0x1 PUSH1 0xF8 SHL SUB NOT AND SWAP1 DUP2 PUSH1 0x0 BYTE SWAP1 MSTORE8 POP PUSH1 0x0 PUSH2 0x5087 DUP5 PUSH1 0x2 PUSH2 0x59EB JUMP JUMPDEST PUSH2 0x5092 SWAP1 PUSH1 0x1 PUSH2 0x5A47 JUMP JUMPDEST SWAP1 POP JUMPDEST PUSH1 0x1 DUP2 GT ISZERO PUSH2 0x510A JUMPI PUSH16 0x181899199A1A9B1B9C1CB0B131B232B3 PUSH1 0x81 SHL DUP6 PUSH1 0xF AND PUSH1 0x10 DUP2 LT PUSH2 0x50C6 JUMPI PUSH2 0x50C6 PUSH2 0x5A5A JUMP JUMPDEST BYTE PUSH1 0xF8 SHL DUP3 DUP3 DUP2 MLOAD DUP2 LT PUSH2 0x50DC JUMPI PUSH2 0x50DC PUSH2 0x5A5A JUMP JUMPDEST PUSH1 0x20 ADD ADD SWAP1 PUSH1 0x1 PUSH1 0x1 PUSH1 0xF8 SHL SUB NOT AND SWAP1 DUP2 PUSH1 0x0 BYTE SWAP1 MSTORE8 POP PUSH1 0x4 SWAP5 SWAP1 SWAP5 SHR SWAP4 PUSH2 0x5103 DUP2 PUSH2 0x60E6 JUMP JUMPDEST SWAP1 POP PUSH2 0x5095 JUMP JUMPDEST POP DUP4 ISZERO PUSH2 0xE8C JUMPI PUSH1 0x40 MLOAD PUSH3 0x461BCD PUSH1 0xE5 SHL DUP2 MSTORE PUSH1 0x4 ADD PUSH2 0x1093 SWAP1 PUSH2 0x612F JUMP JUMPDEST DUP3 DUP1 SLOAD DUP3 DUP3 SSTORE SWAP1 PUSH1 0x0 MSTORE PUSH1 0x20 PUSH1 0x0 KECCAK256 SWAP1 DUP2 ADD SWAP3 DUP3 ISZERO PUSH2 0x517C JUMPI SWAP2 PUSH1 0x20 MUL DUP3 ADD JUMPDEST DUP3 DUP2 GT ISZERO PUSH2 0x517C JUMPI DUP2 SLOAD PUSH1 0x1 PUSH1 0x1 PUSH1 0xA0 SHL SUB NOT AND PUSH1 0x1 PUSH1 0x1 PUSH1 0xA0 SHL SUB DUP5 CALLDATALOAD AND OR DUP3 SSTORE PUSH1 0x20 SWAP1 SWAP3 ADD SWAP2 PUSH1 0x1 SWAP1 SWAP2 ADD SWAP1 PUSH2 0x5149 JUMP JUMPDEST POP PUSH2 0x5188 SWAP3 SWAP2 POP PUSH2 0x5233 JUMP JUMPDEST POP SWAP1 JUMP JUMPDEST DUP3 DUP1 SLOAD DUP3 DUP3 SSTORE SWAP1 PUSH1 0x0 MSTORE PUSH1 0x20 PUSH1 0x0 KECCAK256 SWAP1 DUP2 ADD SWAP3 DUP3 ISZERO PUSH2 0x517C JUMPI SWAP2 PUSH1 0x20 MUL DUP3 ADD JUMPDEST DUP3 DUP2 GT ISZERO PUSH2 0x517C JUMPI DUP3 MLOAD DUP3 SLOAD PUSH1 0x1 PUSH1 0x1 PUSH1 0xA0 SHL SUB NOT AND PUSH1 0x1 PUSH1 0x1 PUSH1 0xA0 SHL SUB SWAP1 SWAP2 AND OR DUP3 SSTORE PUSH1 0x20 SWAP1 SWAP3 ADD SWAP2 PUSH1 0x1 SWAP1 SWAP2 ADD SWAP1 PUSH2 0x51AC JUMP JUMPDEST PUSH1 0x40 MLOAD DUP1 PUSH1 0x80 ADD PUSH1 0x40 MSTORE DUP1 PUSH1 0x0 DUP2 MSTORE PUSH1 0x20 ADD PUSH1 0x0 DUP2 MSTORE PUSH1 0x20 ADD PUSH1 0x0 DUP2 MSTORE PUSH1 0x20 ADD PUSH1 0x0 PUSH1 0x1 PUSH1 0x1 PUSH1 0xA0 SHL SUB AND DUP2 MSTORE POP SWAP1 JUMP JUMPDEST PUSH1 0x40 MLOAD DUP1 PUSH1 0x60 ADD PUSH1 0x40 MSTORE DUP1 PUSH1 0x0 DUP2 MSTORE PUSH1 0x20 ADD PUSH1 0x0 DUP2 MSTORE PUSH1 0x20 ADD PUSH1 0x0 DUP2 MSTORE POP SWAP1 JUMP JUMPDEST JUMPDEST DUP1 DUP3 GT ISZERO PUSH2 0x5188 JUMPI PUSH1 0x0 DUP2 SSTORE PUSH1 0x1 ADD PUSH2 0x5234 JUMP JUMPDEST PUSH1 0x1 PUSH1 0x1 PUSH1 0xA0 SHL SUB AND SWAP1 JUMP JUMPDEST PUSH1 0x0 PUSH2 0xDA1 DUP3 PUSH2 0x5248 JUMP JUMPDEST PUSH2 0x5268 DUP2 PUSH2 0x5254 JUMP JUMPDEST DUP3 MSTORE POP POP JUMP JUMPDEST PUSH1 0x20 DUP2 ADD PUSH2 0xDA1 DUP3 DUP5 PUSH2 0x525F JUMP JUMPDEST DUP1 PUSH2 0x5268 JUMP JUMPDEST PUSH1 0x20 DUP2 ADD PUSH2 0xDA1 DUP3 DUP5 PUSH2 0x527C JUMP JUMPDEST PUSH1 0x1 PUSH1 0x1 PUSH1 0xE0 SHL SUB NOT DUP2 AND JUMPDEST DUP2 EQ PUSH2 0x2039 JUMPI PUSH1 0x0 DUP1 REVERT JUMPDEST DUP1 CALLDATALOAD PUSH2 0xDA1 DUP2 PUSH2 0x5290 JUMP JUMPDEST PUSH1 0x0 PUSH1 0x20 DUP3 DUP5 SUB SLT ISZERO PUSH2 0x52C7 JUMPI PUSH2 0x52C7 PUSH1 0x0 DUP1 REVERT JUMPDEST PUSH1 0x0 PUSH2 0xF3B DUP5 DUP5 PUSH2 0x52A7 JUMP JUMPDEST DUP1 ISZERO ISZERO PUSH2 0x5268 JUMP JUMPDEST PUSH1 0x20 DUP2 ADD PUSH2 0xDA1 DUP3 DUP5 PUSH2 0x52D3 JUMP JUMPDEST DUP1 PUSH2 0x529C JUMP JUMPDEST DUP1 CALLDATALOAD PUSH2 0xDA1 DUP2 PUSH2 0x52E9 JUMP JUMPDEST PUSH2 0x529C DUP2 PUSH2 0x5254 JUMP JUMPDEST DUP1 CALLDATALOAD PUSH2 0xDA1 DUP2 PUSH2 0x52FA JUMP JUMPDEST PUSH1 0x1F ADD PUSH1 0x1F NOT AND SWAP1 JUMP JUMPDEST PUSH4 0x4E487B71 PUSH1 0xE0 SHL PUSH1 0x0 MSTORE PUSH1 0x41 PUSH1 0x4 MSTORE PUSH1 0x24 PUSH1 0x0 REVERT JUMPDEST PUSH2 0x5337 DUP3 PUSH2 0x530E JUMP JUMPDEST DUP2 ADD DUP2 DUP2 LT PUSH1 0x1 PUSH1 0x1 PUSH1 0x40 SHL SUB DUP3 GT OR ISZERO PUSH2 0x5354 JUMPI PUSH2 0x5354 PUSH2 0x5318 JUMP JUMPDEST PUSH1 0x40 MSTORE POP POP JUMP JUMPDEST PUSH1 0x0 PUSH2 0x5366 PUSH1 0x40 MLOAD SWAP1 JUMP JUMPDEST SWAP1 POP PUSH2 0x5372 DUP3 DUP3 PUSH2 0x532E JUMP JUMPDEST SWAP2 SWAP1 POP JUMP JUMPDEST PUSH1 0x0 PUSH1 0x1 PUSH1 0x1 PUSH1 0x40 SHL SUB DUP3 GT ISZERO PUSH2 0x5390 JUMPI PUSH2 0x5390 PUSH2 0x5318 JUMP JUMPDEST POP PUSH1 0x20 SWAP1 DUP2 MUL ADD SWAP1 JUMP JUMPDEST PUSH1 0x0 PUSH2 0x53AD PUSH2 0x53A8 DUP5 PUSH2 0x5377 JUMP JUMPDEST PUSH2 0x535B JUMP JUMPDEST DUP4 DUP2 MSTORE SWAP1 POP PUSH1 0x20 DUP1 DUP3 ADD SWAP1 DUP5 MUL DUP4 ADD DUP6 DUP2 GT ISZERO PUSH2 0x53CC JUMPI PUSH2 0x53CC PUSH1 0x0 DUP1 REVERT JUMPDEST DUP4 JUMPDEST DUP2 DUP2 LT ISZERO PUSH2 0x53F0 JUMPI DUP1 PUSH2 0x53E1 DUP9 DUP3 PUSH2 0x5303 JUMP JUMPDEST DUP5 MSTORE POP PUSH1 0x20 SWAP3 DUP4 ADD SWAP3 ADD PUSH2 0x53CE JUMP JUMPDEST POP POP POP SWAP4 SWAP3 POP POP POP JUMP JUMPDEST PUSH1 0x0 DUP3 PUSH1 0x1F DUP4 ADD SLT PUSH2 0x540E JUMPI PUSH2 0x540E PUSH1 0x0 DUP1 REVERT JUMPDEST DUP2 CALLDATALOAD PUSH2 0xF3B DUP5 DUP3 PUSH1 0x20 DUP7 ADD PUSH2 0x539A JUMP JUMPDEST PUSH1 0x0 DUP1 PUSH1 0x0 DUP1 PUSH1 0x0 PUSH1 0xA0 DUP7 DUP9 SUB SLT ISZERO PUSH2 0x5439 JUMPI PUSH2 0x5439 PUSH1 0x0 DUP1 REVERT JUMPDEST PUSH1 0x0 PUSH2 0x5445 DUP9 DUP9 PUSH2 0x52EF JUMP JUMPDEST SWAP6 POP POP PUSH1 0x20 PUSH2 0x5456 DUP9 DUP3 DUP10 ADD PUSH2 0x5303 JUMP JUMPDEST SWAP5 POP POP PUSH1 0x40 PUSH2 0x5467 DUP9 DUP3 DUP10 ADD PUSH2 0x5303 JUMP JUMPDEST SWAP4 POP POP PUSH1 0x60 PUSH2 0x5478 DUP9 DUP3 DUP10 ADD PUSH2 0x52EF JUMP JUMPDEST SWAP3 POP POP PUSH1 0x80 DUP7 ADD CALLDATALOAD PUSH1 0x1 PUSH1 0x1 PUSH1 0x40 SHL SUB DUP2 GT ISZERO PUSH2 0x5497 JUMPI PUSH2 0x5497 PUSH1 0x0 DUP1 REVERT JUMPDEST PUSH2 0x54A3 DUP9 DUP3 DUP10 ADD PUSH2 0x53FA JUMP JUMPDEST SWAP2 POP POP SWAP3 SWAP6 POP SWAP3 SWAP6 SWAP1 SWAP4 POP JUMP JUMPDEST PUSH1 0x0 JUMPDEST DUP4 DUP2 LT ISZERO PUSH2 0x54CB JUMPI DUP2 DUP2 ADD MLOAD DUP4 DUP3 ADD MSTORE PUSH1 0x20 ADD PUSH2 0x54B3 JUMP JUMPDEST POP POP PUSH1 0x0 SWAP2 ADD MSTORE JUMP JUMPDEST PUSH1 0x0 PUSH2 0x54DE DUP3 MLOAD SWAP1 JUMP JUMPDEST DUP1 DUP5 MSTORE PUSH1 0x20 DUP5 ADD SWAP4 POP PUSH2 0x54F5 DUP2 DUP6 PUSH1 0x20 DUP7 ADD PUSH2 0x54B0 JUMP JUMPDEST PUSH2 0x54FE DUP2 PUSH2 0x530E JUMP JUMPDEST SWAP1 SWAP4 ADD SWAP4 SWAP3 POP POP POP JUMP JUMPDEST PUSH1 0x20 DUP1 DUP3 MSTORE DUP2 ADD PUSH2 0xE8C DUP2 DUP5 PUSH2 0x54D4 JUMP JUMPDEST PUSH1 0x0 PUSH1 0x20 DUP3 DUP5 SUB SLT ISZERO PUSH2 0x552E JUMPI PUSH2 0x552E PUSH1 0x0 DUP1 REVERT JUMPDEST PUSH1 0x0 PUSH2 0xF3B DUP5 DUP5 PUSH2 0x52EF JUMP JUMPDEST PUSH1 0x0 DUP1 PUSH1 0x40 DUP4 DUP6 SUB SLT ISZERO PUSH2 0x5550 JUMPI PUSH2 0x5550 PUSH1 0x0 DUP1 REVERT JUMPDEST PUSH1 0x0 PUSH2 0x555C DUP6 DUP6 PUSH2 0x5303 JUMP JUMPDEST SWAP3 POP POP PUSH1 0x20 PUSH2 0x556D DUP6 DUP3 DUP7 ADD PUSH2 0x52EF JUMP JUMPDEST SWAP2 POP POP SWAP3 POP SWAP3 SWAP1 POP JUMP JUMPDEST PUSH1 0x0 PUSH1 0x20 DUP3 DUP5 SUB SLT ISZERO PUSH2 0x558C JUMPI PUSH2 0x558C PUSH1 0x0 DUP1 REVERT JUMPDEST PUSH1 0x0 PUSH2 0xF3B DUP5 DUP5 PUSH2 0x5303 JUMP JUMPDEST PUSH1 0x0 DUP1 PUSH1 0x0 PUSH1 0x60 DUP5 DUP7 SUB SLT ISZERO PUSH2 0x55B0 JUMPI PUSH2 0x55B0 PUSH1 0x0 DUP1 REVERT JUMPDEST PUSH1 0x0 PUSH2 0x55BC DUP7 DUP7 PUSH2 0x5303 JUMP JUMPDEST SWAP4 POP POP PUSH1 0x20 PUSH2 0x55CD DUP7 DUP3 DUP8 ADD PUSH2 0x5303 JUMP JUMPDEST SWAP3 POP POP PUSH1 0x40 PUSH2 0x55DE DUP7 DUP3 DUP8 ADD PUSH2 0x52EF JUMP JUMPDEST SWAP2 POP POP SWAP3 POP SWAP3 POP SWAP3 JUMP JUMPDEST PUSH1 0x0 DUP1 PUSH1 0x40 DUP4 DUP6 SUB SLT ISZERO PUSH2 0x55FE JUMPI PUSH2 0x55FE PUSH1 0x0 DUP1 REVERT JUMPDEST PUSH1 0x0 PUSH2 0x560A DUP6 DUP6 PUSH2 0x52EF JUMP JUMPDEST SWAP3 POP POP PUSH1 0x20 PUSH2 0x556D DUP6 DUP3 DUP7 ADD PUSH2 0x5303 JUMP JUMPDEST PUSH1 0xFF DUP2 AND PUSH2 0x5268 JUMP JUMPDEST PUSH1 0x20 DUP2 ADD PUSH2 0xDA1 DUP3 DUP5 PUSH2 0x561B JUMP JUMPDEST PUSH1 0x0 DUP1 PUSH1 0x0 PUSH1 0x60 DUP5 DUP7 SUB SLT ISZERO PUSH2 0x564A JUMPI PUSH2 0x564A PUSH1 0x0 DUP1 REVERT JUMPDEST PUSH1 0x0 PUSH2 0x5656 DUP7 DUP7 PUSH2 0x5303 JUMP JUMPDEST SWAP4 POP POP PUSH1 0x20 PUSH2 0x5667 DUP7 DUP3 DUP8 ADD PUSH2 0x52EF JUMP JUMPDEST SWAP3 POP POP PUSH1 0x40 DUP5 ADD CALLDATALOAD PUSH1 0x1 PUSH1 0x1 PUSH1 0x40 SHL SUB DUP2 GT ISZERO PUSH2 0x5686 JUMPI PUSH2 0x5686 PUSH1 0x0 DUP1 REVERT JUMPDEST PUSH2 0x55DE DUP7 DUP3 DUP8 ADD PUSH2 0x53FA JUMP JUMPDEST PUSH1 0x80 DUP2 ADD PUSH2 0x56A0 DUP3 DUP8 PUSH2 0x527C JUMP JUMPDEST PUSH2 0x56AD PUSH1 0x20 DUP4 ADD DUP7 PUSH2 0x527C JUMP JUMPDEST PUSH2 0x56BA PUSH1 0x40 DUP4 ADD DUP6 PUSH2 0x527C JUMP JUMPDEST PUSH2 0xDDB PUSH1 0x60 DUP4 ADD DUP5 PUSH2 0x527C JUMP JUMPDEST PUSH1 0x0 PUSH2 0xDA1 PUSH2 0x56DB PUSH2 0x56D8 DUP5 PUSH2 0x5248 JUMP JUMPDEST SWAP1 JUMP JUMPDEST PUSH2 0x5248 JUMP JUMPDEST PUSH1 0x0 PUSH2 0xDA1 DUP3 PUSH2 0x56C7 JUMP JUMPDEST PUSH1 0x0 PUSH2 0xDA1 DUP3 PUSH2 0x56E0 JUMP JUMPDEST PUSH2 0x5268 DUP2 PUSH2 0x56EB JUMP JUMPDEST PUSH1 0x20 DUP2 ADD PUSH2 0xDA1 DUP3 DUP5 PUSH2 0x56F6 JUMP JUMPDEST PUSH1 0x0 DUP1 DUP4 PUSH1 0x1F DUP5 ADD SLT PUSH2 0x5722 JUMPI PUSH2 0x5722 PUSH1 0x0 DUP1 REVERT JUMPDEST POP DUP2 CALLDATALOAD PUSH1 0x1 PUSH1 0x1 PUSH1 0x40 SHL SUB DUP2 GT ISZERO PUSH2 0x573C JUMPI PUSH2 0x573C PUSH1 0x0 DUP1 REVERT JUMPDEST PUSH1 0x20 DUP4 ADD SWAP2 POP DUP4 PUSH1 0x20 DUP3 MUL DUP4 ADD GT ISZERO PUSH2 0x43D4 JUMPI PUSH2 0x43D4 PUSH1 0x0 DUP1 REVERT JUMPDEST PUSH1 0x0 DUP1 PUSH1 0x20 DUP4 DUP6 SUB SLT ISZERO PUSH2 0x576D JUMPI PUSH2 0x576D PUSH1 0x0 DUP1 REVERT JUMPDEST DUP3 CALLDATALOAD PUSH1 0x1 PUSH1 0x1 PUSH1 0x40 SHL SUB DUP2 GT ISZERO PUSH2 0x5786 JUMPI PUSH2 0x5786 PUSH1 0x0 DUP1 REVERT JUMPDEST PUSH2 0x5792 DUP6 DUP3 DUP7 ADD PUSH2 0x570D JUMP JUMPDEST SWAP3 POP SWAP3 POP POP SWAP3 POP SWAP3 SWAP1 POP JUMP JUMPDEST PUSH4 0x4E487B71 PUSH1 0xE0 SHL PUSH1 0x0 MSTORE PUSH1 0x21 PUSH1 0x4 MSTORE PUSH1 0x24 PUSH1 0x0 REVERT JUMPDEST PUSH1 0xE DUP2 LT PUSH2 0x2039 JUMPI PUSH2 0x2039 PUSH2 0x579E JUMP JUMPDEST DUP1 PUSH2 0x5372 DUP2 PUSH2 0x57B4 JUMP JUMPDEST PUSH1 0x0 PUSH2 0xDA1 DUP3 PUSH2 0x57C4 JUMP JUMPDEST PUSH2 0x5268 DUP2 PUSH2 0x57CE JUMP JUMPDEST PUSH1 0x20 DUP2 ADD PUSH2 0xDA1 DUP3 DUP5 PUSH2 0x57D9 JUMP JUMPDEST DUP1 ISZERO ISZERO PUSH2 0x529C JUMP JUMPDEST DUP1 CALLDATALOAD PUSH2 0xDA1 DUP2 PUSH2 0x57F0 JUMP JUMPDEST PUSH1 0x0 PUSH1 0x20 DUP3 DUP5 SUB SLT ISZERO PUSH2 0x5818 JUMPI PUSH2 0x5818 PUSH1 0x0 DUP1 REVERT JUMPDEST PUSH1 0x0 PUSH2 0xF3B DUP5 DUP5 PUSH2 0x57F8 JUMP JUMPDEST PUSH1 0x40 DUP2 ADD PUSH2 0x5832 DUP3 DUP6 PUSH2 0x527C JUMP JUMPDEST PUSH2 0xE8C PUSH1 0x20 DUP4 ADD DUP5 PUSH2 0x527C JUMP JUMPDEST PUSH1 0xFF DUP2 AND PUSH2 0x529C JUMP JUMPDEST DUP1 CALLDATALOAD PUSH2 0xDA1 DUP2 PUSH2 0x583F JUMP JUMPDEST PUSH1 0x0 DUP1 PUSH1 0x0 DUP1 PUSH1 0x0 DUP1 PUSH1 0x0 PUSH1 0xE0 DUP9 DUP11 SUB SLT ISZERO PUSH2 0x5871 JUMPI PUSH2 0x5871 PUSH1 0x0 DUP1 REVERT JUMPDEST PUSH1 0x0 PUSH2 0x587D DUP11 DUP11 PUSH2 0x5303 JUMP JUMPDEST SWAP8 POP POP PUSH1 0x20 PUSH2 0x588E DUP11 DUP3 DUP12 ADD PUSH2 0x5303 JUMP JUMPDEST SWAP7 POP POP PUSH1 0x40 PUSH2 0x589F DUP11 DUP3 DUP12 ADD PUSH2 0x52EF JUMP JUMPDEST SWAP6 POP POP PUSH1 0x60 PUSH2 0x58B0 DUP11 DUP3 DUP12 ADD PUSH2 0x52EF JUMP JUMPDEST SWAP5 POP POP PUSH1 0x80 PUSH2 0x58C1 DUP11 DUP3 DUP12 ADD PUSH2 0x5848 JUMP JUMPDEST SWAP4 POP POP PUSH1 0xA0 PUSH2 0x58D2 DUP11 DUP3 DUP12 ADD PUSH2 0x52EF JUMP JUMPDEST SWAP3 POP POP PUSH1 0xC0 PUSH2 0x58E3 DUP11 DUP3 DUP12 ADD PUSH2 0x52EF JUMP JUMPDEST SWAP2 POP POP SWAP3 SWAP6 SWAP9 SWAP2 SWAP5 SWAP8 POP SWAP3 SWAP6 POP JUMP JUMPDEST PUSH1 0x0 DUP1 PUSH1 0x40 DUP4 DUP6 SUB SLT ISZERO PUSH2 0x5908 JUMPI PUSH2 0x5908 PUSH1 0x0 DUP1 REVERT JUMPDEST PUSH1 0x0 PUSH2 0x560A DUP6 DUP6 PUSH2 0x5303 JUMP JUMPDEST PUSH4 0x4E487B71 PUSH1 0xE0 SHL PUSH1 0x0 MSTORE PUSH1 0x22 PUSH1 0x4 MSTORE PUSH1 0x24 PUSH1 0x0 REVERT JUMPDEST PUSH1 0x2 DUP2 DIV PUSH1 0x1 DUP3 AND DUP1 PUSH2 0x593E JUMPI PUSH1 0x7F DUP3 AND SWAP2 POP JUMPDEST PUSH1 0x20 DUP3 LT DUP2 SUB PUSH2 0x5950 JUMPI PUSH2 0x5950 PUSH2 0x5914 JUMP JUMPDEST POP SWAP2 SWAP1 POP JUMP JUMPDEST PUSH1 0x20 DUP1 DUP3 MSTORE DUP2 ADD PUSH2 0xDA1 DUP2 PUSH1 0x2F DUP2 MSTORE PUSH32 0x416363657373436F6E74726F6C3A2063616E206F6E6C792072656E6F756E6365 PUSH1 0x20 DUP3 ADD MSTORE PUSH15 0x103937B632B9903337B91039B2B633 PUSH1 0x89 SHL PUSH1 0x40 DUP3 ADD MSTORE PUSH1 0x60 ADD SWAP1 JUMP JUMPDEST DUP1 MLOAD PUSH2 0xDA1 DUP2 PUSH2 0x52E9 JUMP JUMPDEST PUSH1 0x0 PUSH1 0x20 DUP3 DUP5 SUB SLT ISZERO PUSH2 0x59C9 JUMPI PUSH2 0x59C9 PUSH1 0x0 DUP1 REVERT JUMPDEST PUSH1 0x0 PUSH2 0xF3B DUP5 DUP5 PUSH2 0x59A9 JUMP JUMPDEST PUSH4 0x4E487B71 PUSH1 0xE0 SHL PUSH1 0x0 MSTORE PUSH1 0x11 PUSH1 0x4 MSTORE PUSH1 0x24 PUSH1 0x0 REVERT JUMPDEST PUSH1 0x0 DUP2 PUSH1 0x0 NOT DIV DUP4 GT DUP3 ISZERO ISZERO AND ISZERO PUSH2 0x5A05 JUMPI PUSH2 0x5A05 PUSH2 0x59D5 JUMP JUMPDEST POP MUL SWAP1 JUMP JUMPDEST PUSH4 0x4E487B71 PUSH1 0xE0 SHL PUSH1 0x0 MSTORE PUSH1 0x12 PUSH1 0x4 MSTORE PUSH1 0x24 PUSH1 0x0 REVERT JUMPDEST PUSH1 0x0 DUP3 PUSH2 0x5A2F JUMPI PUSH2 0x5A2F PUSH2 0x5A0A JUMP JUMPDEST POP DIV SWAP1 JUMP JUMPDEST DUP2 DUP2 SUB DUP2 DUP2 GT ISZERO PUSH2 0xDA1 JUMPI PUSH2 0xDA1 PUSH2 0x59D5 JUMP JUMPDEST DUP1 DUP3 ADD DUP1 DUP3 GT ISZERO PUSH2 0xDA1 JUMPI PUSH2 0xDA1 PUSH2 0x59D5 JUMP JUMPDEST PUSH4 0x4E487B71 PUSH1 0xE0 SHL PUSH1 0x0 MSTORE PUSH1 0x32 PUSH1 0x4 MSTORE PUSH1 0x24 PUSH1 0x0 REVERT JUMPDEST PUSH1 0x0 PUSH1 0x0 NOT DUP3 SUB PUSH2 0x5A83 JUMPI PUSH2 0x5A83 PUSH2 0x59D5 JUMP JUMPDEST POP PUSH1 0x1 ADD SWAP1 JUMP JUMPDEST PUSH1 0x0 PUSH2 0x5A96 DUP4 DUP4 PUSH2 0x525F JUMP JUMPDEST POP POP PUSH1 0x20 ADD SWAP1 JUMP JUMPDEST PUSH1 0x0 PUSH2 0xE8C PUSH1 0x20 DUP5 ADD DUP5 PUSH2 0x5303 JUMP JUMPDEST DUP2 DUP4 MSTORE PUSH1 0x0 PUSH1 0x20 DUP5 ADD SWAP4 POP DUP2 DUP1 PUSH1 0x0 JUMPDEST DUP6 DUP2 LT ISZERO PUSH2 0x5AEA JUMPI PUSH2 0x5ACF DUP3 DUP5 PUSH2 0x5A9E JUMP JUMPDEST PUSH2 0x5AD9 DUP9 DUP3 PUSH2 0x5A8A JUMP JUMPDEST SWAP8 POP PUSH1 0x20 DUP4 ADD SWAP3 POP POP PUSH1 0x1 ADD PUSH2 0x5ABD JUMP JUMPDEST POP SWAP5 SWAP6 SWAP5 POP POP POP POP POP JUMP JUMPDEST PUSH1 0x20 DUP1 DUP3 MSTORE DUP2 ADD PUSH2 0xF3B DUP2 DUP5 DUP7 PUSH2 0x5AAD JUMP JUMPDEST DUP1 DUP3 JUMPDEST PUSH1 0x1 DUP6 GT ISZERO PUSH2 0x5B46 JUMPI DUP1 DUP7 DIV DUP2 GT ISZERO PUSH2 0x5B25 JUMPI PUSH2 0x5B25 PUSH2 0x59D5 JUMP JUMPDEST PUSH1 0x1 DUP6 AND ISZERO PUSH2 0x5B33 JUMPI SWAP1 DUP2 MUL SWAP1 JUMPDEST DUP1 MUL PUSH2 0x5B3F DUP6 PUSH1 0x1 SHR SWAP1 JUMP JUMPDEST SWAP5 POP PUSH2 0x5B0A JUMP JUMPDEST SWAP5 POP SWAP5 SWAP3 POP POP POP JUMP JUMPDEST PUSH1 0x0 DUP3 PUSH2 0x5B5E JUMPI POP PUSH1 0x1 PUSH2 0xE8C JUMP JUMPDEST DUP2 PUSH2 0x5B6B JUMPI POP PUSH1 0x0 PUSH2 0xE8C JUMP JUMPDEST DUP2 PUSH1 0x1 DUP2 EQ PUSH2 0x5B81 JUMPI PUSH1 0x2 DUP2 EQ PUSH2 0x5B8B JUMPI PUSH2 0x5BB8 JUMP JUMPDEST PUSH1 0x1 SWAP2 POP POP PUSH2 0xE8C JUMP JUMPDEST PUSH1 0xFF DUP5 GT ISZERO PUSH2 0x5B9C JUMPI PUSH2 0x5B9C PUSH2 0x59D5 JUMP JUMPDEST DUP4 PUSH1 0x2 EXP SWAP2 POP DUP5 DUP3 GT ISZERO PUSH2 0x5BB2 JUMPI PUSH2 0x5BB2 PUSH2 0x59D5 JUMP JUMPDEST POP PUSH2 0xE8C JUMP JUMPDEST POP PUSH1 0x20 DUP4 LT PUSH2 0x133 DUP4 LT AND PUSH1 0x4E DUP5 LT PUSH1 0xB DUP5 LT AND OR ISZERO PUSH2 0x5BEB JUMPI POP DUP2 DUP2 EXP DUP4 DUP2 GT ISZERO PUSH2 0x5BE6 JUMPI PUSH2 0x5BE6 PUSH2 0x59D5 JUMP JUMPDEST PUSH2 0xE8C JUMP JUMPDEST PUSH2 0x5BF8 DUP5 DUP5 DUP5 PUSH1 0x1 PUSH2 0x5B07 JUMP JUMPDEST SWAP3 POP SWAP1 POP DUP2 DUP5 DIV DUP2 GT ISZERO PUSH2 0x5C0E JUMPI PUSH2 0x5C0E PUSH2 0x59D5 JUMP JUMPDEST MUL SWAP3 SWAP2 POP POP JUMP JUMPDEST PUSH1 0x0 PUSH2 0xE8C PUSH1 0x0 NOT DUP5 DUP5 PUSH2 0x5B4F JUMP JUMPDEST PUSH1 0x0 PUSH2 0xDA1 PUSH2 0x56D8 DUP4 DUP2 JUMP JUMPDEST PUSH2 0x5268 DUP2 PUSH2 0x5C24 JUMP JUMPDEST PUSH1 0x20 DUP2 ADD PUSH2 0xDA1 DUP3 DUP5 PUSH2 0x5C30 JUMP JUMPDEST PUSH1 0x1F DUP2 MSTORE PUSH1 0x0 PUSH1 0x20 DUP3 ADD PUSH32 0x5265656E7472616E637947756172643A207265656E7472616E742063616C6C00 DUP2 MSTORE SWAP2 POP JUMPDEST POP PUSH1 0x20 ADD SWAP1 JUMP JUMPDEST PUSH1 0x20 DUP1 DUP3 MSTORE DUP2 ADD PUSH2 0xDA1 DUP2 PUSH2 0x5C47 JUMP JUMPDEST PUSH1 0x0 DUP3 PUSH2 0x5C9D JUMPI PUSH2 0x5C9D PUSH2 0x5A0A JUMP JUMPDEST POP MOD SWAP1 JUMP JUMPDEST PUSH1 0xC0 DUP2 ADD PUSH2 0x5CB0 DUP3 DUP10 PUSH2 0x5C30 JUMP JUMPDEST PUSH2 0x5CBD PUSH1 0x20 DUP4 ADD DUP9 PUSH2 0x527C JUMP JUMPDEST PUSH2 0x5CCA PUSH1 0x40 DUP4 ADD DUP8 PUSH2 0x5C30 JUMP JUMPDEST PUSH2 0x5CD7 PUSH1 0x60 DUP4 ADD DUP7 PUSH2 0x5C30 JUMP JUMPDEST PUSH2 0x5CE4 PUSH1 0x80 DUP4 ADD DUP6 PUSH2 0x5C30 JUMP JUMPDEST PUSH2 0x1A4B PUSH1 0xA0 DUP4 ADD DUP5 PUSH2 0x5C30 JUMP JUMPDEST PUSH1 0x2 DUP2 LT PUSH2 0x2039 JUMPI PUSH2 0x2039 PUSH2 0x579E JUMP JUMPDEST DUP1 PUSH2 0x5372 DUP2 PUSH2 0x5CF1 JUMP JUMPDEST PUSH1 0x0 PUSH2 0xDA1 DUP3 PUSH2 0x5D01 JUMP JUMPDEST PUSH2 0x5268 DUP2 PUSH2 0x5D0B JUMP JUMPDEST PUSH1 0x20 DUP2 ADD PUSH2 0xDA1 DUP3 DUP5 PUSH2 0x5D16 JUMP JUMPDEST DUP1 MLOAD PUSH2 0xDA1 DUP2 PUSH2 0x52FA JUMP JUMPDEST PUSH1 0x0 PUSH1 0x20 DUP3 DUP5 SUB SLT ISZERO PUSH2 0x5D4D JUMPI PUSH2 0x5D4D PUSH1 0x0 DUP1 REVERT JUMPDEST PUSH1 0x0 PUSH2 0xF3B DUP5 DUP5 PUSH2 0x5D2D JUMP JUMPDEST PUSH1 0x0 PUSH2 0x5D63 DUP3 MLOAD SWAP1 JUMP JUMPDEST DUP1 DUP5 MSTORE PUSH1 0x20 SWAP4 DUP5 ADD SWAP4 DUP4 ADD DUP1 PUSH1 0x0 JUMPDEST DUP4 DUP2 LT ISZERO PUSH2 0x5AEA JUMPI DUP2 MLOAD PUSH2 0x5D86 DUP9 DUP3 PUSH2 0x5A8A JUMP JUMPDEST SWAP8 POP PUSH1 0x20 DUP4 ADD SWAP3 POP POP PUSH1 0x1 ADD PUSH2 0x5D72 JUMP JUMPDEST PUSH1 0x60 DUP2 ADD PUSH2 0x5DA5 DUP3 DUP7 PUSH2 0x525F JUMP JUMPDEST PUSH2 0x5DB2 PUSH1 0x20 DUP4 ADD DUP6 PUSH2 0x527C JUMP JUMPDEST DUP2 DUP2 SUB PUSH1 0x40 DUP4 ADD MSTORE PUSH2 0xDDB DUP2 DUP5 PUSH2 0x5D59 JUMP JUMPDEST PUSH1 0x60 DUP2 ADD PUSH2 0x5DD2 DUP3 DUP7 PUSH2 0x525F JUMP JUMPDEST PUSH2 0x5DDF PUSH1 0x20 DUP4 ADD DUP6 PUSH2 0x525F JUMP JUMPDEST PUSH2 0xF3B PUSH1 0x40 DUP4 ADD DUP5 PUSH2 0x527C JUMP JUMPDEST DUP1 MLOAD PUSH2 0xDA1 DUP2 PUSH2 0x57F0 JUMP JUMPDEST PUSH1 0x0 PUSH1 0x20 DUP3 DUP5 SUB SLT ISZERO PUSH2 0x5E0C JUMPI PUSH2 0x5E0C PUSH1 0x0 DUP1 REVERT JUMPDEST PUSH1 0x0 PUSH2 0xF3B DUP5 DUP5 PUSH2 0x5DEC JUMP JUMPDEST PUSH1 0xF DUP2 MSTORE PUSH1 0x0 PUSH1 0x20 DUP3 ADD PUSH15 0x1D1C985B9CD9995C8819985A5B1959 PUSH1 0x8A SHL DUP2 MSTORE SWAP2 POP PUSH2 0x5C77 JUMP JUMPDEST PUSH1 0x20 DUP1 DUP3 MSTORE DUP2 ADD PUSH2 0xDA1 DUP2 PUSH2 0x5E18 JUMP JUMPDEST PUSH1 0x40 DUP2 ADD PUSH2 0x5832 DUP3 DUP6 PUSH2 0x525F JUMP JUMPDEST PUSH1 0x40 DUP2 ADD PUSH2 0x5E6A DUP3 DUP6 PUSH2 0x527C JUMP JUMPDEST PUSH2 0xE8C PUSH1 0x20 DUP4 ADD DUP5 PUSH2 0x525F JUMP JUMPDEST PUSH1 0xC0 DUP2 ADD PUSH2 0x5E85 DUP3 DUP10 PUSH2 0x527C JUMP JUMPDEST PUSH2 0x5E92 PUSH1 0x20 DUP4 ADD DUP9 PUSH2 0x527C JUMP JUMPDEST PUSH2 0x5E9F PUSH1 0x40 DUP4 ADD DUP8 PUSH2 0x527C JUMP JUMPDEST PUSH2 0x5EAC PUSH1 0x60 DUP4 ADD DUP7 PUSH2 0x527C JUMP JUMPDEST PUSH2 0x5EB9 PUSH1 0x80 DUP4 ADD DUP6 PUSH2 0x527C JUMP JUMPDEST PUSH2 0x1A4B PUSH1 0xA0 DUP4 ADD DUP5 PUSH2 0x527C JUMP JUMPDEST PUSH1 0xC0 DUP2 ADD PUSH2 0x5ED4 DUP3 DUP10 PUSH2 0x527C JUMP JUMPDEST PUSH2 0x5EE1 PUSH1 0x20 DUP4 ADD DUP9 PUSH2 0x525F JUMP JUMPDEST PUSH2 0x5E9F PUSH1 0x40 DUP4 ADD DUP8 PUSH2 0x525F JUMP JUMPDEST PUSH2 0x1901 PUSH1 0xF0 SHL DUP2 MSTORE PUSH1 0x2 ADD PUSH1 0x0 PUSH2 0x5F05 DUP3 DUP6 PUSH2 0x527C JUMP JUMPDEST PUSH1 0x20 DUP3 ADD SWAP2 POP PUSH2 0x5F15 DUP3 DUP5 PUSH2 0x527C JUMP JUMPDEST POP PUSH1 0x20 ADD SWAP3 SWAP2 POP POP JUMP JUMPDEST PUSH1 0x80 DUP2 ADD PUSH2 0x5F2D DUP3 DUP8 PUSH2 0x527C JUMP JUMPDEST PUSH2 0x56AD PUSH1 0x20 DUP4 ADD DUP7 PUSH2 0x561B JUMP JUMPDEST PUSH1 0x0 PUSH2 0x5F44 DUP3 MLOAD SWAP1 JUMP JUMPDEST PUSH2 0x5F52 DUP2 DUP6 PUSH1 0x20 DUP7 ADD PUSH2 0x54B0 JUMP JUMPDEST SWAP3 SWAP1 SWAP3 ADD SWAP3 SWAP2 POP POP JUMP JUMPDEST PUSH23 0x20B1B1B2B9B9A1B7B73A3937B61D1030B1B1B7BAB73A1 PUSH1 0x4D SHL DUP2 MSTORE PUSH1 0x17 ADD PUSH1 0x0 PUSH2 0x5F88 DUP3 DUP6 PUSH2 0x5F3A JUMP JUMPDEST PUSH17 0x1034B99036B4B9B9B4B733903937B6329 PUSH1 0x7D SHL DUP2 MSTORE PUSH1 0x11 ADD SWAP2 POP PUSH2 0xF3B DUP3 DUP5 PUSH2 0x5F3A JUMP JUMPDEST PUSH1 0x60 DUP2 ADD PUSH2 0x5FBC DUP3 DUP7 PUSH2 0x527C JUMP JUMPDEST PUSH2 0x5FC9 PUSH1 0x20 DUP4 ADD DUP6 PUSH2 0x525F JUMP JUMPDEST PUSH2 0xF3B PUSH1 0x40 DUP4 ADD DUP5 PUSH2 0x525F JUMP JUMPDEST PUSH1 0xF DUP2 MSTORE PUSH1 0x0 PUSH1 0x20 DUP3 ADD PUSH15 0x185C1C1C9BDD985B0819985A5B1959 PUSH1 0x8A SHL DUP2 MSTORE SWAP2 POP PUSH2 0x5C77 JUMP JUMPDEST PUSH1 0x20 DUP1 DUP3 MSTORE DUP2 ADD PUSH2 0xDA1 DUP2 PUSH2 0x5FD6 JUMP JUMPDEST PUSH1 0xF DUP2 MSTORE PUSH1 0x0 PUSH1 0x20 DUP3 ADD PUSH15 0xC2DADEEADCE840E8DEDE40D0D2CED PUSH1 0x8B SHL DUP2 MSTORE SWAP2 POP PUSH2 0x5C77 JUMP JUMPDEST PUSH1 0x20 DUP1 DUP3 MSTORE DUP2 ADD PUSH2 0xDA1 DUP2 PUSH2 0x600C JUMP JUMPDEST PUSH1 0x60 DUP2 ADD PUSH2 0x6050 DUP3 DUP7 PUSH2 0x525F JUMP JUMPDEST PUSH2 0x5DDF PUSH1 0x20 DUP4 ADD DUP6 PUSH2 0x527C JUMP JUMPDEST PUSH1 0x0 DUP1 PUSH1 0x40 DUP4 DUP6 SUB SLT ISZERO PUSH2 0x6073 JUMPI PUSH2 0x6073 PUSH1 0x0 DUP1 REVERT JUMPDEST PUSH1 0x0 PUSH2 0x607F DUP6 DUP6 PUSH2 0x59A9 JUMP JUMPDEST SWAP3 POP POP PUSH1 0x20 PUSH2 0x556D DUP6 DUP3 DUP7 ADD PUSH2 0x59A9 JUMP JUMPDEST PUSH2 0xFFFF DUP2 AND PUSH2 0x529C JUMP JUMPDEST DUP1 MLOAD PUSH2 0xDA1 DUP2 PUSH2 0x6090 JUMP JUMPDEST PUSH1 0x0 DUP1 PUSH1 0x40 DUP4 DUP6 SUB SLT ISZERO PUSH2 0x60BB JUMPI PUSH2 0x60BB PUSH1 0x0 DUP1 REVERT JUMPDEST PUSH1 0x0 PUSH2 0x60C7 DUP6 DUP6 PUSH2 0x609A JUMP JUMPDEST SWAP3 POP POP PUSH1 0x20 PUSH2 0x556D DUP6 DUP3 DUP7 ADD PUSH2 0x5D2D JUMP JUMPDEST PUSH1 0x40 DUP2 ADD PUSH2 0x5E6A DUP3 DUP6 PUSH2 0x525F JUMP JUMPDEST PUSH1 0x0 DUP2 PUSH2 0x60F5 JUMPI PUSH2 0x60F5 PUSH2 0x59D5 JUMP JUMPDEST POP PUSH1 0x0 NOT ADD SWAP1 JUMP JUMPDEST PUSH1 0x20 DUP1 DUP3 MSTORE PUSH32 0x537472696E67733A20686578206C656E67746820696E73756666696369656E74 SWAP2 ADD SWAP1 DUP2 MSTORE PUSH1 0x0 PUSH2 0x5C77 JUMP JUMPDEST PUSH1 0x20 DUP1 DUP3 MSTORE DUP2 ADD PUSH2 0xDA1 DUP2 PUSH2 0x60FD JUMP INVALID ISZERO 0x2E 0xBB 0xA5 PUSH12 0x9738EE3D8BAEA1B76FA31DCD 0xCD PUSH26 0xB1929BFEA7D58EE12CFDF1A653CD9F023A942EE35097EAD74B25 SDIV 0xBE 0xA9 CALLCODE 0xC5 0xD4 PUSH21 0x65DB92DD195CF7F01A41CFE1633076A97F32AE349B 0x28 PUSH24 0x2E7B1483F67A926F150CBC501D02BDBD77389325ABC723F4 0xDD PUSH3 0x68E1C3 PUSH21 0x639E36D629C765285EE7003913389D582C300F186D 0xDE SWAP8 PUSH24 0x7D215DB24FB9FEE4DED85C66B422ABD7162A1CAA6ED3EC4C SUB 0x1F PUSH13 0xD29ADA52D45F7CCFF42F059D4E SELFBALANCE 0xC3 CREATE 0x27 0xC4 DIFFICULTY 0x27 0x22 JUMPI 0x26 PUSH16 0x7E88B981E142F0AA38FBFD78EA672C1C MULMOD 0xCD SWAP6 0xC5 BYTE 0xF9 POP SWAP16 PUSH5 0x6F3615FF00 PUSH18 0xAAE8652BD821471EE9037FD72C862F91C9D8 SWAP14 PUSH2 0x35B1 SWAP9 PUSH20 0xB921C90B702CB2E175C371B8430026B9577E6911 NOT 0xBC CREATE2 0x5F SGT PUSH18 0xEED7EDA89416C2984DA5475FCFF67E96FE8 0x5E JUMP 0xEE 0xD8 ADDMOD SSTORE SWAP11 MSTORE 0x22 0xAE JUMP GAS 0xAB DUP9 DUP12 0xCA 0x5E NOT 0xE2 GAS SGT 0xDB PUSH28 0xC9144305BF55CB0F3F4D724F730E5ACDD622A0E761830CC61F2707E 0xA7 0xBB SGT DUP1 ADDMOD 0xBF SWAP14 0xDA PUSH32 0x7D34C77736D0A116604E95EA16F206625BAD3D9112D5609B8D356E6FBD514CD1 0xF6 SWAP10 DUP1 0xD4 0xCE 0x2B RETURNDATACOPY PUSH15 0x68E1789ACE7CBB3CDF689B8EA3E9D2 PUSH6 0xF66BC4E0A990 PUSH10 0x268217017D38D2A5A559 0xAB 0xC6 0x27 NOT 0xDD CALLCODE MSTORE 0xAD SHL 0xE2 0xC8 SWAP12 PUSH10 0xC2B068FC378DAA952BA7 CALL PUSH4 0xC4A11628 CREATE2 GAS 0x4D CREATE2 0x23 0xB3 0xEF PUSH32 0x2AD1D3BA35276F35EF140F83E3E0F17B23064FD710113D3F7A5AB30D2678116E PUSH18 0xEDAE12B1B97F4D1F60370FEF10105FA2FAAE ADD 0x26 GT 0x4A AND SWAP13 PUSH5 0x845D6126C9 DUP13 JUMPDEST 0xE1 0xE5 0xEB 0xEC PUSH30 0x5BD14F71427D1E84F3DD0314C0F7B2291E5B200AC8C7C3B9256F430D649A DUP7 BLOCKHASH 0xE4 DUP16 0xF9 0xBF 0xBC CALLDATALOAD EXTCODESIZE EXTCODEHASH SWAP10 0xED PUSH4 0x1638578 0x21 0xB3 0xB4 SMOD 0x5E CODESIZE PUSH18 0xDAFBF5900D80DEF0427DAAC599092FCB16B2 XOR ADDMOD 0xEC PUSH9 0xDD9A2E1EAE89D1E8DB 0x21 CALLDATALOAD PUSH20 0x75A18EAEA71A088B547B8C932B48861853B3434D SWAP11 ORIGIN BLOCKHASH 0xB9 DIFFICULTY PUSH7 0xC607E28B696595 0xDC 0xBC SHR SDIV 0x24 0xF BALANCE SELFDESTRUCT GASPRICE 0xD0 PUSH8 0xEF1EE35CE4997762 PUSH22 0x2E3A095284754544F4C709D75E2B8821AD6E0E26207E 0xC 0xB4 0xD2 TIMESTAMP 0xD0 PUSH31 0xEB1CBB1CFD853E645BDCD27CC5484F952F0DBBE8C2C0170206C50EC0CAFA1C 0xD 0xBD SUB 0xE7 RETURNDATACOPY PUSH8 0xC2A960178DF30A0A ADDRESS 0xEE 0x2E PUSH10 0xD1171AC0A63777A6733C 0xDA 0x21 0xAE 0xC9 0xED RETURNDATASIZE BASEFEE LOG4 REVERT GT CALLCODE PUSH20 0xC934A691DEC5E5589CA2646970667358221220DC 0xC4 0xAE 0xA7 0xC0 0x22 DUP2 0xF7 0xCC ADDMOD 0xD9 PUSH16 0x4BC4ABB11CB0714EB8B4F39462717413 PUSH25 0x9E94A464736F6C634300081000330000000000000000000000 "},"methodIdentifiers":{"ACCOUNTANT_MANAGER()":"652da324","ADD_STRATEGY_MANAGER()":"c065ca07","API_VERSION()":"77e3b267","ASSET()":"4800d97f","DEBT_MANAGER()":"c8d74b60","DEBT_PURCHASER()":"ab5b4d49","DECIMALS()":"2e0f2625","DEFAULT_ADMIN_ROLE()":"a217fddf","DEPOSIT_LIMIT_MANAGER()":"a98222c4","DOMAIN_SEPARATOR()":"3644e515","DOMAIN_TYPE_HASH()":"c0993eea","EMERGENCY_MANAGER()":"fec61f06","FACTORY()":"2dd31000","FORCE_REVOKE_MANAGER()":"5bf6b4fb","MAX_BPS()":"fd967f47","MAX_BPS_EXTENDED()":"36fba084","MAX_DEBT_MANAGER()":"f1daeba8","MAX_QUEUE()":"3f7b5e40","MINIMUM_IDLE_MANAGER()":"0ad283d0","ONE_YEAR()":"16d3bfbb","PERMIT_TYPE_HASH()":"4d4bb197","PROFIT_UNLOCK_MANAGER()":"d4ae064f","QUEUE_MANAGER()":"4cfe51dc","REPORTING_MANAGER()":"03dcd12c","REVOKE_STRATEGY_MANAGER()":"9f3988f3","ROLE_MANAGER()":"f5b944eb","WITHDRAW_LIMIT_MANAGER()":"4ce1d38a","acceptRoleManager()":"6d020808","accountant()":"4fb3ccc5","addRole(address,bytes32)":"a73f7f8a","addStrategy(address)":"223e5479","allowance(address,address)":"dd62ed3e","approve(address,uint256)":"095ea7b3","assessShareOfUnrealisedLosses(address,uint256)":"5a569099","asset()":"38d52e0f","balanceOf(address)":"70a08231","buyDebt(address,uint256)":"405977e7","closeOpenRole(bytes32)":"c9a16ea4","convertToAssets(uint256)":"07a2d13a","convertToShares(uint256)":"c6e6f592","decimals()":"313ce567","decreaseAllowance(address,uint256)":"a457c2d7","defaultQueue(uint256)":"ff1e7f08","deposit(uint256,address)":"6e553f65","depositLimit()":"ecf70858","depositLimitModule()":"9e34e348","forceRevokeStrategy(address)":"16b87ac0","fullProfitUnlockDate()":"2d632692","futureRoleManager()":"b3c187f2","getRoleAdmin(bytes32)":"248a9ca3","grantRole(bytes32,address)":"2f2ff15d","hasRole(bytes32,address)":"91d14854","increaseAllowance(address,uint256)":"39509351","lastProfitUpdate()":"8afca8f0","maxDeposit(address)":"402d267d","maxMint(address)":"c63d75b6","maxRedeem(address,uint256,address[])":"34b5fab6","maxWithdraw(address,uint256,address[])":"65cb6765","minimumTotalIdle()":"0835a3fc","mint(uint256,address)":"94bf804d","name()":"06fdde03","nonces(address)":"7ecebe00","openRoles(bytes32)":"53a66132","permit(address,address,uint256,uint256,uint8,bytes32,bytes32)":"d505accf","previewDeposit(uint256)":"ef8b30f7","previewMint(uint256)":"b3d7f6b9","previewRedeem(uint256)":"4cdad506","previewWithdraw(uint256)":"0a28a477","pricePerShare()":"99530b06","processReport(address)":"b6cc2d1f","profitMaxUnlockTime()":"0952864e","profitUnlockingRate()":"5141eebb","redeem(uint256,address,address,uint256,address[])":"06580f2d","removeRole(address,bytes32)":"6853920e","renounceRole(bytes32,address)":"36568abe","revokeRole(bytes32,address)":"d547741f","revokeStrategy(address)":"bb994d48","roleManager()":"00435da5","roles(address)":"99374642","setAccountant(address)":"48ea7127","setDefaultQueue(address[])":"633f228c","setDepositLimit(uint256)":"bdc8144b","setDepositLimitModule(address)":"2d772168","setMinimumTotalIdle(uint256)":"8212fd43","setOpenRole(bytes32)":"d538e904","setProfitMaxUnlockTime(uint256)":"df69b22a","setUseDefaultQueue(bool)":"9bbca884","setWithdrawLimitModule(address)":"4bbd71e9","shutdown()":"fc0e74d1","shutdownVault()":"e5236cc9","strategies(address)":"39ebf823","supportsInterface(bytes4)":"01ffc9a7","symbol()":"95d89b41","totalAssets()":"01e1d114","totalDebtAmount()":"c8dffa95","totalIdleAmount()":"3cd7b5ab","totalSupply()":"18160ddd","totalSupplyAmount()":"f828f50b","transfer(address,uint256)":"a9059cbb","transferFrom(address,address,uint256)":"23b872dd","transferRoleManager(address)":"629b9142","unlockedShares()":"d9a0e97a","updateDebt(address,uint256)":"46e6ac49","updateMaxDebtForStrategy(address,uint256)":"f6d7bfa0","useDefaultQueue()":"bbe4eb49","withdraw(uint256,address,address,uint256,address[])":"d81a09f6","withdrawLimitModule()":"91986003"}}}}}