{"contracts/VaultStorage.sol":{"VaultStorage":{"abi":[{"inputs":[],"name":"ACCOUNTANT_MANAGER","outputs":[{"internalType":"bytes32","name":"","type":"bytes32"}],"stateMutability":"view","type":"function"},{"inputs":[],"name":"ADD_STRATEGY_MANAGER","outputs":[{"internalType":"bytes32","name":"","type":"bytes32"}],"stateMutability":"view","type":"function"},{"inputs":[],"name":"API_VERSION","outputs":[{"internalType":"string","name":"","type":"string"}],"stateMutability":"view","type":"function"},{"inputs":[],"name":"DEBT_MANAGER","outputs":[{"internalType":"bytes32","name":"","type":"bytes32"}],"stateMutability":"view","type":"function"},{"inputs":[],"name":"DEBT_PURCHASER","outputs":[{"internalType":"bytes32","name":"","type":"bytes32"}],"stateMutability":"view","type":"function"},{"inputs":[],"name":"DEPOSIT_LIMIT_MANAGER","outputs":[{"internalType":"bytes32","name":"","type":"bytes32"}],"stateMutability":"view","type":"function"},{"inputs":[],"name":"DOMAIN_SEPARATOR","outputs":[{"internalType":"bytes32","name":"","type":"bytes32"}],"stateMutability":"view","type":"function"},{"inputs":[],"name":"DOMAIN_TYPE_HASH","outputs":[{"internalType":"bytes32","name":"","type":"bytes32"}],"stateMutability":"view","type":"function"},{"inputs":[],"name":"EMERGENCY_MANAGER","outputs":[{"internalType":"bytes32","name":"","type":"bytes32"}],"stateMutability":"view","type":"function"},{"inputs":[],"name":"FORCE_REVOKE_MANAGER","outputs":[{"internalType":"bytes32","name":"","type":"bytes32"}],"stateMutability":"view","type":"function"},{"inputs":[],"name":"MAX_BPS","outputs":[{"internalType":"uint256","name":"","type":"uint256"}],"stateMutability":"view","type":"function"},{"inputs":[],"name":"MAX_BPS_EXTENDED","outputs":[{"internalType":"uint256","name":"","type":"uint256"}],"stateMutability":"view","type":"function"},{"inputs":[],"name":"MAX_DEBT_MANAGER","outputs":[{"internalType":"bytes32","name":"","type":"bytes32"}],"stateMutability":"view","type":"function"},{"inputs":[],"name":"MAX_QUEUE","outputs":[{"internalType":"uint256","name":"","type":"uint256"}],"stateMutability":"view","type":"function"},{"inputs":[],"name":"MINIMUM_IDLE_MANAGER","outputs":[{"internalType":"bytes32","name":"","type":"bytes32"}],"stateMutability":"view","type":"function"},{"inputs":[],"name":"PERMIT_TYPE_HASH","outputs":[{"internalType":"bytes32","name":"","type":"bytes32"}],"stateMutability":"view","type":"function"},{"inputs":[],"name":"PROFIT_UNLOCK_MANAGER","outputs":[{"internalType":"bytes32","name":"","type":"bytes32"}],"stateMutability":"view","type":"function"},{"inputs":[],"name":"QUEUE_MANAGER","outputs":[{"internalType":"bytes32","name":"","type":"bytes32"}],"stateMutability":"view","type":"function"},{"inputs":[],"name":"REPORTING_MANAGER","outputs":[{"internalType":"bytes32","name":"","type":"bytes32"}],"stateMutability":"view","type":"function"},{"inputs":[],"name":"REVOKE_STRATEGY_MANAGER","outputs":[{"internalType":"bytes32","name":"","type":"bytes32"}],"stateMutability":"view","type":"function"},{"inputs":[],"name":"ROLE_MANAGER","outputs":[{"internalType":"bytes32","name":"","type":"bytes32"}],"stateMutability":"view","type":"function"},{"inputs":[],"name":"WITHDRAW_LIMIT_MANAGER","outputs":[{"internalType":"bytes32","name":"","type":"bytes32"}],"stateMutability":"view","type":"function"},{"inputs":[],"name":"accountant","outputs":[{"internalType":"address","name":"","type":"address"}],"stateMutability":"view","type":"function"},{"inputs":[{"internalType":"uint256","name":"","type":"uint256"}],"name":"defaultQueue","outputs":[{"internalType":"address","name":"","type":"address"}],"stateMutability":"view","type":"function"},{"inputs":[],"name":"depositLimit","outputs":[{"internalType":"uint256","name":"","type":"uint256"}],"stateMutability":"view","type":"function"},{"inputs":[],"name":"depositLimitModule","outputs":[{"internalType":"address","name":"","type":"address"}],"stateMutability":"view","type":"function"},{"inputs":[],"name":"fullProfitUnlockDate","outputs":[{"internalType":"uint256","name":"","type":"uint256"}],"stateMutability":"view","type":"function"},{"inputs":[],"name":"futureRoleManager","outputs":[{"internalType":"address","name":"","type":"address"}],"stateMutability":"view","type":"function"},{"inputs":[],"name":"lastProfitUpdate","outputs":[{"internalType":"uint256","name":"","type":"uint256"}],"stateMutability":"view","type":"function"},{"inputs":[],"name":"minimumTotalIdle","outputs":[{"internalType":"uint256","name":"","type":"uint256"}],"stateMutability":"view","type":"function"},{"inputs":[{"internalType":"address","name":"","type":"address"}],"name":"nonces","outputs":[{"internalType":"uint256","name":"","type":"uint256"}],"stateMutability":"view","type":"function"},{"inputs":[{"internalType":"bytes32","name":"","type":"bytes32"}],"name":"openRoles","outputs":[{"internalType":"bool","name":"","type":"bool"}],"stateMutability":"view","type":"function"},{"inputs":[],"name":"profitMaxUnlockTime","outputs":[{"internalType":"uint256","name":"","type":"uint256"}],"stateMutability":"view","type":"function"},{"inputs":[],"name":"profitUnlockingRate","outputs":[{"internalType":"uint256","name":"","type":"uint256"}],"stateMutability":"view","type":"function"},{"inputs":[],"name":"roleManager","outputs":[{"internalType":"address","name":"","type":"address"}],"stateMutability":"view","type":"function"},{"inputs":[{"internalType":"address","name":"","type":"address"}],"name":"roles","outputs":[{"internalType":"enum Roles","name":"","type":"uint8"}],"stateMutability":"view","type":"function"},{"inputs":[],"name":"shutdown","outputs":[{"internalType":"bool","name":"","type":"bool"}],"stateMutability":"view","type":"function"},{"inputs":[{"internalType":"address","name":"","type":"address"}],"name":"strategies","outputs":[{"internalType":"uint256","name":"activation","type":"uint256"},{"internalType":"uint256","name":"lastReport","type":"uint256"},{"internalType":"uint256","name":"currentDebt","type":"uint256"},{"internalType":"uint256","name":"maxDebt","type":"uint256"}],"stateMutability":"view","type":"function"},{"inputs":[],"name":"totalDebtAmount","outputs":[{"internalType":"uint256","name":"","type":"uint256"}],"stateMutability":"view","type":"function"},{"inputs":[],"name":"totalIdleAmount","outputs":[{"internalType":"uint256","name":"","type":"uint256"}],"stateMutability":"view","type":"function"},{"inputs":[],"name":"totalSupplyAmount","outputs":[{"internalType":"uint256","name":"","type":"uint256"}],"stateMutability":"view","type":"function"},{"inputs":[],"name":"useDefaultQueue","outputs":[{"internalType":"bool","name":"","type":"bool"}],"stateMutability":"view","type":"function"},{"inputs":[],"name":"withdrawLimitModule","outputs":[{"internalType":"address","name":"","type":"address"}],"stateMutability":"view","type":"function"}],"evm":{"bytecode":{"linkReferences":{},"object":"608060405234801561001057600080fd5b506108ec806100206000396000f3fe608060405234801561001057600080fd5b50600436106101f85760003560e01c8062435da5146101fd57806303dcd12c146102265780630835a3fc1461025a5780630952864e146102635780630ad283d01461026c5780632d632692146102935780633644e5151461029c57806336fba084146102a557806339ebf823146102b15780633cd7b5ab146102f65780633f7b5e40146102ff5780634ce1d38a146103075780634cfe51dc1461032e5780634d4bb197146103555780634fb3ccc51461037c5780635141eebb1461038f57806353a66132146103985780635bf6b4fb146103c8578063652da324146103ef57806377e3b267146104165780637ecebe00146104475780638afca8f014610467578063919860031461047057806399374642146104835780639e34e348146104b35780639f3988f3146104c6578063a98222c4146104ed578063ab5b4d4914610514578063b3c187f21461053b578063bbe4eb491461054e578063c065ca071461055b578063c0993eea14610582578063c8d74b60146105a9578063c8dffa95146105d0578063d4ae064f146105d9578063ecf7085814610600578063f1daeba814610609578063f5b944eb14610630578063f828f50b14610657578063fc0e74d114610660578063fd967f4714610674578063fec61f061461067d578063ff1e7f08146106a4575b600080fd5b600f54610210906001600160a01b031681565b60405161021d91906106fe565b60405180910390f35b61024d7f633076a97f32ae349b28772e7b1483f67a926f150cbc501d02bdbd77389325ab81565b60405161021d9190610712565b61024d60085481565b61024d60115481565b61024d7fc723f4dd6268e1c374639e36d629c765285ee7003913389d582c300f186dde9781565b61024d60125481565b61024d60165481565b61024d64e8d4a5100081565b6102e66102bf366004610742565b60006020819052908152604090208054600182015460028301546003909301549192909184565b60405161021d949392919061076b565b61024d60075481565b61024d600a81565b61024d7f69d1171ac0a63777a6733cda21aec9ed3d48a4fd11f273c934a691dec5e5589c81565b61024d7f862f91c9d89d6135b19873b921c90b702cb2e175c371b8430026b9577e69111981565b61024d7f6e71edae12b1b97f4d1f60370fef10105fa2faae0126114a169c64845d6126c981565b600a54610210906001600160a01b031681565b61024d60135481565b6103bb6103a63660046107ba565b600e6020526000908152604090205460ff1681565b60405161021d91906107e3565b61024d7fea672c1c09cd95c51af9509f646f3615ff0071aae8652bd821471ee9037fd72c81565b61024d7fcd9f023a942ee35097ead74b2505bea9f2c5d47465db92dd195cf7f01a41cfe181565b61043a60405180604001604052806005815260200164332e302e3160d81b81525081565b60405161021d9190610847565b61024d610455366004610742565b60156020526000908152604090205481565b61024d60145481565b600c54610210906001600160a01b031681565b6104a6610491366004610742565b600d6020526000908152604090205460ff1681565b60405161021d91906108a8565b600b54610210906001600160a01b031681565b61024d7f6f430d649a8640e48ff9bfbc353b3f99ed630163857821b3b4075e3871dafbf581565b61024d7f2f0dbbe8c2c0170206c50ec0cafa1c0dbd03e73e67c2a960178df30a0a30ee2e81565b61024d7f900d80def0427daac599092fcb16b21808ec68dd9a2e1eae89d1e8db2135737581565b601054610210906001600160a01b031681565b6002546103bb9060ff1681565b61024d7f2a0e761830cc61f2707ea7bb138008bf9dda7f7d34c77736d0a116604e95ea1681565b61024d7f8b73c3c69bb8fe3d512ecc4cf759cc79239f7b179b0ffacaa9a75d522b39400f81565b61024d7f152ebba56b9738ee3d8baea1b76fa31dcdcd79b1929bfea7d58ee12cfdf1a65381565b61024d60065481565b61024d7fa18eaea71a088b547b8c932b48861853b3434d9a3240b94466c607e28b69659581565b61024d60095481565b61024d7f7cbb3cdf689b8ea3e9d265f66bc4e0a99069268217017d38d2a5a559abc6271981565b61024d7ff206625bad3d9112d5609b8d356e6fbd514cd1f69980d4ce2b3e6e68e1789ace81565b61024d60055481565b6010546103bb90600160a01b900460ff1681565b61024d61271081565b61024d7fd45f7ccff42f059d4e47c3f027c444272257266f7e88b981e142f0aa38fbfd7881565b6102106106b23660046107ba565b600181815481106106c257600080fd5b6000918252602090912001546001600160a01b0316905081565b60006001600160a01b0382165b92915050565b6106f8816106dc565b82525050565b602081016106e982846106ef565b806106f8565b602081016106e9828461070c565b610729816106dc565b811461073457600080fd5b50565b80356106e981610720565b60006020828403121561075757610757600080fd5b60006107638484610737565b949350505050565b60808101610779828761070c565b610786602083018661070c565b610793604083018561070c565b6107a0606083018461070c565b95945050505050565b80610729565b80356106e9816107a9565b6000602082840312156107cf576107cf600080fd5b600061076384846107af565b8015156106f8565b602081016106e982846107db565b60005b8381101561080c5781810151838201526020016107f4565b50506000910152565b600061081f825190565b8084526020840193506108368185602086016107f1565b601f01601f19169290920192915050565b602080825281016108588184610815565b9392505050565b634e487b7160e01b600052602160045260246000fd5b600e81106107345761073461085f565b8061088f81610875565b919050565b60006106e982610885565b6106f881610894565b602081016106e9828461089f56fea2646970667358221220a15bdd539d13c87c578f4c6d64df026bababf34680c1a768f55852d7b98a647b64736f6c63430008100033","opcodes":"PUSH1 0x80 PUSH1 0x40 MSTORE CALLVALUE DUP1 ISZERO PUSH2 0x10 JUMPI PUSH1 0x0 DUP1 REVERT JUMPDEST POP PUSH2 0x8EC DUP1 PUSH2 0x20 PUSH1 0x0 CODECOPY PUSH1 0x0 RETURN INVALID PUSH1 0x80 PUSH1 0x40 MSTORE CALLVALUE DUP1 ISZERO PUSH2 0x10 JUMPI PUSH1 0x0 DUP1 REVERT JUMPDEST POP PUSH1 0x4 CALLDATASIZE LT PUSH2 0x1F8 JUMPI PUSH1 0x0 CALLDATALOAD PUSH1 0xE0 SHR DUP1 PUSH3 0x435DA5 EQ PUSH2 0x1FD JUMPI DUP1 PUSH4 0x3DCD12C EQ PUSH2 0x226 JUMPI DUP1 PUSH4 0x835A3FC EQ PUSH2 0x25A JUMPI DUP1 PUSH4 0x952864E EQ PUSH2 0x263 JUMPI DUP1 PUSH4 0xAD283D0 EQ PUSH2 0x26C JUMPI DUP1 PUSH4 0x2D632692 EQ PUSH2 0x293 JUMPI DUP1 PUSH4 0x3644E515 EQ PUSH2 0x29C JUMPI DUP1 PUSH4 0x36FBA084 EQ PUSH2 0x2A5 JUMPI DUP1 PUSH4 0x39EBF823 EQ PUSH2 0x2B1 JUMPI DUP1 PUSH4 0x3CD7B5AB EQ PUSH2 0x2F6 JUMPI DUP1 PUSH4 0x3F7B5E40 EQ PUSH2 0x2FF JUMPI DUP1 PUSH4 0x4CE1D38A EQ PUSH2 0x307 JUMPI DUP1 PUSH4 0x4CFE51DC EQ PUSH2 0x32E JUMPI DUP1 PUSH4 0x4D4BB197 EQ PUSH2 0x355 JUMPI DUP1 PUSH4 0x4FB3CCC5 EQ PUSH2 0x37C JUMPI DUP1 PUSH4 0x5141EEBB EQ PUSH2 0x38F JUMPI DUP1 PUSH4 0x53A66132 EQ PUSH2 0x398 JUMPI DUP1 PUSH4 0x5BF6B4FB EQ PUSH2 0x3C8 JUMPI DUP1 PUSH4 0x652DA324 EQ PUSH2 0x3EF JUMPI DUP1 PUSH4 0x77E3B267 EQ PUSH2 0x416 JUMPI DUP1 PUSH4 0x7ECEBE00 EQ PUSH2 0x447 JUMPI DUP1 PUSH4 0x8AFCA8F0 EQ PUSH2 0x467 JUMPI DUP1 PUSH4 0x91986003 EQ PUSH2 0x470 JUMPI DUP1 PUSH4 0x99374642 EQ PUSH2 0x483 JUMPI DUP1 PUSH4 0x9E34E348 EQ PUSH2 0x4B3 JUMPI DUP1 PUSH4 0x9F3988F3 EQ PUSH2 0x4C6 JUMPI DUP1 PUSH4 0xA98222C4 EQ PUSH2 0x4ED JUMPI DUP1 PUSH4 0xAB5B4D49 EQ PUSH2 0x514 JUMPI DUP1 PUSH4 0xB3C187F2 EQ PUSH2 0x53B JUMPI DUP1 PUSH4 0xBBE4EB49 EQ PUSH2 0x54E JUMPI DUP1 PUSH4 0xC065CA07 EQ PUSH2 0x55B JUMPI DUP1 PUSH4 0xC0993EEA EQ PUSH2 0x582 JUMPI DUP1 PUSH4 0xC8D74B60 EQ PUSH2 0x5A9 JUMPI DUP1 PUSH4 0xC8DFFA95 EQ PUSH2 0x5D0 JUMPI DUP1 PUSH4 0xD4AE064F EQ PUSH2 0x5D9 JUMPI DUP1 PUSH4 0xECF70858 EQ PUSH2 0x600 JUMPI DUP1 PUSH4 0xF1DAEBA8 EQ PUSH2 0x609 JUMPI DUP1 PUSH4 0xF5B944EB EQ PUSH2 0x630 JUMPI DUP1 PUSH4 0xF828F50B EQ PUSH2 0x657 JUMPI DUP1 PUSH4 0xFC0E74D1 EQ PUSH2 0x660 JUMPI DUP1 PUSH4 0xFD967F47 EQ PUSH2 0x674 JUMPI DUP1 PUSH4 0xFEC61F06 EQ PUSH2 0x67D JUMPI DUP1 PUSH4 0xFF1E7F08 EQ PUSH2 0x6A4 JUMPI JUMPDEST PUSH1 0x0 DUP1 REVERT JUMPDEST PUSH1 0xF SLOAD PUSH2 0x210 SWAP1 PUSH1 0x1 PUSH1 0x1 PUSH1 0xA0 SHL SUB AND DUP2 JUMP JUMPDEST PUSH1 0x40 MLOAD PUSH2 0x21D SWAP2 SWAP1 PUSH2 0x6FE JUMP JUMPDEST PUSH1 0x40 MLOAD DUP1 SWAP2 SUB SWAP1 RETURN JUMPDEST PUSH2 0x24D PUSH32 0x633076A97F32AE349B28772E7B1483F67A926F150CBC501D02BDBD77389325AB DUP2 JUMP JUMPDEST PUSH1 0x40 MLOAD PUSH2 0x21D SWAP2 SWAP1 PUSH2 0x712 JUMP JUMPDEST PUSH2 0x24D PUSH1 0x8 SLOAD DUP2 JUMP JUMPDEST PUSH2 0x24D PUSH1 0x11 SLOAD DUP2 JUMP JUMPDEST PUSH2 0x24D PUSH32 0xC723F4DD6268E1C374639E36D629C765285EE7003913389D582C300F186DDE97 DUP2 JUMP JUMPDEST PUSH2 0x24D PUSH1 0x12 SLOAD DUP2 JUMP JUMPDEST PUSH2 0x24D PUSH1 0x16 SLOAD DUP2 JUMP JUMPDEST PUSH2 0x24D PUSH5 0xE8D4A51000 DUP2 JUMP JUMPDEST PUSH2 0x2E6 PUSH2 0x2BF CALLDATASIZE PUSH1 0x4 PUSH2 0x742 JUMP JUMPDEST PUSH1 0x0 PUSH1 0x20 DUP2 SWAP1 MSTORE SWAP1 DUP2 MSTORE PUSH1 0x40 SWAP1 KECCAK256 DUP1 SLOAD PUSH1 0x1 DUP3 ADD SLOAD PUSH1 0x2 DUP4 ADD SLOAD PUSH1 0x3 SWAP1 SWAP4 ADD SLOAD SWAP2 SWAP3 SWAP1 SWAP2 DUP5 JUMP JUMPDEST PUSH1 0x40 MLOAD PUSH2 0x21D SWAP5 SWAP4 SWAP3 SWAP2 SWAP1 PUSH2 0x76B JUMP JUMPDEST PUSH2 0x24D PUSH1 0x7 SLOAD DUP2 JUMP JUMPDEST PUSH2 0x24D PUSH1 0xA DUP2 JUMP JUMPDEST PUSH2 0x24D PUSH32 0x69D1171AC0A63777A6733CDA21AEC9ED3D48A4FD11F273C934A691DEC5E5589C DUP2 JUMP JUMPDEST PUSH2 0x24D PUSH32 0x862F91C9D89D6135B19873B921C90B702CB2E175C371B8430026B9577E691119 DUP2 JUMP JUMPDEST PUSH2 0x24D PUSH32 0x6E71EDAE12B1B97F4D1F60370FEF10105FA2FAAE0126114A169C64845D6126C9 DUP2 JUMP JUMPDEST PUSH1 0xA SLOAD PUSH2 0x210 SWAP1 PUSH1 0x1 PUSH1 0x1 PUSH1 0xA0 SHL SUB AND DUP2 JUMP JUMPDEST PUSH2 0x24D PUSH1 0x13 SLOAD DUP2 JUMP JUMPDEST PUSH2 0x3BB PUSH2 0x3A6 CALLDATASIZE PUSH1 0x4 PUSH2 0x7BA JUMP JUMPDEST PUSH1 0xE PUSH1 0x20 MSTORE PUSH1 0x0 SWAP1 DUP2 MSTORE PUSH1 0x40 SWAP1 KECCAK256 SLOAD PUSH1 0xFF AND DUP2 JUMP JUMPDEST PUSH1 0x40 MLOAD PUSH2 0x21D SWAP2 SWAP1 PUSH2 0x7E3 JUMP JUMPDEST PUSH2 0x24D PUSH32 0xEA672C1C09CD95C51AF9509F646F3615FF0071AAE8652BD821471EE9037FD72C DUP2 JUMP JUMPDEST PUSH2 0x24D PUSH32 0xCD9F023A942EE35097EAD74B2505BEA9F2C5D47465DB92DD195CF7F01A41CFE1 DUP2 JUMP JUMPDEST PUSH2 0x43A PUSH1 0x40 MLOAD DUP1 PUSH1 0x40 ADD PUSH1 0x40 MSTORE DUP1 PUSH1 0x5 DUP2 MSTORE PUSH1 0x20 ADD PUSH5 0x332E302E31 PUSH1 0xD8 SHL DUP2 MSTORE POP DUP2 JUMP JUMPDEST PUSH1 0x40 MLOAD PUSH2 0x21D SWAP2 SWAP1 PUSH2 0x847 JUMP JUMPDEST PUSH2 0x24D PUSH2 0x455 CALLDATASIZE PUSH1 0x4 PUSH2 0x742 JUMP JUMPDEST PUSH1 0x15 PUSH1 0x20 MSTORE PUSH1 0x0 SWAP1 DUP2 MSTORE PUSH1 0x40 SWAP1 KECCAK256 SLOAD DUP2 JUMP JUMPDEST PUSH2 0x24D PUSH1 0x14 SLOAD DUP2 JUMP JUMPDEST PUSH1 0xC SLOAD PUSH2 0x210 SWAP1 PUSH1 0x1 PUSH1 0x1 PUSH1 0xA0 SHL SUB AND DUP2 JUMP JUMPDEST PUSH2 0x4A6 PUSH2 0x491 CALLDATASIZE PUSH1 0x4 PUSH2 0x742 JUMP JUMPDEST PUSH1 0xD PUSH1 0x20 MSTORE PUSH1 0x0 SWAP1 DUP2 MSTORE PUSH1 0x40 SWAP1 KECCAK256 SLOAD PUSH1 0xFF AND DUP2 JUMP JUMPDEST PUSH1 0x40 MLOAD PUSH2 0x21D SWAP2 SWAP1 PUSH2 0x8A8 JUMP JUMPDEST PUSH1 0xB SLOAD PUSH2 0x210 SWAP1 PUSH1 0x1 PUSH1 0x1 PUSH1 0xA0 SHL SUB AND DUP2 JUMP JUMPDEST PUSH2 0x24D PUSH32 0x6F430D649A8640E48FF9BFBC353B3F99ED630163857821B3B4075E3871DAFBF5 DUP2 JUMP JUMPDEST PUSH2 0x24D PUSH32 0x2F0DBBE8C2C0170206C50EC0CAFA1C0DBD03E73E67C2A960178DF30A0A30EE2E DUP2 JUMP JUMPDEST PUSH2 0x24D PUSH32 0x900D80DEF0427DAAC599092FCB16B21808EC68DD9A2E1EAE89D1E8DB21357375 DUP2 JUMP JUMPDEST PUSH1 0x10 SLOAD PUSH2 0x210 SWAP1 PUSH1 0x1 PUSH1 0x1 PUSH1 0xA0 SHL SUB AND DUP2 JUMP JUMPDEST PUSH1 0x2 SLOAD PUSH2 0x3BB SWAP1 PUSH1 0xFF AND DUP2 JUMP JUMPDEST PUSH2 0x24D PUSH32 0x2A0E761830CC61F2707EA7BB138008BF9DDA7F7D34C77736D0A116604E95EA16 DUP2 JUMP JUMPDEST PUSH2 0x24D PUSH32 0x8B73C3C69BB8FE3D512ECC4CF759CC79239F7B179B0FFACAA9A75D522B39400F DUP2 JUMP JUMPDEST PUSH2 0x24D PUSH32 0x152EBBA56B9738EE3D8BAEA1B76FA31DCDCD79B1929BFEA7D58EE12CFDF1A653 DUP2 JUMP JUMPDEST PUSH2 0x24D PUSH1 0x6 SLOAD DUP2 JUMP JUMPDEST PUSH2 0x24D PUSH32 0xA18EAEA71A088B547B8C932B48861853B3434D9A3240B94466C607E28B696595 DUP2 JUMP JUMPDEST PUSH2 0x24D PUSH1 0x9 SLOAD DUP2 JUMP JUMPDEST PUSH2 0x24D PUSH32 0x7CBB3CDF689B8EA3E9D265F66BC4E0A99069268217017D38D2A5A559ABC62719 DUP2 JUMP JUMPDEST PUSH2 0x24D PUSH32 0xF206625BAD3D9112D5609B8D356E6FBD514CD1F69980D4CE2B3E6E68E1789ACE DUP2 JUMP JUMPDEST PUSH2 0x24D PUSH1 0x5 SLOAD DUP2 JUMP JUMPDEST PUSH1 0x10 SLOAD PUSH2 0x3BB SWAP1 PUSH1 0x1 PUSH1 0xA0 SHL SWAP1 DIV PUSH1 0xFF AND DUP2 JUMP JUMPDEST PUSH2 0x24D PUSH2 0x2710 DUP2 JUMP JUMPDEST PUSH2 0x24D PUSH32 0xD45F7CCFF42F059D4E47C3F027C444272257266F7E88B981E142F0AA38FBFD78 DUP2 JUMP JUMPDEST PUSH2 0x210 PUSH2 0x6B2 CALLDATASIZE PUSH1 0x4 PUSH2 0x7BA JUMP JUMPDEST PUSH1 0x1 DUP2 DUP2 SLOAD DUP2 LT PUSH2 0x6C2 JUMPI PUSH1 0x0 DUP1 REVERT JUMPDEST PUSH1 0x0 SWAP2 DUP3 MSTORE PUSH1 0x20 SWAP1 SWAP2 KECCAK256 ADD SLOAD PUSH1 0x1 PUSH1 0x1 PUSH1 0xA0 SHL SUB AND SWAP1 POP DUP2 JUMP JUMPDEST PUSH1 0x0 PUSH1 0x1 PUSH1 0x1 PUSH1 0xA0 SHL SUB DUP3 AND JUMPDEST SWAP3 SWAP2 POP POP JUMP JUMPDEST PUSH2 0x6F8 DUP2 PUSH2 0x6DC JUMP JUMPDEST DUP3 MSTORE POP POP JUMP JUMPDEST PUSH1 0x20 DUP2 ADD PUSH2 0x6E9 DUP3 DUP5 PUSH2 0x6EF JUMP JUMPDEST DUP1 PUSH2 0x6F8 JUMP JUMPDEST PUSH1 0x20 DUP2 ADD PUSH2 0x6E9 DUP3 DUP5 PUSH2 0x70C JUMP JUMPDEST PUSH2 0x729 DUP2 PUSH2 0x6DC JUMP JUMPDEST DUP2 EQ PUSH2 0x734 JUMPI PUSH1 0x0 DUP1 REVERT JUMPDEST POP JUMP JUMPDEST DUP1 CALLDATALOAD PUSH2 0x6E9 DUP2 PUSH2 0x720 JUMP JUMPDEST PUSH1 0x0 PUSH1 0x20 DUP3 DUP5 SUB SLT ISZERO PUSH2 0x757 JUMPI PUSH2 0x757 PUSH1 0x0 DUP1 REVERT JUMPDEST PUSH1 0x0 PUSH2 0x763 DUP5 DUP5 PUSH2 0x737 JUMP JUMPDEST SWAP5 SWAP4 POP POP POP POP JUMP JUMPDEST PUSH1 0x80 DUP2 ADD PUSH2 0x779 DUP3 DUP8 PUSH2 0x70C JUMP JUMPDEST PUSH2 0x786 PUSH1 0x20 DUP4 ADD DUP7 PUSH2 0x70C JUMP JUMPDEST PUSH2 0x793 PUSH1 0x40 DUP4 ADD DUP6 PUSH2 0x70C JUMP JUMPDEST PUSH2 0x7A0 PUSH1 0x60 DUP4 ADD DUP5 PUSH2 0x70C JUMP JUMPDEST SWAP6 SWAP5 POP POP POP POP POP JUMP JUMPDEST DUP1 PUSH2 0x729 JUMP JUMPDEST DUP1 CALLDATALOAD PUSH2 0x6E9 DUP2 PUSH2 0x7A9 JUMP JUMPDEST PUSH1 0x0 PUSH1 0x20 DUP3 DUP5 SUB SLT ISZERO PUSH2 0x7CF JUMPI PUSH2 0x7CF PUSH1 0x0 DUP1 REVERT JUMPDEST PUSH1 0x0 PUSH2 0x763 DUP5 DUP5 PUSH2 0x7AF JUMP JUMPDEST DUP1 ISZERO ISZERO PUSH2 0x6F8 JUMP JUMPDEST PUSH1 0x20 DUP2 ADD PUSH2 0x6E9 DUP3 DUP5 PUSH2 0x7DB JUMP JUMPDEST PUSH1 0x0 JUMPDEST DUP4 DUP2 LT ISZERO PUSH2 0x80C JUMPI DUP2 DUP2 ADD MLOAD DUP4 DUP3 ADD MSTORE PUSH1 0x20 ADD PUSH2 0x7F4 JUMP JUMPDEST POP POP PUSH1 0x0 SWAP2 ADD MSTORE JUMP JUMPDEST PUSH1 0x0 PUSH2 0x81F DUP3 MLOAD SWAP1 JUMP JUMPDEST DUP1 DUP5 MSTORE PUSH1 0x20 DUP5 ADD SWAP4 POP PUSH2 0x836 DUP2 DUP6 PUSH1 0x20 DUP7 ADD PUSH2 0x7F1 JUMP JUMPDEST PUSH1 0x1F ADD PUSH1 0x1F NOT AND SWAP3 SWAP1 SWAP3 ADD SWAP3 SWAP2 POP POP JUMP JUMPDEST PUSH1 0x20 DUP1 DUP3 MSTORE DUP2 ADD PUSH2 0x858 DUP2 DUP5 PUSH2 0x815 JUMP JUMPDEST SWAP4 SWAP3 POP POP POP JUMP JUMPDEST PUSH4 0x4E487B71 PUSH1 0xE0 SHL PUSH1 0x0 MSTORE PUSH1 0x21 PUSH1 0x4 MSTORE PUSH1 0x24 PUSH1 0x0 REVERT JUMPDEST PUSH1 0xE DUP2 LT PUSH2 0x734 JUMPI PUSH2 0x734 PUSH2 0x85F JUMP JUMPDEST DUP1 PUSH2 0x88F DUP2 PUSH2 0x875 JUMP JUMPDEST SWAP2 SWAP1 POP JUMP JUMPDEST PUSH1 0x0 PUSH2 0x6E9 DUP3 PUSH2 0x885 JUMP JUMPDEST PUSH2 0x6F8 DUP2 PUSH2 0x894 JUMP JUMPDEST PUSH1 0x20 DUP2 ADD PUSH2 0x6E9 DUP3 DUP5 PUSH2 0x89F JUMP INVALID LOG2 PUSH5 0x6970667358 0x22 SLT KECCAK256 LOG1 JUMPDEST 0xDD MSTORE8 SWAP14 SGT 0xC8 PUSH29 0x578F4C6D64DF026BABABF34680C1A768F55852D7B98A647B64736F6C63 NUMBER STOP ADDMOD LT STOP CALLER "},"methodIdentifiers":{"ACCOUNTANT_MANAGER()":"652da324","ADD_STRATEGY_MANAGER()":"c065ca07","API_VERSION()":"77e3b267","DEBT_MANAGER()":"c8d74b60","DEBT_PURCHASER()":"ab5b4d49","DEPOSIT_LIMIT_MANAGER()":"a98222c4","DOMAIN_SEPARATOR()":"3644e515","DOMAIN_TYPE_HASH()":"c0993eea","EMERGENCY_MANAGER()":"fec61f06","FORCE_REVOKE_MANAGER()":"5bf6b4fb","MAX_BPS()":"fd967f47","MAX_BPS_EXTENDED()":"36fba084","MAX_DEBT_MANAGER()":"f1daeba8","MAX_QUEUE()":"3f7b5e40","MINIMUM_IDLE_MANAGER()":"0ad283d0","PERMIT_TYPE_HASH()":"4d4bb197","PROFIT_UNLOCK_MANAGER()":"d4ae064f","QUEUE_MANAGER()":"4cfe51dc","REPORTING_MANAGER()":"03dcd12c","REVOKE_STRATEGY_MANAGER()":"9f3988f3","ROLE_MANAGER()":"f5b944eb","WITHDRAW_LIMIT_MANAGER()":"4ce1d38a","accountant()":"4fb3ccc5","defaultQueue(uint256)":"ff1e7f08","depositLimit()":"ecf70858","depositLimitModule()":"9e34e348","fullProfitUnlockDate()":"2d632692","futureRoleManager()":"b3c187f2","lastProfitUpdate()":"8afca8f0","minimumTotalIdle()":"0835a3fc","nonces(address)":"7ecebe00","openRoles(bytes32)":"53a66132","profitMaxUnlockTime()":"0952864e","profitUnlockingRate()":"5141eebb","roleManager()":"00435da5","roles(address)":"99374642","shutdown()":"fc0e74d1","strategies(address)":"39ebf823","totalDebtAmount()":"c8dffa95","totalIdleAmount()":"3cd7b5ab","totalSupplyAmount()":"f828f50b","useDefaultQueue()":"bbe4eb49","withdrawLimitModule()":"91986003"}}}}}