{"contracts/VaultV3.sol":{"YearnV3Vault":{"abi":[{"inputs":[{"internalType":"contract IERC20","name":"_asset","type":"address"},{"internalType":"string","name":"_name","type":"string"},{"internalType":"string","name":"_symbol","type":"string"},{"internalType":"address","name":"_roleManager","type":"address"},{"internalType":"uint256","name":"_profitMaxUnlockTime","type":"uint256"}],"stateMutability":"nonpayable","type":"constructor"},{"anonymous":false,"inputs":[{"indexed":true,"internalType":"address","name":"owner","type":"address"},{"indexed":true,"internalType":"address","name":"spender","type":"address"},{"indexed":false,"internalType":"uint256","name":"value","type":"uint256"}],"name":"Approval","type":"event"},{"anonymous":false,"inputs":[{"indexed":true,"internalType":"address","name":"strategy","type":"address"},{"indexed":false,"internalType":"uint256","name":"amount","type":"uint256"}],"name":"DebtPurchased","type":"event"},{"anonymous":false,"inputs":[{"indexed":true,"internalType":"address","name":"strategy","type":"address"},{"indexed":false,"internalType":"uint256","name":"currentDebt","type":"uint256"},{"indexed":false,"internalType":"uint256","name":"newDebt","type":"uint256"}],"name":"DebtUpdated","type":"event"},{"anonymous":false,"inputs":[{"indexed":true,"internalType":"address","name":"sender","type":"address"},{"indexed":true,"internalType":"address","name":"owner","type":"address"},{"indexed":false,"internalType":"uint256","name":"assets","type":"uint256"},{"indexed":false,"internalType":"uint256","name":"shares","type":"uint256"}],"name":"Deposit","type":"event"},{"anonymous":false,"inputs":[{"indexed":true,"internalType":"bytes32","name":"role","type":"bytes32"},{"indexed":true,"internalType":"bytes32","name":"previousAdminRole","type":"bytes32"},{"indexed":true,"internalType":"bytes32","name":"newAdminRole","type":"bytes32"}],"name":"RoleAdminChanged","type":"event"},{"anonymous":false,"inputs":[{"indexed":true,"internalType":"bytes32","name":"role","type":"bytes32"},{"indexed":true,"internalType":"address","name":"account","type":"address"},{"indexed":true,"internalType":"address","name":"sender","type":"address"}],"name":"RoleGranted","type":"event"},{"anonymous":false,"inputs":[{"indexed":true,"internalType":"bytes32","name":"role","type":"bytes32"},{"indexed":true,"internalType":"address","name":"account","type":"address"},{"indexed":true,"internalType":"address","name":"sender","type":"address"}],"name":"RoleRevoked","type":"event"},{"anonymous":false,"inputs":[{"indexed":true,"internalType":"address","name":"account","type":"address"},{"indexed":false,"internalType":"bytes32","name":"role","type":"bytes32"}],"name":"RoleSet","type":"event"},{"anonymous":false,"inputs":[{"indexed":true,"internalType":"bytes32","name":"role","type":"bytes32"},{"indexed":true,"internalType":"enum RoleStatusChange","name":"status","type":"uint8"}],"name":"RoleStatusChanged","type":"event"},{"anonymous":false,"inputs":[],"name":"Shutdown","type":"event"},{"anonymous":false,"inputs":[{"indexed":true,"internalType":"address","name":"strategy","type":"address"},{"indexed":false,"internalType":"enum StrategyChangeType","name":"changeType","type":"uint8"}],"name":"StrategyChanged","type":"event"},{"anonymous":false,"inputs":[{"indexed":true,"internalType":"address","name":"strategy","type":"address"},{"indexed":false,"internalType":"uint256","name":"gain","type":"uint256"},{"indexed":false,"internalType":"uint256","name":"loss","type":"uint256"},{"indexed":false,"internalType":"uint256","name":"currentDebt","type":"uint256"},{"indexed":false,"internalType":"uint256","name":"protocolFees","type":"uint256"},{"indexed":false,"internalType":"uint256","name":"totalFees","type":"uint256"},{"indexed":false,"internalType":"uint256","name":"totalRefunds","type":"uint256"}],"name":"StrategyReported","type":"event"},{"anonymous":false,"inputs":[{"indexed":true,"internalType":"address","name":"from","type":"address"},{"indexed":true,"internalType":"address","name":"to","type":"address"},{"indexed":false,"internalType":"uint256","name":"value","type":"uint256"}],"name":"Transfer","type":"event"},{"anonymous":false,"inputs":[{"indexed":true,"internalType":"address","name":"accountant","type":"address"}],"name":"UpdateAccountant","type":"event"},{"anonymous":false,"inputs":[{"indexed":false,"internalType":"address[]","name":"newDefaultQueue","type":"address[]"}],"name":"UpdateDefaultQueue","type":"event"},{"anonymous":false,"inputs":[{"indexed":false,"internalType":"uint256","name":"depositLimit","type":"uint256"}],"name":"UpdateDepositLimit","type":"event"},{"anonymous":false,"inputs":[{"indexed":true,"internalType":"address","name":"depositLimitModule","type":"address"}],"name":"UpdateDepositLimitModule","type":"event"},{"anonymous":false,"inputs":[{"indexed":false,"internalType":"uint256","name":"minimumTotalIdle","type":"uint256"}],"name":"UpdateMinimumTotalIdle","type":"event"},{"anonymous":false,"inputs":[{"indexed":false,"internalType":"uint256","name":"profitMaxUnlockTime","type":"uint256"}],"name":"UpdateProfitMaxUnlockTime","type":"event"},{"anonymous":false,"inputs":[{"indexed":true,"internalType":"address","name":"roleManager","type":"address"}],"name":"UpdateRoleManager","type":"event"},{"anonymous":false,"inputs":[{"indexed":false,"internalType":"bool","name":"useDefaultQueue","type":"bool"}],"name":"UpdateUseDefaultQueue","type":"event"},{"anonymous":false,"inputs":[{"indexed":true,"internalType":"address","name":"withdrawLimitModule","type":"address"}],"name":"UpdateWithdrawLimitModule","type":"event"},{"anonymous":false,"inputs":[{"indexed":true,"internalType":"address","name":"sender","type":"address"},{"indexed":true,"internalType":"address","name":"strategy","type":"address"},{"indexed":false,"internalType":"uint256","name":"newDebt","type":"uint256"}],"name":"UpdatedMaxDebtForStrategy","type":"event"},{"anonymous":false,"inputs":[{"indexed":true,"internalType":"address","name":"sender","type":"address"},{"indexed":true,"internalType":"address","name":"receiver","type":"address"},{"indexed":true,"internalType":"address","name":"owner","type":"address"},{"indexed":false,"internalType":"uint256","name":"assets","type":"uint256"},{"indexed":false,"internalType":"uint256","name":"shares","type":"uint256"}],"name":"Withdraw","type":"event"},{"inputs":[],"name":"ACCOUNTANT_MANAGER","outputs":[{"internalType":"bytes32","name":"","type":"bytes32"}],"stateMutability":"view","type":"function"},{"inputs":[],"name":"ADD_STRATEGY_MANAGER","outputs":[{"internalType":"bytes32","name":"","type":"bytes32"}],"stateMutability":"view","type":"function"},{"inputs":[],"name":"API_VERSION","outputs":[{"internalType":"string","name":"","type":"string"}],"stateMutability":"view","type":"function"},{"inputs":[],"name":"ASSET","outputs":[{"internalType":"contract IERC20","name":"","type":"address"}],"stateMutability":"view","type":"function"},{"inputs":[],"name":"DEBT_MANAGER","outputs":[{"internalType":"bytes32","name":"","type":"bytes32"}],"stateMutability":"view","type":"function"},{"inputs":[],"name":"DEBT_PURCHASER","outputs":[{"internalType":"bytes32","name":"","type":"bytes32"}],"stateMutability":"view","type":"function"},{"inputs":[],"name":"DECIMALS","outputs":[{"internalType":"uint256","name":"","type":"uint256"}],"stateMutability":"view","type":"function"},{"inputs":[],"name":"DEFAULT_ADMIN_ROLE","outputs":[{"internalType":"bytes32","name":"","type":"bytes32"}],"stateMutability":"view","type":"function"},{"inputs":[],"name":"DEPOSIT_LIMIT_MANAGER","outputs":[{"internalType":"bytes32","name":"","type":"bytes32"}],"stateMutability":"view","type":"function"},{"inputs":[],"name":"DOMAIN_SEPARATOR","outputs":[{"internalType":"bytes32","name":"","type":"bytes32"}],"stateMutability":"view","type":"function"},{"inputs":[],"name":"DOMAIN_TYPE_HASH","outputs":[{"internalType":"bytes32","name":"","type":"bytes32"}],"stateMutability":"view","type":"function"},{"inputs":[],"name":"EMERGENCY_MANAGER","outputs":[{"internalType":"bytes32","name":"","type":"bytes32"}],"stateMutability":"view","type":"function"},{"inputs":[],"name":"FACTORY","outputs":[{"internalType":"address","name":"","type":"address"}],"stateMutability":"view","type":"function"},{"inputs":[],"name":"FORCE_REVOKE_MANAGER","outputs":[{"internalType":"bytes32","name":"","type":"bytes32"}],"stateMutability":"view","type":"function"},{"inputs":[],"name":"MAX_BPS","outputs":[{"internalType":"uint256","name":"","type":"uint256"}],"stateMutability":"view","type":"function"},{"inputs":[],"name":"MAX_BPS_EXTENDED","outputs":[{"internalType":"uint256","name":"","type":"uint256"}],"stateMutability":"view","type":"function"},{"inputs":[],"name":"MAX_DEBT_MANAGER","outputs":[{"internalType":"bytes32","name":"","type":"bytes32"}],"stateMutability":"view","type":"function"},{"inputs":[],"name":"MAX_QUEUE","outputs":[{"internalType":"uint256","name":"","type":"uint256"}],"stateMutability":"view","type":"function"},{"inputs":[],"name":"MINIMUM_IDLE_MANAGER","outputs":[{"internalType":"bytes32","name":"","type":"bytes32"}],"stateMutability":"view","type":"function"},{"inputs":[],"name":"ONE_YEAR","outputs":[{"internalType":"uint256","name":"","type":"uint256"}],"stateMutability":"view","type":"function"},{"inputs":[],"name":"PERMIT_TYPE_HASH","outputs":[{"internalType":"bytes32","name":"","type":"bytes32"}],"stateMutability":"view","type":"function"},{"inputs":[],"name":"PROFIT_UNLOCK_MANAGER","outputs":[{"internalType":"bytes32","name":"","type":"bytes32"}],"stateMutability":"view","type":"function"},{"inputs":[],"name":"QUEUE_MANAGER","outputs":[{"internalType":"bytes32","name":"","type":"bytes32"}],"stateMutability":"view","type":"function"},{"inputs":[],"name":"REPORTING_MANAGER","outputs":[{"internalType":"bytes32","name":"","type":"bytes32"}],"stateMutability":"view","type":"function"},{"inputs":[],"name":"REVOKE_STRATEGY_MANAGER","outputs":[{"internalType":"bytes32","name":"","type":"bytes32"}],"stateMutability":"view","type":"function"},{"inputs":[],"name":"ROLE_MANAGER","outputs":[{"internalType":"bytes32","name":"","type":"bytes32"}],"stateMutability":"view","type":"function"},{"inputs":[],"name":"WITHDRAW_LIMIT_MANAGER","outputs":[{"internalType":"bytes32","name":"","type":"bytes32"}],"stateMutability":"view","type":"function"},{"inputs":[],"name":"acceptRoleManager","outputs":[],"stateMutability":"nonpayable","type":"function"},{"inputs":[],"name":"accountant","outputs":[{"internalType":"address","name":"","type":"address"}],"stateMutability":"view","type":"function"},{"inputs":[{"internalType":"address","name":"account","type":"address"},{"internalType":"bytes32","name":"role","type":"bytes32"}],"name":"addRole","outputs":[],"stateMutability":"nonpayable","type":"function"},{"inputs":[{"internalType":"address","name":"newStrategy","type":"address"}],"name":"addStrategy","outputs":[],"stateMutability":"nonpayable","type":"function"},{"inputs":[{"internalType":"address","name":"owner","type":"address"},{"internalType":"address","name":"spender","type":"address"}],"name":"allowance","outputs":[{"internalType":"uint256","name":"","type":"uint256"}],"stateMutability":"view","type":"function"},{"inputs":[],"name":"apiVersion","outputs":[{"internalType":"string","name":"","type":"string"}],"stateMutability":"view","type":"function"},{"inputs":[{"internalType":"address","name":"spender","type":"address"},{"internalType":"uint256","name":"amount","type":"uint256"}],"name":"approve","outputs":[{"internalType":"bool","name":"","type":"bool"}],"stateMutability":"nonpayable","type":"function"},{"inputs":[{"internalType":"address","name":"strategy","type":"address"},{"internalType":"uint256","name":"assetsNeeded","type":"uint256"}],"name":"assessShareOfUnrealisedLosses","outputs":[{"internalType":"uint256","name":"","type":"uint256"}],"stateMutability":"view","type":"function"},{"inputs":[],"name":"asset","outputs":[{"internalType":"address","name":"","type":"address"}],"stateMutability":"view","type":"function"},{"inputs":[{"internalType":"address","name":"addr","type":"address"}],"name":"balanceOf","outputs":[{"internalType":"uint256","name":"","type":"uint256"}],"stateMutability":"view","type":"function"},{"inputs":[{"internalType":"uint256","name":"shares","type":"uint256"},{"internalType":"address","name":"owner","type":"address"}],"name":"burnShares","outputs":[{"internalType":"bool","name":"","type":"bool"}],"stateMutability":"nonpayable","type":"function"},{"inputs":[{"internalType":"address","name":"strategy","type":"address"},{"internalType":"uint256","name":"amount","type":"uint256"}],"name":"buyDebt","outputs":[],"stateMutability":"nonpayable","type":"function"},{"inputs":[{"internalType":"bytes32","name":"role","type":"bytes32"}],"name":"closeOpenRole","outputs":[],"stateMutability":"nonpayable","type":"function"},{"inputs":[{"internalType":"uint256","name":"shares","type":"uint256"}],"name":"convertToAssets","outputs":[{"internalType":"uint256","name":"","type":"uint256"}],"stateMutability":"view","type":"function"},{"inputs":[{"internalType":"uint256","name":"assets","type":"uint256"}],"name":"convertToShares","outputs":[{"internalType":"uint256","name":"","type":"uint256"}],"stateMutability":"view","type":"function"},{"inputs":[],"name":"decimals","outputs":[{"internalType":"uint8","name":"","type":"uint8"}],"stateMutability":"view","type":"function"},{"inputs":[{"internalType":"address","name":"spender","type":"address"},{"internalType":"uint256","name":"amount","type":"uint256"}],"name":"decreaseAllowance","outputs":[{"internalType":"bool","name":"","type":"bool"}],"stateMutability":"nonpayable","type":"function"},{"inputs":[{"internalType":"uint256","name":"","type":"uint256"}],"name":"defaultQueue","outputs":[{"internalType":"address","name":"","type":"address"}],"stateMutability":"view","type":"function"},{"inputs":[{"internalType":"uint256","name":"assets","type":"uint256"},{"internalType":"address","name":"receiver","type":"address"}],"name":"deposit","outputs":[{"internalType":"uint256","name":"","type":"uint256"}],"stateMutability":"nonpayable","type":"function"},{"inputs":[],"name":"depositLimit","outputs":[{"internalType":"uint256","name":"","type":"uint256"}],"stateMutability":"view","type":"function"},{"inputs":[],"name":"depositLimitModule","outputs":[{"internalType":"address","name":"","type":"address"}],"stateMutability":"view","type":"function"},{"inputs":[{"internalType":"address","name":"strategy","type":"address"}],"name":"forceRevokeStrategy","outputs":[],"stateMutability":"nonpayable","type":"function"},{"inputs":[],"name":"fullProfitUnlockDate","outputs":[{"internalType":"uint256","name":"","type":"uint256"}],"stateMutability":"view","type":"function"},{"inputs":[],"name":"futureRoleManager","outputs":[{"internalType":"address","name":"","type":"address"}],"stateMutability":"view","type":"function"},{"inputs":[],"name":"getDefaultQueue","outputs":[{"internalType":"address[]","name":"","type":"address[]"}],"stateMutability":"view","type":"function"},{"inputs":[{"internalType":"bytes32","name":"role","type":"bytes32"}],"name":"getRoleAdmin","outputs":[{"internalType":"bytes32","name":"","type":"bytes32"}],"stateMutability":"view","type":"function"},{"inputs":[{"internalType":"bytes32","name":"role","type":"bytes32"},{"internalType":"address","name":"account","type":"address"}],"name":"grantRole","outputs":[],"stateMutability":"nonpayable","type":"function"},{"inputs":[{"internalType":"bytes32","name":"role","type":"bytes32"},{"internalType":"address","name":"account","type":"address"}],"name":"hasRole","outputs":[{"internalType":"bool","name":"","type":"bool"}],"stateMutability":"view","type":"function"},{"inputs":[{"internalType":"address","name":"spender","type":"address"},{"internalType":"uint256","name":"amount","type":"uint256"}],"name":"increaseAllowance","outputs":[{"internalType":"bool","name":"","type":"bool"}],"stateMutability":"nonpayable","type":"function"},{"inputs":[],"name":"isShutdown","outputs":[{"internalType":"bool","name":"","type":"bool"}],"stateMutability":"view","type":"function"},{"inputs":[{"internalType":"uint256","name":"shares","type":"uint256"},{"internalType":"address","name":"recipient","type":"address"}],"name":"issueShares","outputs":[{"internalType":"bool","name":"","type":"bool"}],"stateMutability":"nonpayable","type":"function"},{"inputs":[],"name":"lastProfitUpdate","outputs":[{"internalType":"uint256","name":"","type":"uint256"}],"stateMutability":"view","type":"function"},{"inputs":[{"internalType":"address","name":"receiver","type":"address"}],"name":"maxDeposit","outputs":[{"internalType":"uint256","name":"","type":"uint256"}],"stateMutability":"view","type":"function"},{"inputs":[{"internalType":"address","name":"receiver","type":"address"}],"name":"maxMint","outputs":[{"internalType":"uint256","name":"","type":"uint256"}],"stateMutability":"view","type":"function"},{"inputs":[{"internalType":"address","name":"owner","type":"address"},{"internalType":"uint256","name":"maxLoss","type":"uint256"},{"internalType":"address[]","name":"strategies","type":"address[]"}],"name":"maxRedeem","outputs":[{"internalType":"uint256","name":"","type":"uint256"}],"stateMutability":"nonpayable","type":"function"},{"inputs":[{"internalType":"address","name":"owner","type":"address"},{"internalType":"uint256","name":"maxLoss","type":"uint256"},{"internalType":"address[]","name":"strategies","type":"address[]"}],"name":"maxWithdraw","outputs":[{"internalType":"uint256","name":"","type":"uint256"}],"stateMutability":"nonpayable","type":"function"},{"inputs":[],"name":"minimumTotalIdle","outputs":[{"internalType":"uint256","name":"","type":"uint256"}],"stateMutability":"view","type":"function"},{"inputs":[{"internalType":"uint256","name":"shares","type":"uint256"},{"internalType":"address","name":"receiver","type":"address"}],"name":"mint","outputs":[{"internalType":"uint256","name":"","type":"uint256"}],"stateMutability":"nonpayable","type":"function"},{"inputs":[],"name":"name","outputs":[{"internalType":"string","name":"","type":"string"}],"stateMutability":"view","type":"function"},{"inputs":[{"internalType":"address","name":"","type":"address"}],"name":"nonces","outputs":[{"internalType":"uint256","name":"","type":"uint256"}],"stateMutability":"view","type":"function"},{"inputs":[{"internalType":"bytes32","name":"","type":"bytes32"}],"name":"openRoles","outputs":[{"internalType":"bool","name":"","type":"bool"}],"stateMutability":"view","type":"function"},{"inputs":[{"internalType":"address","name":"owner","type":"address"},{"internalType":"address","name":"spender","type":"address"},{"internalType":"uint256","name":"amount","type":"uint256"},{"internalType":"uint256","name":"deadline","type":"uint256"},{"internalType":"uint8","name":"v","type":"uint8"},{"internalType":"bytes32","name":"r","type":"bytes32"},{"internalType":"bytes32","name":"s","type":"bytes32"}],"name":"permit","outputs":[{"internalType":"bool","name":"","type":"bool"}],"stateMutability":"nonpayable","type":"function"},{"inputs":[{"internalType":"uint256","name":"assets","type":"uint256"}],"name":"previewDeposit","outputs":[{"internalType":"uint256","name":"","type":"uint256"}],"stateMutability":"view","type":"function"},{"inputs":[{"internalType":"uint256","name":"shares","type":"uint256"}],"name":"previewMint","outputs":[{"internalType":"uint256","name":"","type":"uint256"}],"stateMutability":"view","type":"function"},{"inputs":[{"internalType":"uint256","name":"shares","type":"uint256"}],"name":"previewRedeem","outputs":[{"internalType":"uint256","name":"","type":"uint256"}],"stateMutability":"view","type":"function"},{"inputs":[{"internalType":"uint256","name":"assets","type":"uint256"}],"name":"previewWithdraw","outputs":[{"internalType":"uint256","name":"","type":"uint256"}],"stateMutability":"view","type":"function"},{"inputs":[],"name":"pricePerShare","outputs":[{"internalType":"uint256","name":"","type":"uint256"}],"stateMutability":"view","type":"function"},{"inputs":[{"internalType":"address","name":"strategy","type":"address"}],"name":"processReport","outputs":[{"internalType":"uint256","name":"","type":"uint256"},{"internalType":"uint256","name":"","type":"uint256"}],"stateMutability":"nonpayable","type":"function"},{"inputs":[],"name":"profitMaxUnlockTime","outputs":[{"internalType":"uint256","name":"","type":"uint256"}],"stateMutability":"view","type":"function"},{"inputs":[],"name":"profitUnlockingRate","outputs":[{"internalType":"uint256","name":"","type":"uint256"}],"stateMutability":"view","type":"function"},{"inputs":[{"internalType":"uint256","name":"shares","type":"uint256"},{"internalType":"address","name":"receiver","type":"address"},{"internalType":"address","name":"owner","type":"address"},{"internalType":"uint256","name":"maxLoss","type":"uint256"},{"internalType":"address[]","name":"strategies","type":"address[]"}],"name":"redeem","outputs":[{"internalType":"uint256","name":"","type":"uint256"}],"stateMutability":"nonpayable","type":"function"},{"inputs":[{"internalType":"address","name":"account","type":"address"},{"internalType":"bytes32","name":"role","type":"bytes32"}],"name":"removeRole","outputs":[],"stateMutability":"nonpayable","type":"function"},{"inputs":[{"internalType":"bytes32","name":"role","type":"bytes32"},{"internalType":"address","name":"account","type":"address"}],"name":"renounceRole","outputs":[],"stateMutability":"nonpayable","type":"function"},{"inputs":[{"internalType":"bytes32","name":"role","type":"bytes32"},{"internalType":"address","name":"account","type":"address"}],"name":"revokeRole","outputs":[],"stateMutability":"nonpayable","type":"function"},{"inputs":[{"internalType":"address","name":"strategy","type":"address"}],"name":"revokeStrategy","outputs":[],"stateMutability":"nonpayable","type":"function"},{"inputs":[],"name":"roleManager","outputs":[{"internalType":"address","name":"","type":"address"}],"stateMutability":"view","type":"function"},{"inputs":[{"internalType":"address","name":"","type":"address"}],"name":"roles","outputs":[{"internalType":"enum Roles","name":"","type":"uint8"}],"stateMutability":"view","type":"function"},{"inputs":[{"internalType":"address","name":"newAccountant","type":"address"}],"name":"setAccountant","outputs":[],"stateMutability":"nonpayable","type":"function"},{"inputs":[{"internalType":"address[]","name":"newDefaultQueue","type":"address[]"}],"name":"setDefaultQueue","outputs":[],"stateMutability":"nonpayable","type":"function"},{"inputs":[{"internalType":"uint256","name":"_depositLimit","type":"uint256"}],"name":"setDepositLimit","outputs":[],"stateMutability":"nonpayable","type":"function"},{"inputs":[{"internalType":"address","name":"_depositLimitModule","type":"address"}],"name":"setDepositLimitModule","outputs":[],"stateMutability":"nonpayable","type":"function"},{"inputs":[{"internalType":"uint256","name":"_minimumTotalIdle","type":"uint256"}],"name":"setMinimumTotalIdle","outputs":[],"stateMutability":"nonpayable","type":"function"},{"inputs":[{"internalType":"bytes32","name":"role","type":"bytes32"}],"name":"setOpenRole","outputs":[],"stateMutability":"nonpayable","type":"function"},{"inputs":[{"internalType":"uint256","name":"_newProfitMaxUnlockTime","type":"uint256"}],"name":"setProfitMaxUnlockTime","outputs":[],"stateMutability":"nonpayable","type":"function"},{"inputs":[{"internalType":"bool","name":"_useDefaultQueue","type":"bool"}],"name":"setUseDefaultQueue","outputs":[],"stateMutability":"nonpayable","type":"function"},{"inputs":[{"internalType":"address","name":"_withdrawLimitModule","type":"address"}],"name":"setWithdrawLimitModule","outputs":[],"stateMutability":"nonpayable","type":"function"},{"inputs":[],"name":"shutdown","outputs":[{"internalType":"bool","name":"","type":"bool"}],"stateMutability":"view","type":"function"},{"inputs":[],"name":"shutdownVault","outputs":[],"stateMutability":"nonpayable","type":"function"},{"inputs":[{"internalType":"address","name":"","type":"address"}],"name":"strategies","outputs":[{"internalType":"uint256","name":"activation","type":"uint256"},{"internalType":"uint256","name":"lastReport","type":"uint256"},{"internalType":"uint256","name":"currentDebt","type":"uint256"},{"internalType":"uint256","name":"maxDebt","type":"uint256"}],"stateMutability":"view","type":"function"},{"inputs":[{"internalType":"bytes4","name":"interfaceId","type":"bytes4"}],"name":"supportsInterface","outputs":[{"internalType":"bool","name":"","type":"bool"}],"stateMutability":"view","type":"function"},{"inputs":[],"name":"symbol","outputs":[{"internalType":"string","name":"","type":"string"}],"stateMutability":"view","type":"function"},{"inputs":[],"name":"totalAssets","outputs":[{"internalType":"uint256","name":"","type":"uint256"}],"stateMutability":"view","type":"function"},{"inputs":[],"name":"totalDebt","outputs":[{"internalType":"uint256","name":"","type":"uint256"}],"stateMutability":"view","type":"function"},{"inputs":[],"name":"totalDebtAmount","outputs":[{"internalType":"uint256","name":"","type":"uint256"}],"stateMutability":"view","type":"function"},{"inputs":[],"name":"totalIdle","outputs":[{"internalType":"uint256","name":"","type":"uint256"}],"stateMutability":"view","type":"function"},{"inputs":[],"name":"totalIdleAmount","outputs":[{"internalType":"uint256","name":"","type":"uint256"}],"stateMutability":"view","type":"function"},{"inputs":[],"name":"totalSupply","outputs":[{"internalType":"uint256","name":"","type":"uint256"}],"stateMutability":"view","type":"function"},{"inputs":[],"name":"totalSupplyAmount","outputs":[{"internalType":"uint256","name":"","type":"uint256"}],"stateMutability":"view","type":"function"},{"inputs":[{"internalType":"address","name":"receiver","type":"address"},{"internalType":"uint256","name":"amount","type":"uint256"}],"name":"transfer","outputs":[{"internalType":"bool","name":"","type":"bool"}],"stateMutability":"nonpayable","type":"function"},{"inputs":[{"internalType":"address","name":"sender","type":"address"},{"internalType":"address","name":"receiver","type":"address"},{"internalType":"uint256","name":"amount","type":"uint256"}],"name":"transferFrom","outputs":[{"internalType":"bool","name":"","type":"bool"}],"stateMutability":"nonpayable","type":"function"},{"inputs":[{"internalType":"address","name":"newRoleManager","type":"address"}],"name":"transferRoleManager","outputs":[],"stateMutability":"nonpayable","type":"function"},{"inputs":[],"name":"unlockedShares","outputs":[{"internalType":"uint256","name":"","type":"uint256"}],"stateMutability":"view","type":"function"},{"inputs":[{"internalType":"address","name":"strategy","type":"address"},{"internalType":"uint256","name":"targetDebt","type":"uint256"}],"name":"updateDebt","outputs":[{"internalType":"uint256","name":"","type":"uint256"}],"stateMutability":"nonpayable","type":"function"},{"inputs":[{"internalType":"address","name":"strategy","type":"address"},{"internalType":"uint256","name":"newMaxDebt","type":"uint256"}],"name":"updateMaxDebtForStrategy","outputs":[],"stateMutability":"nonpayable","type":"function"},{"inputs":[],"name":"useDefaultQueue","outputs":[{"internalType":"bool","name":"","type":"bool"}],"stateMutability":"view","type":"function"},{"inputs":[{"internalType":"uint256","name":"assets","type":"uint256"},{"internalType":"address","name":"receiver","type":"address"},{"internalType":"address","name":"owner","type":"address"},{"internalType":"uint256","name":"maxLoss","type":"uint256"},{"internalType":"address[]","name":"strategies","type":"address[]"}],"name":"withdraw","outputs":[{"internalType":"uint256","name":"","type":"uint256"}],"stateMutability":"nonpayable","type":"function"},{"inputs":[],"name":"withdrawLimitModule","outputs":[{"internalType":"address","name":"","type":"address"}],"stateMutability":"view","type":"function"}],"evm":{"bytecode":{"linkReferences":{},"object":"6101006040526301e1855860e0523480156200001a57600080fd5b5060405162007b0938038062007b098339810160408190526200003d9162000394565b600180556001600160a01b03851660808190526040805163313ce56760e01b8152905163313ce567916004808201926020929091908290030181865afa1580156200008c573d6000803e3d6000fd5b505050506040513d601f19601f82011682018060405250810190620000b2919062000467565b60ff1660a081905261010011620000e65760405162461bcd60e51b8152600401620000dd906200048c565b60405180910390fd5b3360c0526301e18558811115620001115760405162461bcd60e51b8152600401620000dd90620004c8565b601381905560196200012485826200060c565b50601a6200013384826200060c565b50601180546001600160a01b0319166001600160a01b03841617905583516020808601919091206040805180820182526005815264332e302e3160d81b9084015251620001ca927f8b73c3c69bb8fe3d512ecc4cf759cc79239f7b179b0ffacaa9a75d522b39400f92917fc63fef2293a1f92e82ea14ecff0fffda4a757b8c20dd61198c8b9ebef0985ef4914691309101620006ef565b60405160208183030381529060405280519060200120601881905550505050505062000745565b60006001600160a01b0382165b92915050565b6000620001fe82620001f1565b6200021c8162000204565b81146200022857600080fd5b50565b8051620001fe8162000211565b634e487b7160e01b600052604160045260246000fd5b601f19601f83011681018181106001600160401b038211171562000276576200027662000238565b6040525050565b60006200028960405190565b90506200029782826200024e565b919050565b60006001600160401b03821115620002b857620002b862000238565b601f19601f83011660200192915050565b60005b83811015620002e6578181015183820152602001620002cc565b50506000910152565b60006200030662000300846200029c565b6200027d565b905082815260208101848484011115620003235762000323600080fd5b62000330848285620002c9565b509392505050565b600082601f8301126200034e576200034e600080fd5b815162000360848260208601620002ef565b949350505050565b6200021c81620001f1565b8051620001fe8162000368565b806200021c565b8051620001fe8162000380565b600080600080600060a08688031215620003b157620003b1600080fd5b6000620003bf88886200022b565b95505060208601516001600160401b03811115620003e057620003e0600080fd5b620003ee8882890162000338565b94505060408601516001600160401b038111156200040f576200040f600080fd5b6200041d8882890162000338565b9350506060620004308882890162000373565b9250506080620004438882890162000387565b9150509295509295909350565b60ff81166200021c565b8051620001fe8162000450565b6000602082840312156200047e576200047e600080fd5b60006200036084846200045a565b60208082528101620001fe81601d81527f5661756c743a20696e76616c696420617373657420646563696d616c73000000602082015260400190565b60208082528101620001fe81602281527f5661756c743a2070726f66697420756e6c6f636b2074696d6520746f6f206c6f6020820152616e6760f01b604082015260600190565b634e487b7160e01b600052602260045260246000fd5b6002810460018216806200053a57607f821691505b6020821081036200054f576200054f6200050f565b50919050565b6000620001fe620005638381565b90565b620005718362000555565b81546008840282811b60001990911b908116901990911617825550505050565b6000620005a081848462000566565b505050565b81811015620005c457620005bb60008262000591565b600101620005a5565b5050565b601f821115620005a0576000818152602090206020601f85010481016020851015620005f15750805b620006056020601f860104830182620005a5565b5050505050565b81516001600160401b0381111562000628576200062862000238565b62000634825462000525565b62000641828285620005c8565b6020601f8311600181146200067857600084156200065f5750858201515b600019600886021c1981166002860217865550620006d4565b600085815260208120601f198616915b82811015620006aa578885015182556020948501946001909201910162000688565b86831015620006c75784890151600019601f89166008021c191682555b6001600288020188555050505b505050505050565b805b82525050565b620006de81620001f1565b60a08101620006ff8288620006dc565b6200070e6020830187620006dc565b6200071d6040830186620006dc565b6200072c6060830185620006dc565b6200073b6080830184620006e4565b9695505050505050565b60805160a05160c05160e0516172f7620008126000396000818161062f0152611d6a0152600081816106e90152614cdc0152600081816107100152818161074701526119630152600081816107b00152818161087d0152818161138d015281816124f3015281816130a50152818161314101528181613358015281816133980152818161349d0152818161351a015281816137af015281816139ae015281816140600152818161446b015281816146f401528181614e6001528181614ef40152614f3f01526172f76000f3fe608060405234801561001057600080fd5b50600436106105155760003560e01c806370a08231116102a257806370a08231146109f457806377e3b26714610a075780637ecebe0014610a2b5780638212fd4314610a4b5780638afca8f014610a5e5780639198600314610a6757806391d1485414610a7a57806394bf804d14610a8d57806395d89b4114610aa057806399167fb414610aa85780639937464214610abb57806399530b0614610aeb5780639aa7df9414610af35780639bbca88414610afb5780639e34e34814610b0e5780639f3988f314610b21578063a217fddf14610b36578063a457c2d714610b3e578063a73f7f8a14610b51578063a9059cbb14610b64578063a98222c414610b77578063ab5b4d4914610b8c578063b3c187f214610ba1578063b3d7f6b914610bb4578063b6cc2d1f14610bc7578063bb994d4814610be8578063bbe4eb4914610bfb578063bdc8144b14610c08578063bf86d69014610c1b578063c065ca0714610c2d578063c0993eea14610c42578063c63d75b614610c69578063c6e6f59214610c7c578063c8d74b6014610c8f578063c8dffa9514610ca4578063c9a16ea414610cad578063ca4c1c3714610cc0578063d4ae064f14610cd3578063d505accf14610ce8578063d538e90414610cfb578063d547741f14610d0e578063d81a09f614610d21578063d9a0e97a14610d34578063dd62ed3e14610d3c578063df69b22a14610d75578063e5236cc914610d88578063ecf7085814610d90578063ef8b30f714610c7c578063f1daeba814610d99578063f5b944eb14610dae578063f6d7bfa014610dc3578063f828f50b14610dd6578063fc0e74d114610ddf578063fc7b9c1814610df3578063fd967f4714610dfb578063fec61f0614610e04578063ff1e7f0814610e1957600080fd5b8062435da51461051a57806301e1d1141461054357806301ffc9a71461055857806303dcd12c1461057857806306580f2d1461058d57806306fdde03146105a057806307a2d13a146105b55780630835a3fc146105c85780630952864e146105d1578063095ea7b3146105da5780630a28a477146105ed5780630ad283d01461060057806316b87ac01461061557806316d3bfbb1461062a57806318160ddd14610651578063223e54791461065957806323b872dd1461066c578063248a9ca31461067f578063258294101461069257806329f3cef5146106b35780632d632692146106c85780632d772168146106d15780632dd31000146106e45780632e0f26251461070b5780632f2ff15d14610732578063313ce5671461074557806334b5fab6146107735780633644e5151461078657806336568abe1461078f57806336fba084146107a257806338d52e0f146107ae57806339509351146107d457806339ebf823146107e75780633cd7b5ab1461082e5780633f7b5e4014610837578063402d267d1461083f578063405977e71461085257806346e6ac49146108655780634800d97f1461087857806348ea7127146108ac5780634bbd71e9146108bf5780634cdad506146105b55780634ce1d38a146108d25780634cfe51dc146108e75780634d4bb197146108fc5780634fb3ccc5146109115780635141eebb1461092457806353a661321461092d5780635a569099146109505780635bf6b4fb14610963578063629b914214610978578063633f228c1461098b578063652da3241461099e57806365cb6765146109b35780636853920e146109c65780636d020808146109d95780636e553f65146109e1575b600080fd5b60115461052d906001600160a01b031681565b60405161053a91906154a1565b60405180910390f35b61054b610e2c565b60405161053a91906154b5565b61056b6105663660046154e5565b610e3b565b60405161053a9190615516565b61054b60008051602061700283398151915281565b61054b61059b366004615659565b610e72565b6105a8610eaf565b60405161053a9190615743565b61054b6105c3366004615754565b610f3d565b61054b600a5481565b61054b60135481565b61056b6105e8366004615775565b610f4a565b61054b6105fb366004615754565b610f9a565b61054b60008051602061702283398151915281565b6106286106233660046157b2565b610fa7565b005b61054b7f000000000000000000000000000000000000000000000000000000000000000081565b61054b610fce565b6106286106673660046157b2565b610fd8565b61056b61067a3660046157d3565b610ff9565b61054b61068d366004615754565b611056565b604080518082019091526005815264332e302e3160d81b60208201526105a8565b6106bb61106b565b60405161053a9190615880565b61054b60145481565b6106286106df3660046157b2565b6110cd565b61052d7f000000000000000000000000000000000000000000000000000000000000000081565b61054b7f000000000000000000000000000000000000000000000000000000000000000081565b610628610740366004615891565b61116b565b7f000000000000000000000000000000000000000000000000000000000000000060405161053a91906158cd565b61054b6107813660046158db565b61118c565b61054b60185481565b61062861079d366004615891565b6111da565b61054b64e8d4a5100081565b7f000000000000000000000000000000000000000000000000000000000000000061052d565b61056b6107e2366004615775565b61120c565b61081e6107f53660046157b2565b600260208190526000918252604090912080546001820154928201546003909201549092919084565b60405161053a949392919061593b565b61054b60095481565b61054b600a81565b61054b61084d3660046157b2565b611219565b610628610860366004615775565b611224565b61054b610873366004615775565b6114a7565b61089f7f000000000000000000000000000000000000000000000000000000000000000081565b60405161053a91906159a8565b6106286108ba3660046157b2565b6114e8565b6106286108cd3660046157b2565b61154b565b61054b6000805160206172a283398151915281565b61054b6000805160206170a283398151915281565b61054b6000805160206171a283398151915281565b600c5461052d906001600160a01b031681565b61054b60155481565b61056b61093b366004615754565b60106020526000908152604090205460ff1681565b61054b61095e366004615775565b6115ae565b61054b60008051602061708283398151915281565b6106286109863660046157b2565b6115f3565b610628610999366004615a00565b61162e565b61054b600080516020616fe283398151915281565b61054b6109c13660046158db565b611712565b6106286109d4366004615775565b61171f565b610628611787565b61054b6109ef366004615891565b6117fb565b61054b610a023660046157b2565b61181b565b6105a860405180604001604052806005815260200164332e302e3160d81b81525081565b61054b610a393660046157b2565b60176020526000908152604090205481565b610628610a59366004615754565b611874565b61054b60165481565b600e5461052d906001600160a01b031681565b61056b610a88366004615891565b6118cd565b61054b610a9b366004615891565b6118f6565b6105a861190b565b61056b610ab6366004615891565b611918565b610ade610ac93660046157b2565b600f6020526000908152604090205460ff1681565b60405161053a9190615a8b565b61054b611959565b60095461054b565b610628610b09366004615aac565b611990565b600d5461052d906001600160a01b031681565b61054b6000805160206171e283398151915281565b61054b600081565b61056b610b4c366004615775565b6119e6565b610628610b5f366004615775565b6119f3565b61056b610b72366004615775565b611a15565b61054b60008051602061728283398151915281565b61054b60008051602061720283398151915281565b60125461052d906001600160a01b031681565b61054b610bc2366004615754565b611aa1565b610bda610bd53660046157b2565b611aae565b60405161053a929190615acd565b610628610bf63660046157b2565b611aed565b60045461056b9060ff1681565b610628610c16366004615754565b611b10565b601254600160a01b900460ff1661056b565b61054b60008051602061710283398151915281565b61054b7f8b73c3c69bb8fe3d512ecc4cf759cc79239f7b179b0ffacaa9a75d522b39400f81565b61054b610c773660046157b2565b611b9e565b61054b610c8a366004615754565b611bb7565b61054b600080516020616fc283398151915281565b61054b60085481565b610628610cbb366004615754565b611bc4565b61056b610cce366004615891565b611c24565b61054b60008051602061722283398151915281565b61056b610cf6366004615afc565b611c65565b610628610d09366004615754565b611cc0565b610628610d1c366004615891565b611cf6565b61054b610d2f366004615659565b611d12565b61054b611d46565b61054b610d4a366004615b9b565b6001600160a01b03918216600090815260066020908152604080832093909416825291909152205490565b610628610d83366004615754565b611d50565b610628611e0a565b61054b600b5481565b61054b60008051602061714283398151915281565b61054b60008051602061712283398151915281565b610628610dd1366004615775565b611f09565b61054b60075481565b60125461056b90600160a01b900460ff1681565b60085461054b565b61054b61271081565b61054b60008051602061706283398151915281565b61052d610e27366004615754565b611fb5565b6000610e36611fdf565b905090565b60006001600160e01b03198216637965db0b60e01b1480610e6c57506301ffc9a760e01b6001600160e01b03198316145b92915050565b6000610e7c611ff1565b6000610e8987600061201a565b9050610e9a338787848b89896120b4565b915050610ea660018055565b95945050505050565b60198054610ebc90615bd3565b80601f0160208091040260200160405190810160405280929190818152602001828054610ee890615bd3565b8015610f355780601f10610f0a57610100808354040283529160200191610f35565b820191906000526020600020905b815481529060010190602001808311610f1857829003601f168201915b505050505081565b6000610e6c82600061201a565b600080610f58338585612155565b9050836001600160a01b0316336001600160a01b03166000805160206171c283398151915285604051610f8b91906154b5565b60405180910390a39392505050565b6000610e6c8260016121d3565b600080516020617082833981519152610fbf8161226e565b610fca82600161227b565b5050565b6000610e36612493565b600080516020617102833981519152610ff08161226e565b610fca826124b4565b60006001600160a01b038316301480159061101c57506001600160a01b03831615155b6110415760405162461bcd60e51b815260040161103890615c29565b60405180910390fd5b61104c8484846126b9565b90505b9392505050565b60009081526020819052604090206001015490565b606060038054806020026020016040519081016040528092919081815260200182805480156110c357602002820191906000526020600020905b81546001600160a01b031681526001909101906020018083116110a5575b5050505050905090565b6000805160206172828339815191526110e58161226e565b601254600160a01b900460ff161561110f5760405162461bcd60e51b815260040161103890615c65565b600019600b54146111325760405162461bcd60e51b815260040161103890615c9f565b600d80546001600160a01b0319166001600160a01b03841690811790915560405160008051602061704283398151915290600090a25050565b61117482611056565b61117d8161226e565b61118783836126db565b505050565b60008061119a85858561275f565b905060006111a98260016121d3565b6001600160a01b0387166000908152600560205260409020549091506111d0908290612b29565b9695505050505050565b6001600160a01b03811633146112025760405162461bcd60e51b815260040161103890615cfe565b610fca8282612b3f565b600061104f338484612ba4565b6000610e6c82612bf2565b60008051602061720283398151915261123c8161226e565b611244611ff1565b6001600160a01b038316600090815260026020526040812054900361127b5760405162461bcd60e51b815260040161103890615d2f565b6001600160a01b03831660009081526002602081905260409091200154806112b55760405162461bcd60e51b815260040161103890615d64565b600083116112d55760405162461bcd60e51b815260040161103890615d9e565b808311156112e1578092505b60008184866001600160a01b03166370a08231306040518263ffffffff1660e01b815260040161131191906154a1565b602060405180830381865afa15801561132e573d6000803e3d6000fd5b505050506040513d601f19601f820116820180604052508101906113529190615db9565b61135c9190615df0565b6113669190615e25565b9050600081116113885760405162461bcd60e51b815260040161103890615e5f565b6113b47f0000000000000000000000000000000000000000000000000000000000000000333087612cca565b6001600160a01b038516600090815260026020819052604082200180548692906113df908490615e6f565b9250508190555083600860008282546113f89190615e6f565b9250508190555083600960008282546114119190615e82565b90915550506001600160a01b0385166000805160206172628339815191528361143a8782615e6f565b604051611448929190615acd565b60405180910390a261145b853383612dd8565b846001600160a01b03167fe94e7f88819f66c19b097748cb754149f63b1a176ed425dee1f1ee933e6d09b08560405161149491906154b5565b60405180910390a2505061118760018055565b6000600080516020616fc28339815191526114c18161226e565b6114c9611ff1565b60006114d58585612ebd565b9250506114e160018055565b5092915050565b600080516020616fe28339815191526115008161226e565b600c80546001600160a01b0319166001600160a01b0384169081179091556040517f28709a2dab2a5d5e8688e96159011151c51644ab21839a8a45b449634d7c8b2b90600090a25050565b6000805160206172a28339815191526115638161226e565b600e80546001600160a01b0319166001600160a01b0384169081179091556040517fce6e3f8beda82a13c441d76efd4a6335760f219f38c60502e6680060874e109d90600090a25050565b6001600160a01b0382166000908152600260208190526040822001548211156115e95760405162461bcd60e51b815260040161103890615edb565b61104f83836135df565b60008051602061712283398151915261160b8161226e565b50601280546001600160a01b0319166001600160a01b0392909216919091179055565b6000805160206170a28339815191526116468161226e565b60005b828110156116c657600084848381811061166557611665615eeb565b905060200201602081019061167a91906157b2565b6001600160a01b038116600090815260026020526040812054919250036116b35760405162461bcd60e51b815260040161103890615f29565b50806116be81615f39565b915050611649565b506116d36003848461535c565b507f0bc0cb8c5ccee13e6a2fd26a699f57ad7ff6e454e6aae97ec41cd2eb9ebd63a58383604051611705929190615f9f565b60405180910390a1505050565b600061104c84848461275f565b6000805160206171228339815191526117378161226e565b6117418284612b3f565b826001600160a01b03167f1395522074be2925cc0fe997dc4fe5d15a507c2a971e00c315e5a2e08c9b0e508360405161177a91906154b5565b60405180910390a2505050565b6012546001600160a01b031633146117b15760405162461bcd60e51b815260040161103890615ff3565b60118054336001600160a01b031991821681179092556012805490911690556040517fce93baa0b608a7d420822b6b90cfcccb70574363ba4fd26ef5ac17dd465016c490600090a2565b6000611805611ff1565b611810338385613743565b9050610e6c60018055565b6000306001600160a01b03831603611858576118356138b5565b6001600160a01b038316600090815260056020526040902054610e6c9190615e6f565b506001600160a01b031660009081526005602052604090205490565b60008051602061702283398151915261188c8161226e565b600a8290556040517f01a4494beed88920b88742cc58f2744e198f55ff192635a1fbabc6be8ffade81906118c19084906154b5565b60405180910390a15050565b6000918252602082815260408084206001600160a01b0393909316845291905290205460ff1690565b6000611900611ff1565b611810338385613913565b601a8054610ebc90615bd3565b6000806119258484613a81565b905060006001600160a01b0316836001600160a01b031660008051602061716283398151915286604051610f8b91906154b5565b6000610e366119897f0000000000000000000000000000000000000000000000000000000000000000600a616111565b600061201a565b6000805160206170a28339815191526119a88161226e565b6004805460ff19168315151790556040517f1f88e73ebc721f227812938fe07a069ec1f7136aafacb397ed460bd15dee13f1906118c1908490615516565b600061104f338484613b08565b600080516020617122833981519152611a0b8161226e565b61174182846126db565b60006001600160a01b0383163014801590611a3857506001600160a01b03831615155b611a545760405162461bcd60e51b815260040161103890615c29565b611a5f338484613b3d565b826001600160a01b0316336001600160a01b031660008051602061716283398151915284604051611a9091906154b5565b60405180910390a350600192915050565b6000610e6c82600161201a565b600080600080516020617002833981519152611ac98161226e565b611ad1611ff1565b611ada84613c1e565b92509250611ae760018055565b50915091565b6000805160206171e2833981519152611b058161226e565b610fca82600061227b565b600080516020617282833981519152611b288161226e565b601254600160a01b900460ff1615611b525760405162461bcd60e51b815260040161103890615c65565b600d546001600160a01b031615611b7b5760405162461bcd60e51b815260040161103890616143565b600b8290556040516000805160206170e2833981519152906118c19084906154b5565b600080611baa83612bf2565b905061104f8160006121d3565b6000610e6c8260006121d3565b600080516020617122833981519152611bdc8161226e565b6000828152601060205260409020805460ff1916905560015b60405183907f9f6d8ceb5fe3a6380949b0777bd5802511579b6fbbc87194c108a91d372f952790600090a35050565b600080611c318484613d47565b9050826001600160a01b031660006001600160a01b031660008051602061716283398151915286604051610f8b91906154b5565b600080611c7789898989898989613db0565b9050876001600160a01b0316896001600160a01b03166000805160206171c283398151915289604051611caa91906154b5565b60405180910390a390505b979650505050505050565b600080516020617122833981519152611cd88161226e565b6000828152601060205260408120805460ff19166001179055611bf5565b611cff82611056565b611d088161226e565b6111878383612b3f565b6000611d1c611ff1565b6000611d298760016121d3565b9050611d3a3387878a8589896120b4565b509050610ea660018055565b6000610e366138b5565b600080516020617222833981519152611d688161226e565b7f0000000000000000000000000000000000000000000000000000000000000000821115611da85760405162461bcd60e51b815260040161103890616185565b81600003611dd55730600081815260056020526040902054611dc991613a81565b50600060158190556014555b60138290556040517ff361aed463da6fa20358e45c6209f1d3e16d4eca706e6eab0b0aeb338729c77a906118c19084906154b5565b600080516020617062833981519152611e228161226e565b601254600160a01b900460ff1615611e4c5760405162461bcd60e51b8152600401611038906161c6565b6012805460ff60a01b1916600160a01b179055600d546001600160a01b031615611e9a57600d80546001600160a01b0319169055604051600090600080516020617042833981519152908290a25b6000600b8190556040516000805160206170e283398151915291611ebd916161eb565b60405180910390a1611edd33600080516020616fc28339815191526119f3565b6040517f4426aa1fb73e391071491fcfe21a88b5c38a0a0333a1f6e77161470439704cf890600090a150565b600080516020617142833981519152611f218161226e565b6001600160a01b0383166000908152600260205260408120549003611f585760405162461bcd60e51b815260040161103890616221565b6001600160a01b038316600081815260026020526040908190206003018490555133907fb3eef2123fec1523a6bbc90aceb203000154c1a4974335fe06b544c7534d4b8990611fa89086906154b5565b60405180910390a3505050565b60038181548110611fc557600080fd5b6000918252602090912001546001600160a01b0316905081565b6000600854600954610e369190615e82565b6002600154036120135760405162461bcd60e51b815260040161103890616265565b6002600155565b600060001983148061202a575082155b15612036575081610e6c565b6000612040612493565b9050806000036120535783915050610e6c565b600061205d611fdf565b9050600061206b8287615df0565b905060006120798483615e25565b9050600186600181111561208f5761208f615a47565b1480156120a457506120a18483616275565b15155b156111d057611cb5600182615e82565b60006120c588888888888888613f64565b6120d086898661400d565b6000806120dd8785614031565b915091506120f18a8a8a898b87878c614683565b876001600160a01b0316896001600160a01b03168b6001600160a01b03167ffbde797d201c681b91056529119e0b02407c7bb96a4a2c75c01fc9667232c8db858a604051612140929190615acd565b60405180910390a45098975050505050505050565b60006001600160a01b03841661217d5760405162461bcd60e51b8152600401611038906162ca565b6001600160a01b0383166121a35760405162461bcd60e51b815260040161103890616319565b506001600160a01b0392831660009081526006602090815260408083209490951682529290925291902055600190565b60006000198314806121e3575082155b156121ef575081610e6c565b60006121f9612493565b90506000612205611fdf565b90508060000361222c5781600003612221578492505050610e6c565b600092505050610e6c565b60006122388387615df0565b905060006122468383615e25565b9050600186600181111561225c5761225c615a47565b1480156120a457506120a18383616275565b6122788133614724565b50565b6001600160a01b03821660009081526002602052604081205490036122b25760405162461bcd60e51b815260040161103890616353565b6001600160a01b0382166000908152600260208190526040822001541561236457816122f05760405162461bcd60e51b81526004016110389061638b565b506001600160a01b0382166000908152600260208190526040822001546008805491928392612320908490615e6f565b92505081905550826001600160a01b031660008051602061718283398151915260008360008060008060405161235b9695949392919061639b565b60405180910390a25b604080516080810182526000808252602080830182815283850183815260608086018581526001600160a01b038b1686526002948590529690942094518555905160018501555190830155915160039182015554156124495760005b600354811015612447576000600382815481106123df576123df615eeb565b6000918252602090912001546001600160a01b03908116915086168114612434578083838151811061241357612413615eeb565b60200260200101906001600160a01b031690816001600160a01b0316815250505b508061243f81615f39565b9150506123c0565b505b805161245c9060039060208401906153bf565b50836001600160a01b03166000805160206170c283398151915260016040516124859190616418565b60405180910390a250505050565b60008061249e6138b5565b9050806007546124ae9190615e6f565b91505090565b6001600160a01b038116158015906124d557506001600160a01b0381163014155b6124f15760405162461bcd60e51b81526004016110389061645a565b7f00000000000000000000000000000000000000000000000000000000000000006001600160a01b0316816001600160a01b03166338d52e0f6040518163ffffffff1660e01b8152600401602060405180830381865afa158015612559573d6000803e3d6000fd5b505050506040513d601f19601f8201168201806040525081019061257d9190616475565b6001600160a01b0316146125a35760405162461bcd60e51b8152600401611038906164ba565b6001600160a01b038116600090815260026020526040902054156125d95760405162461bcd60e51b8152600401611038906164f8565b604080516080810182524280825260208083019182526000838501818152606085018281526001600160a01b0388168352600293849052959091209351845591516001840155905190820155905160039182015554600a811015612685578160038261264481615f39565b93508154811061265657612656615eeb565b9060005260206000200160006101000a8154816001600160a01b0302191690836001600160a01b031602179055505b816001600160a01b03166000805160206170c283398151915260006040516126ad9190616418565b60405180910390a25050565b60006126c684338461477d565b6126d1848484613b3d565b5060019392505050565b6126e582826118cd565b610fca576000828152602081815260408083206001600160a01b03851684529091529020805460ff1916600117905561271b3390565b6001600160a01b0316816001600160a01b0316837f2f8788117e7eff1d82e926ec794901d17c78024a50270940304540a733656f0d60405160405180910390a45050565b6001600160a01b0383166000908152600560205260408120548190612784908261201a565b600e549091506001600160a01b03161561282657600e54604051632319b8cf60e01b81526000916001600160a01b031690632319b8cf906127cd90899089908990600401616508565b6020604051808303816000875af11580156127ec573d6000803e3d6000fd5b505050506040513d601f19601f820116820180604052508101906128109190615db9565b90508181101561281e578091505b50905061104f565b60095480821115612b20578351819060009081901580159061284b575060045460ff16155b6128af5760038054806020026020016040519081016040528092919081815260200182805480156128a557602002820191906000526020600020905b81546001600160a01b03168152600190910190602001808311612887575b50505050506128b1565b865b905060005b8151811015612b195760008282815181106128d3576128d3615eeb565b6020026020010151905060026000826001600160a01b03166001600160a01b03168152602001908152602001600020600001546000036129255760405162461bcd60e51b815260040161103890616221565b6000612956612934878a615e6f565b6001600160a01b03841660009081526002602081905260409091200154612b29565b9050600061296483836135df565b90506000836001600160a01b03166307a2d13a856001600160a01b031663d905777e306040518263ffffffff1660e01b81526004016129a391906154a1565b602060405180830381865afa1580156129c0573d6000803e3d6000fd5b505050506040513d601f19601f820116820180604052508101906129e49190615db9565b6040518263ffffffff1660e01b8152600401612a0091906154b5565b602060405180830381865afa158015612a1d573d6000803e3d6000fd5b505050506040513d601f19601f82011682018060405250810190612a419190615db9565b9050612a4d8284615e6f565b811015612a785782612a5f8284615df0565b612a699190615e25565b9150612a758282615e82565b92505b82600003612a895750505050612b07565b600082118015612a9a57506127108d105b15612ada576127108d612aad858b615e82565b612ab79190615df0565b612ac19190615e25565b612acb8389615e82565b1115612ada5750505050612b19565b612ae48389615e82565b9750898810612af65750505050612b19565b612b008288615e82565b9650505050505b80612b1181615f39565b9150506128b6565b5091935050505b50949350505050565b6000818310612b38578161104f565b5090919050565b612b4982826118cd565b15610fca576000828152602081815260408083206001600160a01b0385168085529252808320805460ff1916905551339285917ff6391f5c32d9c69d2a47ea670b442974b53935d1edc7fd64eb21e047a839171b9190a45050565b6001600160a01b0380841660009081526006602090815260408083209386168352929052908120548190612bd9908490615e82565b9050612be6858583612155565b50600195945050505050565b60006001600160a01b038216301480612c1257506001600160a01b038216155b15612c1f57506000919050565b600d546001600160a01b03168015612c9e57604051632355178960e11b81526001600160a01b038216906346aa2f1290612c5d9086906004016154a1565b602060405180830381865afa158015612c7a573d6000803e3d6000fd5b505050506040513d601f19601f8201168201806040525081019061104f9190615db9565b6000612ca8611fdf565b600b54909150808210612cc057506000949350505050565b610ea68282615e6f565b6001600160a01b038416612cf05760405162461bcd60e51b815260040161103890616568565b6001600160a01b038316612d165760405162461bcd60e51b8152600401611038906165ac565b6001600160a01b038216612d3c5760405162461bcd60e51b8152600401611038906165f0565b6040516323b872dd60e01b81526000906001600160a01b038616906323b872dd90612d6f90879087908790600401616600565b6020604051808303816000875af1158015612d8e573d6000803e3d6000fd5b505050506040513d601f19601f82011682018060405250810190612db29190616633565b905080612dd15760405162461bcd60e51b81526004016110389061667a565b5050505050565b6001600160a01b038316612dfe5760405162461bcd60e51b815260040161103890616568565b6001600160a01b038216612e245760405162461bcd60e51b8152600401611038906165f0565b60405163a9059cbb60e01b81526000906001600160a01b0385169063a9059cbb90612e55908690869060040161668a565b6020604051808303816000875af1158015612e74573d6000803e3d6000fd5b505050506040513d601f19601f82011682018060405250810190612e989190616633565b905080612eb75760405162461bcd60e51b81526004016110389061667a565b50505050565b6001600160a01b038216600090815260026020819052604082200154601254839190600160a01b900460ff1615612ef357600091505b808203612f125760405162461bcd60e51b8152600401611038906166cb565b81811115613224576000612f268383615e6f565b9050600a5481600954612f399190615e82565b1015612f5c57600954600a54612f4f9190615e6f565b905081811115612f5c5750805b604051636c82bbbf60e11b81526000906001600160a01b038816906307a2d13a90829063d905777e90612f939030906004016154a1565b602060405180830381865afa158015612fb0573d6000803e3d6000fd5b505050506040513d601f19601f82011682018060405250810190612fd49190615db9565b6040518263ffffffff1660e01b8152600401612ff091906154b5565b602060405180830381865afa15801561300d573d6000803e3d6000fd5b505050506040513d601f19601f820116820180604052508101906130319190615db9565b9050600081116130535760405162461bcd60e51b815260040161103890616705565b8181101561305f578091505b600061306b88846135df565b9050801561308b5760405162461bcd60e51b815260040161103890616749565b6040516370a0823160e01b81526000906001600160a01b037f000000000000000000000000000000000000000000000000000000000000000016906370a08231906130da9030906004016154a1565b602060405180830381865afa1580156130f7573d6000803e3d6000fd5b505050506040513d601f19601f8201168201806040525081019061311b9190615db9565b905061312789856147d7565b6040516370a0823160e01b81526000906001600160a01b037f000000000000000000000000000000000000000000000000000000000000000016906370a08231906131769030906004016154a1565b602060405180830381865afa158015613193573d6000803e3d6000fd5b505050506040513d601f19601f820116820180604052508101906131b79190615db9565b905060006131ce6131c88484615e6f565b88612b29565b9050858111156131dc578095505b80600960008282546131ee9190615e82565b9250508190555085600860008282546132079190615e6f565b9091555061321790508688615e6f565b9750505050505050613591565b6001600160a01b03851660009081526002602052604090206003015482111561325f5760405162461bcd60e51b81526004016110389061678b565b60405163402d267d60e01b81526000906001600160a01b0387169063402d267d9061328e9030906004016154a1565b602060405180830381865afa1580156132ab573d6000803e3d6000fd5b505050506040513d601f19601f820116820180604052508101906132cf9190615db9565b9050600081116132f15760405162461bcd60e51b8152600401611038906167c4565b60006132fd8385615e6f565b90508181111561330a5750805b600a546009541161332d5760405162461bcd60e51b8152600401611038906167fe565b6000600a5460095461333f9190615e6f565b90508082111561334d578091505b811561358d5761337e7f00000000000000000000000000000000000000000000000000000000000000008984614931565b6040516370a0823160e01b81526000906001600160a01b037f000000000000000000000000000000000000000000000000000000000000000016906370a08231906133cd9030906004016154a1565b602060405180830381865afa1580156133ea573d6000803e3d6000fd5b505050506040513d601f19601f8201168201806040525081019061340e9190615db9565b604051636e553f6560e01b81529091506001600160a01b038a1690636e553f659061343f908690309060040161680e565b6020604051808303816000875af115801561345e573d6000803e3d6000fd5b505050506040513d601f19601f820116820180604052508101906134829190615db9565b506040516370a0823160e01b81526000906001600160a01b037f000000000000000000000000000000000000000000000000000000000000000016906370a08231906134d29030906004016154a1565b602060405180830381865afa1580156134ef573d6000803e3d6000fd5b505050506040513d601f19601f820116820180604052508101906135139190615db9565b90506135417f00000000000000000000000000000000000000000000000000000000000000008b6000614931565b61354b8183615e6f565b9350836009600082825461355f9190615e6f565b9250508190555083600860008282546135789190615e82565b9091555061358890508487615e82565b965050505b5050505b6001600160a01b0385166000818152600260208190526040918290200184905551600080516020617262833981519152906135cf9084908690615acd565b60405180910390a2509392505050565b6001600160a01b03821660008181526002602081905260408083209091015490516370a0823160e01b8152919290918391906370a08231906136259030906004016154a1565b602060405180830381865afa158015613642573d6000803e3d6000fd5b505050506040513d601f19601f820116820180604052508101906136669190615db9565b90506000856001600160a01b03166307a2d13a836040518263ffffffff1660e01b815260040161369691906154b5565b602060405180830381865afa1580156136b3573d6000803e3d6000fd5b505050506040513d601f19601f820116820180604052508101906136d79190615db9565b905082811015806136e6575082155b156136f75760009350505050610e6c565b60006137038287615df0565b905060006137118583615e25565b61371b9088615e6f565b90506137278583616275565b15611cb557613737600182615e82565b98975050505050505050565b601254600090600160a01b900460ff16156137705760405162461bcd60e51b815260040161103890616848565b61377983612bf2565b8211156137985760405162461bcd60e51b815260040161103890616883565b6040516323b872dd60e01b81526001600160a01b037f000000000000000000000000000000000000000000000000000000000000000016906323b872dd906137e890339030908790600401616600565b6020604051808303816000875af1158015613807573d6000803e3d6000fd5b505050506040513d601f19601f8201168201806040525081019061382b9190616633565b50816009600082825461383e9190615e82565b90915550600090506138508385614a10565b9050600081116138725760405162461bcd60e51b8152600401611038906168ba565b836001600160a01b0316856001600160a01b031660008051602061724283398151915285846040516138a5929190615acd565b60405180910390a3949350505050565b60145460009081428211156138f65764e8d4a51000601654426138d89190615e6f565b6015546138e59190615df0565b6138ef9190615e25565b9050610e6c565b8115610e6c57503060009081526005602052604090205492915050565b601254600090600160a01b900460ff16156139405760405162461bcd60e51b815260040161103890616848565b600061394d83600161201a565b90506000811161396f5760405162461bcd60e51b8152600401611038906168f4565b61397884612bf2565b8111156139975760405162461bcd60e51b815260040161103890616883565b6040516323b872dd60e01b81526001600160a01b037f000000000000000000000000000000000000000000000000000000000000000016906323b872dd906139e790339030908690600401616600565b6020604051808303816000875af1158015613a06573d6000803e3d6000fd5b505050506040513d601f19601f82011682018060405250810190613a2a9190616633565b508060096000828254613a3d9190615e82565b90915550613a4d90508385613d47565b50836001600160a01b0316856001600160a01b031660008051602061724283398151915283866040516138a5929190615acd565b6001600160a01b038116600090815260056020526040812054831115613ab95760405162461bcd60e51b81526004016110389061692e565b6001600160a01b03821660009081526005602052604081208054859290613ae1908490615e6f565b925050819055508260076000828254613afa9190615e6f565b909155506001949350505050565b6001600160a01b0380841660009081526006602090815260408083209386168352929052908120548190612bd9908490615e6f565b6001600160a01b03831660009081526005602052604090205481811015613b765760405162461bcd60e51b815260040161103890616967565b6001600160a01b038416613b9c5760405162461bcd60e51b8152600401611038906169b9565b6001600160a01b038316613bc25760405162461bcd60e51b815260040161103890616a09565b613bcc8282615e6f565b6001600160a01b038086166000908152600560205260408082209390935590851681522054613bfb8382615e82565b6001600160a01b0390941660009081526005602052604090209390935550505050565b6001600160a01b03811660009081526002602052604081205481908103613c575760405162461bcd60e51b815260040161103890616221565b613c5f614ace565b600080613c6b85614afe565b915091506000613c7c868484614c34565b90506000613c938383600001518460400151614da2565b9050600080613ca5838588888d614e27565b91509150613cb9868560200151848461513c565b6001600160a01b03891660008181526002602081905260408083204260018201559091015490860151600080516020617182833981519152928a928a929091613d02919061201a565b613d1989602001518a604001516119899190615e82565b8a60200151604051613d3096959493929190616a19565b60405180910390a250939792965091945050505050565b60006001600160a01b038216613d6f5760405162461bcd60e51b815260040161103890616a9a565b6001600160a01b03821660009081526005602052604081208054859290613d97908490615e82565b925050819055508260076000828254613afa9190615e82565b60006001600160a01b038816613dd85760405162461bcd60e51b815260040161103890616adb565b42851015613df85760405162461bcd60e51b815260040161103890616b1f565b6001600160a01b0388166000908152601760209081526040808320549051909291613e3d916000805160206171a2833981519152918d918d918d9188918e9101616b2f565b604051602081830303815290604052805190602001209050600060185482604051602001613e6c929190616b57565b604051602081830303815290604052805190602001209050600060018289898960405160008152602001604052604051613ea99493929190616b88565b6020604051602081039080840390855afa158015613ecb573d6000803e3d6000fd5b5050604051601f1901519150506001600160a01b03811615801590613f0157508b6001600160a01b0316816001600160a01b0316145b613f1d5760405162461bcd60e51b815260040161103890616bd7565b613f288c8c8c612155565b506001600160a01b038c166000908152601760205260408120805491613f4d83615f39565b9091555060019d9c50505050505050505050505050565b6001600160a01b038616613f8a5760405162461bcd60e51b815260040161103890616c0a565b612710821115613fac5760405162461bcd60e51b815260040161103890616c39565b60008311613fcc5760405162461bcd60e51b815260040161103890616c73565b6001600160a01b0385166000908152600560205260409020548311156140045760405162461bcd60e51b815260040161103890616cad565b50505050505050565b826001600160a01b0316826001600160a01b0316146111875761118783838361477d565b60008060006040518060c0016040528086815260200160095481526020016008548152602001600081526020017f00000000000000000000000000000000000000000000000000000000000000006001600160a01b03166370a08231306040518263ffffffff1660e01b81526004016140aa91906154a1565b602060405180830381865afa1580156140c7573d6000803e3d6000fd5b505050506040513d601f19601f820116820180604052508101906140eb9190615db9565b815260006020918201528101518151919250101561466e576000845160001415801561411a575060045460ff16155b61417e57600380548060200260200160405190810160405280929190818152602001828054801561417457602002820191906000526020600020905b81546001600160a01b03168152600190910190602001808311614156575b5050505050614180565b845b6020830151835191925061419391615e6f565b606083015260005b815181101561463e5760008282815181106141b8576141b8615eeb565b6020026020010151905060026000826001600160a01b03166001600160a01b031681526020019081526020016000206000015460000361420a5760405162461bcd60e51b815260040161103890616221565b6001600160a01b03811660009081526002602081905260408220015460608601519091906142389083612b29565b90506000836001600160a01b03166307a2d13a856001600160a01b031663d905777e306040518263ffffffff1660e01b815260040161427791906154a1565b602060405180830381865afa158015614294573d6000803e3d6000fd5b505050506040513d601f19601f820116820180604052508101906142b89190615db9565b6040518263ffffffff1660e01b81526004016142d491906154b5565b602060405180830381865afa1580156142f1573d6000803e3d6000fd5b505050506040513d601f19601f820116820180604052508101906143159190615db9565b9050600061432385846135df565b90508015614429576143358184615e6f565b82101561436f5760006143488285615e6f565b9050806143558484615df0565b61435f9190615e25565b915061436b8284615e82565b9350505b6143798184615e6f565b9250808860000181815161438d9190615e6f565b9052506060880180518291906143a4908390615e6f565b9052506040880180518291906143bb908390615e6f565b905250811580156143cc5750600081115b156144295760006143dd8286615e6f565b6001600160a01b0387166000818152600260208190526040918290200183905551919250906000805160206172628339815191529061441f9088908590615acd565b60405180910390a2505b6144338383612b29565b92508260000361444757505050505061462c565b61445185846147d7565b6040516370a0823160e01b81526000906001600160a01b037f000000000000000000000000000000000000000000000000000000000000000016906370a08231906144a09030906004016154a1565b602060405180830381865afa1580156144bd573d6000803e3d6000fd5b505050506040513d601f19601f820116820180604052508101906144e19190615db9565b905060008960800151826144f59190615e6f565b905060008582111561452c578682111561451157869550614541565b61451b8683615e6f565b6145259087615e82565b9550614541565b858210156145415761453e8287615e6f565b90505b61454b8187615e6f565b8b60200181815161455c9190615e82565b9052508a5181908c90614570908390615e6f565b90525060408b018051879190614587908390615e6f565b90525060006145968588615e82565b6145a09089615e6f565b6001600160a01b038a16600081815260026020819052604091829020018390555191925090600080516020617262833981519152906145e2908b908590615acd565b60405180910390a260208c01518c51116146045750505050505050505061463e565b60808c0184905260608c01805188919061461f908390615e6f565b9052505050505050505050505b8061463681615f39565b91505061419b565b508151602083015110156146645760405162461bcd60e51b815260040161103890616cf0565b5060408101516008555b805160209091015190925090505b9250929050565b8284118015614693575061271081105b156146d7576127106146a58286615df0565b6146af9190615e25565b6146b98486615e6f565b11156146d75760405162461bcd60e51b815260040161103890616d24565b6146e18587613a81565b506146ec8383615e6f565b60095561471a7f00000000000000000000000000000000000000000000000000000000000000008885612dd8565b5050505050505050565b61472e82826118cd565b610fca5761473b816151df565b6147468360206151f1565b604051602001614757929190616d56565b60408051601f198184030181529082905262461bcd60e51b825261103891600401615743565b6001600160a01b03808416600090815260066020908152604080832093861683529290522054818110156147c35760405162461bcd60e51b815260040161103890616ddc565b612dd184846147d28585615e6f565b612155565b60006148bb836001600160a01b0316630a28a477846040518263ffffffff1660e01b815260040161480891906154b5565b602060405180830381865afa158015614825573d6000803e3d6000fd5b505050506040513d601f19601f820116820180604052508101906148499190615db9565b6040516370a0823160e01b81526001600160a01b038616906370a08231906148759030906004016154a1565b602060405180830381865afa158015614892573d6000803e3d6000fd5b505050506040513d601f19601f820116820180604052508101906148b69190615db9565b612b29565b604051635d043b2960e11b81529091506001600160a01b0384169063ba087652906148ee90849030908190600401616dec565b6020604051808303816000875af115801561490d573d6000803e3d6000fd5b505050506040513d601f19601f82011682018060405250810190612eb79190615db9565b6001600160a01b0383166149575760405162461bcd60e51b815260040161103890616568565b6001600160a01b03821661497d5760405162461bcd60e51b815260040161103890616e48565b60405163095ea7b360e01b81526000906001600160a01b0385169063095ea7b3906149ae908690869060040161668a565b6020604051808303816000875af11580156149cd573d6000803e3d6000fd5b505050506040513d601f19601f820116820180604052508101906149f19190616633565b905080612eb75760405162461bcd60e51b815260040161103890616e7e565b60006001600160a01b038216614a385760405162461bcd60e51b815260040161103890616a9a565b6000614a42612493565b90506000614a4e611fdf565b9050600082600003614a61575084614aa6565b85821115614a8e57614a738683615e6f565b614a7d8488615df0565b614a879190615e25565b9050614aa6565b60405162461bcd60e51b815260040161103890616eb4565b80600003614aba5760009350505050610e6c565b614ac48186613d47565b5095945050505050565b6000614ad86138b5565b905080600003614ae55750565b426014541115614af457426016555b610fca8130613a81565b6000806000836001600160a01b03166370a08231306040518263ffffffff1660e01b8152600401614b2f91906154a1565b602060405180830381865afa158015614b4c573d6000803e3d6000fd5b505050506040513d601f19601f82011682018060405250810190614b709190615db9565b90506000846001600160a01b03166307a2d13a836040518263ffffffff1660e01b8152600401614ba091906154b5565b602060405180830381865afa158015614bbd573d6000803e3d6000fd5b505050506040513d601f19601f82011682018060405250810190614be19190615db9565b6001600160a01b0386166000908152600260208190526040822001549192508082841115614c1a57614c138385615e6f565b9150614c27565b614c248484615e6f565b90505b9097909650945050505050565b614c3c615414565b614c44615414565b600c546001600160a01b03161561104c57600c5460405163921f8a8f60e01b81526001600160a01b039091169063921f8a8f90614c8990889088908890600401616ec4565b60408051808303816000875af1158015614ca7573d6000803e3d6000fd5b505050506040513d601f19601f82011682018060405250810190614ccb9190616edf565b60208301528082521561104c5760007f00000000000000000000000000000000000000000000000000000000000000006001600160a01b03166307d3277f6040518163ffffffff1660e01b81526004016040805180830381865afa158015614d37573d6000803e3d6000fd5b505050506040513d601f19601f82011682018060405250810190614d5b9190616f27565b6001600160a01b03166060840152905061ffff811615612b2057815161271090614d8a9061ffff841690615df0565b614d949190615e25565b604083015250949350505050565b614daa615445565b614db2615445565b6000614dbe8587615e82565b111561104c57614dd8614dd18587615e82565b60016121d3565b81518290614de7908390615e82565b905250831561104c57614e04614dfd8486615e6f565b60006121d3565b6020820152821561104c57614e1a8360006121d3565b6040820152949350505050565b60008060008087602001511115614f8c576020870151600c546040516370a0823160e01b8152614f2f92916148b6916001600160a01b037f00000000000000000000000000000000000000000000000000000000000000008116926370a0823192614e999291909116906004016154a1565b602060405180830381865afa158015614eb6573d6000803e3d6000fd5b505050506040513d601f19601f82011682018060405250810190614eda9190615db9565b600c54604051636eb1769f60e11b81526001600160a01b037f000000000000000000000000000000000000000000000000000000000000000081169263dd62ed3e926148759291909116903090600401616f5a565b60208801819052600c54614f70917f0000000000000000000000000000000000000000000000000000000000000000916001600160a01b0316903090612cca565b866020015160096000828254614f869190615e82565b90915550505b8515614fdc576001600160a01b03841660009081526002602081905260408220018054889290614fbd908490615e82565b925050819055508560086000828254614fd69190615e82565b90915550505b6000876020015187614fee9190615e82565b118015614ffc575060135415155b1561501d5761501a8760200151876150149190615e82565b30614a10565b90505b841561506d576001600160a01b0384166000908152600260208190526040822001805487929061504e908490615e6f565b9250508190555084600860008282546150679190615e6f565b90915550505b30600090815260056020526040812054615088908390615e6f565b8951909150156150ea5788516150a2906148b68484615e82565b808a526150af9030613a81565b5060006150c08a6000015184612b29565b90506150cc8184615e6f565b8a519093506150dc908290615e6f565b6150e69083615e6f565b9150505b602089015115615111576020890151600c5461510f91906001600160a01b0316613d47565b505b60408901511561512f5761512d89604001518960600151613d47565b505b9890975095505050505050565b60006151488284615e82565b905080156151d3576000426014541115615177574260145461516a9190615e6f565b6151749085615df0565b90505b600082601354856151889190615df0565b6151929084615e82565b61519c9190615e25565b9050806151ae64e8d4a5100085615df0565b6151b89190615e25565b6015556151c58142615e82565b601455505042601655612dd1565b60006015555050505050565b6060610e6c6001600160a01b03831660145b60606000615200836002615df0565b61520b906002615e82565b6001600160401b0381111561522257615222615553565b6040519080825280601f01601f19166020018201604052801561524c576020820181803683370190505b509050600360fc1b8160008151811061526757615267615eeb565b60200101906001600160f81b031916908160001a905350600f60fb1b8160018151811061529657615296615eeb565b60200101906001600160f81b031916908160001a90535060006152ba846002615df0565b6152c5906001615e82565b90505b600181111561533d576f181899199a1a9b1b9c1cb0b131b232b360811b85600f16601081106152f9576152f9615eeb565b1a60f81b82828151811061530f5761530f615eeb565b60200101906001600160f81b031916908160001a90535060049490941c9361533681616f68565b90506152c8565b50831561104f5760405162461bcd60e51b815260040161103890616fb1565b8280548282559060005260206000209081019282156153af579160200282015b828111156153af5781546001600160a01b0319166001600160a01b0384351617825560209092019160019091019061537c565b506153bb929150615466565b5090565b8280548282559060005260206000209081019282156153af579160200282015b828111156153af57825182546001600160a01b0319166001600160a01b039091161782556020909201916001909101906153df565b604051806080016040528060008152602001600081526020016000815260200160006001600160a01b031681525090565b60405180606001604052806000815260200160008152602001600081525090565b5b808211156153bb5760008155600101615467565b6001600160a01b031690565b6000610e6c8261547b565b61549b81615487565b82525050565b60208101610e6c8284615492565b8061549b565b60208101610e6c82846154af565b6001600160e01b031981165b811461227857600080fd5b8035610e6c816154c3565b6000602082840312156154fa576154fa600080fd5b600061550684846154da565b949350505050565b80151561549b565b60208101610e6c828461550e565b806154cf565b8035610e6c81615524565b6154cf81615487565b8035610e6c81615535565b601f01601f191690565b634e487b7160e01b600052604160045260246000fd5b61557282615549565b81018181106001600160401b038211171561558f5761558f615553565b6040525050565b60006155a160405190565b90506155ad8282615569565b919050565b60006001600160401b038211156155cb576155cb615553565b5060209081020190565b60006155e86155e3846155b2565b615596565b8381529050602080820190840283018581111561560757615607600080fd5b835b8181101561562b578061561c888261553e565b84525060209283019201615609565b5050509392505050565b600082601f83011261564957615649600080fd5b81356155068482602086016155d5565b600080600080600060a0868803121561567457615674600080fd5b6000615680888861552a565b95505060206156918882890161553e565b94505060406156a28882890161553e565b93505060606156b38882890161552a565b92505060808601356001600160401b038111156156d2576156d2600080fd5b6156de88828901615635565b9150509295509295909350565b60005b838110156157065781810151838201526020016156ee565b50506000910152565b6000615719825190565b8084526020840193506157308185602086016156eb565b61573981615549565b9093019392505050565b6020808252810161104f818461570f565b60006020828403121561576957615769600080fd5b6000615506848461552a565b6000806040838503121561578b5761578b600080fd5b6000615797858561553e565b92505060206157a88582860161552a565b9150509250929050565b6000602082840312156157c7576157c7600080fd5b6000615506848461553e565b6000806000606084860312156157eb576157eb600080fd5b60006157f7868661553e565b93505060206158088682870161553e565b92505060406158198682870161552a565b9150509250925092565b600061582f8383615492565b505060200190565b6000615841825190565b80845260209384019383018060005b838110156158755781516158648882615823565b975060208301925050600101615850565b509495945050505050565b6020808252810161104f8184615837565b600080604083850312156158a7576158a7600080fd5b60006158b3858561552a565b92505060206157a88582860161553e565b60ff811661549b565b60208101610e6c82846158c4565b6000806000606084860312156158f3576158f3600080fd5b60006158ff868661553e565b93505060206159108682870161552a565b92505060408401356001600160401b0381111561592f5761592f600080fd5b61581986828701615635565b6080810161594982876154af565b61595660208301866154af565b61596360408301856154af565b610ea660608301846154af565b6000610e6c6159846159818461547b565b90565b61547b565b6000610e6c82615970565b6000610e6c82615989565b61549b81615994565b60208101610e6c828461599f565b60008083601f8401126159cb576159cb600080fd5b5081356001600160401b038111156159e5576159e5600080fd5b60208301915083602082028301111561467c5761467c600080fd5b60008060208385031215615a1657615a16600080fd5b82356001600160401b03811115615a2f57615a2f600080fd5b615a3b858286016159b6565b92509250509250929050565b634e487b7160e01b600052602160045260246000fd5b600e811061227857612278615a47565b806155ad81615a5d565b6000610e6c82615a6d565b61549b81615a77565b60208101610e6c8284615a82565b8015156154cf565b8035610e6c81615a99565b600060208284031215615ac157615ac1600080fd5b60006155068484615aa1565b60408101615adb82856154af565b61104f60208301846154af565b60ff81166154cf565b8035610e6c81615ae8565b600080600080600080600060e0888a031215615b1a57615b1a600080fd5b6000615b268a8a61553e565b9750506020615b378a828b0161553e565b9650506040615b488a828b0161552a565b9550506060615b598a828b0161552a565b9450506080615b6a8a828b01615af1565b93505060a0615b7b8a828b0161552a565b92505060c0615b8c8a828b0161552a565b91505092959891949750929550565b60008060408385031215615bb157615bb1600080fd5b60006158b3858561553e565b634e487b7160e01b600052602260045260246000fd5b600281046001821680615be757607f821691505b602082108103615bf957615bf9615bbd565b50919050565b601081526000602082016f24b73b30b634b2103932b1b2b4bb32b960811b815291505b5060200190565b60208082528101610e6c81615bff565b601581526000602082017421b7b73a3930b1ba1034b99039b43aba103237bbb760591b81529150615c22565b60208082528101610e6c81615c39565b60138152600060208201721d5cda5b99c819195c1bdcda5d081b1a5b5a5d606a1b81529150615c22565b60208082528101610e6c81615c75565b602f81526000602082017f416363657373436f6e74726f6c3a2063616e206f6e6c792072656e6f756e636581526e103937b632b9903337b91039b2b63360891b602082015291505b5060400190565b60208082528101610e6c81615caf565b600a8152600060208201696e6f742061637469766560b01b81529150615c22565b60208082528101610e6c81615d0e565b600e81526000602082016d6e6f7468696e6720746f2062757960901b81529150615c22565b60208082528101610e6c81615d3f565b60138152600060208201720dcdee8d0d2dcce40e8de40c4eaf240eed2e8d606b1b81529150615c22565b60208082528101610e6c81615d74565b8051610e6c81615524565b600060208284031215615dce57615dce600080fd5b60006155068484615dae565b634e487b7160e01b600052601160045260246000fd5b6000816000190483118215151615615e0a57615e0a615dda565b500290565b634e487b7160e01b600052601260045260246000fd5b600082615e3457615e34615e0f565b500490565b600f81526000602082016e63616e6e6f7420627579207a65726f60881b81529150615c22565b60208082528101610e6c81615e39565b81810381811115610e6c57610e6c615dda565b80820180821115610e6c57610e6c615dda565b602981526000602082017f53747261746567792064656274206973206c657373207468616e20617373657481526839903732b2b232b21760b91b60208201529150615cf7565b60208082528101610e6c81615e95565b634e487b7160e01b600052603260045260246000fd5b6011815260006020820170496e61637469766520737472617465677960781b81529150615c22565b60208082528101610e6c81615f01565b60006000198203615f4c57615f4c615dda565b5060010190565b600061104f602084018461553e565b8183526000602084019350818060005b8581101561587557615f848284615f53565b615f8e8882615823565b975060208301925050600101615f72565b6020808252810161104c818486615f62565b602581526000602082017f43616c6c6572206973206e6f74207468652066757475726520726f6c65206d618152643730b3b2b960d91b60208201529150615cf7565b60208082528101610e6c81615fb1565b80825b60018511156160425780860481111561602157616021615dda565b600185161561602f57908102905b800261603b8560011c90565b9450616006565b94509492505050565b60008261605a5750600161104f565b816160675750600061104f565b816001811461607d5760028114616087576160b4565b600191505061104f565b60ff84111561609857616098615dda565b8360020a9150848211156160ae576160ae615dda565b5061104f565b5060208310610133831016604e8410600b84101617156160e7575081810a838111156160e2576160e2615dda565b61104f565b6160f48484846001616003565b9250905081840481111561610a5761610a615dda565b0292915050565b600061104f600019848461604b565b600c81526000602082016b7573696e67206d6f64756c6560a01b81529150615c22565b60208082528101610e6c81616120565b601b81526000602082017a50726f66697420756e6c6f636b2074696d6520746f6f206c6f6e6760281b81529150615c22565b60208082528101610e6c81616153565b601a8152600060208201792b30bab63a1034b99030b63932b0b23c9039b43aba103237bbb760311b81529150615c22565b60208082528101610e6c81616195565b6000610e6c6159818381565b61549b816161d6565b60208101610e6c82846161e2565b6011815260006020820170696e61637469766520737472617465677960781b81529150615c22565b60208082528101610e6c816161f9565b601f81526000602082017f5265656e7472616e637947756172643a207265656e7472616e742063616c6c0081529150615c22565b60208082528101610e6c81616231565b60008261628457616284615e0f565b500690565b602481526000602082017f45524332303a20617070726f76652066726f6d20746865207a65726f206164648152637265737360e01b60208201529150615cf7565b60208082528101610e6c81616289565b602281526000602082017f45524332303a20617070726f766520746f20746865207a65726f206164647265815261737360f01b60208201529150615cf7565b60208082528101610e6c816162da565b60138152600060208201727374726174656779206e6f742061637469766560681b81529150615c22565b60208082528101610e6c81616329565b60118152600060208201701cdd1c985d1959de481a185cc81919589d607a1b81529150615c22565b60208082528101610e6c81616363565b60c081016163a982896161e2565b6163b660208301886154af565b6163c360408301876161e2565b6163d060608301866161e2565b6163dd60808301856161e2565b611cb560a08301846161e2565b6002811061227857612278615a47565b806155ad816163ea565b6000610e6c826163fa565b61549b81616404565b60208101610e6c828461640f565b601f81526000602082017f73747261746567792063616e6e6f74206265207a65726f20616464726573730081529150615c22565b60208082528101610e6c81616426565b8051610e6c81615535565b60006020828403121561648a5761648a600080fd5b6000615506848461646a565b600d81526000602082016c1a5b9d985b1a5908185cdcd95d609a1b81529150615c22565b60208082528101610e6c81616496565b6017815260006020820176737472617465677920616c72656164792061637469766560481b81529150615c22565b60208082528101610e6c816164ca565b606081016165168286615492565b61652360208301856154af565b8181036040830152610ea68184615837565b601c81526000602082017b546f6b656e20616464726573732063616e6e6f74206265207a65726f60201b81529150615c22565b60208082528101610e6c81616535565b601d81526000602082017f53656e64657220616464726573732063616e6e6f74206265207a65726f00000081529150615c22565b60208082528101610e6c81616578565b601f81526000602082017f526563656976657220616464726573732063616e6e6f74206265207a65726f0081529150615c22565b60208082528101610e6c816165bc565b6060810161660e8286615492565b61661b6020830185615492565b61550660408301846154af565b8051610e6c81615a99565b60006020828403121561664857616648600080fd5b60006155068484616628565b600f81526000602082016e1d1c985b9cd9995c8819985a5b1959608a1b81529150615c22565b60208082528101610e6c81616654565b60408101615adb8285615492565b601c81526000602082017b13995dc81919589d08195c5d585b1cc818dd5c9c995b9d081919589d60221b81529150615c22565b60208082528101610e6c81616698565b60138152600060208201724e6f7468696e6720746f20776974686472617760681b81529150615c22565b60208082528101610e6c816166db565b601e81526000602082017f73747261746567792068617320756e7265616c69736564206c6f73736573000081529150615c22565b60208082528101610e6c81616715565b60208082527f546172676574206465627420686967686572207468616e206d6178206465627491019081526000615c22565b60208082528101610e6c81616759565b6012815260006020820171139bdd1a1a5b99c81d1bc819195c1bdcda5d60721b81529150615c22565b60208082528101610e6c8161679b565b6013815260006020820172139bc8199d5b991cc81d1bc819195c1bdcda5d606a1b81529150615c22565b60208082528101610e6c816167d4565b6040810161681c82856154af565b61104f6020830184615492565b600881526000602082016739b43aba3237bbb760c11b81529150615c22565b60208082528101610e6c81616829565b6014815260006020820173195e18d959590819195c1bdcda5d081b1a5b5a5d60621b81529150615c22565b60208082528101610e6c81616858565b601081526000602082016f63616e6e6f74206d696e74207a65726f60801b81529150615c22565b60208082528101610e6c81616893565b601381526000602082017263616e6e6f74206465706f736974207a65726f60681b81529150615c22565b60208082528101610e6c816168ca565b6013815260006020820172496e73756666696369656e742073686172657360681b81529150615c22565b60208082528101610e6c81616904565b6012815260006020820171696e73756666696369656e742066756e647360701b81529150615c22565b60208082528101610e6c8161693e565b602581526000602082017f45524332303a207472616e736665722066726f6d20746865207a65726f206164815264647265737360d81b60208201529150615cf7565b60208082528101610e6c81616977565b602381526000602082017f45524332303a207472616e7366657220746f20746865207a65726f206164647281526265737360e81b60208201529150615cf7565b60208082528101610e6c816169c9565b60c08101616a2782896154af565b616a3460208301886154af565b616a4160408301876154af565b616a4e60608301866154af565b616a5b60808301856154af565b611cb560a08301846154af565b60208082527f526563697069656e7420616464726573732063616e6e6f74206265207a65726f91019081526000615c22565b60208082528101610e6c81616a68565b601a81526000602082017922a92199182832b936b4ba1d1034b73b30b634b21037bbb732b960311b81529150615c22565b60208082528101610e6c81616aaa565b601d81526000602082017f45524332305065726d69743a206578706972656420646561646c696e6500000081529150615c22565b60208082528101610e6c81616aeb565b60c08101616b3d82896154af565b616b4a6020830188615492565b616a416040830187615492565b61190160f01b81526002016000616b6e82856154af565b602082019150616b7e82846154af565b5060200192915050565b60808101616b9682876154af565b61595660208301866158c4565b601e81526000602082017f45524332305065726d69743a20696e76616c6964207369676e6174757265000081529150615c22565b60208082528101610e6c81616ba3565b600c81526000602082016b5a45524f204144445245535360a01b81529150615c22565b60208082528101610e6c81616be7565b60088152600060208201676d6178206c6f737360c01b81529150615c22565b60208082528101610e6c81616c1a565b60138152600060208201726e6f2073686172657320746f2072656465656d60681b81529150615c22565b60208082528101610e6c81616c49565b6013815260006020820172696e73756666696369656e742073686172657360681b81529150615c22565b60208082528101610e6c81616c83565b601c81526000602082017b1a5b9cdd59999a58da595b9d08185cdcd95d1cc81a5b881d985d5b1d60221b81529150615c22565b60208082528101610e6c81616cbd565b600d81526000602082016c746f6f206d756368206c6f737360981b81529150615c22565b60208082528101610e6c81616d00565b6000616d3e825190565b616d4c8185602086016156eb565b9290920192915050565b76020b1b1b2b9b9a1b7b73a3937b61d1030b1b1b7bab73a1604d1b81526017016000616d828285616d34565b7001034b99036b4b9b9b4b733903937b6329607d1b815260110191506155068284616d34565b601d81526000602082017f45524332303a20696e73756666696369656e7420616c6c6f77616e636500000081529150615c22565b60208082528101610e6c81616da8565b60608101616dfa82866154af565b616e076020830185615492565b6155066040830184615492565b601e81526000602082017f5370656e64657220616464726573732063616e6e6f74206265207a65726f000081529150615c22565b60208082528101610e6c81616e14565b600f81526000602082016e185c1c1c9bdd985b0819985a5b1959608a1b81529150615c22565b60208082528101610e6c81616e58565b600f81526000602082016e0c2dadeeadce840e8dede40d0d2ced608b1b81529150615c22565b60208082528101610e6c81616e8e565b60608101616ed28286615492565b61661b60208301856154af565b60008060408385031215616ef557616ef5600080fd5b6000616f018585615dae565b92505060206157a885828601615dae565b61ffff81166154cf565b8051610e6c81616f12565b60008060408385031215616f3d57616f3d600080fd5b6000616f498585616f1c565b92505060206157a88582860161646a565b6040810161681c8285615492565b600081616f7757616f77615dda565b506000190190565b60208082527f537472696e67733a20686578206c656e67746820696e73756666696369656e7491019081526000615c22565b60208082528101610e6c81616f7f56fe152ebba56b9738ee3d8baea1b76fa31dcdcd79b1929bfea7d58ee12cfdf1a653cd9f023a942ee35097ead74b2505bea9f2c5d47465db92dd195cf7f01a41cfe1633076a97f32ae349b28772e7b1483f67a926f150cbc501d02bdbd77389325abc723f4dd6268e1c374639e36d629c765285ee7003913389d582c300f186dde97777d215db24fb9fee4ded85c66b422abd7162a1caa6ed3ec4c031f6cd29ada52d45f7ccff42f059d4e47c3f027c444272257266f7e88b981e142f0aa38fbfd78ea672c1c09cd95c51af9509f646f3615ff0071aae8652bd821471ee9037fd72c862f91c9d89d6135b19873b921c90b702cb2e175c371b8430026b9577e691119bcf55f13710eed7eda89416c2984da5475fcff67e96fe85e56eed808559a5222ae565aab888bca5e19e25a13db7b0c9144305bf55cb0f3f4d724f730e5acdd622a0e761830cc61f2707ea7bb138008bf9dda7f7d34c77736d0a116604e95ea16f206625bad3d9112d5609b8d356e6fbd514cd1f69980d4ce2b3e6e68e1789ace7cbb3cdf689b8ea3e9d265f66bc4e0a99069268217017d38d2a5a559abc62719ddf252ad1be2c89b69c2b068fc378daa952ba7f163c4a11628f55a4df523b3ef7f2ad1d3ba35276f35ef140f83e3e0f17b23064fd710113d3f7a5ab30d2678116e71edae12b1b97f4d1f60370fef10105fa2faae0126114a169c64845d6126c98c5be1e5ebec7d5bd14f71427d1e84f3dd0314c0f7b2291e5b200ac8c7c3b9256f430d649a8640e48ff9bfbc353b3f99ed630163857821b3b4075e3871dafbf5900d80def0427daac599092fcb16b21808ec68dd9a2e1eae89d1e8db21357375a18eaea71a088b547b8c932b48861853b3434d9a3240b94466c607e28b696595dcbc1c05240f31ff3ad067ef1ee35ce4997762752e3a095284754544f4c709d75e2b8821ad6e0e26207e0cb4d242d07eeb1cbb1cfd853e645bdcd27cc5484f952f0dbbe8c2c0170206c50ec0cafa1c0dbd03e73e67c2a960178df30a0a30ee2e69d1171ac0a63777a6733cda21aec9ed3d48a4fd11f273c934a691dec5e5589ca26469706673582212209fe2ad7bc5556e4809da64dcf8f496484fd05ccc3135340e402e075edf97894964736f6c63430008100033","opcodes":"PUSH2 0x100 PUSH1 0x40 MSTORE PUSH4 0x1E18558 PUSH1 0xE0 MSTORE CALLVALUE DUP1 ISZERO PUSH3 0x1A JUMPI PUSH1 0x0 DUP1 REVERT JUMPDEST POP PUSH1 0x40 MLOAD PUSH3 0x7B09 CODESIZE SUB DUP1 PUSH3 0x7B09 DUP4 CODECOPY DUP2 ADD PUSH1 0x40 DUP2 SWAP1 MSTORE PUSH3 0x3D SWAP2 PUSH3 0x394 JUMP JUMPDEST PUSH1 0x1 DUP1 SSTORE PUSH1 0x1 PUSH1 0x1 PUSH1 0xA0 SHL SUB DUP6 AND PUSH1 0x80 DUP2 SWAP1 MSTORE PUSH1 0x40 DUP1 MLOAD PUSH4 0x313CE567 PUSH1 0xE0 SHL DUP2 MSTORE SWAP1 MLOAD PUSH4 0x313CE567 SWAP2 PUSH1 0x4 DUP1 DUP3 ADD SWAP3 PUSH1 0x20 SWAP3 SWAP1 SWAP2 SWAP1 DUP3 SWAP1 SUB ADD DUP2 DUP7 GAS STATICCALL ISZERO DUP1 ISZERO PUSH3 0x8C JUMPI RETURNDATASIZE PUSH1 0x0 DUP1 RETURNDATACOPY RETURNDATASIZE PUSH1 0x0 REVERT JUMPDEST POP POP POP POP PUSH1 0x40 MLOAD RETURNDATASIZE PUSH1 0x1F NOT PUSH1 0x1F DUP3 ADD AND DUP3 ADD DUP1 PUSH1 0x40 MSTORE POP DUP2 ADD SWAP1 PUSH3 0xB2 SWAP2 SWAP1 PUSH3 0x467 JUMP JUMPDEST PUSH1 0xFF AND PUSH1 0xA0 DUP2 SWAP1 MSTORE PUSH2 0x100 GT PUSH3 0xE6 JUMPI PUSH1 0x40 MLOAD PUSH3 0x461BCD PUSH1 0xE5 SHL DUP2 MSTORE PUSH1 0x4 ADD PUSH3 0xDD SWAP1 PUSH3 0x48C JUMP JUMPDEST PUSH1 0x40 MLOAD DUP1 SWAP2 SUB SWAP1 REVERT JUMPDEST CALLER PUSH1 0xC0 MSTORE PUSH4 0x1E18558 DUP2 GT ISZERO PUSH3 0x111 JUMPI PUSH1 0x40 MLOAD PUSH3 0x461BCD PUSH1 0xE5 SHL DUP2 MSTORE PUSH1 0x4 ADD PUSH3 0xDD SWAP1 PUSH3 0x4C8 JUMP JUMPDEST PUSH1 0x13 DUP2 SWAP1 SSTORE PUSH1 0x19 PUSH3 0x124 DUP6 DUP3 PUSH3 0x60C JUMP JUMPDEST POP PUSH1 0x1A PUSH3 0x133 DUP5 DUP3 PUSH3 0x60C JUMP JUMPDEST POP PUSH1 0x11 DUP1 SLOAD PUSH1 0x1 PUSH1 0x1 PUSH1 0xA0 SHL SUB NOT AND PUSH1 0x1 PUSH1 0x1 PUSH1 0xA0 SHL SUB DUP5 AND OR SWAP1 SSTORE DUP4 MLOAD PUSH1 0x20 DUP1 DUP7 ADD SWAP2 SWAP1 SWAP2 KECCAK256 PUSH1 0x40 DUP1 MLOAD DUP1 DUP3 ADD DUP3 MSTORE PUSH1 0x5 DUP2 MSTORE PUSH5 0x332E302E31 PUSH1 0xD8 SHL SWAP1 DUP5 ADD MSTORE MLOAD PUSH3 0x1CA SWAP3 PUSH32 0x8B73C3C69BB8FE3D512ECC4CF759CC79239F7B179B0FFACAA9A75D522B39400F SWAP3 SWAP2 PUSH32 0xC63FEF2293A1F92E82EA14ECFF0FFFDA4A757B8C20DD61198C8B9EBEF0985EF4 SWAP2 CHAINID SWAP2 ADDRESS SWAP2 ADD PUSH3 0x6EF JUMP JUMPDEST PUSH1 0x40 MLOAD PUSH1 0x20 DUP2 DUP4 SUB SUB DUP2 MSTORE SWAP1 PUSH1 0x40 MSTORE DUP1 MLOAD SWAP1 PUSH1 0x20 ADD KECCAK256 PUSH1 0x18 DUP2 SWAP1 SSTORE POP POP POP POP POP POP PUSH3 0x745 JUMP JUMPDEST PUSH1 0x0 PUSH1 0x1 PUSH1 0x1 PUSH1 0xA0 SHL SUB DUP3 AND JUMPDEST SWAP3 SWAP2 POP POP JUMP JUMPDEST PUSH1 0x0 PUSH3 0x1FE DUP3 PUSH3 0x1F1 JUMP JUMPDEST PUSH3 0x21C DUP2 PUSH3 0x204 JUMP JUMPDEST DUP2 EQ PUSH3 0x228 JUMPI PUSH1 0x0 DUP1 REVERT JUMPDEST POP JUMP JUMPDEST DUP1 MLOAD PUSH3 0x1FE DUP2 PUSH3 0x211 JUMP JUMPDEST PUSH4 0x4E487B71 PUSH1 0xE0 SHL PUSH1 0x0 MSTORE PUSH1 0x41 PUSH1 0x4 MSTORE PUSH1 0x24 PUSH1 0x0 REVERT JUMPDEST PUSH1 0x1F NOT PUSH1 0x1F DUP4 ADD AND DUP2 ADD DUP2 DUP2 LT PUSH1 0x1 PUSH1 0x1 PUSH1 0x40 SHL SUB DUP3 GT OR ISZERO PUSH3 0x276 JUMPI PUSH3 0x276 PUSH3 0x238 JUMP JUMPDEST PUSH1 0x40 MSTORE POP POP JUMP JUMPDEST PUSH1 0x0 PUSH3 0x289 PUSH1 0x40 MLOAD SWAP1 JUMP JUMPDEST SWAP1 POP PUSH3 0x297 DUP3 DUP3 PUSH3 0x24E JUMP JUMPDEST SWAP2 SWAP1 POP JUMP JUMPDEST PUSH1 0x0 PUSH1 0x1 PUSH1 0x1 PUSH1 0x40 SHL SUB DUP3 GT ISZERO PUSH3 0x2B8 JUMPI PUSH3 0x2B8 PUSH3 0x238 JUMP JUMPDEST PUSH1 0x1F NOT PUSH1 0x1F DUP4 ADD AND PUSH1 0x20 ADD SWAP3 SWAP2 POP POP JUMP JUMPDEST PUSH1 0x0 JUMPDEST DUP4 DUP2 LT ISZERO PUSH3 0x2E6 JUMPI DUP2 DUP2 ADD MLOAD DUP4 DUP3 ADD MSTORE PUSH1 0x20 ADD PUSH3 0x2CC JUMP JUMPDEST POP POP PUSH1 0x0 SWAP2 ADD MSTORE JUMP JUMPDEST PUSH1 0x0 PUSH3 0x306 PUSH3 0x300 DUP5 PUSH3 0x29C JUMP JUMPDEST PUSH3 0x27D JUMP JUMPDEST SWAP1 POP DUP3 DUP2 MSTORE PUSH1 0x20 DUP2 ADD DUP5 DUP5 DUP5 ADD GT ISZERO PUSH3 0x323 JUMPI PUSH3 0x323 PUSH1 0x0 DUP1 REVERT JUMPDEST PUSH3 0x330 DUP5 DUP3 DUP6 PUSH3 0x2C9 JUMP JUMPDEST POP SWAP4 SWAP3 POP POP POP JUMP JUMPDEST PUSH1 0x0 DUP3 PUSH1 0x1F DUP4 ADD SLT PUSH3 0x34E JUMPI PUSH3 0x34E PUSH1 0x0 DUP1 REVERT JUMPDEST DUP2 MLOAD PUSH3 0x360 DUP5 DUP3 PUSH1 0x20 DUP7 ADD PUSH3 0x2EF JUMP JUMPDEST SWAP5 SWAP4 POP POP POP POP JUMP JUMPDEST PUSH3 0x21C DUP2 PUSH3 0x1F1 JUMP JUMPDEST DUP1 MLOAD PUSH3 0x1FE DUP2 PUSH3 0x368 JUMP JUMPDEST DUP1 PUSH3 0x21C JUMP JUMPDEST DUP1 MLOAD PUSH3 0x1FE DUP2 PUSH3 0x380 JUMP JUMPDEST PUSH1 0x0 DUP1 PUSH1 0x0 DUP1 PUSH1 0x0 PUSH1 0xA0 DUP7 DUP9 SUB SLT ISZERO PUSH3 0x3B1 JUMPI PUSH3 0x3B1 PUSH1 0x0 DUP1 REVERT JUMPDEST PUSH1 0x0 PUSH3 0x3BF DUP9 DUP9 PUSH3 0x22B JUMP JUMPDEST SWAP6 POP POP PUSH1 0x20 DUP7 ADD MLOAD PUSH1 0x1 PUSH1 0x1 PUSH1 0x40 SHL SUB DUP2 GT ISZERO PUSH3 0x3E0 JUMPI PUSH3 0x3E0 PUSH1 0x0 DUP1 REVERT JUMPDEST PUSH3 0x3EE DUP9 DUP3 DUP10 ADD PUSH3 0x338 JUMP JUMPDEST SWAP5 POP POP PUSH1 0x40 DUP7 ADD MLOAD PUSH1 0x1 PUSH1 0x1 PUSH1 0x40 SHL SUB DUP2 GT ISZERO PUSH3 0x40F JUMPI PUSH3 0x40F PUSH1 0x0 DUP1 REVERT JUMPDEST PUSH3 0x41D DUP9 DUP3 DUP10 ADD PUSH3 0x338 JUMP JUMPDEST SWAP4 POP POP PUSH1 0x60 PUSH3 0x430 DUP9 DUP3 DUP10 ADD PUSH3 0x373 JUMP JUMPDEST SWAP3 POP POP PUSH1 0x80 PUSH3 0x443 DUP9 DUP3 DUP10 ADD PUSH3 0x387 JUMP JUMPDEST SWAP2 POP POP SWAP3 SWAP6 POP SWAP3 SWAP6 SWAP1 SWAP4 POP JUMP JUMPDEST PUSH1 0xFF DUP2 AND PUSH3 0x21C JUMP JUMPDEST DUP1 MLOAD PUSH3 0x1FE DUP2 PUSH3 0x450 JUMP JUMPDEST PUSH1 0x0 PUSH1 0x20 DUP3 DUP5 SUB SLT ISZERO PUSH3 0x47E JUMPI PUSH3 0x47E PUSH1 0x0 DUP1 REVERT JUMPDEST PUSH1 0x0 PUSH3 0x360 DUP5 DUP5 PUSH3 0x45A JUMP JUMPDEST PUSH1 0x20 DUP1 DUP3 MSTORE DUP2 ADD PUSH3 0x1FE DUP2 PUSH1 0x1D DUP2 MSTORE PUSH32 0x5661756C743A20696E76616C696420617373657420646563696D616C73000000 PUSH1 0x20 DUP3 ADD MSTORE PUSH1 0x40 ADD SWAP1 JUMP JUMPDEST PUSH1 0x20 DUP1 DUP3 MSTORE DUP2 ADD PUSH3 0x1FE DUP2 PUSH1 0x22 DUP2 MSTORE PUSH32 0x5661756C743A2070726F66697420756E6C6F636B2074696D6520746F6F206C6F PUSH1 0x20 DUP3 ADD MSTORE PUSH2 0x6E67 PUSH1 0xF0 SHL PUSH1 0x40 DUP3 ADD MSTORE PUSH1 0x60 ADD SWAP1 JUMP JUMPDEST PUSH4 0x4E487B71 PUSH1 0xE0 SHL PUSH1 0x0 MSTORE PUSH1 0x22 PUSH1 0x4 MSTORE PUSH1 0x24 PUSH1 0x0 REVERT JUMPDEST PUSH1 0x2 DUP2 DIV PUSH1 0x1 DUP3 AND DUP1 PUSH3 0x53A JUMPI PUSH1 0x7F DUP3 AND SWAP2 POP JUMPDEST PUSH1 0x20 DUP3 LT DUP2 SUB PUSH3 0x54F JUMPI PUSH3 0x54F PUSH3 0x50F JUMP JUMPDEST POP SWAP2 SWAP1 POP JUMP JUMPDEST PUSH1 0x0 PUSH3 0x1FE PUSH3 0x563 DUP4 DUP2 JUMP JUMPDEST SWAP1 JUMP JUMPDEST PUSH3 0x571 DUP4 PUSH3 0x555 JUMP JUMPDEST DUP2 SLOAD PUSH1 0x8 DUP5 MUL DUP3 DUP2 SHL PUSH1 0x0 NOT SWAP1 SWAP2 SHL SWAP1 DUP2 AND SWAP1 NOT SWAP1 SWAP2 AND OR DUP3 SSTORE POP POP POP POP JUMP JUMPDEST PUSH1 0x0 PUSH3 0x5A0 DUP2 DUP5 DUP5 PUSH3 0x566 JUMP JUMPDEST POP POP POP JUMP JUMPDEST DUP2 DUP2 LT ISZERO PUSH3 0x5C4 JUMPI PUSH3 0x5BB PUSH1 0x0 DUP3 PUSH3 0x591 JUMP JUMPDEST PUSH1 0x1 ADD PUSH3 0x5A5 JUMP JUMPDEST POP POP JUMP JUMPDEST PUSH1 0x1F DUP3 GT ISZERO PUSH3 0x5A0 JUMPI PUSH1 0x0 DUP2 DUP2 MSTORE PUSH1 0x20 SWAP1 KECCAK256 PUSH1 0x20 PUSH1 0x1F DUP6 ADD DIV DUP2 ADD PUSH1 0x20 DUP6 LT ISZERO PUSH3 0x5F1 JUMPI POP DUP1 JUMPDEST PUSH3 0x605 PUSH1 0x20 PUSH1 0x1F DUP7 ADD DIV DUP4 ADD DUP3 PUSH3 0x5A5 JUMP JUMPDEST POP POP POP POP POP JUMP JUMPDEST DUP2 MLOAD PUSH1 0x1 PUSH1 0x1 PUSH1 0x40 SHL SUB DUP2 GT ISZERO PUSH3 0x628 JUMPI PUSH3 0x628 PUSH3 0x238 JUMP JUMPDEST PUSH3 0x634 DUP3 SLOAD PUSH3 0x525 JUMP JUMPDEST PUSH3 0x641 DUP3 DUP3 DUP6 PUSH3 0x5C8 JUMP JUMPDEST PUSH1 0x20 PUSH1 0x1F DUP4 GT PUSH1 0x1 DUP2 EQ PUSH3 0x678 JUMPI PUSH1 0x0 DUP5 ISZERO PUSH3 0x65F JUMPI POP DUP6 DUP3 ADD MLOAD JUMPDEST PUSH1 0x0 NOT PUSH1 0x8 DUP7 MUL SHR NOT DUP2 AND PUSH1 0x2 DUP7 MUL OR DUP7 SSTORE POP PUSH3 0x6D4 JUMP JUMPDEST PUSH1 0x0 DUP6 DUP2 MSTORE PUSH1 0x20 DUP2 KECCAK256 PUSH1 0x1F NOT DUP7 AND SWAP2 JUMPDEST DUP3 DUP2 LT ISZERO PUSH3 0x6AA JUMPI DUP9 DUP6 ADD MLOAD DUP3 SSTORE PUSH1 0x20 SWAP5 DUP6 ADD SWAP5 PUSH1 0x1 SWAP1 SWAP3 ADD SWAP2 ADD PUSH3 0x688 JUMP JUMPDEST DUP7 DUP4 LT ISZERO PUSH3 0x6C7 JUMPI DUP5 DUP10 ADD MLOAD PUSH1 0x0 NOT PUSH1 0x1F DUP10 AND PUSH1 0x8 MUL SHR NOT AND DUP3 SSTORE JUMPDEST PUSH1 0x1 PUSH1 0x2 DUP9 MUL ADD DUP9 SSTORE POP POP POP JUMPDEST POP POP POP POP POP POP JUMP JUMPDEST DUP1 JUMPDEST DUP3 MSTORE POP POP JUMP JUMPDEST PUSH3 0x6DE DUP2 PUSH3 0x1F1 JUMP JUMPDEST PUSH1 0xA0 DUP2 ADD PUSH3 0x6FF DUP3 DUP9 PUSH3 0x6DC JUMP JUMPDEST PUSH3 0x70E PUSH1 0x20 DUP4 ADD DUP8 PUSH3 0x6DC JUMP JUMPDEST PUSH3 0x71D PUSH1 0x40 DUP4 ADD DUP7 PUSH3 0x6DC JUMP JUMPDEST PUSH3 0x72C PUSH1 0x60 DUP4 ADD DUP6 PUSH3 0x6DC JUMP JUMPDEST PUSH3 0x73B PUSH1 0x80 DUP4 ADD DUP5 PUSH3 0x6E4 JUMP JUMPDEST SWAP7 SWAP6 POP POP POP POP POP POP JUMP JUMPDEST PUSH1 0x80 MLOAD PUSH1 0xA0 MLOAD PUSH1 0xC0 MLOAD PUSH1 0xE0 MLOAD PUSH2 0x72F7 PUSH3 0x812 PUSH1 0x0 CODECOPY PUSH1 0x0 DUP2 DUP2 PUSH2 0x62F ADD MSTORE PUSH2 0x1D6A ADD MSTORE PUSH1 0x0 DUP2 DUP2 PUSH2 0x6E9 ADD MSTORE PUSH2 0x4CDC ADD MSTORE PUSH1 0x0 DUP2 DUP2 PUSH2 0x710 ADD MSTORE DUP2 DUP2 PUSH2 0x747 ADD MSTORE PUSH2 0x1963 ADD MSTORE PUSH1 0x0 DUP2 DUP2 PUSH2 0x7B0 ADD MSTORE DUP2 DUP2 PUSH2 0x87D ADD MSTORE DUP2 DUP2 PUSH2 0x138D ADD MSTORE DUP2 DUP2 PUSH2 0x24F3 ADD MSTORE DUP2 DUP2 PUSH2 0x30A5 ADD MSTORE DUP2 DUP2 PUSH2 0x3141 ADD MSTORE DUP2 DUP2 PUSH2 0x3358 ADD MSTORE DUP2 DUP2 PUSH2 0x3398 ADD MSTORE DUP2 DUP2 PUSH2 0x349D ADD MSTORE DUP2 DUP2 PUSH2 0x351A ADD MSTORE DUP2 DUP2 PUSH2 0x37AF ADD MSTORE DUP2 DUP2 PUSH2 0x39AE ADD MSTORE DUP2 DUP2 PUSH2 0x4060 ADD MSTORE DUP2 DUP2 PUSH2 0x446B ADD MSTORE DUP2 DUP2 PUSH2 0x46F4 ADD MSTORE DUP2 DUP2 PUSH2 0x4E60 ADD MSTORE DUP2 DUP2 PUSH2 0x4EF4 ADD MSTORE PUSH2 0x4F3F ADD MSTORE PUSH2 0x72F7 PUSH1 0x0 RETURN INVALID PUSH1 0x80 PUSH1 0x40 MSTORE CALLVALUE DUP1 ISZERO PUSH2 0x10 JUMPI PUSH1 0x0 DUP1 REVERT JUMPDEST POP PUSH1 0x4 CALLDATASIZE LT PUSH2 0x515 JUMPI PUSH1 0x0 CALLDATALOAD PUSH1 0xE0 SHR DUP1 PUSH4 0x70A08231 GT PUSH2 0x2A2 JUMPI DUP1 PUSH4 0x70A08231 EQ PUSH2 0x9F4 JUMPI DUP1 PUSH4 0x77E3B267 EQ PUSH2 0xA07 JUMPI DUP1 PUSH4 0x7ECEBE00 EQ PUSH2 0xA2B JUMPI DUP1 PUSH4 0x8212FD43 EQ PUSH2 0xA4B JUMPI DUP1 PUSH4 0x8AFCA8F0 EQ PUSH2 0xA5E JUMPI DUP1 PUSH4 0x91986003 EQ PUSH2 0xA67 JUMPI DUP1 PUSH4 0x91D14854 EQ PUSH2 0xA7A JUMPI DUP1 PUSH4 0x94BF804D EQ PUSH2 0xA8D JUMPI DUP1 PUSH4 0x95D89B41 EQ PUSH2 0xAA0 JUMPI DUP1 PUSH4 0x99167FB4 EQ PUSH2 0xAA8 JUMPI DUP1 PUSH4 0x99374642 EQ PUSH2 0xABB JUMPI DUP1 PUSH4 0x99530B06 EQ PUSH2 0xAEB JUMPI DUP1 PUSH4 0x9AA7DF94 EQ PUSH2 0xAF3 JUMPI DUP1 PUSH4 0x9BBCA884 EQ PUSH2 0xAFB JUMPI DUP1 PUSH4 0x9E34E348 EQ PUSH2 0xB0E JUMPI DUP1 PUSH4 0x9F3988F3 EQ PUSH2 0xB21 JUMPI DUP1 PUSH4 0xA217FDDF EQ PUSH2 0xB36 JUMPI DUP1 PUSH4 0xA457C2D7 EQ PUSH2 0xB3E JUMPI DUP1 PUSH4 0xA73F7F8A EQ PUSH2 0xB51 JUMPI DUP1 PUSH4 0xA9059CBB EQ PUSH2 0xB64 JUMPI DUP1 PUSH4 0xA98222C4 EQ PUSH2 0xB77 JUMPI DUP1 PUSH4 0xAB5B4D49 EQ PUSH2 0xB8C JUMPI DUP1 PUSH4 0xB3C187F2 EQ PUSH2 0xBA1 JUMPI DUP1 PUSH4 0xB3D7F6B9 EQ PUSH2 0xBB4 JUMPI DUP1 PUSH4 0xB6CC2D1F EQ PUSH2 0xBC7 JUMPI DUP1 PUSH4 0xBB994D48 EQ PUSH2 0xBE8 JUMPI DUP1 PUSH4 0xBBE4EB49 EQ PUSH2 0xBFB JUMPI DUP1 PUSH4 0xBDC8144B EQ PUSH2 0xC08 JUMPI DUP1 PUSH4 0xBF86D690 EQ PUSH2 0xC1B JUMPI DUP1 PUSH4 0xC065CA07 EQ PUSH2 0xC2D JUMPI DUP1 PUSH4 0xC0993EEA EQ PUSH2 0xC42 JUMPI DUP1 PUSH4 0xC63D75B6 EQ PUSH2 0xC69 JUMPI DUP1 PUSH4 0xC6E6F592 EQ PUSH2 0xC7C JUMPI DUP1 PUSH4 0xC8D74B60 EQ PUSH2 0xC8F JUMPI DUP1 PUSH4 0xC8DFFA95 EQ PUSH2 0xCA4 JUMPI DUP1 PUSH4 0xC9A16EA4 EQ PUSH2 0xCAD JUMPI DUP1 PUSH4 0xCA4C1C37 EQ PUSH2 0xCC0 JUMPI DUP1 PUSH4 0xD4AE064F EQ PUSH2 0xCD3 JUMPI DUP1 PUSH4 0xD505ACCF EQ PUSH2 0xCE8 JUMPI DUP1 PUSH4 0xD538E904 EQ PUSH2 0xCFB JUMPI DUP1 PUSH4 0xD547741F EQ PUSH2 0xD0E JUMPI DUP1 PUSH4 0xD81A09F6 EQ PUSH2 0xD21 JUMPI DUP1 PUSH4 0xD9A0E97A EQ PUSH2 0xD34 JUMPI DUP1 PUSH4 0xDD62ED3E EQ PUSH2 0xD3C JUMPI DUP1 PUSH4 0xDF69B22A EQ PUSH2 0xD75 JUMPI DUP1 PUSH4 0xE5236CC9 EQ PUSH2 0xD88 JUMPI DUP1 PUSH4 0xECF70858 EQ PUSH2 0xD90 JUMPI DUP1 PUSH4 0xEF8B30F7 EQ PUSH2 0xC7C JUMPI DUP1 PUSH4 0xF1DAEBA8 EQ PUSH2 0xD99 JUMPI DUP1 PUSH4 0xF5B944EB EQ PUSH2 0xDAE JUMPI DUP1 PUSH4 0xF6D7BFA0 EQ PUSH2 0xDC3 JUMPI DUP1 PUSH4 0xF828F50B EQ PUSH2 0xDD6 JUMPI DUP1 PUSH4 0xFC0E74D1 EQ PUSH2 0xDDF JUMPI DUP1 PUSH4 0xFC7B9C18 EQ PUSH2 0xDF3 JUMPI DUP1 PUSH4 0xFD967F47 EQ PUSH2 0xDFB JUMPI DUP1 PUSH4 0xFEC61F06 EQ PUSH2 0xE04 JUMPI DUP1 PUSH4 0xFF1E7F08 EQ PUSH2 0xE19 JUMPI PUSH1 0x0 DUP1 REVERT JUMPDEST DUP1 PUSH3 0x435DA5 EQ PUSH2 0x51A JUMPI DUP1 PUSH4 0x1E1D114 EQ PUSH2 0x543 JUMPI DUP1 PUSH4 0x1FFC9A7 EQ PUSH2 0x558 JUMPI DUP1 PUSH4 0x3DCD12C EQ PUSH2 0x578 JUMPI DUP1 PUSH4 0x6580F2D EQ PUSH2 0x58D JUMPI DUP1 PUSH4 0x6FDDE03 EQ PUSH2 0x5A0 JUMPI DUP1 PUSH4 0x7A2D13A EQ PUSH2 0x5B5 JUMPI DUP1 PUSH4 0x835A3FC EQ PUSH2 0x5C8 JUMPI DUP1 PUSH4 0x952864E EQ PUSH2 0x5D1 JUMPI DUP1 PUSH4 0x95EA7B3 EQ PUSH2 0x5DA JUMPI DUP1 PUSH4 0xA28A477 EQ PUSH2 0x5ED JUMPI DUP1 PUSH4 0xAD283D0 EQ PUSH2 0x600 JUMPI DUP1 PUSH4 0x16B87AC0 EQ PUSH2 0x615 JUMPI DUP1 PUSH4 0x16D3BFBB EQ PUSH2 0x62A JUMPI DUP1 PUSH4 0x18160DDD EQ PUSH2 0x651 JUMPI DUP1 PUSH4 0x223E5479 EQ PUSH2 0x659 JUMPI DUP1 PUSH4 0x23B872DD EQ PUSH2 0x66C JUMPI DUP1 PUSH4 0x248A9CA3 EQ PUSH2 0x67F JUMPI DUP1 PUSH4 0x25829410 EQ PUSH2 0x692 JUMPI DUP1 PUSH4 0x29F3CEF5 EQ PUSH2 0x6B3 JUMPI DUP1 PUSH4 0x2D632692 EQ PUSH2 0x6C8 JUMPI DUP1 PUSH4 0x2D772168 EQ PUSH2 0x6D1 JUMPI DUP1 PUSH4 0x2DD31000 EQ PUSH2 0x6E4 JUMPI DUP1 PUSH4 0x2E0F2625 EQ PUSH2 0x70B JUMPI DUP1 PUSH4 0x2F2FF15D EQ PUSH2 0x732 JUMPI DUP1 PUSH4 0x313CE567 EQ PUSH2 0x745 JUMPI DUP1 PUSH4 0x34B5FAB6 EQ PUSH2 0x773 JUMPI DUP1 PUSH4 0x3644E515 EQ PUSH2 0x786 JUMPI DUP1 PUSH4 0x36568ABE EQ PUSH2 0x78F JUMPI DUP1 PUSH4 0x36FBA084 EQ PUSH2 0x7A2 JUMPI DUP1 PUSH4 0x38D52E0F EQ PUSH2 0x7AE JUMPI DUP1 PUSH4 0x39509351 EQ PUSH2 0x7D4 JUMPI DUP1 PUSH4 0x39EBF823 EQ PUSH2 0x7E7 JUMPI DUP1 PUSH4 0x3CD7B5AB EQ PUSH2 0x82E JUMPI DUP1 PUSH4 0x3F7B5E40 EQ PUSH2 0x837 JUMPI DUP1 PUSH4 0x402D267D EQ PUSH2 0x83F JUMPI DUP1 PUSH4 0x405977E7 EQ PUSH2 0x852 JUMPI DUP1 PUSH4 0x46E6AC49 EQ PUSH2 0x865 JUMPI DUP1 PUSH4 0x4800D97F EQ PUSH2 0x878 JUMPI DUP1 PUSH4 0x48EA7127 EQ PUSH2 0x8AC JUMPI DUP1 PUSH4 0x4BBD71E9 EQ PUSH2 0x8BF JUMPI DUP1 PUSH4 0x4CDAD506 EQ PUSH2 0x5B5 JUMPI DUP1 PUSH4 0x4CE1D38A EQ PUSH2 0x8D2 JUMPI DUP1 PUSH4 0x4CFE51DC EQ PUSH2 0x8E7 JUMPI DUP1 PUSH4 0x4D4BB197 EQ PUSH2 0x8FC JUMPI DUP1 PUSH4 0x4FB3CCC5 EQ PUSH2 0x911 JUMPI DUP1 PUSH4 0x5141EEBB EQ PUSH2 0x924 JUMPI DUP1 PUSH4 0x53A66132 EQ PUSH2 0x92D JUMPI DUP1 PUSH4 0x5A569099 EQ PUSH2 0x950 JUMPI DUP1 PUSH4 0x5BF6B4FB EQ PUSH2 0x963 JUMPI DUP1 PUSH4 0x629B9142 EQ PUSH2 0x978 JUMPI DUP1 PUSH4 0x633F228C EQ PUSH2 0x98B JUMPI DUP1 PUSH4 0x652DA324 EQ PUSH2 0x99E JUMPI DUP1 PUSH4 0x65CB6765 EQ PUSH2 0x9B3 JUMPI DUP1 PUSH4 0x6853920E EQ PUSH2 0x9C6 JUMPI DUP1 PUSH4 0x6D020808 EQ PUSH2 0x9D9 JUMPI DUP1 PUSH4 0x6E553F65 EQ PUSH2 0x9E1 JUMPI JUMPDEST PUSH1 0x0 DUP1 REVERT JUMPDEST PUSH1 0x11 SLOAD PUSH2 0x52D SWAP1 PUSH1 0x1 PUSH1 0x1 PUSH1 0xA0 SHL SUB AND DUP2 JUMP JUMPDEST PUSH1 0x40 MLOAD PUSH2 0x53A SWAP2 SWAP1 PUSH2 0x54A1 JUMP JUMPDEST PUSH1 0x40 MLOAD DUP1 SWAP2 SUB SWAP1 RETURN JUMPDEST PUSH2 0x54B PUSH2 0xE2C JUMP JUMPDEST PUSH1 0x40 MLOAD PUSH2 0x53A SWAP2 SWAP1 PUSH2 0x54B5 JUMP JUMPDEST PUSH2 0x56B PUSH2 0x566 CALLDATASIZE PUSH1 0x4 PUSH2 0x54E5 JUMP JUMPDEST PUSH2 0xE3B JUMP JUMPDEST PUSH1 0x40 MLOAD PUSH2 0x53A SWAP2 SWAP1 PUSH2 0x5516 JUMP JUMPDEST PUSH2 0x54B PUSH1 0x0 DUP1 MLOAD PUSH1 0x20 PUSH2 0x7002 DUP4 CODECOPY DUP2 MLOAD SWAP2 MSTORE DUP2 JUMP JUMPDEST PUSH2 0x54B PUSH2 0x59B CALLDATASIZE PUSH1 0x4 PUSH2 0x5659 JUMP JUMPDEST PUSH2 0xE72 JUMP JUMPDEST PUSH2 0x5A8 PUSH2 0xEAF JUMP JUMPDEST PUSH1 0x40 MLOAD PUSH2 0x53A SWAP2 SWAP1 PUSH2 0x5743 JUMP JUMPDEST PUSH2 0x54B PUSH2 0x5C3 CALLDATASIZE PUSH1 0x4 PUSH2 0x5754 JUMP JUMPDEST PUSH2 0xF3D JUMP JUMPDEST PUSH2 0x54B PUSH1 0xA SLOAD DUP2 JUMP JUMPDEST PUSH2 0x54B PUSH1 0x13 SLOAD DUP2 JUMP JUMPDEST PUSH2 0x56B PUSH2 0x5E8 CALLDATASIZE PUSH1 0x4 PUSH2 0x5775 JUMP JUMPDEST PUSH2 0xF4A JUMP JUMPDEST PUSH2 0x54B PUSH2 0x5FB CALLDATASIZE PUSH1 0x4 PUSH2 0x5754 JUMP JUMPDEST PUSH2 0xF9A JUMP JUMPDEST PUSH2 0x54B PUSH1 0x0 DUP1 MLOAD PUSH1 0x20 PUSH2 0x7022 DUP4 CODECOPY DUP2 MLOAD SWAP2 MSTORE DUP2 JUMP JUMPDEST PUSH2 0x628 PUSH2 0x623 CALLDATASIZE PUSH1 0x4 PUSH2 0x57B2 JUMP JUMPDEST PUSH2 0xFA7 JUMP JUMPDEST STOP JUMPDEST PUSH2 0x54B PUSH32 0x0 DUP2 JUMP JUMPDEST PUSH2 0x54B PUSH2 0xFCE JUMP JUMPDEST PUSH2 0x628 PUSH2 0x667 CALLDATASIZE PUSH1 0x4 PUSH2 0x57B2 JUMP JUMPDEST PUSH2 0xFD8 JUMP JUMPDEST PUSH2 0x56B PUSH2 0x67A CALLDATASIZE PUSH1 0x4 PUSH2 0x57D3 JUMP JUMPDEST PUSH2 0xFF9 JUMP JUMPDEST PUSH2 0x54B PUSH2 0x68D CALLDATASIZE PUSH1 0x4 PUSH2 0x5754 JUMP JUMPDEST PUSH2 0x1056 JUMP JUMPDEST PUSH1 0x40 DUP1 MLOAD DUP1 DUP3 ADD SWAP1 SWAP2 MSTORE PUSH1 0x5 DUP2 MSTORE PUSH5 0x332E302E31 PUSH1 0xD8 SHL PUSH1 0x20 DUP3 ADD MSTORE PUSH2 0x5A8 JUMP JUMPDEST PUSH2 0x6BB PUSH2 0x106B JUMP JUMPDEST PUSH1 0x40 MLOAD PUSH2 0x53A SWAP2 SWAP1 PUSH2 0x5880 JUMP JUMPDEST PUSH2 0x54B PUSH1 0x14 SLOAD DUP2 JUMP JUMPDEST PUSH2 0x628 PUSH2 0x6DF CALLDATASIZE PUSH1 0x4 PUSH2 0x57B2 JUMP JUMPDEST PUSH2 0x10CD JUMP JUMPDEST PUSH2 0x52D PUSH32 0x0 DUP2 JUMP JUMPDEST PUSH2 0x54B PUSH32 0x0 DUP2 JUMP JUMPDEST PUSH2 0x628 PUSH2 0x740 CALLDATASIZE PUSH1 0x4 PUSH2 0x5891 JUMP JUMPDEST PUSH2 0x116B JUMP JUMPDEST PUSH32 0x0 PUSH1 0x40 MLOAD PUSH2 0x53A SWAP2 SWAP1 PUSH2 0x58CD JUMP JUMPDEST PUSH2 0x54B PUSH2 0x781 CALLDATASIZE PUSH1 0x4 PUSH2 0x58DB JUMP JUMPDEST PUSH2 0x118C JUMP JUMPDEST PUSH2 0x54B PUSH1 0x18 SLOAD DUP2 JUMP JUMPDEST PUSH2 0x628 PUSH2 0x79D CALLDATASIZE PUSH1 0x4 PUSH2 0x5891 JUMP JUMPDEST PUSH2 0x11DA JUMP JUMPDEST PUSH2 0x54B PUSH5 0xE8D4A51000 DUP2 JUMP JUMPDEST PUSH32 0x0 PUSH2 0x52D JUMP JUMPDEST PUSH2 0x56B PUSH2 0x7E2 CALLDATASIZE PUSH1 0x4 PUSH2 0x5775 JUMP JUMPDEST PUSH2 0x120C JUMP JUMPDEST PUSH2 0x81E PUSH2 0x7F5 CALLDATASIZE PUSH1 0x4 PUSH2 0x57B2 JUMP JUMPDEST PUSH1 0x2 PUSH1 0x20 DUP2 SWAP1 MSTORE PUSH1 0x0 SWAP2 DUP3 MSTORE PUSH1 0x40 SWAP1 SWAP2 KECCAK256 DUP1 SLOAD PUSH1 0x1 DUP3 ADD SLOAD SWAP3 DUP3 ADD SLOAD PUSH1 0x3 SWAP1 SWAP3 ADD SLOAD SWAP1 SWAP3 SWAP2 SWAP1 DUP5 JUMP JUMPDEST PUSH1 0x40 MLOAD PUSH2 0x53A SWAP5 SWAP4 SWAP3 SWAP2 SWAP1 PUSH2 0x593B JUMP JUMPDEST PUSH2 0x54B PUSH1 0x9 SLOAD DUP2 JUMP JUMPDEST PUSH2 0x54B PUSH1 0xA DUP2 JUMP JUMPDEST PUSH2 0x54B PUSH2 0x84D CALLDATASIZE PUSH1 0x4 PUSH2 0x57B2 JUMP JUMPDEST PUSH2 0x1219 JUMP JUMPDEST PUSH2 0x628 PUSH2 0x860 CALLDATASIZE PUSH1 0x4 PUSH2 0x5775 JUMP JUMPDEST PUSH2 0x1224 JUMP JUMPDEST PUSH2 0x54B PUSH2 0x873 CALLDATASIZE PUSH1 0x4 PUSH2 0x5775 JUMP JUMPDEST PUSH2 0x14A7 JUMP JUMPDEST PUSH2 0x89F PUSH32 0x0 DUP2 JUMP JUMPDEST PUSH1 0x40 MLOAD PUSH2 0x53A SWAP2 SWAP1 PUSH2 0x59A8 JUMP JUMPDEST PUSH2 0x628 PUSH2 0x8BA CALLDATASIZE PUSH1 0x4 PUSH2 0x57B2 JUMP JUMPDEST PUSH2 0x14E8 JUMP JUMPDEST PUSH2 0x628 PUSH2 0x8CD CALLDATASIZE PUSH1 0x4 PUSH2 0x57B2 JUMP JUMPDEST PUSH2 0x154B JUMP JUMPDEST PUSH2 0x54B PUSH1 0x0 DUP1 MLOAD PUSH1 0x20 PUSH2 0x72A2 DUP4 CODECOPY DUP2 MLOAD SWAP2 MSTORE DUP2 JUMP JUMPDEST PUSH2 0x54B PUSH1 0x0 DUP1 MLOAD PUSH1 0x20 PUSH2 0x70A2 DUP4 CODECOPY DUP2 MLOAD SWAP2 MSTORE DUP2 JUMP JUMPDEST PUSH2 0x54B PUSH1 0x0 DUP1 MLOAD PUSH1 0x20 PUSH2 0x71A2 DUP4 CODECOPY DUP2 MLOAD SWAP2 MSTORE DUP2 JUMP JUMPDEST PUSH1 0xC SLOAD PUSH2 0x52D SWAP1 PUSH1 0x1 PUSH1 0x1 PUSH1 0xA0 SHL SUB AND DUP2 JUMP JUMPDEST PUSH2 0x54B PUSH1 0x15 SLOAD DUP2 JUMP JUMPDEST PUSH2 0x56B PUSH2 0x93B CALLDATASIZE PUSH1 0x4 PUSH2 0x5754 JUMP JUMPDEST PUSH1 0x10 PUSH1 0x20 MSTORE PUSH1 0x0 SWAP1 DUP2 MSTORE PUSH1 0x40 SWAP1 KECCAK256 SLOAD PUSH1 0xFF AND DUP2 JUMP JUMPDEST PUSH2 0x54B PUSH2 0x95E CALLDATASIZE PUSH1 0x4 PUSH2 0x5775 JUMP JUMPDEST PUSH2 0x15AE JUMP JUMPDEST PUSH2 0x54B PUSH1 0x0 DUP1 MLOAD PUSH1 0x20 PUSH2 0x7082 DUP4 CODECOPY DUP2 MLOAD SWAP2 MSTORE DUP2 JUMP JUMPDEST PUSH2 0x628 PUSH2 0x986 CALLDATASIZE PUSH1 0x4 PUSH2 0x57B2 JUMP JUMPDEST PUSH2 0x15F3 JUMP JUMPDEST PUSH2 0x628 PUSH2 0x999 CALLDATASIZE PUSH1 0x4 PUSH2 0x5A00 JUMP JUMPDEST PUSH2 0x162E JUMP JUMPDEST PUSH2 0x54B PUSH1 0x0 DUP1 MLOAD PUSH1 0x20 PUSH2 0x6FE2 DUP4 CODECOPY DUP2 MLOAD SWAP2 MSTORE DUP2 JUMP JUMPDEST PUSH2 0x54B PUSH2 0x9C1 CALLDATASIZE PUSH1 0x4 PUSH2 0x58DB JUMP JUMPDEST PUSH2 0x1712 JUMP JUMPDEST PUSH2 0x628 PUSH2 0x9D4 CALLDATASIZE PUSH1 0x4 PUSH2 0x5775 JUMP JUMPDEST PUSH2 0x171F JUMP JUMPDEST PUSH2 0x628 PUSH2 0x1787 JUMP JUMPDEST PUSH2 0x54B PUSH2 0x9EF CALLDATASIZE PUSH1 0x4 PUSH2 0x5891 JUMP JUMPDEST PUSH2 0x17FB JUMP JUMPDEST PUSH2 0x54B PUSH2 0xA02 CALLDATASIZE PUSH1 0x4 PUSH2 0x57B2 JUMP JUMPDEST PUSH2 0x181B JUMP JUMPDEST PUSH2 0x5A8 PUSH1 0x40 MLOAD DUP1 PUSH1 0x40 ADD PUSH1 0x40 MSTORE DUP1 PUSH1 0x5 DUP2 MSTORE PUSH1 0x20 ADD PUSH5 0x332E302E31 PUSH1 0xD8 SHL DUP2 MSTORE POP DUP2 JUMP JUMPDEST PUSH2 0x54B PUSH2 0xA39 CALLDATASIZE PUSH1 0x4 PUSH2 0x57B2 JUMP JUMPDEST PUSH1 0x17 PUSH1 0x20 MSTORE PUSH1 0x0 SWAP1 DUP2 MSTORE PUSH1 0x40 SWAP1 KECCAK256 SLOAD DUP2 JUMP JUMPDEST PUSH2 0x628 PUSH2 0xA59 CALLDATASIZE PUSH1 0x4 PUSH2 0x5754 JUMP JUMPDEST PUSH2 0x1874 JUMP JUMPDEST PUSH2 0x54B PUSH1 0x16 SLOAD DUP2 JUMP JUMPDEST PUSH1 0xE SLOAD PUSH2 0x52D SWAP1 PUSH1 0x1 PUSH1 0x1 PUSH1 0xA0 SHL SUB AND DUP2 JUMP JUMPDEST PUSH2 0x56B PUSH2 0xA88 CALLDATASIZE PUSH1 0x4 PUSH2 0x5891 JUMP JUMPDEST PUSH2 0x18CD JUMP JUMPDEST PUSH2 0x54B PUSH2 0xA9B CALLDATASIZE PUSH1 0x4 PUSH2 0x5891 JUMP JUMPDEST PUSH2 0x18F6 JUMP JUMPDEST PUSH2 0x5A8 PUSH2 0x190B JUMP JUMPDEST PUSH2 0x56B PUSH2 0xAB6 CALLDATASIZE PUSH1 0x4 PUSH2 0x5891 JUMP JUMPDEST PUSH2 0x1918 JUMP JUMPDEST PUSH2 0xADE PUSH2 0xAC9 CALLDATASIZE PUSH1 0x4 PUSH2 0x57B2 JUMP JUMPDEST PUSH1 0xF PUSH1 0x20 MSTORE PUSH1 0x0 SWAP1 DUP2 MSTORE PUSH1 0x40 SWAP1 KECCAK256 SLOAD PUSH1 0xFF AND DUP2 JUMP JUMPDEST PUSH1 0x40 MLOAD PUSH2 0x53A SWAP2 SWAP1 PUSH2 0x5A8B JUMP JUMPDEST PUSH2 0x54B PUSH2 0x1959 JUMP JUMPDEST PUSH1 0x9 SLOAD PUSH2 0x54B JUMP JUMPDEST PUSH2 0x628 PUSH2 0xB09 CALLDATASIZE PUSH1 0x4 PUSH2 0x5AAC JUMP JUMPDEST PUSH2 0x1990 JUMP JUMPDEST PUSH1 0xD SLOAD PUSH2 0x52D SWAP1 PUSH1 0x1 PUSH1 0x1 PUSH1 0xA0 SHL SUB AND DUP2 JUMP JUMPDEST PUSH2 0x54B PUSH1 0x0 DUP1 MLOAD PUSH1 0x20 PUSH2 0x71E2 DUP4 CODECOPY DUP2 MLOAD SWAP2 MSTORE DUP2 JUMP JUMPDEST PUSH2 0x54B PUSH1 0x0 DUP2 JUMP JUMPDEST PUSH2 0x56B PUSH2 0xB4C CALLDATASIZE PUSH1 0x4 PUSH2 0x5775 JUMP JUMPDEST PUSH2 0x19E6 JUMP JUMPDEST PUSH2 0x628 PUSH2 0xB5F CALLDATASIZE PUSH1 0x4 PUSH2 0x5775 JUMP JUMPDEST PUSH2 0x19F3 JUMP JUMPDEST PUSH2 0x56B PUSH2 0xB72 CALLDATASIZE PUSH1 0x4 PUSH2 0x5775 JUMP JUMPDEST PUSH2 0x1A15 JUMP JUMPDEST PUSH2 0x54B PUSH1 0x0 DUP1 MLOAD PUSH1 0x20 PUSH2 0x7282 DUP4 CODECOPY DUP2 MLOAD SWAP2 MSTORE DUP2 JUMP JUMPDEST PUSH2 0x54B PUSH1 0x0 DUP1 MLOAD PUSH1 0x20 PUSH2 0x7202 DUP4 CODECOPY DUP2 MLOAD SWAP2 MSTORE DUP2 JUMP JUMPDEST PUSH1 0x12 SLOAD PUSH2 0x52D SWAP1 PUSH1 0x1 PUSH1 0x1 PUSH1 0xA0 SHL SUB AND DUP2 JUMP JUMPDEST PUSH2 0x54B PUSH2 0xBC2 CALLDATASIZE PUSH1 0x4 PUSH2 0x5754 JUMP JUMPDEST PUSH2 0x1AA1 JUMP JUMPDEST PUSH2 0xBDA PUSH2 0xBD5 CALLDATASIZE PUSH1 0x4 PUSH2 0x57B2 JUMP JUMPDEST PUSH2 0x1AAE JUMP JUMPDEST PUSH1 0x40 MLOAD PUSH2 0x53A SWAP3 SWAP2 SWAP1 PUSH2 0x5ACD JUMP JUMPDEST PUSH2 0x628 PUSH2 0xBF6 CALLDATASIZE PUSH1 0x4 PUSH2 0x57B2 JUMP JUMPDEST PUSH2 0x1AED JUMP JUMPDEST PUSH1 0x4 SLOAD PUSH2 0x56B SWAP1 PUSH1 0xFF AND DUP2 JUMP JUMPDEST PUSH2 0x628 PUSH2 0xC16 CALLDATASIZE PUSH1 0x4 PUSH2 0x5754 JUMP JUMPDEST PUSH2 0x1B10 JUMP JUMPDEST PUSH1 0x12 SLOAD PUSH1 0x1 PUSH1 0xA0 SHL SWAP1 DIV PUSH1 0xFF AND PUSH2 0x56B JUMP JUMPDEST PUSH2 0x54B PUSH1 0x0 DUP1 MLOAD PUSH1 0x20 PUSH2 0x7102 DUP4 CODECOPY DUP2 MLOAD SWAP2 MSTORE DUP2 JUMP JUMPDEST PUSH2 0x54B PUSH32 0x8B73C3C69BB8FE3D512ECC4CF759CC79239F7B179B0FFACAA9A75D522B39400F DUP2 JUMP JUMPDEST PUSH2 0x54B PUSH2 0xC77 CALLDATASIZE PUSH1 0x4 PUSH2 0x57B2 JUMP JUMPDEST PUSH2 0x1B9E JUMP JUMPDEST PUSH2 0x54B PUSH2 0xC8A CALLDATASIZE PUSH1 0x4 PUSH2 0x5754 JUMP JUMPDEST PUSH2 0x1BB7 JUMP JUMPDEST PUSH2 0x54B PUSH1 0x0 DUP1 MLOAD PUSH1 0x20 PUSH2 0x6FC2 DUP4 CODECOPY DUP2 MLOAD SWAP2 MSTORE DUP2 JUMP JUMPDEST PUSH2 0x54B PUSH1 0x8 SLOAD DUP2 JUMP JUMPDEST PUSH2 0x628 PUSH2 0xCBB CALLDATASIZE PUSH1 0x4 PUSH2 0x5754 JUMP JUMPDEST PUSH2 0x1BC4 JUMP JUMPDEST PUSH2 0x56B PUSH2 0xCCE CALLDATASIZE PUSH1 0x4 PUSH2 0x5891 JUMP JUMPDEST PUSH2 0x1C24 JUMP JUMPDEST PUSH2 0x54B PUSH1 0x0 DUP1 MLOAD PUSH1 0x20 PUSH2 0x7222 DUP4 CODECOPY DUP2 MLOAD SWAP2 MSTORE DUP2 JUMP JUMPDEST PUSH2 0x56B PUSH2 0xCF6 CALLDATASIZE PUSH1 0x4 PUSH2 0x5AFC JUMP JUMPDEST PUSH2 0x1C65 JUMP JUMPDEST PUSH2 0x628 PUSH2 0xD09 CALLDATASIZE PUSH1 0x4 PUSH2 0x5754 JUMP JUMPDEST PUSH2 0x1CC0 JUMP JUMPDEST PUSH2 0x628 PUSH2 0xD1C CALLDATASIZE PUSH1 0x4 PUSH2 0x5891 JUMP JUMPDEST PUSH2 0x1CF6 JUMP JUMPDEST PUSH2 0x54B PUSH2 0xD2F CALLDATASIZE PUSH1 0x4 PUSH2 0x5659 JUMP JUMPDEST PUSH2 0x1D12 JUMP JUMPDEST PUSH2 0x54B PUSH2 0x1D46 JUMP JUMPDEST PUSH2 0x54B PUSH2 0xD4A CALLDATASIZE PUSH1 0x4 PUSH2 0x5B9B JUMP JUMPDEST PUSH1 0x1 PUSH1 0x1 PUSH1 0xA0 SHL SUB SWAP2 DUP3 AND PUSH1 0x0 SWAP1 DUP2 MSTORE PUSH1 0x6 PUSH1 0x20 SWAP1 DUP2 MSTORE PUSH1 0x40 DUP1 DUP4 KECCAK256 SWAP4 SWAP1 SWAP5 AND DUP3 MSTORE SWAP2 SWAP1 SWAP2 MSTORE KECCAK256 SLOAD SWAP1 JUMP JUMPDEST PUSH2 0x628 PUSH2 0xD83 CALLDATASIZE PUSH1 0x4 PUSH2 0x5754 JUMP JUMPDEST PUSH2 0x1D50 JUMP JUMPDEST PUSH2 0x628 PUSH2 0x1E0A JUMP JUMPDEST PUSH2 0x54B PUSH1 0xB SLOAD DUP2 JUMP JUMPDEST PUSH2 0x54B PUSH1 0x0 DUP1 MLOAD PUSH1 0x20 PUSH2 0x7142 DUP4 CODECOPY DUP2 MLOAD SWAP2 MSTORE DUP2 JUMP JUMPDEST PUSH2 0x54B PUSH1 0x0 DUP1 MLOAD PUSH1 0x20 PUSH2 0x7122 DUP4 CODECOPY DUP2 MLOAD SWAP2 MSTORE DUP2 JUMP JUMPDEST PUSH2 0x628 PUSH2 0xDD1 CALLDATASIZE PUSH1 0x4 PUSH2 0x5775 JUMP JUMPDEST PUSH2 0x1F09 JUMP JUMPDEST PUSH2 0x54B PUSH1 0x7 SLOAD DUP2 JUMP JUMPDEST PUSH1 0x12 SLOAD PUSH2 0x56B SWAP1 PUSH1 0x1 PUSH1 0xA0 SHL SWAP1 DIV PUSH1 0xFF AND DUP2 JUMP JUMPDEST PUSH1 0x8 SLOAD PUSH2 0x54B JUMP JUMPDEST PUSH2 0x54B PUSH2 0x2710 DUP2 JUMP JUMPDEST PUSH2 0x54B PUSH1 0x0 DUP1 MLOAD PUSH1 0x20 PUSH2 0x7062 DUP4 CODECOPY DUP2 MLOAD SWAP2 MSTORE DUP2 JUMP JUMPDEST PUSH2 0x52D PUSH2 0xE27 CALLDATASIZE PUSH1 0x4 PUSH2 0x5754 JUMP JUMPDEST PUSH2 0x1FB5 JUMP JUMPDEST PUSH1 0x0 PUSH2 0xE36 PUSH2 0x1FDF JUMP JUMPDEST SWAP1 POP SWAP1 JUMP JUMPDEST PUSH1 0x0 PUSH1 0x1 PUSH1 0x1 PUSH1 0xE0 SHL SUB NOT DUP3 AND PUSH4 0x7965DB0B PUSH1 0xE0 SHL EQ DUP1 PUSH2 0xE6C JUMPI POP PUSH4 0x1FFC9A7 PUSH1 0xE0 SHL PUSH1 0x1 PUSH1 0x1 PUSH1 0xE0 SHL SUB NOT DUP4 AND EQ JUMPDEST SWAP3 SWAP2 POP POP JUMP JUMPDEST PUSH1 0x0 PUSH2 0xE7C PUSH2 0x1FF1 JUMP JUMPDEST PUSH1 0x0 PUSH2 0xE89 DUP8 PUSH1 0x0 PUSH2 0x201A JUMP JUMPDEST SWAP1 POP PUSH2 0xE9A CALLER DUP8 DUP8 DUP5 DUP12 DUP10 DUP10 PUSH2 0x20B4 JUMP JUMPDEST SWAP2 POP POP PUSH2 0xEA6 PUSH1 0x1 DUP1 SSTORE JUMP JUMPDEST SWAP6 SWAP5 POP POP POP POP POP JUMP JUMPDEST PUSH1 0x19 DUP1 SLOAD PUSH2 0xEBC SWAP1 PUSH2 0x5BD3 JUMP JUMPDEST DUP1 PUSH1 0x1F ADD PUSH1 0x20 DUP1 SWAP2 DIV MUL PUSH1 0x20 ADD PUSH1 0x40 MLOAD SWAP1 DUP2 ADD PUSH1 0x40 MSTORE DUP1 SWAP3 SWAP2 SWAP1 DUP2 DUP2 MSTORE PUSH1 0x20 ADD DUP3 DUP1 SLOAD PUSH2 0xEE8 SWAP1 PUSH2 0x5BD3 JUMP JUMPDEST DUP1 ISZERO PUSH2 0xF35 JUMPI DUP1 PUSH1 0x1F LT PUSH2 0xF0A JUMPI PUSH2 0x100 DUP1 DUP4 SLOAD DIV MUL DUP4 MSTORE SWAP2 PUSH1 0x20 ADD SWAP2 PUSH2 0xF35 JUMP JUMPDEST DUP3 ADD SWAP2 SWAP1 PUSH1 0x0 MSTORE PUSH1 0x20 PUSH1 0x0 KECCAK256 SWAP1 JUMPDEST DUP2 SLOAD DUP2 MSTORE SWAP1 PUSH1 0x1 ADD SWAP1 PUSH1 0x20 ADD DUP1 DUP4 GT PUSH2 0xF18 JUMPI DUP3 SWAP1 SUB PUSH1 0x1F AND DUP3 ADD SWAP2 JUMPDEST POP POP POP POP POP DUP2 JUMP JUMPDEST PUSH1 0x0 PUSH2 0xE6C DUP3 PUSH1 0x0 PUSH2 0x201A JUMP JUMPDEST PUSH1 0x0 DUP1 PUSH2 0xF58 CALLER DUP6 DUP6 PUSH2 0x2155 JUMP JUMPDEST SWAP1 POP DUP4 PUSH1 0x1 PUSH1 0x1 PUSH1 0xA0 SHL SUB AND CALLER PUSH1 0x1 PUSH1 0x1 PUSH1 0xA0 SHL SUB AND PUSH1 0x0 DUP1 MLOAD PUSH1 0x20 PUSH2 0x71C2 DUP4 CODECOPY DUP2 MLOAD SWAP2 MSTORE DUP6 PUSH1 0x40 MLOAD PUSH2 0xF8B SWAP2 SWAP1 PUSH2 0x54B5 JUMP JUMPDEST PUSH1 0x40 MLOAD DUP1 SWAP2 SUB SWAP1 LOG3 SWAP4 SWAP3 POP POP POP JUMP JUMPDEST PUSH1 0x0 PUSH2 0xE6C DUP3 PUSH1 0x1 PUSH2 0x21D3 JUMP JUMPDEST PUSH1 0x0 DUP1 MLOAD PUSH1 0x20 PUSH2 0x7082 DUP4 CODECOPY DUP2 MLOAD SWAP2 MSTORE PUSH2 0xFBF DUP2 PUSH2 0x226E JUMP JUMPDEST PUSH2 0xFCA DUP3 PUSH1 0x1 PUSH2 0x227B JUMP JUMPDEST POP POP JUMP JUMPDEST PUSH1 0x0 PUSH2 0xE36 PUSH2 0x2493 JUMP JUMPDEST PUSH1 0x0 DUP1 MLOAD PUSH1 0x20 PUSH2 0x7102 DUP4 CODECOPY DUP2 MLOAD SWAP2 MSTORE PUSH2 0xFF0 DUP2 PUSH2 0x226E JUMP JUMPDEST PUSH2 0xFCA DUP3 PUSH2 0x24B4 JUMP JUMPDEST PUSH1 0x0 PUSH1 0x1 PUSH1 0x1 PUSH1 0xA0 SHL SUB DUP4 AND ADDRESS EQ DUP1 ISZERO SWAP1 PUSH2 0x101C JUMPI POP PUSH1 0x1 PUSH1 0x1 PUSH1 0xA0 SHL SUB DUP4 AND ISZERO ISZERO JUMPDEST PUSH2 0x1041 JUMPI PUSH1 0x40 MLOAD PUSH3 0x461BCD PUSH1 0xE5 SHL DUP2 MSTORE PUSH1 0x4 ADD PUSH2 0x1038 SWAP1 PUSH2 0x5C29 JUMP JUMPDEST PUSH1 0x40 MLOAD DUP1 SWAP2 SUB SWAP1 REVERT JUMPDEST PUSH2 0x104C DUP5 DUP5 DUP5 PUSH2 0x26B9 JUMP JUMPDEST SWAP1 POP JUMPDEST SWAP4 SWAP3 POP POP POP JUMP JUMPDEST PUSH1 0x0 SWAP1 DUP2 MSTORE PUSH1 0x20 DUP2 SWAP1 MSTORE PUSH1 0x40 SWAP1 KECCAK256 PUSH1 0x1 ADD SLOAD SWAP1 JUMP JUMPDEST PUSH1 0x60 PUSH1 0x3 DUP1 SLOAD DUP1 PUSH1 0x20 MUL PUSH1 0x20 ADD PUSH1 0x40 MLOAD SWAP1 DUP2 ADD PUSH1 0x40 MSTORE DUP1 SWAP3 SWAP2 SWAP1 DUP2 DUP2 MSTORE PUSH1 0x20 ADD DUP3 DUP1 SLOAD DUP1 ISZERO PUSH2 0x10C3 JUMPI PUSH1 0x20 MUL DUP3 ADD SWAP2 SWAP1 PUSH1 0x0 MSTORE PUSH1 0x20 PUSH1 0x0 KECCAK256 SWAP1 JUMPDEST DUP2 SLOAD PUSH1 0x1 PUSH1 0x1 PUSH1 0xA0 SHL SUB AND DUP2 MSTORE PUSH1 0x1 SWAP1 SWAP2 ADD SWAP1 PUSH1 0x20 ADD DUP1 DUP4 GT PUSH2 0x10A5 JUMPI JUMPDEST POP POP POP POP POP SWAP1 POP SWAP1 JUMP JUMPDEST PUSH1 0x0 DUP1 MLOAD PUSH1 0x20 PUSH2 0x7282 DUP4 CODECOPY DUP2 MLOAD SWAP2 MSTORE PUSH2 0x10E5 DUP2 PUSH2 0x226E JUMP JUMPDEST PUSH1 0x12 SLOAD PUSH1 0x1 PUSH1 0xA0 SHL SWAP1 DIV PUSH1 0xFF AND ISZERO PUSH2 0x110F JUMPI PUSH1 0x40 MLOAD PUSH3 0x461BCD PUSH1 0xE5 SHL DUP2 MSTORE PUSH1 0x4 ADD PUSH2 0x1038 SWAP1 PUSH2 0x5C65 JUMP JUMPDEST PUSH1 0x0 NOT PUSH1 0xB SLOAD EQ PUSH2 0x1132 JUMPI PUSH1 0x40 MLOAD PUSH3 0x461BCD PUSH1 0xE5 SHL DUP2 MSTORE PUSH1 0x4 ADD PUSH2 0x1038 SWAP1 PUSH2 0x5C9F JUMP JUMPDEST PUSH1 0xD DUP1 SLOAD PUSH1 0x1 PUSH1 0x1 PUSH1 0xA0 SHL SUB NOT AND PUSH1 0x1 PUSH1 0x1 PUSH1 0xA0 SHL SUB DUP5 AND SWAP1 DUP2 OR SWAP1 SWAP2 SSTORE PUSH1 0x40 MLOAD PUSH1 0x0 DUP1 MLOAD PUSH1 0x20 PUSH2 0x7042 DUP4 CODECOPY DUP2 MLOAD SWAP2 MSTORE SWAP1 PUSH1 0x0 SWAP1 LOG2 POP POP JUMP JUMPDEST PUSH2 0x1174 DUP3 PUSH2 0x1056 JUMP JUMPDEST PUSH2 0x117D DUP2 PUSH2 0x226E JUMP JUMPDEST PUSH2 0x1187 DUP4 DUP4 PUSH2 0x26DB JUMP JUMPDEST POP POP POP JUMP JUMPDEST PUSH1 0x0 DUP1 PUSH2 0x119A DUP6 DUP6 DUP6 PUSH2 0x275F JUMP JUMPDEST SWAP1 POP PUSH1 0x0 PUSH2 0x11A9 DUP3 PUSH1 0x1 PUSH2 0x21D3 JUMP JUMPDEST PUSH1 0x1 PUSH1 0x1 PUSH1 0xA0 SHL SUB DUP8 AND PUSH1 0x0 SWAP1 DUP2 MSTORE PUSH1 0x5 PUSH1 0x20 MSTORE PUSH1 0x40 SWAP1 KECCAK256 SLOAD SWAP1 SWAP2 POP PUSH2 0x11D0 SWAP1 DUP3 SWAP1 PUSH2 0x2B29 JUMP JUMPDEST SWAP7 SWAP6 POP POP POP POP POP POP JUMP JUMPDEST PUSH1 0x1 PUSH1 0x1 PUSH1 0xA0 SHL SUB DUP2 AND CALLER EQ PUSH2 0x1202 JUMPI PUSH1 0x40 MLOAD PUSH3 0x461BCD PUSH1 0xE5 SHL DUP2 MSTORE PUSH1 0x4 ADD PUSH2 0x1038 SWAP1 PUSH2 0x5CFE JUMP JUMPDEST PUSH2 0xFCA DUP3 DUP3 PUSH2 0x2B3F JUMP JUMPDEST PUSH1 0x0 PUSH2 0x104F CALLER DUP5 DUP5 PUSH2 0x2BA4 JUMP JUMPDEST PUSH1 0x0 PUSH2 0xE6C DUP3 PUSH2 0x2BF2 JUMP JUMPDEST PUSH1 0x0 DUP1 MLOAD PUSH1 0x20 PUSH2 0x7202 DUP4 CODECOPY DUP2 MLOAD SWAP2 MSTORE PUSH2 0x123C DUP2 PUSH2 0x226E JUMP JUMPDEST PUSH2 0x1244 PUSH2 0x1FF1 JUMP JUMPDEST PUSH1 0x1 PUSH1 0x1 PUSH1 0xA0 SHL SUB DUP4 AND PUSH1 0x0 SWAP1 DUP2 MSTORE PUSH1 0x2 PUSH1 0x20 MSTORE PUSH1 0x40 DUP2 KECCAK256 SLOAD SWAP1 SUB PUSH2 0x127B JUMPI PUSH1 0x40 MLOAD PUSH3 0x461BCD PUSH1 0xE5 SHL DUP2 MSTORE PUSH1 0x4 ADD PUSH2 0x1038 SWAP1 PUSH2 0x5D2F JUMP JUMPDEST PUSH1 0x1 PUSH1 0x1 PUSH1 0xA0 SHL SUB DUP4 AND PUSH1 0x0 SWAP1 DUP2 MSTORE PUSH1 0x2 PUSH1 0x20 DUP2 SWAP1 MSTORE PUSH1 0x40 SWAP1 SWAP2 KECCAK256 ADD SLOAD DUP1 PUSH2 0x12B5 JUMPI PUSH1 0x40 MLOAD PUSH3 0x461BCD PUSH1 0xE5 SHL DUP2 MSTORE PUSH1 0x4 ADD PUSH2 0x1038 SWAP1 PUSH2 0x5D64 JUMP JUMPDEST PUSH1 0x0 DUP4 GT PUSH2 0x12D5 JUMPI PUSH1 0x40 MLOAD PUSH3 0x461BCD PUSH1 0xE5 SHL DUP2 MSTORE PUSH1 0x4 ADD PUSH2 0x1038 SWAP1 PUSH2 0x5D9E JUMP JUMPDEST DUP1 DUP4 GT ISZERO PUSH2 0x12E1 JUMPI DUP1 SWAP3 POP JUMPDEST PUSH1 0x0 DUP2 DUP5 DUP7 PUSH1 0x1 PUSH1 0x1 PUSH1 0xA0 SHL SUB AND PUSH4 0x70A08231 ADDRESS PUSH1 0x40 MLOAD DUP3 PUSH4 0xFFFFFFFF AND PUSH1 0xE0 SHL DUP2 MSTORE PUSH1 0x4 ADD PUSH2 0x1311 SWAP2 SWAP1 PUSH2 0x54A1 JUMP JUMPDEST PUSH1 0x20 PUSH1 0x40 MLOAD DUP1 DUP4 SUB DUP2 DUP7 GAS STATICCALL ISZERO DUP1 ISZERO PUSH2 0x132E JUMPI RETURNDATASIZE PUSH1 0x0 DUP1 RETURNDATACOPY RETURNDATASIZE PUSH1 0x0 REVERT JUMPDEST POP POP POP POP PUSH1 0x40 MLOAD RETURNDATASIZE PUSH1 0x1F NOT PUSH1 0x1F DUP3 ADD AND DUP3 ADD DUP1 PUSH1 0x40 MSTORE POP DUP2 ADD SWAP1 PUSH2 0x1352 SWAP2 SWAP1 PUSH2 0x5DB9 JUMP JUMPDEST PUSH2 0x135C SWAP2 SWAP1 PUSH2 0x5DF0 JUMP JUMPDEST PUSH2 0x1366 SWAP2 SWAP1 PUSH2 0x5E25 JUMP JUMPDEST SWAP1 POP PUSH1 0x0 DUP2 GT PUSH2 0x1388 JUMPI PUSH1 0x40 MLOAD PUSH3 0x461BCD PUSH1 0xE5 SHL DUP2 MSTORE PUSH1 0x4 ADD PUSH2 0x1038 SWAP1 PUSH2 0x5E5F JUMP JUMPDEST PUSH2 0x13B4 PUSH32 0x0 CALLER ADDRESS DUP8 PUSH2 0x2CCA JUMP JUMPDEST PUSH1 0x1 PUSH1 0x1 PUSH1 0xA0 SHL SUB DUP6 AND PUSH1 0x0 SWAP1 DUP2 MSTORE PUSH1 0x2 PUSH1 0x20 DUP2 SWAP1 MSTORE PUSH1 0x40 DUP3 KECCAK256 ADD DUP1 SLOAD DUP7 SWAP3 SWAP1 PUSH2 0x13DF SWAP1 DUP5 SWAP1 PUSH2 0x5E6F JUMP JUMPDEST SWAP3 POP POP DUP2 SWAP1 SSTORE POP DUP4 PUSH1 0x8 PUSH1 0x0 DUP3 DUP3 SLOAD PUSH2 0x13F8 SWAP2 SWAP1 PUSH2 0x5E6F JUMP JUMPDEST SWAP3 POP POP DUP2 SWAP1 SSTORE POP DUP4 PUSH1 0x9 PUSH1 0x0 DUP3 DUP3 SLOAD PUSH2 0x1411 SWAP2 SWAP1 PUSH2 0x5E82 JUMP JUMPDEST SWAP1 SWAP2 SSTORE POP POP PUSH1 0x1 PUSH1 0x1 PUSH1 0xA0 SHL SUB DUP6 AND PUSH1 0x0 DUP1 MLOAD PUSH1 0x20 PUSH2 0x7262 DUP4 CODECOPY DUP2 MLOAD SWAP2 MSTORE DUP4 PUSH2 0x143A DUP8 DUP3 PUSH2 0x5E6F JUMP JUMPDEST PUSH1 0x40 MLOAD PUSH2 0x1448 SWAP3 SWAP2 SWAP1 PUSH2 0x5ACD JUMP JUMPDEST PUSH1 0x40 MLOAD DUP1 SWAP2 SUB SWAP1 LOG2 PUSH2 0x145B DUP6 CALLER DUP4 PUSH2 0x2DD8 JUMP JUMPDEST DUP5 PUSH1 0x1 PUSH1 0x1 PUSH1 0xA0 SHL SUB AND PUSH32 0xE94E7F88819F66C19B097748CB754149F63B1A176ED425DEE1F1EE933E6D09B0 DUP6 PUSH1 0x40 MLOAD PUSH2 0x1494 SWAP2 SWAP1 PUSH2 0x54B5 JUMP JUMPDEST PUSH1 0x40 MLOAD DUP1 SWAP2 SUB SWAP1 LOG2 POP POP PUSH2 0x1187 PUSH1 0x1 DUP1 SSTORE JUMP JUMPDEST PUSH1 0x0 PUSH1 0x0 DUP1 MLOAD PUSH1 0x20 PUSH2 0x6FC2 DUP4 CODECOPY DUP2 MLOAD SWAP2 MSTORE PUSH2 0x14C1 DUP2 PUSH2 0x226E JUMP JUMPDEST PUSH2 0x14C9 PUSH2 0x1FF1 JUMP JUMPDEST PUSH1 0x0 PUSH2 0x14D5 DUP6 DUP6 PUSH2 0x2EBD JUMP JUMPDEST SWAP3 POP POP PUSH2 0x14E1 PUSH1 0x1 DUP1 SSTORE JUMP JUMPDEST POP SWAP3 SWAP2 POP POP JUMP JUMPDEST PUSH1 0x0 DUP1 MLOAD PUSH1 0x20 PUSH2 0x6FE2 DUP4 CODECOPY DUP2 MLOAD SWAP2 MSTORE PUSH2 0x1500 DUP2 PUSH2 0x226E JUMP JUMPDEST PUSH1 0xC DUP1 SLOAD PUSH1 0x1 PUSH1 0x1 PUSH1 0xA0 SHL SUB NOT AND PUSH1 0x1 PUSH1 0x1 PUSH1 0xA0 SHL SUB DUP5 AND SWAP1 DUP2 OR SWAP1 SWAP2 SSTORE PUSH1 0x40 MLOAD PUSH32 0x28709A2DAB2A5D5E8688E96159011151C51644AB21839A8A45B449634D7C8B2B SWAP1 PUSH1 0x0 SWAP1 LOG2 POP POP JUMP JUMPDEST PUSH1 0x0 DUP1 MLOAD PUSH1 0x20 PUSH2 0x72A2 DUP4 CODECOPY DUP2 MLOAD SWAP2 MSTORE PUSH2 0x1563 DUP2 PUSH2 0x226E JUMP JUMPDEST PUSH1 0xE DUP1 SLOAD PUSH1 0x1 PUSH1 0x1 PUSH1 0xA0 SHL SUB NOT AND PUSH1 0x1 PUSH1 0x1 PUSH1 0xA0 SHL SUB DUP5 AND SWAP1 DUP2 OR SWAP1 SWAP2 SSTORE PUSH1 0x40 MLOAD PUSH32 0xCE6E3F8BEDA82A13C441D76EFD4A6335760F219F38C60502E6680060874E109D SWAP1 PUSH1 0x0 SWAP1 LOG2 POP POP JUMP JUMPDEST PUSH1 0x1 PUSH1 0x1 PUSH1 0xA0 SHL SUB DUP3 AND PUSH1 0x0 SWAP1 DUP2 MSTORE PUSH1 0x2 PUSH1 0x20 DUP2 SWAP1 MSTORE PUSH1 0x40 DUP3 KECCAK256 ADD SLOAD DUP3 GT ISZERO PUSH2 0x15E9 JUMPI PUSH1 0x40 MLOAD PUSH3 0x461BCD PUSH1 0xE5 SHL DUP2 MSTORE PUSH1 0x4 ADD PUSH2 0x1038 SWAP1 PUSH2 0x5EDB JUMP JUMPDEST PUSH2 0x104F DUP4 DUP4 PUSH2 0x35DF JUMP JUMPDEST PUSH1 0x0 DUP1 MLOAD PUSH1 0x20 PUSH2 0x7122 DUP4 CODECOPY DUP2 MLOAD SWAP2 MSTORE PUSH2 0x160B DUP2 PUSH2 0x226E JUMP JUMPDEST POP PUSH1 0x12 DUP1 SLOAD PUSH1 0x1 PUSH1 0x1 PUSH1 0xA0 SHL SUB NOT AND PUSH1 0x1 PUSH1 0x1 PUSH1 0xA0 SHL SUB SWAP3 SWAP1 SWAP3 AND SWAP2 SWAP1 SWAP2 OR SWAP1 SSTORE JUMP JUMPDEST PUSH1 0x0 DUP1 MLOAD PUSH1 0x20 PUSH2 0x70A2 DUP4 CODECOPY DUP2 MLOAD SWAP2 MSTORE PUSH2 0x1646 DUP2 PUSH2 0x226E JUMP JUMPDEST PUSH1 0x0 JUMPDEST DUP3 DUP2 LT ISZERO PUSH2 0x16C6 JUMPI PUSH1 0x0 DUP5 DUP5 DUP4 DUP2 DUP2 LT PUSH2 0x1665 JUMPI PUSH2 0x1665 PUSH2 0x5EEB JUMP JUMPDEST SWAP1 POP PUSH1 0x20 MUL ADD PUSH1 0x20 DUP2 ADD SWAP1 PUSH2 0x167A SWAP2 SWAP1 PUSH2 0x57B2 JUMP JUMPDEST PUSH1 0x1 PUSH1 0x1 PUSH1 0xA0 SHL SUB DUP2 AND PUSH1 0x0 SWAP1 DUP2 MSTORE PUSH1 0x2 PUSH1 0x20 MSTORE PUSH1 0x40 DUP2 KECCAK256 SLOAD SWAP2 SWAP3 POP SUB PUSH2 0x16B3 JUMPI PUSH1 0x40 MLOAD PUSH3 0x461BCD PUSH1 0xE5 SHL DUP2 MSTORE PUSH1 0x4 ADD PUSH2 0x1038 SWAP1 PUSH2 0x5F29 JUMP JUMPDEST POP DUP1 PUSH2 0x16BE DUP2 PUSH2 0x5F39 JUMP JUMPDEST SWAP2 POP POP PUSH2 0x1649 JUMP JUMPDEST POP PUSH2 0x16D3 PUSH1 0x3 DUP5 DUP5 PUSH2 0x535C JUMP JUMPDEST POP PUSH32 0xBC0CB8C5CCEE13E6A2FD26A699F57AD7FF6E454E6AAE97EC41CD2EB9EBD63A5 DUP4 DUP4 PUSH1 0x40 MLOAD PUSH2 0x1705 SWAP3 SWAP2 SWAP1 PUSH2 0x5F9F JUMP JUMPDEST PUSH1 0x40 MLOAD DUP1 SWAP2 SUB SWAP1 LOG1 POP POP POP JUMP JUMPDEST PUSH1 0x0 PUSH2 0x104C DUP5 DUP5 DUP5 PUSH2 0x275F JUMP JUMPDEST PUSH1 0x0 DUP1 MLOAD PUSH1 0x20 PUSH2 0x7122 DUP4 CODECOPY DUP2 MLOAD SWAP2 MSTORE PUSH2 0x1737 DUP2 PUSH2 0x226E JUMP JUMPDEST PUSH2 0x1741 DUP3 DUP5 PUSH2 0x2B3F JUMP JUMPDEST DUP3 PUSH1 0x1 PUSH1 0x1 PUSH1 0xA0 SHL SUB AND PUSH32 0x1395522074BE2925CC0FE997DC4FE5D15A507C2A971E00C315E5A2E08C9B0E50 DUP4 PUSH1 0x40 MLOAD PUSH2 0x177A SWAP2 SWAP1 PUSH2 0x54B5 JUMP JUMPDEST PUSH1 0x40 MLOAD DUP1 SWAP2 SUB SWAP1 LOG2 POP POP POP JUMP JUMPDEST PUSH1 0x12 SLOAD PUSH1 0x1 PUSH1 0x1 PUSH1 0xA0 SHL SUB AND CALLER EQ PUSH2 0x17B1 JUMPI PUSH1 0x40 MLOAD PUSH3 0x461BCD PUSH1 0xE5 SHL DUP2 MSTORE PUSH1 0x4 ADD PUSH2 0x1038 SWAP1 PUSH2 0x5FF3 JUMP JUMPDEST PUSH1 0x11 DUP1 SLOAD CALLER PUSH1 0x1 PUSH1 0x1 PUSH1 0xA0 SHL SUB NOT SWAP2 DUP3 AND DUP2 OR SWAP1 SWAP3 SSTORE PUSH1 0x12 DUP1 SLOAD SWAP1 SWAP2 AND SWAP1 SSTORE PUSH1 0x40 MLOAD PUSH32 0xCE93BAA0B608A7D420822B6B90CFCCCB70574363BA4FD26EF5AC17DD465016C4 SWAP1 PUSH1 0x0 SWAP1 LOG2 JUMP JUMPDEST PUSH1 0x0 PUSH2 0x1805 PUSH2 0x1FF1 JUMP JUMPDEST PUSH2 0x1810 CALLER DUP4 DUP6 PUSH2 0x3743 JUMP JUMPDEST SWAP1 POP PUSH2 0xE6C PUSH1 0x1 DUP1 SSTORE JUMP JUMPDEST PUSH1 0x0 ADDRESS PUSH1 0x1 PUSH1 0x1 PUSH1 0xA0 SHL SUB DUP4 AND SUB PUSH2 0x1858 JUMPI PUSH2 0x1835 PUSH2 0x38B5 JUMP JUMPDEST PUSH1 0x1 PUSH1 0x1 PUSH1 0xA0 SHL SUB DUP4 AND PUSH1 0x0 SWAP1 DUP2 MSTORE PUSH1 0x5 PUSH1 0x20 MSTORE PUSH1 0x40 SWAP1 KECCAK256 SLOAD PUSH2 0xE6C SWAP2 SWAP1 PUSH2 0x5E6F JUMP JUMPDEST POP PUSH1 0x1 PUSH1 0x1 PUSH1 0xA0 SHL SUB AND PUSH1 0x0 SWAP1 DUP2 MSTORE PUSH1 0x5 PUSH1 0x20 MSTORE PUSH1 0x40 SWAP1 KECCAK256 SLOAD SWAP1 JUMP JUMPDEST PUSH1 0x0 DUP1 MLOAD PUSH1 0x20 PUSH2 0x7022 DUP4 CODECOPY DUP2 MLOAD SWAP2 MSTORE PUSH2 0x188C DUP2 PUSH2 0x226E JUMP JUMPDEST PUSH1 0xA DUP3 SWAP1 SSTORE PUSH1 0x40 MLOAD PUSH32 0x1A4494BEED88920B88742CC58F2744E198F55FF192635A1FBABC6BE8FFADE81 SWAP1 PUSH2 0x18C1 SWAP1 DUP5 SWAP1 PUSH2 0x54B5 JUMP JUMPDEST PUSH1 0x40 MLOAD DUP1 SWAP2 SUB SWAP1 LOG1 POP POP JUMP JUMPDEST PUSH1 0x0 SWAP2 DUP3 MSTORE PUSH1 0x20 DUP3 DUP2 MSTORE PUSH1 0x40 DUP1 DUP5 KECCAK256 PUSH1 0x1 PUSH1 0x1 PUSH1 0xA0 SHL SUB SWAP4 SWAP1 SWAP4 AND DUP5 MSTORE SWAP2 SWAP1 MSTORE SWAP1 KECCAK256 SLOAD PUSH1 0xFF AND SWAP1 JUMP JUMPDEST PUSH1 0x0 PUSH2 0x1900 PUSH2 0x1FF1 JUMP JUMPDEST PUSH2 0x1810 CALLER DUP4 DUP6 PUSH2 0x3913 JUMP JUMPDEST PUSH1 0x1A DUP1 SLOAD PUSH2 0xEBC SWAP1 PUSH2 0x5BD3 JUMP JUMPDEST PUSH1 0x0 DUP1 PUSH2 0x1925 DUP5 DUP5 PUSH2 0x3A81 JUMP JUMPDEST SWAP1 POP PUSH1 0x0 PUSH1 0x1 PUSH1 0x1 PUSH1 0xA0 SHL SUB AND DUP4 PUSH1 0x1 PUSH1 0x1 PUSH1 0xA0 SHL SUB AND PUSH1 0x0 DUP1 MLOAD PUSH1 0x20 PUSH2 0x7162 DUP4 CODECOPY DUP2 MLOAD SWAP2 MSTORE DUP7 PUSH1 0x40 MLOAD PUSH2 0xF8B SWAP2 SWAP1 PUSH2 0x54B5 JUMP JUMPDEST PUSH1 0x0 PUSH2 0xE36 PUSH2 0x1989 PUSH32 0x0 PUSH1 0xA PUSH2 0x6111 JUMP JUMPDEST PUSH1 0x0 PUSH2 0x201A JUMP JUMPDEST PUSH1 0x0 DUP1 MLOAD PUSH1 0x20 PUSH2 0x70A2 DUP4 CODECOPY DUP2 MLOAD SWAP2 MSTORE PUSH2 0x19A8 DUP2 PUSH2 0x226E JUMP JUMPDEST PUSH1 0x4 DUP1 SLOAD PUSH1 0xFF NOT AND DUP4 ISZERO ISZERO OR SWAP1 SSTORE PUSH1 0x40 MLOAD PUSH32 0x1F88E73EBC721F227812938FE07A069EC1F7136AAFACB397ED460BD15DEE13F1 SWAP1 PUSH2 0x18C1 SWAP1 DUP5 SWAP1 PUSH2 0x5516 JUMP JUMPDEST PUSH1 0x0 PUSH2 0x104F CALLER DUP5 DUP5 PUSH2 0x3B08 JUMP JUMPDEST PUSH1 0x0 DUP1 MLOAD PUSH1 0x20 PUSH2 0x7122 DUP4 CODECOPY DUP2 MLOAD SWAP2 MSTORE PUSH2 0x1A0B DUP2 PUSH2 0x226E JUMP JUMPDEST PUSH2 0x1741 DUP3 DUP5 PUSH2 0x26DB JUMP JUMPDEST PUSH1 0x0 PUSH1 0x1 PUSH1 0x1 PUSH1 0xA0 SHL SUB DUP4 AND ADDRESS EQ DUP1 ISZERO SWAP1 PUSH2 0x1A38 JUMPI POP PUSH1 0x1 PUSH1 0x1 PUSH1 0xA0 SHL SUB DUP4 AND ISZERO ISZERO JUMPDEST PUSH2 0x1A54 JUMPI PUSH1 0x40 MLOAD PUSH3 0x461BCD PUSH1 0xE5 SHL DUP2 MSTORE PUSH1 0x4 ADD PUSH2 0x1038 SWAP1 PUSH2 0x5C29 JUMP JUMPDEST PUSH2 0x1A5F CALLER DUP5 DUP5 PUSH2 0x3B3D JUMP JUMPDEST DUP3 PUSH1 0x1 PUSH1 0x1 PUSH1 0xA0 SHL SUB AND CALLER PUSH1 0x1 PUSH1 0x1 PUSH1 0xA0 SHL SUB AND PUSH1 0x0 DUP1 MLOAD PUSH1 0x20 PUSH2 0x7162 DUP4 CODECOPY DUP2 MLOAD SWAP2 MSTORE DUP5 PUSH1 0x40 MLOAD PUSH2 0x1A90 SWAP2 SWAP1 PUSH2 0x54B5 JUMP JUMPDEST PUSH1 0x40 MLOAD DUP1 SWAP2 SUB SWAP1 LOG3 POP PUSH1 0x1 SWAP3 SWAP2 POP POP JUMP JUMPDEST PUSH1 0x0 PUSH2 0xE6C DUP3 PUSH1 0x1 PUSH2 0x201A JUMP JUMPDEST PUSH1 0x0 DUP1 PUSH1 0x0 DUP1 MLOAD PUSH1 0x20 PUSH2 0x7002 DUP4 CODECOPY DUP2 MLOAD SWAP2 MSTORE PUSH2 0x1AC9 DUP2 PUSH2 0x226E JUMP JUMPDEST PUSH2 0x1AD1 PUSH2 0x1FF1 JUMP JUMPDEST PUSH2 0x1ADA DUP5 PUSH2 0x3C1E JUMP JUMPDEST SWAP3 POP SWAP3 POP PUSH2 0x1AE7 PUSH1 0x1 DUP1 SSTORE JUMP JUMPDEST POP SWAP2 POP SWAP2 JUMP JUMPDEST PUSH1 0x0 DUP1 MLOAD PUSH1 0x20 PUSH2 0x71E2 DUP4 CODECOPY DUP2 MLOAD SWAP2 MSTORE PUSH2 0x1B05 DUP2 PUSH2 0x226E JUMP JUMPDEST PUSH2 0xFCA DUP3 PUSH1 0x0 PUSH2 0x227B JUMP JUMPDEST PUSH1 0x0 DUP1 MLOAD PUSH1 0x20 PUSH2 0x7282 DUP4 CODECOPY DUP2 MLOAD SWAP2 MSTORE PUSH2 0x1B28 DUP2 PUSH2 0x226E JUMP JUMPDEST PUSH1 0x12 SLOAD PUSH1 0x1 PUSH1 0xA0 SHL SWAP1 DIV PUSH1 0xFF AND ISZERO PUSH2 0x1B52 JUMPI PUSH1 0x40 MLOAD PUSH3 0x461BCD PUSH1 0xE5 SHL DUP2 MSTORE PUSH1 0x4 ADD PUSH2 0x1038 SWAP1 PUSH2 0x5C65 JUMP JUMPDEST PUSH1 0xD SLOAD PUSH1 0x1 PUSH1 0x1 PUSH1 0xA0 SHL SUB AND ISZERO PUSH2 0x1B7B JUMPI PUSH1 0x40 MLOAD PUSH3 0x461BCD PUSH1 0xE5 SHL DUP2 MSTORE PUSH1 0x4 ADD PUSH2 0x1038 SWAP1 PUSH2 0x6143 JUMP JUMPDEST PUSH1 0xB DUP3 SWAP1 SSTORE PUSH1 0x40 MLOAD PUSH1 0x0 DUP1 MLOAD PUSH1 0x20 PUSH2 0x70E2 DUP4 CODECOPY DUP2 MLOAD SWAP2 MSTORE SWAP1 PUSH2 0x18C1 SWAP1 DUP5 SWAP1 PUSH2 0x54B5 JUMP JUMPDEST PUSH1 0x0 DUP1 PUSH2 0x1BAA DUP4 PUSH2 0x2BF2 JUMP JUMPDEST SWAP1 POP PUSH2 0x104F DUP2 PUSH1 0x0 PUSH2 0x21D3 JUMP JUMPDEST PUSH1 0x0 PUSH2 0xE6C DUP3 PUSH1 0x0 PUSH2 0x21D3 JUMP JUMPDEST PUSH1 0x0 DUP1 MLOAD PUSH1 0x20 PUSH2 0x7122 DUP4 CODECOPY DUP2 MLOAD SWAP2 MSTORE PUSH2 0x1BDC DUP2 PUSH2 0x226E JUMP JUMPDEST PUSH1 0x0 DUP3 DUP2 MSTORE PUSH1 0x10 PUSH1 0x20 MSTORE PUSH1 0x40 SWAP1 KECCAK256 DUP1 SLOAD PUSH1 0xFF NOT AND SWAP1 SSTORE PUSH1 0x1 JUMPDEST PUSH1 0x40 MLOAD DUP4 SWAP1 PUSH32 0x9F6D8CEB5FE3A6380949B0777BD5802511579B6FBBC87194C108A91D372F9527 SWAP1 PUSH1 0x0 SWAP1 LOG3 POP POP JUMP JUMPDEST PUSH1 0x0 DUP1 PUSH2 0x1C31 DUP5 DUP5 PUSH2 0x3D47 JUMP JUMPDEST SWAP1 POP DUP3 PUSH1 0x1 PUSH1 0x1 PUSH1 0xA0 SHL SUB AND PUSH1 0x0 PUSH1 0x1 PUSH1 0x1 PUSH1 0xA0 SHL SUB AND PUSH1 0x0 DUP1 MLOAD PUSH1 0x20 PUSH2 0x7162 DUP4 CODECOPY DUP2 MLOAD SWAP2 MSTORE DUP7 PUSH1 0x40 MLOAD PUSH2 0xF8B SWAP2 SWAP1 PUSH2 0x54B5 JUMP JUMPDEST PUSH1 0x0 DUP1 PUSH2 0x1C77 DUP10 DUP10 DUP10 DUP10 DUP10 DUP10 DUP10 PUSH2 0x3DB0 JUMP JUMPDEST SWAP1 POP DUP8 PUSH1 0x1 PUSH1 0x1 PUSH1 0xA0 SHL SUB AND DUP10 PUSH1 0x1 PUSH1 0x1 PUSH1 0xA0 SHL SUB AND PUSH1 0x0 DUP1 MLOAD PUSH1 0x20 PUSH2 0x71C2 DUP4 CODECOPY DUP2 MLOAD SWAP2 MSTORE DUP10 PUSH1 0x40 MLOAD PUSH2 0x1CAA SWAP2 SWAP1 PUSH2 0x54B5 JUMP JUMPDEST PUSH1 0x40 MLOAD DUP1 SWAP2 SUB SWAP1 LOG3 SWAP1 POP JUMPDEST SWAP8 SWAP7 POP POP POP POP POP POP POP JUMP JUMPDEST PUSH1 0x0 DUP1 MLOAD PUSH1 0x20 PUSH2 0x7122 DUP4 CODECOPY DUP2 MLOAD SWAP2 MSTORE PUSH2 0x1CD8 DUP2 PUSH2 0x226E JUMP JUMPDEST PUSH1 0x0 DUP3 DUP2 MSTORE PUSH1 0x10 PUSH1 0x20 MSTORE PUSH1 0x40 DUP2 KECCAK256 DUP1 SLOAD PUSH1 0xFF NOT AND PUSH1 0x1 OR SWAP1 SSTORE PUSH2 0x1BF5 JUMP JUMPDEST PUSH2 0x1CFF DUP3 PUSH2 0x1056 JUMP JUMPDEST PUSH2 0x1D08 DUP2 PUSH2 0x226E JUMP JUMPDEST PUSH2 0x1187 DUP4 DUP4 PUSH2 0x2B3F JUMP JUMPDEST PUSH1 0x0 PUSH2 0x1D1C PUSH2 0x1FF1 JUMP JUMPDEST PUSH1 0x0 PUSH2 0x1D29 DUP8 PUSH1 0x1 PUSH2 0x21D3 JUMP JUMPDEST SWAP1 POP PUSH2 0x1D3A CALLER DUP8 DUP8 DUP11 DUP6 DUP10 DUP10 PUSH2 0x20B4 JUMP JUMPDEST POP SWAP1 POP PUSH2 0xEA6 PUSH1 0x1 DUP1 SSTORE JUMP JUMPDEST PUSH1 0x0 PUSH2 0xE36 PUSH2 0x38B5 JUMP JUMPDEST PUSH1 0x0 DUP1 MLOAD PUSH1 0x20 PUSH2 0x7222 DUP4 CODECOPY DUP2 MLOAD SWAP2 MSTORE PUSH2 0x1D68 DUP2 PUSH2 0x226E JUMP JUMPDEST PUSH32 0x0 DUP3 GT ISZERO PUSH2 0x1DA8 JUMPI PUSH1 0x40 MLOAD PUSH3 0x461BCD PUSH1 0xE5 SHL DUP2 MSTORE PUSH1 0x4 ADD PUSH2 0x1038 SWAP1 PUSH2 0x6185 JUMP JUMPDEST DUP2 PUSH1 0x0 SUB PUSH2 0x1DD5 JUMPI ADDRESS PUSH1 0x0 DUP2 DUP2 MSTORE PUSH1 0x5 PUSH1 0x20 MSTORE PUSH1 0x40 SWAP1 KECCAK256 SLOAD PUSH2 0x1DC9 SWAP2 PUSH2 0x3A81 JUMP JUMPDEST POP PUSH1 0x0 PUSH1 0x15 DUP2 SWAP1 SSTORE PUSH1 0x14 SSTORE JUMPDEST PUSH1 0x13 DUP3 SWAP1 SSTORE PUSH1 0x40 MLOAD PUSH32 0xF361AED463DA6FA20358E45C6209F1D3E16D4ECA706E6EAB0B0AEB338729C77A SWAP1 PUSH2 0x18C1 SWAP1 DUP5 SWAP1 PUSH2 0x54B5 JUMP JUMPDEST PUSH1 0x0 DUP1 MLOAD PUSH1 0x20 PUSH2 0x7062 DUP4 CODECOPY DUP2 MLOAD SWAP2 MSTORE PUSH2 0x1E22 DUP2 PUSH2 0x226E JUMP JUMPDEST PUSH1 0x12 SLOAD PUSH1 0x1 PUSH1 0xA0 SHL SWAP1 DIV PUSH1 0xFF AND ISZERO PUSH2 0x1E4C JUMPI PUSH1 0x40 MLOAD PUSH3 0x461BCD PUSH1 0xE5 SHL DUP2 MSTORE PUSH1 0x4 ADD PUSH2 0x1038 SWAP1 PUSH2 0x61C6 JUMP JUMPDEST PUSH1 0x12 DUP1 SLOAD PUSH1 0xFF PUSH1 0xA0 SHL NOT AND PUSH1 0x1 PUSH1 0xA0 SHL OR SWAP1 SSTORE PUSH1 0xD SLOAD PUSH1 0x1 PUSH1 0x1 PUSH1 0xA0 SHL SUB AND ISZERO PUSH2 0x1E9A JUMPI PUSH1 0xD DUP1 SLOAD PUSH1 0x1 PUSH1 0x1 PUSH1 0xA0 SHL SUB NOT AND SWAP1 SSTORE PUSH1 0x40 MLOAD PUSH1 0x0 SWAP1 PUSH1 0x0 DUP1 MLOAD PUSH1 0x20 PUSH2 0x7042 DUP4 CODECOPY DUP2 MLOAD SWAP2 MSTORE SWAP1 DUP3 SWAP1 LOG2 JUMPDEST PUSH1 0x0 PUSH1 0xB DUP2 SWAP1 SSTORE PUSH1 0x40 MLOAD PUSH1 0x0 DUP1 MLOAD PUSH1 0x20 PUSH2 0x70E2 DUP4 CODECOPY DUP2 MLOAD SWAP2 MSTORE SWAP2 PUSH2 0x1EBD SWAP2 PUSH2 0x61EB JUMP JUMPDEST PUSH1 0x40 MLOAD DUP1 SWAP2 SUB SWAP1 LOG1 PUSH2 0x1EDD CALLER PUSH1 0x0 DUP1 MLOAD PUSH1 0x20 PUSH2 0x6FC2 DUP4 CODECOPY DUP2 MLOAD SWAP2 MSTORE PUSH2 0x19F3 JUMP JUMPDEST PUSH1 0x40 MLOAD PUSH32 0x4426AA1FB73E391071491FCFE21A88B5C38A0A0333A1F6E77161470439704CF8 SWAP1 PUSH1 0x0 SWAP1 LOG1 POP JUMP JUMPDEST PUSH1 0x0 DUP1 MLOAD PUSH1 0x20 PUSH2 0x7142 DUP4 CODECOPY DUP2 MLOAD SWAP2 MSTORE PUSH2 0x1F21 DUP2 PUSH2 0x226E JUMP JUMPDEST PUSH1 0x1 PUSH1 0x1 PUSH1 0xA0 SHL SUB DUP4 AND PUSH1 0x0 SWAP1 DUP2 MSTORE PUSH1 0x2 PUSH1 0x20 MSTORE PUSH1 0x40 DUP2 KECCAK256 SLOAD SWAP1 SUB PUSH2 0x1F58 JUMPI PUSH1 0x40 MLOAD PUSH3 0x461BCD PUSH1 0xE5 SHL DUP2 MSTORE PUSH1 0x4 ADD PUSH2 0x1038 SWAP1 PUSH2 0x6221 JUMP JUMPDEST PUSH1 0x1 PUSH1 0x1 PUSH1 0xA0 SHL SUB DUP4 AND PUSH1 0x0 DUP2 DUP2 MSTORE PUSH1 0x2 PUSH1 0x20 MSTORE PUSH1 0x40 SWAP1 DUP2 SWAP1 KECCAK256 PUSH1 0x3 ADD DUP5 SWAP1 SSTORE MLOAD CALLER SWAP1 PUSH32 0xB3EEF2123FEC1523A6BBC90ACEB203000154C1A4974335FE06B544C7534D4B89 SWAP1 PUSH2 0x1FA8 SWAP1 DUP7 SWAP1 PUSH2 0x54B5 JUMP JUMPDEST PUSH1 0x40 MLOAD DUP1 SWAP2 SUB SWAP1 LOG3 POP POP POP JUMP JUMPDEST PUSH1 0x3 DUP2 DUP2 SLOAD DUP2 LT PUSH2 0x1FC5 JUMPI PUSH1 0x0 DUP1 REVERT JUMPDEST PUSH1 0x0 SWAP2 DUP3 MSTORE PUSH1 0x20 SWAP1 SWAP2 KECCAK256 ADD SLOAD PUSH1 0x1 PUSH1 0x1 PUSH1 0xA0 SHL SUB AND SWAP1 POP DUP2 JUMP JUMPDEST PUSH1 0x0 PUSH1 0x8 SLOAD PUSH1 0x9 SLOAD PUSH2 0xE36 SWAP2 SWAP1 PUSH2 0x5E82 JUMP JUMPDEST PUSH1 0x2 PUSH1 0x1 SLOAD SUB PUSH2 0x2013 JUMPI PUSH1 0x40 MLOAD PUSH3 0x461BCD PUSH1 0xE5 SHL DUP2 MSTORE PUSH1 0x4 ADD PUSH2 0x1038 SWAP1 PUSH2 0x6265 JUMP JUMPDEST PUSH1 0x2 PUSH1 0x1 SSTORE JUMP JUMPDEST PUSH1 0x0 PUSH1 0x0 NOT DUP4 EQ DUP1 PUSH2 0x202A JUMPI POP DUP3 ISZERO JUMPDEST ISZERO PUSH2 0x2036 JUMPI POP DUP2 PUSH2 0xE6C JUMP JUMPDEST PUSH1 0x0 PUSH2 0x2040 PUSH2 0x2493 JUMP JUMPDEST SWAP1 POP DUP1 PUSH1 0x0 SUB PUSH2 0x2053 JUMPI DUP4 SWAP2 POP POP PUSH2 0xE6C JUMP JUMPDEST PUSH1 0x0 PUSH2 0x205D PUSH2 0x1FDF JUMP JUMPDEST SWAP1 POP PUSH1 0x0 PUSH2 0x206B DUP3 DUP8 PUSH2 0x5DF0 JUMP JUMPDEST SWAP1 POP PUSH1 0x0 PUSH2 0x2079 DUP5 DUP4 PUSH2 0x5E25 JUMP JUMPDEST SWAP1 POP PUSH1 0x1 DUP7 PUSH1 0x1 DUP2 GT ISZERO PUSH2 0x208F JUMPI PUSH2 0x208F PUSH2 0x5A47 JUMP JUMPDEST EQ DUP1 ISZERO PUSH2 0x20A4 JUMPI POP PUSH2 0x20A1 DUP5 DUP4 PUSH2 0x6275 JUMP JUMPDEST ISZERO ISZERO JUMPDEST ISZERO PUSH2 0x11D0 JUMPI PUSH2 0x1CB5 PUSH1 0x1 DUP3 PUSH2 0x5E82 JUMP JUMPDEST PUSH1 0x0 PUSH2 0x20C5 DUP9 DUP9 DUP9 DUP9 DUP9 DUP9 DUP9 PUSH2 0x3F64 JUMP JUMPDEST PUSH2 0x20D0 DUP7 DUP10 DUP7 PUSH2 0x400D JUMP JUMPDEST PUSH1 0x0 DUP1 PUSH2 0x20DD DUP8 DUP6 PUSH2 0x4031 JUMP JUMPDEST SWAP2 POP SWAP2 POP PUSH2 0x20F1 DUP11 DUP11 DUP11 DUP10 DUP12 DUP8 DUP8 DUP13 PUSH2 0x4683 JUMP JUMPDEST DUP8 PUSH1 0x1 PUSH1 0x1 PUSH1 0xA0 SHL SUB AND DUP10 PUSH1 0x1 PUSH1 0x1 PUSH1 0xA0 SHL SUB AND DUP12 PUSH1 0x1 PUSH1 0x1 PUSH1 0xA0 SHL SUB AND PUSH32 0xFBDE797D201C681B91056529119E0B02407C7BB96A4A2C75C01FC9667232C8DB DUP6 DUP11 PUSH1 0x40 MLOAD PUSH2 0x2140 SWAP3 SWAP2 SWAP1 PUSH2 0x5ACD JUMP JUMPDEST PUSH1 0x40 MLOAD DUP1 SWAP2 SUB SWAP1 LOG4 POP SWAP9 SWAP8 POP POP POP POP POP POP POP POP JUMP JUMPDEST PUSH1 0x0 PUSH1 0x1 PUSH1 0x1 PUSH1 0xA0 SHL SUB DUP5 AND PUSH2 0x217D JUMPI PUSH1 0x40 MLOAD PUSH3 0x461BCD PUSH1 0xE5 SHL DUP2 MSTORE PUSH1 0x4 ADD PUSH2 0x1038 SWAP1 PUSH2 0x62CA JUMP JUMPDEST PUSH1 0x1 PUSH1 0x1 PUSH1 0xA0 SHL SUB DUP4 AND PUSH2 0x21A3 JUMPI PUSH1 0x40 MLOAD PUSH3 0x461BCD PUSH1 0xE5 SHL DUP2 MSTORE PUSH1 0x4 ADD PUSH2 0x1038 SWAP1 PUSH2 0x6319 JUMP JUMPDEST POP PUSH1 0x1 PUSH1 0x1 PUSH1 0xA0 SHL SUB SWAP3 DUP4 AND PUSH1 0x0 SWAP1 DUP2 MSTORE PUSH1 0x6 PUSH1 0x20 SWAP1 DUP2 MSTORE PUSH1 0x40 DUP1 DUP4 KECCAK256 SWAP5 SWAP1 SWAP6 AND DUP3 MSTORE SWAP3 SWAP1 SWAP3 MSTORE SWAP2 SWAP1 KECCAK256 SSTORE PUSH1 0x1 SWAP1 JUMP JUMPDEST PUSH1 0x0 PUSH1 0x0 NOT DUP4 EQ DUP1 PUSH2 0x21E3 JUMPI POP DUP3 ISZERO JUMPDEST ISZERO PUSH2 0x21EF JUMPI POP DUP2 PUSH2 0xE6C JUMP JUMPDEST PUSH1 0x0 PUSH2 0x21F9 PUSH2 0x2493 JUMP JUMPDEST SWAP1 POP PUSH1 0x0 PUSH2 0x2205 PUSH2 0x1FDF JUMP JUMPDEST SWAP1 POP DUP1 PUSH1 0x0 SUB PUSH2 0x222C JUMPI DUP2 PUSH1 0x0 SUB PUSH2 0x2221 JUMPI DUP5 SWAP3 POP POP POP PUSH2 0xE6C JUMP JUMPDEST PUSH1 0x0 SWAP3 POP POP POP PUSH2 0xE6C JUMP JUMPDEST PUSH1 0x0 PUSH2 0x2238 DUP4 DUP8 PUSH2 0x5DF0 JUMP JUMPDEST SWAP1 POP PUSH1 0x0 PUSH2 0x2246 DUP4 DUP4 PUSH2 0x5E25 JUMP JUMPDEST SWAP1 POP PUSH1 0x1 DUP7 PUSH1 0x1 DUP2 GT ISZERO PUSH2 0x225C JUMPI PUSH2 0x225C PUSH2 0x5A47 JUMP JUMPDEST EQ DUP1 ISZERO PUSH2 0x20A4 JUMPI POP PUSH2 0x20A1 DUP4 DUP4 PUSH2 0x6275 JUMP JUMPDEST PUSH2 0x2278 DUP2 CALLER PUSH2 0x4724 JUMP JUMPDEST POP JUMP JUMPDEST PUSH1 0x1 PUSH1 0x1 PUSH1 0xA0 SHL SUB DUP3 AND PUSH1 0x0 SWAP1 DUP2 MSTORE PUSH1 0x2 PUSH1 0x20 MSTORE PUSH1 0x40 DUP2 KECCAK256 SLOAD SWAP1 SUB PUSH2 0x22B2 JUMPI PUSH1 0x40 MLOAD PUSH3 0x461BCD PUSH1 0xE5 SHL DUP2 MSTORE PUSH1 0x4 ADD PUSH2 0x1038 SWAP1 PUSH2 0x6353 JUMP JUMPDEST PUSH1 0x1 PUSH1 0x1 PUSH1 0xA0 SHL SUB DUP3 AND PUSH1 0x0 SWAP1 DUP2 MSTORE PUSH1 0x2 PUSH1 0x20 DUP2 SWAP1 MSTORE PUSH1 0x40 DUP3 KECCAK256 ADD SLOAD ISZERO PUSH2 0x2364 JUMPI DUP2 PUSH2 0x22F0 JUMPI PUSH1 0x40 MLOAD PUSH3 0x461BCD PUSH1 0xE5 SHL DUP2 MSTORE PUSH1 0x4 ADD PUSH2 0x1038 SWAP1 PUSH2 0x638B JUMP JUMPDEST POP PUSH1 0x1 PUSH1 0x1 PUSH1 0xA0 SHL SUB DUP3 AND PUSH1 0x0 SWAP1 DUP2 MSTORE PUSH1 0x2 PUSH1 0x20 DUP2 SWAP1 MSTORE PUSH1 0x40 DUP3 KECCAK256 ADD SLOAD PUSH1 0x8 DUP1 SLOAD SWAP2 SWAP3 DUP4 SWAP3 PUSH2 0x2320 SWAP1 DUP5 SWAP1 PUSH2 0x5E6F JUMP JUMPDEST SWAP3 POP POP DUP2 SWAP1 SSTORE POP DUP3 PUSH1 0x1 PUSH1 0x1 PUSH1 0xA0 SHL SUB AND PUSH1 0x0 DUP1 MLOAD PUSH1 0x20 PUSH2 0x7182 DUP4 CODECOPY DUP2 MLOAD SWAP2 MSTORE PUSH1 0x0 DUP4 PUSH1 0x0 DUP1 PUSH1 0x0 DUP1 PUSH1 0x40 MLOAD PUSH2 0x235B SWAP7 SWAP6 SWAP5 SWAP4 SWAP3 SWAP2 SWAP1 PUSH2 0x639B JUMP JUMPDEST PUSH1 0x40 MLOAD DUP1 SWAP2 SUB SWAP1 LOG2 JUMPDEST PUSH1 0x40 DUP1 MLOAD PUSH1 0x80 DUP2 ADD DUP3 MSTORE PUSH1 0x0 DUP1 DUP3 MSTORE PUSH1 0x20 DUP1 DUP4 ADD DUP3 DUP2 MSTORE DUP4 DUP6 ADD DUP4 DUP2 MSTORE PUSH1 0x60 DUP1 DUP7 ADD DUP6 DUP2 MSTORE PUSH1 0x1 PUSH1 0x1 PUSH1 0xA0 SHL SUB DUP12 AND DUP7 MSTORE PUSH1 0x2 SWAP5 DUP6 SWAP1 MSTORE SWAP7 SWAP1 SWAP5 KECCAK256 SWAP5 MLOAD DUP6 SSTORE SWAP1 MLOAD PUSH1 0x1 DUP6 ADD SSTORE MLOAD SWAP1 DUP4 ADD SSTORE SWAP2 MLOAD PUSH1 0x3 SWAP2 DUP3 ADD SSTORE SLOAD ISZERO PUSH2 0x2449 JUMPI PUSH1 0x0 JUMPDEST PUSH1 0x3 SLOAD DUP2 LT ISZERO PUSH2 0x2447 JUMPI PUSH1 0x0 PUSH1 0x3 DUP3 DUP2 SLOAD DUP2 LT PUSH2 0x23DF JUMPI PUSH2 0x23DF PUSH2 0x5EEB JUMP JUMPDEST PUSH1 0x0 SWAP2 DUP3 MSTORE PUSH1 0x20 SWAP1 SWAP2 KECCAK256 ADD SLOAD PUSH1 0x1 PUSH1 0x1 PUSH1 0xA0 SHL SUB SWAP1 DUP2 AND SWAP2 POP DUP7 AND DUP2 EQ PUSH2 0x2434 JUMPI DUP1 DUP4 DUP4 DUP2 MLOAD DUP2 LT PUSH2 0x2413 JUMPI PUSH2 0x2413 PUSH2 0x5EEB JUMP JUMPDEST PUSH1 0x20 MUL PUSH1 0x20 ADD ADD SWAP1 PUSH1 0x1 PUSH1 0x1 PUSH1 0xA0 SHL SUB AND SWAP1 DUP2 PUSH1 0x1 PUSH1 0x1 PUSH1 0xA0 SHL SUB AND DUP2 MSTORE POP POP JUMPDEST POP DUP1 PUSH2 0x243F DUP2 PUSH2 0x5F39 JUMP JUMPDEST SWAP2 POP POP PUSH2 0x23C0 JUMP JUMPDEST POP JUMPDEST DUP1 MLOAD PUSH2 0x245C SWAP1 PUSH1 0x3 SWAP1 PUSH1 0x20 DUP5 ADD SWAP1 PUSH2 0x53BF JUMP JUMPDEST POP DUP4 PUSH1 0x1 PUSH1 0x1 PUSH1 0xA0 SHL SUB AND PUSH1 0x0 DUP1 MLOAD PUSH1 0x20 PUSH2 0x70C2 DUP4 CODECOPY DUP2 MLOAD SWAP2 MSTORE PUSH1 0x1 PUSH1 0x40 MLOAD PUSH2 0x2485 SWAP2 SWAP1 PUSH2 0x6418 JUMP JUMPDEST PUSH1 0x40 MLOAD DUP1 SWAP2 SUB SWAP1 LOG2 POP POP POP POP JUMP JUMPDEST PUSH1 0x0 DUP1 PUSH2 0x249E PUSH2 0x38B5 JUMP JUMPDEST SWAP1 POP DUP1 PUSH1 0x7 SLOAD PUSH2 0x24AE SWAP2 SWAP1 PUSH2 0x5E6F JUMP JUMPDEST SWAP2 POP POP SWAP1 JUMP JUMPDEST PUSH1 0x1 PUSH1 0x1 PUSH1 0xA0 SHL SUB DUP2 AND ISZERO DUP1 ISZERO SWAP1 PUSH2 0x24D5 JUMPI POP PUSH1 0x1 PUSH1 0x1 PUSH1 0xA0 SHL SUB DUP2 AND ADDRESS EQ ISZERO JUMPDEST PUSH2 0x24F1 JUMPI PUSH1 0x40 MLOAD PUSH3 0x461BCD PUSH1 0xE5 SHL DUP2 MSTORE PUSH1 0x4 ADD PUSH2 0x1038 SWAP1 PUSH2 0x645A JUMP JUMPDEST PUSH32 0x0 PUSH1 0x1 PUSH1 0x1 PUSH1 0xA0 SHL SUB AND DUP2 PUSH1 0x1 PUSH1 0x1 PUSH1 0xA0 SHL SUB AND PUSH4 0x38D52E0F PUSH1 0x40 MLOAD DUP2 PUSH4 0xFFFFFFFF AND PUSH1 0xE0 SHL DUP2 MSTORE PUSH1 0x4 ADD PUSH1 0x20 PUSH1 0x40 MLOAD DUP1 DUP4 SUB DUP2 DUP7 GAS STATICCALL ISZERO DUP1 ISZERO PUSH2 0x2559 JUMPI RETURNDATASIZE PUSH1 0x0 DUP1 RETURNDATACOPY RETURNDATASIZE PUSH1 0x0 REVERT JUMPDEST POP POP POP POP PUSH1 0x40 MLOAD RETURNDATASIZE PUSH1 0x1F NOT PUSH1 0x1F DUP3 ADD AND DUP3 ADD DUP1 PUSH1 0x40 MSTORE POP DUP2 ADD SWAP1 PUSH2 0x257D SWAP2 SWAP1 PUSH2 0x6475 JUMP JUMPDEST PUSH1 0x1 PUSH1 0x1 PUSH1 0xA0 SHL SUB AND EQ PUSH2 0x25A3 JUMPI PUSH1 0x40 MLOAD PUSH3 0x461BCD PUSH1 0xE5 SHL DUP2 MSTORE PUSH1 0x4 ADD PUSH2 0x1038 SWAP1 PUSH2 0x64BA JUMP JUMPDEST PUSH1 0x1 PUSH1 0x1 PUSH1 0xA0 SHL SUB DUP2 AND PUSH1 0x0 SWAP1 DUP2 MSTORE PUSH1 0x2 PUSH1 0x20 MSTORE PUSH1 0x40 SWAP1 KECCAK256 SLOAD ISZERO PUSH2 0x25D9 JUMPI PUSH1 0x40 MLOAD PUSH3 0x461BCD PUSH1 0xE5 SHL DUP2 MSTORE PUSH1 0x4 ADD PUSH2 0x1038 SWAP1 PUSH2 0x64F8 JUMP JUMPDEST PUSH1 0x40 DUP1 MLOAD PUSH1 0x80 DUP2 ADD DUP3 MSTORE TIMESTAMP DUP1 DUP3 MSTORE PUSH1 0x20 DUP1 DUP4 ADD SWAP2 DUP3 MSTORE PUSH1 0x0 DUP4 DUP6 ADD DUP2 DUP2 MSTORE PUSH1 0x60 DUP6 ADD DUP3 DUP2 MSTORE PUSH1 0x1 PUSH1 0x1 PUSH1 0xA0 SHL SUB DUP9 AND DUP4 MSTORE PUSH1 0x2 SWAP4 DUP5 SWAP1 MSTORE SWAP6 SWAP1 SWAP2 KECCAK256 SWAP4 MLOAD DUP5 SSTORE SWAP2 MLOAD PUSH1 0x1 DUP5 ADD SSTORE SWAP1 MLOAD SWAP1 DUP3 ADD SSTORE SWAP1 MLOAD PUSH1 0x3 SWAP2 DUP3 ADD SSTORE SLOAD PUSH1 0xA DUP2 LT ISZERO PUSH2 0x2685 JUMPI DUP2 PUSH1 0x3 DUP3 PUSH2 0x2644 DUP2 PUSH2 0x5F39 JUMP JUMPDEST SWAP4 POP DUP2 SLOAD DUP2 LT PUSH2 0x2656 JUMPI PUSH2 0x2656 PUSH2 0x5EEB JUMP JUMPDEST SWAP1 PUSH1 0x0 MSTORE PUSH1 0x20 PUSH1 0x0 KECCAK256 ADD PUSH1 0x0 PUSH2 0x100 EXP DUP2 SLOAD DUP2 PUSH1 0x1 PUSH1 0x1 PUSH1 0xA0 SHL SUB MUL NOT AND SWAP1 DUP4 PUSH1 0x1 PUSH1 0x1 PUSH1 0xA0 SHL SUB AND MUL OR SWAP1 SSTORE POP JUMPDEST DUP2 PUSH1 0x1 PUSH1 0x1 PUSH1 0xA0 SHL SUB AND PUSH1 0x0 DUP1 MLOAD PUSH1 0x20 PUSH2 0x70C2 DUP4 CODECOPY DUP2 MLOAD SWAP2 MSTORE PUSH1 0x0 PUSH1 0x40 MLOAD PUSH2 0x26AD SWAP2 SWAP1 PUSH2 0x6418 JUMP JUMPDEST PUSH1 0x40 MLOAD DUP1 SWAP2 SUB SWAP1 LOG2 POP POP JUMP JUMPDEST PUSH1 0x0 PUSH2 0x26C6 DUP5 CALLER DUP5 PUSH2 0x477D JUMP JUMPDEST PUSH2 0x26D1 DUP5 DUP5 DUP5 PUSH2 0x3B3D JUMP JUMPDEST POP PUSH1 0x1 SWAP4 SWAP3 POP POP POP JUMP JUMPDEST PUSH2 0x26E5 DUP3 DUP3 PUSH2 0x18CD JUMP JUMPDEST PUSH2 0xFCA JUMPI PUSH1 0x0 DUP3 DUP2 MSTORE PUSH1 0x20 DUP2 DUP2 MSTORE PUSH1 0x40 DUP1 DUP4 KECCAK256 PUSH1 0x1 PUSH1 0x1 PUSH1 0xA0 SHL SUB DUP6 AND DUP5 MSTORE SWAP1 SWAP2 MSTORE SWAP1 KECCAK256 DUP1 SLOAD PUSH1 0xFF NOT AND PUSH1 0x1 OR SWAP1 SSTORE PUSH2 0x271B CALLER SWAP1 JUMP JUMPDEST PUSH1 0x1 PUSH1 0x1 PUSH1 0xA0 SHL SUB AND DUP2 PUSH1 0x1 PUSH1 0x1 PUSH1 0xA0 SHL SUB AND DUP4 PUSH32 0x2F8788117E7EFF1D82E926EC794901D17C78024A50270940304540A733656F0D PUSH1 0x40 MLOAD PUSH1 0x40 MLOAD DUP1 SWAP2 SUB SWAP1 LOG4 POP POP JUMP JUMPDEST PUSH1 0x1 PUSH1 0x1 PUSH1 0xA0 SHL SUB DUP4 AND PUSH1 0x0 SWAP1 DUP2 MSTORE PUSH1 0x5 PUSH1 0x20 MSTORE PUSH1 0x40 DUP2 KECCAK256 SLOAD DUP2 SWAP1 PUSH2 0x2784 SWAP1 DUP3 PUSH2 0x201A JUMP JUMPDEST PUSH1 0xE SLOAD SWAP1 SWAP2 POP PUSH1 0x1 PUSH1 0x1 PUSH1 0xA0 SHL SUB AND ISZERO PUSH2 0x2826 JUMPI PUSH1 0xE SLOAD PUSH1 0x40 MLOAD PUSH4 0x2319B8CF PUSH1 0xE0 SHL DUP2 MSTORE PUSH1 0x0 SWAP2 PUSH1 0x1 PUSH1 0x1 PUSH1 0xA0 SHL SUB AND SWAP1 PUSH4 0x2319B8CF SWAP1 PUSH2 0x27CD SWAP1 DUP10 SWAP1 DUP10 SWAP1 DUP10 SWAP1 PUSH1 0x4 ADD PUSH2 0x6508 JUMP JUMPDEST PUSH1 0x20 PUSH1 0x40 MLOAD DUP1 DUP4 SUB DUP2 PUSH1 0x0 DUP8 GAS CALL ISZERO DUP1 ISZERO PUSH2 0x27EC JUMPI RETURNDATASIZE PUSH1 0x0 DUP1 RETURNDATACOPY RETURNDATASIZE PUSH1 0x0 REVERT JUMPDEST POP POP POP POP PUSH1 0x40 MLOAD RETURNDATASIZE PUSH1 0x1F NOT PUSH1 0x1F DUP3 ADD AND DUP3 ADD DUP1 PUSH1 0x40 MSTORE POP DUP2 ADD SWAP1 PUSH2 0x2810 SWAP2 SWAP1 PUSH2 0x5DB9 JUMP JUMPDEST SWAP1 POP DUP2 DUP2 LT ISZERO PUSH2 0x281E JUMPI DUP1 SWAP2 POP JUMPDEST POP SWAP1 POP PUSH2 0x104F JUMP JUMPDEST PUSH1 0x9 SLOAD DUP1 DUP3 GT ISZERO PUSH2 0x2B20 JUMPI DUP4 MLOAD DUP2 SWAP1 PUSH1 0x0 SWAP1 DUP2 SWAP1 ISZERO DUP1 ISZERO SWAP1 PUSH2 0x284B JUMPI POP PUSH1 0x4 SLOAD PUSH1 0xFF AND ISZERO JUMPDEST PUSH2 0x28AF JUMPI PUSH1 0x3 DUP1 SLOAD DUP1 PUSH1 0x20 MUL PUSH1 0x20 ADD PUSH1 0x40 MLOAD SWAP1 DUP2 ADD PUSH1 0x40 MSTORE DUP1 SWAP3 SWAP2 SWAP1 DUP2 DUP2 MSTORE PUSH1 0x20 ADD DUP3 DUP1 SLOAD DUP1 ISZERO PUSH2 0x28A5 JUMPI PUSH1 0x20 MUL DUP3 ADD SWAP2 SWAP1 PUSH1 0x0 MSTORE PUSH1 0x20 PUSH1 0x0 KECCAK256 SWAP1 JUMPDEST DUP2 SLOAD PUSH1 0x1 PUSH1 0x1 PUSH1 0xA0 SHL SUB AND DUP2 MSTORE PUSH1 0x1 SWAP1 SWAP2 ADD SWAP1 PUSH1 0x20 ADD DUP1 DUP4 GT PUSH2 0x2887 JUMPI JUMPDEST POP POP POP POP POP PUSH2 0x28B1 JUMP JUMPDEST DUP7 JUMPDEST SWAP1 POP PUSH1 0x0 JUMPDEST DUP2 MLOAD DUP2 LT ISZERO PUSH2 0x2B19 JUMPI PUSH1 0x0 DUP3 DUP3 DUP2 MLOAD DUP2 LT PUSH2 0x28D3 JUMPI PUSH2 0x28D3 PUSH2 0x5EEB JUMP JUMPDEST PUSH1 0x20 MUL PUSH1 0x20 ADD ADD MLOAD SWAP1 POP PUSH1 0x2 PUSH1 0x0 DUP3 PUSH1 0x1 PUSH1 0x1 PUSH1 0xA0 SHL SUB AND PUSH1 0x1 PUSH1 0x1 PUSH1 0xA0 SHL SUB AND DUP2 MSTORE PUSH1 0x20 ADD SWAP1 DUP2 MSTORE PUSH1 0x20 ADD PUSH1 0x0 KECCAK256 PUSH1 0x0 ADD SLOAD PUSH1 0x0 SUB PUSH2 0x2925 JUMPI PUSH1 0x40 MLOAD PUSH3 0x461BCD PUSH1 0xE5 SHL DUP2 MSTORE PUSH1 0x4 ADD PUSH2 0x1038 SWAP1 PUSH2 0x6221 JUMP JUMPDEST PUSH1 0x0 PUSH2 0x2956 PUSH2 0x2934 DUP8 DUP11 PUSH2 0x5E6F JUMP JUMPDEST PUSH1 0x1 PUSH1 0x1 PUSH1 0xA0 SHL SUB DUP5 AND PUSH1 0x0 SWAP1 DUP2 MSTORE PUSH1 0x2 PUSH1 0x20 DUP2 SWAP1 MSTORE PUSH1 0x40 SWAP1 SWAP2 KECCAK256 ADD SLOAD PUSH2 0x2B29 JUMP JUMPDEST SWAP1 POP PUSH1 0x0 PUSH2 0x2964 DUP4 DUP4 PUSH2 0x35DF JUMP JUMPDEST SWAP1 POP PUSH1 0x0 DUP4 PUSH1 0x1 PUSH1 0x1 PUSH1 0xA0 SHL SUB AND PUSH4 0x7A2D13A DUP6 PUSH1 0x1 PUSH1 0x1 PUSH1 0xA0 SHL SUB AND PUSH4 0xD905777E ADDRESS PUSH1 0x40 MLOAD DUP3 PUSH4 0xFFFFFFFF AND PUSH1 0xE0 SHL DUP2 MSTORE PUSH1 0x4 ADD PUSH2 0x29A3 SWAP2 SWAP1 PUSH2 0x54A1 JUMP JUMPDEST PUSH1 0x20 PUSH1 0x40 MLOAD DUP1 DUP4 SUB DUP2 DUP7 GAS STATICCALL ISZERO DUP1 ISZERO PUSH2 0x29C0 JUMPI RETURNDATASIZE PUSH1 0x0 DUP1 RETURNDATACOPY RETURNDATASIZE PUSH1 0x0 REVERT JUMPDEST POP POP POP POP PUSH1 0x40 MLOAD RETURNDATASIZE PUSH1 0x1F NOT PUSH1 0x1F DUP3 ADD AND DUP3 ADD DUP1 PUSH1 0x40 MSTORE POP DUP2 ADD SWAP1 PUSH2 0x29E4 SWAP2 SWAP1 PUSH2 0x5DB9 JUMP JUMPDEST PUSH1 0x40 MLOAD DUP3 PUSH4 0xFFFFFFFF AND PUSH1 0xE0 SHL DUP2 MSTORE PUSH1 0x4 ADD PUSH2 0x2A00 SWAP2 SWAP1 PUSH2 0x54B5 JUMP JUMPDEST PUSH1 0x20 PUSH1 0x40 MLOAD DUP1 DUP4 SUB DUP2 DUP7 GAS STATICCALL ISZERO DUP1 ISZERO PUSH2 0x2A1D JUMPI RETURNDATASIZE PUSH1 0x0 DUP1 RETURNDATACOPY RETURNDATASIZE PUSH1 0x0 REVERT JUMPDEST POP POP POP POP PUSH1 0x40 MLOAD RETURNDATASIZE PUSH1 0x1F NOT PUSH1 0x1F DUP3 ADD AND DUP3 ADD DUP1 PUSH1 0x40 MSTORE POP DUP2 ADD SWAP1 PUSH2 0x2A41 SWAP2 SWAP1 PUSH2 0x5DB9 JUMP JUMPDEST SWAP1 POP PUSH2 0x2A4D DUP3 DUP5 PUSH2 0x5E6F JUMP JUMPDEST DUP2 LT ISZERO PUSH2 0x2A78 JUMPI DUP3 PUSH2 0x2A5F DUP3 DUP5 PUSH2 0x5DF0 JUMP JUMPDEST PUSH2 0x2A69 SWAP2 SWAP1 PUSH2 0x5E25 JUMP JUMPDEST SWAP2 POP PUSH2 0x2A75 DUP3 DUP3 PUSH2 0x5E82 JUMP JUMPDEST SWAP3 POP JUMPDEST DUP3 PUSH1 0x0 SUB PUSH2 0x2A89 JUMPI POP POP POP POP PUSH2 0x2B07 JUMP JUMPDEST PUSH1 0x0 DUP3 GT DUP1 ISZERO PUSH2 0x2A9A JUMPI POP PUSH2 0x2710 DUP14 LT JUMPDEST ISZERO PUSH2 0x2ADA JUMPI PUSH2 0x2710 DUP14 PUSH2 0x2AAD DUP6 DUP12 PUSH2 0x5E82 JUMP JUMPDEST PUSH2 0x2AB7 SWAP2 SWAP1 PUSH2 0x5DF0 JUMP JUMPDEST PUSH2 0x2AC1 SWAP2 SWAP1 PUSH2 0x5E25 JUMP JUMPDEST PUSH2 0x2ACB DUP4 DUP10 PUSH2 0x5E82 JUMP JUMPDEST GT ISZERO PUSH2 0x2ADA JUMPI POP POP POP POP PUSH2 0x2B19 JUMP JUMPDEST PUSH2 0x2AE4 DUP4 DUP10 PUSH2 0x5E82 JUMP JUMPDEST SWAP8 POP DUP10 DUP9 LT PUSH2 0x2AF6 JUMPI POP POP POP POP PUSH2 0x2B19 JUMP JUMPDEST PUSH2 0x2B00 DUP3 DUP9 PUSH2 0x5E82 JUMP JUMPDEST SWAP7 POP POP POP POP POP JUMPDEST DUP1 PUSH2 0x2B11 DUP2 PUSH2 0x5F39 JUMP JUMPDEST SWAP2 POP POP PUSH2 0x28B6 JUMP JUMPDEST POP SWAP2 SWAP4 POP POP POP JUMPDEST POP SWAP5 SWAP4 POP POP POP POP JUMP JUMPDEST PUSH1 0x0 DUP2 DUP4 LT PUSH2 0x2B38 JUMPI DUP2 PUSH2 0x104F JUMP JUMPDEST POP SWAP1 SWAP2 SWAP1 POP JUMP JUMPDEST PUSH2 0x2B49 DUP3 DUP3 PUSH2 0x18CD JUMP JUMPDEST ISZERO PUSH2 0xFCA JUMPI PUSH1 0x0 DUP3 DUP2 MSTORE PUSH1 0x20 DUP2 DUP2 MSTORE PUSH1 0x40 DUP1 DUP4 KECCAK256 PUSH1 0x1 PUSH1 0x1 PUSH1 0xA0 SHL SUB DUP6 AND DUP1 DUP6 MSTORE SWAP3 MSTORE DUP1 DUP4 KECCAK256 DUP1 SLOAD PUSH1 0xFF NOT AND SWAP1 SSTORE MLOAD CALLER SWAP3 DUP6 SWAP2 PUSH32 0xF6391F5C32D9C69D2A47EA670B442974B53935D1EDC7FD64EB21E047A839171B SWAP2 SWAP1 LOG4 POP POP JUMP JUMPDEST PUSH1 0x1 PUSH1 0x1 PUSH1 0xA0 SHL SUB DUP1 DUP5 AND PUSH1 0x0 SWAP1 DUP2 MSTORE PUSH1 0x6 PUSH1 0x20 SWAP1 DUP2 MSTORE PUSH1 0x40 DUP1 DUP4 KECCAK256 SWAP4 DUP7 AND DUP4 MSTORE SWAP3 SWAP1 MSTORE SWAP1 DUP2 KECCAK256 SLOAD DUP2 SWAP1 PUSH2 0x2BD9 SWAP1 DUP5 SWAP1 PUSH2 0x5E82 JUMP JUMPDEST SWAP1 POP PUSH2 0x2BE6 DUP6 DUP6 DUP4 PUSH2 0x2155 JUMP JUMPDEST POP PUSH1 0x1 SWAP6 SWAP5 POP POP POP POP POP JUMP JUMPDEST PUSH1 0x0 PUSH1 0x1 PUSH1 0x1 PUSH1 0xA0 SHL SUB DUP3 AND ADDRESS EQ DUP1 PUSH2 0x2C12 JUMPI POP PUSH1 0x1 PUSH1 0x1 PUSH1 0xA0 SHL SUB DUP3 AND ISZERO JUMPDEST ISZERO PUSH2 0x2C1F JUMPI POP PUSH1 0x0 SWAP2 SWAP1 POP JUMP JUMPDEST PUSH1 0xD SLOAD PUSH1 0x1 PUSH1 0x1 PUSH1 0xA0 SHL SUB AND DUP1 ISZERO PUSH2 0x2C9E JUMPI PUSH1 0x40 MLOAD PUSH4 0x23551789 PUSH1 0xE1 SHL DUP2 MSTORE PUSH1 0x1 PUSH1 0x1 PUSH1 0xA0 SHL SUB DUP3 AND SWAP1 PUSH4 0x46AA2F12 SWAP1 PUSH2 0x2C5D SWAP1 DUP7 SWAP1 PUSH1 0x4 ADD PUSH2 0x54A1 JUMP JUMPDEST PUSH1 0x20 PUSH1 0x40 MLOAD DUP1 DUP4 SUB DUP2 DUP7 GAS STATICCALL ISZERO DUP1 ISZERO PUSH2 0x2C7A JUMPI RETURNDATASIZE PUSH1 0x0 DUP1 RETURNDATACOPY RETURNDATASIZE PUSH1 0x0 REVERT JUMPDEST POP POP POP POP PUSH1 0x40 MLOAD RETURNDATASIZE PUSH1 0x1F NOT PUSH1 0x1F DUP3 ADD AND DUP3 ADD DUP1 PUSH1 0x40 MSTORE POP DUP2 ADD SWAP1 PUSH2 0x104F SWAP2 SWAP1 PUSH2 0x5DB9 JUMP JUMPDEST PUSH1 0x0 PUSH2 0x2CA8 PUSH2 0x1FDF JUMP JUMPDEST PUSH1 0xB SLOAD SWAP1 SWAP2 POP DUP1 DUP3 LT PUSH2 0x2CC0 JUMPI POP PUSH1 0x0 SWAP5 SWAP4 POP POP POP POP JUMP JUMPDEST PUSH2 0xEA6 DUP3 DUP3 PUSH2 0x5E6F JUMP JUMPDEST PUSH1 0x1 PUSH1 0x1 PUSH1 0xA0 SHL SUB DUP5 AND PUSH2 0x2CF0 JUMPI PUSH1 0x40 MLOAD PUSH3 0x461BCD PUSH1 0xE5 SHL DUP2 MSTORE PUSH1 0x4 ADD PUSH2 0x1038 SWAP1 PUSH2 0x6568 JUMP JUMPDEST PUSH1 0x1 PUSH1 0x1 PUSH1 0xA0 SHL SUB DUP4 AND PUSH2 0x2D16 JUMPI PUSH1 0x40 MLOAD PUSH3 0x461BCD PUSH1 0xE5 SHL DUP2 MSTORE PUSH1 0x4 ADD PUSH2 0x1038 SWAP1 PUSH2 0x65AC JUMP JUMPDEST PUSH1 0x1 PUSH1 0x1 PUSH1 0xA0 SHL SUB DUP3 AND PUSH2 0x2D3C JUMPI PUSH1 0x40 MLOAD PUSH3 0x461BCD PUSH1 0xE5 SHL DUP2 MSTORE PUSH1 0x4 ADD PUSH2 0x1038 SWAP1 PUSH2 0x65F0 JUMP JUMPDEST PUSH1 0x40 MLOAD PUSH4 0x23B872DD PUSH1 0xE0 SHL DUP2 MSTORE PUSH1 0x0 SWAP1 PUSH1 0x1 PUSH1 0x1 PUSH1 0xA0 SHL SUB DUP7 AND SWAP1 PUSH4 0x23B872DD SWAP1 PUSH2 0x2D6F SWAP1 DUP8 SWAP1 DUP8 SWAP1 DUP8 SWAP1 PUSH1 0x4 ADD PUSH2 0x6600 JUMP JUMPDEST PUSH1 0x20 PUSH1 0x40 MLOAD DUP1 DUP4 SUB DUP2 PUSH1 0x0 DUP8 GAS CALL ISZERO DUP1 ISZERO PUSH2 0x2D8E JUMPI RETURNDATASIZE PUSH1 0x0 DUP1 RETURNDATACOPY RETURNDATASIZE PUSH1 0x0 REVERT JUMPDEST POP POP POP POP PUSH1 0x40 MLOAD RETURNDATASIZE PUSH1 0x1F NOT PUSH1 0x1F DUP3 ADD AND DUP3 ADD DUP1 PUSH1 0x40 MSTORE POP DUP2 ADD SWAP1 PUSH2 0x2DB2 SWAP2 SWAP1 PUSH2 0x6633 JUMP JUMPDEST SWAP1 POP DUP1 PUSH2 0x2DD1 JUMPI PUSH1 0x40 MLOAD PUSH3 0x461BCD PUSH1 0xE5 SHL DUP2 MSTORE PUSH1 0x4 ADD PUSH2 0x1038 SWAP1 PUSH2 0x667A JUMP JUMPDEST POP POP POP POP POP JUMP JUMPDEST PUSH1 0x1 PUSH1 0x1 PUSH1 0xA0 SHL SUB DUP4 AND PUSH2 0x2DFE JUMPI PUSH1 0x40 MLOAD PUSH3 0x461BCD PUSH1 0xE5 SHL DUP2 MSTORE PUSH1 0x4 ADD PUSH2 0x1038 SWAP1 PUSH2 0x6568 JUMP JUMPDEST PUSH1 0x1 PUSH1 0x1 PUSH1 0xA0 SHL SUB DUP3 AND PUSH2 0x2E24 JUMPI PUSH1 0x40 MLOAD PUSH3 0x461BCD PUSH1 0xE5 SHL DUP2 MSTORE PUSH1 0x4 ADD PUSH2 0x1038 SWAP1 PUSH2 0x65F0 JUMP JUMPDEST PUSH1 0x40 MLOAD PUSH4 0xA9059CBB PUSH1 0xE0 SHL DUP2 MSTORE PUSH1 0x0 SWAP1 PUSH1 0x1 PUSH1 0x1 PUSH1 0xA0 SHL SUB DUP6 AND SWAP1 PUSH4 0xA9059CBB SWAP1 PUSH2 0x2E55 SWAP1 DUP7 SWAP1 DUP7 SWAP1 PUSH1 0x4 ADD PUSH2 0x668A JUMP JUMPDEST PUSH1 0x20 PUSH1 0x40 MLOAD DUP1 DUP4 SUB DUP2 PUSH1 0x0 DUP8 GAS CALL ISZERO DUP1 ISZERO PUSH2 0x2E74 JUMPI RETURNDATASIZE PUSH1 0x0 DUP1 RETURNDATACOPY RETURNDATASIZE PUSH1 0x0 REVERT JUMPDEST POP POP POP POP PUSH1 0x40 MLOAD RETURNDATASIZE PUSH1 0x1F NOT PUSH1 0x1F DUP3 ADD AND DUP3 ADD DUP1 PUSH1 0x40 MSTORE POP DUP2 ADD SWAP1 PUSH2 0x2E98 SWAP2 SWAP1 PUSH2 0x6633 JUMP JUMPDEST SWAP1 POP DUP1 PUSH2 0x2EB7 JUMPI PUSH1 0x40 MLOAD PUSH3 0x461BCD PUSH1 0xE5 SHL DUP2 MSTORE PUSH1 0x4 ADD PUSH2 0x1038 SWAP1 PUSH2 0x667A JUMP JUMPDEST POP POP POP POP JUMP JUMPDEST PUSH1 0x1 PUSH1 0x1 PUSH1 0xA0 SHL SUB DUP3 AND PUSH1 0x0 SWAP1 DUP2 MSTORE PUSH1 0x2 PUSH1 0x20 DUP2 SWAP1 MSTORE PUSH1 0x40 DUP3 KECCAK256 ADD SLOAD PUSH1 0x12 SLOAD DUP4 SWAP2 SWAP1 PUSH1 0x1 PUSH1 0xA0 SHL SWAP1 DIV PUSH1 0xFF AND ISZERO PUSH2 0x2EF3 JUMPI PUSH1 0x0 SWAP2 POP JUMPDEST DUP1 DUP3 SUB PUSH2 0x2F12 JUMPI PUSH1 0x40 MLOAD PUSH3 0x461BCD PUSH1 0xE5 SHL DUP2 MSTORE PUSH1 0x4 ADD PUSH2 0x1038 SWAP1 PUSH2 0x66CB JUMP JUMPDEST DUP2 DUP2 GT ISZERO PUSH2 0x3224 JUMPI PUSH1 0x0 PUSH2 0x2F26 DUP4 DUP4 PUSH2 0x5E6F JUMP JUMPDEST SWAP1 POP PUSH1 0xA SLOAD DUP2 PUSH1 0x9 SLOAD PUSH2 0x2F39 SWAP2 SWAP1 PUSH2 0x5E82 JUMP JUMPDEST LT ISZERO PUSH2 0x2F5C JUMPI PUSH1 0x9 SLOAD PUSH1 0xA SLOAD PUSH2 0x2F4F SWAP2 SWAP1 PUSH2 0x5E6F JUMP JUMPDEST SWAP1 POP DUP2 DUP2 GT ISZERO PUSH2 0x2F5C JUMPI POP DUP1 JUMPDEST PUSH1 0x40 MLOAD PUSH4 0x6C82BBBF PUSH1 0xE1 SHL DUP2 MSTORE PUSH1 0x0 SWAP1 PUSH1 0x1 PUSH1 0x1 PUSH1 0xA0 SHL SUB DUP9 AND SWAP1 PUSH4 0x7A2D13A SWAP1 DUP3 SWAP1 PUSH4 0xD905777E SWAP1 PUSH2 0x2F93 SWAP1 ADDRESS SWAP1 PUSH1 0x4 ADD PUSH2 0x54A1 JUMP JUMPDEST PUSH1 0x20 PUSH1 0x40 MLOAD DUP1 DUP4 SUB DUP2 DUP7 GAS STATICCALL ISZERO DUP1 ISZERO PUSH2 0x2FB0 JUMPI RETURNDATASIZE PUSH1 0x0 DUP1 RETURNDATACOPY RETURNDATASIZE PUSH1 0x0 REVERT JUMPDEST POP POP POP POP PUSH1 0x40 MLOAD RETURNDATASIZE PUSH1 0x1F NOT PUSH1 0x1F DUP3 ADD AND DUP3 ADD DUP1 PUSH1 0x40 MSTORE POP DUP2 ADD SWAP1 PUSH2 0x2FD4 SWAP2 SWAP1 PUSH2 0x5DB9 JUMP JUMPDEST PUSH1 0x40 MLOAD DUP3 PUSH4 0xFFFFFFFF AND PUSH1 0xE0 SHL DUP2 MSTORE PUSH1 0x4 ADD PUSH2 0x2FF0 SWAP2 SWAP1 PUSH2 0x54B5 JUMP JUMPDEST PUSH1 0x20 PUSH1 0x40 MLOAD DUP1 DUP4 SUB DUP2 DUP7 GAS STATICCALL ISZERO DUP1 ISZERO PUSH2 0x300D JUMPI RETURNDATASIZE PUSH1 0x0 DUP1 RETURNDATACOPY RETURNDATASIZE PUSH1 0x0 REVERT JUMPDEST POP POP POP POP PUSH1 0x40 MLOAD RETURNDATASIZE PUSH1 0x1F NOT PUSH1 0x1F DUP3 ADD AND DUP3 ADD DUP1 PUSH1 0x40 MSTORE POP DUP2 ADD SWAP1 PUSH2 0x3031 SWAP2 SWAP1 PUSH2 0x5DB9 JUMP JUMPDEST SWAP1 POP PUSH1 0x0 DUP2 GT PUSH2 0x3053 JUMPI PUSH1 0x40 MLOAD PUSH3 0x461BCD PUSH1 0xE5 SHL DUP2 MSTORE PUSH1 0x4 ADD PUSH2 0x1038 SWAP1 PUSH2 0x6705 JUMP JUMPDEST DUP2 DUP2 LT ISZERO PUSH2 0x305F JUMPI DUP1 SWAP2 POP JUMPDEST PUSH1 0x0 PUSH2 0x306B DUP9 DUP5 PUSH2 0x35DF JUMP JUMPDEST SWAP1 POP DUP1 ISZERO PUSH2 0x308B JUMPI PUSH1 0x40 MLOAD PUSH3 0x461BCD PUSH1 0xE5 SHL DUP2 MSTORE PUSH1 0x4 ADD PUSH2 0x1038 SWAP1 PUSH2 0x6749 JUMP JUMPDEST PUSH1 0x40 MLOAD PUSH4 0x70A08231 PUSH1 0xE0 SHL DUP2 MSTORE PUSH1 0x0 SWAP1 PUSH1 0x1 PUSH1 0x1 PUSH1 0xA0 SHL SUB PUSH32 0x0 AND SWAP1 PUSH4 0x70A08231 SWAP1 PUSH2 0x30DA SWAP1 ADDRESS SWAP1 PUSH1 0x4 ADD PUSH2 0x54A1 JUMP JUMPDEST PUSH1 0x20 PUSH1 0x40 MLOAD DUP1 DUP4 SUB DUP2 DUP7 GAS STATICCALL ISZERO DUP1 ISZERO PUSH2 0x30F7 JUMPI RETURNDATASIZE PUSH1 0x0 DUP1 RETURNDATACOPY RETURNDATASIZE PUSH1 0x0 REVERT JUMPDEST POP POP POP POP PUSH1 0x40 MLOAD RETURNDATASIZE PUSH1 0x1F NOT PUSH1 0x1F DUP3 ADD AND DUP3 ADD DUP1 PUSH1 0x40 MSTORE POP DUP2 ADD SWAP1 PUSH2 0x311B SWAP2 SWAP1 PUSH2 0x5DB9 JUMP JUMPDEST SWAP1 POP PUSH2 0x3127 DUP10 DUP6 PUSH2 0x47D7 JUMP JUMPDEST PUSH1 0x40 MLOAD PUSH4 0x70A08231 PUSH1 0xE0 SHL DUP2 MSTORE PUSH1 0x0 SWAP1 PUSH1 0x1 PUSH1 0x1 PUSH1 0xA0 SHL SUB PUSH32 0x0 AND SWAP1 PUSH4 0x70A08231 SWAP1 PUSH2 0x3176 SWAP1 ADDRESS SWAP1 PUSH1 0x4 ADD PUSH2 0x54A1 JUMP JUMPDEST PUSH1 0x20 PUSH1 0x40 MLOAD DUP1 DUP4 SUB DUP2 DUP7 GAS STATICCALL ISZERO DUP1 ISZERO PUSH2 0x3193 JUMPI RETURNDATASIZE PUSH1 0x0 DUP1 RETURNDATACOPY RETURNDATASIZE PUSH1 0x0 REVERT JUMPDEST POP POP POP POP PUSH1 0x40 MLOAD RETURNDATASIZE PUSH1 0x1F NOT PUSH1 0x1F DUP3 ADD AND DUP3 ADD DUP1 PUSH1 0x40 MSTORE POP DUP2 ADD SWAP1 PUSH2 0x31B7 SWAP2 SWAP1 PUSH2 0x5DB9 JUMP JUMPDEST SWAP1 POP PUSH1 0x0 PUSH2 0x31CE PUSH2 0x31C8 DUP5 DUP5 PUSH2 0x5E6F JUMP JUMPDEST DUP9 PUSH2 0x2B29 JUMP JUMPDEST SWAP1 POP DUP6 DUP2 GT ISZERO PUSH2 0x31DC JUMPI DUP1 SWAP6 POP JUMPDEST DUP1 PUSH1 0x9 PUSH1 0x0 DUP3 DUP3 SLOAD PUSH2 0x31EE SWAP2 SWAP1 PUSH2 0x5E82 JUMP JUMPDEST SWAP3 POP POP DUP2 SWAP1 SSTORE POP DUP6 PUSH1 0x8 PUSH1 0x0 DUP3 DUP3 SLOAD PUSH2 0x3207 SWAP2 SWAP1 PUSH2 0x5E6F JUMP JUMPDEST SWAP1 SWAP2 SSTORE POP PUSH2 0x3217 SWAP1 POP DUP7 DUP9 PUSH2 0x5E6F JUMP JUMPDEST SWAP8 POP POP POP POP POP POP POP PUSH2 0x3591 JUMP JUMPDEST PUSH1 0x1 PUSH1 0x1 PUSH1 0xA0 SHL SUB DUP6 AND PUSH1 0x0 SWAP1 DUP2 MSTORE PUSH1 0x2 PUSH1 0x20 MSTORE PUSH1 0x40 SWAP1 KECCAK256 PUSH1 0x3 ADD SLOAD DUP3 GT ISZERO PUSH2 0x325F JUMPI PUSH1 0x40 MLOAD PUSH3 0x461BCD PUSH1 0xE5 SHL DUP2 MSTORE PUSH1 0x4 ADD PUSH2 0x1038 SWAP1 PUSH2 0x678B JUMP JUMPDEST PUSH1 0x40 MLOAD PUSH4 0x402D267D PUSH1 0xE0 SHL DUP2 MSTORE PUSH1 0x0 SWAP1 PUSH1 0x1 PUSH1 0x1 PUSH1 0xA0 SHL SUB DUP8 AND SWAP1 PUSH4 0x402D267D SWAP1 PUSH2 0x328E SWAP1 ADDRESS SWAP1 PUSH1 0x4 ADD PUSH2 0x54A1 JUMP JUMPDEST PUSH1 0x20 PUSH1 0x40 MLOAD DUP1 DUP4 SUB DUP2 DUP7 GAS STATICCALL ISZERO DUP1 ISZERO PUSH2 0x32AB JUMPI RETURNDATASIZE PUSH1 0x0 DUP1 RETURNDATACOPY RETURNDATASIZE PUSH1 0x0 REVERT JUMPDEST POP POP POP POP PUSH1 0x40 MLOAD RETURNDATASIZE PUSH1 0x1F NOT PUSH1 0x1F DUP3 ADD AND DUP3 ADD DUP1 PUSH1 0x40 MSTORE POP DUP2 ADD SWAP1 PUSH2 0x32CF SWAP2 SWAP1 PUSH2 0x5DB9 JUMP JUMPDEST SWAP1 POP PUSH1 0x0 DUP2 GT PUSH2 0x32F1 JUMPI PUSH1 0x40 MLOAD PUSH3 0x461BCD PUSH1 0xE5 SHL DUP2 MSTORE PUSH1 0x4 ADD PUSH2 0x1038 SWAP1 PUSH2 0x67C4 JUMP JUMPDEST PUSH1 0x0 PUSH2 0x32FD DUP4 DUP6 PUSH2 0x5E6F JUMP JUMPDEST SWAP1 POP DUP2 DUP2 GT ISZERO PUSH2 0x330A JUMPI POP DUP1 JUMPDEST PUSH1 0xA SLOAD PUSH1 0x9 SLOAD GT PUSH2 0x332D JUMPI PUSH1 0x40 MLOAD PUSH3 0x461BCD PUSH1 0xE5 SHL DUP2 MSTORE PUSH1 0x4 ADD PUSH2 0x1038 SWAP1 PUSH2 0x67FE JUMP JUMPDEST PUSH1 0x0 PUSH1 0xA SLOAD PUSH1 0x9 SLOAD PUSH2 0x333F SWAP2 SWAP1 PUSH2 0x5E6F JUMP JUMPDEST SWAP1 POP DUP1 DUP3 GT ISZERO PUSH2 0x334D JUMPI DUP1 SWAP2 POP JUMPDEST DUP2 ISZERO PUSH2 0x358D JUMPI PUSH2 0x337E PUSH32 0x0 DUP10 DUP5 PUSH2 0x4931 JUMP JUMPDEST PUSH1 0x40 MLOAD PUSH4 0x70A08231 PUSH1 0xE0 SHL DUP2 MSTORE PUSH1 0x0 SWAP1 PUSH1 0x1 PUSH1 0x1 PUSH1 0xA0 SHL SUB PUSH32 0x0 AND SWAP1 PUSH4 0x70A08231 SWAP1 PUSH2 0x33CD SWAP1 ADDRESS SWAP1 PUSH1 0x4 ADD PUSH2 0x54A1 JUMP JUMPDEST PUSH1 0x20 PUSH1 0x40 MLOAD DUP1 DUP4 SUB DUP2 DUP7 GAS STATICCALL ISZERO DUP1 ISZERO PUSH2 0x33EA JUMPI RETURNDATASIZE PUSH1 0x0 DUP1 RETURNDATACOPY RETURNDATASIZE PUSH1 0x0 REVERT JUMPDEST POP POP POP POP PUSH1 0x40 MLOAD RETURNDATASIZE PUSH1 0x1F NOT PUSH1 0x1F DUP3 ADD AND DUP3 ADD DUP1 PUSH1 0x40 MSTORE POP DUP2 ADD SWAP1 PUSH2 0x340E SWAP2 SWAP1 PUSH2 0x5DB9 JUMP JUMPDEST PUSH1 0x40 MLOAD PUSH4 0x6E553F65 PUSH1 0xE0 SHL DUP2 MSTORE SWAP1 SWAP2 POP PUSH1 0x1 PUSH1 0x1 PUSH1 0xA0 SHL SUB DUP11 AND SWAP1 PUSH4 0x6E553F65 SWAP1 PUSH2 0x343F SWAP1 DUP7 SWAP1 ADDRESS SWAP1 PUSH1 0x4 ADD PUSH2 0x680E JUMP JUMPDEST PUSH1 0x20 PUSH1 0x40 MLOAD DUP1 DUP4 SUB DUP2 PUSH1 0x0 DUP8 GAS CALL ISZERO DUP1 ISZERO PUSH2 0x345E JUMPI RETURNDATASIZE PUSH1 0x0 DUP1 RETURNDATACOPY RETURNDATASIZE PUSH1 0x0 REVERT JUMPDEST POP POP POP POP PUSH1 0x40 MLOAD RETURNDATASIZE PUSH1 0x1F NOT PUSH1 0x1F DUP3 ADD AND DUP3 ADD DUP1 PUSH1 0x40 MSTORE POP DUP2 ADD SWAP1 PUSH2 0x3482 SWAP2 SWAP1 PUSH2 0x5DB9 JUMP JUMPDEST POP PUSH1 0x40 MLOAD PUSH4 0x70A08231 PUSH1 0xE0 SHL DUP2 MSTORE PUSH1 0x0 SWAP1 PUSH1 0x1 PUSH1 0x1 PUSH1 0xA0 SHL SUB PUSH32 0x0 AND SWAP1 PUSH4 0x70A08231 SWAP1 PUSH2 0x34D2 SWAP1 ADDRESS SWAP1 PUSH1 0x4 ADD PUSH2 0x54A1 JUMP JUMPDEST PUSH1 0x20 PUSH1 0x40 MLOAD DUP1 DUP4 SUB DUP2 DUP7 GAS STATICCALL ISZERO DUP1 ISZERO PUSH2 0x34EF JUMPI RETURNDATASIZE PUSH1 0x0 DUP1 RETURNDATACOPY RETURNDATASIZE PUSH1 0x0 REVERT JUMPDEST POP POP POP POP PUSH1 0x40 MLOAD RETURNDATASIZE PUSH1 0x1F NOT PUSH1 0x1F DUP3 ADD AND DUP3 ADD DUP1 PUSH1 0x40 MSTORE POP DUP2 ADD SWAP1 PUSH2 0x3513 SWAP2 SWAP1 PUSH2 0x5DB9 JUMP JUMPDEST SWAP1 POP PUSH2 0x3541 PUSH32 0x0 DUP12 PUSH1 0x0 PUSH2 0x4931 JUMP JUMPDEST PUSH2 0x354B DUP2 DUP4 PUSH2 0x5E6F JUMP JUMPDEST SWAP4 POP DUP4 PUSH1 0x9 PUSH1 0x0 DUP3 DUP3 SLOAD PUSH2 0x355F SWAP2 SWAP1 PUSH2 0x5E6F JUMP JUMPDEST SWAP3 POP POP DUP2 SWAP1 SSTORE POP DUP4 PUSH1 0x8 PUSH1 0x0 DUP3 DUP3 SLOAD PUSH2 0x3578 SWAP2 SWAP1 PUSH2 0x5E82 JUMP JUMPDEST SWAP1 SWAP2 SSTORE POP PUSH2 0x3588 SWAP1 POP DUP5 DUP8 PUSH2 0x5E82 JUMP JUMPDEST SWAP7 POP POP POP JUMPDEST POP POP POP JUMPDEST PUSH1 0x1 PUSH1 0x1 PUSH1 0xA0 SHL SUB DUP6 AND PUSH1 0x0 DUP2 DUP2 MSTORE PUSH1 0x2 PUSH1 0x20 DUP2 SWAP1 MSTORE PUSH1 0x40 SWAP2 DUP3 SWAP1 KECCAK256 ADD DUP5 SWAP1 SSTORE MLOAD PUSH1 0x0 DUP1 MLOAD PUSH1 0x20 PUSH2 0x7262 DUP4 CODECOPY DUP2 MLOAD SWAP2 MSTORE SWAP1 PUSH2 0x35CF SWAP1 DUP5 SWAP1 DUP7 SWAP1 PUSH2 0x5ACD JUMP JUMPDEST PUSH1 0x40 MLOAD DUP1 SWAP2 SUB SWAP1 LOG2 POP SWAP4 SWAP3 POP POP POP JUMP JUMPDEST PUSH1 0x1 PUSH1 0x1 PUSH1 0xA0 SHL SUB DUP3 AND PUSH1 0x0 DUP2 DUP2 MSTORE PUSH1 0x2 PUSH1 0x20 DUP2 SWAP1 MSTORE PUSH1 0x40 DUP1 DUP4 KECCAK256 SWAP1 SWAP2 ADD SLOAD SWAP1 MLOAD PUSH4 0x70A08231 PUSH1 0xE0 SHL DUP2 MSTORE SWAP2 SWAP3 SWAP1 SWAP2 DUP4 SWAP2 SWAP1 PUSH4 0x70A08231 SWAP1 PUSH2 0x3625 SWAP1 ADDRESS SWAP1 PUSH1 0x4 ADD PUSH2 0x54A1 JUMP JUMPDEST PUSH1 0x20 PUSH1 0x40 MLOAD DUP1 DUP4 SUB DUP2 DUP7 GAS STATICCALL ISZERO DUP1 ISZERO PUSH2 0x3642 JUMPI RETURNDATASIZE PUSH1 0x0 DUP1 RETURNDATACOPY RETURNDATASIZE PUSH1 0x0 REVERT JUMPDEST POP POP POP POP PUSH1 0x40 MLOAD RETURNDATASIZE PUSH1 0x1F NOT PUSH1 0x1F DUP3 ADD AND DUP3 ADD DUP1 PUSH1 0x40 MSTORE POP DUP2 ADD SWAP1 PUSH2 0x3666 SWAP2 SWAP1 PUSH2 0x5DB9 JUMP JUMPDEST SWAP1 POP PUSH1 0x0 DUP6 PUSH1 0x1 PUSH1 0x1 PUSH1 0xA0 SHL SUB AND PUSH4 0x7A2D13A DUP4 PUSH1 0x40 MLOAD DUP3 PUSH4 0xFFFFFFFF AND PUSH1 0xE0 SHL DUP2 MSTORE PUSH1 0x4 ADD PUSH2 0x3696 SWAP2 SWAP1 PUSH2 0x54B5 JUMP JUMPDEST PUSH1 0x20 PUSH1 0x40 MLOAD DUP1 DUP4 SUB DUP2 DUP7 GAS STATICCALL ISZERO DUP1 ISZERO PUSH2 0x36B3 JUMPI RETURNDATASIZE PUSH1 0x0 DUP1 RETURNDATACOPY RETURNDATASIZE PUSH1 0x0 REVERT JUMPDEST POP POP POP POP PUSH1 0x40 MLOAD RETURNDATASIZE PUSH1 0x1F NOT PUSH1 0x1F DUP3 ADD AND DUP3 ADD DUP1 PUSH1 0x40 MSTORE POP DUP2 ADD SWAP1 PUSH2 0x36D7 SWAP2 SWAP1 PUSH2 0x5DB9 JUMP JUMPDEST SWAP1 POP DUP3 DUP2 LT ISZERO DUP1 PUSH2 0x36E6 JUMPI POP DUP3 ISZERO JUMPDEST ISZERO PUSH2 0x36F7 JUMPI PUSH1 0x0 SWAP4 POP POP POP POP PUSH2 0xE6C JUMP JUMPDEST PUSH1 0x0 PUSH2 0x3703 DUP3 DUP8 PUSH2 0x5DF0 JUMP JUMPDEST SWAP1 POP PUSH1 0x0 PUSH2 0x3711 DUP6 DUP4 PUSH2 0x5E25 JUMP JUMPDEST PUSH2 0x371B SWAP1 DUP9 PUSH2 0x5E6F JUMP JUMPDEST SWAP1 POP PUSH2 0x3727 DUP6 DUP4 PUSH2 0x6275 JUMP JUMPDEST ISZERO PUSH2 0x1CB5 JUMPI PUSH2 0x3737 PUSH1 0x1 DUP3 PUSH2 0x5E82 JUMP JUMPDEST SWAP9 SWAP8 POP POP POP POP POP POP POP POP JUMP JUMPDEST PUSH1 0x12 SLOAD PUSH1 0x0 SWAP1 PUSH1 0x1 PUSH1 0xA0 SHL SWAP1 DIV PUSH1 0xFF AND ISZERO PUSH2 0x3770 JUMPI PUSH1 0x40 MLOAD PUSH3 0x461BCD PUSH1 0xE5 SHL DUP2 MSTORE PUSH1 0x4 ADD PUSH2 0x1038 SWAP1 PUSH2 0x6848 JUMP JUMPDEST PUSH2 0x3779 DUP4 PUSH2 0x2BF2 JUMP JUMPDEST DUP3 GT ISZERO PUSH2 0x3798 JUMPI PUSH1 0x40 MLOAD PUSH3 0x461BCD PUSH1 0xE5 SHL DUP2 MSTORE PUSH1 0x4 ADD PUSH2 0x1038 SWAP1 PUSH2 0x6883 JUMP JUMPDEST PUSH1 0x40 MLOAD PUSH4 0x23B872DD PUSH1 0xE0 SHL DUP2 MSTORE PUSH1 0x1 PUSH1 0x1 PUSH1 0xA0 SHL SUB PUSH32 0x0 AND SWAP1 PUSH4 0x23B872DD SWAP1 PUSH2 0x37E8 SWAP1 CALLER SWAP1 ADDRESS SWAP1 DUP8 SWAP1 PUSH1 0x4 ADD PUSH2 0x6600 JUMP JUMPDEST PUSH1 0x20 PUSH1 0x40 MLOAD DUP1 DUP4 SUB DUP2 PUSH1 0x0 DUP8 GAS CALL ISZERO DUP1 ISZERO PUSH2 0x3807 JUMPI RETURNDATASIZE PUSH1 0x0 DUP1 RETURNDATACOPY RETURNDATASIZE PUSH1 0x0 REVERT JUMPDEST POP POP POP POP PUSH1 0x40 MLOAD RETURNDATASIZE PUSH1 0x1F NOT PUSH1 0x1F DUP3 ADD AND DUP3 ADD DUP1 PUSH1 0x40 MSTORE POP DUP2 ADD SWAP1 PUSH2 0x382B SWAP2 SWAP1 PUSH2 0x6633 JUMP JUMPDEST POP DUP2 PUSH1 0x9 PUSH1 0x0 DUP3 DUP3 SLOAD PUSH2 0x383E SWAP2 SWAP1 PUSH2 0x5E82 JUMP JUMPDEST SWAP1 SWAP2 SSTORE POP PUSH1 0x0 SWAP1 POP PUSH2 0x3850 DUP4 DUP6 PUSH2 0x4A10 JUMP JUMPDEST SWAP1 POP PUSH1 0x0 DUP2 GT PUSH2 0x3872 JUMPI PUSH1 0x40 MLOAD PUSH3 0x461BCD PUSH1 0xE5 SHL DUP2 MSTORE PUSH1 0x4 ADD PUSH2 0x1038 SWAP1 PUSH2 0x68BA JUMP JUMPDEST DUP4 PUSH1 0x1 PUSH1 0x1 PUSH1 0xA0 SHL SUB AND DUP6 PUSH1 0x1 PUSH1 0x1 PUSH1 0xA0 SHL SUB AND PUSH1 0x0 DUP1 MLOAD PUSH1 0x20 PUSH2 0x7242 DUP4 CODECOPY DUP2 MLOAD SWAP2 MSTORE DUP6 DUP5 PUSH1 0x40 MLOAD PUSH2 0x38A5 SWAP3 SWAP2 SWAP1 PUSH2 0x5ACD JUMP JUMPDEST PUSH1 0x40 MLOAD DUP1 SWAP2 SUB SWAP1 LOG3 SWAP5 SWAP4 POP POP POP POP JUMP JUMPDEST PUSH1 0x14 SLOAD PUSH1 0x0 SWAP1 DUP2 TIMESTAMP DUP3 GT ISZERO PUSH2 0x38F6 JUMPI PUSH5 0xE8D4A51000 PUSH1 0x16 SLOAD TIMESTAMP PUSH2 0x38D8 SWAP2 SWAP1 PUSH2 0x5E6F JUMP JUMPDEST PUSH1 0x15 SLOAD PUSH2 0x38E5 SWAP2 SWAP1 PUSH2 0x5DF0 JUMP JUMPDEST PUSH2 0x38EF SWAP2 SWAP1 PUSH2 0x5E25 JUMP JUMPDEST SWAP1 POP PUSH2 0xE6C JUMP JUMPDEST DUP2 ISZERO PUSH2 0xE6C JUMPI POP ADDRESS PUSH1 0x0 SWAP1 DUP2 MSTORE PUSH1 0x5 PUSH1 0x20 MSTORE PUSH1 0x40 SWAP1 KECCAK256 SLOAD SWAP3 SWAP2 POP POP JUMP JUMPDEST PUSH1 0x12 SLOAD PUSH1 0x0 SWAP1 PUSH1 0x1 PUSH1 0xA0 SHL SWAP1 DIV PUSH1 0xFF AND ISZERO PUSH2 0x3940 JUMPI PUSH1 0x40 MLOAD PUSH3 0x461BCD PUSH1 0xE5 SHL DUP2 MSTORE PUSH1 0x4 ADD PUSH2 0x1038 SWAP1 PUSH2 0x6848 JUMP JUMPDEST PUSH1 0x0 PUSH2 0x394D DUP4 PUSH1 0x1 PUSH2 0x201A JUMP JUMPDEST SWAP1 POP PUSH1 0x0 DUP2 GT PUSH2 0x396F JUMPI PUSH1 0x40 MLOAD PUSH3 0x461BCD PUSH1 0xE5 SHL DUP2 MSTORE PUSH1 0x4 ADD PUSH2 0x1038 SWAP1 PUSH2 0x68F4 JUMP JUMPDEST PUSH2 0x3978 DUP5 PUSH2 0x2BF2 JUMP JUMPDEST DUP2 GT ISZERO PUSH2 0x3997 JUMPI PUSH1 0x40 MLOAD PUSH3 0x461BCD PUSH1 0xE5 SHL DUP2 MSTORE PUSH1 0x4 ADD PUSH2 0x1038 SWAP1 PUSH2 0x6883 JUMP JUMPDEST PUSH1 0x40 MLOAD PUSH4 0x23B872DD PUSH1 0xE0 SHL DUP2 MSTORE PUSH1 0x1 PUSH1 0x1 PUSH1 0xA0 SHL SUB PUSH32 0x0 AND SWAP1 PUSH4 0x23B872DD SWAP1 PUSH2 0x39E7 SWAP1 CALLER SWAP1 ADDRESS SWAP1 DUP7 SWAP1 PUSH1 0x4 ADD PUSH2 0x6600 JUMP JUMPDEST PUSH1 0x20 PUSH1 0x40 MLOAD DUP1 DUP4 SUB DUP2 PUSH1 0x0 DUP8 GAS CALL ISZERO DUP1 ISZERO PUSH2 0x3A06 JUMPI RETURNDATASIZE PUSH1 0x0 DUP1 RETURNDATACOPY RETURNDATASIZE PUSH1 0x0 REVERT JUMPDEST POP POP POP POP PUSH1 0x40 MLOAD RETURNDATASIZE PUSH1 0x1F NOT PUSH1 0x1F DUP3 ADD AND DUP3 ADD DUP1 PUSH1 0x40 MSTORE POP DUP2 ADD SWAP1 PUSH2 0x3A2A SWAP2 SWAP1 PUSH2 0x6633 JUMP JUMPDEST POP DUP1 PUSH1 0x9 PUSH1 0x0 DUP3 DUP3 SLOAD PUSH2 0x3A3D SWAP2 SWAP1 PUSH2 0x5E82 JUMP JUMPDEST SWAP1 SWAP2 SSTORE POP PUSH2 0x3A4D SWAP1 POP DUP4 DUP6 PUSH2 0x3D47 JUMP JUMPDEST POP DUP4 PUSH1 0x1 PUSH1 0x1 PUSH1 0xA0 SHL SUB AND DUP6 PUSH1 0x1 PUSH1 0x1 PUSH1 0xA0 SHL SUB AND PUSH1 0x0 DUP1 MLOAD PUSH1 0x20 PUSH2 0x7242 DUP4 CODECOPY DUP2 MLOAD SWAP2 MSTORE DUP4 DUP7 PUSH1 0x40 MLOAD PUSH2 0x38A5 SWAP3 SWAP2 SWAP1 PUSH2 0x5ACD JUMP JUMPDEST PUSH1 0x1 PUSH1 0x1 PUSH1 0xA0 SHL SUB DUP2 AND PUSH1 0x0 SWAP1 DUP2 MSTORE PUSH1 0x5 PUSH1 0x20 MSTORE PUSH1 0x40 DUP2 KECCAK256 SLOAD DUP4 GT ISZERO PUSH2 0x3AB9 JUMPI PUSH1 0x40 MLOAD PUSH3 0x461BCD PUSH1 0xE5 SHL DUP2 MSTORE PUSH1 0x4 ADD PUSH2 0x1038 SWAP1 PUSH2 0x692E JUMP JUMPDEST PUSH1 0x1 PUSH1 0x1 PUSH1 0xA0 SHL SUB DUP3 AND PUSH1 0x0 SWAP1 DUP2 MSTORE PUSH1 0x5 PUSH1 0x20 MSTORE PUSH1 0x40 DUP2 KECCAK256 DUP1 SLOAD DUP6 SWAP3 SWAP1 PUSH2 0x3AE1 SWAP1 DUP5 SWAP1 PUSH2 0x5E6F JUMP JUMPDEST SWAP3 POP POP DUP2 SWAP1 SSTORE POP DUP3 PUSH1 0x7 PUSH1 0x0 DUP3 DUP3 SLOAD PUSH2 0x3AFA SWAP2 SWAP1 PUSH2 0x5E6F JUMP JUMPDEST SWAP1 SWAP2 SSTORE POP PUSH1 0x1 SWAP5 SWAP4 POP POP POP POP JUMP JUMPDEST PUSH1 0x1 PUSH1 0x1 PUSH1 0xA0 SHL SUB DUP1 DUP5 AND PUSH1 0x0 SWAP1 DUP2 MSTORE PUSH1 0x6 PUSH1 0x20 SWAP1 DUP2 MSTORE PUSH1 0x40 DUP1 DUP4 KECCAK256 SWAP4 DUP7 AND DUP4 MSTORE SWAP3 SWAP1 MSTORE SWAP1 DUP2 KECCAK256 SLOAD DUP2 SWAP1 PUSH2 0x2BD9 SWAP1 DUP5 SWAP1 PUSH2 0x5E6F JUMP JUMPDEST PUSH1 0x1 PUSH1 0x1 PUSH1 0xA0 SHL SUB DUP4 AND PUSH1 0x0 SWAP1 DUP2 MSTORE PUSH1 0x5 PUSH1 0x20 MSTORE PUSH1 0x40 SWAP1 KECCAK256 SLOAD DUP2 DUP2 LT ISZERO PUSH2 0x3B76 JUMPI PUSH1 0x40 MLOAD PUSH3 0x461BCD PUSH1 0xE5 SHL DUP2 MSTORE PUSH1 0x4 ADD PUSH2 0x1038 SWAP1 PUSH2 0x6967 JUMP JUMPDEST PUSH1 0x1 PUSH1 0x1 PUSH1 0xA0 SHL SUB DUP5 AND PUSH2 0x3B9C JUMPI PUSH1 0x40 MLOAD PUSH3 0x461BCD PUSH1 0xE5 SHL DUP2 MSTORE PUSH1 0x4 ADD PUSH2 0x1038 SWAP1 PUSH2 0x69B9 JUMP JUMPDEST PUSH1 0x1 PUSH1 0x1 PUSH1 0xA0 SHL SUB DUP4 AND PUSH2 0x3BC2 JUMPI PUSH1 0x40 MLOAD PUSH3 0x461BCD PUSH1 0xE5 SHL DUP2 MSTORE PUSH1 0x4 ADD PUSH2 0x1038 SWAP1 PUSH2 0x6A09 JUMP JUMPDEST PUSH2 0x3BCC DUP3 DUP3 PUSH2 0x5E6F JUMP JUMPDEST PUSH1 0x1 PUSH1 0x1 PUSH1 0xA0 SHL SUB DUP1 DUP7 AND PUSH1 0x0 SWAP1 DUP2 MSTORE PUSH1 0x5 PUSH1 0x20 MSTORE PUSH1 0x40 DUP1 DUP3 KECCAK256 SWAP4 SWAP1 SWAP4 SSTORE SWAP1 DUP6 AND DUP2 MSTORE KECCAK256 SLOAD PUSH2 0x3BFB DUP4 DUP3 PUSH2 0x5E82 JUMP JUMPDEST PUSH1 0x1 PUSH1 0x1 PUSH1 0xA0 SHL SUB SWAP1 SWAP5 AND PUSH1 0x0 SWAP1 DUP2 MSTORE PUSH1 0x5 PUSH1 0x20 MSTORE PUSH1 0x40 SWAP1 KECCAK256 SWAP4 SWAP1 SWAP4 SSTORE POP POP POP POP JUMP JUMPDEST PUSH1 0x1 PUSH1 0x1 PUSH1 0xA0 SHL SUB DUP2 AND PUSH1 0x0 SWAP1 DUP2 MSTORE PUSH1 0x2 PUSH1 0x20 MSTORE PUSH1 0x40 DUP2 KECCAK256 SLOAD DUP2 SWAP1 DUP2 SUB PUSH2 0x3C57 JUMPI PUSH1 0x40 MLOAD PUSH3 0x461BCD PUSH1 0xE5 SHL DUP2 MSTORE PUSH1 0x4 ADD PUSH2 0x1038 SWAP1 PUSH2 0x6221 JUMP JUMPDEST PUSH2 0x3C5F PUSH2 0x4ACE JUMP JUMPDEST PUSH1 0x0 DUP1 PUSH2 0x3C6B DUP6 PUSH2 0x4AFE JUMP JUMPDEST SWAP2 POP SWAP2 POP PUSH1 0x0 PUSH2 0x3C7C DUP7 DUP5 DUP5 PUSH2 0x4C34 JUMP JUMPDEST SWAP1 POP PUSH1 0x0 PUSH2 0x3C93 DUP4 DUP4 PUSH1 0x0 ADD MLOAD DUP5 PUSH1 0x40 ADD MLOAD PUSH2 0x4DA2 JUMP JUMPDEST SWAP1 POP PUSH1 0x0 DUP1 PUSH2 0x3CA5 DUP4 DUP6 DUP9 DUP9 DUP14 PUSH2 0x4E27 JUMP JUMPDEST SWAP2 POP SWAP2 POP PUSH2 0x3CB9 DUP7 DUP6 PUSH1 0x20 ADD MLOAD DUP5 DUP5 PUSH2 0x513C JUMP JUMPDEST PUSH1 0x1 PUSH1 0x1 PUSH1 0xA0 SHL SUB DUP10 AND PUSH1 0x0 DUP2 DUP2 MSTORE PUSH1 0x2 PUSH1 0x20 DUP2 SWAP1 MSTORE PUSH1 0x40 DUP1 DUP4 KECCAK256 TIMESTAMP PUSH1 0x1 DUP3 ADD SSTORE SWAP1 SWAP2 ADD SLOAD SWAP1 DUP7 ADD MLOAD PUSH1 0x0 DUP1 MLOAD PUSH1 0x20 PUSH2 0x7182 DUP4 CODECOPY DUP2 MLOAD SWAP2 MSTORE SWAP3 DUP11 SWAP3 DUP11 SWAP3 SWAP1 SWAP2 PUSH2 0x3D02 SWAP2 SWAP1 PUSH2 0x201A JUMP JUMPDEST PUSH2 0x3D19 DUP10 PUSH1 0x20 ADD MLOAD DUP11 PUSH1 0x40 ADD MLOAD PUSH2 0x1989 SWAP2 SWAP1 PUSH2 0x5E82 JUMP JUMPDEST DUP11 PUSH1 0x20 ADD MLOAD PUSH1 0x40 MLOAD PUSH2 0x3D30 SWAP7 SWAP6 SWAP5 SWAP4 SWAP3 SWAP2 SWAP1 PUSH2 0x6A19 JUMP JUMPDEST PUSH1 0x40 MLOAD DUP1 SWAP2 SUB SWAP1 LOG2 POP SWAP4 SWAP8 SWAP3 SWAP7 POP SWAP2 SWAP5 POP POP POP POP POP JUMP JUMPDEST PUSH1 0x0 PUSH1 0x1 PUSH1 0x1 PUSH1 0xA0 SHL SUB DUP3 AND PUSH2 0x3D6F JUMPI PUSH1 0x40 MLOAD PUSH3 0x461BCD PUSH1 0xE5 SHL DUP2 MSTORE PUSH1 0x4 ADD PUSH2 0x1038 SWAP1 PUSH2 0x6A9A JUMP JUMPDEST PUSH1 0x1 PUSH1 0x1 PUSH1 0xA0 SHL SUB DUP3 AND PUSH1 0x0 SWAP1 DUP2 MSTORE PUSH1 0x5 PUSH1 0x20 MSTORE PUSH1 0x40 DUP2 KECCAK256 DUP1 SLOAD DUP6 SWAP3 SWAP1 PUSH2 0x3D97 SWAP1 DUP5 SWAP1 PUSH2 0x5E82 JUMP JUMPDEST SWAP3 POP POP DUP2 SWAP1 SSTORE POP DUP3 PUSH1 0x7 PUSH1 0x0 DUP3 DUP3 SLOAD PUSH2 0x3AFA SWAP2 SWAP1 PUSH2 0x5E82 JUMP JUMPDEST PUSH1 0x0 PUSH1 0x1 PUSH1 0x1 PUSH1 0xA0 SHL SUB DUP9 AND PUSH2 0x3DD8 JUMPI PUSH1 0x40 MLOAD PUSH3 0x461BCD PUSH1 0xE5 SHL DUP2 MSTORE PUSH1 0x4 ADD PUSH2 0x1038 SWAP1 PUSH2 0x6ADB JUMP JUMPDEST TIMESTAMP DUP6 LT ISZERO PUSH2 0x3DF8 JUMPI PUSH1 0x40 MLOAD PUSH3 0x461BCD PUSH1 0xE5 SHL DUP2 MSTORE PUSH1 0x4 ADD PUSH2 0x1038 SWAP1 PUSH2 0x6B1F JUMP JUMPDEST PUSH1 0x1 PUSH1 0x1 PUSH1 0xA0 SHL SUB DUP9 AND PUSH1 0x0 SWAP1 DUP2 MSTORE PUSH1 0x17 PUSH1 0x20 SWAP1 DUP2 MSTORE PUSH1 0x40 DUP1 DUP4 KECCAK256 SLOAD SWAP1 MLOAD SWAP1 SWAP3 SWAP2 PUSH2 0x3E3D SWAP2 PUSH1 0x0 DUP1 MLOAD PUSH1 0x20 PUSH2 0x71A2 DUP4 CODECOPY DUP2 MLOAD SWAP2 MSTORE SWAP2 DUP14 SWAP2 DUP14 SWAP2 DUP14 SWAP2 DUP9 SWAP2 DUP15 SWAP2 ADD PUSH2 0x6B2F JUMP JUMPDEST PUSH1 0x40 MLOAD PUSH1 0x20 DUP2 DUP4 SUB SUB DUP2 MSTORE SWAP1 PUSH1 0x40 MSTORE DUP1 MLOAD SWAP1 PUSH1 0x20 ADD KECCAK256 SWAP1 POP PUSH1 0x0 PUSH1 0x18 SLOAD DUP3 PUSH1 0x40 MLOAD PUSH1 0x20 ADD PUSH2 0x3E6C SWAP3 SWAP2 SWAP1 PUSH2 0x6B57 JUMP JUMPDEST PUSH1 0x40 MLOAD PUSH1 0x20 DUP2 DUP4 SUB SUB DUP2 MSTORE SWAP1 PUSH1 0x40 MSTORE DUP1 MLOAD SWAP1 PUSH1 0x20 ADD KECCAK256 SWAP1 POP PUSH1 0x0 PUSH1 0x1 DUP3 DUP10 DUP10 DUP10 PUSH1 0x40 MLOAD PUSH1 0x0 DUP2 MSTORE PUSH1 0x20 ADD PUSH1 0x40 MSTORE PUSH1 0x40 MLOAD PUSH2 0x3EA9 SWAP5 SWAP4 SWAP3 SWAP2 SWAP1 PUSH2 0x6B88 JUMP JUMPDEST PUSH1 0x20 PUSH1 0x40 MLOAD PUSH1 0x20 DUP2 SUB SWAP1 DUP1 DUP5 SUB SWAP1 DUP6 GAS STATICCALL ISZERO DUP1 ISZERO PUSH2 0x3ECB JUMPI RETURNDATASIZE PUSH1 0x0 DUP1 RETURNDATACOPY RETURNDATASIZE PUSH1 0x0 REVERT JUMPDEST POP POP PUSH1 0x40 MLOAD PUSH1 0x1F NOT ADD MLOAD SWAP2 POP POP PUSH1 0x1 PUSH1 0x1 PUSH1 0xA0 SHL SUB DUP2 AND ISZERO DUP1 ISZERO SWAP1 PUSH2 0x3F01 JUMPI POP DUP12 PUSH1 0x1 PUSH1 0x1 PUSH1 0xA0 SHL SUB AND DUP2 PUSH1 0x1 PUSH1 0x1 PUSH1 0xA0 SHL SUB AND EQ JUMPDEST PUSH2 0x3F1D JUMPI PUSH1 0x40 MLOAD PUSH3 0x461BCD PUSH1 0xE5 SHL DUP2 MSTORE PUSH1 0x4 ADD PUSH2 0x1038 SWAP1 PUSH2 0x6BD7 JUMP JUMPDEST PUSH2 0x3F28 DUP13 DUP13 DUP13 PUSH2 0x2155 JUMP JUMPDEST POP PUSH1 0x1 PUSH1 0x1 PUSH1 0xA0 SHL SUB DUP13 AND PUSH1 0x0 SWAP1 DUP2 MSTORE PUSH1 0x17 PUSH1 0x20 MSTORE PUSH1 0x40 DUP2 KECCAK256 DUP1 SLOAD SWAP2 PUSH2 0x3F4D DUP4 PUSH2 0x5F39 JUMP JUMPDEST SWAP1 SWAP2 SSTORE POP PUSH1 0x1 SWAP14 SWAP13 POP POP POP POP POP POP POP POP POP POP POP POP POP JUMP JUMPDEST PUSH1 0x1 PUSH1 0x1 PUSH1 0xA0 SHL SUB DUP7 AND PUSH2 0x3F8A JUMPI PUSH1 0x40 MLOAD PUSH3 0x461BCD PUSH1 0xE5 SHL DUP2 MSTORE PUSH1 0x4 ADD PUSH2 0x1038 SWAP1 PUSH2 0x6C0A JUMP JUMPDEST PUSH2 0x2710 DUP3 GT ISZERO PUSH2 0x3FAC JUMPI PUSH1 0x40 MLOAD PUSH3 0x461BCD PUSH1 0xE5 SHL DUP2 MSTORE PUSH1 0x4 ADD PUSH2 0x1038 SWAP1 PUSH2 0x6C39 JUMP JUMPDEST PUSH1 0x0 DUP4 GT PUSH2 0x3FCC JUMPI PUSH1 0x40 MLOAD PUSH3 0x461BCD PUSH1 0xE5 SHL DUP2 MSTORE PUSH1 0x4 ADD PUSH2 0x1038 SWAP1 PUSH2 0x6C73 JUMP JUMPDEST PUSH1 0x1 PUSH1 0x1 PUSH1 0xA0 SHL SUB DUP6 AND PUSH1 0x0 SWAP1 DUP2 MSTORE PUSH1 0x5 PUSH1 0x20 MSTORE PUSH1 0x40 SWAP1 KECCAK256 SLOAD DUP4 GT ISZERO PUSH2 0x4004 JUMPI PUSH1 0x40 MLOAD PUSH3 0x461BCD PUSH1 0xE5 SHL DUP2 MSTORE PUSH1 0x4 ADD PUSH2 0x1038 SWAP1 PUSH2 0x6CAD JUMP JUMPDEST POP POP POP POP POP POP POP JUMP JUMPDEST DUP3 PUSH1 0x1 PUSH1 0x1 PUSH1 0xA0 SHL SUB AND DUP3 PUSH1 0x1 PUSH1 0x1 PUSH1 0xA0 SHL SUB AND EQ PUSH2 0x1187 JUMPI PUSH2 0x1187 DUP4 DUP4 DUP4 PUSH2 0x477D JUMP JUMPDEST PUSH1 0x0 DUP1 PUSH1 0x0 PUSH1 0x40 MLOAD DUP1 PUSH1 0xC0 ADD PUSH1 0x40 MSTORE DUP1 DUP7 DUP2 MSTORE PUSH1 0x20 ADD PUSH1 0x9 SLOAD DUP2 MSTORE PUSH1 0x20 ADD PUSH1 0x8 SLOAD DUP2 MSTORE PUSH1 0x20 ADD PUSH1 0x0 DUP2 MSTORE PUSH1 0x20 ADD PUSH32 0x0 PUSH1 0x1 PUSH1 0x1 PUSH1 0xA0 SHL SUB AND PUSH4 0x70A08231 ADDRESS PUSH1 0x40 MLOAD DUP3 PUSH4 0xFFFFFFFF AND PUSH1 0xE0 SHL DUP2 MSTORE PUSH1 0x4 ADD PUSH2 0x40AA SWAP2 SWAP1 PUSH2 0x54A1 JUMP JUMPDEST PUSH1 0x20 PUSH1 0x40 MLOAD DUP1 DUP4 SUB DUP2 DUP7 GAS STATICCALL ISZERO DUP1 ISZERO PUSH2 0x40C7 JUMPI RETURNDATASIZE PUSH1 0x0 DUP1 RETURNDATACOPY RETURNDATASIZE PUSH1 0x0 REVERT JUMPDEST POP POP POP POP PUSH1 0x40 MLOAD RETURNDATASIZE PUSH1 0x1F NOT PUSH1 0x1F DUP3 ADD AND DUP3 ADD DUP1 PUSH1 0x40 MSTORE POP DUP2 ADD SWAP1 PUSH2 0x40EB SWAP2 SWAP1 PUSH2 0x5DB9 JUMP JUMPDEST DUP2 MSTORE PUSH1 0x0 PUSH1 0x20 SWAP2 DUP3 ADD MSTORE DUP2 ADD MLOAD DUP2 MLOAD SWAP2 SWAP3 POP LT ISZERO PUSH2 0x466E JUMPI PUSH1 0x0 DUP5 MLOAD PUSH1 0x0 EQ ISZERO DUP1 ISZERO PUSH2 0x411A JUMPI POP PUSH1 0x4 SLOAD PUSH1 0xFF AND ISZERO JUMPDEST PUSH2 0x417E JUMPI PUSH1 0x3 DUP1 SLOAD DUP1 PUSH1 0x20 MUL PUSH1 0x20 ADD PUSH1 0x40 MLOAD SWAP1 DUP2 ADD PUSH1 0x40 MSTORE DUP1 SWAP3 SWAP2 SWAP1 DUP2 DUP2 MSTORE PUSH1 0x20 ADD DUP3 DUP1 SLOAD DUP1 ISZERO PUSH2 0x4174 JUMPI PUSH1 0x20 MUL DUP3 ADD SWAP2 SWAP1 PUSH1 0x0 MSTORE PUSH1 0x20 PUSH1 0x0 KECCAK256 SWAP1 JUMPDEST DUP2 SLOAD PUSH1 0x1 PUSH1 0x1 PUSH1 0xA0 SHL SUB AND DUP2 MSTORE PUSH1 0x1 SWAP1 SWAP2 ADD SWAP1 PUSH1 0x20 ADD DUP1 DUP4 GT PUSH2 0x4156 JUMPI JUMPDEST POP POP POP POP POP PUSH2 0x4180 JUMP JUMPDEST DUP5 JUMPDEST PUSH1 0x20 DUP4 ADD MLOAD DUP4 MLOAD SWAP2 SWAP3 POP PUSH2 0x4193 SWAP2 PUSH2 0x5E6F JUMP JUMPDEST PUSH1 0x60 DUP4 ADD MSTORE PUSH1 0x0 JUMPDEST DUP2 MLOAD DUP2 LT ISZERO PUSH2 0x463E JUMPI PUSH1 0x0 DUP3 DUP3 DUP2 MLOAD DUP2 LT PUSH2 0x41B8 JUMPI PUSH2 0x41B8 PUSH2 0x5EEB JUMP JUMPDEST PUSH1 0x20 MUL PUSH1 0x20 ADD ADD MLOAD SWAP1 POP PUSH1 0x2 PUSH1 0x0 DUP3 PUSH1 0x1 PUSH1 0x1 PUSH1 0xA0 SHL SUB AND PUSH1 0x1 PUSH1 0x1 PUSH1 0xA0 SHL SUB AND DUP2 MSTORE PUSH1 0x20 ADD SWAP1 DUP2 MSTORE PUSH1 0x20 ADD PUSH1 0x0 KECCAK256 PUSH1 0x0 ADD SLOAD PUSH1 0x0 SUB PUSH2 0x420A JUMPI PUSH1 0x40 MLOAD PUSH3 0x461BCD PUSH1 0xE5 SHL DUP2 MSTORE PUSH1 0x4 ADD PUSH2 0x1038 SWAP1 PUSH2 0x6221 JUMP JUMPDEST PUSH1 0x1 PUSH1 0x1 PUSH1 0xA0 SHL SUB DUP2 AND PUSH1 0x0 SWAP1 DUP2 MSTORE PUSH1 0x2 PUSH1 0x20 DUP2 SWAP1 MSTORE PUSH1 0x40 DUP3 KECCAK256 ADD SLOAD PUSH1 0x60 DUP7 ADD MLOAD SWAP1 SWAP2 SWAP1 PUSH2 0x4238 SWAP1 DUP4 PUSH2 0x2B29 JUMP JUMPDEST SWAP1 POP PUSH1 0x0 DUP4 PUSH1 0x1 PUSH1 0x1 PUSH1 0xA0 SHL SUB AND PUSH4 0x7A2D13A DUP6 PUSH1 0x1 PUSH1 0x1 PUSH1 0xA0 SHL SUB AND PUSH4 0xD905777E ADDRESS PUSH1 0x40 MLOAD DUP3 PUSH4 0xFFFFFFFF AND PUSH1 0xE0 SHL DUP2 MSTORE PUSH1 0x4 ADD PUSH2 0x4277 SWAP2 SWAP1 PUSH2 0x54A1 JUMP JUMPDEST PUSH1 0x20 PUSH1 0x40 MLOAD DUP1 DUP4 SUB DUP2 DUP7 GAS STATICCALL ISZERO DUP1 ISZERO PUSH2 0x4294 JUMPI RETURNDATASIZE PUSH1 0x0 DUP1 RETURNDATACOPY RETURNDATASIZE PUSH1 0x0 REVERT JUMPDEST POP POP POP POP PUSH1 0x40 MLOAD RETURNDATASIZE PUSH1 0x1F NOT PUSH1 0x1F DUP3 ADD AND DUP3 ADD DUP1 PUSH1 0x40 MSTORE POP DUP2 ADD SWAP1 PUSH2 0x42B8 SWAP2 SWAP1 PUSH2 0x5DB9 JUMP JUMPDEST PUSH1 0x40 MLOAD DUP3 PUSH4 0xFFFFFFFF AND PUSH1 0xE0 SHL DUP2 MSTORE PUSH1 0x4 ADD PUSH2 0x42D4 SWAP2 SWAP1 PUSH2 0x54B5 JUMP JUMPDEST PUSH1 0x20 PUSH1 0x40 MLOAD DUP1 DUP4 SUB DUP2 DUP7 GAS STATICCALL ISZERO DUP1 ISZERO PUSH2 0x42F1 JUMPI RETURNDATASIZE PUSH1 0x0 DUP1 RETURNDATACOPY RETURNDATASIZE PUSH1 0x0 REVERT JUMPDEST POP POP POP POP PUSH1 0x40 MLOAD RETURNDATASIZE PUSH1 0x1F NOT PUSH1 0x1F DUP3 ADD AND DUP3 ADD DUP1 PUSH1 0x40 MSTORE POP DUP2 ADD SWAP1 PUSH2 0x4315 SWAP2 SWAP1 PUSH2 0x5DB9 JUMP JUMPDEST SWAP1 POP PUSH1 0x0 PUSH2 0x4323 DUP6 DUP5 PUSH2 0x35DF JUMP JUMPDEST SWAP1 POP DUP1 ISZERO PUSH2 0x4429 JUMPI PUSH2 0x4335 DUP2 DUP5 PUSH2 0x5E6F JUMP JUMPDEST DUP3 LT ISZERO PUSH2 0x436F JUMPI PUSH1 0x0 PUSH2 0x4348 DUP3 DUP6 PUSH2 0x5E6F JUMP JUMPDEST SWAP1 POP DUP1 PUSH2 0x4355 DUP5 DUP5 PUSH2 0x5DF0 JUMP JUMPDEST PUSH2 0x435F SWAP2 SWAP1 PUSH2 0x5E25 JUMP JUMPDEST SWAP2 POP PUSH2 0x436B DUP3 DUP5 PUSH2 0x5E82 JUMP JUMPDEST SWAP4 POP POP JUMPDEST PUSH2 0x4379 DUP2 DUP5 PUSH2 0x5E6F JUMP JUMPDEST SWAP3 POP DUP1 DUP9 PUSH1 0x0 ADD DUP2 DUP2 MLOAD PUSH2 0x438D SWAP2 SWAP1 PUSH2 0x5E6F JUMP JUMPDEST SWAP1 MSTORE POP PUSH1 0x60 DUP9 ADD DUP1 MLOAD DUP3 SWAP2 SWAP1 PUSH2 0x43A4 SWAP1 DUP4 SWAP1 PUSH2 0x5E6F JUMP JUMPDEST SWAP1 MSTORE POP PUSH1 0x40 DUP9 ADD DUP1 MLOAD DUP3 SWAP2 SWAP1 PUSH2 0x43BB SWAP1 DUP4 SWAP1 PUSH2 0x5E6F JUMP JUMPDEST SWAP1 MSTORE POP DUP2 ISZERO DUP1 ISZERO PUSH2 0x43CC JUMPI POP PUSH1 0x0 DUP2 GT JUMPDEST ISZERO PUSH2 0x4429 JUMPI PUSH1 0x0 PUSH2 0x43DD DUP3 DUP7 PUSH2 0x5E6F JUMP JUMPDEST PUSH1 0x1 PUSH1 0x1 PUSH1 0xA0 SHL SUB DUP8 AND PUSH1 0x0 DUP2 DUP2 MSTORE PUSH1 0x2 PUSH1 0x20 DUP2 SWAP1 MSTORE PUSH1 0x40 SWAP2 DUP3 SWAP1 KECCAK256 ADD DUP4 SWAP1 SSTORE MLOAD SWAP2 SWAP3 POP SWAP1 PUSH1 0x0 DUP1 MLOAD PUSH1 0x20 PUSH2 0x7262 DUP4 CODECOPY DUP2 MLOAD SWAP2 MSTORE SWAP1 PUSH2 0x441F SWAP1 DUP9 SWAP1 DUP6 SWAP1 PUSH2 0x5ACD JUMP JUMPDEST PUSH1 0x40 MLOAD DUP1 SWAP2 SUB SWAP1 LOG2 POP JUMPDEST PUSH2 0x4433 DUP4 DUP4 PUSH2 0x2B29 JUMP JUMPDEST SWAP3 POP DUP3 PUSH1 0x0 SUB PUSH2 0x4447 JUMPI POP POP POP POP POP PUSH2 0x462C JUMP JUMPDEST PUSH2 0x4451 DUP6 DUP5 PUSH2 0x47D7 JUMP JUMPDEST PUSH1 0x40 MLOAD PUSH4 0x70A08231 PUSH1 0xE0 SHL DUP2 MSTORE PUSH1 0x0 SWAP1 PUSH1 0x1 PUSH1 0x1 PUSH1 0xA0 SHL SUB PUSH32 0x0 AND SWAP1 PUSH4 0x70A08231 SWAP1 PUSH2 0x44A0 SWAP1 ADDRESS SWAP1 PUSH1 0x4 ADD PUSH2 0x54A1 JUMP JUMPDEST PUSH1 0x20 PUSH1 0x40 MLOAD DUP1 DUP4 SUB DUP2 DUP7 GAS STATICCALL ISZERO DUP1 ISZERO PUSH2 0x44BD JUMPI RETURNDATASIZE PUSH1 0x0 DUP1 RETURNDATACOPY RETURNDATASIZE PUSH1 0x0 REVERT JUMPDEST POP POP POP POP PUSH1 0x40 MLOAD RETURNDATASIZE PUSH1 0x1F NOT PUSH1 0x1F DUP3 ADD AND DUP3 ADD DUP1 PUSH1 0x40 MSTORE POP DUP2 ADD SWAP1 PUSH2 0x44E1 SWAP2 SWAP1 PUSH2 0x5DB9 JUMP JUMPDEST SWAP1 POP PUSH1 0x0 DUP10 PUSH1 0x80 ADD MLOAD DUP3 PUSH2 0x44F5 SWAP2 SWAP1 PUSH2 0x5E6F JUMP JUMPDEST SWAP1 POP PUSH1 0x0 DUP6 DUP3 GT ISZERO PUSH2 0x452C JUMPI DUP7 DUP3 GT ISZERO PUSH2 0x4511 JUMPI DUP7 SWAP6 POP PUSH2 0x4541 JUMP JUMPDEST PUSH2 0x451B DUP7 DUP4 PUSH2 0x5E6F JUMP JUMPDEST PUSH2 0x4525 SWAP1 DUP8 PUSH2 0x5E82 JUMP JUMPDEST SWAP6 POP PUSH2 0x4541 JUMP JUMPDEST DUP6 DUP3 LT ISZERO PUSH2 0x4541 JUMPI PUSH2 0x453E DUP3 DUP8 PUSH2 0x5E6F JUMP JUMPDEST SWAP1 POP JUMPDEST PUSH2 0x454B DUP2 DUP8 PUSH2 0x5E6F JUMP JUMPDEST DUP12 PUSH1 0x20 ADD DUP2 DUP2 MLOAD PUSH2 0x455C SWAP2 SWAP1 PUSH2 0x5E82 JUMP JUMPDEST SWAP1 MSTORE POP DUP11 MLOAD DUP2 SWAP1 DUP13 SWAP1 PUSH2 0x4570 SWAP1 DUP4 SWAP1 PUSH2 0x5E6F JUMP JUMPDEST SWAP1 MSTORE POP PUSH1 0x40 DUP12 ADD DUP1 MLOAD DUP8 SWAP2 SWAP1 PUSH2 0x4587 SWAP1 DUP4 SWAP1 PUSH2 0x5E6F JUMP JUMPDEST SWAP1 MSTORE POP PUSH1 0x0 PUSH2 0x4596 DUP6 DUP9 PUSH2 0x5E82 JUMP JUMPDEST PUSH2 0x45A0 SWAP1 DUP10 PUSH2 0x5E6F JUMP JUMPDEST PUSH1 0x1 PUSH1 0x1 PUSH1 0xA0 SHL SUB DUP11 AND PUSH1 0x0 DUP2 DUP2 MSTORE PUSH1 0x2 PUSH1 0x20 DUP2 SWAP1 MSTORE PUSH1 0x40 SWAP2 DUP3 SWAP1 KECCAK256 ADD DUP4 SWAP1 SSTORE MLOAD SWAP2 SWAP3 POP SWAP1 PUSH1 0x0 DUP1 MLOAD PUSH1 0x20 PUSH2 0x7262 DUP4 CODECOPY DUP2 MLOAD SWAP2 MSTORE SWAP1 PUSH2 0x45E2 SWAP1 DUP12 SWAP1 DUP6 SWAP1 PUSH2 0x5ACD JUMP JUMPDEST PUSH1 0x40 MLOAD DUP1 SWAP2 SUB SWAP1 LOG2 PUSH1 0x20 DUP13 ADD MLOAD DUP13 MLOAD GT PUSH2 0x4604 JUMPI POP POP POP POP POP POP POP POP POP PUSH2 0x463E JUMP JUMPDEST PUSH1 0x80 DUP13 ADD DUP5 SWAP1 MSTORE PUSH1 0x60 DUP13 ADD DUP1 MLOAD DUP9 SWAP2 SWAP1 PUSH2 0x461F SWAP1 DUP4 SWAP1 PUSH2 0x5E6F JUMP JUMPDEST SWAP1 MSTORE POP POP POP POP POP POP POP POP POP POP JUMPDEST DUP1 PUSH2 0x4636 DUP2 PUSH2 0x5F39 JUMP JUMPDEST SWAP2 POP POP PUSH2 0x419B JUMP JUMPDEST POP DUP2 MLOAD PUSH1 0x20 DUP4 ADD MLOAD LT ISZERO PUSH2 0x4664 JUMPI PUSH1 0x40 MLOAD PUSH3 0x461BCD PUSH1 0xE5 SHL DUP2 MSTORE PUSH1 0x4 ADD PUSH2 0x1038 SWAP1 PUSH2 0x6CF0 JUMP JUMPDEST POP PUSH1 0x40 DUP2 ADD MLOAD PUSH1 0x8 SSTORE JUMPDEST DUP1 MLOAD PUSH1 0x20 SWAP1 SWAP2 ADD MLOAD SWAP1 SWAP3 POP SWAP1 POP JUMPDEST SWAP3 POP SWAP3 SWAP1 POP JUMP JUMPDEST DUP3 DUP5 GT DUP1 ISZERO PUSH2 0x4693 JUMPI POP PUSH2 0x2710 DUP2 LT JUMPDEST ISZERO PUSH2 0x46D7 JUMPI PUSH2 0x2710 PUSH2 0x46A5 DUP3 DUP7 PUSH2 0x5DF0 JUMP JUMPDEST PUSH2 0x46AF SWAP2 SWAP1 PUSH2 0x5E25 JUMP JUMPDEST PUSH2 0x46B9 DUP5 DUP7 PUSH2 0x5E6F JUMP JUMPDEST GT ISZERO PUSH2 0x46D7 JUMPI PUSH1 0x40 MLOAD PUSH3 0x461BCD PUSH1 0xE5 SHL DUP2 MSTORE PUSH1 0x4 ADD PUSH2 0x1038 SWAP1 PUSH2 0x6D24 JUMP JUMPDEST PUSH2 0x46E1 DUP6 DUP8 PUSH2 0x3A81 JUMP JUMPDEST POP PUSH2 0x46EC DUP4 DUP4 PUSH2 0x5E6F JUMP JUMPDEST PUSH1 0x9 SSTORE PUSH2 0x471A PUSH32 0x0 DUP9 DUP6 PUSH2 0x2DD8 JUMP JUMPDEST POP POP POP POP POP POP POP POP JUMP JUMPDEST PUSH2 0x472E DUP3 DUP3 PUSH2 0x18CD JUMP JUMPDEST PUSH2 0xFCA JUMPI PUSH2 0x473B DUP2 PUSH2 0x51DF JUMP JUMPDEST PUSH2 0x4746 DUP4 PUSH1 0x20 PUSH2 0x51F1 JUMP JUMPDEST PUSH1 0x40 MLOAD PUSH1 0x20 ADD PUSH2 0x4757 SWAP3 SWAP2 SWAP1 PUSH2 0x6D56 JUMP JUMPDEST PUSH1 0x40 DUP1 MLOAD PUSH1 0x1F NOT DUP2 DUP5 SUB ADD DUP2 MSTORE SWAP1 DUP3 SWAP1 MSTORE PUSH3 0x461BCD PUSH1 0xE5 SHL DUP3 MSTORE PUSH2 0x1038 SWAP2 PUSH1 0x4 ADD PUSH2 0x5743 JUMP JUMPDEST PUSH1 0x1 PUSH1 0x1 PUSH1 0xA0 SHL SUB DUP1 DUP5 AND PUSH1 0x0 SWAP1 DUP2 MSTORE PUSH1 0x6 PUSH1 0x20 SWAP1 DUP2 MSTORE PUSH1 0x40 DUP1 DUP4 KECCAK256 SWAP4 DUP7 AND DUP4 MSTORE SWAP3 SWAP1 MSTORE KECCAK256 SLOAD DUP2 DUP2 LT ISZERO PUSH2 0x47C3 JUMPI PUSH1 0x40 MLOAD PUSH3 0x461BCD PUSH1 0xE5 SHL DUP2 MSTORE PUSH1 0x4 ADD PUSH2 0x1038 SWAP1 PUSH2 0x6DDC JUMP JUMPDEST PUSH2 0x2DD1 DUP5 DUP5 PUSH2 0x47D2 DUP6 DUP6 PUSH2 0x5E6F JUMP JUMPDEST PUSH2 0x2155 JUMP JUMPDEST PUSH1 0x0 PUSH2 0x48BB DUP4 PUSH1 0x1 PUSH1 0x1 PUSH1 0xA0 SHL SUB AND PUSH4 0xA28A477 DUP5 PUSH1 0x40 MLOAD DUP3 PUSH4 0xFFFFFFFF AND PUSH1 0xE0 SHL DUP2 MSTORE PUSH1 0x4 ADD PUSH2 0x4808 SWAP2 SWAP1 PUSH2 0x54B5 JUMP JUMPDEST PUSH1 0x20 PUSH1 0x40 MLOAD DUP1 DUP4 SUB DUP2 DUP7 GAS STATICCALL ISZERO DUP1 ISZERO PUSH2 0x4825 JUMPI RETURNDATASIZE PUSH1 0x0 DUP1 RETURNDATACOPY RETURNDATASIZE PUSH1 0x0 REVERT JUMPDEST POP POP POP POP PUSH1 0x40 MLOAD RETURNDATASIZE PUSH1 0x1F NOT PUSH1 0x1F DUP3 ADD AND DUP3 ADD DUP1 PUSH1 0x40 MSTORE POP DUP2 ADD SWAP1 PUSH2 0x4849 SWAP2 SWAP1 PUSH2 0x5DB9 JUMP JUMPDEST PUSH1 0x40 MLOAD PUSH4 0x70A08231 PUSH1 0xE0 SHL DUP2 MSTORE PUSH1 0x1 PUSH1 0x1 PUSH1 0xA0 SHL SUB DUP7 AND SWAP1 PUSH4 0x70A08231 SWAP1 PUSH2 0x4875 SWAP1 ADDRESS SWAP1 PUSH1 0x4 ADD PUSH2 0x54A1 JUMP JUMPDEST PUSH1 0x20 PUSH1 0x40 MLOAD DUP1 DUP4 SUB DUP2 DUP7 GAS STATICCALL ISZERO DUP1 ISZERO PUSH2 0x4892 JUMPI RETURNDATASIZE PUSH1 0x0 DUP1 RETURNDATACOPY RETURNDATASIZE PUSH1 0x0 REVERT JUMPDEST POP POP POP POP PUSH1 0x40 MLOAD RETURNDATASIZE PUSH1 0x1F NOT PUSH1 0x1F DUP3 ADD AND DUP3 ADD DUP1 PUSH1 0x40 MSTORE POP DUP2 ADD SWAP1 PUSH2 0x48B6 SWAP2 SWAP1 PUSH2 0x5DB9 JUMP JUMPDEST PUSH2 0x2B29 JUMP JUMPDEST PUSH1 0x40 MLOAD PUSH4 0x5D043B29 PUSH1 0xE1 SHL DUP2 MSTORE SWAP1 SWAP2 POP PUSH1 0x1 PUSH1 0x1 PUSH1 0xA0 SHL SUB DUP5 AND SWAP1 PUSH4 0xBA087652 SWAP1 PUSH2 0x48EE SWAP1 DUP5 SWAP1 ADDRESS SWAP1 DUP2 SWAP1 PUSH1 0x4 ADD PUSH2 0x6DEC JUMP JUMPDEST PUSH1 0x20 PUSH1 0x40 MLOAD DUP1 DUP4 SUB DUP2 PUSH1 0x0 DUP8 GAS CALL ISZERO DUP1 ISZERO PUSH2 0x490D JUMPI RETURNDATASIZE PUSH1 0x0 DUP1 RETURNDATACOPY RETURNDATASIZE PUSH1 0x0 REVERT JUMPDEST POP POP POP POP PUSH1 0x40 MLOAD RETURNDATASIZE PUSH1 0x1F NOT PUSH1 0x1F DUP3 ADD AND DUP3 ADD DUP1 PUSH1 0x40 MSTORE POP DUP2 ADD SWAP1 PUSH2 0x2EB7 SWAP2 SWAP1 PUSH2 0x5DB9 JUMP JUMPDEST PUSH1 0x1 PUSH1 0x1 PUSH1 0xA0 SHL SUB DUP4 AND PUSH2 0x4957 JUMPI PUSH1 0x40 MLOAD PUSH3 0x461BCD PUSH1 0xE5 SHL DUP2 MSTORE PUSH1 0x4 ADD PUSH2 0x1038 SWAP1 PUSH2 0x6568 JUMP JUMPDEST PUSH1 0x1 PUSH1 0x1 PUSH1 0xA0 SHL SUB DUP3 AND PUSH2 0x497D JUMPI PUSH1 0x40 MLOAD PUSH3 0x461BCD PUSH1 0xE5 SHL DUP2 MSTORE PUSH1 0x4 ADD PUSH2 0x1038 SWAP1 PUSH2 0x6E48 JUMP JUMPDEST PUSH1 0x40 MLOAD PUSH4 0x95EA7B3 PUSH1 0xE0 SHL DUP2 MSTORE PUSH1 0x0 SWAP1 PUSH1 0x1 PUSH1 0x1 PUSH1 0xA0 SHL SUB DUP6 AND SWAP1 PUSH4 0x95EA7B3 SWAP1 PUSH2 0x49AE SWAP1 DUP7 SWAP1 DUP7 SWAP1 PUSH1 0x4 ADD PUSH2 0x668A JUMP JUMPDEST PUSH1 0x20 PUSH1 0x40 MLOAD DUP1 DUP4 SUB DUP2 PUSH1 0x0 DUP8 GAS CALL ISZERO DUP1 ISZERO PUSH2 0x49CD JUMPI RETURNDATASIZE PUSH1 0x0 DUP1 RETURNDATACOPY RETURNDATASIZE PUSH1 0x0 REVERT JUMPDEST POP POP POP POP PUSH1 0x40 MLOAD RETURNDATASIZE PUSH1 0x1F NOT PUSH1 0x1F DUP3 ADD AND DUP3 ADD DUP1 PUSH1 0x40 MSTORE POP DUP2 ADD SWAP1 PUSH2 0x49F1 SWAP2 SWAP1 PUSH2 0x6633 JUMP JUMPDEST SWAP1 POP DUP1 PUSH2 0x2EB7 JUMPI PUSH1 0x40 MLOAD PUSH3 0x461BCD PUSH1 0xE5 SHL DUP2 MSTORE PUSH1 0x4 ADD PUSH2 0x1038 SWAP1 PUSH2 0x6E7E JUMP JUMPDEST PUSH1 0x0 PUSH1 0x1 PUSH1 0x1 PUSH1 0xA0 SHL SUB DUP3 AND PUSH2 0x4A38 JUMPI PUSH1 0x40 MLOAD PUSH3 0x461BCD PUSH1 0xE5 SHL DUP2 MSTORE PUSH1 0x4 ADD PUSH2 0x1038 SWAP1 PUSH2 0x6A9A JUMP JUMPDEST PUSH1 0x0 PUSH2 0x4A42 PUSH2 0x2493 JUMP JUMPDEST SWAP1 POP PUSH1 0x0 PUSH2 0x4A4E PUSH2 0x1FDF JUMP JUMPDEST SWAP1 POP PUSH1 0x0 DUP3 PUSH1 0x0 SUB PUSH2 0x4A61 JUMPI POP DUP5 PUSH2 0x4AA6 JUMP JUMPDEST DUP6 DUP3 GT ISZERO PUSH2 0x4A8E JUMPI PUSH2 0x4A73 DUP7 DUP4 PUSH2 0x5E6F JUMP JUMPDEST PUSH2 0x4A7D DUP5 DUP9 PUSH2 0x5DF0 JUMP JUMPDEST PUSH2 0x4A87 SWAP2 SWAP1 PUSH2 0x5E25 JUMP JUMPDEST SWAP1 POP PUSH2 0x4AA6 JUMP JUMPDEST PUSH1 0x40 MLOAD PUSH3 0x461BCD PUSH1 0xE5 SHL DUP2 MSTORE PUSH1 0x4 ADD PUSH2 0x1038 SWAP1 PUSH2 0x6EB4 JUMP JUMPDEST DUP1 PUSH1 0x0 SUB PUSH2 0x4ABA JUMPI PUSH1 0x0 SWAP4 POP POP POP POP PUSH2 0xE6C JUMP JUMPDEST PUSH2 0x4AC4 DUP2 DUP7 PUSH2 0x3D47 JUMP JUMPDEST POP SWAP6 SWAP5 POP POP POP POP POP JUMP JUMPDEST PUSH1 0x0 PUSH2 0x4AD8 PUSH2 0x38B5 JUMP JUMPDEST SWAP1 POP DUP1 PUSH1 0x0 SUB PUSH2 0x4AE5 JUMPI POP JUMP JUMPDEST TIMESTAMP PUSH1 0x14 SLOAD GT ISZERO PUSH2 0x4AF4 JUMPI TIMESTAMP PUSH1 0x16 SSTORE JUMPDEST PUSH2 0xFCA DUP2 ADDRESS PUSH2 0x3A81 JUMP JUMPDEST PUSH1 0x0 DUP1 PUSH1 0x0 DUP4 PUSH1 0x1 PUSH1 0x1 PUSH1 0xA0 SHL SUB AND PUSH4 0x70A08231 ADDRESS PUSH1 0x40 MLOAD DUP3 PUSH4 0xFFFFFFFF AND PUSH1 0xE0 SHL DUP2 MSTORE PUSH1 0x4 ADD PUSH2 0x4B2F SWAP2 SWAP1 PUSH2 0x54A1 JUMP JUMPDEST PUSH1 0x20 PUSH1 0x40 MLOAD DUP1 DUP4 SUB DUP2 DUP7 GAS STATICCALL ISZERO DUP1 ISZERO PUSH2 0x4B4C JUMPI RETURNDATASIZE PUSH1 0x0 DUP1 RETURNDATACOPY RETURNDATASIZE PUSH1 0x0 REVERT JUMPDEST POP POP POP POP PUSH1 0x40 MLOAD RETURNDATASIZE PUSH1 0x1F NOT PUSH1 0x1F DUP3 ADD AND DUP3 ADD DUP1 PUSH1 0x40 MSTORE POP DUP2 ADD SWAP1 PUSH2 0x4B70 SWAP2 SWAP1 PUSH2 0x5DB9 JUMP JUMPDEST SWAP1 POP PUSH1 0x0 DUP5 PUSH1 0x1 PUSH1 0x1 PUSH1 0xA0 SHL SUB AND PUSH4 0x7A2D13A DUP4 PUSH1 0x40 MLOAD DUP3 PUSH4 0xFFFFFFFF AND PUSH1 0xE0 SHL DUP2 MSTORE PUSH1 0x4 ADD PUSH2 0x4BA0 SWAP2 SWAP1 PUSH2 0x54B5 JUMP JUMPDEST PUSH1 0x20 PUSH1 0x40 MLOAD DUP1 DUP4 SUB DUP2 DUP7 GAS STATICCALL ISZERO DUP1 ISZERO PUSH2 0x4BBD JUMPI RETURNDATASIZE PUSH1 0x0 DUP1 RETURNDATACOPY RETURNDATASIZE PUSH1 0x0 REVERT JUMPDEST POP POP POP POP PUSH1 0x40 MLOAD RETURNDATASIZE PUSH1 0x1F NOT PUSH1 0x1F DUP3 ADD AND DUP3 ADD DUP1 PUSH1 0x40 MSTORE POP DUP2 ADD SWAP1 PUSH2 0x4BE1 SWAP2 SWAP1 PUSH2 0x5DB9 JUMP JUMPDEST PUSH1 0x1 PUSH1 0x1 PUSH1 0xA0 SHL SUB DUP7 AND PUSH1 0x0 SWAP1 DUP2 MSTORE PUSH1 0x2 PUSH1 0x20 DUP2 SWAP1 MSTORE PUSH1 0x40 DUP3 KECCAK256 ADD SLOAD SWAP2 SWAP3 POP DUP1 DUP3 DUP5 GT ISZERO PUSH2 0x4C1A JUMPI PUSH2 0x4C13 DUP4 DUP6 PUSH2 0x5E6F JUMP JUMPDEST SWAP2 POP PUSH2 0x4C27 JUMP JUMPDEST PUSH2 0x4C24 DUP5 DUP5 PUSH2 0x5E6F JUMP JUMPDEST SWAP1 POP JUMPDEST SWAP1 SWAP8 SWAP1 SWAP7 POP SWAP5 POP POP POP POP POP JUMP JUMPDEST PUSH2 0x4C3C PUSH2 0x5414 JUMP JUMPDEST PUSH2 0x4C44 PUSH2 0x5414 JUMP JUMPDEST PUSH1 0xC SLOAD PUSH1 0x1 PUSH1 0x1 PUSH1 0xA0 SHL SUB AND ISZERO PUSH2 0x104C JUMPI PUSH1 0xC SLOAD PUSH1 0x40 MLOAD PUSH4 0x921F8A8F PUSH1 0xE0 SHL DUP2 MSTORE PUSH1 0x1 PUSH1 0x1 PUSH1 0xA0 SHL SUB SWAP1 SWAP2 AND SWAP1 PUSH4 0x921F8A8F SWAP1 PUSH2 0x4C89 SWAP1 DUP9 SWAP1 DUP9 SWAP1 DUP9 SWAP1 PUSH1 0x4 ADD PUSH2 0x6EC4 JUMP JUMPDEST PUSH1 0x40 DUP1 MLOAD DUP1 DUP4 SUB DUP2 PUSH1 0x0 DUP8 GAS CALL ISZERO DUP1 ISZERO PUSH2 0x4CA7 JUMPI RETURNDATASIZE PUSH1 0x0 DUP1 RETURNDATACOPY RETURNDATASIZE PUSH1 0x0 REVERT JUMPDEST POP POP POP POP PUSH1 0x40 MLOAD RETURNDATASIZE PUSH1 0x1F NOT PUSH1 0x1F DUP3 ADD AND DUP3 ADD DUP1 PUSH1 0x40 MSTORE POP DUP2 ADD SWAP1 PUSH2 0x4CCB SWAP2 SWAP1 PUSH2 0x6EDF JUMP JUMPDEST PUSH1 0x20 DUP4 ADD MSTORE DUP1 DUP3 MSTORE ISZERO PUSH2 0x104C JUMPI PUSH1 0x0 PUSH32 0x0 PUSH1 0x1 PUSH1 0x1 PUSH1 0xA0 SHL SUB AND PUSH4 0x7D3277F PUSH1 0x40 MLOAD DUP2 PUSH4 0xFFFFFFFF AND PUSH1 0xE0 SHL DUP2 MSTORE PUSH1 0x4 ADD PUSH1 0x40 DUP1 MLOAD DUP1 DUP4 SUB DUP2 DUP7 GAS STATICCALL ISZERO DUP1 ISZERO PUSH2 0x4D37 JUMPI RETURNDATASIZE PUSH1 0x0 DUP1 RETURNDATACOPY RETURNDATASIZE PUSH1 0x0 REVERT JUMPDEST POP POP POP POP PUSH1 0x40 MLOAD RETURNDATASIZE PUSH1 0x1F NOT PUSH1 0x1F DUP3 ADD AND DUP3 ADD DUP1 PUSH1 0x40 MSTORE POP DUP2 ADD SWAP1 PUSH2 0x4D5B SWAP2 SWAP1 PUSH2 0x6F27 JUMP JUMPDEST PUSH1 0x1 PUSH1 0x1 PUSH1 0xA0 SHL SUB AND PUSH1 0x60 DUP5 ADD MSTORE SWAP1 POP PUSH2 0xFFFF DUP2 AND ISZERO PUSH2 0x2B20 JUMPI DUP2 MLOAD PUSH2 0x2710 SWAP1 PUSH2 0x4D8A SWAP1 PUSH2 0xFFFF DUP5 AND SWAP1 PUSH2 0x5DF0 JUMP JUMPDEST PUSH2 0x4D94 SWAP2 SWAP1 PUSH2 0x5E25 JUMP JUMPDEST PUSH1 0x40 DUP4 ADD MSTORE POP SWAP5 SWAP4 POP POP POP POP JUMP JUMPDEST PUSH2 0x4DAA PUSH2 0x5445 JUMP JUMPDEST PUSH2 0x4DB2 PUSH2 0x5445 JUMP JUMPDEST PUSH1 0x0 PUSH2 0x4DBE DUP6 DUP8 PUSH2 0x5E82 JUMP JUMPDEST GT ISZERO PUSH2 0x104C JUMPI PUSH2 0x4DD8 PUSH2 0x4DD1 DUP6 DUP8 PUSH2 0x5E82 JUMP JUMPDEST PUSH1 0x1 PUSH2 0x21D3 JUMP JUMPDEST DUP2 MLOAD DUP3 SWAP1 PUSH2 0x4DE7 SWAP1 DUP4 SWAP1 PUSH2 0x5E82 JUMP JUMPDEST SWAP1 MSTORE POP DUP4 ISZERO PUSH2 0x104C JUMPI PUSH2 0x4E04 PUSH2 0x4DFD DUP5 DUP7 PUSH2 0x5E6F JUMP JUMPDEST PUSH1 0x0 PUSH2 0x21D3 JUMP JUMPDEST PUSH1 0x20 DUP3 ADD MSTORE DUP3 ISZERO PUSH2 0x104C JUMPI PUSH2 0x4E1A DUP4 PUSH1 0x0 PUSH2 0x21D3 JUMP JUMPDEST PUSH1 0x40 DUP3 ADD MSTORE SWAP5 SWAP4 POP POP POP POP JUMP JUMPDEST PUSH1 0x0 DUP1 PUSH1 0x0 DUP1 DUP8 PUSH1 0x20 ADD MLOAD GT ISZERO PUSH2 0x4F8C JUMPI PUSH1 0x20 DUP8 ADD MLOAD PUSH1 0xC SLOAD PUSH1 0x40 MLOAD PUSH4 0x70A08231 PUSH1 0xE0 SHL DUP2 MSTORE PUSH2 0x4F2F SWAP3 SWAP2 PUSH2 0x48B6 SWAP2 PUSH1 0x1 PUSH1 0x1 PUSH1 0xA0 SHL SUB PUSH32 0x0 DUP2 AND SWAP3 PUSH4 0x70A08231 SWAP3 PUSH2 0x4E99 SWAP3 SWAP2 SWAP1 SWAP2 AND SWAP1 PUSH1 0x4 ADD PUSH2 0x54A1 JUMP JUMPDEST PUSH1 0x20 PUSH1 0x40 MLOAD DUP1 DUP4 SUB DUP2 DUP7 GAS STATICCALL ISZERO DUP1 ISZERO PUSH2 0x4EB6 JUMPI RETURNDATASIZE PUSH1 0x0 DUP1 RETURNDATACOPY RETURNDATASIZE PUSH1 0x0 REVERT JUMPDEST POP POP POP POP PUSH1 0x40 MLOAD RETURNDATASIZE PUSH1 0x1F NOT PUSH1 0x1F DUP3 ADD AND DUP3 ADD DUP1 PUSH1 0x40 MSTORE POP DUP2 ADD SWAP1 PUSH2 0x4EDA SWAP2 SWAP1 PUSH2 0x5DB9 JUMP JUMPDEST PUSH1 0xC SLOAD PUSH1 0x40 MLOAD PUSH4 0x6EB1769F PUSH1 0xE1 SHL DUP2 MSTORE PUSH1 0x1 PUSH1 0x1 PUSH1 0xA0 SHL SUB PUSH32 0x0 DUP2 AND SWAP3 PUSH4 0xDD62ED3E SWAP3 PUSH2 0x4875 SWAP3 SWAP2 SWAP1 SWAP2 AND SWAP1 ADDRESS SWAP1 PUSH1 0x4 ADD PUSH2 0x6F5A JUMP JUMPDEST PUSH1 0x20 DUP9 ADD DUP2 SWAP1 MSTORE PUSH1 0xC SLOAD PUSH2 0x4F70 SWAP2 PUSH32 0x0 SWAP2 PUSH1 0x1 PUSH1 0x1 PUSH1 0xA0 SHL SUB AND SWAP1 ADDRESS SWAP1 PUSH2 0x2CCA JUMP JUMPDEST DUP7 PUSH1 0x20 ADD MLOAD PUSH1 0x9 PUSH1 0x0 DUP3 DUP3 SLOAD PUSH2 0x4F86 SWAP2 SWAP1 PUSH2 0x5E82 JUMP JUMPDEST SWAP1 SWAP2 SSTORE POP POP JUMPDEST DUP6 ISZERO PUSH2 0x4FDC JUMPI PUSH1 0x1 PUSH1 0x1 PUSH1 0xA0 SHL SUB DUP5 AND PUSH1 0x0 SWAP1 DUP2 MSTORE PUSH1 0x2 PUSH1 0x20 DUP2 SWAP1 MSTORE PUSH1 0x40 DUP3 KECCAK256 ADD DUP1 SLOAD DUP9 SWAP3 SWAP1 PUSH2 0x4FBD SWAP1 DUP5 SWAP1 PUSH2 0x5E82 JUMP JUMPDEST SWAP3 POP POP DUP2 SWAP1 SSTORE POP DUP6 PUSH1 0x8 PUSH1 0x0 DUP3 DUP3 SLOAD PUSH2 0x4FD6 SWAP2 SWAP1 PUSH2 0x5E82 JUMP JUMPDEST SWAP1 SWAP2 SSTORE POP POP JUMPDEST PUSH1 0x0 DUP8 PUSH1 0x20 ADD MLOAD DUP8 PUSH2 0x4FEE SWAP2 SWAP1 PUSH2 0x5E82 JUMP JUMPDEST GT DUP1 ISZERO PUSH2 0x4FFC JUMPI POP PUSH1 0x13 SLOAD ISZERO ISZERO JUMPDEST ISZERO PUSH2 0x501D JUMPI PUSH2 0x501A DUP8 PUSH1 0x20 ADD MLOAD DUP8 PUSH2 0x5014 SWAP2 SWAP1 PUSH2 0x5E82 JUMP JUMPDEST ADDRESS PUSH2 0x4A10 JUMP JUMPDEST SWAP1 POP JUMPDEST DUP5 ISZERO PUSH2 0x506D JUMPI PUSH1 0x1 PUSH1 0x1 PUSH1 0xA0 SHL SUB DUP5 AND PUSH1 0x0 SWAP1 DUP2 MSTORE PUSH1 0x2 PUSH1 0x20 DUP2 SWAP1 MSTORE PUSH1 0x40 DUP3 KECCAK256 ADD DUP1 SLOAD DUP8 SWAP3 SWAP1 PUSH2 0x504E SWAP1 DUP5 SWAP1 PUSH2 0x5E6F JUMP JUMPDEST SWAP3 POP POP DUP2 SWAP1 SSTORE POP DUP5 PUSH1 0x8 PUSH1 0x0 DUP3 DUP3 SLOAD PUSH2 0x5067 SWAP2 SWAP1 PUSH2 0x5E6F JUMP JUMPDEST SWAP1 SWAP2 SSTORE POP POP JUMPDEST ADDRESS PUSH1 0x0 SWAP1 DUP2 MSTORE PUSH1 0x5 PUSH1 0x20 MSTORE PUSH1 0x40 DUP2 KECCAK256 SLOAD PUSH2 0x5088 SWAP1 DUP4 SWAP1 PUSH2 0x5E6F JUMP JUMPDEST DUP10 MLOAD SWAP1 SWAP2 POP ISZERO PUSH2 0x50EA JUMPI DUP9 MLOAD PUSH2 0x50A2 SWAP1 PUSH2 0x48B6 DUP5 DUP5 PUSH2 0x5E82 JUMP JUMPDEST DUP1 DUP11 MSTORE PUSH2 0x50AF SWAP1 ADDRESS PUSH2 0x3A81 JUMP JUMPDEST POP PUSH1 0x0 PUSH2 0x50C0 DUP11 PUSH1 0x0 ADD MLOAD DUP5 PUSH2 0x2B29 JUMP JUMPDEST SWAP1 POP PUSH2 0x50CC DUP2 DUP5 PUSH2 0x5E6F JUMP JUMPDEST DUP11 MLOAD SWAP1 SWAP4 POP PUSH2 0x50DC SWAP1 DUP3 SWAP1 PUSH2 0x5E6F JUMP JUMPDEST PUSH2 0x50E6 SWAP1 DUP4 PUSH2 0x5E6F JUMP JUMPDEST SWAP2 POP POP JUMPDEST PUSH1 0x20 DUP10 ADD MLOAD ISZERO PUSH2 0x5111 JUMPI PUSH1 0x20 DUP10 ADD MLOAD PUSH1 0xC SLOAD PUSH2 0x510F SWAP2 SWAP1 PUSH1 0x1 PUSH1 0x1 PUSH1 0xA0 SHL SUB AND PUSH2 0x3D47 JUMP JUMPDEST POP JUMPDEST PUSH1 0x40 DUP10 ADD MLOAD ISZERO PUSH2 0x512F JUMPI PUSH2 0x512D DUP10 PUSH1 0x40 ADD MLOAD DUP10 PUSH1 0x60 ADD MLOAD PUSH2 0x3D47 JUMP JUMPDEST POP JUMPDEST SWAP9 SWAP1 SWAP8 POP SWAP6 POP POP POP POP POP POP JUMP JUMPDEST PUSH1 0x0 PUSH2 0x5148 DUP3 DUP5 PUSH2 0x5E82 JUMP JUMPDEST SWAP1 POP DUP1 ISZERO PUSH2 0x51D3 JUMPI PUSH1 0x0 TIMESTAMP PUSH1 0x14 SLOAD GT ISZERO PUSH2 0x5177 JUMPI TIMESTAMP PUSH1 0x14 SLOAD PUSH2 0x516A SWAP2 SWAP1 PUSH2 0x5E6F JUMP JUMPDEST PUSH2 0x5174 SWAP1 DUP6 PUSH2 0x5DF0 JUMP JUMPDEST SWAP1 POP JUMPDEST PUSH1 0x0 DUP3 PUSH1 0x13 SLOAD DUP6 PUSH2 0x5188 SWAP2 SWAP1 PUSH2 0x5DF0 JUMP JUMPDEST PUSH2 0x5192 SWAP1 DUP5 PUSH2 0x5E82 JUMP JUMPDEST PUSH2 0x519C SWAP2 SWAP1 PUSH2 0x5E25 JUMP JUMPDEST SWAP1 POP DUP1 PUSH2 0x51AE PUSH5 0xE8D4A51000 DUP6 PUSH2 0x5DF0 JUMP JUMPDEST PUSH2 0x51B8 SWAP2 SWAP1 PUSH2 0x5E25 JUMP JUMPDEST PUSH1 0x15 SSTORE PUSH2 0x51C5 DUP2 TIMESTAMP PUSH2 0x5E82 JUMP JUMPDEST PUSH1 0x14 SSTORE POP POP TIMESTAMP PUSH1 0x16 SSTORE PUSH2 0x2DD1 JUMP JUMPDEST PUSH1 0x0 PUSH1 0x15 SSTORE POP POP POP POP POP JUMP JUMPDEST PUSH1 0x60 PUSH2 0xE6C PUSH1 0x1 PUSH1 0x1 PUSH1 0xA0 SHL SUB DUP4 AND PUSH1 0x14 JUMPDEST PUSH1 0x60 PUSH1 0x0 PUSH2 0x5200 DUP4 PUSH1 0x2 PUSH2 0x5DF0 JUMP JUMPDEST PUSH2 0x520B SWAP1 PUSH1 0x2 PUSH2 0x5E82 JUMP JUMPDEST PUSH1 0x1 PUSH1 0x1 PUSH1 0x40 SHL SUB DUP2 GT ISZERO PUSH2 0x5222 JUMPI PUSH2 0x5222 PUSH2 0x5553 JUMP JUMPDEST PUSH1 0x40 MLOAD SWAP1 DUP1 DUP3 MSTORE DUP1 PUSH1 0x1F ADD PUSH1 0x1F NOT AND PUSH1 0x20 ADD DUP3 ADD PUSH1 0x40 MSTORE DUP1 ISZERO PUSH2 0x524C JUMPI PUSH1 0x20 DUP3 ADD DUP2 DUP1 CALLDATASIZE DUP4 CALLDATACOPY ADD SWAP1 POP JUMPDEST POP SWAP1 POP PUSH1 0x3 PUSH1 0xFC SHL DUP2 PUSH1 0x0 DUP2 MLOAD DUP2 LT PUSH2 0x5267 JUMPI PUSH2 0x5267 PUSH2 0x5EEB JUMP JUMPDEST PUSH1 0x20 ADD ADD SWAP1 PUSH1 0x1 PUSH1 0x1 PUSH1 0xF8 SHL SUB NOT AND SWAP1 DUP2 PUSH1 0x0 BYTE SWAP1 MSTORE8 POP PUSH1 0xF PUSH1 0xFB SHL DUP2 PUSH1 0x1 DUP2 MLOAD DUP2 LT PUSH2 0x5296 JUMPI PUSH2 0x5296 PUSH2 0x5EEB JUMP JUMPDEST PUSH1 0x20 ADD ADD SWAP1 PUSH1 0x1 PUSH1 0x1 PUSH1 0xF8 SHL SUB NOT AND SWAP1 DUP2 PUSH1 0x0 BYTE SWAP1 MSTORE8 POP PUSH1 0x0 PUSH2 0x52BA DUP5 PUSH1 0x2 PUSH2 0x5DF0 JUMP JUMPDEST PUSH2 0x52C5 SWAP1 PUSH1 0x1 PUSH2 0x5E82 JUMP JUMPDEST SWAP1 POP JUMPDEST PUSH1 0x1 DUP2 GT ISZERO PUSH2 0x533D JUMPI PUSH16 0x181899199A1A9B1B9C1CB0B131B232B3 PUSH1 0x81 SHL DUP6 PUSH1 0xF AND PUSH1 0x10 DUP2 LT PUSH2 0x52F9 JUMPI PUSH2 0x52F9 PUSH2 0x5EEB JUMP JUMPDEST BYTE PUSH1 0xF8 SHL DUP3 DUP3 DUP2 MLOAD DUP2 LT PUSH2 0x530F JUMPI PUSH2 0x530F PUSH2 0x5EEB JUMP JUMPDEST PUSH1 0x20 ADD ADD SWAP1 PUSH1 0x1 PUSH1 0x1 PUSH1 0xF8 SHL SUB NOT AND SWAP1 DUP2 PUSH1 0x0 BYTE SWAP1 MSTORE8 POP PUSH1 0x4 SWAP5 SWAP1 SWAP5 SHR SWAP4 PUSH2 0x5336 DUP2 PUSH2 0x6F68 JUMP JUMPDEST SWAP1 POP PUSH2 0x52C8 JUMP JUMPDEST POP DUP4 ISZERO PUSH2 0x104F JUMPI PUSH1 0x40 MLOAD PUSH3 0x461BCD PUSH1 0xE5 SHL DUP2 MSTORE PUSH1 0x4 ADD PUSH2 0x1038 SWAP1 PUSH2 0x6FB1 JUMP JUMPDEST DUP3 DUP1 SLOAD DUP3 DUP3 SSTORE SWAP1 PUSH1 0x0 MSTORE PUSH1 0x20 PUSH1 0x0 KECCAK256 SWAP1 DUP2 ADD SWAP3 DUP3 ISZERO PUSH2 0x53AF JUMPI SWAP2 PUSH1 0x20 MUL DUP3 ADD JUMPDEST DUP3 DUP2 GT ISZERO PUSH2 0x53AF JUMPI DUP2 SLOAD PUSH1 0x1 PUSH1 0x1 PUSH1 0xA0 SHL SUB NOT AND PUSH1 0x1 PUSH1 0x1 PUSH1 0xA0 SHL SUB DUP5 CALLDATALOAD AND OR DUP3 SSTORE PUSH1 0x20 SWAP1 SWAP3 ADD SWAP2 PUSH1 0x1 SWAP1 SWAP2 ADD SWAP1 PUSH2 0x537C JUMP JUMPDEST POP PUSH2 0x53BB SWAP3 SWAP2 POP PUSH2 0x5466 JUMP JUMPDEST POP SWAP1 JUMP JUMPDEST DUP3 DUP1 SLOAD DUP3 DUP3 SSTORE SWAP1 PUSH1 0x0 MSTORE PUSH1 0x20 PUSH1 0x0 KECCAK256 SWAP1 DUP2 ADD SWAP3 DUP3 ISZERO PUSH2 0x53AF JUMPI SWAP2 PUSH1 0x20 MUL DUP3 ADD JUMPDEST DUP3 DUP2 GT ISZERO PUSH2 0x53AF JUMPI DUP3 MLOAD DUP3 SLOAD PUSH1 0x1 PUSH1 0x1 PUSH1 0xA0 SHL SUB NOT AND PUSH1 0x1 PUSH1 0x1 PUSH1 0xA0 SHL SUB SWAP1 SWAP2 AND OR DUP3 SSTORE PUSH1 0x20 SWAP1 SWAP3 ADD SWAP2 PUSH1 0x1 SWAP1 SWAP2 ADD SWAP1 PUSH2 0x53DF JUMP JUMPDEST PUSH1 0x40 MLOAD DUP1 PUSH1 0x80 ADD PUSH1 0x40 MSTORE DUP1 PUSH1 0x0 DUP2 MSTORE PUSH1 0x20 ADD PUSH1 0x0 DUP2 MSTORE PUSH1 0x20 ADD PUSH1 0x0 DUP2 MSTORE PUSH1 0x20 ADD PUSH1 0x0 PUSH1 0x1 PUSH1 0x1 PUSH1 0xA0 SHL SUB AND DUP2 MSTORE POP SWAP1 JUMP JUMPDEST PUSH1 0x40 MLOAD DUP1 PUSH1 0x60 ADD PUSH1 0x40 MSTORE DUP1 PUSH1 0x0 DUP2 MSTORE PUSH1 0x20 ADD PUSH1 0x0 DUP2 MSTORE PUSH1 0x20 ADD PUSH1 0x0 DUP2 MSTORE POP SWAP1 JUMP JUMPDEST JUMPDEST DUP1 DUP3 GT ISZERO PUSH2 0x53BB JUMPI PUSH1 0x0 DUP2 SSTORE PUSH1 0x1 ADD PUSH2 0x5467 JUMP JUMPDEST PUSH1 0x1 PUSH1 0x1 PUSH1 0xA0 SHL SUB AND SWAP1 JUMP JUMPDEST PUSH1 0x0 PUSH2 0xE6C DUP3 PUSH2 0x547B JUMP JUMPDEST PUSH2 0x549B DUP2 PUSH2 0x5487 JUMP JUMPDEST DUP3 MSTORE POP POP JUMP JUMPDEST PUSH1 0x20 DUP2 ADD PUSH2 0xE6C DUP3 DUP5 PUSH2 0x5492 JUMP JUMPDEST DUP1 PUSH2 0x549B JUMP JUMPDEST PUSH1 0x20 DUP2 ADD PUSH2 0xE6C DUP3 DUP5 PUSH2 0x54AF JUMP JUMPDEST PUSH1 0x1 PUSH1 0x1 PUSH1 0xE0 SHL SUB NOT DUP2 AND JUMPDEST DUP2 EQ PUSH2 0x2278 JUMPI PUSH1 0x0 DUP1 REVERT JUMPDEST DUP1 CALLDATALOAD PUSH2 0xE6C DUP2 PUSH2 0x54C3 JUMP JUMPDEST PUSH1 0x0 PUSH1 0x20 DUP3 DUP5 SUB SLT ISZERO PUSH2 0x54FA JUMPI PUSH2 0x54FA PUSH1 0x0 DUP1 REVERT JUMPDEST PUSH1 0x0 PUSH2 0x5506 DUP5 DUP5 PUSH2 0x54DA JUMP JUMPDEST SWAP5 SWAP4 POP POP POP POP JUMP JUMPDEST DUP1 ISZERO ISZERO PUSH2 0x549B JUMP JUMPDEST PUSH1 0x20 DUP2 ADD PUSH2 0xE6C DUP3 DUP5 PUSH2 0x550E JUMP JUMPDEST DUP1 PUSH2 0x54CF JUMP JUMPDEST DUP1 CALLDATALOAD PUSH2 0xE6C DUP2 PUSH2 0x5524 JUMP JUMPDEST PUSH2 0x54CF DUP2 PUSH2 0x5487 JUMP JUMPDEST DUP1 CALLDATALOAD PUSH2 0xE6C DUP2 PUSH2 0x5535 JUMP JUMPDEST PUSH1 0x1F ADD PUSH1 0x1F NOT AND SWAP1 JUMP JUMPDEST PUSH4 0x4E487B71 PUSH1 0xE0 SHL PUSH1 0x0 MSTORE PUSH1 0x41 PUSH1 0x4 MSTORE PUSH1 0x24 PUSH1 0x0 REVERT JUMPDEST PUSH2 0x5572 DUP3 PUSH2 0x5549 JUMP JUMPDEST DUP2 ADD DUP2 DUP2 LT PUSH1 0x1 PUSH1 0x1 PUSH1 0x40 SHL SUB DUP3 GT OR ISZERO PUSH2 0x558F JUMPI PUSH2 0x558F PUSH2 0x5553 JUMP JUMPDEST PUSH1 0x40 MSTORE POP POP JUMP JUMPDEST PUSH1 0x0 PUSH2 0x55A1 PUSH1 0x40 MLOAD SWAP1 JUMP JUMPDEST SWAP1 POP PUSH2 0x55AD DUP3 DUP3 PUSH2 0x5569 JUMP JUMPDEST SWAP2 SWAP1 POP JUMP JUMPDEST PUSH1 0x0 PUSH1 0x1 PUSH1 0x1 PUSH1 0x40 SHL SUB DUP3 GT ISZERO PUSH2 0x55CB JUMPI PUSH2 0x55CB PUSH2 0x5553 JUMP JUMPDEST POP PUSH1 0x20 SWAP1 DUP2 MUL ADD SWAP1 JUMP JUMPDEST PUSH1 0x0 PUSH2 0x55E8 PUSH2 0x55E3 DUP5 PUSH2 0x55B2 JUMP JUMPDEST PUSH2 0x5596 JUMP JUMPDEST DUP4 DUP2 MSTORE SWAP1 POP PUSH1 0x20 DUP1 DUP3 ADD SWAP1 DUP5 MUL DUP4 ADD DUP6 DUP2 GT ISZERO PUSH2 0x5607 JUMPI PUSH2 0x5607 PUSH1 0x0 DUP1 REVERT JUMPDEST DUP4 JUMPDEST DUP2 DUP2 LT ISZERO PUSH2 0x562B JUMPI DUP1 PUSH2 0x561C DUP9 DUP3 PUSH2 0x553E JUMP JUMPDEST DUP5 MSTORE POP PUSH1 0x20 SWAP3 DUP4 ADD SWAP3 ADD PUSH2 0x5609 JUMP JUMPDEST POP POP POP SWAP4 SWAP3 POP POP POP JUMP JUMPDEST PUSH1 0x0 DUP3 PUSH1 0x1F DUP4 ADD SLT PUSH2 0x5649 JUMPI PUSH2 0x5649 PUSH1 0x0 DUP1 REVERT JUMPDEST DUP2 CALLDATALOAD PUSH2 0x5506 DUP5 DUP3 PUSH1 0x20 DUP7 ADD PUSH2 0x55D5 JUMP JUMPDEST PUSH1 0x0 DUP1 PUSH1 0x0 DUP1 PUSH1 0x0 PUSH1 0xA0 DUP7 DUP9 SUB SLT ISZERO PUSH2 0x5674 JUMPI PUSH2 0x5674 PUSH1 0x0 DUP1 REVERT JUMPDEST PUSH1 0x0 PUSH2 0x5680 DUP9 DUP9 PUSH2 0x552A JUMP JUMPDEST SWAP6 POP POP PUSH1 0x20 PUSH2 0x5691 DUP9 DUP3 DUP10 ADD PUSH2 0x553E JUMP JUMPDEST SWAP5 POP POP PUSH1 0x40 PUSH2 0x56A2 DUP9 DUP3 DUP10 ADD PUSH2 0x553E JUMP JUMPDEST SWAP4 POP POP PUSH1 0x60 PUSH2 0x56B3 DUP9 DUP3 DUP10 ADD PUSH2 0x552A JUMP JUMPDEST SWAP3 POP POP PUSH1 0x80 DUP7 ADD CALLDATALOAD PUSH1 0x1 PUSH1 0x1 PUSH1 0x40 SHL SUB DUP2 GT ISZERO PUSH2 0x56D2 JUMPI PUSH2 0x56D2 PUSH1 0x0 DUP1 REVERT JUMPDEST PUSH2 0x56DE DUP9 DUP3 DUP10 ADD PUSH2 0x5635 JUMP JUMPDEST SWAP2 POP POP SWAP3 SWAP6 POP SWAP3 SWAP6 SWAP1 SWAP4 POP JUMP JUMPDEST PUSH1 0x0 JUMPDEST DUP4 DUP2 LT ISZERO PUSH2 0x5706 JUMPI DUP2 DUP2 ADD MLOAD DUP4 DUP3 ADD MSTORE PUSH1 0x20 ADD PUSH2 0x56EE JUMP JUMPDEST POP POP PUSH1 0x0 SWAP2 ADD MSTORE JUMP JUMPDEST PUSH1 0x0 PUSH2 0x5719 DUP3 MLOAD SWAP1 JUMP JUMPDEST DUP1 DUP5 MSTORE PUSH1 0x20 DUP5 ADD SWAP4 POP PUSH2 0x5730 DUP2 DUP6 PUSH1 0x20 DUP7 ADD PUSH2 0x56EB JUMP JUMPDEST PUSH2 0x5739 DUP2 PUSH2 0x5549 JUMP JUMPDEST SWAP1 SWAP4 ADD SWAP4 SWAP3 POP POP POP JUMP JUMPDEST PUSH1 0x20 DUP1 DUP3 MSTORE DUP2 ADD PUSH2 0x104F DUP2 DUP5 PUSH2 0x570F JUMP JUMPDEST PUSH1 0x0 PUSH1 0x20 DUP3 DUP5 SUB SLT ISZERO PUSH2 0x5769 JUMPI PUSH2 0x5769 PUSH1 0x0 DUP1 REVERT JUMPDEST PUSH1 0x0 PUSH2 0x5506 DUP5 DUP5 PUSH2 0x552A JUMP JUMPDEST PUSH1 0x0 DUP1 PUSH1 0x40 DUP4 DUP6 SUB SLT ISZERO PUSH2 0x578B JUMPI PUSH2 0x578B PUSH1 0x0 DUP1 REVERT JUMPDEST PUSH1 0x0 PUSH2 0x5797 DUP6 DUP6 PUSH2 0x553E JUMP JUMPDEST SWAP3 POP POP PUSH1 0x20 PUSH2 0x57A8 DUP6 DUP3 DUP7 ADD PUSH2 0x552A JUMP JUMPDEST SWAP2 POP POP SWAP3 POP SWAP3 SWAP1 POP JUMP JUMPDEST PUSH1 0x0 PUSH1 0x20 DUP3 DUP5 SUB SLT ISZERO PUSH2 0x57C7 JUMPI PUSH2 0x57C7 PUSH1 0x0 DUP1 REVERT JUMPDEST PUSH1 0x0 PUSH2 0x5506 DUP5 DUP5 PUSH2 0x553E JUMP JUMPDEST PUSH1 0x0 DUP1 PUSH1 0x0 PUSH1 0x60 DUP5 DUP7 SUB SLT ISZERO PUSH2 0x57EB JUMPI PUSH2 0x57EB PUSH1 0x0 DUP1 REVERT JUMPDEST PUSH1 0x0 PUSH2 0x57F7 DUP7 DUP7 PUSH2 0x553E JUMP JUMPDEST SWAP4 POP POP PUSH1 0x20 PUSH2 0x5808 DUP7 DUP3 DUP8 ADD PUSH2 0x553E JUMP JUMPDEST SWAP3 POP POP PUSH1 0x40 PUSH2 0x5819 DUP7 DUP3 DUP8 ADD PUSH2 0x552A JUMP JUMPDEST SWAP2 POP POP SWAP3 POP SWAP3 POP SWAP3 JUMP JUMPDEST PUSH1 0x0 PUSH2 0x582F DUP4 DUP4 PUSH2 0x5492 JUMP JUMPDEST POP POP PUSH1 0x20 ADD SWAP1 JUMP JUMPDEST PUSH1 0x0 PUSH2 0x5841 DUP3 MLOAD SWAP1 JUMP JUMPDEST DUP1 DUP5 MSTORE PUSH1 0x20 SWAP4 DUP5 ADD SWAP4 DUP4 ADD DUP1 PUSH1 0x0 JUMPDEST DUP4 DUP2 LT ISZERO PUSH2 0x5875 JUMPI DUP2 MLOAD PUSH2 0x5864 DUP9 DUP3 PUSH2 0x5823 JUMP JUMPDEST SWAP8 POP PUSH1 0x20 DUP4 ADD SWAP3 POP POP PUSH1 0x1 ADD PUSH2 0x5850 JUMP JUMPDEST POP SWAP5 SWAP6 SWAP5 POP POP POP POP POP JUMP JUMPDEST PUSH1 0x20 DUP1 DUP3 MSTORE DUP2 ADD PUSH2 0x104F DUP2 DUP5 PUSH2 0x5837 JUMP JUMPDEST PUSH1 0x0 DUP1 PUSH1 0x40 DUP4 DUP6 SUB SLT ISZERO PUSH2 0x58A7 JUMPI PUSH2 0x58A7 PUSH1 0x0 DUP1 REVERT JUMPDEST PUSH1 0x0 PUSH2 0x58B3 DUP6 DUP6 PUSH2 0x552A JUMP JUMPDEST SWAP3 POP POP PUSH1 0x20 PUSH2 0x57A8 DUP6 DUP3 DUP7 ADD PUSH2 0x553E JUMP JUMPDEST PUSH1 0xFF DUP2 AND PUSH2 0x549B JUMP JUMPDEST PUSH1 0x20 DUP2 ADD PUSH2 0xE6C DUP3 DUP5 PUSH2 0x58C4 JUMP JUMPDEST PUSH1 0x0 DUP1 PUSH1 0x0 PUSH1 0x60 DUP5 DUP7 SUB SLT ISZERO PUSH2 0x58F3 JUMPI PUSH2 0x58F3 PUSH1 0x0 DUP1 REVERT JUMPDEST PUSH1 0x0 PUSH2 0x58FF DUP7 DUP7 PUSH2 0x553E JUMP JUMPDEST SWAP4 POP POP PUSH1 0x20 PUSH2 0x5910 DUP7 DUP3 DUP8 ADD PUSH2 0x552A JUMP JUMPDEST SWAP3 POP POP PUSH1 0x40 DUP5 ADD CALLDATALOAD PUSH1 0x1 PUSH1 0x1 PUSH1 0x40 SHL SUB DUP2 GT ISZERO PUSH2 0x592F JUMPI PUSH2 0x592F PUSH1 0x0 DUP1 REVERT JUMPDEST PUSH2 0x5819 DUP7 DUP3 DUP8 ADD PUSH2 0x5635 JUMP JUMPDEST PUSH1 0x80 DUP2 ADD PUSH2 0x5949 DUP3 DUP8 PUSH2 0x54AF JUMP JUMPDEST PUSH2 0x5956 PUSH1 0x20 DUP4 ADD DUP7 PUSH2 0x54AF JUMP JUMPDEST PUSH2 0x5963 PUSH1 0x40 DUP4 ADD DUP6 PUSH2 0x54AF JUMP JUMPDEST PUSH2 0xEA6 PUSH1 0x60 DUP4 ADD DUP5 PUSH2 0x54AF JUMP JUMPDEST PUSH1 0x0 PUSH2 0xE6C PUSH2 0x5984 PUSH2 0x5981 DUP5 PUSH2 0x547B JUMP JUMPDEST SWAP1 JUMP JUMPDEST PUSH2 0x547B JUMP JUMPDEST PUSH1 0x0 PUSH2 0xE6C DUP3 PUSH2 0x5970 JUMP JUMPDEST PUSH1 0x0 PUSH2 0xE6C DUP3 PUSH2 0x5989 JUMP JUMPDEST PUSH2 0x549B DUP2 PUSH2 0x5994 JUMP JUMPDEST PUSH1 0x20 DUP2 ADD PUSH2 0xE6C DUP3 DUP5 PUSH2 0x599F JUMP JUMPDEST PUSH1 0x0 DUP1 DUP4 PUSH1 0x1F DUP5 ADD SLT PUSH2 0x59CB JUMPI PUSH2 0x59CB PUSH1 0x0 DUP1 REVERT JUMPDEST POP DUP2 CALLDATALOAD PUSH1 0x1 PUSH1 0x1 PUSH1 0x40 SHL SUB DUP2 GT ISZERO PUSH2 0x59E5 JUMPI PUSH2 0x59E5 PUSH1 0x0 DUP1 REVERT JUMPDEST PUSH1 0x20 DUP4 ADD SWAP2 POP DUP4 PUSH1 0x20 DUP3 MUL DUP4 ADD GT ISZERO PUSH2 0x467C JUMPI PUSH2 0x467C PUSH1 0x0 DUP1 REVERT JUMPDEST PUSH1 0x0 DUP1 PUSH1 0x20 DUP4 DUP6 SUB SLT ISZERO PUSH2 0x5A16 JUMPI PUSH2 0x5A16 PUSH1 0x0 DUP1 REVERT JUMPDEST DUP3 CALLDATALOAD PUSH1 0x1 PUSH1 0x1 PUSH1 0x40 SHL SUB DUP2 GT ISZERO PUSH2 0x5A2F JUMPI PUSH2 0x5A2F PUSH1 0x0 DUP1 REVERT JUMPDEST PUSH2 0x5A3B DUP6 DUP3 DUP7 ADD PUSH2 0x59B6 JUMP JUMPDEST SWAP3 POP SWAP3 POP POP SWAP3 POP SWAP3 SWAP1 POP JUMP JUMPDEST PUSH4 0x4E487B71 PUSH1 0xE0 SHL PUSH1 0x0 MSTORE PUSH1 0x21 PUSH1 0x4 MSTORE PUSH1 0x24 PUSH1 0x0 REVERT JUMPDEST PUSH1 0xE DUP2 LT PUSH2 0x2278 JUMPI PUSH2 0x2278 PUSH2 0x5A47 JUMP JUMPDEST DUP1 PUSH2 0x55AD DUP2 PUSH2 0x5A5D JUMP JUMPDEST PUSH1 0x0 PUSH2 0xE6C DUP3 PUSH2 0x5A6D JUMP JUMPDEST PUSH2 0x549B DUP2 PUSH2 0x5A77 JUMP JUMPDEST PUSH1 0x20 DUP2 ADD PUSH2 0xE6C DUP3 DUP5 PUSH2 0x5A82 JUMP JUMPDEST DUP1 ISZERO ISZERO PUSH2 0x54CF JUMP JUMPDEST DUP1 CALLDATALOAD PUSH2 0xE6C DUP2 PUSH2 0x5A99 JUMP JUMPDEST PUSH1 0x0 PUSH1 0x20 DUP3 DUP5 SUB SLT ISZERO PUSH2 0x5AC1 JUMPI PUSH2 0x5AC1 PUSH1 0x0 DUP1 REVERT JUMPDEST PUSH1 0x0 PUSH2 0x5506 DUP5 DUP5 PUSH2 0x5AA1 JUMP JUMPDEST PUSH1 0x40 DUP2 ADD PUSH2 0x5ADB DUP3 DUP6 PUSH2 0x54AF JUMP JUMPDEST PUSH2 0x104F PUSH1 0x20 DUP4 ADD DUP5 PUSH2 0x54AF JUMP JUMPDEST PUSH1 0xFF DUP2 AND PUSH2 0x54CF JUMP JUMPDEST DUP1 CALLDATALOAD PUSH2 0xE6C DUP2 PUSH2 0x5AE8 JUMP JUMPDEST PUSH1 0x0 DUP1 PUSH1 0x0 DUP1 PUSH1 0x0 DUP1 PUSH1 0x0 PUSH1 0xE0 DUP9 DUP11 SUB SLT ISZERO PUSH2 0x5B1A JUMPI PUSH2 0x5B1A PUSH1 0x0 DUP1 REVERT JUMPDEST PUSH1 0x0 PUSH2 0x5B26 DUP11 DUP11 PUSH2 0x553E JUMP JUMPDEST SWAP8 POP POP PUSH1 0x20 PUSH2 0x5B37 DUP11 DUP3 DUP12 ADD PUSH2 0x553E JUMP JUMPDEST SWAP7 POP POP PUSH1 0x40 PUSH2 0x5B48 DUP11 DUP3 DUP12 ADD PUSH2 0x552A JUMP JUMPDEST SWAP6 POP POP PUSH1 0x60 PUSH2 0x5B59 DUP11 DUP3 DUP12 ADD PUSH2 0x552A JUMP JUMPDEST SWAP5 POP POP PUSH1 0x80 PUSH2 0x5B6A DUP11 DUP3 DUP12 ADD PUSH2 0x5AF1 JUMP JUMPDEST SWAP4 POP POP PUSH1 0xA0 PUSH2 0x5B7B DUP11 DUP3 DUP12 ADD PUSH2 0x552A JUMP JUMPDEST SWAP3 POP POP PUSH1 0xC0 PUSH2 0x5B8C DUP11 DUP3 DUP12 ADD PUSH2 0x552A JUMP JUMPDEST SWAP2 POP POP SWAP3 SWAP6 SWAP9 SWAP2 SWAP5 SWAP8 POP SWAP3 SWAP6 POP JUMP JUMPDEST PUSH1 0x0 DUP1 PUSH1 0x40 DUP4 DUP6 SUB SLT ISZERO PUSH2 0x5BB1 JUMPI PUSH2 0x5BB1 PUSH1 0x0 DUP1 REVERT JUMPDEST PUSH1 0x0 PUSH2 0x58B3 DUP6 DUP6 PUSH2 0x553E JUMP JUMPDEST PUSH4 0x4E487B71 PUSH1 0xE0 SHL PUSH1 0x0 MSTORE PUSH1 0x22 PUSH1 0x4 MSTORE PUSH1 0x24 PUSH1 0x0 REVERT JUMPDEST PUSH1 0x2 DUP2 DIV PUSH1 0x1 DUP3 AND DUP1 PUSH2 0x5BE7 JUMPI PUSH1 0x7F DUP3 AND SWAP2 POP JUMPDEST PUSH1 0x20 DUP3 LT DUP2 SUB PUSH2 0x5BF9 JUMPI PUSH2 0x5BF9 PUSH2 0x5BBD JUMP JUMPDEST POP SWAP2 SWAP1 POP JUMP JUMPDEST PUSH1 0x10 DUP2 MSTORE PUSH1 0x0 PUSH1 0x20 DUP3 ADD PUSH16 0x24B73B30B634B2103932B1B2B4BB32B9 PUSH1 0x81 SHL DUP2 MSTORE SWAP2 POP JUMPDEST POP PUSH1 0x20 ADD SWAP1 JUMP JUMPDEST PUSH1 0x20 DUP1 DUP3 MSTORE DUP2 ADD PUSH2 0xE6C DUP2 PUSH2 0x5BFF JUMP JUMPDEST PUSH1 0x15 DUP2 MSTORE PUSH1 0x0 PUSH1 0x20 DUP3 ADD PUSH21 0x21B7B73A3930B1BA1034B99039B43ABA103237BBB7 PUSH1 0x59 SHL DUP2 MSTORE SWAP2 POP PUSH2 0x5C22 JUMP JUMPDEST PUSH1 0x20 DUP1 DUP3 MSTORE DUP2 ADD PUSH2 0xE6C DUP2 PUSH2 0x5C39 JUMP JUMPDEST PUSH1 0x13 DUP2 MSTORE PUSH1 0x0 PUSH1 0x20 DUP3 ADD PUSH19 0x1D5CDA5B99C819195C1BDCDA5D081B1A5B5A5D PUSH1 0x6A SHL DUP2 MSTORE SWAP2 POP PUSH2 0x5C22 JUMP JUMPDEST PUSH1 0x20 DUP1 DUP3 MSTORE DUP2 ADD PUSH2 0xE6C DUP2 PUSH2 0x5C75 JUMP JUMPDEST PUSH1 0x2F DUP2 MSTORE PUSH1 0x0 PUSH1 0x20 DUP3 ADD PUSH32 0x416363657373436F6E74726F6C3A2063616E206F6E6C792072656E6F756E6365 DUP2 MSTORE PUSH15 0x103937B632B9903337B91039B2B633 PUSH1 0x89 SHL PUSH1 0x20 DUP3 ADD MSTORE SWAP2 POP JUMPDEST POP PUSH1 0x40 ADD SWAP1 JUMP JUMPDEST PUSH1 0x20 DUP1 DUP3 MSTORE DUP2 ADD PUSH2 0xE6C DUP2 PUSH2 0x5CAF JUMP JUMPDEST PUSH1 0xA DUP2 MSTORE PUSH1 0x0 PUSH1 0x20 DUP3 ADD PUSH10 0x6E6F7420616374697665 PUSH1 0xB0 SHL DUP2 MSTORE SWAP2 POP PUSH2 0x5C22 JUMP JUMPDEST PUSH1 0x20 DUP1 DUP3 MSTORE DUP2 ADD PUSH2 0xE6C DUP2 PUSH2 0x5D0E JUMP JUMPDEST PUSH1 0xE DUP2 MSTORE PUSH1 0x0 PUSH1 0x20 DUP3 ADD PUSH14 0x6E6F7468696E6720746F20627579 PUSH1 0x90 SHL DUP2 MSTORE SWAP2 POP PUSH2 0x5C22 JUMP JUMPDEST PUSH1 0x20 DUP1 DUP3 MSTORE DUP2 ADD PUSH2 0xE6C DUP2 PUSH2 0x5D3F JUMP JUMPDEST PUSH1 0x13 DUP2 MSTORE PUSH1 0x0 PUSH1 0x20 DUP3 ADD PUSH19 0xDCDEE8D0D2DCCE40E8DE40C4EAF240EED2E8D PUSH1 0x6B SHL DUP2 MSTORE SWAP2 POP PUSH2 0x5C22 JUMP JUMPDEST PUSH1 0x20 DUP1 DUP3 MSTORE DUP2 ADD PUSH2 0xE6C DUP2 PUSH2 0x5D74 JUMP JUMPDEST DUP1 MLOAD PUSH2 0xE6C DUP2 PUSH2 0x5524 JUMP JUMPDEST PUSH1 0x0 PUSH1 0x20 DUP3 DUP5 SUB SLT ISZERO PUSH2 0x5DCE JUMPI PUSH2 0x5DCE PUSH1 0x0 DUP1 REVERT JUMPDEST PUSH1 0x0 PUSH2 0x5506 DUP5 DUP5 PUSH2 0x5DAE JUMP JUMPDEST PUSH4 0x4E487B71 PUSH1 0xE0 SHL PUSH1 0x0 MSTORE PUSH1 0x11 PUSH1 0x4 MSTORE PUSH1 0x24 PUSH1 0x0 REVERT JUMPDEST PUSH1 0x0 DUP2 PUSH1 0x0 NOT DIV DUP4 GT DUP3 ISZERO ISZERO AND ISZERO PUSH2 0x5E0A JUMPI PUSH2 0x5E0A PUSH2 0x5DDA JUMP JUMPDEST POP MUL SWAP1 JUMP JUMPDEST PUSH4 0x4E487B71 PUSH1 0xE0 SHL PUSH1 0x0 MSTORE PUSH1 0x12 PUSH1 0x4 MSTORE PUSH1 0x24 PUSH1 0x0 REVERT JUMPDEST PUSH1 0x0 DUP3 PUSH2 0x5E34 JUMPI PUSH2 0x5E34 PUSH2 0x5E0F JUMP JUMPDEST POP DIV SWAP1 JUMP JUMPDEST PUSH1 0xF DUP2 MSTORE PUSH1 0x0 PUSH1 0x20 DUP3 ADD PUSH15 0x63616E6E6F7420627579207A65726F PUSH1 0x88 SHL DUP2 MSTORE SWAP2 POP PUSH2 0x5C22 JUMP JUMPDEST PUSH1 0x20 DUP1 DUP3 MSTORE DUP2 ADD PUSH2 0xE6C DUP2 PUSH2 0x5E39 JUMP JUMPDEST DUP2 DUP2 SUB DUP2 DUP2 GT ISZERO PUSH2 0xE6C JUMPI PUSH2 0xE6C PUSH2 0x5DDA JUMP JUMPDEST DUP1 DUP3 ADD DUP1 DUP3 GT ISZERO PUSH2 0xE6C JUMPI PUSH2 0xE6C PUSH2 0x5DDA JUMP JUMPDEST PUSH1 0x29 DUP2 MSTORE PUSH1 0x0 PUSH1 0x20 DUP3 ADD PUSH32 0x53747261746567792064656274206973206C657373207468616E206173736574 DUP2 MSTORE PUSH9 0x39903732B2B232B217 PUSH1 0xB9 SHL PUSH1 0x20 DUP3 ADD MSTORE SWAP2 POP PUSH2 0x5CF7 JUMP JUMPDEST PUSH1 0x20 DUP1 DUP3 MSTORE DUP2 ADD PUSH2 0xE6C DUP2 PUSH2 0x5E95 JUMP JUMPDEST PUSH4 0x4E487B71 PUSH1 0xE0 SHL PUSH1 0x0 MSTORE PUSH1 0x32 PUSH1 0x4 MSTORE PUSH1 0x24 PUSH1 0x0 REVERT JUMPDEST PUSH1 0x11 DUP2 MSTORE PUSH1 0x0 PUSH1 0x20 DUP3 ADD PUSH17 0x496E616374697665207374726174656779 PUSH1 0x78 SHL DUP2 MSTORE SWAP2 POP PUSH2 0x5C22 JUMP JUMPDEST PUSH1 0x20 DUP1 DUP3 MSTORE DUP2 ADD PUSH2 0xE6C DUP2 PUSH2 0x5F01 JUMP JUMPDEST PUSH1 0x0 PUSH1 0x0 NOT DUP3 SUB PUSH2 0x5F4C JUMPI PUSH2 0x5F4C PUSH2 0x5DDA JUMP JUMPDEST POP PUSH1 0x1 ADD SWAP1 JUMP JUMPDEST PUSH1 0x0 PUSH2 0x104F PUSH1 0x20 DUP5 ADD DUP5 PUSH2 0x553E JUMP JUMPDEST DUP2 DUP4 MSTORE PUSH1 0x0 PUSH1 0x20 DUP5 ADD SWAP4 POP DUP2 DUP1 PUSH1 0x0 JUMPDEST DUP6 DUP2 LT ISZERO PUSH2 0x5875 JUMPI PUSH2 0x5F84 DUP3 DUP5 PUSH2 0x5F53 JUMP JUMPDEST PUSH2 0x5F8E DUP9 DUP3 PUSH2 0x5823 JUMP JUMPDEST SWAP8 POP PUSH1 0x20 DUP4 ADD SWAP3 POP POP PUSH1 0x1 ADD PUSH2 0x5F72 JUMP JUMPDEST PUSH1 0x20 DUP1 DUP3 MSTORE DUP2 ADD PUSH2 0x104C DUP2 DUP5 DUP7 PUSH2 0x5F62 JUMP JUMPDEST PUSH1 0x25 DUP2 MSTORE PUSH1 0x0 PUSH1 0x20 DUP3 ADD PUSH32 0x43616C6C6572206973206E6F74207468652066757475726520726F6C65206D61 DUP2 MSTORE PUSH5 0x3730B3B2B9 PUSH1 0xD9 SHL PUSH1 0x20 DUP3 ADD MSTORE SWAP2 POP PUSH2 0x5CF7 JUMP JUMPDEST PUSH1 0x20 DUP1 DUP3 MSTORE DUP2 ADD PUSH2 0xE6C DUP2 PUSH2 0x5FB1 JUMP JUMPDEST DUP1 DUP3 JUMPDEST PUSH1 0x1 DUP6 GT ISZERO PUSH2 0x6042 JUMPI DUP1 DUP7 DIV DUP2 GT ISZERO PUSH2 0x6021 JUMPI PUSH2 0x6021 PUSH2 0x5DDA JUMP JUMPDEST PUSH1 0x1 DUP6 AND ISZERO PUSH2 0x602F JUMPI SWAP1 DUP2 MUL SWAP1 JUMPDEST DUP1 MUL PUSH2 0x603B DUP6 PUSH1 0x1 SHR SWAP1 JUMP JUMPDEST SWAP5 POP PUSH2 0x6006 JUMP JUMPDEST SWAP5 POP SWAP5 SWAP3 POP POP POP JUMP JUMPDEST PUSH1 0x0 DUP3 PUSH2 0x605A JUMPI POP PUSH1 0x1 PUSH2 0x104F JUMP JUMPDEST DUP2 PUSH2 0x6067 JUMPI POP PUSH1 0x0 PUSH2 0x104F JUMP JUMPDEST DUP2 PUSH1 0x1 DUP2 EQ PUSH2 0x607D JUMPI PUSH1 0x2 DUP2 EQ PUSH2 0x6087 JUMPI PUSH2 0x60B4 JUMP JUMPDEST PUSH1 0x1 SWAP2 POP POP PUSH2 0x104F JUMP JUMPDEST PUSH1 0xFF DUP5 GT ISZERO PUSH2 0x6098 JUMPI PUSH2 0x6098 PUSH2 0x5DDA JUMP JUMPDEST DUP4 PUSH1 0x2 EXP SWAP2 POP DUP5 DUP3 GT ISZERO PUSH2 0x60AE JUMPI PUSH2 0x60AE PUSH2 0x5DDA JUMP JUMPDEST POP PUSH2 0x104F JUMP JUMPDEST POP PUSH1 0x20 DUP4 LT PUSH2 0x133 DUP4 LT AND PUSH1 0x4E DUP5 LT PUSH1 0xB DUP5 LT AND OR ISZERO PUSH2 0x60E7 JUMPI POP DUP2 DUP2 EXP DUP4 DUP2 GT ISZERO PUSH2 0x60E2 JUMPI PUSH2 0x60E2 PUSH2 0x5DDA JUMP JUMPDEST PUSH2 0x104F JUMP JUMPDEST PUSH2 0x60F4 DUP5 DUP5 DUP5 PUSH1 0x1 PUSH2 0x6003 JUMP JUMPDEST SWAP3 POP SWAP1 POP DUP2 DUP5 DIV DUP2 GT ISZERO PUSH2 0x610A JUMPI PUSH2 0x610A PUSH2 0x5DDA JUMP JUMPDEST MUL SWAP3 SWAP2 POP POP JUMP JUMPDEST PUSH1 0x0 PUSH2 0x104F PUSH1 0x0 NOT DUP5 DUP5 PUSH2 0x604B JUMP JUMPDEST PUSH1 0xC DUP2 MSTORE PUSH1 0x0 PUSH1 0x20 DUP3 ADD PUSH12 0x7573696E67206D6F64756C65 PUSH1 0xA0 SHL DUP2 MSTORE SWAP2 POP PUSH2 0x5C22 JUMP JUMPDEST PUSH1 0x20 DUP1 DUP3 MSTORE DUP2 ADD PUSH2 0xE6C DUP2 PUSH2 0x6120 JUMP JUMPDEST PUSH1 0x1B DUP2 MSTORE PUSH1 0x0 PUSH1 0x20 DUP3 ADD PUSH27 0x50726F66697420756E6C6F636B2074696D6520746F6F206C6F6E67 PUSH1 0x28 SHL DUP2 MSTORE SWAP2 POP PUSH2 0x5C22 JUMP JUMPDEST PUSH1 0x20 DUP1 DUP3 MSTORE DUP2 ADD PUSH2 0xE6C DUP2 PUSH2 0x6153 JUMP JUMPDEST PUSH1 0x1A DUP2 MSTORE PUSH1 0x0 PUSH1 0x20 DUP3 ADD PUSH26 0x2B30BAB63A1034B99030B63932B0B23C9039B43ABA103237BBB7 PUSH1 0x31 SHL DUP2 MSTORE SWAP2 POP PUSH2 0x5C22 JUMP JUMPDEST PUSH1 0x20 DUP1 DUP3 MSTORE DUP2 ADD PUSH2 0xE6C DUP2 PUSH2 0x6195 JUMP JUMPDEST PUSH1 0x0 PUSH2 0xE6C PUSH2 0x5981 DUP4 DUP2 JUMP JUMPDEST PUSH2 0x549B DUP2 PUSH2 0x61D6 JUMP JUMPDEST PUSH1 0x20 DUP2 ADD PUSH2 0xE6C DUP3 DUP5 PUSH2 0x61E2 JUMP JUMPDEST PUSH1 0x11 DUP2 MSTORE PUSH1 0x0 PUSH1 0x20 DUP3 ADD PUSH17 0x696E616374697665207374726174656779 PUSH1 0x78 SHL DUP2 MSTORE SWAP2 POP PUSH2 0x5C22 JUMP JUMPDEST PUSH1 0x20 DUP1 DUP3 MSTORE DUP2 ADD PUSH2 0xE6C DUP2 PUSH2 0x61F9 JUMP JUMPDEST PUSH1 0x1F DUP2 MSTORE PUSH1 0x0 PUSH1 0x20 DUP3 ADD PUSH32 0x5265656E7472616E637947756172643A207265656E7472616E742063616C6C00 DUP2 MSTORE SWAP2 POP PUSH2 0x5C22 JUMP JUMPDEST PUSH1 0x20 DUP1 DUP3 MSTORE DUP2 ADD PUSH2 0xE6C DUP2 PUSH2 0x6231 JUMP JUMPDEST PUSH1 0x0 DUP3 PUSH2 0x6284 JUMPI PUSH2 0x6284 PUSH2 0x5E0F JUMP JUMPDEST POP MOD SWAP1 JUMP JUMPDEST PUSH1 0x24 DUP2 MSTORE PUSH1 0x0 PUSH1 0x20 DUP3 ADD PUSH32 0x45524332303A20617070726F76652066726F6D20746865207A65726F20616464 DUP2 MSTORE PUSH4 0x72657373 PUSH1 0xE0 SHL PUSH1 0x20 DUP3 ADD MSTORE SWAP2 POP PUSH2 0x5CF7 JUMP JUMPDEST PUSH1 0x20 DUP1 DUP3 MSTORE DUP2 ADD PUSH2 0xE6C DUP2 PUSH2 0x6289 JUMP JUMPDEST PUSH1 0x22 DUP2 MSTORE PUSH1 0x0 PUSH1 0x20 DUP3 ADD PUSH32 0x45524332303A20617070726F766520746F20746865207A65726F206164647265 DUP2 MSTORE PUSH2 0x7373 PUSH1 0xF0 SHL PUSH1 0x20 DUP3 ADD MSTORE SWAP2 POP PUSH2 0x5CF7 JUMP JUMPDEST PUSH1 0x20 DUP1 DUP3 MSTORE DUP2 ADD PUSH2 0xE6C DUP2 PUSH2 0x62DA JUMP JUMPDEST PUSH1 0x13 DUP2 MSTORE PUSH1 0x0 PUSH1 0x20 DUP3 ADD PUSH19 0x7374726174656779206E6F7420616374697665 PUSH1 0x68 SHL DUP2 MSTORE SWAP2 POP PUSH2 0x5C22 JUMP JUMPDEST PUSH1 0x20 DUP1 DUP3 MSTORE DUP2 ADD PUSH2 0xE6C DUP2 PUSH2 0x6329 JUMP JUMPDEST PUSH1 0x11 DUP2 MSTORE PUSH1 0x0 PUSH1 0x20 DUP3 ADD PUSH17 0x1CDD1C985D1959DE481A185CC81919589D PUSH1 0x7A SHL DUP2 MSTORE SWAP2 POP PUSH2 0x5C22 JUMP JUMPDEST PUSH1 0x20 DUP1 DUP3 MSTORE DUP2 ADD PUSH2 0xE6C DUP2 PUSH2 0x6363 JUMP JUMPDEST PUSH1 0xC0 DUP2 ADD PUSH2 0x63A9 DUP3 DUP10 PUSH2 0x61E2 JUMP JUMPDEST PUSH2 0x63B6 PUSH1 0x20 DUP4 ADD DUP9 PUSH2 0x54AF JUMP JUMPDEST PUSH2 0x63C3 PUSH1 0x40 DUP4 ADD DUP8 PUSH2 0x61E2 JUMP JUMPDEST PUSH2 0x63D0 PUSH1 0x60 DUP4 ADD DUP7 PUSH2 0x61E2 JUMP JUMPDEST PUSH2 0x63DD PUSH1 0x80 DUP4 ADD DUP6 PUSH2 0x61E2 JUMP JUMPDEST PUSH2 0x1CB5 PUSH1 0xA0 DUP4 ADD DUP5 PUSH2 0x61E2 JUMP JUMPDEST PUSH1 0x2 DUP2 LT PUSH2 0x2278 JUMPI PUSH2 0x2278 PUSH2 0x5A47 JUMP JUMPDEST DUP1 PUSH2 0x55AD DUP2 PUSH2 0x63EA JUMP JUMPDEST PUSH1 0x0 PUSH2 0xE6C DUP3 PUSH2 0x63FA JUMP JUMPDEST PUSH2 0x549B DUP2 PUSH2 0x6404 JUMP JUMPDEST PUSH1 0x20 DUP2 ADD PUSH2 0xE6C DUP3 DUP5 PUSH2 0x640F JUMP JUMPDEST PUSH1 0x1F DUP2 MSTORE PUSH1 0x0 PUSH1 0x20 DUP3 ADD PUSH32 0x73747261746567792063616E6E6F74206265207A65726F206164647265737300 DUP2 MSTORE SWAP2 POP PUSH2 0x5C22 JUMP JUMPDEST PUSH1 0x20 DUP1 DUP3 MSTORE DUP2 ADD PUSH2 0xE6C DUP2 PUSH2 0x6426 JUMP JUMPDEST DUP1 MLOAD PUSH2 0xE6C DUP2 PUSH2 0x5535 JUMP JUMPDEST PUSH1 0x0 PUSH1 0x20 DUP3 DUP5 SUB SLT ISZERO PUSH2 0x648A JUMPI PUSH2 0x648A PUSH1 0x0 DUP1 REVERT JUMPDEST PUSH1 0x0 PUSH2 0x5506 DUP5 DUP5 PUSH2 0x646A JUMP JUMPDEST PUSH1 0xD DUP2 MSTORE PUSH1 0x0 PUSH1 0x20 DUP3 ADD PUSH13 0x1A5B9D985B1A5908185CDCD95D PUSH1 0x9A SHL DUP2 MSTORE SWAP2 POP PUSH2 0x5C22 JUMP JUMPDEST PUSH1 0x20 DUP1 DUP3 MSTORE DUP2 ADD PUSH2 0xE6C DUP2 PUSH2 0x6496 JUMP JUMPDEST PUSH1 0x17 DUP2 MSTORE PUSH1 0x0 PUSH1 0x20 DUP3 ADD PUSH23 0x737472617465677920616C726561647920616374697665 PUSH1 0x48 SHL DUP2 MSTORE SWAP2 POP PUSH2 0x5C22 JUMP JUMPDEST PUSH1 0x20 DUP1 DUP3 MSTORE DUP2 ADD PUSH2 0xE6C DUP2 PUSH2 0x64CA JUMP JUMPDEST PUSH1 0x60 DUP2 ADD PUSH2 0x6516 DUP3 DUP7 PUSH2 0x5492 JUMP JUMPDEST PUSH2 0x6523 PUSH1 0x20 DUP4 ADD DUP6 PUSH2 0x54AF JUMP JUMPDEST DUP2 DUP2 SUB PUSH1 0x40 DUP4 ADD MSTORE PUSH2 0xEA6 DUP2 DUP5 PUSH2 0x5837 JUMP JUMPDEST PUSH1 0x1C DUP2 MSTORE PUSH1 0x0 PUSH1 0x20 DUP3 ADD PUSH28 0x546F6B656E20616464726573732063616E6E6F74206265207A65726F PUSH1 0x20 SHL DUP2 MSTORE SWAP2 POP PUSH2 0x5C22 JUMP JUMPDEST PUSH1 0x20 DUP1 DUP3 MSTORE DUP2 ADD PUSH2 0xE6C DUP2 PUSH2 0x6535 JUMP JUMPDEST PUSH1 0x1D DUP2 MSTORE PUSH1 0x0 PUSH1 0x20 DUP3 ADD PUSH32 0x53656E64657220616464726573732063616E6E6F74206265207A65726F000000 DUP2 MSTORE SWAP2 POP PUSH2 0x5C22 JUMP JUMPDEST PUSH1 0x20 DUP1 DUP3 MSTORE DUP2 ADD PUSH2 0xE6C DUP2 PUSH2 0x6578 JUMP JUMPDEST PUSH1 0x1F DUP2 MSTORE PUSH1 0x0 PUSH1 0x20 DUP3 ADD PUSH32 0x526563656976657220616464726573732063616E6E6F74206265207A65726F00 DUP2 MSTORE SWAP2 POP PUSH2 0x5C22 JUMP JUMPDEST PUSH1 0x20 DUP1 DUP3 MSTORE DUP2 ADD PUSH2 0xE6C DUP2 PUSH2 0x65BC JUMP JUMPDEST PUSH1 0x60 DUP2 ADD PUSH2 0x660E DUP3 DUP7 PUSH2 0x5492 JUMP JUMPDEST PUSH2 0x661B PUSH1 0x20 DUP4 ADD DUP6 PUSH2 0x5492 JUMP JUMPDEST PUSH2 0x5506 PUSH1 0x40 DUP4 ADD DUP5 PUSH2 0x54AF JUMP JUMPDEST DUP1 MLOAD PUSH2 0xE6C DUP2 PUSH2 0x5A99 JUMP JUMPDEST PUSH1 0x0 PUSH1 0x20 DUP3 DUP5 SUB SLT ISZERO PUSH2 0x6648 JUMPI PUSH2 0x6648 PUSH1 0x0 DUP1 REVERT JUMPDEST PUSH1 0x0 PUSH2 0x5506 DUP5 DUP5 PUSH2 0x6628 JUMP JUMPDEST PUSH1 0xF DUP2 MSTORE PUSH1 0x0 PUSH1 0x20 DUP3 ADD PUSH15 0x1D1C985B9CD9995C8819985A5B1959 PUSH1 0x8A SHL DUP2 MSTORE SWAP2 POP PUSH2 0x5C22 JUMP JUMPDEST PUSH1 0x20 DUP1 DUP3 MSTORE DUP2 ADD PUSH2 0xE6C DUP2 PUSH2 0x6654 JUMP JUMPDEST PUSH1 0x40 DUP2 ADD PUSH2 0x5ADB DUP3 DUP6 PUSH2 0x5492 JUMP JUMPDEST PUSH1 0x1C DUP2 MSTORE PUSH1 0x0 PUSH1 0x20 DUP3 ADD PUSH28 0x13995DC81919589D08195C5D585B1CC818DD5C9C995B9D081919589D PUSH1 0x22 SHL DUP2 MSTORE SWAP2 POP PUSH2 0x5C22 JUMP JUMPDEST PUSH1 0x20 DUP1 DUP3 MSTORE DUP2 ADD PUSH2 0xE6C DUP2 PUSH2 0x6698 JUMP JUMPDEST PUSH1 0x13 DUP2 MSTORE PUSH1 0x0 PUSH1 0x20 DUP3 ADD PUSH19 0x4E6F7468696E6720746F207769746864726177 PUSH1 0x68 SHL DUP2 MSTORE SWAP2 POP PUSH2 0x5C22 JUMP JUMPDEST PUSH1 0x20 DUP1 DUP3 MSTORE DUP2 ADD PUSH2 0xE6C DUP2 PUSH2 0x66DB JUMP JUMPDEST PUSH1 0x1E DUP2 MSTORE PUSH1 0x0 PUSH1 0x20 DUP3 ADD PUSH32 0x73747261746567792068617320756E7265616C69736564206C6F737365730000 DUP2 MSTORE SWAP2 POP PUSH2 0x5C22 JUMP JUMPDEST PUSH1 0x20 DUP1 DUP3 MSTORE DUP2 ADD PUSH2 0xE6C DUP2 PUSH2 0x6715 JUMP JUMPDEST PUSH1 0x20 DUP1 DUP3 MSTORE PUSH32 0x546172676574206465627420686967686572207468616E206D61782064656274 SWAP2 ADD SWAP1 DUP2 MSTORE PUSH1 0x0 PUSH2 0x5C22 JUMP JUMPDEST PUSH1 0x20 DUP1 DUP3 MSTORE DUP2 ADD PUSH2 0xE6C DUP2 PUSH2 0x6759 JUMP JUMPDEST PUSH1 0x12 DUP2 MSTORE PUSH1 0x0 PUSH1 0x20 DUP3 ADD PUSH18 0x139BDD1A1A5B99C81D1BC819195C1BDCDA5D PUSH1 0x72 SHL DUP2 MSTORE SWAP2 POP PUSH2 0x5C22 JUMP JUMPDEST PUSH1 0x20 DUP1 DUP3 MSTORE DUP2 ADD PUSH2 0xE6C DUP2 PUSH2 0x679B JUMP JUMPDEST PUSH1 0x13 DUP2 MSTORE PUSH1 0x0 PUSH1 0x20 DUP3 ADD PUSH19 0x139BC8199D5B991CC81D1BC819195C1BDCDA5D PUSH1 0x6A SHL DUP2 MSTORE SWAP2 POP PUSH2 0x5C22 JUMP JUMPDEST PUSH1 0x20 DUP1 DUP3 MSTORE DUP2 ADD PUSH2 0xE6C DUP2 PUSH2 0x67D4 JUMP JUMPDEST PUSH1 0x40 DUP2 ADD PUSH2 0x681C DUP3 DUP6 PUSH2 0x54AF JUMP JUMPDEST PUSH2 0x104F PUSH1 0x20 DUP4 ADD DUP5 PUSH2 0x5492 JUMP JUMPDEST PUSH1 0x8 DUP2 MSTORE PUSH1 0x0 PUSH1 0x20 DUP3 ADD PUSH8 0x39B43ABA3237BBB7 PUSH1 0xC1 SHL DUP2 MSTORE SWAP2 POP PUSH2 0x5C22 JUMP JUMPDEST PUSH1 0x20 DUP1 DUP3 MSTORE DUP2 ADD PUSH2 0xE6C DUP2 PUSH2 0x6829 JUMP JUMPDEST PUSH1 0x14 DUP2 MSTORE PUSH1 0x0 PUSH1 0x20 DUP3 ADD PUSH20 0x195E18D959590819195C1BDCDA5D081B1A5B5A5D PUSH1 0x62 SHL DUP2 MSTORE SWAP2 POP PUSH2 0x5C22 JUMP JUMPDEST PUSH1 0x20 DUP1 DUP3 MSTORE DUP2 ADD PUSH2 0xE6C DUP2 PUSH2 0x6858 JUMP JUMPDEST PUSH1 0x10 DUP2 MSTORE PUSH1 0x0 PUSH1 0x20 DUP3 ADD PUSH16 0x63616E6E6F74206D696E74207A65726F PUSH1 0x80 SHL DUP2 MSTORE SWAP2 POP PUSH2 0x5C22 JUMP JUMPDEST PUSH1 0x20 DUP1 DUP3 MSTORE DUP2 ADD PUSH2 0xE6C DUP2 PUSH2 0x6893 JUMP JUMPDEST PUSH1 0x13 DUP2 MSTORE PUSH1 0x0 PUSH1 0x20 DUP3 ADD PUSH19 0x63616E6E6F74206465706F736974207A65726F PUSH1 0x68 SHL DUP2 MSTORE SWAP2 POP PUSH2 0x5C22 JUMP JUMPDEST PUSH1 0x20 DUP1 DUP3 MSTORE DUP2 ADD PUSH2 0xE6C DUP2 PUSH2 0x68CA JUMP JUMPDEST PUSH1 0x13 DUP2 MSTORE PUSH1 0x0 PUSH1 0x20 DUP3 ADD PUSH19 0x496E73756666696369656E7420736861726573 PUSH1 0x68 SHL DUP2 MSTORE SWAP2 POP PUSH2 0x5C22 JUMP JUMPDEST PUSH1 0x20 DUP1 DUP3 MSTORE DUP2 ADD PUSH2 0xE6C DUP2 PUSH2 0x6904 JUMP JUMPDEST PUSH1 0x12 DUP2 MSTORE PUSH1 0x0 PUSH1 0x20 DUP3 ADD PUSH18 0x696E73756666696369656E742066756E6473 PUSH1 0x70 SHL DUP2 MSTORE SWAP2 POP PUSH2 0x5C22 JUMP JUMPDEST PUSH1 0x20 DUP1 DUP3 MSTORE DUP2 ADD PUSH2 0xE6C DUP2 PUSH2 0x693E JUMP JUMPDEST PUSH1 0x25 DUP2 MSTORE PUSH1 0x0 PUSH1 0x20 DUP3 ADD PUSH32 0x45524332303A207472616E736665722066726F6D20746865207A65726F206164 DUP2 MSTORE PUSH5 0x6472657373 PUSH1 0xD8 SHL PUSH1 0x20 DUP3 ADD MSTORE SWAP2 POP PUSH2 0x5CF7 JUMP JUMPDEST PUSH1 0x20 DUP1 DUP3 MSTORE DUP2 ADD PUSH2 0xE6C DUP2 PUSH2 0x6977 JUMP JUMPDEST PUSH1 0x23 DUP2 MSTORE PUSH1 0x0 PUSH1 0x20 DUP3 ADD PUSH32 0x45524332303A207472616E7366657220746F20746865207A65726F2061646472 DUP2 MSTORE PUSH3 0x657373 PUSH1 0xE8 SHL PUSH1 0x20 DUP3 ADD MSTORE SWAP2 POP PUSH2 0x5CF7 JUMP JUMPDEST PUSH1 0x20 DUP1 DUP3 MSTORE DUP2 ADD PUSH2 0xE6C DUP2 PUSH2 0x69C9 JUMP JUMPDEST PUSH1 0xC0 DUP2 ADD PUSH2 0x6A27 DUP3 DUP10 PUSH2 0x54AF JUMP JUMPDEST PUSH2 0x6A34 PUSH1 0x20 DUP4 ADD DUP9 PUSH2 0x54AF JUMP JUMPDEST PUSH2 0x6A41 PUSH1 0x40 DUP4 ADD DUP8 PUSH2 0x54AF JUMP JUMPDEST PUSH2 0x6A4E PUSH1 0x60 DUP4 ADD DUP7 PUSH2 0x54AF JUMP JUMPDEST PUSH2 0x6A5B PUSH1 0x80 DUP4 ADD DUP6 PUSH2 0x54AF JUMP JUMPDEST PUSH2 0x1CB5 PUSH1 0xA0 DUP4 ADD DUP5 PUSH2 0x54AF JUMP JUMPDEST PUSH1 0x20 DUP1 DUP3 MSTORE PUSH32 0x526563697069656E7420616464726573732063616E6E6F74206265207A65726F SWAP2 ADD SWAP1 DUP2 MSTORE PUSH1 0x0 PUSH2 0x5C22 JUMP JUMPDEST PUSH1 0x20 DUP1 DUP3 MSTORE DUP2 ADD PUSH2 0xE6C DUP2 PUSH2 0x6A68 JUMP JUMPDEST PUSH1 0x1A DUP2 MSTORE PUSH1 0x0 PUSH1 0x20 DUP3 ADD PUSH26 0x22A92199182832B936B4BA1D1034B73B30B634B21037BBB732B9 PUSH1 0x31 SHL DUP2 MSTORE SWAP2 POP PUSH2 0x5C22 JUMP JUMPDEST PUSH1 0x20 DUP1 DUP3 MSTORE DUP2 ADD PUSH2 0xE6C DUP2 PUSH2 0x6AAA JUMP JUMPDEST PUSH1 0x1D DUP2 MSTORE PUSH1 0x0 PUSH1 0x20 DUP3 ADD PUSH32 0x45524332305065726D69743A206578706972656420646561646C696E65000000 DUP2 MSTORE SWAP2 POP PUSH2 0x5C22 JUMP JUMPDEST PUSH1 0x20 DUP1 DUP3 MSTORE DUP2 ADD PUSH2 0xE6C DUP2 PUSH2 0x6AEB JUMP JUMPDEST PUSH1 0xC0 DUP2 ADD PUSH2 0x6B3D DUP3 DUP10 PUSH2 0x54AF JUMP JUMPDEST PUSH2 0x6B4A PUSH1 0x20 DUP4 ADD DUP9 PUSH2 0x5492 JUMP JUMPDEST PUSH2 0x6A41 PUSH1 0x40 DUP4 ADD DUP8 PUSH2 0x5492 JUMP JUMPDEST PUSH2 0x1901 PUSH1 0xF0 SHL DUP2 MSTORE PUSH1 0x2 ADD PUSH1 0x0 PUSH2 0x6B6E DUP3 DUP6 PUSH2 0x54AF JUMP JUMPDEST PUSH1 0x20 DUP3 ADD SWAP2 POP PUSH2 0x6B7E DUP3 DUP5 PUSH2 0x54AF JUMP JUMPDEST POP PUSH1 0x20 ADD SWAP3 SWAP2 POP POP JUMP JUMPDEST PUSH1 0x80 DUP2 ADD PUSH2 0x6B96 DUP3 DUP8 PUSH2 0x54AF JUMP JUMPDEST PUSH2 0x5956 PUSH1 0x20 DUP4 ADD DUP7 PUSH2 0x58C4 JUMP JUMPDEST PUSH1 0x1E DUP2 MSTORE PUSH1 0x0 PUSH1 0x20 DUP3 ADD PUSH32 0x45524332305065726D69743A20696E76616C6964207369676E61747572650000 DUP2 MSTORE SWAP2 POP PUSH2 0x5C22 JUMP JUMPDEST PUSH1 0x20 DUP1 DUP3 MSTORE DUP2 ADD PUSH2 0xE6C DUP2 PUSH2 0x6BA3 JUMP JUMPDEST PUSH1 0xC DUP2 MSTORE PUSH1 0x0 PUSH1 0x20 DUP3 ADD PUSH12 0x5A45524F2041444452455353 PUSH1 0xA0 SHL DUP2 MSTORE SWAP2 POP PUSH2 0x5C22 JUMP JUMPDEST PUSH1 0x20 DUP1 DUP3 MSTORE DUP2 ADD PUSH2 0xE6C DUP2 PUSH2 0x6BE7 JUMP JUMPDEST PUSH1 0x8 DUP2 MSTORE PUSH1 0x0 PUSH1 0x20 DUP3 ADD PUSH8 0x6D6178206C6F7373 PUSH1 0xC0 SHL DUP2 MSTORE SWAP2 POP PUSH2 0x5C22 JUMP JUMPDEST PUSH1 0x20 DUP1 DUP3 MSTORE DUP2 ADD PUSH2 0xE6C DUP2 PUSH2 0x6C1A JUMP JUMPDEST PUSH1 0x13 DUP2 MSTORE PUSH1 0x0 PUSH1 0x20 DUP3 ADD PUSH19 0x6E6F2073686172657320746F2072656465656D PUSH1 0x68 SHL DUP2 MSTORE SWAP2 POP PUSH2 0x5C22 JUMP JUMPDEST PUSH1 0x20 DUP1 DUP3 MSTORE DUP2 ADD PUSH2 0xE6C DUP2 PUSH2 0x6C49 JUMP JUMPDEST PUSH1 0x13 DUP2 MSTORE PUSH1 0x0 PUSH1 0x20 DUP3 ADD PUSH19 0x696E73756666696369656E7420736861726573 PUSH1 0x68 SHL DUP2 MSTORE SWAP2 POP PUSH2 0x5C22 JUMP JUMPDEST PUSH1 0x20 DUP1 DUP3 MSTORE DUP2 ADD PUSH2 0xE6C DUP2 PUSH2 0x6C83 JUMP JUMPDEST PUSH1 0x1C DUP2 MSTORE PUSH1 0x0 PUSH1 0x20 DUP3 ADD PUSH28 0x1A5B9CDD59999A58DA595B9D08185CDCD95D1CC81A5B881D985D5B1D PUSH1 0x22 SHL DUP2 MSTORE SWAP2 POP PUSH2 0x5C22 JUMP JUMPDEST PUSH1 0x20 DUP1 DUP3 MSTORE DUP2 ADD PUSH2 0xE6C DUP2 PUSH2 0x6CBD JUMP JUMPDEST PUSH1 0xD DUP2 MSTORE PUSH1 0x0 PUSH1 0x20 DUP3 ADD PUSH13 0x746F6F206D756368206C6F7373 PUSH1 0x98 SHL DUP2 MSTORE SWAP2 POP PUSH2 0x5C22 JUMP JUMPDEST PUSH1 0x20 DUP1 DUP3 MSTORE DUP2 ADD PUSH2 0xE6C DUP2 PUSH2 0x6D00 JUMP JUMPDEST PUSH1 0x0 PUSH2 0x6D3E DUP3 MLOAD SWAP1 JUMP JUMPDEST PUSH2 0x6D4C DUP2 DUP6 PUSH1 0x20 DUP7 ADD PUSH2 0x56EB JUMP JUMPDEST SWAP3 SWAP1 SWAP3 ADD SWAP3 SWAP2 POP POP JUMP JUMPDEST PUSH23 0x20B1B1B2B9B9A1B7B73A3937B61D1030B1B1B7BAB73A1 PUSH1 0x4D SHL DUP2 MSTORE PUSH1 0x17 ADD PUSH1 0x0 PUSH2 0x6D82 DUP3 DUP6 PUSH2 0x6D34 JUMP JUMPDEST PUSH17 0x1034B99036B4B9B9B4B733903937B6329 PUSH1 0x7D SHL DUP2 MSTORE PUSH1 0x11 ADD SWAP2 POP PUSH2 0x5506 DUP3 DUP5 PUSH2 0x6D34 JUMP JUMPDEST PUSH1 0x1D DUP2 MSTORE PUSH1 0x0 PUSH1 0x20 DUP3 ADD PUSH32 0x45524332303A20696E73756666696369656E7420616C6C6F77616E6365000000 DUP2 MSTORE SWAP2 POP PUSH2 0x5C22 JUMP JUMPDEST PUSH1 0x20 DUP1 DUP3 MSTORE DUP2 ADD PUSH2 0xE6C DUP2 PUSH2 0x6DA8 JUMP JUMPDEST PUSH1 0x60 DUP2 ADD PUSH2 0x6DFA DUP3 DUP7 PUSH2 0x54AF JUMP JUMPDEST PUSH2 0x6E07 PUSH1 0x20 DUP4 ADD DUP6 PUSH2 0x5492 JUMP JUMPDEST PUSH2 0x5506 PUSH1 0x40 DUP4 ADD DUP5 PUSH2 0x5492 JUMP JUMPDEST PUSH1 0x1E DUP2 MSTORE PUSH1 0x0 PUSH1 0x20 DUP3 ADD PUSH32 0x5370656E64657220616464726573732063616E6E6F74206265207A65726F0000 DUP2 MSTORE SWAP2 POP PUSH2 0x5C22 JUMP JUMPDEST PUSH1 0x20 DUP1 DUP3 MSTORE DUP2 ADD PUSH2 0xE6C DUP2 PUSH2 0x6E14 JUMP JUMPDEST PUSH1 0xF DUP2 MSTORE PUSH1 0x0 PUSH1 0x20 DUP3 ADD PUSH15 0x185C1C1C9BDD985B0819985A5B1959 PUSH1 0x8A SHL DUP2 MSTORE SWAP2 POP PUSH2 0x5C22 JUMP JUMPDEST PUSH1 0x20 DUP1 DUP3 MSTORE DUP2 ADD PUSH2 0xE6C DUP2 PUSH2 0x6E58 JUMP JUMPDEST PUSH1 0xF DUP2 MSTORE PUSH1 0x0 PUSH1 0x20 DUP3 ADD PUSH15 0xC2DADEEADCE840E8DEDE40D0D2CED PUSH1 0x8B SHL DUP2 MSTORE SWAP2 POP PUSH2 0x5C22 JUMP JUMPDEST PUSH1 0x20 DUP1 DUP3 MSTORE DUP2 ADD PUSH2 0xE6C DUP2 PUSH2 0x6E8E JUMP JUMPDEST PUSH1 0x60 DUP2 ADD PUSH2 0x6ED2 DUP3 DUP7 PUSH2 0x5492 JUMP JUMPDEST PUSH2 0x661B PUSH1 0x20 DUP4 ADD DUP6 PUSH2 0x54AF JUMP JUMPDEST PUSH1 0x0 DUP1 PUSH1 0x40 DUP4 DUP6 SUB SLT ISZERO PUSH2 0x6EF5 JUMPI PUSH2 0x6EF5 PUSH1 0x0 DUP1 REVERT JUMPDEST PUSH1 0x0 PUSH2 0x6F01 DUP6 DUP6 PUSH2 0x5DAE JUMP JUMPDEST SWAP3 POP POP PUSH1 0x20 PUSH2 0x57A8 DUP6 DUP3 DUP7 ADD PUSH2 0x5DAE JUMP JUMPDEST PUSH2 0xFFFF DUP2 AND PUSH2 0x54CF JUMP JUMPDEST DUP1 MLOAD PUSH2 0xE6C DUP2 PUSH2 0x6F12 JUMP JUMPDEST PUSH1 0x0 DUP1 PUSH1 0x40 DUP4 DUP6 SUB SLT ISZERO PUSH2 0x6F3D JUMPI PUSH2 0x6F3D PUSH1 0x0 DUP1 REVERT JUMPDEST PUSH1 0x0 PUSH2 0x6F49 DUP6 DUP6 PUSH2 0x6F1C JUMP JUMPDEST SWAP3 POP POP PUSH1 0x20 PUSH2 0x57A8 DUP6 DUP3 DUP7 ADD PUSH2 0x646A JUMP JUMPDEST PUSH1 0x40 DUP2 ADD PUSH2 0x681C DUP3 DUP6 PUSH2 0x5492 JUMP JUMPDEST PUSH1 0x0 DUP2 PUSH2 0x6F77 JUMPI PUSH2 0x6F77 PUSH2 0x5DDA JUMP JUMPDEST POP PUSH1 0x0 NOT ADD SWAP1 JUMP JUMPDEST PUSH1 0x20 DUP1 DUP3 MSTORE PUSH32 0x537472696E67733A20686578206C656E67746820696E73756666696369656E74 SWAP2 ADD SWAP1 DUP2 MSTORE PUSH1 0x0 PUSH2 0x5C22 JUMP JUMPDEST PUSH1 0x20 DUP1 DUP3 MSTORE DUP2 ADD PUSH2 0xE6C DUP2 PUSH2 0x6F7F JUMP INVALID ISZERO 0x2E 0xBB 0xA5 PUSH12 0x9738EE3D8BAEA1B76FA31DCD 0xCD PUSH26 0xB1929BFEA7D58EE12CFDF1A653CD9F023A942EE35097EAD74B25 SDIV 0xBE 0xA9 CALLCODE 0xC5 0xD4 PUSH21 0x65DB92DD195CF7F01A41CFE1633076A97F32AE349B 0x28 PUSH24 0x2E7B1483F67A926F150CBC501D02BDBD77389325ABC723F4 0xDD PUSH3 0x68E1C3 PUSH21 0x639E36D629C765285EE7003913389D582C300F186D 0xDE SWAP8 PUSH24 0x7D215DB24FB9FEE4DED85C66B422ABD7162A1CAA6ED3EC4C SUB 0x1F PUSH13 0xD29ADA52D45F7CCFF42F059D4E SELFBALANCE 0xC3 CREATE 0x27 0xC4 DIFFICULTY 0x27 0x22 JUMPI 0x26 PUSH16 0x7E88B981E142F0AA38FBFD78EA672C1C MULMOD 0xCD SWAP6 0xC5 BYTE 0xF9 POP SWAP16 PUSH5 0x6F3615FF00 PUSH18 0xAAE8652BD821471EE9037FD72C862F91C9D8 SWAP14 PUSH2 0x35B1 SWAP9 PUSH20 0xB921C90B702CB2E175C371B8430026B9577E6911 NOT 0xBC CREATE2 0x5F SGT PUSH18 0xEED7EDA89416C2984DA5475FCFF67E96FE8 0x5E JUMP 0xEE 0xD8 ADDMOD SSTORE SWAP11 MSTORE 0x22 0xAE JUMP GAS 0xAB DUP9 DUP12 0xCA 0x5E NOT 0xE2 GAS SGT 0xDB PUSH28 0xC9144305BF55CB0F3F4D724F730E5ACDD622A0E761830CC61F2707E 0xA7 0xBB SGT DUP1 ADDMOD 0xBF SWAP14 0xDA PUSH32 0x7D34C77736D0A116604E95EA16F206625BAD3D9112D5609B8D356E6FBD514CD1 0xF6 SWAP10 DUP1 0xD4 0xCE 0x2B RETURNDATACOPY PUSH15 0x68E1789ACE7CBB3CDF689B8EA3E9D2 PUSH6 0xF66BC4E0A990 PUSH10 0x268217017D38D2A5A559 0xAB 0xC6 0x27 NOT 0xDD CALLCODE MSTORE 0xAD SHL 0xE2 0xC8 SWAP12 PUSH10 0xC2B068FC378DAA952BA7 CALL PUSH4 0xC4A11628 CREATE2 GAS 0x4D CREATE2 0x23 0xB3 0xEF PUSH32 0x2AD1D3BA35276F35EF140F83E3E0F17B23064FD710113D3F7A5AB30D2678116E PUSH18 0xEDAE12B1B97F4D1F60370FEF10105FA2FAAE ADD 0x26 GT 0x4A AND SWAP13 PUSH5 0x845D6126C9 DUP13 JUMPDEST 0xE1 0xE5 0xEB 0xEC PUSH30 0x5BD14F71427D1E84F3DD0314C0F7B2291E5B200AC8C7C3B9256F430D649A DUP7 BLOCKHASH 0xE4 DUP16 0xF9 0xBF 0xBC CALLDATALOAD EXTCODESIZE EXTCODEHASH SWAP10 0xED PUSH4 0x1638578 0x21 0xB3 0xB4 SMOD 0x5E CODESIZE PUSH18 0xDAFBF5900D80DEF0427DAAC599092FCB16B2 XOR ADDMOD 0xEC PUSH9 0xDD9A2E1EAE89D1E8DB 0x21 CALLDATALOAD PUSH20 0x75A18EAEA71A088B547B8C932B48861853B3434D SWAP11 ORIGIN BLOCKHASH 0xB9 DIFFICULTY PUSH7 0xC607E28B696595 0xDC 0xBC SHR SDIV 0x24 0xF BALANCE SELFDESTRUCT GASPRICE 0xD0 PUSH8 0xEF1EE35CE4997762 PUSH22 0x2E3A095284754544F4C709D75E2B8821AD6E0E26207E 0xC 0xB4 0xD2 TIMESTAMP 0xD0 PUSH31 0xEB1CBB1CFD853E645BDCD27CC5484F952F0DBBE8C2C0170206C50EC0CAFA1C 0xD 0xBD SUB 0xE7 RETURNDATACOPY PUSH8 0xC2A960178DF30A0A ADDRESS 0xEE 0x2E PUSH10 0xD1171AC0A63777A6733C 0xDA 0x21 0xAE 0xC9 0xED RETURNDATASIZE BASEFEE LOG4 REVERT GT CALLCODE PUSH20 0xC934A691DEC5E5589CA26469706673582212209F 0xE2 0xAD PUSH28 0xC5556E4809DA64DCF8F496484FD05CCC3135340E402E075EDF978949 PUSH5 0x736F6C6343 STOP ADDMOD LT STOP CALLER "},"methodIdentifiers":{"ACCOUNTANT_MANAGER()":"652da324","ADD_STRATEGY_MANAGER()":"c065ca07","API_VERSION()":"77e3b267","ASSET()":"4800d97f","DEBT_MANAGER()":"c8d74b60","DEBT_PURCHASER()":"ab5b4d49","DECIMALS()":"2e0f2625","DEFAULT_ADMIN_ROLE()":"a217fddf","DEPOSIT_LIMIT_MANAGER()":"a98222c4","DOMAIN_SEPARATOR()":"3644e515","DOMAIN_TYPE_HASH()":"c0993eea","EMERGENCY_MANAGER()":"fec61f06","FACTORY()":"2dd31000","FORCE_REVOKE_MANAGER()":"5bf6b4fb","MAX_BPS()":"fd967f47","MAX_BPS_EXTENDED()":"36fba084","MAX_DEBT_MANAGER()":"f1daeba8","MAX_QUEUE()":"3f7b5e40","MINIMUM_IDLE_MANAGER()":"0ad283d0","ONE_YEAR()":"16d3bfbb","PERMIT_TYPE_HASH()":"4d4bb197","PROFIT_UNLOCK_MANAGER()":"d4ae064f","QUEUE_MANAGER()":"4cfe51dc","REPORTING_MANAGER()":"03dcd12c","REVOKE_STRATEGY_MANAGER()":"9f3988f3","ROLE_MANAGER()":"f5b944eb","WITHDRAW_LIMIT_MANAGER()":"4ce1d38a","acceptRoleManager()":"6d020808","accountant()":"4fb3ccc5","addRole(address,bytes32)":"a73f7f8a","addStrategy(address)":"223e5479","allowance(address,address)":"dd62ed3e","apiVersion()":"25829410","approve(address,uint256)":"095ea7b3","assessShareOfUnrealisedLosses(address,uint256)":"5a569099","asset()":"38d52e0f","balanceOf(address)":"70a08231","burnShares(uint256,address)":"99167fb4","buyDebt(address,uint256)":"405977e7","closeOpenRole(bytes32)":"c9a16ea4","convertToAssets(uint256)":"07a2d13a","convertToShares(uint256)":"c6e6f592","decimals()":"313ce567","decreaseAllowance(address,uint256)":"a457c2d7","defaultQueue(uint256)":"ff1e7f08","deposit(uint256,address)":"6e553f65","depositLimit()":"ecf70858","depositLimitModule()":"9e34e348","forceRevokeStrategy(address)":"16b87ac0","fullProfitUnlockDate()":"2d632692","futureRoleManager()":"b3c187f2","getDefaultQueue()":"29f3cef5","getRoleAdmin(bytes32)":"248a9ca3","grantRole(bytes32,address)":"2f2ff15d","hasRole(bytes32,address)":"91d14854","increaseAllowance(address,uint256)":"39509351","isShutdown()":"bf86d690","issueShares(uint256,address)":"ca4c1c37","lastProfitUpdate()":"8afca8f0","maxDeposit(address)":"402d267d","maxMint(address)":"c63d75b6","maxRedeem(address,uint256,address[])":"34b5fab6","maxWithdraw(address,uint256,address[])":"65cb6765","minimumTotalIdle()":"0835a3fc","mint(uint256,address)":"94bf804d","name()":"06fdde03","nonces(address)":"7ecebe00","openRoles(bytes32)":"53a66132","permit(address,address,uint256,uint256,uint8,bytes32,bytes32)":"d505accf","previewDeposit(uint256)":"ef8b30f7","previewMint(uint256)":"b3d7f6b9","previewRedeem(uint256)":"4cdad506","previewWithdraw(uint256)":"0a28a477","pricePerShare()":"99530b06","processReport(address)":"b6cc2d1f","profitMaxUnlockTime()":"0952864e","profitUnlockingRate()":"5141eebb","redeem(uint256,address,address,uint256,address[])":"06580f2d","removeRole(address,bytes32)":"6853920e","renounceRole(bytes32,address)":"36568abe","revokeRole(bytes32,address)":"d547741f","revokeStrategy(address)":"bb994d48","roleManager()":"00435da5","roles(address)":"99374642","setAccountant(address)":"48ea7127","setDefaultQueue(address[])":"633f228c","setDepositLimit(uint256)":"bdc8144b","setDepositLimitModule(address)":"2d772168","setMinimumTotalIdle(uint256)":"8212fd43","setOpenRole(bytes32)":"d538e904","setProfitMaxUnlockTime(uint256)":"df69b22a","setUseDefaultQueue(bool)":"9bbca884","setWithdrawLimitModule(address)":"4bbd71e9","shutdown()":"fc0e74d1","shutdownVault()":"e5236cc9","strategies(address)":"39ebf823","supportsInterface(bytes4)":"01ffc9a7","symbol()":"95d89b41","totalAssets()":"01e1d114","totalDebt()":"fc7b9c18","totalDebtAmount()":"c8dffa95","totalIdle()":"9aa7df94","totalIdleAmount()":"3cd7b5ab","totalSupply()":"18160ddd","totalSupplyAmount()":"f828f50b","transfer(address,uint256)":"a9059cbb","transferFrom(address,address,uint256)":"23b872dd","transferRoleManager(address)":"629b9142","unlockedShares()":"d9a0e97a","updateDebt(address,uint256)":"46e6ac49","updateMaxDebtForStrategy(address,uint256)":"f6d7bfa0","useDefaultQueue()":"bbe4eb49","withdraw(uint256,address,address,uint256,address[])":"d81a09f6","withdrawLimitModule()":"91986003"}}}}}