{"contracts/VaultV3.sol":{"YearnV3Vault":{"abi":[{"inputs":[{"internalType":"contract IERC20","name":"_asset","type":"address"},{"internalType":"string","name":"_name","type":"string"},{"internalType":"string","name":"_symbol","type":"string"},{"internalType":"address","name":"_roleManager","type":"address"},{"internalType":"uint256","name":"_profitMaxUnlockTime","type":"uint256"}],"stateMutability":"nonpayable","type":"constructor"},{"anonymous":false,"inputs":[{"indexed":true,"internalType":"address","name":"owner","type":"address"},{"indexed":true,"internalType":"address","name":"spender","type":"address"},{"indexed":false,"internalType":"uint256","name":"value","type":"uint256"}],"name":"Approval","type":"event"},{"anonymous":false,"inputs":[{"indexed":true,"internalType":"address","name":"strategy","type":"address"},{"indexed":false,"internalType":"uint256","name":"amount","type":"uint256"}],"name":"DebtPurchased","type":"event"},{"anonymous":false,"inputs":[{"indexed":true,"internalType":"address","name":"strategy","type":"address"},{"indexed":false,"internalType":"uint256","name":"currentDebt","type":"uint256"},{"indexed":false,"internalType":"uint256","name":"newDebt","type":"uint256"}],"name":"DebtUpdated","type":"event"},{"anonymous":false,"inputs":[{"indexed":true,"internalType":"address","name":"sender","type":"address"},{"indexed":true,"internalType":"address","name":"owner","type":"address"},{"indexed":false,"internalType":"uint256","name":"assets","type":"uint256"},{"indexed":false,"internalType":"uint256","name":"shares","type":"uint256"}],"name":"Deposit","type":"event"},{"anonymous":false,"inputs":[{"indexed":true,"internalType":"bytes32","name":"role","type":"bytes32"},{"indexed":true,"internalType":"bytes32","name":"previousAdminRole","type":"bytes32"},{"indexed":true,"internalType":"bytes32","name":"newAdminRole","type":"bytes32"}],"name":"RoleAdminChanged","type":"event"},{"anonymous":false,"inputs":[{"indexed":true,"internalType":"bytes32","name":"role","type":"bytes32"},{"indexed":true,"internalType":"address","name":"account","type":"address"},{"indexed":true,"internalType":"address","name":"sender","type":"address"}],"name":"RoleGranted","type":"event"},{"anonymous":false,"inputs":[{"indexed":true,"internalType":"bytes32","name":"role","type":"bytes32"},{"indexed":true,"internalType":"address","name":"account","type":"address"},{"indexed":true,"internalType":"address","name":"sender","type":"address"}],"name":"RoleRevoked","type":"event"},{"anonymous":false,"inputs":[{"indexed":true,"internalType":"address","name":"account","type":"address"},{"indexed":false,"internalType":"bytes32","name":"role","type":"bytes32"}],"name":"RoleSet","type":"event"},{"anonymous":false,"inputs":[{"indexed":true,"internalType":"bytes32","name":"role","type":"bytes32"},{"indexed":true,"internalType":"enum IVault.RoleStatusChange","name":"status","type":"uint8"}],"name":"RoleStatusChanged","type":"event"},{"anonymous":false,"inputs":[],"name":"Shutdown","type":"event"},{"anonymous":false,"inputs":[{"indexed":true,"internalType":"address","name":"strategy","type":"address"},{"indexed":false,"internalType":"enum IVault.StrategyChangeType","name":"changeType","type":"uint8"}],"name":"StrategyChanged","type":"event"},{"anonymous":false,"inputs":[{"indexed":true,"internalType":"address","name":"strategy","type":"address"},{"indexed":false,"internalType":"uint256","name":"gain","type":"uint256"},{"indexed":false,"internalType":"uint256","name":"loss","type":"uint256"},{"indexed":false,"internalType":"uint256","name":"currentDebt","type":"uint256"},{"indexed":false,"internalType":"uint256","name":"protocolFees","type":"uint256"},{"indexed":false,"internalType":"uint256","name":"totalFees","type":"uint256"},{"indexed":false,"internalType":"uint256","name":"totalRefunds","type":"uint256"}],"name":"StrategyReported","type":"event"},{"anonymous":false,"inputs":[{"indexed":true,"internalType":"address","name":"from","type":"address"},{"indexed":true,"internalType":"address","name":"to","type":"address"},{"indexed":false,"internalType":"uint256","name":"value","type":"uint256"}],"name":"Transfer","type":"event"},{"anonymous":false,"inputs":[{"indexed":true,"internalType":"address","name":"accountant","type":"address"}],"name":"UpdateAccountant","type":"event"},{"anonymous":false,"inputs":[{"indexed":false,"internalType":"address[]","name":"newDefaultQueue","type":"address[]"}],"name":"UpdateDefaultQueue","type":"event"},{"anonymous":false,"inputs":[{"indexed":false,"internalType":"uint256","name":"depositLimit","type":"uint256"}],"name":"UpdateDepositLimit","type":"event"},{"anonymous":false,"inputs":[{"indexed":true,"internalType":"address","name":"depositLimitModule","type":"address"}],"name":"UpdateDepositLimitModule","type":"event"},{"anonymous":false,"inputs":[{"indexed":false,"internalType":"uint256","name":"minimumTotalIdle","type":"uint256"}],"name":"UpdateMinimumTotalIdle","type":"event"},{"anonymous":false,"inputs":[{"indexed":false,"internalType":"uint256","name":"profitMaxUnlockTime","type":"uint256"}],"name":"UpdateProfitMaxUnlockTime","type":"event"},{"anonymous":false,"inputs":[{"indexed":true,"internalType":"address","name":"roleManager","type":"address"}],"name":"UpdateRoleManager","type":"event"},{"anonymous":false,"inputs":[{"indexed":false,"internalType":"bool","name":"useDefaultQueue","type":"bool"}],"name":"UpdateUseDefaultQueue","type":"event"},{"anonymous":false,"inputs":[{"indexed":true,"internalType":"address","name":"withdrawLimitModule","type":"address"}],"name":"UpdateWithdrawLimitModule","type":"event"},{"anonymous":false,"inputs":[{"indexed":true,"internalType":"address","name":"sender","type":"address"},{"indexed":true,"internalType":"address","name":"strategy","type":"address"},{"indexed":false,"internalType":"uint256","name":"newDebt","type":"uint256"}],"name":"UpdatedMaxDebtForStrategy","type":"event"},{"anonymous":false,"inputs":[{"indexed":true,"internalType":"address","name":"sender","type":"address"},{"indexed":true,"internalType":"address","name":"receiver","type":"address"},{"indexed":true,"internalType":"address","name":"owner","type":"address"},{"indexed":false,"internalType":"uint256","name":"assets","type":"uint256"},{"indexed":false,"internalType":"uint256","name":"shares","type":"uint256"}],"name":"Withdraw","type":"event"},{"inputs":[],"name":"ACCOUNTANT_MANAGER","outputs":[{"internalType":"bytes32","name":"","type":"bytes32"}],"stateMutability":"view","type":"function"},{"inputs":[],"name":"ADD_STRATEGY_MANAGER","outputs":[{"internalType":"bytes32","name":"","type":"bytes32"}],"stateMutability":"view","type":"function"},{"inputs":[],"name":"API_VERSION","outputs":[{"internalType":"string","name":"","type":"string"}],"stateMutability":"view","type":"function"},{"inputs":[],"name":"ASSET","outputs":[{"internalType":"contract IERC20","name":"","type":"address"}],"stateMutability":"view","type":"function"},{"inputs":[],"name":"DEBT_MANAGER","outputs":[{"internalType":"bytes32","name":"","type":"bytes32"}],"stateMutability":"view","type":"function"},{"inputs":[],"name":"DEBT_PURCHASER","outputs":[{"internalType":"bytes32","name":"","type":"bytes32"}],"stateMutability":"view","type":"function"},{"inputs":[],"name":"DECIMALS","outputs":[{"internalType":"uint256","name":"","type":"uint256"}],"stateMutability":"view","type":"function"},{"inputs":[],"name":"DEFAULT_ADMIN_ROLE","outputs":[{"internalType":"bytes32","name":"","type":"bytes32"}],"stateMutability":"view","type":"function"},{"inputs":[],"name":"DEPOSIT_LIMIT_MANAGER","outputs":[{"internalType":"bytes32","name":"","type":"bytes32"}],"stateMutability":"view","type":"function"},{"inputs":[],"name":"DOMAIN_SEPARATOR","outputs":[{"internalType":"bytes32","name":"","type":"bytes32"}],"stateMutability":"view","type":"function"},{"inputs":[],"name":"DOMAIN_TYPE_HASH","outputs":[{"internalType":"bytes32","name":"","type":"bytes32"}],"stateMutability":"view","type":"function"},{"inputs":[],"name":"EMERGENCY_MANAGER","outputs":[{"internalType":"bytes32","name":"","type":"bytes32"}],"stateMutability":"view","type":"function"},{"inputs":[],"name":"FACTORY","outputs":[{"internalType":"address","name":"","type":"address"}],"stateMutability":"view","type":"function"},{"inputs":[],"name":"FORCE_REVOKE_MANAGER","outputs":[{"internalType":"bytes32","name":"","type":"bytes32"}],"stateMutability":"view","type":"function"},{"inputs":[],"name":"MAX_BPS","outputs":[{"internalType":"uint256","name":"","type":"uint256"}],"stateMutability":"view","type":"function"},{"inputs":[],"name":"MAX_BPS_EXTENDED","outputs":[{"internalType":"uint256","name":"","type":"uint256"}],"stateMutability":"view","type":"function"},{"inputs":[],"name":"MAX_DEBT_MANAGER","outputs":[{"internalType":"bytes32","name":"","type":"bytes32"}],"stateMutability":"view","type":"function"},{"inputs":[],"name":"MAX_QUEUE","outputs":[{"internalType":"uint256","name":"","type":"uint256"}],"stateMutability":"view","type":"function"},{"inputs":[],"name":"MINIMUM_IDLE_MANAGER","outputs":[{"internalType":"bytes32","name":"","type":"bytes32"}],"stateMutability":"view","type":"function"},{"inputs":[],"name":"ONE_YEAR","outputs":[{"internalType":"uint256","name":"","type":"uint256"}],"stateMutability":"view","type":"function"},{"inputs":[],"name":"PERMIT_TYPE_HASH","outputs":[{"internalType":"bytes32","name":"","type":"bytes32"}],"stateMutability":"view","type":"function"},{"inputs":[],"name":"PROFIT_UNLOCK_MANAGER","outputs":[{"internalType":"bytes32","name":"","type":"bytes32"}],"stateMutability":"view","type":"function"},{"inputs":[],"name":"QUEUE_MANAGER","outputs":[{"internalType":"bytes32","name":"","type":"bytes32"}],"stateMutability":"view","type":"function"},{"inputs":[],"name":"REPORTING_MANAGER","outputs":[{"internalType":"bytes32","name":"","type":"bytes32"}],"stateMutability":"view","type":"function"},{"inputs":[],"name":"REVOKE_STRATEGY_MANAGER","outputs":[{"internalType":"bytes32","name":"","type":"bytes32"}],"stateMutability":"view","type":"function"},{"inputs":[],"name":"ROLE_MANAGER","outputs":[{"internalType":"bytes32","name":"","type":"bytes32"}],"stateMutability":"view","type":"function"},{"inputs":[],"name":"WITHDRAW_LIMIT_MANAGER","outputs":[{"internalType":"bytes32","name":"","type":"bytes32"}],"stateMutability":"view","type":"function"},{"inputs":[],"name":"acceptRoleManager","outputs":[],"stateMutability":"nonpayable","type":"function"},{"inputs":[],"name":"accountant","outputs":[{"internalType":"address","name":"","type":"address"}],"stateMutability":"view","type":"function"},{"inputs":[{"internalType":"address","name":"account","type":"address"},{"internalType":"bytes32","name":"role","type":"bytes32"}],"name":"addRole","outputs":[],"stateMutability":"nonpayable","type":"function"},{"inputs":[{"internalType":"address","name":"newStrategy","type":"address"}],"name":"addStrategy","outputs":[],"stateMutability":"nonpayable","type":"function"},{"inputs":[{"internalType":"address","name":"owner","type":"address"},{"internalType":"address","name":"spender","type":"address"}],"name":"allowance","outputs":[{"internalType":"uint256","name":"","type":"uint256"}],"stateMutability":"view","type":"function"},{"inputs":[],"name":"apiVersion","outputs":[{"internalType":"string","name":"","type":"string"}],"stateMutability":"view","type":"function"},{"inputs":[{"internalType":"address","name":"spender","type":"address"},{"internalType":"uint256","name":"amount","type":"uint256"}],"name":"approve","outputs":[{"internalType":"bool","name":"","type":"bool"}],"stateMutability":"nonpayable","type":"function"},{"inputs":[{"internalType":"address","name":"strategy","type":"address"},{"internalType":"uint256","name":"assetsNeeded","type":"uint256"}],"name":"assessShareOfUnrealisedLosses","outputs":[{"internalType":"uint256","name":"","type":"uint256"}],"stateMutability":"view","type":"function"},{"inputs":[],"name":"asset","outputs":[{"internalType":"address","name":"","type":"address"}],"stateMutability":"view","type":"function"},{"inputs":[{"internalType":"address","name":"addr","type":"address"}],"name":"balanceOf","outputs":[{"internalType":"uint256","name":"","type":"uint256"}],"stateMutability":"view","type":"function"},{"inputs":[{"internalType":"address","name":"strategy","type":"address"},{"internalType":"uint256","name":"amount","type":"uint256"}],"name":"buyDebt","outputs":[],"stateMutability":"nonpayable","type":"function"},{"inputs":[{"internalType":"bytes32","name":"role","type":"bytes32"}],"name":"closeOpenRole","outputs":[],"stateMutability":"nonpayable","type":"function"},{"inputs":[{"internalType":"uint256","name":"shares","type":"uint256"}],"name":"convertToAssets","outputs":[{"internalType":"uint256","name":"","type":"uint256"}],"stateMutability":"view","type":"function"},{"inputs":[{"internalType":"uint256","name":"assets","type":"uint256"}],"name":"convertToShares","outputs":[{"internalType":"uint256","name":"","type":"uint256"}],"stateMutability":"view","type":"function"},{"inputs":[],"name":"decimals","outputs":[{"internalType":"uint8","name":"","type":"uint8"}],"stateMutability":"view","type":"function"},{"inputs":[{"internalType":"address","name":"spender","type":"address"},{"internalType":"uint256","name":"amount","type":"uint256"}],"name":"decreaseAllowance","outputs":[{"internalType":"bool","name":"","type":"bool"}],"stateMutability":"nonpayable","type":"function"},{"inputs":[{"internalType":"uint256","name":"","type":"uint256"}],"name":"defaultQueue","outputs":[{"internalType":"address","name":"","type":"address"}],"stateMutability":"view","type":"function"},{"inputs":[{"internalType":"uint256","name":"assets","type":"uint256"},{"internalType":"address","name":"receiver","type":"address"}],"name":"deposit","outputs":[{"internalType":"uint256","name":"","type":"uint256"}],"stateMutability":"nonpayable","type":"function"},{"inputs":[],"name":"depositLimit","outputs":[{"internalType":"uint256","name":"","type":"uint256"}],"stateMutability":"view","type":"function"},{"inputs":[],"name":"depositLimitModule","outputs":[{"internalType":"address","name":"","type":"address"}],"stateMutability":"view","type":"function"},{"inputs":[{"internalType":"address","name":"strategy","type":"address"}],"name":"forceRevokeStrategy","outputs":[],"stateMutability":"nonpayable","type":"function"},{"inputs":[],"name":"fullProfitUnlockDate","outputs":[{"internalType":"uint256","name":"","type":"uint256"}],"stateMutability":"view","type":"function"},{"inputs":[],"name":"futureRoleManager","outputs":[{"internalType":"address","name":"","type":"address"}],"stateMutability":"view","type":"function"},{"inputs":[],"name":"getDefaultQueue","outputs":[{"internalType":"address[]","name":"","type":"address[]"}],"stateMutability":"view","type":"function"},{"inputs":[{"internalType":"bytes32","name":"role","type":"bytes32"}],"name":"getRoleAdmin","outputs":[{"internalType":"bytes32","name":"","type":"bytes32"}],"stateMutability":"view","type":"function"},{"inputs":[{"internalType":"bytes32","name":"role","type":"bytes32"},{"internalType":"address","name":"account","type":"address"}],"name":"grantRole","outputs":[],"stateMutability":"nonpayable","type":"function"},{"inputs":[{"internalType":"bytes32","name":"role","type":"bytes32"},{"internalType":"address","name":"account","type":"address"}],"name":"hasRole","outputs":[{"internalType":"bool","name":"","type":"bool"}],"stateMutability":"view","type":"function"},{"inputs":[{"internalType":"address","name":"spender","type":"address"},{"internalType":"uint256","name":"amount","type":"uint256"}],"name":"increaseAllowance","outputs":[{"internalType":"bool","name":"","type":"bool"}],"stateMutability":"nonpayable","type":"function"},{"inputs":[],"name":"isShutdown","outputs":[{"internalType":"bool","name":"","type":"bool"}],"stateMutability":"view","type":"function"},{"inputs":[],"name":"lastProfitUpdate","outputs":[{"internalType":"uint256","name":"","type":"uint256"}],"stateMutability":"view","type":"function"},{"inputs":[{"internalType":"address","name":"receiver","type":"address"}],"name":"maxDeposit","outputs":[{"internalType":"uint256","name":"","type":"uint256"}],"stateMutability":"view","type":"function"},{"inputs":[{"internalType":"address","name":"receiver","type":"address"}],"name":"maxMint","outputs":[{"internalType":"uint256","name":"","type":"uint256"}],"stateMutability":"view","type":"function"},{"inputs":[{"internalType":"address","name":"owner","type":"address"},{"internalType":"uint256","name":"maxLoss","type":"uint256"},{"internalType":"address[]","name":"strategies","type":"address[]"}],"name":"maxRedeem","outputs":[{"internalType":"uint256","name":"","type":"uint256"}],"stateMutability":"nonpayable","type":"function"},{"inputs":[{"internalType":"address","name":"owner","type":"address"},{"internalType":"uint256","name":"maxLoss","type":"uint256"},{"internalType":"address[]","name":"strategies","type":"address[]"}],"name":"maxWithdraw","outputs":[{"internalType":"uint256","name":"","type":"uint256"}],"stateMutability":"nonpayable","type":"function"},{"inputs":[],"name":"minimumTotalIdle","outputs":[{"internalType":"uint256","name":"","type":"uint256"}],"stateMutability":"view","type":"function"},{"inputs":[{"internalType":"uint256","name":"shares","type":"uint256"},{"internalType":"address","name":"receiver","type":"address"}],"name":"mint","outputs":[{"internalType":"uint256","name":"","type":"uint256"}],"stateMutability":"nonpayable","type":"function"},{"inputs":[],"name":"name","outputs":[{"internalType":"string","name":"","type":"string"}],"stateMutability":"view","type":"function"},{"inputs":[{"internalType":"address","name":"","type":"address"}],"name":"nonces","outputs":[{"internalType":"uint256","name":"","type":"uint256"}],"stateMutability":"view","type":"function"},{"inputs":[{"internalType":"bytes32","name":"","type":"bytes32"}],"name":"openRoles","outputs":[{"internalType":"bool","name":"","type":"bool"}],"stateMutability":"view","type":"function"},{"inputs":[{"internalType":"address","name":"owner","type":"address"},{"internalType":"address","name":"spender","type":"address"},{"internalType":"uint256","name":"amount","type":"uint256"},{"internalType":"uint256","name":"deadline","type":"uint256"},{"internalType":"uint8","name":"v","type":"uint8"},{"internalType":"bytes32","name":"r","type":"bytes32"},{"internalType":"bytes32","name":"s","type":"bytes32"}],"name":"permit","outputs":[{"internalType":"bool","name":"","type":"bool"}],"stateMutability":"nonpayable","type":"function"},{"inputs":[{"internalType":"uint256","name":"assets","type":"uint256"}],"name":"previewDeposit","outputs":[{"internalType":"uint256","name":"","type":"uint256"}],"stateMutability":"view","type":"function"},{"inputs":[{"internalType":"uint256","name":"shares","type":"uint256"}],"name":"previewMint","outputs":[{"internalType":"uint256","name":"","type":"uint256"}],"stateMutability":"view","type":"function"},{"inputs":[{"internalType":"uint256","name":"shares","type":"uint256"}],"name":"previewRedeem","outputs":[{"internalType":"uint256","name":"","type":"uint256"}],"stateMutability":"view","type":"function"},{"inputs":[{"internalType":"uint256","name":"assets","type":"uint256"}],"name":"previewWithdraw","outputs":[{"internalType":"uint256","name":"","type":"uint256"}],"stateMutability":"view","type":"function"},{"inputs":[],"name":"pricePerShare","outputs":[{"internalType":"uint256","name":"","type":"uint256"}],"stateMutability":"view","type":"function"},{"inputs":[{"internalType":"address","name":"strategy","type":"address"}],"name":"processReport","outputs":[{"internalType":"uint256","name":"","type":"uint256"},{"internalType":"uint256","name":"","type":"uint256"}],"stateMutability":"nonpayable","type":"function"},{"inputs":[],"name":"profitMaxUnlockTime","outputs":[{"internalType":"uint256","name":"","type":"uint256"}],"stateMutability":"view","type":"function"},{"inputs":[],"name":"profitUnlockingRate","outputs":[{"internalType":"uint256","name":"","type":"uint256"}],"stateMutability":"view","type":"function"},{"inputs":[{"internalType":"uint256","name":"shares","type":"uint256"},{"internalType":"address","name":"receiver","type":"address"},{"internalType":"address","name":"owner","type":"address"},{"internalType":"uint256","name":"maxLoss","type":"uint256"},{"internalType":"address[]","name":"strategies","type":"address[]"}],"name":"redeem","outputs":[{"internalType":"uint256","name":"","type":"uint256"}],"stateMutability":"nonpayable","type":"function"},{"inputs":[{"internalType":"address","name":"account","type":"address"},{"internalType":"bytes32","name":"role","type":"bytes32"}],"name":"removeRole","outputs":[],"stateMutability":"nonpayable","type":"function"},{"inputs":[{"internalType":"bytes32","name":"role","type":"bytes32"},{"internalType":"address","name":"account","type":"address"}],"name":"renounceRole","outputs":[],"stateMutability":"nonpayable","type":"function"},{"inputs":[{"internalType":"bytes32","name":"role","type":"bytes32"},{"internalType":"address","name":"account","type":"address"}],"name":"revokeRole","outputs":[],"stateMutability":"nonpayable","type":"function"},{"inputs":[{"internalType":"address","name":"strategy","type":"address"}],"name":"revokeStrategy","outputs":[],"stateMutability":"nonpayable","type":"function"},{"inputs":[],"name":"roleManager","outputs":[{"internalType":"address","name":"","type":"address"}],"stateMutability":"view","type":"function"},{"inputs":[{"internalType":"address","name":"","type":"address"}],"name":"roles","outputs":[{"internalType":"enum IVault.Roles","name":"","type":"uint8"}],"stateMutability":"view","type":"function"},{"inputs":[{"internalType":"address","name":"newAccountant","type":"address"}],"name":"setAccountant","outputs":[],"stateMutability":"nonpayable","type":"function"},{"inputs":[{"internalType":"address[]","name":"newDefaultQueue","type":"address[]"}],"name":"setDefaultQueue","outputs":[],"stateMutability":"nonpayable","type":"function"},{"inputs":[{"internalType":"uint256","name":"_depositLimit","type":"uint256"}],"name":"setDepositLimit","outputs":[],"stateMutability":"nonpayable","type":"function"},{"inputs":[{"internalType":"address","name":"_depositLimitModule","type":"address"}],"name":"setDepositLimitModule","outputs":[],"stateMutability":"nonpayable","type":"function"},{"inputs":[{"internalType":"uint256","name":"_minimumTotalIdle","type":"uint256"}],"name":"setMinimumTotalIdle","outputs":[],"stateMutability":"nonpayable","type":"function"},{"inputs":[{"internalType":"bytes32","name":"role","type":"bytes32"}],"name":"setOpenRole","outputs":[],"stateMutability":"nonpayable","type":"function"},{"inputs":[{"internalType":"uint256","name":"_newProfitMaxUnlockTime","type":"uint256"}],"name":"setProfitMaxUnlockTime","outputs":[],"stateMutability":"nonpayable","type":"function"},{"inputs":[{"internalType":"bool","name":"_useDefaultQueue","type":"bool"}],"name":"setUseDefaultQueue","outputs":[],"stateMutability":"nonpayable","type":"function"},{"inputs":[{"internalType":"address","name":"_withdrawLimitModule","type":"address"}],"name":"setWithdrawLimitModule","outputs":[],"stateMutability":"nonpayable","type":"function"},{"inputs":[],"name":"shutdown","outputs":[{"internalType":"bool","name":"","type":"bool"}],"stateMutability":"view","type":"function"},{"inputs":[],"name":"shutdownVault","outputs":[],"stateMutability":"nonpayable","type":"function"},{"inputs":[{"internalType":"address","name":"","type":"address"}],"name":"strategies","outputs":[{"internalType":"uint256","name":"activation","type":"uint256"},{"internalType":"uint256","name":"lastReport","type":"uint256"},{"internalType":"uint256","name":"currentDebt","type":"uint256"},{"internalType":"uint256","name":"maxDebt","type":"uint256"}],"stateMutability":"view","type":"function"},{"inputs":[{"internalType":"bytes4","name":"interfaceId","type":"bytes4"}],"name":"supportsInterface","outputs":[{"internalType":"bool","name":"","type":"bool"}],"stateMutability":"view","type":"function"},{"inputs":[],"name":"symbol","outputs":[{"internalType":"string","name":"","type":"string"}],"stateMutability":"view","type":"function"},{"inputs":[],"name":"totalAssets","outputs":[{"internalType":"uint256","name":"","type":"uint256"}],"stateMutability":"view","type":"function"},{"inputs":[],"name":"totalDebt","outputs":[{"internalType":"uint256","name":"","type":"uint256"}],"stateMutability":"view","type":"function"},{"inputs":[],"name":"totalDebtAmount","outputs":[{"internalType":"uint256","name":"","type":"uint256"}],"stateMutability":"view","type":"function"},{"inputs":[],"name":"totalIdle","outputs":[{"internalType":"uint256","name":"","type":"uint256"}],"stateMutability":"view","type":"function"},{"inputs":[],"name":"totalIdleAmount","outputs":[{"internalType":"uint256","name":"","type":"uint256"}],"stateMutability":"view","type":"function"},{"inputs":[],"name":"totalSupply","outputs":[{"internalType":"uint256","name":"","type":"uint256"}],"stateMutability":"view","type":"function"},{"inputs":[],"name":"totalSupplyAmount","outputs":[{"internalType":"uint256","name":"","type":"uint256"}],"stateMutability":"view","type":"function"},{"inputs":[{"internalType":"address","name":"receiver","type":"address"},{"internalType":"uint256","name":"amount","type":"uint256"}],"name":"transfer","outputs":[{"internalType":"bool","name":"","type":"bool"}],"stateMutability":"nonpayable","type":"function"},{"inputs":[{"internalType":"address","name":"sender","type":"address"},{"internalType":"address","name":"receiver","type":"address"},{"internalType":"uint256","name":"amount","type":"uint256"}],"name":"transferFrom","outputs":[{"internalType":"bool","name":"","type":"bool"}],"stateMutability":"nonpayable","type":"function"},{"inputs":[{"internalType":"address","name":"newRoleManager","type":"address"}],"name":"transferRoleManager","outputs":[],"stateMutability":"nonpayable","type":"function"},{"inputs":[],"name":"unlockedShares","outputs":[{"internalType":"uint256","name":"","type":"uint256"}],"stateMutability":"view","type":"function"},{"inputs":[{"internalType":"address","name":"strategy","type":"address"},{"internalType":"uint256","name":"targetDebt","type":"uint256"}],"name":"updateDebt","outputs":[{"internalType":"uint256","name":"","type":"uint256"}],"stateMutability":"nonpayable","type":"function"},{"inputs":[{"internalType":"address","name":"strategy","type":"address"},{"internalType":"uint256","name":"newMaxDebt","type":"uint256"}],"name":"updateMaxDebtForStrategy","outputs":[],"stateMutability":"nonpayable","type":"function"},{"inputs":[],"name":"useDefaultQueue","outputs":[{"internalType":"bool","name":"","type":"bool"}],"stateMutability":"view","type":"function"},{"inputs":[{"internalType":"uint256","name":"assets","type":"uint256"},{"internalType":"address","name":"receiver","type":"address"},{"internalType":"address","name":"owner","type":"address"},{"internalType":"uint256","name":"maxLoss","type":"uint256"},{"internalType":"address[]","name":"strategies","type":"address[]"}],"name":"withdraw","outputs":[{"internalType":"uint256","name":"","type":"uint256"}],"stateMutability":"nonpayable","type":"function"},{"inputs":[],"name":"withdrawLimitModule","outputs":[{"internalType":"address","name":"","type":"address"}],"stateMutability":"view","type":"function"}],"evm":{"bytecode":{"linkReferences":{},"object":"6101006040526301e1855860e0523480156200001a57600080fd5b5060405162007b8238038062007b828339810160408190526200003d9162000394565b600180556001600160a01b03851660808190526040805163313ce56760e01b8152905163313ce567916004808201926020929091908290030181865afa1580156200008c573d6000803e3d6000fd5b505050506040513d601f19601f82011682018060405250810190620000b2919062000467565b60ff1660a081905261010011620000e65760405162461bcd60e51b8152600401620000dd906200048c565b60405180910390fd5b3360c0526301e18558811115620001115760405162461bcd60e51b8152600401620000dd90620004c8565b601681905560136200012485826200060c565b5060146200013384826200060c565b50601180546001600160a01b0319166001600160a01b03841617905583516020808601919091206040805180820182526005815264332e302e3160d81b9084015251620001ca927f8b73c3c69bb8fe3d512ecc4cf759cc79239f7b179b0ffacaa9a75d522b39400f92917fc63fef2293a1f92e82ea14ecff0fffda4a757b8c20dd61198c8b9ebef0985ef4914691309101620006ef565b60405160208183030381529060405280519060200120601b81905550505050505062000745565b60006001600160a01b0382165b92915050565b6000620001fe82620001f1565b6200021c8162000204565b81146200022857600080fd5b50565b8051620001fe8162000211565b634e487b7160e01b600052604160045260246000fd5b601f19601f83011681018181106001600160401b038211171562000276576200027662000238565b6040525050565b60006200028960405190565b90506200029782826200024e565b919050565b60006001600160401b03821115620002b857620002b862000238565b601f19601f83011660200192915050565b60005b83811015620002e6578181015183820152602001620002cc565b50506000910152565b60006200030662000300846200029c565b6200027d565b905082815260208101848484011115620003235762000323600080fd5b62000330848285620002c9565b509392505050565b600082601f8301126200034e576200034e600080fd5b815162000360848260208601620002ef565b949350505050565b6200021c81620001f1565b8051620001fe8162000368565b806200021c565b8051620001fe8162000380565b600080600080600060a08688031215620003b157620003b1600080fd5b6000620003bf88886200022b565b95505060208601516001600160401b03811115620003e057620003e0600080fd5b620003ee8882890162000338565b94505060408601516001600160401b038111156200040f576200040f600080fd5b6200041d8882890162000338565b9350506060620004308882890162000373565b9250506080620004438882890162000387565b9150509295509295909350565b60ff81166200021c565b8051620001fe8162000450565b6000602082840312156200047e576200047e600080fd5b60006200036084846200045a565b60208082528101620001fe81601d81527f5661756c743a20696e76616c696420617373657420646563696d616c73000000602082015260400190565b60208082528101620001fe81602281527f5661756c743a2070726f66697420756e6c6f636b2074696d6520746f6f206c6f6020820152616e6760f01b604082015260600190565b634e487b7160e01b600052602260045260246000fd5b6002810460018216806200053a57607f821691505b6020821081036200054f576200054f6200050f565b50919050565b6000620001fe620005638381565b90565b620005718362000555565b81546008840282811b60001990911b908116901990911617825550505050565b6000620005a081848462000566565b505050565b81811015620005c457620005bb60008262000591565b600101620005a5565b5050565b601f821115620005a0576000818152602090206020601f85010481016020851015620005f15750805b620006056020601f860104830182620005a5565b5050505050565b81516001600160401b0381111562000628576200062862000238565b62000634825462000525565b62000641828285620005c8565b6020601f8311600181146200067857600084156200065f5750858201515b600019600886021c1981166002860217865550620006d4565b600085815260208120601f198616915b82811015620006aa578885015182556020948501946001909201910162000688565b86831015620006c75784890151600019601f89166008021c191682555b6001600288020188555050505b505050505050565b805b82525050565b620006de81620001f1565b60a08101620006ff8288620006dc565b6200070e6020830187620006dc565b6200071d6040830186620006dc565b6200072c6060830185620006dc565b6200073b6080830184620006e4565b9695505050505050565b60805160a05160c05160e051617370620008126000396000818161071d0152611e680152600081816107e70152614f8901526000818161080e015281816108450152611acd0152600081816108ae0152818161097b015281816115020152818161268c01528181613248015281816132e4015281816134fb0152818161353b01528181613640015281816136bd0152818161393f01528181613b490152818161426c01528181614677015281816148ff01528181615145015281816151d9015261522401526173706000f3fe608060405234801561001057600080fd5b50600436106105df5760003560e01c80636e553f6511610307578063bf86d6901161019e578063dd62ed3e116100ef578063f6d7bfa01161009d578063f6d7bfa014610f36578063f828f50b14610f49578063fc0e74d114610f52578063fc7b9c1814610f5f578063fd967f4714610f67578063fec61f0614610f70578063ff1e7f0814610f9757600080fd5b8063dd62ed3e14610e9d578063df69b22a14610ed6578063e5236cc914610ee9578063ecf7085814610ef1578063ef8b30f714610dde578063f1daeba814610efa578063f5b944eb14610f2157600080fd5b8063c9a16ea41161014c578063c9a16ea414610e0f578063d4ae064f14610e22578063d505accf14610e49578063d538e90414610e5c578063d547741f14610e6f578063d81a09f614610e82578063d9a0e97a14610e9557600080fd5b8063bf86d69014610d72578063c065ca0714610d7d578063c0993eea14610da4578063c63d75b614610dcb578063c6e6f59214610dde578063c8d74b6014610df1578063c8dffa9514610e0657600080fd5b80639e34e34811610258578063ab5b4d4911610206578063ab5b4d4914610cd1578063b3c187f214610cf8578063b3d7f6b914610d0b578063b6cc2d1f14610d1e578063bb994d4814610d3f578063bbe4eb4914610d52578063bdc8144b14610d5f57600080fd5b80639e34e34814610c415780639f3988f314610c54578063a217fddf14610c7b578063a457c2d714610c83578063a73f7f8a14610c96578063a9059cbb14610ca9578063a98222c414610cbc57600080fd5b806391d14854116102b557806391d1485414610bc057806394bf804d14610bd357806395d89b4114610be65780639937464214610bee57806399530b0614610c1e5780639aa7df9414610c265780639bbca88414610c2e57600080fd5b80636e553f6514610b2757806370a0823114610b3a57806377e3b26714610b4d5780637ecebe0014610b715780638212fd4314610b915780638afca8f014610ba45780639198600314610bad57600080fd5b806336568abe1161047b5780634ce1d38a116103cc5780635bf6b4fb1161037a5780635bf6b4fb14610a85578063629b914214610aac578063633f228c14610abf578063652da32414610ad257806365cb676514610af95780636853920e14610b0c5780636d02080814610b1f57600080fd5b80634ce1d38a146109d05780634cfe51dc146109f75780634d4bb19714610a0c5780634fb3ccc514610a335780635141eebb14610a4657806353a6613214610a4f5780635a56909914610a7257600080fd5b8063402d267d11610429578063402d267d1461093d578063405977e71461095057806346e6ac49146109635780634800d97f1461097657806348ea7127146109aa5780634bbd71e9146109bd5780634cdad5061461069157600080fd5b806336568abe1461088d57806336fba084146108a057806338d52e0f146108ac57806339509351146108d257806339ebf823146108e55780633cd7b5ab1461092c5780633f7b5e401461093557600080fd5b806318160ddd116105355780632d772168116104e35780632d772168146107cf5780632dd31000146107e25780632e0f2625146108095780632f2ff15d14610830578063313ce5671461084357806334b5fab6146108715780633644e5151461088457600080fd5b806318160ddd1461073f578063223e54791461074757806323b872dd1461075a578063248a9ca31461076d578063258294101461079057806329f3cef5146107b15780632d632692146107c657600080fd5b80630835a3fc116105925780630835a3fc146106a45780630952864e146106ad578063095ea7b3146106b65780630a28a477146106c95780630ad283d0146106dc57806316b87ac01461070357806316d3bfbb1461071857600080fd5b8062435da5146105e457806301e1d1141461060d57806301ffc9a71461062257806303dcd12c1461064257806306580f2d1461066957806306fdde031461067c57806307a2d13a14610691575b600080fd5b6011546105f7906001600160a01b031681565b604051610604919061575a565b60405180910390f35b610615610faa565b604051610604919061576e565b61063561063036600461579e565b610fb9565b60405161060491906157c7565b6106157f633076a97f32ae349b28772e7b1483f67a926f150cbc501d02bdbd77389325ab81565b6106156106773660046158ff565b610ff0565b61068461102d565b60405161060491906159e7565b61061561069f3660046159f8565b6110bb565b610615600a5481565b61061560165481565b6106356106c4366004615a19565b6110c8565b6106156106d73660046159f8565b6110dc565b6106157fc723f4dd6268e1c374639e36d629c765285ee7003913389d582c300f186dde9781565b610716610711366004615a56565b6110e9565b005b6106157f000000000000000000000000000000000000000000000000000000000000000081565b610615611122565b610716610755366004615a56565b61112c565b610635610768366004615a77565b61115f565b61061561077b3660046159f8565b60009081526020819052604090206001015490565b604080518082019091526005815264332e302e3160d81b6020820152610684565b6107b96111ba565b6040516106049190615b24565b61061560175481565b6107166107dd366004615a56565b61121c565b6105f77f000000000000000000000000000000000000000000000000000000000000000081565b6106157f000000000000000000000000000000000000000000000000000000000000000081565b61071661083e366004615b35565b6112c5565b7f00000000000000000000000000000000000000000000000000000000000000006040516106049190615b71565b61061561087f366004615b7f565b6112ef565b610615601b5481565b61071661089b366004615b35565b61133d565b61061564e8d4a5100081565b7f00000000000000000000000000000000000000000000000000000000000000006105f7565b6106356108e0366004615a19565b61136f565b61091c6108f3366004615a56565b600260208190526000918252604090912080546001820154928201546003909201549092919084565b6040516106049493929190615bdf565b61061560095481565b610615600a81565b61061561094b366004615a56565b61137c565b61071661095e366004615a19565b611387565b610615610971366004615a19565b61161c565b61099d7f000000000000000000000000000000000000000000000000000000000000000081565b6040516106049190615c56565b6107166109b8366004615a56565b61165d565b6107166109cb366004615a56565b6116d2565b6106157f69d1171ac0a63777a6733cda21aec9ed3d48a4fd11f273c934a691dec5e5589c81565b61061560008051602061729b83398151915281565b6106157f6e71edae12b1b97f4d1f60370fef10105fa2faae0126114a169c64845d6126c981565b600c546105f7906001600160a01b031681565b61061560185481565b610635610a5d3660046159f8565b60106020526000908152604090205460ff1681565b610615610a80366004615a19565b611747565b6106157fea672c1c09cd95c51af9509f646f3615ff0071aae8652bd821471ee9037fd72c81565b610716610aba366004615a56565b61178c565b610716610acd366004615cae565b6117c7565b6106157fcd9f023a942ee35097ead74b2505bea9f2c5d47465db92dd195cf7f01a41cfe181565b610615610b07366004615b7f565b6118ab565b610716610b1a366004615a19565b6118b8565b610716611920565b610615610b35366004615b35565b611994565b610615610b48366004615a56565b6119b4565b61068460405180604001604052806005815260200164332e302e3160d81b81525081565b610615610b7f366004615a56565b601a6020526000908152604090205481565b610716610b9f3660046159f8565b611a0d565b61061560195481565b600e546105f7906001600160a01b031681565b610635610bce366004615b35565b611a78565b610615610be1366004615b35565b611aa1565b610684611ab6565b610c11610bfc366004615a56565b600f6020526000908152604090205460ff1681565b6040516106049190615d39565b610615611ac3565b600954610615565b610716610c3c366004615d5a565b611afa565b600d546105f7906001600160a01b031681565b6106157f6f430d649a8640e48ff9bfbc353b3f99ed630163857821b3b4075e3871dafbf581565b610615600081565b610635610c91366004615a19565b611b50565b610716610ca4366004615a19565b611b5d565b610635610cb7366004615a19565b611b7f565b61061560008051602061731b83398151915281565b6106157f900d80def0427daac599092fcb16b21808ec68dd9a2e1eae89d1e8db2135737581565b6012546105f7906001600160a01b031681565b610615610d193660046159f8565b611bd2565b610d31610d2c366004615a56565b611bdf565b604051610604929190615d7b565b610716610d4d366004615a56565b611c30565b6004546106359060ff1681565b610716610d6d3660046159f8565b611c65565b60155460ff16610635565b6106157f2a0e761830cc61f2707ea7bb138008bf9dda7f7d34c77736d0a116604e95ea1681565b6106157f8b73c3c69bb8fe3d512ecc4cf759cc79239f7b179b0ffacaa9a75d522b39400f81565b610615610dd9366004615a56565b611cfe565b610615610dec3660046159f8565b611d17565b61061560008051602061727b83398151915281565b61061560085481565b610716610e1d3660046159f8565b611d24565b6106157fa18eaea71a088b547b8c932b48861853b3434d9a3240b94466c607e28b69659581565b610635610e57366004615daa565b611d84565b610716610e6a3660046159f8565b611da3565b610716610e7d366004615b35565b611dd9565b610615610e903660046158ff565b611dfe565b610615611e32565b610615610eab366004615e49565b6001600160a01b03918216600090815260066020908152604080832093909416825291909152205490565b610716610ee43660046159f8565b611e3c565b610716611f07565b610615600b5481565b6106157f7cbb3cdf689b8ea3e9d265f66bc4e0a99069268217017d38d2a5a559abc6271981565b6106156000805160206172bb83398151915281565b610716610f44366004615a19565b61202f565b61061560075481565b6015546106359060ff1681565b600854610615565b61061561271081565b6106157fd45f7ccff42f059d4e47c3f027c444272257266f7e88b981e142f0aa38fbfd7881565b6105f7610fa53660046159f8565b6120ed565b6000610fb4612117565b905090565b60006001600160e01b03198216637965db0b60e01b1480610fea57506301ffc9a760e01b6001600160e01b03198316145b92915050565b6000610ffa612129565b6000611007876000612152565b9050611018338787848b89896121ec565b91505061102460018055565b95945050505050565b6013805461103a90615e81565b80601f016020809104026020016040519081016040528092919081815260200182805461106690615e81565b80156110b35780601f10611088576101008083540402835291602001916110b3565b820191906000526020600020905b81548152906001019060200180831161109657829003601f168201915b505050505081565b6000610fea826000612152565b60006110d533848461228d565b9392505050565b6000610fea826001612348565b7fea672c1c09cd95c51af9509f646f3615ff0071aae8652bd821471ee9037fd72c611113816123e3565b61111e8260016123f0565b5050565b6000610fb461262c565b7f2a0e761830cc61f2707ea7bb138008bf9dda7f7d34c77736d0a116604e95ea16611156816123e3565b61111e8261264d565b60006001600160a01b038316301480159061118257506001600160a01b03831615155b6111a75760405162461bcd60e51b815260040161119e90615ed7565b60405180910390fd5b6111b2848484612864565b949350505050565b6060600380548060200260200160405190810160405280929190818152602001828054801561121257602002820191906000526020600020905b81546001600160a01b031681526001909101906020018083116111f4575b5050505050905090565b60008051602061731b833981519152611234816123e3565b60155460ff16156112575760405162461bcd60e51b815260040161119e90615f13565b600019600b541461127a5760405162461bcd60e51b815260040161119e90615f4d565b600d80546001600160a01b0319166001600160a01b0384169081179091556040517f777d215db24fb9fee4ded85c66b422abd7162a1caa6ed3ec4c031f6cd29ada5290600090a25050565b6000828152602081905260409020600101546112e0816123e3565b6112ea8383612886565b505050565b6000806112fd85858561290a565b9050600061130c826001612348565b6001600160a01b038716600090815260056020526040902054909150611333908290612cd4565b9695505050505050565b6001600160a01b03811633146113655760405162461bcd60e51b815260040161119e90615fac565b61111e8282612cea565b60006110d5338484612d4f565b6000610fea82612d9c565b7f900d80def0427daac599092fcb16b21808ec68dd9a2e1eae89d1e8db213573756113b1816123e3565b6113b9612129565b6001600160a01b03831660009081526002602052604081205490036113f05760405162461bcd60e51b815260040161119e90615fdd565b6001600160a01b038316600090815260026020819052604090912001548061142a5760405162461bcd60e51b815260040161119e90616012565b6000831161144a5760405162461bcd60e51b815260040161119e9061604c565b80831115611456578092505b60008184866001600160a01b03166370a08231306040518263ffffffff1660e01b8152600401611486919061575a565b602060405180830381865afa1580156114a3573d6000803e3d6000fd5b505050506040513d601f19601f820116820180604052508101906114c79190616067565b6114d1919061609e565b6114db91906160d3565b9050600081116114fd5760405162461bcd60e51b815260040161119e9061610d565b6115297f0000000000000000000000000000000000000000000000000000000000000000333087612e74565b6001600160a01b0385166000908152600260208190526040822001805486929061155490849061611d565b92505081905550836008600082825461156d919061611d565b9250508190555083600960008282546115869190616130565b90915550506001600160a01b0385166000805160206172fb833981519152836115af878261611d565b6040516115bd929190615d7b565b60405180910390a26115d0853383612f82565b846001600160a01b03167fe94e7f88819f66c19b097748cb754149f63b1a176ed425dee1f1ee933e6d09b085604051611609919061576e565b60405180910390a250506112ea60018055565b600060008051602061727b833981519152611636816123e3565b61163e612129565b600061164a8585613067565b92505061165660018055565b5092915050565b7fcd9f023a942ee35097ead74b2505bea9f2c5d47465db92dd195cf7f01a41cfe1611687816123e3565b600c80546001600160a01b0319166001600160a01b0384169081179091556040517f28709a2dab2a5d5e8688e96159011151c51644ab21839a8a45b449634d7c8b2b90600090a25050565b7f69d1171ac0a63777a6733cda21aec9ed3d48a4fd11f273c934a691dec5e5589c6116fc816123e3565b600e80546001600160a01b0319166001600160a01b0384169081179091556040517fce6e3f8beda82a13c441d76efd4a6335760f219f38c60502e6680060874e109d90600090a25050565b6001600160a01b0382166000908152600260208190526040822001548211156117825760405162461bcd60e51b815260040161119e90616189565b6110d58383613782565b6000805160206172bb8339815191526117a4816123e3565b50601280546001600160a01b0319166001600160a01b0392909216919091179055565b60008051602061729b8339815191526117df816123e3565b60005b8281101561185f5760008484838181106117fe576117fe616199565b90506020020160208101906118139190615a56565b6001600160a01b0381166000908152600260205260408120549192500361184c5760405162461bcd60e51b815260040161119e906161d7565b5080611857816161e7565b9150506117e2565b5061186c6003848461563c565b507f0bc0cb8c5ccee13e6a2fd26a699f57ad7ff6e454e6aae97ec41cd2eb9ebd63a5838360405161189e92919061624d565b60405180910390a1505050565b60006111b284848461290a565b6000805160206172bb8339815191526118d0816123e3565b6118da8284612cea565b826001600160a01b03167f1395522074be2925cc0fe997dc4fe5d15a507c2a971e00c315e5a2e08c9b0e5083604051611913919061576e565b60405180910390a2505050565b6012546001600160a01b0316331461194a5760405162461bcd60e51b815260040161119e906162a1565b60118054336001600160a01b031991821681179092556012805490911690556040517fce93baa0b608a7d420822b6b90cfcccb70574363ba4fd26ef5ac17dd465016c490600090a2565b600061199e612129565b6119a93383856138da565b9050610fea60018055565b6000306001600160a01b038316036119f1576119ce613a57565b6001600160a01b038316600090815260056020526040902054610fea919061611d565b506001600160a01b031660009081526005602052604090205490565b7fc723f4dd6268e1c374639e36d629c765285ee7003913389d582c300f186dde97611a37816123e3565b600a8290556040517f01a4494beed88920b88742cc58f2744e198f55ff192635a1fbabc6be8ffade8190611a6c90849061576e565b60405180910390a15050565b6000918252602082815260408084206001600160a01b0393909316845291905290205460ff1690565b6000611aab612129565b6119a9338385613ab5565b6014805461103a90615e81565b6000610fb4611af37f0000000000000000000000000000000000000000000000000000000000000000600a6163bf565b6000612152565b60008051602061729b833981519152611b12816123e3565b6004805460ff19168315151790556040517f1f88e73ebc721f227812938fe07a069ec1f7136aafacb397ed460bd15dee13f190611a6c9084906157c7565b60006110d5338484613c2d565b6000805160206172bb833981519152611b75816123e3565b6118da8284612886565b60006001600160a01b0383163014801590611ba257506001600160a01b03831615155b611bbe5760405162461bcd60e51b815260040161119e90615ed7565b611bc9338484613c61565b50600192915050565b6000610fea826001612152565b6000807f633076a97f32ae349b28772e7b1483f67a926f150cbc501d02bdbd77389325ab611c0c816123e3565b611c14612129565b611c1d84613d6e565b92509250611c2a60018055565b50915091565b7f6f430d649a8640e48ff9bfbc353b3f99ed630163857821b3b4075e3871dafbf5611c5a816123e3565b61111e8260006123f0565b60008051602061731b833981519152611c7d816123e3565b60155460ff1615611ca05760405162461bcd60e51b815260040161119e90615f13565b600d546001600160a01b031615611cc95760405162461bcd60e51b815260040161119e906163f1565b600b8290556040517fae565aab888bca5e19e25a13db7b0c9144305bf55cb0f3f4d724f730e5acdd6290611a6c90849061576e565b600080611d0a83612d9c565b90506110d5816000612348565b6000610fea826000612348565b6000805160206172bb833981519152611d3c816123e3565b6000828152601060205260409020805460ff1916905560015b60405183907f9f6d8ceb5fe3a6380949b0777bd5802511579b6fbbc87194c108a91d372f952790600090a35050565b6000611d9588888888888888613ea9565b90505b979650505050505050565b6000805160206172bb833981519152611dbb816123e3565b6000828152601060205260408120805460ff19166001179055611d55565b600082815260208190526040902060010154611df4816123e3565b6112ea8383612cea565b6000611e08612129565b6000611e15876001612348565b9050611e263387878a8589896121ec565b50905061102460018055565b6000610fb4613a57565b7fa18eaea71a088b547b8c932b48861853b3434d9a3240b94466c607e28b696595611e66816123e3565b7f0000000000000000000000000000000000000000000000000000000000000000821115611ea65760405162461bcd60e51b815260040161119e90616435565b81600003611ed25730600081815260056020526040902054611ec7916140ba565b600060188190556017555b60168290556040517ff361aed463da6fa20358e45c6209f1d3e16d4eca706e6eab0b0aeb338729c77a90611a6c90849061576e565b7fd45f7ccff42f059d4e47c3f027c444272257266f7e88b981e142f0aa38fbfd78611f31816123e3565b60155460ff1615611f545760405162461bcd60e51b815260040161119e90616479565b6015805460ff19166001179055600d546001600160a01b031615611fae57600d80546001600160a01b03191690556040516000907f777d215db24fb9fee4ded85c66b422abd7162a1caa6ed3ec4c031f6cd29ada52908290a25b6000600b8190556040517fae565aab888bca5e19e25a13db7b0c9144305bf55cb0f3f4d724f730e5acdd6291611fe39161649e565b60405180910390a16120033360008051602061727b833981519152611b5d565b6040517f4426aa1fb73e391071491fcfe21a88b5c38a0a0333a1f6e77161470439704cf890600090a150565b7f7cbb3cdf689b8ea3e9d265f66bc4e0a99069268217017d38d2a5a559abc62719612059816123e3565b6001600160a01b03831660009081526002602052604081205490036120905760405162461bcd60e51b815260040161119e906164d4565b6001600160a01b038316600081815260026020526040908190206003018490555133907fb3eef2123fec1523a6bbc90aceb203000154c1a4974335fe06b544c7534d4b89906120e090869061576e565b60405180910390a3505050565b600381815481106120fd57600080fd5b6000918252602090912001546001600160a01b0316905081565b6000600854600954610fb49190616130565b60026001540361214b5760405162461bcd60e51b815260040161119e90616518565b6002600155565b6000600019831480612162575082155b1561216e575081610fea565b600061217861262c565b90508060000361218b5783915050610fea565b6000612195612117565b905060006121a3828761609e565b905060006121b184836160d3565b905060018660018111156121c7576121c7615cf5565b1480156121dc57506121d98483616528565b15155b1561133357611d98600182616130565b60006121fd88888888888888614170565b612208868986614219565b600080612215878561423d565b915091506122298a8a8a898b87878c61488f565b876001600160a01b0316896001600160a01b03168b6001600160a01b03167ffbde797d201c681b91056529119e0b02407c7bb96a4a2c75c01fc9667232c8db858a604051612278929190615d7b565b60405180910390a45098975050505050505050565b60006001600160a01b0384166122b55760405162461bcd60e51b815260040161119e9061657d565b6001600160a01b0383166122db5760405162461bcd60e51b815260040161119e906165cc565b6001600160a01b0380851660008181526006602090815260408083209488168084529490915290819020859055517f8c5be1e5ebec7d5bd14f71427d1e84f3dd0314c0f7b2291e5b200ac8c7c3b9259061233690869061576e565b60405180910390a35060019392505050565b6000600019831480612358575082155b15612364575081610fea565b600061236e61262c565b9050600061237a612117565b9050806000036123a15781600003612396578492505050610fea565b600092505050610fea565b60006123ad838761609e565b905060006123bb83836160d3565b905060018660018111156123d1576123d1615cf5565b1480156121dc57506121d98383616528565b6123ed813361492f565b50565b6001600160a01b03821660009081526002602052604081205490036124275760405162461bcd60e51b815260040161119e90616606565b6001600160a01b038216600090815260026020819052604082200154156124eb57816124655760405162461bcd60e51b815260040161119e9061663e565b506001600160a01b038216600090815260026020819052604082200154600880549192839261249590849061611d565b92505081905550826001600160a01b03167f7f2ad1d3ba35276f35ef140f83e3e0f17b23064fd710113d3f7a5ab30d2678116000836000806000806040516124e29695949392919061664e565b60405180910390a25b604080516080810182526000808252602080830182815283850183815260608086018581526001600160a01b038b1686526002948590529690942094518555905160018501555190830155915160039182015554156125d05760005b6003548110156125ce5760006003828154811061256657612566616199565b6000918252602090912001546001600160a01b039081169150861681146125bb578083838151811061259a5761259a616199565b60200260200101906001600160a01b031690816001600160a01b0316815250505b50806125c6816161e7565b915050612547565b505b80516125e390600390602084019061569f565b50836001600160a01b03167fbcf55f13710eed7eda89416c2984da5475fcff67e96fe85e56eed808559a5222600160405161261e91906166cb565b60405180910390a250505050565b600080612637613a57565b905080600754612647919061611d565b91505090565b6001600160a01b0381161580159061266e57506001600160a01b0381163014155b61268a5760405162461bcd60e51b815260040161119e9061670d565b7f00000000000000000000000000000000000000000000000000000000000000006001600160a01b0316816001600160a01b03166338d52e0f6040518163ffffffff1660e01b8152600401602060405180830381865afa1580156126f2573d6000803e3d6000fd5b505050506040513d601f19601f820116820180604052508101906127169190616728565b6001600160a01b03161461273c5760405162461bcd60e51b815260040161119e9061676d565b6001600160a01b038116600090815260026020526040902054156127725760405162461bcd60e51b815260040161119e906167ab565b604080516080810182524280825260208083019182526000838501818152606085018281526001600160a01b0388168352600293849052959091209351845591516001840155905190820155905160039182015554600a81101561281e57816003826127dd816161e7565b9350815481106127ef576127ef616199565b9060005260206000200160006101000a8154816001600160a01b0302191690836001600160a01b031602179055505b816001600160a01b03167fbcf55f13710eed7eda89416c2984da5475fcff67e96fe85e56eed808559a5222600060405161285891906166cb565b60405180910390a25050565b6000612871843384614988565b61287c848484613c61565b5060019392505050565b6128908282611a78565b61111e576000828152602081815260408083206001600160a01b03851684529091529020805460ff191660011790556128c63390565b6001600160a01b0316816001600160a01b0316837f2f8788117e7eff1d82e926ec794901d17c78024a50270940304540a733656f0d60405160405180910390a45050565b6001600160a01b038316600090815260056020526040812054819061292f9082612152565b600e549091506001600160a01b0316156129d157600e54604051632319b8cf60e01b81526000916001600160a01b031690632319b8cf90612978908990899089906004016167bb565b6020604051808303816000875af1158015612997573d6000803e3d6000fd5b505050506040513d601f19601f820116820180604052508101906129bb9190616067565b9050818110156129c9578091505b5090506110d5565b60095480821115612ccb57835181906000908190158015906129f6575060045460ff16155b612a5a576003805480602002602001604051908101604052809291908181526020018280548015612a5057602002820191906000526020600020905b81546001600160a01b03168152600190910190602001808311612a32575b5050505050612a5c565b865b905060005b8151811015612cc4576000828281518110612a7e57612a7e616199565b6020026020010151905060026000826001600160a01b03166001600160a01b0316815260200190815260200160002060000154600003612ad05760405162461bcd60e51b815260040161119e906164d4565b6000612b01612adf878a61611d565b6001600160a01b03841660009081526002602081905260409091200154612cd4565b90506000612b0f8383613782565b90506000836001600160a01b03166307a2d13a856001600160a01b031663d905777e306040518263ffffffff1660e01b8152600401612b4e919061575a565b602060405180830381865afa158015612b6b573d6000803e3d6000fd5b505050506040513d601f19601f82011682018060405250810190612b8f9190616067565b6040518263ffffffff1660e01b8152600401612bab919061576e565b602060405180830381865afa158015612bc8573d6000803e3d6000fd5b505050506040513d601f19601f82011682018060405250810190612bec9190616067565b9050612bf8828461611d565b811015612c235782612c0a828461609e565b612c1491906160d3565b9150612c208282616130565b92505b82600003612c345750505050612cb2565b600082118015612c4557506127108d105b15612c85576127108d612c58858b616130565b612c62919061609e565b612c6c91906160d3565b612c768389616130565b1115612c855750505050612cc4565b612c8f8389616130565b9750898810612ca15750505050612cc4565b612cab8288616130565b9650505050505b80612cbc816161e7565b915050612a61565b5091935050505b50949350505050565b6000818310612ce357816110d5565b5090919050565b612cf48282611a78565b1561111e576000828152602081815260408083206001600160a01b0385168085529252808320805460ff1916905551339285917ff6391f5c32d9c69d2a47ea670b442974b53935d1edc7fd64eb21e047a839171b9190a45050565b6001600160a01b0380841660009081526006602090815260408083209386168352929052908120548190612d8390846149e2565b9050612d9085858361228d565b50600195945050505050565b60006001600160a01b038216301480612dbc57506001600160a01b038216155b15612dc957506000919050565b600d546001600160a01b03168015612e4857604051632355178960e11b81526001600160a01b038216906346aa2f1290612e0790869060040161575a565b602060405180830381865afa158015612e24573d6000803e3d6000fd5b505050506040513d601f19601f820116820180604052508101906110d59190616067565b6000612e52612117565b600b54909150808210612e6a57506000949350505050565b611024828261611d565b6001600160a01b038416612e9a5760405162461bcd60e51b815260040161119e9061681c565b6001600160a01b038316612ec05760405162461bcd60e51b815260040161119e90616860565b6001600160a01b038216612ee65760405162461bcd60e51b815260040161119e906168a4565b6040516323b872dd60e01b81526000906001600160a01b038616906323b872dd90612f19908790879087906004016168b4565b6020604051808303816000875af1158015612f38573d6000803e3d6000fd5b505050506040513d601f19601f82011682018060405250810190612f5c91906168e7565b905080612f7b5760405162461bcd60e51b815260040161119e9061692e565b5050505050565b6001600160a01b038316612fa85760405162461bcd60e51b815260040161119e9061681c565b6001600160a01b038216612fce5760405162461bcd60e51b815260040161119e906168a4565b60405163a9059cbb60e01b81526000906001600160a01b0385169063a9059cbb90612fff908690869060040161693e565b6020604051808303816000875af115801561301e573d6000803e3d6000fd5b505050506040513d601f19601f8201168201806040525081019061304291906168e7565b9050806130615760405162461bcd60e51b815260040161119e9061692e565b50505050565b6001600160a01b03821660009081526002602081905260408220015460155483919060ff161561309657600091505b8082036130b55760405162461bcd60e51b815260040161119e90616980565b818111156133c75760006130c9838361611d565b9050600a54816009546130dc9190616130565b10156130ff57600954600a546130f2919061611d565b9050818111156130ff5750805b604051636c82bbbf60e11b81526000906001600160a01b038816906307a2d13a90829063d905777e9061313690309060040161575a565b602060405180830381865afa158015613153573d6000803e3d6000fd5b505050506040513d601f19601f820116820180604052508101906131779190616067565b6040518263ffffffff1660e01b8152600401613193919061576e565b602060405180830381865afa1580156131b0573d6000803e3d6000fd5b505050506040513d601f19601f820116820180604052508101906131d49190616067565b9050600081116131f65760405162461bcd60e51b815260040161119e906169ba565b81811015613202578091505b600061320e8884613782565b9050801561322e5760405162461bcd60e51b815260040161119e906169fe565b6040516370a0823160e01b81526000906001600160a01b037f000000000000000000000000000000000000000000000000000000000000000016906370a082319061327d90309060040161575a565b602060405180830381865afa15801561329a573d6000803e3d6000fd5b505050506040513d601f19601f820116820180604052508101906132be9190616067565b90506132ca89856149ee565b6040516370a0823160e01b81526000906001600160a01b037f000000000000000000000000000000000000000000000000000000000000000016906370a082319061331990309060040161575a565b602060405180830381865afa158015613336573d6000803e3d6000fd5b505050506040513d601f19601f8201168201806040525081019061335a9190616067565b9050600061337161336b848461611d565b88612cd4565b90508581111561337f578095505b80600960008282546133919190616130565b9250508190555085600860008282546133aa919061611d565b909155506133ba9050868861611d565b9750505050505050613734565b6001600160a01b0385166000908152600260205260409020600301548211156134025760405162461bcd60e51b815260040161119e90616a40565b60405163402d267d60e01b81526000906001600160a01b0387169063402d267d9061343190309060040161575a565b602060405180830381865afa15801561344e573d6000803e3d6000fd5b505050506040513d601f19601f820116820180604052508101906134729190616067565b9050600081116134945760405162461bcd60e51b815260040161119e90616a79565b60006134a0838561611d565b9050818111156134ad5750805b600a54600954116134d05760405162461bcd60e51b815260040161119e90616ab3565b6000600a546009546134e2919061611d565b9050808211156134f0578091505b8115613730576135217f00000000000000000000000000000000000000000000000000000000000000008984614b48565b6040516370a0823160e01b81526000906001600160a01b037f000000000000000000000000000000000000000000000000000000000000000016906370a082319061357090309060040161575a565b602060405180830381865afa15801561358d573d6000803e3d6000fd5b505050506040513d601f19601f820116820180604052508101906135b19190616067565b604051636e553f6560e01b81529091506001600160a01b038a1690636e553f65906135e29086903090600401616ac3565b6020604051808303816000875af1158015613601573d6000803e3d6000fd5b505050506040513d601f19601f820116820180604052508101906136259190616067565b506040516370a0823160e01b81526000906001600160a01b037f000000000000000000000000000000000000000000000000000000000000000016906370a082319061367590309060040161575a565b602060405180830381865afa158015613692573d6000803e3d6000fd5b505050506040513d601f19601f820116820180604052508101906136b69190616067565b90506136e47f00000000000000000000000000000000000000000000000000000000000000008b6000614b48565b6136ee818361611d565b93508360096000828254613702919061611d565b92505081905550836008600082825461371b9190616130565b9091555061372b90508487616130565b965050505b5050505b6001600160a01b03851660008181526002602081905260409182902001849055516000805160206172fb833981519152906137729084908690615d7b565b60405180910390a2509392505050565b6001600160a01b03821660008181526002602081905260408083209091015490516370a0823160e01b8152919290918391906370a08231906137c890309060040161575a565b602060405180830381865afa1580156137e5573d6000803e3d6000fd5b505050506040513d601f19601f820116820180604052508101906138099190616067565b90506000856001600160a01b03166307a2d13a836040518263ffffffff1660e01b8152600401613839919061576e565b602060405180830381865afa158015613856573d6000803e3d6000fd5b505050506040513d601f19601f8201168201806040525081019061387a9190616067565b90508281101580613889575082155b1561389a5760009350505050610fea565b60006138a6828761609e565b905060006138b485836160d3565b6138be908861611d565b90506138ca8583616528565b15611d9857611d95600182616130565b60155460009060ff16156139005760405162461bcd60e51b815260040161119e90616afd565b61390983612d9c565b8211156139285760405162461bcd60e51b815260040161119e90616b38565b6040516323b872dd60e01b81526001600160a01b037f000000000000000000000000000000000000000000000000000000000000000016906323b872dd90613978903390309087906004016168b4565b6020604051808303816000875af1158015613997573d6000803e3d6000fd5b505050506040513d601f19601f820116820180604052508101906139bb91906168e7565b5081600960008282546139ce9190616130565b90915550600090506139e08385614c27565b905060008111613a025760405162461bcd60e51b815260040161119e90616b6f565b836001600160a01b0316856001600160a01b03167fdcbc1c05240f31ff3ad067ef1ee35ce4997762752e3a095284754544f4c709d78584604051613a47929190615d7b565b60405180910390a3949350505050565b6017546000908142821115613a985764e8d4a5100060195442613a7a919061611d565b601854613a87919061609e565b613a9191906160d3565b9050610fea565b8115610fea57503060009081526005602052604090205492915050565b60155460009060ff1615613adb5760405162461bcd60e51b815260040161119e90616afd565b6000613ae8836001612152565b905060008111613b0a5760405162461bcd60e51b815260040161119e90616ba9565b613b1384612d9c565b811115613b325760405162461bcd60e51b815260040161119e90616b38565b6040516323b872dd60e01b81526001600160a01b037f000000000000000000000000000000000000000000000000000000000000000016906323b872dd90613b82903390309086906004016168b4565b6020604051808303816000875af1158015613ba1573d6000803e3d6000fd5b505050506040513d601f19601f82011682018060405250810190613bc591906168e7565b508060096000828254613bd89190616130565b90915550613be890508385614cd7565b836001600160a01b0316856001600160a01b03167fdcbc1c05240f31ff3ad067ef1ee35ce4997762752e3a095284754544f4c709d78386604051613a47929190615d7b565b6001600160a01b0380841660009081526006602090815260408083209386168352929052908120548190612d839084614d6f565b6001600160a01b03831660009081526005602052604090205481811015613c9a5760405162461bcd60e51b815260040161119e90616be2565b6001600160a01b038416613cc05760405162461bcd60e51b815260040161119e90616c34565b6001600160a01b038316613ce65760405162461bcd60e51b815260040161119e90616c84565b613cf08183614d6f565b6001600160a01b038086166000908152600560205260408082209390935590851681522054613d1f81846149e2565b6001600160a01b0380861660008181526005602052604090819020939093559151908716906000805160206172db83398151915290613d5f90879061576e565b60405180910390a35050505050565b6001600160a01b03811660009081526002602052604081205481908103613da75760405162461bcd60e51b815260040161119e906164d4565b613daf614d7b565b600080613dbb85614dab565b915091506000613dcc868484614ee1565b90506000613de3838360000151846040015161504f565b9050600080613df5838588888d61510c565b91509150613e09868560200151848461541c565b6001600160a01b038916600081815260026020819052604080832042600182015590910154908601517f7f2ad1d3ba35276f35ef140f83e3e0f17b23064fd710113d3f7a5ab30d267811928a928a929091613e649190612152565b613e7b89602001518a60400151611af39190616130565b8a60200151604051613e9296959493929190616c94565b60405180910390a250939792965091945050505050565b60006001600160a01b038816613ed15760405162461bcd60e51b815260040161119e90616d17565b42851015613ef15760405162461bcd60e51b815260040161119e90616d5b565b6001600160a01b0388166000908152601a60209081526040808320549051909291613f48917f6e71edae12b1b97f4d1f60370fef10105fa2faae0126114a169c64845d6126c9918d918d918d9188918e9101616d6b565b6040516020818303038152906040528051906020012090506000601b5482604051602001613f77929190616d93565b604051602081830303815290604052805190602001209050600060018289898960405160008152602001604052604051613fb49493929190616dc4565b6020604051602081039080840390855afa158015613fd6573d6000803e3d6000fd5b5050604051601f1901519150506001600160a01b0381161580159061400c57508b6001600160a01b0316816001600160a01b0316145b6140285760405162461bcd60e51b815260040161119e90616e13565b6140338c8c8c61228d565b506001600160a01b038c166000908152601a60205260408120805491614058836161e7565b91905055508a6001600160a01b03168c6001600160a01b03167f8c5be1e5ebec7d5bd14f71427d1e84f3dd0314c0f7b2291e5b200ac8c7c3b9258c6040516140a0919061576e565b60405180910390a35060019b9a5050505050505050505050565b6001600160a01b0381166000908152600560205260409020548211156140f25760405162461bcd60e51b815260040161119e90616e4d565b6001600160a01b0381166000908152600560205260408120805484929061411a90849061611d565b925050819055508160076000828254614133919061611d565b90915550506040516000906001600160a01b038316906000805160206172db8339815191529061416490869061576e565b60405180910390a35050565b6001600160a01b0386166141965760405162461bcd60e51b815260040161119e90616e80565b6127108211156141b85760405162461bcd60e51b815260040161119e90616eaf565b600083116141d85760405162461bcd60e51b815260040161119e90616ee9565b6001600160a01b0385166000908152600560205260409020548311156142105760405162461bcd60e51b815260040161119e90616f23565b50505050505050565b826001600160a01b0316826001600160a01b0316146112ea576112ea838383614988565b60008060006040518060c0016040528086815260200160095481526020016008548152602001600081526020017f00000000000000000000000000000000000000000000000000000000000000006001600160a01b03166370a08231306040518263ffffffff1660e01b81526004016142b6919061575a565b602060405180830381865afa1580156142d3573d6000803e3d6000fd5b505050506040513d601f19601f820116820180604052508101906142f79190616067565b815260006020918201528101518151919250101561487a5760008451600014158015614326575060045460ff16155b61438a57600380548060200260200160405190810160405280929190818152602001828054801561438057602002820191906000526020600020905b81546001600160a01b03168152600190910190602001808311614362575b505050505061438c565b845b6020830151835191925061439f9161611d565b606083015260005b815181101561484a5760008282815181106143c4576143c4616199565b6020026020010151905060026000826001600160a01b03166001600160a01b03168152602001908152602001600020600001546000036144165760405162461bcd60e51b815260040161119e906164d4565b6001600160a01b03811660009081526002602081905260408220015460608601519091906144449083612cd4565b90506000836001600160a01b03166307a2d13a856001600160a01b031663d905777e306040518263ffffffff1660e01b8152600401614483919061575a565b602060405180830381865afa1580156144a0573d6000803e3d6000fd5b505050506040513d601f19601f820116820180604052508101906144c49190616067565b6040518263ffffffff1660e01b81526004016144e0919061576e565b602060405180830381865afa1580156144fd573d6000803e3d6000fd5b505050506040513d601f19601f820116820180604052508101906145219190616067565b9050600061452f8584613782565b9050801561463557614541818461611d565b82101561457b576000614554828561611d565b905080614561848461609e565b61456b91906160d3565b91506145778284616130565b9350505b614585818461611d565b92508088600001818151614599919061611d565b9052506060880180518291906145b090839061611d565b9052506040880180518291906145c790839061611d565b905250811580156145d85750600081115b156146355760006145e9828661611d565b6001600160a01b0387166000818152600260208190526040918290200183905551919250906000805160206172fb8339815191529061462b9088908590615d7b565b60405180910390a2505b61463f8383612cd4565b925082600003614653575050505050614838565b61465d85846149ee565b6040516370a0823160e01b81526000906001600160a01b037f000000000000000000000000000000000000000000000000000000000000000016906370a08231906146ac90309060040161575a565b602060405180830381865afa1580156146c9573d6000803e3d6000fd5b505050506040513d601f19601f820116820180604052508101906146ed9190616067565b90506000896080015182614701919061611d565b9050600085821115614738578682111561471d5786955061474d565b614727868361611d565b6147319087616130565b955061474d565b8582101561474d5761474a828761611d565b90505b614757818761611d565b8b6020018181516147689190616130565b9052508a5181908c9061477c90839061611d565b90525060408b01805187919061479390839061611d565b90525060006147a28588616130565b6147ac908961611d565b6001600160a01b038a166000818152600260208190526040918290200183905551919250906000805160206172fb833981519152906147ee908b908590615d7b565b60405180910390a260208c01518c51116148105750505050505050505061484a565b60808c0184905260608c01805188919061482b90839061611d565b9052505050505050505050505b80614842816161e7565b9150506143a7565b508151602083015110156148705760405162461bcd60e51b815260040161119e90616f67565b5060408101516008555b805160209091015190925090505b9250929050565b828411801561489f575061271081105b156148e3576127106148b1828661609e565b6148bb91906160d3565b6148c5848661611d565b11156148e35760405162461bcd60e51b815260040161119e90616f9b565b6148ed85876140ba565b6148f7838361611d565b6009556149257f00000000000000000000000000000000000000000000000000000000000000008885612f82565b5050505050505050565b6149398282611a78565b61111e57614946816154bf565b6149518360206154d1565b604051602001614962929190616fcd565b60408051601f198184030181529082905262461bcd60e51b825261119e916004016159e7565b6001600160a01b03808416600090815260066020908152604080832093861683529290522054818110156149ce5760405162461bcd60e51b815260040161119e90617053565b612f7b84846149dd8486614d6f565b61228d565b60006110d58284616130565b6000614ad2836001600160a01b0316630a28a477846040518263ffffffff1660e01b8152600401614a1f919061576e565b602060405180830381865afa158015614a3c573d6000803e3d6000fd5b505050506040513d601f19601f82011682018060405250810190614a609190616067565b6040516370a0823160e01b81526001600160a01b038616906370a0823190614a8c90309060040161575a565b602060405180830381865afa158015614aa9573d6000803e3d6000fd5b505050506040513d601f19601f82011682018060405250810190614acd9190616067565b612cd4565b604051635d043b2960e11b81529091506001600160a01b0384169063ba08765290614b0590849030908190600401617063565b6020604051808303816000875af1158015614b24573d6000803e3d6000fd5b505050506040513d601f19601f820116820180604052508101906130619190616067565b6001600160a01b038316614b6e5760405162461bcd60e51b815260040161119e9061681c565b6001600160a01b038216614b945760405162461bcd60e51b815260040161119e906170bf565b60405163095ea7b360e01b81526000906001600160a01b0385169063095ea7b390614bc5908690869060040161693e565b6020604051808303816000875af1158015614be4573d6000803e3d6000fd5b505050506040513d601f19601f82011682018060405250810190614c0891906168e7565b9050806130615760405162461bcd60e51b815260040161119e906170f5565b60006001600160a01b038216614c4f5760405162461bcd60e51b815260040161119e90617137565b6000614c5961262c565b90506000614c65612117565b9050600082600003614c78575084614cbd565b85821115614ca557614c8a868361611d565b614c94848861609e565b614c9e91906160d3565b9050614cbd565b60405162461bcd60e51b815260040161119e9061716d565b80600003614cd15760009350505050610fea565b61102481865b6001600160a01b038116614cfd5760405162461bcd60e51b815260040161119e90617137565b6001600160a01b03811660009081526005602052604081208054849290614d25908490616130565b925050819055508160076000828254614d3e9190616130565b90915550506040516001600160a01b038216906000906000805160206172db8339815191529061416490869061576e565b60006110d5828461611d565b6000614d85613a57565b905080600003614d925750565b426017541115614da157426019555b6123ed81306140ba565b6000806000836001600160a01b03166370a08231306040518263ffffffff1660e01b8152600401614ddc919061575a565b602060405180830381865afa158015614df9573d6000803e3d6000fd5b505050506040513d601f19601f82011682018060405250810190614e1d9190616067565b90506000846001600160a01b03166307a2d13a836040518263ffffffff1660e01b8152600401614e4d919061576e565b602060405180830381865afa158015614e6a573d6000803e3d6000fd5b505050506040513d601f19601f82011682018060405250810190614e8e9190616067565b6001600160a01b0386166000908152600260208190526040822001549192508082841115614ec757614ec0838561611d565b9150614ed4565b614ed1848461611d565b90505b9097909650945050505050565b614ee96156f4565b614ef16156f4565b600c546001600160a01b0316156111b257600c5460405163921f8a8f60e01b81526001600160a01b039091169063921f8a8f90614f369088908890889060040161717d565b60408051808303816000875af1158015614f54573d6000803e3d6000fd5b505050506040513d601f19601f82011682018060405250810190614f789190617198565b6020830152808252156111b25760007f00000000000000000000000000000000000000000000000000000000000000006001600160a01b03166307d3277f6040518163ffffffff1660e01b81526004016040805180830381865afa158015614fe4573d6000803e3d6000fd5b505050506040513d601f19601f8201168201806040525081019061500891906171e0565b6001600160a01b03166060840152905061ffff811615612ccb578151612710906150379061ffff84169061609e565b61504191906160d3565b604083015250949350505050565b61507360405180606001604052806000815260200160008152602001600081525090565b61509760405180606001604052806000815260200160008152602001600081525090565b60006150a38587616130565b11156111b2576150bd6150b68587616130565b6001612348565b815182906150cc908390616130565b90525083156111b2576150e96150e2848661611d565b6000612348565b602082015282156111b2576150ff836000612348565b6040820152949350505050565b60008060008087602001511115615271576020870151600c546040516370a0823160e01b81526152149291614acd916001600160a01b037f00000000000000000000000000000000000000000000000000000000000000008116926370a082319261517e92919091169060040161575a565b602060405180830381865afa15801561519b573d6000803e3d6000fd5b505050506040513d601f19601f820116820180604052508101906151bf9190616067565b600c54604051636eb1769f60e11b81526001600160a01b037f000000000000000000000000000000000000000000000000000000000000000081169263dd62ed3e92614a8c9291909116903090600401617213565b60208801819052600c54615255917f0000000000000000000000000000000000000000000000000000000000000000916001600160a01b0316903090612e74565b86602001516009600082825461526b9190616130565b90915550505b85156152c1576001600160a01b038416600090815260026020819052604082200180548892906152a2908490616130565b9250508190555085600860008282546152bb9190616130565b90915550505b60008760200151876152d39190616130565b1180156152e1575060165415155b15615302576152ff8760200151876152f99190616130565b30614c27565b90505b8415615352576001600160a01b0384166000908152600260208190526040822001805487929061533390849061611d565b92505081905550846008600082825461534c919061611d565b90915550505b3060009081526005602052604081205461536d90839061611d565b8951909150156153ce57885161538790614acd8484616130565b808a5261539490306140ba565b60006153a48a6000015184612cd4565b90506153b0818461611d565b8a519093506153c090829061611d565b6153ca908361611d565b9150505b6020890151156153f3576020890151600c546153f391906001600160a01b0316614cd7565b60408901511561540f5761540f89604001518960600151614cd7565b9890975095505050505050565b60006154288284616130565b905080156154b3576000426017541115615457574260175461544a919061611d565b615454908561609e565b90505b60008260165485615468919061609e565b6154729084616130565b61547c91906160d3565b90508061548e64e8d4a510008561609e565b61549891906160d3565b6018556154a58142616130565b601755505042601955612f7b565b60006018555050505050565b6060610fea6001600160a01b03831660145b606060006154e083600261609e565b6154eb906002616130565b6001600160401b03811115615502576155026157fa565b6040519080825280601f01601f19166020018201604052801561552c576020820181803683370190505b509050600360fc1b8160008151811061554757615547616199565b60200101906001600160f81b031916908160001a905350600f60fb1b8160018151811061557657615576616199565b60200101906001600160f81b031916908160001a905350600061559a84600261609e565b6155a5906001616130565b90505b600181111561561d576f181899199a1a9b1b9c1cb0b131b232b360811b85600f16601081106155d9576155d9616199565b1a60f81b8282815181106155ef576155ef616199565b60200101906001600160f81b031916908160001a90535060049490941c9361561681617221565b90506155a8565b5083156110d55760405162461bcd60e51b815260040161119e9061726a565b82805482825590600052602060002090810192821561568f579160200282015b8281111561568f5781546001600160a01b0319166001600160a01b0384351617825560209092019160019091019061565c565b5061569b929150615725565b5090565b82805482825590600052602060002090810192821561568f579160200282015b8281111561568f57825182546001600160a01b0319166001600160a01b039091161782556020909201916001909101906156bf565b604051806080016040528060008152602001600081526020016000815260200160006001600160a01b031681525090565b5b8082111561569b5760008155600101615726565b60006001600160a01b038216610fea565b6157548161573a565b82525050565b60208101610fea828461574b565b80615754565b60208101610fea8284615768565b6001600160e01b031981165b81146123ed57600080fd5b8035610fea8161577c565b6000602082840312156157b3576157b3600080fd5b60006111b28484615793565b801515615754565b60208101610fea82846157bf565b80615788565b8035610fea816157d5565b6157888161573a565b8035610fea816157e6565b634e487b7160e01b600052604160045260246000fd5b601f19601f83011681018181106001600160401b0382111715615835576158356157fa565b6040525050565b600061584760405190565b90506158538282615810565b919050565b60006001600160401b03821115615871576158716157fa565b5060209081020190565b600061588e61588984615858565b61583c565b838152905060208082019084028301858111156158ad576158ad600080fd5b835b818110156158d157806158c288826157ef565b845250602092830192016158af565b5050509392505050565b600082601f8301126158ef576158ef600080fd5b81356111b284826020860161587b565b600080600080600060a0868803121561591a5761591a600080fd5b600061592688886157db565b9550506020615937888289016157ef565b9450506040615948888289016157ef565b9350506060615959888289016157db565b92505060808601356001600160401b0381111561597857615978600080fd5b615984888289016158db565b9150509295509295909350565b60005b838110156159ac578181015183820152602001615994565b50506000910152565b60006159bf825190565b8084526020840193506159d6818560208601615991565b601f01601f19169290920192915050565b602080825281016110d581846159b5565b600060208284031215615a0d57615a0d600080fd5b60006111b284846157db565b60008060408385031215615a2f57615a2f600080fd5b6000615a3b85856157ef565b9250506020615a4c858286016157db565b9150509250929050565b600060208284031215615a6b57615a6b600080fd5b60006111b284846157ef565b600080600060608486031215615a8f57615a8f600080fd5b6000615a9b86866157ef565b9350506020615aac868287016157ef565b9250506040615abd868287016157db565b9150509250925092565b6000615ad3838361574b565b505060200190565b6000615ae5825190565b80845260209384019383018060005b83811015615b19578151615b088882615ac7565b975060208301925050600101615af4565b509495945050505050565b602080825281016110d58184615adb565b60008060408385031215615b4b57615b4b600080fd5b6000615b5785856157db565b9250506020615a4c858286016157ef565b60ff8116615754565b60208101610fea8284615b68565b600080600060608486031215615b9757615b97600080fd5b6000615ba386866157ef565b9350506020615bb4868287016157db565b92505060408401356001600160401b03811115615bd357615bd3600080fd5b615abd868287016158db565b60808101615bed8287615768565b615bfa6020830186615768565b615c076040830185615768565b6110246060830184615768565b6000610fea6001600160a01b038316615c2b565b90565b6001600160a01b031690565b6000610fea82615c14565b6000610fea82615c37565b61575481615c42565b60208101610fea8284615c4d565b60008083601f840112615c7957615c79600080fd5b5081356001600160401b03811115615c9357615c93600080fd5b60208301915083602082028301111561488857614888600080fd5b60008060208385031215615cc457615cc4600080fd5b82356001600160401b03811115615cdd57615cdd600080fd5b615ce985828601615c64565b92509250509250929050565b634e487b7160e01b600052602160045260246000fd5b600e81106123ed576123ed615cf5565b8061585381615d0b565b6000610fea82615d1b565b61575481615d25565b60208101610fea8284615d30565b801515615788565b8035610fea81615d47565b600060208284031215615d6f57615d6f600080fd5b60006111b28484615d4f565b60408101615d898285615768565b6110d56020830184615768565b60ff8116615788565b8035610fea81615d96565b600080600080600080600060e0888a031215615dc857615dc8600080fd5b6000615dd48a8a6157ef565b9750506020615de58a828b016157ef565b9650506040615df68a828b016157db565b9550506060615e078a828b016157db565b9450506080615e188a828b01615d9f565b93505060a0615e298a828b016157db565b92505060c0615e3a8a828b016157db565b91505092959891949750929550565b60008060408385031215615e5f57615e5f600080fd5b6000615b5785856157ef565b634e487b7160e01b600052602260045260246000fd5b600281046001821680615e9557607f821691505b602082108103615ea757615ea7615e6b565b50919050565b601081526000602082016f24b73b30b634b2103932b1b2b4bb32b960811b815291505b5060200190565b60208082528101610fea81615ead565b601581526000602082017421b7b73a3930b1ba1034b99039b43aba103237bbb760591b81529150615ed0565b60208082528101610fea81615ee7565b60138152600060208201721d5cda5b99c819195c1bdcda5d081b1a5b5a5d606a1b81529150615ed0565b60208082528101610fea81615f23565b602f81526000602082017f416363657373436f6e74726f6c3a2063616e206f6e6c792072656e6f756e636581526e103937b632b9903337b91039b2b63360891b602082015291505b5060400190565b60208082528101610fea81615f5d565b600a8152600060208201696e6f742061637469766560b01b81529150615ed0565b60208082528101610fea81615fbc565b600e81526000602082016d6e6f7468696e6720746f2062757960901b81529150615ed0565b60208082528101610fea81615fed565b60138152600060208201720dcdee8d0d2dcce40e8de40c4eaf240eed2e8d606b1b81529150615ed0565b60208082528101610fea81616022565b8051610fea816157d5565b60006020828403121561607c5761607c600080fd5b60006111b2848461605c565b634e487b7160e01b600052601160045260246000fd5b60008160001904831182151516156160b8576160b8616088565b500290565b634e487b7160e01b600052601260045260246000fd5b6000826160e2576160e26160bd565b500490565b600f81526000602082016e63616e6e6f7420627579207a65726f60881b81529150615ed0565b60208082528101610fea816160e7565b81810381811115610fea57610fea616088565b80820180821115610fea57610fea616088565b602981526000602082017f53747261746567792064656274206973206c657373207468616e20617373657481526839903732b2b232b21760b91b60208201529150615fa5565b60208082528101610fea81616143565b634e487b7160e01b600052603260045260246000fd5b6011815260006020820170496e61637469766520737472617465677960781b81529150615ed0565b60208082528101610fea816161af565b600060001982036161fa576161fa616088565b5060010190565b60006110d560208401846157ef565b8183526000602084019350818060005b85811015615b19576162328284616201565b61623c8882615ac7565b975060208301925050600101616220565b602080825281016111b2818486616210565b602581526000602082017f43616c6c6572206973206e6f74207468652066757475726520726f6c65206d618152643730b3b2b960d91b60208201529150615fa5565b60208082528101610fea8161625f565b80825b60018511156162f0578086048111156162cf576162cf616088565b60018516156162dd57908102905b80026162e98560011c90565b94506162b4565b94509492505050565b600082616308575060016110d5565b81616315575060006110d5565b816001811461632b576002811461633557616362565b60019150506110d5565b60ff84111561634657616346616088565b8360020a91508482111561635c5761635c616088565b506110d5565b5060208310610133831016604e8410600b8410161715616395575081810a8381111561639057616390616088565b6110d5565b6163a284848460016162b1565b925090508184048111156163b8576163b8616088565b0292915050565b60006110d560001984846162f9565b600c81526000602082016b7573696e67206d6f64756c6560a01b81529150615ed0565b60208082528101610fea816163ce565b601b81526000602082017f50726f66697420756e6c6f636b2074696d6520746f6f206c6f6e67000000000081529150615ed0565b60208082528101610fea81616401565b601a81526000602082017f5661756c7420697320616c7265616479207368757420646f776e00000000000081529150615ed0565b60208082528101610fea81616445565b6000610fea615c288381565b61575481616489565b60208101610fea8284616495565b6011815260006020820170696e61637469766520737472617465677960781b81529150615ed0565b60208082528101610fea816164ac565b601f81526000602082017f5265656e7472616e637947756172643a207265656e7472616e742063616c6c0081529150615ed0565b60208082528101610fea816164e4565b600082616537576165376160bd565b500690565b602481526000602082017f45524332303a20617070726f76652066726f6d20746865207a65726f206164648152637265737360e01b60208201529150615fa5565b60208082528101610fea8161653c565b602281526000602082017f45524332303a20617070726f766520746f20746865207a65726f206164647265815261737360f01b60208201529150615fa5565b60208082528101610fea8161658d565b60138152600060208201727374726174656779206e6f742061637469766560681b81529150615ed0565b60208082528101610fea816165dc565b60118152600060208201701cdd1c985d1959de481a185cc81919589d607a1b81529150615ed0565b60208082528101610fea81616616565b60c0810161665c8289616495565b6166696020830188615768565b6166766040830187616495565b6166836060830186616495565b6166906080830185616495565b611d9860a0830184616495565b600281106123ed576123ed615cf5565b806158538161669d565b6000610fea826166ad565b615754816166b7565b60208101610fea82846166c2565b601f81526000602082017f73747261746567792063616e6e6f74206265207a65726f20616464726573730081529150615ed0565b60208082528101610fea816166d9565b8051610fea816157e6565b60006020828403121561673d5761673d600080fd5b60006111b2848461671d565b600d81526000602082016c1a5b9d985b1a5908185cdcd95d609a1b81529150615ed0565b60208082528101610fea81616749565b6017815260006020820176737472617465677920616c72656164792061637469766560481b81529150615ed0565b60208082528101610fea8161677d565b606081016167c9828661574b565b6167d66020830185615768565b81810360408301526110248184615adb565b601c81526000602082017f546f6b656e20616464726573732063616e6e6f74206265207a65726f0000000081529150615ed0565b60208082528101610fea816167e8565b601d81526000602082017f53656e64657220616464726573732063616e6e6f74206265207a65726f00000081529150615ed0565b60208082528101610fea8161682c565b601f81526000602082017f526563656976657220616464726573732063616e6e6f74206265207a65726f0081529150615ed0565b60208082528101610fea81616870565b606081016168c2828661574b565b6168cf602083018561574b565b6111b26040830184615768565b8051610fea81615d47565b6000602082840312156168fc576168fc600080fd5b60006111b284846168dc565b600f81526000602082016e1d1c985b9cd9995c8819985a5b1959608a1b81529150615ed0565b60208082528101610fea81616908565b60408101615d89828561574b565b601c81526000602082017f4e6577206465627420657175616c732063757272656e7420646562740000000081529150615ed0565b60208082528101610fea8161694c565b60138152600060208201724e6f7468696e6720746f20776974686472617760681b81529150615ed0565b60208082528101610fea81616990565b601e81526000602082017f73747261746567792068617320756e7265616c69736564206c6f73736573000081529150615ed0565b60208082528101610fea816169ca565b60208082527f546172676574206465627420686967686572207468616e206d6178206465627491019081526000615ed0565b60208082528101610fea81616a0e565b6012815260006020820171139bdd1a1a5b99c81d1bc819195c1bdcda5d60721b81529150615ed0565b60208082528101610fea81616a50565b6013815260006020820172139bc8199d5b991cc81d1bc819195c1bdcda5d606a1b81529150615ed0565b60208082528101610fea81616a89565b60408101616ad18285615768565b6110d5602083018461574b565b600881526000602082016739b43aba3237bbb760c11b81529150615ed0565b60208082528101610fea81616ade565b6014815260006020820173195e18d959590819195c1bdcda5d081b1a5b5a5d60621b81529150615ed0565b60208082528101610fea81616b0d565b601081526000602082016f63616e6e6f74206d696e74207a65726f60801b81529150615ed0565b60208082528101610fea81616b48565b601381526000602082017263616e6e6f74206465706f736974207a65726f60681b81529150615ed0565b60208082528101610fea81616b7f565b6012815260006020820171696e73756666696369656e742066756e647360701b81529150615ed0565b60208082528101610fea81616bb9565b602581526000602082017f45524332303a207472616e736665722066726f6d20746865207a65726f206164815264647265737360d81b60208201529150615fa5565b60208082528101610fea81616bf2565b602381526000602082017f45524332303a207472616e7366657220746f20746865207a65726f206164647281526265737360e81b60208201529150615fa5565b60208082528101610fea81616c44565b60c08101616ca28289615768565b616caf6020830188615768565b616cbc6040830187615768565b616cc96060830186615768565b616cd66080830185615768565b611d9860a0830184615768565b601a81526000602082017f45524332305065726d69743a20696e76616c6964206f776e657200000000000081529150615ed0565b60208082528101610fea81616ce3565b601d81526000602082017f45524332305065726d69743a206578706972656420646561646c696e6500000081529150615ed0565b60208082528101610fea81616d27565b60c08101616d798289615768565b616d86602083018861574b565b616cbc604083018761574b565b61190160f01b81526002016000616daa8285615768565b602082019150616dba8284615768565b5060200192915050565b60808101616dd28287615768565b615bfa6020830186615b68565b601e81526000602082017f45524332305065726d69743a20696e76616c6964207369676e6174757265000081529150615ed0565b60208082528101610fea81616ddf565b6013815260006020820172496e73756666696369656e742073686172657360681b81529150615ed0565b60208082528101610fea81616e23565b600c81526000602082016b5a45524f204144445245535360a01b81529150615ed0565b60208082528101610fea81616e5d565b60088152600060208201676d6178206c6f737360c01b81529150615ed0565b60208082528101610fea81616e90565b60138152600060208201726e6f2073686172657320746f2072656465656d60681b81529150615ed0565b60208082528101610fea81616ebf565b6013815260006020820172696e73756666696369656e742073686172657360681b81529150615ed0565b60208082528101610fea81616ef9565b601c81526000602082017f696e73756666696369656e742061737365747320696e207661756c740000000081529150615ed0565b60208082528101610fea81616f33565b600d81526000602082016c746f6f206d756368206c6f737360981b81529150615ed0565b60208082528101610fea81616f77565b6000616fb5825190565b616fc3818560208601615991565b9290920192915050565b76020b1b1b2b9b9a1b7b73a3937b61d1030b1b1b7bab73a1604d1b81526017016000616ff98285616fab565b7001034b99036b4b9b9b4b733903937b6329607d1b815260110191506111b28284616fab565b601d81526000602082017f45524332303a20696e73756666696369656e7420616c6c6f77616e636500000081529150615ed0565b60208082528101610fea8161701f565b606081016170718286615768565b61707e602083018561574b565b6111b2604083018461574b565b601e81526000602082017f5370656e64657220616464726573732063616e6e6f74206265207a65726f000081529150615ed0565b60208082528101610fea8161708b565b600f81526000602082016e185c1c1c9bdd985b0819985a5b1959608a1b81529150615ed0565b60208082528101610fea816170cf565b60208082527f526563697069656e7420616464726573732063616e6e6f74206265207a65726f91019081526000615ed0565b60208082528101610fea81617105565b600f81526000602082016e0c2dadeeadce840e8dede40d0d2ced608b1b81529150615ed0565b60208082528101610fea81617147565b6060810161718b828661574b565b6168cf6020830185615768565b600080604083850312156171ae576171ae600080fd5b60006171ba858561605c565b9250506020615a4c8582860161605c565b61ffff8116615788565b8051610fea816171cb565b600080604083850312156171f6576171f6600080fd5b600061720285856171d5565b9250506020615a4c8582860161671d565b60408101616ad1828561574b565b60008161723057617230616088565b506000190190565b60208082527f537472696e67733a20686578206c656e67746820696e73756666696369656e7491019081526000615ed0565b60208082528101610fea8161723856fe152ebba56b9738ee3d8baea1b76fa31dcdcd79b1929bfea7d58ee12cfdf1a653862f91c9d89d6135b19873b921c90b702cb2e175c371b8430026b9577e691119f206625bad3d9112d5609b8d356e6fbd514cd1f69980d4ce2b3e6e68e1789aceddf252ad1be2c89b69c2b068fc378daa952ba7f163c4a11628f55a4df523b3ef5e2b8821ad6e0e26207e0cb4d242d07eeb1cbb1cfd853e645bdcd27cc5484f952f0dbbe8c2c0170206c50ec0cafa1c0dbd03e73e67c2a960178df30a0a30ee2ea26469706673582212200f99a09b1a5a353a19af69dd82f260d1297a8e15831b6ee4107a3461d5939c7064736f6c63430008100033","opcodes":"PUSH2 0x100 PUSH1 0x40 MSTORE PUSH4 0x1E18558 PUSH1 0xE0 MSTORE CALLVALUE DUP1 ISZERO PUSH3 0x1A JUMPI PUSH1 0x0 DUP1 REVERT JUMPDEST POP PUSH1 0x40 MLOAD PUSH3 0x7B82 CODESIZE SUB DUP1 PUSH3 0x7B82 DUP4 CODECOPY DUP2 ADD PUSH1 0x40 DUP2 SWAP1 MSTORE PUSH3 0x3D SWAP2 PUSH3 0x394 JUMP JUMPDEST PUSH1 0x1 DUP1 SSTORE PUSH1 0x1 PUSH1 0x1 PUSH1 0xA0 SHL SUB DUP6 AND PUSH1 0x80 DUP2 SWAP1 MSTORE PUSH1 0x40 DUP1 MLOAD PUSH4 0x313CE567 PUSH1 0xE0 SHL DUP2 MSTORE SWAP1 MLOAD PUSH4 0x313CE567 SWAP2 PUSH1 0x4 DUP1 DUP3 ADD SWAP3 PUSH1 0x20 SWAP3 SWAP1 SWAP2 SWAP1 DUP3 SWAP1 SUB ADD DUP2 DUP7 GAS STATICCALL ISZERO DUP1 ISZERO PUSH3 0x8C JUMPI RETURNDATASIZE PUSH1 0x0 DUP1 RETURNDATACOPY RETURNDATASIZE PUSH1 0x0 REVERT JUMPDEST POP POP POP POP PUSH1 0x40 MLOAD RETURNDATASIZE PUSH1 0x1F NOT PUSH1 0x1F DUP3 ADD AND DUP3 ADD DUP1 PUSH1 0x40 MSTORE POP DUP2 ADD SWAP1 PUSH3 0xB2 SWAP2 SWAP1 PUSH3 0x467 JUMP JUMPDEST PUSH1 0xFF AND PUSH1 0xA0 DUP2 SWAP1 MSTORE PUSH2 0x100 GT PUSH3 0xE6 JUMPI PUSH1 0x40 MLOAD PUSH3 0x461BCD PUSH1 0xE5 SHL DUP2 MSTORE PUSH1 0x4 ADD PUSH3 0xDD SWAP1 PUSH3 0x48C JUMP JUMPDEST PUSH1 0x40 MLOAD DUP1 SWAP2 SUB SWAP1 REVERT JUMPDEST CALLER PUSH1 0xC0 MSTORE PUSH4 0x1E18558 DUP2 GT ISZERO PUSH3 0x111 JUMPI PUSH1 0x40 MLOAD PUSH3 0x461BCD PUSH1 0xE5 SHL DUP2 MSTORE PUSH1 0x4 ADD PUSH3 0xDD SWAP1 PUSH3 0x4C8 JUMP JUMPDEST PUSH1 0x16 DUP2 SWAP1 SSTORE PUSH1 0x13 PUSH3 0x124 DUP6 DUP3 PUSH3 0x60C JUMP JUMPDEST POP PUSH1 0x14 PUSH3 0x133 DUP5 DUP3 PUSH3 0x60C JUMP JUMPDEST POP PUSH1 0x11 DUP1 SLOAD PUSH1 0x1 PUSH1 0x1 PUSH1 0xA0 SHL SUB NOT AND PUSH1 0x1 PUSH1 0x1 PUSH1 0xA0 SHL SUB DUP5 AND OR SWAP1 SSTORE DUP4 MLOAD PUSH1 0x20 DUP1 DUP7 ADD SWAP2 SWAP1 SWAP2 KECCAK256 PUSH1 0x40 DUP1 MLOAD DUP1 DUP3 ADD DUP3 MSTORE PUSH1 0x5 DUP2 MSTORE PUSH5 0x332E302E31 PUSH1 0xD8 SHL SWAP1 DUP5 ADD MSTORE MLOAD PUSH3 0x1CA SWAP3 PUSH32 0x8B73C3C69BB8FE3D512ECC4CF759CC79239F7B179B0FFACAA9A75D522B39400F SWAP3 SWAP2 PUSH32 0xC63FEF2293A1F92E82EA14ECFF0FFFDA4A757B8C20DD61198C8B9EBEF0985EF4 SWAP2 CHAINID SWAP2 ADDRESS SWAP2 ADD PUSH3 0x6EF JUMP JUMPDEST PUSH1 0x40 MLOAD PUSH1 0x20 DUP2 DUP4 SUB SUB DUP2 MSTORE SWAP1 PUSH1 0x40 MSTORE DUP1 MLOAD SWAP1 PUSH1 0x20 ADD KECCAK256 PUSH1 0x1B DUP2 SWAP1 SSTORE POP POP POP POP POP POP PUSH3 0x745 JUMP JUMPDEST PUSH1 0x0 PUSH1 0x1 PUSH1 0x1 PUSH1 0xA0 SHL SUB DUP3 AND JUMPDEST SWAP3 SWAP2 POP POP JUMP JUMPDEST PUSH1 0x0 PUSH3 0x1FE DUP3 PUSH3 0x1F1 JUMP JUMPDEST PUSH3 0x21C DUP2 PUSH3 0x204 JUMP JUMPDEST DUP2 EQ PUSH3 0x228 JUMPI PUSH1 0x0 DUP1 REVERT JUMPDEST POP JUMP JUMPDEST DUP1 MLOAD PUSH3 0x1FE DUP2 PUSH3 0x211 JUMP JUMPDEST PUSH4 0x4E487B71 PUSH1 0xE0 SHL PUSH1 0x0 MSTORE PUSH1 0x41 PUSH1 0x4 MSTORE PUSH1 0x24 PUSH1 0x0 REVERT JUMPDEST PUSH1 0x1F NOT PUSH1 0x1F DUP4 ADD AND DUP2 ADD DUP2 DUP2 LT PUSH1 0x1 PUSH1 0x1 PUSH1 0x40 SHL SUB DUP3 GT OR ISZERO PUSH3 0x276 JUMPI PUSH3 0x276 PUSH3 0x238 JUMP JUMPDEST PUSH1 0x40 MSTORE POP POP JUMP JUMPDEST PUSH1 0x0 PUSH3 0x289 PUSH1 0x40 MLOAD SWAP1 JUMP JUMPDEST SWAP1 POP PUSH3 0x297 DUP3 DUP3 PUSH3 0x24E JUMP JUMPDEST SWAP2 SWAP1 POP JUMP JUMPDEST PUSH1 0x0 PUSH1 0x1 PUSH1 0x1 PUSH1 0x40 SHL SUB DUP3 GT ISZERO PUSH3 0x2B8 JUMPI PUSH3 0x2B8 PUSH3 0x238 JUMP JUMPDEST PUSH1 0x1F NOT PUSH1 0x1F DUP4 ADD AND PUSH1 0x20 ADD SWAP3 SWAP2 POP POP JUMP JUMPDEST PUSH1 0x0 JUMPDEST DUP4 DUP2 LT ISZERO PUSH3 0x2E6 JUMPI DUP2 DUP2 ADD MLOAD DUP4 DUP3 ADD MSTORE PUSH1 0x20 ADD PUSH3 0x2CC JUMP JUMPDEST POP POP PUSH1 0x0 SWAP2 ADD MSTORE JUMP JUMPDEST PUSH1 0x0 PUSH3 0x306 PUSH3 0x300 DUP5 PUSH3 0x29C JUMP JUMPDEST PUSH3 0x27D JUMP JUMPDEST SWAP1 POP DUP3 DUP2 MSTORE PUSH1 0x20 DUP2 ADD DUP5 DUP5 DUP5 ADD GT ISZERO PUSH3 0x323 JUMPI PUSH3 0x323 PUSH1 0x0 DUP1 REVERT JUMPDEST PUSH3 0x330 DUP5 DUP3 DUP6 PUSH3 0x2C9 JUMP JUMPDEST POP SWAP4 SWAP3 POP POP POP JUMP JUMPDEST PUSH1 0x0 DUP3 PUSH1 0x1F DUP4 ADD SLT PUSH3 0x34E JUMPI PUSH3 0x34E PUSH1 0x0 DUP1 REVERT JUMPDEST DUP2 MLOAD PUSH3 0x360 DUP5 DUP3 PUSH1 0x20 DUP7 ADD PUSH3 0x2EF JUMP JUMPDEST SWAP5 SWAP4 POP POP POP POP JUMP JUMPDEST PUSH3 0x21C DUP2 PUSH3 0x1F1 JUMP JUMPDEST DUP1 MLOAD PUSH3 0x1FE DUP2 PUSH3 0x368 JUMP JUMPDEST DUP1 PUSH3 0x21C JUMP JUMPDEST DUP1 MLOAD PUSH3 0x1FE DUP2 PUSH3 0x380 JUMP JUMPDEST PUSH1 0x0 DUP1 PUSH1 0x0 DUP1 PUSH1 0x0 PUSH1 0xA0 DUP7 DUP9 SUB SLT ISZERO PUSH3 0x3B1 JUMPI PUSH3 0x3B1 PUSH1 0x0 DUP1 REVERT JUMPDEST PUSH1 0x0 PUSH3 0x3BF DUP9 DUP9 PUSH3 0x22B JUMP JUMPDEST SWAP6 POP POP PUSH1 0x20 DUP7 ADD MLOAD PUSH1 0x1 PUSH1 0x1 PUSH1 0x40 SHL SUB DUP2 GT ISZERO PUSH3 0x3E0 JUMPI PUSH3 0x3E0 PUSH1 0x0 DUP1 REVERT JUMPDEST PUSH3 0x3EE DUP9 DUP3 DUP10 ADD PUSH3 0x338 JUMP JUMPDEST SWAP5 POP POP PUSH1 0x40 DUP7 ADD MLOAD PUSH1 0x1 PUSH1 0x1 PUSH1 0x40 SHL SUB DUP2 GT ISZERO PUSH3 0x40F JUMPI PUSH3 0x40F PUSH1 0x0 DUP1 REVERT JUMPDEST PUSH3 0x41D DUP9 DUP3 DUP10 ADD PUSH3 0x338 JUMP JUMPDEST SWAP4 POP POP PUSH1 0x60 PUSH3 0x430 DUP9 DUP3 DUP10 ADD PUSH3 0x373 JUMP JUMPDEST SWAP3 POP POP PUSH1 0x80 PUSH3 0x443 DUP9 DUP3 DUP10 ADD PUSH3 0x387 JUMP JUMPDEST SWAP2 POP POP SWAP3 SWAP6 POP SWAP3 SWAP6 SWAP1 SWAP4 POP JUMP JUMPDEST PUSH1 0xFF DUP2 AND PUSH3 0x21C JUMP JUMPDEST DUP1 MLOAD PUSH3 0x1FE DUP2 PUSH3 0x450 JUMP JUMPDEST PUSH1 0x0 PUSH1 0x20 DUP3 DUP5 SUB SLT ISZERO PUSH3 0x47E JUMPI PUSH3 0x47E PUSH1 0x0 DUP1 REVERT JUMPDEST PUSH1 0x0 PUSH3 0x360 DUP5 DUP5 PUSH3 0x45A JUMP JUMPDEST PUSH1 0x20 DUP1 DUP3 MSTORE DUP2 ADD PUSH3 0x1FE DUP2 PUSH1 0x1D DUP2 MSTORE PUSH32 0x5661756C743A20696E76616C696420617373657420646563696D616C73000000 PUSH1 0x20 DUP3 ADD MSTORE PUSH1 0x40 ADD SWAP1 JUMP JUMPDEST PUSH1 0x20 DUP1 DUP3 MSTORE DUP2 ADD PUSH3 0x1FE DUP2 PUSH1 0x22 DUP2 MSTORE PUSH32 0x5661756C743A2070726F66697420756E6C6F636B2074696D6520746F6F206C6F PUSH1 0x20 DUP3 ADD MSTORE PUSH2 0x6E67 PUSH1 0xF0 SHL PUSH1 0x40 DUP3 ADD MSTORE PUSH1 0x60 ADD SWAP1 JUMP JUMPDEST PUSH4 0x4E487B71 PUSH1 0xE0 SHL PUSH1 0x0 MSTORE PUSH1 0x22 PUSH1 0x4 MSTORE PUSH1 0x24 PUSH1 0x0 REVERT JUMPDEST PUSH1 0x2 DUP2 DIV PUSH1 0x1 DUP3 AND DUP1 PUSH3 0x53A JUMPI PUSH1 0x7F DUP3 AND SWAP2 POP JUMPDEST PUSH1 0x20 DUP3 LT DUP2 SUB PUSH3 0x54F JUMPI PUSH3 0x54F PUSH3 0x50F JUMP JUMPDEST POP SWAP2 SWAP1 POP JUMP JUMPDEST PUSH1 0x0 PUSH3 0x1FE PUSH3 0x563 DUP4 DUP2 JUMP JUMPDEST SWAP1 JUMP JUMPDEST PUSH3 0x571 DUP4 PUSH3 0x555 JUMP JUMPDEST DUP2 SLOAD PUSH1 0x8 DUP5 MUL DUP3 DUP2 SHL PUSH1 0x0 NOT SWAP1 SWAP2 SHL SWAP1 DUP2 AND SWAP1 NOT SWAP1 SWAP2 AND OR DUP3 SSTORE POP POP POP POP JUMP JUMPDEST PUSH1 0x0 PUSH3 0x5A0 DUP2 DUP5 DUP5 PUSH3 0x566 JUMP JUMPDEST POP POP POP JUMP JUMPDEST DUP2 DUP2 LT ISZERO PUSH3 0x5C4 JUMPI PUSH3 0x5BB PUSH1 0x0 DUP3 PUSH3 0x591 JUMP JUMPDEST PUSH1 0x1 ADD PUSH3 0x5A5 JUMP JUMPDEST POP POP JUMP JUMPDEST PUSH1 0x1F DUP3 GT ISZERO PUSH3 0x5A0 JUMPI PUSH1 0x0 DUP2 DUP2 MSTORE PUSH1 0x20 SWAP1 KECCAK256 PUSH1 0x20 PUSH1 0x1F DUP6 ADD DIV DUP2 ADD PUSH1 0x20 DUP6 LT ISZERO PUSH3 0x5F1 JUMPI POP DUP1 JUMPDEST PUSH3 0x605 PUSH1 0x20 PUSH1 0x1F DUP7 ADD DIV DUP4 ADD DUP3 PUSH3 0x5A5 JUMP JUMPDEST POP POP POP POP POP JUMP JUMPDEST DUP2 MLOAD PUSH1 0x1 PUSH1 0x1 PUSH1 0x40 SHL SUB DUP2 GT ISZERO PUSH3 0x628 JUMPI PUSH3 0x628 PUSH3 0x238 JUMP JUMPDEST PUSH3 0x634 DUP3 SLOAD PUSH3 0x525 JUMP JUMPDEST PUSH3 0x641 DUP3 DUP3 DUP6 PUSH3 0x5C8 JUMP JUMPDEST PUSH1 0x20 PUSH1 0x1F DUP4 GT PUSH1 0x1 DUP2 EQ PUSH3 0x678 JUMPI PUSH1 0x0 DUP5 ISZERO PUSH3 0x65F JUMPI POP DUP6 DUP3 ADD MLOAD JUMPDEST PUSH1 0x0 NOT PUSH1 0x8 DUP7 MUL SHR NOT DUP2 AND PUSH1 0x2 DUP7 MUL OR DUP7 SSTORE POP PUSH3 0x6D4 JUMP JUMPDEST PUSH1 0x0 DUP6 DUP2 MSTORE PUSH1 0x20 DUP2 KECCAK256 PUSH1 0x1F NOT DUP7 AND SWAP2 JUMPDEST DUP3 DUP2 LT ISZERO PUSH3 0x6AA JUMPI DUP9 DUP6 ADD MLOAD DUP3 SSTORE PUSH1 0x20 SWAP5 DUP6 ADD SWAP5 PUSH1 0x1 SWAP1 SWAP3 ADD SWAP2 ADD PUSH3 0x688 JUMP JUMPDEST DUP7 DUP4 LT ISZERO PUSH3 0x6C7 JUMPI DUP5 DUP10 ADD MLOAD PUSH1 0x0 NOT PUSH1 0x1F DUP10 AND PUSH1 0x8 MUL SHR NOT AND DUP3 SSTORE JUMPDEST PUSH1 0x1 PUSH1 0x2 DUP9 MUL ADD DUP9 SSTORE POP POP POP JUMPDEST POP POP POP POP POP POP JUMP JUMPDEST DUP1 JUMPDEST DUP3 MSTORE POP POP JUMP JUMPDEST PUSH3 0x6DE DUP2 PUSH3 0x1F1 JUMP JUMPDEST PUSH1 0xA0 DUP2 ADD PUSH3 0x6FF DUP3 DUP9 PUSH3 0x6DC JUMP JUMPDEST PUSH3 0x70E PUSH1 0x20 DUP4 ADD DUP8 PUSH3 0x6DC JUMP JUMPDEST PUSH3 0x71D PUSH1 0x40 DUP4 ADD DUP7 PUSH3 0x6DC JUMP JUMPDEST PUSH3 0x72C PUSH1 0x60 DUP4 ADD DUP6 PUSH3 0x6DC JUMP JUMPDEST PUSH3 0x73B PUSH1 0x80 DUP4 ADD DUP5 PUSH3 0x6E4 JUMP JUMPDEST SWAP7 SWAP6 POP POP POP POP POP POP JUMP JUMPDEST PUSH1 0x80 MLOAD PUSH1 0xA0 MLOAD PUSH1 0xC0 MLOAD PUSH1 0xE0 MLOAD PUSH2 0x7370 PUSH3 0x812 PUSH1 0x0 CODECOPY PUSH1 0x0 DUP2 DUP2 PUSH2 0x71D ADD MSTORE PUSH2 0x1E68 ADD MSTORE PUSH1 0x0 DUP2 DUP2 PUSH2 0x7E7 ADD MSTORE PUSH2 0x4F89 ADD MSTORE PUSH1 0x0 DUP2 DUP2 PUSH2 0x80E ADD MSTORE DUP2 DUP2 PUSH2 0x845 ADD MSTORE PUSH2 0x1ACD ADD MSTORE PUSH1 0x0 DUP2 DUP2 PUSH2 0x8AE ADD MSTORE DUP2 DUP2 PUSH2 0x97B ADD MSTORE DUP2 DUP2 PUSH2 0x1502 ADD MSTORE DUP2 DUP2 PUSH2 0x268C ADD MSTORE DUP2 DUP2 PUSH2 0x3248 ADD MSTORE DUP2 DUP2 PUSH2 0x32E4 ADD MSTORE DUP2 DUP2 PUSH2 0x34FB ADD MSTORE DUP2 DUP2 PUSH2 0x353B ADD MSTORE DUP2 DUP2 PUSH2 0x3640 ADD MSTORE DUP2 DUP2 PUSH2 0x36BD ADD MSTORE DUP2 DUP2 PUSH2 0x393F ADD MSTORE DUP2 DUP2 PUSH2 0x3B49 ADD MSTORE DUP2 DUP2 PUSH2 0x426C ADD MSTORE DUP2 DUP2 PUSH2 0x4677 ADD MSTORE DUP2 DUP2 PUSH2 0x48FF ADD MSTORE DUP2 DUP2 PUSH2 0x5145 ADD MSTORE DUP2 DUP2 PUSH2 0x51D9 ADD MSTORE PUSH2 0x5224 ADD MSTORE PUSH2 0x7370 PUSH1 0x0 RETURN INVALID PUSH1 0x80 PUSH1 0x40 MSTORE CALLVALUE DUP1 ISZERO PUSH2 0x10 JUMPI PUSH1 0x0 DUP1 REVERT JUMPDEST POP PUSH1 0x4 CALLDATASIZE LT PUSH2 0x5DF JUMPI PUSH1 0x0 CALLDATALOAD PUSH1 0xE0 SHR DUP1 PUSH4 0x6E553F65 GT PUSH2 0x307 JUMPI DUP1 PUSH4 0xBF86D690 GT PUSH2 0x19E JUMPI DUP1 PUSH4 0xDD62ED3E GT PUSH2 0xEF JUMPI DUP1 PUSH4 0xF6D7BFA0 GT PUSH2 0x9D JUMPI DUP1 PUSH4 0xF6D7BFA0 EQ PUSH2 0xF36 JUMPI DUP1 PUSH4 0xF828F50B EQ PUSH2 0xF49 JUMPI DUP1 PUSH4 0xFC0E74D1 EQ PUSH2 0xF52 JUMPI DUP1 PUSH4 0xFC7B9C18 EQ PUSH2 0xF5F JUMPI DUP1 PUSH4 0xFD967F47 EQ PUSH2 0xF67 JUMPI DUP1 PUSH4 0xFEC61F06 EQ PUSH2 0xF70 JUMPI DUP1 PUSH4 0xFF1E7F08 EQ PUSH2 0xF97 JUMPI PUSH1 0x0 DUP1 REVERT JUMPDEST DUP1 PUSH4 0xDD62ED3E EQ PUSH2 0xE9D JUMPI DUP1 PUSH4 0xDF69B22A EQ PUSH2 0xED6 JUMPI DUP1 PUSH4 0xE5236CC9 EQ PUSH2 0xEE9 JUMPI DUP1 PUSH4 0xECF70858 EQ PUSH2 0xEF1 JUMPI DUP1 PUSH4 0xEF8B30F7 EQ PUSH2 0xDDE JUMPI DUP1 PUSH4 0xF1DAEBA8 EQ PUSH2 0xEFA JUMPI DUP1 PUSH4 0xF5B944EB EQ PUSH2 0xF21 JUMPI PUSH1 0x0 DUP1 REVERT JUMPDEST DUP1 PUSH4 0xC9A16EA4 GT PUSH2 0x14C JUMPI DUP1 PUSH4 0xC9A16EA4 EQ PUSH2 0xE0F JUMPI DUP1 PUSH4 0xD4AE064F EQ PUSH2 0xE22 JUMPI DUP1 PUSH4 0xD505ACCF EQ PUSH2 0xE49 JUMPI DUP1 PUSH4 0xD538E904 EQ PUSH2 0xE5C JUMPI DUP1 PUSH4 0xD547741F EQ PUSH2 0xE6F JUMPI DUP1 PUSH4 0xD81A09F6 EQ PUSH2 0xE82 JUMPI DUP1 PUSH4 0xD9A0E97A EQ PUSH2 0xE95 JUMPI PUSH1 0x0 DUP1 REVERT JUMPDEST DUP1 PUSH4 0xBF86D690 EQ PUSH2 0xD72 JUMPI DUP1 PUSH4 0xC065CA07 EQ PUSH2 0xD7D JUMPI DUP1 PUSH4 0xC0993EEA EQ PUSH2 0xDA4 JUMPI DUP1 PUSH4 0xC63D75B6 EQ PUSH2 0xDCB JUMPI DUP1 PUSH4 0xC6E6F592 EQ PUSH2 0xDDE JUMPI DUP1 PUSH4 0xC8D74B60 EQ PUSH2 0xDF1 JUMPI DUP1 PUSH4 0xC8DFFA95 EQ PUSH2 0xE06 JUMPI PUSH1 0x0 DUP1 REVERT JUMPDEST DUP1 PUSH4 0x9E34E348 GT PUSH2 0x258 JUMPI DUP1 PUSH4 0xAB5B4D49 GT PUSH2 0x206 JUMPI DUP1 PUSH4 0xAB5B4D49 EQ PUSH2 0xCD1 JUMPI DUP1 PUSH4 0xB3C187F2 EQ PUSH2 0xCF8 JUMPI DUP1 PUSH4 0xB3D7F6B9 EQ PUSH2 0xD0B JUMPI DUP1 PUSH4 0xB6CC2D1F EQ PUSH2 0xD1E JUMPI DUP1 PUSH4 0xBB994D48 EQ PUSH2 0xD3F JUMPI DUP1 PUSH4 0xBBE4EB49 EQ PUSH2 0xD52 JUMPI DUP1 PUSH4 0xBDC8144B EQ PUSH2 0xD5F JUMPI PUSH1 0x0 DUP1 REVERT JUMPDEST DUP1 PUSH4 0x9E34E348 EQ PUSH2 0xC41 JUMPI DUP1 PUSH4 0x9F3988F3 EQ PUSH2 0xC54 JUMPI DUP1 PUSH4 0xA217FDDF EQ PUSH2 0xC7B JUMPI DUP1 PUSH4 0xA457C2D7 EQ PUSH2 0xC83 JUMPI DUP1 PUSH4 0xA73F7F8A EQ PUSH2 0xC96 JUMPI DUP1 PUSH4 0xA9059CBB EQ PUSH2 0xCA9 JUMPI DUP1 PUSH4 0xA98222C4 EQ PUSH2 0xCBC JUMPI PUSH1 0x0 DUP1 REVERT JUMPDEST DUP1 PUSH4 0x91D14854 GT PUSH2 0x2B5 JUMPI DUP1 PUSH4 0x91D14854 EQ PUSH2 0xBC0 JUMPI DUP1 PUSH4 0x94BF804D EQ PUSH2 0xBD3 JUMPI DUP1 PUSH4 0x95D89B41 EQ PUSH2 0xBE6 JUMPI DUP1 PUSH4 0x99374642 EQ PUSH2 0xBEE JUMPI DUP1 PUSH4 0x99530B06 EQ PUSH2 0xC1E JUMPI DUP1 PUSH4 0x9AA7DF94 EQ PUSH2 0xC26 JUMPI DUP1 PUSH4 0x9BBCA884 EQ PUSH2 0xC2E JUMPI PUSH1 0x0 DUP1 REVERT JUMPDEST DUP1 PUSH4 0x6E553F65 EQ PUSH2 0xB27 JUMPI DUP1 PUSH4 0x70A08231 EQ PUSH2 0xB3A JUMPI DUP1 PUSH4 0x77E3B267 EQ PUSH2 0xB4D JUMPI DUP1 PUSH4 0x7ECEBE00 EQ PUSH2 0xB71 JUMPI DUP1 PUSH4 0x8212FD43 EQ PUSH2 0xB91 JUMPI DUP1 PUSH4 0x8AFCA8F0 EQ PUSH2 0xBA4 JUMPI DUP1 PUSH4 0x91986003 EQ PUSH2 0xBAD JUMPI PUSH1 0x0 DUP1 REVERT JUMPDEST DUP1 PUSH4 0x36568ABE GT PUSH2 0x47B JUMPI DUP1 PUSH4 0x4CE1D38A GT PUSH2 0x3CC JUMPI DUP1 PUSH4 0x5BF6B4FB GT PUSH2 0x37A JUMPI DUP1 PUSH4 0x5BF6B4FB EQ PUSH2 0xA85 JUMPI DUP1 PUSH4 0x629B9142 EQ PUSH2 0xAAC JUMPI DUP1 PUSH4 0x633F228C EQ PUSH2 0xABF JUMPI DUP1 PUSH4 0x652DA324 EQ PUSH2 0xAD2 JUMPI DUP1 PUSH4 0x65CB6765 EQ PUSH2 0xAF9 JUMPI DUP1 PUSH4 0x6853920E EQ PUSH2 0xB0C JUMPI DUP1 PUSH4 0x6D020808 EQ PUSH2 0xB1F JUMPI PUSH1 0x0 DUP1 REVERT JUMPDEST DUP1 PUSH4 0x4CE1D38A EQ PUSH2 0x9D0 JUMPI DUP1 PUSH4 0x4CFE51DC EQ PUSH2 0x9F7 JUMPI DUP1 PUSH4 0x4D4BB197 EQ PUSH2 0xA0C JUMPI DUP1 PUSH4 0x4FB3CCC5 EQ PUSH2 0xA33 JUMPI DUP1 PUSH4 0x5141EEBB EQ PUSH2 0xA46 JUMPI DUP1 PUSH4 0x53A66132 EQ PUSH2 0xA4F JUMPI DUP1 PUSH4 0x5A569099 EQ PUSH2 0xA72 JUMPI PUSH1 0x0 DUP1 REVERT JUMPDEST DUP1 PUSH4 0x402D267D GT PUSH2 0x429 JUMPI DUP1 PUSH4 0x402D267D EQ PUSH2 0x93D JUMPI DUP1 PUSH4 0x405977E7 EQ PUSH2 0x950 JUMPI DUP1 PUSH4 0x46E6AC49 EQ PUSH2 0x963 JUMPI DUP1 PUSH4 0x4800D97F EQ PUSH2 0x976 JUMPI DUP1 PUSH4 0x48EA7127 EQ PUSH2 0x9AA JUMPI DUP1 PUSH4 0x4BBD71E9 EQ PUSH2 0x9BD JUMPI DUP1 PUSH4 0x4CDAD506 EQ PUSH2 0x691 JUMPI PUSH1 0x0 DUP1 REVERT JUMPDEST DUP1 PUSH4 0x36568ABE EQ PUSH2 0x88D JUMPI DUP1 PUSH4 0x36FBA084 EQ PUSH2 0x8A0 JUMPI DUP1 PUSH4 0x38D52E0F EQ PUSH2 0x8AC JUMPI DUP1 PUSH4 0x39509351 EQ PUSH2 0x8D2 JUMPI DUP1 PUSH4 0x39EBF823 EQ PUSH2 0x8E5 JUMPI DUP1 PUSH4 0x3CD7B5AB EQ PUSH2 0x92C JUMPI DUP1 PUSH4 0x3F7B5E40 EQ PUSH2 0x935 JUMPI PUSH1 0x0 DUP1 REVERT JUMPDEST DUP1 PUSH4 0x18160DDD GT PUSH2 0x535 JUMPI DUP1 PUSH4 0x2D772168 GT PUSH2 0x4E3 JUMPI DUP1 PUSH4 0x2D772168 EQ PUSH2 0x7CF JUMPI DUP1 PUSH4 0x2DD31000 EQ PUSH2 0x7E2 JUMPI DUP1 PUSH4 0x2E0F2625 EQ PUSH2 0x809 JUMPI DUP1 PUSH4 0x2F2FF15D EQ PUSH2 0x830 JUMPI DUP1 PUSH4 0x313CE567 EQ PUSH2 0x843 JUMPI DUP1 PUSH4 0x34B5FAB6 EQ PUSH2 0x871 JUMPI DUP1 PUSH4 0x3644E515 EQ PUSH2 0x884 JUMPI PUSH1 0x0 DUP1 REVERT JUMPDEST DUP1 PUSH4 0x18160DDD EQ PUSH2 0x73F JUMPI DUP1 PUSH4 0x223E5479 EQ PUSH2 0x747 JUMPI DUP1 PUSH4 0x23B872DD EQ PUSH2 0x75A JUMPI DUP1 PUSH4 0x248A9CA3 EQ PUSH2 0x76D JUMPI DUP1 PUSH4 0x25829410 EQ PUSH2 0x790 JUMPI DUP1 PUSH4 0x29F3CEF5 EQ PUSH2 0x7B1 JUMPI DUP1 PUSH4 0x2D632692 EQ PUSH2 0x7C6 JUMPI PUSH1 0x0 DUP1 REVERT JUMPDEST DUP1 PUSH4 0x835A3FC GT PUSH2 0x592 JUMPI DUP1 PUSH4 0x835A3FC EQ PUSH2 0x6A4 JUMPI DUP1 PUSH4 0x952864E EQ PUSH2 0x6AD JUMPI DUP1 PUSH4 0x95EA7B3 EQ PUSH2 0x6B6 JUMPI DUP1 PUSH4 0xA28A477 EQ PUSH2 0x6C9 JUMPI DUP1 PUSH4 0xAD283D0 EQ PUSH2 0x6DC JUMPI DUP1 PUSH4 0x16B87AC0 EQ PUSH2 0x703 JUMPI DUP1 PUSH4 0x16D3BFBB EQ PUSH2 0x718 JUMPI PUSH1 0x0 DUP1 REVERT JUMPDEST DUP1 PUSH3 0x435DA5 EQ PUSH2 0x5E4 JUMPI DUP1 PUSH4 0x1E1D114 EQ PUSH2 0x60D JUMPI DUP1 PUSH4 0x1FFC9A7 EQ PUSH2 0x622 JUMPI DUP1 PUSH4 0x3DCD12C EQ PUSH2 0x642 JUMPI DUP1 PUSH4 0x6580F2D EQ PUSH2 0x669 JUMPI DUP1 PUSH4 0x6FDDE03 EQ PUSH2 0x67C JUMPI DUP1 PUSH4 0x7A2D13A EQ PUSH2 0x691 JUMPI JUMPDEST PUSH1 0x0 DUP1 REVERT JUMPDEST PUSH1 0x11 SLOAD PUSH2 0x5F7 SWAP1 PUSH1 0x1 PUSH1 0x1 PUSH1 0xA0 SHL SUB AND DUP2 JUMP JUMPDEST PUSH1 0x40 MLOAD PUSH2 0x604 SWAP2 SWAP1 PUSH2 0x575A JUMP JUMPDEST PUSH1 0x40 MLOAD DUP1 SWAP2 SUB SWAP1 RETURN JUMPDEST PUSH2 0x615 PUSH2 0xFAA JUMP JUMPDEST PUSH1 0x40 MLOAD PUSH2 0x604 SWAP2 SWAP1 PUSH2 0x576E JUMP JUMPDEST PUSH2 0x635 PUSH2 0x630 CALLDATASIZE PUSH1 0x4 PUSH2 0x579E JUMP JUMPDEST PUSH2 0xFB9 JUMP JUMPDEST PUSH1 0x40 MLOAD PUSH2 0x604 SWAP2 SWAP1 PUSH2 0x57C7 JUMP JUMPDEST PUSH2 0x615 PUSH32 0x633076A97F32AE349B28772E7B1483F67A926F150CBC501D02BDBD77389325AB DUP2 JUMP JUMPDEST PUSH2 0x615 PUSH2 0x677 CALLDATASIZE PUSH1 0x4 PUSH2 0x58FF JUMP JUMPDEST PUSH2 0xFF0 JUMP JUMPDEST PUSH2 0x684 PUSH2 0x102D JUMP JUMPDEST PUSH1 0x40 MLOAD PUSH2 0x604 SWAP2 SWAP1 PUSH2 0x59E7 JUMP JUMPDEST PUSH2 0x615 PUSH2 0x69F CALLDATASIZE PUSH1 0x4 PUSH2 0x59F8 JUMP JUMPDEST PUSH2 0x10BB JUMP JUMPDEST PUSH2 0x615 PUSH1 0xA SLOAD DUP2 JUMP JUMPDEST PUSH2 0x615 PUSH1 0x16 SLOAD DUP2 JUMP JUMPDEST PUSH2 0x635 PUSH2 0x6C4 CALLDATASIZE PUSH1 0x4 PUSH2 0x5A19 JUMP JUMPDEST PUSH2 0x10C8 JUMP JUMPDEST PUSH2 0x615 PUSH2 0x6D7 CALLDATASIZE PUSH1 0x4 PUSH2 0x59F8 JUMP JUMPDEST PUSH2 0x10DC JUMP JUMPDEST PUSH2 0x615 PUSH32 0xC723F4DD6268E1C374639E36D629C765285EE7003913389D582C300F186DDE97 DUP2 JUMP JUMPDEST PUSH2 0x716 PUSH2 0x711 CALLDATASIZE PUSH1 0x4 PUSH2 0x5A56 JUMP JUMPDEST PUSH2 0x10E9 JUMP JUMPDEST STOP JUMPDEST PUSH2 0x615 PUSH32 0x0 DUP2 JUMP JUMPDEST PUSH2 0x615 PUSH2 0x1122 JUMP JUMPDEST PUSH2 0x716 PUSH2 0x755 CALLDATASIZE PUSH1 0x4 PUSH2 0x5A56 JUMP JUMPDEST PUSH2 0x112C JUMP JUMPDEST PUSH2 0x635 PUSH2 0x768 CALLDATASIZE PUSH1 0x4 PUSH2 0x5A77 JUMP JUMPDEST PUSH2 0x115F JUMP JUMPDEST PUSH2 0x615 PUSH2 0x77B CALLDATASIZE PUSH1 0x4 PUSH2 0x59F8 JUMP JUMPDEST PUSH1 0x0 SWAP1 DUP2 MSTORE PUSH1 0x20 DUP2 SWAP1 MSTORE PUSH1 0x40 SWAP1 KECCAK256 PUSH1 0x1 ADD SLOAD SWAP1 JUMP JUMPDEST PUSH1 0x40 DUP1 MLOAD DUP1 DUP3 ADD SWAP1 SWAP2 MSTORE PUSH1 0x5 DUP2 MSTORE PUSH5 0x332E302E31 PUSH1 0xD8 SHL PUSH1 0x20 DUP3 ADD MSTORE PUSH2 0x684 JUMP JUMPDEST PUSH2 0x7B9 PUSH2 0x11BA JUMP JUMPDEST PUSH1 0x40 MLOAD PUSH2 0x604 SWAP2 SWAP1 PUSH2 0x5B24 JUMP JUMPDEST PUSH2 0x615 PUSH1 0x17 SLOAD DUP2 JUMP JUMPDEST PUSH2 0x716 PUSH2 0x7DD CALLDATASIZE PUSH1 0x4 PUSH2 0x5A56 JUMP JUMPDEST PUSH2 0x121C JUMP JUMPDEST PUSH2 0x5F7 PUSH32 0x0 DUP2 JUMP JUMPDEST PUSH2 0x615 PUSH32 0x0 DUP2 JUMP JUMPDEST PUSH2 0x716 PUSH2 0x83E CALLDATASIZE PUSH1 0x4 PUSH2 0x5B35 JUMP JUMPDEST PUSH2 0x12C5 JUMP JUMPDEST PUSH32 0x0 PUSH1 0x40 MLOAD PUSH2 0x604 SWAP2 SWAP1 PUSH2 0x5B71 JUMP JUMPDEST PUSH2 0x615 PUSH2 0x87F CALLDATASIZE PUSH1 0x4 PUSH2 0x5B7F JUMP JUMPDEST PUSH2 0x12EF JUMP JUMPDEST PUSH2 0x615 PUSH1 0x1B SLOAD DUP2 JUMP JUMPDEST PUSH2 0x716 PUSH2 0x89B CALLDATASIZE PUSH1 0x4 PUSH2 0x5B35 JUMP JUMPDEST PUSH2 0x133D JUMP JUMPDEST PUSH2 0x615 PUSH5 0xE8D4A51000 DUP2 JUMP JUMPDEST PUSH32 0x0 PUSH2 0x5F7 JUMP JUMPDEST PUSH2 0x635 PUSH2 0x8E0 CALLDATASIZE PUSH1 0x4 PUSH2 0x5A19 JUMP JUMPDEST PUSH2 0x136F JUMP JUMPDEST PUSH2 0x91C PUSH2 0x8F3 CALLDATASIZE PUSH1 0x4 PUSH2 0x5A56 JUMP JUMPDEST PUSH1 0x2 PUSH1 0x20 DUP2 SWAP1 MSTORE PUSH1 0x0 SWAP2 DUP3 MSTORE PUSH1 0x40 SWAP1 SWAP2 KECCAK256 DUP1 SLOAD PUSH1 0x1 DUP3 ADD SLOAD SWAP3 DUP3 ADD SLOAD PUSH1 0x3 SWAP1 SWAP3 ADD SLOAD SWAP1 SWAP3 SWAP2 SWAP1 DUP5 JUMP JUMPDEST PUSH1 0x40 MLOAD PUSH2 0x604 SWAP5 SWAP4 SWAP3 SWAP2 SWAP1 PUSH2 0x5BDF JUMP JUMPDEST PUSH2 0x615 PUSH1 0x9 SLOAD DUP2 JUMP JUMPDEST PUSH2 0x615 PUSH1 0xA DUP2 JUMP JUMPDEST PUSH2 0x615 PUSH2 0x94B CALLDATASIZE PUSH1 0x4 PUSH2 0x5A56 JUMP JUMPDEST PUSH2 0x137C JUMP JUMPDEST PUSH2 0x716 PUSH2 0x95E CALLDATASIZE PUSH1 0x4 PUSH2 0x5A19 JUMP JUMPDEST PUSH2 0x1387 JUMP JUMPDEST PUSH2 0x615 PUSH2 0x971 CALLDATASIZE PUSH1 0x4 PUSH2 0x5A19 JUMP JUMPDEST PUSH2 0x161C JUMP JUMPDEST PUSH2 0x99D PUSH32 0x0 DUP2 JUMP JUMPDEST PUSH1 0x40 MLOAD PUSH2 0x604 SWAP2 SWAP1 PUSH2 0x5C56 JUMP JUMPDEST PUSH2 0x716 PUSH2 0x9B8 CALLDATASIZE PUSH1 0x4 PUSH2 0x5A56 JUMP JUMPDEST PUSH2 0x165D JUMP JUMPDEST PUSH2 0x716 PUSH2 0x9CB CALLDATASIZE PUSH1 0x4 PUSH2 0x5A56 JUMP JUMPDEST PUSH2 0x16D2 JUMP JUMPDEST PUSH2 0x615 PUSH32 0x69D1171AC0A63777A6733CDA21AEC9ED3D48A4FD11F273C934A691DEC5E5589C DUP2 JUMP JUMPDEST PUSH2 0x615 PUSH1 0x0 DUP1 MLOAD PUSH1 0x20 PUSH2 0x729B DUP4 CODECOPY DUP2 MLOAD SWAP2 MSTORE DUP2 JUMP JUMPDEST PUSH2 0x615 PUSH32 0x6E71EDAE12B1B97F4D1F60370FEF10105FA2FAAE0126114A169C64845D6126C9 DUP2 JUMP JUMPDEST PUSH1 0xC SLOAD PUSH2 0x5F7 SWAP1 PUSH1 0x1 PUSH1 0x1 PUSH1 0xA0 SHL SUB AND DUP2 JUMP JUMPDEST PUSH2 0x615 PUSH1 0x18 SLOAD DUP2 JUMP JUMPDEST PUSH2 0x635 PUSH2 0xA5D CALLDATASIZE PUSH1 0x4 PUSH2 0x59F8 JUMP JUMPDEST PUSH1 0x10 PUSH1 0x20 MSTORE PUSH1 0x0 SWAP1 DUP2 MSTORE PUSH1 0x40 SWAP1 KECCAK256 SLOAD PUSH1 0xFF AND DUP2 JUMP JUMPDEST PUSH2 0x615 PUSH2 0xA80 CALLDATASIZE PUSH1 0x4 PUSH2 0x5A19 JUMP JUMPDEST PUSH2 0x1747 JUMP JUMPDEST PUSH2 0x615 PUSH32 0xEA672C1C09CD95C51AF9509F646F3615FF0071AAE8652BD821471EE9037FD72C DUP2 JUMP JUMPDEST PUSH2 0x716 PUSH2 0xABA CALLDATASIZE PUSH1 0x4 PUSH2 0x5A56 JUMP JUMPDEST PUSH2 0x178C JUMP JUMPDEST PUSH2 0x716 PUSH2 0xACD CALLDATASIZE PUSH1 0x4 PUSH2 0x5CAE JUMP JUMPDEST PUSH2 0x17C7 JUMP JUMPDEST PUSH2 0x615 PUSH32 0xCD9F023A942EE35097EAD74B2505BEA9F2C5D47465DB92DD195CF7F01A41CFE1 DUP2 JUMP JUMPDEST PUSH2 0x615 PUSH2 0xB07 CALLDATASIZE PUSH1 0x4 PUSH2 0x5B7F JUMP JUMPDEST PUSH2 0x18AB JUMP JUMPDEST PUSH2 0x716 PUSH2 0xB1A CALLDATASIZE PUSH1 0x4 PUSH2 0x5A19 JUMP JUMPDEST PUSH2 0x18B8 JUMP JUMPDEST PUSH2 0x716 PUSH2 0x1920 JUMP JUMPDEST PUSH2 0x615 PUSH2 0xB35 CALLDATASIZE PUSH1 0x4 PUSH2 0x5B35 JUMP JUMPDEST PUSH2 0x1994 JUMP JUMPDEST PUSH2 0x615 PUSH2 0xB48 CALLDATASIZE PUSH1 0x4 PUSH2 0x5A56 JUMP JUMPDEST PUSH2 0x19B4 JUMP JUMPDEST PUSH2 0x684 PUSH1 0x40 MLOAD DUP1 PUSH1 0x40 ADD PUSH1 0x40 MSTORE DUP1 PUSH1 0x5 DUP2 MSTORE PUSH1 0x20 ADD PUSH5 0x332E302E31 PUSH1 0xD8 SHL DUP2 MSTORE POP DUP2 JUMP JUMPDEST PUSH2 0x615 PUSH2 0xB7F CALLDATASIZE PUSH1 0x4 PUSH2 0x5A56 JUMP JUMPDEST PUSH1 0x1A PUSH1 0x20 MSTORE PUSH1 0x0 SWAP1 DUP2 MSTORE PUSH1 0x40 SWAP1 KECCAK256 SLOAD DUP2 JUMP JUMPDEST PUSH2 0x716 PUSH2 0xB9F CALLDATASIZE PUSH1 0x4 PUSH2 0x59F8 JUMP JUMPDEST PUSH2 0x1A0D JUMP JUMPDEST PUSH2 0x615 PUSH1 0x19 SLOAD DUP2 JUMP JUMPDEST PUSH1 0xE SLOAD PUSH2 0x5F7 SWAP1 PUSH1 0x1 PUSH1 0x1 PUSH1 0xA0 SHL SUB AND DUP2 JUMP JUMPDEST PUSH2 0x635 PUSH2 0xBCE CALLDATASIZE PUSH1 0x4 PUSH2 0x5B35 JUMP JUMPDEST PUSH2 0x1A78 JUMP JUMPDEST PUSH2 0x615 PUSH2 0xBE1 CALLDATASIZE PUSH1 0x4 PUSH2 0x5B35 JUMP JUMPDEST PUSH2 0x1AA1 JUMP JUMPDEST PUSH2 0x684 PUSH2 0x1AB6 JUMP JUMPDEST PUSH2 0xC11 PUSH2 0xBFC CALLDATASIZE PUSH1 0x4 PUSH2 0x5A56 JUMP JUMPDEST PUSH1 0xF PUSH1 0x20 MSTORE PUSH1 0x0 SWAP1 DUP2 MSTORE PUSH1 0x40 SWAP1 KECCAK256 SLOAD PUSH1 0xFF AND DUP2 JUMP JUMPDEST PUSH1 0x40 MLOAD PUSH2 0x604 SWAP2 SWAP1 PUSH2 0x5D39 JUMP JUMPDEST PUSH2 0x615 PUSH2 0x1AC3 JUMP JUMPDEST PUSH1 0x9 SLOAD PUSH2 0x615 JUMP JUMPDEST PUSH2 0x716 PUSH2 0xC3C CALLDATASIZE PUSH1 0x4 PUSH2 0x5D5A JUMP JUMPDEST PUSH2 0x1AFA JUMP JUMPDEST PUSH1 0xD SLOAD PUSH2 0x5F7 SWAP1 PUSH1 0x1 PUSH1 0x1 PUSH1 0xA0 SHL SUB AND DUP2 JUMP JUMPDEST PUSH2 0x615 PUSH32 0x6F430D649A8640E48FF9BFBC353B3F99ED630163857821B3B4075E3871DAFBF5 DUP2 JUMP JUMPDEST PUSH2 0x615 PUSH1 0x0 DUP2 JUMP JUMPDEST PUSH2 0x635 PUSH2 0xC91 CALLDATASIZE PUSH1 0x4 PUSH2 0x5A19 JUMP JUMPDEST PUSH2 0x1B50 JUMP JUMPDEST PUSH2 0x716 PUSH2 0xCA4 CALLDATASIZE PUSH1 0x4 PUSH2 0x5A19 JUMP JUMPDEST PUSH2 0x1B5D JUMP JUMPDEST PUSH2 0x635 PUSH2 0xCB7 CALLDATASIZE PUSH1 0x4 PUSH2 0x5A19 JUMP JUMPDEST PUSH2 0x1B7F JUMP JUMPDEST PUSH2 0x615 PUSH1 0x0 DUP1 MLOAD PUSH1 0x20 PUSH2 0x731B DUP4 CODECOPY DUP2 MLOAD SWAP2 MSTORE DUP2 JUMP JUMPDEST PUSH2 0x615 PUSH32 0x900D80DEF0427DAAC599092FCB16B21808EC68DD9A2E1EAE89D1E8DB21357375 DUP2 JUMP JUMPDEST PUSH1 0x12 SLOAD PUSH2 0x5F7 SWAP1 PUSH1 0x1 PUSH1 0x1 PUSH1 0xA0 SHL SUB AND DUP2 JUMP JUMPDEST PUSH2 0x615 PUSH2 0xD19 CALLDATASIZE PUSH1 0x4 PUSH2 0x59F8 JUMP JUMPDEST PUSH2 0x1BD2 JUMP JUMPDEST PUSH2 0xD31 PUSH2 0xD2C CALLDATASIZE PUSH1 0x4 PUSH2 0x5A56 JUMP JUMPDEST PUSH2 0x1BDF JUMP JUMPDEST PUSH1 0x40 MLOAD PUSH2 0x604 SWAP3 SWAP2 SWAP1 PUSH2 0x5D7B JUMP JUMPDEST PUSH2 0x716 PUSH2 0xD4D CALLDATASIZE PUSH1 0x4 PUSH2 0x5A56 JUMP JUMPDEST PUSH2 0x1C30 JUMP JUMPDEST PUSH1 0x4 SLOAD PUSH2 0x635 SWAP1 PUSH1 0xFF AND DUP2 JUMP JUMPDEST PUSH2 0x716 PUSH2 0xD6D CALLDATASIZE PUSH1 0x4 PUSH2 0x59F8 JUMP JUMPDEST PUSH2 0x1C65 JUMP JUMPDEST PUSH1 0x15 SLOAD PUSH1 0xFF AND PUSH2 0x635 JUMP JUMPDEST PUSH2 0x615 PUSH32 0x2A0E761830CC61F2707EA7BB138008BF9DDA7F7D34C77736D0A116604E95EA16 DUP2 JUMP JUMPDEST PUSH2 0x615 PUSH32 0x8B73C3C69BB8FE3D512ECC4CF759CC79239F7B179B0FFACAA9A75D522B39400F DUP2 JUMP JUMPDEST PUSH2 0x615 PUSH2 0xDD9 CALLDATASIZE PUSH1 0x4 PUSH2 0x5A56 JUMP JUMPDEST PUSH2 0x1CFE JUMP JUMPDEST PUSH2 0x615 PUSH2 0xDEC CALLDATASIZE PUSH1 0x4 PUSH2 0x59F8 JUMP JUMPDEST PUSH2 0x1D17 JUMP JUMPDEST PUSH2 0x615 PUSH1 0x0 DUP1 MLOAD PUSH1 0x20 PUSH2 0x727B DUP4 CODECOPY DUP2 MLOAD SWAP2 MSTORE DUP2 JUMP JUMPDEST PUSH2 0x615 PUSH1 0x8 SLOAD DUP2 JUMP JUMPDEST PUSH2 0x716 PUSH2 0xE1D CALLDATASIZE PUSH1 0x4 PUSH2 0x59F8 JUMP JUMPDEST PUSH2 0x1D24 JUMP JUMPDEST PUSH2 0x615 PUSH32 0xA18EAEA71A088B547B8C932B48861853B3434D9A3240B94466C607E28B696595 DUP2 JUMP JUMPDEST PUSH2 0x635 PUSH2 0xE57 CALLDATASIZE PUSH1 0x4 PUSH2 0x5DAA JUMP JUMPDEST PUSH2 0x1D84 JUMP JUMPDEST PUSH2 0x716 PUSH2 0xE6A CALLDATASIZE PUSH1 0x4 PUSH2 0x59F8 JUMP JUMPDEST PUSH2 0x1DA3 JUMP JUMPDEST PUSH2 0x716 PUSH2 0xE7D CALLDATASIZE PUSH1 0x4 PUSH2 0x5B35 JUMP JUMPDEST PUSH2 0x1DD9 JUMP JUMPDEST PUSH2 0x615 PUSH2 0xE90 CALLDATASIZE PUSH1 0x4 PUSH2 0x58FF JUMP JUMPDEST PUSH2 0x1DFE JUMP JUMPDEST PUSH2 0x615 PUSH2 0x1E32 JUMP JUMPDEST PUSH2 0x615 PUSH2 0xEAB CALLDATASIZE PUSH1 0x4 PUSH2 0x5E49 JUMP JUMPDEST PUSH1 0x1 PUSH1 0x1 PUSH1 0xA0 SHL SUB SWAP2 DUP3 AND PUSH1 0x0 SWAP1 DUP2 MSTORE PUSH1 0x6 PUSH1 0x20 SWAP1 DUP2 MSTORE PUSH1 0x40 DUP1 DUP4 KECCAK256 SWAP4 SWAP1 SWAP5 AND DUP3 MSTORE SWAP2 SWAP1 SWAP2 MSTORE KECCAK256 SLOAD SWAP1 JUMP JUMPDEST PUSH2 0x716 PUSH2 0xEE4 CALLDATASIZE PUSH1 0x4 PUSH2 0x59F8 JUMP JUMPDEST PUSH2 0x1E3C JUMP JUMPDEST PUSH2 0x716 PUSH2 0x1F07 JUMP JUMPDEST PUSH2 0x615 PUSH1 0xB SLOAD DUP2 JUMP JUMPDEST PUSH2 0x615 PUSH32 0x7CBB3CDF689B8EA3E9D265F66BC4E0A99069268217017D38D2A5A559ABC62719 DUP2 JUMP JUMPDEST PUSH2 0x615 PUSH1 0x0 DUP1 MLOAD PUSH1 0x20 PUSH2 0x72BB DUP4 CODECOPY DUP2 MLOAD SWAP2 MSTORE DUP2 JUMP JUMPDEST PUSH2 0x716 PUSH2 0xF44 CALLDATASIZE PUSH1 0x4 PUSH2 0x5A19 JUMP JUMPDEST PUSH2 0x202F JUMP JUMPDEST PUSH2 0x615 PUSH1 0x7 SLOAD DUP2 JUMP JUMPDEST PUSH1 0x15 SLOAD PUSH2 0x635 SWAP1 PUSH1 0xFF AND DUP2 JUMP JUMPDEST PUSH1 0x8 SLOAD PUSH2 0x615 JUMP JUMPDEST PUSH2 0x615 PUSH2 0x2710 DUP2 JUMP JUMPDEST PUSH2 0x615 PUSH32 0xD45F7CCFF42F059D4E47C3F027C444272257266F7E88B981E142F0AA38FBFD78 DUP2 JUMP JUMPDEST PUSH2 0x5F7 PUSH2 0xFA5 CALLDATASIZE PUSH1 0x4 PUSH2 0x59F8 JUMP JUMPDEST PUSH2 0x20ED JUMP JUMPDEST PUSH1 0x0 PUSH2 0xFB4 PUSH2 0x2117 JUMP JUMPDEST SWAP1 POP SWAP1 JUMP JUMPDEST PUSH1 0x0 PUSH1 0x1 PUSH1 0x1 PUSH1 0xE0 SHL SUB NOT DUP3 AND PUSH4 0x7965DB0B PUSH1 0xE0 SHL EQ DUP1 PUSH2 0xFEA JUMPI POP PUSH4 0x1FFC9A7 PUSH1 0xE0 SHL PUSH1 0x1 PUSH1 0x1 PUSH1 0xE0 SHL SUB NOT DUP4 AND EQ JUMPDEST SWAP3 SWAP2 POP POP JUMP JUMPDEST PUSH1 0x0 PUSH2 0xFFA PUSH2 0x2129 JUMP JUMPDEST PUSH1 0x0 PUSH2 0x1007 DUP8 PUSH1 0x0 PUSH2 0x2152 JUMP JUMPDEST SWAP1 POP PUSH2 0x1018 CALLER DUP8 DUP8 DUP5 DUP12 DUP10 DUP10 PUSH2 0x21EC JUMP JUMPDEST SWAP2 POP POP PUSH2 0x1024 PUSH1 0x1 DUP1 SSTORE JUMP JUMPDEST SWAP6 SWAP5 POP POP POP POP POP JUMP JUMPDEST PUSH1 0x13 DUP1 SLOAD PUSH2 0x103A SWAP1 PUSH2 0x5E81 JUMP JUMPDEST DUP1 PUSH1 0x1F ADD PUSH1 0x20 DUP1 SWAP2 DIV MUL PUSH1 0x20 ADD PUSH1 0x40 MLOAD SWAP1 DUP2 ADD PUSH1 0x40 MSTORE DUP1 SWAP3 SWAP2 SWAP1 DUP2 DUP2 MSTORE PUSH1 0x20 ADD DUP3 DUP1 SLOAD PUSH2 0x1066 SWAP1 PUSH2 0x5E81 JUMP JUMPDEST DUP1 ISZERO PUSH2 0x10B3 JUMPI DUP1 PUSH1 0x1F LT PUSH2 0x1088 JUMPI PUSH2 0x100 DUP1 DUP4 SLOAD DIV MUL DUP4 MSTORE SWAP2 PUSH1 0x20 ADD SWAP2 PUSH2 0x10B3 JUMP JUMPDEST DUP3 ADD SWAP2 SWAP1 PUSH1 0x0 MSTORE PUSH1 0x20 PUSH1 0x0 KECCAK256 SWAP1 JUMPDEST DUP2 SLOAD DUP2 MSTORE SWAP1 PUSH1 0x1 ADD SWAP1 PUSH1 0x20 ADD DUP1 DUP4 GT PUSH2 0x1096 JUMPI DUP3 SWAP1 SUB PUSH1 0x1F AND DUP3 ADD SWAP2 JUMPDEST POP POP POP POP POP DUP2 JUMP JUMPDEST PUSH1 0x0 PUSH2 0xFEA DUP3 PUSH1 0x0 PUSH2 0x2152 JUMP JUMPDEST PUSH1 0x0 PUSH2 0x10D5 CALLER DUP5 DUP5 PUSH2 0x228D JUMP JUMPDEST SWAP4 SWAP3 POP POP POP JUMP JUMPDEST PUSH1 0x0 PUSH2 0xFEA DUP3 PUSH1 0x1 PUSH2 0x2348 JUMP JUMPDEST PUSH32 0xEA672C1C09CD95C51AF9509F646F3615FF0071AAE8652BD821471EE9037FD72C PUSH2 0x1113 DUP2 PUSH2 0x23E3 JUMP JUMPDEST PUSH2 0x111E DUP3 PUSH1 0x1 PUSH2 0x23F0 JUMP JUMPDEST POP POP JUMP JUMPDEST PUSH1 0x0 PUSH2 0xFB4 PUSH2 0x262C JUMP JUMPDEST PUSH32 0x2A0E761830CC61F2707EA7BB138008BF9DDA7F7D34C77736D0A116604E95EA16 PUSH2 0x1156 DUP2 PUSH2 0x23E3 JUMP JUMPDEST PUSH2 0x111E DUP3 PUSH2 0x264D JUMP JUMPDEST PUSH1 0x0 PUSH1 0x1 PUSH1 0x1 PUSH1 0xA0 SHL SUB DUP4 AND ADDRESS EQ DUP1 ISZERO SWAP1 PUSH2 0x1182 JUMPI POP PUSH1 0x1 PUSH1 0x1 PUSH1 0xA0 SHL SUB DUP4 AND ISZERO ISZERO JUMPDEST PUSH2 0x11A7 JUMPI PUSH1 0x40 MLOAD PUSH3 0x461BCD PUSH1 0xE5 SHL DUP2 MSTORE PUSH1 0x4 ADD PUSH2 0x119E SWAP1 PUSH2 0x5ED7 JUMP JUMPDEST PUSH1 0x40 MLOAD DUP1 SWAP2 SUB SWAP1 REVERT JUMPDEST PUSH2 0x11B2 DUP5 DUP5 DUP5 PUSH2 0x2864 JUMP JUMPDEST SWAP5 SWAP4 POP POP POP POP JUMP JUMPDEST PUSH1 0x60 PUSH1 0x3 DUP1 SLOAD DUP1 PUSH1 0x20 MUL PUSH1 0x20 ADD PUSH1 0x40 MLOAD SWAP1 DUP2 ADD PUSH1 0x40 MSTORE DUP1 SWAP3 SWAP2 SWAP1 DUP2 DUP2 MSTORE PUSH1 0x20 ADD DUP3 DUP1 SLOAD DUP1 ISZERO PUSH2 0x1212 JUMPI PUSH1 0x20 MUL DUP3 ADD SWAP2 SWAP1 PUSH1 0x0 MSTORE PUSH1 0x20 PUSH1 0x0 KECCAK256 SWAP1 JUMPDEST DUP2 SLOAD PUSH1 0x1 PUSH1 0x1 PUSH1 0xA0 SHL SUB AND DUP2 MSTORE PUSH1 0x1 SWAP1 SWAP2 ADD SWAP1 PUSH1 0x20 ADD DUP1 DUP4 GT PUSH2 0x11F4 JUMPI JUMPDEST POP POP POP POP POP SWAP1 POP SWAP1 JUMP JUMPDEST PUSH1 0x0 DUP1 MLOAD PUSH1 0x20 PUSH2 0x731B DUP4 CODECOPY DUP2 MLOAD SWAP2 MSTORE PUSH2 0x1234 DUP2 PUSH2 0x23E3 JUMP JUMPDEST PUSH1 0x15 SLOAD PUSH1 0xFF AND ISZERO PUSH2 0x1257 JUMPI PUSH1 0x40 MLOAD PUSH3 0x461BCD PUSH1 0xE5 SHL DUP2 MSTORE PUSH1 0x4 ADD PUSH2 0x119E SWAP1 PUSH2 0x5F13 JUMP JUMPDEST PUSH1 0x0 NOT PUSH1 0xB SLOAD EQ PUSH2 0x127A JUMPI PUSH1 0x40 MLOAD PUSH3 0x461BCD PUSH1 0xE5 SHL DUP2 MSTORE PUSH1 0x4 ADD PUSH2 0x119E SWAP1 PUSH2 0x5F4D JUMP JUMPDEST PUSH1 0xD DUP1 SLOAD PUSH1 0x1 PUSH1 0x1 PUSH1 0xA0 SHL SUB NOT AND PUSH1 0x1 PUSH1 0x1 PUSH1 0xA0 SHL SUB DUP5 AND SWAP1 DUP2 OR SWAP1 SWAP2 SSTORE PUSH1 0x40 MLOAD PUSH32 0x777D215DB24FB9FEE4DED85C66B422ABD7162A1CAA6ED3EC4C031F6CD29ADA52 SWAP1 PUSH1 0x0 SWAP1 LOG2 POP POP JUMP JUMPDEST PUSH1 0x0 DUP3 DUP2 MSTORE PUSH1 0x20 DUP2 SWAP1 MSTORE PUSH1 0x40 SWAP1 KECCAK256 PUSH1 0x1 ADD SLOAD PUSH2 0x12E0 DUP2 PUSH2 0x23E3 JUMP JUMPDEST PUSH2 0x12EA DUP4 DUP4 PUSH2 0x2886 JUMP JUMPDEST POP POP POP JUMP JUMPDEST PUSH1 0x0 DUP1 PUSH2 0x12FD DUP6 DUP6 DUP6 PUSH2 0x290A JUMP JUMPDEST SWAP1 POP PUSH1 0x0 PUSH2 0x130C DUP3 PUSH1 0x1 PUSH2 0x2348 JUMP JUMPDEST PUSH1 0x1 PUSH1 0x1 PUSH1 0xA0 SHL SUB DUP8 AND PUSH1 0x0 SWAP1 DUP2 MSTORE PUSH1 0x5 PUSH1 0x20 MSTORE PUSH1 0x40 SWAP1 KECCAK256 SLOAD SWAP1 SWAP2 POP PUSH2 0x1333 SWAP1 DUP3 SWAP1 PUSH2 0x2CD4 JUMP JUMPDEST SWAP7 SWAP6 POP POP POP POP POP POP JUMP JUMPDEST PUSH1 0x1 PUSH1 0x1 PUSH1 0xA0 SHL SUB DUP2 AND CALLER EQ PUSH2 0x1365 JUMPI PUSH1 0x40 MLOAD PUSH3 0x461BCD PUSH1 0xE5 SHL DUP2 MSTORE PUSH1 0x4 ADD PUSH2 0x119E SWAP1 PUSH2 0x5FAC JUMP JUMPDEST PUSH2 0x111E DUP3 DUP3 PUSH2 0x2CEA JUMP JUMPDEST PUSH1 0x0 PUSH2 0x10D5 CALLER DUP5 DUP5 PUSH2 0x2D4F JUMP JUMPDEST PUSH1 0x0 PUSH2 0xFEA DUP3 PUSH2 0x2D9C JUMP JUMPDEST PUSH32 0x900D80DEF0427DAAC599092FCB16B21808EC68DD9A2E1EAE89D1E8DB21357375 PUSH2 0x13B1 DUP2 PUSH2 0x23E3 JUMP JUMPDEST PUSH2 0x13B9 PUSH2 0x2129 JUMP JUMPDEST PUSH1 0x1 PUSH1 0x1 PUSH1 0xA0 SHL SUB DUP4 AND PUSH1 0x0 SWAP1 DUP2 MSTORE PUSH1 0x2 PUSH1 0x20 MSTORE PUSH1 0x40 DUP2 KECCAK256 SLOAD SWAP1 SUB PUSH2 0x13F0 JUMPI PUSH1 0x40 MLOAD PUSH3 0x461BCD PUSH1 0xE5 SHL DUP2 MSTORE PUSH1 0x4 ADD PUSH2 0x119E SWAP1 PUSH2 0x5FDD JUMP JUMPDEST PUSH1 0x1 PUSH1 0x1 PUSH1 0xA0 SHL SUB DUP4 AND PUSH1 0x0 SWAP1 DUP2 MSTORE PUSH1 0x2 PUSH1 0x20 DUP2 SWAP1 MSTORE PUSH1 0x40 SWAP1 SWAP2 KECCAK256 ADD SLOAD DUP1 PUSH2 0x142A JUMPI PUSH1 0x40 MLOAD PUSH3 0x461BCD PUSH1 0xE5 SHL DUP2 MSTORE PUSH1 0x4 ADD PUSH2 0x119E SWAP1 PUSH2 0x6012 JUMP JUMPDEST PUSH1 0x0 DUP4 GT PUSH2 0x144A JUMPI PUSH1 0x40 MLOAD PUSH3 0x461BCD PUSH1 0xE5 SHL DUP2 MSTORE PUSH1 0x4 ADD PUSH2 0x119E SWAP1 PUSH2 0x604C JUMP JUMPDEST DUP1 DUP4 GT ISZERO PUSH2 0x1456 JUMPI DUP1 SWAP3 POP JUMPDEST PUSH1 0x0 DUP2 DUP5 DUP7 PUSH1 0x1 PUSH1 0x1 PUSH1 0xA0 SHL SUB AND PUSH4 0x70A08231 ADDRESS PUSH1 0x40 MLOAD DUP3 PUSH4 0xFFFFFFFF AND PUSH1 0xE0 SHL DUP2 MSTORE PUSH1 0x4 ADD PUSH2 0x1486 SWAP2 SWAP1 PUSH2 0x575A JUMP JUMPDEST PUSH1 0x20 PUSH1 0x40 MLOAD DUP1 DUP4 SUB DUP2 DUP7 GAS STATICCALL ISZERO DUP1 ISZERO PUSH2 0x14A3 JUMPI RETURNDATASIZE PUSH1 0x0 DUP1 RETURNDATACOPY RETURNDATASIZE PUSH1 0x0 REVERT JUMPDEST POP POP POP POP PUSH1 0x40 MLOAD RETURNDATASIZE PUSH1 0x1F NOT PUSH1 0x1F DUP3 ADD AND DUP3 ADD DUP1 PUSH1 0x40 MSTORE POP DUP2 ADD SWAP1 PUSH2 0x14C7 SWAP2 SWAP1 PUSH2 0x6067 JUMP JUMPDEST PUSH2 0x14D1 SWAP2 SWAP1 PUSH2 0x609E JUMP JUMPDEST PUSH2 0x14DB SWAP2 SWAP1 PUSH2 0x60D3 JUMP JUMPDEST SWAP1 POP PUSH1 0x0 DUP2 GT PUSH2 0x14FD JUMPI PUSH1 0x40 MLOAD PUSH3 0x461BCD PUSH1 0xE5 SHL DUP2 MSTORE PUSH1 0x4 ADD PUSH2 0x119E SWAP1 PUSH2 0x610D JUMP JUMPDEST PUSH2 0x1529 PUSH32 0x0 CALLER ADDRESS DUP8 PUSH2 0x2E74 JUMP JUMPDEST PUSH1 0x1 PUSH1 0x1 PUSH1 0xA0 SHL SUB DUP6 AND PUSH1 0x0 SWAP1 DUP2 MSTORE PUSH1 0x2 PUSH1 0x20 DUP2 SWAP1 MSTORE PUSH1 0x40 DUP3 KECCAK256 ADD DUP1 SLOAD DUP7 SWAP3 SWAP1 PUSH2 0x1554 SWAP1 DUP5 SWAP1 PUSH2 0x611D JUMP JUMPDEST SWAP3 POP POP DUP2 SWAP1 SSTORE POP DUP4 PUSH1 0x8 PUSH1 0x0 DUP3 DUP3 SLOAD PUSH2 0x156D SWAP2 SWAP1 PUSH2 0x611D JUMP JUMPDEST SWAP3 POP POP DUP2 SWAP1 SSTORE POP DUP4 PUSH1 0x9 PUSH1 0x0 DUP3 DUP3 SLOAD PUSH2 0x1586 SWAP2 SWAP1 PUSH2 0x6130 JUMP JUMPDEST SWAP1 SWAP2 SSTORE POP POP PUSH1 0x1 PUSH1 0x1 PUSH1 0xA0 SHL SUB DUP6 AND PUSH1 0x0 DUP1 MLOAD PUSH1 0x20 PUSH2 0x72FB DUP4 CODECOPY DUP2 MLOAD SWAP2 MSTORE DUP4 PUSH2 0x15AF DUP8 DUP3 PUSH2 0x611D JUMP JUMPDEST PUSH1 0x40 MLOAD PUSH2 0x15BD SWAP3 SWAP2 SWAP1 PUSH2 0x5D7B JUMP JUMPDEST PUSH1 0x40 MLOAD DUP1 SWAP2 SUB SWAP1 LOG2 PUSH2 0x15D0 DUP6 CALLER DUP4 PUSH2 0x2F82 JUMP JUMPDEST DUP5 PUSH1 0x1 PUSH1 0x1 PUSH1 0xA0 SHL SUB AND PUSH32 0xE94E7F88819F66C19B097748CB754149F63B1A176ED425DEE1F1EE933E6D09B0 DUP6 PUSH1 0x40 MLOAD PUSH2 0x1609 SWAP2 SWAP1 PUSH2 0x576E JUMP JUMPDEST PUSH1 0x40 MLOAD DUP1 SWAP2 SUB SWAP1 LOG2 POP POP PUSH2 0x12EA PUSH1 0x1 DUP1 SSTORE JUMP JUMPDEST PUSH1 0x0 PUSH1 0x0 DUP1 MLOAD PUSH1 0x20 PUSH2 0x727B DUP4 CODECOPY DUP2 MLOAD SWAP2 MSTORE PUSH2 0x1636 DUP2 PUSH2 0x23E3 JUMP JUMPDEST PUSH2 0x163E PUSH2 0x2129 JUMP JUMPDEST PUSH1 0x0 PUSH2 0x164A DUP6 DUP6 PUSH2 0x3067 JUMP JUMPDEST SWAP3 POP POP PUSH2 0x1656 PUSH1 0x1 DUP1 SSTORE JUMP JUMPDEST POP SWAP3 SWAP2 POP POP JUMP JUMPDEST PUSH32 0xCD9F023A942EE35097EAD74B2505BEA9F2C5D47465DB92DD195CF7F01A41CFE1 PUSH2 0x1687 DUP2 PUSH2 0x23E3 JUMP JUMPDEST PUSH1 0xC DUP1 SLOAD PUSH1 0x1 PUSH1 0x1 PUSH1 0xA0 SHL SUB NOT AND PUSH1 0x1 PUSH1 0x1 PUSH1 0xA0 SHL SUB DUP5 AND SWAP1 DUP2 OR SWAP1 SWAP2 SSTORE PUSH1 0x40 MLOAD PUSH32 0x28709A2DAB2A5D5E8688E96159011151C51644AB21839A8A45B449634D7C8B2B SWAP1 PUSH1 0x0 SWAP1 LOG2 POP POP JUMP JUMPDEST PUSH32 0x69D1171AC0A63777A6733CDA21AEC9ED3D48A4FD11F273C934A691DEC5E5589C PUSH2 0x16FC DUP2 PUSH2 0x23E3 JUMP JUMPDEST PUSH1 0xE DUP1 SLOAD PUSH1 0x1 PUSH1 0x1 PUSH1 0xA0 SHL SUB NOT AND PUSH1 0x1 PUSH1 0x1 PUSH1 0xA0 SHL SUB DUP5 AND SWAP1 DUP2 OR SWAP1 SWAP2 SSTORE PUSH1 0x40 MLOAD PUSH32 0xCE6E3F8BEDA82A13C441D76EFD4A6335760F219F38C60502E6680060874E109D SWAP1 PUSH1 0x0 SWAP1 LOG2 POP POP JUMP JUMPDEST PUSH1 0x1 PUSH1 0x1 PUSH1 0xA0 SHL SUB DUP3 AND PUSH1 0x0 SWAP1 DUP2 MSTORE PUSH1 0x2 PUSH1 0x20 DUP2 SWAP1 MSTORE PUSH1 0x40 DUP3 KECCAK256 ADD SLOAD DUP3 GT ISZERO PUSH2 0x1782 JUMPI PUSH1 0x40 MLOAD PUSH3 0x461BCD PUSH1 0xE5 SHL DUP2 MSTORE PUSH1 0x4 ADD PUSH2 0x119E SWAP1 PUSH2 0x6189 JUMP JUMPDEST PUSH2 0x10D5 DUP4 DUP4 PUSH2 0x3782 JUMP JUMPDEST PUSH1 0x0 DUP1 MLOAD PUSH1 0x20 PUSH2 0x72BB DUP4 CODECOPY DUP2 MLOAD SWAP2 MSTORE PUSH2 0x17A4 DUP2 PUSH2 0x23E3 JUMP JUMPDEST POP PUSH1 0x12 DUP1 SLOAD PUSH1 0x1 PUSH1 0x1 PUSH1 0xA0 SHL SUB NOT AND PUSH1 0x1 PUSH1 0x1 PUSH1 0xA0 SHL SUB SWAP3 SWAP1 SWAP3 AND SWAP2 SWAP1 SWAP2 OR SWAP1 SSTORE JUMP JUMPDEST PUSH1 0x0 DUP1 MLOAD PUSH1 0x20 PUSH2 0x729B DUP4 CODECOPY DUP2 MLOAD SWAP2 MSTORE PUSH2 0x17DF DUP2 PUSH2 0x23E3 JUMP JUMPDEST PUSH1 0x0 JUMPDEST DUP3 DUP2 LT ISZERO PUSH2 0x185F JUMPI PUSH1 0x0 DUP5 DUP5 DUP4 DUP2 DUP2 LT PUSH2 0x17FE JUMPI PUSH2 0x17FE PUSH2 0x6199 JUMP JUMPDEST SWAP1 POP PUSH1 0x20 MUL ADD PUSH1 0x20 DUP2 ADD SWAP1 PUSH2 0x1813 SWAP2 SWAP1 PUSH2 0x5A56 JUMP JUMPDEST PUSH1 0x1 PUSH1 0x1 PUSH1 0xA0 SHL SUB DUP2 AND PUSH1 0x0 SWAP1 DUP2 MSTORE PUSH1 0x2 PUSH1 0x20 MSTORE PUSH1 0x40 DUP2 KECCAK256 SLOAD SWAP2 SWAP3 POP SUB PUSH2 0x184C JUMPI PUSH1 0x40 MLOAD PUSH3 0x461BCD PUSH1 0xE5 SHL DUP2 MSTORE PUSH1 0x4 ADD PUSH2 0x119E SWAP1 PUSH2 0x61D7 JUMP JUMPDEST POP DUP1 PUSH2 0x1857 DUP2 PUSH2 0x61E7 JUMP JUMPDEST SWAP2 POP POP PUSH2 0x17E2 JUMP JUMPDEST POP PUSH2 0x186C PUSH1 0x3 DUP5 DUP5 PUSH2 0x563C JUMP JUMPDEST POP PUSH32 0xBC0CB8C5CCEE13E6A2FD26A699F57AD7FF6E454E6AAE97EC41CD2EB9EBD63A5 DUP4 DUP4 PUSH1 0x40 MLOAD PUSH2 0x189E SWAP3 SWAP2 SWAP1 PUSH2 0x624D JUMP JUMPDEST PUSH1 0x40 MLOAD DUP1 SWAP2 SUB SWAP1 LOG1 POP POP POP JUMP JUMPDEST PUSH1 0x0 PUSH2 0x11B2 DUP5 DUP5 DUP5 PUSH2 0x290A JUMP JUMPDEST PUSH1 0x0 DUP1 MLOAD PUSH1 0x20 PUSH2 0x72BB DUP4 CODECOPY DUP2 MLOAD SWAP2 MSTORE PUSH2 0x18D0 DUP2 PUSH2 0x23E3 JUMP JUMPDEST PUSH2 0x18DA DUP3 DUP5 PUSH2 0x2CEA JUMP JUMPDEST DUP3 PUSH1 0x1 PUSH1 0x1 PUSH1 0xA0 SHL SUB AND PUSH32 0x1395522074BE2925CC0FE997DC4FE5D15A507C2A971E00C315E5A2E08C9B0E50 DUP4 PUSH1 0x40 MLOAD PUSH2 0x1913 SWAP2 SWAP1 PUSH2 0x576E JUMP JUMPDEST PUSH1 0x40 MLOAD DUP1 SWAP2 SUB SWAP1 LOG2 POP POP POP JUMP JUMPDEST PUSH1 0x12 SLOAD PUSH1 0x1 PUSH1 0x1 PUSH1 0xA0 SHL SUB AND CALLER EQ PUSH2 0x194A JUMPI PUSH1 0x40 MLOAD PUSH3 0x461BCD PUSH1 0xE5 SHL DUP2 MSTORE PUSH1 0x4 ADD PUSH2 0x119E SWAP1 PUSH2 0x62A1 JUMP JUMPDEST PUSH1 0x11 DUP1 SLOAD CALLER PUSH1 0x1 PUSH1 0x1 PUSH1 0xA0 SHL SUB NOT SWAP2 DUP3 AND DUP2 OR SWAP1 SWAP3 SSTORE PUSH1 0x12 DUP1 SLOAD SWAP1 SWAP2 AND SWAP1 SSTORE PUSH1 0x40 MLOAD PUSH32 0xCE93BAA0B608A7D420822B6B90CFCCCB70574363BA4FD26EF5AC17DD465016C4 SWAP1 PUSH1 0x0 SWAP1 LOG2 JUMP JUMPDEST PUSH1 0x0 PUSH2 0x199E PUSH2 0x2129 JUMP JUMPDEST PUSH2 0x19A9 CALLER DUP4 DUP6 PUSH2 0x38DA JUMP JUMPDEST SWAP1 POP PUSH2 0xFEA PUSH1 0x1 DUP1 SSTORE JUMP JUMPDEST PUSH1 0x0 ADDRESS PUSH1 0x1 PUSH1 0x1 PUSH1 0xA0 SHL SUB DUP4 AND SUB PUSH2 0x19F1 JUMPI PUSH2 0x19CE PUSH2 0x3A57 JUMP JUMPDEST PUSH1 0x1 PUSH1 0x1 PUSH1 0xA0 SHL SUB DUP4 AND PUSH1 0x0 SWAP1 DUP2 MSTORE PUSH1 0x5 PUSH1 0x20 MSTORE PUSH1 0x40 SWAP1 KECCAK256 SLOAD PUSH2 0xFEA SWAP2 SWAP1 PUSH2 0x611D JUMP JUMPDEST POP PUSH1 0x1 PUSH1 0x1 PUSH1 0xA0 SHL SUB AND PUSH1 0x0 SWAP1 DUP2 MSTORE PUSH1 0x5 PUSH1 0x20 MSTORE PUSH1 0x40 SWAP1 KECCAK256 SLOAD SWAP1 JUMP JUMPDEST PUSH32 0xC723F4DD6268E1C374639E36D629C765285EE7003913389D582C300F186DDE97 PUSH2 0x1A37 DUP2 PUSH2 0x23E3 JUMP JUMPDEST PUSH1 0xA DUP3 SWAP1 SSTORE PUSH1 0x40 MLOAD PUSH32 0x1A4494BEED88920B88742CC58F2744E198F55FF192635A1FBABC6BE8FFADE81 SWAP1 PUSH2 0x1A6C SWAP1 DUP5 SWAP1 PUSH2 0x576E JUMP JUMPDEST PUSH1 0x40 MLOAD DUP1 SWAP2 SUB SWAP1 LOG1 POP POP JUMP JUMPDEST PUSH1 0x0 SWAP2 DUP3 MSTORE PUSH1 0x20 DUP3 DUP2 MSTORE PUSH1 0x40 DUP1 DUP5 KECCAK256 PUSH1 0x1 PUSH1 0x1 PUSH1 0xA0 SHL SUB SWAP4 SWAP1 SWAP4 AND DUP5 MSTORE SWAP2 SWAP1 MSTORE SWAP1 KECCAK256 SLOAD PUSH1 0xFF AND SWAP1 JUMP JUMPDEST PUSH1 0x0 PUSH2 0x1AAB PUSH2 0x2129 JUMP JUMPDEST PUSH2 0x19A9 CALLER DUP4 DUP6 PUSH2 0x3AB5 JUMP JUMPDEST PUSH1 0x14 DUP1 SLOAD PUSH2 0x103A SWAP1 PUSH2 0x5E81 JUMP JUMPDEST PUSH1 0x0 PUSH2 0xFB4 PUSH2 0x1AF3 PUSH32 0x0 PUSH1 0xA PUSH2 0x63BF JUMP JUMPDEST PUSH1 0x0 PUSH2 0x2152 JUMP JUMPDEST PUSH1 0x0 DUP1 MLOAD PUSH1 0x20 PUSH2 0x729B DUP4 CODECOPY DUP2 MLOAD SWAP2 MSTORE PUSH2 0x1B12 DUP2 PUSH2 0x23E3 JUMP JUMPDEST PUSH1 0x4 DUP1 SLOAD PUSH1 0xFF NOT AND DUP4 ISZERO ISZERO OR SWAP1 SSTORE PUSH1 0x40 MLOAD PUSH32 0x1F88E73EBC721F227812938FE07A069EC1F7136AAFACB397ED460BD15DEE13F1 SWAP1 PUSH2 0x1A6C SWAP1 DUP5 SWAP1 PUSH2 0x57C7 JUMP JUMPDEST PUSH1 0x0 PUSH2 0x10D5 CALLER DUP5 DUP5 PUSH2 0x3C2D JUMP JUMPDEST PUSH1 0x0 DUP1 MLOAD PUSH1 0x20 PUSH2 0x72BB DUP4 CODECOPY DUP2 MLOAD SWAP2 MSTORE PUSH2 0x1B75 DUP2 PUSH2 0x23E3 JUMP JUMPDEST PUSH2 0x18DA DUP3 DUP5 PUSH2 0x2886 JUMP JUMPDEST PUSH1 0x0 PUSH1 0x1 PUSH1 0x1 PUSH1 0xA0 SHL SUB DUP4 AND ADDRESS EQ DUP1 ISZERO SWAP1 PUSH2 0x1BA2 JUMPI POP PUSH1 0x1 PUSH1 0x1 PUSH1 0xA0 SHL SUB DUP4 AND ISZERO ISZERO JUMPDEST PUSH2 0x1BBE JUMPI PUSH1 0x40 MLOAD PUSH3 0x461BCD PUSH1 0xE5 SHL DUP2 MSTORE PUSH1 0x4 ADD PUSH2 0x119E SWAP1 PUSH2 0x5ED7 JUMP JUMPDEST PUSH2 0x1BC9 CALLER DUP5 DUP5 PUSH2 0x3C61 JUMP JUMPDEST POP PUSH1 0x1 SWAP3 SWAP2 POP POP JUMP JUMPDEST PUSH1 0x0 PUSH2 0xFEA DUP3 PUSH1 0x1 PUSH2 0x2152 JUMP JUMPDEST PUSH1 0x0 DUP1 PUSH32 0x633076A97F32AE349B28772E7B1483F67A926F150CBC501D02BDBD77389325AB PUSH2 0x1C0C DUP2 PUSH2 0x23E3 JUMP JUMPDEST PUSH2 0x1C14 PUSH2 0x2129 JUMP JUMPDEST PUSH2 0x1C1D DUP5 PUSH2 0x3D6E JUMP JUMPDEST SWAP3 POP SWAP3 POP PUSH2 0x1C2A PUSH1 0x1 DUP1 SSTORE JUMP JUMPDEST POP SWAP2 POP SWAP2 JUMP JUMPDEST PUSH32 0x6F430D649A8640E48FF9BFBC353B3F99ED630163857821B3B4075E3871DAFBF5 PUSH2 0x1C5A DUP2 PUSH2 0x23E3 JUMP JUMPDEST PUSH2 0x111E DUP3 PUSH1 0x0 PUSH2 0x23F0 JUMP JUMPDEST PUSH1 0x0 DUP1 MLOAD PUSH1 0x20 PUSH2 0x731B DUP4 CODECOPY DUP2 MLOAD SWAP2 MSTORE PUSH2 0x1C7D DUP2 PUSH2 0x23E3 JUMP JUMPDEST PUSH1 0x15 SLOAD PUSH1 0xFF AND ISZERO PUSH2 0x1CA0 JUMPI PUSH1 0x40 MLOAD PUSH3 0x461BCD PUSH1 0xE5 SHL DUP2 MSTORE PUSH1 0x4 ADD PUSH2 0x119E SWAP1 PUSH2 0x5F13 JUMP JUMPDEST PUSH1 0xD SLOAD PUSH1 0x1 PUSH1 0x1 PUSH1 0xA0 SHL SUB AND ISZERO PUSH2 0x1CC9 JUMPI PUSH1 0x40 MLOAD PUSH3 0x461BCD PUSH1 0xE5 SHL DUP2 MSTORE PUSH1 0x4 ADD PUSH2 0x119E SWAP1 PUSH2 0x63F1 JUMP JUMPDEST PUSH1 0xB DUP3 SWAP1 SSTORE PUSH1 0x40 MLOAD PUSH32 0xAE565AAB888BCA5E19E25A13DB7B0C9144305BF55CB0F3F4D724F730E5ACDD62 SWAP1 PUSH2 0x1A6C SWAP1 DUP5 SWAP1 PUSH2 0x576E JUMP JUMPDEST PUSH1 0x0 DUP1 PUSH2 0x1D0A DUP4 PUSH2 0x2D9C JUMP JUMPDEST SWAP1 POP PUSH2 0x10D5 DUP2 PUSH1 0x0 PUSH2 0x2348 JUMP JUMPDEST PUSH1 0x0 PUSH2 0xFEA DUP3 PUSH1 0x0 PUSH2 0x2348 JUMP JUMPDEST PUSH1 0x0 DUP1 MLOAD PUSH1 0x20 PUSH2 0x72BB DUP4 CODECOPY DUP2 MLOAD SWAP2 MSTORE PUSH2 0x1D3C DUP2 PUSH2 0x23E3 JUMP JUMPDEST PUSH1 0x0 DUP3 DUP2 MSTORE PUSH1 0x10 PUSH1 0x20 MSTORE PUSH1 0x40 SWAP1 KECCAK256 DUP1 SLOAD PUSH1 0xFF NOT AND SWAP1 SSTORE PUSH1 0x1 JUMPDEST PUSH1 0x40 MLOAD DUP4 SWAP1 PUSH32 0x9F6D8CEB5FE3A6380949B0777BD5802511579B6FBBC87194C108A91D372F9527 SWAP1 PUSH1 0x0 SWAP1 LOG3 POP POP JUMP JUMPDEST PUSH1 0x0 PUSH2 0x1D95 DUP9 DUP9 DUP9 DUP9 DUP9 DUP9 DUP9 PUSH2 0x3EA9 JUMP JUMPDEST SWAP1 POP JUMPDEST SWAP8 SWAP7 POP POP POP POP POP POP POP JUMP JUMPDEST PUSH1 0x0 DUP1 MLOAD PUSH1 0x20 PUSH2 0x72BB DUP4 CODECOPY DUP2 MLOAD SWAP2 MSTORE PUSH2 0x1DBB DUP2 PUSH2 0x23E3 JUMP JUMPDEST PUSH1 0x0 DUP3 DUP2 MSTORE PUSH1 0x10 PUSH1 0x20 MSTORE PUSH1 0x40 DUP2 KECCAK256 DUP1 SLOAD PUSH1 0xFF NOT AND PUSH1 0x1 OR SWAP1 SSTORE PUSH2 0x1D55 JUMP JUMPDEST PUSH1 0x0 DUP3 DUP2 MSTORE PUSH1 0x20 DUP2 SWAP1 MSTORE PUSH1 0x40 SWAP1 KECCAK256 PUSH1 0x1 ADD SLOAD PUSH2 0x1DF4 DUP2 PUSH2 0x23E3 JUMP JUMPDEST PUSH2 0x12EA DUP4 DUP4 PUSH2 0x2CEA JUMP JUMPDEST PUSH1 0x0 PUSH2 0x1E08 PUSH2 0x2129 JUMP JUMPDEST PUSH1 0x0 PUSH2 0x1E15 DUP8 PUSH1 0x1 PUSH2 0x2348 JUMP JUMPDEST SWAP1 POP PUSH2 0x1E26 CALLER DUP8 DUP8 DUP11 DUP6 DUP10 DUP10 PUSH2 0x21EC JUMP JUMPDEST POP SWAP1 POP PUSH2 0x1024 PUSH1 0x1 DUP1 SSTORE JUMP JUMPDEST PUSH1 0x0 PUSH2 0xFB4 PUSH2 0x3A57 JUMP JUMPDEST PUSH32 0xA18EAEA71A088B547B8C932B48861853B3434D9A3240B94466C607E28B696595 PUSH2 0x1E66 DUP2 PUSH2 0x23E3 JUMP JUMPDEST PUSH32 0x0 DUP3 GT ISZERO PUSH2 0x1EA6 JUMPI PUSH1 0x40 MLOAD PUSH3 0x461BCD PUSH1 0xE5 SHL DUP2 MSTORE PUSH1 0x4 ADD PUSH2 0x119E SWAP1 PUSH2 0x6435 JUMP JUMPDEST DUP2 PUSH1 0x0 SUB PUSH2 0x1ED2 JUMPI ADDRESS PUSH1 0x0 DUP2 DUP2 MSTORE PUSH1 0x5 PUSH1 0x20 MSTORE PUSH1 0x40 SWAP1 KECCAK256 SLOAD PUSH2 0x1EC7 SWAP2 PUSH2 0x40BA JUMP JUMPDEST PUSH1 0x0 PUSH1 0x18 DUP2 SWAP1 SSTORE PUSH1 0x17 SSTORE JUMPDEST PUSH1 0x16 DUP3 SWAP1 SSTORE PUSH1 0x40 MLOAD PUSH32 0xF361AED463DA6FA20358E45C6209F1D3E16D4ECA706E6EAB0B0AEB338729C77A SWAP1 PUSH2 0x1A6C SWAP1 DUP5 SWAP1 PUSH2 0x576E JUMP JUMPDEST PUSH32 0xD45F7CCFF42F059D4E47C3F027C444272257266F7E88B981E142F0AA38FBFD78 PUSH2 0x1F31 DUP2 PUSH2 0x23E3 JUMP JUMPDEST PUSH1 0x15 SLOAD PUSH1 0xFF AND ISZERO PUSH2 0x1F54 JUMPI PUSH1 0x40 MLOAD PUSH3 0x461BCD PUSH1 0xE5 SHL DUP2 MSTORE PUSH1 0x4 ADD PUSH2 0x119E SWAP1 PUSH2 0x6479 JUMP JUMPDEST PUSH1 0x15 DUP1 SLOAD PUSH1 0xFF NOT AND PUSH1 0x1 OR SWAP1 SSTORE PUSH1 0xD SLOAD PUSH1 0x1 PUSH1 0x1 PUSH1 0xA0 SHL SUB AND ISZERO PUSH2 0x1FAE JUMPI PUSH1 0xD DUP1 SLOAD PUSH1 0x1 PUSH1 0x1 PUSH1 0xA0 SHL SUB NOT AND SWAP1 SSTORE PUSH1 0x40 MLOAD PUSH1 0x0 SWAP1 PUSH32 0x777D215DB24FB9FEE4DED85C66B422ABD7162A1CAA6ED3EC4C031F6CD29ADA52 SWAP1 DUP3 SWAP1 LOG2 JUMPDEST PUSH1 0x0 PUSH1 0xB DUP2 SWAP1 SSTORE PUSH1 0x40 MLOAD PUSH32 0xAE565AAB888BCA5E19E25A13DB7B0C9144305BF55CB0F3F4D724F730E5ACDD62 SWAP2 PUSH2 0x1FE3 SWAP2 PUSH2 0x649E JUMP JUMPDEST PUSH1 0x40 MLOAD DUP1 SWAP2 SUB SWAP1 LOG1 PUSH2 0x2003 CALLER PUSH1 0x0 DUP1 MLOAD PUSH1 0x20 PUSH2 0x727B DUP4 CODECOPY DUP2 MLOAD SWAP2 MSTORE PUSH2 0x1B5D JUMP JUMPDEST PUSH1 0x40 MLOAD PUSH32 0x4426AA1FB73E391071491FCFE21A88B5C38A0A0333A1F6E77161470439704CF8 SWAP1 PUSH1 0x0 SWAP1 LOG1 POP JUMP JUMPDEST PUSH32 0x7CBB3CDF689B8EA3E9D265F66BC4E0A99069268217017D38D2A5A559ABC62719 PUSH2 0x2059 DUP2 PUSH2 0x23E3 JUMP JUMPDEST PUSH1 0x1 PUSH1 0x1 PUSH1 0xA0 SHL SUB DUP4 AND PUSH1 0x0 SWAP1 DUP2 MSTORE PUSH1 0x2 PUSH1 0x20 MSTORE PUSH1 0x40 DUP2 KECCAK256 SLOAD SWAP1 SUB PUSH2 0x2090 JUMPI PUSH1 0x40 MLOAD PUSH3 0x461BCD PUSH1 0xE5 SHL DUP2 MSTORE PUSH1 0x4 ADD PUSH2 0x119E SWAP1 PUSH2 0x64D4 JUMP JUMPDEST PUSH1 0x1 PUSH1 0x1 PUSH1 0xA0 SHL SUB DUP4 AND PUSH1 0x0 DUP2 DUP2 MSTORE PUSH1 0x2 PUSH1 0x20 MSTORE PUSH1 0x40 SWAP1 DUP2 SWAP1 KECCAK256 PUSH1 0x3 ADD DUP5 SWAP1 SSTORE MLOAD CALLER SWAP1 PUSH32 0xB3EEF2123FEC1523A6BBC90ACEB203000154C1A4974335FE06B544C7534D4B89 SWAP1 PUSH2 0x20E0 SWAP1 DUP7 SWAP1 PUSH2 0x576E JUMP JUMPDEST PUSH1 0x40 MLOAD DUP1 SWAP2 SUB SWAP1 LOG3 POP POP POP JUMP JUMPDEST PUSH1 0x3 DUP2 DUP2 SLOAD DUP2 LT PUSH2 0x20FD JUMPI PUSH1 0x0 DUP1 REVERT JUMPDEST PUSH1 0x0 SWAP2 DUP3 MSTORE PUSH1 0x20 SWAP1 SWAP2 KECCAK256 ADD SLOAD PUSH1 0x1 PUSH1 0x1 PUSH1 0xA0 SHL SUB AND SWAP1 POP DUP2 JUMP JUMPDEST PUSH1 0x0 PUSH1 0x8 SLOAD PUSH1 0x9 SLOAD PUSH2 0xFB4 SWAP2 SWAP1 PUSH2 0x6130 JUMP JUMPDEST PUSH1 0x2 PUSH1 0x1 SLOAD SUB PUSH2 0x214B JUMPI PUSH1 0x40 MLOAD PUSH3 0x461BCD PUSH1 0xE5 SHL DUP2 MSTORE PUSH1 0x4 ADD PUSH2 0x119E SWAP1 PUSH2 0x6518 JUMP JUMPDEST PUSH1 0x2 PUSH1 0x1 SSTORE JUMP JUMPDEST PUSH1 0x0 PUSH1 0x0 NOT DUP4 EQ DUP1 PUSH2 0x2162 JUMPI POP DUP3 ISZERO JUMPDEST ISZERO PUSH2 0x216E JUMPI POP DUP2 PUSH2 0xFEA JUMP JUMPDEST PUSH1 0x0 PUSH2 0x2178 PUSH2 0x262C JUMP JUMPDEST SWAP1 POP DUP1 PUSH1 0x0 SUB PUSH2 0x218B JUMPI DUP4 SWAP2 POP POP PUSH2 0xFEA JUMP JUMPDEST PUSH1 0x0 PUSH2 0x2195 PUSH2 0x2117 JUMP JUMPDEST SWAP1 POP PUSH1 0x0 PUSH2 0x21A3 DUP3 DUP8 PUSH2 0x609E JUMP JUMPDEST SWAP1 POP PUSH1 0x0 PUSH2 0x21B1 DUP5 DUP4 PUSH2 0x60D3 JUMP JUMPDEST SWAP1 POP PUSH1 0x1 DUP7 PUSH1 0x1 DUP2 GT ISZERO PUSH2 0x21C7 JUMPI PUSH2 0x21C7 PUSH2 0x5CF5 JUMP JUMPDEST EQ DUP1 ISZERO PUSH2 0x21DC JUMPI POP PUSH2 0x21D9 DUP5 DUP4 PUSH2 0x6528 JUMP JUMPDEST ISZERO ISZERO JUMPDEST ISZERO PUSH2 0x1333 JUMPI PUSH2 0x1D98 PUSH1 0x1 DUP3 PUSH2 0x6130 JUMP JUMPDEST PUSH1 0x0 PUSH2 0x21FD DUP9 DUP9 DUP9 DUP9 DUP9 DUP9 DUP9 PUSH2 0x4170 JUMP JUMPDEST PUSH2 0x2208 DUP7 DUP10 DUP7 PUSH2 0x4219 JUMP JUMPDEST PUSH1 0x0 DUP1 PUSH2 0x2215 DUP8 DUP6 PUSH2 0x423D JUMP JUMPDEST SWAP2 POP SWAP2 POP PUSH2 0x2229 DUP11 DUP11 DUP11 DUP10 DUP12 DUP8 DUP8 DUP13 PUSH2 0x488F JUMP JUMPDEST DUP8 PUSH1 0x1 PUSH1 0x1 PUSH1 0xA0 SHL SUB AND DUP10 PUSH1 0x1 PUSH1 0x1 PUSH1 0xA0 SHL SUB AND DUP12 PUSH1 0x1 PUSH1 0x1 PUSH1 0xA0 SHL SUB AND PUSH32 0xFBDE797D201C681B91056529119E0B02407C7BB96A4A2C75C01FC9667232C8DB DUP6 DUP11 PUSH1 0x40 MLOAD PUSH2 0x2278 SWAP3 SWAP2 SWAP1 PUSH2 0x5D7B JUMP JUMPDEST PUSH1 0x40 MLOAD DUP1 SWAP2 SUB SWAP1 LOG4 POP SWAP9 SWAP8 POP POP POP POP POP POP POP POP JUMP JUMPDEST PUSH1 0x0 PUSH1 0x1 PUSH1 0x1 PUSH1 0xA0 SHL SUB DUP5 AND PUSH2 0x22B5 JUMPI PUSH1 0x40 MLOAD PUSH3 0x461BCD PUSH1 0xE5 SHL DUP2 MSTORE PUSH1 0x4 ADD PUSH2 0x119E SWAP1 PUSH2 0x657D JUMP JUMPDEST PUSH1 0x1 PUSH1 0x1 PUSH1 0xA0 SHL SUB DUP4 AND PUSH2 0x22DB JUMPI PUSH1 0x40 MLOAD PUSH3 0x461BCD PUSH1 0xE5 SHL DUP2 MSTORE PUSH1 0x4 ADD PUSH2 0x119E SWAP1 PUSH2 0x65CC JUMP JUMPDEST PUSH1 0x1 PUSH1 0x1 PUSH1 0xA0 SHL SUB DUP1 DUP6 AND PUSH1 0x0 DUP2 DUP2 MSTORE PUSH1 0x6 PUSH1 0x20 SWAP1 DUP2 MSTORE PUSH1 0x40 DUP1 DUP4 KECCAK256 SWAP5 DUP9 AND DUP1 DUP5 MSTORE SWAP5 SWAP1 SWAP2 MSTORE SWAP1 DUP2 SWAP1 KECCAK256 DUP6 SWAP1 SSTORE MLOAD PUSH32 0x8C5BE1E5EBEC7D5BD14F71427D1E84F3DD0314C0F7B2291E5B200AC8C7C3B925 SWAP1 PUSH2 0x2336 SWAP1 DUP7 SWAP1 PUSH2 0x576E JUMP JUMPDEST PUSH1 0x40 MLOAD DUP1 SWAP2 SUB SWAP1 LOG3 POP PUSH1 0x1 SWAP4 SWAP3 POP POP POP JUMP JUMPDEST PUSH1 0x0 PUSH1 0x0 NOT DUP4 EQ DUP1 PUSH2 0x2358 JUMPI POP DUP3 ISZERO JUMPDEST ISZERO PUSH2 0x2364 JUMPI POP DUP2 PUSH2 0xFEA JUMP JUMPDEST PUSH1 0x0 PUSH2 0x236E PUSH2 0x262C JUMP JUMPDEST SWAP1 POP PUSH1 0x0 PUSH2 0x237A PUSH2 0x2117 JUMP JUMPDEST SWAP1 POP DUP1 PUSH1 0x0 SUB PUSH2 0x23A1 JUMPI DUP2 PUSH1 0x0 SUB PUSH2 0x2396 JUMPI DUP5 SWAP3 POP POP POP PUSH2 0xFEA JUMP JUMPDEST PUSH1 0x0 SWAP3 POP POP POP PUSH2 0xFEA JUMP JUMPDEST PUSH1 0x0 PUSH2 0x23AD DUP4 DUP8 PUSH2 0x609E JUMP JUMPDEST SWAP1 POP PUSH1 0x0 PUSH2 0x23BB DUP4 DUP4 PUSH2 0x60D3 JUMP JUMPDEST SWAP1 POP PUSH1 0x1 DUP7 PUSH1 0x1 DUP2 GT ISZERO PUSH2 0x23D1 JUMPI PUSH2 0x23D1 PUSH2 0x5CF5 JUMP JUMPDEST EQ DUP1 ISZERO PUSH2 0x21DC JUMPI POP PUSH2 0x21D9 DUP4 DUP4 PUSH2 0x6528 JUMP JUMPDEST PUSH2 0x23ED DUP2 CALLER PUSH2 0x492F JUMP JUMPDEST POP JUMP JUMPDEST PUSH1 0x1 PUSH1 0x1 PUSH1 0xA0 SHL SUB DUP3 AND PUSH1 0x0 SWAP1 DUP2 MSTORE PUSH1 0x2 PUSH1 0x20 MSTORE PUSH1 0x40 DUP2 KECCAK256 SLOAD SWAP1 SUB PUSH2 0x2427 JUMPI PUSH1 0x40 MLOAD PUSH3 0x461BCD PUSH1 0xE5 SHL DUP2 MSTORE PUSH1 0x4 ADD PUSH2 0x119E SWAP1 PUSH2 0x6606 JUMP JUMPDEST PUSH1 0x1 PUSH1 0x1 PUSH1 0xA0 SHL SUB DUP3 AND PUSH1 0x0 SWAP1 DUP2 MSTORE PUSH1 0x2 PUSH1 0x20 DUP2 SWAP1 MSTORE PUSH1 0x40 DUP3 KECCAK256 ADD SLOAD ISZERO PUSH2 0x24EB JUMPI DUP2 PUSH2 0x2465 JUMPI PUSH1 0x40 MLOAD PUSH3 0x461BCD PUSH1 0xE5 SHL DUP2 MSTORE PUSH1 0x4 ADD PUSH2 0x119E SWAP1 PUSH2 0x663E JUMP JUMPDEST POP PUSH1 0x1 PUSH1 0x1 PUSH1 0xA0 SHL SUB DUP3 AND PUSH1 0x0 SWAP1 DUP2 MSTORE PUSH1 0x2 PUSH1 0x20 DUP2 SWAP1 MSTORE PUSH1 0x40 DUP3 KECCAK256 ADD SLOAD PUSH1 0x8 DUP1 SLOAD SWAP2 SWAP3 DUP4 SWAP3 PUSH2 0x2495 SWAP1 DUP5 SWAP1 PUSH2 0x611D JUMP JUMPDEST SWAP3 POP POP DUP2 SWAP1 SSTORE POP DUP3 PUSH1 0x1 PUSH1 0x1 PUSH1 0xA0 SHL SUB AND PUSH32 0x7F2AD1D3BA35276F35EF140F83E3E0F17B23064FD710113D3F7A5AB30D267811 PUSH1 0x0 DUP4 PUSH1 0x0 DUP1 PUSH1 0x0 DUP1 PUSH1 0x40 MLOAD PUSH2 0x24E2 SWAP7 SWAP6 SWAP5 SWAP4 SWAP3 SWAP2 SWAP1 PUSH2 0x664E JUMP JUMPDEST PUSH1 0x40 MLOAD DUP1 SWAP2 SUB SWAP1 LOG2 JUMPDEST PUSH1 0x40 DUP1 MLOAD PUSH1 0x80 DUP2 ADD DUP3 MSTORE PUSH1 0x0 DUP1 DUP3 MSTORE PUSH1 0x20 DUP1 DUP4 ADD DUP3 DUP2 MSTORE DUP4 DUP6 ADD DUP4 DUP2 MSTORE PUSH1 0x60 DUP1 DUP7 ADD DUP6 DUP2 MSTORE PUSH1 0x1 PUSH1 0x1 PUSH1 0xA0 SHL SUB DUP12 AND DUP7 MSTORE PUSH1 0x2 SWAP5 DUP6 SWAP1 MSTORE SWAP7 SWAP1 SWAP5 KECCAK256 SWAP5 MLOAD DUP6 SSTORE SWAP1 MLOAD PUSH1 0x1 DUP6 ADD SSTORE MLOAD SWAP1 DUP4 ADD SSTORE SWAP2 MLOAD PUSH1 0x3 SWAP2 DUP3 ADD SSTORE SLOAD ISZERO PUSH2 0x25D0 JUMPI PUSH1 0x0 JUMPDEST PUSH1 0x3 SLOAD DUP2 LT ISZERO PUSH2 0x25CE JUMPI PUSH1 0x0 PUSH1 0x3 DUP3 DUP2 SLOAD DUP2 LT PUSH2 0x2566 JUMPI PUSH2 0x2566 PUSH2 0x6199 JUMP JUMPDEST PUSH1 0x0 SWAP2 DUP3 MSTORE PUSH1 0x20 SWAP1 SWAP2 KECCAK256 ADD SLOAD PUSH1 0x1 PUSH1 0x1 PUSH1 0xA0 SHL SUB SWAP1 DUP2 AND SWAP2 POP DUP7 AND DUP2 EQ PUSH2 0x25BB JUMPI DUP1 DUP4 DUP4 DUP2 MLOAD DUP2 LT PUSH2 0x259A JUMPI PUSH2 0x259A PUSH2 0x6199 JUMP JUMPDEST PUSH1 0x20 MUL PUSH1 0x20 ADD ADD SWAP1 PUSH1 0x1 PUSH1 0x1 PUSH1 0xA0 SHL SUB AND SWAP1 DUP2 PUSH1 0x1 PUSH1 0x1 PUSH1 0xA0 SHL SUB AND DUP2 MSTORE POP POP JUMPDEST POP DUP1 PUSH2 0x25C6 DUP2 PUSH2 0x61E7 JUMP JUMPDEST SWAP2 POP POP PUSH2 0x2547 JUMP JUMPDEST POP JUMPDEST DUP1 MLOAD PUSH2 0x25E3 SWAP1 PUSH1 0x3 SWAP1 PUSH1 0x20 DUP5 ADD SWAP1 PUSH2 0x569F JUMP JUMPDEST POP DUP4 PUSH1 0x1 PUSH1 0x1 PUSH1 0xA0 SHL SUB AND PUSH32 0xBCF55F13710EED7EDA89416C2984DA5475FCFF67E96FE85E56EED808559A5222 PUSH1 0x1 PUSH1 0x40 MLOAD PUSH2 0x261E SWAP2 SWAP1 PUSH2 0x66CB JUMP JUMPDEST PUSH1 0x40 MLOAD DUP1 SWAP2 SUB SWAP1 LOG2 POP POP POP POP JUMP JUMPDEST PUSH1 0x0 DUP1 PUSH2 0x2637 PUSH2 0x3A57 JUMP JUMPDEST SWAP1 POP DUP1 PUSH1 0x7 SLOAD PUSH2 0x2647 SWAP2 SWAP1 PUSH2 0x611D JUMP JUMPDEST SWAP2 POP POP SWAP1 JUMP JUMPDEST PUSH1 0x1 PUSH1 0x1 PUSH1 0xA0 SHL SUB DUP2 AND ISZERO DUP1 ISZERO SWAP1 PUSH2 0x266E JUMPI POP PUSH1 0x1 PUSH1 0x1 PUSH1 0xA0 SHL SUB DUP2 AND ADDRESS EQ ISZERO JUMPDEST PUSH2 0x268A JUMPI PUSH1 0x40 MLOAD PUSH3 0x461BCD PUSH1 0xE5 SHL DUP2 MSTORE PUSH1 0x4 ADD PUSH2 0x119E SWAP1 PUSH2 0x670D JUMP JUMPDEST PUSH32 0x0 PUSH1 0x1 PUSH1 0x1 PUSH1 0xA0 SHL SUB AND DUP2 PUSH1 0x1 PUSH1 0x1 PUSH1 0xA0 SHL SUB AND PUSH4 0x38D52E0F PUSH1 0x40 MLOAD DUP2 PUSH4 0xFFFFFFFF AND PUSH1 0xE0 SHL DUP2 MSTORE PUSH1 0x4 ADD PUSH1 0x20 PUSH1 0x40 MLOAD DUP1 DUP4 SUB DUP2 DUP7 GAS STATICCALL ISZERO DUP1 ISZERO PUSH2 0x26F2 JUMPI RETURNDATASIZE PUSH1 0x0 DUP1 RETURNDATACOPY RETURNDATASIZE PUSH1 0x0 REVERT JUMPDEST POP POP POP POP PUSH1 0x40 MLOAD RETURNDATASIZE PUSH1 0x1F NOT PUSH1 0x1F DUP3 ADD AND DUP3 ADD DUP1 PUSH1 0x40 MSTORE POP DUP2 ADD SWAP1 PUSH2 0x2716 SWAP2 SWAP1 PUSH2 0x6728 JUMP JUMPDEST PUSH1 0x1 PUSH1 0x1 PUSH1 0xA0 SHL SUB AND EQ PUSH2 0x273C JUMPI PUSH1 0x40 MLOAD PUSH3 0x461BCD PUSH1 0xE5 SHL DUP2 MSTORE PUSH1 0x4 ADD PUSH2 0x119E SWAP1 PUSH2 0x676D JUMP JUMPDEST PUSH1 0x1 PUSH1 0x1 PUSH1 0xA0 SHL SUB DUP2 AND PUSH1 0x0 SWAP1 DUP2 MSTORE PUSH1 0x2 PUSH1 0x20 MSTORE PUSH1 0x40 SWAP1 KECCAK256 SLOAD ISZERO PUSH2 0x2772 JUMPI PUSH1 0x40 MLOAD PUSH3 0x461BCD PUSH1 0xE5 SHL DUP2 MSTORE PUSH1 0x4 ADD PUSH2 0x119E SWAP1 PUSH2 0x67AB JUMP JUMPDEST PUSH1 0x40 DUP1 MLOAD PUSH1 0x80 DUP2 ADD DUP3 MSTORE TIMESTAMP DUP1 DUP3 MSTORE PUSH1 0x20 DUP1 DUP4 ADD SWAP2 DUP3 MSTORE PUSH1 0x0 DUP4 DUP6 ADD DUP2 DUP2 MSTORE PUSH1 0x60 DUP6 ADD DUP3 DUP2 MSTORE PUSH1 0x1 PUSH1 0x1 PUSH1 0xA0 SHL SUB DUP9 AND DUP4 MSTORE PUSH1 0x2 SWAP4 DUP5 SWAP1 MSTORE SWAP6 SWAP1 SWAP2 KECCAK256 SWAP4 MLOAD DUP5 SSTORE SWAP2 MLOAD PUSH1 0x1 DUP5 ADD SSTORE SWAP1 MLOAD SWAP1 DUP3 ADD SSTORE SWAP1 MLOAD PUSH1 0x3 SWAP2 DUP3 ADD SSTORE SLOAD PUSH1 0xA DUP2 LT ISZERO PUSH2 0x281E JUMPI DUP2 PUSH1 0x3 DUP3 PUSH2 0x27DD DUP2 PUSH2 0x61E7 JUMP JUMPDEST SWAP4 POP DUP2 SLOAD DUP2 LT PUSH2 0x27EF JUMPI PUSH2 0x27EF PUSH2 0x6199 JUMP JUMPDEST SWAP1 PUSH1 0x0 MSTORE PUSH1 0x20 PUSH1 0x0 KECCAK256 ADD PUSH1 0x0 PUSH2 0x100 EXP DUP2 SLOAD DUP2 PUSH1 0x1 PUSH1 0x1 PUSH1 0xA0 SHL SUB MUL NOT AND SWAP1 DUP4 PUSH1 0x1 PUSH1 0x1 PUSH1 0xA0 SHL SUB AND MUL OR SWAP1 SSTORE POP JUMPDEST DUP2 PUSH1 0x1 PUSH1 0x1 PUSH1 0xA0 SHL SUB AND PUSH32 0xBCF55F13710EED7EDA89416C2984DA5475FCFF67E96FE85E56EED808559A5222 PUSH1 0x0 PUSH1 0x40 MLOAD PUSH2 0x2858 SWAP2 SWAP1 PUSH2 0x66CB JUMP JUMPDEST PUSH1 0x40 MLOAD DUP1 SWAP2 SUB SWAP1 LOG2 POP POP JUMP JUMPDEST PUSH1 0x0 PUSH2 0x2871 DUP5 CALLER DUP5 PUSH2 0x4988 JUMP JUMPDEST PUSH2 0x287C DUP5 DUP5 DUP5 PUSH2 0x3C61 JUMP JUMPDEST POP PUSH1 0x1 SWAP4 SWAP3 POP POP POP JUMP JUMPDEST PUSH2 0x2890 DUP3 DUP3 PUSH2 0x1A78 JUMP JUMPDEST PUSH2 0x111E JUMPI PUSH1 0x0 DUP3 DUP2 MSTORE PUSH1 0x20 DUP2 DUP2 MSTORE PUSH1 0x40 DUP1 DUP4 KECCAK256 PUSH1 0x1 PUSH1 0x1 PUSH1 0xA0 SHL SUB DUP6 AND DUP5 MSTORE SWAP1 SWAP2 MSTORE SWAP1 KECCAK256 DUP1 SLOAD PUSH1 0xFF NOT AND PUSH1 0x1 OR SWAP1 SSTORE PUSH2 0x28C6 CALLER SWAP1 JUMP JUMPDEST PUSH1 0x1 PUSH1 0x1 PUSH1 0xA0 SHL SUB AND DUP2 PUSH1 0x1 PUSH1 0x1 PUSH1 0xA0 SHL SUB AND DUP4 PUSH32 0x2F8788117E7EFF1D82E926EC794901D17C78024A50270940304540A733656F0D PUSH1 0x40 MLOAD PUSH1 0x40 MLOAD DUP1 SWAP2 SUB SWAP1 LOG4 POP POP JUMP JUMPDEST PUSH1 0x1 PUSH1 0x1 PUSH1 0xA0 SHL SUB DUP4 AND PUSH1 0x0 SWAP1 DUP2 MSTORE PUSH1 0x5 PUSH1 0x20 MSTORE PUSH1 0x40 DUP2 KECCAK256 SLOAD DUP2 SWAP1 PUSH2 0x292F SWAP1 DUP3 PUSH2 0x2152 JUMP JUMPDEST PUSH1 0xE SLOAD SWAP1 SWAP2 POP PUSH1 0x1 PUSH1 0x1 PUSH1 0xA0 SHL SUB AND ISZERO PUSH2 0x29D1 JUMPI PUSH1 0xE SLOAD PUSH1 0x40 MLOAD PUSH4 0x2319B8CF PUSH1 0xE0 SHL DUP2 MSTORE PUSH1 0x0 SWAP2 PUSH1 0x1 PUSH1 0x1 PUSH1 0xA0 SHL SUB AND SWAP1 PUSH4 0x2319B8CF SWAP1 PUSH2 0x2978 SWAP1 DUP10 SWAP1 DUP10 SWAP1 DUP10 SWAP1 PUSH1 0x4 ADD PUSH2 0x67BB JUMP JUMPDEST PUSH1 0x20 PUSH1 0x40 MLOAD DUP1 DUP4 SUB DUP2 PUSH1 0x0 DUP8 GAS CALL ISZERO DUP1 ISZERO PUSH2 0x2997 JUMPI RETURNDATASIZE PUSH1 0x0 DUP1 RETURNDATACOPY RETURNDATASIZE PUSH1 0x0 REVERT JUMPDEST POP POP POP POP PUSH1 0x40 MLOAD RETURNDATASIZE PUSH1 0x1F NOT PUSH1 0x1F DUP3 ADD AND DUP3 ADD DUP1 PUSH1 0x40 MSTORE POP DUP2 ADD SWAP1 PUSH2 0x29BB SWAP2 SWAP1 PUSH2 0x6067 JUMP JUMPDEST SWAP1 POP DUP2 DUP2 LT ISZERO PUSH2 0x29C9 JUMPI DUP1 SWAP2 POP JUMPDEST POP SWAP1 POP PUSH2 0x10D5 JUMP JUMPDEST PUSH1 0x9 SLOAD DUP1 DUP3 GT ISZERO PUSH2 0x2CCB JUMPI DUP4 MLOAD DUP2 SWAP1 PUSH1 0x0 SWAP1 DUP2 SWAP1 ISZERO DUP1 ISZERO SWAP1 PUSH2 0x29F6 JUMPI POP PUSH1 0x4 SLOAD PUSH1 0xFF AND ISZERO JUMPDEST PUSH2 0x2A5A JUMPI PUSH1 0x3 DUP1 SLOAD DUP1 PUSH1 0x20 MUL PUSH1 0x20 ADD PUSH1 0x40 MLOAD SWAP1 DUP2 ADD PUSH1 0x40 MSTORE DUP1 SWAP3 SWAP2 SWAP1 DUP2 DUP2 MSTORE PUSH1 0x20 ADD DUP3 DUP1 SLOAD DUP1 ISZERO PUSH2 0x2A50 JUMPI PUSH1 0x20 MUL DUP3 ADD SWAP2 SWAP1 PUSH1 0x0 MSTORE PUSH1 0x20 PUSH1 0x0 KECCAK256 SWAP1 JUMPDEST DUP2 SLOAD PUSH1 0x1 PUSH1 0x1 PUSH1 0xA0 SHL SUB AND DUP2 MSTORE PUSH1 0x1 SWAP1 SWAP2 ADD SWAP1 PUSH1 0x20 ADD DUP1 DUP4 GT PUSH2 0x2A32 JUMPI JUMPDEST POP POP POP POP POP PUSH2 0x2A5C JUMP JUMPDEST DUP7 JUMPDEST SWAP1 POP PUSH1 0x0 JUMPDEST DUP2 MLOAD DUP2 LT ISZERO PUSH2 0x2CC4 JUMPI PUSH1 0x0 DUP3 DUP3 DUP2 MLOAD DUP2 LT PUSH2 0x2A7E JUMPI PUSH2 0x2A7E PUSH2 0x6199 JUMP JUMPDEST PUSH1 0x20 MUL PUSH1 0x20 ADD ADD MLOAD SWAP1 POP PUSH1 0x2 PUSH1 0x0 DUP3 PUSH1 0x1 PUSH1 0x1 PUSH1 0xA0 SHL SUB AND PUSH1 0x1 PUSH1 0x1 PUSH1 0xA0 SHL SUB AND DUP2 MSTORE PUSH1 0x20 ADD SWAP1 DUP2 MSTORE PUSH1 0x20 ADD PUSH1 0x0 KECCAK256 PUSH1 0x0 ADD SLOAD PUSH1 0x0 SUB PUSH2 0x2AD0 JUMPI PUSH1 0x40 MLOAD PUSH3 0x461BCD PUSH1 0xE5 SHL DUP2 MSTORE PUSH1 0x4 ADD PUSH2 0x119E SWAP1 PUSH2 0x64D4 JUMP JUMPDEST PUSH1 0x0 PUSH2 0x2B01 PUSH2 0x2ADF DUP8 DUP11 PUSH2 0x611D JUMP JUMPDEST PUSH1 0x1 PUSH1 0x1 PUSH1 0xA0 SHL SUB DUP5 AND PUSH1 0x0 SWAP1 DUP2 MSTORE PUSH1 0x2 PUSH1 0x20 DUP2 SWAP1 MSTORE PUSH1 0x40 SWAP1 SWAP2 KECCAK256 ADD SLOAD PUSH2 0x2CD4 JUMP JUMPDEST SWAP1 POP PUSH1 0x0 PUSH2 0x2B0F DUP4 DUP4 PUSH2 0x3782 JUMP JUMPDEST SWAP1 POP PUSH1 0x0 DUP4 PUSH1 0x1 PUSH1 0x1 PUSH1 0xA0 SHL SUB AND PUSH4 0x7A2D13A DUP6 PUSH1 0x1 PUSH1 0x1 PUSH1 0xA0 SHL SUB AND PUSH4 0xD905777E ADDRESS PUSH1 0x40 MLOAD DUP3 PUSH4 0xFFFFFFFF AND PUSH1 0xE0 SHL DUP2 MSTORE PUSH1 0x4 ADD PUSH2 0x2B4E SWAP2 SWAP1 PUSH2 0x575A JUMP JUMPDEST PUSH1 0x20 PUSH1 0x40 MLOAD DUP1 DUP4 SUB DUP2 DUP7 GAS STATICCALL ISZERO DUP1 ISZERO PUSH2 0x2B6B JUMPI RETURNDATASIZE PUSH1 0x0 DUP1 RETURNDATACOPY RETURNDATASIZE PUSH1 0x0 REVERT JUMPDEST POP POP POP POP PUSH1 0x40 MLOAD RETURNDATASIZE PUSH1 0x1F NOT PUSH1 0x1F DUP3 ADD AND DUP3 ADD DUP1 PUSH1 0x40 MSTORE POP DUP2 ADD SWAP1 PUSH2 0x2B8F SWAP2 SWAP1 PUSH2 0x6067 JUMP JUMPDEST PUSH1 0x40 MLOAD DUP3 PUSH4 0xFFFFFFFF AND PUSH1 0xE0 SHL DUP2 MSTORE PUSH1 0x4 ADD PUSH2 0x2BAB SWAP2 SWAP1 PUSH2 0x576E JUMP JUMPDEST PUSH1 0x20 PUSH1 0x40 MLOAD DUP1 DUP4 SUB DUP2 DUP7 GAS STATICCALL ISZERO DUP1 ISZERO PUSH2 0x2BC8 JUMPI RETURNDATASIZE PUSH1 0x0 DUP1 RETURNDATACOPY RETURNDATASIZE PUSH1 0x0 REVERT JUMPDEST POP POP POP POP PUSH1 0x40 MLOAD RETURNDATASIZE PUSH1 0x1F NOT PUSH1 0x1F DUP3 ADD AND DUP3 ADD DUP1 PUSH1 0x40 MSTORE POP DUP2 ADD SWAP1 PUSH2 0x2BEC SWAP2 SWAP1 PUSH2 0x6067 JUMP JUMPDEST SWAP1 POP PUSH2 0x2BF8 DUP3 DUP5 PUSH2 0x611D JUMP JUMPDEST DUP2 LT ISZERO PUSH2 0x2C23 JUMPI DUP3 PUSH2 0x2C0A DUP3 DUP5 PUSH2 0x609E JUMP JUMPDEST PUSH2 0x2C14 SWAP2 SWAP1 PUSH2 0x60D3 JUMP JUMPDEST SWAP2 POP PUSH2 0x2C20 DUP3 DUP3 PUSH2 0x6130 JUMP JUMPDEST SWAP3 POP JUMPDEST DUP3 PUSH1 0x0 SUB PUSH2 0x2C34 JUMPI POP POP POP POP PUSH2 0x2CB2 JUMP JUMPDEST PUSH1 0x0 DUP3 GT DUP1 ISZERO PUSH2 0x2C45 JUMPI POP PUSH2 0x2710 DUP14 LT JUMPDEST ISZERO PUSH2 0x2C85 JUMPI PUSH2 0x2710 DUP14 PUSH2 0x2C58 DUP6 DUP12 PUSH2 0x6130 JUMP JUMPDEST PUSH2 0x2C62 SWAP2 SWAP1 PUSH2 0x609E JUMP JUMPDEST PUSH2 0x2C6C SWAP2 SWAP1 PUSH2 0x60D3 JUMP JUMPDEST PUSH2 0x2C76 DUP4 DUP10 PUSH2 0x6130 JUMP JUMPDEST GT ISZERO PUSH2 0x2C85 JUMPI POP POP POP POP PUSH2 0x2CC4 JUMP JUMPDEST PUSH2 0x2C8F DUP4 DUP10 PUSH2 0x6130 JUMP JUMPDEST SWAP8 POP DUP10 DUP9 LT PUSH2 0x2CA1 JUMPI POP POP POP POP PUSH2 0x2CC4 JUMP JUMPDEST PUSH2 0x2CAB DUP3 DUP9 PUSH2 0x6130 JUMP JUMPDEST SWAP7 POP POP POP POP POP JUMPDEST DUP1 PUSH2 0x2CBC DUP2 PUSH2 0x61E7 JUMP JUMPDEST SWAP2 POP POP PUSH2 0x2A61 JUMP JUMPDEST POP SWAP2 SWAP4 POP POP POP JUMPDEST POP SWAP5 SWAP4 POP POP POP POP JUMP JUMPDEST PUSH1 0x0 DUP2 DUP4 LT PUSH2 0x2CE3 JUMPI DUP2 PUSH2 0x10D5 JUMP JUMPDEST POP SWAP1 SWAP2 SWAP1 POP JUMP JUMPDEST PUSH2 0x2CF4 DUP3 DUP3 PUSH2 0x1A78 JUMP JUMPDEST ISZERO PUSH2 0x111E JUMPI PUSH1 0x0 DUP3 DUP2 MSTORE PUSH1 0x20 DUP2 DUP2 MSTORE PUSH1 0x40 DUP1 DUP4 KECCAK256 PUSH1 0x1 PUSH1 0x1 PUSH1 0xA0 SHL SUB DUP6 AND DUP1 DUP6 MSTORE SWAP3 MSTORE DUP1 DUP4 KECCAK256 DUP1 SLOAD PUSH1 0xFF NOT AND SWAP1 SSTORE MLOAD CALLER SWAP3 DUP6 SWAP2 PUSH32 0xF6391F5C32D9C69D2A47EA670B442974B53935D1EDC7FD64EB21E047A839171B SWAP2 SWAP1 LOG4 POP POP JUMP JUMPDEST PUSH1 0x1 PUSH1 0x1 PUSH1 0xA0 SHL SUB DUP1 DUP5 AND PUSH1 0x0 SWAP1 DUP2 MSTORE PUSH1 0x6 PUSH1 0x20 SWAP1 DUP2 MSTORE PUSH1 0x40 DUP1 DUP4 KECCAK256 SWAP4 DUP7 AND DUP4 MSTORE SWAP3 SWAP1 MSTORE SWAP1 DUP2 KECCAK256 SLOAD DUP2 SWAP1 PUSH2 0x2D83 SWAP1 DUP5 PUSH2 0x49E2 JUMP JUMPDEST SWAP1 POP PUSH2 0x2D90 DUP6 DUP6 DUP4 PUSH2 0x228D JUMP JUMPDEST POP PUSH1 0x1 SWAP6 SWAP5 POP POP POP POP POP JUMP JUMPDEST PUSH1 0x0 PUSH1 0x1 PUSH1 0x1 PUSH1 0xA0 SHL SUB DUP3 AND ADDRESS EQ DUP1 PUSH2 0x2DBC JUMPI POP PUSH1 0x1 PUSH1 0x1 PUSH1 0xA0 SHL SUB DUP3 AND ISZERO JUMPDEST ISZERO PUSH2 0x2DC9 JUMPI POP PUSH1 0x0 SWAP2 SWAP1 POP JUMP JUMPDEST PUSH1 0xD SLOAD PUSH1 0x1 PUSH1 0x1 PUSH1 0xA0 SHL SUB AND DUP1 ISZERO PUSH2 0x2E48 JUMPI PUSH1 0x40 MLOAD PUSH4 0x23551789 PUSH1 0xE1 SHL DUP2 MSTORE PUSH1 0x1 PUSH1 0x1 PUSH1 0xA0 SHL SUB DUP3 AND SWAP1 PUSH4 0x46AA2F12 SWAP1 PUSH2 0x2E07 SWAP1 DUP7 SWAP1 PUSH1 0x4 ADD PUSH2 0x575A JUMP JUMPDEST PUSH1 0x20 PUSH1 0x40 MLOAD DUP1 DUP4 SUB DUP2 DUP7 GAS STATICCALL ISZERO DUP1 ISZERO PUSH2 0x2E24 JUMPI RETURNDATASIZE PUSH1 0x0 DUP1 RETURNDATACOPY RETURNDATASIZE PUSH1 0x0 REVERT JUMPDEST POP POP POP POP PUSH1 0x40 MLOAD RETURNDATASIZE PUSH1 0x1F NOT PUSH1 0x1F DUP3 ADD AND DUP3 ADD DUP1 PUSH1 0x40 MSTORE POP DUP2 ADD SWAP1 PUSH2 0x10D5 SWAP2 SWAP1 PUSH2 0x6067 JUMP JUMPDEST PUSH1 0x0 PUSH2 0x2E52 PUSH2 0x2117 JUMP JUMPDEST PUSH1 0xB SLOAD SWAP1 SWAP2 POP DUP1 DUP3 LT PUSH2 0x2E6A JUMPI POP PUSH1 0x0 SWAP5 SWAP4 POP POP POP POP JUMP JUMPDEST PUSH2 0x1024 DUP3 DUP3 PUSH2 0x611D JUMP JUMPDEST PUSH1 0x1 PUSH1 0x1 PUSH1 0xA0 SHL SUB DUP5 AND PUSH2 0x2E9A JUMPI PUSH1 0x40 MLOAD PUSH3 0x461BCD PUSH1 0xE5 SHL DUP2 MSTORE PUSH1 0x4 ADD PUSH2 0x119E SWAP1 PUSH2 0x681C JUMP JUMPDEST PUSH1 0x1 PUSH1 0x1 PUSH1 0xA0 SHL SUB DUP4 AND PUSH2 0x2EC0 JUMPI PUSH1 0x40 MLOAD PUSH3 0x461BCD PUSH1 0xE5 SHL DUP2 MSTORE PUSH1 0x4 ADD PUSH2 0x119E SWAP1 PUSH2 0x6860 JUMP JUMPDEST PUSH1 0x1 PUSH1 0x1 PUSH1 0xA0 SHL SUB DUP3 AND PUSH2 0x2EE6 JUMPI PUSH1 0x40 MLOAD PUSH3 0x461BCD PUSH1 0xE5 SHL DUP2 MSTORE PUSH1 0x4 ADD PUSH2 0x119E SWAP1 PUSH2 0x68A4 JUMP JUMPDEST PUSH1 0x40 MLOAD PUSH4 0x23B872DD PUSH1 0xE0 SHL DUP2 MSTORE PUSH1 0x0 SWAP1 PUSH1 0x1 PUSH1 0x1 PUSH1 0xA0 SHL SUB DUP7 AND SWAP1 PUSH4 0x23B872DD SWAP1 PUSH2 0x2F19 SWAP1 DUP8 SWAP1 DUP8 SWAP1 DUP8 SWAP1 PUSH1 0x4 ADD PUSH2 0x68B4 JUMP JUMPDEST PUSH1 0x20 PUSH1 0x40 MLOAD DUP1 DUP4 SUB DUP2 PUSH1 0x0 DUP8 GAS CALL ISZERO DUP1 ISZERO PUSH2 0x2F38 JUMPI RETURNDATASIZE PUSH1 0x0 DUP1 RETURNDATACOPY RETURNDATASIZE PUSH1 0x0 REVERT JUMPDEST POP POP POP POP PUSH1 0x40 MLOAD RETURNDATASIZE PUSH1 0x1F NOT PUSH1 0x1F DUP3 ADD AND DUP3 ADD DUP1 PUSH1 0x40 MSTORE POP DUP2 ADD SWAP1 PUSH2 0x2F5C SWAP2 SWAP1 PUSH2 0x68E7 JUMP JUMPDEST SWAP1 POP DUP1 PUSH2 0x2F7B JUMPI PUSH1 0x40 MLOAD PUSH3 0x461BCD PUSH1 0xE5 SHL DUP2 MSTORE PUSH1 0x4 ADD PUSH2 0x119E SWAP1 PUSH2 0x692E JUMP JUMPDEST POP POP POP POP POP JUMP JUMPDEST PUSH1 0x1 PUSH1 0x1 PUSH1 0xA0 SHL SUB DUP4 AND PUSH2 0x2FA8 JUMPI PUSH1 0x40 MLOAD PUSH3 0x461BCD PUSH1 0xE5 SHL DUP2 MSTORE PUSH1 0x4 ADD PUSH2 0x119E SWAP1 PUSH2 0x681C JUMP JUMPDEST PUSH1 0x1 PUSH1 0x1 PUSH1 0xA0 SHL SUB DUP3 AND PUSH2 0x2FCE JUMPI PUSH1 0x40 MLOAD PUSH3 0x461BCD PUSH1 0xE5 SHL DUP2 MSTORE PUSH1 0x4 ADD PUSH2 0x119E SWAP1 PUSH2 0x68A4 JUMP JUMPDEST PUSH1 0x40 MLOAD PUSH4 0xA9059CBB PUSH1 0xE0 SHL DUP2 MSTORE PUSH1 0x0 SWAP1 PUSH1 0x1 PUSH1 0x1 PUSH1 0xA0 SHL SUB DUP6 AND SWAP1 PUSH4 0xA9059CBB SWAP1 PUSH2 0x2FFF SWAP1 DUP7 SWAP1 DUP7 SWAP1 PUSH1 0x4 ADD PUSH2 0x693E JUMP JUMPDEST PUSH1 0x20 PUSH1 0x40 MLOAD DUP1 DUP4 SUB DUP2 PUSH1 0x0 DUP8 GAS CALL ISZERO DUP1 ISZERO PUSH2 0x301E JUMPI RETURNDATASIZE PUSH1 0x0 DUP1 RETURNDATACOPY RETURNDATASIZE PUSH1 0x0 REVERT JUMPDEST POP POP POP POP PUSH1 0x40 MLOAD RETURNDATASIZE PUSH1 0x1F NOT PUSH1 0x1F DUP3 ADD AND DUP3 ADD DUP1 PUSH1 0x40 MSTORE POP DUP2 ADD SWAP1 PUSH2 0x3042 SWAP2 SWAP1 PUSH2 0x68E7 JUMP JUMPDEST SWAP1 POP DUP1 PUSH2 0x3061 JUMPI PUSH1 0x40 MLOAD PUSH3 0x461BCD PUSH1 0xE5 SHL DUP2 MSTORE PUSH1 0x4 ADD PUSH2 0x119E SWAP1 PUSH2 0x692E JUMP JUMPDEST POP POP POP POP JUMP JUMPDEST PUSH1 0x1 PUSH1 0x1 PUSH1 0xA0 SHL SUB DUP3 AND PUSH1 0x0 SWAP1 DUP2 MSTORE PUSH1 0x2 PUSH1 0x20 DUP2 SWAP1 MSTORE PUSH1 0x40 DUP3 KECCAK256 ADD SLOAD PUSH1 0x15 SLOAD DUP4 SWAP2 SWAP1 PUSH1 0xFF AND ISZERO PUSH2 0x3096 JUMPI PUSH1 0x0 SWAP2 POP JUMPDEST DUP1 DUP3 SUB PUSH2 0x30B5 JUMPI PUSH1 0x40 MLOAD PUSH3 0x461BCD PUSH1 0xE5 SHL DUP2 MSTORE PUSH1 0x4 ADD PUSH2 0x119E SWAP1 PUSH2 0x6980 JUMP JUMPDEST DUP2 DUP2 GT ISZERO PUSH2 0x33C7 JUMPI PUSH1 0x0 PUSH2 0x30C9 DUP4 DUP4 PUSH2 0x611D JUMP JUMPDEST SWAP1 POP PUSH1 0xA SLOAD DUP2 PUSH1 0x9 SLOAD PUSH2 0x30DC SWAP2 SWAP1 PUSH2 0x6130 JUMP JUMPDEST LT ISZERO PUSH2 0x30FF JUMPI PUSH1 0x9 SLOAD PUSH1 0xA SLOAD PUSH2 0x30F2 SWAP2 SWAP1 PUSH2 0x611D JUMP JUMPDEST SWAP1 POP DUP2 DUP2 GT ISZERO PUSH2 0x30FF JUMPI POP DUP1 JUMPDEST PUSH1 0x40 MLOAD PUSH4 0x6C82BBBF PUSH1 0xE1 SHL DUP2 MSTORE PUSH1 0x0 SWAP1 PUSH1 0x1 PUSH1 0x1 PUSH1 0xA0 SHL SUB DUP9 AND SWAP1 PUSH4 0x7A2D13A SWAP1 DUP3 SWAP1 PUSH4 0xD905777E SWAP1 PUSH2 0x3136 SWAP1 ADDRESS SWAP1 PUSH1 0x4 ADD PUSH2 0x575A JUMP JUMPDEST PUSH1 0x20 PUSH1 0x40 MLOAD DUP1 DUP4 SUB DUP2 DUP7 GAS STATICCALL ISZERO DUP1 ISZERO PUSH2 0x3153 JUMPI RETURNDATASIZE PUSH1 0x0 DUP1 RETURNDATACOPY RETURNDATASIZE PUSH1 0x0 REVERT JUMPDEST POP POP POP POP PUSH1 0x40 MLOAD RETURNDATASIZE PUSH1 0x1F NOT PUSH1 0x1F DUP3 ADD AND DUP3 ADD DUP1 PUSH1 0x40 MSTORE POP DUP2 ADD SWAP1 PUSH2 0x3177 SWAP2 SWAP1 PUSH2 0x6067 JUMP JUMPDEST PUSH1 0x40 MLOAD DUP3 PUSH4 0xFFFFFFFF AND PUSH1 0xE0 SHL DUP2 MSTORE PUSH1 0x4 ADD PUSH2 0x3193 SWAP2 SWAP1 PUSH2 0x576E JUMP JUMPDEST PUSH1 0x20 PUSH1 0x40 MLOAD DUP1 DUP4 SUB DUP2 DUP7 GAS STATICCALL ISZERO DUP1 ISZERO PUSH2 0x31B0 JUMPI RETURNDATASIZE PUSH1 0x0 DUP1 RETURNDATACOPY RETURNDATASIZE PUSH1 0x0 REVERT JUMPDEST POP POP POP POP PUSH1 0x40 MLOAD RETURNDATASIZE PUSH1 0x1F NOT PUSH1 0x1F DUP3 ADD AND DUP3 ADD DUP1 PUSH1 0x40 MSTORE POP DUP2 ADD SWAP1 PUSH2 0x31D4 SWAP2 SWAP1 PUSH2 0x6067 JUMP JUMPDEST SWAP1 POP PUSH1 0x0 DUP2 GT PUSH2 0x31F6 JUMPI PUSH1 0x40 MLOAD PUSH3 0x461BCD PUSH1 0xE5 SHL DUP2 MSTORE PUSH1 0x4 ADD PUSH2 0x119E SWAP1 PUSH2 0x69BA JUMP JUMPDEST DUP2 DUP2 LT ISZERO PUSH2 0x3202 JUMPI DUP1 SWAP2 POP JUMPDEST PUSH1 0x0 PUSH2 0x320E DUP9 DUP5 PUSH2 0x3782 JUMP JUMPDEST SWAP1 POP DUP1 ISZERO PUSH2 0x322E JUMPI PUSH1 0x40 MLOAD PUSH3 0x461BCD PUSH1 0xE5 SHL DUP2 MSTORE PUSH1 0x4 ADD PUSH2 0x119E SWAP1 PUSH2 0x69FE JUMP JUMPDEST PUSH1 0x40 MLOAD PUSH4 0x70A08231 PUSH1 0xE0 SHL DUP2 MSTORE PUSH1 0x0 SWAP1 PUSH1 0x1 PUSH1 0x1 PUSH1 0xA0 SHL SUB PUSH32 0x0 AND SWAP1 PUSH4 0x70A08231 SWAP1 PUSH2 0x327D SWAP1 ADDRESS SWAP1 PUSH1 0x4 ADD PUSH2 0x575A JUMP JUMPDEST PUSH1 0x20 PUSH1 0x40 MLOAD DUP1 DUP4 SUB DUP2 DUP7 GAS STATICCALL ISZERO DUP1 ISZERO PUSH2 0x329A JUMPI RETURNDATASIZE PUSH1 0x0 DUP1 RETURNDATACOPY RETURNDATASIZE PUSH1 0x0 REVERT JUMPDEST POP POP POP POP PUSH1 0x40 MLOAD RETURNDATASIZE PUSH1 0x1F NOT PUSH1 0x1F DUP3 ADD AND DUP3 ADD DUP1 PUSH1 0x40 MSTORE POP DUP2 ADD SWAP1 PUSH2 0x32BE SWAP2 SWAP1 PUSH2 0x6067 JUMP JUMPDEST SWAP1 POP PUSH2 0x32CA DUP10 DUP6 PUSH2 0x49EE JUMP JUMPDEST PUSH1 0x40 MLOAD PUSH4 0x70A08231 PUSH1 0xE0 SHL DUP2 MSTORE PUSH1 0x0 SWAP1 PUSH1 0x1 PUSH1 0x1 PUSH1 0xA0 SHL SUB PUSH32 0x0 AND SWAP1 PUSH4 0x70A08231 SWAP1 PUSH2 0x3319 SWAP1 ADDRESS SWAP1 PUSH1 0x4 ADD PUSH2 0x575A JUMP JUMPDEST PUSH1 0x20 PUSH1 0x40 MLOAD DUP1 DUP4 SUB DUP2 DUP7 GAS STATICCALL ISZERO DUP1 ISZERO PUSH2 0x3336 JUMPI RETURNDATASIZE PUSH1 0x0 DUP1 RETURNDATACOPY RETURNDATASIZE PUSH1 0x0 REVERT JUMPDEST POP POP POP POP PUSH1 0x40 MLOAD RETURNDATASIZE PUSH1 0x1F NOT PUSH1 0x1F DUP3 ADD AND DUP3 ADD DUP1 PUSH1 0x40 MSTORE POP DUP2 ADD SWAP1 PUSH2 0x335A SWAP2 SWAP1 PUSH2 0x6067 JUMP JUMPDEST SWAP1 POP PUSH1 0x0 PUSH2 0x3371 PUSH2 0x336B DUP5 DUP5 PUSH2 0x611D JUMP JUMPDEST DUP9 PUSH2 0x2CD4 JUMP JUMPDEST SWAP1 POP DUP6 DUP2 GT ISZERO PUSH2 0x337F JUMPI DUP1 SWAP6 POP JUMPDEST DUP1 PUSH1 0x9 PUSH1 0x0 DUP3 DUP3 SLOAD PUSH2 0x3391 SWAP2 SWAP1 PUSH2 0x6130 JUMP JUMPDEST SWAP3 POP POP DUP2 SWAP1 SSTORE POP DUP6 PUSH1 0x8 PUSH1 0x0 DUP3 DUP3 SLOAD PUSH2 0x33AA SWAP2 SWAP1 PUSH2 0x611D JUMP JUMPDEST SWAP1 SWAP2 SSTORE POP PUSH2 0x33BA SWAP1 POP DUP7 DUP9 PUSH2 0x611D JUMP JUMPDEST SWAP8 POP POP POP POP POP POP POP PUSH2 0x3734 JUMP JUMPDEST PUSH1 0x1 PUSH1 0x1 PUSH1 0xA0 SHL SUB DUP6 AND PUSH1 0x0 SWAP1 DUP2 MSTORE PUSH1 0x2 PUSH1 0x20 MSTORE PUSH1 0x40 SWAP1 KECCAK256 PUSH1 0x3 ADD SLOAD DUP3 GT ISZERO PUSH2 0x3402 JUMPI PUSH1 0x40 MLOAD PUSH3 0x461BCD PUSH1 0xE5 SHL DUP2 MSTORE PUSH1 0x4 ADD PUSH2 0x119E SWAP1 PUSH2 0x6A40 JUMP JUMPDEST PUSH1 0x40 MLOAD PUSH4 0x402D267D PUSH1 0xE0 SHL DUP2 MSTORE PUSH1 0x0 SWAP1 PUSH1 0x1 PUSH1 0x1 PUSH1 0xA0 SHL SUB DUP8 AND SWAP1 PUSH4 0x402D267D SWAP1 PUSH2 0x3431 SWAP1 ADDRESS SWAP1 PUSH1 0x4 ADD PUSH2 0x575A JUMP JUMPDEST PUSH1 0x20 PUSH1 0x40 MLOAD DUP1 DUP4 SUB DUP2 DUP7 GAS STATICCALL ISZERO DUP1 ISZERO PUSH2 0x344E JUMPI RETURNDATASIZE PUSH1 0x0 DUP1 RETURNDATACOPY RETURNDATASIZE PUSH1 0x0 REVERT JUMPDEST POP POP POP POP PUSH1 0x40 MLOAD RETURNDATASIZE PUSH1 0x1F NOT PUSH1 0x1F DUP3 ADD AND DUP3 ADD DUP1 PUSH1 0x40 MSTORE POP DUP2 ADD SWAP1 PUSH2 0x3472 SWAP2 SWAP1 PUSH2 0x6067 JUMP JUMPDEST SWAP1 POP PUSH1 0x0 DUP2 GT PUSH2 0x3494 JUMPI PUSH1 0x40 MLOAD PUSH3 0x461BCD PUSH1 0xE5 SHL DUP2 MSTORE PUSH1 0x4 ADD PUSH2 0x119E SWAP1 PUSH2 0x6A79 JUMP JUMPDEST PUSH1 0x0 PUSH2 0x34A0 DUP4 DUP6 PUSH2 0x611D JUMP JUMPDEST SWAP1 POP DUP2 DUP2 GT ISZERO PUSH2 0x34AD JUMPI POP DUP1 JUMPDEST PUSH1 0xA SLOAD PUSH1 0x9 SLOAD GT PUSH2 0x34D0 JUMPI PUSH1 0x40 MLOAD PUSH3 0x461BCD PUSH1 0xE5 SHL DUP2 MSTORE PUSH1 0x4 ADD PUSH2 0x119E SWAP1 PUSH2 0x6AB3 JUMP JUMPDEST PUSH1 0x0 PUSH1 0xA SLOAD PUSH1 0x9 SLOAD PUSH2 0x34E2 SWAP2 SWAP1 PUSH2 0x611D JUMP JUMPDEST SWAP1 POP DUP1 DUP3 GT ISZERO PUSH2 0x34F0 JUMPI DUP1 SWAP2 POP JUMPDEST DUP2 ISZERO PUSH2 0x3730 JUMPI PUSH2 0x3521 PUSH32 0x0 DUP10 DUP5 PUSH2 0x4B48 JUMP JUMPDEST PUSH1 0x40 MLOAD PUSH4 0x70A08231 PUSH1 0xE0 SHL DUP2 MSTORE PUSH1 0x0 SWAP1 PUSH1 0x1 PUSH1 0x1 PUSH1 0xA0 SHL SUB PUSH32 0x0 AND SWAP1 PUSH4 0x70A08231 SWAP1 PUSH2 0x3570 SWAP1 ADDRESS SWAP1 PUSH1 0x4 ADD PUSH2 0x575A JUMP JUMPDEST PUSH1 0x20 PUSH1 0x40 MLOAD DUP1 DUP4 SUB DUP2 DUP7 GAS STATICCALL ISZERO DUP1 ISZERO PUSH2 0x358D JUMPI RETURNDATASIZE PUSH1 0x0 DUP1 RETURNDATACOPY RETURNDATASIZE PUSH1 0x0 REVERT JUMPDEST POP POP POP POP PUSH1 0x40 MLOAD RETURNDATASIZE PUSH1 0x1F NOT PUSH1 0x1F DUP3 ADD AND DUP3 ADD DUP1 PUSH1 0x40 MSTORE POP DUP2 ADD SWAP1 PUSH2 0x35B1 SWAP2 SWAP1 PUSH2 0x6067 JUMP JUMPDEST PUSH1 0x40 MLOAD PUSH4 0x6E553F65 PUSH1 0xE0 SHL DUP2 MSTORE SWAP1 SWAP2 POP PUSH1 0x1 PUSH1 0x1 PUSH1 0xA0 SHL SUB DUP11 AND SWAP1 PUSH4 0x6E553F65 SWAP1 PUSH2 0x35E2 SWAP1 DUP7 SWAP1 ADDRESS SWAP1 PUSH1 0x4 ADD PUSH2 0x6AC3 JUMP JUMPDEST PUSH1 0x20 PUSH1 0x40 MLOAD DUP1 DUP4 SUB DUP2 PUSH1 0x0 DUP8 GAS CALL ISZERO DUP1 ISZERO PUSH2 0x3601 JUMPI RETURNDATASIZE PUSH1 0x0 DUP1 RETURNDATACOPY RETURNDATASIZE PUSH1 0x0 REVERT JUMPDEST POP POP POP POP PUSH1 0x40 MLOAD RETURNDATASIZE PUSH1 0x1F NOT PUSH1 0x1F DUP3 ADD AND DUP3 ADD DUP1 PUSH1 0x40 MSTORE POP DUP2 ADD SWAP1 PUSH2 0x3625 SWAP2 SWAP1 PUSH2 0x6067 JUMP JUMPDEST POP PUSH1 0x40 MLOAD PUSH4 0x70A08231 PUSH1 0xE0 SHL DUP2 MSTORE PUSH1 0x0 SWAP1 PUSH1 0x1 PUSH1 0x1 PUSH1 0xA0 SHL SUB PUSH32 0x0 AND SWAP1 PUSH4 0x70A08231 SWAP1 PUSH2 0x3675 SWAP1 ADDRESS SWAP1 PUSH1 0x4 ADD PUSH2 0x575A JUMP JUMPDEST PUSH1 0x20 PUSH1 0x40 MLOAD DUP1 DUP4 SUB DUP2 DUP7 GAS STATICCALL ISZERO DUP1 ISZERO PUSH2 0x3692 JUMPI RETURNDATASIZE PUSH1 0x0 DUP1 RETURNDATACOPY RETURNDATASIZE PUSH1 0x0 REVERT JUMPDEST POP POP POP POP PUSH1 0x40 MLOAD RETURNDATASIZE PUSH1 0x1F NOT PUSH1 0x1F DUP3 ADD AND DUP3 ADD DUP1 PUSH1 0x40 MSTORE POP DUP2 ADD SWAP1 PUSH2 0x36B6 SWAP2 SWAP1 PUSH2 0x6067 JUMP JUMPDEST SWAP1 POP PUSH2 0x36E4 PUSH32 0x0 DUP12 PUSH1 0x0 PUSH2 0x4B48 JUMP JUMPDEST PUSH2 0x36EE DUP2 DUP4 PUSH2 0x611D JUMP JUMPDEST SWAP4 POP DUP4 PUSH1 0x9 PUSH1 0x0 DUP3 DUP3 SLOAD PUSH2 0x3702 SWAP2 SWAP1 PUSH2 0x611D JUMP JUMPDEST SWAP3 POP POP DUP2 SWAP1 SSTORE POP DUP4 PUSH1 0x8 PUSH1 0x0 DUP3 DUP3 SLOAD PUSH2 0x371B SWAP2 SWAP1 PUSH2 0x6130 JUMP JUMPDEST SWAP1 SWAP2 SSTORE POP PUSH2 0x372B SWAP1 POP DUP5 DUP8 PUSH2 0x6130 JUMP JUMPDEST SWAP7 POP POP POP JUMPDEST POP POP POP JUMPDEST PUSH1 0x1 PUSH1 0x1 PUSH1 0xA0 SHL SUB DUP6 AND PUSH1 0x0 DUP2 DUP2 MSTORE PUSH1 0x2 PUSH1 0x20 DUP2 SWAP1 MSTORE PUSH1 0x40 SWAP2 DUP3 SWAP1 KECCAK256 ADD DUP5 SWAP1 SSTORE MLOAD PUSH1 0x0 DUP1 MLOAD PUSH1 0x20 PUSH2 0x72FB DUP4 CODECOPY DUP2 MLOAD SWAP2 MSTORE SWAP1 PUSH2 0x3772 SWAP1 DUP5 SWAP1 DUP7 SWAP1 PUSH2 0x5D7B JUMP JUMPDEST PUSH1 0x40 MLOAD DUP1 SWAP2 SUB SWAP1 LOG2 POP SWAP4 SWAP3 POP POP POP JUMP JUMPDEST PUSH1 0x1 PUSH1 0x1 PUSH1 0xA0 SHL SUB DUP3 AND PUSH1 0x0 DUP2 DUP2 MSTORE PUSH1 0x2 PUSH1 0x20 DUP2 SWAP1 MSTORE PUSH1 0x40 DUP1 DUP4 KECCAK256 SWAP1 SWAP2 ADD SLOAD SWAP1 MLOAD PUSH4 0x70A08231 PUSH1 0xE0 SHL DUP2 MSTORE SWAP2 SWAP3 SWAP1 SWAP2 DUP4 SWAP2 SWAP1 PUSH4 0x70A08231 SWAP1 PUSH2 0x37C8 SWAP1 ADDRESS SWAP1 PUSH1 0x4 ADD PUSH2 0x575A JUMP JUMPDEST PUSH1 0x20 PUSH1 0x40 MLOAD DUP1 DUP4 SUB DUP2 DUP7 GAS STATICCALL ISZERO DUP1 ISZERO PUSH2 0x37E5 JUMPI RETURNDATASIZE PUSH1 0x0 DUP1 RETURNDATACOPY RETURNDATASIZE PUSH1 0x0 REVERT JUMPDEST POP POP POP POP PUSH1 0x40 MLOAD RETURNDATASIZE PUSH1 0x1F NOT PUSH1 0x1F DUP3 ADD AND DUP3 ADD DUP1 PUSH1 0x40 MSTORE POP DUP2 ADD SWAP1 PUSH2 0x3809 SWAP2 SWAP1 PUSH2 0x6067 JUMP JUMPDEST SWAP1 POP PUSH1 0x0 DUP6 PUSH1 0x1 PUSH1 0x1 PUSH1 0xA0 SHL SUB AND PUSH4 0x7A2D13A DUP4 PUSH1 0x40 MLOAD DUP3 PUSH4 0xFFFFFFFF AND PUSH1 0xE0 SHL DUP2 MSTORE PUSH1 0x4 ADD PUSH2 0x3839 SWAP2 SWAP1 PUSH2 0x576E JUMP JUMPDEST PUSH1 0x20 PUSH1 0x40 MLOAD DUP1 DUP4 SUB DUP2 DUP7 GAS STATICCALL ISZERO DUP1 ISZERO PUSH2 0x3856 JUMPI RETURNDATASIZE PUSH1 0x0 DUP1 RETURNDATACOPY RETURNDATASIZE PUSH1 0x0 REVERT JUMPDEST POP POP POP POP PUSH1 0x40 MLOAD RETURNDATASIZE PUSH1 0x1F NOT PUSH1 0x1F DUP3 ADD AND DUP3 ADD DUP1 PUSH1 0x40 MSTORE POP DUP2 ADD SWAP1 PUSH2 0x387A SWAP2 SWAP1 PUSH2 0x6067 JUMP JUMPDEST SWAP1 POP DUP3 DUP2 LT ISZERO DUP1 PUSH2 0x3889 JUMPI POP DUP3 ISZERO JUMPDEST ISZERO PUSH2 0x389A JUMPI PUSH1 0x0 SWAP4 POP POP POP POP PUSH2 0xFEA JUMP JUMPDEST PUSH1 0x0 PUSH2 0x38A6 DUP3 DUP8 PUSH2 0x609E JUMP JUMPDEST SWAP1 POP PUSH1 0x0 PUSH2 0x38B4 DUP6 DUP4 PUSH2 0x60D3 JUMP JUMPDEST PUSH2 0x38BE SWAP1 DUP9 PUSH2 0x611D JUMP JUMPDEST SWAP1 POP PUSH2 0x38CA DUP6 DUP4 PUSH2 0x6528 JUMP JUMPDEST ISZERO PUSH2 0x1D98 JUMPI PUSH2 0x1D95 PUSH1 0x1 DUP3 PUSH2 0x6130 JUMP JUMPDEST PUSH1 0x15 SLOAD PUSH1 0x0 SWAP1 PUSH1 0xFF AND ISZERO PUSH2 0x3900 JUMPI PUSH1 0x40 MLOAD PUSH3 0x461BCD PUSH1 0xE5 SHL DUP2 MSTORE PUSH1 0x4 ADD PUSH2 0x119E SWAP1 PUSH2 0x6AFD JUMP JUMPDEST PUSH2 0x3909 DUP4 PUSH2 0x2D9C JUMP JUMPDEST DUP3 GT ISZERO PUSH2 0x3928 JUMPI PUSH1 0x40 MLOAD PUSH3 0x461BCD PUSH1 0xE5 SHL DUP2 MSTORE PUSH1 0x4 ADD PUSH2 0x119E SWAP1 PUSH2 0x6B38 JUMP JUMPDEST PUSH1 0x40 MLOAD PUSH4 0x23B872DD PUSH1 0xE0 SHL DUP2 MSTORE PUSH1 0x1 PUSH1 0x1 PUSH1 0xA0 SHL SUB PUSH32 0x0 AND SWAP1 PUSH4 0x23B872DD SWAP1 PUSH2 0x3978 SWAP1 CALLER SWAP1 ADDRESS SWAP1 DUP8 SWAP1 PUSH1 0x4 ADD PUSH2 0x68B4 JUMP JUMPDEST PUSH1 0x20 PUSH1 0x40 MLOAD DUP1 DUP4 SUB DUP2 PUSH1 0x0 DUP8 GAS CALL ISZERO DUP1 ISZERO PUSH2 0x3997 JUMPI RETURNDATASIZE PUSH1 0x0 DUP1 RETURNDATACOPY RETURNDATASIZE PUSH1 0x0 REVERT JUMPDEST POP POP POP POP PUSH1 0x40 MLOAD RETURNDATASIZE PUSH1 0x1F NOT PUSH1 0x1F DUP3 ADD AND DUP3 ADD DUP1 PUSH1 0x40 MSTORE POP DUP2 ADD SWAP1 PUSH2 0x39BB SWAP2 SWAP1 PUSH2 0x68E7 JUMP JUMPDEST POP DUP2 PUSH1 0x9 PUSH1 0x0 DUP3 DUP3 SLOAD PUSH2 0x39CE SWAP2 SWAP1 PUSH2 0x6130 JUMP JUMPDEST SWAP1 SWAP2 SSTORE POP PUSH1 0x0 SWAP1 POP PUSH2 0x39E0 DUP4 DUP6 PUSH2 0x4C27 JUMP JUMPDEST SWAP1 POP PUSH1 0x0 DUP2 GT PUSH2 0x3A02 JUMPI PUSH1 0x40 MLOAD PUSH3 0x461BCD PUSH1 0xE5 SHL DUP2 MSTORE PUSH1 0x4 ADD PUSH2 0x119E SWAP1 PUSH2 0x6B6F JUMP JUMPDEST DUP4 PUSH1 0x1 PUSH1 0x1 PUSH1 0xA0 SHL SUB AND DUP6 PUSH1 0x1 PUSH1 0x1 PUSH1 0xA0 SHL SUB AND PUSH32 0xDCBC1C05240F31FF3AD067EF1EE35CE4997762752E3A095284754544F4C709D7 DUP6 DUP5 PUSH1 0x40 MLOAD PUSH2 0x3A47 SWAP3 SWAP2 SWAP1 PUSH2 0x5D7B JUMP JUMPDEST PUSH1 0x40 MLOAD DUP1 SWAP2 SUB SWAP1 LOG3 SWAP5 SWAP4 POP POP POP POP JUMP JUMPDEST PUSH1 0x17 SLOAD PUSH1 0x0 SWAP1 DUP2 TIMESTAMP DUP3 GT ISZERO PUSH2 0x3A98 JUMPI PUSH5 0xE8D4A51000 PUSH1 0x19 SLOAD TIMESTAMP PUSH2 0x3A7A SWAP2 SWAP1 PUSH2 0x611D JUMP JUMPDEST PUSH1 0x18 SLOAD PUSH2 0x3A87 SWAP2 SWAP1 PUSH2 0x609E JUMP JUMPDEST PUSH2 0x3A91 SWAP2 SWAP1 PUSH2 0x60D3 JUMP JUMPDEST SWAP1 POP PUSH2 0xFEA JUMP JUMPDEST DUP2 ISZERO PUSH2 0xFEA JUMPI POP ADDRESS PUSH1 0x0 SWAP1 DUP2 MSTORE PUSH1 0x5 PUSH1 0x20 MSTORE PUSH1 0x40 SWAP1 KECCAK256 SLOAD SWAP3 SWAP2 POP POP JUMP JUMPDEST PUSH1 0x15 SLOAD PUSH1 0x0 SWAP1 PUSH1 0xFF AND ISZERO PUSH2 0x3ADB JUMPI PUSH1 0x40 MLOAD PUSH3 0x461BCD PUSH1 0xE5 SHL DUP2 MSTORE PUSH1 0x4 ADD PUSH2 0x119E SWAP1 PUSH2 0x6AFD JUMP JUMPDEST PUSH1 0x0 PUSH2 0x3AE8 DUP4 PUSH1 0x1 PUSH2 0x2152 JUMP JUMPDEST SWAP1 POP PUSH1 0x0 DUP2 GT PUSH2 0x3B0A JUMPI PUSH1 0x40 MLOAD PUSH3 0x461BCD PUSH1 0xE5 SHL DUP2 MSTORE PUSH1 0x4 ADD PUSH2 0x119E SWAP1 PUSH2 0x6BA9 JUMP JUMPDEST PUSH2 0x3B13 DUP5 PUSH2 0x2D9C JUMP JUMPDEST DUP2 GT ISZERO PUSH2 0x3B32 JUMPI PUSH1 0x40 MLOAD PUSH3 0x461BCD PUSH1 0xE5 SHL DUP2 MSTORE PUSH1 0x4 ADD PUSH2 0x119E SWAP1 PUSH2 0x6B38 JUMP JUMPDEST PUSH1 0x40 MLOAD PUSH4 0x23B872DD PUSH1 0xE0 SHL DUP2 MSTORE PUSH1 0x1 PUSH1 0x1 PUSH1 0xA0 SHL SUB PUSH32 0x0 AND SWAP1 PUSH4 0x23B872DD SWAP1 PUSH2 0x3B82 SWAP1 CALLER SWAP1 ADDRESS SWAP1 DUP7 SWAP1 PUSH1 0x4 ADD PUSH2 0x68B4 JUMP JUMPDEST PUSH1 0x20 PUSH1 0x40 MLOAD DUP1 DUP4 SUB DUP2 PUSH1 0x0 DUP8 GAS CALL ISZERO DUP1 ISZERO PUSH2 0x3BA1 JUMPI RETURNDATASIZE PUSH1 0x0 DUP1 RETURNDATACOPY RETURNDATASIZE PUSH1 0x0 REVERT JUMPDEST POP POP POP POP PUSH1 0x40 MLOAD RETURNDATASIZE PUSH1 0x1F NOT PUSH1 0x1F DUP3 ADD AND DUP3 ADD DUP1 PUSH1 0x40 MSTORE POP DUP2 ADD SWAP1 PUSH2 0x3BC5 SWAP2 SWAP1 PUSH2 0x68E7 JUMP JUMPDEST POP DUP1 PUSH1 0x9 PUSH1 0x0 DUP3 DUP3 SLOAD PUSH2 0x3BD8 SWAP2 SWAP1 PUSH2 0x6130 JUMP JUMPDEST SWAP1 SWAP2 SSTORE POP PUSH2 0x3BE8 SWAP1 POP DUP4 DUP6 PUSH2 0x4CD7 JUMP JUMPDEST DUP4 PUSH1 0x1 PUSH1 0x1 PUSH1 0xA0 SHL SUB AND DUP6 PUSH1 0x1 PUSH1 0x1 PUSH1 0xA0 SHL SUB AND PUSH32 0xDCBC1C05240F31FF3AD067EF1EE35CE4997762752E3A095284754544F4C709D7 DUP4 DUP7 PUSH1 0x40 MLOAD PUSH2 0x3A47 SWAP3 SWAP2 SWAP1 PUSH2 0x5D7B JUMP JUMPDEST PUSH1 0x1 PUSH1 0x1 PUSH1 0xA0 SHL SUB DUP1 DUP5 AND PUSH1 0x0 SWAP1 DUP2 MSTORE PUSH1 0x6 PUSH1 0x20 SWAP1 DUP2 MSTORE PUSH1 0x40 DUP1 DUP4 KECCAK256 SWAP4 DUP7 AND DUP4 MSTORE SWAP3 SWAP1 MSTORE SWAP1 DUP2 KECCAK256 SLOAD DUP2 SWAP1 PUSH2 0x2D83 SWAP1 DUP5 PUSH2 0x4D6F JUMP JUMPDEST PUSH1 0x1 PUSH1 0x1 PUSH1 0xA0 SHL SUB DUP4 AND PUSH1 0x0 SWAP1 DUP2 MSTORE PUSH1 0x5 PUSH1 0x20 MSTORE PUSH1 0x40 SWAP1 KECCAK256 SLOAD DUP2 DUP2 LT ISZERO PUSH2 0x3C9A JUMPI PUSH1 0x40 MLOAD PUSH3 0x461BCD PUSH1 0xE5 SHL DUP2 MSTORE PUSH1 0x4 ADD PUSH2 0x119E SWAP1 PUSH2 0x6BE2 JUMP JUMPDEST PUSH1 0x1 PUSH1 0x1 PUSH1 0xA0 SHL SUB DUP5 AND PUSH2 0x3CC0 JUMPI PUSH1 0x40 MLOAD PUSH3 0x461BCD PUSH1 0xE5 SHL DUP2 MSTORE PUSH1 0x4 ADD PUSH2 0x119E SWAP1 PUSH2 0x6C34 JUMP JUMPDEST PUSH1 0x1 PUSH1 0x1 PUSH1 0xA0 SHL SUB DUP4 AND PUSH2 0x3CE6 JUMPI PUSH1 0x40 MLOAD PUSH3 0x461BCD PUSH1 0xE5 SHL DUP2 MSTORE PUSH1 0x4 ADD PUSH2 0x119E SWAP1 PUSH2 0x6C84 JUMP JUMPDEST PUSH2 0x3CF0 DUP2 DUP4 PUSH2 0x4D6F JUMP JUMPDEST PUSH1 0x1 PUSH1 0x1 PUSH1 0xA0 SHL SUB DUP1 DUP7 AND PUSH1 0x0 SWAP1 DUP2 MSTORE PUSH1 0x5 PUSH1 0x20 MSTORE PUSH1 0x40 DUP1 DUP3 KECCAK256 SWAP4 SWAP1 SWAP4 SSTORE SWAP1 DUP6 AND DUP2 MSTORE KECCAK256 SLOAD PUSH2 0x3D1F DUP2 DUP5 PUSH2 0x49E2 JUMP JUMPDEST PUSH1 0x1 PUSH1 0x1 PUSH1 0xA0 SHL SUB DUP1 DUP7 AND PUSH1 0x0 DUP2 DUP2 MSTORE PUSH1 0x5 PUSH1 0x20 MSTORE PUSH1 0x40 SWAP1 DUP2 SWAP1 KECCAK256 SWAP4 SWAP1 SWAP4 SSTORE SWAP2 MLOAD SWAP1 DUP8 AND SWAP1 PUSH1 0x0 DUP1 MLOAD PUSH1 0x20 PUSH2 0x72DB DUP4 CODECOPY DUP2 MLOAD SWAP2 MSTORE SWAP1 PUSH2 0x3D5F SWAP1 DUP8 SWAP1 PUSH2 0x576E JUMP JUMPDEST PUSH1 0x40 MLOAD DUP1 SWAP2 SUB SWAP1 LOG3 POP POP POP POP POP JUMP JUMPDEST PUSH1 0x1 PUSH1 0x1 PUSH1 0xA0 SHL SUB DUP2 AND PUSH1 0x0 SWAP1 DUP2 MSTORE PUSH1 0x2 PUSH1 0x20 MSTORE PUSH1 0x40 DUP2 KECCAK256 SLOAD DUP2 SWAP1 DUP2 SUB PUSH2 0x3DA7 JUMPI PUSH1 0x40 MLOAD PUSH3 0x461BCD PUSH1 0xE5 SHL DUP2 MSTORE PUSH1 0x4 ADD PUSH2 0x119E SWAP1 PUSH2 0x64D4 JUMP JUMPDEST PUSH2 0x3DAF PUSH2 0x4D7B JUMP JUMPDEST PUSH1 0x0 DUP1 PUSH2 0x3DBB DUP6 PUSH2 0x4DAB JUMP JUMPDEST SWAP2 POP SWAP2 POP PUSH1 0x0 PUSH2 0x3DCC DUP7 DUP5 DUP5 PUSH2 0x4EE1 JUMP JUMPDEST SWAP1 POP PUSH1 0x0 PUSH2 0x3DE3 DUP4 DUP4 PUSH1 0x0 ADD MLOAD DUP5 PUSH1 0x40 ADD MLOAD PUSH2 0x504F JUMP JUMPDEST SWAP1 POP PUSH1 0x0 DUP1 PUSH2 0x3DF5 DUP4 DUP6 DUP9 DUP9 DUP14 PUSH2 0x510C JUMP JUMPDEST SWAP2 POP SWAP2 POP PUSH2 0x3E09 DUP7 DUP6 PUSH1 0x20 ADD MLOAD DUP5 DUP5 PUSH2 0x541C JUMP JUMPDEST PUSH1 0x1 PUSH1 0x1 PUSH1 0xA0 SHL SUB DUP10 AND PUSH1 0x0 DUP2 DUP2 MSTORE PUSH1 0x2 PUSH1 0x20 DUP2 SWAP1 MSTORE PUSH1 0x40 DUP1 DUP4 KECCAK256 TIMESTAMP PUSH1 0x1 DUP3 ADD SSTORE SWAP1 SWAP2 ADD SLOAD SWAP1 DUP7 ADD MLOAD PUSH32 0x7F2AD1D3BA35276F35EF140F83E3E0F17B23064FD710113D3F7A5AB30D267811 SWAP3 DUP11 SWAP3 DUP11 SWAP3 SWAP1 SWAP2 PUSH2 0x3E64 SWAP2 SWAP1 PUSH2 0x2152 JUMP JUMPDEST PUSH2 0x3E7B DUP10 PUSH1 0x20 ADD MLOAD DUP11 PUSH1 0x40 ADD MLOAD PUSH2 0x1AF3 SWAP2 SWAP1 PUSH2 0x6130 JUMP JUMPDEST DUP11 PUSH1 0x20 ADD MLOAD PUSH1 0x40 MLOAD PUSH2 0x3E92 SWAP7 SWAP6 SWAP5 SWAP4 SWAP3 SWAP2 SWAP1 PUSH2 0x6C94 JUMP JUMPDEST PUSH1 0x40 MLOAD DUP1 SWAP2 SUB SWAP1 LOG2 POP SWAP4 SWAP8 SWAP3 SWAP7 POP SWAP2 SWAP5 POP POP POP POP POP JUMP JUMPDEST PUSH1 0x0 PUSH1 0x1 PUSH1 0x1 PUSH1 0xA0 SHL SUB DUP9 AND PUSH2 0x3ED1 JUMPI PUSH1 0x40 MLOAD PUSH3 0x461BCD PUSH1 0xE5 SHL DUP2 MSTORE PUSH1 0x4 ADD PUSH2 0x119E SWAP1 PUSH2 0x6D17 JUMP JUMPDEST TIMESTAMP DUP6 LT ISZERO PUSH2 0x3EF1 JUMPI PUSH1 0x40 MLOAD PUSH3 0x461BCD PUSH1 0xE5 SHL DUP2 MSTORE PUSH1 0x4 ADD PUSH2 0x119E SWAP1 PUSH2 0x6D5B JUMP JUMPDEST PUSH1 0x1 PUSH1 0x1 PUSH1 0xA0 SHL SUB DUP9 AND PUSH1 0x0 SWAP1 DUP2 MSTORE PUSH1 0x1A PUSH1 0x20 SWAP1 DUP2 MSTORE PUSH1 0x40 DUP1 DUP4 KECCAK256 SLOAD SWAP1 MLOAD SWAP1 SWAP3 SWAP2 PUSH2 0x3F48 SWAP2 PUSH32 0x6E71EDAE12B1B97F4D1F60370FEF10105FA2FAAE0126114A169C64845D6126C9 SWAP2 DUP14 SWAP2 DUP14 SWAP2 DUP14 SWAP2 DUP9 SWAP2 DUP15 SWAP2 ADD PUSH2 0x6D6B JUMP JUMPDEST PUSH1 0x40 MLOAD PUSH1 0x20 DUP2 DUP4 SUB SUB DUP2 MSTORE SWAP1 PUSH1 0x40 MSTORE DUP1 MLOAD SWAP1 PUSH1 0x20 ADD KECCAK256 SWAP1 POP PUSH1 0x0 PUSH1 0x1B SLOAD DUP3 PUSH1 0x40 MLOAD PUSH1 0x20 ADD PUSH2 0x3F77 SWAP3 SWAP2 SWAP1 PUSH2 0x6D93 JUMP JUMPDEST PUSH1 0x40 MLOAD PUSH1 0x20 DUP2 DUP4 SUB SUB DUP2 MSTORE SWAP1 PUSH1 0x40 MSTORE DUP1 MLOAD SWAP1 PUSH1 0x20 ADD KECCAK256 SWAP1 POP PUSH1 0x0 PUSH1 0x1 DUP3 DUP10 DUP10 DUP10 PUSH1 0x40 MLOAD PUSH1 0x0 DUP2 MSTORE PUSH1 0x20 ADD PUSH1 0x40 MSTORE PUSH1 0x40 MLOAD PUSH2 0x3FB4 SWAP5 SWAP4 SWAP3 SWAP2 SWAP1 PUSH2 0x6DC4 JUMP JUMPDEST PUSH1 0x20 PUSH1 0x40 MLOAD PUSH1 0x20 DUP2 SUB SWAP1 DUP1 DUP5 SUB SWAP1 DUP6 GAS STATICCALL ISZERO DUP1 ISZERO PUSH2 0x3FD6 JUMPI RETURNDATASIZE PUSH1 0x0 DUP1 RETURNDATACOPY RETURNDATASIZE PUSH1 0x0 REVERT JUMPDEST POP POP PUSH1 0x40 MLOAD PUSH1 0x1F NOT ADD MLOAD SWAP2 POP POP PUSH1 0x1 PUSH1 0x1 PUSH1 0xA0 SHL SUB DUP2 AND ISZERO DUP1 ISZERO SWAP1 PUSH2 0x400C JUMPI POP DUP12 PUSH1 0x1 PUSH1 0x1 PUSH1 0xA0 SHL SUB AND DUP2 PUSH1 0x1 PUSH1 0x1 PUSH1 0xA0 SHL SUB AND EQ JUMPDEST PUSH2 0x4028 JUMPI PUSH1 0x40 MLOAD PUSH3 0x461BCD PUSH1 0xE5 SHL DUP2 MSTORE PUSH1 0x4 ADD PUSH2 0x119E SWAP1 PUSH2 0x6E13 JUMP JUMPDEST PUSH2 0x4033 DUP13 DUP13 DUP13 PUSH2 0x228D JUMP JUMPDEST POP PUSH1 0x1 PUSH1 0x1 PUSH1 0xA0 SHL SUB DUP13 AND PUSH1 0x0 SWAP1 DUP2 MSTORE PUSH1 0x1A PUSH1 0x20 MSTORE PUSH1 0x40 DUP2 KECCAK256 DUP1 SLOAD SWAP2 PUSH2 0x4058 DUP4 PUSH2 0x61E7 JUMP JUMPDEST SWAP2 SWAP1 POP SSTORE POP DUP11 PUSH1 0x1 PUSH1 0x1 PUSH1 0xA0 SHL SUB AND DUP13 PUSH1 0x1 PUSH1 0x1 PUSH1 0xA0 SHL SUB AND PUSH32 0x8C5BE1E5EBEC7D5BD14F71427D1E84F3DD0314C0F7B2291E5B200AC8C7C3B925 DUP13 PUSH1 0x40 MLOAD PUSH2 0x40A0 SWAP2 SWAP1 PUSH2 0x576E JUMP JUMPDEST PUSH1 0x40 MLOAD DUP1 SWAP2 SUB SWAP1 LOG3 POP PUSH1 0x1 SWAP12 SWAP11 POP POP POP POP POP POP POP POP POP POP POP JUMP JUMPDEST PUSH1 0x1 PUSH1 0x1 PUSH1 0xA0 SHL SUB DUP2 AND PUSH1 0x0 SWAP1 DUP2 MSTORE PUSH1 0x5 PUSH1 0x20 MSTORE PUSH1 0x40 SWAP1 KECCAK256 SLOAD DUP3 GT ISZERO PUSH2 0x40F2 JUMPI PUSH1 0x40 MLOAD PUSH3 0x461BCD PUSH1 0xE5 SHL DUP2 MSTORE PUSH1 0x4 ADD PUSH2 0x119E SWAP1 PUSH2 0x6E4D JUMP JUMPDEST PUSH1 0x1 PUSH1 0x1 PUSH1 0xA0 SHL SUB DUP2 AND PUSH1 0x0 SWAP1 DUP2 MSTORE PUSH1 0x5 PUSH1 0x20 MSTORE PUSH1 0x40 DUP2 KECCAK256 DUP1 SLOAD DUP5 SWAP3 SWAP1 PUSH2 0x411A SWAP1 DUP5 SWAP1 PUSH2 0x611D JUMP JUMPDEST SWAP3 POP POP DUP2 SWAP1 SSTORE POP DUP2 PUSH1 0x7 PUSH1 0x0 DUP3 DUP3 SLOAD PUSH2 0x4133 SWAP2 SWAP1 PUSH2 0x611D JUMP JUMPDEST SWAP1 SWAP2 SSTORE POP POP PUSH1 0x40 MLOAD PUSH1 0x0 SWAP1 PUSH1 0x1 PUSH1 0x1 PUSH1 0xA0 SHL SUB DUP4 AND SWAP1 PUSH1 0x0 DUP1 MLOAD PUSH1 0x20 PUSH2 0x72DB DUP4 CODECOPY DUP2 MLOAD SWAP2 MSTORE SWAP1 PUSH2 0x4164 SWAP1 DUP7 SWAP1 PUSH2 0x576E JUMP JUMPDEST PUSH1 0x40 MLOAD DUP1 SWAP2 SUB SWAP1 LOG3 POP POP JUMP JUMPDEST PUSH1 0x1 PUSH1 0x1 PUSH1 0xA0 SHL SUB DUP7 AND PUSH2 0x4196 JUMPI PUSH1 0x40 MLOAD PUSH3 0x461BCD PUSH1 0xE5 SHL DUP2 MSTORE PUSH1 0x4 ADD PUSH2 0x119E SWAP1 PUSH2 0x6E80 JUMP JUMPDEST PUSH2 0x2710 DUP3 GT ISZERO PUSH2 0x41B8 JUMPI PUSH1 0x40 MLOAD PUSH3 0x461BCD PUSH1 0xE5 SHL DUP2 MSTORE PUSH1 0x4 ADD PUSH2 0x119E SWAP1 PUSH2 0x6EAF JUMP JUMPDEST PUSH1 0x0 DUP4 GT PUSH2 0x41D8 JUMPI PUSH1 0x40 MLOAD PUSH3 0x461BCD PUSH1 0xE5 SHL DUP2 MSTORE PUSH1 0x4 ADD PUSH2 0x119E SWAP1 PUSH2 0x6EE9 JUMP JUMPDEST PUSH1 0x1 PUSH1 0x1 PUSH1 0xA0 SHL SUB DUP6 AND PUSH1 0x0 SWAP1 DUP2 MSTORE PUSH1 0x5 PUSH1 0x20 MSTORE PUSH1 0x40 SWAP1 KECCAK256 SLOAD DUP4 GT ISZERO PUSH2 0x4210 JUMPI PUSH1 0x40 MLOAD PUSH3 0x461BCD PUSH1 0xE5 SHL DUP2 MSTORE PUSH1 0x4 ADD PUSH2 0x119E SWAP1 PUSH2 0x6F23 JUMP JUMPDEST POP POP POP POP POP POP POP JUMP JUMPDEST DUP3 PUSH1 0x1 PUSH1 0x1 PUSH1 0xA0 SHL SUB AND DUP3 PUSH1 0x1 PUSH1 0x1 PUSH1 0xA0 SHL SUB AND EQ PUSH2 0x12EA JUMPI PUSH2 0x12EA DUP4 DUP4 DUP4 PUSH2 0x4988 JUMP JUMPDEST PUSH1 0x0 DUP1 PUSH1 0x0 PUSH1 0x40 MLOAD DUP1 PUSH1 0xC0 ADD PUSH1 0x40 MSTORE DUP1 DUP7 DUP2 MSTORE PUSH1 0x20 ADD PUSH1 0x9 SLOAD DUP2 MSTORE PUSH1 0x20 ADD PUSH1 0x8 SLOAD DUP2 MSTORE PUSH1 0x20 ADD PUSH1 0x0 DUP2 MSTORE PUSH1 0x20 ADD PUSH32 0x0 PUSH1 0x1 PUSH1 0x1 PUSH1 0xA0 SHL SUB AND PUSH4 0x70A08231 ADDRESS PUSH1 0x40 MLOAD DUP3 PUSH4 0xFFFFFFFF AND PUSH1 0xE0 SHL DUP2 MSTORE PUSH1 0x4 ADD PUSH2 0x42B6 SWAP2 SWAP1 PUSH2 0x575A JUMP JUMPDEST PUSH1 0x20 PUSH1 0x40 MLOAD DUP1 DUP4 SUB DUP2 DUP7 GAS STATICCALL ISZERO DUP1 ISZERO PUSH2 0x42D3 JUMPI RETURNDATASIZE PUSH1 0x0 DUP1 RETURNDATACOPY RETURNDATASIZE PUSH1 0x0 REVERT JUMPDEST POP POP POP POP PUSH1 0x40 MLOAD RETURNDATASIZE PUSH1 0x1F NOT PUSH1 0x1F DUP3 ADD AND DUP3 ADD DUP1 PUSH1 0x40 MSTORE POP DUP2 ADD SWAP1 PUSH2 0x42F7 SWAP2 SWAP1 PUSH2 0x6067 JUMP JUMPDEST DUP2 MSTORE PUSH1 0x0 PUSH1 0x20 SWAP2 DUP3 ADD MSTORE DUP2 ADD MLOAD DUP2 MLOAD SWAP2 SWAP3 POP LT ISZERO PUSH2 0x487A JUMPI PUSH1 0x0 DUP5 MLOAD PUSH1 0x0 EQ ISZERO DUP1 ISZERO PUSH2 0x4326 JUMPI POP PUSH1 0x4 SLOAD PUSH1 0xFF AND ISZERO JUMPDEST PUSH2 0x438A JUMPI PUSH1 0x3 DUP1 SLOAD DUP1 PUSH1 0x20 MUL PUSH1 0x20 ADD PUSH1 0x40 MLOAD SWAP1 DUP2 ADD PUSH1 0x40 MSTORE DUP1 SWAP3 SWAP2 SWAP1 DUP2 DUP2 MSTORE PUSH1 0x20 ADD DUP3 DUP1 SLOAD DUP1 ISZERO PUSH2 0x4380 JUMPI PUSH1 0x20 MUL DUP3 ADD SWAP2 SWAP1 PUSH1 0x0 MSTORE PUSH1 0x20 PUSH1 0x0 KECCAK256 SWAP1 JUMPDEST DUP2 SLOAD PUSH1 0x1 PUSH1 0x1 PUSH1 0xA0 SHL SUB AND DUP2 MSTORE PUSH1 0x1 SWAP1 SWAP2 ADD SWAP1 PUSH1 0x20 ADD DUP1 DUP4 GT PUSH2 0x4362 JUMPI JUMPDEST POP POP POP POP POP PUSH2 0x438C JUMP JUMPDEST DUP5 JUMPDEST PUSH1 0x20 DUP4 ADD MLOAD DUP4 MLOAD SWAP2 SWAP3 POP PUSH2 0x439F SWAP2 PUSH2 0x611D JUMP JUMPDEST PUSH1 0x60 DUP4 ADD MSTORE PUSH1 0x0 JUMPDEST DUP2 MLOAD DUP2 LT ISZERO PUSH2 0x484A JUMPI PUSH1 0x0 DUP3 DUP3 DUP2 MLOAD DUP2 LT PUSH2 0x43C4 JUMPI PUSH2 0x43C4 PUSH2 0x6199 JUMP JUMPDEST PUSH1 0x20 MUL PUSH1 0x20 ADD ADD MLOAD SWAP1 POP PUSH1 0x2 PUSH1 0x0 DUP3 PUSH1 0x1 PUSH1 0x1 PUSH1 0xA0 SHL SUB AND PUSH1 0x1 PUSH1 0x1 PUSH1 0xA0 SHL SUB AND DUP2 MSTORE PUSH1 0x20 ADD SWAP1 DUP2 MSTORE PUSH1 0x20 ADD PUSH1 0x0 KECCAK256 PUSH1 0x0 ADD SLOAD PUSH1 0x0 SUB PUSH2 0x4416 JUMPI PUSH1 0x40 MLOAD PUSH3 0x461BCD PUSH1 0xE5 SHL DUP2 MSTORE PUSH1 0x4 ADD PUSH2 0x119E SWAP1 PUSH2 0x64D4 JUMP JUMPDEST PUSH1 0x1 PUSH1 0x1 PUSH1 0xA0 SHL SUB DUP2 AND PUSH1 0x0 SWAP1 DUP2 MSTORE PUSH1 0x2 PUSH1 0x20 DUP2 SWAP1 MSTORE PUSH1 0x40 DUP3 KECCAK256 ADD SLOAD PUSH1 0x60 DUP7 ADD MLOAD SWAP1 SWAP2 SWAP1 PUSH2 0x4444 SWAP1 DUP4 PUSH2 0x2CD4 JUMP JUMPDEST SWAP1 POP PUSH1 0x0 DUP4 PUSH1 0x1 PUSH1 0x1 PUSH1 0xA0 SHL SUB AND PUSH4 0x7A2D13A DUP6 PUSH1 0x1 PUSH1 0x1 PUSH1 0xA0 SHL SUB AND PUSH4 0xD905777E ADDRESS PUSH1 0x40 MLOAD DUP3 PUSH4 0xFFFFFFFF AND PUSH1 0xE0 SHL DUP2 MSTORE PUSH1 0x4 ADD PUSH2 0x4483 SWAP2 SWAP1 PUSH2 0x575A JUMP JUMPDEST PUSH1 0x20 PUSH1 0x40 MLOAD DUP1 DUP4 SUB DUP2 DUP7 GAS STATICCALL ISZERO DUP1 ISZERO PUSH2 0x44A0 JUMPI RETURNDATASIZE PUSH1 0x0 DUP1 RETURNDATACOPY RETURNDATASIZE PUSH1 0x0 REVERT JUMPDEST POP POP POP POP PUSH1 0x40 MLOAD RETURNDATASIZE PUSH1 0x1F NOT PUSH1 0x1F DUP3 ADD AND DUP3 ADD DUP1 PUSH1 0x40 MSTORE POP DUP2 ADD SWAP1 PUSH2 0x44C4 SWAP2 SWAP1 PUSH2 0x6067 JUMP JUMPDEST PUSH1 0x40 MLOAD DUP3 PUSH4 0xFFFFFFFF AND PUSH1 0xE0 SHL DUP2 MSTORE PUSH1 0x4 ADD PUSH2 0x44E0 SWAP2 SWAP1 PUSH2 0x576E JUMP JUMPDEST PUSH1 0x20 PUSH1 0x40 MLOAD DUP1 DUP4 SUB DUP2 DUP7 GAS STATICCALL ISZERO DUP1 ISZERO PUSH2 0x44FD JUMPI RETURNDATASIZE PUSH1 0x0 DUP1 RETURNDATACOPY RETURNDATASIZE PUSH1 0x0 REVERT JUMPDEST POP POP POP POP PUSH1 0x40 MLOAD RETURNDATASIZE PUSH1 0x1F NOT PUSH1 0x1F DUP3 ADD AND DUP3 ADD DUP1 PUSH1 0x40 MSTORE POP DUP2 ADD SWAP1 PUSH2 0x4521 SWAP2 SWAP1 PUSH2 0x6067 JUMP JUMPDEST SWAP1 POP PUSH1 0x0 PUSH2 0x452F DUP6 DUP5 PUSH2 0x3782 JUMP JUMPDEST SWAP1 POP DUP1 ISZERO PUSH2 0x4635 JUMPI PUSH2 0x4541 DUP2 DUP5 PUSH2 0x611D JUMP JUMPDEST DUP3 LT ISZERO PUSH2 0x457B JUMPI PUSH1 0x0 PUSH2 0x4554 DUP3 DUP6 PUSH2 0x611D JUMP JUMPDEST SWAP1 POP DUP1 PUSH2 0x4561 DUP5 DUP5 PUSH2 0x609E JUMP JUMPDEST PUSH2 0x456B SWAP2 SWAP1 PUSH2 0x60D3 JUMP JUMPDEST SWAP2 POP PUSH2 0x4577 DUP3 DUP5 PUSH2 0x6130 JUMP JUMPDEST SWAP4 POP POP JUMPDEST PUSH2 0x4585 DUP2 DUP5 PUSH2 0x611D JUMP JUMPDEST SWAP3 POP DUP1 DUP9 PUSH1 0x0 ADD DUP2 DUP2 MLOAD PUSH2 0x4599 SWAP2 SWAP1 PUSH2 0x611D JUMP JUMPDEST SWAP1 MSTORE POP PUSH1 0x60 DUP9 ADD DUP1 MLOAD DUP3 SWAP2 SWAP1 PUSH2 0x45B0 SWAP1 DUP4 SWAP1 PUSH2 0x611D JUMP JUMPDEST SWAP1 MSTORE POP PUSH1 0x40 DUP9 ADD DUP1 MLOAD DUP3 SWAP2 SWAP1 PUSH2 0x45C7 SWAP1 DUP4 SWAP1 PUSH2 0x611D JUMP JUMPDEST SWAP1 MSTORE POP DUP2 ISZERO DUP1 ISZERO PUSH2 0x45D8 JUMPI POP PUSH1 0x0 DUP2 GT JUMPDEST ISZERO PUSH2 0x4635 JUMPI PUSH1 0x0 PUSH2 0x45E9 DUP3 DUP7 PUSH2 0x611D JUMP JUMPDEST PUSH1 0x1 PUSH1 0x1 PUSH1 0xA0 SHL SUB DUP8 AND PUSH1 0x0 DUP2 DUP2 MSTORE PUSH1 0x2 PUSH1 0x20 DUP2 SWAP1 MSTORE PUSH1 0x40 SWAP2 DUP3 SWAP1 KECCAK256 ADD DUP4 SWAP1 SSTORE MLOAD SWAP2 SWAP3 POP SWAP1 PUSH1 0x0 DUP1 MLOAD PUSH1 0x20 PUSH2 0x72FB DUP4 CODECOPY DUP2 MLOAD SWAP2 MSTORE SWAP1 PUSH2 0x462B SWAP1 DUP9 SWAP1 DUP6 SWAP1 PUSH2 0x5D7B JUMP JUMPDEST PUSH1 0x40 MLOAD DUP1 SWAP2 SUB SWAP1 LOG2 POP JUMPDEST PUSH2 0x463F DUP4 DUP4 PUSH2 0x2CD4 JUMP JUMPDEST SWAP3 POP DUP3 PUSH1 0x0 SUB PUSH2 0x4653 JUMPI POP POP POP POP POP PUSH2 0x4838 JUMP JUMPDEST PUSH2 0x465D DUP6 DUP5 PUSH2 0x49EE JUMP JUMPDEST PUSH1 0x40 MLOAD PUSH4 0x70A08231 PUSH1 0xE0 SHL DUP2 MSTORE PUSH1 0x0 SWAP1 PUSH1 0x1 PUSH1 0x1 PUSH1 0xA0 SHL SUB PUSH32 0x0 AND SWAP1 PUSH4 0x70A08231 SWAP1 PUSH2 0x46AC SWAP1 ADDRESS SWAP1 PUSH1 0x4 ADD PUSH2 0x575A JUMP JUMPDEST PUSH1 0x20 PUSH1 0x40 MLOAD DUP1 DUP4 SUB DUP2 DUP7 GAS STATICCALL ISZERO DUP1 ISZERO PUSH2 0x46C9 JUMPI RETURNDATASIZE PUSH1 0x0 DUP1 RETURNDATACOPY RETURNDATASIZE PUSH1 0x0 REVERT JUMPDEST POP POP POP POP PUSH1 0x40 MLOAD RETURNDATASIZE PUSH1 0x1F NOT PUSH1 0x1F DUP3 ADD AND DUP3 ADD DUP1 PUSH1 0x40 MSTORE POP DUP2 ADD SWAP1 PUSH2 0x46ED SWAP2 SWAP1 PUSH2 0x6067 JUMP JUMPDEST SWAP1 POP PUSH1 0x0 DUP10 PUSH1 0x80 ADD MLOAD DUP3 PUSH2 0x4701 SWAP2 SWAP1 PUSH2 0x611D JUMP JUMPDEST SWAP1 POP PUSH1 0x0 DUP6 DUP3 GT ISZERO PUSH2 0x4738 JUMPI DUP7 DUP3 GT ISZERO PUSH2 0x471D JUMPI DUP7 SWAP6 POP PUSH2 0x474D JUMP JUMPDEST PUSH2 0x4727 DUP7 DUP4 PUSH2 0x611D JUMP JUMPDEST PUSH2 0x4731 SWAP1 DUP8 PUSH2 0x6130 JUMP JUMPDEST SWAP6 POP PUSH2 0x474D JUMP JUMPDEST DUP6 DUP3 LT ISZERO PUSH2 0x474D JUMPI PUSH2 0x474A DUP3 DUP8 PUSH2 0x611D JUMP JUMPDEST SWAP1 POP JUMPDEST PUSH2 0x4757 DUP2 DUP8 PUSH2 0x611D JUMP JUMPDEST DUP12 PUSH1 0x20 ADD DUP2 DUP2 MLOAD PUSH2 0x4768 SWAP2 SWAP1 PUSH2 0x6130 JUMP JUMPDEST SWAP1 MSTORE POP DUP11 MLOAD DUP2 SWAP1 DUP13 SWAP1 PUSH2 0x477C SWAP1 DUP4 SWAP1 PUSH2 0x611D JUMP JUMPDEST SWAP1 MSTORE POP PUSH1 0x40 DUP12 ADD DUP1 MLOAD DUP8 SWAP2 SWAP1 PUSH2 0x4793 SWAP1 DUP4 SWAP1 PUSH2 0x611D JUMP JUMPDEST SWAP1 MSTORE POP PUSH1 0x0 PUSH2 0x47A2 DUP6 DUP9 PUSH2 0x6130 JUMP JUMPDEST PUSH2 0x47AC SWAP1 DUP10 PUSH2 0x611D JUMP JUMPDEST PUSH1 0x1 PUSH1 0x1 PUSH1 0xA0 SHL SUB DUP11 AND PUSH1 0x0 DUP2 DUP2 MSTORE PUSH1 0x2 PUSH1 0x20 DUP2 SWAP1 MSTORE PUSH1 0x40 SWAP2 DUP3 SWAP1 KECCAK256 ADD DUP4 SWAP1 SSTORE MLOAD SWAP2 SWAP3 POP SWAP1 PUSH1 0x0 DUP1 MLOAD PUSH1 0x20 PUSH2 0x72FB DUP4 CODECOPY DUP2 MLOAD SWAP2 MSTORE SWAP1 PUSH2 0x47EE SWAP1 DUP12 SWAP1 DUP6 SWAP1 PUSH2 0x5D7B JUMP JUMPDEST PUSH1 0x40 MLOAD DUP1 SWAP2 SUB SWAP1 LOG2 PUSH1 0x20 DUP13 ADD MLOAD DUP13 MLOAD GT PUSH2 0x4810 JUMPI POP POP POP POP POP POP POP POP POP PUSH2 0x484A JUMP JUMPDEST PUSH1 0x80 DUP13 ADD DUP5 SWAP1 MSTORE PUSH1 0x60 DUP13 ADD DUP1 MLOAD DUP9 SWAP2 SWAP1 PUSH2 0x482B SWAP1 DUP4 SWAP1 PUSH2 0x611D JUMP JUMPDEST SWAP1 MSTORE POP POP POP POP POP POP POP POP POP POP JUMPDEST DUP1 PUSH2 0x4842 DUP2 PUSH2 0x61E7 JUMP JUMPDEST SWAP2 POP POP PUSH2 0x43A7 JUMP JUMPDEST POP DUP2 MLOAD PUSH1 0x20 DUP4 ADD MLOAD LT ISZERO PUSH2 0x4870 JUMPI PUSH1 0x40 MLOAD PUSH3 0x461BCD PUSH1 0xE5 SHL DUP2 MSTORE PUSH1 0x4 ADD PUSH2 0x119E SWAP1 PUSH2 0x6F67 JUMP JUMPDEST POP PUSH1 0x40 DUP2 ADD MLOAD PUSH1 0x8 SSTORE JUMPDEST DUP1 MLOAD PUSH1 0x20 SWAP1 SWAP2 ADD MLOAD SWAP1 SWAP3 POP SWAP1 POP JUMPDEST SWAP3 POP SWAP3 SWAP1 POP JUMP JUMPDEST DUP3 DUP5 GT DUP1 ISZERO PUSH2 0x489F JUMPI POP PUSH2 0x2710 DUP2 LT JUMPDEST ISZERO PUSH2 0x48E3 JUMPI PUSH2 0x2710 PUSH2 0x48B1 DUP3 DUP7 PUSH2 0x609E JUMP JUMPDEST PUSH2 0x48BB SWAP2 SWAP1 PUSH2 0x60D3 JUMP JUMPDEST PUSH2 0x48C5 DUP5 DUP7 PUSH2 0x611D JUMP JUMPDEST GT ISZERO PUSH2 0x48E3 JUMPI PUSH1 0x40 MLOAD PUSH3 0x461BCD PUSH1 0xE5 SHL DUP2 MSTORE PUSH1 0x4 ADD PUSH2 0x119E SWAP1 PUSH2 0x6F9B JUMP JUMPDEST PUSH2 0x48ED DUP6 DUP8 PUSH2 0x40BA JUMP JUMPDEST PUSH2 0x48F7 DUP4 DUP4 PUSH2 0x611D JUMP JUMPDEST PUSH1 0x9 SSTORE PUSH2 0x4925 PUSH32 0x0 DUP9 DUP6 PUSH2 0x2F82 JUMP JUMPDEST POP POP POP POP POP POP POP POP JUMP JUMPDEST PUSH2 0x4939 DUP3 DUP3 PUSH2 0x1A78 JUMP JUMPDEST PUSH2 0x111E JUMPI PUSH2 0x4946 DUP2 PUSH2 0x54BF JUMP JUMPDEST PUSH2 0x4951 DUP4 PUSH1 0x20 PUSH2 0x54D1 JUMP JUMPDEST PUSH1 0x40 MLOAD PUSH1 0x20 ADD PUSH2 0x4962 SWAP3 SWAP2 SWAP1 PUSH2 0x6FCD JUMP JUMPDEST PUSH1 0x40 DUP1 MLOAD PUSH1 0x1F NOT DUP2 DUP5 SUB ADD DUP2 MSTORE SWAP1 DUP3 SWAP1 MSTORE PUSH3 0x461BCD PUSH1 0xE5 SHL DUP3 MSTORE PUSH2 0x119E SWAP2 PUSH1 0x4 ADD PUSH2 0x59E7 JUMP JUMPDEST PUSH1 0x1 PUSH1 0x1 PUSH1 0xA0 SHL SUB DUP1 DUP5 AND PUSH1 0x0 SWAP1 DUP2 MSTORE PUSH1 0x6 PUSH1 0x20 SWAP1 DUP2 MSTORE PUSH1 0x40 DUP1 DUP4 KECCAK256 SWAP4 DUP7 AND DUP4 MSTORE SWAP3 SWAP1 MSTORE KECCAK256 SLOAD DUP2 DUP2 LT ISZERO PUSH2 0x49CE JUMPI PUSH1 0x40 MLOAD PUSH3 0x461BCD PUSH1 0xE5 SHL DUP2 MSTORE PUSH1 0x4 ADD PUSH2 0x119E SWAP1 PUSH2 0x7053 JUMP JUMPDEST PUSH2 0x2F7B DUP5 DUP5 PUSH2 0x49DD DUP5 DUP7 PUSH2 0x4D6F JUMP JUMPDEST PUSH2 0x228D JUMP JUMPDEST PUSH1 0x0 PUSH2 0x10D5 DUP3 DUP5 PUSH2 0x6130 JUMP JUMPDEST PUSH1 0x0 PUSH2 0x4AD2 DUP4 PUSH1 0x1 PUSH1 0x1 PUSH1 0xA0 SHL SUB AND PUSH4 0xA28A477 DUP5 PUSH1 0x40 MLOAD DUP3 PUSH4 0xFFFFFFFF AND PUSH1 0xE0 SHL DUP2 MSTORE PUSH1 0x4 ADD PUSH2 0x4A1F SWAP2 SWAP1 PUSH2 0x576E JUMP JUMPDEST PUSH1 0x20 PUSH1 0x40 MLOAD DUP1 DUP4 SUB DUP2 DUP7 GAS STATICCALL ISZERO DUP1 ISZERO PUSH2 0x4A3C JUMPI RETURNDATASIZE PUSH1 0x0 DUP1 RETURNDATACOPY RETURNDATASIZE PUSH1 0x0 REVERT JUMPDEST POP POP POP POP PUSH1 0x40 MLOAD RETURNDATASIZE PUSH1 0x1F NOT PUSH1 0x1F DUP3 ADD AND DUP3 ADD DUP1 PUSH1 0x40 MSTORE POP DUP2 ADD SWAP1 PUSH2 0x4A60 SWAP2 SWAP1 PUSH2 0x6067 JUMP JUMPDEST PUSH1 0x40 MLOAD PUSH4 0x70A08231 PUSH1 0xE0 SHL DUP2 MSTORE PUSH1 0x1 PUSH1 0x1 PUSH1 0xA0 SHL SUB DUP7 AND SWAP1 PUSH4 0x70A08231 SWAP1 PUSH2 0x4A8C SWAP1 ADDRESS SWAP1 PUSH1 0x4 ADD PUSH2 0x575A JUMP JUMPDEST PUSH1 0x20 PUSH1 0x40 MLOAD DUP1 DUP4 SUB DUP2 DUP7 GAS STATICCALL ISZERO DUP1 ISZERO PUSH2 0x4AA9 JUMPI RETURNDATASIZE PUSH1 0x0 DUP1 RETURNDATACOPY RETURNDATASIZE PUSH1 0x0 REVERT JUMPDEST POP POP POP POP PUSH1 0x40 MLOAD RETURNDATASIZE PUSH1 0x1F NOT PUSH1 0x1F DUP3 ADD AND DUP3 ADD DUP1 PUSH1 0x40 MSTORE POP DUP2 ADD SWAP1 PUSH2 0x4ACD SWAP2 SWAP1 PUSH2 0x6067 JUMP JUMPDEST PUSH2 0x2CD4 JUMP JUMPDEST PUSH1 0x40 MLOAD PUSH4 0x5D043B29 PUSH1 0xE1 SHL DUP2 MSTORE SWAP1 SWAP2 POP PUSH1 0x1 PUSH1 0x1 PUSH1 0xA0 SHL SUB DUP5 AND SWAP1 PUSH4 0xBA087652 SWAP1 PUSH2 0x4B05 SWAP1 DUP5 SWAP1 ADDRESS SWAP1 DUP2 SWAP1 PUSH1 0x4 ADD PUSH2 0x7063 JUMP JUMPDEST PUSH1 0x20 PUSH1 0x40 MLOAD DUP1 DUP4 SUB DUP2 PUSH1 0x0 DUP8 GAS CALL ISZERO DUP1 ISZERO PUSH2 0x4B24 JUMPI RETURNDATASIZE PUSH1 0x0 DUP1 RETURNDATACOPY RETURNDATASIZE PUSH1 0x0 REVERT JUMPDEST POP POP POP POP PUSH1 0x40 MLOAD RETURNDATASIZE PUSH1 0x1F NOT PUSH1 0x1F DUP3 ADD AND DUP3 ADD DUP1 PUSH1 0x40 MSTORE POP DUP2 ADD SWAP1 PUSH2 0x3061 SWAP2 SWAP1 PUSH2 0x6067 JUMP JUMPDEST PUSH1 0x1 PUSH1 0x1 PUSH1 0xA0 SHL SUB DUP4 AND PUSH2 0x4B6E JUMPI PUSH1 0x40 MLOAD PUSH3 0x461BCD PUSH1 0xE5 SHL DUP2 MSTORE PUSH1 0x4 ADD PUSH2 0x119E SWAP1 PUSH2 0x681C JUMP JUMPDEST PUSH1 0x1 PUSH1 0x1 PUSH1 0xA0 SHL SUB DUP3 AND PUSH2 0x4B94 JUMPI PUSH1 0x40 MLOAD PUSH3 0x461BCD PUSH1 0xE5 SHL DUP2 MSTORE PUSH1 0x4 ADD PUSH2 0x119E SWAP1 PUSH2 0x70BF JUMP JUMPDEST PUSH1 0x40 MLOAD PUSH4 0x95EA7B3 PUSH1 0xE0 SHL DUP2 MSTORE PUSH1 0x0 SWAP1 PUSH1 0x1 PUSH1 0x1 PUSH1 0xA0 SHL SUB DUP6 AND SWAP1 PUSH4 0x95EA7B3 SWAP1 PUSH2 0x4BC5 SWAP1 DUP7 SWAP1 DUP7 SWAP1 PUSH1 0x4 ADD PUSH2 0x693E JUMP JUMPDEST PUSH1 0x20 PUSH1 0x40 MLOAD DUP1 DUP4 SUB DUP2 PUSH1 0x0 DUP8 GAS CALL ISZERO DUP1 ISZERO PUSH2 0x4BE4 JUMPI RETURNDATASIZE PUSH1 0x0 DUP1 RETURNDATACOPY RETURNDATASIZE PUSH1 0x0 REVERT JUMPDEST POP POP POP POP PUSH1 0x40 MLOAD RETURNDATASIZE PUSH1 0x1F NOT PUSH1 0x1F DUP3 ADD AND DUP3 ADD DUP1 PUSH1 0x40 MSTORE POP DUP2 ADD SWAP1 PUSH2 0x4C08 SWAP2 SWAP1 PUSH2 0x68E7 JUMP JUMPDEST SWAP1 POP DUP1 PUSH2 0x3061 JUMPI PUSH1 0x40 MLOAD PUSH3 0x461BCD PUSH1 0xE5 SHL DUP2 MSTORE PUSH1 0x4 ADD PUSH2 0x119E SWAP1 PUSH2 0x70F5 JUMP JUMPDEST PUSH1 0x0 PUSH1 0x1 PUSH1 0x1 PUSH1 0xA0 SHL SUB DUP3 AND PUSH2 0x4C4F JUMPI PUSH1 0x40 MLOAD PUSH3 0x461BCD PUSH1 0xE5 SHL DUP2 MSTORE PUSH1 0x4 ADD PUSH2 0x119E SWAP1 PUSH2 0x7137 JUMP JUMPDEST PUSH1 0x0 PUSH2 0x4C59 PUSH2 0x262C JUMP JUMPDEST SWAP1 POP PUSH1 0x0 PUSH2 0x4C65 PUSH2 0x2117 JUMP JUMPDEST SWAP1 POP PUSH1 0x0 DUP3 PUSH1 0x0 SUB PUSH2 0x4C78 JUMPI POP DUP5 PUSH2 0x4CBD JUMP JUMPDEST DUP6 DUP3 GT ISZERO PUSH2 0x4CA5 JUMPI PUSH2 0x4C8A DUP7 DUP4 PUSH2 0x611D JUMP JUMPDEST PUSH2 0x4C94 DUP5 DUP9 PUSH2 0x609E JUMP JUMPDEST PUSH2 0x4C9E SWAP2 SWAP1 PUSH2 0x60D3 JUMP JUMPDEST SWAP1 POP PUSH2 0x4CBD JUMP JUMPDEST PUSH1 0x40 MLOAD PUSH3 0x461BCD PUSH1 0xE5 SHL DUP2 MSTORE PUSH1 0x4 ADD PUSH2 0x119E SWAP1 PUSH2 0x716D JUMP JUMPDEST DUP1 PUSH1 0x0 SUB PUSH2 0x4CD1 JUMPI PUSH1 0x0 SWAP4 POP POP POP POP PUSH2 0xFEA JUMP JUMPDEST PUSH2 0x1024 DUP2 DUP7 JUMPDEST PUSH1 0x1 PUSH1 0x1 PUSH1 0xA0 SHL SUB DUP2 AND PUSH2 0x4CFD JUMPI PUSH1 0x40 MLOAD PUSH3 0x461BCD PUSH1 0xE5 SHL DUP2 MSTORE PUSH1 0x4 ADD PUSH2 0x119E SWAP1 PUSH2 0x7137 JUMP JUMPDEST PUSH1 0x1 PUSH1 0x1 PUSH1 0xA0 SHL SUB DUP2 AND PUSH1 0x0 SWAP1 DUP2 MSTORE PUSH1 0x5 PUSH1 0x20 MSTORE PUSH1 0x40 DUP2 KECCAK256 DUP1 SLOAD DUP5 SWAP3 SWAP1 PUSH2 0x4D25 SWAP1 DUP5 SWAP1 PUSH2 0x6130 JUMP JUMPDEST SWAP3 POP POP DUP2 SWAP1 SSTORE POP DUP2 PUSH1 0x7 PUSH1 0x0 DUP3 DUP3 SLOAD PUSH2 0x4D3E SWAP2 SWAP1 PUSH2 0x6130 JUMP JUMPDEST SWAP1 SWAP2 SSTORE POP POP PUSH1 0x40 MLOAD PUSH1 0x1 PUSH1 0x1 PUSH1 0xA0 SHL SUB DUP3 AND SWAP1 PUSH1 0x0 SWAP1 PUSH1 0x0 DUP1 MLOAD PUSH1 0x20 PUSH2 0x72DB DUP4 CODECOPY DUP2 MLOAD SWAP2 MSTORE SWAP1 PUSH2 0x4164 SWAP1 DUP7 SWAP1 PUSH2 0x576E JUMP JUMPDEST PUSH1 0x0 PUSH2 0x10D5 DUP3 DUP5 PUSH2 0x611D JUMP JUMPDEST PUSH1 0x0 PUSH2 0x4D85 PUSH2 0x3A57 JUMP JUMPDEST SWAP1 POP DUP1 PUSH1 0x0 SUB PUSH2 0x4D92 JUMPI POP JUMP JUMPDEST TIMESTAMP PUSH1 0x17 SLOAD GT ISZERO PUSH2 0x4DA1 JUMPI TIMESTAMP PUSH1 0x19 SSTORE JUMPDEST PUSH2 0x23ED DUP2 ADDRESS PUSH2 0x40BA JUMP JUMPDEST PUSH1 0x0 DUP1 PUSH1 0x0 DUP4 PUSH1 0x1 PUSH1 0x1 PUSH1 0xA0 SHL SUB AND PUSH4 0x70A08231 ADDRESS PUSH1 0x40 MLOAD DUP3 PUSH4 0xFFFFFFFF AND PUSH1 0xE0 SHL DUP2 MSTORE PUSH1 0x4 ADD PUSH2 0x4DDC SWAP2 SWAP1 PUSH2 0x575A JUMP JUMPDEST PUSH1 0x20 PUSH1 0x40 MLOAD DUP1 DUP4 SUB DUP2 DUP7 GAS STATICCALL ISZERO DUP1 ISZERO PUSH2 0x4DF9 JUMPI RETURNDATASIZE PUSH1 0x0 DUP1 RETURNDATACOPY RETURNDATASIZE PUSH1 0x0 REVERT JUMPDEST POP POP POP POP PUSH1 0x40 MLOAD RETURNDATASIZE PUSH1 0x1F NOT PUSH1 0x1F DUP3 ADD AND DUP3 ADD DUP1 PUSH1 0x40 MSTORE POP DUP2 ADD SWAP1 PUSH2 0x4E1D SWAP2 SWAP1 PUSH2 0x6067 JUMP JUMPDEST SWAP1 POP PUSH1 0x0 DUP5 PUSH1 0x1 PUSH1 0x1 PUSH1 0xA0 SHL SUB AND PUSH4 0x7A2D13A DUP4 PUSH1 0x40 MLOAD DUP3 PUSH4 0xFFFFFFFF AND PUSH1 0xE0 SHL DUP2 MSTORE PUSH1 0x4 ADD PUSH2 0x4E4D SWAP2 SWAP1 PUSH2 0x576E JUMP JUMPDEST PUSH1 0x20 PUSH1 0x40 MLOAD DUP1 DUP4 SUB DUP2 DUP7 GAS STATICCALL ISZERO DUP1 ISZERO PUSH2 0x4E6A JUMPI RETURNDATASIZE PUSH1 0x0 DUP1 RETURNDATACOPY RETURNDATASIZE PUSH1 0x0 REVERT JUMPDEST POP POP POP POP PUSH1 0x40 MLOAD RETURNDATASIZE PUSH1 0x1F NOT PUSH1 0x1F DUP3 ADD AND DUP3 ADD DUP1 PUSH1 0x40 MSTORE POP DUP2 ADD SWAP1 PUSH2 0x4E8E SWAP2 SWAP1 PUSH2 0x6067 JUMP JUMPDEST PUSH1 0x1 PUSH1 0x1 PUSH1 0xA0 SHL SUB DUP7 AND PUSH1 0x0 SWAP1 DUP2 MSTORE PUSH1 0x2 PUSH1 0x20 DUP2 SWAP1 MSTORE PUSH1 0x40 DUP3 KECCAK256 ADD SLOAD SWAP2 SWAP3 POP DUP1 DUP3 DUP5 GT ISZERO PUSH2 0x4EC7 JUMPI PUSH2 0x4EC0 DUP4 DUP6 PUSH2 0x611D JUMP JUMPDEST SWAP2 POP PUSH2 0x4ED4 JUMP JUMPDEST PUSH2 0x4ED1 DUP5 DUP5 PUSH2 0x611D JUMP JUMPDEST SWAP1 POP JUMPDEST SWAP1 SWAP8 SWAP1 SWAP7 POP SWAP5 POP POP POP POP POP JUMP JUMPDEST PUSH2 0x4EE9 PUSH2 0x56F4 JUMP JUMPDEST PUSH2 0x4EF1 PUSH2 0x56F4 JUMP JUMPDEST PUSH1 0xC SLOAD PUSH1 0x1 PUSH1 0x1 PUSH1 0xA0 SHL SUB AND ISZERO PUSH2 0x11B2 JUMPI PUSH1 0xC SLOAD PUSH1 0x40 MLOAD PUSH4 0x921F8A8F PUSH1 0xE0 SHL DUP2 MSTORE PUSH1 0x1 PUSH1 0x1 PUSH1 0xA0 SHL SUB SWAP1 SWAP2 AND SWAP1 PUSH4 0x921F8A8F SWAP1 PUSH2 0x4F36 SWAP1 DUP9 SWAP1 DUP9 SWAP1 DUP9 SWAP1 PUSH1 0x4 ADD PUSH2 0x717D JUMP JUMPDEST PUSH1 0x40 DUP1 MLOAD DUP1 DUP4 SUB DUP2 PUSH1 0x0 DUP8 GAS CALL ISZERO DUP1 ISZERO PUSH2 0x4F54 JUMPI RETURNDATASIZE PUSH1 0x0 DUP1 RETURNDATACOPY RETURNDATASIZE PUSH1 0x0 REVERT JUMPDEST POP POP POP POP PUSH1 0x40 MLOAD RETURNDATASIZE PUSH1 0x1F NOT PUSH1 0x1F DUP3 ADD AND DUP3 ADD DUP1 PUSH1 0x40 MSTORE POP DUP2 ADD SWAP1 PUSH2 0x4F78 SWAP2 SWAP1 PUSH2 0x7198 JUMP JUMPDEST PUSH1 0x20 DUP4 ADD MSTORE DUP1 DUP3 MSTORE ISZERO PUSH2 0x11B2 JUMPI PUSH1 0x0 PUSH32 0x0 PUSH1 0x1 PUSH1 0x1 PUSH1 0xA0 SHL SUB AND PUSH4 0x7D3277F PUSH1 0x40 MLOAD DUP2 PUSH4 0xFFFFFFFF AND PUSH1 0xE0 SHL DUP2 MSTORE PUSH1 0x4 ADD PUSH1 0x40 DUP1 MLOAD DUP1 DUP4 SUB DUP2 DUP7 GAS STATICCALL ISZERO DUP1 ISZERO PUSH2 0x4FE4 JUMPI RETURNDATASIZE PUSH1 0x0 DUP1 RETURNDATACOPY RETURNDATASIZE PUSH1 0x0 REVERT JUMPDEST POP POP POP POP PUSH1 0x40 MLOAD RETURNDATASIZE PUSH1 0x1F NOT PUSH1 0x1F DUP3 ADD AND DUP3 ADD DUP1 PUSH1 0x40 MSTORE POP DUP2 ADD SWAP1 PUSH2 0x5008 SWAP2 SWAP1 PUSH2 0x71E0 JUMP JUMPDEST PUSH1 0x1 PUSH1 0x1 PUSH1 0xA0 SHL SUB AND PUSH1 0x60 DUP5 ADD MSTORE SWAP1 POP PUSH2 0xFFFF DUP2 AND ISZERO PUSH2 0x2CCB JUMPI DUP2 MLOAD PUSH2 0x2710 SWAP1 PUSH2 0x5037 SWAP1 PUSH2 0xFFFF DUP5 AND SWAP1 PUSH2 0x609E JUMP JUMPDEST PUSH2 0x5041 SWAP2 SWAP1 PUSH2 0x60D3 JUMP JUMPDEST PUSH1 0x40 DUP4 ADD MSTORE POP SWAP5 SWAP4 POP POP POP POP JUMP JUMPDEST PUSH2 0x5073 PUSH1 0x40 MLOAD DUP1 PUSH1 0x60 ADD PUSH1 0x40 MSTORE DUP1 PUSH1 0x0 DUP2 MSTORE PUSH1 0x20 ADD PUSH1 0x0 DUP2 MSTORE PUSH1 0x20 ADD PUSH1 0x0 DUP2 MSTORE POP SWAP1 JUMP JUMPDEST PUSH2 0x5097 PUSH1 0x40 MLOAD DUP1 PUSH1 0x60 ADD PUSH1 0x40 MSTORE DUP1 PUSH1 0x0 DUP2 MSTORE PUSH1 0x20 ADD PUSH1 0x0 DUP2 MSTORE PUSH1 0x20 ADD PUSH1 0x0 DUP2 MSTORE POP SWAP1 JUMP JUMPDEST PUSH1 0x0 PUSH2 0x50A3 DUP6 DUP8 PUSH2 0x6130 JUMP JUMPDEST GT ISZERO PUSH2 0x11B2 JUMPI PUSH2 0x50BD PUSH2 0x50B6 DUP6 DUP8 PUSH2 0x6130 JUMP JUMPDEST PUSH1 0x1 PUSH2 0x2348 JUMP JUMPDEST DUP2 MLOAD DUP3 SWAP1 PUSH2 0x50CC SWAP1 DUP4 SWAP1 PUSH2 0x6130 JUMP JUMPDEST SWAP1 MSTORE POP DUP4 ISZERO PUSH2 0x11B2 JUMPI PUSH2 0x50E9 PUSH2 0x50E2 DUP5 DUP7 PUSH2 0x611D JUMP JUMPDEST PUSH1 0x0 PUSH2 0x2348 JUMP JUMPDEST PUSH1 0x20 DUP3 ADD MSTORE DUP3 ISZERO PUSH2 0x11B2 JUMPI PUSH2 0x50FF DUP4 PUSH1 0x0 PUSH2 0x2348 JUMP JUMPDEST PUSH1 0x40 DUP3 ADD MSTORE SWAP5 SWAP4 POP POP POP POP JUMP JUMPDEST PUSH1 0x0 DUP1 PUSH1 0x0 DUP1 DUP8 PUSH1 0x20 ADD MLOAD GT ISZERO PUSH2 0x5271 JUMPI PUSH1 0x20 DUP8 ADD MLOAD PUSH1 0xC SLOAD PUSH1 0x40 MLOAD PUSH4 0x70A08231 PUSH1 0xE0 SHL DUP2 MSTORE PUSH2 0x5214 SWAP3 SWAP2 PUSH2 0x4ACD SWAP2 PUSH1 0x1 PUSH1 0x1 PUSH1 0xA0 SHL SUB PUSH32 0x0 DUP2 AND SWAP3 PUSH4 0x70A08231 SWAP3 PUSH2 0x517E SWAP3 SWAP2 SWAP1 SWAP2 AND SWAP1 PUSH1 0x4 ADD PUSH2 0x575A JUMP JUMPDEST PUSH1 0x20 PUSH1 0x40 MLOAD DUP1 DUP4 SUB DUP2 DUP7 GAS STATICCALL ISZERO DUP1 ISZERO PUSH2 0x519B JUMPI RETURNDATASIZE PUSH1 0x0 DUP1 RETURNDATACOPY RETURNDATASIZE PUSH1 0x0 REVERT JUMPDEST POP POP POP POP PUSH1 0x40 MLOAD RETURNDATASIZE PUSH1 0x1F NOT PUSH1 0x1F DUP3 ADD AND DUP3 ADD DUP1 PUSH1 0x40 MSTORE POP DUP2 ADD SWAP1 PUSH2 0x51BF SWAP2 SWAP1 PUSH2 0x6067 JUMP JUMPDEST PUSH1 0xC SLOAD PUSH1 0x40 MLOAD PUSH4 0x6EB1769F PUSH1 0xE1 SHL DUP2 MSTORE PUSH1 0x1 PUSH1 0x1 PUSH1 0xA0 SHL SUB PUSH32 0x0 DUP2 AND SWAP3 PUSH4 0xDD62ED3E SWAP3 PUSH2 0x4A8C SWAP3 SWAP2 SWAP1 SWAP2 AND SWAP1 ADDRESS SWAP1 PUSH1 0x4 ADD PUSH2 0x7213 JUMP JUMPDEST PUSH1 0x20 DUP9 ADD DUP2 SWAP1 MSTORE PUSH1 0xC SLOAD PUSH2 0x5255 SWAP2 PUSH32 0x0 SWAP2 PUSH1 0x1 PUSH1 0x1 PUSH1 0xA0 SHL SUB AND SWAP1 ADDRESS SWAP1 PUSH2 0x2E74 JUMP JUMPDEST DUP7 PUSH1 0x20 ADD MLOAD PUSH1 0x9 PUSH1 0x0 DUP3 DUP3 SLOAD PUSH2 0x526B SWAP2 SWAP1 PUSH2 0x6130 JUMP JUMPDEST SWAP1 SWAP2 SSTORE POP POP JUMPDEST DUP6 ISZERO PUSH2 0x52C1 JUMPI PUSH1 0x1 PUSH1 0x1 PUSH1 0xA0 SHL SUB DUP5 AND PUSH1 0x0 SWAP1 DUP2 MSTORE PUSH1 0x2 PUSH1 0x20 DUP2 SWAP1 MSTORE PUSH1 0x40 DUP3 KECCAK256 ADD DUP1 SLOAD DUP9 SWAP3 SWAP1 PUSH2 0x52A2 SWAP1 DUP5 SWAP1 PUSH2 0x6130 JUMP JUMPDEST SWAP3 POP POP DUP2 SWAP1 SSTORE POP DUP6 PUSH1 0x8 PUSH1 0x0 DUP3 DUP3 SLOAD PUSH2 0x52BB SWAP2 SWAP1 PUSH2 0x6130 JUMP JUMPDEST SWAP1 SWAP2 SSTORE POP POP JUMPDEST PUSH1 0x0 DUP8 PUSH1 0x20 ADD MLOAD DUP8 PUSH2 0x52D3 SWAP2 SWAP1 PUSH2 0x6130 JUMP JUMPDEST GT DUP1 ISZERO PUSH2 0x52E1 JUMPI POP PUSH1 0x16 SLOAD ISZERO ISZERO JUMPDEST ISZERO PUSH2 0x5302 JUMPI PUSH2 0x52FF DUP8 PUSH1 0x20 ADD MLOAD DUP8 PUSH2 0x52F9 SWAP2 SWAP1 PUSH2 0x6130 JUMP JUMPDEST ADDRESS PUSH2 0x4C27 JUMP JUMPDEST SWAP1 POP JUMPDEST DUP5 ISZERO PUSH2 0x5352 JUMPI PUSH1 0x1 PUSH1 0x1 PUSH1 0xA0 SHL SUB DUP5 AND PUSH1 0x0 SWAP1 DUP2 MSTORE PUSH1 0x2 PUSH1 0x20 DUP2 SWAP1 MSTORE PUSH1 0x40 DUP3 KECCAK256 ADD DUP1 SLOAD DUP8 SWAP3 SWAP1 PUSH2 0x5333 SWAP1 DUP5 SWAP1 PUSH2 0x611D JUMP JUMPDEST SWAP3 POP POP DUP2 SWAP1 SSTORE POP DUP5 PUSH1 0x8 PUSH1 0x0 DUP3 DUP3 SLOAD PUSH2 0x534C SWAP2 SWAP1 PUSH2 0x611D JUMP JUMPDEST SWAP1 SWAP2 SSTORE POP POP JUMPDEST ADDRESS PUSH1 0x0 SWAP1 DUP2 MSTORE PUSH1 0x5 PUSH1 0x20 MSTORE PUSH1 0x40 DUP2 KECCAK256 SLOAD PUSH2 0x536D SWAP1 DUP4 SWAP1 PUSH2 0x611D JUMP JUMPDEST DUP10 MLOAD SWAP1 SWAP2 POP ISZERO PUSH2 0x53CE JUMPI DUP9 MLOAD PUSH2 0x5387 SWAP1 PUSH2 0x4ACD DUP5 DUP5 PUSH2 0x6130 JUMP JUMPDEST DUP1 DUP11 MSTORE PUSH2 0x5394 SWAP1 ADDRESS PUSH2 0x40BA JUMP JUMPDEST PUSH1 0x0 PUSH2 0x53A4 DUP11 PUSH1 0x0 ADD MLOAD DUP5 PUSH2 0x2CD4 JUMP JUMPDEST SWAP1 POP PUSH2 0x53B0 DUP2 DUP5 PUSH2 0x611D JUMP JUMPDEST DUP11 MLOAD SWAP1 SWAP4 POP PUSH2 0x53C0 SWAP1 DUP3 SWAP1 PUSH2 0x611D JUMP JUMPDEST PUSH2 0x53CA SWAP1 DUP4 PUSH2 0x611D JUMP JUMPDEST SWAP2 POP POP JUMPDEST PUSH1 0x20 DUP10 ADD MLOAD ISZERO PUSH2 0x53F3 JUMPI PUSH1 0x20 DUP10 ADD MLOAD PUSH1 0xC SLOAD PUSH2 0x53F3 SWAP2 SWAP1 PUSH1 0x1 PUSH1 0x1 PUSH1 0xA0 SHL SUB AND PUSH2 0x4CD7 JUMP JUMPDEST PUSH1 0x40 DUP10 ADD MLOAD ISZERO PUSH2 0x540F JUMPI PUSH2 0x540F DUP10 PUSH1 0x40 ADD MLOAD DUP10 PUSH1 0x60 ADD MLOAD PUSH2 0x4CD7 JUMP JUMPDEST SWAP9 SWAP1 SWAP8 POP SWAP6 POP POP POP POP POP POP JUMP JUMPDEST PUSH1 0x0 PUSH2 0x5428 DUP3 DUP5 PUSH2 0x6130 JUMP JUMPDEST SWAP1 POP DUP1 ISZERO PUSH2 0x54B3 JUMPI PUSH1 0x0 TIMESTAMP PUSH1 0x17 SLOAD GT ISZERO PUSH2 0x5457 JUMPI TIMESTAMP PUSH1 0x17 SLOAD PUSH2 0x544A SWAP2 SWAP1 PUSH2 0x611D JUMP JUMPDEST PUSH2 0x5454 SWAP1 DUP6 PUSH2 0x609E JUMP JUMPDEST SWAP1 POP JUMPDEST PUSH1 0x0 DUP3 PUSH1 0x16 SLOAD DUP6 PUSH2 0x5468 SWAP2 SWAP1 PUSH2 0x609E JUMP JUMPDEST PUSH2 0x5472 SWAP1 DUP5 PUSH2 0x6130 JUMP JUMPDEST PUSH2 0x547C SWAP2 SWAP1 PUSH2 0x60D3 JUMP JUMPDEST SWAP1 POP DUP1 PUSH2 0x548E PUSH5 0xE8D4A51000 DUP6 PUSH2 0x609E JUMP JUMPDEST PUSH2 0x5498 SWAP2 SWAP1 PUSH2 0x60D3 JUMP JUMPDEST PUSH1 0x18 SSTORE PUSH2 0x54A5 DUP2 TIMESTAMP PUSH2 0x6130 JUMP JUMPDEST PUSH1 0x17 SSTORE POP POP TIMESTAMP PUSH1 0x19 SSTORE PUSH2 0x2F7B JUMP JUMPDEST PUSH1 0x0 PUSH1 0x18 SSTORE POP POP POP POP POP JUMP JUMPDEST PUSH1 0x60 PUSH2 0xFEA PUSH1 0x1 PUSH1 0x1 PUSH1 0xA0 SHL SUB DUP4 AND PUSH1 0x14 JUMPDEST PUSH1 0x60 PUSH1 0x0 PUSH2 0x54E0 DUP4 PUSH1 0x2 PUSH2 0x609E JUMP JUMPDEST PUSH2 0x54EB SWAP1 PUSH1 0x2 PUSH2 0x6130 JUMP JUMPDEST PUSH1 0x1 PUSH1 0x1 PUSH1 0x40 SHL SUB DUP2 GT ISZERO PUSH2 0x5502 JUMPI PUSH2 0x5502 PUSH2 0x57FA JUMP JUMPDEST PUSH1 0x40 MLOAD SWAP1 DUP1 DUP3 MSTORE DUP1 PUSH1 0x1F ADD PUSH1 0x1F NOT AND PUSH1 0x20 ADD DUP3 ADD PUSH1 0x40 MSTORE DUP1 ISZERO PUSH2 0x552C JUMPI PUSH1 0x20 DUP3 ADD DUP2 DUP1 CALLDATASIZE DUP4 CALLDATACOPY ADD SWAP1 POP JUMPDEST POP SWAP1 POP PUSH1 0x3 PUSH1 0xFC SHL DUP2 PUSH1 0x0 DUP2 MLOAD DUP2 LT PUSH2 0x5547 JUMPI PUSH2 0x5547 PUSH2 0x6199 JUMP JUMPDEST PUSH1 0x20 ADD ADD SWAP1 PUSH1 0x1 PUSH1 0x1 PUSH1 0xF8 SHL SUB NOT AND SWAP1 DUP2 PUSH1 0x0 BYTE SWAP1 MSTORE8 POP PUSH1 0xF PUSH1 0xFB SHL DUP2 PUSH1 0x1 DUP2 MLOAD DUP2 LT PUSH2 0x5576 JUMPI PUSH2 0x5576 PUSH2 0x6199 JUMP JUMPDEST PUSH1 0x20 ADD ADD SWAP1 PUSH1 0x1 PUSH1 0x1 PUSH1 0xF8 SHL SUB NOT AND SWAP1 DUP2 PUSH1 0x0 BYTE SWAP1 MSTORE8 POP PUSH1 0x0 PUSH2 0x559A DUP5 PUSH1 0x2 PUSH2 0x609E JUMP JUMPDEST PUSH2 0x55A5 SWAP1 PUSH1 0x1 PUSH2 0x6130 JUMP JUMPDEST SWAP1 POP JUMPDEST PUSH1 0x1 DUP2 GT ISZERO PUSH2 0x561D JUMPI PUSH16 0x181899199A1A9B1B9C1CB0B131B232B3 PUSH1 0x81 SHL DUP6 PUSH1 0xF AND PUSH1 0x10 DUP2 LT PUSH2 0x55D9 JUMPI PUSH2 0x55D9 PUSH2 0x6199 JUMP JUMPDEST BYTE PUSH1 0xF8 SHL DUP3 DUP3 DUP2 MLOAD DUP2 LT PUSH2 0x55EF JUMPI PUSH2 0x55EF PUSH2 0x6199 JUMP JUMPDEST PUSH1 0x20 ADD ADD SWAP1 PUSH1 0x1 PUSH1 0x1 PUSH1 0xF8 SHL SUB NOT AND SWAP1 DUP2 PUSH1 0x0 BYTE SWAP1 MSTORE8 POP PUSH1 0x4 SWAP5 SWAP1 SWAP5 SHR SWAP4 PUSH2 0x5616 DUP2 PUSH2 0x7221 JUMP JUMPDEST SWAP1 POP PUSH2 0x55A8 JUMP JUMPDEST POP DUP4 ISZERO PUSH2 0x10D5 JUMPI PUSH1 0x40 MLOAD PUSH3 0x461BCD PUSH1 0xE5 SHL DUP2 MSTORE PUSH1 0x4 ADD PUSH2 0x119E SWAP1 PUSH2 0x726A JUMP JUMPDEST DUP3 DUP1 SLOAD DUP3 DUP3 SSTORE SWAP1 PUSH1 0x0 MSTORE PUSH1 0x20 PUSH1 0x0 KECCAK256 SWAP1 DUP2 ADD SWAP3 DUP3 ISZERO PUSH2 0x568F JUMPI SWAP2 PUSH1 0x20 MUL DUP3 ADD JUMPDEST DUP3 DUP2 GT ISZERO PUSH2 0x568F JUMPI DUP2 SLOAD PUSH1 0x1 PUSH1 0x1 PUSH1 0xA0 SHL SUB NOT AND PUSH1 0x1 PUSH1 0x1 PUSH1 0xA0 SHL SUB DUP5 CALLDATALOAD AND OR DUP3 SSTORE PUSH1 0x20 SWAP1 SWAP3 ADD SWAP2 PUSH1 0x1 SWAP1 SWAP2 ADD SWAP1 PUSH2 0x565C JUMP JUMPDEST POP PUSH2 0x569B SWAP3 SWAP2 POP PUSH2 0x5725 JUMP JUMPDEST POP SWAP1 JUMP JUMPDEST DUP3 DUP1 SLOAD DUP3 DUP3 SSTORE SWAP1 PUSH1 0x0 MSTORE PUSH1 0x20 PUSH1 0x0 KECCAK256 SWAP1 DUP2 ADD SWAP3 DUP3 ISZERO PUSH2 0x568F JUMPI SWAP2 PUSH1 0x20 MUL DUP3 ADD JUMPDEST DUP3 DUP2 GT ISZERO PUSH2 0x568F JUMPI DUP3 MLOAD DUP3 SLOAD PUSH1 0x1 PUSH1 0x1 PUSH1 0xA0 SHL SUB NOT AND PUSH1 0x1 PUSH1 0x1 PUSH1 0xA0 SHL SUB SWAP1 SWAP2 AND OR DUP3 SSTORE PUSH1 0x20 SWAP1 SWAP3 ADD SWAP2 PUSH1 0x1 SWAP1 SWAP2 ADD SWAP1 PUSH2 0x56BF JUMP JUMPDEST PUSH1 0x40 MLOAD DUP1 PUSH1 0x80 ADD PUSH1 0x40 MSTORE DUP1 PUSH1 0x0 DUP2 MSTORE PUSH1 0x20 ADD PUSH1 0x0 DUP2 MSTORE PUSH1 0x20 ADD PUSH1 0x0 DUP2 MSTORE PUSH1 0x20 ADD PUSH1 0x0 PUSH1 0x1 PUSH1 0x1 PUSH1 0xA0 SHL SUB AND DUP2 MSTORE POP SWAP1 JUMP JUMPDEST JUMPDEST DUP1 DUP3 GT ISZERO PUSH2 0x569B JUMPI PUSH1 0x0 DUP2 SSTORE PUSH1 0x1 ADD PUSH2 0x5726 JUMP JUMPDEST PUSH1 0x0 PUSH1 0x1 PUSH1 0x1 PUSH1 0xA0 SHL SUB DUP3 AND PUSH2 0xFEA JUMP JUMPDEST PUSH2 0x5754 DUP2 PUSH2 0x573A JUMP JUMPDEST DUP3 MSTORE POP POP JUMP JUMPDEST PUSH1 0x20 DUP2 ADD PUSH2 0xFEA DUP3 DUP5 PUSH2 0x574B JUMP JUMPDEST DUP1 PUSH2 0x5754 JUMP JUMPDEST PUSH1 0x20 DUP2 ADD PUSH2 0xFEA DUP3 DUP5 PUSH2 0x5768 JUMP JUMPDEST PUSH1 0x1 PUSH1 0x1 PUSH1 0xE0 SHL SUB NOT DUP2 AND JUMPDEST DUP2 EQ PUSH2 0x23ED JUMPI PUSH1 0x0 DUP1 REVERT JUMPDEST DUP1 CALLDATALOAD PUSH2 0xFEA DUP2 PUSH2 0x577C JUMP JUMPDEST PUSH1 0x0 PUSH1 0x20 DUP3 DUP5 SUB SLT ISZERO PUSH2 0x57B3 JUMPI PUSH2 0x57B3 PUSH1 0x0 DUP1 REVERT JUMPDEST PUSH1 0x0 PUSH2 0x11B2 DUP5 DUP5 PUSH2 0x5793 JUMP JUMPDEST DUP1 ISZERO ISZERO PUSH2 0x5754 JUMP JUMPDEST PUSH1 0x20 DUP2 ADD PUSH2 0xFEA DUP3 DUP5 PUSH2 0x57BF JUMP JUMPDEST DUP1 PUSH2 0x5788 JUMP JUMPDEST DUP1 CALLDATALOAD PUSH2 0xFEA DUP2 PUSH2 0x57D5 JUMP JUMPDEST PUSH2 0x5788 DUP2 PUSH2 0x573A JUMP JUMPDEST DUP1 CALLDATALOAD PUSH2 0xFEA DUP2 PUSH2 0x57E6 JUMP JUMPDEST PUSH4 0x4E487B71 PUSH1 0xE0 SHL PUSH1 0x0 MSTORE PUSH1 0x41 PUSH1 0x4 MSTORE PUSH1 0x24 PUSH1 0x0 REVERT JUMPDEST PUSH1 0x1F NOT PUSH1 0x1F DUP4 ADD AND DUP2 ADD DUP2 DUP2 LT PUSH1 0x1 PUSH1 0x1 PUSH1 0x40 SHL SUB DUP3 GT OR ISZERO PUSH2 0x5835 JUMPI PUSH2 0x5835 PUSH2 0x57FA JUMP JUMPDEST PUSH1 0x40 MSTORE POP POP JUMP JUMPDEST PUSH1 0x0 PUSH2 0x5847 PUSH1 0x40 MLOAD SWAP1 JUMP JUMPDEST SWAP1 POP PUSH2 0x5853 DUP3 DUP3 PUSH2 0x5810 JUMP JUMPDEST SWAP2 SWAP1 POP JUMP JUMPDEST PUSH1 0x0 PUSH1 0x1 PUSH1 0x1 PUSH1 0x40 SHL SUB DUP3 GT ISZERO PUSH2 0x5871 JUMPI PUSH2 0x5871 PUSH2 0x57FA JUMP JUMPDEST POP PUSH1 0x20 SWAP1 DUP2 MUL ADD SWAP1 JUMP JUMPDEST PUSH1 0x0 PUSH2 0x588E PUSH2 0x5889 DUP5 PUSH2 0x5858 JUMP JUMPDEST PUSH2 0x583C JUMP JUMPDEST DUP4 DUP2 MSTORE SWAP1 POP PUSH1 0x20 DUP1 DUP3 ADD SWAP1 DUP5 MUL DUP4 ADD DUP6 DUP2 GT ISZERO PUSH2 0x58AD JUMPI PUSH2 0x58AD PUSH1 0x0 DUP1 REVERT JUMPDEST DUP4 JUMPDEST DUP2 DUP2 LT ISZERO PUSH2 0x58D1 JUMPI DUP1 PUSH2 0x58C2 DUP9 DUP3 PUSH2 0x57EF JUMP JUMPDEST DUP5 MSTORE POP PUSH1 0x20 SWAP3 DUP4 ADD SWAP3 ADD PUSH2 0x58AF JUMP JUMPDEST POP POP POP SWAP4 SWAP3 POP POP POP JUMP JUMPDEST PUSH1 0x0 DUP3 PUSH1 0x1F DUP4 ADD SLT PUSH2 0x58EF JUMPI PUSH2 0x58EF PUSH1 0x0 DUP1 REVERT JUMPDEST DUP2 CALLDATALOAD PUSH2 0x11B2 DUP5 DUP3 PUSH1 0x20 DUP7 ADD PUSH2 0x587B JUMP JUMPDEST PUSH1 0x0 DUP1 PUSH1 0x0 DUP1 PUSH1 0x0 PUSH1 0xA0 DUP7 DUP9 SUB SLT ISZERO PUSH2 0x591A JUMPI PUSH2 0x591A PUSH1 0x0 DUP1 REVERT JUMPDEST PUSH1 0x0 PUSH2 0x5926 DUP9 DUP9 PUSH2 0x57DB JUMP JUMPDEST SWAP6 POP POP PUSH1 0x20 PUSH2 0x5937 DUP9 DUP3 DUP10 ADD PUSH2 0x57EF JUMP JUMPDEST SWAP5 POP POP PUSH1 0x40 PUSH2 0x5948 DUP9 DUP3 DUP10 ADD PUSH2 0x57EF JUMP JUMPDEST SWAP4 POP POP PUSH1 0x60 PUSH2 0x5959 DUP9 DUP3 DUP10 ADD PUSH2 0x57DB JUMP JUMPDEST SWAP3 POP POP PUSH1 0x80 DUP7 ADD CALLDATALOAD PUSH1 0x1 PUSH1 0x1 PUSH1 0x40 SHL SUB DUP2 GT ISZERO PUSH2 0x5978 JUMPI PUSH2 0x5978 PUSH1 0x0 DUP1 REVERT JUMPDEST PUSH2 0x5984 DUP9 DUP3 DUP10 ADD PUSH2 0x58DB JUMP JUMPDEST SWAP2 POP POP SWAP3 SWAP6 POP SWAP3 SWAP6 SWAP1 SWAP4 POP JUMP JUMPDEST PUSH1 0x0 JUMPDEST DUP4 DUP2 LT ISZERO PUSH2 0x59AC JUMPI DUP2 DUP2 ADD MLOAD DUP4 DUP3 ADD MSTORE PUSH1 0x20 ADD PUSH2 0x5994 JUMP JUMPDEST POP POP PUSH1 0x0 SWAP2 ADD MSTORE JUMP JUMPDEST PUSH1 0x0 PUSH2 0x59BF DUP3 MLOAD SWAP1 JUMP JUMPDEST DUP1 DUP5 MSTORE PUSH1 0x20 DUP5 ADD SWAP4 POP PUSH2 0x59D6 DUP2 DUP6 PUSH1 0x20 DUP7 ADD PUSH2 0x5991 JUMP JUMPDEST PUSH1 0x1F ADD PUSH1 0x1F NOT AND SWAP3 SWAP1 SWAP3 ADD SWAP3 SWAP2 POP POP JUMP JUMPDEST PUSH1 0x20 DUP1 DUP3 MSTORE DUP2 ADD PUSH2 0x10D5 DUP2 DUP5 PUSH2 0x59B5 JUMP JUMPDEST PUSH1 0x0 PUSH1 0x20 DUP3 DUP5 SUB SLT ISZERO PUSH2 0x5A0D JUMPI PUSH2 0x5A0D PUSH1 0x0 DUP1 REVERT JUMPDEST PUSH1 0x0 PUSH2 0x11B2 DUP5 DUP5 PUSH2 0x57DB JUMP JUMPDEST PUSH1 0x0 DUP1 PUSH1 0x40 DUP4 DUP6 SUB SLT ISZERO PUSH2 0x5A2F JUMPI PUSH2 0x5A2F PUSH1 0x0 DUP1 REVERT JUMPDEST PUSH1 0x0 PUSH2 0x5A3B DUP6 DUP6 PUSH2 0x57EF JUMP JUMPDEST SWAP3 POP POP PUSH1 0x20 PUSH2 0x5A4C DUP6 DUP3 DUP7 ADD PUSH2 0x57DB JUMP JUMPDEST SWAP2 POP POP SWAP3 POP SWAP3 SWAP1 POP JUMP JUMPDEST PUSH1 0x0 PUSH1 0x20 DUP3 DUP5 SUB SLT ISZERO PUSH2 0x5A6B JUMPI PUSH2 0x5A6B PUSH1 0x0 DUP1 REVERT JUMPDEST PUSH1 0x0 PUSH2 0x11B2 DUP5 DUP5 PUSH2 0x57EF JUMP JUMPDEST PUSH1 0x0 DUP1 PUSH1 0x0 PUSH1 0x60 DUP5 DUP7 SUB SLT ISZERO PUSH2 0x5A8F JUMPI PUSH2 0x5A8F PUSH1 0x0 DUP1 REVERT JUMPDEST PUSH1 0x0 PUSH2 0x5A9B DUP7 DUP7 PUSH2 0x57EF JUMP JUMPDEST SWAP4 POP POP PUSH1 0x20 PUSH2 0x5AAC DUP7 DUP3 DUP8 ADD PUSH2 0x57EF JUMP JUMPDEST SWAP3 POP POP PUSH1 0x40 PUSH2 0x5ABD DUP7 DUP3 DUP8 ADD PUSH2 0x57DB JUMP JUMPDEST SWAP2 POP POP SWAP3 POP SWAP3 POP SWAP3 JUMP JUMPDEST PUSH1 0x0 PUSH2 0x5AD3 DUP4 DUP4 PUSH2 0x574B JUMP JUMPDEST POP POP PUSH1 0x20 ADD SWAP1 JUMP JUMPDEST PUSH1 0x0 PUSH2 0x5AE5 DUP3 MLOAD SWAP1 JUMP JUMPDEST DUP1 DUP5 MSTORE PUSH1 0x20 SWAP4 DUP5 ADD SWAP4 DUP4 ADD DUP1 PUSH1 0x0 JUMPDEST DUP4 DUP2 LT ISZERO PUSH2 0x5B19 JUMPI DUP2 MLOAD PUSH2 0x5B08 DUP9 DUP3 PUSH2 0x5AC7 JUMP JUMPDEST SWAP8 POP PUSH1 0x20 DUP4 ADD SWAP3 POP POP PUSH1 0x1 ADD PUSH2 0x5AF4 JUMP JUMPDEST POP SWAP5 SWAP6 SWAP5 POP POP POP POP POP JUMP JUMPDEST PUSH1 0x20 DUP1 DUP3 MSTORE DUP2 ADD PUSH2 0x10D5 DUP2 DUP5 PUSH2 0x5ADB JUMP JUMPDEST PUSH1 0x0 DUP1 PUSH1 0x40 DUP4 DUP6 SUB SLT ISZERO PUSH2 0x5B4B JUMPI PUSH2 0x5B4B PUSH1 0x0 DUP1 REVERT JUMPDEST PUSH1 0x0 PUSH2 0x5B57 DUP6 DUP6 PUSH2 0x57DB JUMP JUMPDEST SWAP3 POP POP PUSH1 0x20 PUSH2 0x5A4C DUP6 DUP3 DUP7 ADD PUSH2 0x57EF JUMP JUMPDEST PUSH1 0xFF DUP2 AND PUSH2 0x5754 JUMP JUMPDEST PUSH1 0x20 DUP2 ADD PUSH2 0xFEA DUP3 DUP5 PUSH2 0x5B68 JUMP JUMPDEST PUSH1 0x0 DUP1 PUSH1 0x0 PUSH1 0x60 DUP5 DUP7 SUB SLT ISZERO PUSH2 0x5B97 JUMPI PUSH2 0x5B97 PUSH1 0x0 DUP1 REVERT JUMPDEST PUSH1 0x0 PUSH2 0x5BA3 DUP7 DUP7 PUSH2 0x57EF JUMP JUMPDEST SWAP4 POP POP PUSH1 0x20 PUSH2 0x5BB4 DUP7 DUP3 DUP8 ADD PUSH2 0x57DB JUMP JUMPDEST SWAP3 POP POP PUSH1 0x40 DUP5 ADD CALLDATALOAD PUSH1 0x1 PUSH1 0x1 PUSH1 0x40 SHL SUB DUP2 GT ISZERO PUSH2 0x5BD3 JUMPI PUSH2 0x5BD3 PUSH1 0x0 DUP1 REVERT JUMPDEST PUSH2 0x5ABD DUP7 DUP3 DUP8 ADD PUSH2 0x58DB JUMP JUMPDEST PUSH1 0x80 DUP2 ADD PUSH2 0x5BED DUP3 DUP8 PUSH2 0x5768 JUMP JUMPDEST PUSH2 0x5BFA PUSH1 0x20 DUP4 ADD DUP7 PUSH2 0x5768 JUMP JUMPDEST PUSH2 0x5C07 PUSH1 0x40 DUP4 ADD DUP6 PUSH2 0x5768 JUMP JUMPDEST PUSH2 0x1024 PUSH1 0x60 DUP4 ADD DUP5 PUSH2 0x5768 JUMP JUMPDEST PUSH1 0x0 PUSH2 0xFEA PUSH1 0x1 PUSH1 0x1 PUSH1 0xA0 SHL SUB DUP4 AND PUSH2 0x5C2B JUMP JUMPDEST SWAP1 JUMP JUMPDEST PUSH1 0x1 PUSH1 0x1 PUSH1 0xA0 SHL SUB AND SWAP1 JUMP JUMPDEST PUSH1 0x0 PUSH2 0xFEA DUP3 PUSH2 0x5C14 JUMP JUMPDEST PUSH1 0x0 PUSH2 0xFEA DUP3 PUSH2 0x5C37 JUMP JUMPDEST PUSH2 0x5754 DUP2 PUSH2 0x5C42 JUMP JUMPDEST PUSH1 0x20 DUP2 ADD PUSH2 0xFEA DUP3 DUP5 PUSH2 0x5C4D JUMP JUMPDEST PUSH1 0x0 DUP1 DUP4 PUSH1 0x1F DUP5 ADD SLT PUSH2 0x5C79 JUMPI PUSH2 0x5C79 PUSH1 0x0 DUP1 REVERT JUMPDEST POP DUP2 CALLDATALOAD PUSH1 0x1 PUSH1 0x1 PUSH1 0x40 SHL SUB DUP2 GT ISZERO PUSH2 0x5C93 JUMPI PUSH2 0x5C93 PUSH1 0x0 DUP1 REVERT JUMPDEST PUSH1 0x20 DUP4 ADD SWAP2 POP DUP4 PUSH1 0x20 DUP3 MUL DUP4 ADD GT ISZERO PUSH2 0x4888 JUMPI PUSH2 0x4888 PUSH1 0x0 DUP1 REVERT JUMPDEST PUSH1 0x0 DUP1 PUSH1 0x20 DUP4 DUP6 SUB SLT ISZERO PUSH2 0x5CC4 JUMPI PUSH2 0x5CC4 PUSH1 0x0 DUP1 REVERT JUMPDEST DUP3 CALLDATALOAD PUSH1 0x1 PUSH1 0x1 PUSH1 0x40 SHL SUB DUP2 GT ISZERO PUSH2 0x5CDD JUMPI PUSH2 0x5CDD PUSH1 0x0 DUP1 REVERT JUMPDEST PUSH2 0x5CE9 DUP6 DUP3 DUP7 ADD PUSH2 0x5C64 JUMP JUMPDEST SWAP3 POP SWAP3 POP POP SWAP3 POP SWAP3 SWAP1 POP JUMP JUMPDEST PUSH4 0x4E487B71 PUSH1 0xE0 SHL PUSH1 0x0 MSTORE PUSH1 0x21 PUSH1 0x4 MSTORE PUSH1 0x24 PUSH1 0x0 REVERT JUMPDEST PUSH1 0xE DUP2 LT PUSH2 0x23ED JUMPI PUSH2 0x23ED PUSH2 0x5CF5 JUMP JUMPDEST DUP1 PUSH2 0x5853 DUP2 PUSH2 0x5D0B JUMP JUMPDEST PUSH1 0x0 PUSH2 0xFEA DUP3 PUSH2 0x5D1B JUMP JUMPDEST PUSH2 0x5754 DUP2 PUSH2 0x5D25 JUMP JUMPDEST PUSH1 0x20 DUP2 ADD PUSH2 0xFEA DUP3 DUP5 PUSH2 0x5D30 JUMP JUMPDEST DUP1 ISZERO ISZERO PUSH2 0x5788 JUMP JUMPDEST DUP1 CALLDATALOAD PUSH2 0xFEA DUP2 PUSH2 0x5D47 JUMP JUMPDEST PUSH1 0x0 PUSH1 0x20 DUP3 DUP5 SUB SLT ISZERO PUSH2 0x5D6F JUMPI PUSH2 0x5D6F PUSH1 0x0 DUP1 REVERT JUMPDEST PUSH1 0x0 PUSH2 0x11B2 DUP5 DUP5 PUSH2 0x5D4F JUMP JUMPDEST PUSH1 0x40 DUP2 ADD PUSH2 0x5D89 DUP3 DUP6 PUSH2 0x5768 JUMP JUMPDEST PUSH2 0x10D5 PUSH1 0x20 DUP4 ADD DUP5 PUSH2 0x5768 JUMP JUMPDEST PUSH1 0xFF DUP2 AND PUSH2 0x5788 JUMP JUMPDEST DUP1 CALLDATALOAD PUSH2 0xFEA DUP2 PUSH2 0x5D96 JUMP JUMPDEST PUSH1 0x0 DUP1 PUSH1 0x0 DUP1 PUSH1 0x0 DUP1 PUSH1 0x0 PUSH1 0xE0 DUP9 DUP11 SUB SLT ISZERO PUSH2 0x5DC8 JUMPI PUSH2 0x5DC8 PUSH1 0x0 DUP1 REVERT JUMPDEST PUSH1 0x0 PUSH2 0x5DD4 DUP11 DUP11 PUSH2 0x57EF JUMP JUMPDEST SWAP8 POP POP PUSH1 0x20 PUSH2 0x5DE5 DUP11 DUP3 DUP12 ADD PUSH2 0x57EF JUMP JUMPDEST SWAP7 POP POP PUSH1 0x40 PUSH2 0x5DF6 DUP11 DUP3 DUP12 ADD PUSH2 0x57DB JUMP JUMPDEST SWAP6 POP POP PUSH1 0x60 PUSH2 0x5E07 DUP11 DUP3 DUP12 ADD PUSH2 0x57DB JUMP JUMPDEST SWAP5 POP POP PUSH1 0x80 PUSH2 0x5E18 DUP11 DUP3 DUP12 ADD PUSH2 0x5D9F JUMP JUMPDEST SWAP4 POP POP PUSH1 0xA0 PUSH2 0x5E29 DUP11 DUP3 DUP12 ADD PUSH2 0x57DB JUMP JUMPDEST SWAP3 POP POP PUSH1 0xC0 PUSH2 0x5E3A DUP11 DUP3 DUP12 ADD PUSH2 0x57DB JUMP JUMPDEST SWAP2 POP POP SWAP3 SWAP6 SWAP9 SWAP2 SWAP5 SWAP8 POP SWAP3 SWAP6 POP JUMP JUMPDEST PUSH1 0x0 DUP1 PUSH1 0x40 DUP4 DUP6 SUB SLT ISZERO PUSH2 0x5E5F JUMPI PUSH2 0x5E5F PUSH1 0x0 DUP1 REVERT JUMPDEST PUSH1 0x0 PUSH2 0x5B57 DUP6 DUP6 PUSH2 0x57EF JUMP JUMPDEST PUSH4 0x4E487B71 PUSH1 0xE0 SHL PUSH1 0x0 MSTORE PUSH1 0x22 PUSH1 0x4 MSTORE PUSH1 0x24 PUSH1 0x0 REVERT JUMPDEST PUSH1 0x2 DUP2 DIV PUSH1 0x1 DUP3 AND DUP1 PUSH2 0x5E95 JUMPI PUSH1 0x7F DUP3 AND SWAP2 POP JUMPDEST PUSH1 0x20 DUP3 LT DUP2 SUB PUSH2 0x5EA7 JUMPI PUSH2 0x5EA7 PUSH2 0x5E6B JUMP JUMPDEST POP SWAP2 SWAP1 POP JUMP JUMPDEST PUSH1 0x10 DUP2 MSTORE PUSH1 0x0 PUSH1 0x20 DUP3 ADD PUSH16 0x24B73B30B634B2103932B1B2B4BB32B9 PUSH1 0x81 SHL DUP2 MSTORE SWAP2 POP JUMPDEST POP PUSH1 0x20 ADD SWAP1 JUMP JUMPDEST PUSH1 0x20 DUP1 DUP3 MSTORE DUP2 ADD PUSH2 0xFEA DUP2 PUSH2 0x5EAD JUMP JUMPDEST PUSH1 0x15 DUP2 MSTORE PUSH1 0x0 PUSH1 0x20 DUP3 ADD PUSH21 0x21B7B73A3930B1BA1034B99039B43ABA103237BBB7 PUSH1 0x59 SHL DUP2 MSTORE SWAP2 POP PUSH2 0x5ED0 JUMP JUMPDEST PUSH1 0x20 DUP1 DUP3 MSTORE DUP2 ADD PUSH2 0xFEA DUP2 PUSH2 0x5EE7 JUMP JUMPDEST PUSH1 0x13 DUP2 MSTORE PUSH1 0x0 PUSH1 0x20 DUP3 ADD PUSH19 0x1D5CDA5B99C819195C1BDCDA5D081B1A5B5A5D PUSH1 0x6A SHL DUP2 MSTORE SWAP2 POP PUSH2 0x5ED0 JUMP JUMPDEST PUSH1 0x20 DUP1 DUP3 MSTORE DUP2 ADD PUSH2 0xFEA DUP2 PUSH2 0x5F23 JUMP JUMPDEST PUSH1 0x2F DUP2 MSTORE PUSH1 0x0 PUSH1 0x20 DUP3 ADD PUSH32 0x416363657373436F6E74726F6C3A2063616E206F6E6C792072656E6F756E6365 DUP2 MSTORE PUSH15 0x103937B632B9903337B91039B2B633 PUSH1 0x89 SHL PUSH1 0x20 DUP3 ADD MSTORE SWAP2 POP JUMPDEST POP PUSH1 0x40 ADD SWAP1 JUMP JUMPDEST PUSH1 0x20 DUP1 DUP3 MSTORE DUP2 ADD PUSH2 0xFEA DUP2 PUSH2 0x5F5D JUMP JUMPDEST PUSH1 0xA DUP2 MSTORE PUSH1 0x0 PUSH1 0x20 DUP3 ADD PUSH10 0x6E6F7420616374697665 PUSH1 0xB0 SHL DUP2 MSTORE SWAP2 POP PUSH2 0x5ED0 JUMP JUMPDEST PUSH1 0x20 DUP1 DUP3 MSTORE DUP2 ADD PUSH2 0xFEA DUP2 PUSH2 0x5FBC JUMP JUMPDEST PUSH1 0xE DUP2 MSTORE PUSH1 0x0 PUSH1 0x20 DUP3 ADD PUSH14 0x6E6F7468696E6720746F20627579 PUSH1 0x90 SHL DUP2 MSTORE SWAP2 POP PUSH2 0x5ED0 JUMP JUMPDEST PUSH1 0x20 DUP1 DUP3 MSTORE DUP2 ADD PUSH2 0xFEA DUP2 PUSH2 0x5FED JUMP JUMPDEST PUSH1 0x13 DUP2 MSTORE PUSH1 0x0 PUSH1 0x20 DUP3 ADD PUSH19 0xDCDEE8D0D2DCCE40E8DE40C4EAF240EED2E8D PUSH1 0x6B SHL DUP2 MSTORE SWAP2 POP PUSH2 0x5ED0 JUMP JUMPDEST PUSH1 0x20 DUP1 DUP3 MSTORE DUP2 ADD PUSH2 0xFEA DUP2 PUSH2 0x6022 JUMP JUMPDEST DUP1 MLOAD PUSH2 0xFEA DUP2 PUSH2 0x57D5 JUMP JUMPDEST PUSH1 0x0 PUSH1 0x20 DUP3 DUP5 SUB SLT ISZERO PUSH2 0x607C JUMPI PUSH2 0x607C PUSH1 0x0 DUP1 REVERT JUMPDEST PUSH1 0x0 PUSH2 0x11B2 DUP5 DUP5 PUSH2 0x605C JUMP JUMPDEST PUSH4 0x4E487B71 PUSH1 0xE0 SHL PUSH1 0x0 MSTORE PUSH1 0x11 PUSH1 0x4 MSTORE PUSH1 0x24 PUSH1 0x0 REVERT JUMPDEST PUSH1 0x0 DUP2 PUSH1 0x0 NOT DIV DUP4 GT DUP3 ISZERO ISZERO AND ISZERO PUSH2 0x60B8 JUMPI PUSH2 0x60B8 PUSH2 0x6088 JUMP JUMPDEST POP MUL SWAP1 JUMP JUMPDEST PUSH4 0x4E487B71 PUSH1 0xE0 SHL PUSH1 0x0 MSTORE PUSH1 0x12 PUSH1 0x4 MSTORE PUSH1 0x24 PUSH1 0x0 REVERT JUMPDEST PUSH1 0x0 DUP3 PUSH2 0x60E2 JUMPI PUSH2 0x60E2 PUSH2 0x60BD JUMP JUMPDEST POP DIV SWAP1 JUMP JUMPDEST PUSH1 0xF DUP2 MSTORE PUSH1 0x0 PUSH1 0x20 DUP3 ADD PUSH15 0x63616E6E6F7420627579207A65726F PUSH1 0x88 SHL DUP2 MSTORE SWAP2 POP PUSH2 0x5ED0 JUMP JUMPDEST PUSH1 0x20 DUP1 DUP3 MSTORE DUP2 ADD PUSH2 0xFEA DUP2 PUSH2 0x60E7 JUMP JUMPDEST DUP2 DUP2 SUB DUP2 DUP2 GT ISZERO PUSH2 0xFEA JUMPI PUSH2 0xFEA PUSH2 0x6088 JUMP JUMPDEST DUP1 DUP3 ADD DUP1 DUP3 GT ISZERO PUSH2 0xFEA JUMPI PUSH2 0xFEA PUSH2 0x6088 JUMP JUMPDEST PUSH1 0x29 DUP2 MSTORE PUSH1 0x0 PUSH1 0x20 DUP3 ADD PUSH32 0x53747261746567792064656274206973206C657373207468616E206173736574 DUP2 MSTORE PUSH9 0x39903732B2B232B217 PUSH1 0xB9 SHL PUSH1 0x20 DUP3 ADD MSTORE SWAP2 POP PUSH2 0x5FA5 JUMP JUMPDEST PUSH1 0x20 DUP1 DUP3 MSTORE DUP2 ADD PUSH2 0xFEA DUP2 PUSH2 0x6143 JUMP JUMPDEST PUSH4 0x4E487B71 PUSH1 0xE0 SHL PUSH1 0x0 MSTORE PUSH1 0x32 PUSH1 0x4 MSTORE PUSH1 0x24 PUSH1 0x0 REVERT JUMPDEST PUSH1 0x11 DUP2 MSTORE PUSH1 0x0 PUSH1 0x20 DUP3 ADD PUSH17 0x496E616374697665207374726174656779 PUSH1 0x78 SHL DUP2 MSTORE SWAP2 POP PUSH2 0x5ED0 JUMP JUMPDEST PUSH1 0x20 DUP1 DUP3 MSTORE DUP2 ADD PUSH2 0xFEA DUP2 PUSH2 0x61AF JUMP JUMPDEST PUSH1 0x0 PUSH1 0x0 NOT DUP3 SUB PUSH2 0x61FA JUMPI PUSH2 0x61FA PUSH2 0x6088 JUMP JUMPDEST POP PUSH1 0x1 ADD SWAP1 JUMP JUMPDEST PUSH1 0x0 PUSH2 0x10D5 PUSH1 0x20 DUP5 ADD DUP5 PUSH2 0x57EF JUMP JUMPDEST DUP2 DUP4 MSTORE PUSH1 0x0 PUSH1 0x20 DUP5 ADD SWAP4 POP DUP2 DUP1 PUSH1 0x0 JUMPDEST DUP6 DUP2 LT ISZERO PUSH2 0x5B19 JUMPI PUSH2 0x6232 DUP3 DUP5 PUSH2 0x6201 JUMP JUMPDEST PUSH2 0x623C DUP9 DUP3 PUSH2 0x5AC7 JUMP JUMPDEST SWAP8 POP PUSH1 0x20 DUP4 ADD SWAP3 POP POP PUSH1 0x1 ADD PUSH2 0x6220 JUMP JUMPDEST PUSH1 0x20 DUP1 DUP3 MSTORE DUP2 ADD PUSH2 0x11B2 DUP2 DUP5 DUP7 PUSH2 0x6210 JUMP JUMPDEST PUSH1 0x25 DUP2 MSTORE PUSH1 0x0 PUSH1 0x20 DUP3 ADD PUSH32 0x43616C6C6572206973206E6F74207468652066757475726520726F6C65206D61 DUP2 MSTORE PUSH5 0x3730B3B2B9 PUSH1 0xD9 SHL PUSH1 0x20 DUP3 ADD MSTORE SWAP2 POP PUSH2 0x5FA5 JUMP JUMPDEST PUSH1 0x20 DUP1 DUP3 MSTORE DUP2 ADD PUSH2 0xFEA DUP2 PUSH2 0x625F JUMP JUMPDEST DUP1 DUP3 JUMPDEST PUSH1 0x1 DUP6 GT ISZERO PUSH2 0x62F0 JUMPI DUP1 DUP7 DIV DUP2 GT ISZERO PUSH2 0x62CF JUMPI PUSH2 0x62CF PUSH2 0x6088 JUMP JUMPDEST PUSH1 0x1 DUP6 AND ISZERO PUSH2 0x62DD JUMPI SWAP1 DUP2 MUL SWAP1 JUMPDEST DUP1 MUL PUSH2 0x62E9 DUP6 PUSH1 0x1 SHR SWAP1 JUMP JUMPDEST SWAP5 POP PUSH2 0x62B4 JUMP JUMPDEST SWAP5 POP SWAP5 SWAP3 POP POP POP JUMP JUMPDEST PUSH1 0x0 DUP3 PUSH2 0x6308 JUMPI POP PUSH1 0x1 PUSH2 0x10D5 JUMP JUMPDEST DUP2 PUSH2 0x6315 JUMPI POP PUSH1 0x0 PUSH2 0x10D5 JUMP JUMPDEST DUP2 PUSH1 0x1 DUP2 EQ PUSH2 0x632B JUMPI PUSH1 0x2 DUP2 EQ PUSH2 0x6335 JUMPI PUSH2 0x6362 JUMP JUMPDEST PUSH1 0x1 SWAP2 POP POP PUSH2 0x10D5 JUMP JUMPDEST PUSH1 0xFF DUP5 GT ISZERO PUSH2 0x6346 JUMPI PUSH2 0x6346 PUSH2 0x6088 JUMP JUMPDEST DUP4 PUSH1 0x2 EXP SWAP2 POP DUP5 DUP3 GT ISZERO PUSH2 0x635C JUMPI PUSH2 0x635C PUSH2 0x6088 JUMP JUMPDEST POP PUSH2 0x10D5 JUMP JUMPDEST POP PUSH1 0x20 DUP4 LT PUSH2 0x133 DUP4 LT AND PUSH1 0x4E DUP5 LT PUSH1 0xB DUP5 LT AND OR ISZERO PUSH2 0x6395 JUMPI POP DUP2 DUP2 EXP DUP4 DUP2 GT ISZERO PUSH2 0x6390 JUMPI PUSH2 0x6390 PUSH2 0x6088 JUMP JUMPDEST PUSH2 0x10D5 JUMP JUMPDEST PUSH2 0x63A2 DUP5 DUP5 DUP5 PUSH1 0x1 PUSH2 0x62B1 JUMP JUMPDEST SWAP3 POP SWAP1 POP DUP2 DUP5 DIV DUP2 GT ISZERO PUSH2 0x63B8 JUMPI PUSH2 0x63B8 PUSH2 0x6088 JUMP JUMPDEST MUL SWAP3 SWAP2 POP POP JUMP JUMPDEST PUSH1 0x0 PUSH2 0x10D5 PUSH1 0x0 NOT DUP5 DUP5 PUSH2 0x62F9 JUMP JUMPDEST PUSH1 0xC DUP2 MSTORE PUSH1 0x0 PUSH1 0x20 DUP3 ADD PUSH12 0x7573696E67206D6F64756C65 PUSH1 0xA0 SHL DUP2 MSTORE SWAP2 POP PUSH2 0x5ED0 JUMP JUMPDEST PUSH1 0x20 DUP1 DUP3 MSTORE DUP2 ADD PUSH2 0xFEA DUP2 PUSH2 0x63CE JUMP JUMPDEST PUSH1 0x1B DUP2 MSTORE PUSH1 0x0 PUSH1 0x20 DUP3 ADD PUSH32 0x50726F66697420756E6C6F636B2074696D6520746F6F206C6F6E670000000000 DUP2 MSTORE SWAP2 POP PUSH2 0x5ED0 JUMP JUMPDEST PUSH1 0x20 DUP1 DUP3 MSTORE DUP2 ADD PUSH2 0xFEA DUP2 PUSH2 0x6401 JUMP JUMPDEST PUSH1 0x1A DUP2 MSTORE PUSH1 0x0 PUSH1 0x20 DUP3 ADD PUSH32 0x5661756C7420697320616C7265616479207368757420646F776E000000000000 DUP2 MSTORE SWAP2 POP PUSH2 0x5ED0 JUMP JUMPDEST PUSH1 0x20 DUP1 DUP3 MSTORE DUP2 ADD PUSH2 0xFEA DUP2 PUSH2 0x6445 JUMP JUMPDEST PUSH1 0x0 PUSH2 0xFEA PUSH2 0x5C28 DUP4 DUP2 JUMP JUMPDEST PUSH2 0x5754 DUP2 PUSH2 0x6489 JUMP JUMPDEST PUSH1 0x20 DUP2 ADD PUSH2 0xFEA DUP3 DUP5 PUSH2 0x6495 JUMP JUMPDEST PUSH1 0x11 DUP2 MSTORE PUSH1 0x0 PUSH1 0x20 DUP3 ADD PUSH17 0x696E616374697665207374726174656779 PUSH1 0x78 SHL DUP2 MSTORE SWAP2 POP PUSH2 0x5ED0 JUMP JUMPDEST PUSH1 0x20 DUP1 DUP3 MSTORE DUP2 ADD PUSH2 0xFEA DUP2 PUSH2 0x64AC JUMP JUMPDEST PUSH1 0x1F DUP2 MSTORE PUSH1 0x0 PUSH1 0x20 DUP3 ADD PUSH32 0x5265656E7472616E637947756172643A207265656E7472616E742063616C6C00 DUP2 MSTORE SWAP2 POP PUSH2 0x5ED0 JUMP JUMPDEST PUSH1 0x20 DUP1 DUP3 MSTORE DUP2 ADD PUSH2 0xFEA DUP2 PUSH2 0x64E4 JUMP JUMPDEST PUSH1 0x0 DUP3 PUSH2 0x6537 JUMPI PUSH2 0x6537 PUSH2 0x60BD JUMP JUMPDEST POP MOD SWAP1 JUMP JUMPDEST PUSH1 0x24 DUP2 MSTORE PUSH1 0x0 PUSH1 0x20 DUP3 ADD PUSH32 0x45524332303A20617070726F76652066726F6D20746865207A65726F20616464 DUP2 MSTORE PUSH4 0x72657373 PUSH1 0xE0 SHL PUSH1 0x20 DUP3 ADD MSTORE SWAP2 POP PUSH2 0x5FA5 JUMP JUMPDEST PUSH1 0x20 DUP1 DUP3 MSTORE DUP2 ADD PUSH2 0xFEA DUP2 PUSH2 0x653C JUMP JUMPDEST PUSH1 0x22 DUP2 MSTORE PUSH1 0x0 PUSH1 0x20 DUP3 ADD PUSH32 0x45524332303A20617070726F766520746F20746865207A65726F206164647265 DUP2 MSTORE PUSH2 0x7373 PUSH1 0xF0 SHL PUSH1 0x20 DUP3 ADD MSTORE SWAP2 POP PUSH2 0x5FA5 JUMP JUMPDEST PUSH1 0x20 DUP1 DUP3 MSTORE DUP2 ADD PUSH2 0xFEA DUP2 PUSH2 0x658D JUMP JUMPDEST PUSH1 0x13 DUP2 MSTORE PUSH1 0x0 PUSH1 0x20 DUP3 ADD PUSH19 0x7374726174656779206E6F7420616374697665 PUSH1 0x68 SHL DUP2 MSTORE SWAP2 POP PUSH2 0x5ED0 JUMP JUMPDEST PUSH1 0x20 DUP1 DUP3 MSTORE DUP2 ADD PUSH2 0xFEA DUP2 PUSH2 0x65DC JUMP JUMPDEST PUSH1 0x11 DUP2 MSTORE PUSH1 0x0 PUSH1 0x20 DUP3 ADD PUSH17 0x1CDD1C985D1959DE481A185CC81919589D PUSH1 0x7A SHL DUP2 MSTORE SWAP2 POP PUSH2 0x5ED0 JUMP JUMPDEST PUSH1 0x20 DUP1 DUP3 MSTORE DUP2 ADD PUSH2 0xFEA DUP2 PUSH2 0x6616 JUMP JUMPDEST PUSH1 0xC0 DUP2 ADD PUSH2 0x665C DUP3 DUP10 PUSH2 0x6495 JUMP JUMPDEST PUSH2 0x6669 PUSH1 0x20 DUP4 ADD DUP9 PUSH2 0x5768 JUMP JUMPDEST PUSH2 0x6676 PUSH1 0x40 DUP4 ADD DUP8 PUSH2 0x6495 JUMP JUMPDEST PUSH2 0x6683 PUSH1 0x60 DUP4 ADD DUP7 PUSH2 0x6495 JUMP JUMPDEST PUSH2 0x6690 PUSH1 0x80 DUP4 ADD DUP6 PUSH2 0x6495 JUMP JUMPDEST PUSH2 0x1D98 PUSH1 0xA0 DUP4 ADD DUP5 PUSH2 0x6495 JUMP JUMPDEST PUSH1 0x2 DUP2 LT PUSH2 0x23ED JUMPI PUSH2 0x23ED PUSH2 0x5CF5 JUMP JUMPDEST DUP1 PUSH2 0x5853 DUP2 PUSH2 0x669D JUMP JUMPDEST PUSH1 0x0 PUSH2 0xFEA DUP3 PUSH2 0x66AD JUMP JUMPDEST PUSH2 0x5754 DUP2 PUSH2 0x66B7 JUMP JUMPDEST PUSH1 0x20 DUP2 ADD PUSH2 0xFEA DUP3 DUP5 PUSH2 0x66C2 JUMP JUMPDEST PUSH1 0x1F DUP2 MSTORE PUSH1 0x0 PUSH1 0x20 DUP3 ADD PUSH32 0x73747261746567792063616E6E6F74206265207A65726F206164647265737300 DUP2 MSTORE SWAP2 POP PUSH2 0x5ED0 JUMP JUMPDEST PUSH1 0x20 DUP1 DUP3 MSTORE DUP2 ADD PUSH2 0xFEA DUP2 PUSH2 0x66D9 JUMP JUMPDEST DUP1 MLOAD PUSH2 0xFEA DUP2 PUSH2 0x57E6 JUMP JUMPDEST PUSH1 0x0 PUSH1 0x20 DUP3 DUP5 SUB SLT ISZERO PUSH2 0x673D JUMPI PUSH2 0x673D PUSH1 0x0 DUP1 REVERT JUMPDEST PUSH1 0x0 PUSH2 0x11B2 DUP5 DUP5 PUSH2 0x671D JUMP JUMPDEST PUSH1 0xD DUP2 MSTORE PUSH1 0x0 PUSH1 0x20 DUP3 ADD PUSH13 0x1A5B9D985B1A5908185CDCD95D PUSH1 0x9A SHL DUP2 MSTORE SWAP2 POP PUSH2 0x5ED0 JUMP JUMPDEST PUSH1 0x20 DUP1 DUP3 MSTORE DUP2 ADD PUSH2 0xFEA DUP2 PUSH2 0x6749 JUMP JUMPDEST PUSH1 0x17 DUP2 MSTORE PUSH1 0x0 PUSH1 0x20 DUP3 ADD PUSH23 0x737472617465677920616C726561647920616374697665 PUSH1 0x48 SHL DUP2 MSTORE SWAP2 POP PUSH2 0x5ED0 JUMP JUMPDEST PUSH1 0x20 DUP1 DUP3 MSTORE DUP2 ADD PUSH2 0xFEA DUP2 PUSH2 0x677D JUMP JUMPDEST PUSH1 0x60 DUP2 ADD PUSH2 0x67C9 DUP3 DUP7 PUSH2 0x574B JUMP JUMPDEST PUSH2 0x67D6 PUSH1 0x20 DUP4 ADD DUP6 PUSH2 0x5768 JUMP JUMPDEST DUP2 DUP2 SUB PUSH1 0x40 DUP4 ADD MSTORE PUSH2 0x1024 DUP2 DUP5 PUSH2 0x5ADB JUMP JUMPDEST PUSH1 0x1C DUP2 MSTORE PUSH1 0x0 PUSH1 0x20 DUP3 ADD PUSH32 0x546F6B656E20616464726573732063616E6E6F74206265207A65726F00000000 DUP2 MSTORE SWAP2 POP PUSH2 0x5ED0 JUMP JUMPDEST PUSH1 0x20 DUP1 DUP3 MSTORE DUP2 ADD PUSH2 0xFEA DUP2 PUSH2 0x67E8 JUMP JUMPDEST PUSH1 0x1D DUP2 MSTORE PUSH1 0x0 PUSH1 0x20 DUP3 ADD PUSH32 0x53656E64657220616464726573732063616E6E6F74206265207A65726F000000 DUP2 MSTORE SWAP2 POP PUSH2 0x5ED0 JUMP JUMPDEST PUSH1 0x20 DUP1 DUP3 MSTORE DUP2 ADD PUSH2 0xFEA DUP2 PUSH2 0x682C JUMP JUMPDEST PUSH1 0x1F DUP2 MSTORE PUSH1 0x0 PUSH1 0x20 DUP3 ADD PUSH32 0x526563656976657220616464726573732063616E6E6F74206265207A65726F00 DUP2 MSTORE SWAP2 POP PUSH2 0x5ED0 JUMP JUMPDEST PUSH1 0x20 DUP1 DUP3 MSTORE DUP2 ADD PUSH2 0xFEA DUP2 PUSH2 0x6870 JUMP JUMPDEST PUSH1 0x60 DUP2 ADD PUSH2 0x68C2 DUP3 DUP7 PUSH2 0x574B JUMP JUMPDEST PUSH2 0x68CF PUSH1 0x20 DUP4 ADD DUP6 PUSH2 0x574B JUMP JUMPDEST PUSH2 0x11B2 PUSH1 0x40 DUP4 ADD DUP5 PUSH2 0x5768 JUMP JUMPDEST DUP1 MLOAD PUSH2 0xFEA DUP2 PUSH2 0x5D47 JUMP JUMPDEST PUSH1 0x0 PUSH1 0x20 DUP3 DUP5 SUB SLT ISZERO PUSH2 0x68FC JUMPI PUSH2 0x68FC PUSH1 0x0 DUP1 REVERT JUMPDEST PUSH1 0x0 PUSH2 0x11B2 DUP5 DUP5 PUSH2 0x68DC JUMP JUMPDEST PUSH1 0xF DUP2 MSTORE PUSH1 0x0 PUSH1 0x20 DUP3 ADD PUSH15 0x1D1C985B9CD9995C8819985A5B1959 PUSH1 0x8A SHL DUP2 MSTORE SWAP2 POP PUSH2 0x5ED0 JUMP JUMPDEST PUSH1 0x20 DUP1 DUP3 MSTORE DUP2 ADD PUSH2 0xFEA DUP2 PUSH2 0x6908 JUMP JUMPDEST PUSH1 0x40 DUP2 ADD PUSH2 0x5D89 DUP3 DUP6 PUSH2 0x574B JUMP JUMPDEST PUSH1 0x1C DUP2 MSTORE PUSH1 0x0 PUSH1 0x20 DUP3 ADD PUSH32 0x4E6577206465627420657175616C732063757272656E74206465627400000000 DUP2 MSTORE SWAP2 POP PUSH2 0x5ED0 JUMP JUMPDEST PUSH1 0x20 DUP1 DUP3 MSTORE DUP2 ADD PUSH2 0xFEA DUP2 PUSH2 0x694C JUMP JUMPDEST PUSH1 0x13 DUP2 MSTORE PUSH1 0x0 PUSH1 0x20 DUP3 ADD PUSH19 0x4E6F7468696E6720746F207769746864726177 PUSH1 0x68 SHL DUP2 MSTORE SWAP2 POP PUSH2 0x5ED0 JUMP JUMPDEST PUSH1 0x20 DUP1 DUP3 MSTORE DUP2 ADD PUSH2 0xFEA DUP2 PUSH2 0x6990 JUMP JUMPDEST PUSH1 0x1E DUP2 MSTORE PUSH1 0x0 PUSH1 0x20 DUP3 ADD PUSH32 0x73747261746567792068617320756E7265616C69736564206C6F737365730000 DUP2 MSTORE SWAP2 POP PUSH2 0x5ED0 JUMP JUMPDEST PUSH1 0x20 DUP1 DUP3 MSTORE DUP2 ADD PUSH2 0xFEA DUP2 PUSH2 0x69CA JUMP JUMPDEST PUSH1 0x20 DUP1 DUP3 MSTORE PUSH32 0x546172676574206465627420686967686572207468616E206D61782064656274 SWAP2 ADD SWAP1 DUP2 MSTORE PUSH1 0x0 PUSH2 0x5ED0 JUMP JUMPDEST PUSH1 0x20 DUP1 DUP3 MSTORE DUP2 ADD PUSH2 0xFEA DUP2 PUSH2 0x6A0E JUMP JUMPDEST PUSH1 0x12 DUP2 MSTORE PUSH1 0x0 PUSH1 0x20 DUP3 ADD PUSH18 0x139BDD1A1A5B99C81D1BC819195C1BDCDA5D PUSH1 0x72 SHL DUP2 MSTORE SWAP2 POP PUSH2 0x5ED0 JUMP JUMPDEST PUSH1 0x20 DUP1 DUP3 MSTORE DUP2 ADD PUSH2 0xFEA DUP2 PUSH2 0x6A50 JUMP JUMPDEST PUSH1 0x13 DUP2 MSTORE PUSH1 0x0 PUSH1 0x20 DUP3 ADD PUSH19 0x139BC8199D5B991CC81D1BC819195C1BDCDA5D PUSH1 0x6A SHL DUP2 MSTORE SWAP2 POP PUSH2 0x5ED0 JUMP JUMPDEST PUSH1 0x20 DUP1 DUP3 MSTORE DUP2 ADD PUSH2 0xFEA DUP2 PUSH2 0x6A89 JUMP JUMPDEST PUSH1 0x40 DUP2 ADD PUSH2 0x6AD1 DUP3 DUP6 PUSH2 0x5768 JUMP JUMPDEST PUSH2 0x10D5 PUSH1 0x20 DUP4 ADD DUP5 PUSH2 0x574B JUMP JUMPDEST PUSH1 0x8 DUP2 MSTORE PUSH1 0x0 PUSH1 0x20 DUP3 ADD PUSH8 0x39B43ABA3237BBB7 PUSH1 0xC1 SHL DUP2 MSTORE SWAP2 POP PUSH2 0x5ED0 JUMP JUMPDEST PUSH1 0x20 DUP1 DUP3 MSTORE DUP2 ADD PUSH2 0xFEA DUP2 PUSH2 0x6ADE JUMP JUMPDEST PUSH1 0x14 DUP2 MSTORE PUSH1 0x0 PUSH1 0x20 DUP3 ADD PUSH20 0x195E18D959590819195C1BDCDA5D081B1A5B5A5D PUSH1 0x62 SHL DUP2 MSTORE SWAP2 POP PUSH2 0x5ED0 JUMP JUMPDEST PUSH1 0x20 DUP1 DUP3 MSTORE DUP2 ADD PUSH2 0xFEA DUP2 PUSH2 0x6B0D JUMP JUMPDEST PUSH1 0x10 DUP2 MSTORE PUSH1 0x0 PUSH1 0x20 DUP3 ADD PUSH16 0x63616E6E6F74206D696E74207A65726F PUSH1 0x80 SHL DUP2 MSTORE SWAP2 POP PUSH2 0x5ED0 JUMP JUMPDEST PUSH1 0x20 DUP1 DUP3 MSTORE DUP2 ADD PUSH2 0xFEA DUP2 PUSH2 0x6B48 JUMP JUMPDEST PUSH1 0x13 DUP2 MSTORE PUSH1 0x0 PUSH1 0x20 DUP3 ADD PUSH19 0x63616E6E6F74206465706F736974207A65726F PUSH1 0x68 SHL DUP2 MSTORE SWAP2 POP PUSH2 0x5ED0 JUMP JUMPDEST PUSH1 0x20 DUP1 DUP3 MSTORE DUP2 ADD PUSH2 0xFEA DUP2 PUSH2 0x6B7F JUMP JUMPDEST PUSH1 0x12 DUP2 MSTORE PUSH1 0x0 PUSH1 0x20 DUP3 ADD PUSH18 0x696E73756666696369656E742066756E6473 PUSH1 0x70 SHL DUP2 MSTORE SWAP2 POP PUSH2 0x5ED0 JUMP JUMPDEST PUSH1 0x20 DUP1 DUP3 MSTORE DUP2 ADD PUSH2 0xFEA DUP2 PUSH2 0x6BB9 JUMP JUMPDEST PUSH1 0x25 DUP2 MSTORE PUSH1 0x0 PUSH1 0x20 DUP3 ADD PUSH32 0x45524332303A207472616E736665722066726F6D20746865207A65726F206164 DUP2 MSTORE PUSH5 0x6472657373 PUSH1 0xD8 SHL PUSH1 0x20 DUP3 ADD MSTORE SWAP2 POP PUSH2 0x5FA5 JUMP JUMPDEST PUSH1 0x20 DUP1 DUP3 MSTORE DUP2 ADD PUSH2 0xFEA DUP2 PUSH2 0x6BF2 JUMP JUMPDEST PUSH1 0x23 DUP2 MSTORE PUSH1 0x0 PUSH1 0x20 DUP3 ADD PUSH32 0x45524332303A207472616E7366657220746F20746865207A65726F2061646472 DUP2 MSTORE PUSH3 0x657373 PUSH1 0xE8 SHL PUSH1 0x20 DUP3 ADD MSTORE SWAP2 POP PUSH2 0x5FA5 JUMP JUMPDEST PUSH1 0x20 DUP1 DUP3 MSTORE DUP2 ADD PUSH2 0xFEA DUP2 PUSH2 0x6C44 JUMP JUMPDEST PUSH1 0xC0 DUP2 ADD PUSH2 0x6CA2 DUP3 DUP10 PUSH2 0x5768 JUMP JUMPDEST PUSH2 0x6CAF PUSH1 0x20 DUP4 ADD DUP9 PUSH2 0x5768 JUMP JUMPDEST PUSH2 0x6CBC PUSH1 0x40 DUP4 ADD DUP8 PUSH2 0x5768 JUMP JUMPDEST PUSH2 0x6CC9 PUSH1 0x60 DUP4 ADD DUP7 PUSH2 0x5768 JUMP JUMPDEST PUSH2 0x6CD6 PUSH1 0x80 DUP4 ADD DUP6 PUSH2 0x5768 JUMP JUMPDEST PUSH2 0x1D98 PUSH1 0xA0 DUP4 ADD DUP5 PUSH2 0x5768 JUMP JUMPDEST PUSH1 0x1A DUP2 MSTORE PUSH1 0x0 PUSH1 0x20 DUP3 ADD PUSH32 0x45524332305065726D69743A20696E76616C6964206F776E6572000000000000 DUP2 MSTORE SWAP2 POP PUSH2 0x5ED0 JUMP JUMPDEST PUSH1 0x20 DUP1 DUP3 MSTORE DUP2 ADD PUSH2 0xFEA DUP2 PUSH2 0x6CE3 JUMP JUMPDEST PUSH1 0x1D DUP2 MSTORE PUSH1 0x0 PUSH1 0x20 DUP3 ADD PUSH32 0x45524332305065726D69743A206578706972656420646561646C696E65000000 DUP2 MSTORE SWAP2 POP PUSH2 0x5ED0 JUMP JUMPDEST PUSH1 0x20 DUP1 DUP3 MSTORE DUP2 ADD PUSH2 0xFEA DUP2 PUSH2 0x6D27 JUMP JUMPDEST PUSH1 0xC0 DUP2 ADD PUSH2 0x6D79 DUP3 DUP10 PUSH2 0x5768 JUMP JUMPDEST PUSH2 0x6D86 PUSH1 0x20 DUP4 ADD DUP9 PUSH2 0x574B JUMP JUMPDEST PUSH2 0x6CBC PUSH1 0x40 DUP4 ADD DUP8 PUSH2 0x574B JUMP JUMPDEST PUSH2 0x1901 PUSH1 0xF0 SHL DUP2 MSTORE PUSH1 0x2 ADD PUSH1 0x0 PUSH2 0x6DAA DUP3 DUP6 PUSH2 0x5768 JUMP JUMPDEST PUSH1 0x20 DUP3 ADD SWAP2 POP PUSH2 0x6DBA DUP3 DUP5 PUSH2 0x5768 JUMP JUMPDEST POP PUSH1 0x20 ADD SWAP3 SWAP2 POP POP JUMP JUMPDEST PUSH1 0x80 DUP2 ADD PUSH2 0x6DD2 DUP3 DUP8 PUSH2 0x5768 JUMP JUMPDEST PUSH2 0x5BFA PUSH1 0x20 DUP4 ADD DUP7 PUSH2 0x5B68 JUMP JUMPDEST PUSH1 0x1E DUP2 MSTORE PUSH1 0x0 PUSH1 0x20 DUP3 ADD PUSH32 0x45524332305065726D69743A20696E76616C6964207369676E61747572650000 DUP2 MSTORE SWAP2 POP PUSH2 0x5ED0 JUMP JUMPDEST PUSH1 0x20 DUP1 DUP3 MSTORE DUP2 ADD PUSH2 0xFEA DUP2 PUSH2 0x6DDF JUMP JUMPDEST PUSH1 0x13 DUP2 MSTORE PUSH1 0x0 PUSH1 0x20 DUP3 ADD PUSH19 0x496E73756666696369656E7420736861726573 PUSH1 0x68 SHL DUP2 MSTORE SWAP2 POP PUSH2 0x5ED0 JUMP JUMPDEST PUSH1 0x20 DUP1 DUP3 MSTORE DUP2 ADD PUSH2 0xFEA DUP2 PUSH2 0x6E23 JUMP JUMPDEST PUSH1 0xC DUP2 MSTORE PUSH1 0x0 PUSH1 0x20 DUP3 ADD PUSH12 0x5A45524F2041444452455353 PUSH1 0xA0 SHL DUP2 MSTORE SWAP2 POP PUSH2 0x5ED0 JUMP JUMPDEST PUSH1 0x20 DUP1 DUP3 MSTORE DUP2 ADD PUSH2 0xFEA DUP2 PUSH2 0x6E5D JUMP JUMPDEST PUSH1 0x8 DUP2 MSTORE PUSH1 0x0 PUSH1 0x20 DUP3 ADD PUSH8 0x6D6178206C6F7373 PUSH1 0xC0 SHL DUP2 MSTORE SWAP2 POP PUSH2 0x5ED0 JUMP JUMPDEST PUSH1 0x20 DUP1 DUP3 MSTORE DUP2 ADD PUSH2 0xFEA DUP2 PUSH2 0x6E90 JUMP JUMPDEST PUSH1 0x13 DUP2 MSTORE PUSH1 0x0 PUSH1 0x20 DUP3 ADD PUSH19 0x6E6F2073686172657320746F2072656465656D PUSH1 0x68 SHL DUP2 MSTORE SWAP2 POP PUSH2 0x5ED0 JUMP JUMPDEST PUSH1 0x20 DUP1 DUP3 MSTORE DUP2 ADD PUSH2 0xFEA DUP2 PUSH2 0x6EBF JUMP JUMPDEST PUSH1 0x13 DUP2 MSTORE PUSH1 0x0 PUSH1 0x20 DUP3 ADD PUSH19 0x696E73756666696369656E7420736861726573 PUSH1 0x68 SHL DUP2 MSTORE SWAP2 POP PUSH2 0x5ED0 JUMP JUMPDEST PUSH1 0x20 DUP1 DUP3 MSTORE DUP2 ADD PUSH2 0xFEA DUP2 PUSH2 0x6EF9 JUMP JUMPDEST PUSH1 0x1C DUP2 MSTORE PUSH1 0x0 PUSH1 0x20 DUP3 ADD PUSH32 0x696E73756666696369656E742061737365747320696E207661756C7400000000 DUP2 MSTORE SWAP2 POP PUSH2 0x5ED0 JUMP JUMPDEST PUSH1 0x20 DUP1 DUP3 MSTORE DUP2 ADD PUSH2 0xFEA DUP2 PUSH2 0x6F33 JUMP JUMPDEST PUSH1 0xD DUP2 MSTORE PUSH1 0x0 PUSH1 0x20 DUP3 ADD PUSH13 0x746F6F206D756368206C6F7373 PUSH1 0x98 SHL DUP2 MSTORE SWAP2 POP PUSH2 0x5ED0 JUMP JUMPDEST PUSH1 0x20 DUP1 DUP3 MSTORE DUP2 ADD PUSH2 0xFEA DUP2 PUSH2 0x6F77 JUMP JUMPDEST PUSH1 0x0 PUSH2 0x6FB5 DUP3 MLOAD SWAP1 JUMP JUMPDEST PUSH2 0x6FC3 DUP2 DUP6 PUSH1 0x20 DUP7 ADD PUSH2 0x5991 JUMP JUMPDEST SWAP3 SWAP1 SWAP3 ADD SWAP3 SWAP2 POP POP JUMP JUMPDEST PUSH23 0x20B1B1B2B9B9A1B7B73A3937B61D1030B1B1B7BAB73A1 PUSH1 0x4D SHL DUP2 MSTORE PUSH1 0x17 ADD PUSH1 0x0 PUSH2 0x6FF9 DUP3 DUP6 PUSH2 0x6FAB JUMP JUMPDEST PUSH17 0x1034B99036B4B9B9B4B733903937B6329 PUSH1 0x7D SHL DUP2 MSTORE PUSH1 0x11 ADD SWAP2 POP PUSH2 0x11B2 DUP3 DUP5 PUSH2 0x6FAB JUMP JUMPDEST PUSH1 0x1D DUP2 MSTORE PUSH1 0x0 PUSH1 0x20 DUP3 ADD PUSH32 0x45524332303A20696E73756666696369656E7420616C6C6F77616E6365000000 DUP2 MSTORE SWAP2 POP PUSH2 0x5ED0 JUMP JUMPDEST PUSH1 0x20 DUP1 DUP3 MSTORE DUP2 ADD PUSH2 0xFEA DUP2 PUSH2 0x701F JUMP JUMPDEST PUSH1 0x60 DUP2 ADD PUSH2 0x7071 DUP3 DUP7 PUSH2 0x5768 JUMP JUMPDEST PUSH2 0x707E PUSH1 0x20 DUP4 ADD DUP6 PUSH2 0x574B JUMP JUMPDEST PUSH2 0x11B2 PUSH1 0x40 DUP4 ADD DUP5 PUSH2 0x574B JUMP JUMPDEST PUSH1 0x1E DUP2 MSTORE PUSH1 0x0 PUSH1 0x20 DUP3 ADD PUSH32 0x5370656E64657220616464726573732063616E6E6F74206265207A65726F0000 DUP2 MSTORE SWAP2 POP PUSH2 0x5ED0 JUMP JUMPDEST PUSH1 0x20 DUP1 DUP3 MSTORE DUP2 ADD PUSH2 0xFEA DUP2 PUSH2 0x708B JUMP JUMPDEST PUSH1 0xF DUP2 MSTORE PUSH1 0x0 PUSH1 0x20 DUP3 ADD PUSH15 0x185C1C1C9BDD985B0819985A5B1959 PUSH1 0x8A SHL DUP2 MSTORE SWAP2 POP PUSH2 0x5ED0 JUMP JUMPDEST PUSH1 0x20 DUP1 DUP3 MSTORE DUP2 ADD PUSH2 0xFEA DUP2 PUSH2 0x70CF JUMP JUMPDEST PUSH1 0x20 DUP1 DUP3 MSTORE PUSH32 0x526563697069656E7420616464726573732063616E6E6F74206265207A65726F SWAP2 ADD SWAP1 DUP2 MSTORE PUSH1 0x0 PUSH2 0x5ED0 JUMP JUMPDEST PUSH1 0x20 DUP1 DUP3 MSTORE DUP2 ADD PUSH2 0xFEA DUP2 PUSH2 0x7105 JUMP JUMPDEST PUSH1 0xF DUP2 MSTORE PUSH1 0x0 PUSH1 0x20 DUP3 ADD PUSH15 0xC2DADEEADCE840E8DEDE40D0D2CED PUSH1 0x8B SHL DUP2 MSTORE SWAP2 POP PUSH2 0x5ED0 JUMP JUMPDEST PUSH1 0x20 DUP1 DUP3 MSTORE DUP2 ADD PUSH2 0xFEA DUP2 PUSH2 0x7147 JUMP JUMPDEST PUSH1 0x60 DUP2 ADD PUSH2 0x718B DUP3 DUP7 PUSH2 0x574B JUMP JUMPDEST PUSH2 0x68CF PUSH1 0x20 DUP4 ADD DUP6 PUSH2 0x5768 JUMP JUMPDEST PUSH1 0x0 DUP1 PUSH1 0x40 DUP4 DUP6 SUB SLT ISZERO PUSH2 0x71AE JUMPI PUSH2 0x71AE PUSH1 0x0 DUP1 REVERT JUMPDEST PUSH1 0x0 PUSH2 0x71BA DUP6 DUP6 PUSH2 0x605C JUMP JUMPDEST SWAP3 POP POP PUSH1 0x20 PUSH2 0x5A4C DUP6 DUP3 DUP7 ADD PUSH2 0x605C JUMP JUMPDEST PUSH2 0xFFFF DUP2 AND PUSH2 0x5788 JUMP JUMPDEST DUP1 MLOAD PUSH2 0xFEA DUP2 PUSH2 0x71CB JUMP JUMPDEST PUSH1 0x0 DUP1 PUSH1 0x40 DUP4 DUP6 SUB SLT ISZERO PUSH2 0x71F6 JUMPI PUSH2 0x71F6 PUSH1 0x0 DUP1 REVERT JUMPDEST PUSH1 0x0 PUSH2 0x7202 DUP6 DUP6 PUSH2 0x71D5 JUMP JUMPDEST SWAP3 POP POP PUSH1 0x20 PUSH2 0x5A4C DUP6 DUP3 DUP7 ADD PUSH2 0x671D JUMP JUMPDEST PUSH1 0x40 DUP2 ADD PUSH2 0x6AD1 DUP3 DUP6 PUSH2 0x574B JUMP JUMPDEST PUSH1 0x0 DUP2 PUSH2 0x7230 JUMPI PUSH2 0x7230 PUSH2 0x6088 JUMP JUMPDEST POP PUSH1 0x0 NOT ADD SWAP1 JUMP JUMPDEST PUSH1 0x20 DUP1 DUP3 MSTORE PUSH32 0x537472696E67733A20686578206C656E67746820696E73756666696369656E74 SWAP2 ADD SWAP1 DUP2 MSTORE PUSH1 0x0 PUSH2 0x5ED0 JUMP JUMPDEST PUSH1 0x20 DUP1 DUP3 MSTORE DUP2 ADD PUSH2 0xFEA DUP2 PUSH2 0x7238 JUMP INVALID ISZERO 0x2E 0xBB 0xA5 PUSH12 0x9738EE3D8BAEA1B76FA31DCD 0xCD PUSH26 0xB1929BFEA7D58EE12CFDF1A653862F91C9D89D6135B19873B921 0xC9 SIGNEXTEND PUSH17 0x2CB2E175C371B8430026B9577E691119F2 MOD PUSH3 0x5BAD3D SWAP2 SLT 0xD5 PUSH1 0x9B DUP14 CALLDATALOAD PUSH15 0x6FBD514CD1F69980D4CE2B3E6E68E1 PUSH25 0x9ACEDDF252AD1BE2C89B69C2B068FC378DAA952BA7F163C4A1 AND 0x28 CREATE2 GAS 0x4D CREATE2 0x23 0xB3 0xEF 0x5E 0x2B DUP9 0x21 0xAD PUSH15 0xE26207E0CB4D242D07EEB1CBB1CFD DUP6 RETURNDATACOPY PUSH5 0x5BDCD27CC5 BASEFEE 0x4F SWAP6 0x2F 0xD 0xBB 0xE8 0xC2 0xC0 OR MUL MOD 0xC5 0xE 0xC0 0xCA STATICCALL SHR 0xD 0xBD SUB 0xE7 RETURNDATACOPY PUSH8 0xC2A960178DF30A0A ADDRESS 0xEE 0x2E LOG2 PUSH5 0x6970667358 0x22 SLT KECCAK256 0xF SWAP10 LOG0 SWAP12 BYTE GAS CALLDATALOAD GASPRICE NOT 0xAF PUSH10 0xDD82F260D1297A8E1583 SHL PUSH15 0xE4107A3461D5939C7064736F6C6343 STOP ADDMOD LT STOP CALLER "},"methodIdentifiers":{"ACCOUNTANT_MANAGER()":"652da324","ADD_STRATEGY_MANAGER()":"c065ca07","API_VERSION()":"77e3b267","ASSET()":"4800d97f","DEBT_MANAGER()":"c8d74b60","DEBT_PURCHASER()":"ab5b4d49","DECIMALS()":"2e0f2625","DEFAULT_ADMIN_ROLE()":"a217fddf","DEPOSIT_LIMIT_MANAGER()":"a98222c4","DOMAIN_SEPARATOR()":"3644e515","DOMAIN_TYPE_HASH()":"c0993eea","EMERGENCY_MANAGER()":"fec61f06","FACTORY()":"2dd31000","FORCE_REVOKE_MANAGER()":"5bf6b4fb","MAX_BPS()":"fd967f47","MAX_BPS_EXTENDED()":"36fba084","MAX_DEBT_MANAGER()":"f1daeba8","MAX_QUEUE()":"3f7b5e40","MINIMUM_IDLE_MANAGER()":"0ad283d0","ONE_YEAR()":"16d3bfbb","PERMIT_TYPE_HASH()":"4d4bb197","PROFIT_UNLOCK_MANAGER()":"d4ae064f","QUEUE_MANAGER()":"4cfe51dc","REPORTING_MANAGER()":"03dcd12c","REVOKE_STRATEGY_MANAGER()":"9f3988f3","ROLE_MANAGER()":"f5b944eb","WITHDRAW_LIMIT_MANAGER()":"4ce1d38a","acceptRoleManager()":"6d020808","accountant()":"4fb3ccc5","addRole(address,bytes32)":"a73f7f8a","addStrategy(address)":"223e5479","allowance(address,address)":"dd62ed3e","apiVersion()":"25829410","approve(address,uint256)":"095ea7b3","assessShareOfUnrealisedLosses(address,uint256)":"5a569099","asset()":"38d52e0f","balanceOf(address)":"70a08231","buyDebt(address,uint256)":"405977e7","closeOpenRole(bytes32)":"c9a16ea4","convertToAssets(uint256)":"07a2d13a","convertToShares(uint256)":"c6e6f592","decimals()":"313ce567","decreaseAllowance(address,uint256)":"a457c2d7","defaultQueue(uint256)":"ff1e7f08","deposit(uint256,address)":"6e553f65","depositLimit()":"ecf70858","depositLimitModule()":"9e34e348","forceRevokeStrategy(address)":"16b87ac0","fullProfitUnlockDate()":"2d632692","futureRoleManager()":"b3c187f2","getDefaultQueue()":"29f3cef5","getRoleAdmin(bytes32)":"248a9ca3","grantRole(bytes32,address)":"2f2ff15d","hasRole(bytes32,address)":"91d14854","increaseAllowance(address,uint256)":"39509351","isShutdown()":"bf86d690","lastProfitUpdate()":"8afca8f0","maxDeposit(address)":"402d267d","maxMint(address)":"c63d75b6","maxRedeem(address,uint256,address[])":"34b5fab6","maxWithdraw(address,uint256,address[])":"65cb6765","minimumTotalIdle()":"0835a3fc","mint(uint256,address)":"94bf804d","name()":"06fdde03","nonces(address)":"7ecebe00","openRoles(bytes32)":"53a66132","permit(address,address,uint256,uint256,uint8,bytes32,bytes32)":"d505accf","previewDeposit(uint256)":"ef8b30f7","previewMint(uint256)":"b3d7f6b9","previewRedeem(uint256)":"4cdad506","previewWithdraw(uint256)":"0a28a477","pricePerShare()":"99530b06","processReport(address)":"b6cc2d1f","profitMaxUnlockTime()":"0952864e","profitUnlockingRate()":"5141eebb","redeem(uint256,address,address,uint256,address[])":"06580f2d","removeRole(address,bytes32)":"6853920e","renounceRole(bytes32,address)":"36568abe","revokeRole(bytes32,address)":"d547741f","revokeStrategy(address)":"bb994d48","roleManager()":"00435da5","roles(address)":"99374642","setAccountant(address)":"48ea7127","setDefaultQueue(address[])":"633f228c","setDepositLimit(uint256)":"bdc8144b","setDepositLimitModule(address)":"2d772168","setMinimumTotalIdle(uint256)":"8212fd43","setOpenRole(bytes32)":"d538e904","setProfitMaxUnlockTime(uint256)":"df69b22a","setUseDefaultQueue(bool)":"9bbca884","setWithdrawLimitModule(address)":"4bbd71e9","shutdown()":"fc0e74d1","shutdownVault()":"e5236cc9","strategies(address)":"39ebf823","supportsInterface(bytes4)":"01ffc9a7","symbol()":"95d89b41","totalAssets()":"01e1d114","totalDebt()":"fc7b9c18","totalDebtAmount()":"c8dffa95","totalIdle()":"9aa7df94","totalIdleAmount()":"3cd7b5ab","totalSupply()":"18160ddd","totalSupplyAmount()":"f828f50b","transfer(address,uint256)":"a9059cbb","transferFrom(address,address,uint256)":"23b872dd","transferRoleManager(address)":"629b9142","unlockedShares()":"d9a0e97a","updateDebt(address,uint256)":"46e6ac49","updateMaxDebtForStrategy(address,uint256)":"f6d7bfa0","useDefaultQueue()":"bbe4eb49","withdraw(uint256,address,address,uint256,address[])":"d81a09f6","withdrawLimitModule()":"91986003"}}}}}