{
  "_format": "hh-sol-artifact-1",
  "contractName": "StrategyManager",
  "sourceName": "contracts/StrategyManager.sol",
  "abi": [
    {
      "inputs": [
        {
          "internalType": "contract IERC20",
          "name": "_asset",
          "type": "address"
        }
      ],
      "stateMutability": "nonpayable",
      "type": "constructor"
    },
    {
      "inputs": [],
      "name": "InactiveStrategy",
      "type": "error"
    },
    {
      "inputs": [],
      "name": "InvalidAsset",
      "type": "error"
    },
    {
      "inputs": [],
      "name": "StrategyAlreadyActive",
      "type": "error"
    },
    {
      "inputs": [],
      "name": "StrategyHasDebt",
      "type": "error"
    },
    {
      "inputs": [],
      "name": "ZeroAddress",
      "type": "error"
    },
    {
      "anonymous": false,
      "inputs": [
        {
          "indexed": true,
          "internalType": "address",
          "name": "strategy",
          "type": "address"
        },
        {
          "indexed": false,
          "internalType": "uint256",
          "name": "amount",
          "type": "uint256"
        }
      ],
      "name": "DebtPurchased",
      "type": "event"
    },
    {
      "anonymous": false,
      "inputs": [
        {
          "indexed": true,
          "internalType": "address",
          "name": "strategy",
          "type": "address"
        },
        {
          "indexed": false,
          "internalType": "uint256",
          "name": "currentDebt",
          "type": "uint256"
        },
        {
          "indexed": false,
          "internalType": "uint256",
          "name": "newDebt",
          "type": "uint256"
        }
      ],
      "name": "DebtUpdated",
      "type": "event"
    },
    {
      "anonymous": false,
      "inputs": [
        {
          "indexed": true,
          "internalType": "address",
          "name": "account",
          "type": "address"
        },
        {
          "indexed": false,
          "internalType": "bytes32",
          "name": "role",
          "type": "bytes32"
        }
      ],
      "name": "RoleSet",
      "type": "event"
    },
    {
      "anonymous": false,
      "inputs": [
        {
          "indexed": true,
          "internalType": "bytes32",
          "name": "role",
          "type": "bytes32"
        },
        {
          "indexed": true,
          "internalType": "enum RoleStatusChange",
          "name": "status",
          "type": "uint8"
        }
      ],
      "name": "RoleStatusChanged",
      "type": "event"
    },
    {
      "anonymous": false,
      "inputs": [],
      "name": "Shutdown",
      "type": "event"
    },
    {
      "anonymous": false,
      "inputs": [
        {
          "indexed": true,
          "internalType": "address",
          "name": "strategy",
          "type": "address"
        },
        {
          "indexed": false,
          "internalType": "enum StrategyChangeType",
          "name": "changeType",
          "type": "uint8"
        }
      ],
      "name": "StrategyChanged",
      "type": "event"
    },
    {
      "anonymous": false,
      "inputs": [
        {
          "indexed": true,
          "internalType": "address",
          "name": "strategy",
          "type": "address"
        },
        {
          "indexed": false,
          "internalType": "uint256",
          "name": "gain",
          "type": "uint256"
        },
        {
          "indexed": false,
          "internalType": "uint256",
          "name": "loss",
          "type": "uint256"
        },
        {
          "indexed": false,
          "internalType": "uint256",
          "name": "currentDebt",
          "type": "uint256"
        },
        {
          "indexed": false,
          "internalType": "uint256",
          "name": "protocolFees",
          "type": "uint256"
        },
        {
          "indexed": false,
          "internalType": "uint256",
          "name": "totalFees",
          "type": "uint256"
        },
        {
          "indexed": false,
          "internalType": "uint256",
          "name": "totalRefunds",
          "type": "uint256"
        }
      ],
      "name": "StrategyReported",
      "type": "event"
    },
    {
      "anonymous": false,
      "inputs": [
        {
          "indexed": true,
          "internalType": "address",
          "name": "accountant",
          "type": "address"
        }
      ],
      "name": "UpdateAccountant",
      "type": "event"
    },
    {
      "anonymous": false,
      "inputs": [
        {
          "indexed": false,
          "internalType": "address[]",
          "name": "newDefaultQueue",
          "type": "address[]"
        }
      ],
      "name": "UpdateDefaultQueue",
      "type": "event"
    },
    {
      "anonymous": false,
      "inputs": [
        {
          "indexed": false,
          "internalType": "uint256",
          "name": "depositLimit",
          "type": "uint256"
        }
      ],
      "name": "UpdateDepositLimit",
      "type": "event"
    },
    {
      "anonymous": false,
      "inputs": [
        {
          "indexed": true,
          "internalType": "address",
          "name": "depositLimitModule",
          "type": "address"
        }
      ],
      "name": "UpdateDepositLimitModule",
      "type": "event"
    },
    {
      "anonymous": false,
      "inputs": [
        {
          "indexed": false,
          "internalType": "uint256",
          "name": "minimumTotalIdle",
          "type": "uint256"
        }
      ],
      "name": "UpdateMinimumTotalIdle",
      "type": "event"
    },
    {
      "anonymous": false,
      "inputs": [
        {
          "indexed": false,
          "internalType": "uint256",
          "name": "profitMaxUnlockTime",
          "type": "uint256"
        }
      ],
      "name": "UpdateProfitMaxUnlockTime",
      "type": "event"
    },
    {
      "anonymous": false,
      "inputs": [
        {
          "indexed": true,
          "internalType": "address",
          "name": "roleManager",
          "type": "address"
        }
      ],
      "name": "UpdateRoleManager",
      "type": "event"
    },
    {
      "anonymous": false,
      "inputs": [
        {
          "indexed": false,
          "internalType": "bool",
          "name": "useDefaultQueue",
          "type": "bool"
        }
      ],
      "name": "UpdateUseDefaultQueue",
      "type": "event"
    },
    {
      "anonymous": false,
      "inputs": [
        {
          "indexed": true,
          "internalType": "address",
          "name": "withdrawLimitModule",
          "type": "address"
        }
      ],
      "name": "UpdateWithdrawLimitModule",
      "type": "event"
    },
    {
      "anonymous": false,
      "inputs": [
        {
          "indexed": true,
          "internalType": "address",
          "name": "sender",
          "type": "address"
        },
        {
          "indexed": true,
          "internalType": "address",
          "name": "strategy",
          "type": "address"
        },
        {
          "indexed": false,
          "internalType": "uint256",
          "name": "newDebt",
          "type": "uint256"
        }
      ],
      "name": "UpdatedMaxDebtForStrategy",
      "type": "event"
    },
    {
      "inputs": [],
      "name": "ACCOUNTANT_MANAGER",
      "outputs": [
        {
          "internalType": "bytes32",
          "name": "",
          "type": "bytes32"
        }
      ],
      "stateMutability": "view",
      "type": "function"
    },
    {
      "inputs": [],
      "name": "ADD_STRATEGY_MANAGER",
      "outputs": [
        {
          "internalType": "bytes32",
          "name": "",
          "type": "bytes32"
        }
      ],
      "stateMutability": "view",
      "type": "function"
    },
    {
      "inputs": [],
      "name": "API_VERSION",
      "outputs": [
        {
          "internalType": "string",
          "name": "",
          "type": "string"
        }
      ],
      "stateMutability": "view",
      "type": "function"
    },
    {
      "inputs": [],
      "name": "ASSET",
      "outputs": [
        {
          "internalType": "contract IERC20",
          "name": "",
          "type": "address"
        }
      ],
      "stateMutability": "view",
      "type": "function"
    },
    {
      "inputs": [],
      "name": "DEBT_MANAGER",
      "outputs": [
        {
          "internalType": "bytes32",
          "name": "",
          "type": "bytes32"
        }
      ],
      "stateMutability": "view",
      "type": "function"
    },
    {
      "inputs": [],
      "name": "DEBT_PURCHASER",
      "outputs": [
        {
          "internalType": "bytes32",
          "name": "",
          "type": "bytes32"
        }
      ],
      "stateMutability": "view",
      "type": "function"
    },
    {
      "inputs": [],
      "name": "DEPOSIT_LIMIT_MANAGER",
      "outputs": [
        {
          "internalType": "bytes32",
          "name": "",
          "type": "bytes32"
        }
      ],
      "stateMutability": "view",
      "type": "function"
    },
    {
      "inputs": [],
      "name": "DOMAIN_SEPARATOR",
      "outputs": [
        {
          "internalType": "bytes32",
          "name": "",
          "type": "bytes32"
        }
      ],
      "stateMutability": "view",
      "type": "function"
    },
    {
      "inputs": [],
      "name": "DOMAIN_TYPE_HASH",
      "outputs": [
        {
          "internalType": "bytes32",
          "name": "",
          "type": "bytes32"
        }
      ],
      "stateMutability": "view",
      "type": "function"
    },
    {
      "inputs": [],
      "name": "EMERGENCY_MANAGER",
      "outputs": [
        {
          "internalType": "bytes32",
          "name": "",
          "type": "bytes32"
        }
      ],
      "stateMutability": "view",
      "type": "function"
    },
    {
      "inputs": [],
      "name": "FORCE_REVOKE_MANAGER",
      "outputs": [
        {
          "internalType": "bytes32",
          "name": "",
          "type": "bytes32"
        }
      ],
      "stateMutability": "view",
      "type": "function"
    },
    {
      "inputs": [],
      "name": "MAX_BPS",
      "outputs": [
        {
          "internalType": "uint256",
          "name": "",
          "type": "uint256"
        }
      ],
      "stateMutability": "view",
      "type": "function"
    },
    {
      "inputs": [],
      "name": "MAX_BPS_EXTENDED",
      "outputs": [
        {
          "internalType": "uint256",
          "name": "",
          "type": "uint256"
        }
      ],
      "stateMutability": "view",
      "type": "function"
    },
    {
      "inputs": [],
      "name": "MAX_DEBT_MANAGER",
      "outputs": [
        {
          "internalType": "bytes32",
          "name": "",
          "type": "bytes32"
        }
      ],
      "stateMutability": "view",
      "type": "function"
    },
    {
      "inputs": [],
      "name": "MAX_QUEUE",
      "outputs": [
        {
          "internalType": "uint256",
          "name": "",
          "type": "uint256"
        }
      ],
      "stateMutability": "view",
      "type": "function"
    },
    {
      "inputs": [],
      "name": "MINIMUM_IDLE_MANAGER",
      "outputs": [
        {
          "internalType": "bytes32",
          "name": "",
          "type": "bytes32"
        }
      ],
      "stateMutability": "view",
      "type": "function"
    },
    {
      "inputs": [],
      "name": "PERMIT_TYPE_HASH",
      "outputs": [
        {
          "internalType": "bytes32",
          "name": "",
          "type": "bytes32"
        }
      ],
      "stateMutability": "view",
      "type": "function"
    },
    {
      "inputs": [],
      "name": "PROFIT_UNLOCK_MANAGER",
      "outputs": [
        {
          "internalType": "bytes32",
          "name": "",
          "type": "bytes32"
        }
      ],
      "stateMutability": "view",
      "type": "function"
    },
    {
      "inputs": [],
      "name": "QUEUE_MANAGER",
      "outputs": [
        {
          "internalType": "bytes32",
          "name": "",
          "type": "bytes32"
        }
      ],
      "stateMutability": "view",
      "type": "function"
    },
    {
      "inputs": [],
      "name": "REPORTING_MANAGER",
      "outputs": [
        {
          "internalType": "bytes32",
          "name": "",
          "type": "bytes32"
        }
      ],
      "stateMutability": "view",
      "type": "function"
    },
    {
      "inputs": [],
      "name": "REVOKE_STRATEGY_MANAGER",
      "outputs": [
        {
          "internalType": "bytes32",
          "name": "",
          "type": "bytes32"
        }
      ],
      "stateMutability": "view",
      "type": "function"
    },
    {
      "inputs": [],
      "name": "ROLE_MANAGER",
      "outputs": [
        {
          "internalType": "bytes32",
          "name": "",
          "type": "bytes32"
        }
      ],
      "stateMutability": "view",
      "type": "function"
    },
    {
      "inputs": [],
      "name": "WITHDRAW_LIMIT_MANAGER",
      "outputs": [
        {
          "internalType": "bytes32",
          "name": "",
          "type": "bytes32"
        }
      ],
      "stateMutability": "view",
      "type": "function"
    },
    {
      "inputs": [],
      "name": "accountant",
      "outputs": [
        {
          "internalType": "address",
          "name": "",
          "type": "address"
        }
      ],
      "stateMutability": "view",
      "type": "function"
    },
    {
      "inputs": [
        {
          "internalType": "address",
          "name": "newStrategy",
          "type": "address"
        }
      ],
      "name": "addStrategy",
      "outputs": [],
      "stateMutability": "nonpayable",
      "type": "function"
    },
    {
      "inputs": [
        {
          "internalType": "uint256",
          "name": "",
          "type": "uint256"
        }
      ],
      "name": "defaultQueue",
      "outputs": [
        {
          "internalType": "address",
          "name": "",
          "type": "address"
        }
      ],
      "stateMutability": "view",
      "type": "function"
    },
    {
      "inputs": [],
      "name": "depositLimit",
      "outputs": [
        {
          "internalType": "uint256",
          "name": "",
          "type": "uint256"
        }
      ],
      "stateMutability": "view",
      "type": "function"
    },
    {
      "inputs": [],
      "name": "depositLimitModule",
      "outputs": [
        {
          "internalType": "address",
          "name": "",
          "type": "address"
        }
      ],
      "stateMutability": "view",
      "type": "function"
    },
    {
      "inputs": [],
      "name": "fullProfitUnlockDate",
      "outputs": [
        {
          "internalType": "uint256",
          "name": "",
          "type": "uint256"
        }
      ],
      "stateMutability": "view",
      "type": "function"
    },
    {
      "inputs": [],
      "name": "futureRoleManager",
      "outputs": [
        {
          "internalType": "address",
          "name": "",
          "type": "address"
        }
      ],
      "stateMutability": "view",
      "type": "function"
    },
    {
      "inputs": [],
      "name": "lastProfitUpdate",
      "outputs": [
        {
          "internalType": "uint256",
          "name": "",
          "type": "uint256"
        }
      ],
      "stateMutability": "view",
      "type": "function"
    },
    {
      "inputs": [],
      "name": "minimumTotalIdle",
      "outputs": [
        {
          "internalType": "uint256",
          "name": "",
          "type": "uint256"
        }
      ],
      "stateMutability": "view",
      "type": "function"
    },
    {
      "inputs": [
        {
          "internalType": "address",
          "name": "",
          "type": "address"
        }
      ],
      "name": "nonces",
      "outputs": [
        {
          "internalType": "uint256",
          "name": "",
          "type": "uint256"
        }
      ],
      "stateMutability": "view",
      "type": "function"
    },
    {
      "inputs": [
        {
          "internalType": "bytes32",
          "name": "",
          "type": "bytes32"
        }
      ],
      "name": "openRoles",
      "outputs": [
        {
          "internalType": "bool",
          "name": "",
          "type": "bool"
        }
      ],
      "stateMutability": "view",
      "type": "function"
    },
    {
      "inputs": [],
      "name": "profitMaxUnlockTime",
      "outputs": [
        {
          "internalType": "uint256",
          "name": "",
          "type": "uint256"
        }
      ],
      "stateMutability": "view",
      "type": "function"
    },
    {
      "inputs": [],
      "name": "profitUnlockingRate",
      "outputs": [
        {
          "internalType": "uint256",
          "name": "",
          "type": "uint256"
        }
      ],
      "stateMutability": "view",
      "type": "function"
    },
    {
      "inputs": [
        {
          "internalType": "address",
          "name": "strategy",
          "type": "address"
        },
        {
          "internalType": "bool",
          "name": "force",
          "type": "bool"
        }
      ],
      "name": "revokeStrategy",
      "outputs": [],
      "stateMutability": "nonpayable",
      "type": "function"
    },
    {
      "inputs": [],
      "name": "roleManager",
      "outputs": [
        {
          "internalType": "address",
          "name": "",
          "type": "address"
        }
      ],
      "stateMutability": "view",
      "type": "function"
    },
    {
      "inputs": [
        {
          "internalType": "address",
          "name": "",
          "type": "address"
        }
      ],
      "name": "roles",
      "outputs": [
        {
          "internalType": "bytes32",
          "name": "",
          "type": "bytes32"
        }
      ],
      "stateMutability": "view",
      "type": "function"
    },
    {
      "inputs": [],
      "name": "shutdown",
      "outputs": [
        {
          "internalType": "bool",
          "name": "",
          "type": "bool"
        }
      ],
      "stateMutability": "view",
      "type": "function"
    },
    {
      "inputs": [
        {
          "internalType": "address",
          "name": "",
          "type": "address"
        }
      ],
      "name": "strategies",
      "outputs": [
        {
          "internalType": "uint256",
          "name": "activation",
          "type": "uint256"
        },
        {
          "internalType": "uint256",
          "name": "lastReport",
          "type": "uint256"
        },
        {
          "internalType": "uint256",
          "name": "currentDebt",
          "type": "uint256"
        },
        {
          "internalType": "uint256",
          "name": "maxDebt",
          "type": "uint256"
        }
      ],
      "stateMutability": "view",
      "type": "function"
    },
    {
      "inputs": [],
      "name": "totalDebtAmount",
      "outputs": [
        {
          "internalType": "uint256",
          "name": "",
          "type": "uint256"
        }
      ],
      "stateMutability": "view",
      "type": "function"
    },
    {
      "inputs": [],
      "name": "totalIdleAmount",
      "outputs": [
        {
          "internalType": "uint256",
          "name": "",
          "type": "uint256"
        }
      ],
      "stateMutability": "view",
      "type": "function"
    },
    {
      "inputs": [],
      "name": "totalSupplyAmount",
      "outputs": [
        {
          "internalType": "uint256",
          "name": "",
          "type": "uint256"
        }
      ],
      "stateMutability": "view",
      "type": "function"
    },
    {
      "inputs": [],
      "name": "useDefaultQueue",
      "outputs": [
        {
          "internalType": "bool",
          "name": "",
          "type": "bool"
        }
      ],
      "stateMutability": "view",
      "type": "function"
    },
    {
      "inputs": [],
      "name": "withdrawLimitModule",
      "outputs": [
        {
          "internalType": "address",
          "name": "",
          "type": "address"
        }
      ],
      "stateMutability": "view",
      "type": "function"
    }
  ],
  "bytecode": "0x60a060405234801561001057600080fd5b50604051620010a1380380620010a183398101604081905261003191610082565b6001600160a01b03166080526100ab565b60006001600160a01b0382165b92915050565b600061004f82610042565b61006981610055565b811461007457600080fd5b50565b805161004f81610060565b60006020828403121561009757610097600080fd5b60006100a38484610077565b949350505050565b608051610fd3620000ce6000396000818161034301526107630152610fd36000f3fe608060405234801561001057600080fd5b50600436106102195760003560e01c8062435da51461021e57806303dcd12c146102475780630835a3fc1461027b5780630952864e146102845780630ad283d01461028d578063223e5479146102b45780632d632692146102c95780633644e515146102d257806336fba084146102db57806339ebf823146102e75780633cd7b5ab1461032d5780633f7b5e40146103365780634800d97f1461033e5780634ce1d38a146103725780634cfe51dc146103995780634d4bb197146103c05780634fb3ccc5146103e75780635141eebb146103fa57806353a66132146104035780635bf6b4fb14610433578063652da3241461045a57806377e3b267146104815780637ecebe00146104b25780638afca8f0146104d257806391986003146104db57806399374642146104ee5780639e34e3481461050e5780639f3988f314610521578063a98222c414610548578063ab5b4d491461056f578063b3c187f214610596578063bbe4eb49146105a9578063c065ca07146105b6578063c0993eea146105dd578063c8d74b6014610604578063c8dffa951461062b578063d4ae064f14610634578063ecf708581461065b578063f1daeba814610664578063f42c77ae1461068b578063f5b944eb1461069e578063f828f50b146106c5578063fc0e74d1146106ce578063fd967f47146106e2578063fec61f06146106eb578063ff1e7f0814610712575b600080fd5b601054610231906001600160a01b031681565b60405161023e9190610c3b565b60405180910390f35b61026e7f633076a97f32ae349b28772e7b1483f67a926f150cbc501d02bdbd77389325ab81565b60405161023e9190610c4f565b61026e60095481565b61026e60125481565b61026e7fc723f4dd6268e1c374639e36d629c765285ee7003913389d582c300f186dde9781565b6102c76102c2366004610c7f565b610725565b005b61026e60135481565b61026e60175481565b61026e64e8d4a5100081565b61031d6102f5366004610c7f565b6001602081905260009182526040909120805491810154600282015460039092015490919084565b60405161023e9493929190610ca8565b61026e60085481565b61026e600a81565b6103657f000000000000000000000000000000000000000000000000000000000000000081565b60405161023e9190610d1e565b61026e7f69d1171ac0a63777a6733cda21aec9ed3d48a4fd11f273c934a691dec5e5589c81565b61026e7f862f91c9d89d6135b19873b921c90b702cb2e175c371b8430026b9577e69111981565b61026e7f6e71edae12b1b97f4d1f60370fef10105fa2faae0126114a169c64845d6126c981565b600b54610231906001600160a01b031681565b61026e60145481565b610426610411366004610d3d565b600f6020526000908152604090205460ff1681565b60405161023e9190610d66565b61026e7fea672c1c09cd95c51af9509f646f3615ff0071aae8652bd821471ee9037fd72c81565b61026e7fcd9f023a942ee35097ead74b2505bea9f2c5d47465db92dd195cf7f01a41cfe181565b6104a5604051806040016040528060058152602001640312e302e360dc1b81525081565b60405161023e9190610dca565b61026e6104c0366004610c7f565b60166020526000908152604090205481565b61026e60155481565b600d54610231906001600160a01b031681565b61026e6104fc366004610c7f565b600e6020526000908152604090205481565b600c54610231906001600160a01b031681565b61026e7f6f430d649a8640e48ff9bfbc353b3f99ed630163857821b3b4075e3871dafbf581565b61026e7f2f0dbbe8c2c0170206c50ec0cafa1c0dbd03e73e67c2a960178df30a0a30ee2e81565b61026e7f900d80def0427daac599092fcb16b21808ec68dd9a2e1eae89d1e8db2135737581565b601154610231906001600160a01b031681565b6003546104269060ff1681565b61026e7f2a0e761830cc61f2707ea7bb138008bf9dda7f7d34c77736d0a116604e95ea1681565b61026e7f8b73c3c69bb8fe3d512ecc4cf759cc79239f7b179b0ffacaa9a75d522b39400f81565b61026e7f152ebba56b9738ee3d8baea1b76fa31dcdcd79b1929bfea7d58ee12cfdf1a65381565b61026e60075481565b61026e7fa18eaea71a088b547b8c932b48861853b3434d9a3240b94466c607e28b69659581565b61026e600a5481565b61026e7f7cbb3cdf689b8ea3e9d265f66bc4e0a99069268217017d38d2a5a559abc6271981565b6102c7610699366004610df5565b61092e565b61026e7ff206625bad3d9112d5609b8d356e6fbd514cd1f69980d4ce2b3e6e68e1789ace81565b61026e60065481565b60115461042690600160a01b900460ff1681565b61026e61271081565b61026e7fd45f7ccff42f059d4e47c3f027c444272257266f7e88b981e142f0aa38fbfd7881565b610231610720366004610d3d565b610b6b565b6001600160a01b038116158061074357506001600160a01b03811630145b156107615760405163d92e233d60e01b815260040160405180910390fd5b7f00000000000000000000000000000000000000000000000000000000000000006001600160a01b0316816001600160a01b03166338d52e0f6040518163ffffffff1660e01b8152600401602060405180830381865afa1580156107c9573d6000803e3d6000fd5b505050506040513d601f19601f820116820180604052508101906107ed9190610e3d565b6001600160a01b03161461081457604051636448d6e960e11b815260040160405180910390fd5b6001600160a01b0381166000908152600160205260409020541561084b5760405163c976754d60e01b815260040160405180910390fd5b604080516080810182524280825260208083019182526000838501818152606085018281526001600160a01b0388168352600193849052959091209351845591519083015551600280830191909155915160039091015554600a8110156108fa57816002826108b981610e74565b9350815481106108cb576108cb610e8e565b9060005260206000200160006101000a8154816001600160a01b0302191690836001600160a01b031602179055505b816001600160a01b0316600080516020610f7e83398151915260006040516109229190610eed565b60405180910390a25050565b6001600160a01b038216600090815260016020526040812054900361096657604051630631bc2160e51b815260040160405180910390fd5b6001600160a01b0382166000908152600160205260408120600201541580159061098e575081155b156109ac57604051633546382f60e21b815260040160405180910390fd5b506001600160a01b03821660009081526001602052604081206002015460078054919283926109dc908490610efb565b92505081905550826001600160a01b03167f7f2ad1d3ba35276f35ef140f83e3e0f17b23064fd710113d3f7a5ab30d267811600083600080600080604051610a2996959493929190610f23565b60405180910390a2604080516080810182526000808252602080830182815283850183815260608086018581526001600160a01b038b1686526001948590529690942094518555905191840191909155516002808401919091559251600390920191909155905415610b215760005b600254811015610b1f57600060028281548110610ab757610ab7610e8e565b6000918252602090912001546001600160a01b03908116915086168114610b0c5780838381518110610aeb57610aeb610e8e565b60200260200101906001600160a01b031690816001600160a01b0316815250505b5080610b1781610e74565b915050610a98565b505b8051610b34906002906020840190610b95565b50836001600160a01b0316600080516020610f7e8339815191526001604051610b5d9190610eed565b60405180910390a250505050565b60028181548110610b7b57600080fd5b6000918252602090912001546001600160a01b0316905081565b828054828255906000526020600020908101928215610bea579160200282015b82811115610bea57825182546001600160a01b0319166001600160a01b03909116178255602090920191600190910190610bb5565b50610bf6929150610bfa565b5090565b5b80821115610bf65760008155600101610bfb565b6001600160a01b031690565b6000610c2682610c0f565b92915050565b610c3581610c1b565b82525050565b60208101610c268284610c2c565b80610c35565b60208101610c268284610c49565b610c6681610c1b565b8114610c7157600080fd5b50565b8035610c2681610c5d565b600060208284031215610c9457610c94600080fd5b6000610ca08484610c74565b949350505050565b60808101610cb68287610c49565b610cc36020830186610c49565b610cd06040830185610c49565b610cdd6060830184610c49565b95945050505050565b6000610c26610cfa610cf784610c0f565b90565b610c0f565b6000610c2682610ce6565b6000610c2682610cff565b610c3581610d0a565b60208101610c268284610d15565b80610c66565b8035610c2681610d2c565b600060208284031215610d5257610d52600080fd5b6000610ca08484610d32565b801515610c35565b60208101610c268284610d5e565b60005b83811015610d8f578181015183820152602001610d77565b50506000910152565b6000610da2825190565b808452602084019350610db9818560208601610d74565b601f01601f19169290920192915050565b60208082528101610ddb8184610d98565b9392505050565b801515610c66565b8035610c2681610de2565b60008060408385031215610e0b57610e0b600080fd5b6000610e178585610c74565b9250506020610e2885828601610dea565b9150509250929050565b8051610c2681610c5d565b600060208284031215610e5257610e52600080fd5b6000610ca08484610e32565b634e487b7160e01b600052601160045260246000fd5b60006000198203610e8757610e87610e5e565b5060010190565b634e487b7160e01b600052603260045260246000fd5b634e487b7160e01b600052602160045260246000fd5b60028110610c7157610c71610ea4565b80610ed481610eba565b919050565b6000610c2682610eca565b610c3581610ed9565b60208101610c268284610ee4565b81810381811115610c2657610c26610e5e565b6000610c26610cf78381565b610c3581610f0e565b60c08101610f318289610f1a565b610f3e6020830188610c49565b610f4b6040830187610f1a565b610f586060830186610f1a565b610f656080830185610f1a565b610f7260a0830184610f1a565b97965050505050505056febcf55f13710eed7eda89416c2984da5475fcff67e96fe85e56eed808559a5222a264697066735822122013a7b6972bcd85b0b3d2bc8797221f0bb4acb94eb447dca1ddc95cd87da438f464736f6c63430008100033",
  "linkReferences": {},
  "deployedLinkReferences": {}
}