{
  "address": "0x7514Fb61df8a782db0647160c3FE7b14Cd995Efc",
  "abi": [
    {
      "inputs": [
        {
          "internalType": "uint256",
          "name": "_profitMaxUnlockTime",
          "type": "uint256"
        },
        {
          "internalType": "address",
          "name": "_strategyManagerAddress",
          "type": "address"
        },
        {
          "internalType": "address",
          "name": "_sharesManagerAddress",
          "type": "address"
        },
        {
          "internalType": "address",
          "name": "_settersAddress",
          "type": "address"
        },
        {
          "internalType": "address",
          "name": "_governanceAddress",
          "type": "address"
        }
      ],
      "stateMutability": "nonpayable",
      "type": "constructor"
    },
    {
      "inputs": [],
      "name": "DebtDidntChange",
      "type": "error"
    },
    {
      "inputs": [],
      "name": "DebtHigherThanMaxDebt",
      "type": "error"
    },
    {
      "inputs": [],
      "name": "ERC20InsufficientAllowance",
      "type": "error"
    },
    {
      "inputs": [],
      "name": "ERC20PermitExpired",
      "type": "error"
    },
    {
      "inputs": [],
      "name": "ERC20PermitInvalidSignature",
      "type": "error"
    },
    {
      "inputs": [],
      "name": "ExceedDepositLimit",
      "type": "error"
    },
    {
      "inputs": [],
      "name": "InactiveStrategy",
      "type": "error"
    },
    {
      "inputs": [],
      "name": "InsufficientAssets",
      "type": "error"
    },
    {
      "inputs": [],
      "name": "InsufficientFunds",
      "type": "error"
    },
    {
      "inputs": [],
      "name": "InsufficientShares",
      "type": "error"
    },
    {
      "inputs": [],
      "name": "InvalidAsset",
      "type": "error"
    },
    {
      "inputs": [],
      "name": "InvalidAssetDecimals",
      "type": "error"
    },
    {
      "inputs": [],
      "name": "MaxLoss",
      "type": "error"
    },
    {
      "inputs": [],
      "name": "ProfitUnlockTimeTooLong",
      "type": "error"
    },
    {
      "inputs": [],
      "name": "StrategyAlreadyActive",
      "type": "error"
    },
    {
      "inputs": [],
      "name": "StrategyDebtIsLessThanAssetsNeeded",
      "type": "error"
    },
    {
      "inputs": [],
      "name": "StrategyHasDebt",
      "type": "error"
    },
    {
      "inputs": [],
      "name": "StrategyHasUnrealisedLosses",
      "type": "error"
    },
    {
      "inputs": [],
      "name": "StrategyIsShutdown",
      "type": "error"
    },
    {
      "inputs": [],
      "name": "TooMuchLoss",
      "type": "error"
    },
    {
      "inputs": [],
      "name": "UsingModule",
      "type": "error"
    },
    {
      "inputs": [],
      "name": "ZeroAddress",
      "type": "error"
    },
    {
      "inputs": [],
      "name": "ZeroValue",
      "type": "error"
    },
    {
      "anonymous": false,
      "inputs": [
        {
          "indexed": true,
          "internalType": "address",
          "name": "strategy",
          "type": "address"
        },
        {
          "indexed": false,
          "internalType": "uint256",
          "name": "amount",
          "type": "uint256"
        }
      ],
      "name": "DebtPurchased",
      "type": "event"
    },
    {
      "anonymous": false,
      "inputs": [
        {
          "indexed": true,
          "internalType": "address",
          "name": "strategy",
          "type": "address"
        },
        {
          "indexed": false,
          "internalType": "uint256",
          "name": "currentDebt",
          "type": "uint256"
        },
        {
          "indexed": false,
          "internalType": "uint256",
          "name": "newDebt",
          "type": "uint256"
        }
      ],
      "name": "DebtUpdated",
      "type": "event"
    },
    {
      "anonymous": false,
      "inputs": [
        {
          "indexed": true,
          "internalType": "bytes32",
          "name": "role",
          "type": "bytes32"
        },
        {
          "indexed": true,
          "internalType": "bytes32",
          "name": "previousAdminRole",
          "type": "bytes32"
        },
        {
          "indexed": true,
          "internalType": "bytes32",
          "name": "newAdminRole",
          "type": "bytes32"
        }
      ],
      "name": "RoleAdminChanged",
      "type": "event"
    },
    {
      "anonymous": false,
      "inputs": [
        {
          "indexed": true,
          "internalType": "bytes32",
          "name": "role",
          "type": "bytes32"
        },
        {
          "indexed": true,
          "internalType": "address",
          "name": "account",
          "type": "address"
        },
        {
          "indexed": true,
          "internalType": "address",
          "name": "sender",
          "type": "address"
        }
      ],
      "name": "RoleGranted",
      "type": "event"
    },
    {
      "anonymous": false,
      "inputs": [
        {
          "indexed": true,
          "internalType": "bytes32",
          "name": "role",
          "type": "bytes32"
        },
        {
          "indexed": true,
          "internalType": "address",
          "name": "account",
          "type": "address"
        },
        {
          "indexed": true,
          "internalType": "address",
          "name": "sender",
          "type": "address"
        }
      ],
      "name": "RoleRevoked",
      "type": "event"
    },
    {
      "anonymous": false,
      "inputs": [
        {
          "indexed": true,
          "internalType": "address",
          "name": "account",
          "type": "address"
        },
        {
          "indexed": false,
          "internalType": "bytes32",
          "name": "role",
          "type": "bytes32"
        }
      ],
      "name": "RoleSet",
      "type": "event"
    },
    {
      "anonymous": false,
      "inputs": [
        {
          "indexed": true,
          "internalType": "bytes32",
          "name": "role",
          "type": "bytes32"
        },
        {
          "indexed": true,
          "internalType": "enum RoleStatusChange",
          "name": "status",
          "type": "uint8"
        }
      ],
      "name": "RoleStatusChanged",
      "type": "event"
    },
    {
      "anonymous": false,
      "inputs": [],
      "name": "Shutdown",
      "type": "event"
    },
    {
      "anonymous": false,
      "inputs": [
        {
          "indexed": true,
          "internalType": "address",
          "name": "strategy",
          "type": "address"
        },
        {
          "indexed": false,
          "internalType": "enum StrategyChangeType",
          "name": "changeType",
          "type": "uint8"
        }
      ],
      "name": "StrategyChanged",
      "type": "event"
    },
    {
      "anonymous": false,
      "inputs": [
        {
          "indexed": true,
          "internalType": "address",
          "name": "strategy",
          "type": "address"
        },
        {
          "indexed": false,
          "internalType": "uint256",
          "name": "gain",
          "type": "uint256"
        },
        {
          "indexed": false,
          "internalType": "uint256",
          "name": "loss",
          "type": "uint256"
        },
        {
          "indexed": false,
          "internalType": "uint256",
          "name": "currentDebt",
          "type": "uint256"
        },
        {
          "indexed": false,
          "internalType": "uint256",
          "name": "protocolFees",
          "type": "uint256"
        },
        {
          "indexed": false,
          "internalType": "uint256",
          "name": "totalFees",
          "type": "uint256"
        },
        {
          "indexed": false,
          "internalType": "uint256",
          "name": "totalRefunds",
          "type": "uint256"
        }
      ],
      "name": "StrategyReported",
      "type": "event"
    },
    {
      "anonymous": false,
      "inputs": [
        {
          "indexed": true,
          "internalType": "address",
          "name": "accountant",
          "type": "address"
        }
      ],
      "name": "UpdateAccountant",
      "type": "event"
    },
    {
      "anonymous": false,
      "inputs": [
        {
          "indexed": false,
          "internalType": "address[]",
          "name": "newDefaultQueue",
          "type": "address[]"
        }
      ],
      "name": "UpdateDefaultQueue",
      "type": "event"
    },
    {
      "anonymous": false,
      "inputs": [
        {
          "indexed": false,
          "internalType": "uint256",
          "name": "depositLimit",
          "type": "uint256"
        }
      ],
      "name": "UpdateDepositLimit",
      "type": "event"
    },
    {
      "anonymous": false,
      "inputs": [
        {
          "indexed": true,
          "internalType": "address",
          "name": "depositLimitModule",
          "type": "address"
        }
      ],
      "name": "UpdateDepositLimitModule",
      "type": "event"
    },
    {
      "anonymous": false,
      "inputs": [
        {
          "indexed": false,
          "internalType": "uint256",
          "name": "minimumTotalIdle",
          "type": "uint256"
        }
      ],
      "name": "UpdateMinimumTotalIdle",
      "type": "event"
    },
    {
      "anonymous": false,
      "inputs": [
        {
          "indexed": false,
          "internalType": "uint256",
          "name": "profitMaxUnlockTime",
          "type": "uint256"
        }
      ],
      "name": "UpdateProfitMaxUnlockTime",
      "type": "event"
    },
    {
      "anonymous": false,
      "inputs": [
        {
          "indexed": true,
          "internalType": "address",
          "name": "roleManager",
          "type": "address"
        }
      ],
      "name": "UpdateRoleManager",
      "type": "event"
    },
    {
      "anonymous": false,
      "inputs": [
        {
          "indexed": false,
          "internalType": "bool",
          "name": "useDefaultQueue",
          "type": "bool"
        }
      ],
      "name": "UpdateUseDefaultQueue",
      "type": "event"
    },
    {
      "anonymous": false,
      "inputs": [
        {
          "indexed": true,
          "internalType": "address",
          "name": "withdrawLimitModule",
          "type": "address"
        }
      ],
      "name": "UpdateWithdrawLimitModule",
      "type": "event"
    },
    {
      "anonymous": false,
      "inputs": [
        {
          "indexed": true,
          "internalType": "uint256",
          "name": "totalFees",
          "type": "uint256"
        },
        {
          "indexed": true,
          "internalType": "uint256",
          "name": "totalRefunds",
          "type": "uint256"
        },
        {
          "indexed": true,
          "internalType": "uint256",
          "name": "protocolFees",
          "type": "uint256"
        },
        {
          "indexed": false,
          "internalType": "address",
          "name": "protocolFeeRecipient",
          "type": "address"
        }
      ],
      "name": "UpdatedFees",
      "type": "event"
    },
    {
      "anonymous": false,
      "inputs": [
        {
          "indexed": true,
          "internalType": "address",
          "name": "sender",
          "type": "address"
        },
        {
          "indexed": true,
          "internalType": "address",
          "name": "strategy",
          "type": "address"
        },
        {
          "indexed": false,
          "internalType": "uint256",
          "name": "newDebt",
          "type": "uint256"
        }
      ],
      "name": "UpdatedMaxDebtForStrategy",
      "type": "event"
    },
    {
      "inputs": [],
      "name": "ACCOUNTANT_MANAGER",
      "outputs": [
        {
          "internalType": "bytes32",
          "name": "",
          "type": "bytes32"
        }
      ],
      "stateMutability": "view",
      "type": "function"
    },
    {
      "inputs": [],
      "name": "ADD_STRATEGY_MANAGER",
      "outputs": [
        {
          "internalType": "bytes32",
          "name": "",
          "type": "bytes32"
        }
      ],
      "stateMutability": "view",
      "type": "function"
    },
    {
      "inputs": [],
      "name": "API_VERSION",
      "outputs": [
        {
          "internalType": "string",
          "name": "",
          "type": "string"
        }
      ],
      "stateMutability": "view",
      "type": "function"
    },
    {
      "inputs": [],
      "name": "DEBT_MANAGER",
      "outputs": [
        {
          "internalType": "bytes32",
          "name": "",
          "type": "bytes32"
        }
      ],
      "stateMutability": "view",
      "type": "function"
    },
    {
      "inputs": [],
      "name": "DEBT_PURCHASER",
      "outputs": [
        {
          "internalType": "bytes32",
          "name": "",
          "type": "bytes32"
        }
      ],
      "stateMutability": "view",
      "type": "function"
    },
    {
      "inputs": [],
      "name": "DEFAULT_ADMIN_ROLE",
      "outputs": [
        {
          "internalType": "bytes32",
          "name": "",
          "type": "bytes32"
        }
      ],
      "stateMutability": "view",
      "type": "function"
    },
    {
      "inputs": [],
      "name": "DEPOSIT_LIMIT_MANAGER",
      "outputs": [
        {
          "internalType": "bytes32",
          "name": "",
          "type": "bytes32"
        }
      ],
      "stateMutability": "view",
      "type": "function"
    },
    {
      "inputs": [],
      "name": "DOMAIN_SEPARATOR",
      "outputs": [
        {
          "internalType": "bytes32",
          "name": "",
          "type": "bytes32"
        }
      ],
      "stateMutability": "view",
      "type": "function"
    },
    {
      "inputs": [],
      "name": "DOMAIN_TYPE_HASH",
      "outputs": [
        {
          "internalType": "bytes32",
          "name": "",
          "type": "bytes32"
        }
      ],
      "stateMutability": "view",
      "type": "function"
    },
    {
      "inputs": [],
      "name": "EMERGENCY_MANAGER",
      "outputs": [
        {
          "internalType": "bytes32",
          "name": "",
          "type": "bytes32"
        }
      ],
      "stateMutability": "view",
      "type": "function"
    },
    {
      "inputs": [],
      "name": "FACTORY",
      "outputs": [
        {
          "internalType": "address",
          "name": "",
          "type": "address"
        }
      ],
      "stateMutability": "view",
      "type": "function"
    },
    {
      "inputs": [],
      "name": "FORCE_REVOKE_MANAGER",
      "outputs": [
        {
          "internalType": "bytes32",
          "name": "",
          "type": "bytes32"
        }
      ],
      "stateMutability": "view",
      "type": "function"
    },
    {
      "inputs": [],
      "name": "MAX_BPS",
      "outputs": [
        {
          "internalType": "uint256",
          "name": "",
          "type": "uint256"
        }
      ],
      "stateMutability": "view",
      "type": "function"
    },
    {
      "inputs": [],
      "name": "MAX_BPS_EXTENDED",
      "outputs": [
        {
          "internalType": "uint256",
          "name": "",
          "type": "uint256"
        }
      ],
      "stateMutability": "view",
      "type": "function"
    },
    {
      "inputs": [],
      "name": "MAX_DEBT_MANAGER",
      "outputs": [
        {
          "internalType": "bytes32",
          "name": "",
          "type": "bytes32"
        }
      ],
      "stateMutability": "view",
      "type": "function"
    },
    {
      "inputs": [],
      "name": "MAX_QUEUE",
      "outputs": [
        {
          "internalType": "uint256",
          "name": "",
          "type": "uint256"
        }
      ],
      "stateMutability": "view",
      "type": "function"
    },
    {
      "inputs": [],
      "name": "MINIMUM_IDLE_MANAGER",
      "outputs": [
        {
          "internalType": "bytes32",
          "name": "",
          "type": "bytes32"
        }
      ],
      "stateMutability": "view",
      "type": "function"
    },
    {
      "inputs": [],
      "name": "ONE_YEAR",
      "outputs": [
        {
          "internalType": "uint256",
          "name": "",
          "type": "uint256"
        }
      ],
      "stateMutability": "view",
      "type": "function"
    },
    {
      "inputs": [],
      "name": "PERMIT_TYPE_HASH",
      "outputs": [
        {
          "internalType": "bytes32",
          "name": "",
          "type": "bytes32"
        }
      ],
      "stateMutability": "view",
      "type": "function"
    },
    {
      "inputs": [],
      "name": "PROFIT_UNLOCK_MANAGER",
      "outputs": [
        {
          "internalType": "bytes32",
          "name": "",
          "type": "bytes32"
        }
      ],
      "stateMutability": "view",
      "type": "function"
    },
    {
      "inputs": [],
      "name": "QUEUE_MANAGER",
      "outputs": [
        {
          "internalType": "bytes32",
          "name": "",
          "type": "bytes32"
        }
      ],
      "stateMutability": "view",
      "type": "function"
    },
    {
      "inputs": [],
      "name": "REPORTING_MANAGER",
      "outputs": [
        {
          "internalType": "bytes32",
          "name": "",
          "type": "bytes32"
        }
      ],
      "stateMutability": "view",
      "type": "function"
    },
    {
      "inputs": [],
      "name": "REVOKE_STRATEGY_MANAGER",
      "outputs": [
        {
          "internalType": "bytes32",
          "name": "",
          "type": "bytes32"
        }
      ],
      "stateMutability": "view",
      "type": "function"
    },
    {
      "inputs": [],
      "name": "ROLE_MANAGER",
      "outputs": [
        {
          "internalType": "bytes32",
          "name": "",
          "type": "bytes32"
        }
      ],
      "stateMutability": "view",
      "type": "function"
    },
    {
      "inputs": [],
      "name": "WITHDRAW_LIMIT_MANAGER",
      "outputs": [
        {
          "internalType": "bytes32",
          "name": "",
          "type": "bytes32"
        }
      ],
      "stateMutability": "view",
      "type": "function"
    },
    {
      "inputs": [],
      "name": "accountant",
      "outputs": [
        {
          "internalType": "address",
          "name": "",
          "type": "address"
        }
      ],
      "stateMutability": "view",
      "type": "function"
    },
    {
      "inputs": [
        {
          "internalType": "address",
          "name": "newStrategy",
          "type": "address"
        }
      ],
      "name": "addStrategy",
      "outputs": [],
      "stateMutability": "nonpayable",
      "type": "function"
    },
    {
      "inputs": [
        {
          "internalType": "address",
          "name": "owner",
          "type": "address"
        },
        {
          "internalType": "address",
          "name": "spender",
          "type": "address"
        }
      ],
      "name": "allowance",
      "outputs": [
        {
          "internalType": "uint256",
          "name": "",
          "type": "uint256"
        }
      ],
      "stateMutability": "view",
      "type": "function"
    },
    {
      "inputs": [
        {
          "internalType": "address",
          "name": "spender",
          "type": "address"
        },
        {
          "internalType": "uint256",
          "name": "amount",
          "type": "uint256"
        }
      ],
      "name": "approve",
      "outputs": [
        {
          "internalType": "bool",
          "name": "",
          "type": "bool"
        }
      ],
      "stateMutability": "nonpayable",
      "type": "function"
    },
    {
      "inputs": [],
      "name": "asset",
      "outputs": [
        {
          "internalType": "address",
          "name": "",
          "type": "address"
        }
      ],
      "stateMutability": "view",
      "type": "function"
    },
    {
      "inputs": [
        {
          "internalType": "address",
          "name": "addr",
          "type": "address"
        }
      ],
      "name": "balanceOf",
      "outputs": [
        {
          "internalType": "uint256",
          "name": "",
          "type": "uint256"
        }
      ],
      "stateMutability": "view",
      "type": "function"
    },
    {
      "inputs": [
        {
          "internalType": "address",
          "name": "strategy",
          "type": "address"
        },
        {
          "internalType": "uint256",
          "name": "amount",
          "type": "uint256"
        }
      ],
      "name": "buyDebt",
      "outputs": [],
      "stateMutability": "nonpayable",
      "type": "function"
    },
    {
      "inputs": [
        {
          "internalType": "uint256",
          "name": "shares",
          "type": "uint256"
        }
      ],
      "name": "convertToAssets",
      "outputs": [
        {
          "internalType": "uint256",
          "name": "",
          "type": "uint256"
        }
      ],
      "stateMutability": "view",
      "type": "function"
    },
    {
      "inputs": [
        {
          "internalType": "uint256",
          "name": "assets",
          "type": "uint256"
        }
      ],
      "name": "convertToShares",
      "outputs": [
        {
          "internalType": "uint256",
          "name": "",
          "type": "uint256"
        }
      ],
      "stateMutability": "view",
      "type": "function"
    },
    {
      "inputs": [],
      "name": "decimals",
      "outputs": [
        {
          "internalType": "uint8",
          "name": "",
          "type": "uint8"
        }
      ],
      "stateMutability": "view",
      "type": "function"
    },
    {
      "inputs": [
        {
          "internalType": "address",
          "name": "spender",
          "type": "address"
        },
        {
          "internalType": "uint256",
          "name": "amount",
          "type": "uint256"
        }
      ],
      "name": "decreaseAllowance",
      "outputs": [
        {
          "internalType": "bool",
          "name": "",
          "type": "bool"
        }
      ],
      "stateMutability": "nonpayable",
      "type": "function"
    },
    {
      "inputs": [
        {
          "internalType": "uint256",
          "name": "",
          "type": "uint256"
        }
      ],
      "name": "defaultQueue",
      "outputs": [
        {
          "internalType": "address",
          "name": "",
          "type": "address"
        }
      ],
      "stateMutability": "view",
      "type": "function"
    },
    {
      "inputs": [
        {
          "internalType": "uint256",
          "name": "assets",
          "type": "uint256"
        },
        {
          "internalType": "address",
          "name": "receiver",
          "type": "address"
        }
      ],
      "name": "deposit",
      "outputs": [
        {
          "internalType": "uint256",
          "name": "",
          "type": "uint256"
        }
      ],
      "stateMutability": "nonpayable",
      "type": "function"
    },
    {
      "inputs": [],
      "name": "depositLimit",
      "outputs": [
        {
          "internalType": "uint256",
          "name": "",
          "type": "uint256"
        }
      ],
      "stateMutability": "view",
      "type": "function"
    },
    {
      "inputs": [],
      "name": "depositLimitModule",
      "outputs": [
        {
          "internalType": "address",
          "name": "",
          "type": "address"
        }
      ],
      "stateMutability": "view",
      "type": "function"
    },
    {
      "inputs": [],
      "name": "fees",
      "outputs": [
        {
          "internalType": "uint256",
          "name": "totalFees",
          "type": "uint256"
        },
        {
          "internalType": "uint256",
          "name": "totalRefunds",
          "type": "uint256"
        },
        {
          "internalType": "uint256",
          "name": "protocolFees",
          "type": "uint256"
        },
        {
          "internalType": "address",
          "name": "protocolFeeRecipient",
          "type": "address"
        }
      ],
      "stateMutability": "view",
      "type": "function"
    },
    {
      "inputs": [
        {
          "internalType": "address",
          "name": "strategy",
          "type": "address"
        }
      ],
      "name": "forceRevokeStrategy",
      "outputs": [],
      "stateMutability": "nonpayable",
      "type": "function"
    },
    {
      "inputs": [],
      "name": "fullProfitUnlockDate",
      "outputs": [
        {
          "internalType": "uint256",
          "name": "",
          "type": "uint256"
        }
      ],
      "stateMutability": "view",
      "type": "function"
    },
    {
      "inputs": [],
      "name": "futureRoleManager",
      "outputs": [
        {
          "internalType": "address",
          "name": "",
          "type": "address"
        }
      ],
      "stateMutability": "view",
      "type": "function"
    },
    {
      "inputs": [
        {
          "internalType": "address",
          "name": "strategy",
          "type": "address"
        }
      ],
      "name": "getDebt",
      "outputs": [
        {
          "internalType": "uint256",
          "name": "",
          "type": "uint256"
        }
      ],
      "stateMutability": "view",
      "type": "function"
    },
    {
      "inputs": [
        {
          "internalType": "bytes32",
          "name": "role",
          "type": "bytes32"
        }
      ],
      "name": "getRoleAdmin",
      "outputs": [
        {
          "internalType": "bytes32",
          "name": "",
          "type": "bytes32"
        }
      ],
      "stateMutability": "view",
      "type": "function"
    },
    {
      "inputs": [],
      "name": "governance",
      "outputs": [
        {
          "internalType": "address",
          "name": "",
          "type": "address"
        }
      ],
      "stateMutability": "view",
      "type": "function"
    },
    {
      "inputs": [
        {
          "internalType": "bytes32",
          "name": "role",
          "type": "bytes32"
        },
        {
          "internalType": "address",
          "name": "account",
          "type": "address"
        }
      ],
      "name": "grantRole",
      "outputs": [],
      "stateMutability": "nonpayable",
      "type": "function"
    },
    {
      "inputs": [
        {
          "internalType": "bytes32",
          "name": "role",
          "type": "bytes32"
        },
        {
          "internalType": "address",
          "name": "account",
          "type": "address"
        }
      ],
      "name": "hasRole",
      "outputs": [
        {
          "internalType": "bool",
          "name": "",
          "type": "bool"
        }
      ],
      "stateMutability": "view",
      "type": "function"
    },
    {
      "inputs": [
        {
          "internalType": "bytes4",
          "name": "",
          "type": "bytes4"
        }
      ],
      "name": "implementations",
      "outputs": [
        {
          "internalType": "address",
          "name": "",
          "type": "address"
        }
      ],
      "stateMutability": "view",
      "type": "function"
    },
    {
      "inputs": [
        {
          "internalType": "address",
          "name": "spender",
          "type": "address"
        },
        {
          "internalType": "uint256",
          "name": "amount",
          "type": "uint256"
        }
      ],
      "name": "increaseAllowance",
      "outputs": [
        {
          "internalType": "bool",
          "name": "",
          "type": "bool"
        }
      ],
      "stateMutability": "nonpayable",
      "type": "function"
    },
    {
      "inputs": [],
      "name": "lastProfitUpdate",
      "outputs": [
        {
          "internalType": "uint256",
          "name": "",
          "type": "uint256"
        }
      ],
      "stateMutability": "view",
      "type": "function"
    },
    {
      "inputs": [
        {
          "internalType": "address",
          "name": "receiver",
          "type": "address"
        }
      ],
      "name": "maxDeposit",
      "outputs": [
        {
          "internalType": "uint256",
          "name": "",
          "type": "uint256"
        }
      ],
      "stateMutability": "view",
      "type": "function"
    },
    {
      "inputs": [
        {
          "internalType": "address",
          "name": "receiver",
          "type": "address"
        }
      ],
      "name": "maxMint",
      "outputs": [
        {
          "internalType": "uint256",
          "name": "",
          "type": "uint256"
        }
      ],
      "stateMutability": "view",
      "type": "function"
    },
    {
      "inputs": [
        {
          "internalType": "address",
          "name": "owner",
          "type": "address"
        },
        {
          "internalType": "uint256",
          "name": "maxLoss",
          "type": "uint256"
        },
        {
          "internalType": "address[]",
          "name": "_strategies",
          "type": "address[]"
        }
      ],
      "name": "maxRedeem",
      "outputs": [
        {
          "internalType": "uint256",
          "name": "",
          "type": "uint256"
        }
      ],
      "stateMutability": "nonpayable",
      "type": "function"
    },
    {
      "inputs": [
        {
          "internalType": "address",
          "name": "owner",
          "type": "address"
        },
        {
          "internalType": "uint256",
          "name": "maxLoss",
          "type": "uint256"
        },
        {
          "internalType": "address[]",
          "name": "_strategies",
          "type": "address[]"
        }
      ],
      "name": "maxWithdraw",
      "outputs": [
        {
          "internalType": "uint256",
          "name": "",
          "type": "uint256"
        }
      ],
      "stateMutability": "nonpayable",
      "type": "function"
    },
    {
      "inputs": [],
      "name": "minimumTotalIdle",
      "outputs": [
        {
          "internalType": "uint256",
          "name": "",
          "type": "uint256"
        }
      ],
      "stateMutability": "view",
      "type": "function"
    },
    {
      "inputs": [
        {
          "internalType": "uint256",
          "name": "shares",
          "type": "uint256"
        },
        {
          "internalType": "address",
          "name": "receiver",
          "type": "address"
        }
      ],
      "name": "mint",
      "outputs": [
        {
          "internalType": "uint256",
          "name": "",
          "type": "uint256"
        }
      ],
      "stateMutability": "nonpayable",
      "type": "function"
    },
    {
      "inputs": [
        {
          "internalType": "address",
          "name": "",
          "type": "address"
        }
      ],
      "name": "nonces",
      "outputs": [
        {
          "internalType": "uint256",
          "name": "",
          "type": "uint256"
        }
      ],
      "stateMutability": "view",
      "type": "function"
    },
    {
      "inputs": [
        {
          "internalType": "bytes32",
          "name": "",
          "type": "bytes32"
        }
      ],
      "name": "openRoles",
      "outputs": [
        {
          "internalType": "bool",
          "name": "",
          "type": "bool"
        }
      ],
      "stateMutability": "view",
      "type": "function"
    },
    {
      "inputs": [
        {
          "internalType": "address",
          "name": "owner",
          "type": "address"
        },
        {
          "internalType": "address",
          "name": "spender",
          "type": "address"
        },
        {
          "internalType": "uint256",
          "name": "amount",
          "type": "uint256"
        },
        {
          "internalType": "uint256",
          "name": "deadline",
          "type": "uint256"
        },
        {
          "internalType": "uint8",
          "name": "v",
          "type": "uint8"
        },
        {
          "internalType": "bytes32",
          "name": "r",
          "type": "bytes32"
        },
        {
          "internalType": "bytes32",
          "name": "s",
          "type": "bytes32"
        }
      ],
      "name": "permit",
      "outputs": [
        {
          "internalType": "bool",
          "name": "",
          "type": "bool"
        }
      ],
      "stateMutability": "nonpayable",
      "type": "function"
    },
    {
      "inputs": [
        {
          "internalType": "uint256",
          "name": "assets",
          "type": "uint256"
        }
      ],
      "name": "previewDeposit",
      "outputs": [
        {
          "internalType": "uint256",
          "name": "",
          "type": "uint256"
        }
      ],
      "stateMutability": "view",
      "type": "function"
    },
    {
      "inputs": [
        {
          "internalType": "uint256",
          "name": "shares",
          "type": "uint256"
        }
      ],
      "name": "previewMint",
      "outputs": [
        {
          "internalType": "uint256",
          "name": "",
          "type": "uint256"
        }
      ],
      "stateMutability": "view",
      "type": "function"
    },
    {
      "inputs": [
        {
          "internalType": "uint256",
          "name": "shares",
          "type": "uint256"
        }
      ],
      "name": "previewRedeem",
      "outputs": [
        {
          "internalType": "uint256",
          "name": "",
          "type": "uint256"
        }
      ],
      "stateMutability": "view",
      "type": "function"
    },
    {
      "inputs": [
        {
          "internalType": "uint256",
          "name": "assets",
          "type": "uint256"
        }
      ],
      "name": "previewWithdraw",
      "outputs": [
        {
          "internalType": "uint256",
          "name": "",
          "type": "uint256"
        }
      ],
      "stateMutability": "view",
      "type": "function"
    },
    {
      "inputs": [],
      "name": "pricePerShare",
      "outputs": [
        {
          "internalType": "uint256",
          "name": "",
          "type": "uint256"
        }
      ],
      "stateMutability": "view",
      "type": "function"
    },
    {
      "inputs": [
        {
          "internalType": "address",
          "name": "strategy",
          "type": "address"
        }
      ],
      "name": "processReport",
      "outputs": [
        {
          "internalType": "uint256",
          "name": "",
          "type": "uint256"
        },
        {
          "internalType": "uint256",
          "name": "",
          "type": "uint256"
        }
      ],
      "stateMutability": "nonpayable",
      "type": "function"
    },
    {
      "inputs": [],
      "name": "profitMaxUnlockTime",
      "outputs": [
        {
          "internalType": "uint256",
          "name": "",
          "type": "uint256"
        }
      ],
      "stateMutability": "view",
      "type": "function"
    },
    {
      "inputs": [],
      "name": "profitUnlockingRate",
      "outputs": [
        {
          "internalType": "uint256",
          "name": "",
          "type": "uint256"
        }
      ],
      "stateMutability": "view",
      "type": "function"
    },
    {
      "inputs": [
        {
          "internalType": "uint256",
          "name": "shares",
          "type": "uint256"
        },
        {
          "internalType": "address",
          "name": "receiver",
          "type": "address"
        },
        {
          "internalType": "address",
          "name": "owner",
          "type": "address"
        },
        {
          "internalType": "uint256",
          "name": "maxLoss",
          "type": "uint256"
        },
        {
          "internalType": "address[]",
          "name": "_strategies",
          "type": "address[]"
        }
      ],
      "name": "redeem",
      "outputs": [
        {
          "internalType": "uint256",
          "name": "",
          "type": "uint256"
        }
      ],
      "stateMutability": "nonpayable",
      "type": "function"
    },
    {
      "inputs": [
        {
          "internalType": "bytes32",
          "name": "role",
          "type": "bytes32"
        },
        {
          "internalType": "address",
          "name": "account",
          "type": "address"
        }
      ],
      "name": "renounceRole",
      "outputs": [],
      "stateMutability": "nonpayable",
      "type": "function"
    },
    {
      "inputs": [
        {
          "internalType": "bytes32",
          "name": "role",
          "type": "bytes32"
        },
        {
          "internalType": "address",
          "name": "account",
          "type": "address"
        }
      ],
      "name": "revokeRole",
      "outputs": [],
      "stateMutability": "nonpayable",
      "type": "function"
    },
    {
      "inputs": [
        {
          "internalType": "address",
          "name": "strategy",
          "type": "address"
        }
      ],
      "name": "revokeStrategy",
      "outputs": [],
      "stateMutability": "nonpayable",
      "type": "function"
    },
    {
      "inputs": [],
      "name": "roleManager",
      "outputs": [
        {
          "internalType": "address",
          "name": "",
          "type": "address"
        }
      ],
      "stateMutability": "view",
      "type": "function"
    },
    {
      "inputs": [
        {
          "internalType": "address",
          "name": "",
          "type": "address"
        }
      ],
      "name": "roles",
      "outputs": [
        {
          "internalType": "bytes32",
          "name": "",
          "type": "bytes32"
        }
      ],
      "stateMutability": "view",
      "type": "function"
    },
    {
      "inputs": [
        {
          "internalType": "address",
          "name": "newAccountant",
          "type": "address"
        }
      ],
      "name": "setAccountant",
      "outputs": [],
      "stateMutability": "nonpayable",
      "type": "function"
    },
    {
      "inputs": [
        {
          "internalType": "address[]",
          "name": "newDefaultQueue",
          "type": "address[]"
        }
      ],
      "name": "setDefaultQueue",
      "outputs": [],
      "stateMutability": "nonpayable",
      "type": "function"
    },
    {
      "inputs": [
        {
          "internalType": "uint256",
          "name": "_depositLimit",
          "type": "uint256"
        }
      ],
      "name": "setDepositLimit",
      "outputs": [],
      "stateMutability": "nonpayable",
      "type": "function"
    },
    {
      "inputs": [
        {
          "internalType": "address",
          "name": "_depositLimitModule",
          "type": "address"
        }
      ],
      "name": "setDepositLimitModule",
      "outputs": [],
      "stateMutability": "nonpayable",
      "type": "function"
    },
    {
      "inputs": [
        {
          "internalType": "uint256",
          "name": "totalFees",
          "type": "uint256"
        },
        {
          "internalType": "uint256",
          "name": "totalRefunds",
          "type": "uint256"
        },
        {
          "internalType": "uint256",
          "name": "protocolFees",
          "type": "uint256"
        },
        {
          "internalType": "address",
          "name": "protocolFeeRecipient",
          "type": "address"
        }
      ],
      "name": "setFees",
      "outputs": [],
      "stateMutability": "nonpayable",
      "type": "function"
    },
    {
      "inputs": [
        {
          "internalType": "uint256",
          "name": "_minimumTotalIdle",
          "type": "uint256"
        }
      ],
      "name": "setMinimumTotalIdle",
      "outputs": [],
      "stateMutability": "nonpayable",
      "type": "function"
    },
    {
      "inputs": [
        {
          "internalType": "uint256",
          "name": "_newProfitMaxUnlockTime",
          "type": "uint256"
        }
      ],
      "name": "setProfitMaxUnlockTime",
      "outputs": [],
      "stateMutability": "nonpayable",
      "type": "function"
    },
    {
      "inputs": [
        {
          "internalType": "bool",
          "name": "_useDefaultQueue",
          "type": "bool"
        }
      ],
      "name": "setUseDefaultQueue",
      "outputs": [],
      "stateMutability": "nonpayable",
      "type": "function"
    },
    {
      "inputs": [
        {
          "internalType": "address",
          "name": "_withdrawLimitModule",
          "type": "address"
        }
      ],
      "name": "setWithdrawLimitModule",
      "outputs": [],
      "stateMutability": "nonpayable",
      "type": "function"
    },
    {
      "inputs": [],
      "name": "setters",
      "outputs": [
        {
          "internalType": "address",
          "name": "",
          "type": "address"
        }
      ],
      "stateMutability": "view",
      "type": "function"
    },
    {
      "inputs": [],
      "name": "sharesManager",
      "outputs": [
        {
          "internalType": "address",
          "name": "",
          "type": "address"
        }
      ],
      "stateMutability": "view",
      "type": "function"
    },
    {
      "inputs": [],
      "name": "shutdown",
      "outputs": [
        {
          "internalType": "bool",
          "name": "",
          "type": "bool"
        }
      ],
      "stateMutability": "view",
      "type": "function"
    },
    {
      "inputs": [],
      "name": "shutdownVault",
      "outputs": [],
      "stateMutability": "nonpayable",
      "type": "function"
    },
    {
      "inputs": [
        {
          "internalType": "address",
          "name": "",
          "type": "address"
        }
      ],
      "name": "strategies",
      "outputs": [
        {
          "internalType": "uint256",
          "name": "activation",
          "type": "uint256"
        },
        {
          "internalType": "uint256",
          "name": "lastReport",
          "type": "uint256"
        },
        {
          "internalType": "uint256",
          "name": "currentDebt",
          "type": "uint256"
        },
        {
          "internalType": "uint256",
          "name": "maxDebt",
          "type": "uint256"
        }
      ],
      "stateMutability": "view",
      "type": "function"
    },
    {
      "inputs": [],
      "name": "strategyManager",
      "outputs": [
        {
          "internalType": "address",
          "name": "",
          "type": "address"
        }
      ],
      "stateMutability": "view",
      "type": "function"
    },
    {
      "inputs": [
        {
          "internalType": "bytes4",
          "name": "interfaceId",
          "type": "bytes4"
        }
      ],
      "name": "supportsInterface",
      "outputs": [
        {
          "internalType": "bool",
          "name": "",
          "type": "bool"
        }
      ],
      "stateMutability": "view",
      "type": "function"
    },
    {
      "inputs": [],
      "name": "totalAssets",
      "outputs": [
        {
          "internalType": "uint256",
          "name": "",
          "type": "uint256"
        }
      ],
      "stateMutability": "view",
      "type": "function"
    },
    {
      "inputs": [],
      "name": "totalDebtAmount",
      "outputs": [
        {
          "internalType": "uint256",
          "name": "",
          "type": "uint256"
        }
      ],
      "stateMutability": "view",
      "type": "function"
    },
    {
      "inputs": [],
      "name": "totalIdleAmount",
      "outputs": [
        {
          "internalType": "uint256",
          "name": "",
          "type": "uint256"
        }
      ],
      "stateMutability": "view",
      "type": "function"
    },
    {
      "inputs": [],
      "name": "totalSupply",
      "outputs": [
        {
          "internalType": "uint256",
          "name": "",
          "type": "uint256"
        }
      ],
      "stateMutability": "view",
      "type": "function"
    },
    {
      "inputs": [],
      "name": "totalSupplyAmount",
      "outputs": [
        {
          "internalType": "uint256",
          "name": "",
          "type": "uint256"
        }
      ],
      "stateMutability": "view",
      "type": "function"
    },
    {
      "inputs": [
        {
          "internalType": "address",
          "name": "receiver",
          "type": "address"
        },
        {
          "internalType": "uint256",
          "name": "amount",
          "type": "uint256"
        }
      ],
      "name": "transfer",
      "outputs": [
        {
          "internalType": "bool",
          "name": "",
          "type": "bool"
        }
      ],
      "stateMutability": "nonpayable",
      "type": "function"
    },
    {
      "inputs": [
        {
          "internalType": "address",
          "name": "sender",
          "type": "address"
        },
        {
          "internalType": "address",
          "name": "receiver",
          "type": "address"
        },
        {
          "internalType": "uint256",
          "name": "amount",
          "type": "uint256"
        }
      ],
      "name": "transferFrom",
      "outputs": [
        {
          "internalType": "bool",
          "name": "",
          "type": "bool"
        }
      ],
      "stateMutability": "nonpayable",
      "type": "function"
    },
    {
      "inputs": [],
      "name": "unlockedShares",
      "outputs": [
        {
          "internalType": "uint256",
          "name": "",
          "type": "uint256"
        }
      ],
      "stateMutability": "view",
      "type": "function"
    },
    {
      "inputs": [
        {
          "internalType": "address",
          "name": "sender",
          "type": "address"
        },
        {
          "internalType": "address",
          "name": "strategy",
          "type": "address"
        },
        {
          "internalType": "uint256",
          "name": "targetDebt",
          "type": "uint256"
        }
      ],
      "name": "updateDebt",
      "outputs": [
        {
          "internalType": "uint256",
          "name": "",
          "type": "uint256"
        }
      ],
      "stateMutability": "nonpayable",
      "type": "function"
    },
    {
      "inputs": [
        {
          "internalType": "address",
          "name": "strategy",
          "type": "address"
        },
        {
          "internalType": "uint256",
          "name": "newMaxDebt",
          "type": "uint256"
        }
      ],
      "name": "updateMaxDebtForStrategy",
      "outputs": [],
      "stateMutability": "nonpayable",
      "type": "function"
    },
    {
      "inputs": [],
      "name": "useDefaultQueue",
      "outputs": [
        {
          "internalType": "bool",
          "name": "",
          "type": "bool"
        }
      ],
      "stateMutability": "view",
      "type": "function"
    },
    {
      "inputs": [
        {
          "internalType": "uint256",
          "name": "assets",
          "type": "uint256"
        },
        {
          "internalType": "address",
          "name": "receiver",
          "type": "address"
        },
        {
          "internalType": "address",
          "name": "owner",
          "type": "address"
        },
        {
          "internalType": "uint256",
          "name": "maxLoss",
          "type": "uint256"
        },
        {
          "internalType": "address[]",
          "name": "_strategies",
          "type": "address[]"
        }
      ],
      "name": "withdraw",
      "outputs": [
        {
          "internalType": "uint256",
          "name": "",
          "type": "uint256"
        }
      ],
      "stateMutability": "nonpayable",
      "type": "function"
    },
    {
      "inputs": [],
      "name": "withdrawLimitModule",
      "outputs": [
        {
          "internalType": "address",
          "name": "",
          "type": "address"
        }
      ],
      "stateMutability": "view",
      "type": "function"
    }
  ],
  "transactionHash": "0x12da91c3a2d481ca5305568a0839e21bd2d456d94f0cb50f7e5263b3f0b42fd0",
  "args": [
    60,
    "0x4cC7f4E55bfCaaFc03A0037B7dA3C796EAb52562",
    "0x7699a1c97bDa66E633AD98D9a275271F66DdAe2f",
    "0xaaF18Eb0a92B280dc60DBcf97F388f0d4C5c4788",
    "0x556E6b4613b188Bb63B73F9d217C10D064Dd0ad8"
  ],
  "numDeployments": 1,
  "solcInputHash": "b3fbebf59ef5838936feb91ec6045ace",
  "bytecode": "0x60c06040526301e185586080523480156200001957600080fd5b50604051620034cd380380620034cd8339810160408190526200003c91620003ad565b600180553360a052608051851115620000685760405163fdfbb0b760e01b815260040160405180910390fd5b6017859055600280546001600160a01b038087166001600160a01b03199283161790925560038054868416908316179055600480548584169083161790556005805492841692909116919091179055620000c4600033620002b1565b620000f07f2f0dbbe8c2c0170206c50ec0cafa1c0dbd03e73e67c2a960178df30a0a30ee2e33620002b1565b6200011c7f2a0e761830cc61f2707ea7bb138008bf9dda7f7d34c77736d0a116604e95ea1633620002b1565b620001487f7cbb3cdf689b8ea3e9d265f66bc4e0a99069268217017d38d2a5a559abc6271933620002b1565b620001747f152ebba56b9738ee3d8baea1b76fa31dcdcd79b1929bfea7d58ee12cfdf1a65333620002b1565b620001a07f633076a97f32ae349b28772e7b1483f67a926f150cbc501d02bdbd77389325ab33620002b1565b600354604080516306fdde0360e01b815290517f8b73c3c69bb8fe3d512ecc4cf759cc79239f7b179b0ffacaa9a75d522b39400f926001600160a01b0316916306fdde039160048083019260009291908290030181865afa1580156200020a573d6000803e3d6000fd5b505050506040513d6000823e601f3d908101601f1916820160405262000234919081019062000561565b805160209182012060408051808201825260058152640312e302e360dc1b90840152516200028a93927f06c015bd22b4c69690933c1058878ebdfef31f9aaae40bbe86d8a09fe1b2972c914691309101620005b4565b60405160208183030381529060405280519060200120601c8190555050505050506200060a565b620002bd82826200033a565b62000336576000828152602081815260408083206001600160a01b03851684529091529020805460ff19166001179055620002f53390565b6001600160a01b0316816001600160a01b0316837f2f8788117e7eff1d82e926ec794901d17c78024a50270940304540a733656f0d60405160405180910390a45b5050565b6000828152602081815260408083206001600160a01b038516845290915290205460ff165b92915050565b805b81146200037357600080fd5b50565b80516200035f8162000365565b60006001600160a01b0382166200035f565b620003678162000383565b80516200035f8162000395565b600080600080600060a08688031215620003ca57620003ca600080fd5b6000620003d8888862000376565b9550506020620003eb88828901620003a0565b9450506040620003fe88828901620003a0565b93505060606200041188828901620003a0565b92505060806200042488828901620003a0565b9150509295509295909350565b634e487b7160e01b600052604160045260246000fd5b601f19601f83011681018181106001600160401b03821117156200046f576200046f62000431565b6040525050565b60006200048260405190565b905062000490828262000447565b919050565b60006001600160401b03821115620004b157620004b162000431565b601f19601f83011660200192915050565b60005b83811015620004df578181015183820152602001620004c5565b50506000910152565b6000620004ff620004f98462000495565b62000476565b9050828152602081018484840111156200051c576200051c600080fd5b62000529848285620004c2565b509392505050565b600082601f830112620005475762000547600080fd5b815162000559848260208601620004e8565b949350505050565b600060208284031215620005785762000578600080fd5b81516001600160401b03811115620005935762000593600080fd5b620005598482850162000531565b805b82525050565b620005a38162000383565b60a08101620005c48288620005a1565b620005d36020830187620005a1565b620005e26040830186620005a1565b620005f16060830185620005a1565b620006006080830184620005a9565b9695505050505050565b60805160a051612e9d62000630600039600061060f0152600061058b0152612e9d6000f3fe608060405234801561001057600080fd5b50600436106104865760003560e01c806377e3b2671161026057806377e3b2671461087d5780637ecebe00146108ae5780638212fd43146108ce5780638afca8f0146108e157806391986003146108ea57806391d14854146108fd57806394bf804d14610910578063993746421461092357806399530b06146109435780639a78e72e1461094b5780639bbca8841461095e5780639e34e348146109715780639f3988f314610984578063a217fddf14610999578063a457c2d7146109a1578063a835cd81146109b4578063a9059cbb146109c7578063a98222c4146109da578063ab5b4d49146109ef578063acded97d14610a04578063b3c187f214610a17578063b3d7f6b914610a2a578063b6cc2d1f14610a3d578063bb994d4814610a5e578063bbe4eb4914610a71578063bdc8144b14610a7e578063bee7e3d914610a91578063c065ca0714610aa4578063c0993eea14610ab9578063c63d75b614610ae0578063c6e6f59214610af3578063c8d74b6014610b06578063c8dffa9514610b1b578063d4ae064f14610b24578063d505accf14610b39578063d547741f14610b4c578063d81a09f614610b5f578063d9a0e97a14610b72578063dd62ed3e14610b7a578063df69b22a14610b8d578063e5236cc914610ba0578063ecf7085814610ba8578063ef8b30f714610af3578063f1daeba814610bb1578063f5b944eb14610bc6578063f6d7bfa014610bed578063f828f50b14610c00578063fc0e74d114610c09578063fd967f4714610c1d578063fec61f0614610c26578063ff1e7f0814610c3b57600080fd5b8062435da51461048b57806301e1d114146104b457806301ffc9a7146104c957806303dcd12c146104e957806306580f2d146104fe57806307a2d13a146105115780630835a3fc146105245780630952864e1461052d578063095ea7b3146105365780630a28a477146105495780630ad283d01461055c57806316b87ac01461057157806316d3bfbb1461058657806318160ddd146105ad578063223e5479146105b557806323b872dd146105c8578063248a9ca3146105db5780632d632692146105ee5780632d772168146105f75780632dd310001461060a5780632f2ff15d14610631578063313ce5671461064457806334b5fab6146106595780633644e5151461066c57806336568abe1461067557806336fba0841461068857806338d52e0f14610694578063395093511461069c57806339b70e38146106af57806339ebf823146106c25780633cd7b5ab146107075780633f7b5e4014610710578063402d267d14610718578063405977e71461072b57806348ea71271461073e5780634bbd71e9146107515780634cdad506146105115780634ce1d38a146107645780634cfe51dc146107795780634d4bb1971461078e5780634fb3ccc5146107b55780635141eebb146107c857806353a66132146107d15780635aa6e675146107f45780635bf6b4fb14610807578063633f228c1461081c578063652da3241461082f57806365cb6765146108445780636e553f651461085757806370a082311461086a575b600080fd5b60155461049e906001600160a01b031681565b6040516104ab9190612066565b60405180910390f35b6104bc610c4e565b6040516104ab919061207a565b6104dc6104d73660046120aa565b610cc0565b6040516104ab91906120d3565b6104bc600080516020612ce883398151915281565b6104bc61050c366004612216565b610cf7565b6104bc61051f3660046122a8565b610d90565b6104bc600e5481565b6104bc60175481565b6104dc6105443660046122c9565b610d9d565b6104bc6105573660046122a8565b610e1c565b6104bc600080516020612d0883398151915281565b61058461057f366004612306565b610e29565b005b6104bc7f000000000000000000000000000000000000000000000000000000000000000081565b6104bc610eaa565b6105846105c3366004612306565b610ef4565b6104dc6105d6366004612327565b610f3c565b6104bc6105e93660046122a8565b610ff9565b6104bc60185481565b610584610605366004612306565b61100e565b61049e7f000000000000000000000000000000000000000000000000000000000000000081565b61058461063f366004612377565b611055565b61064c611076565b6040516104ab91906123b3565b6104bc6106673660046123c1565b6110e4565b6104bc601c5481565b610584610683366004612377565b61115c565b6104bc64e8d4a5100081565b61049e61119b565b6104dc6106aa3660046122c9565b611209565b60025461049e906001600160a01b031681565b6106f76106d0366004612306565b60066020526000908152604090208054600182015460028301546003909301549192909184565b6040516104ab9493929190612421565b6104bc600d5481565b6104bc600a81565b6104bc610726366004612306565b61123e565b6105846107393660046122c9565b6112b0565b61058461074c366004612306565b61133d565b61058461075f366004612306565b611384565b6104bc600080516020612e4883398151915281565b6104bc600080516020612d6883398151915281565b6104bc7f6e71edae12b1b97f4d1f60370fef10105fa2faae0126114a169c64845d6126c981565b60105461049e906001600160a01b031681565b6104bc60195481565b6104dc6107df3660046122a8565b60146020526000908152604090205460ff1681565b60055461049e906001600160a01b031681565b6104bc600080516020612d4883398151915281565b61058461082a3660046124a7565b6113cb565b6104bc600080516020612cc883398151915281565b6104bc6108523660046123c1565b61144b565b6104bc610865366004612377565b611480565b6104bc610878366004612306565b61150c565b6108a1604051806040016040528060058152602001640312e302e360dc1b81525081565b6040516104ab9190612546565b6104bc6108bc366004612306565b601b6020526000908152604090205481565b6105846108dc3660046122a8565b61153d565b6104bc601a5481565b60125461049e906001600160a01b031681565b6104dc61090b366004612377565b611584565b6104bc61091e366004612377565b6115ad565b6104bc610931366004612306565b60136020526000908152604090205481565b6104bc6115eb565b6104bc610959366004612306565b611679565b61058461096c36600461256a565b6116aa565b60115461049e906001600160a01b031681565b6104bc600080516020612dc883398151915281565b6104bc600081565b6104dc6109af3660046122c9565b6116f1565b6104bc6109c2366004612327565b611726565b6104dc6109d53660046122c9565b6117d2565b6104bc600080516020612e2883398151915281565b6104bc600080516020612de883398151915281565b60035461049e906001600160a01b031681565b60165461049e906001600160a01b031681565b6104bc610a383660046122a8565b61187f565b610a50610a4b366004612306565b61188c565b6040516104ab92919061258b565b610584610a6c366004612306565b611934565b6008546104dc9060ff1681565b610584610a8c3660046122a8565b61197f565b60045461049e906001600160a01b031681565b6104bc600080516020612d8883398151915281565b6104bc7f8b73c3c69bb8fe3d512ecc4cf759cc79239f7b179b0ffacaa9a75d522b39400f81565b6104bc610aee366004612306565b6119c7565b6104bc610b013660046122a8565b6119f8565b6104bc600080516020612ca883398151915281565b6104bc600c5481565b6104bc600080516020612e0883398151915281565b6104dc610b473660046125ba565b611a05565b610584610b5a366004612377565b611a91565b6104bc610b6d366004612216565b611aad565b6104bc611aef565b6104bc610b88366004612659565b611b39565b610584610b9b3660046122a8565b611bad565b610584611bf4565b6104bc600f5481565b6104bc600080516020612da883398151915281565b6104bc7ff206625bad3d9112d5609b8d356e6fbd514cd1f69980d4ce2b3e6e68e1789ace81565b610584610bfb3660046122c9565b611c77565b6104bc600b5481565b6016546104dc90600160a01b900460ff1681565b6104bc61271081565b6104bc600080516020612d2883398151915281565b61049e610c493660046122a8565b611cc1565b600354604080516278744560e21b815290516000926001600160a01b0316916301e1d1149160048083019260209291908290030181865afa158015610c97573d6000803e3d6000fd5b505050506040513d601f19601f82011682018060405250810190610cbb9190612686565b905090565b60006001600160e01b03198216637965db0b60e01b1480610cf157506301ffc9a760e01b6001600160e01b03198316145b92915050565b6000610d01611ceb565b6003546040516306580f2d60e01b81526001600160a01b03909116906306580f2d90610d399089908990899089908990600401612704565b6020604051808303816000875af1158015610d58573d6000803e3d6000fd5b505050506040513d601f19601f82011682018060405250810190610d7c9190612686565b9050610d8760018055565b95945050505050565b6000610cf1826000611d14565b60035460405163e1f21c6760e01b81526000916001600160a01b03169063e1f21c6790610dd290339087908790600401612756565b6020604051808303816000875af1158015610df1573d6000803e3d6000fd5b505050506040513d601f19601f82011682018060405250810190610e159190612789565b9392505050565b6000610cf1826001611d47565b600080516020612d48833981519152610e4181611d7a565b600254604051637a163bd760e11b81526001600160a01b039091169063f42c77ae90610e749085906001906004016127aa565b600060405180830381600087803b158015610e8e57600080fd5b505af1158015610ea2573d6000803e3d6000fd5b505050505050565b600354604080516318160ddd60e01b815290516000926001600160a01b0316916318160ddd9160048083019260209291908290030181865afa158015610c97573d6000803e3d6000fd5b600080516020612d88833981519152610f0c81611d7a565b60025460405163223e547960e01b81526001600160a01b039091169063223e547990610e74908590600401612066565b60006001600160a01b038316301480610f5c57506001600160a01b038316155b15610f7a5760405163d92e233d60e01b815260040160405180910390fd5b6003546040516323b872dd60e01b81526001600160a01b03909116906323b872dd90610fae90879087908790600401612756565b6020604051808303816000875af1158015610fcd573d6000803e3d6000fd5b505050506040513d601f19601f82011682018060405250810190610ff19190612789565b949350505050565b60009081526020819052604090206001015490565b600080516020612e2883398151915261102681611d7a565b600480546040516305aee42d60e31b81526001600160a01b0390911691632d77216891610e7491869101612066565b61105e82610ff9565b61106781611d7a565b6110718383611d87565b505050565b6003546040805163313ce56760e01b815290516000926001600160a01b03169163313ce5679160048083019260209291908290030181865afa1580156110c0573d6000803e3d6000fd5b505050506040513d601f19601f82011682018060405250810190610cbb91906127d0565b600354604051631a5afd5b60e11b81526000916001600160a01b0316906334b5fab690611119908790879087906004016127f1565b6020604051808303816000875af1158015611138573d6000803e3d6000fd5b505050506040513d601f19601f82011682018060405250810190610ff19190612686565b6001600160a01b038116331461118d5760405162461bcd60e51b81526004016111849061281e565b60405180910390fd5b6111978282611e0b565b5050565b600354604080516338d52e0f60e01b815290516000926001600160a01b0316916338d52e0f9160048083019260209291908290030181865afa1580156111e5573d6000803e3d6000fd5b505050506040513d601f19601f82011682018060405250810190610cbb919061287c565b600354604051633621d16560e11b81526000916001600160a01b031690636c43a2ca90610dd290339087908790600401612756565b60035460405163402d267d60e01b81526000916001600160a01b03169063402d267d9061126f908590600401612066565b602060405180830381865afa15801561128c573d6000803e3d6000fd5b505050506040513d601f19601f82011682018060405250810190610cf19190612686565b600080516020612de88339815191526112c881611d7a565b6112d0611ceb565b60055460405163405977e760e01b81526001600160a01b039091169063405977e790611302908690869060040161289d565b600060405180830381600087803b15801561131c57600080fd5b505af1158015611330573d6000803e3d6000fd5b5050505061107160018055565b600080516020612cc883398151915261135581611d7a565b600480546040516348ea712760e01b81526001600160a01b03909116916348ea712791610e7491869101612066565b600080516020612e4883398151915261139c81611d7a565b60048054604051634bbd71e960e01b81526001600160a01b0390911691634bbd71e991610e7491869101612066565b600080516020612d688339815191526113e381611d7a565b600480546040516318cfc8a360e21b81526001600160a01b039091169163633f228c916114149187918791016128f7565b600060405180830381600087803b15801561142e57600080fd5b505af1158015611442573d6000803e3d6000fd5b50505050505050565b6003546040516365cb676560e01b81526000916001600160a01b0316906365cb676590611119908790879087906004016127f1565b600061148a611ceb565b600354604051638340f54960e01b81526001600160a01b0390911690638340f549906114be90339086908890600401612756565b6020604051808303816000875af11580156114dd573d6000803e3d6000fd5b505050506040513d601f19601f820116820180604052508101906115019190612686565b9050610cf160018055565b6003546040516370a0823160e01b81526000916001600160a01b0316906370a082319061126f908590600401612066565b600080516020612d0883398151915261155581611d7a565b60048054604051638212fd4360e01b81526001600160a01b0390911691638212fd4391610e749186910161207a565b6000918252602082815260408084206001600160a01b0393909316845291905290205460ff1690565b60006115b7611ceb565b600354604051636361ddf360e11b81526001600160a01b039091169063c6c3bbe6906114be90339086908890600401612756565b6000610cbb600360009054906101000a90046001600160a01b03166001600160a01b031663313ce5676040518163ffffffff1660e01b8152600401602060405180830381865afa158015611643573d6000803e3d6000fd5b505050506040513d601f19601f8201168201806040525081019061166791906127d0565b61167290600a612a2d565b6000611d14565b600254604051634d3c739760e11b81526000916001600160a01b031690639a78e72e9061126f908590600401612066565b600080516020612d688339815191526116c281611d7a565b600480546040516326ef2a2160e21b81526001600160a01b0390911691639bbca88491610e74918691016120d3565b60035460405163d73b1dc960e01b81526000916001600160a01b03169063d73b1dc990610dd290339087908790600401612756565b6000600080516020612ca883398151915261174081611d7a565b611748611ceb565b60025460405163a835cd8160e01b81526001600160a01b039091169063a835cd819061177c90889088908890600401612756565b6020604051808303816000875af115801561179b573d6000803e3d6000fd5b505050506040513d601f19601f820116820180604052508101906117bf9190612686565b91506117ca60018055565b509392505050565b60006001600160a01b0383163014806117f257506001600160a01b038316155b156118105760405163d92e233d60e01b815260040160405180910390fd5b6003546040516317d5759960e31b81526001600160a01b039091169063beabacc89061184490339087908790600401612756565b600060405180830381600087803b15801561185e57600080fd5b505af1158015611872573d6000803e3d6000fd5b5060019695505050505050565b6000610cf1826001611d14565b600080600080516020612ce88339815191526118a781611d7a565b6118af611ceb565b60025460405163b6cc2d1f60e01b81526001600160a01b039091169063b6cc2d1f906118df908790600401612066565b60408051808303816000875af11580156118fd573d6000803e3d6000fd5b505050506040513d601f19601f820116820180604052508101906119219190612a42565b9250925061192e60018055565b50915091565b600080516020612dc883398151915261194c81611d7a565b600254604051637a163bd760e11b81526001600160a01b039091169063f42c77ae90610e749085906000906004016127aa565b600080516020612e2883398151915261199781611d7a565b60035460405163bdc8144b60e01b81526001600160a01b039091169063bdc8144b90610e7490859060040161207a565b60035460405163631ebadb60e11b81526000916001600160a01b03169063c63d75b69061126f908590600401612066565b6000610cf1826000611d47565b60035460405163d505accf60e01b81526000916001600160a01b03169063d505accf90611a42908b908b908b908b908b908b908b90600401612a75565b6020604051808303816000875af1158015611a61573d6000803e3d6000fd5b505050506040513d601f19601f82011682018060405250810190611a859190612789565b98975050505050505050565b611a9a82610ff9565b611aa381611d7a565b6110718383611e0b565b6000611ab7611ceb565b600354604051636c0d04fb60e11b81526001600160a01b039091169063d81a09f690610d399089908990899089908990600401612704565b60035460408051636cd074bd60e11b815290516000926001600160a01b03169163d9a0e97a9160048083019260209291908290030181865afa158015610c97573d6000803e3d6000fd5b600354604051636eb1769f60e11b81526000916001600160a01b03169063dd62ed3e90611b6c9086908690600401612ad1565b602060405180830381865afa158015611b89573d6000803e3d6000fd5b505050506040513d601f19601f82011682018060405250810190610e159190612686565b600080516020612e08833981519152611bc581611d7a565b60048054604051636fb4d91560e11b81526001600160a01b039091169163df69b22a91610e749186910161207a565b600080516020612d28833981519152611c0c81611d7a565b600560009054906101000a90046001600160a01b03166001600160a01b031663e5236cc96040518163ffffffff1660e01b8152600401600060405180830381600087803b158015611c5c57600080fd5b505af1158015611c70573d6000803e3d6000fd5b5050505050565b600080516020612da8833981519152611c8f81611d7a565b6002546040516307b6bdfd60e51b81526001600160a01b039091169063f6d7bfa090611414908690869060040161289d565b60078181548110611cd157600080fd5b6000918252602090912001546001600160a01b0316905081565b600260015403611d0d5760405162461bcd60e51b815260040161118490612b23565b6002600155565b600354604051637ff0007760e01b81526000916001600160a01b031690637ff0007790611b6c9086908690600401612b77565b600354604051635d4086af60e01b81526000916001600160a01b031690635d4086af90611b6c9086908690600401612b77565b611d848133611e70565b50565b611d918282611584565b611197576000828152602081815260408083206001600160a01b03851684529091529020805460ff19166001179055611dc73390565b6001600160a01b0316816001600160a01b0316837f2f8788117e7eff1d82e926ec794901d17c78024a50270940304540a733656f0d60405160405180910390a45050565b611e158282611584565b15611197576000828152602081815260408083206001600160a01b0385168085529252808320805460ff1916905551339285917ff6391f5c32d9c69d2a47ea670b442974b53935d1edc7fd64eb21e047a839171b9190a45050565b611e7a8282611584565b61119757611e8781611ec9565b611e92836020611edb565b604051602001611ea3929190612bb4565b60408051601f198184030181529082905262461bcd60e51b825261118491600401612546565b6060610cf16001600160a01b03831660145b60606000611eea836002612c06565b611ef5906002612c25565b6001600160401b03811115611f0c57611f0c612110565b6040519080825280601f01601f191660200182016040528015611f36576020820181803683370190505b509050600360fc1b81600081518110611f5157611f51612c38565b60200101906001600160f81b031916908160001a905350600f60fb1b81600181518110611f8057611f80612c38565b60200101906001600160f81b031916908160001a9053506000611fa4846002612c06565b611faf906001612c25565b90505b6001811115612027576f181899199a1a9b1b9c1cb0b131b232b360811b85600f1660108110611fe357611fe3612c38565b1a60f81b828281518110611ff957611ff9612c38565b60200101906001600160f81b031916908160001a90535060049490941c9361202081612c4e565b9050611fb2565b508315610e155760405162461bcd60e51b815260040161118490612c97565b60006001600160a01b038216610cf1565b61206081612046565b82525050565b60208101610cf18284612057565b80612060565b60208101610cf18284612074565b6001600160e01b031981165b8114611d8457600080fd5b8035610cf181612088565b6000602082840312156120bf576120bf600080fd5b6000610ff1848461209f565b801515612060565b60208101610cf182846120cb565b80612094565b8035610cf1816120e1565b61209481612046565b8035610cf1816120f2565b601f01601f191690565b634e487b7160e01b600052604160045260246000fd5b61212f82612106565b81018181106001600160401b038211171561214c5761214c612110565b6040525050565b600061215e60405190565b905061216a8282612126565b919050565b60006001600160401b0382111561218857612188612110565b5060209081020190565b60006121a56121a08461216f565b612153565b838152905060208082019084028301858111156121c4576121c4600080fd5b835b818110156121e857806121d988826120fb565b845250602092830192016121c6565b5050509392505050565b600082601f83011261220657612206600080fd5b8135610ff1848260208601612192565b600080600080600060a0868803121561223157612231600080fd5b600061223d88886120e7565b955050602061224e888289016120fb565b945050604061225f888289016120fb565b9350506060612270888289016120e7565b92505060808601356001600160401b0381111561228f5761228f600080fd5b61229b888289016121f2565b9150509295509295909350565b6000602082840312156122bd576122bd600080fd5b6000610ff184846120e7565b600080604083850312156122df576122df600080fd5b60006122eb85856120fb565b92505060206122fc858286016120e7565b9150509250929050565b60006020828403121561231b5761231b600080fd5b6000610ff184846120fb565b60008060006060848603121561233f5761233f600080fd5b600061234b86866120fb565b935050602061235c868287016120fb565b925050604061236d868287016120e7565b9150509250925092565b6000806040838503121561238d5761238d600080fd5b600061239985856120e7565b92505060206122fc858286016120fb565b60ff8116612060565b60208101610cf182846123aa565b6000806000606084860312156123d9576123d9600080fd5b60006123e586866120fb565b93505060206123f6868287016120e7565b92505060408401356001600160401b0381111561241557612415600080fd5b61236d868287016121f2565b6080810161242f8287612074565b61243c6020830186612074565b6124496040830185612074565b610d876060830184612074565b60008083601f84011261246b5761246b600080fd5b5081356001600160401b0381111561248557612485600080fd5b6020830191508360208202830111156124a0576124a0600080fd5b9250929050565b600080602083850312156124bd576124bd600080fd5b82356001600160401b038111156124d6576124d6600080fd5b6124e285828601612456565b92509250509250929050565b60005b838110156125095781810151838201526020016124f1565b50506000910152565b600061251c825190565b8084526020840193506125338185602086016124ee565b61253c81612106565b9093019392505050565b60208082528101610e158184612512565b801515612094565b8035610cf181612557565b60006020828403121561257f5761257f600080fd5b6000610ff1848461255f565b604081016125998285612074565b610e156020830184612074565b60ff8116612094565b8035610cf1816125a6565b600080600080600080600060e0888a0312156125d8576125d8600080fd5b60006125e48a8a6120fb565b97505060206125f58a828b016120fb565b96505060406126068a828b016120e7565b95505060606126178a828b016120e7565b94505060806126288a828b016125af565b93505060a06126398a828b016120e7565b92505060c061264a8a828b016120e7565b91505092959891949750929550565b6000806040838503121561266f5761266f600080fd5b600061239985856120fb565b8051610cf1816120e1565b60006020828403121561269b5761269b600080fd5b6000610ff1848461267b565b60006126b38383612057565b505060200190565b60006126c5825190565b80845260209384019383018060005b838110156126f95781516126e888826126a7565b9750602083019250506001016126d4565b509495945050505050565b60a081016127128288612074565b61271f6020830187612057565b61272c6040830186612057565b6127396060830185612074565b818103608083015261274b81846126bb565b979650505050505050565b606081016127648286612057565b6127716020830185612057565b610ff16040830184612074565b8051610cf181612557565b60006020828403121561279e5761279e600080fd5b6000610ff1848461277e565b604081016127b88285612057565b610e1560208301846120cb565b8051610cf1816125a6565b6000602082840312156127e5576127e5600080fd5b6000610ff184846127c5565b606081016127ff8286612057565b61280c6020830185612074565b8181036040830152610d8781846126bb565b60208082528101610cf181602f81527f416363657373436f6e74726f6c3a2063616e206f6e6c792072656e6f756e636560208201526e103937b632b9903337b91039b2b63360891b604082015260600190565b8051610cf1816120f2565b60006020828403121561289157612891600080fd5b6000610ff18484612871565b604081016125998285612057565b6000610e1560208401846120fb565b8183526000602084019350818060005b858110156126f9576128dc82846128ab565b6128e688826126a7565b9750602083019250506001016128ca565b60208082528101610ff18184866128ba565b634e487b7160e01b600052601160045260246000fd5b80825b600185111561295e5780860481111561293d5761293d612909565b600185161561294b57908102905b80026129578560011c90565b9450612922565b94509492505050565b60008261297657506001610e15565b8161298357506000610e15565b816001811461299957600281146129a3576129d0565b6001915050610e15565b60ff8411156129b4576129b4612909565b8360020a9150848211156129ca576129ca612909565b50610e15565b5060208310610133831016604e8410600b8410161715612a03575081810a838111156129fe576129fe612909565b610e15565b612a10848484600161291f565b92509050818404811115612a2657612a26612909565b0292915050565b600060ff83169250610e156000198484612967565b60008060408385031215612a5857612a58600080fd5b6000612a64858561267b565b92505060206122fc8582860161267b565b60e08101612a83828a612057565b612a906020830189612057565b612a9d6040830188612074565b612aaa6060830187612074565b612ab760808301866123aa565b612ac460a0830185612074565b611a8560c0830184612074565b60408101612adf8285612057565b610e156020830184612057565b601f81526000602082017f5265656e7472616e637947756172643a207265656e7472616e742063616c6c00815291505b5060200190565b60208082528101610cf181612aec565b634e487b7160e01b600052602160045260246000fd5b60028110611d8457611d84612b33565b8061216a81612b49565b6000610cf182612b59565b61206081612b63565b60408101612b858285612074565b610e156020830184612b6e565b6000612b9c825190565b612baa8185602086016124ee565b9290920192915050565b76020b1b1b2b9b9a1b7b73a3937b61d1030b1b1b7bab73a1604d1b81526017016000612be08285612b92565b7001034b99036b4b9b9b4b733903937b6329607d1b81526011019150610ff18284612b92565b6000816000190483118215151615612c2057612c20612909565b500290565b80820180821115610cf157610cf1612909565b634e487b7160e01b600052603260045260246000fd5b600081612c5d57612c5d612909565b506000190190565b60208082527f537472696e67733a20686578206c656e67746820696e73756666696369656e7491019081526000612b1c565b60208082528101610cf181612c6556fe152ebba56b9738ee3d8baea1b76fa31dcdcd79b1929bfea7d58ee12cfdf1a653cd9f023a942ee35097ead74b2505bea9f2c5d47465db92dd195cf7f01a41cfe1633076a97f32ae349b28772e7b1483f67a926f150cbc501d02bdbd77389325abc723f4dd6268e1c374639e36d629c765285ee7003913389d582c300f186dde97d45f7ccff42f059d4e47c3f027c444272257266f7e88b981e142f0aa38fbfd78ea672c1c09cd95c51af9509f646f3615ff0071aae8652bd821471ee9037fd72c862f91c9d89d6135b19873b921c90b702cb2e175c371b8430026b9577e6911192a0e761830cc61f2707ea7bb138008bf9dda7f7d34c77736d0a116604e95ea167cbb3cdf689b8ea3e9d265f66bc4e0a99069268217017d38d2a5a559abc627196f430d649a8640e48ff9bfbc353b3f99ed630163857821b3b4075e3871dafbf5900d80def0427daac599092fcb16b21808ec68dd9a2e1eae89d1e8db21357375a18eaea71a088b547b8c932b48861853b3434d9a3240b94466c607e28b6965952f0dbbe8c2c0170206c50ec0cafa1c0dbd03e73e67c2a960178df30a0a30ee2e69d1171ac0a63777a6733cda21aec9ed3d48a4fd11f273c934a691dec5e5589ca26469706673582212206f635ffdcec7a06372e2b80fd14a57eb06efe805b763f7bafbe567435be3404f64736f6c63430008100033",
  "devdoc": {
    "kind": "dev",
    "methods": {
      "getRoleAdmin(bytes32)": {
        "details": "Returns the admin role that controls `role`. See {grantRole} and {revokeRole}. To change a role's admin, use {_setRoleAdmin}."
      },
      "grantRole(bytes32,address)": {
        "details": "Grants `role` to `account`. If `account` had not been already granted `role`, emits a {RoleGranted} event. Requirements: - the caller must have ``role``'s admin role. May emit a {RoleGranted} event."
      },
      "hasRole(bytes32,address)": {
        "details": "Returns `true` if `account` has been granted `role`."
      },
      "renounceRole(bytes32,address)": {
        "details": "Revokes `role` from the calling account. Roles are often managed via {grantRole} and {revokeRole}: this function's purpose is to provide a mechanism for accounts to lose their privileges if they are compromised (such as when a trusted device is misplaced). If the calling account had been revoked `role`, emits a {RoleRevoked} event. Requirements: - the caller must be `account`. May emit a {RoleRevoked} event."
      },
      "revokeRole(bytes32,address)": {
        "details": "Revokes `role` from `account`. If `account` had been granted `role`, emits a {RoleRevoked} event. Requirements: - the caller must have ``role``'s admin role. May emit a {RoleRevoked} event."
      },
      "supportsInterface(bytes4)": {
        "details": "See {IERC165-supportsInterface}."
      }
    },
    "title": "Yearn V3 Vault",
    "version": 1
  },
  "userdoc": {
    "kind": "user",
    "methods": {},
    "notice": "The Yearn VaultV3 is designed as a non-opinionated system to distribute funds of  depositors for a specific `asset` into different opportunities (aka Strategies) and manage accounting in a robust way.",
    "version": 1
  },
  "storageLayout": {
    "storage": [
      {
        "astId": 24,
        "contract": "contracts/FathomVault.sol:FathomVault",
        "label": "_roles",
        "offset": 0,
        "slot": "0",
        "type": "t_mapping(t_bytes32,t_struct(RoleData)19_storage)"
      },
      {
        "astId": 796,
        "contract": "contracts/FathomVault.sol:FathomVault",
        "label": "_status",
        "offset": 0,
        "slot": "1",
        "type": "t_uint256"
      },
      {
        "astId": 9120,
        "contract": "contracts/FathomVault.sol:FathomVault",
        "label": "strategyManager",
        "offset": 0,
        "slot": "2",
        "type": "t_address"
      },
      {
        "astId": 9122,
        "contract": "contracts/FathomVault.sol:FathomVault",
        "label": "sharesManager",
        "offset": 0,
        "slot": "3",
        "type": "t_address"
      },
      {
        "astId": 9124,
        "contract": "contracts/FathomVault.sol:FathomVault",
        "label": "setters",
        "offset": 0,
        "slot": "4",
        "type": "t_address"
      },
      {
        "astId": 9126,
        "contract": "contracts/FathomVault.sol:FathomVault",
        "label": "governance",
        "offset": 0,
        "slot": "5",
        "type": "t_address"
      },
      {
        "astId": 9131,
        "contract": "contracts/FathomVault.sol:FathomVault",
        "label": "strategies",
        "offset": 0,
        "slot": "6",
        "type": "t_mapping(t_address,t_struct(StrategyParams)9289_storage)"
      },
      {
        "astId": 9134,
        "contract": "contracts/FathomVault.sol:FathomVault",
        "label": "fees",
        "offset": 0,
        "slot": "7",
        "type": "t_struct(FeeAssessment)9647_storage"
      },
      {
        "astId": 9483,
        "contract": "contracts/FathomVault.sol:FathomVault",
        "label": "defaultQueue",
        "offset": 0,
        "slot": "11",
        "type": "t_array(t_address)dyn_storage"
      },
      {
        "astId": 9136,
        "contract": "contracts/FathomVault.sol:FathomVault",
        "label": "useDefaultQueue",
        "offset": 0,
        "slot": "12",
        "type": "t_bool"
      },
      {
        "astId": 9138,
        "contract": "contracts/FathomVault.sol:FathomVault",
        "label": "initialized",
        "offset": 1,
        "slot": "12",
        "type": "t_bool"
      },
      {
        "astId": 9142,
        "contract": "contracts/FathomVault.sol:FathomVault",
        "label": "_balanceOf",
        "offset": 0,
        "slot": "13",
        "type": "t_mapping(t_address,t_uint256)"
      },
      {
        "astId": 9148,
        "contract": "contracts/FathomVault.sol:FathomVault",
        "label": "_allowance",
        "offset": 0,
        "slot": "14",
        "type": "t_mapping(t_address,t_mapping(t_address,t_uint256))"
      },
      {
        "astId": 9150,
        "contract": "contracts/FathomVault.sol:FathomVault",
        "label": "implementations",
        "offset": 0,
        "slot": "11",
        "type": "t_uint256"
      },
      {
        "astId": 9152,
        "contract": "contracts/FathomVault.sol:FathomVault",
        "label": "totalDebtAmount",
        "offset": 0,
        "slot": "12",
        "type": "t_uint256"
      },
      {
        "astId": 9154,
        "contract": "contracts/FathomVault.sol:FathomVault",
        "label": "totalIdleAmount",
        "offset": 0,
        "slot": "13",
        "type": "t_uint256"
      },
      {
        "astId": 9156,
        "contract": "contracts/FathomVault.sol:FathomVault",
        "label": "minimumTotalIdle",
        "offset": 0,
        "slot": "14",
        "type": "t_uint256"
      },
      {
        "astId": 9158,
        "contract": "contracts/FathomVault.sol:FathomVault",
        "label": "depositLimit",
        "offset": 0,
        "slot": "15",
        "type": "t_uint256"
      },
      {
        "astId": 9160,
        "contract": "contracts/FathomVault.sol:FathomVault",
        "label": "accountant",
        "offset": 0,
        "slot": "16",
        "type": "t_address"
      },
      {
        "astId": 9162,
        "contract": "contracts/FathomVault.sol:FathomVault",
        "label": "depositLimitModule",
        "offset": 0,
        "slot": "17",
        "type": "t_address"
      },
      {
        "astId": 9164,
        "contract": "contracts/FathomVault.sol:FathomVault",
        "label": "withdrawLimitModule",
        "offset": 0,
        "slot": "18",
        "type": "t_address"
      },
      {
        "astId": 9168,
        "contract": "contracts/FathomVault.sol:FathomVault",
        "label": "roles",
        "offset": 0,
        "slot": "19",
        "type": "t_mapping(t_address,t_bytes32)"
      },
      {
        "astId": 9172,
        "contract": "contracts/FathomVault.sol:FathomVault",
        "label": "openRoles",
        "offset": 0,
        "slot": "20",
        "type": "t_mapping(t_bytes32,t_bool)"
      },
      {
        "astId": 9174,
        "contract": "contracts/FathomVault.sol:FathomVault",
        "label": "roleManager",
        "offset": 0,
        "slot": "21",
        "type": "t_address"
      },
      {
        "astId": 9176,
        "contract": "contracts/FathomVault.sol:FathomVault",
        "label": "futureRoleManager",
        "offset": 0,
        "slot": "22",
        "type": "t_address"
      },
      {
        "astId": 9178,
        "contract": "contracts/FathomVault.sol:FathomVault",
        "label": "shutdown",
        "offset": 20,
        "slot": "22",
        "type": "t_bool"
      },
      {
        "astId": 9180,
        "contract": "contracts/FathomVault.sol:FathomVault",
        "label": "profitMaxUnlockTime",
        "offset": 0,
        "slot": "23",
        "type": "t_uint256"
      },
      {
        "astId": 9182,
        "contract": "contracts/FathomVault.sol:FathomVault",
        "label": "fullProfitUnlockDate",
        "offset": 0,
        "slot": "24",
        "type": "t_uint256"
      },
      {
        "astId": 9184,
        "contract": "contracts/FathomVault.sol:FathomVault",
        "label": "profitUnlockingRate",
        "offset": 0,
        "slot": "25",
        "type": "t_uint256"
      },
      {
        "astId": 9186,
        "contract": "contracts/FathomVault.sol:FathomVault",
        "label": "lastProfitUpdate",
        "offset": 0,
        "slot": "26",
        "type": "t_uint256"
      },
      {
        "astId": 9190,
        "contract": "contracts/FathomVault.sol:FathomVault",
        "label": "nonces",
        "offset": 0,
        "slot": "27",
        "type": "t_mapping(t_address,t_uint256)"
      },
      {
        "astId": 9197,
        "contract": "contracts/FathomVault.sol:FathomVault",
        "label": "DOMAIN_SEPARATOR",
        "offset": 0,
        "slot": "28",
        "type": "t_bytes32"
      }
    ],
    "types": {
      "t_address": {
        "encoding": "inplace",
        "label": "address",
        "numberOfBytes": "20"
      },
      "t_array(t_address)dyn_storage": {
        "base": "t_address",
        "encoding": "dynamic_array",
        "label": "address[]",
        "numberOfBytes": "32"
      },
      "t_bool": {
        "encoding": "inplace",
        "label": "bool",
        "numberOfBytes": "1"
      },
      "t_bytes32": {
        "encoding": "inplace",
        "label": "bytes32",
        "numberOfBytes": "32"
      },
      "t_bytes4": {
        "encoding": "inplace",
        "label": "bytes4",
        "numberOfBytes": "4"
      },
      "t_mapping(t_address,t_bool)": {
        "encoding": "mapping",
        "key": "t_address",
        "label": "mapping(address => bool)",
        "numberOfBytes": "32",
        "value": "t_bool"
      },
      "t_mapping(t_address,t_bytes32)": {
        "encoding": "mapping",
        "key": "t_address",
        "label": "mapping(address => bytes32)",
        "numberOfBytes": "32",
        "value": "t_bytes32"
      },
      "t_mapping(t_address,t_mapping(t_address,t_uint256))": {
        "encoding": "mapping",
        "key": "t_address",
        "label": "mapping(address => mapping(address => uint256))",
        "numberOfBytes": "32",
        "value": "t_mapping(t_address,t_uint256)"
      },
      "t_mapping(t_address,t_struct(StrategyParams)9289_storage)": {
        "encoding": "mapping",
        "key": "t_address",
        "label": "mapping(address => struct StrategyParams)",
        "numberOfBytes": "32",
        "value": "t_struct(StrategyParams)9289_storage"
      },
      "t_mapping(t_address,t_uint256)": {
        "encoding": "mapping",
        "key": "t_address",
        "label": "mapping(address => uint256)",
        "numberOfBytes": "32",
        "value": "t_uint256"
      },
      "t_mapping(t_bytes32,t_bool)": {
        "encoding": "mapping",
        "key": "t_bytes32",
        "label": "mapping(bytes32 => bool)",
        "numberOfBytes": "32",
        "value": "t_bool"
      },
      "t_mapping(t_bytes32,t_struct(RoleData)19_storage)": {
        "encoding": "mapping",
        "key": "t_bytes32",
        "label": "mapping(bytes32 => struct AccessControl.RoleData)",
        "numberOfBytes": "32",
        "value": "t_struct(RoleData)19_storage"
      },
      "t_struct(RoleData)19_storage": {
        "encoding": "inplace",
        "label": "struct AccessControl.RoleData",
        "members": [
          {
            "astId": 16,
            "contract": "contracts/FathomVault.sol:FathomVault",
            "label": "members",
            "offset": 0,
            "slot": "0",
            "type": "t_mapping(t_address,t_bool)"
          },
          {
            "astId": 18,
            "contract": "contracts/FathomVault.sol:FathomVault",
            "label": "adminRole",
            "offset": 0,
            "slot": "1",
            "type": "t_bytes32"
          }
        ],
        "numberOfBytes": "64"
      },
      "t_struct(StrategyParams)9289_storage": {
        "encoding": "inplace",
        "label": "struct StrategyParams",
        "members": [
          {
            "astId": 9282,
            "contract": "contracts/FathomVault.sol:FathomVault",
            "label": "activation",
            "offset": 0,
            "slot": "0",
            "type": "t_uint256"
          },
          {
            "astId": 9284,
            "contract": "contracts/FathomVault.sol:FathomVault",
            "label": "lastReport",
            "offset": 0,
            "slot": "1",
            "type": "t_uint256"
          },
          {
            "astId": 9286,
            "contract": "contracts/FathomVault.sol:FathomVault",
            "label": "currentDebt",
            "offset": 0,
            "slot": "2",
            "type": "t_uint256"
          },
          {
            "astId": 9288,
            "contract": "contracts/FathomVault.sol:FathomVault",
            "label": "maxDebt",
            "offset": 0,
            "slot": "3",
            "type": "t_uint256"
          }
        ],
        "numberOfBytes": "128"
      },
      "t_uint256": {
        "encoding": "inplace",
        "label": "uint256",
        "numberOfBytes": "32"
      }
    }
  }
}