{
  "address": "0xAFA344B50B2027B91BA733F790BA7eC696830936",
  "abi": [
    {
      "inputs": [
        {
          "internalType": "address",
          "name": "implementation",
          "type": "address"
        },
        {
          "internalType": "bytes",
          "name": "_data",
          "type": "bytes"
        }
      ],
      "stateMutability": "payable",
      "type": "constructor"
    },
    {
      "anonymous": false,
      "inputs": [
        {
          "indexed": false,
          "internalType": "address",
          "name": "previousAdmin",
          "type": "address"
        },
        {
          "indexed": false,
          "internalType": "address",
          "name": "newAdmin",
          "type": "address"
        }
      ],
      "name": "AdminChanged",
      "type": "event"
    },
    {
      "anonymous": false,
      "inputs": [
        {
          "indexed": true,
          "internalType": "address",
          "name": "beacon",
          "type": "address"
        }
      ],
      "name": "BeaconUpgraded",
      "type": "event"
    },
    {
      "anonymous": false,
      "inputs": [
        {
          "indexed": true,
          "internalType": "address",
          "name": "strategy",
          "type": "address"
        },
        {
          "indexed": false,
          "internalType": "uint256",
          "name": "amount",
          "type": "uint256"
        }
      ],
      "name": "DebtPurchased",
      "type": "event"
    },
    {
      "anonymous": false,
      "inputs": [
        {
          "indexed": true,
          "internalType": "address",
          "name": "strategy",
          "type": "address"
        },
        {
          "indexed": false,
          "internalType": "uint256",
          "name": "currentDebt",
          "type": "uint256"
        },
        {
          "indexed": false,
          "internalType": "uint256",
          "name": "newDebt",
          "type": "uint256"
        }
      ],
      "name": "DebtUpdated",
      "type": "event"
    },
    {
      "anonymous": false,
      "inputs": [
        {
          "indexed": true,
          "internalType": "bytes32",
          "name": "role",
          "type": "bytes32"
        },
        {
          "indexed": true,
          "internalType": "bytes32",
          "name": "previousAdminRole",
          "type": "bytes32"
        },
        {
          "indexed": true,
          "internalType": "bytes32",
          "name": "newAdminRole",
          "type": "bytes32"
        }
      ],
      "name": "RoleAdminChanged",
      "type": "event"
    },
    {
      "anonymous": false,
      "inputs": [
        {
          "indexed": true,
          "internalType": "bytes32",
          "name": "role",
          "type": "bytes32"
        },
        {
          "indexed": true,
          "internalType": "address",
          "name": "account",
          "type": "address"
        },
        {
          "indexed": true,
          "internalType": "address",
          "name": "sender",
          "type": "address"
        }
      ],
      "name": "RoleGranted",
      "type": "event"
    },
    {
      "anonymous": false,
      "inputs": [
        {
          "indexed": true,
          "internalType": "bytes32",
          "name": "role",
          "type": "bytes32"
        },
        {
          "indexed": true,
          "internalType": "address",
          "name": "account",
          "type": "address"
        },
        {
          "indexed": true,
          "internalType": "address",
          "name": "sender",
          "type": "address"
        }
      ],
      "name": "RoleRevoked",
      "type": "event"
    },
    {
      "anonymous": false,
      "inputs": [
        {
          "indexed": true,
          "internalType": "address",
          "name": "account",
          "type": "address"
        },
        {
          "indexed": false,
          "internalType": "bytes32",
          "name": "role",
          "type": "bytes32"
        }
      ],
      "name": "RoleSet",
      "type": "event"
    },
    {
      "anonymous": false,
      "inputs": [
        {
          "indexed": true,
          "internalType": "bytes32",
          "name": "role",
          "type": "bytes32"
        },
        {
          "indexed": true,
          "internalType": "enum RoleStatusChange",
          "name": "status",
          "type": "uint8"
        }
      ],
      "name": "RoleStatusChanged",
      "type": "event"
    },
    {
      "anonymous": false,
      "inputs": [],
      "name": "Shutdown",
      "type": "event"
    },
    {
      "anonymous": false,
      "inputs": [
        {
          "indexed": true,
          "internalType": "address",
          "name": "strategy",
          "type": "address"
        },
        {
          "indexed": false,
          "internalType": "enum StrategyChangeType",
          "name": "changeType",
          "type": "uint8"
        }
      ],
      "name": "StrategyChanged",
      "type": "event"
    },
    {
      "anonymous": false,
      "inputs": [
        {
          "indexed": true,
          "internalType": "address",
          "name": "strategy",
          "type": "address"
        },
        {
          "indexed": false,
          "internalType": "uint256",
          "name": "gain",
          "type": "uint256"
        },
        {
          "indexed": false,
          "internalType": "uint256",
          "name": "loss",
          "type": "uint256"
        },
        {
          "indexed": false,
          "internalType": "uint256",
          "name": "currentDebt",
          "type": "uint256"
        },
        {
          "indexed": false,
          "internalType": "uint256",
          "name": "protocolFees",
          "type": "uint256"
        },
        {
          "indexed": false,
          "internalType": "uint256",
          "name": "totalFees",
          "type": "uint256"
        },
        {
          "indexed": false,
          "internalType": "uint256",
          "name": "totalRefunds",
          "type": "uint256"
        }
      ],
      "name": "StrategyReported",
      "type": "event"
    },
    {
      "anonymous": false,
      "inputs": [
        {
          "indexed": true,
          "internalType": "address",
          "name": "accountant",
          "type": "address"
        }
      ],
      "name": "UpdateAccountant",
      "type": "event"
    },
    {
      "anonymous": false,
      "inputs": [
        {
          "indexed": false,
          "internalType": "address[]",
          "name": "newDefaultQueue",
          "type": "address[]"
        }
      ],
      "name": "UpdateDefaultQueue",
      "type": "event"
    },
    {
      "anonymous": false,
      "inputs": [
        {
          "indexed": false,
          "internalType": "uint256",
          "name": "depositLimit",
          "type": "uint256"
        }
      ],
      "name": "UpdateDepositLimit",
      "type": "event"
    },
    {
      "anonymous": false,
      "inputs": [
        {
          "indexed": true,
          "internalType": "address",
          "name": "depositLimitModule",
          "type": "address"
        }
      ],
      "name": "UpdateDepositLimitModule",
      "type": "event"
    },
    {
      "anonymous": false,
      "inputs": [
        {
          "indexed": false,
          "internalType": "uint256",
          "name": "minimumTotalIdle",
          "type": "uint256"
        }
      ],
      "name": "UpdateMinimumTotalIdle",
      "type": "event"
    },
    {
      "anonymous": false,
      "inputs": [
        {
          "indexed": false,
          "internalType": "uint256",
          "name": "profitMaxUnlockTime",
          "type": "uint256"
        }
      ],
      "name": "UpdateProfitMaxUnlockTime",
      "type": "event"
    },
    {
      "anonymous": false,
      "inputs": [
        {
          "indexed": true,
          "internalType": "address",
          "name": "roleManager",
          "type": "address"
        }
      ],
      "name": "UpdateRoleManager",
      "type": "event"
    },
    {
      "anonymous": false,
      "inputs": [
        {
          "indexed": false,
          "internalType": "bool",
          "name": "useDefaultQueue",
          "type": "bool"
        }
      ],
      "name": "UpdateUseDefaultQueue",
      "type": "event"
    },
    {
      "anonymous": false,
      "inputs": [
        {
          "indexed": true,
          "internalType": "address",
          "name": "withdrawLimitModule",
          "type": "address"
        }
      ],
      "name": "UpdateWithdrawLimitModule",
      "type": "event"
    },
    {
      "anonymous": false,
      "inputs": [
        {
          "indexed": true,
          "internalType": "uint256",
          "name": "totalFees",
          "type": "uint256"
        },
        {
          "indexed": true,
          "internalType": "uint256",
          "name": "totalRefunds",
          "type": "uint256"
        },
        {
          "indexed": true,
          "internalType": "uint256",
          "name": "protocolFees",
          "type": "uint256"
        },
        {
          "indexed": false,
          "internalType": "address",
          "name": "protocolFeeRecipient",
          "type": "address"
        }
      ],
      "name": "UpdatedFees",
      "type": "event"
    },
    {
      "anonymous": false,
      "inputs": [
        {
          "indexed": true,
          "internalType": "address",
          "name": "sender",
          "type": "address"
        },
        {
          "indexed": true,
          "internalType": "address",
          "name": "strategy",
          "type": "address"
        },
        {
          "indexed": false,
          "internalType": "uint256",
          "name": "newDebt",
          "type": "uint256"
        }
      ],
      "name": "UpdatedMaxDebtForStrategy",
      "type": "event"
    },
    {
      "anonymous": false,
      "inputs": [
        {
          "indexed": true,
          "internalType": "address",
          "name": "implementation",
          "type": "address"
        }
      ],
      "name": "Upgraded",
      "type": "event"
    },
    {
      "stateMutability": "payable",
      "type": "fallback"
    },
    {
      "inputs": [],
      "name": "ACCOUNTANT_MANAGER",
      "outputs": [
        {
          "internalType": "bytes32",
          "name": "",
          "type": "bytes32"
        }
      ],
      "stateMutability": "view",
      "type": "function"
    },
    {
      "inputs": [],
      "name": "ADD_STRATEGY_MANAGER",
      "outputs": [
        {
          "internalType": "bytes32",
          "name": "",
          "type": "bytes32"
        }
      ],
      "stateMutability": "view",
      "type": "function"
    },
    {
      "inputs": [],
      "name": "API_VERSION",
      "outputs": [
        {
          "internalType": "string",
          "name": "",
          "type": "string"
        }
      ],
      "stateMutability": "view",
      "type": "function"
    },
    {
      "inputs": [],
      "name": "DEBT_MANAGER",
      "outputs": [
        {
          "internalType": "bytes32",
          "name": "",
          "type": "bytes32"
        }
      ],
      "stateMutability": "view",
      "type": "function"
    },
    {
      "inputs": [],
      "name": "DEBT_PURCHASER",
      "outputs": [
        {
          "internalType": "bytes32",
          "name": "",
          "type": "bytes32"
        }
      ],
      "stateMutability": "view",
      "type": "function"
    },
    {
      "inputs": [],
      "name": "DEFAULT_ADMIN_ROLE",
      "outputs": [
        {
          "internalType": "bytes32",
          "name": "",
          "type": "bytes32"
        }
      ],
      "stateMutability": "view",
      "type": "function"
    },
    {
      "inputs": [],
      "name": "DEPOSIT_LIMIT_MANAGER",
      "outputs": [
        {
          "internalType": "bytes32",
          "name": "",
          "type": "bytes32"
        }
      ],
      "stateMutability": "view",
      "type": "function"
    },
    {
      "inputs": [],
      "name": "DOMAIN_SEPARATOR",
      "outputs": [
        {
          "internalType": "bytes32",
          "name": "",
          "type": "bytes32"
        }
      ],
      "stateMutability": "view",
      "type": "function"
    },
    {
      "inputs": [],
      "name": "DOMAIN_TYPE_HASH",
      "outputs": [
        {
          "internalType": "bytes32",
          "name": "",
          "type": "bytes32"
        }
      ],
      "stateMutability": "view",
      "type": "function"
    },
    {
      "inputs": [],
      "name": "EMERGENCY_MANAGER",
      "outputs": [
        {
          "internalType": "bytes32",
          "name": "",
          "type": "bytes32"
        }
      ],
      "stateMutability": "view",
      "type": "function"
    },
    {
      "inputs": [],
      "name": "FORCE_REVOKE_MANAGER",
      "outputs": [
        {
          "internalType": "bytes32",
          "name": "",
          "type": "bytes32"
        }
      ],
      "stateMutability": "view",
      "type": "function"
    },
    {
      "inputs": [],
      "name": "MAX_BPS",
      "outputs": [
        {
          "internalType": "uint256",
          "name": "",
          "type": "uint256"
        }
      ],
      "stateMutability": "view",
      "type": "function"
    },
    {
      "inputs": [],
      "name": "MAX_BPS_EXTENDED",
      "outputs": [
        {
          "internalType": "uint256",
          "name": "",
          "type": "uint256"
        }
      ],
      "stateMutability": "view",
      "type": "function"
    },
    {
      "inputs": [],
      "name": "MAX_DEBT_MANAGER",
      "outputs": [
        {
          "internalType": "bytes32",
          "name": "",
          "type": "bytes32"
        }
      ],
      "stateMutability": "view",
      "type": "function"
    },
    {
      "inputs": [],
      "name": "MAX_QUEUE",
      "outputs": [
        {
          "internalType": "uint256",
          "name": "",
          "type": "uint256"
        }
      ],
      "stateMutability": "view",
      "type": "function"
    },
    {
      "inputs": [],
      "name": "MINIMUM_IDLE_MANAGER",
      "outputs": [
        {
          "internalType": "bytes32",
          "name": "",
          "type": "bytes32"
        }
      ],
      "stateMutability": "view",
      "type": "function"
    },
    {
      "inputs": [],
      "name": "ONE_YEAR",
      "outputs": [
        {
          "internalType": "uint256",
          "name": "",
          "type": "uint256"
        }
      ],
      "stateMutability": "view",
      "type": "function"
    },
    {
      "inputs": [],
      "name": "PERMIT_TYPE_HASH",
      "outputs": [
        {
          "internalType": "bytes32",
          "name": "",
          "type": "bytes32"
        }
      ],
      "stateMutability": "view",
      "type": "function"
    },
    {
      "inputs": [],
      "name": "PROFIT_UNLOCK_MANAGER",
      "outputs": [
        {
          "internalType": "bytes32",
          "name": "",
          "type": "bytes32"
        }
      ],
      "stateMutability": "view",
      "type": "function"
    },
    {
      "inputs": [],
      "name": "QUEUE_MANAGER",
      "outputs": [
        {
          "internalType": "bytes32",
          "name": "",
          "type": "bytes32"
        }
      ],
      "stateMutability": "view",
      "type": "function"
    },
    {
      "inputs": [],
      "name": "REPORTING_MANAGER",
      "outputs": [
        {
          "internalType": "bytes32",
          "name": "",
          "type": "bytes32"
        }
      ],
      "stateMutability": "view",
      "type": "function"
    },
    {
      "inputs": [],
      "name": "REVOKE_STRATEGY_MANAGER",
      "outputs": [
        {
          "internalType": "bytes32",
          "name": "",
          "type": "bytes32"
        }
      ],
      "stateMutability": "view",
      "type": "function"
    },
    {
      "inputs": [],
      "name": "ROLE_MANAGER",
      "outputs": [
        {
          "internalType": "bytes32",
          "name": "",
          "type": "bytes32"
        }
      ],
      "stateMutability": "view",
      "type": "function"
    },
    {
      "inputs": [],
      "name": "WITHDRAW_LIMIT_MANAGER",
      "outputs": [
        {
          "internalType": "bytes32",
          "name": "",
          "type": "bytes32"
        }
      ],
      "stateMutability": "view",
      "type": "function"
    },
    {
      "inputs": [],
      "name": "accountant",
      "outputs": [
        {
          "internalType": "address",
          "name": "",
          "type": "address"
        }
      ],
      "stateMutability": "view",
      "type": "function"
    },
    {
      "inputs": [
        {
          "internalType": "uint256",
          "name": "",
          "type": "uint256"
        }
      ],
      "name": "defaultQueue",
      "outputs": [
        {
          "internalType": "address",
          "name": "",
          "type": "address"
        }
      ],
      "stateMutability": "view",
      "type": "function"
    },
    {
      "inputs": [],
      "name": "depositLimit",
      "outputs": [
        {
          "internalType": "uint256",
          "name": "",
          "type": "uint256"
        }
      ],
      "stateMutability": "view",
      "type": "function"
    },
    {
      "inputs": [],
      "name": "depositLimitModule",
      "outputs": [
        {
          "internalType": "address",
          "name": "",
          "type": "address"
        }
      ],
      "stateMutability": "view",
      "type": "function"
    },
    {
      "inputs": [],
      "name": "fees",
      "outputs": [
        {
          "internalType": "uint256",
          "name": "totalFees",
          "type": "uint256"
        },
        {
          "internalType": "uint256",
          "name": "totalRefunds",
          "type": "uint256"
        },
        {
          "internalType": "uint256",
          "name": "protocolFees",
          "type": "uint256"
        },
        {
          "internalType": "address",
          "name": "protocolFeeRecipient",
          "type": "address"
        }
      ],
      "stateMutability": "view",
      "type": "function"
    },
    {
      "inputs": [],
      "name": "fullProfitUnlockDate",
      "outputs": [
        {
          "internalType": "uint256",
          "name": "",
          "type": "uint256"
        }
      ],
      "stateMutability": "view",
      "type": "function"
    },
    {
      "inputs": [],
      "name": "futureRoleManager",
      "outputs": [
        {
          "internalType": "address",
          "name": "",
          "type": "address"
        }
      ],
      "stateMutability": "view",
      "type": "function"
    },
    {
      "inputs": [
        {
          "internalType": "bytes32",
          "name": "role",
          "type": "bytes32"
        }
      ],
      "name": "getRoleAdmin",
      "outputs": [
        {
          "internalType": "bytes32",
          "name": "",
          "type": "bytes32"
        }
      ],
      "stateMutability": "view",
      "type": "function"
    },
    {
      "inputs": [],
      "name": "governance",
      "outputs": [
        {
          "internalType": "address",
          "name": "",
          "type": "address"
        }
      ],
      "stateMutability": "view",
      "type": "function"
    },
    {
      "inputs": [
        {
          "internalType": "bytes32",
          "name": "role",
          "type": "bytes32"
        },
        {
          "internalType": "address",
          "name": "account",
          "type": "address"
        }
      ],
      "name": "grantRole",
      "outputs": [],
      "stateMutability": "nonpayable",
      "type": "function"
    },
    {
      "inputs": [
        {
          "internalType": "bytes32",
          "name": "role",
          "type": "bytes32"
        },
        {
          "internalType": "address",
          "name": "account",
          "type": "address"
        }
      ],
      "name": "hasRole",
      "outputs": [
        {
          "internalType": "bool",
          "name": "",
          "type": "bool"
        }
      ],
      "stateMutability": "view",
      "type": "function"
    },
    {
      "inputs": [],
      "name": "lastProfitUpdate",
      "outputs": [
        {
          "internalType": "uint256",
          "name": "",
          "type": "uint256"
        }
      ],
      "stateMutability": "view",
      "type": "function"
    },
    {
      "inputs": [],
      "name": "minimumTotalIdle",
      "outputs": [
        {
          "internalType": "uint256",
          "name": "",
          "type": "uint256"
        }
      ],
      "stateMutability": "view",
      "type": "function"
    },
    {
      "inputs": [
        {
          "internalType": "address",
          "name": "",
          "type": "address"
        }
      ],
      "name": "nonces",
      "outputs": [
        {
          "internalType": "uint256",
          "name": "",
          "type": "uint256"
        }
      ],
      "stateMutability": "view",
      "type": "function"
    },
    {
      "inputs": [
        {
          "internalType": "bytes32",
          "name": "",
          "type": "bytes32"
        }
      ],
      "name": "openRoles",
      "outputs": [
        {
          "internalType": "bool",
          "name": "",
          "type": "bool"
        }
      ],
      "stateMutability": "view",
      "type": "function"
    },
    {
      "inputs": [],
      "name": "profitMaxUnlockTime",
      "outputs": [
        {
          "internalType": "uint256",
          "name": "",
          "type": "uint256"
        }
      ],
      "stateMutability": "view",
      "type": "function"
    },
    {
      "inputs": [],
      "name": "profitUnlockingRate",
      "outputs": [
        {
          "internalType": "uint256",
          "name": "",
          "type": "uint256"
        }
      ],
      "stateMutability": "view",
      "type": "function"
    },
    {
      "inputs": [
        {
          "internalType": "bytes32",
          "name": "role",
          "type": "bytes32"
        },
        {
          "internalType": "address",
          "name": "account",
          "type": "address"
        }
      ],
      "name": "renounceRole",
      "outputs": [],
      "stateMutability": "nonpayable",
      "type": "function"
    },
    {
      "inputs": [
        {
          "internalType": "bytes32",
          "name": "role",
          "type": "bytes32"
        },
        {
          "internalType": "address",
          "name": "account",
          "type": "address"
        }
      ],
      "name": "revokeRole",
      "outputs": [],
      "stateMutability": "nonpayable",
      "type": "function"
    },
    {
      "inputs": [],
      "name": "roleManager",
      "outputs": [
        {
          "internalType": "address",
          "name": "",
          "type": "address"
        }
      ],
      "stateMutability": "view",
      "type": "function"
    },
    {
      "inputs": [
        {
          "internalType": "address",
          "name": "",
          "type": "address"
        }
      ],
      "name": "roles",
      "outputs": [
        {
          "internalType": "bytes32",
          "name": "",
          "type": "bytes32"
        }
      ],
      "stateMutability": "view",
      "type": "function"
    },
    {
      "inputs": [
        {
          "internalType": "address",
          "name": "implementation",
          "type": "address"
        },
        {
          "internalType": "bytes",
          "name": "_data",
          "type": "bytes"
        }
      ],
      "name": "setImplementation",
      "outputs": [],
      "stateMutability": "nonpayable",
      "type": "function"
    },
    {
      "inputs": [],
      "name": "setters",
      "outputs": [
        {
          "internalType": "address payable",
          "name": "",
          "type": "address"
        }
      ],
      "stateMutability": "view",
      "type": "function"
    },
    {
      "inputs": [],
      "name": "sharesManager",
      "outputs": [
        {
          "internalType": "address",
          "name": "",
          "type": "address"
        }
      ],
      "stateMutability": "view",
      "type": "function"
    },
    {
      "inputs": [],
      "name": "shutdown",
      "outputs": [
        {
          "internalType": "bool",
          "name": "",
          "type": "bool"
        }
      ],
      "stateMutability": "view",
      "type": "function"
    },
    {
      "inputs": [
        {
          "internalType": "address",
          "name": "",
          "type": "address"
        }
      ],
      "name": "strategies",
      "outputs": [
        {
          "internalType": "uint256",
          "name": "activation",
          "type": "uint256"
        },
        {
          "internalType": "uint256",
          "name": "lastReport",
          "type": "uint256"
        },
        {
          "internalType": "uint256",
          "name": "currentDebt",
          "type": "uint256"
        },
        {
          "internalType": "uint256",
          "name": "maxDebt",
          "type": "uint256"
        }
      ],
      "stateMutability": "view",
      "type": "function"
    },
    {
      "inputs": [],
      "name": "strategyManager",
      "outputs": [
        {
          "internalType": "address payable",
          "name": "",
          "type": "address"
        }
      ],
      "stateMutability": "view",
      "type": "function"
    },
    {
      "inputs": [
        {
          "internalType": "bytes4",
          "name": "interfaceId",
          "type": "bytes4"
        }
      ],
      "name": "supportsInterface",
      "outputs": [
        {
          "internalType": "bool",
          "name": "",
          "type": "bool"
        }
      ],
      "stateMutability": "view",
      "type": "function"
    },
    {
      "inputs": [],
      "name": "totalDebtAmount",
      "outputs": [
        {
          "internalType": "uint256",
          "name": "",
          "type": "uint256"
        }
      ],
      "stateMutability": "view",
      "type": "function"
    },
    {
      "inputs": [],
      "name": "totalIdleAmount",
      "outputs": [
        {
          "internalType": "uint256",
          "name": "",
          "type": "uint256"
        }
      ],
      "stateMutability": "view",
      "type": "function"
    },
    {
      "inputs": [],
      "name": "totalSupplyAmount",
      "outputs": [
        {
          "internalType": "uint256",
          "name": "",
          "type": "uint256"
        }
      ],
      "stateMutability": "view",
      "type": "function"
    },
    {
      "inputs": [],
      "name": "useDefaultQueue",
      "outputs": [
        {
          "internalType": "bool",
          "name": "",
          "type": "bool"
        }
      ],
      "stateMutability": "view",
      "type": "function"
    },
    {
      "inputs": [],
      "name": "withdrawLimitModule",
      "outputs": [
        {
          "internalType": "address",
          "name": "",
          "type": "address"
        }
      ],
      "stateMutability": "view",
      "type": "function"
    },
    {
      "stateMutability": "payable",
      "type": "receive"
    }
  ],
  "transactionHash": "0xda6b1ad904b6f329384779609fe248b1898a0dca2f1350ad991e248d805f6ee9",
  "args": [
    "0x760375EDdc9D3Db80712242F2c88CE31B7c58a38",
    []
  ],
  "numDeployments": 1,
  "solcInputHash": "4f5fad6b3b661da677d0c59da67436e7",
  "bytecode": "0x60a06040526301e1855860809081525060405162001e5138038062001e518339810160408190526200003191620004db565b600180556200004260003362000058565b6200005082826000620000e1565b505062000647565b6200006482826200011e565b620000dd576000828152602081815260408083206001600160a01b03851684529091529020805460ff191660011790556200009c3390565b6001600160a01b0316816001600160a01b0316837f2f8788117e7eff1d82e926ec794901d17c78024a50270940304540a733656f0d60405160405180910390a45b5050565b620000ec8362000149565b600082511180620000fa5750805b1562000119576200011783836200018b60201b62000ca21760201c565b505b505050565b6000828152602081815260408083206001600160a01b038516845290915290205460ff165b92915050565b6200015481620001ba565b6040516001600160a01b038216907fbc7cd75a20ee27fd9adebab32041f755214dbc6bffa90cc0225b39da2e5c2d3b90600090a250565b6060620001b3838360405180606001604052806027815260200162001e2a6027913962000253565b9392505050565b620001d081620002d260201b62000cce1760201c565b620001f85760405162461bcd60e51b8152600401620001ef906200053a565b60405180910390fd5b80620002327f360894a13ba1a3210667c828492db98dca3e2076cc3735a920a3ca505d382bbc60001b620002e160201b62000cdd1760201c565b80546001600160a01b0319166001600160a01b039290921691909117905550565b6060600080856001600160a01b031685604051620002729190620005b1565b600060405180830381855af49150503d8060008114620002af576040519150601f19603f3d011682016040523d82523d6000602084013e620002b4565b606091505b509092509050620002c886838387620002e4565b9695505050505050565b6001600160a01b03163b151590565b90565b606083156200032957825160000362000321576001600160a01b0385163b620003215760405162461bcd60e51b8152600401620001ef90620005bf565b508162000335565b6200033583836200033d565b949350505050565b8151156200034e5781518083602001fd5b8060405162461bcd60e51b8152600401620001ef919062000634565b60006001600160a01b03821662000143565b62000387816200036a565b81146200039357600080fd5b50565b805162000143816200037c565b601f01601f191690565b634e487b7160e01b600052604160045260246000fd5b620003ce82620003a3565b81018181106001600160401b0382111715620003ee57620003ee620003ad565b6040525050565b60006200040160405190565b90506200040f8282620003c3565b919050565b60006001600160401b03821115620004305762000430620003ad565b6200043b82620003a3565b60200192915050565b60005b838110156200046157818101518382015260200162000447565b50506000910152565b6000620004816200047b8462000414565b620003f5565b9050828152602081018484840111156200049e576200049e600080fd5b620004ab84828562000444565b509392505050565b600082601f830112620004c957620004c9600080fd5b8151620003358482602086016200046a565b60008060408385031215620004f357620004f3600080fd5b600062000501858562000396565b92505060208301516001600160401b03811115620005225762000522600080fd5b6200053085828601620004b3565b9150509250929050565b602080825281016200014381602d81527f455243313936373a206e657720696d706c656d656e746174696f6e206973206e60208201526c1bdd08184818dbdb9d1c9858dd609a1b604082015260600190565b600062000597825190565b620005a781856020860162000444565b9290920192915050565b6000620001b382846200058c565b602080825281016200014381601d81527f416464726573733a2063616c6c20746f206e6f6e2d636f6e7472616374000000602082015260400190565b600062000606825190565b8084526020840193506200061f81856020860162000444565b6200062a81620003a3565b9093019392505050565b60208082528101620001b38184620005fb565b6080516117c76200066360003960006103b601526117c76000f3fe6080604052600436106102895760003560e01c8062435da5146102a057806301ffc9a7146102d657806303dcd12c146103035780630835a3fc146103445780630952864e1461035a5780630ad283d01461037057806316d3bfbb146103a4578063248a9ca3146103d85780632d632692146103f85780632f2ff15d1461040e5780633644e5151461042e57806336568abe1461044457806336fba0841461046457806339b70e381461047d57806339ebf8231461049d5780633cd7b5ab146104ef5780633f7b5e40146105055780634ce1d38a1461051a5780634cfe51dc1461054e5780634d4bb197146105825780634fb3ccc5146105b65780635141eebb146105d657806353a66132146105ec5780635aa6e6751461061c5780635bf6b4fb1461063c578063652da3241461067057806377e3b267146106a45780637ecebe00146106e25780638afca8f01461070f578063919860031461072557806391d148541461074557806399374642146107655780639af1d35a146107925780639e34e348146107ce5780639f3988f3146107ee578063a217fddf14610822578063a98222c414610837578063ab5b4d491461086b578063acded97d1461089f578063b3c187f2146108bf578063bbe4eb49146108df578063bee7e3d9146108f9578063c065ca0714610919578063c0993eea1461094d578063c6d93f4a14610981578063c8d74b60146109a1578063c8dffa95146109d5578063d4ae064f146109eb578063d547741f14610a1f578063ecf7085814610a3f578063f1daeba814610a55578063f5b944eb14610a89578063f828f50b14610abd578063fc0e74d114610ad3578063fd967f4714610af4578063fec61f0614610b0a578063ff1e7f0814610b3e57610298565b3661029857610296610b5e565b005b610296610b5e565b3480156102ac57600080fd5b506019546102c0906001600160a01b031681565b6040516102cd91906111c6565b60405180910390f35b3480156102e257600080fd5b506102f66102f13660046111f6565b610b70565b6040516102cd919061121f565b34801561030f57600080fd5b506103377f633076a97f32ae349b28772e7b1483f67a926f150cbc501d02bdbd77389325ab81565b6040516102cd9190611233565b34801561035057600080fd5b5061033760125481565b34801561036657600080fd5b50610337601b5481565b34801561037c57600080fd5b506103377fc723f4dd6268e1c374639e36d629c765285ee7003913389d582c300f186dde9781565b3480156103b057600080fd5b506103377f000000000000000000000000000000000000000000000000000000000000000081565b3480156103e457600080fd5b506103376103f3366004611252565b610ba7565b34801561040457600080fd5b50610337601c5481565b34801561041a57600080fd5b50610296610429366004611287565b610bbc565b34801561043a57600080fd5b5061033760205481565b34801561045057600080fd5b5061029661045f366004611287565b610bdd565b34801561047057600080fd5b5061033764e8d4a5100081565b34801561048957600080fd5b506002546102c0906001600160a01b031681565b3480156104a957600080fd5b506104df6104b83660046112c4565b60066020526000908152604090208054600182015460028301546003909301549192909184565b6040516102cd94939291906112e5565b3480156104fb57600080fd5b5061033760115481565b34801561051157600080fd5b50610337600a81565b34801561052657600080fd5b506103377f69d1171ac0a63777a6733cda21aec9ed3d48a4fd11f273c934a691dec5e5589c81565b34801561055a57600080fd5b506103377f862f91c9d89d6135b19873b921c90b702cb2e175c371b8430026b9577e69111981565b34801561058e57600080fd5b506103377f6e71edae12b1b97f4d1f60370fef10105fa2faae0126114a169c64845d6126c981565b3480156105c257600080fd5b506014546102c0906001600160a01b031681565b3480156105e257600080fd5b50610337601d5481565b3480156105f857600080fd5b506102f6610607366004611252565b60186020526000908152604090205460ff1681565b34801561062857600080fd5b506005546102c0906001600160a01b031681565b34801561064857600080fd5b506103377fea672c1c09cd95c51af9509f646f3615ff0071aae8652bd821471ee9037fd72c81565b34801561067c57600080fd5b506103377fcd9f023a942ee35097ead74b2505bea9f2c5d47465db92dd195cf7f01a41cfe181565b3480156106b057600080fd5b506106d5604051806040016040528060058152602001640312e302e360dc1b81525081565b6040516102cd9190611385565b3480156106ee57600080fd5b506103376106fd3660046112c4565b601f6020526000908152604090205481565b34801561071b57600080fd5b50610337601e5481565b34801561073157600080fd5b506016546102c0906001600160a01b031681565b34801561075157600080fd5b506102f6610760366004611287565b610c1c565b34801561077157600080fd5b506103376107803660046112c4565b60176020526000908152604090205481565b34801561079e57600080fd5b50600754600854600954600a546107be939291906001600160a01b031684565b6040516102cd9493929190611396565b3480156107da57600080fd5b506015546102c0906001600160a01b031681565b3480156107fa57600080fd5b506103377f6f430d649a8640e48ff9bfbc353b3f99ed630163857821b3b4075e3871dafbf581565b34801561082e57600080fd5b50610337600081565b34801561084357600080fd5b506103377f2f0dbbe8c2c0170206c50ec0cafa1c0dbd03e73e67c2a960178df30a0a30ee2e81565b34801561087757600080fd5b506103377f900d80def0427daac599092fcb16b21808ec68dd9a2e1eae89d1e8db2135737581565b3480156108ab57600080fd5b506003546102c0906001600160a01b031681565b3480156108cb57600080fd5b50601a546102c0906001600160a01b031681565b3480156108eb57600080fd5b50600c546102f69060ff1681565b34801561090557600080fd5b506004546102c0906001600160a01b031681565b34801561092557600080fd5b506103377f2a0e761830cc61f2707ea7bb138008bf9dda7f7d34c77736d0a116604e95ea1681565b34801561095957600080fd5b506103377f8b73c3c69bb8fe3d512ecc4cf759cc79239f7b179b0ffacaa9a75d522b39400f81565b34801561098d57600080fd5b5061029661099c3660046114c6565b610c45565b3480156109ad57600080fd5b506103377f152ebba56b9738ee3d8baea1b76fa31dcdcd79b1929bfea7d58ee12cfdf1a65381565b3480156109e157600080fd5b5061033760105481565b3480156109f757600080fd5b506103377fa18eaea71a088b547b8c932b48861853b3434d9a3240b94466c607e28b69659581565b348015610a2b57600080fd5b50610296610a3a366004611287565b610c5c565b348015610a4b57600080fd5b5061033760135481565b348015610a6157600080fd5b506103377f7cbb3cdf689b8ea3e9d265f66bc4e0a99069268217017d38d2a5a559abc6271981565b348015610a9557600080fd5b506103377ff206625bad3d9112d5609b8d356e6fbd514cd1f69980d4ce2b3e6e68e1789ace81565b348015610ac957600080fd5b50610337600f5481565b348015610adf57600080fd5b50601a546102f690600160a01b900460ff1681565b348015610b0057600080fd5b5061033761271081565b348015610b1657600080fd5b506103377fd45f7ccff42f059d4e47c3f027c444272257266f7e88b981e142f0aa38fbfd7881565b348015610b4a57600080fd5b506102c0610b59366004611252565b610c78565b610b6e610b69610ce0565b610d06565b565b60006001600160e01b03198216637965db0b60e01b1480610ba157506301ffc9a760e01b6001600160e01b03198316145b92915050565b60009081526020819052604090206001015490565b610bc582610ba7565b610bce81610d2a565b610bd88383610d37565b505050565b6001600160a01b0381163314610c0e5760405162461bcd60e51b8152600401610c0590611562565b60405180910390fd5b610c188282610dbb565b5050565b6000918252602082815260408084206001600160a01b0393909316845291905290205460ff1690565b6000610c5081610d2a565b610bd883836000610e20565b610c6582610ba7565b610c6e81610d2a565b610bd88383610dbb565b600b8181548110610c8857600080fd5b6000918252602090912001546001600160a01b0316905081565b6060610cc7838360405180606001604052806027815260200161176b60279139610e4b565b9392505050565b6001600160a01b03163b151590565b90565b6000610d0160008051602061174b833981519152546001600160a01b031690565b905090565b3660008037600080366000845af43d6000803e808015610d25573d6000f35b3d6000fd5b610d348133610ec3565b50565b610d418282610c1c565b610c18576000828152602081815260408083206001600160a01b03851684529091529020805460ff19166001179055610d773390565b6001600160a01b0316816001600160a01b0316837f2f8788117e7eff1d82e926ec794901d17c78024a50270940304540a733656f0d60405160405180910390a45050565b610dc58282610c1c565b15610c18576000828152602081815260408083206001600160a01b0385168085529252808320805460ff1916905551339285917ff6391f5c32d9c69d2a47ea670b442974b53935d1edc7fd64eb21e047a839171b9190a45050565b610e2983610f1c565b600082511180610e365750805b15610bd857610e458383610ca2565b50505050565b6060600080856001600160a01b031685604051610e689190611594565b600060405180830381855af49150503d8060008114610ea3576040519150601f19603f3d011682016040523d82523d6000602084013e610ea8565b606091505b5091509150610eb986838387610f5c565b9695505050505050565b610ecd8282610c1c565b610c1857610eda81610fab565b610ee5836020610fbd565b604051602001610ef69291906115a0565b60408051601f198184030181529082905262461bcd60e51b8252610c0591600401611385565b610f2581611128565b6040516001600160a01b038216907fbc7cd75a20ee27fd9adebab32041f755214dbc6bffa90cc0225b39da2e5c2d3b90600090a250565b60608315610f99578251600003610f9257610f7685610cce565b610f925760405162461bcd60e51b8152600401610c0590611629565b5081610fa3565b610fa3838361117c565b949350505050565b6060610ba16001600160a01b03831660145b60606000610fcc83600261164f565b610fd790600261166e565b6001600160401b03811115610fee57610fee6113cb565b6040519080825280601f01601f191660200182016040528015611018576020820181803683370190505b509050600360fc1b8160008151811061103357611033611681565b60200101906001600160f81b031916908160001a905350600f60fb1b8160018151811061106257611062611681565b60200101906001600160f81b031916908160001a905350600061108684600261164f565b61109190600161166e565b90505b6001811115611109576f181899199a1a9b1b9c1cb0b131b232b360811b85600f16601081106110c5576110c5611681565b1a60f81b8282815181106110db576110db611681565b60200101906001600160f81b031916908160001a90535060049490941c9361110281611697565b9050611094565b508315610cc75760405162461bcd60e51b8152600401610c05906116e0565b61113181610cce565b61114d5760405162461bcd60e51b8152600401610c059061173a565b60008051602061174b83398151915280546001600160a01b0319166001600160a01b0392909216919091179055565b81511561118c5781518083602001fd5b8060405162461bcd60e51b8152600401610c059190611385565b60006001600160a01b038216610ba1565b6111c0816111a6565b82525050565b60208101610ba182846111b7565b6001600160e01b031981165b8114610d3457600080fd5b8035610ba1816111d4565b60006020828403121561120b5761120b600080fd5b6000610fa384846111eb565b8015156111c0565b60208101610ba18284611217565b806111c0565b60208101610ba1828461122d565b806111e0565b8035610ba181611241565b60006020828403121561126757611267600080fd5b6000610fa38484611247565b6111e0816111a6565b8035610ba181611273565b6000806040838503121561129d5761129d600080fd5b60006112a98585611247565b92505060206112ba8582860161127c565b9150509250929050565b6000602082840312156112d9576112d9600080fd5b6000610fa3848461127c565b608081016112f3828761122d565b611300602083018661122d565b61130d604083018561122d565b61131a606083018461122d565b95945050505050565b60005b8381101561133e578181015183820152602001611326565b50506000910152565b601f01601f191690565b600061135b825190565b808452602084019350611372818560208601611323565b61137b81611347565b9093019392505050565b60208082528101610cc78184611351565b608081016113a4828761122d565b6113b1602083018661122d565b6113be604083018561122d565b61131a60608301846111b7565b634e487b7160e01b600052604160045260246000fd5b6113ea82611347565b81018181106001600160401b0382111715611407576114076113cb565b6040525050565b600061141960405190565b905061142582826113e1565b919050565b60006001600160401b03821115611443576114436113cb565b61144c82611347565b60200192915050565b82818337506000910152565b600061147461146f8461142a565b61140e565b90508281526020810184848401111561148f5761148f600080fd5b61149a848285611455565b509392505050565b600082601f8301126114b6576114b6600080fd5b8135610fa3848260208601611461565b600080604083850312156114dc576114dc600080fd5b60006114e8858561127c565b92505060208301356001600160401b0381111561150757611507600080fd5b6112ba858286016114a2565b602f81526000602082017f416363657373436f6e74726f6c3a2063616e206f6e6c792072656e6f756e636581526e103937b632b9903337b91039b2b63360891b602082015291505b5060400190565b60208082528101610ba181611513565b600061157c825190565b61158a818560208601611323565b9290920192915050565b6000610cc78284611572565b76020b1b1b2b9b9a1b7b73a3937b61d1030b1b1b7bab73a1604d1b815260170160006115cc8285611572565b7001034b99036b4b9b9b4b733903937b6329607d1b81526011019150610fa38284611572565b601d81526000602082017f416464726573733a2063616c6c20746f206e6f6e2d636f6e7472616374000000815291505b5060200190565b60208082528101610ba1816115f2565b634e487b7160e01b600052601160045260246000fd5b600081600019048311821515161561166957611669611639565b500290565b80820180821115610ba157610ba1611639565b634e487b7160e01b600052603260045260246000fd5b6000816116a6576116a6611639565b506000190190565b60208082527f537472696e67733a20686578206c656e67746820696e73756666696369656e7491019081526000611622565b60208082528101610ba1816116ae565b602d81526000602082017f455243313936373a206e657720696d706c656d656e746174696f6e206973206e81526c1bdd08184818dbdb9d1c9858dd609a1b6020820152915061155b565b60208082528101610ba1816116f056fe360894a13ba1a3210667c828492db98dca3e2076cc3735a920a3ca505d382bbc416464726573733a206c6f772d6c6576656c2064656c65676174652063616c6c206661696c6564a2646970667358221220f6451be9c7890f2ef2f45855d302f1d5f7192e30592c41cfa612d98b067cf8d064736f6c63430008100033416464726573733a206c6f772d6c6576656c2064656c65676174652063616c6c206661696c6564",
  "devdoc": {
    "kind": "dev",
    "methods": {
      "constructor": {
        "details": "Initializes the upgradeable proxy with an initial implementation specified by `implementation`. If `_data` is nonempty, it's used as data in a delegate call to `implementation`. This will typically be an encoded function call, and allows initializing the storage of the proxy like a Solidity constructor. Requirements: - If `data` is empty, `msg.value` must be zero."
      },
      "getRoleAdmin(bytes32)": {
        "details": "Returns the admin role that controls `role`. See {grantRole} and {revokeRole}. To change a role's admin, use {_setRoleAdmin}."
      },
      "grantRole(bytes32,address)": {
        "details": "Grants `role` to `account`. If `account` had not been already granted `role`, emits a {RoleGranted} event. Requirements: - the caller must have ``role``'s admin role. May emit a {RoleGranted} event."
      },
      "hasRole(bytes32,address)": {
        "details": "Returns `true` if `account` has been granted `role`."
      },
      "renounceRole(bytes32,address)": {
        "details": "Revokes `role` from the calling account. Roles are often managed via {grantRole} and {revokeRole}: this function's purpose is to provide a mechanism for accounts to lose their privileges if they are compromised (such as when a trusted device is misplaced). If the calling account had been revoked `role`, emits a {RoleRevoked} event. Requirements: - the caller must be `account`. May emit a {RoleRevoked} event."
      },
      "revokeRole(bytes32,address)": {
        "details": "Revokes `role` from `account`. If `account` had been granted `role`, emits a {RoleRevoked} event. Requirements: - the caller must have ``role``'s admin role. May emit a {RoleRevoked} event."
      },
      "supportsInterface(bytes4)": {
        "details": "See {IERC165-supportsInterface}."
      }
    },
    "title": "Yearn V3 Vault",
    "version": 1
  },
  "userdoc": {
    "kind": "user",
    "methods": {},
    "notice": "The Yearn VaultV3 is designed as a non-opinionated system to distribute funds of  depositors for a specific `asset` into different opportunities (aka Strategies) and manage accounting in a robust way.",
    "version": 1
  },
  "storageLayout": {
    "storage": [
      {
        "astId": 24,
        "contract": "contracts/FathomVault.sol:FathomVault",
        "label": "_roles",
        "offset": 0,
        "slot": "0",
        "type": "t_mapping(t_bytes32,t_struct(RoleData)19_storage)"
      },
      {
        "astId": 796,
        "contract": "contracts/FathomVault.sol:FathomVault",
        "label": "_status",
        "offset": 0,
        "slot": "1",
        "type": "t_uint256"
      },
      {
        "astId": 11300,
        "contract": "contracts/FathomVault.sol:FathomVault",
        "label": "strategyManager",
        "offset": 0,
        "slot": "2",
        "type": "t_address_payable"
      },
      {
        "astId": 11302,
        "contract": "contracts/FathomVault.sol:FathomVault",
        "label": "sharesManager",
        "offset": 0,
        "slot": "3",
        "type": "t_address"
      },
      {
        "astId": 11304,
        "contract": "contracts/FathomVault.sol:FathomVault",
        "label": "setters",
        "offset": 0,
        "slot": "4",
        "type": "t_address_payable"
      },
      {
        "astId": 11306,
        "contract": "contracts/FathomVault.sol:FathomVault",
        "label": "governance",
        "offset": 0,
        "slot": "5",
        "type": "t_address"
      },
      {
        "astId": 11311,
        "contract": "contracts/FathomVault.sol:FathomVault",
        "label": "strategies",
        "offset": 0,
        "slot": "6",
        "type": "t_mapping(t_address,t_struct(StrategyParams)11472_storage)"
      },
      {
        "astId": 11314,
        "contract": "contracts/FathomVault.sol:FathomVault",
        "label": "fees",
        "offset": 0,
        "slot": "7",
        "type": "t_struct(FeeAssessment)11481_storage"
      },
      {
        "astId": 11317,
        "contract": "contracts/FathomVault.sol:FathomVault",
        "label": "defaultQueue",
        "offset": 0,
        "slot": "11",
        "type": "t_array(t_address)dyn_storage"
      },
      {
        "astId": 11319,
        "contract": "contracts/FathomVault.sol:FathomVault",
        "label": "useDefaultQueue",
        "offset": 0,
        "slot": "12",
        "type": "t_bool"
      },
      {
        "astId": 11321,
        "contract": "contracts/FathomVault.sol:FathomVault",
        "label": "initialized",
        "offset": 1,
        "slot": "12",
        "type": "t_bool"
      },
      {
        "astId": 11325,
        "contract": "contracts/FathomVault.sol:FathomVault",
        "label": "_balanceOf",
        "offset": 0,
        "slot": "13",
        "type": "t_mapping(t_address,t_uint256)"
      },
      {
        "astId": 11331,
        "contract": "contracts/FathomVault.sol:FathomVault",
        "label": "_allowance",
        "offset": 0,
        "slot": "14",
        "type": "t_mapping(t_address,t_mapping(t_address,t_uint256))"
      },
      {
        "astId": 11333,
        "contract": "contracts/FathomVault.sol:FathomVault",
        "label": "totalSupplyAmount",
        "offset": 0,
        "slot": "15",
        "type": "t_uint256"
      },
      {
        "astId": 11335,
        "contract": "contracts/FathomVault.sol:FathomVault",
        "label": "totalDebtAmount",
        "offset": 0,
        "slot": "16",
        "type": "t_uint256"
      },
      {
        "astId": 11337,
        "contract": "contracts/FathomVault.sol:FathomVault",
        "label": "totalIdleAmount",
        "offset": 0,
        "slot": "17",
        "type": "t_uint256"
      },
      {
        "astId": 11339,
        "contract": "contracts/FathomVault.sol:FathomVault",
        "label": "minimumTotalIdle",
        "offset": 0,
        "slot": "18",
        "type": "t_uint256"
      },
      {
        "astId": 11341,
        "contract": "contracts/FathomVault.sol:FathomVault",
        "label": "depositLimit",
        "offset": 0,
        "slot": "19",
        "type": "t_uint256"
      },
      {
        "astId": 11343,
        "contract": "contracts/FathomVault.sol:FathomVault",
        "label": "accountant",
        "offset": 0,
        "slot": "20",
        "type": "t_address"
      },
      {
        "astId": 11345,
        "contract": "contracts/FathomVault.sol:FathomVault",
        "label": "depositLimitModule",
        "offset": 0,
        "slot": "21",
        "type": "t_address"
      },
      {
        "astId": 11347,
        "contract": "contracts/FathomVault.sol:FathomVault",
        "label": "withdrawLimitModule",
        "offset": 0,
        "slot": "22",
        "type": "t_address"
      },
      {
        "astId": 11351,
        "contract": "contracts/FathomVault.sol:FathomVault",
        "label": "roles",
        "offset": 0,
        "slot": "23",
        "type": "t_mapping(t_address,t_bytes32)"
      },
      {
        "astId": 11355,
        "contract": "contracts/FathomVault.sol:FathomVault",
        "label": "openRoles",
        "offset": 0,
        "slot": "24",
        "type": "t_mapping(t_bytes32,t_bool)"
      },
      {
        "astId": 11357,
        "contract": "contracts/FathomVault.sol:FathomVault",
        "label": "roleManager",
        "offset": 0,
        "slot": "25",
        "type": "t_address"
      },
      {
        "astId": 11359,
        "contract": "contracts/FathomVault.sol:FathomVault",
        "label": "futureRoleManager",
        "offset": 0,
        "slot": "26",
        "type": "t_address"
      },
      {
        "astId": 11361,
        "contract": "contracts/FathomVault.sol:FathomVault",
        "label": "shutdown",
        "offset": 20,
        "slot": "26",
        "type": "t_bool"
      },
      {
        "astId": 11363,
        "contract": "contracts/FathomVault.sol:FathomVault",
        "label": "profitMaxUnlockTime",
        "offset": 0,
        "slot": "27",
        "type": "t_uint256"
      },
      {
        "astId": 11365,
        "contract": "contracts/FathomVault.sol:FathomVault",
        "label": "fullProfitUnlockDate",
        "offset": 0,
        "slot": "28",
        "type": "t_uint256"
      },
      {
        "astId": 11367,
        "contract": "contracts/FathomVault.sol:FathomVault",
        "label": "profitUnlockingRate",
        "offset": 0,
        "slot": "29",
        "type": "t_uint256"
      },
      {
        "astId": 11369,
        "contract": "contracts/FathomVault.sol:FathomVault",
        "label": "lastProfitUpdate",
        "offset": 0,
        "slot": "30",
        "type": "t_uint256"
      },
      {
        "astId": 11373,
        "contract": "contracts/FathomVault.sol:FathomVault",
        "label": "nonces",
        "offset": 0,
        "slot": "31",
        "type": "t_mapping(t_address,t_uint256)"
      },
      {
        "astId": 11380,
        "contract": "contracts/FathomVault.sol:FathomVault",
        "label": "DOMAIN_SEPARATOR",
        "offset": 0,
        "slot": "32",
        "type": "t_bytes32"
      }
    ],
    "types": {
      "t_address": {
        "encoding": "inplace",
        "label": "address",
        "numberOfBytes": "20"
      },
      "t_address_payable": {
        "encoding": "inplace",
        "label": "address payable",
        "numberOfBytes": "20"
      },
      "t_array(t_address)dyn_storage": {
        "base": "t_address",
        "encoding": "dynamic_array",
        "label": "address[]",
        "numberOfBytes": "32"
      },
      "t_bool": {
        "encoding": "inplace",
        "label": "bool",
        "numberOfBytes": "1"
      },
      "t_bytes32": {
        "encoding": "inplace",
        "label": "bytes32",
        "numberOfBytes": "32"
      },
      "t_mapping(t_address,t_bool)": {
        "encoding": "mapping",
        "key": "t_address",
        "label": "mapping(address => bool)",
        "numberOfBytes": "32",
        "value": "t_bool"
      },
      "t_mapping(t_address,t_bytes32)": {
        "encoding": "mapping",
        "key": "t_address",
        "label": "mapping(address => bytes32)",
        "numberOfBytes": "32",
        "value": "t_bytes32"
      },
      "t_mapping(t_address,t_mapping(t_address,t_uint256))": {
        "encoding": "mapping",
        "key": "t_address",
        "label": "mapping(address => mapping(address => uint256))",
        "numberOfBytes": "32",
        "value": "t_mapping(t_address,t_uint256)"
      },
      "t_mapping(t_address,t_struct(StrategyParams)11472_storage)": {
        "encoding": "mapping",
        "key": "t_address",
        "label": "mapping(address => struct StrategyParams)",
        "numberOfBytes": "32",
        "value": "t_struct(StrategyParams)11472_storage"
      },
      "t_mapping(t_address,t_uint256)": {
        "encoding": "mapping",
        "key": "t_address",
        "label": "mapping(address => uint256)",
        "numberOfBytes": "32",
        "value": "t_uint256"
      },
      "t_mapping(t_bytes32,t_bool)": {
        "encoding": "mapping",
        "key": "t_bytes32",
        "label": "mapping(bytes32 => bool)",
        "numberOfBytes": "32",
        "value": "t_bool"
      },
      "t_mapping(t_bytes32,t_struct(RoleData)19_storage)": {
        "encoding": "mapping",
        "key": "t_bytes32",
        "label": "mapping(bytes32 => struct AccessControl.RoleData)",
        "numberOfBytes": "32",
        "value": "t_struct(RoleData)19_storage"
      },
      "t_struct(FeeAssessment)11481_storage": {
        "encoding": "inplace",
        "label": "struct FeeAssessment",
        "members": [
          {
            "astId": 11474,
            "contract": "contracts/FathomVault.sol:FathomVault",
            "label": "totalFees",
            "offset": 0,
            "slot": "0",
            "type": "t_uint256"
          },
          {
            "astId": 11476,
            "contract": "contracts/FathomVault.sol:FathomVault",
            "label": "totalRefunds",
            "offset": 0,
            "slot": "1",
            "type": "t_uint256"
          },
          {
            "astId": 11478,
            "contract": "contracts/FathomVault.sol:FathomVault",
            "label": "protocolFees",
            "offset": 0,
            "slot": "2",
            "type": "t_uint256"
          },
          {
            "astId": 11480,
            "contract": "contracts/FathomVault.sol:FathomVault",
            "label": "protocolFeeRecipient",
            "offset": 0,
            "slot": "3",
            "type": "t_address"
          }
        ],
        "numberOfBytes": "128"
      },
      "t_struct(RoleData)19_storage": {
        "encoding": "inplace",
        "label": "struct AccessControl.RoleData",
        "members": [
          {
            "astId": 16,
            "contract": "contracts/FathomVault.sol:FathomVault",
            "label": "members",
            "offset": 0,
            "slot": "0",
            "type": "t_mapping(t_address,t_bool)"
          },
          {
            "astId": 18,
            "contract": "contracts/FathomVault.sol:FathomVault",
            "label": "adminRole",
            "offset": 0,
            "slot": "1",
            "type": "t_bytes32"
          }
        ],
        "numberOfBytes": "64"
      },
      "t_struct(StrategyParams)11472_storage": {
        "encoding": "inplace",
        "label": "struct StrategyParams",
        "members": [
          {
            "astId": 11465,
            "contract": "contracts/FathomVault.sol:FathomVault",
            "label": "activation",
            "offset": 0,
            "slot": "0",
            "type": "t_uint256"
          },
          {
            "astId": 11467,
            "contract": "contracts/FathomVault.sol:FathomVault",
            "label": "lastReport",
            "offset": 0,
            "slot": "1",
            "type": "t_uint256"
          },
          {
            "astId": 11469,
            "contract": "contracts/FathomVault.sol:FathomVault",
            "label": "currentDebt",
            "offset": 0,
            "slot": "2",
            "type": "t_uint256"
          },
          {
            "astId": 11471,
            "contract": "contracts/FathomVault.sol:FathomVault",
            "label": "maxDebt",
            "offset": 0,
            "slot": "3",
            "type": "t_uint256"
          }
        ],
        "numberOfBytes": "128"
      },
      "t_uint256": {
        "encoding": "inplace",
        "label": "uint256",
        "numberOfBytes": "32"
      }
    }
  }
}