{
  "address": "0x9989D6191dcc00382AA719B8F0Cc800464f300f1",
  "abi": [
    {
      "inputs": [
        {
          "internalType": "address",
          "name": "_asset",
          "type": "address"
        },
        {
          "internalType": "string",
          "name": "_name",
          "type": "string"
        },
        {
          "internalType": "string",
          "name": "_symbol",
          "type": "string"
        },
        {
          "internalType": "uint8",
          "name": "_decimals",
          "type": "uint8"
        },
        {
          "internalType": "uint256",
          "name": "_profitMaxUnlockTime",
          "type": "uint256"
        },
        {
          "internalType": "address",
          "name": "_strategyManagerAddress",
          "type": "address"
        }
      ],
      "stateMutability": "nonpayable",
      "type": "constructor"
    },
    {
      "inputs": [],
      "name": "DebtDidntChange",
      "type": "error"
    },
    {
      "inputs": [],
      "name": "DebtHigherThanMaxDebt",
      "type": "error"
    },
    {
      "inputs": [],
      "name": "ERC20InsufficientAllowance",
      "type": "error"
    },
    {
      "inputs": [],
      "name": "ERC20PermitExpired",
      "type": "error"
    },
    {
      "inputs": [],
      "name": "ERC20PermitInvalidSignature",
      "type": "error"
    },
    {
      "inputs": [],
      "name": "ExceedDepositLimit",
      "type": "error"
    },
    {
      "inputs": [],
      "name": "InactiveStrategy",
      "type": "error"
    },
    {
      "inputs": [],
      "name": "InsufficientAssets",
      "type": "error"
    },
    {
      "inputs": [],
      "name": "InsufficientFunds",
      "type": "error"
    },
    {
      "inputs": [],
      "name": "InsufficientShares",
      "type": "error"
    },
    {
      "inputs": [],
      "name": "InvalidAsset",
      "type": "error"
    },
    {
      "inputs": [],
      "name": "InvalidAssetDecimals",
      "type": "error"
    },
    {
      "inputs": [],
      "name": "MaxLoss",
      "type": "error"
    },
    {
      "inputs": [],
      "name": "ProfitUnlockTimeTooLong",
      "type": "error"
    },
    {
      "inputs": [],
      "name": "StrategyAlreadyActive",
      "type": "error"
    },
    {
      "inputs": [],
      "name": "StrategyDebtIsLessThanAssetsNeeded",
      "type": "error"
    },
    {
      "inputs": [],
      "name": "StrategyHasDebt",
      "type": "error"
    },
    {
      "inputs": [],
      "name": "StrategyHasUnrealisedLosses",
      "type": "error"
    },
    {
      "inputs": [],
      "name": "StrategyIsShutdown",
      "type": "error"
    },
    {
      "inputs": [],
      "name": "TooMuchLoss",
      "type": "error"
    },
    {
      "inputs": [],
      "name": "UsingDepositLimit",
      "type": "error"
    },
    {
      "inputs": [],
      "name": "UsingModule",
      "type": "error"
    },
    {
      "inputs": [],
      "name": "ZeroAddress",
      "type": "error"
    },
    {
      "inputs": [],
      "name": "ZeroValue",
      "type": "error"
    },
    {
      "anonymous": false,
      "inputs": [
        {
          "indexed": true,
          "internalType": "address",
          "name": "owner",
          "type": "address"
        },
        {
          "indexed": true,
          "internalType": "address",
          "name": "spender",
          "type": "address"
        },
        {
          "indexed": false,
          "internalType": "uint256",
          "name": "value",
          "type": "uint256"
        }
      ],
      "name": "Approval",
      "type": "event"
    },
    {
      "anonymous": false,
      "inputs": [
        {
          "indexed": true,
          "internalType": "address",
          "name": "strategy",
          "type": "address"
        },
        {
          "indexed": false,
          "internalType": "uint256",
          "name": "amount",
          "type": "uint256"
        }
      ],
      "name": "DebtPurchased",
      "type": "event"
    },
    {
      "anonymous": false,
      "inputs": [
        {
          "indexed": true,
          "internalType": "address",
          "name": "strategy",
          "type": "address"
        },
        {
          "indexed": false,
          "internalType": "uint256",
          "name": "currentDebt",
          "type": "uint256"
        },
        {
          "indexed": false,
          "internalType": "uint256",
          "name": "newDebt",
          "type": "uint256"
        }
      ],
      "name": "DebtUpdated",
      "type": "event"
    },
    {
      "anonymous": false,
      "inputs": [
        {
          "indexed": true,
          "internalType": "address",
          "name": "sender",
          "type": "address"
        },
        {
          "indexed": true,
          "internalType": "address",
          "name": "owner",
          "type": "address"
        },
        {
          "indexed": false,
          "internalType": "uint256",
          "name": "assets",
          "type": "uint256"
        },
        {
          "indexed": false,
          "internalType": "uint256",
          "name": "shares",
          "type": "uint256"
        }
      ],
      "name": "Deposit",
      "type": "event"
    },
    {
      "anonymous": false,
      "inputs": [
        {
          "indexed": true,
          "internalType": "bytes32",
          "name": "role",
          "type": "bytes32"
        },
        {
          "indexed": true,
          "internalType": "bytes32",
          "name": "previousAdminRole",
          "type": "bytes32"
        },
        {
          "indexed": true,
          "internalType": "bytes32",
          "name": "newAdminRole",
          "type": "bytes32"
        }
      ],
      "name": "RoleAdminChanged",
      "type": "event"
    },
    {
      "anonymous": false,
      "inputs": [
        {
          "indexed": true,
          "internalType": "bytes32",
          "name": "role",
          "type": "bytes32"
        },
        {
          "indexed": true,
          "internalType": "address",
          "name": "account",
          "type": "address"
        },
        {
          "indexed": true,
          "internalType": "address",
          "name": "sender",
          "type": "address"
        }
      ],
      "name": "RoleGranted",
      "type": "event"
    },
    {
      "anonymous": false,
      "inputs": [
        {
          "indexed": true,
          "internalType": "bytes32",
          "name": "role",
          "type": "bytes32"
        },
        {
          "indexed": true,
          "internalType": "address",
          "name": "account",
          "type": "address"
        },
        {
          "indexed": true,
          "internalType": "address",
          "name": "sender",
          "type": "address"
        }
      ],
      "name": "RoleRevoked",
      "type": "event"
    },
    {
      "anonymous": false,
      "inputs": [
        {
          "indexed": true,
          "internalType": "address",
          "name": "account",
          "type": "address"
        },
        {
          "indexed": false,
          "internalType": "bytes32",
          "name": "role",
          "type": "bytes32"
        }
      ],
      "name": "RoleSet",
      "type": "event"
    },
    {
      "anonymous": false,
      "inputs": [
        {
          "indexed": true,
          "internalType": "bytes32",
          "name": "role",
          "type": "bytes32"
        },
        {
          "indexed": true,
          "internalType": "enum RoleStatusChange",
          "name": "status",
          "type": "uint8"
        }
      ],
      "name": "RoleStatusChanged",
      "type": "event"
    },
    {
      "anonymous": false,
      "inputs": [],
      "name": "Shutdown",
      "type": "event"
    },
    {
      "anonymous": false,
      "inputs": [
        {
          "indexed": true,
          "internalType": "address",
          "name": "strategy",
          "type": "address"
        },
        {
          "indexed": false,
          "internalType": "enum StrategyChangeType",
          "name": "changeType",
          "type": "uint8"
        }
      ],
      "name": "StrategyChanged",
      "type": "event"
    },
    {
      "anonymous": false,
      "inputs": [
        {
          "indexed": true,
          "internalType": "address",
          "name": "strategy",
          "type": "address"
        },
        {
          "indexed": false,
          "internalType": "uint256",
          "name": "gain",
          "type": "uint256"
        },
        {
          "indexed": false,
          "internalType": "uint256",
          "name": "loss",
          "type": "uint256"
        },
        {
          "indexed": false,
          "internalType": "uint256",
          "name": "currentDebt",
          "type": "uint256"
        },
        {
          "indexed": false,
          "internalType": "uint256",
          "name": "protocolFees",
          "type": "uint256"
        },
        {
          "indexed": false,
          "internalType": "uint256",
          "name": "totalFees",
          "type": "uint256"
        },
        {
          "indexed": false,
          "internalType": "uint256",
          "name": "totalRefunds",
          "type": "uint256"
        }
      ],
      "name": "StrategyReported",
      "type": "event"
    },
    {
      "anonymous": false,
      "inputs": [
        {
          "indexed": true,
          "internalType": "address",
          "name": "from",
          "type": "address"
        },
        {
          "indexed": true,
          "internalType": "address",
          "name": "to",
          "type": "address"
        },
        {
          "indexed": false,
          "internalType": "uint256",
          "name": "value",
          "type": "uint256"
        }
      ],
      "name": "Transfer",
      "type": "event"
    },
    {
      "anonymous": false,
      "inputs": [
        {
          "indexed": true,
          "internalType": "address",
          "name": "accountant",
          "type": "address"
        }
      ],
      "name": "UpdateAccountant",
      "type": "event"
    },
    {
      "anonymous": false,
      "inputs": [
        {
          "indexed": false,
          "internalType": "address[]",
          "name": "newDefaultQueue",
          "type": "address[]"
        }
      ],
      "name": "UpdateDefaultQueue",
      "type": "event"
    },
    {
      "anonymous": false,
      "inputs": [
        {
          "indexed": false,
          "internalType": "uint256",
          "name": "depositLimit",
          "type": "uint256"
        }
      ],
      "name": "UpdateDepositLimit",
      "type": "event"
    },
    {
      "anonymous": false,
      "inputs": [
        {
          "indexed": true,
          "internalType": "address",
          "name": "depositLimitModule",
          "type": "address"
        }
      ],
      "name": "UpdateDepositLimitModule",
      "type": "event"
    },
    {
      "anonymous": false,
      "inputs": [
        {
          "indexed": false,
          "internalType": "uint256",
          "name": "minimumTotalIdle",
          "type": "uint256"
        }
      ],
      "name": "UpdateMinimumTotalIdle",
      "type": "event"
    },
    {
      "anonymous": false,
      "inputs": [
        {
          "indexed": false,
          "internalType": "uint256",
          "name": "profitMaxUnlockTime",
          "type": "uint256"
        }
      ],
      "name": "UpdateProfitMaxUnlockTime",
      "type": "event"
    },
    {
      "anonymous": false,
      "inputs": [
        {
          "indexed": true,
          "internalType": "address",
          "name": "roleManager",
          "type": "address"
        }
      ],
      "name": "UpdateRoleManager",
      "type": "event"
    },
    {
      "anonymous": false,
      "inputs": [
        {
          "indexed": false,
          "internalType": "bool",
          "name": "useDefaultQueue",
          "type": "bool"
        }
      ],
      "name": "UpdateUseDefaultQueue",
      "type": "event"
    },
    {
      "anonymous": false,
      "inputs": [
        {
          "indexed": true,
          "internalType": "address",
          "name": "withdrawLimitModule",
          "type": "address"
        }
      ],
      "name": "UpdateWithdrawLimitModule",
      "type": "event"
    },
    {
      "anonymous": false,
      "inputs": [
        {
          "indexed": true,
          "internalType": "address",
          "name": "sender",
          "type": "address"
        },
        {
          "indexed": true,
          "internalType": "address",
          "name": "strategy",
          "type": "address"
        },
        {
          "indexed": false,
          "internalType": "uint256",
          "name": "newDebt",
          "type": "uint256"
        }
      ],
      "name": "UpdatedMaxDebtForStrategy",
      "type": "event"
    },
    {
      "anonymous": false,
      "inputs": [
        {
          "indexed": true,
          "internalType": "address",
          "name": "sender",
          "type": "address"
        },
        {
          "indexed": true,
          "internalType": "address",
          "name": "receiver",
          "type": "address"
        },
        {
          "indexed": true,
          "internalType": "address",
          "name": "owner",
          "type": "address"
        },
        {
          "indexed": false,
          "internalType": "uint256",
          "name": "assets",
          "type": "uint256"
        },
        {
          "indexed": false,
          "internalType": "uint256",
          "name": "shares",
          "type": "uint256"
        }
      ],
      "name": "Withdraw",
      "type": "event"
    },
    {
      "inputs": [],
      "name": "ACCOUNTANT_MANAGER",
      "outputs": [
        {
          "internalType": "bytes32",
          "name": "",
          "type": "bytes32"
        }
      ],
      "stateMutability": "view",
      "type": "function"
    },
    {
      "inputs": [],
      "name": "ADD_STRATEGY_MANAGER",
      "outputs": [
        {
          "internalType": "bytes32",
          "name": "",
          "type": "bytes32"
        }
      ],
      "stateMutability": "view",
      "type": "function"
    },
    {
      "inputs": [],
      "name": "API_VERSION",
      "outputs": [
        {
          "internalType": "string",
          "name": "",
          "type": "string"
        }
      ],
      "stateMutability": "view",
      "type": "function"
    },
    {
      "inputs": [],
      "name": "ASSET",
      "outputs": [
        {
          "internalType": "contract IERC20",
          "name": "",
          "type": "address"
        }
      ],
      "stateMutability": "view",
      "type": "function"
    },
    {
      "inputs": [],
      "name": "DEBT_MANAGER",
      "outputs": [
        {
          "internalType": "bytes32",
          "name": "",
          "type": "bytes32"
        }
      ],
      "stateMutability": "view",
      "type": "function"
    },
    {
      "inputs": [],
      "name": "DEBT_PURCHASER",
      "outputs": [
        {
          "internalType": "bytes32",
          "name": "",
          "type": "bytes32"
        }
      ],
      "stateMutability": "view",
      "type": "function"
    },
    {
      "inputs": [],
      "name": "DECIMALS",
      "outputs": [
        {
          "internalType": "uint8",
          "name": "",
          "type": "uint8"
        }
      ],
      "stateMutability": "view",
      "type": "function"
    },
    {
      "inputs": [],
      "name": "DEFAULT_ADMIN_ROLE",
      "outputs": [
        {
          "internalType": "bytes32",
          "name": "",
          "type": "bytes32"
        }
      ],
      "stateMutability": "view",
      "type": "function"
    },
    {
      "inputs": [],
      "name": "DEPOSIT_LIMIT_MANAGER",
      "outputs": [
        {
          "internalType": "bytes32",
          "name": "",
          "type": "bytes32"
        }
      ],
      "stateMutability": "view",
      "type": "function"
    },
    {
      "inputs": [],
      "name": "DOMAIN_SEPARATOR",
      "outputs": [
        {
          "internalType": "bytes32",
          "name": "",
          "type": "bytes32"
        }
      ],
      "stateMutability": "view",
      "type": "function"
    },
    {
      "inputs": [],
      "name": "DOMAIN_TYPE_HASH",
      "outputs": [
        {
          "internalType": "bytes32",
          "name": "",
          "type": "bytes32"
        }
      ],
      "stateMutability": "view",
      "type": "function"
    },
    {
      "inputs": [],
      "name": "EMERGENCY_MANAGER",
      "outputs": [
        {
          "internalType": "bytes32",
          "name": "",
          "type": "bytes32"
        }
      ],
      "stateMutability": "view",
      "type": "function"
    },
    {
      "inputs": [],
      "name": "FACTORY",
      "outputs": [
        {
          "internalType": "address",
          "name": "",
          "type": "address"
        }
      ],
      "stateMutability": "view",
      "type": "function"
    },
    {
      "inputs": [],
      "name": "FORCE_REVOKE_MANAGER",
      "outputs": [
        {
          "internalType": "bytes32",
          "name": "",
          "type": "bytes32"
        }
      ],
      "stateMutability": "view",
      "type": "function"
    },
    {
      "inputs": [],
      "name": "MAX_BPS",
      "outputs": [
        {
          "internalType": "uint256",
          "name": "",
          "type": "uint256"
        }
      ],
      "stateMutability": "view",
      "type": "function"
    },
    {
      "inputs": [],
      "name": "MAX_BPS_EXTENDED",
      "outputs": [
        {
          "internalType": "uint256",
          "name": "",
          "type": "uint256"
        }
      ],
      "stateMutability": "view",
      "type": "function"
    },
    {
      "inputs": [],
      "name": "MAX_DEBT_MANAGER",
      "outputs": [
        {
          "internalType": "bytes32",
          "name": "",
          "type": "bytes32"
        }
      ],
      "stateMutability": "view",
      "type": "function"
    },
    {
      "inputs": [],
      "name": "MAX_QUEUE",
      "outputs": [
        {
          "internalType": "uint256",
          "name": "",
          "type": "uint256"
        }
      ],
      "stateMutability": "view",
      "type": "function"
    },
    {
      "inputs": [],
      "name": "MINIMUM_IDLE_MANAGER",
      "outputs": [
        {
          "internalType": "bytes32",
          "name": "",
          "type": "bytes32"
        }
      ],
      "stateMutability": "view",
      "type": "function"
    },
    {
      "inputs": [],
      "name": "ONE_YEAR",
      "outputs": [
        {
          "internalType": "uint256",
          "name": "",
          "type": "uint256"
        }
      ],
      "stateMutability": "view",
      "type": "function"
    },
    {
      "inputs": [],
      "name": "PERMIT_TYPE_HASH",
      "outputs": [
        {
          "internalType": "bytes32",
          "name": "",
          "type": "bytes32"
        }
      ],
      "stateMutability": "view",
      "type": "function"
    },
    {
      "inputs": [],
      "name": "PROFIT_UNLOCK_MANAGER",
      "outputs": [
        {
          "internalType": "bytes32",
          "name": "",
          "type": "bytes32"
        }
      ],
      "stateMutability": "view",
      "type": "function"
    },
    {
      "inputs": [],
      "name": "QUEUE_MANAGER",
      "outputs": [
        {
          "internalType": "bytes32",
          "name": "",
          "type": "bytes32"
        }
      ],
      "stateMutability": "view",
      "type": "function"
    },
    {
      "inputs": [],
      "name": "REPORTING_MANAGER",
      "outputs": [
        {
          "internalType": "bytes32",
          "name": "",
          "type": "bytes32"
        }
      ],
      "stateMutability": "view",
      "type": "function"
    },
    {
      "inputs": [],
      "name": "REVOKE_STRATEGY_MANAGER",
      "outputs": [
        {
          "internalType": "bytes32",
          "name": "",
          "type": "bytes32"
        }
      ],
      "stateMutability": "view",
      "type": "function"
    },
    {
      "inputs": [],
      "name": "ROLE_MANAGER",
      "outputs": [
        {
          "internalType": "bytes32",
          "name": "",
          "type": "bytes32"
        }
      ],
      "stateMutability": "view",
      "type": "function"
    },
    {
      "inputs": [],
      "name": "WITHDRAW_LIMIT_MANAGER",
      "outputs": [
        {
          "internalType": "bytes32",
          "name": "",
          "type": "bytes32"
        }
      ],
      "stateMutability": "view",
      "type": "function"
    },
    {
      "inputs": [],
      "name": "accountant",
      "outputs": [
        {
          "internalType": "address",
          "name": "",
          "type": "address"
        }
      ],
      "stateMutability": "view",
      "type": "function"
    },
    {
      "inputs": [
        {
          "internalType": "address",
          "name": "account",
          "type": "address"
        },
        {
          "internalType": "bytes32",
          "name": "role",
          "type": "bytes32"
        }
      ],
      "name": "addRole",
      "outputs": [],
      "stateMutability": "nonpayable",
      "type": "function"
    },
    {
      "inputs": [
        {
          "internalType": "address",
          "name": "newStrategy",
          "type": "address"
        }
      ],
      "name": "addStrategy",
      "outputs": [],
      "stateMutability": "nonpayable",
      "type": "function"
    },
    {
      "inputs": [
        {
          "internalType": "address",
          "name": "owner",
          "type": "address"
        },
        {
          "internalType": "address",
          "name": "spender",
          "type": "address"
        }
      ],
      "name": "allowance",
      "outputs": [
        {
          "internalType": "uint256",
          "name": "",
          "type": "uint256"
        }
      ],
      "stateMutability": "view",
      "type": "function"
    },
    {
      "inputs": [
        {
          "internalType": "address",
          "name": "spender",
          "type": "address"
        },
        {
          "internalType": "uint256",
          "name": "amount",
          "type": "uint256"
        }
      ],
      "name": "approve",
      "outputs": [
        {
          "internalType": "bool",
          "name": "",
          "type": "bool"
        }
      ],
      "stateMutability": "nonpayable",
      "type": "function"
    },
    {
      "inputs": [
        {
          "internalType": "address",
          "name": "strategy",
          "type": "address"
        },
        {
          "internalType": "uint256",
          "name": "assetsNeeded",
          "type": "uint256"
        }
      ],
      "name": "assessShareOfUnrealisedLosses",
      "outputs": [
        {
          "internalType": "uint256",
          "name": "",
          "type": "uint256"
        }
      ],
      "stateMutability": "view",
      "type": "function"
    },
    {
      "inputs": [],
      "name": "asset",
      "outputs": [
        {
          "internalType": "address",
          "name": "",
          "type": "address"
        }
      ],
      "stateMutability": "view",
      "type": "function"
    },
    {
      "inputs": [
        {
          "internalType": "address",
          "name": "addr",
          "type": "address"
        }
      ],
      "name": "balanceOf",
      "outputs": [
        {
          "internalType": "uint256",
          "name": "",
          "type": "uint256"
        }
      ],
      "stateMutability": "view",
      "type": "function"
    },
    {
      "inputs": [
        {
          "internalType": "address",
          "name": "strategy",
          "type": "address"
        },
        {
          "internalType": "uint256",
          "name": "amount",
          "type": "uint256"
        }
      ],
      "name": "buyDebt",
      "outputs": [],
      "stateMutability": "nonpayable",
      "type": "function"
    },
    {
      "inputs": [
        {
          "internalType": "bytes32",
          "name": "role",
          "type": "bytes32"
        }
      ],
      "name": "closeOpenRole",
      "outputs": [],
      "stateMutability": "nonpayable",
      "type": "function"
    },
    {
      "inputs": [
        {
          "internalType": "uint256",
          "name": "shares",
          "type": "uint256"
        }
      ],
      "name": "convertToAssets",
      "outputs": [
        {
          "internalType": "uint256",
          "name": "",
          "type": "uint256"
        }
      ],
      "stateMutability": "view",
      "type": "function"
    },
    {
      "inputs": [
        {
          "internalType": "uint256",
          "name": "assets",
          "type": "uint256"
        }
      ],
      "name": "convertToShares",
      "outputs": [
        {
          "internalType": "uint256",
          "name": "",
          "type": "uint256"
        }
      ],
      "stateMutability": "view",
      "type": "function"
    },
    {
      "inputs": [],
      "name": "decimals",
      "outputs": [
        {
          "internalType": "uint8",
          "name": "",
          "type": "uint8"
        }
      ],
      "stateMutability": "view",
      "type": "function"
    },
    {
      "inputs": [
        {
          "internalType": "address",
          "name": "spender",
          "type": "address"
        },
        {
          "internalType": "uint256",
          "name": "amount",
          "type": "uint256"
        }
      ],
      "name": "decreaseAllowance",
      "outputs": [
        {
          "internalType": "bool",
          "name": "",
          "type": "bool"
        }
      ],
      "stateMutability": "nonpayable",
      "type": "function"
    },
    {
      "inputs": [
        {
          "internalType": "uint256",
          "name": "",
          "type": "uint256"
        }
      ],
      "name": "defaultQueue",
      "outputs": [
        {
          "internalType": "address",
          "name": "",
          "type": "address"
        }
      ],
      "stateMutability": "view",
      "type": "function"
    },
    {
      "inputs": [
        {
          "internalType": "uint256",
          "name": "assets",
          "type": "uint256"
        },
        {
          "internalType": "address",
          "name": "receiver",
          "type": "address"
        }
      ],
      "name": "deposit",
      "outputs": [
        {
          "internalType": "uint256",
          "name": "",
          "type": "uint256"
        }
      ],
      "stateMutability": "nonpayable",
      "type": "function"
    },
    {
      "inputs": [],
      "name": "depositLimit",
      "outputs": [
        {
          "internalType": "uint256",
          "name": "",
          "type": "uint256"
        }
      ],
      "stateMutability": "view",
      "type": "function"
    },
    {
      "inputs": [],
      "name": "depositLimitModule",
      "outputs": [
        {
          "internalType": "address",
          "name": "",
          "type": "address"
        }
      ],
      "stateMutability": "view",
      "type": "function"
    },
    {
      "inputs": [
        {
          "internalType": "address",
          "name": "strategy",
          "type": "address"
        }
      ],
      "name": "forceRevokeStrategy",
      "outputs": [],
      "stateMutability": "nonpayable",
      "type": "function"
    },
    {
      "inputs": [],
      "name": "fullProfitUnlockDate",
      "outputs": [
        {
          "internalType": "uint256",
          "name": "",
          "type": "uint256"
        }
      ],
      "stateMutability": "view",
      "type": "function"
    },
    {
      "inputs": [],
      "name": "futureRoleManager",
      "outputs": [
        {
          "internalType": "address",
          "name": "",
          "type": "address"
        }
      ],
      "stateMutability": "view",
      "type": "function"
    },
    {
      "inputs": [
        {
          "internalType": "bytes32",
          "name": "role",
          "type": "bytes32"
        }
      ],
      "name": "getRoleAdmin",
      "outputs": [
        {
          "internalType": "bytes32",
          "name": "",
          "type": "bytes32"
        }
      ],
      "stateMutability": "view",
      "type": "function"
    },
    {
      "inputs": [
        {
          "internalType": "bytes32",
          "name": "role",
          "type": "bytes32"
        },
        {
          "internalType": "address",
          "name": "account",
          "type": "address"
        }
      ],
      "name": "grantRole",
      "outputs": [],
      "stateMutability": "nonpayable",
      "type": "function"
    },
    {
      "inputs": [
        {
          "internalType": "bytes32",
          "name": "role",
          "type": "bytes32"
        },
        {
          "internalType": "address",
          "name": "account",
          "type": "address"
        }
      ],
      "name": "hasRole",
      "outputs": [
        {
          "internalType": "bool",
          "name": "",
          "type": "bool"
        }
      ],
      "stateMutability": "view",
      "type": "function"
    },
    {
      "inputs": [
        {
          "internalType": "address",
          "name": "spender",
          "type": "address"
        },
        {
          "internalType": "uint256",
          "name": "amount",
          "type": "uint256"
        }
      ],
      "name": "increaseAllowance",
      "outputs": [
        {
          "internalType": "bool",
          "name": "",
          "type": "bool"
        }
      ],
      "stateMutability": "nonpayable",
      "type": "function"
    },
    {
      "inputs": [],
      "name": "lastProfitUpdate",
      "outputs": [
        {
          "internalType": "uint256",
          "name": "",
          "type": "uint256"
        }
      ],
      "stateMutability": "view",
      "type": "function"
    },
    {
      "inputs": [
        {
          "internalType": "address",
          "name": "receiver",
          "type": "address"
        }
      ],
      "name": "maxDeposit",
      "outputs": [
        {
          "internalType": "uint256",
          "name": "",
          "type": "uint256"
        }
      ],
      "stateMutability": "view",
      "type": "function"
    },
    {
      "inputs": [
        {
          "internalType": "address",
          "name": "receiver",
          "type": "address"
        }
      ],
      "name": "maxMint",
      "outputs": [
        {
          "internalType": "uint256",
          "name": "",
          "type": "uint256"
        }
      ],
      "stateMutability": "view",
      "type": "function"
    },
    {
      "inputs": [
        {
          "internalType": "address",
          "name": "owner",
          "type": "address"
        },
        {
          "internalType": "uint256",
          "name": "maxLoss",
          "type": "uint256"
        },
        {
          "internalType": "address[]",
          "name": "_strategies",
          "type": "address[]"
        }
      ],
      "name": "maxRedeem",
      "outputs": [
        {
          "internalType": "uint256",
          "name": "",
          "type": "uint256"
        }
      ],
      "stateMutability": "nonpayable",
      "type": "function"
    },
    {
      "inputs": [
        {
          "internalType": "address",
          "name": "owner",
          "type": "address"
        },
        {
          "internalType": "uint256",
          "name": "maxLoss",
          "type": "uint256"
        },
        {
          "internalType": "address[]",
          "name": "_strategies",
          "type": "address[]"
        }
      ],
      "name": "maxWithdraw",
      "outputs": [
        {
          "internalType": "uint256",
          "name": "",
          "type": "uint256"
        }
      ],
      "stateMutability": "nonpayable",
      "type": "function"
    },
    {
      "inputs": [],
      "name": "minimumTotalIdle",
      "outputs": [
        {
          "internalType": "uint256",
          "name": "",
          "type": "uint256"
        }
      ],
      "stateMutability": "view",
      "type": "function"
    },
    {
      "inputs": [
        {
          "internalType": "uint256",
          "name": "shares",
          "type": "uint256"
        },
        {
          "internalType": "address",
          "name": "receiver",
          "type": "address"
        }
      ],
      "name": "mint",
      "outputs": [
        {
          "internalType": "uint256",
          "name": "",
          "type": "uint256"
        }
      ],
      "stateMutability": "nonpayable",
      "type": "function"
    },
    {
      "inputs": [],
      "name": "name",
      "outputs": [
        {
          "internalType": "string",
          "name": "",
          "type": "string"
        }
      ],
      "stateMutability": "view",
      "type": "function"
    },
    {
      "inputs": [
        {
          "internalType": "address",
          "name": "",
          "type": "address"
        }
      ],
      "name": "nonces",
      "outputs": [
        {
          "internalType": "uint256",
          "name": "",
          "type": "uint256"
        }
      ],
      "stateMutability": "view",
      "type": "function"
    },
    {
      "inputs": [
        {
          "internalType": "bytes32",
          "name": "",
          "type": "bytes32"
        }
      ],
      "name": "openRoles",
      "outputs": [
        {
          "internalType": "bool",
          "name": "",
          "type": "bool"
        }
      ],
      "stateMutability": "view",
      "type": "function"
    },
    {
      "inputs": [
        {
          "internalType": "address",
          "name": "owner",
          "type": "address"
        },
        {
          "internalType": "address",
          "name": "spender",
          "type": "address"
        },
        {
          "internalType": "uint256",
          "name": "amount",
          "type": "uint256"
        },
        {
          "internalType": "uint256",
          "name": "deadline",
          "type": "uint256"
        },
        {
          "internalType": "uint8",
          "name": "v",
          "type": "uint8"
        },
        {
          "internalType": "bytes32",
          "name": "r",
          "type": "bytes32"
        },
        {
          "internalType": "bytes32",
          "name": "s",
          "type": "bytes32"
        }
      ],
      "name": "permit",
      "outputs": [
        {
          "internalType": "bool",
          "name": "",
          "type": "bool"
        }
      ],
      "stateMutability": "nonpayable",
      "type": "function"
    },
    {
      "inputs": [
        {
          "internalType": "uint256",
          "name": "assets",
          "type": "uint256"
        }
      ],
      "name": "previewDeposit",
      "outputs": [
        {
          "internalType": "uint256",
          "name": "",
          "type": "uint256"
        }
      ],
      "stateMutability": "view",
      "type": "function"
    },
    {
      "inputs": [
        {
          "internalType": "uint256",
          "name": "shares",
          "type": "uint256"
        }
      ],
      "name": "previewMint",
      "outputs": [
        {
          "internalType": "uint256",
          "name": "",
          "type": "uint256"
        }
      ],
      "stateMutability": "view",
      "type": "function"
    },
    {
      "inputs": [
        {
          "internalType": "uint256",
          "name": "shares",
          "type": "uint256"
        }
      ],
      "name": "previewRedeem",
      "outputs": [
        {
          "internalType": "uint256",
          "name": "",
          "type": "uint256"
        }
      ],
      "stateMutability": "view",
      "type": "function"
    },
    {
      "inputs": [
        {
          "internalType": "uint256",
          "name": "assets",
          "type": "uint256"
        }
      ],
      "name": "previewWithdraw",
      "outputs": [
        {
          "internalType": "uint256",
          "name": "",
          "type": "uint256"
        }
      ],
      "stateMutability": "view",
      "type": "function"
    },
    {
      "inputs": [],
      "name": "pricePerShare",
      "outputs": [
        {
          "internalType": "uint256",
          "name": "",
          "type": "uint256"
        }
      ],
      "stateMutability": "view",
      "type": "function"
    },
    {
      "inputs": [
        {
          "internalType": "address",
          "name": "strategy",
          "type": "address"
        }
      ],
      "name": "processReport",
      "outputs": [
        {
          "internalType": "uint256",
          "name": "",
          "type": "uint256"
        },
        {
          "internalType": "uint256",
          "name": "",
          "type": "uint256"
        }
      ],
      "stateMutability": "nonpayable",
      "type": "function"
    },
    {
      "inputs": [],
      "name": "profitMaxUnlockTime",
      "outputs": [
        {
          "internalType": "uint256",
          "name": "",
          "type": "uint256"
        }
      ],
      "stateMutability": "view",
      "type": "function"
    },
    {
      "inputs": [],
      "name": "profitUnlockingRate",
      "outputs": [
        {
          "internalType": "uint256",
          "name": "",
          "type": "uint256"
        }
      ],
      "stateMutability": "view",
      "type": "function"
    },
    {
      "inputs": [
        {
          "internalType": "uint256",
          "name": "shares",
          "type": "uint256"
        },
        {
          "internalType": "address",
          "name": "receiver",
          "type": "address"
        },
        {
          "internalType": "address",
          "name": "owner",
          "type": "address"
        },
        {
          "internalType": "uint256",
          "name": "maxLoss",
          "type": "uint256"
        },
        {
          "internalType": "address[]",
          "name": "_strategies",
          "type": "address[]"
        }
      ],
      "name": "redeem",
      "outputs": [
        {
          "internalType": "uint256",
          "name": "",
          "type": "uint256"
        }
      ],
      "stateMutability": "nonpayable",
      "type": "function"
    },
    {
      "inputs": [
        {
          "internalType": "address",
          "name": "account",
          "type": "address"
        },
        {
          "internalType": "bytes32",
          "name": "role",
          "type": "bytes32"
        }
      ],
      "name": "removeRole",
      "outputs": [],
      "stateMutability": "nonpayable",
      "type": "function"
    },
    {
      "inputs": [
        {
          "internalType": "bytes32",
          "name": "role",
          "type": "bytes32"
        },
        {
          "internalType": "address",
          "name": "account",
          "type": "address"
        }
      ],
      "name": "renounceRole",
      "outputs": [],
      "stateMutability": "nonpayable",
      "type": "function"
    },
    {
      "inputs": [
        {
          "internalType": "bytes32",
          "name": "role",
          "type": "bytes32"
        },
        {
          "internalType": "address",
          "name": "account",
          "type": "address"
        }
      ],
      "name": "revokeRole",
      "outputs": [],
      "stateMutability": "nonpayable",
      "type": "function"
    },
    {
      "inputs": [
        {
          "internalType": "address",
          "name": "strategy",
          "type": "address"
        }
      ],
      "name": "revokeStrategy",
      "outputs": [],
      "stateMutability": "nonpayable",
      "type": "function"
    },
    {
      "inputs": [],
      "name": "roleManager",
      "outputs": [
        {
          "internalType": "address",
          "name": "",
          "type": "address"
        }
      ],
      "stateMutability": "view",
      "type": "function"
    },
    {
      "inputs": [
        {
          "internalType": "address",
          "name": "",
          "type": "address"
        }
      ],
      "name": "roles",
      "outputs": [
        {
          "internalType": "bytes32",
          "name": "",
          "type": "bytes32"
        }
      ],
      "stateMutability": "view",
      "type": "function"
    },
    {
      "inputs": [
        {
          "internalType": "address",
          "name": "newAccountant",
          "type": "address"
        }
      ],
      "name": "setAccountant",
      "outputs": [],
      "stateMutability": "nonpayable",
      "type": "function"
    },
    {
      "inputs": [
        {
          "internalType": "address[]",
          "name": "newDefaultQueue",
          "type": "address[]"
        }
      ],
      "name": "setDefaultQueue",
      "outputs": [],
      "stateMutability": "nonpayable",
      "type": "function"
    },
    {
      "inputs": [
        {
          "internalType": "uint256",
          "name": "_depositLimit",
          "type": "uint256"
        }
      ],
      "name": "setDepositLimit",
      "outputs": [],
      "stateMutability": "nonpayable",
      "type": "function"
    },
    {
      "inputs": [
        {
          "internalType": "address",
          "name": "_depositLimitModule",
          "type": "address"
        }
      ],
      "name": "setDepositLimitModule",
      "outputs": [],
      "stateMutability": "nonpayable",
      "type": "function"
    },
    {
      "inputs": [
        {
          "internalType": "uint256",
          "name": "_minimumTotalIdle",
          "type": "uint256"
        }
      ],
      "name": "setMinimumTotalIdle",
      "outputs": [],
      "stateMutability": "nonpayable",
      "type": "function"
    },
    {
      "inputs": [
        {
          "internalType": "bytes32",
          "name": "role",
          "type": "bytes32"
        }
      ],
      "name": "setOpenRole",
      "outputs": [],
      "stateMutability": "nonpayable",
      "type": "function"
    },
    {
      "inputs": [
        {
          "internalType": "uint256",
          "name": "_newProfitMaxUnlockTime",
          "type": "uint256"
        }
      ],
      "name": "setProfitMaxUnlockTime",
      "outputs": [],
      "stateMutability": "nonpayable",
      "type": "function"
    },
    {
      "inputs": [
        {
          "internalType": "bool",
          "name": "_useDefaultQueue",
          "type": "bool"
        }
      ],
      "name": "setUseDefaultQueue",
      "outputs": [],
      "stateMutability": "nonpayable",
      "type": "function"
    },
    {
      "inputs": [
        {
          "internalType": "address",
          "name": "_withdrawLimitModule",
          "type": "address"
        }
      ],
      "name": "setWithdrawLimitModule",
      "outputs": [],
      "stateMutability": "nonpayable",
      "type": "function"
    },
    {
      "inputs": [],
      "name": "sharesManager",
      "outputs": [
        {
          "internalType": "address",
          "name": "",
          "type": "address"
        }
      ],
      "stateMutability": "view",
      "type": "function"
    },
    {
      "inputs": [],
      "name": "shutdown",
      "outputs": [
        {
          "internalType": "bool",
          "name": "",
          "type": "bool"
        }
      ],
      "stateMutability": "view",
      "type": "function"
    },
    {
      "inputs": [],
      "name": "shutdownVault",
      "outputs": [],
      "stateMutability": "nonpayable",
      "type": "function"
    },
    {
      "inputs": [
        {
          "internalType": "address",
          "name": "",
          "type": "address"
        }
      ],
      "name": "strategies",
      "outputs": [
        {
          "internalType": "uint256",
          "name": "activation",
          "type": "uint256"
        },
        {
          "internalType": "uint256",
          "name": "lastReport",
          "type": "uint256"
        },
        {
          "internalType": "uint256",
          "name": "currentDebt",
          "type": "uint256"
        },
        {
          "internalType": "uint256",
          "name": "maxDebt",
          "type": "uint256"
        }
      ],
      "stateMutability": "view",
      "type": "function"
    },
    {
      "inputs": [],
      "name": "strategyManager",
      "outputs": [
        {
          "internalType": "address",
          "name": "",
          "type": "address"
        }
      ],
      "stateMutability": "view",
      "type": "function"
    },
    {
      "inputs": [
        {
          "internalType": "bytes4",
          "name": "interfaceId",
          "type": "bytes4"
        }
      ],
      "name": "supportsInterface",
      "outputs": [
        {
          "internalType": "bool",
          "name": "",
          "type": "bool"
        }
      ],
      "stateMutability": "view",
      "type": "function"
    },
    {
      "inputs": [],
      "name": "symbol",
      "outputs": [
        {
          "internalType": "string",
          "name": "",
          "type": "string"
        }
      ],
      "stateMutability": "view",
      "type": "function"
    },
    {
      "inputs": [],
      "name": "totalAssets",
      "outputs": [
        {
          "internalType": "uint256",
          "name": "",
          "type": "uint256"
        }
      ],
      "stateMutability": "view",
      "type": "function"
    },
    {
      "inputs": [],
      "name": "totalDebtAmount",
      "outputs": [
        {
          "internalType": "uint256",
          "name": "",
          "type": "uint256"
        }
      ],
      "stateMutability": "view",
      "type": "function"
    },
    {
      "inputs": [],
      "name": "totalIdleAmount",
      "outputs": [
        {
          "internalType": "uint256",
          "name": "",
          "type": "uint256"
        }
      ],
      "stateMutability": "view",
      "type": "function"
    },
    {
      "inputs": [],
      "name": "totalSupply",
      "outputs": [
        {
          "internalType": "uint256",
          "name": "",
          "type": "uint256"
        }
      ],
      "stateMutability": "view",
      "type": "function"
    },
    {
      "inputs": [],
      "name": "totalSupplyAmount",
      "outputs": [
        {
          "internalType": "uint256",
          "name": "",
          "type": "uint256"
        }
      ],
      "stateMutability": "view",
      "type": "function"
    },
    {
      "inputs": [
        {
          "internalType": "address",
          "name": "receiver",
          "type": "address"
        },
        {
          "internalType": "uint256",
          "name": "amount",
          "type": "uint256"
        }
      ],
      "name": "transfer",
      "outputs": [
        {
          "internalType": "bool",
          "name": "",
          "type": "bool"
        }
      ],
      "stateMutability": "nonpayable",
      "type": "function"
    },
    {
      "inputs": [
        {
          "internalType": "address",
          "name": "sender",
          "type": "address"
        },
        {
          "internalType": "address",
          "name": "receiver",
          "type": "address"
        },
        {
          "internalType": "uint256",
          "name": "amount",
          "type": "uint256"
        }
      ],
      "name": "transferFrom",
      "outputs": [
        {
          "internalType": "bool",
          "name": "",
          "type": "bool"
        }
      ],
      "stateMutability": "nonpayable",
      "type": "function"
    },
    {
      "inputs": [],
      "name": "unlockedShares",
      "outputs": [
        {
          "internalType": "uint256",
          "name": "",
          "type": "uint256"
        }
      ],
      "stateMutability": "view",
      "type": "function"
    },
    {
      "inputs": [
        {
          "internalType": "address",
          "name": "strategy",
          "type": "address"
        },
        {
          "internalType": "uint256",
          "name": "targetDebt",
          "type": "uint256"
        }
      ],
      "name": "updateDebt",
      "outputs": [
        {
          "internalType": "uint256",
          "name": "",
          "type": "uint256"
        }
      ],
      "stateMutability": "nonpayable",
      "type": "function"
    },
    {
      "inputs": [
        {
          "internalType": "address",
          "name": "strategy",
          "type": "address"
        },
        {
          "internalType": "uint256",
          "name": "newMaxDebt",
          "type": "uint256"
        }
      ],
      "name": "updateMaxDebtForStrategy",
      "outputs": [],
      "stateMutability": "nonpayable",
      "type": "function"
    },
    {
      "inputs": [],
      "name": "useDefaultQueue",
      "outputs": [
        {
          "internalType": "bool",
          "name": "",
          "type": "bool"
        }
      ],
      "stateMutability": "view",
      "type": "function"
    },
    {
      "inputs": [
        {
          "internalType": "uint256",
          "name": "assets",
          "type": "uint256"
        },
        {
          "internalType": "address",
          "name": "receiver",
          "type": "address"
        },
        {
          "internalType": "address",
          "name": "owner",
          "type": "address"
        },
        {
          "internalType": "uint256",
          "name": "maxLoss",
          "type": "uint256"
        },
        {
          "internalType": "address[]",
          "name": "_strategies",
          "type": "address[]"
        }
      ],
      "name": "withdraw",
      "outputs": [
        {
          "internalType": "uint256",
          "name": "",
          "type": "uint256"
        }
      ],
      "stateMutability": "nonpayable",
      "type": "function"
    },
    {
      "inputs": [],
      "name": "withdrawLimitModule",
      "outputs": [
        {
          "internalType": "address",
          "name": "",
          "type": "address"
        }
      ],
      "stateMutability": "view",
      "type": "function"
    }
  ],
  "transactionHash": "0x0d01af3e7afb0afc81e67652075ad51b16545a8cd3f9ecf34b25ec61cd4f6234",
  "args": [
    "0xDf29cB40Cb92a1b8E8337F542E3846E185DefF96",
    "FathomVault",
    "FTHVT",
    18,
    31536000,
    "0xEAf81a05C7bf87ba57A5265ff5aF6F37958118Da"
  ],
  "numDeployments": 1,
  "solcInputHash": "03976a6a60f3d2678e172a8a6b59689d",
  "bytecode": "0x6101006040526301e1855860e0523480156200001a57600080fd5b5060405162006798380380620067988339810160408190526200003d916200045b565b600180556001600160a01b03861660805260ff831660a081905261010011620000795760405163e236476560e01b815260040160405180910390fd5b3360c05260e051821115620000a15760405163fdfbb0b760e01b815260040160405180910390fd5b6015829055601b620000b4868262000624565b50601c620000c3858262000624565b50600280546001600160a01b0319166001600160a01b038316179055620000ec60003362000213565b620001187f2f0dbbe8c2c0170206c50ec0cafa1c0dbd03e73e67c2a960178df30a0a30ee2e3362000213565b620001447f2a0e761830cc61f2707ea7bb138008bf9dda7f7d34c77736d0a116604e95ea163362000213565b620001707f7cbb3cdf689b8ea3e9d265f66bc4e0a99069268217017d38d2a5a559abc627193362000213565b845160208087019190912060408051808201825260058152640312e302e360dc1b9084015251620001eb927f8b73c3c69bb8fe3d512ecc4cf759cc79239f7b179b0ffacaa9a75d522b39400f92917f06c015bd22b4c69690933c1058878ebdfef31f9aaae40bbe86d8a09fe1b2972c91469130910162000707565b60405160208183030381529060405280519060200120601a819055505050505050506200075d565b6200021f82826200029c565b62000298576000828152602081815260408083206001600160a01b03851684529091529020805460ff19166001179055620002573390565b6001600160a01b0316816001600160a01b0316837f2f8788117e7eff1d82e926ec794901d17c78024a50270940304540a733656f0d60405160405180910390a45b5050565b6000828152602081815260408083206001600160a01b038516845290915290205460ff165b92915050565b60006001600160a01b038216620002c1565b620002e481620002c7565b8114620002f057600080fd5b50565b8051620002c181620002d9565b634e487b7160e01b600052604160045260246000fd5b601f19601f83011681018181106001600160401b03821117156200033e576200033e62000300565b6040525050565b60006200035160405190565b90506200035f828262000316565b919050565b60006001600160401b0382111562000380576200038062000300565b601f19601f83011660200192915050565b60005b83811015620003ae57818101518382015260200162000394565b50506000910152565b6000620003ce620003c88462000364565b62000345565b905082815260208101848484011115620003eb57620003eb600080fd5b620003f884828562000391565b509392505050565b600082601f830112620004165762000416600080fd5b815162000428848260208601620003b7565b949350505050565b60ff8116620002e4565b8051620002c18162000430565b80620002e4565b8051620002c18162000447565b60008060008060008060c08789031215620004795762000479600080fd5b6000620004878989620002f3565b96505060208701516001600160401b03811115620004a857620004a8600080fd5b620004b689828a0162000400565b95505060408701516001600160401b03811115620004d757620004d7600080fd5b620004e589828a0162000400565b9450506060620004f889828a016200043a565b93505060806200050b89828a016200044e565b92505060a06200051e89828a01620002f3565b9150509295509295509295565b634e487b7160e01b600052602260045260246000fd5b6002810460018216806200055657607f821691505b6020821081036200056b576200056b6200052b565b50919050565b6000620002c16200057f8381565b90565b6200058d8362000571565b81546008840282811b60001990911b908116901990911617825550505050565b6000620005bc81848462000582565b505050565b818110156200029857620005d7600082620005ad565b600101620005c1565b601f821115620005bc576000818152602090206020601f85010481016020851015620006095750805b6200061d6020601f860104830182620005c1565b5050505050565b81516001600160401b0381111562000640576200064062000300565b6200064c825462000541565b62000659828285620005e0565b6020601f831160018114620006905760008415620006775750858201515b600019600886021c1981166002860217865550620006ec565b600085815260208120601f198616915b82811015620006c25788850151825560209485019460019092019101620006a0565b86831015620006df5784890151600019601f89166008021c191682555b6001600288020188555050505b505050505050565b805b82525050565b620006f681620002c7565b60a08101620007178288620006f4565b620007266020830187620006f4565b620007356040830186620006f4565b620007446060830185620006f4565b620007536080830184620006fc565b9695505050505050565b60805160a05160c05160e051615f7562000823600039600081816105e20152611a4d015260008181610666015261470c01526000818161068d015281816106d101526116f7015260008181610732015281816108100152818161121201528181612a1701528181612ab301528181612ccd01528181612d0d01528181612e1201528181612e8f0152818161313c0152818161334301528181613a1901528181613e25015281816140af0152818161489001528181614924015261496f0152615f756000f3fe608060405234801561001057600080fd5b50600436106104c85760003560e01c80636e553f65116102815780636e553f651461095957806370a082311461096c57806377e3b2671461097f5780637ecebe00146109a35780638212fd43146109c35780638afca8f0146109d657806391986003146109df57806391d14854146109f257806394bf804d14610a0557806395d89b4114610a185780639937464214610a2057806399530b0614610a405780639bbca88414610a485780639e34e34814610a5b5780639f3988f314610a6e578063a217fddf14610a83578063a457c2d714610a8b578063a73f7f8a14610a9e578063a9059cbb14610ab1578063a98222c414610ac4578063ab5b4d4914610ad9578063acded97d14610aee578063b3c187f214610b01578063b3d7f6b914610b14578063b6cc2d1f14610b27578063bb994d4814610b48578063bbe4eb4914610b5b578063bdc8144b14610b68578063c065ca0714610b7b578063c0993eea14610b90578063c63d75b614610bb7578063c6e6f59214610bca578063c8d74b6014610bdd578063c8dffa9514610bf2578063c9a16ea414610bfb578063d4ae064f14610c0e578063d505accf14610c23578063d538e90414610c36578063d547741f14610c49578063d81a09f614610c5c578063d9a0e97a14610c6f578063dd62ed3e14610c77578063df69b22a14610cb0578063e5236cc914610cc3578063ecf7085814610ccb578063ef8b30f714610bca578063f1daeba814610cd4578063f5b944eb14610ce9578063f6d7bfa014610cfe578063f828f50b14610d11578063fc0e74d114610d1a578063fd967f4714610d2e578063fec61f0614610d37578063ff1e7f0814610d4c57600080fd5b8062435da5146104cd57806301e1d114146104f657806301ffc9a71461050b57806303dcd12c1461052b57806306580f2d1461054057806306fdde031461055357806307a2d13a146105685780630835a3fc1461057b5780630952864e14610584578063095ea7b31461058d5780630a28a477146105a05780630ad283d0146105b357806316b87ac0146105c857806316d3bfbb146105dd57806318160ddd14610604578063223e54791461060c57806323b872dd1461061f578063248a9ca3146106325780632d632692146106455780632d7721681461064e5780632dd31000146106615780632e0f2625146106885780632f2ff15d146106bc578063313ce567146106cf57806334b5fab6146106f55780633644e5151461070857806336568abe1461071157806336fba0841461072457806338d52e0f14610730578063395093511461075657806339b70e381461076957806339ebf8231461077c5780633cd7b5ab146107c15780633f7b5e40146107ca578063402d267d146107d2578063405977e7146107e557806346e6ac49146107f85780634800d97f1461080b57806348ea71271461083f5780634bbd71e9146108525780634cdad506146105685780634ce1d38a146108655780634cfe51dc1461087a5780634d4bb1971461088f5780634fb3ccc5146108a45780635141eebb146108b757806353a66132146108c05780635a569099146108e35780635bf6b4fb146108f6578063633f228c1461090b578063652da3241461091e57806365cb6765146109335780636853920e14610946575b600080fd5b6013546104e0906001600160a01b031681565b6040516104ed9190614e75565b60405180910390f35b6104fe610d5f565b6040516104ed9190614e89565b61051e610519366004614eb9565b610d6e565b6040516104ed9190614ee2565b6104fe600080516020615cc083398151915281565b6104fe61054e366004615025565b610da5565b61055b610de2565b6040516104ed919061510f565b6104fe610576366004615120565b610e70565b6104fe600c5481565b6104fe60155481565b61051e61059b366004615141565b610e7d565b6104fe6105ae366004615120565b610e91565b6104fe600080516020615ce083398151915281565b6105db6105d636600461517e565b610e9e565b005b6104fe7f000000000000000000000000000000000000000000000000000000000000000081565b6104fe610ec5565b6105db61061a36600461517e565b610ecf565b61051e61062d36600461519f565b610ef0565b6104fe610640366004615120565b610f41565b6104fe60165481565b6105db61065c36600461517e565b610f56565b6104e07f000000000000000000000000000000000000000000000000000000000000000081565b6106af7f000000000000000000000000000000000000000000000000000000000000000081565b6040516104ed91906151f8565b6105db6106ca366004615206565b610ffa565b7f00000000000000000000000000000000000000000000000000000000000000006106af565b6104fe610703366004615239565b61101b565b6104fe601a5481565b6105db61071f366004615206565b611069565b6104fe64e8d4a5100081565b7f00000000000000000000000000000000000000000000000000000000000000006104e0565b61051e610764366004615141565b6110a4565b6002546104e0906001600160a01b031681565b6107b161078a36600461517e565b60046020526000908152604090208054600182015460028301546003909301549192909184565b6040516104ed9493929190615299565b6104fe600b5481565b6104fe600a81565b6104fe6107e036600461517e565b6110b1565b6105db6107f3366004615141565b6110bc565b6104fe610806366004615141565b61132c565b6108327f000000000000000000000000000000000000000000000000000000000000000081565b6040516104ed9190615306565b6105db61084d36600461517e565b61136a565b6105db61086036600461517e565b6113cd565b6104fe600080516020615f2083398151915281565b6104fe600080516020615d6083398151915281565b6104fe600080516020615e2083398151915281565b600e546104e0906001600160a01b031681565b6104fe60175481565b61051e6108ce366004615120565b60126020526000908152604090205460ff1681565b6104fe6108f1366004615141565b611430565b6104fe600080516020615d4083398151915281565b6105db61091936600461535e565b611476565b6104fe600080516020615ca083398151915281565b6104fe610941366004615239565b61155b565b6105db610954366004615141565b611568565b6104fe610967366004615206565b6115d0565b6104fe61097a36600461517e565b6115f0565b61055b604051806040016040528060058152602001640312e302e360dc1b81525081565b6104fe6109b136600461517e565b60196020526000908152604090205481565b6105db6109d1366004615120565b611649565b6104fe60185481565b6010546104e0906001600160a01b031681565b61051e610a00366004615206565b6116a2565b6104fe610a13366004615206565b6116cb565b61055b6116e0565b6104fe610a2e36600461517e565b60116020526000908152604090205481565b6104fe6116ed565b6105db610a563660046153b8565b611724565b600f546104e0906001600160a01b031681565b6104fe600080516020615e6083398151915281565b6104fe600081565b61051e610a99366004615141565b61177a565b6105db610aac366004615141565b611787565b61051e610abf366004615141565b6117a9565b6104fe600080516020615f0083398151915281565b6104fe600080516020615e8083398151915281565b6003546104e0906001600160a01b031681565b6014546104e0906001600160a01b031681565b6104fe610b22366004615120565b6117fb565b610b3a610b3536600461517e565b611808565b6040516104ed9291906153d9565b6105db610b5636600461517e565b611847565b60065461051e9060ff1681565b6105db610b76366004615120565b61186a565b6104fe600080516020615da083398151915281565b6104fe7f8b73c3c69bb8fe3d512ecc4cf759cc79239f7b179b0ffacaa9a75d522b39400f81565b6104fe610bc536600461517e565b6118fe565b6104fe610bd8366004615120565b611917565b6104fe600080516020615c8083398151915281565b6104fe600a5481565b6105db610c09366004615120565b611924565b6104fe600080516020615ea083398151915281565b61051e610c31366004615408565b611984565b6105db610c44366004615120565b6119a3565b6105db610c57366004615206565b6119d9565b6104fe610c6a366004615025565b6119f5565b6104fe611a29565b6104fe610c853660046154a7565b6001600160a01b03918216600090815260086020908152604080832093909416825291909152205490565b6105db610cbe366004615120565b611a33565b6105db611aed565b6104fe600d5481565b6104fe600080516020615de083398151915281565b6104fe600080516020615dc083398151915281565b6105db610d0c366004615141565b611bf1565b6104fe60095481565b60145461051e90600160a01b900460ff1681565b6104fe61271081565b6104fe600080516020615d2083398151915281565b6104e0610d5a366004615120565b611c9e565b6000610d69611cc8565b905090565b60006001600160e01b03198216637965db0b60e01b1480610d9f57506301ffc9a760e01b6001600160e01b03198316145b92915050565b6000610daf611cda565b6000610dbc876000611d03565b9050610dcd338787848b8989611d99565b915050610dd960018055565b95945050505050565b601b8054610def906154df565b80601f0160208091040260200160405190810160405280929190818152602001828054610e1b906154df565b8015610e685780601f10610e3d57610100808354040283529160200191610e68565b820191906000526020600020905b815481529060010190602001808311610e4b57829003601f168201915b505050505081565b6000610d9f826000611d03565b6000610e8a338484611e36565b9392505050565b6000610d9f826001611ece565b600080516020615d40833981519152610eb681611f7c565b610ec1826001611f89565b5050565b6000610d69611ff1565b600080516020615da0833981519152610ee781611f7c565b610ec182612008565b60006001600160a01b038316301480610f1057506001600160a01b038316155b15610f2e5760405163d92e233d60e01b815260040160405180910390fd5b610f3984848461206d565b949350505050565b60009081526020819052604090206001015490565b600080516020615f00833981519152610f6e81611f7c565b601454600160a01b900460ff161515600103610f9d57604051630f3c386760e01b815260040160405180910390fd5b600019600d5414610fc157604051634e41418560e11b815260040160405180910390fd5b600f80546001600160a01b0319166001600160a01b038416908117909155604051600080516020615d0083398151915290600090a25050565b61100382610f41565b61100c81611f7c565b611016838361208f565b505050565b600080611029858585612113565b90506000611038826001611ece565b6001600160a01b03871660009081526007602052604090205490915061105f9082906124dd565b9695505050505050565b6001600160a01b038116331461109a5760405162461bcd60e51b81526004016110919061550b565b60405180910390fd5b610ec182826124f3565b6000610e8a338484612558565b6000610d9f826125a6565b600080516020615e808339815191526110d481611f7c565b6110dc611cda565b6001600160a01b038316600090815260046020526040812054900361111457604051630631bc2160e51b815260040160405180910390fd5b6001600160a01b03831660009081526004602052604090206002015480158061113b575082155b1561115957604051637c946ed760e01b815260040160405180910390fd5b80831115611165578092505b60008184866001600160a01b03166370a08231306040518263ffffffff1660e01b81526004016111959190614e75565b602060405180830381865afa1580156111b2573d6000803e3d6000fd5b505050506040513d601f19601f820116820180604052508101906111d69190615569565b6111e091906155a0565b6111ea91906155d5565b90506000811161120d57604051637c946ed760e01b815260040160405180910390fd5b6112397f000000000000000000000000000000000000000000000000000000000000000033308761267e565b6001600160a01b038516600090815260046020526040812060020180548692906112649084906155e9565b9250508190555083600a600082825461127d91906155e9565b9250508190555083600b600082825461129691906155fc565b90915550506001600160a01b038516600080516020615ee0833981519152836112bf87826155e9565b6040516112cd9291906153d9565b60405180910390a26112e0853383612760565b846001600160a01b03167fe94e7f88819f66c19b097748cb754149f63b1a176ed425dee1f1ee933e6d09b0856040516113199190614e89565b60405180910390a2505061101660018055565b6000600080516020615c8083398151915261134681611f7c565b61134e611cda565b6113588484612828565b915061136360018055565b5092915050565b600080516020615ca083398151915261138281611f7c565b600e80546001600160a01b0319166001600160a01b0384169081179091556040517f28709a2dab2a5d5e8688e96159011151c51644ab21839a8a45b449634d7c8b2b90600090a25050565b600080516020615f208339815191526113e581611f7c565b601080546001600160a01b0319166001600160a01b0384169081179091556040517fce6e3f8beda82a13c441d76efd4a6335760f219f38c60502e6680060874e109d90600090a25050565b6001600160a01b03821660009081526004602052604081206002015482111561146c576040516337deae0760e01b815260040160405180910390fd5b610e8a8383612f54565b600080516020615d6083398151915261148e81611f7c565b60005b8281101561150f5760008484838181106114ad576114ad61560f565b90506020020160208101906114c2919061517e565b6001600160a01b038116600090815260046020526040812054919250036114fc57604051630631bc2160e51b815260040160405180910390fd5b508061150781615625565b915050611491565b5061151c60058484614d85565b507f0bc0cb8c5ccee13e6a2fd26a699f57ad7ff6e454e6aae97ec41cd2eb9ebd63a5838360405161154e9291906156aa565b60405180910390a1505050565b6000610f39848484612113565b600080516020615dc083398151915261158081611f7c565b61158a82846124f3565b826001600160a01b03167f1395522074be2925cc0fe997dc4fe5d15a507c2a971e00c315e5a2e08c9b0e50836040516115c39190614e89565b60405180910390a2505050565b60006115da611cda565b6115e53383856130a9565b9050610d9f60018055565b6000306001600160a01b0383160361162d5761160a613243565b6001600160a01b038316600090815260076020526040902054610d9f91906155e9565b506001600160a01b031660009081526007602052604090205490565b600080516020615ce083398151915261166181611f7c565b600c8290556040517f01a4494beed88920b88742cc58f2744e198f55ff192635a1fbabc6be8ffade8190611696908490614e89565b60405180910390a15050565b6000918252602082815260408084206001600160a01b0393909316845291905290205460ff1690565b60006116d5611cda565b6115e53383856132a1565b601c8054610def906154df565b6000610d6961171d7f0000000000000000000000000000000000000000000000000000000000000000600a6157ca565b6000611d03565b600080516020615d6083398151915261173c81611f7c565b6006805460ff19168315151790556040517f1f88e73ebc721f227812938fe07a069ec1f7136aafacb397ed460bd15dee13f190611696908490614ee2565b6000610e8a338484613415565b600080516020615dc083398151915261179f81611f7c565b61158a828461208f565b60006001600160a01b0383163014806117c957506001600160a01b038316155b156117e75760405163d92e233d60e01b815260040160405180910390fd5b6117f233848461344a565b50600192915050565b6000610d9f826001611d03565b600080600080516020615cc083398151915261182381611f7c565b61182b611cda565b61183484613547565b9250925061184160018055565b50915091565b600080516020615e6083398151915261185f81611f7c565b610ec1826000611f89565b600080516020615f0083398151915261188281611f7c565b601454600160a01b900460ff1615156001036118b157604051630f3c386760e01b815260040160405180910390fd5b600f546001600160a01b0316156118db576040516364b9991160e11b815260040160405180910390fd5b600d829055604051600080516020615d8083398151915290611696908490614e89565b60008061190a836125a6565b9050610e8a816000611ece565b6000610d9f826000611ece565b600080516020615dc083398151915261193c81611f7c565b6000828152601260205260409020805460ff1916905560015b60405183907f9f6d8ceb5fe3a6380949b0777bd5802511579b6fbbc87194c108a91d372f952790600090a35050565b60006119958888888888888861367b565b90505b979650505050505050565b600080516020615dc08339815191526119bb81611f7c565b6000828152601260205260408120805460ff19166001179055611955565b6119e282610f41565b6119eb81611f7c565b61101683836124f3565b60006119ff611cda565b6000611a0c876001611ece565b9050611a1d3387878a858989611d99565b509050610dd960018055565b6000610d69613243565b600080516020615ea0833981519152611a4b81611f7c565b7f0000000000000000000000000000000000000000000000000000000000000000821115611a8c5760405163fdfbb0b760e01b815260040160405180910390fd5b81600003611ab85730600081815260076020526040902054611aad9161386b565b600060178190556016555b60158290556040517ff361aed463da6fa20358e45c6209f1d3e16d4eca706e6eab0b0aeb338729c77a90611696908490614e89565b600080516020615d20833981519152611b0581611f7c565b601454600160a01b900460ff161515600103611b3457604051630631bc2160e51b815260040160405180910390fd5b6014805460ff60a01b1916600160a01b179055600f546001600160a01b031615611b8257600f80546001600160a01b0319169055604051600090600080516020615d00833981519152908290a25b6000600d819055604051600080516020615d8083398151915291611ba59161580a565b60405180910390a1611bc533600080516020615c80833981519152611787565b6040517f4426aa1fb73e391071491fcfe21a88b5c38a0a0333a1f6e77161470439704cf890600090a150565b600080516020615de0833981519152611c0981611f7c565b6001600160a01b0383166000908152600460205260408120549003611c4157604051630631bc2160e51b815260040160405180910390fd5b6001600160a01b038316600081815260046020526040908190206003018490555133907fb3eef2123fec1523a6bbc90aceb203000154c1a4974335fe06b544c7534d4b8990611c91908690614e89565b60405180910390a3505050565b60058181548110611cae57600080fd5b6000918252602090912001546001600160a01b0316905081565b6000600a54600b54610d6991906155fc565b600260015403611cfc5760405162461bcd60e51b81526004016110919061584f565b6002600155565b6000600019831480611d13575082155b15611d1f575081610d9f565b6000611d29611ff1565b905080600003611d3c5783915050610d9f565b6000611d46611cc8565b611d5090866155a0565b90506000611d5e83836155d5565b90506001856001811115611d7457611d746157df565b148015611d895750611d86838361585f565b15155b15610dd95761105f6001826155fc565b6000611da787878686613922565b611db28689866139c6565b600080611dbf87856139ea565b91509150611dd28989888a86868b61403e565b876001600160a01b0316896001600160a01b03168b6001600160a01b03167ffbde797d201c681b91056529119e0b02407c7bb96a4a2c75c01fc9667232c8db858a604051611e219291906153d9565b60405180910390a45098975050505050505050565b60006001600160a01b0384161580611e5557506001600160a01b038316155b15611e735760405163d92e233d60e01b815260040160405180910390fd5b6001600160a01b038085166000818152600860209081526040808320948816808452949091529081902085905551600080516020615e4083398151915290611ebc908690614e89565b60405180910390a35060019392505050565b6000600019831480611ede575082155b15611eea575081610d9f565b6000611ef4611ff1565b90506000611f00611cc8565b905080600003611f275781600003611f1c578492505050610d9f565b600092505050610d9f565b6000611f3383876155a0565b90506000611f4183836155d5565b90506001866001811115611f5757611f576157df565b148015611f6c5750611f69838361585f565b15155b1561105f576119986001826155fc565b611f8681336140de565b50565b600254604051637a163bd760e11b81526001600160a01b039091169063f42c77ae90611fbb9085908590600401615873565b600060405180830381600087803b158015611fd557600080fd5b505af1158015611fe9573d6000803e3d6000fd5b505050505050565b6000611ffb613243565b600954610d6991906155e9565b60025460405163223e547960e01b81526001600160a01b039091169063223e547990612038908490600401614e75565b600060405180830381600087803b15801561205257600080fd5b505af1158015612066573d6000803e3d6000fd5b5050505050565b600061207a843384614137565b61208584848461344a565b5060019392505050565b61209982826116a2565b610ec1576000828152602081815260408083206001600160a01b03851684529091529020805460ff191660011790556120cf3390565b6001600160a01b0316816001600160a01b0316837f2f8788117e7eff1d82e926ec794901d17c78024a50270940304540a733656f0d60405160405180910390a45050565b6001600160a01b03831660009081526007602052604081205481906121389082611d03565b6010549091506001600160a01b0316156121da57601054604051632319b8cf60e01b81526000916001600160a01b031690632319b8cf90612181908990899089906004016158cc565b6020604051808303816000875af11580156121a0573d6000803e3d6000fd5b505050506040513d601f19601f820116820180604052508101906121c49190615569565b9050818110156121d2578091505b509050610e8a565b600b54808211156124d457835181906000908190158015906121ff575060065460ff16155b61226357600580548060200260200160405190810160405280929190818152602001828054801561225957602002820191906000526020600020905b81546001600160a01b0316815260019091019060200180831161223b575b5050505050612265565b865b905060005b81518110156124cd5760008282815181106122875761228761560f565b6020026020010151905060046000826001600160a01b03166001600160a01b03168152602001908152602001600020600001546000036122da57604051630631bc2160e51b815260040160405180910390fd5b600061230a6122e9878a6155e9565b6001600160a01b0384166000908152600460205260409020600201546124dd565b905060006123188383612f54565b90506000836001600160a01b03166307a2d13a856001600160a01b031663d905777e306040518263ffffffff1660e01b81526004016123579190614e75565b602060405180830381865afa158015612374573d6000803e3d6000fd5b505050506040513d601f19601f820116820180604052508101906123989190615569565b6040518263ffffffff1660e01b81526004016123b49190614e89565b602060405180830381865afa1580156123d1573d6000803e3d6000fd5b505050506040513d601f19601f820116820180604052508101906123f59190615569565b905061240182846155e9565b81101561242c578261241382846155a0565b61241d91906155d5565b915061242982826155fc565b92505b8260000361243d57505050506124bb565b60008211801561244e57506127108d105b1561248e576127108d612461858b6155fc565b61246b91906155a0565b61247591906155d5565b61247f83896155fc565b111561248e57505050506124cd565b61249883896155fc565b97508988106124aa57505050506124cd565b6124b482886155fc565b9650505050505b806124c581615625565b91505061226a565b5091935050505b50949350505050565b60008183106124ec5781610e8a565b5090919050565b6124fd82826116a2565b15610ec1576000828152602081815260408083206001600160a01b0385168085529252808320805460ff1916905551339285917ff6391f5c32d9c69d2a47ea670b442974b53935d1edc7fd64eb21e047a839171b9190a45050565b6001600160a01b038084166000908152600860209081526040808320938616835292905290812054819061258d9084906155fc565b905061259a858583611e36565b50600195945050505050565b60006001600160a01b0382163014806125c657506001600160a01b038216155b156125d357506000919050565b600f546001600160a01b0316801561265257604051632355178960e11b81526001600160a01b038216906346aa2f1290612611908690600401614e75565b602060405180830381865afa15801561262e573d6000803e3d6000fd5b505050506040513d601f19601f82011682018060405250810190610e8a9190615569565b600061265c611cc8565b600d5490915080821061267457506000949350505050565b610dd982826155e9565b6001600160a01b038416158061269b57506001600160a01b038316155b806126ad57506001600160a01b038216155b156126cb5760405163d92e233d60e01b815260040160405180910390fd5b6040516323b872dd60e01b81526001600160a01b038516906323b872dd906126fb908690869086906004016158f9565b6020604051808303816000875af115801561271a573d6000803e3d6000fd5b505050506040513d601f19601f8201168201806040525081019061273e919061592c565b61275a5760405162461bcd60e51b815260040161109190615973565b50505050565b6001600160a01b038316158061277d57506001600160a01b038216155b1561279b5760405163d92e233d60e01b815260040160405180910390fd5b60405163a9059cbb60e01b81526001600160a01b0384169063a9059cbb906127c99085908590600401615983565b6020604051808303816000875af11580156127e8573d6000803e3d6000fd5b505050506040513d601f19601f8201168201806040525081019061280c919061592c565b6110165760405162461bcd60e51b815260040161109190615973565b6001600160a01b038216600090815260046020526040812060020154601454839190600160a01b900460ff16151560010361286257600091505b8082036128825760405163084df06b60e41b815260040160405180910390fd5b81811115612b9657600061289683836155e9565b9050600c5481600b546128a991906155fc565b10156128cc57600b54600c546128bf91906155e9565b9050818111156128cc5750805b604051636c82bbbf60e11b81526000906001600160a01b038816906307a2d13a90829063d905777e90612903903090600401614e75565b602060405180830381865afa158015612920573d6000803e3d6000fd5b505050506040513d601f19601f820116820180604052508101906129449190615569565b6040518263ffffffff1660e01b81526004016129609190614e89565b602060405180830381865afa15801561297d573d6000803e3d6000fd5b505050506040513d601f19601f820116820180604052508101906129a19190615569565b9050600081116129c457604051637c946ed760e01b815260040160405180910390fd5b818110156129d0578091505b60006129dc8884612f54565b905080156129fd576040516339589fdd60e21b815260040160405180910390fd5b6040516370a0823160e01b81526000906001600160a01b037f000000000000000000000000000000000000000000000000000000000000000016906370a0823190612a4c903090600401614e75565b602060405180830381865afa158015612a69573d6000803e3d6000fd5b505050506040513d601f19601f82011682018060405250810190612a8d9190615569565b9050612a998985614192565b6040516370a0823160e01b81526000906001600160a01b037f000000000000000000000000000000000000000000000000000000000000000016906370a0823190612ae8903090600401614e75565b602060405180830381865afa158015612b05573d6000803e3d6000fd5b505050506040513d601f19601f82011682018060405250810190612b299190615569565b90506000612b40612b3a84846155e9565b886124dd565b905085811115612b4e578095505b80600b6000828254612b6091906155fc565b9250508190555085600a6000828254612b7991906155e9565b90915550612b89905086886155e9565b9750505050505050612f06565b6001600160a01b038516600090815260046020526040902060030154821115612bd25760405163d49d8c2360e01b815260040160405180910390fd5b60405163402d267d60e01b81526000906001600160a01b0387169063402d267d90612c01903090600401614e75565b602060405180830381865afa158015612c1e573d6000803e3d6000fd5b505050506040513d601f19601f82011682018060405250810190612c429190615569565b905060008111612c6557604051637c946ed760e01b815260040160405180910390fd5b6000612c7183856155e9565b905081811115612c7e5750805b600c54600b5411612ca25760405163356680b760e01b815260040160405180910390fd5b6000600c54600b54612cb491906155e9565b905080821115612cc2578091505b8115612f0257612cf37f000000000000000000000000000000000000000000000000000000000000000089846142ec565b6040516370a0823160e01b81526000906001600160a01b037f000000000000000000000000000000000000000000000000000000000000000016906370a0823190612d42903090600401614e75565b602060405180830381865afa158015612d5f573d6000803e3d6000fd5b505050506040513d601f19601f82011682018060405250810190612d839190615569565b604051636e553f6560e01b81529091506001600160a01b038a1690636e553f6590612db49086903090600401615991565b6020604051808303816000875af1158015612dd3573d6000803e3d6000fd5b505050506040513d601f19601f82011682018060405250810190612df79190615569565b506040516370a0823160e01b81526000906001600160a01b037f000000000000000000000000000000000000000000000000000000000000000016906370a0823190612e47903090600401614e75565b602060405180830381865afa158015612e64573d6000803e3d6000fd5b505050506040513d601f19601f82011682018060405250810190612e889190615569565b9050612eb67f00000000000000000000000000000000000000000000000000000000000000008b60006142ec565b612ec081836155e9565b935083600b6000828254612ed491906155e9565b9250508190555083600a6000828254612eed91906155fc565b90915550612efd905084876155fc565b965050505b5050505b6001600160a01b0385166000818152600460205260409081902060020184905551600080516020615ee083398151915290612f4490849086906153d9565b60405180910390a2509392505050565b6001600160a01b03821660008181526004602081905260408083206002015490516370a0823160e01b81529293909284926370a0823191612f9791309101614e75565b602060405180830381865afa158015612fb4573d6000803e3d6000fd5b505050506040513d601f19601f82011682018060405250810190612fd89190615569565b90506000856001600160a01b03166307a2d13a836040518263ffffffff1660e01b81526004016130089190614e89565b602060405180830381865afa158015613025573d6000803e3d6000fd5b505050506040513d601f19601f820116820180604052508101906130499190615569565b90508281101580613058575082155b156130695760009350505050610d9f565b600061307582876155a0565b9050600061308385836155d5565b61308d90886155e9565b9050613099858361585f565b15611998576119956001826155fc565b601454600090600160a01b900460ff1615156001036130db57604051630f3c386760e01b815260040160405180910390fd5b6130e4836125a6565b821115613104576040516325d16c5160e01b815260040160405180910390fd5b6000821161312557604051637c946ed760e01b815260040160405180910390fd5b6040516323b872dd60e01b81526001600160a01b037f000000000000000000000000000000000000000000000000000000000000000016906323b872dd90613175903390309087906004016158f9565b6020604051808303816000875af1158015613194573d6000803e3d6000fd5b505050506040513d601f19601f820116820180604052508101906131b8919061592c565b5081600b60008282546131cb91906155fc565b90915550600090506131dd83856143b4565b90506000811161320057604051637c946ed760e01b815260040160405180910390fd5b836001600160a01b0316856001600160a01b0316600080516020615ec083398151915285846040516132339291906153d9565b60405180910390a3949350505050565b60165460009081428211156132845764e8d4a510006018544261326691906155e9565b60175461327391906155a0565b61327d91906155d5565b9050610d9f565b8115610d9f57503060009081526007602052604090205492915050565b601454600090600160a01b900460ff1615156001036132d357604051630f3c386760e01b815260040160405180910390fd5b60006132e0836001611d03565b90506000811161330357604051637c946ed760e01b815260040160405180910390fd5b61330c846125a6565b81111561332c576040516325d16c5160e01b815260040160405180910390fd5b6040516323b872dd60e01b81526001600160a01b037f000000000000000000000000000000000000000000000000000000000000000016906323b872dd9061337c903390309086906004016158f9565b6020604051808303816000875af115801561339b573d6000803e3d6000fd5b505050506040513d601f19601f820116820180604052508101906133bf919061592c565b5080600b60008282546133d291906155fc565b909155506133e290508385614465565b836001600160a01b0316856001600160a01b0316600080516020615ec083398151915283866040516132339291906153d9565b6001600160a01b038084166000908152600860209081526040808320938616835292905290812054819061258d9084906155e9565b6001600160a01b038316600090815260076020526040902054818110156134845760405163356680b760e01b815260040160405180910390fd5b6001600160a01b03841615806134a157506001600160a01b038316155b156134bf5760405163d92e233d60e01b815260040160405180910390fd5b6134c982826155e9565b6001600160a01b0380861660009081526007602052604080822093909355908516815220546134f883826155fc565b6001600160a01b038086166000818152600760205260409081902093909355915190871690600080516020615e0083398151915290613538908790614e89565b60405180910390a35050505050565b6001600160a01b0381166000908152600460205260408120548190810361358157604051630631bc2160e51b815260040160405180910390fd5b6135896144fe565b6000806135958561452e565b9150915060006135a6868484614664565b905060006135bd83836000015184604001516147d2565b90506000806135cf838588888d614857565b915091506135dd8282614b67565b6001600160a01b03891660008181526004602052604080822042600182015560020154908601517f7f2ad1d3ba35276f35ef140f83e3e0f17b23064fd710113d3f7a5ab30d267811928a928a9290916136369190611d03565b61364d89602001518a6040015161171d91906155fc565b8a60200151604051613664969594939291906159ac565b60405180910390a250939792965091945050505050565b60006001600160a01b0388166136a45760405163d92e233d60e01b815260040160405180910390fd5b428510156136c5576040516363bef56160e11b815260040160405180910390fd5b6001600160a01b038816600090815260196020908152604080832054905190929161370a91600080516020615e20833981519152918d918d918d9188918e91016159fb565b6040516020818303038152906040528051906020012090506000601a5482604051602001613739929190615a23565b6040516020818303038152906040528051906020012090506000600182898989604051600081526020016040526040516137769493929190615a54565b6020604051602081039080840390855afa158015613798573d6000803e3d6000fd5b5050604051601f1901519150506001600160a01b03811615806137cd57508b6001600160a01b0316816001600160a01b031614155b156137eb576040516310454c9960e31b815260040160405180910390fd5b6137f68c8c8c611e36565b506001600160a01b038c16600090815260196020526040812080549161381b83615625565b91905055508a6001600160a01b03168c6001600160a01b0316600080516020615e408339815191528c6040516138519190614e89565b60405180910390a35060019b9a5050505050505050505050565b6001600160a01b0381166000908152600760205260409020548211156138a457604051633999656760e01b815260040160405180910390fd5b6001600160a01b038116600090815260076020526040812080548492906138cc9084906155e9565b9250508190555081600960008282546138e591906155e9565b90915550506040516000906001600160a01b03831690600080516020615e0083398151915290613916908690614e89565b60405180910390a35050565b6001600160a01b0384166139495760405163d92e233d60e01b815260040160405180910390fd5b61271081111561396c57604051631a7ed0a160e31b815260040160405180910390fd5b6000821161398d57604051637c946ed760e01b815260040160405180910390fd5b6001600160a01b03831660009081526007602052604090205482111561275a57604051633999656760e01b815260040160405180910390fd5b826001600160a01b0316826001600160a01b03161461101657611016838383614137565b60008060006040518060c00160405280868152602001600b548152602001600a548152602001600081526020017f00000000000000000000000000000000000000000000000000000000000000006001600160a01b03166370a08231306040518263ffffffff1660e01b8152600401613a639190614e75565b602060405180830381865afa158015613a80573d6000803e3d6000fd5b505050506040513d601f19601f82011682018060405250810190613aa49190615569565b81526000602091820152810151815191925010156140295760008451600014158015613ad3575060065460ff16155b613b37576005805480602002602001604051908101604052809291908181526020018280548015613b2d57602002820191906000526020600020905b81546001600160a01b03168152600190910190602001808311613b0f575b5050505050613b39565b845b60208301518351919250613b4c916155e9565b606083015260005b8151811015613ff8576000828281518110613b7157613b7161560f565b6020026020010151905060046000826001600160a01b03166001600160a01b0316815260200190815260200160002060000154600003613bc457604051630631bc2160e51b815260040160405180910390fd5b6001600160a01b0381166000908152600460205260408120600201546060860151909190613bf290836124dd565b90506000836001600160a01b03166307a2d13a856001600160a01b031663d905777e306040518263ffffffff1660e01b8152600401613c319190614e75565b602060405180830381865afa158015613c4e573d6000803e3d6000fd5b505050506040513d601f19601f82011682018060405250810190613c729190615569565b6040518263ffffffff1660e01b8152600401613c8e9190614e89565b602060405180830381865afa158015613cab573d6000803e3d6000fd5b505050506040513d601f19601f82011682018060405250810190613ccf9190615569565b90506000613cdd8584612f54565b90508015613de357613cef81846155e9565b821015613d29576000613d0282856155e9565b905080613d0f84846155a0565b613d1991906155d5565b9150613d2582846155fc565b9350505b613d3381846155e9565b92508088600001818151613d4791906155e9565b905250606088018051829190613d5e9083906155e9565b905250604088018051829190613d759083906155e9565b90525081158015613d865750600081115b15613de3576000613d9782866155e9565b6001600160a01b038716600081815260046020526040908190206002018390555191925090600080516020615ee083398151915290613dd990889085906153d9565b60405180910390a2505b613ded83836124dd565b925082600003613e01575050505050613fe6565b613e0b8584614192565b6040516370a0823160e01b81526000906001600160a01b037f000000000000000000000000000000000000000000000000000000000000000016906370a0823190613e5a903090600401614e75565b602060405180830381865afa158015613e77573d6000803e3d6000fd5b505050506040513d601f19601f82011682018060405250810190613e9b9190615569565b90506000896080015182613eaf91906155e9565b9050600085821115613ee65786821115613ecb57869550613efb565b613ed586836155e9565b613edf90876155fc565b9550613efb565b85821015613efb57613ef882876155e9565b90505b613f0581876155e9565b8b602001818151613f1691906155fc565b9052508a5181908c90613f2a9083906155e9565b90525060408b018051879190613f419083906155e9565b9052506000613f5085886155fc565b613f5a90896155e9565b6001600160a01b038a16600081815260046020526040908190206002018390555191925090600080516020615ee083398151915290613f9c908b9085906153d9565b60405180910390a260208c01518c5111613fbe57505050505050505050613ff8565b60808c0184905260608c018051889190613fd99083906155e9565b9052505050505050505050505b80613ff081615625565b915050613b54565b5081516020830151101561401f576040516396d8043360e01b815260040160405180910390fd5b506040810151600a555b805160209091015190925090505b9250929050565b828411801561404e575061271081105b156140935761271061406082866155a0565b61406a91906155d5565b61407484866155e9565b1115614093576040516307f65e3960e11b815260040160405180910390fd5b61409d858761386b565b6140a783836155e9565b600b556140d57f00000000000000000000000000000000000000000000000000000000000000008885612760565b50505050505050565b6140e882826116a2565b610ec1576140f581614c08565b614100836020614c1a565b604051602001614111929190615a91565b60408051601f198184030181529082905262461bcd60e51b82526110919160040161510f565b6001600160a01b038084166000908152600860209081526040808320938616835292905220548181101561417e5760405163017e286b60e51b815260040160405180910390fd5b612066848461418d85856155e9565b611e36565b6000614276836001600160a01b0316630a28a477846040518263ffffffff1660e01b81526004016141c39190614e89565b602060405180830381865afa1580156141e0573d6000803e3d6000fd5b505050506040513d601f19601f820116820180604052508101906142049190615569565b6040516370a0823160e01b81526001600160a01b038616906370a0823190614230903090600401614e75565b602060405180830381865afa15801561424d573d6000803e3d6000fd5b505050506040513d601f19601f820116820180604052508101906142719190615569565b6124dd565b604051635d043b2960e11b81529091506001600160a01b0384169063ba087652906142a990849030908190600401615ae3565b6020604051808303816000875af11580156142c8573d6000803e3d6000fd5b505050506040513d601f19601f8201168201806040525081019061275a9190615569565b6001600160a01b038316158061430957506001600160a01b038216155b156143275760405163d92e233d60e01b815260040160405180910390fd5b60405163095ea7b360e01b81526001600160a01b0384169063095ea7b3906143559085908590600401615983565b6020604051808303816000875af1158015614374573d6000803e3d6000fd5b505050506040513d601f19601f82011682018060405250810190614398919061592c565b6110165760405162461bcd60e51b815260040161109190615b31565b60006001600160a01b0382166143dd5760405163d92e233d60e01b815260040160405180910390fd5b60006143e7611ff1565b905060006143f3611cc8565b905060008260000361440657508461444b565b858211156144335761441886836155e9565b61442284886155a0565b61442c91906155d5565b905061444b565b60405162461bcd60e51b815260040161109190615b67565b8060000361445f5760009350505050610d9f565b610dd981865b6001600160a01b03811661448c5760405163d92e233d60e01b815260040160405180910390fd5b6001600160a01b038116600090815260076020526040812080548492906144b49084906155fc565b9250508190555081600960008282546144cd91906155fc565b90915550506040516001600160a01b03821690600090600080516020615e0083398151915290613916908690614e89565b6000614508613243565b9050806000036145155750565b42601654111561452457426018555b611f86813061386b565b6000806000836001600160a01b03166370a08231306040518263ffffffff1660e01b815260040161455f9190614e75565b602060405180830381865afa15801561457c573d6000803e3d6000fd5b505050506040513d601f19601f820116820180604052508101906145a09190615569565b90506000846001600160a01b03166307a2d13a836040518263ffffffff1660e01b81526004016145d09190614e89565b602060405180830381865afa1580156145ed573d6000803e3d6000fd5b505050506040513d601f19601f820116820180604052508101906146119190615569565b6001600160a01b038616600090815260046020526040812060020154919250808284111561464a5761464383856155e9565b9150614657565b61465484846155e9565b90505b9097909650945050505050565b61466c614de8565b614674614de8565b600e546001600160a01b031615610f3957600e5460405163921f8a8f60e01b81526001600160a01b039091169063921f8a8f906146b990889088908890600401615b77565b60408051808303816000875af11580156146d7573d6000803e3d6000fd5b505050506040513d601f19601f820116820180604052508101906146fb9190615b92565b602083015280825215610f395760007f00000000000000000000000000000000000000000000000000000000000000006001600160a01b03166307d3277f6040518163ffffffff1660e01b81526004016040805180830381865afa158015614767573d6000803e3d6000fd5b505050506040513d601f19601f8201168201806040525081019061478b9190615be5565b6001600160a01b03166060840152905061ffff8116156124d4578151612710906147ba9061ffff8416906155a0565b6147c491906155d5565b604083015250949350505050565b6147da614e19565b6147e2614e19565b60006147ee85876155fc565b1115610f395761480861480185876155fc565b6001611ece565b815182906148179083906155fc565b9052508315610f395761483461482d84866155e9565b6000611ece565b60208201528215610f395761484a836000611ece565b6040820152949350505050565b600080600080876020015111156149bc576020870151600e546040516370a0823160e01b815261495f9291614271916001600160a01b037f00000000000000000000000000000000000000000000000000000000000000008116926370a08231926148c9929190911690600401614e75565b602060405180830381865afa1580156148e6573d6000803e3d6000fd5b505050506040513d601f19601f8201168201806040525081019061490a9190615569565b600e54604051636eb1769f60e11b81526001600160a01b037f000000000000000000000000000000000000000000000000000000000000000081169263dd62ed3e926142309291909116903090600401615c18565b60208801819052600e546149a0917f0000000000000000000000000000000000000000000000000000000000000000916001600160a01b031690309061267e565b8660200151600b60008282546149b691906155fc565b90915550505b8515614a0c576001600160a01b038416600090815260046020526040812060020180548892906149ed9084906155fc565b9250508190555085600a6000828254614a0691906155fc565b90915550505b6000876020015187614a1e91906155fc565b118015614a2c575060155415155b15614a4d57614a4a876020015187614a4491906155fc565b306143b4565b90505b8415614a9d576001600160a01b03841660009081526004602052604081206002018054879290614a7e9084906155e9565b9250508190555084600a6000828254614a9791906155e9565b90915550505b30600090815260076020526040812054614ab89083906155e9565b895190915015614b19578851614ad29061427184846155fc565b808a52614adf903061386b565b6000614aef8a60000151846124dd565b9050614afb81846155e9565b8a51909350614b0b9082906155e9565b614b1590836155e9565b9150505b602089015115614b3e576020890151600e54614b3e91906001600160a01b0316614465565b604089015115614b5a57614b5a89604001518960600151614465565b9890975095505050505050565b6000614b7382846155fc565b90508015614bfe576000426016541115614ba25742601654614b9591906155e9565b614b9f90856155a0565b90505b60008260155485614bb391906155a0565b614bbd90846155fc565b614bc791906155d5565b905080614bd964e8d4a51000856155a0565b614be391906155d5565b601755614bf081426155fc565b601655505042601855505050565b6000601755505050565b6060610d9f6001600160a01b03831660145b60606000614c298360026155a0565b614c349060026155fc565b6001600160401b03811115614c4b57614c4b614f1f565b6040519080825280601f01601f191660200182016040528015614c75576020820181803683370190505b509050600360fc1b81600081518110614c9057614c9061560f565b60200101906001600160f81b031916908160001a905350600f60fb1b81600181518110614cbf57614cbf61560f565b60200101906001600160f81b031916908160001a9053506000614ce38460026155a0565b614cee9060016155fc565b90505b6001811115614d66576f181899199a1a9b1b9c1cb0b131b232b360811b85600f1660108110614d2257614d2261560f565b1a60f81b828281518110614d3857614d3861560f565b60200101906001600160f81b031916908160001a90535060049490941c93614d5f81615c26565b9050614cf1565b508315610e8a5760405162461bcd60e51b815260040161109190615c6f565b828054828255906000526020600020908101928215614dd8579160200282015b82811115614dd85781546001600160a01b0319166001600160a01b03843516178255602090920191600190910190614da5565b50614de4929150614e3a565b5090565b604051806080016040528060008152602001600081526020016000815260200160006001600160a01b031681525090565b60405180606001604052806000815260200160008152602001600081525090565b5b80821115614de45760008155600101614e3b565b6001600160a01b031690565b6000610d9f82614e4f565b614e6f81614e5b565b82525050565b60208101610d9f8284614e66565b80614e6f565b60208101610d9f8284614e83565b6001600160e01b031981165b8114611f8657600080fd5b8035610d9f81614e97565b600060208284031215614ece57614ece600080fd5b6000610f398484614eae565b801515614e6f565b60208101610d9f8284614eda565b80614ea3565b8035610d9f81614ef0565b614ea381614e5b565b8035610d9f81614f01565b601f01601f191690565b634e487b7160e01b600052604160045260246000fd5b614f3e82614f15565b81018181106001600160401b0382111715614f5b57614f5b614f1f565b6040525050565b6000614f6d60405190565b9050614f798282614f35565b919050565b60006001600160401b03821115614f9757614f97614f1f565b5060209081020190565b6000614fb4614faf84614f7e565b614f62565b83815290506020808201908402830185811115614fd357614fd3600080fd5b835b81811015614ff75780614fe88882614f0a565b84525060209283019201614fd5565b5050509392505050565b600082601f83011261501557615015600080fd5b8135610f39848260208601614fa1565b600080600080600060a0868803121561504057615040600080fd5b600061504c8888614ef6565b955050602061505d88828901614f0a565b945050604061506e88828901614f0a565b935050606061507f88828901614ef6565b92505060808601356001600160401b0381111561509e5761509e600080fd5b6150aa88828901615001565b9150509295509295909350565b60005b838110156150d25781810151838201526020016150ba565b50506000910152565b60006150e5825190565b8084526020840193506150fc8185602086016150b7565b61510581614f15565b9093019392505050565b60208082528101610e8a81846150db565b60006020828403121561513557615135600080fd5b6000610f398484614ef6565b6000806040838503121561515757615157600080fd5b60006151638585614f0a565b925050602061517485828601614ef6565b9150509250929050565b60006020828403121561519357615193600080fd5b6000610f398484614f0a565b6000806000606084860312156151b7576151b7600080fd5b60006151c38686614f0a565b93505060206151d486828701614f0a565b92505060406151e586828701614ef6565b9150509250925092565b60ff8116614e6f565b60208101610d9f82846151ef565b6000806040838503121561521c5761521c600080fd5b60006152288585614ef6565b925050602061517485828601614f0a565b60008060006060848603121561525157615251600080fd5b600061525d8686614f0a565b935050602061526e86828701614ef6565b92505060408401356001600160401b0381111561528d5761528d600080fd5b6151e586828701615001565b608081016152a78287614e83565b6152b46020830186614e83565b6152c16040830185614e83565b610dd96060830184614e83565b6000610d9f6152e26152df84614e4f565b90565b614e4f565b6000610d9f826152ce565b6000610d9f826152e7565b614e6f816152f2565b60208101610d9f82846152fd565b60008083601f84011261532957615329600080fd5b5081356001600160401b0381111561534357615343600080fd5b60208301915083602082028301111561403757614037600080fd5b6000806020838503121561537457615374600080fd5b82356001600160401b0381111561538d5761538d600080fd5b61539985828601615314565b92509250509250929050565b801515614ea3565b8035610d9f816153a5565b6000602082840312156153cd576153cd600080fd5b6000610f3984846153ad565b604081016153e78285614e83565b610e8a6020830184614e83565b60ff8116614ea3565b8035610d9f816153f4565b600080600080600080600060e0888a03121561542657615426600080fd5b60006154328a8a614f0a565b97505060206154438a828b01614f0a565b96505060406154548a828b01614ef6565b95505060606154658a828b01614ef6565b94505060806154768a828b016153fd565b93505060a06154878a828b01614ef6565b92505060c06154988a828b01614ef6565b91505092959891949750929550565b600080604083850312156154bd576154bd600080fd5b60006152288585614f0a565b634e487b7160e01b600052602260045260246000fd5b6002810460018216806154f357607f821691505b602082108103615505576155056154c9565b50919050565b60208082528101610d9f81602f81527f416363657373436f6e74726f6c3a2063616e206f6e6c792072656e6f756e636560208201526e103937b632b9903337b91039b2b63360891b604082015260600190565b8051610d9f81614ef0565b60006020828403121561557e5761557e600080fd5b6000610f39848461555e565b634e487b7160e01b600052601160045260246000fd5b60008160001904831182151516156155ba576155ba61558a565b500290565b634e487b7160e01b600052601260045260246000fd5b6000826155e4576155e46155bf565b500490565b81810381811115610d9f57610d9f61558a565b80820180821115610d9f57610d9f61558a565b634e487b7160e01b600052603260045260246000fd5b600060001982036156385761563861558a565b5060010190565b600061564b8383614e66565b505060200190565b6000610e8a6020840184614f0a565b8183526000602084019350818060005b8581101561569f576156848284615653565b61568e888261563f565b975060208301925050600101615672565b509495945050505050565b60208082528101610f39818486615662565b80825b60018511156156fb578086048111156156da576156da61558a565b60018516156156e857908102905b80026156f48560011c90565b94506156bf565b94509492505050565b60008261571357506001610e8a565b8161572057506000610e8a565b816001811461573657600281146157405761576d565b6001915050610e8a565b60ff8411156157515761575161558a565b8360020a9150848211156157675761576761558a565b50610e8a565b5060208310610133831016604e8410600b84101617156157a0575081810a8381111561579b5761579b61558a565b610e8a565b6157ad84848460016156bc565b925090508184048111156157c3576157c361558a565b0292915050565b600060ff83169250610e8a6000198484615704565b634e487b7160e01b600052602160045260246000fd5b6000610d9f6152df8381565b614e6f816157f5565b60208101610d9f8284615801565b601f81526000602082017f5265656e7472616e637947756172643a207265656e7472616e742063616c6c00815291505b5060200190565b60208082528101610d9f81615818565b60008261586e5761586e6155bf565b500690565b604081016158818285614e66565b610e8a6020830184614eda565b6000615898825190565b80845260209384019383018060005b8381101561569f5781516158bb888261563f565b9750602083019250506001016158a7565b606081016158da8286614e66565b6158e76020830185614e83565b8181036040830152610dd9818461588e565b606081016159078286614e66565b6159146020830185614e66565b610f396040830184614e83565b8051610d9f816153a5565b60006020828403121561594157615941600080fd5b6000610f398484615921565b600f81526000602082016e1d1c985b9cd9995c8819985a5b1959608a1b81529150615848565b60208082528101610d9f8161594d565b604081016153e78285614e66565b6040810161599f8285614e83565b610e8a6020830184614e66565b60c081016159ba8289614e83565b6159c76020830188614e83565b6159d46040830187614e83565b6159e16060830186614e83565b6159ee6080830185614e83565b61199860a0830184614e83565b60c08101615a098289614e83565b615a166020830188614e66565b6159d46040830187614e66565b61190160f01b81526002016000615a3a8285614e83565b602082019150615a4a8284614e83565b5060200192915050565b60808101615a628287614e83565b6152b460208301866151ef565b6000615a79825190565b615a878185602086016150b7565b9290920192915050565b76020b1b1b2b9b9a1b7b73a3937b61d1030b1b1b7bab73a1604d1b81526017016000615abd8285615a6f565b7001034b99036b4b9b9b4b733903937b6329607d1b81526011019150610f398284615a6f565b60608101615af18286614e83565b615afe6020830185614e66565b610f396040830184614e66565b600f81526000602082016e185c1c1c9bdd985b0819985a5b1959608a1b81529150615848565b60208082528101610d9f81615b0b565b600f81526000602082016e0c2dadeeadce840e8dede40d0d2ced608b1b81529150615848565b60208082528101610d9f81615b41565b60608101615b858286614e66565b6159146020830185614e83565b60008060408385031215615ba857615ba8600080fd5b6000615bb4858561555e565b92505060206151748582860161555e565b61ffff8116614ea3565b8051610d9f81615bc5565b8051610d9f81614f01565b60008060408385031215615bfb57615bfb600080fd5b6000615c078585615bcf565b925050602061517485828601615bda565b6040810161599f8285614e66565b600081615c3557615c3561558a565b506000190190565b60208082527f537472696e67733a20686578206c656e67746820696e73756666696369656e7491019081526000615848565b60208082528101610d9f81615c3d56fe152ebba56b9738ee3d8baea1b76fa31dcdcd79b1929bfea7d58ee12cfdf1a653cd9f023a942ee35097ead74b2505bea9f2c5d47465db92dd195cf7f01a41cfe1633076a97f32ae349b28772e7b1483f67a926f150cbc501d02bdbd77389325abc723f4dd6268e1c374639e36d629c765285ee7003913389d582c300f186dde97777d215db24fb9fee4ded85c66b422abd7162a1caa6ed3ec4c031f6cd29ada52d45f7ccff42f059d4e47c3f027c444272257266f7e88b981e142f0aa38fbfd78ea672c1c09cd95c51af9509f646f3615ff0071aae8652bd821471ee9037fd72c862f91c9d89d6135b19873b921c90b702cb2e175c371b8430026b9577e691119ae565aab888bca5e19e25a13db7b0c9144305bf55cb0f3f4d724f730e5acdd622a0e761830cc61f2707ea7bb138008bf9dda7f7d34c77736d0a116604e95ea16f206625bad3d9112d5609b8d356e6fbd514cd1f69980d4ce2b3e6e68e1789ace7cbb3cdf689b8ea3e9d265f66bc4e0a99069268217017d38d2a5a559abc62719ddf252ad1be2c89b69c2b068fc378daa952ba7f163c4a11628f55a4df523b3ef6e71edae12b1b97f4d1f60370fef10105fa2faae0126114a169c64845d6126c98c5be1e5ebec7d5bd14f71427d1e84f3dd0314c0f7b2291e5b200ac8c7c3b9256f430d649a8640e48ff9bfbc353b3f99ed630163857821b3b4075e3871dafbf5900d80def0427daac599092fcb16b21808ec68dd9a2e1eae89d1e8db21357375a18eaea71a088b547b8c932b48861853b3434d9a3240b94466c607e28b696595dcbc1c05240f31ff3ad067ef1ee35ce4997762752e3a095284754544f4c709d75e2b8821ad6e0e26207e0cb4d242d07eeb1cbb1cfd853e645bdcd27cc5484f952f0dbbe8c2c0170206c50ec0cafa1c0dbd03e73e67c2a960178df30a0a30ee2e69d1171ac0a63777a6733cda21aec9ed3d48a4fd11f273c934a691dec5e5589ca2646970667358221220479bb95b3f94e5611409fa9a4b17a7e3b81c895e4fb18238b050f87d4b3fd51664736f6c63430008100033",
  "devdoc": {
    "kind": "dev",
    "methods": {
      "allowance(address,address)": {
        "details": "Returns the remaining number of tokens that `spender` will be allowed to spend on behalf of `owner` through {transferFrom}. This is zero by default. This value changes when {approve} or {transferFrom} are called."
      },
      "approve(address,uint256)": {
        "details": "Sets `amount` as the allowance of `spender` over the caller's tokens. Returns a boolean value indicating whether the operation succeeded. IMPORTANT: Beware that changing an allowance with this method brings the risk that someone may use both the old and the new allowance by unfortunate transaction ordering. One possible solution to mitigate this race condition is to first reduce the spender's allowance to 0 and set the desired value afterwards: https://github.com/ethereum/EIPs/issues/20#issuecomment-263524729 Emits an {Approval} event."
      },
      "asset()": {
        "details": "Returns the address of the underlying token used for the Vault for accounting, depositing, and withdrawing. - MUST be an ERC-20 token contract. - MUST NOT revert."
      },
      "convertToAssets(uint256)": {
        "details": "Returns the amount of assets that the Vault would exchange for the amount of shares provided, in an ideal scenario where all the conditions are met. - MUST NOT be inclusive of any fees that are charged against assets in the Vault. - MUST NOT show any variations depending on the caller. - MUST NOT reflect slippage or other on-chain conditions, when performing the actual exchange. - MUST NOT revert. NOTE: This calculation MAY NOT reflect the per-user price-per-share, and instead should reflect the average-users price-per-share, meaning what the average user should expect to see when exchanging to and from."
      },
      "convertToShares(uint256)": {
        "details": "Returns the amount of shares that the Vault would exchange for the amount of assets provided, in an ideal scenario where all the conditions are met. - MUST NOT be inclusive of any fees that are charged against assets in the Vault. - MUST NOT show any variations depending on the caller. - MUST NOT reflect slippage or other on-chain conditions, when performing the actual exchange. - MUST NOT revert. NOTE: This calculation MAY NOT reflect the per-user price-per-share, and instead should reflect the average-users price-per-share, meaning what the average user should expect to see when exchanging to and from."
      },
      "decimals()": {
        "details": "Returns the decimals places of the token."
      },
      "deposit(uint256,address)": {
        "details": "Mints shares Vault shares to receiver by depositing exactly amount of underlying tokens. - MUST emit the Deposit event. - MAY support an additional flow in which the underlying tokens are owned by the Vault contract before the   deposit execution, and are accounted for during deposit. - MUST revert if all of assets cannot be deposited (due to deposit limit being reached, slippage, the user not   approving enough underlying tokens to the Vault contract, etc). NOTE: most implementations will require pre-approval of the Vault with the Vaults underlying asset token."
      },
      "getRoleAdmin(bytes32)": {
        "details": "Returns the admin role that controls `role`. See {grantRole} and {revokeRole}. To change a role's admin, use {_setRoleAdmin}."
      },
      "grantRole(bytes32,address)": {
        "details": "Grants `role` to `account`. If `account` had not been already granted `role`, emits a {RoleGranted} event. Requirements: - the caller must have ``role``'s admin role. May emit a {RoleGranted} event."
      },
      "hasRole(bytes32,address)": {
        "details": "Returns `true` if `account` has been granted `role`."
      },
      "maxDeposit(address)": {
        "details": "Returns the maximum amount of the underlying asset that can be deposited into the Vault for the receiver, through a deposit call. - MUST return a limited value if receiver is subject to some deposit limit. - MUST return 2 ** 256 - 1 if there is no limit on the maximum amount of assets that may be deposited. - MUST NOT revert."
      },
      "maxMint(address)": {
        "details": "Returns the maximum amount of the Vault shares that can be minted for the receiver, through a mint call. - MUST return a limited value if receiver is subject to some mint limit. - MUST return 2 ** 256 - 1 if there is no limit on the maximum amount of shares that may be minted. - MUST NOT revert."
      },
      "mint(uint256,address)": {
        "details": "Mints exactly shares Vault shares to receiver by depositing amount of underlying tokens. - MUST emit the Deposit event. - MAY support an additional flow in which the underlying tokens are owned by the Vault contract before the mint   execution, and are accounted for during mint. - MUST revert if all of shares cannot be minted (due to deposit limit being reached, slippage, the user not   approving enough underlying tokens to the Vault contract, etc). NOTE: most implementations will require pre-approval of the Vault with the Vaults underlying asset token."
      },
      "previewDeposit(uint256)": {
        "details": "Allows an on-chain or off-chain user to simulate the effects of their deposit at the current block, given current on-chain conditions. - MUST return as close to and no more than the exact amount of Vault shares that would be minted in a deposit   call in the same transaction. I.e. deposit should return the same or more shares as previewDeposit if called   in the same transaction. - MUST NOT account for deposit limits like those returned from maxDeposit and should always act as though the   deposit would be accepted, regardless if the user has enough tokens approved, etc. - MUST be inclusive of deposit fees. Integrators should be aware of the existence of deposit fees. - MUST NOT revert. NOTE: any unfavorable discrepancy between convertToShares and previewDeposit SHOULD be considered slippage in share price or some other type of condition, meaning the depositor will lose assets by depositing."
      },
      "previewMint(uint256)": {
        "details": "Allows an on-chain or off-chain user to simulate the effects of their mint at the current block, given current on-chain conditions. - MUST return as close to and no fewer than the exact amount of assets that would be deposited in a mint call   in the same transaction. I.e. mint should return the same or fewer assets as previewMint if called in the   same transaction. - MUST NOT account for mint limits like those returned from maxMint and should always act as though the mint   would be accepted, regardless if the user has enough tokens approved, etc. - MUST be inclusive of deposit fees. Integrators should be aware of the existence of deposit fees. - MUST NOT revert. NOTE: any unfavorable discrepancy between convertToAssets and previewMint SHOULD be considered slippage in share price or some other type of condition, meaning the depositor will lose assets by minting."
      },
      "previewRedeem(uint256)": {
        "details": "Allows an on-chain or off-chain user to simulate the effects of their redeemption at the current block, given current on-chain conditions. - MUST return as close to and no more than the exact amount of assets that would be withdrawn in a redeem call   in the same transaction. I.e. redeem should return the same or more assets as previewRedeem if called in the   same transaction. - MUST NOT account for redemption limits like those returned from maxRedeem and should always act as though the   redemption would be accepted, regardless if the user has enough shares, etc. - MUST be inclusive of withdrawal fees. Integrators should be aware of the existence of withdrawal fees. - MUST NOT revert. NOTE: any unfavorable discrepancy between convertToAssets and previewRedeem SHOULD be considered slippage in share price or some other type of condition, meaning the depositor will lose assets by redeeming."
      },
      "previewWithdraw(uint256)": {
        "details": "Allows an on-chain or off-chain user to simulate the effects of their withdrawal at the current block, given current on-chain conditions. - MUST return as close to and no fewer than the exact amount of Vault shares that would be burned in a withdraw   call in the same transaction. I.e. withdraw should return the same or fewer shares as previewWithdraw if   called   in the same transaction. - MUST NOT account for withdrawal limits like those returned from maxWithdraw and should always act as though   the withdrawal would be accepted, regardless if the user has enough shares, etc. - MUST be inclusive of withdrawal fees. Integrators should be aware of the existence of withdrawal fees. - MUST NOT revert. NOTE: any unfavorable discrepancy between convertToShares and previewWithdraw SHOULD be considered slippage in share price or some other type of condition, meaning the depositor will lose assets by depositing."
      },
      "renounceRole(bytes32,address)": {
        "details": "Revokes `role` from the calling account. Roles are often managed via {grantRole} and {revokeRole}: this function's purpose is to provide a mechanism for accounts to lose their privileges if they are compromised (such as when a trusted device is misplaced). If the calling account had been revoked `role`, emits a {RoleRevoked} event. Requirements: - the caller must be `account`. May emit a {RoleRevoked} event."
      },
      "revokeRole(bytes32,address)": {
        "details": "Revokes `role` from `account`. If `account` had been granted `role`, emits a {RoleRevoked} event. Requirements: - the caller must have ``role``'s admin role. May emit a {RoleRevoked} event."
      },
      "supportsInterface(bytes4)": {
        "details": "See {IERC165-supportsInterface}."
      },
      "totalAssets()": {
        "details": "Returns the total amount of the underlying asset that is managed by Vault. - SHOULD include any compounding that occurs from yield. - MUST be inclusive of any fees that are charged against assets in the Vault. - MUST NOT revert."
      }
    },
    "stateVariables": {
      "name": {
        "details": "Returns the name of the token."
      },
      "symbol": {
        "details": "Returns the symbol of the token."
      }
    },
    "title": "Yearn V3 Vault",
    "version": 1
  },
  "userdoc": {
    "kind": "user",
    "methods": {},
    "notice": "The Yearn VaultV3 is designed as a non-opinionated system to distribute funds of  depositors for a specific `asset` into different opportunities (aka Strategies) and manage accounting in a robust way.",
    "version": 1
  },
  "storageLayout": {
    "storage": [
      {
        "astId": 24,
        "contract": "contracts/FathomVault.sol:FathomVault",
        "label": "_roles",
        "offset": 0,
        "slot": "0",
        "type": "t_mapping(t_bytes32,t_struct(RoleData)19_storage)"
      },
      {
        "astId": 399,
        "contract": "contracts/FathomVault.sol:FathomVault",
        "label": "_status",
        "offset": 0,
        "slot": "1",
        "type": "t_uint256"
      },
      {
        "astId": 7239,
        "contract": "contracts/FathomVault.sol:FathomVault",
        "label": "strategyManager",
        "offset": 0,
        "slot": "2",
        "type": "t_address"
      },
      {
        "astId": 7241,
        "contract": "contracts/FathomVault.sol:FathomVault",
        "label": "sharesManager",
        "offset": 0,
        "slot": "3",
        "type": "t_address"
      },
      {
        "astId": 7246,
        "contract": "contracts/FathomVault.sol:FathomVault",
        "label": "strategies",
        "offset": 0,
        "slot": "4",
        "type": "t_mapping(t_address,t_struct(StrategyParams)7402_storage)"
      },
      {
        "astId": 7249,
        "contract": "contracts/FathomVault.sol:FathomVault",
        "label": "defaultQueue",
        "offset": 0,
        "slot": "5",
        "type": "t_array(t_address)dyn_storage"
      },
      {
        "astId": 7251,
        "contract": "contracts/FathomVault.sol:FathomVault",
        "label": "useDefaultQueue",
        "offset": 0,
        "slot": "6",
        "type": "t_bool"
      },
      {
        "astId": 7255,
        "contract": "contracts/FathomVault.sol:FathomVault",
        "label": "_balanceOf",
        "offset": 0,
        "slot": "7",
        "type": "t_mapping(t_address,t_uint256)"
      },
      {
        "astId": 7261,
        "contract": "contracts/FathomVault.sol:FathomVault",
        "label": "_allowance",
        "offset": 0,
        "slot": "8",
        "type": "t_mapping(t_address,t_mapping(t_address,t_uint256))"
      },
      {
        "astId": 7263,
        "contract": "contracts/FathomVault.sol:FathomVault",
        "label": "totalSupplyAmount",
        "offset": 0,
        "slot": "9",
        "type": "t_uint256"
      },
      {
        "astId": 7265,
        "contract": "contracts/FathomVault.sol:FathomVault",
        "label": "totalDebtAmount",
        "offset": 0,
        "slot": "10",
        "type": "t_uint256"
      },
      {
        "astId": 7267,
        "contract": "contracts/FathomVault.sol:FathomVault",
        "label": "totalIdleAmount",
        "offset": 0,
        "slot": "11",
        "type": "t_uint256"
      },
      {
        "astId": 7269,
        "contract": "contracts/FathomVault.sol:FathomVault",
        "label": "minimumTotalIdle",
        "offset": 0,
        "slot": "12",
        "type": "t_uint256"
      },
      {
        "astId": 7271,
        "contract": "contracts/FathomVault.sol:FathomVault",
        "label": "depositLimit",
        "offset": 0,
        "slot": "13",
        "type": "t_uint256"
      },
      {
        "astId": 7273,
        "contract": "contracts/FathomVault.sol:FathomVault",
        "label": "accountant",
        "offset": 0,
        "slot": "14",
        "type": "t_address"
      },
      {
        "astId": 7275,
        "contract": "contracts/FathomVault.sol:FathomVault",
        "label": "depositLimitModule",
        "offset": 0,
        "slot": "15",
        "type": "t_address"
      },
      {
        "astId": 7277,
        "contract": "contracts/FathomVault.sol:FathomVault",
        "label": "withdrawLimitModule",
        "offset": 0,
        "slot": "16",
        "type": "t_address"
      },
      {
        "astId": 7281,
        "contract": "contracts/FathomVault.sol:FathomVault",
        "label": "roles",
        "offset": 0,
        "slot": "17",
        "type": "t_mapping(t_address,t_bytes32)"
      },
      {
        "astId": 7285,
        "contract": "contracts/FathomVault.sol:FathomVault",
        "label": "openRoles",
        "offset": 0,
        "slot": "18",
        "type": "t_mapping(t_bytes32,t_bool)"
      },
      {
        "astId": 7287,
        "contract": "contracts/FathomVault.sol:FathomVault",
        "label": "roleManager",
        "offset": 0,
        "slot": "19",
        "type": "t_address"
      },
      {
        "astId": 7289,
        "contract": "contracts/FathomVault.sol:FathomVault",
        "label": "futureRoleManager",
        "offset": 0,
        "slot": "20",
        "type": "t_address"
      },
      {
        "astId": 7291,
        "contract": "contracts/FathomVault.sol:FathomVault",
        "label": "shutdown",
        "offset": 20,
        "slot": "20",
        "type": "t_bool"
      },
      {
        "astId": 7293,
        "contract": "contracts/FathomVault.sol:FathomVault",
        "label": "profitMaxUnlockTime",
        "offset": 0,
        "slot": "21",
        "type": "t_uint256"
      },
      {
        "astId": 7295,
        "contract": "contracts/FathomVault.sol:FathomVault",
        "label": "fullProfitUnlockDate",
        "offset": 0,
        "slot": "22",
        "type": "t_uint256"
      },
      {
        "astId": 7297,
        "contract": "contracts/FathomVault.sol:FathomVault",
        "label": "profitUnlockingRate",
        "offset": 0,
        "slot": "23",
        "type": "t_uint256"
      },
      {
        "astId": 7299,
        "contract": "contracts/FathomVault.sol:FathomVault",
        "label": "lastProfitUpdate",
        "offset": 0,
        "slot": "24",
        "type": "t_uint256"
      },
      {
        "astId": 7303,
        "contract": "contracts/FathomVault.sol:FathomVault",
        "label": "nonces",
        "offset": 0,
        "slot": "25",
        "type": "t_mapping(t_address,t_uint256)"
      },
      {
        "astId": 7310,
        "contract": "contracts/FathomVault.sol:FathomVault",
        "label": "DOMAIN_SEPARATOR",
        "offset": 0,
        "slot": "26",
        "type": "t_bytes32"
      },
      {
        "astId": 1900,
        "contract": "contracts/FathomVault.sol:FathomVault",
        "label": "name",
        "offset": 0,
        "slot": "27",
        "type": "t_string_storage"
      },
      {
        "astId": 1903,
        "contract": "contracts/FathomVault.sol:FathomVault",
        "label": "symbol",
        "offset": 0,
        "slot": "28",
        "type": "t_string_storage"
      }
    ],
    "types": {
      "t_address": {
        "encoding": "inplace",
        "label": "address",
        "numberOfBytes": "20"
      },
      "t_array(t_address)dyn_storage": {
        "base": "t_address",
        "encoding": "dynamic_array",
        "label": "address[]",
        "numberOfBytes": "32"
      },
      "t_bool": {
        "encoding": "inplace",
        "label": "bool",
        "numberOfBytes": "1"
      },
      "t_bytes32": {
        "encoding": "inplace",
        "label": "bytes32",
        "numberOfBytes": "32"
      },
      "t_mapping(t_address,t_bool)": {
        "encoding": "mapping",
        "key": "t_address",
        "label": "mapping(address => bool)",
        "numberOfBytes": "32",
        "value": "t_bool"
      },
      "t_mapping(t_address,t_bytes32)": {
        "encoding": "mapping",
        "key": "t_address",
        "label": "mapping(address => bytes32)",
        "numberOfBytes": "32",
        "value": "t_bytes32"
      },
      "t_mapping(t_address,t_mapping(t_address,t_uint256))": {
        "encoding": "mapping",
        "key": "t_address",
        "label": "mapping(address => mapping(address => uint256))",
        "numberOfBytes": "32",
        "value": "t_mapping(t_address,t_uint256)"
      },
      "t_mapping(t_address,t_struct(StrategyParams)7402_storage)": {
        "encoding": "mapping",
        "key": "t_address",
        "label": "mapping(address => struct StrategyParams)",
        "numberOfBytes": "32",
        "value": "t_struct(StrategyParams)7402_storage"
      },
      "t_mapping(t_address,t_uint256)": {
        "encoding": "mapping",
        "key": "t_address",
        "label": "mapping(address => uint256)",
        "numberOfBytes": "32",
        "value": "t_uint256"
      },
      "t_mapping(t_bytes32,t_bool)": {
        "encoding": "mapping",
        "key": "t_bytes32",
        "label": "mapping(bytes32 => bool)",
        "numberOfBytes": "32",
        "value": "t_bool"
      },
      "t_mapping(t_bytes32,t_struct(RoleData)19_storage)": {
        "encoding": "mapping",
        "key": "t_bytes32",
        "label": "mapping(bytes32 => struct AccessControl.RoleData)",
        "numberOfBytes": "32",
        "value": "t_struct(RoleData)19_storage"
      },
      "t_string_storage": {
        "encoding": "bytes",
        "label": "string",
        "numberOfBytes": "32"
      },
      "t_struct(RoleData)19_storage": {
        "encoding": "inplace",
        "label": "struct AccessControl.RoleData",
        "members": [
          {
            "astId": 16,
            "contract": "contracts/FathomVault.sol:FathomVault",
            "label": "members",
            "offset": 0,
            "slot": "0",
            "type": "t_mapping(t_address,t_bool)"
          },
          {
            "astId": 18,
            "contract": "contracts/FathomVault.sol:FathomVault",
            "label": "adminRole",
            "offset": 0,
            "slot": "1",
            "type": "t_bytes32"
          }
        ],
        "numberOfBytes": "64"
      },
      "t_struct(StrategyParams)7402_storage": {
        "encoding": "inplace",
        "label": "struct StrategyParams",
        "members": [
          {
            "astId": 7395,
            "contract": "contracts/FathomVault.sol:FathomVault",
            "label": "activation",
            "offset": 0,
            "slot": "0",
            "type": "t_uint256"
          },
          {
            "astId": 7397,
            "contract": "contracts/FathomVault.sol:FathomVault",
            "label": "lastReport",
            "offset": 0,
            "slot": "1",
            "type": "t_uint256"
          },
          {
            "astId": 7399,
            "contract": "contracts/FathomVault.sol:FathomVault",
            "label": "currentDebt",
            "offset": 0,
            "slot": "2",
            "type": "t_uint256"
          },
          {
            "astId": 7401,
            "contract": "contracts/FathomVault.sol:FathomVault",
            "label": "maxDebt",
            "offset": 0,
            "slot": "3",
            "type": "t_uint256"
          }
        ],
        "numberOfBytes": "128"
      },
      "t_uint256": {
        "encoding": "inplace",
        "label": "uint256",
        "numberOfBytes": "32"
      }
    }
  }
}