{
  "address": "0xbe401B027d4D21716c6bd5Be351520E880D764dB",
  "abi": [
    {
      "inputs": [
        {
          "internalType": "contract IERC20",
          "name": "_asset",
          "type": "address"
        },
        {
          "internalType": "string",
          "name": "_name",
          "type": "string"
        },
        {
          "internalType": "string",
          "name": "_symbol",
          "type": "string"
        },
        {
          "internalType": "address",
          "name": "_roleManager",
          "type": "address"
        },
        {
          "internalType": "uint256",
          "name": "_profitMaxUnlockTime",
          "type": "uint256"
        },
        {
          "internalType": "address",
          "name": "_strategyManagerAddress",
          "type": "address"
        }
      ],
      "stateMutability": "nonpayable",
      "type": "constructor"
    },
    {
      "inputs": [],
      "name": "CallerIsNotTheFutureRoleManager",
      "type": "error"
    },
    {
      "inputs": [],
      "name": "DebtDidntChange",
      "type": "error"
    },
    {
      "inputs": [],
      "name": "DebtHigherThanMaxDebt",
      "type": "error"
    },
    {
      "inputs": [],
      "name": "ERC20InsufficientAllowance",
      "type": "error"
    },
    {
      "inputs": [],
      "name": "ERC20PermitExpired",
      "type": "error"
    },
    {
      "inputs": [],
      "name": "ERC20PermitInvalidSignature",
      "type": "error"
    },
    {
      "inputs": [],
      "name": "ExceedDepositLimit",
      "type": "error"
    },
    {
      "inputs": [],
      "name": "InactiveStrategy",
      "type": "error"
    },
    {
      "inputs": [],
      "name": "InsufficientAssets",
      "type": "error"
    },
    {
      "inputs": [],
      "name": "InsufficientFunds",
      "type": "error"
    },
    {
      "inputs": [],
      "name": "InsufficientShares",
      "type": "error"
    },
    {
      "inputs": [],
      "name": "InvalidAsset",
      "type": "error"
    },
    {
      "inputs": [],
      "name": "InvalidAssetDecimals",
      "type": "error"
    },
    {
      "inputs": [],
      "name": "MaxLoss",
      "type": "error"
    },
    {
      "inputs": [],
      "name": "ProfitUnlockTimeTooLong",
      "type": "error"
    },
    {
      "inputs": [],
      "name": "StrategyAlreadyActive",
      "type": "error"
    },
    {
      "inputs": [],
      "name": "StrategyDebtIsLessThanAssetsNeeded",
      "type": "error"
    },
    {
      "inputs": [],
      "name": "StrategyHasDebt",
      "type": "error"
    },
    {
      "inputs": [],
      "name": "StrategyHasUnrealisedLosses",
      "type": "error"
    },
    {
      "inputs": [],
      "name": "StrategyIsShutdown",
      "type": "error"
    },
    {
      "inputs": [],
      "name": "TooMuchLoss",
      "type": "error"
    },
    {
      "inputs": [],
      "name": "UsingDepositLimit",
      "type": "error"
    },
    {
      "inputs": [],
      "name": "UsingModule",
      "type": "error"
    },
    {
      "inputs": [],
      "name": "ZeroAddress",
      "type": "error"
    },
    {
      "inputs": [],
      "name": "ZeroValue",
      "type": "error"
    },
    {
      "anonymous": false,
      "inputs": [
        {
          "indexed": true,
          "internalType": "address",
          "name": "owner",
          "type": "address"
        },
        {
          "indexed": true,
          "internalType": "address",
          "name": "spender",
          "type": "address"
        },
        {
          "indexed": false,
          "internalType": "uint256",
          "name": "value",
          "type": "uint256"
        }
      ],
      "name": "Approval",
      "type": "event"
    },
    {
      "anonymous": false,
      "inputs": [
        {
          "indexed": true,
          "internalType": "address",
          "name": "strategy",
          "type": "address"
        },
        {
          "indexed": false,
          "internalType": "uint256",
          "name": "amount",
          "type": "uint256"
        }
      ],
      "name": "DebtPurchased",
      "type": "event"
    },
    {
      "anonymous": false,
      "inputs": [
        {
          "indexed": true,
          "internalType": "address",
          "name": "strategy",
          "type": "address"
        },
        {
          "indexed": false,
          "internalType": "uint256",
          "name": "currentDebt",
          "type": "uint256"
        },
        {
          "indexed": false,
          "internalType": "uint256",
          "name": "newDebt",
          "type": "uint256"
        }
      ],
      "name": "DebtUpdated",
      "type": "event"
    },
    {
      "anonymous": false,
      "inputs": [
        {
          "indexed": true,
          "internalType": "address",
          "name": "sender",
          "type": "address"
        },
        {
          "indexed": true,
          "internalType": "address",
          "name": "owner",
          "type": "address"
        },
        {
          "indexed": false,
          "internalType": "uint256",
          "name": "assets",
          "type": "uint256"
        },
        {
          "indexed": false,
          "internalType": "uint256",
          "name": "shares",
          "type": "uint256"
        }
      ],
      "name": "Deposit",
      "type": "event"
    },
    {
      "anonymous": false,
      "inputs": [
        {
          "indexed": true,
          "internalType": "bytes32",
          "name": "role",
          "type": "bytes32"
        },
        {
          "indexed": true,
          "internalType": "bytes32",
          "name": "previousAdminRole",
          "type": "bytes32"
        },
        {
          "indexed": true,
          "internalType": "bytes32",
          "name": "newAdminRole",
          "type": "bytes32"
        }
      ],
      "name": "RoleAdminChanged",
      "type": "event"
    },
    {
      "anonymous": false,
      "inputs": [
        {
          "indexed": true,
          "internalType": "bytes32",
          "name": "role",
          "type": "bytes32"
        },
        {
          "indexed": true,
          "internalType": "address",
          "name": "account",
          "type": "address"
        },
        {
          "indexed": true,
          "internalType": "address",
          "name": "sender",
          "type": "address"
        }
      ],
      "name": "RoleGranted",
      "type": "event"
    },
    {
      "anonymous": false,
      "inputs": [
        {
          "indexed": true,
          "internalType": "bytes32",
          "name": "role",
          "type": "bytes32"
        },
        {
          "indexed": true,
          "internalType": "address",
          "name": "account",
          "type": "address"
        },
        {
          "indexed": true,
          "internalType": "address",
          "name": "sender",
          "type": "address"
        }
      ],
      "name": "RoleRevoked",
      "type": "event"
    },
    {
      "anonymous": false,
      "inputs": [
        {
          "indexed": true,
          "internalType": "address",
          "name": "account",
          "type": "address"
        },
        {
          "indexed": false,
          "internalType": "bytes32",
          "name": "role",
          "type": "bytes32"
        }
      ],
      "name": "RoleSet",
      "type": "event"
    },
    {
      "anonymous": false,
      "inputs": [
        {
          "indexed": true,
          "internalType": "bytes32",
          "name": "role",
          "type": "bytes32"
        },
        {
          "indexed": true,
          "internalType": "enum RoleStatusChange",
          "name": "status",
          "type": "uint8"
        }
      ],
      "name": "RoleStatusChanged",
      "type": "event"
    },
    {
      "anonymous": false,
      "inputs": [],
      "name": "Shutdown",
      "type": "event"
    },
    {
      "anonymous": false,
      "inputs": [
        {
          "indexed": true,
          "internalType": "address",
          "name": "strategy",
          "type": "address"
        },
        {
          "indexed": false,
          "internalType": "enum StrategyChangeType",
          "name": "changeType",
          "type": "uint8"
        }
      ],
      "name": "StrategyChanged",
      "type": "event"
    },
    {
      "anonymous": false,
      "inputs": [
        {
          "indexed": true,
          "internalType": "address",
          "name": "strategy",
          "type": "address"
        },
        {
          "indexed": false,
          "internalType": "uint256",
          "name": "gain",
          "type": "uint256"
        },
        {
          "indexed": false,
          "internalType": "uint256",
          "name": "loss",
          "type": "uint256"
        },
        {
          "indexed": false,
          "internalType": "uint256",
          "name": "currentDebt",
          "type": "uint256"
        },
        {
          "indexed": false,
          "internalType": "uint256",
          "name": "protocolFees",
          "type": "uint256"
        },
        {
          "indexed": false,
          "internalType": "uint256",
          "name": "totalFees",
          "type": "uint256"
        },
        {
          "indexed": false,
          "internalType": "uint256",
          "name": "totalRefunds",
          "type": "uint256"
        }
      ],
      "name": "StrategyReported",
      "type": "event"
    },
    {
      "anonymous": false,
      "inputs": [
        {
          "indexed": true,
          "internalType": "address",
          "name": "from",
          "type": "address"
        },
        {
          "indexed": true,
          "internalType": "address",
          "name": "to",
          "type": "address"
        },
        {
          "indexed": false,
          "internalType": "uint256",
          "name": "value",
          "type": "uint256"
        }
      ],
      "name": "Transfer",
      "type": "event"
    },
    {
      "anonymous": false,
      "inputs": [
        {
          "indexed": true,
          "internalType": "address",
          "name": "accountant",
          "type": "address"
        }
      ],
      "name": "UpdateAccountant",
      "type": "event"
    },
    {
      "anonymous": false,
      "inputs": [
        {
          "indexed": false,
          "internalType": "address[]",
          "name": "newDefaultQueue",
          "type": "address[]"
        }
      ],
      "name": "UpdateDefaultQueue",
      "type": "event"
    },
    {
      "anonymous": false,
      "inputs": [
        {
          "indexed": false,
          "internalType": "uint256",
          "name": "depositLimit",
          "type": "uint256"
        }
      ],
      "name": "UpdateDepositLimit",
      "type": "event"
    },
    {
      "anonymous": false,
      "inputs": [
        {
          "indexed": true,
          "internalType": "address",
          "name": "depositLimitModule",
          "type": "address"
        }
      ],
      "name": "UpdateDepositLimitModule",
      "type": "event"
    },
    {
      "anonymous": false,
      "inputs": [
        {
          "indexed": false,
          "internalType": "uint256",
          "name": "minimumTotalIdle",
          "type": "uint256"
        }
      ],
      "name": "UpdateMinimumTotalIdle",
      "type": "event"
    },
    {
      "anonymous": false,
      "inputs": [
        {
          "indexed": false,
          "internalType": "uint256",
          "name": "profitMaxUnlockTime",
          "type": "uint256"
        }
      ],
      "name": "UpdateProfitMaxUnlockTime",
      "type": "event"
    },
    {
      "anonymous": false,
      "inputs": [
        {
          "indexed": true,
          "internalType": "address",
          "name": "roleManager",
          "type": "address"
        }
      ],
      "name": "UpdateRoleManager",
      "type": "event"
    },
    {
      "anonymous": false,
      "inputs": [
        {
          "indexed": false,
          "internalType": "bool",
          "name": "useDefaultQueue",
          "type": "bool"
        }
      ],
      "name": "UpdateUseDefaultQueue",
      "type": "event"
    },
    {
      "anonymous": false,
      "inputs": [
        {
          "indexed": true,
          "internalType": "address",
          "name": "withdrawLimitModule",
          "type": "address"
        }
      ],
      "name": "UpdateWithdrawLimitModule",
      "type": "event"
    },
    {
      "anonymous": false,
      "inputs": [
        {
          "indexed": true,
          "internalType": "address",
          "name": "sender",
          "type": "address"
        },
        {
          "indexed": true,
          "internalType": "address",
          "name": "strategy",
          "type": "address"
        },
        {
          "indexed": false,
          "internalType": "uint256",
          "name": "newDebt",
          "type": "uint256"
        }
      ],
      "name": "UpdatedMaxDebtForStrategy",
      "type": "event"
    },
    {
      "anonymous": false,
      "inputs": [
        {
          "indexed": true,
          "internalType": "address",
          "name": "sender",
          "type": "address"
        },
        {
          "indexed": true,
          "internalType": "address",
          "name": "receiver",
          "type": "address"
        },
        {
          "indexed": true,
          "internalType": "address",
          "name": "owner",
          "type": "address"
        },
        {
          "indexed": false,
          "internalType": "uint256",
          "name": "assets",
          "type": "uint256"
        },
        {
          "indexed": false,
          "internalType": "uint256",
          "name": "shares",
          "type": "uint256"
        }
      ],
      "name": "Withdraw",
      "type": "event"
    },
    {
      "inputs": [],
      "name": "ACCOUNTANT_MANAGER",
      "outputs": [
        {
          "internalType": "bytes32",
          "name": "",
          "type": "bytes32"
        }
      ],
      "stateMutability": "view",
      "type": "function"
    },
    {
      "inputs": [],
      "name": "ADD_STRATEGY_MANAGER",
      "outputs": [
        {
          "internalType": "bytes32",
          "name": "",
          "type": "bytes32"
        }
      ],
      "stateMutability": "view",
      "type": "function"
    },
    {
      "inputs": [],
      "name": "API_VERSION",
      "outputs": [
        {
          "internalType": "string",
          "name": "",
          "type": "string"
        }
      ],
      "stateMutability": "view",
      "type": "function"
    },
    {
      "inputs": [],
      "name": "ASSET",
      "outputs": [
        {
          "internalType": "contract IERC20",
          "name": "",
          "type": "address"
        }
      ],
      "stateMutability": "view",
      "type": "function"
    },
    {
      "inputs": [],
      "name": "DEBT_MANAGER",
      "outputs": [
        {
          "internalType": "bytes32",
          "name": "",
          "type": "bytes32"
        }
      ],
      "stateMutability": "view",
      "type": "function"
    },
    {
      "inputs": [],
      "name": "DEBT_PURCHASER",
      "outputs": [
        {
          "internalType": "bytes32",
          "name": "",
          "type": "bytes32"
        }
      ],
      "stateMutability": "view",
      "type": "function"
    },
    {
      "inputs": [],
      "name": "DECIMALS",
      "outputs": [
        {
          "internalType": "uint256",
          "name": "",
          "type": "uint256"
        }
      ],
      "stateMutability": "view",
      "type": "function"
    },
    {
      "inputs": [],
      "name": "DEFAULT_ADMIN_ROLE",
      "outputs": [
        {
          "internalType": "bytes32",
          "name": "",
          "type": "bytes32"
        }
      ],
      "stateMutability": "view",
      "type": "function"
    },
    {
      "inputs": [],
      "name": "DEPOSIT_LIMIT_MANAGER",
      "outputs": [
        {
          "internalType": "bytes32",
          "name": "",
          "type": "bytes32"
        }
      ],
      "stateMutability": "view",
      "type": "function"
    },
    {
      "inputs": [],
      "name": "DOMAIN_SEPARATOR",
      "outputs": [
        {
          "internalType": "bytes32",
          "name": "",
          "type": "bytes32"
        }
      ],
      "stateMutability": "view",
      "type": "function"
    },
    {
      "inputs": [],
      "name": "DOMAIN_TYPE_HASH",
      "outputs": [
        {
          "internalType": "bytes32",
          "name": "",
          "type": "bytes32"
        }
      ],
      "stateMutability": "view",
      "type": "function"
    },
    {
      "inputs": [],
      "name": "EMERGENCY_MANAGER",
      "outputs": [
        {
          "internalType": "bytes32",
          "name": "",
          "type": "bytes32"
        }
      ],
      "stateMutability": "view",
      "type": "function"
    },
    {
      "inputs": [],
      "name": "FACTORY",
      "outputs": [
        {
          "internalType": "address",
          "name": "",
          "type": "address"
        }
      ],
      "stateMutability": "view",
      "type": "function"
    },
    {
      "inputs": [],
      "name": "FORCE_REVOKE_MANAGER",
      "outputs": [
        {
          "internalType": "bytes32",
          "name": "",
          "type": "bytes32"
        }
      ],
      "stateMutability": "view",
      "type": "function"
    },
    {
      "inputs": [],
      "name": "MAX_BPS",
      "outputs": [
        {
          "internalType": "uint256",
          "name": "",
          "type": "uint256"
        }
      ],
      "stateMutability": "view",
      "type": "function"
    },
    {
      "inputs": [],
      "name": "MAX_BPS_EXTENDED",
      "outputs": [
        {
          "internalType": "uint256",
          "name": "",
          "type": "uint256"
        }
      ],
      "stateMutability": "view",
      "type": "function"
    },
    {
      "inputs": [],
      "name": "MAX_DEBT_MANAGER",
      "outputs": [
        {
          "internalType": "bytes32",
          "name": "",
          "type": "bytes32"
        }
      ],
      "stateMutability": "view",
      "type": "function"
    },
    {
      "inputs": [],
      "name": "MAX_QUEUE",
      "outputs": [
        {
          "internalType": "uint256",
          "name": "",
          "type": "uint256"
        }
      ],
      "stateMutability": "view",
      "type": "function"
    },
    {
      "inputs": [],
      "name": "MINIMUM_IDLE_MANAGER",
      "outputs": [
        {
          "internalType": "bytes32",
          "name": "",
          "type": "bytes32"
        }
      ],
      "stateMutability": "view",
      "type": "function"
    },
    {
      "inputs": [],
      "name": "ONE_YEAR",
      "outputs": [
        {
          "internalType": "uint256",
          "name": "",
          "type": "uint256"
        }
      ],
      "stateMutability": "view",
      "type": "function"
    },
    {
      "inputs": [],
      "name": "PERMIT_TYPE_HASH",
      "outputs": [
        {
          "internalType": "bytes32",
          "name": "",
          "type": "bytes32"
        }
      ],
      "stateMutability": "view",
      "type": "function"
    },
    {
      "inputs": [],
      "name": "PROFIT_UNLOCK_MANAGER",
      "outputs": [
        {
          "internalType": "bytes32",
          "name": "",
          "type": "bytes32"
        }
      ],
      "stateMutability": "view",
      "type": "function"
    },
    {
      "inputs": [],
      "name": "QUEUE_MANAGER",
      "outputs": [
        {
          "internalType": "bytes32",
          "name": "",
          "type": "bytes32"
        }
      ],
      "stateMutability": "view",
      "type": "function"
    },
    {
      "inputs": [],
      "name": "REPORTING_MANAGER",
      "outputs": [
        {
          "internalType": "bytes32",
          "name": "",
          "type": "bytes32"
        }
      ],
      "stateMutability": "view",
      "type": "function"
    },
    {
      "inputs": [],
      "name": "REVOKE_STRATEGY_MANAGER",
      "outputs": [
        {
          "internalType": "bytes32",
          "name": "",
          "type": "bytes32"
        }
      ],
      "stateMutability": "view",
      "type": "function"
    },
    {
      "inputs": [],
      "name": "ROLE_MANAGER",
      "outputs": [
        {
          "internalType": "bytes32",
          "name": "",
          "type": "bytes32"
        }
      ],
      "stateMutability": "view",
      "type": "function"
    },
    {
      "inputs": [],
      "name": "WITHDRAW_LIMIT_MANAGER",
      "outputs": [
        {
          "internalType": "bytes32",
          "name": "",
          "type": "bytes32"
        }
      ],
      "stateMutability": "view",
      "type": "function"
    },
    {
      "inputs": [],
      "name": "acceptRoleManager",
      "outputs": [],
      "stateMutability": "nonpayable",
      "type": "function"
    },
    {
      "inputs": [],
      "name": "accountant",
      "outputs": [
        {
          "internalType": "address",
          "name": "",
          "type": "address"
        }
      ],
      "stateMutability": "view",
      "type": "function"
    },
    {
      "inputs": [
        {
          "internalType": "address",
          "name": "account",
          "type": "address"
        },
        {
          "internalType": "bytes32",
          "name": "role",
          "type": "bytes32"
        }
      ],
      "name": "addRole",
      "outputs": [],
      "stateMutability": "nonpayable",
      "type": "function"
    },
    {
      "inputs": [
        {
          "internalType": "address",
          "name": "newStrategy",
          "type": "address"
        }
      ],
      "name": "addStrategy",
      "outputs": [],
      "stateMutability": "nonpayable",
      "type": "function"
    },
    {
      "inputs": [
        {
          "internalType": "address",
          "name": "owner",
          "type": "address"
        },
        {
          "internalType": "address",
          "name": "spender",
          "type": "address"
        }
      ],
      "name": "allowance",
      "outputs": [
        {
          "internalType": "uint256",
          "name": "",
          "type": "uint256"
        }
      ],
      "stateMutability": "view",
      "type": "function"
    },
    {
      "inputs": [
        {
          "internalType": "address",
          "name": "spender",
          "type": "address"
        },
        {
          "internalType": "uint256",
          "name": "amount",
          "type": "uint256"
        }
      ],
      "name": "approve",
      "outputs": [
        {
          "internalType": "bool",
          "name": "",
          "type": "bool"
        }
      ],
      "stateMutability": "nonpayable",
      "type": "function"
    },
    {
      "inputs": [
        {
          "internalType": "address",
          "name": "strategy",
          "type": "address"
        },
        {
          "internalType": "uint256",
          "name": "assetsNeeded",
          "type": "uint256"
        }
      ],
      "name": "assessShareOfUnrealisedLosses",
      "outputs": [
        {
          "internalType": "uint256",
          "name": "",
          "type": "uint256"
        }
      ],
      "stateMutability": "view",
      "type": "function"
    },
    {
      "inputs": [],
      "name": "asset",
      "outputs": [
        {
          "internalType": "address",
          "name": "",
          "type": "address"
        }
      ],
      "stateMutability": "view",
      "type": "function"
    },
    {
      "inputs": [
        {
          "internalType": "address",
          "name": "addr",
          "type": "address"
        }
      ],
      "name": "balanceOf",
      "outputs": [
        {
          "internalType": "uint256",
          "name": "",
          "type": "uint256"
        }
      ],
      "stateMutability": "view",
      "type": "function"
    },
    {
      "inputs": [
        {
          "internalType": "address",
          "name": "strategy",
          "type": "address"
        },
        {
          "internalType": "uint256",
          "name": "amount",
          "type": "uint256"
        }
      ],
      "name": "buyDebt",
      "outputs": [],
      "stateMutability": "nonpayable",
      "type": "function"
    },
    {
      "inputs": [
        {
          "internalType": "bytes32",
          "name": "role",
          "type": "bytes32"
        }
      ],
      "name": "closeOpenRole",
      "outputs": [],
      "stateMutability": "nonpayable",
      "type": "function"
    },
    {
      "inputs": [
        {
          "internalType": "uint256",
          "name": "shares",
          "type": "uint256"
        }
      ],
      "name": "convertToAssets",
      "outputs": [
        {
          "internalType": "uint256",
          "name": "",
          "type": "uint256"
        }
      ],
      "stateMutability": "view",
      "type": "function"
    },
    {
      "inputs": [
        {
          "internalType": "uint256",
          "name": "assets",
          "type": "uint256"
        }
      ],
      "name": "convertToShares",
      "outputs": [
        {
          "internalType": "uint256",
          "name": "",
          "type": "uint256"
        }
      ],
      "stateMutability": "view",
      "type": "function"
    },
    {
      "inputs": [],
      "name": "decimals",
      "outputs": [
        {
          "internalType": "uint8",
          "name": "",
          "type": "uint8"
        }
      ],
      "stateMutability": "view",
      "type": "function"
    },
    {
      "inputs": [
        {
          "internalType": "address",
          "name": "spender",
          "type": "address"
        },
        {
          "internalType": "uint256",
          "name": "amount",
          "type": "uint256"
        }
      ],
      "name": "decreaseAllowance",
      "outputs": [
        {
          "internalType": "bool",
          "name": "",
          "type": "bool"
        }
      ],
      "stateMutability": "nonpayable",
      "type": "function"
    },
    {
      "inputs": [
        {
          "internalType": "uint256",
          "name": "",
          "type": "uint256"
        }
      ],
      "name": "defaultQueue",
      "outputs": [
        {
          "internalType": "address",
          "name": "",
          "type": "address"
        }
      ],
      "stateMutability": "view",
      "type": "function"
    },
    {
      "inputs": [
        {
          "internalType": "uint256",
          "name": "assets",
          "type": "uint256"
        },
        {
          "internalType": "address",
          "name": "receiver",
          "type": "address"
        }
      ],
      "name": "deposit",
      "outputs": [
        {
          "internalType": "uint256",
          "name": "",
          "type": "uint256"
        }
      ],
      "stateMutability": "nonpayable",
      "type": "function"
    },
    {
      "inputs": [],
      "name": "depositLimit",
      "outputs": [
        {
          "internalType": "uint256",
          "name": "",
          "type": "uint256"
        }
      ],
      "stateMutability": "view",
      "type": "function"
    },
    {
      "inputs": [],
      "name": "depositLimitModule",
      "outputs": [
        {
          "internalType": "address",
          "name": "",
          "type": "address"
        }
      ],
      "stateMutability": "view",
      "type": "function"
    },
    {
      "inputs": [
        {
          "internalType": "address",
          "name": "strategy",
          "type": "address"
        }
      ],
      "name": "forceRevokeStrategy",
      "outputs": [],
      "stateMutability": "nonpayable",
      "type": "function"
    },
    {
      "inputs": [],
      "name": "fullProfitUnlockDate",
      "outputs": [
        {
          "internalType": "uint256",
          "name": "",
          "type": "uint256"
        }
      ],
      "stateMutability": "view",
      "type": "function"
    },
    {
      "inputs": [],
      "name": "futureRoleManager",
      "outputs": [
        {
          "internalType": "address",
          "name": "",
          "type": "address"
        }
      ],
      "stateMutability": "view",
      "type": "function"
    },
    {
      "inputs": [
        {
          "internalType": "bytes32",
          "name": "role",
          "type": "bytes32"
        }
      ],
      "name": "getRoleAdmin",
      "outputs": [
        {
          "internalType": "bytes32",
          "name": "",
          "type": "bytes32"
        }
      ],
      "stateMutability": "view",
      "type": "function"
    },
    {
      "inputs": [
        {
          "internalType": "bytes32",
          "name": "role",
          "type": "bytes32"
        },
        {
          "internalType": "address",
          "name": "account",
          "type": "address"
        }
      ],
      "name": "grantRole",
      "outputs": [],
      "stateMutability": "nonpayable",
      "type": "function"
    },
    {
      "inputs": [
        {
          "internalType": "bytes32",
          "name": "role",
          "type": "bytes32"
        },
        {
          "internalType": "address",
          "name": "account",
          "type": "address"
        }
      ],
      "name": "hasRole",
      "outputs": [
        {
          "internalType": "bool",
          "name": "",
          "type": "bool"
        }
      ],
      "stateMutability": "view",
      "type": "function"
    },
    {
      "inputs": [
        {
          "internalType": "address",
          "name": "spender",
          "type": "address"
        },
        {
          "internalType": "uint256",
          "name": "amount",
          "type": "uint256"
        }
      ],
      "name": "increaseAllowance",
      "outputs": [
        {
          "internalType": "bool",
          "name": "",
          "type": "bool"
        }
      ],
      "stateMutability": "nonpayable",
      "type": "function"
    },
    {
      "inputs": [],
      "name": "lastProfitUpdate",
      "outputs": [
        {
          "internalType": "uint256",
          "name": "",
          "type": "uint256"
        }
      ],
      "stateMutability": "view",
      "type": "function"
    },
    {
      "inputs": [
        {
          "internalType": "address",
          "name": "receiver",
          "type": "address"
        }
      ],
      "name": "maxDeposit",
      "outputs": [
        {
          "internalType": "uint256",
          "name": "",
          "type": "uint256"
        }
      ],
      "stateMutability": "view",
      "type": "function"
    },
    {
      "inputs": [
        {
          "internalType": "address",
          "name": "receiver",
          "type": "address"
        }
      ],
      "name": "maxMint",
      "outputs": [
        {
          "internalType": "uint256",
          "name": "",
          "type": "uint256"
        }
      ],
      "stateMutability": "view",
      "type": "function"
    },
    {
      "inputs": [
        {
          "internalType": "address",
          "name": "owner",
          "type": "address"
        },
        {
          "internalType": "uint256",
          "name": "maxLoss",
          "type": "uint256"
        },
        {
          "internalType": "address[]",
          "name": "_strategies",
          "type": "address[]"
        }
      ],
      "name": "maxRedeem",
      "outputs": [
        {
          "internalType": "uint256",
          "name": "",
          "type": "uint256"
        }
      ],
      "stateMutability": "nonpayable",
      "type": "function"
    },
    {
      "inputs": [
        {
          "internalType": "address",
          "name": "owner",
          "type": "address"
        },
        {
          "internalType": "uint256",
          "name": "maxLoss",
          "type": "uint256"
        },
        {
          "internalType": "address[]",
          "name": "_strategies",
          "type": "address[]"
        }
      ],
      "name": "maxWithdraw",
      "outputs": [
        {
          "internalType": "uint256",
          "name": "",
          "type": "uint256"
        }
      ],
      "stateMutability": "nonpayable",
      "type": "function"
    },
    {
      "inputs": [],
      "name": "minimumTotalIdle",
      "outputs": [
        {
          "internalType": "uint256",
          "name": "",
          "type": "uint256"
        }
      ],
      "stateMutability": "view",
      "type": "function"
    },
    {
      "inputs": [
        {
          "internalType": "uint256",
          "name": "shares",
          "type": "uint256"
        },
        {
          "internalType": "address",
          "name": "receiver",
          "type": "address"
        }
      ],
      "name": "mint",
      "outputs": [
        {
          "internalType": "uint256",
          "name": "",
          "type": "uint256"
        }
      ],
      "stateMutability": "nonpayable",
      "type": "function"
    },
    {
      "inputs": [],
      "name": "name",
      "outputs": [
        {
          "internalType": "string",
          "name": "",
          "type": "string"
        }
      ],
      "stateMutability": "view",
      "type": "function"
    },
    {
      "inputs": [
        {
          "internalType": "address",
          "name": "",
          "type": "address"
        }
      ],
      "name": "nonces",
      "outputs": [
        {
          "internalType": "uint256",
          "name": "",
          "type": "uint256"
        }
      ],
      "stateMutability": "view",
      "type": "function"
    },
    {
      "inputs": [
        {
          "internalType": "bytes32",
          "name": "",
          "type": "bytes32"
        }
      ],
      "name": "openRoles",
      "outputs": [
        {
          "internalType": "bool",
          "name": "",
          "type": "bool"
        }
      ],
      "stateMutability": "view",
      "type": "function"
    },
    {
      "inputs": [
        {
          "internalType": "address",
          "name": "owner",
          "type": "address"
        },
        {
          "internalType": "address",
          "name": "spender",
          "type": "address"
        },
        {
          "internalType": "uint256",
          "name": "amount",
          "type": "uint256"
        },
        {
          "internalType": "uint256",
          "name": "deadline",
          "type": "uint256"
        },
        {
          "internalType": "uint8",
          "name": "v",
          "type": "uint8"
        },
        {
          "internalType": "bytes32",
          "name": "r",
          "type": "bytes32"
        },
        {
          "internalType": "bytes32",
          "name": "s",
          "type": "bytes32"
        }
      ],
      "name": "permit",
      "outputs": [
        {
          "internalType": "bool",
          "name": "",
          "type": "bool"
        }
      ],
      "stateMutability": "nonpayable",
      "type": "function"
    },
    {
      "inputs": [
        {
          "internalType": "uint256",
          "name": "assets",
          "type": "uint256"
        }
      ],
      "name": "previewDeposit",
      "outputs": [
        {
          "internalType": "uint256",
          "name": "",
          "type": "uint256"
        }
      ],
      "stateMutability": "view",
      "type": "function"
    },
    {
      "inputs": [
        {
          "internalType": "uint256",
          "name": "shares",
          "type": "uint256"
        }
      ],
      "name": "previewMint",
      "outputs": [
        {
          "internalType": "uint256",
          "name": "",
          "type": "uint256"
        }
      ],
      "stateMutability": "view",
      "type": "function"
    },
    {
      "inputs": [
        {
          "internalType": "uint256",
          "name": "shares",
          "type": "uint256"
        }
      ],
      "name": "previewRedeem",
      "outputs": [
        {
          "internalType": "uint256",
          "name": "",
          "type": "uint256"
        }
      ],
      "stateMutability": "view",
      "type": "function"
    },
    {
      "inputs": [
        {
          "internalType": "uint256",
          "name": "assets",
          "type": "uint256"
        }
      ],
      "name": "previewWithdraw",
      "outputs": [
        {
          "internalType": "uint256",
          "name": "",
          "type": "uint256"
        }
      ],
      "stateMutability": "view",
      "type": "function"
    },
    {
      "inputs": [],
      "name": "pricePerShare",
      "outputs": [
        {
          "internalType": "uint256",
          "name": "",
          "type": "uint256"
        }
      ],
      "stateMutability": "view",
      "type": "function"
    },
    {
      "inputs": [
        {
          "internalType": "address",
          "name": "strategy",
          "type": "address"
        }
      ],
      "name": "processReport",
      "outputs": [
        {
          "internalType": "uint256",
          "name": "",
          "type": "uint256"
        },
        {
          "internalType": "uint256",
          "name": "",
          "type": "uint256"
        }
      ],
      "stateMutability": "nonpayable",
      "type": "function"
    },
    {
      "inputs": [],
      "name": "profitMaxUnlockTime",
      "outputs": [
        {
          "internalType": "uint256",
          "name": "",
          "type": "uint256"
        }
      ],
      "stateMutability": "view",
      "type": "function"
    },
    {
      "inputs": [],
      "name": "profitUnlockingRate",
      "outputs": [
        {
          "internalType": "uint256",
          "name": "",
          "type": "uint256"
        }
      ],
      "stateMutability": "view",
      "type": "function"
    },
    {
      "inputs": [
        {
          "internalType": "uint256",
          "name": "shares",
          "type": "uint256"
        },
        {
          "internalType": "address",
          "name": "receiver",
          "type": "address"
        },
        {
          "internalType": "address",
          "name": "owner",
          "type": "address"
        },
        {
          "internalType": "uint256",
          "name": "maxLoss",
          "type": "uint256"
        },
        {
          "internalType": "address[]",
          "name": "_strategies",
          "type": "address[]"
        }
      ],
      "name": "redeem",
      "outputs": [
        {
          "internalType": "uint256",
          "name": "",
          "type": "uint256"
        }
      ],
      "stateMutability": "nonpayable",
      "type": "function"
    },
    {
      "inputs": [
        {
          "internalType": "address",
          "name": "account",
          "type": "address"
        },
        {
          "internalType": "bytes32",
          "name": "role",
          "type": "bytes32"
        }
      ],
      "name": "removeRole",
      "outputs": [],
      "stateMutability": "nonpayable",
      "type": "function"
    },
    {
      "inputs": [
        {
          "internalType": "bytes32",
          "name": "role",
          "type": "bytes32"
        },
        {
          "internalType": "address",
          "name": "account",
          "type": "address"
        }
      ],
      "name": "renounceRole",
      "outputs": [],
      "stateMutability": "nonpayable",
      "type": "function"
    },
    {
      "inputs": [
        {
          "internalType": "bytes32",
          "name": "role",
          "type": "bytes32"
        },
        {
          "internalType": "address",
          "name": "account",
          "type": "address"
        }
      ],
      "name": "revokeRole",
      "outputs": [],
      "stateMutability": "nonpayable",
      "type": "function"
    },
    {
      "inputs": [
        {
          "internalType": "address",
          "name": "strategy",
          "type": "address"
        }
      ],
      "name": "revokeStrategy",
      "outputs": [],
      "stateMutability": "nonpayable",
      "type": "function"
    },
    {
      "inputs": [],
      "name": "roleManager",
      "outputs": [
        {
          "internalType": "address",
          "name": "",
          "type": "address"
        }
      ],
      "stateMutability": "view",
      "type": "function"
    },
    {
      "inputs": [
        {
          "internalType": "address",
          "name": "",
          "type": "address"
        }
      ],
      "name": "roles",
      "outputs": [
        {
          "internalType": "bytes32",
          "name": "",
          "type": "bytes32"
        }
      ],
      "stateMutability": "view",
      "type": "function"
    },
    {
      "inputs": [
        {
          "internalType": "address",
          "name": "newAccountant",
          "type": "address"
        }
      ],
      "name": "setAccountant",
      "outputs": [],
      "stateMutability": "nonpayable",
      "type": "function"
    },
    {
      "inputs": [
        {
          "internalType": "address[]",
          "name": "newDefaultQueue",
          "type": "address[]"
        }
      ],
      "name": "setDefaultQueue",
      "outputs": [],
      "stateMutability": "nonpayable",
      "type": "function"
    },
    {
      "inputs": [
        {
          "internalType": "uint256",
          "name": "_depositLimit",
          "type": "uint256"
        }
      ],
      "name": "setDepositLimit",
      "outputs": [],
      "stateMutability": "nonpayable",
      "type": "function"
    },
    {
      "inputs": [
        {
          "internalType": "address",
          "name": "_depositLimitModule",
          "type": "address"
        }
      ],
      "name": "setDepositLimitModule",
      "outputs": [],
      "stateMutability": "nonpayable",
      "type": "function"
    },
    {
      "inputs": [
        {
          "internalType": "uint256",
          "name": "_minimumTotalIdle",
          "type": "uint256"
        }
      ],
      "name": "setMinimumTotalIdle",
      "outputs": [],
      "stateMutability": "nonpayable",
      "type": "function"
    },
    {
      "inputs": [
        {
          "internalType": "bytes32",
          "name": "role",
          "type": "bytes32"
        }
      ],
      "name": "setOpenRole",
      "outputs": [],
      "stateMutability": "nonpayable",
      "type": "function"
    },
    {
      "inputs": [
        {
          "internalType": "uint256",
          "name": "_newProfitMaxUnlockTime",
          "type": "uint256"
        }
      ],
      "name": "setProfitMaxUnlockTime",
      "outputs": [],
      "stateMutability": "nonpayable",
      "type": "function"
    },
    {
      "inputs": [
        {
          "internalType": "bool",
          "name": "_useDefaultQueue",
          "type": "bool"
        }
      ],
      "name": "setUseDefaultQueue",
      "outputs": [],
      "stateMutability": "nonpayable",
      "type": "function"
    },
    {
      "inputs": [
        {
          "internalType": "address",
          "name": "_withdrawLimitModule",
          "type": "address"
        }
      ],
      "name": "setWithdrawLimitModule",
      "outputs": [],
      "stateMutability": "nonpayable",
      "type": "function"
    },
    {
      "inputs": [],
      "name": "shutdown",
      "outputs": [
        {
          "internalType": "bool",
          "name": "",
          "type": "bool"
        }
      ],
      "stateMutability": "view",
      "type": "function"
    },
    {
      "inputs": [],
      "name": "shutdownVault",
      "outputs": [],
      "stateMutability": "nonpayable",
      "type": "function"
    },
    {
      "inputs": [
        {
          "internalType": "address",
          "name": "",
          "type": "address"
        }
      ],
      "name": "strategies",
      "outputs": [
        {
          "internalType": "uint256",
          "name": "activation",
          "type": "uint256"
        },
        {
          "internalType": "uint256",
          "name": "lastReport",
          "type": "uint256"
        },
        {
          "internalType": "uint256",
          "name": "currentDebt",
          "type": "uint256"
        },
        {
          "internalType": "uint256",
          "name": "maxDebt",
          "type": "uint256"
        }
      ],
      "stateMutability": "view",
      "type": "function"
    },
    {
      "inputs": [
        {
          "internalType": "bytes4",
          "name": "interfaceId",
          "type": "bytes4"
        }
      ],
      "name": "supportsInterface",
      "outputs": [
        {
          "internalType": "bool",
          "name": "",
          "type": "bool"
        }
      ],
      "stateMutability": "view",
      "type": "function"
    },
    {
      "inputs": [],
      "name": "symbol",
      "outputs": [
        {
          "internalType": "string",
          "name": "",
          "type": "string"
        }
      ],
      "stateMutability": "view",
      "type": "function"
    },
    {
      "inputs": [],
      "name": "totalAssets",
      "outputs": [
        {
          "internalType": "uint256",
          "name": "",
          "type": "uint256"
        }
      ],
      "stateMutability": "view",
      "type": "function"
    },
    {
      "inputs": [],
      "name": "totalDebtAmount",
      "outputs": [
        {
          "internalType": "uint256",
          "name": "",
          "type": "uint256"
        }
      ],
      "stateMutability": "view",
      "type": "function"
    },
    {
      "inputs": [],
      "name": "totalIdleAmount",
      "outputs": [
        {
          "internalType": "uint256",
          "name": "",
          "type": "uint256"
        }
      ],
      "stateMutability": "view",
      "type": "function"
    },
    {
      "inputs": [],
      "name": "totalSupply",
      "outputs": [
        {
          "internalType": "uint256",
          "name": "",
          "type": "uint256"
        }
      ],
      "stateMutability": "view",
      "type": "function"
    },
    {
      "inputs": [],
      "name": "totalSupplyAmount",
      "outputs": [
        {
          "internalType": "uint256",
          "name": "",
          "type": "uint256"
        }
      ],
      "stateMutability": "view",
      "type": "function"
    },
    {
      "inputs": [
        {
          "internalType": "address",
          "name": "receiver",
          "type": "address"
        },
        {
          "internalType": "uint256",
          "name": "amount",
          "type": "uint256"
        }
      ],
      "name": "transfer",
      "outputs": [
        {
          "internalType": "bool",
          "name": "",
          "type": "bool"
        }
      ],
      "stateMutability": "nonpayable",
      "type": "function"
    },
    {
      "inputs": [
        {
          "internalType": "address",
          "name": "sender",
          "type": "address"
        },
        {
          "internalType": "address",
          "name": "receiver",
          "type": "address"
        },
        {
          "internalType": "uint256",
          "name": "amount",
          "type": "uint256"
        }
      ],
      "name": "transferFrom",
      "outputs": [
        {
          "internalType": "bool",
          "name": "",
          "type": "bool"
        }
      ],
      "stateMutability": "nonpayable",
      "type": "function"
    },
    {
      "inputs": [
        {
          "internalType": "address",
          "name": "newRoleManager",
          "type": "address"
        }
      ],
      "name": "transferRoleManager",
      "outputs": [],
      "stateMutability": "nonpayable",
      "type": "function"
    },
    {
      "inputs": [],
      "name": "unlockedShares",
      "outputs": [
        {
          "internalType": "uint256",
          "name": "",
          "type": "uint256"
        }
      ],
      "stateMutability": "view",
      "type": "function"
    },
    {
      "inputs": [
        {
          "internalType": "address",
          "name": "strategy",
          "type": "address"
        },
        {
          "internalType": "uint256",
          "name": "targetDebt",
          "type": "uint256"
        }
      ],
      "name": "updateDebt",
      "outputs": [
        {
          "internalType": "uint256",
          "name": "",
          "type": "uint256"
        }
      ],
      "stateMutability": "nonpayable",
      "type": "function"
    },
    {
      "inputs": [
        {
          "internalType": "address",
          "name": "strategy",
          "type": "address"
        },
        {
          "internalType": "uint256",
          "name": "newMaxDebt",
          "type": "uint256"
        }
      ],
      "name": "updateMaxDebtForStrategy",
      "outputs": [],
      "stateMutability": "nonpayable",
      "type": "function"
    },
    {
      "inputs": [],
      "name": "useDefaultQueue",
      "outputs": [
        {
          "internalType": "bool",
          "name": "",
          "type": "bool"
        }
      ],
      "stateMutability": "view",
      "type": "function"
    },
    {
      "inputs": [
        {
          "internalType": "uint256",
          "name": "assets",
          "type": "uint256"
        },
        {
          "internalType": "address",
          "name": "receiver",
          "type": "address"
        },
        {
          "internalType": "address",
          "name": "owner",
          "type": "address"
        },
        {
          "internalType": "uint256",
          "name": "maxLoss",
          "type": "uint256"
        },
        {
          "internalType": "address[]",
          "name": "_strategies",
          "type": "address[]"
        }
      ],
      "name": "withdraw",
      "outputs": [
        {
          "internalType": "uint256",
          "name": "",
          "type": "uint256"
        }
      ],
      "stateMutability": "nonpayable",
      "type": "function"
    },
    {
      "inputs": [],
      "name": "withdrawLimitModule",
      "outputs": [
        {
          "internalType": "address",
          "name": "",
          "type": "address"
        }
      ],
      "stateMutability": "view",
      "type": "function"
    }
  ],
  "transactionHash": "0xe434ce0ba11a05a4ca301a4625d6673ebb24de3f51014c58a457187da9104e9a",
  "args": [
    "0xDf29cB40Cb92a1b8E8337F542E3846E185DefF96",
    "FathomVault",
    "FTHVT",
    "0x0db96Eb1dc48554bB0f8203A6dE449B2FcCF51a6",
    31536000,
    "0x0db96Eb1dc48554bB0f8203A6dE449B2FcCF51a6"
  ],
  "numDeployments": 1,
  "solcInputHash": "3aab8a7c6a17de04b65f4b3dd13d5bd4",
  "bytecode": "0x6101006040526301e1855860e0523480156200001a57600080fd5b5060405162006761380380620067618339810160408190526200003d91620003a9565b600180556001600160a01b03861660808190526040805163313ce56760e01b8152905163313ce567916004808201926020929091908290030181865afa1580156200008c573d6000803e3d6000fd5b505050506040513d601f19601f82011682018060405250810190620000b2919062000490565b60ff1660a081905261010011620000dc5760405163e236476560e01b815260040160405180910390fd5b3360c0526301e18558821115620001065760405163fdfbb0b760e01b815260040160405180910390fd5b6014829055601a620001198682620005b2565b50601b620001288582620005b2565b50601280546001600160a01b0319166001600160a01b038516179055845160208087019190912060408051808201825260058152640312e302e360dc1b9084015251620001bf927f8b73c3c69bb8fe3d512ecc4cf759cc79239f7b179b0ffacaa9a75d522b39400f92917f06c015bd22b4c69690933c1058878ebdfef31f9aaae40bbe86d8a09fe1b2972c91469130910162000695565b60408051808303601f190181529190528051602090910120601955600280546001600160a01b0319166001600160a01b039290921691909117905550620006eb9350505050565b60006001600160a01b0382165b92915050565b6000620002138262000206565b620002318162000219565b81146200023d57600080fd5b50565b8051620002138162000226565b634e487b7160e01b600052604160045260246000fd5b601f19601f83011681018181106001600160401b03821117156200028b576200028b6200024d565b6040525050565b60006200029e60405190565b9050620002ac828262000263565b919050565b60006001600160401b03821115620002cd57620002cd6200024d565b601f19601f83011660200192915050565b60005b83811015620002fb578181015183820152602001620002e1565b50506000910152565b60006200031b6200031584620002b1565b62000292565b905082815260208101848484011115620003385762000338600080fd5b62000345848285620002de565b509392505050565b600082601f830112620003635762000363600080fd5b81516200037584826020860162000304565b949350505050565b620002318162000206565b805162000213816200037d565b8062000231565b8051620002138162000395565b60008060008060008060c08789031215620003c757620003c7600080fd5b6000620003d5898962000240565b96505060208701516001600160401b03811115620003f657620003f6600080fd5b6200040489828a016200034d565b95505060408701516001600160401b03811115620004255762000425600080fd5b6200043389828a016200034d565b94505060606200044689828a0162000388565b93505060806200045989828a016200039c565b92505060a06200046c89828a0162000388565b9150509295509295509295565b60ff811662000231565b8051620002138162000479565b600060208284031215620004a757620004a7600080fd5b600062000375848462000483565b634e487b7160e01b600052602260045260246000fd5b600281046001821680620004e057607f821691505b602082108103620004f557620004f5620004b5565b50919050565b600062000213620005098381565b90565b6200051783620004fb565b81546008840282811b60001990911b908116901990911617825550505050565b6000620005468184846200050c565b505050565b818110156200056a576200056160008262000537565b6001016200054b565b5050565b601f82111562000546576000818152602090206020601f85010481016020851015620005975750805b620005ab6020601f8601048301826200054b565b5050505050565b81516001600160401b03811115620005ce57620005ce6200024d565b620005da8254620004cb565b620005e78282856200056e565b6020601f8311600181146200061e5760008415620006055750858201515b600019600886021c19811660028602178655506200067a565b600085815260208120601f198616915b828110156200065057888501518255602094850194600190920191016200062e565b868310156200066d5784890151600019601f89166008021c191682555b6001600288020188555050505b505050505050565b805b82525050565b620006848162000206565b60a08101620006a5828862000682565b620006b4602083018762000682565b620006c3604083018662000682565b620006d2606083018562000682565b620006e160808301846200068a565b9695505050505050565b60805160a05160c05160e051615fb0620007b1600039600081816105e20152611aef015260008181610666015261474d01526000818161068d015281816106c4015261179901526000818161072d015281816107fa0152818161120401528181612ab901528181612b5501528181612d7001528181612db001528181612eb501528181612f32015281816131bf0152818161338401528181613a5a01528181613e66015281816140f0015281816148d10152818161496501526149b00152615fb06000f3fe608060405234801561001057600080fd5b50600436106104c85760003560e01c80636d020808116102815780636d020808146109565780636e553f651461095e57806370a082311461097157806377e3b267146109845780637ecebe00146109a85780638212fd43146109c85780638afca8f0146109db57806391986003146109e457806391d14854146109f757806394bf804d14610a0a57806395d89b4114610a1d5780639937464214610a2557806399530b0614610a455780639bbca88414610a4d5780639e34e34814610a605780639f3988f314610a73578063a217fddf14610a88578063a457c2d714610a90578063a73f7f8a14610aa3578063a9059cbb14610ab6578063a98222c414610ac9578063ab5b4d4914610ade578063b3c187f214610af3578063b3d7f6b914610b06578063b6cc2d1f14610b19578063bb994d4814610b3a578063bbe4eb4914610b4d578063bdc8144b14610b5a578063c065ca0714610b6d578063c0993eea14610b82578063c63d75b614610ba9578063c6e6f59214610bbc578063c8d74b6014610bcf578063c8dffa9514610be4578063c9a16ea414610bed578063d4ae064f14610c00578063d505accf14610c15578063d538e90414610c28578063d547741f14610c3b578063d81a09f614610c4e578063d9a0e97a14610c61578063dd62ed3e14610c69578063df69b22a14610ca2578063e5236cc914610cb5578063ecf7085814610cbd578063ef8b30f714610bbc578063f1daeba814610cc6578063f5b944eb14610cdb578063f6d7bfa014610cf0578063f828f50b14610d03578063fc0e74d114610d0c578063fd967f4714610d20578063fec61f0614610d29578063ff1e7f0814610d3e57600080fd5b8062435da5146104cd57806301e1d114146104f657806301ffc9a71461050b57806303dcd12c1461052b57806306580f2d1461054057806306fdde031461055357806307a2d13a146105685780630835a3fc1461057b5780630952864e14610584578063095ea7b31461058d5780630a28a477146105a05780630ad283d0146105b357806316b87ac0146105c857806316d3bfbb146105dd57806318160ddd14610604578063223e54791461060c57806323b872dd1461061f578063248a9ca3146106325780632d632692146106455780632d7721681461064e5780632dd31000146106615780632e0f2625146106885780632f2ff15d146106af578063313ce567146106c257806334b5fab6146106f05780633644e5151461070357806336568abe1461070c57806336fba0841461071f57806338d52e0f1461072b578063395093511461075157806339ebf823146107645780633cd7b5ab146107ab5780633f7b5e40146107b4578063402d267d146107bc578063405977e7146107cf57806346e6ac49146107e25780634800d97f146107f557806348ea7127146108295780634bbd71e91461083c5780634cdad506146105685780634ce1d38a1461084f5780634cfe51dc146108645780634d4bb197146108795780634fb3ccc51461088e5780635141eebb146108a157806353a66132146108aa5780635a569099146108cd5780635bf6b4fb146108e0578063629b9142146108f5578063633f228c14610908578063652da3241461091b57806365cb6765146109305780636853920e14610943575b600080fd5b6012546104e0906001600160a01b031681565b6040516104ed9190614eb6565b60405180910390f35b6104fe610d51565b6040516104ed9190614eca565b61051e610519366004614efa565b610d60565b6040516104ed9190614f23565b6104fe600080516020615cfb83398151915281565b6104fe61054e366004615066565b610d97565b61055b610dd4565b6040516104ed9190615150565b6104fe610576366004615161565b610e62565b6104fe600b5481565b6104fe60145481565b61051e61059b366004615182565b610e6f565b6104fe6105ae366004615161565b610e83565b6104fe600080516020615d1b83398151915281565b6105db6105d63660046151bf565b610e90565b005b6104fe7f000000000000000000000000000000000000000000000000000000000000000081565b6104fe610eb7565b6105db61061a3660046151bf565b610ec1565b61051e61062d3660046151e0565b610ee2565b6104fe610640366004615161565b610f33565b6104fe60155481565b6105db61065c3660046151bf565b610f48565b6104e07f000000000000000000000000000000000000000000000000000000000000000081565b6104fe7f000000000000000000000000000000000000000000000000000000000000000081565b6105db6106bd366004615230565b610fec565b7f00000000000000000000000000000000000000000000000000000000000000006040516104ed919061526c565b6104fe6106fe36600461527a565b61100d565b6104fe60195481565b6105db61071a366004615230565b61105b565b6104fe64e8d4a5100081565b7f00000000000000000000000000000000000000000000000000000000000000006104e0565b61051e61075f366004615182565b611096565b61079b6107723660046151bf565b600360208190526000918252604090912080546001820154600283015492909301549092919084565b6040516104ed94939291906152da565b6104fe600a5481565b6104fe600a81565b6104fe6107ca3660046151bf565b6110a3565b6105db6107dd366004615182565b6110ae565b6104fe6107f0366004615182565b61131e565b61081c7f000000000000000000000000000000000000000000000000000000000000000081565b6040516104ed9190615347565b6105db6108373660046151bf565b61135c565b6105db61084a3660046151bf565b6113bf565b6104fe600080516020615f5b83398151915281565b6104fe600080516020615d9b83398151915281565b6104fe600080516020615e5b83398151915281565b600d546104e0906001600160a01b031681565b6104fe60165481565b61051e6108b8366004615161565b60116020526000908152604090205460ff1681565b6104fe6108db366004615182565b611422565b6104fe600080516020615d7b83398151915281565b6105db6109033660046151bf565b611468565b6105db61091636600461539f565b6114a3565b6104fe600080516020615cdb83398151915281565b6104fe61093e36600461527a565b611588565b6105db610951366004615182565b611595565b6105db6115fd565b6104fe61096c366004615230565b611672565b6104fe61097f3660046151bf565b611692565b61055b604051806040016040528060058152602001640312e302e360dc1b81525081565b6104fe6109b63660046151bf565b60186020526000908152604090205481565b6105db6109d6366004615161565b6116eb565b6104fe60175481565b600f546104e0906001600160a01b031681565b61051e610a05366004615230565b611744565b6104fe610a18366004615230565b61176d565b61055b611782565b6104fe610a333660046151bf565b60106020526000908152604090205481565b6104fe61178f565b6105db610a5b3660046153f9565b6117c6565b600e546104e0906001600160a01b031681565b6104fe600080516020615e9b83398151915281565b6104fe600081565b61051e610a9e366004615182565b61181c565b6105db610ab1366004615182565b611829565b61051e610ac4366004615182565b61184b565b6104fe600080516020615f3b83398151915281565b6104fe600080516020615ebb83398151915281565b6013546104e0906001600160a01b031681565b6104fe610b14366004615161565b61189d565b610b2c610b273660046151bf565b6118aa565b6040516104ed92919061541a565b6105db610b483660046151bf565b6118e9565b60055461051e9060ff1681565b6105db610b68366004615161565b61190c565b6104fe600080516020615ddb83398151915281565b6104fe7f8b73c3c69bb8fe3d512ecc4cf759cc79239f7b179b0ffacaa9a75d522b39400f81565b6104fe610bb73660046151bf565b6119a0565b6104fe610bca366004615161565b6119b9565b6104fe600080516020615cbb83398151915281565b6104fe60095481565b6105db610bfb366004615161565b6119c6565b6104fe600080516020615edb83398151915281565b61051e610c23366004615449565b611a26565b6105db610c36366004615161565b611a45565b6105db610c49366004615230565b611a7b565b6104fe610c5c366004615066565b611a97565b6104fe611acb565b6104fe610c773660046154e8565b6001600160a01b03918216600090815260076020908152604080832093909416825291909152205490565b6105db610cb0366004615161565b611ad5565b6105db611b8f565b6104fe600c5481565b6104fe600080516020615e1b83398151915281565b6104fe600080516020615dfb83398151915281565b6105db610cfe366004615182565b611c93565b6104fe60085481565b60135461051e90600160a01b900460ff1681565b6104fe61271081565b6104fe600080516020615d5b83398151915281565b6104e0610d4c366004615161565b611d40565b6000610d5b611d6a565b905090565b60006001600160e01b03198216637965db0b60e01b1480610d9157506301ffc9a760e01b6001600160e01b03198316145b92915050565b6000610da1611d7c565b6000610dae876000611da5565b9050610dbf338787848b8989611e3b565b915050610dcb60018055565b95945050505050565b601a8054610de190615520565b80601f0160208091040260200160405190810160405280929190818152602001828054610e0d90615520565b8015610e5a5780601f10610e2f57610100808354040283529160200191610e5a565b820191906000526020600020905b815481529060010190602001808311610e3d57829003601f168201915b505050505081565b6000610d91826000611da5565b6000610e7c338484611ed8565b9392505050565b6000610d91826001611f70565b600080516020615d7b833981519152610ea88161201e565b610eb382600161202b565b5050565b6000610d5b612093565b600080516020615ddb833981519152610ed98161201e565b610eb3826120aa565b60006001600160a01b038316301480610f0257506001600160a01b038316155b15610f205760405163d92e233d60e01b815260040160405180910390fd5b610f2b84848461210f565b949350505050565b60009081526020819052604090206001015490565b600080516020615f3b833981519152610f608161201e565b601354600160a01b900460ff161515600103610f8f57604051630f3c386760e01b815260040160405180910390fd5b600019600c5414610fb357604051634e41418560e11b815260040160405180910390fd5b600e80546001600160a01b0319166001600160a01b038416908117909155604051600080516020615d3b83398151915290600090a25050565b610ff582610f33565b610ffe8161201e565b6110088383612131565b505050565b60008061101b8585856121b5565b9050600061102a826001611f70565b6001600160a01b03871660009081526006602052604090205490915061105190829061257f565b9695505050505050565b6001600160a01b038116331461108c5760405162461bcd60e51b81526004016110839061554c565b60405180910390fd5b610eb38282612595565b6000610e7c3384846125fa565b6000610d9182612648565b600080516020615ebb8339815191526110c68161201e565b6110ce611d7c565b6001600160a01b038316600090815260036020526040812054900361110657604051630631bc2160e51b815260040160405180910390fd5b6001600160a01b03831660009081526003602052604090206002015480158061112d575082155b1561114b57604051637c946ed760e01b815260040160405180910390fd5b80831115611157578092505b60008184866001600160a01b03166370a08231306040518263ffffffff1660e01b81526004016111879190614eb6565b602060405180830381865afa1580156111a4573d6000803e3d6000fd5b505050506040513d601f19601f820116820180604052508101906111c891906155aa565b6111d291906155e1565b6111dc9190615616565b9050600081116111ff57604051637c946ed760e01b815260040160405180910390fd5b61122b7f0000000000000000000000000000000000000000000000000000000000000000333087612720565b6001600160a01b0385166000908152600360205260408120600201805486929061125690849061562a565b92505081905550836009600082825461126f919061562a565b9250508190555083600a6000828254611288919061563d565b90915550506001600160a01b038516600080516020615f1b833981519152836112b1878261562a565b6040516112bf92919061541a565b60405180910390a26112d2853383612802565b846001600160a01b03167fe94e7f88819f66c19b097748cb754149f63b1a176ed425dee1f1ee933e6d09b08560405161130b9190614eca565b60405180910390a2505061100860018055565b6000600080516020615cbb8339815191526113388161201e565b611340611d7c565b61134a84846128ca565b915061135560018055565b5092915050565b600080516020615cdb8339815191526113748161201e565b600d80546001600160a01b0319166001600160a01b0384169081179091556040517f28709a2dab2a5d5e8688e96159011151c51644ab21839a8a45b449634d7c8b2b90600090a25050565b600080516020615f5b8339815191526113d78161201e565b600f80546001600160a01b0319166001600160a01b0384169081179091556040517fce6e3f8beda82a13c441d76efd4a6335760f219f38c60502e6680060874e109d90600090a25050565b6001600160a01b03821660009081526003602052604081206002015482111561145e576040516337deae0760e01b815260040160405180910390fd5b610e7c8383612ff7565b600080516020615dfb8339815191526114808161201e565b50601380546001600160a01b0319166001600160a01b0392909216919091179055565b600080516020615d9b8339815191526114bb8161201e565b60005b8281101561153c5760008484838181106114da576114da615650565b90506020020160208101906114ef91906151bf565b6001600160a01b0381166000908152600360205260408120549192500361152957604051630631bc2160e51b815260040160405180910390fd5b508061153481615666565b9150506114be565b5061154960048484614dc6565b507f0bc0cb8c5ccee13e6a2fd26a699f57ad7ff6e454e6aae97ec41cd2eb9ebd63a5838360405161157b9291906156eb565b60405180910390a1505050565b6000610f2b8484846121b5565b600080516020615dfb8339815191526115ad8161201e565b6115b78284612595565b826001600160a01b03167f1395522074be2925cc0fe997dc4fe5d15a507c2a971e00c315e5a2e08c9b0e50836040516115f09190614eca565b60405180910390a2505050565b6013546001600160a01b031633146116285760405163967642d960e01b815260040160405180910390fd5b60128054336001600160a01b031991821681179092556013805490911690556040517fce93baa0b608a7d420822b6b90cfcccb70574363ba4fd26ef5ac17dd465016c490600090a2565b600061167c611d7c565b61168733838561314d565b9050610d9160018055565b6000306001600160a01b038316036116cf576116ac6132a5565b6001600160a01b038316600090815260066020526040902054610d91919061562a565b506001600160a01b031660009081526006602052604090205490565b600080516020615d1b8339815191526117038161201e565b600b8290556040517f01a4494beed88920b88742cc58f2744e198f55ff192635a1fbabc6be8ffade8190611738908490614eca565b60405180910390a15050565b6000918252602082815260408084206001600160a01b0393909316845291905290205460ff1690565b6000611777611d7c565b611687338385613303565b601b8054610de190615520565b6000610d5b6117bf7f0000000000000000000000000000000000000000000000000000000000000000600a61580b565b6000611da5565b600080516020615d9b8339815191526117de8161201e565b6005805460ff19168315151790556040517f1f88e73ebc721f227812938fe07a069ec1f7136aafacb397ed460bd15dee13f190611738908490614f23565b6000610e7c338484613456565b600080516020615dfb8339815191526118418161201e565b6115b78284612131565b60006001600160a01b03831630148061186b57506001600160a01b038316155b156118895760405163d92e233d60e01b815260040160405180910390fd5b61189433848461348b565b50600192915050565b6000610d91826001611da5565b600080600080516020615cfb8339815191526118c58161201e565b6118cd611d7c565b6118d684613588565b925092506118e360018055565b50915091565b600080516020615e9b8339815191526119018161201e565b610eb382600061202b565b600080516020615f3b8339815191526119248161201e565b601354600160a01b900460ff16151560010361195357604051630f3c386760e01b815260040160405180910390fd5b600e546001600160a01b03161561197d576040516364b9991160e11b815260040160405180910390fd5b600c829055604051600080516020615dbb83398151915290611738908490614eca565b6000806119ac83612648565b9050610e7c816000611f70565b6000610d91826000611f70565b600080516020615dfb8339815191526119de8161201e565b6000828152601160205260409020805460ff1916905560015b60405183907f9f6d8ceb5fe3a6380949b0777bd5802511579b6fbbc87194c108a91d372f952790600090a35050565b6000611a37888888888888886136bc565b90505b979650505050505050565b600080516020615dfb833981519152611a5d8161201e565b6000828152601160205260408120805460ff191660011790556119f7565b611a8482610f33565b611a8d8161201e565b6110088383612595565b6000611aa1611d7c565b6000611aae876001611f70565b9050611abf3387878a858989611e3b565b509050610dcb60018055565b6000610d5b6132a5565b600080516020615edb833981519152611aed8161201e565b7f0000000000000000000000000000000000000000000000000000000000000000821115611b2e5760405163fdfbb0b760e01b815260040160405180910390fd5b81600003611b5a5730600081815260066020526040902054611b4f916138ac565b600060168190556015555b60148290556040517ff361aed463da6fa20358e45c6209f1d3e16d4eca706e6eab0b0aeb338729c77a90611738908490614eca565b600080516020615d5b833981519152611ba78161201e565b601354600160a01b900460ff161515600103611bd657604051630631bc2160e51b815260040160405180910390fd5b6013805460ff60a01b1916600160a01b179055600e546001600160a01b031615611c2457600e80546001600160a01b0319169055604051600090600080516020615d3b833981519152908290a25b6000600c819055604051600080516020615dbb83398151915291611c4791615845565b60405180910390a1611c6733600080516020615cbb833981519152611829565b6040517f4426aa1fb73e391071491fcfe21a88b5c38a0a0333a1f6e77161470439704cf890600090a150565b600080516020615e1b833981519152611cab8161201e565b6001600160a01b0383166000908152600360205260408120549003611ce357604051630631bc2160e51b815260040160405180910390fd5b6001600160a01b038316600081815260036020819052604091829020018490555133907fb3eef2123fec1523a6bbc90aceb203000154c1a4974335fe06b544c7534d4b8990611d33908690614eca565b60405180910390a3505050565b60048181548110611d5057600080fd5b6000918252602090912001546001600160a01b0316905081565b6000600954600a54610d5b919061563d565b600260015403611d9e5760405162461bcd60e51b81526004016110839061588a565b6002600155565b6000600019831480611db5575082155b15611dc1575081610d91565b6000611dcb612093565b905080600003611dde5783915050610d91565b6000611de8611d6a565b611df290866155e1565b90506000611e008383615616565b90506001856001811115611e1657611e1661581a565b148015611e2b5750611e28838361589a565b15155b15610dcb5761105160018261563d565b6000611e4987878686613963565b611e54868986613a07565b600080611e618785613a2b565b91509150611e748989888a86868b61407f565b876001600160a01b0316896001600160a01b03168b6001600160a01b03167ffbde797d201c681b91056529119e0b02407c7bb96a4a2c75c01fc9667232c8db858a604051611ec392919061541a565b60405180910390a45098975050505050505050565b60006001600160a01b0384161580611ef757506001600160a01b038316155b15611f155760405163d92e233d60e01b815260040160405180910390fd5b6001600160a01b038085166000818152600760209081526040808320948816808452949091529081902085905551600080516020615e7b83398151915290611f5e908690614eca565b60405180910390a35060019392505050565b6000600019831480611f80575082155b15611f8c575081610d91565b6000611f96612093565b90506000611fa2611d6a565b905080600003611fc95781600003611fbe578492505050610d91565b600092505050610d91565b6000611fd583876155e1565b90506000611fe38383615616565b90506001866001811115611ff957611ff961581a565b14801561200e575061200b838361589a565b15155b1561105157611a3a60018261563d565b612028813361411f565b50565b600254604051637a163bd760e11b81526001600160a01b039091169063f42c77ae9061205d90859085906004016158ae565b600060405180830381600087803b15801561207757600080fd5b505af115801561208b573d6000803e3d6000fd5b505050505050565b600061209d6132a5565b600854610d5b919061562a565b60025460405163223e547960e01b81526001600160a01b039091169063223e5479906120da908490600401614eb6565b600060405180830381600087803b1580156120f457600080fd5b505af1158015612108573d6000803e3d6000fd5b5050505050565b600061211c843384614178565b61212784848461348b565b5060019392505050565b61213b8282611744565b610eb3576000828152602081815260408083206001600160a01b03851684529091529020805460ff191660011790556121713390565b6001600160a01b0316816001600160a01b0316837f2f8788117e7eff1d82e926ec794901d17c78024a50270940304540a733656f0d60405160405180910390a45050565b6001600160a01b03831660009081526006602052604081205481906121da9082611da5565b600f549091506001600160a01b03161561227c57600f54604051632319b8cf60e01b81526000916001600160a01b031690632319b8cf9061222390899089908990600401615907565b6020604051808303816000875af1158015612242573d6000803e3d6000fd5b505050506040513d601f19601f8201168201806040525081019061226691906155aa565b905081811015612274578091505b509050610e7c565b600a548082111561257657835181906000908190158015906122a1575060055460ff16155b6123055760048054806020026020016040519081016040528092919081815260200182805480156122fb57602002820191906000526020600020905b81546001600160a01b031681526001909101906020018083116122dd575b5050505050612307565b865b905060005b815181101561256f57600082828151811061232957612329615650565b6020026020010151905060036000826001600160a01b03166001600160a01b031681526020019081526020016000206000015460000361237c57604051630631bc2160e51b815260040160405180910390fd5b60006123ac61238b878a61562a565b6001600160a01b03841660009081526003602052604090206002015461257f565b905060006123ba8383612ff7565b90506000836001600160a01b03166307a2d13a856001600160a01b031663d905777e306040518263ffffffff1660e01b81526004016123f99190614eb6565b602060405180830381865afa158015612416573d6000803e3d6000fd5b505050506040513d601f19601f8201168201806040525081019061243a91906155aa565b6040518263ffffffff1660e01b81526004016124569190614eca565b602060405180830381865afa158015612473573d6000803e3d6000fd5b505050506040513d601f19601f8201168201806040525081019061249791906155aa565b90506124a3828461562a565b8110156124ce57826124b582846155e1565b6124bf9190615616565b91506124cb828261563d565b92505b826000036124df575050505061255d565b6000821180156124f057506127108d105b15612530576127108d612503858b61563d565b61250d91906155e1565b6125179190615616565b612521838961563d565b1115612530575050505061256f565b61253a838961563d565b975089881061254c575050505061256f565b612556828861563d565b9650505050505b8061256781615666565b91505061230c565b5091935050505b50949350505050565b600081831061258e5781610e7c565b5090919050565b61259f8282611744565b15610eb3576000828152602081815260408083206001600160a01b0385168085529252808320805460ff1916905551339285917ff6391f5c32d9c69d2a47ea670b442974b53935d1edc7fd64eb21e047a839171b9190a45050565b6001600160a01b038084166000908152600760209081526040808320938616835292905290812054819061262f90849061563d565b905061263c858583611ed8565b50600195945050505050565b60006001600160a01b03821630148061266857506001600160a01b038216155b1561267557506000919050565b600e546001600160a01b031680156126f457604051632355178960e11b81526001600160a01b038216906346aa2f12906126b3908690600401614eb6565b602060405180830381865afa1580156126d0573d6000803e3d6000fd5b505050506040513d601f19601f82011682018060405250810190610e7c91906155aa565b60006126fe611d6a565b600c5490915080821061271657506000949350505050565b610dcb828261562a565b6001600160a01b038416158061273d57506001600160a01b038316155b8061274f57506001600160a01b038216155b1561276d5760405163d92e233d60e01b815260040160405180910390fd5b6040516323b872dd60e01b81526001600160a01b038516906323b872dd9061279d90869086908690600401615934565b6020604051808303816000875af11580156127bc573d6000803e3d6000fd5b505050506040513d601f19601f820116820180604052508101906127e09190615967565b6127fc5760405162461bcd60e51b8152600401611083906159ae565b50505050565b6001600160a01b038316158061281f57506001600160a01b038216155b1561283d5760405163d92e233d60e01b815260040160405180910390fd5b60405163a9059cbb60e01b81526001600160a01b0384169063a9059cbb9061286b90859085906004016159be565b6020604051808303816000875af115801561288a573d6000803e3d6000fd5b505050506040513d601f19601f820116820180604052508101906128ae9190615967565b6110085760405162461bcd60e51b8152600401611083906159ae565b6001600160a01b038216600090815260036020526040812060020154601354839190600160a01b900460ff16151560010361290457600091505b8082036129245760405163084df06b60e41b815260040160405180910390fd5b81811115612c38576000612938838361562a565b9050600b5481600a5461294b919061563d565b101561296e57600a54600b54612961919061562a565b90508181111561296e5750805b604051636c82bbbf60e11b81526000906001600160a01b038816906307a2d13a90829063d905777e906129a5903090600401614eb6565b602060405180830381865afa1580156129c2573d6000803e3d6000fd5b505050506040513d601f19601f820116820180604052508101906129e691906155aa565b6040518263ffffffff1660e01b8152600401612a029190614eca565b602060405180830381865afa158015612a1f573d6000803e3d6000fd5b505050506040513d601f19601f82011682018060405250810190612a4391906155aa565b905060008111612a6657604051637c946ed760e01b815260040160405180910390fd5b81811015612a72578091505b6000612a7e8884612ff7565b90508015612a9f576040516339589fdd60e21b815260040160405180910390fd5b6040516370a0823160e01b81526000906001600160a01b037f000000000000000000000000000000000000000000000000000000000000000016906370a0823190612aee903090600401614eb6565b602060405180830381865afa158015612b0b573d6000803e3d6000fd5b505050506040513d601f19601f82011682018060405250810190612b2f91906155aa565b9050612b3b89856141d3565b6040516370a0823160e01b81526000906001600160a01b037f000000000000000000000000000000000000000000000000000000000000000016906370a0823190612b8a903090600401614eb6565b602060405180830381865afa158015612ba7573d6000803e3d6000fd5b505050506040513d601f19601f82011682018060405250810190612bcb91906155aa565b90506000612be2612bdc848461562a565b8861257f565b905085811115612bf0578095505b80600a6000828254612c02919061563d565b925050819055508560096000828254612c1b919061562a565b90915550612c2b9050868861562a565b9750505050505050612fa9565b6001600160a01b03851660009081526003602081905260409091200154821115612c755760405163d49d8c2360e01b815260040160405180910390fd5b60405163402d267d60e01b81526000906001600160a01b0387169063402d267d90612ca4903090600401614eb6565b602060405180830381865afa158015612cc1573d6000803e3d6000fd5b505050506040513d601f19601f82011682018060405250810190612ce591906155aa565b905060008111612d0857604051637c946ed760e01b815260040160405180910390fd5b6000612d14838561562a565b905081811115612d215750805b600b54600a5411612d455760405163356680b760e01b815260040160405180910390fd5b6000600b54600a54612d57919061562a565b905080821115612d65578091505b8115612fa557612d967f0000000000000000000000000000000000000000000000000000000000000000898461432d565b6040516370a0823160e01b81526000906001600160a01b037f000000000000000000000000000000000000000000000000000000000000000016906370a0823190612de5903090600401614eb6565b602060405180830381865afa158015612e02573d6000803e3d6000fd5b505050506040513d601f19601f82011682018060405250810190612e2691906155aa565b604051636e553f6560e01b81529091506001600160a01b038a1690636e553f6590612e5790869030906004016159cc565b6020604051808303816000875af1158015612e76573d6000803e3d6000fd5b505050506040513d601f19601f82011682018060405250810190612e9a91906155aa565b506040516370a0823160e01b81526000906001600160a01b037f000000000000000000000000000000000000000000000000000000000000000016906370a0823190612eea903090600401614eb6565b602060405180830381865afa158015612f07573d6000803e3d6000fd5b505050506040513d601f19601f82011682018060405250810190612f2b91906155aa565b9050612f597f00000000000000000000000000000000000000000000000000000000000000008b600061432d565b612f63818361562a565b935083600a6000828254612f77919061562a565b925050819055508360096000828254612f90919061563d565b90915550612fa09050848761563d565b965050505b5050505b6001600160a01b0385166000818152600360205260409081902060020184905551600080516020615f1b83398151915290612fe7908490869061541a565b60405180910390a2509392505050565b6001600160a01b0382166000818152600360205260408082206002015490516370a0823160e01b8152919290918391906370a082319061303b903090600401614eb6565b602060405180830381865afa158015613058573d6000803e3d6000fd5b505050506040513d601f19601f8201168201806040525081019061307c91906155aa565b90506000856001600160a01b03166307a2d13a836040518263ffffffff1660e01b81526004016130ac9190614eca565b602060405180830381865afa1580156130c9573d6000803e3d6000fd5b505050506040513d601f19601f820116820180604052508101906130ed91906155aa565b905082811015806130fc575082155b1561310d5760009350505050610d91565b600061311982876155e1565b905060006131278583615616565b613131908861562a565b905061313d858361589a565b15611a3a57611a3760018261563d565b601354600090600160a01b900460ff16151560010361317f57604051630f3c386760e01b815260040160405180910390fd5b61318883612648565b8211156131a8576040516325d16c5160e01b815260040160405180910390fd5b6040516323b872dd60e01b81526001600160a01b037f000000000000000000000000000000000000000000000000000000000000000016906323b872dd906131f890339030908790600401615934565b6020604051808303816000875af1158015613217573d6000803e3d6000fd5b505050506040513d601f19601f8201168201806040525081019061323b9190615967565b5081600a600082825461324e919061563d565b909155506000905061326083856143f5565b9050836001600160a01b0316856001600160a01b0316600080516020615efb833981519152858460405161329592919061541a565b60405180910390a3949350505050565b60155460009081428211156132e65764e8d4a51000601754426132c8919061562a565b6016546132d591906155e1565b6132df9190615616565b9050610d91565b8115610d9157503060009081526006602052604090205492915050565b601354600090600160a01b900460ff16151560010361333557604051630f3c386760e01b815260040160405180910390fd5b6000613342836001611da5565b905061334d84612648565b81111561336d576040516325d16c5160e01b815260040160405180910390fd5b6040516323b872dd60e01b81526001600160a01b037f000000000000000000000000000000000000000000000000000000000000000016906323b872dd906133bd90339030908690600401615934565b6020604051808303816000875af11580156133dc573d6000803e3d6000fd5b505050506040513d601f19601f820116820180604052508101906134009190615967565b5080600a6000828254613413919061563d565b90915550613423905083856144a6565b836001600160a01b0316856001600160a01b0316600080516020615efb833981519152838660405161329592919061541a565b6001600160a01b038084166000908152600760209081526040808320938616835292905290812054819061262f90849061562a565b6001600160a01b038316600090815260066020526040902054818110156134c55760405163356680b760e01b815260040160405180910390fd5b6001600160a01b03841615806134e257506001600160a01b038316155b156135005760405163d92e233d60e01b815260040160405180910390fd5b61350a828261562a565b6001600160a01b038086166000908152600660205260408082209390935590851681522054613539838261563d565b6001600160a01b038086166000818152600660205260409081902093909355915190871690600080516020615e3b83398151915290613579908790614eca565b60405180910390a35050505050565b6001600160a01b038116600090815260036020526040812054819081036135c257604051630631bc2160e51b815260040160405180910390fd5b6135ca61453f565b6000806135d68561456f565b9150915060006135e78684846146a5565b905060006135fe8383600001518460400151614813565b9050600080613610838588888d614898565b9150915061361e8282614ba8565b6001600160a01b03891660008181526003602052604080822042600182015560020154908601517f7f2ad1d3ba35276f35ef140f83e3e0f17b23064fd710113d3f7a5ab30d267811928a928a9290916136779190611da5565b61368e89602001518a604001516117bf919061563d565b8a602001516040516136a5969594939291906159e7565b60405180910390a250939792965091945050505050565b60006001600160a01b0388166136e55760405163d92e233d60e01b815260040160405180910390fd5b42851015613706576040516363bef56160e11b815260040160405180910390fd5b6001600160a01b038816600090815260186020908152604080832054905190929161374b91600080516020615e5b833981519152918d918d918d9188918e9101615a36565b60405160208183030381529060405280519060200120905060006019548260405160200161377a929190615a5e565b6040516020818303038152906040528051906020012090506000600182898989604051600081526020016040526040516137b79493929190615a8f565b6020604051602081039080840390855afa1580156137d9573d6000803e3d6000fd5b5050604051601f1901519150506001600160a01b038116158061380e57508b6001600160a01b0316816001600160a01b031614155b1561382c576040516310454c9960e31b815260040160405180910390fd5b6138378c8c8c611ed8565b506001600160a01b038c16600090815260186020526040812080549161385c83615666565b91905055508a6001600160a01b03168c6001600160a01b0316600080516020615e7b8339815191528c6040516138929190614eca565b60405180910390a35060019b9a5050505050505050505050565b6001600160a01b0381166000908152600660205260409020548211156138e557604051633999656760e01b815260040160405180910390fd5b6001600160a01b0381166000908152600660205260408120805484929061390d90849061562a565b925050819055508160086000828254613926919061562a565b90915550506040516000906001600160a01b03831690600080516020615e3b83398151915290613957908690614eca565b60405180910390a35050565b6001600160a01b03841661398a5760405163d92e233d60e01b815260040160405180910390fd5b6127108111156139ad57604051631a7ed0a160e31b815260040160405180910390fd5b600082116139ce57604051637c946ed760e01b815260040160405180910390fd5b6001600160a01b0383166000908152600660205260409020548211156127fc57604051633999656760e01b815260040160405180910390fd5b826001600160a01b0316826001600160a01b03161461100857611008838383614178565b60008060006040518060c00160405280868152602001600a5481526020016009548152602001600081526020017f00000000000000000000000000000000000000000000000000000000000000006001600160a01b03166370a08231306040518263ffffffff1660e01b8152600401613aa49190614eb6565b602060405180830381865afa158015613ac1573d6000803e3d6000fd5b505050506040513d601f19601f82011682018060405250810190613ae591906155aa565b815260006020918201528101518151919250101561406a5760008451600014158015613b14575060055460ff16155b613b78576004805480602002602001604051908101604052809291908181526020018280548015613b6e57602002820191906000526020600020905b81546001600160a01b03168152600190910190602001808311613b50575b5050505050613b7a565b845b60208301518351919250613b8d9161562a565b606083015260005b8151811015614039576000828281518110613bb257613bb2615650565b6020026020010151905060036000826001600160a01b03166001600160a01b0316815260200190815260200160002060000154600003613c0557604051630631bc2160e51b815260040160405180910390fd5b6001600160a01b0381166000908152600360205260408120600201546060860151909190613c33908361257f565b90506000836001600160a01b03166307a2d13a856001600160a01b031663d905777e306040518263ffffffff1660e01b8152600401613c729190614eb6565b602060405180830381865afa158015613c8f573d6000803e3d6000fd5b505050506040513d601f19601f82011682018060405250810190613cb391906155aa565b6040518263ffffffff1660e01b8152600401613ccf9190614eca565b602060405180830381865afa158015613cec573d6000803e3d6000fd5b505050506040513d601f19601f82011682018060405250810190613d1091906155aa565b90506000613d1e8584612ff7565b90508015613e2457613d30818461562a565b821015613d6a576000613d43828561562a565b905080613d5084846155e1565b613d5a9190615616565b9150613d66828461563d565b9350505b613d74818461562a565b92508088600001818151613d88919061562a565b905250606088018051829190613d9f90839061562a565b905250604088018051829190613db690839061562a565b90525081158015613dc75750600081115b15613e24576000613dd8828661562a565b6001600160a01b038716600081815260036020526040908190206002018390555191925090600080516020615f1b83398151915290613e1a908890859061541a565b60405180910390a2505b613e2e838361257f565b925082600003613e42575050505050614027565b613e4c85846141d3565b6040516370a0823160e01b81526000906001600160a01b037f000000000000000000000000000000000000000000000000000000000000000016906370a0823190613e9b903090600401614eb6565b602060405180830381865afa158015613eb8573d6000803e3d6000fd5b505050506040513d601f19601f82011682018060405250810190613edc91906155aa565b90506000896080015182613ef0919061562a565b9050600085821115613f275786821115613f0c57869550613f3c565b613f16868361562a565b613f20908761563d565b9550613f3c565b85821015613f3c57613f39828761562a565b90505b613f46818761562a565b8b602001818151613f57919061563d565b9052508a5181908c90613f6b90839061562a565b90525060408b018051879190613f8290839061562a565b9052506000613f91858861563d565b613f9b908961562a565b6001600160a01b038a16600081815260036020526040908190206002018390555191925090600080516020615f1b83398151915290613fdd908b90859061541a565b60405180910390a260208c01518c5111613fff57505050505050505050614039565b60808c0184905260608c01805188919061401a90839061562a565b9052505050505050505050505b8061403181615666565b915050613b95565b50815160208301511015614060576040516396d8043360e01b815260040160405180910390fd5b5060408101516009555b805160209091015190925090505b9250929050565b828411801561408f575061271081105b156140d4576127106140a182866155e1565b6140ab9190615616565b6140b5848661562a565b11156140d4576040516307f65e3960e11b815260040160405180910390fd5b6140de85876138ac565b6140e8838361562a565b600a556141167f00000000000000000000000000000000000000000000000000000000000000008885612802565b50505050505050565b6141298282611744565b610eb35761413681614c49565b614141836020614c5b565b604051602001614152929190615acc565b60408051601f198184030181529082905262461bcd60e51b825261108391600401615150565b6001600160a01b03808416600090815260076020908152604080832093861683529290522054818110156141bf5760405163017e286b60e51b815260040160405180910390fd5b61210884846141ce858561562a565b611ed8565b60006142b7836001600160a01b0316630a28a477846040518263ffffffff1660e01b81526004016142049190614eca565b602060405180830381865afa158015614221573d6000803e3d6000fd5b505050506040513d601f19601f8201168201806040525081019061424591906155aa565b6040516370a0823160e01b81526001600160a01b038616906370a0823190614271903090600401614eb6565b602060405180830381865afa15801561428e573d6000803e3d6000fd5b505050506040513d601f19601f820116820180604052508101906142b291906155aa565b61257f565b604051635d043b2960e11b81529091506001600160a01b0384169063ba087652906142ea90849030908190600401615b1e565b6020604051808303816000875af1158015614309573d6000803e3d6000fd5b505050506040513d601f19601f820116820180604052508101906127fc91906155aa565b6001600160a01b038316158061434a57506001600160a01b038216155b156143685760405163d92e233d60e01b815260040160405180910390fd5b60405163095ea7b360e01b81526001600160a01b0384169063095ea7b39061439690859085906004016159be565b6020604051808303816000875af11580156143b5573d6000803e3d6000fd5b505050506040513d601f19601f820116820180604052508101906143d99190615967565b6110085760405162461bcd60e51b815260040161108390615b6c565b60006001600160a01b03821661441e5760405163d92e233d60e01b815260040160405180910390fd5b6000614428612093565b90506000614434611d6a565b905060008260000361444757508461448c565b8582111561447457614459868361562a565b61446384886155e1565b61446d9190615616565b905061448c565b60405162461bcd60e51b815260040161108390615ba2565b806000036144a05760009350505050610d91565b610dcb81865b6001600160a01b0381166144cd5760405163d92e233d60e01b815260040160405180910390fd5b6001600160a01b038116600090815260066020526040812080548492906144f590849061563d565b92505081905550816008600082825461450e919061563d565b90915550506040516001600160a01b03821690600090600080516020615e3b83398151915290613957908690614eca565b60006145496132a5565b9050806000036145565750565b42601554111561456557426017555b61202881306138ac565b6000806000836001600160a01b03166370a08231306040518263ffffffff1660e01b81526004016145a09190614eb6565b602060405180830381865afa1580156145bd573d6000803e3d6000fd5b505050506040513d601f19601f820116820180604052508101906145e191906155aa565b90506000846001600160a01b03166307a2d13a836040518263ffffffff1660e01b81526004016146119190614eca565b602060405180830381865afa15801561462e573d6000803e3d6000fd5b505050506040513d601f19601f8201168201806040525081019061465291906155aa565b6001600160a01b038616600090815260036020526040812060020154919250808284111561468b57614684838561562a565b9150614698565b614695848461562a565b90505b9097909650945050505050565b6146ad614e29565b6146b5614e29565b600d546001600160a01b031615610f2b57600d5460405163921f8a8f60e01b81526001600160a01b039091169063921f8a8f906146fa90889088908890600401615bb2565b60408051808303816000875af1158015614718573d6000803e3d6000fd5b505050506040513d601f19601f8201168201806040525081019061473c9190615bcd565b602083015280825215610f2b5760007f00000000000000000000000000000000000000000000000000000000000000006001600160a01b03166307d3277f6040518163ffffffff1660e01b81526004016040805180830381865afa1580156147a8573d6000803e3d6000fd5b505050506040513d601f19601f820116820180604052508101906147cc9190615c20565b6001600160a01b03166060840152905061ffff811615612576578151612710906147fb9061ffff8416906155e1565b6148059190615616565b604083015250949350505050565b61481b614e5a565b614823614e5a565b600061482f858761563d565b1115610f2b57614849614842858761563d565b6001611f70565b8151829061485890839061563d565b9052508315610f2b5761487561486e848661562a565b6000611f70565b60208201528215610f2b5761488b836000611f70565b6040820152949350505050565b600080600080876020015111156149fd576020870151600d546040516370a0823160e01b81526149a092916142b2916001600160a01b037f00000000000000000000000000000000000000000000000000000000000000008116926370a082319261490a929190911690600401614eb6565b602060405180830381865afa158015614927573d6000803e3d6000fd5b505050506040513d601f19601f8201168201806040525081019061494b91906155aa565b600d54604051636eb1769f60e11b81526001600160a01b037f000000000000000000000000000000000000000000000000000000000000000081169263dd62ed3e926142719291909116903090600401615c53565b60208801819052600d546149e1917f0000000000000000000000000000000000000000000000000000000000000000916001600160a01b0316903090612720565b8660200151600a60008282546149f7919061563d565b90915550505b8515614a4d576001600160a01b03841660009081526003602052604081206002018054889290614a2e90849061563d565b925050819055508560096000828254614a47919061563d565b90915550505b6000876020015187614a5f919061563d565b118015614a6d575060145415155b15614a8e57614a8b876020015187614a85919061563d565b306143f5565b90505b8415614ade576001600160a01b03841660009081526003602052604081206002018054879290614abf90849061562a565b925050819055508460096000828254614ad8919061562a565b90915550505b30600090815260066020526040812054614af990839061562a565b895190915015614b5a578851614b13906142b2848461563d565b808a52614b2090306138ac565b6000614b308a600001518461257f565b9050614b3c818461562a565b8a51909350614b4c90829061562a565b614b56908361562a565b9150505b602089015115614b7f576020890151600d54614b7f91906001600160a01b03166144a6565b604089015115614b9b57614b9b896040015189606001516144a6565b9890975095505050505050565b6000614bb4828461563d565b90508015614c3f576000426015541115614be35742601554614bd6919061562a565b614be090856155e1565b90505b60008260145485614bf491906155e1565b614bfe908461563d565b614c089190615616565b905080614c1a64e8d4a51000856155e1565b614c249190615616565b601655614c31814261563d565b601555505042601755505050565b6000601655505050565b6060610d916001600160a01b03831660145b60606000614c6a8360026155e1565b614c7590600261563d565b6001600160401b03811115614c8c57614c8c614f60565b6040519080825280601f01601f191660200182016040528015614cb6576020820181803683370190505b509050600360fc1b81600081518110614cd157614cd1615650565b60200101906001600160f81b031916908160001a905350600f60fb1b81600181518110614d0057614d00615650565b60200101906001600160f81b031916908160001a9053506000614d248460026155e1565b614d2f90600161563d565b90505b6001811115614da7576f181899199a1a9b1b9c1cb0b131b232b360811b85600f1660108110614d6357614d63615650565b1a60f81b828281518110614d7957614d79615650565b60200101906001600160f81b031916908160001a90535060049490941c93614da081615c61565b9050614d32565b508315610e7c5760405162461bcd60e51b815260040161108390615caa565b828054828255906000526020600020908101928215614e19579160200282015b82811115614e195781546001600160a01b0319166001600160a01b03843516178255602090920191600190910190614de6565b50614e25929150614e7b565b5090565b604051806080016040528060008152602001600081526020016000815260200160006001600160a01b031681525090565b60405180606001604052806000815260200160008152602001600081525090565b5b80821115614e255760008155600101614e7c565b6001600160a01b031690565b6000610d9182614e90565b614eb081614e9c565b82525050565b60208101610d918284614ea7565b80614eb0565b60208101610d918284614ec4565b6001600160e01b031981165b811461202857600080fd5b8035610d9181614ed8565b600060208284031215614f0f57614f0f600080fd5b6000610f2b8484614eef565b801515614eb0565b60208101610d918284614f1b565b80614ee4565b8035610d9181614f31565b614ee481614e9c565b8035610d9181614f42565b601f01601f191690565b634e487b7160e01b600052604160045260246000fd5b614f7f82614f56565b81018181106001600160401b0382111715614f9c57614f9c614f60565b6040525050565b6000614fae60405190565b9050614fba8282614f76565b919050565b60006001600160401b03821115614fd857614fd8614f60565b5060209081020190565b6000614ff5614ff084614fbf565b614fa3565b8381529050602080820190840283018581111561501457615014600080fd5b835b8181101561503857806150298882614f4b565b84525060209283019201615016565b5050509392505050565b600082601f83011261505657615056600080fd5b8135610f2b848260208601614fe2565b600080600080600060a0868803121561508157615081600080fd5b600061508d8888614f37565b955050602061509e88828901614f4b565b94505060406150af88828901614f4b565b93505060606150c088828901614f37565b92505060808601356001600160401b038111156150df576150df600080fd5b6150eb88828901615042565b9150509295509295909350565b60005b838110156151135781810151838201526020016150fb565b50506000910152565b6000615126825190565b80845260208401935061513d8185602086016150f8565b61514681614f56565b9093019392505050565b60208082528101610e7c818461511c565b60006020828403121561517657615176600080fd5b6000610f2b8484614f37565b6000806040838503121561519857615198600080fd5b60006151a48585614f4b565b92505060206151b585828601614f37565b9150509250929050565b6000602082840312156151d4576151d4600080fd5b6000610f2b8484614f4b565b6000806000606084860312156151f8576151f8600080fd5b60006152048686614f4b565b935050602061521586828701614f4b565b925050604061522686828701614f37565b9150509250925092565b6000806040838503121561524657615246600080fd5b60006152528585614f37565b92505060206151b585828601614f4b565b60ff8116614eb0565b60208101610d918284615263565b60008060006060848603121561529257615292600080fd5b600061529e8686614f4b565b93505060206152af86828701614f37565b92505060408401356001600160401b038111156152ce576152ce600080fd5b61522686828701615042565b608081016152e88287614ec4565b6152f56020830186614ec4565b6153026040830185614ec4565b610dcb6060830184614ec4565b6000610d9161532361532084614e90565b90565b614e90565b6000610d918261530f565b6000610d9182615328565b614eb081615333565b60208101610d91828461533e565b60008083601f84011261536a5761536a600080fd5b5081356001600160401b0381111561538457615384600080fd5b60208301915083602082028301111561407857614078600080fd5b600080602083850312156153b5576153b5600080fd5b82356001600160401b038111156153ce576153ce600080fd5b6153da85828601615355565b92509250509250929050565b801515614ee4565b8035610d91816153e6565b60006020828403121561540e5761540e600080fd5b6000610f2b84846153ee565b604081016154288285614ec4565b610e7c6020830184614ec4565b60ff8116614ee4565b8035610d9181615435565b600080600080600080600060e0888a03121561546757615467600080fd5b60006154738a8a614f4b565b97505060206154848a828b01614f4b565b96505060406154958a828b01614f37565b95505060606154a68a828b01614f37565b94505060806154b78a828b0161543e565b93505060a06154c88a828b01614f37565b92505060c06154d98a828b01614f37565b91505092959891949750929550565b600080604083850312156154fe576154fe600080fd5b60006152528585614f4b565b634e487b7160e01b600052602260045260246000fd5b60028104600182168061553457607f821691505b6020821081036155465761554661550a565b50919050565b60208082528101610d9181602f81527f416363657373436f6e74726f6c3a2063616e206f6e6c792072656e6f756e636560208201526e103937b632b9903337b91039b2b63360891b604082015260600190565b8051610d9181614f31565b6000602082840312156155bf576155bf600080fd5b6000610f2b848461559f565b634e487b7160e01b600052601160045260246000fd5b60008160001904831182151516156155fb576155fb6155cb565b500290565b634e487b7160e01b600052601260045260246000fd5b60008261562557615625615600565b500490565b81810381811115610d9157610d916155cb565b80820180821115610d9157610d916155cb565b634e487b7160e01b600052603260045260246000fd5b60006000198203615679576156796155cb565b5060010190565b600061568c8383614ea7565b505060200190565b6000610e7c6020840184614f4b565b8183526000602084019350818060005b858110156156e0576156c58284615694565b6156cf8882615680565b9750602083019250506001016156b3565b509495945050505050565b60208082528101610f2b8184866156a3565b80825b600185111561573c5780860481111561571b5761571b6155cb565b600185161561572957908102905b80026157358560011c90565b9450615700565b94509492505050565b60008261575457506001610e7c565b8161576157506000610e7c565b81600181146157775760028114615781576157ae565b6001915050610e7c565b60ff841115615792576157926155cb565b8360020a9150848211156157a8576157a86155cb565b50610e7c565b5060208310610133831016604e8410600b84101617156157e1575081810a838111156157dc576157dc6155cb565b610e7c565b6157ee84848460016156fd565b92509050818404811115615804576158046155cb565b0292915050565b6000610e7c6000198484615745565b634e487b7160e01b600052602160045260246000fd5b6000610d916153208381565b614eb081615830565b60208101610d91828461583c565b601f81526000602082017f5265656e7472616e637947756172643a207265656e7472616e742063616c6c00815291505b5060200190565b60208082528101610d9181615853565b6000826158a9576158a9615600565b500690565b604081016158bc8285614ea7565b610e7c6020830184614f1b565b60006158d3825190565b80845260209384019383018060005b838110156156e05781516158f68882615680565b9750602083019250506001016158e2565b606081016159158286614ea7565b6159226020830185614ec4565b8181036040830152610dcb81846158c9565b606081016159428286614ea7565b61594f6020830185614ea7565b610f2b6040830184614ec4565b8051610d91816153e6565b60006020828403121561597c5761597c600080fd5b6000610f2b848461595c565b600f81526000602082016e1d1c985b9cd9995c8819985a5b1959608a1b81529150615883565b60208082528101610d9181615988565b604081016154288285614ea7565b604081016159da8285614ec4565b610e7c6020830184614ea7565b60c081016159f58289614ec4565b615a026020830188614ec4565b615a0f6040830187614ec4565b615a1c6060830186614ec4565b615a296080830185614ec4565b611a3a60a0830184614ec4565b60c08101615a448289614ec4565b615a516020830188614ea7565b615a0f6040830187614ea7565b61190160f01b81526002016000615a758285614ec4565b602082019150615a858284614ec4565b5060200192915050565b60808101615a9d8287614ec4565b6152f56020830186615263565b6000615ab4825190565b615ac28185602086016150f8565b9290920192915050565b76020b1b1b2b9b9a1b7b73a3937b61d1030b1b1b7bab73a1604d1b81526017016000615af88285615aaa565b7001034b99036b4b9b9b4b733903937b6329607d1b81526011019150610f2b8284615aaa565b60608101615b2c8286614ec4565b615b396020830185614ea7565b610f2b6040830184614ea7565b600f81526000602082016e185c1c1c9bdd985b0819985a5b1959608a1b81529150615883565b60208082528101610d9181615b46565b600f81526000602082016e0c2dadeeadce840e8dede40d0d2ced608b1b81529150615883565b60208082528101610d9181615b7c565b60608101615bc08286614ea7565b61594f6020830185614ec4565b60008060408385031215615be357615be3600080fd5b6000615bef858561559f565b92505060206151b58582860161559f565b61ffff8116614ee4565b8051610d9181615c00565b8051610d9181614f42565b60008060408385031215615c3657615c36600080fd5b6000615c428585615c0a565b92505060206151b585828601615c15565b604081016159da8285614ea7565b600081615c7057615c706155cb565b506000190190565b60208082527f537472696e67733a20686578206c656e67746820696e73756666696369656e7491019081526000615883565b60208082528101610d9181615c7856fe152ebba56b9738ee3d8baea1b76fa31dcdcd79b1929bfea7d58ee12cfdf1a653cd9f023a942ee35097ead74b2505bea9f2c5d47465db92dd195cf7f01a41cfe1633076a97f32ae349b28772e7b1483f67a926f150cbc501d02bdbd77389325abc723f4dd6268e1c374639e36d629c765285ee7003913389d582c300f186dde97777d215db24fb9fee4ded85c66b422abd7162a1caa6ed3ec4c031f6cd29ada52d45f7ccff42f059d4e47c3f027c444272257266f7e88b981e142f0aa38fbfd78ea672c1c09cd95c51af9509f646f3615ff0071aae8652bd821471ee9037fd72c862f91c9d89d6135b19873b921c90b702cb2e175c371b8430026b9577e691119ae565aab888bca5e19e25a13db7b0c9144305bf55cb0f3f4d724f730e5acdd622a0e761830cc61f2707ea7bb138008bf9dda7f7d34c77736d0a116604e95ea16f206625bad3d9112d5609b8d356e6fbd514cd1f69980d4ce2b3e6e68e1789ace7cbb3cdf689b8ea3e9d265f66bc4e0a99069268217017d38d2a5a559abc62719ddf252ad1be2c89b69c2b068fc378daa952ba7f163c4a11628f55a4df523b3ef6e71edae12b1b97f4d1f60370fef10105fa2faae0126114a169c64845d6126c98c5be1e5ebec7d5bd14f71427d1e84f3dd0314c0f7b2291e5b200ac8c7c3b9256f430d649a8640e48ff9bfbc353b3f99ed630163857821b3b4075e3871dafbf5900d80def0427daac599092fcb16b21808ec68dd9a2e1eae89d1e8db21357375a18eaea71a088b547b8c932b48861853b3434d9a3240b94466c607e28b696595dcbc1c05240f31ff3ad067ef1ee35ce4997762752e3a095284754544f4c709d75e2b8821ad6e0e26207e0cb4d242d07eeb1cbb1cfd853e645bdcd27cc5484f952f0dbbe8c2c0170206c50ec0cafa1c0dbd03e73e67c2a960178df30a0a30ee2e69d1171ac0a63777a6733cda21aec9ed3d48a4fd11f273c934a691dec5e5589ca2646970667358221220dcd930a98a726b092ec8b55124692becb7843441f6c97e5458c8f7ec55338fbc64736f6c63430008100033",
  "devdoc": {
    "kind": "dev",
    "methods": {
      "allowance(address,address)": {
        "details": "Returns the remaining number of tokens that `spender` will be allowed to spend on behalf of `owner` through {transferFrom}. This is zero by default. This value changes when {approve} or {transferFrom} are called."
      },
      "approve(address,uint256)": {
        "details": "Sets `amount` as the allowance of `spender` over the caller's tokens. Returns a boolean value indicating whether the operation succeeded. IMPORTANT: Beware that changing an allowance with this method brings the risk that someone may use both the old and the new allowance by unfortunate transaction ordering. One possible solution to mitigate this race condition is to first reduce the spender's allowance to 0 and set the desired value afterwards: https://github.com/ethereum/EIPs/issues/20#issuecomment-263524729 Emits an {Approval} event."
      },
      "asset()": {
        "details": "Returns the address of the underlying token used for the Vault for accounting, depositing, and withdrawing. - MUST be an ERC-20 token contract. - MUST NOT revert."
      },
      "convertToAssets(uint256)": {
        "details": "Returns the amount of assets that the Vault would exchange for the amount of shares provided, in an ideal scenario where all the conditions are met. - MUST NOT be inclusive of any fees that are charged against assets in the Vault. - MUST NOT show any variations depending on the caller. - MUST NOT reflect slippage or other on-chain conditions, when performing the actual exchange. - MUST NOT revert. NOTE: This calculation MAY NOT reflect the per-user price-per-share, and instead should reflect the average-users price-per-share, meaning what the average user should expect to see when exchanging to and from."
      },
      "convertToShares(uint256)": {
        "details": "Returns the amount of shares that the Vault would exchange for the amount of assets provided, in an ideal scenario where all the conditions are met. - MUST NOT be inclusive of any fees that are charged against assets in the Vault. - MUST NOT show any variations depending on the caller. - MUST NOT reflect slippage or other on-chain conditions, when performing the actual exchange. - MUST NOT revert. NOTE: This calculation MAY NOT reflect the per-user price-per-share, and instead should reflect the average-users price-per-share, meaning what the average user should expect to see when exchanging to and from."
      },
      "decimals()": {
        "details": "Returns the decimals places of the token."
      },
      "deposit(uint256,address)": {
        "details": "Mints shares Vault shares to receiver by depositing exactly amount of underlying tokens. - MUST emit the Deposit event. - MAY support an additional flow in which the underlying tokens are owned by the Vault contract before the   deposit execution, and are accounted for during deposit. - MUST revert if all of assets cannot be deposited (due to deposit limit being reached, slippage, the user not   approving enough underlying tokens to the Vault contract, etc). NOTE: most implementations will require pre-approval of the Vault with the Vaults underlying asset token."
      },
      "getRoleAdmin(bytes32)": {
        "details": "Returns the admin role that controls `role`. See {grantRole} and {revokeRole}. To change a role's admin, use {_setRoleAdmin}."
      },
      "grantRole(bytes32,address)": {
        "details": "Grants `role` to `account`. If `account` had not been already granted `role`, emits a {RoleGranted} event. Requirements: - the caller must have ``role``'s admin role. May emit a {RoleGranted} event."
      },
      "hasRole(bytes32,address)": {
        "details": "Returns `true` if `account` has been granted `role`."
      },
      "maxDeposit(address)": {
        "details": "Returns the maximum amount of the underlying asset that can be deposited into the Vault for the receiver, through a deposit call. - MUST return a limited value if receiver is subject to some deposit limit. - MUST return 2 ** 256 - 1 if there is no limit on the maximum amount of assets that may be deposited. - MUST NOT revert."
      },
      "maxMint(address)": {
        "details": "Returns the maximum amount of the Vault shares that can be minted for the receiver, through a mint call. - MUST return a limited value if receiver is subject to some mint limit. - MUST return 2 ** 256 - 1 if there is no limit on the maximum amount of shares that may be minted. - MUST NOT revert."
      },
      "mint(uint256,address)": {
        "details": "Mints exactly shares Vault shares to receiver by depositing amount of underlying tokens. - MUST emit the Deposit event. - MAY support an additional flow in which the underlying tokens are owned by the Vault contract before the mint   execution, and are accounted for during mint. - MUST revert if all of shares cannot be minted (due to deposit limit being reached, slippage, the user not   approving enough underlying tokens to the Vault contract, etc). NOTE: most implementations will require pre-approval of the Vault with the Vaults underlying asset token."
      },
      "previewDeposit(uint256)": {
        "details": "Allows an on-chain or off-chain user to simulate the effects of their deposit at the current block, given current on-chain conditions. - MUST return as close to and no more than the exact amount of Vault shares that would be minted in a deposit   call in the same transaction. I.e. deposit should return the same or more shares as previewDeposit if called   in the same transaction. - MUST NOT account for deposit limits like those returned from maxDeposit and should always act as though the   deposit would be accepted, regardless if the user has enough tokens approved, etc. - MUST be inclusive of deposit fees. Integrators should be aware of the existence of deposit fees. - MUST NOT revert. NOTE: any unfavorable discrepancy between convertToShares and previewDeposit SHOULD be considered slippage in share price or some other type of condition, meaning the depositor will lose assets by depositing."
      },
      "previewMint(uint256)": {
        "details": "Allows an on-chain or off-chain user to simulate the effects of their mint at the current block, given current on-chain conditions. - MUST return as close to and no fewer than the exact amount of assets that would be deposited in a mint call   in the same transaction. I.e. mint should return the same or fewer assets as previewMint if called in the   same transaction. - MUST NOT account for mint limits like those returned from maxMint and should always act as though the mint   would be accepted, regardless if the user has enough tokens approved, etc. - MUST be inclusive of deposit fees. Integrators should be aware of the existence of deposit fees. - MUST NOT revert. NOTE: any unfavorable discrepancy between convertToAssets and previewMint SHOULD be considered slippage in share price or some other type of condition, meaning the depositor will lose assets by minting."
      },
      "previewRedeem(uint256)": {
        "details": "Allows an on-chain or off-chain user to simulate the effects of their redeemption at the current block, given current on-chain conditions. - MUST return as close to and no more than the exact amount of assets that would be withdrawn in a redeem call   in the same transaction. I.e. redeem should return the same or more assets as previewRedeem if called in the   same transaction. - MUST NOT account for redemption limits like those returned from maxRedeem and should always act as though the   redemption would be accepted, regardless if the user has enough shares, etc. - MUST be inclusive of withdrawal fees. Integrators should be aware of the existence of withdrawal fees. - MUST NOT revert. NOTE: any unfavorable discrepancy between convertToAssets and previewRedeem SHOULD be considered slippage in share price or some other type of condition, meaning the depositor will lose assets by redeeming."
      },
      "previewWithdraw(uint256)": {
        "details": "Allows an on-chain or off-chain user to simulate the effects of their withdrawal at the current block, given current on-chain conditions. - MUST return as close to and no fewer than the exact amount of Vault shares that would be burned in a withdraw   call in the same transaction. I.e. withdraw should return the same or fewer shares as previewWithdraw if   called   in the same transaction. - MUST NOT account for withdrawal limits like those returned from maxWithdraw and should always act as though   the withdrawal would be accepted, regardless if the user has enough shares, etc. - MUST be inclusive of withdrawal fees. Integrators should be aware of the existence of withdrawal fees. - MUST NOT revert. NOTE: any unfavorable discrepancy between convertToShares and previewWithdraw SHOULD be considered slippage in share price or some other type of condition, meaning the depositor will lose assets by depositing."
      },
      "renounceRole(bytes32,address)": {
        "details": "Revokes `role` from the calling account. Roles are often managed via {grantRole} and {revokeRole}: this function's purpose is to provide a mechanism for accounts to lose their privileges if they are compromised (such as when a trusted device is misplaced). If the calling account had been revoked `role`, emits a {RoleRevoked} event. Requirements: - the caller must be `account`. May emit a {RoleRevoked} event."
      },
      "revokeRole(bytes32,address)": {
        "details": "Revokes `role` from `account`. If `account` had been granted `role`, emits a {RoleRevoked} event. Requirements: - the caller must have ``role``'s admin role. May emit a {RoleRevoked} event."
      },
      "supportsInterface(bytes4)": {
        "details": "See {IERC165-supportsInterface}."
      },
      "totalAssets()": {
        "details": "Returns the total amount of the underlying asset that is managed by Vault. - SHOULD include any compounding that occurs from yield. - MUST be inclusive of any fees that are charged against assets in the Vault. - MUST NOT revert."
      }
    },
    "stateVariables": {
      "name": {
        "details": "Returns the name of the token."
      },
      "symbol": {
        "details": "Returns the symbol of the token."
      }
    },
    "title": "Yearn V3 Vault",
    "version": 1
  },
  "userdoc": {
    "kind": "user",
    "methods": {},
    "notice": "The Yearn VaultV3 is designed as a non-opinionated system to distribute funds of  depositors for a specific `asset` into different opportunities (aka Strategies) and manage accounting in a robust way.",
    "version": 1
  },
  "storageLayout": {
    "storage": [
      {
        "astId": 24,
        "contract": "contracts/FathomVault.sol:FathomVault",
        "label": "_roles",
        "offset": 0,
        "slot": "0",
        "type": "t_mapping(t_bytes32,t_struct(RoleData)19_storage)"
      },
      {
        "astId": 399,
        "contract": "contracts/FathomVault.sol:FathomVault",
        "label": "_status",
        "offset": 0,
        "slot": "1",
        "type": "t_uint256"
      },
      {
        "astId": 7573,
        "contract": "contracts/FathomVault.sol:FathomVault",
        "label": "strategyManager",
        "offset": 0,
        "slot": "2",
        "type": "t_address"
      },
      {
        "astId": 7578,
        "contract": "contracts/FathomVault.sol:FathomVault",
        "label": "strategies",
        "offset": 0,
        "slot": "3",
        "type": "t_mapping(t_address,t_struct(StrategyParams)7734_storage)"
      },
      {
        "astId": 7581,
        "contract": "contracts/FathomVault.sol:FathomVault",
        "label": "defaultQueue",
        "offset": 0,
        "slot": "4",
        "type": "t_array(t_address)dyn_storage"
      },
      {
        "astId": 7583,
        "contract": "contracts/FathomVault.sol:FathomVault",
        "label": "useDefaultQueue",
        "offset": 0,
        "slot": "5",
        "type": "t_bool"
      },
      {
        "astId": 7587,
        "contract": "contracts/FathomVault.sol:FathomVault",
        "label": "_balanceOf",
        "offset": 0,
        "slot": "6",
        "type": "t_mapping(t_address,t_uint256)"
      },
      {
        "astId": 7593,
        "contract": "contracts/FathomVault.sol:FathomVault",
        "label": "_allowance",
        "offset": 0,
        "slot": "7",
        "type": "t_mapping(t_address,t_mapping(t_address,t_uint256))"
      },
      {
        "astId": 7595,
        "contract": "contracts/FathomVault.sol:FathomVault",
        "label": "totalSupplyAmount",
        "offset": 0,
        "slot": "8",
        "type": "t_uint256"
      },
      {
        "astId": 7597,
        "contract": "contracts/FathomVault.sol:FathomVault",
        "label": "totalDebtAmount",
        "offset": 0,
        "slot": "9",
        "type": "t_uint256"
      },
      {
        "astId": 7599,
        "contract": "contracts/FathomVault.sol:FathomVault",
        "label": "totalIdleAmount",
        "offset": 0,
        "slot": "10",
        "type": "t_uint256"
      },
      {
        "astId": 7601,
        "contract": "contracts/FathomVault.sol:FathomVault",
        "label": "minimumTotalIdle",
        "offset": 0,
        "slot": "11",
        "type": "t_uint256"
      },
      {
        "astId": 7603,
        "contract": "contracts/FathomVault.sol:FathomVault",
        "label": "depositLimit",
        "offset": 0,
        "slot": "12",
        "type": "t_uint256"
      },
      {
        "astId": 7605,
        "contract": "contracts/FathomVault.sol:FathomVault",
        "label": "accountant",
        "offset": 0,
        "slot": "13",
        "type": "t_address"
      },
      {
        "astId": 7607,
        "contract": "contracts/FathomVault.sol:FathomVault",
        "label": "depositLimitModule",
        "offset": 0,
        "slot": "14",
        "type": "t_address"
      },
      {
        "astId": 7609,
        "contract": "contracts/FathomVault.sol:FathomVault",
        "label": "withdrawLimitModule",
        "offset": 0,
        "slot": "15",
        "type": "t_address"
      },
      {
        "astId": 7613,
        "contract": "contracts/FathomVault.sol:FathomVault",
        "label": "roles",
        "offset": 0,
        "slot": "16",
        "type": "t_mapping(t_address,t_bytes32)"
      },
      {
        "astId": 7617,
        "contract": "contracts/FathomVault.sol:FathomVault",
        "label": "openRoles",
        "offset": 0,
        "slot": "17",
        "type": "t_mapping(t_bytes32,t_bool)"
      },
      {
        "astId": 7619,
        "contract": "contracts/FathomVault.sol:FathomVault",
        "label": "roleManager",
        "offset": 0,
        "slot": "18",
        "type": "t_address"
      },
      {
        "astId": 7621,
        "contract": "contracts/FathomVault.sol:FathomVault",
        "label": "futureRoleManager",
        "offset": 0,
        "slot": "19",
        "type": "t_address"
      },
      {
        "astId": 7623,
        "contract": "contracts/FathomVault.sol:FathomVault",
        "label": "shutdown",
        "offset": 20,
        "slot": "19",
        "type": "t_bool"
      },
      {
        "astId": 7625,
        "contract": "contracts/FathomVault.sol:FathomVault",
        "label": "profitMaxUnlockTime",
        "offset": 0,
        "slot": "20",
        "type": "t_uint256"
      },
      {
        "astId": 7627,
        "contract": "contracts/FathomVault.sol:FathomVault",
        "label": "fullProfitUnlockDate",
        "offset": 0,
        "slot": "21",
        "type": "t_uint256"
      },
      {
        "astId": 7629,
        "contract": "contracts/FathomVault.sol:FathomVault",
        "label": "profitUnlockingRate",
        "offset": 0,
        "slot": "22",
        "type": "t_uint256"
      },
      {
        "astId": 7631,
        "contract": "contracts/FathomVault.sol:FathomVault",
        "label": "lastProfitUpdate",
        "offset": 0,
        "slot": "23",
        "type": "t_uint256"
      },
      {
        "astId": 7635,
        "contract": "contracts/FathomVault.sol:FathomVault",
        "label": "nonces",
        "offset": 0,
        "slot": "24",
        "type": "t_mapping(t_address,t_uint256)"
      },
      {
        "astId": 7642,
        "contract": "contracts/FathomVault.sol:FathomVault",
        "label": "DOMAIN_SEPARATOR",
        "offset": 0,
        "slot": "25",
        "type": "t_bytes32"
      },
      {
        "astId": 1902,
        "contract": "contracts/FathomVault.sol:FathomVault",
        "label": "name",
        "offset": 0,
        "slot": "26",
        "type": "t_string_storage"
      },
      {
        "astId": 1905,
        "contract": "contracts/FathomVault.sol:FathomVault",
        "label": "symbol",
        "offset": 0,
        "slot": "27",
        "type": "t_string_storage"
      }
    ],
    "types": {
      "t_address": {
        "encoding": "inplace",
        "label": "address",
        "numberOfBytes": "20"
      },
      "t_array(t_address)dyn_storage": {
        "base": "t_address",
        "encoding": "dynamic_array",
        "label": "address[]",
        "numberOfBytes": "32"
      },
      "t_bool": {
        "encoding": "inplace",
        "label": "bool",
        "numberOfBytes": "1"
      },
      "t_bytes32": {
        "encoding": "inplace",
        "label": "bytes32",
        "numberOfBytes": "32"
      },
      "t_mapping(t_address,t_bool)": {
        "encoding": "mapping",
        "key": "t_address",
        "label": "mapping(address => bool)",
        "numberOfBytes": "32",
        "value": "t_bool"
      },
      "t_mapping(t_address,t_bytes32)": {
        "encoding": "mapping",
        "key": "t_address",
        "label": "mapping(address => bytes32)",
        "numberOfBytes": "32",
        "value": "t_bytes32"
      },
      "t_mapping(t_address,t_mapping(t_address,t_uint256))": {
        "encoding": "mapping",
        "key": "t_address",
        "label": "mapping(address => mapping(address => uint256))",
        "numberOfBytes": "32",
        "value": "t_mapping(t_address,t_uint256)"
      },
      "t_mapping(t_address,t_struct(StrategyParams)7734_storage)": {
        "encoding": "mapping",
        "key": "t_address",
        "label": "mapping(address => struct StrategyParams)",
        "numberOfBytes": "32",
        "value": "t_struct(StrategyParams)7734_storage"
      },
      "t_mapping(t_address,t_uint256)": {
        "encoding": "mapping",
        "key": "t_address",
        "label": "mapping(address => uint256)",
        "numberOfBytes": "32",
        "value": "t_uint256"
      },
      "t_mapping(t_bytes32,t_bool)": {
        "encoding": "mapping",
        "key": "t_bytes32",
        "label": "mapping(bytes32 => bool)",
        "numberOfBytes": "32",
        "value": "t_bool"
      },
      "t_mapping(t_bytes32,t_struct(RoleData)19_storage)": {
        "encoding": "mapping",
        "key": "t_bytes32",
        "label": "mapping(bytes32 => struct AccessControl.RoleData)",
        "numberOfBytes": "32",
        "value": "t_struct(RoleData)19_storage"
      },
      "t_string_storage": {
        "encoding": "bytes",
        "label": "string",
        "numberOfBytes": "32"
      },
      "t_struct(RoleData)19_storage": {
        "encoding": "inplace",
        "label": "struct AccessControl.RoleData",
        "members": [
          {
            "astId": 16,
            "contract": "contracts/FathomVault.sol:FathomVault",
            "label": "members",
            "offset": 0,
            "slot": "0",
            "type": "t_mapping(t_address,t_bool)"
          },
          {
            "astId": 18,
            "contract": "contracts/FathomVault.sol:FathomVault",
            "label": "adminRole",
            "offset": 0,
            "slot": "1",
            "type": "t_bytes32"
          }
        ],
        "numberOfBytes": "64"
      },
      "t_struct(StrategyParams)7734_storage": {
        "encoding": "inplace",
        "label": "struct StrategyParams",
        "members": [
          {
            "astId": 7727,
            "contract": "contracts/FathomVault.sol:FathomVault",
            "label": "activation",
            "offset": 0,
            "slot": "0",
            "type": "t_uint256"
          },
          {
            "astId": 7729,
            "contract": "contracts/FathomVault.sol:FathomVault",
            "label": "lastReport",
            "offset": 0,
            "slot": "1",
            "type": "t_uint256"
          },
          {
            "astId": 7731,
            "contract": "contracts/FathomVault.sol:FathomVault",
            "label": "currentDebt",
            "offset": 0,
            "slot": "2",
            "type": "t_uint256"
          },
          {
            "astId": 7733,
            "contract": "contracts/FathomVault.sol:FathomVault",
            "label": "maxDebt",
            "offset": 0,
            "slot": "3",
            "type": "t_uint256"
          }
        ],
        "numberOfBytes": "128"
      },
      "t_uint256": {
        "encoding": "inplace",
        "label": "uint256",
        "numberOfBytes": "32"
      }
    }
  }
}