{
  "address": "0x223d5ea594971195b7ef8F0593500d2f59E4B7d3",
  "abi": [
    {
      "inputs": [
        {
          "internalType": "uint256",
          "name": "_profitMaxUnlockTime",
          "type": "uint256"
        },
        {
          "internalType": "address",
          "name": "_strategyManagerAddress",
          "type": "address"
        },
        {
          "internalType": "address",
          "name": "_sharesManagerAddress",
          "type": "address"
        },
        {
          "internalType": "address",
          "name": "_settersAddress",
          "type": "address"
        },
        {
          "internalType": "address",
          "name": "_governanceAddress",
          "type": "address"
        }
      ],
      "stateMutability": "nonpayable",
      "type": "constructor"
    },
    {
      "inputs": [],
      "name": "DebtDidntChange",
      "type": "error"
    },
    {
      "inputs": [],
      "name": "DebtHigherThanMaxDebt",
      "type": "error"
    },
    {
      "inputs": [],
      "name": "ERC20InsufficientAllowance",
      "type": "error"
    },
    {
      "inputs": [],
      "name": "ERC20PermitExpired",
      "type": "error"
    },
    {
      "inputs": [],
      "name": "ERC20PermitInvalidSignature",
      "type": "error"
    },
    {
      "inputs": [],
      "name": "ExceedDepositLimit",
      "type": "error"
    },
    {
      "inputs": [],
      "name": "InactiveStrategy",
      "type": "error"
    },
    {
      "inputs": [],
      "name": "InsufficientAssets",
      "type": "error"
    },
    {
      "inputs": [],
      "name": "InsufficientFunds",
      "type": "error"
    },
    {
      "inputs": [],
      "name": "InsufficientShares",
      "type": "error"
    },
    {
      "inputs": [],
      "name": "InvalidAsset",
      "type": "error"
    },
    {
      "inputs": [],
      "name": "InvalidAssetDecimals",
      "type": "error"
    },
    {
      "inputs": [],
      "name": "MaxLoss",
      "type": "error"
    },
    {
      "inputs": [],
      "name": "ProfitUnlockTimeTooLong",
      "type": "error"
    },
    {
      "inputs": [],
      "name": "StrategyAlreadyActive",
      "type": "error"
    },
    {
      "inputs": [],
      "name": "StrategyDebtIsLessThanAssetsNeeded",
      "type": "error"
    },
    {
      "inputs": [],
      "name": "StrategyHasDebt",
      "type": "error"
    },
    {
      "inputs": [],
      "name": "StrategyHasUnrealisedLosses",
      "type": "error"
    },
    {
      "inputs": [],
      "name": "StrategyIsShutdown",
      "type": "error"
    },
    {
      "inputs": [],
      "name": "TooMuchLoss",
      "type": "error"
    },
    {
      "inputs": [],
      "name": "UsingModule",
      "type": "error"
    },
    {
      "inputs": [],
      "name": "ZeroAddress",
      "type": "error"
    },
    {
      "inputs": [],
      "name": "ZeroValue",
      "type": "error"
    },
    {
      "anonymous": false,
      "inputs": [
        {
          "indexed": true,
          "internalType": "address",
          "name": "strategy",
          "type": "address"
        },
        {
          "indexed": false,
          "internalType": "uint256",
          "name": "amount",
          "type": "uint256"
        }
      ],
      "name": "DebtPurchased",
      "type": "event"
    },
    {
      "anonymous": false,
      "inputs": [
        {
          "indexed": true,
          "internalType": "address",
          "name": "strategy",
          "type": "address"
        },
        {
          "indexed": false,
          "internalType": "uint256",
          "name": "currentDebt",
          "type": "uint256"
        },
        {
          "indexed": false,
          "internalType": "uint256",
          "name": "newDebt",
          "type": "uint256"
        }
      ],
      "name": "DebtUpdated",
      "type": "event"
    },
    {
      "anonymous": false,
      "inputs": [
        {
          "indexed": true,
          "internalType": "bytes32",
          "name": "role",
          "type": "bytes32"
        },
        {
          "indexed": true,
          "internalType": "bytes32",
          "name": "previousAdminRole",
          "type": "bytes32"
        },
        {
          "indexed": true,
          "internalType": "bytes32",
          "name": "newAdminRole",
          "type": "bytes32"
        }
      ],
      "name": "RoleAdminChanged",
      "type": "event"
    },
    {
      "anonymous": false,
      "inputs": [
        {
          "indexed": true,
          "internalType": "bytes32",
          "name": "role",
          "type": "bytes32"
        },
        {
          "indexed": true,
          "internalType": "address",
          "name": "account",
          "type": "address"
        },
        {
          "indexed": true,
          "internalType": "address",
          "name": "sender",
          "type": "address"
        }
      ],
      "name": "RoleGranted",
      "type": "event"
    },
    {
      "anonymous": false,
      "inputs": [
        {
          "indexed": true,
          "internalType": "bytes32",
          "name": "role",
          "type": "bytes32"
        },
        {
          "indexed": true,
          "internalType": "address",
          "name": "account",
          "type": "address"
        },
        {
          "indexed": true,
          "internalType": "address",
          "name": "sender",
          "type": "address"
        }
      ],
      "name": "RoleRevoked",
      "type": "event"
    },
    {
      "anonymous": false,
      "inputs": [
        {
          "indexed": true,
          "internalType": "address",
          "name": "account",
          "type": "address"
        },
        {
          "indexed": false,
          "internalType": "bytes32",
          "name": "role",
          "type": "bytes32"
        }
      ],
      "name": "RoleSet",
      "type": "event"
    },
    {
      "anonymous": false,
      "inputs": [
        {
          "indexed": true,
          "internalType": "bytes32",
          "name": "role",
          "type": "bytes32"
        },
        {
          "indexed": true,
          "internalType": "enum RoleStatusChange",
          "name": "status",
          "type": "uint8"
        }
      ],
      "name": "RoleStatusChanged",
      "type": "event"
    },
    {
      "anonymous": false,
      "inputs": [],
      "name": "Shutdown",
      "type": "event"
    },
    {
      "anonymous": false,
      "inputs": [
        {
          "indexed": true,
          "internalType": "address",
          "name": "strategy",
          "type": "address"
        },
        {
          "indexed": false,
          "internalType": "enum StrategyChangeType",
          "name": "changeType",
          "type": "uint8"
        }
      ],
      "name": "StrategyChanged",
      "type": "event"
    },
    {
      "anonymous": false,
      "inputs": [
        {
          "indexed": true,
          "internalType": "address",
          "name": "strategy",
          "type": "address"
        },
        {
          "indexed": false,
          "internalType": "uint256",
          "name": "gain",
          "type": "uint256"
        },
        {
          "indexed": false,
          "internalType": "uint256",
          "name": "loss",
          "type": "uint256"
        },
        {
          "indexed": false,
          "internalType": "uint256",
          "name": "currentDebt",
          "type": "uint256"
        },
        {
          "indexed": false,
          "internalType": "uint256",
          "name": "protocolFees",
          "type": "uint256"
        },
        {
          "indexed": false,
          "internalType": "uint256",
          "name": "totalFees",
          "type": "uint256"
        },
        {
          "indexed": false,
          "internalType": "uint256",
          "name": "totalRefunds",
          "type": "uint256"
        }
      ],
      "name": "StrategyReported",
      "type": "event"
    },
    {
      "anonymous": false,
      "inputs": [
        {
          "indexed": true,
          "internalType": "address",
          "name": "accountant",
          "type": "address"
        }
      ],
      "name": "UpdateAccountant",
      "type": "event"
    },
    {
      "anonymous": false,
      "inputs": [
        {
          "indexed": false,
          "internalType": "address[]",
          "name": "newDefaultQueue",
          "type": "address[]"
        }
      ],
      "name": "UpdateDefaultQueue",
      "type": "event"
    },
    {
      "anonymous": false,
      "inputs": [
        {
          "indexed": false,
          "internalType": "uint256",
          "name": "depositLimit",
          "type": "uint256"
        }
      ],
      "name": "UpdateDepositLimit",
      "type": "event"
    },
    {
      "anonymous": false,
      "inputs": [
        {
          "indexed": true,
          "internalType": "address",
          "name": "depositLimitModule",
          "type": "address"
        }
      ],
      "name": "UpdateDepositLimitModule",
      "type": "event"
    },
    {
      "anonymous": false,
      "inputs": [
        {
          "indexed": false,
          "internalType": "uint256",
          "name": "minimumTotalIdle",
          "type": "uint256"
        }
      ],
      "name": "UpdateMinimumTotalIdle",
      "type": "event"
    },
    {
      "anonymous": false,
      "inputs": [
        {
          "indexed": false,
          "internalType": "uint256",
          "name": "profitMaxUnlockTime",
          "type": "uint256"
        }
      ],
      "name": "UpdateProfitMaxUnlockTime",
      "type": "event"
    },
    {
      "anonymous": false,
      "inputs": [
        {
          "indexed": true,
          "internalType": "address",
          "name": "roleManager",
          "type": "address"
        }
      ],
      "name": "UpdateRoleManager",
      "type": "event"
    },
    {
      "anonymous": false,
      "inputs": [
        {
          "indexed": false,
          "internalType": "bool",
          "name": "useDefaultQueue",
          "type": "bool"
        }
      ],
      "name": "UpdateUseDefaultQueue",
      "type": "event"
    },
    {
      "anonymous": false,
      "inputs": [
        {
          "indexed": true,
          "internalType": "address",
          "name": "withdrawLimitModule",
          "type": "address"
        }
      ],
      "name": "UpdateWithdrawLimitModule",
      "type": "event"
    },
    {
      "anonymous": false,
      "inputs": [
        {
          "indexed": true,
          "internalType": "address",
          "name": "sender",
          "type": "address"
        },
        {
          "indexed": true,
          "internalType": "address",
          "name": "strategy",
          "type": "address"
        },
        {
          "indexed": false,
          "internalType": "uint256",
          "name": "newDebt",
          "type": "uint256"
        }
      ],
      "name": "UpdatedMaxDebtForStrategy",
      "type": "event"
    },
    {
      "inputs": [],
      "name": "ACCOUNTANT_MANAGER",
      "outputs": [
        {
          "internalType": "bytes32",
          "name": "",
          "type": "bytes32"
        }
      ],
      "stateMutability": "view",
      "type": "function"
    },
    {
      "inputs": [],
      "name": "ADD_STRATEGY_MANAGER",
      "outputs": [
        {
          "internalType": "bytes32",
          "name": "",
          "type": "bytes32"
        }
      ],
      "stateMutability": "view",
      "type": "function"
    },
    {
      "inputs": [],
      "name": "API_VERSION",
      "outputs": [
        {
          "internalType": "string",
          "name": "",
          "type": "string"
        }
      ],
      "stateMutability": "view",
      "type": "function"
    },
    {
      "inputs": [],
      "name": "DEBT_MANAGER",
      "outputs": [
        {
          "internalType": "bytes32",
          "name": "",
          "type": "bytes32"
        }
      ],
      "stateMutability": "view",
      "type": "function"
    },
    {
      "inputs": [],
      "name": "DEBT_PURCHASER",
      "outputs": [
        {
          "internalType": "bytes32",
          "name": "",
          "type": "bytes32"
        }
      ],
      "stateMutability": "view",
      "type": "function"
    },
    {
      "inputs": [],
      "name": "DEFAULT_ADMIN_ROLE",
      "outputs": [
        {
          "internalType": "bytes32",
          "name": "",
          "type": "bytes32"
        }
      ],
      "stateMutability": "view",
      "type": "function"
    },
    {
      "inputs": [],
      "name": "DEPOSIT_LIMIT_MANAGER",
      "outputs": [
        {
          "internalType": "bytes32",
          "name": "",
          "type": "bytes32"
        }
      ],
      "stateMutability": "view",
      "type": "function"
    },
    {
      "inputs": [],
      "name": "DOMAIN_SEPARATOR",
      "outputs": [
        {
          "internalType": "bytes32",
          "name": "",
          "type": "bytes32"
        }
      ],
      "stateMutability": "view",
      "type": "function"
    },
    {
      "inputs": [],
      "name": "DOMAIN_TYPE_HASH",
      "outputs": [
        {
          "internalType": "bytes32",
          "name": "",
          "type": "bytes32"
        }
      ],
      "stateMutability": "view",
      "type": "function"
    },
    {
      "inputs": [],
      "name": "EMERGENCY_MANAGER",
      "outputs": [
        {
          "internalType": "bytes32",
          "name": "",
          "type": "bytes32"
        }
      ],
      "stateMutability": "view",
      "type": "function"
    },
    {
      "inputs": [],
      "name": "FACTORY",
      "outputs": [
        {
          "internalType": "address",
          "name": "",
          "type": "address"
        }
      ],
      "stateMutability": "view",
      "type": "function"
    },
    {
      "inputs": [],
      "name": "FORCE_REVOKE_MANAGER",
      "outputs": [
        {
          "internalType": "bytes32",
          "name": "",
          "type": "bytes32"
        }
      ],
      "stateMutability": "view",
      "type": "function"
    },
    {
      "inputs": [],
      "name": "MAX_BPS",
      "outputs": [
        {
          "internalType": "uint256",
          "name": "",
          "type": "uint256"
        }
      ],
      "stateMutability": "view",
      "type": "function"
    },
    {
      "inputs": [],
      "name": "MAX_BPS_EXTENDED",
      "outputs": [
        {
          "internalType": "uint256",
          "name": "",
          "type": "uint256"
        }
      ],
      "stateMutability": "view",
      "type": "function"
    },
    {
      "inputs": [],
      "name": "MAX_DEBT_MANAGER",
      "outputs": [
        {
          "internalType": "bytes32",
          "name": "",
          "type": "bytes32"
        }
      ],
      "stateMutability": "view",
      "type": "function"
    },
    {
      "inputs": [],
      "name": "MAX_QUEUE",
      "outputs": [
        {
          "internalType": "uint256",
          "name": "",
          "type": "uint256"
        }
      ],
      "stateMutability": "view",
      "type": "function"
    },
    {
      "inputs": [],
      "name": "MINIMUM_IDLE_MANAGER",
      "outputs": [
        {
          "internalType": "bytes32",
          "name": "",
          "type": "bytes32"
        }
      ],
      "stateMutability": "view",
      "type": "function"
    },
    {
      "inputs": [],
      "name": "ONE_YEAR",
      "outputs": [
        {
          "internalType": "uint256",
          "name": "",
          "type": "uint256"
        }
      ],
      "stateMutability": "view",
      "type": "function"
    },
    {
      "inputs": [],
      "name": "PERMIT_TYPE_HASH",
      "outputs": [
        {
          "internalType": "bytes32",
          "name": "",
          "type": "bytes32"
        }
      ],
      "stateMutability": "view",
      "type": "function"
    },
    {
      "inputs": [],
      "name": "PROFIT_UNLOCK_MANAGER",
      "outputs": [
        {
          "internalType": "bytes32",
          "name": "",
          "type": "bytes32"
        }
      ],
      "stateMutability": "view",
      "type": "function"
    },
    {
      "inputs": [],
      "name": "QUEUE_MANAGER",
      "outputs": [
        {
          "internalType": "bytes32",
          "name": "",
          "type": "bytes32"
        }
      ],
      "stateMutability": "view",
      "type": "function"
    },
    {
      "inputs": [],
      "name": "REPORTING_MANAGER",
      "outputs": [
        {
          "internalType": "bytes32",
          "name": "",
          "type": "bytes32"
        }
      ],
      "stateMutability": "view",
      "type": "function"
    },
    {
      "inputs": [],
      "name": "REVOKE_STRATEGY_MANAGER",
      "outputs": [
        {
          "internalType": "bytes32",
          "name": "",
          "type": "bytes32"
        }
      ],
      "stateMutability": "view",
      "type": "function"
    },
    {
      "inputs": [],
      "name": "ROLE_MANAGER",
      "outputs": [
        {
          "internalType": "bytes32",
          "name": "",
          "type": "bytes32"
        }
      ],
      "stateMutability": "view",
      "type": "function"
    },
    {
      "inputs": [],
      "name": "WITHDRAW_LIMIT_MANAGER",
      "outputs": [
        {
          "internalType": "bytes32",
          "name": "",
          "type": "bytes32"
        }
      ],
      "stateMutability": "view",
      "type": "function"
    },
    {
      "inputs": [],
      "name": "accountant",
      "outputs": [
        {
          "internalType": "address",
          "name": "",
          "type": "address"
        }
      ],
      "stateMutability": "view",
      "type": "function"
    },
    {
      "inputs": [
        {
          "internalType": "address",
          "name": "newStrategy",
          "type": "address"
        }
      ],
      "name": "addStrategy",
      "outputs": [],
      "stateMutability": "nonpayable",
      "type": "function"
    },
    {
      "inputs": [
        {
          "internalType": "address",
          "name": "owner",
          "type": "address"
        },
        {
          "internalType": "address",
          "name": "spender",
          "type": "address"
        }
      ],
      "name": "allowance",
      "outputs": [
        {
          "internalType": "uint256",
          "name": "",
          "type": "uint256"
        }
      ],
      "stateMutability": "view",
      "type": "function"
    },
    {
      "inputs": [
        {
          "internalType": "address",
          "name": "spender",
          "type": "address"
        },
        {
          "internalType": "uint256",
          "name": "amount",
          "type": "uint256"
        }
      ],
      "name": "approve",
      "outputs": [
        {
          "internalType": "bool",
          "name": "",
          "type": "bool"
        }
      ],
      "stateMutability": "nonpayable",
      "type": "function"
    },
    {
      "inputs": [],
      "name": "asset",
      "outputs": [
        {
          "internalType": "address",
          "name": "",
          "type": "address"
        }
      ],
      "stateMutability": "view",
      "type": "function"
    },
    {
      "inputs": [
        {
          "internalType": "address",
          "name": "addr",
          "type": "address"
        }
      ],
      "name": "balanceOf",
      "outputs": [
        {
          "internalType": "uint256",
          "name": "",
          "type": "uint256"
        }
      ],
      "stateMutability": "view",
      "type": "function"
    },
    {
      "inputs": [
        {
          "internalType": "address",
          "name": "strategy",
          "type": "address"
        },
        {
          "internalType": "uint256",
          "name": "amount",
          "type": "uint256"
        }
      ],
      "name": "buyDebt",
      "outputs": [],
      "stateMutability": "nonpayable",
      "type": "function"
    },
    {
      "inputs": [
        {
          "internalType": "uint256",
          "name": "shares",
          "type": "uint256"
        }
      ],
      "name": "convertToAssets",
      "outputs": [
        {
          "internalType": "uint256",
          "name": "",
          "type": "uint256"
        }
      ],
      "stateMutability": "view",
      "type": "function"
    },
    {
      "inputs": [
        {
          "internalType": "uint256",
          "name": "assets",
          "type": "uint256"
        }
      ],
      "name": "convertToShares",
      "outputs": [
        {
          "internalType": "uint256",
          "name": "",
          "type": "uint256"
        }
      ],
      "stateMutability": "view",
      "type": "function"
    },
    {
      "inputs": [],
      "name": "decimals",
      "outputs": [
        {
          "internalType": "uint8",
          "name": "",
          "type": "uint8"
        }
      ],
      "stateMutability": "view",
      "type": "function"
    },
    {
      "inputs": [
        {
          "internalType": "address",
          "name": "spender",
          "type": "address"
        },
        {
          "internalType": "uint256",
          "name": "amount",
          "type": "uint256"
        }
      ],
      "name": "decreaseAllowance",
      "outputs": [
        {
          "internalType": "bool",
          "name": "",
          "type": "bool"
        }
      ],
      "stateMutability": "nonpayable",
      "type": "function"
    },
    {
      "inputs": [
        {
          "internalType": "uint256",
          "name": "",
          "type": "uint256"
        }
      ],
      "name": "defaultQueue",
      "outputs": [
        {
          "internalType": "address",
          "name": "",
          "type": "address"
        }
      ],
      "stateMutability": "view",
      "type": "function"
    },
    {
      "inputs": [
        {
          "internalType": "uint256",
          "name": "assets",
          "type": "uint256"
        },
        {
          "internalType": "address",
          "name": "receiver",
          "type": "address"
        }
      ],
      "name": "deposit",
      "outputs": [
        {
          "internalType": "uint256",
          "name": "",
          "type": "uint256"
        }
      ],
      "stateMutability": "nonpayable",
      "type": "function"
    },
    {
      "inputs": [],
      "name": "depositLimit",
      "outputs": [
        {
          "internalType": "uint256",
          "name": "",
          "type": "uint256"
        }
      ],
      "stateMutability": "view",
      "type": "function"
    },
    {
      "inputs": [],
      "name": "depositLimitModule",
      "outputs": [
        {
          "internalType": "address",
          "name": "",
          "type": "address"
        }
      ],
      "stateMutability": "view",
      "type": "function"
    },
    {
      "inputs": [
        {
          "internalType": "address",
          "name": "strategy",
          "type": "address"
        }
      ],
      "name": "forceRevokeStrategy",
      "outputs": [],
      "stateMutability": "nonpayable",
      "type": "function"
    },
    {
      "inputs": [],
      "name": "fullProfitUnlockDate",
      "outputs": [
        {
          "internalType": "uint256",
          "name": "",
          "type": "uint256"
        }
      ],
      "stateMutability": "view",
      "type": "function"
    },
    {
      "inputs": [],
      "name": "futureRoleManager",
      "outputs": [
        {
          "internalType": "address",
          "name": "",
          "type": "address"
        }
      ],
      "stateMutability": "view",
      "type": "function"
    },
    {
      "inputs": [
        {
          "internalType": "bytes32",
          "name": "role",
          "type": "bytes32"
        }
      ],
      "name": "getRoleAdmin",
      "outputs": [
        {
          "internalType": "bytes32",
          "name": "",
          "type": "bytes32"
        }
      ],
      "stateMutability": "view",
      "type": "function"
    },
    {
      "inputs": [],
      "name": "governance",
      "outputs": [
        {
          "internalType": "address",
          "name": "",
          "type": "address"
        }
      ],
      "stateMutability": "view",
      "type": "function"
    },
    {
      "inputs": [
        {
          "internalType": "bytes32",
          "name": "role",
          "type": "bytes32"
        },
        {
          "internalType": "address",
          "name": "account",
          "type": "address"
        }
      ],
      "name": "grantRole",
      "outputs": [],
      "stateMutability": "nonpayable",
      "type": "function"
    },
    {
      "inputs": [
        {
          "internalType": "bytes32",
          "name": "role",
          "type": "bytes32"
        },
        {
          "internalType": "address",
          "name": "account",
          "type": "address"
        }
      ],
      "name": "hasRole",
      "outputs": [
        {
          "internalType": "bool",
          "name": "",
          "type": "bool"
        }
      ],
      "stateMutability": "view",
      "type": "function"
    },
    {
      "inputs": [
        {
          "internalType": "address",
          "name": "spender",
          "type": "address"
        },
        {
          "internalType": "uint256",
          "name": "amount",
          "type": "uint256"
        }
      ],
      "name": "increaseAllowance",
      "outputs": [
        {
          "internalType": "bool",
          "name": "",
          "type": "bool"
        }
      ],
      "stateMutability": "nonpayable",
      "type": "function"
    },
    {
      "inputs": [],
      "name": "lastProfitUpdate",
      "outputs": [
        {
          "internalType": "uint256",
          "name": "",
          "type": "uint256"
        }
      ],
      "stateMutability": "view",
      "type": "function"
    },
    {
      "inputs": [
        {
          "internalType": "address",
          "name": "receiver",
          "type": "address"
        }
      ],
      "name": "maxDeposit",
      "outputs": [
        {
          "internalType": "uint256",
          "name": "",
          "type": "uint256"
        }
      ],
      "stateMutability": "view",
      "type": "function"
    },
    {
      "inputs": [
        {
          "internalType": "address",
          "name": "receiver",
          "type": "address"
        }
      ],
      "name": "maxMint",
      "outputs": [
        {
          "internalType": "uint256",
          "name": "",
          "type": "uint256"
        }
      ],
      "stateMutability": "view",
      "type": "function"
    },
    {
      "inputs": [
        {
          "internalType": "address",
          "name": "owner",
          "type": "address"
        },
        {
          "internalType": "uint256",
          "name": "maxLoss",
          "type": "uint256"
        },
        {
          "internalType": "address[]",
          "name": "_strategies",
          "type": "address[]"
        }
      ],
      "name": "maxRedeem",
      "outputs": [
        {
          "internalType": "uint256",
          "name": "",
          "type": "uint256"
        }
      ],
      "stateMutability": "nonpayable",
      "type": "function"
    },
    {
      "inputs": [
        {
          "internalType": "address",
          "name": "owner",
          "type": "address"
        },
        {
          "internalType": "uint256",
          "name": "maxLoss",
          "type": "uint256"
        },
        {
          "internalType": "address[]",
          "name": "_strategies",
          "type": "address[]"
        }
      ],
      "name": "maxWithdraw",
      "outputs": [
        {
          "internalType": "uint256",
          "name": "",
          "type": "uint256"
        }
      ],
      "stateMutability": "nonpayable",
      "type": "function"
    },
    {
      "inputs": [],
      "name": "minimumTotalIdle",
      "outputs": [
        {
          "internalType": "uint256",
          "name": "",
          "type": "uint256"
        }
      ],
      "stateMutability": "view",
      "type": "function"
    },
    {
      "inputs": [
        {
          "internalType": "uint256",
          "name": "shares",
          "type": "uint256"
        },
        {
          "internalType": "address",
          "name": "receiver",
          "type": "address"
        }
      ],
      "name": "mint",
      "outputs": [
        {
          "internalType": "uint256",
          "name": "",
          "type": "uint256"
        }
      ],
      "stateMutability": "nonpayable",
      "type": "function"
    },
    {
      "inputs": [
        {
          "internalType": "address",
          "name": "",
          "type": "address"
        }
      ],
      "name": "nonces",
      "outputs": [
        {
          "internalType": "uint256",
          "name": "",
          "type": "uint256"
        }
      ],
      "stateMutability": "view",
      "type": "function"
    },
    {
      "inputs": [
        {
          "internalType": "bytes32",
          "name": "",
          "type": "bytes32"
        }
      ],
      "name": "openRoles",
      "outputs": [
        {
          "internalType": "bool",
          "name": "",
          "type": "bool"
        }
      ],
      "stateMutability": "view",
      "type": "function"
    },
    {
      "inputs": [
        {
          "internalType": "address",
          "name": "owner",
          "type": "address"
        },
        {
          "internalType": "address",
          "name": "spender",
          "type": "address"
        },
        {
          "internalType": "uint256",
          "name": "amount",
          "type": "uint256"
        },
        {
          "internalType": "uint256",
          "name": "deadline",
          "type": "uint256"
        },
        {
          "internalType": "uint8",
          "name": "v",
          "type": "uint8"
        },
        {
          "internalType": "bytes32",
          "name": "r",
          "type": "bytes32"
        },
        {
          "internalType": "bytes32",
          "name": "s",
          "type": "bytes32"
        }
      ],
      "name": "permit",
      "outputs": [
        {
          "internalType": "bool",
          "name": "",
          "type": "bool"
        }
      ],
      "stateMutability": "nonpayable",
      "type": "function"
    },
    {
      "inputs": [
        {
          "internalType": "uint256",
          "name": "assets",
          "type": "uint256"
        }
      ],
      "name": "previewDeposit",
      "outputs": [
        {
          "internalType": "uint256",
          "name": "",
          "type": "uint256"
        }
      ],
      "stateMutability": "view",
      "type": "function"
    },
    {
      "inputs": [
        {
          "internalType": "uint256",
          "name": "shares",
          "type": "uint256"
        }
      ],
      "name": "previewMint",
      "outputs": [
        {
          "internalType": "uint256",
          "name": "",
          "type": "uint256"
        }
      ],
      "stateMutability": "view",
      "type": "function"
    },
    {
      "inputs": [
        {
          "internalType": "uint256",
          "name": "shares",
          "type": "uint256"
        }
      ],
      "name": "previewRedeem",
      "outputs": [
        {
          "internalType": "uint256",
          "name": "",
          "type": "uint256"
        }
      ],
      "stateMutability": "view",
      "type": "function"
    },
    {
      "inputs": [
        {
          "internalType": "uint256",
          "name": "assets",
          "type": "uint256"
        }
      ],
      "name": "previewWithdraw",
      "outputs": [
        {
          "internalType": "uint256",
          "name": "",
          "type": "uint256"
        }
      ],
      "stateMutability": "view",
      "type": "function"
    },
    {
      "inputs": [],
      "name": "pricePerShare",
      "outputs": [
        {
          "internalType": "uint256",
          "name": "",
          "type": "uint256"
        }
      ],
      "stateMutability": "view",
      "type": "function"
    },
    {
      "inputs": [
        {
          "internalType": "address",
          "name": "strategy",
          "type": "address"
        }
      ],
      "name": "processReport",
      "outputs": [
        {
          "internalType": "uint256",
          "name": "",
          "type": "uint256"
        },
        {
          "internalType": "uint256",
          "name": "",
          "type": "uint256"
        }
      ],
      "stateMutability": "nonpayable",
      "type": "function"
    },
    {
      "inputs": [],
      "name": "profitMaxUnlockTime",
      "outputs": [
        {
          "internalType": "uint256",
          "name": "",
          "type": "uint256"
        }
      ],
      "stateMutability": "view",
      "type": "function"
    },
    {
      "inputs": [],
      "name": "profitUnlockingRate",
      "outputs": [
        {
          "internalType": "uint256",
          "name": "",
          "type": "uint256"
        }
      ],
      "stateMutability": "view",
      "type": "function"
    },
    {
      "inputs": [
        {
          "internalType": "uint256",
          "name": "shares",
          "type": "uint256"
        },
        {
          "internalType": "address",
          "name": "receiver",
          "type": "address"
        },
        {
          "internalType": "address",
          "name": "owner",
          "type": "address"
        },
        {
          "internalType": "uint256",
          "name": "maxLoss",
          "type": "uint256"
        },
        {
          "internalType": "address[]",
          "name": "_strategies",
          "type": "address[]"
        }
      ],
      "name": "redeem",
      "outputs": [
        {
          "internalType": "uint256",
          "name": "",
          "type": "uint256"
        }
      ],
      "stateMutability": "nonpayable",
      "type": "function"
    },
    {
      "inputs": [
        {
          "internalType": "bytes32",
          "name": "role",
          "type": "bytes32"
        },
        {
          "internalType": "address",
          "name": "account",
          "type": "address"
        }
      ],
      "name": "renounceRole",
      "outputs": [],
      "stateMutability": "nonpayable",
      "type": "function"
    },
    {
      "inputs": [
        {
          "internalType": "bytes32",
          "name": "role",
          "type": "bytes32"
        },
        {
          "internalType": "address",
          "name": "account",
          "type": "address"
        }
      ],
      "name": "revokeRole",
      "outputs": [],
      "stateMutability": "nonpayable",
      "type": "function"
    },
    {
      "inputs": [
        {
          "internalType": "address",
          "name": "strategy",
          "type": "address"
        }
      ],
      "name": "revokeStrategy",
      "outputs": [],
      "stateMutability": "nonpayable",
      "type": "function"
    },
    {
      "inputs": [],
      "name": "roleManager",
      "outputs": [
        {
          "internalType": "address",
          "name": "",
          "type": "address"
        }
      ],
      "stateMutability": "view",
      "type": "function"
    },
    {
      "inputs": [
        {
          "internalType": "address",
          "name": "",
          "type": "address"
        }
      ],
      "name": "roles",
      "outputs": [
        {
          "internalType": "bytes32",
          "name": "",
          "type": "bytes32"
        }
      ],
      "stateMutability": "view",
      "type": "function"
    },
    {
      "inputs": [
        {
          "internalType": "address",
          "name": "newAccountant",
          "type": "address"
        }
      ],
      "name": "setAccountant",
      "outputs": [],
      "stateMutability": "nonpayable",
      "type": "function"
    },
    {
      "inputs": [
        {
          "internalType": "address[]",
          "name": "newDefaultQueue",
          "type": "address[]"
        }
      ],
      "name": "setDefaultQueue",
      "outputs": [],
      "stateMutability": "nonpayable",
      "type": "function"
    },
    {
      "inputs": [
        {
          "internalType": "uint256",
          "name": "_depositLimit",
          "type": "uint256"
        }
      ],
      "name": "setDepositLimit",
      "outputs": [],
      "stateMutability": "nonpayable",
      "type": "function"
    },
    {
      "inputs": [
        {
          "internalType": "address",
          "name": "_depositLimitModule",
          "type": "address"
        }
      ],
      "name": "setDepositLimitModule",
      "outputs": [],
      "stateMutability": "nonpayable",
      "type": "function"
    },
    {
      "inputs": [
        {
          "internalType": "uint256",
          "name": "_minimumTotalIdle",
          "type": "uint256"
        }
      ],
      "name": "setMinimumTotalIdle",
      "outputs": [],
      "stateMutability": "nonpayable",
      "type": "function"
    },
    {
      "inputs": [
        {
          "internalType": "uint256",
          "name": "_newProfitMaxUnlockTime",
          "type": "uint256"
        }
      ],
      "name": "setProfitMaxUnlockTime",
      "outputs": [],
      "stateMutability": "nonpayable",
      "type": "function"
    },
    {
      "inputs": [
        {
          "internalType": "bool",
          "name": "_useDefaultQueue",
          "type": "bool"
        }
      ],
      "name": "setUseDefaultQueue",
      "outputs": [],
      "stateMutability": "nonpayable",
      "type": "function"
    },
    {
      "inputs": [
        {
          "internalType": "address",
          "name": "_withdrawLimitModule",
          "type": "address"
        }
      ],
      "name": "setWithdrawLimitModule",
      "outputs": [],
      "stateMutability": "nonpayable",
      "type": "function"
    },
    {
      "inputs": [],
      "name": "setters",
      "outputs": [
        {
          "internalType": "address",
          "name": "",
          "type": "address"
        }
      ],
      "stateMutability": "view",
      "type": "function"
    },
    {
      "inputs": [],
      "name": "sharesManager",
      "outputs": [
        {
          "internalType": "address",
          "name": "",
          "type": "address"
        }
      ],
      "stateMutability": "view",
      "type": "function"
    },
    {
      "inputs": [],
      "name": "shutdown",
      "outputs": [
        {
          "internalType": "bool",
          "name": "",
          "type": "bool"
        }
      ],
      "stateMutability": "view",
      "type": "function"
    },
    {
      "inputs": [],
      "name": "shutdownVault",
      "outputs": [],
      "stateMutability": "nonpayable",
      "type": "function"
    },
    {
      "inputs": [
        {
          "internalType": "address",
          "name": "",
          "type": "address"
        }
      ],
      "name": "strategies",
      "outputs": [
        {
          "internalType": "uint256",
          "name": "activation",
          "type": "uint256"
        },
        {
          "internalType": "uint256",
          "name": "lastReport",
          "type": "uint256"
        },
        {
          "internalType": "uint256",
          "name": "currentDebt",
          "type": "uint256"
        },
        {
          "internalType": "uint256",
          "name": "maxDebt",
          "type": "uint256"
        }
      ],
      "stateMutability": "view",
      "type": "function"
    },
    {
      "inputs": [],
      "name": "strategyManager",
      "outputs": [
        {
          "internalType": "address",
          "name": "",
          "type": "address"
        }
      ],
      "stateMutability": "view",
      "type": "function"
    },
    {
      "inputs": [
        {
          "internalType": "bytes4",
          "name": "interfaceId",
          "type": "bytes4"
        }
      ],
      "name": "supportsInterface",
      "outputs": [
        {
          "internalType": "bool",
          "name": "",
          "type": "bool"
        }
      ],
      "stateMutability": "view",
      "type": "function"
    },
    {
      "inputs": [],
      "name": "totalAssets",
      "outputs": [
        {
          "internalType": "uint256",
          "name": "",
          "type": "uint256"
        }
      ],
      "stateMutability": "view",
      "type": "function"
    },
    {
      "inputs": [],
      "name": "totalDebtAmount",
      "outputs": [
        {
          "internalType": "uint256",
          "name": "",
          "type": "uint256"
        }
      ],
      "stateMutability": "view",
      "type": "function"
    },
    {
      "inputs": [],
      "name": "totalIdleAmount",
      "outputs": [
        {
          "internalType": "uint256",
          "name": "",
          "type": "uint256"
        }
      ],
      "stateMutability": "view",
      "type": "function"
    },
    {
      "inputs": [],
      "name": "totalSupply",
      "outputs": [
        {
          "internalType": "uint256",
          "name": "",
          "type": "uint256"
        }
      ],
      "stateMutability": "view",
      "type": "function"
    },
    {
      "inputs": [],
      "name": "totalSupplyAmount",
      "outputs": [
        {
          "internalType": "uint256",
          "name": "",
          "type": "uint256"
        }
      ],
      "stateMutability": "view",
      "type": "function"
    },
    {
      "inputs": [
        {
          "internalType": "address",
          "name": "receiver",
          "type": "address"
        },
        {
          "internalType": "uint256",
          "name": "amount",
          "type": "uint256"
        }
      ],
      "name": "transfer",
      "outputs": [
        {
          "internalType": "bool",
          "name": "",
          "type": "bool"
        }
      ],
      "stateMutability": "nonpayable",
      "type": "function"
    },
    {
      "inputs": [
        {
          "internalType": "address",
          "name": "sender",
          "type": "address"
        },
        {
          "internalType": "address",
          "name": "receiver",
          "type": "address"
        },
        {
          "internalType": "uint256",
          "name": "amount",
          "type": "uint256"
        }
      ],
      "name": "transferFrom",
      "outputs": [
        {
          "internalType": "bool",
          "name": "",
          "type": "bool"
        }
      ],
      "stateMutability": "nonpayable",
      "type": "function"
    },
    {
      "inputs": [],
      "name": "unlockedShares",
      "outputs": [
        {
          "internalType": "uint256",
          "name": "",
          "type": "uint256"
        }
      ],
      "stateMutability": "view",
      "type": "function"
    },
    {
      "inputs": [
        {
          "internalType": "address",
          "name": "sender",
          "type": "address"
        },
        {
          "internalType": "address",
          "name": "strategy",
          "type": "address"
        },
        {
          "internalType": "uint256",
          "name": "targetDebt",
          "type": "uint256"
        }
      ],
      "name": "updateDebt",
      "outputs": [
        {
          "internalType": "uint256",
          "name": "",
          "type": "uint256"
        }
      ],
      "stateMutability": "nonpayable",
      "type": "function"
    },
    {
      "inputs": [
        {
          "internalType": "address",
          "name": "strategy",
          "type": "address"
        },
        {
          "internalType": "uint256",
          "name": "newMaxDebt",
          "type": "uint256"
        }
      ],
      "name": "updateMaxDebtForStrategy",
      "outputs": [],
      "stateMutability": "nonpayable",
      "type": "function"
    },
    {
      "inputs": [],
      "name": "useDefaultQueue",
      "outputs": [
        {
          "internalType": "bool",
          "name": "",
          "type": "bool"
        }
      ],
      "stateMutability": "view",
      "type": "function"
    },
    {
      "inputs": [
        {
          "internalType": "uint256",
          "name": "assets",
          "type": "uint256"
        },
        {
          "internalType": "address",
          "name": "receiver",
          "type": "address"
        },
        {
          "internalType": "address",
          "name": "owner",
          "type": "address"
        },
        {
          "internalType": "uint256",
          "name": "maxLoss",
          "type": "uint256"
        },
        {
          "internalType": "address[]",
          "name": "_strategies",
          "type": "address[]"
        }
      ],
      "name": "withdraw",
      "outputs": [
        {
          "internalType": "uint256",
          "name": "",
          "type": "uint256"
        }
      ],
      "stateMutability": "nonpayable",
      "type": "function"
    },
    {
      "inputs": [],
      "name": "withdrawLimitModule",
      "outputs": [
        {
          "internalType": "address",
          "name": "",
          "type": "address"
        }
      ],
      "stateMutability": "view",
      "type": "function"
    }
  ],
  "transactionHash": "0xe12d6c215876e5a55cca1bb82161ce557f1f68f6e7b017b375b079b3e02cdb3d",
  "args": [
    31536000,
    "0xAAfD08F178634F031d2e514261175995A1E91dC8",
    "0x3C1FDB4342C0443aa9D8A3803c3981F149b9BDDc",
    "0xD8E148D42CAfbff410B470A7382E9db9B9Ec5Ed5",
    "0x850337Cd0441B5B0059103aBC5c7E15079F4812A"
  ],
  "numDeployments": 2,
  "solcInputHash": "1a937c650d778b17b6c2aa6f56d6a3c2",
  "bytecode": "0x60c06040526301e185586080523480156200001957600080fd5b506040516200347e3803806200347e8339810160408190526200003c91620003ad565b600180553360a052608051851115620000685760405163fdfbb0b760e01b815260040160405180910390fd5b6017859055600280546001600160a01b038087166001600160a01b03199283161790925560038054868416908316179055600480548584169083161790556005805492841692909116919091179055620000c4600033620002b1565b620000f07f2f0dbbe8c2c0170206c50ec0cafa1c0dbd03e73e67c2a960178df30a0a30ee2e33620002b1565b6200011c7f2a0e761830cc61f2707ea7bb138008bf9dda7f7d34c77736d0a116604e95ea1633620002b1565b620001487f7cbb3cdf689b8ea3e9d265f66bc4e0a99069268217017d38d2a5a559abc6271933620002b1565b620001747f152ebba56b9738ee3d8baea1b76fa31dcdcd79b1929bfea7d58ee12cfdf1a65333620002b1565b620001a07f633076a97f32ae349b28772e7b1483f67a926f150cbc501d02bdbd77389325ab33620002b1565b600354604080516306fdde0360e01b815290517f8b73c3c69bb8fe3d512ecc4cf759cc79239f7b179b0ffacaa9a75d522b39400f926001600160a01b0316916306fdde039160048083019260009291908290030181865afa1580156200020a573d6000803e3d6000fd5b505050506040513d6000823e601f3d908101601f1916820160405262000234919081019062000561565b805160209182012060408051808201825260058152640312e302e360dc1b90840152516200028a93927f06c015bd22b4c69690933c1058878ebdfef31f9aaae40bbe86d8a09fe1b2972c914691309101620005b4565b60405160208183030381529060405280519060200120601c8190555050505050506200060a565b620002bd82826200033a565b62000336576000828152602081815260408083206001600160a01b03851684529091529020805460ff19166001179055620002f53390565b6001600160a01b0316816001600160a01b0316837f2f8788117e7eff1d82e926ec794901d17c78024a50270940304540a733656f0d60405160405180910390a45b5050565b6000828152602081815260408083206001600160a01b038516845290915290205460ff165b92915050565b805b81146200037357600080fd5b50565b80516200035f8162000365565b60006001600160a01b0382166200035f565b620003678162000383565b80516200035f8162000395565b600080600080600060a08688031215620003ca57620003ca600080fd5b6000620003d8888862000376565b9550506020620003eb88828901620003a0565b9450506040620003fe88828901620003a0565b93505060606200041188828901620003a0565b92505060806200042488828901620003a0565b9150509295509295909350565b634e487b7160e01b600052604160045260246000fd5b601f19601f83011681018181106001600160401b03821117156200046f576200046f62000431565b6040525050565b60006200048260405190565b905062000490828262000447565b919050565b60006001600160401b03821115620004b157620004b162000431565b601f19601f83011660200192915050565b60005b83811015620004df578181015183820152602001620004c5565b50506000910152565b6000620004ff620004f98462000495565b62000476565b9050828152602081018484840111156200051c576200051c600080fd5b62000529848285620004c2565b509392505050565b600082601f830112620005475762000547600080fd5b815162000559848260208601620004e8565b949350505050565b600060208284031215620005785762000578600080fd5b81516001600160401b03811115620005935762000593600080fd5b620005598482850162000531565b805b82525050565b620005a38162000383565b60a08101620005c48288620005a1565b620005d36020830187620005a1565b620005e26040830186620005a1565b620005f16060830185620005a1565b620006006080830184620005a9565b9695505050505050565b60805160a051612e4e620006306000396000610604015260006105800152612e4e6000f3fe608060405234801561001057600080fd5b506004361061047b5760003560e01c806377e3b2671161025557806377e3b267146108725780637ecebe00146108a35780638212fd43146108c35780638afca8f0146108d657806391986003146108df57806391d14854146108f257806394bf804d14610905578063993746421461091857806399530b06146109385780639bbca884146109405780639e34e348146109535780639f3988f314610966578063a217fddf1461097b578063a457c2d714610983578063a835cd8114610996578063a9059cbb146109a9578063a98222c4146109bc578063ab5b4d49146109d1578063acded97d146109e6578063b3c187f2146109f9578063b3d7f6b914610a0c578063b6cc2d1f14610a1f578063bb994d4814610a40578063bbe4eb4914610a53578063bdc8144b14610a60578063bee7e3d914610a73578063c065ca0714610a86578063c0993eea14610a9b578063c63d75b614610ac2578063c6e6f59214610ad5578063c8d74b6014610ae8578063c8dffa9514610afd578063d4ae064f14610b06578063d505accf14610b1b578063d547741f14610b2e578063d81a09f614610b41578063d9a0e97a14610b54578063dd62ed3e14610b5c578063df69b22a14610b6f578063e5236cc914610b82578063ecf7085814610b8a578063ef8b30f714610ad5578063f1daeba814610b93578063f5b944eb14610ba8578063f6d7bfa014610bcf578063f828f50b14610be2578063fc0e74d114610beb578063fd967f4714610bff578063fec61f0614610c08578063ff1e7f0814610c1d57600080fd5b8062435da51461048057806301e1d114146104a957806301ffc9a7146104be57806303dcd12c146104de57806306580f2d146104f357806307a2d13a146105065780630835a3fc146105195780630952864e14610522578063095ea7b31461052b5780630a28a4771461053e5780630ad283d01461055157806316b87ac01461056657806316d3bfbb1461057b57806318160ddd146105a2578063223e5479146105aa57806323b872dd146105bd578063248a9ca3146105d05780632d632692146105e35780632d772168146105ec5780632dd31000146105ff5780632f2ff15d14610626578063313ce5671461063957806334b5fab61461064e5780633644e5151461066157806336568abe1461066a57806336fba0841461067d57806338d52e0f14610689578063395093511461069157806339b70e38146106a457806339ebf823146106b75780633cd7b5ab146106fc5780633f7b5e4014610705578063402d267d1461070d578063405977e71461072057806348ea7127146107335780634bbd71e9146107465780634cdad506146105065780634ce1d38a146107595780634cfe51dc1461076e5780634d4bb197146107835780634fb3ccc5146107aa5780635141eebb146107bd57806353a66132146107c65780635aa6e675146107e95780635bf6b4fb146107fc578063633f228c14610811578063652da3241461082457806365cb6765146108395780636e553f651461084c57806370a082311461085f575b600080fd5b601554610493906001600160a01b031681565b6040516104a09190612017565b60405180910390f35b6104b1610c30565b6040516104a0919061202b565b6104d16104cc36600461205b565b610ca2565b6040516104a09190612084565b6104b1600080516020612c9983398151915281565b6104b16105013660046121c7565b610cd9565b6104b1610514366004612259565b610d72565b6104b1600e5481565b6104b160175481565b6104d161053936600461227a565b610d7f565b6104b161054c366004612259565b610dfe565b6104b1600080516020612cb983398151915281565b6105796105743660046122b7565b610e0b565b005b6104b17f000000000000000000000000000000000000000000000000000000000000000081565b6104b1610e8c565b6105796105b83660046122b7565b610ed6565b6104d16105cb3660046122d8565b610f1e565b6104b16105de366004612259565b610fdb565b6104b160185481565b6105796105fa3660046122b7565b610ff0565b6104937f000000000000000000000000000000000000000000000000000000000000000081565b610579610634366004612328565b611037565b610641611058565b6040516104a09190612364565b6104b161065c366004612372565b6110c6565b6104b1601c5481565b610579610678366004612328565b61113e565b6104b164e8d4a5100081565b61049361117d565b6104d161069f36600461227a565b6111eb565b600254610493906001600160a01b031681565b6106ec6106c53660046122b7565b60066020526000908152604090208054600182015460028301546003909301549192909184565b6040516104a094939291906123d2565b6104b1600d5481565b6104b1600a81565b6104b161071b3660046122b7565b611220565b61057961072e36600461227a565b611292565b6105796107413660046122b7565b61131f565b6105796107543660046122b7565b611366565b6104b1600080516020612df983398151915281565b6104b1600080516020612d1983398151915281565b6104b17f6e71edae12b1b97f4d1f60370fef10105fa2faae0126114a169c64845d6126c981565b601054610493906001600160a01b031681565b6104b160195481565b6104d16107d4366004612259565b60146020526000908152604090205460ff1681565b600554610493906001600160a01b031681565b6104b1600080516020612cf983398151915281565b61057961081f366004612458565b6113ad565b6104b1600080516020612c7983398151915281565b6104b1610847366004612372565b61142d565b6104b161085a366004612328565b611462565b6104b161086d3660046122b7565b6114ee565b610896604051806040016040528060058152602001640312e302e360dc1b81525081565b6040516104a091906124f7565b6104b16108b13660046122b7565b601b6020526000908152604090205481565b6105796108d1366004612259565b61151f565b6104b1601a5481565b601254610493906001600160a01b031681565b6104d1610900366004612328565b611566565b6104b1610913366004612328565b61158f565b6104b16109263660046122b7565b60136020526000908152604090205481565b6104b16115cd565b61057961094e36600461251b565b61165b565b601154610493906001600160a01b031681565b6104b1600080516020612d7983398151915281565b6104b1600081565b6104d161099136600461227a565b6116a2565b6104b16109a43660046122d8565b6116d7565b6104d16109b736600461227a565b611783565b6104b1600080516020612dd983398151915281565b6104b1600080516020612d9983398151915281565b600354610493906001600160a01b031681565b601654610493906001600160a01b031681565b6104b1610a1a366004612259565b611830565b610a32610a2d3660046122b7565b61183d565b6040516104a092919061253c565b610579610a4e3660046122b7565b6118e5565b6008546104d19060ff1681565b610579610a6e366004612259565b611930565b600454610493906001600160a01b031681565b6104b1600080516020612d3983398151915281565b6104b17f8b73c3c69bb8fe3d512ecc4cf759cc79239f7b179b0ffacaa9a75d522b39400f81565b6104b1610ad03660046122b7565b611978565b6104b1610ae3366004612259565b6119a9565b6104b1600080516020612c5983398151915281565b6104b1600c5481565b6104b1600080516020612db983398151915281565b6104d1610b2936600461256b565b6119b6565b610579610b3c366004612328565b611a42565b6104b1610b4f3660046121c7565b611a5e565b6104b1611aa0565b6104b1610b6a36600461260a565b611aea565b610579610b7d366004612259565b611b5e565b610579611ba5565b6104b1600f5481565b6104b1600080516020612d5983398151915281565b6104b17ff206625bad3d9112d5609b8d356e6fbd514cd1f69980d4ce2b3e6e68e1789ace81565b610579610bdd36600461227a565b611c28565b6104b1600b5481565b6016546104d190600160a01b900460ff1681565b6104b161271081565b6104b1600080516020612cd983398151915281565b610493610c2b366004612259565b611c72565b600354604080516278744560e21b815290516000926001600160a01b0316916301e1d1149160048083019260209291908290030181865afa158015610c79573d6000803e3d6000fd5b505050506040513d601f19601f82011682018060405250810190610c9d9190612637565b905090565b60006001600160e01b03198216637965db0b60e01b1480610cd357506301ffc9a760e01b6001600160e01b03198316145b92915050565b6000610ce3611c9c565b6003546040516306580f2d60e01b81526001600160a01b03909116906306580f2d90610d1b90899089908990899089906004016126b5565b6020604051808303816000875af1158015610d3a573d6000803e3d6000fd5b505050506040513d601f19601f82011682018060405250810190610d5e9190612637565b9050610d6960018055565b95945050505050565b6000610cd3826000611cc5565b60035460405163e1f21c6760e01b81526000916001600160a01b03169063e1f21c6790610db490339087908790600401612707565b6020604051808303816000875af1158015610dd3573d6000803e3d6000fd5b505050506040513d601f19601f82011682018060405250810190610df7919061273a565b9392505050565b6000610cd3826001611cf8565b600080516020612cf9833981519152610e2381611d2b565b600254604051637a163bd760e11b81526001600160a01b039091169063f42c77ae90610e5690859060019060040161275b565b600060405180830381600087803b158015610e7057600080fd5b505af1158015610e84573d6000803e3d6000fd5b505050505050565b600354604080516318160ddd60e01b815290516000926001600160a01b0316916318160ddd9160048083019260209291908290030181865afa158015610c79573d6000803e3d6000fd5b600080516020612d39833981519152610eee81611d2b565b60025460405163223e547960e01b81526001600160a01b039091169063223e547990610e56908590600401612017565b60006001600160a01b038316301480610f3e57506001600160a01b038316155b15610f5c5760405163d92e233d60e01b815260040160405180910390fd5b6003546040516323b872dd60e01b81526001600160a01b03909116906323b872dd90610f9090879087908790600401612707565b6020604051808303816000875af1158015610faf573d6000803e3d6000fd5b505050506040513d601f19601f82011682018060405250810190610fd3919061273a565b949350505050565b60009081526020819052604090206001015490565b600080516020612dd983398151915261100881611d2b565b600480546040516305aee42d60e31b81526001600160a01b0390911691632d77216891610e5691869101612017565b61104082610fdb565b61104981611d2b565b6110538383611d38565b505050565b6003546040805163313ce56760e01b815290516000926001600160a01b03169163313ce5679160048083019260209291908290030181865afa1580156110a2573d6000803e3d6000fd5b505050506040513d601f19601f82011682018060405250810190610c9d9190612781565b600354604051631a5afd5b60e11b81526000916001600160a01b0316906334b5fab6906110fb908790879087906004016127a2565b6020604051808303816000875af115801561111a573d6000803e3d6000fd5b505050506040513d601f19601f82011682018060405250810190610fd39190612637565b6001600160a01b038116331461116f5760405162461bcd60e51b8152600401611166906127cf565b60405180910390fd5b6111798282611dbc565b5050565b600354604080516338d52e0f60e01b815290516000926001600160a01b0316916338d52e0f9160048083019260209291908290030181865afa1580156111c7573d6000803e3d6000fd5b505050506040513d601f19601f82011682018060405250810190610c9d919061282d565b600354604051633621d16560e11b81526000916001600160a01b031690636c43a2ca90610db490339087908790600401612707565b60035460405163402d267d60e01b81526000916001600160a01b03169063402d267d90611251908590600401612017565b602060405180830381865afa15801561126e573d6000803e3d6000fd5b505050506040513d601f19601f82011682018060405250810190610cd39190612637565b600080516020612d998339815191526112aa81611d2b565b6112b2611c9c565b60055460405163405977e760e01b81526001600160a01b039091169063405977e7906112e4908690869060040161284e565b600060405180830381600087803b1580156112fe57600080fd5b505af1158015611312573d6000803e3d6000fd5b5050505061105360018055565b600080516020612c7983398151915261133781611d2b565b600480546040516348ea712760e01b81526001600160a01b03909116916348ea712791610e5691869101612017565b600080516020612df983398151915261137e81611d2b565b60048054604051634bbd71e960e01b81526001600160a01b0390911691634bbd71e991610e5691869101612017565b600080516020612d198339815191526113c581611d2b565b600480546040516318cfc8a360e21b81526001600160a01b039091169163633f228c916113f69187918791016128a8565b600060405180830381600087803b15801561141057600080fd5b505af1158015611424573d6000803e3d6000fd5b50505050505050565b6003546040516365cb676560e01b81526000916001600160a01b0316906365cb6765906110fb908790879087906004016127a2565b600061146c611c9c565b600354604051638340f54960e01b81526001600160a01b0390911690638340f549906114a090339086908890600401612707565b6020604051808303816000875af11580156114bf573d6000803e3d6000fd5b505050506040513d601f19601f820116820180604052508101906114e39190612637565b9050610cd360018055565b6003546040516370a0823160e01b81526000916001600160a01b0316906370a0823190611251908590600401612017565b600080516020612cb983398151915261153781611d2b565b60048054604051638212fd4360e01b81526001600160a01b0390911691638212fd4391610e569186910161202b565b6000918252602082815260408084206001600160a01b0393909316845291905290205460ff1690565b6000611599611c9c565b600354604051636361ddf360e11b81526001600160a01b039091169063c6c3bbe6906114a090339086908890600401612707565b6000610c9d600360009054906101000a90046001600160a01b03166001600160a01b031663313ce5676040518163ffffffff1660e01b8152600401602060405180830381865afa158015611625573d6000803e3d6000fd5b505050506040513d601f19601f820116820180604052508101906116499190612781565b61165490600a6129de565b6000611cc5565b600080516020612d1983398151915261167381611d2b565b600480546040516326ef2a2160e21b81526001600160a01b0390911691639bbca88491610e5691869101612084565b60035460405163d73b1dc960e01b81526000916001600160a01b03169063d73b1dc990610db490339087908790600401612707565b6000600080516020612c598339815191526116f181611d2b565b6116f9611c9c565b60025460405163a835cd8160e01b81526001600160a01b039091169063a835cd819061172d90889088908890600401612707565b6020604051808303816000875af115801561174c573d6000803e3d6000fd5b505050506040513d601f19601f820116820180604052508101906117709190612637565b915061177b60018055565b509392505050565b60006001600160a01b0383163014806117a357506001600160a01b038316155b156117c15760405163d92e233d60e01b815260040160405180910390fd5b6003546040516317d5759960e31b81526001600160a01b039091169063beabacc8906117f590339087908790600401612707565b600060405180830381600087803b15801561180f57600080fd5b505af1158015611823573d6000803e3d6000fd5b5060019695505050505050565b6000610cd3826001611cc5565b600080600080516020612c9983398151915261185881611d2b565b611860611c9c565b60025460405163b6cc2d1f60e01b81526001600160a01b039091169063b6cc2d1f90611890908790600401612017565b60408051808303816000875af11580156118ae573d6000803e3d6000fd5b505050506040513d601f19601f820116820180604052508101906118d291906129f3565b925092506118df60018055565b50915091565b600080516020612d798339815191526118fd81611d2b565b600254604051637a163bd760e11b81526001600160a01b039091169063f42c77ae90610e5690859060009060040161275b565b600080516020612dd983398151915261194881611d2b565b60035460405163bdc8144b60e01b81526001600160a01b039091169063bdc8144b90610e5690859060040161202b565b60035460405163631ebadb60e11b81526000916001600160a01b03169063c63d75b690611251908590600401612017565b6000610cd3826000611cf8565b60035460405163d505accf60e01b81526000916001600160a01b03169063d505accf906119f3908b908b908b908b908b908b908b90600401612a26565b6020604051808303816000875af1158015611a12573d6000803e3d6000fd5b505050506040513d601f19601f82011682018060405250810190611a36919061273a565b98975050505050505050565b611a4b82610fdb565b611a5481611d2b565b6110538383611dbc565b6000611a68611c9c565b600354604051636c0d04fb60e11b81526001600160a01b039091169063d81a09f690610d1b90899089908990899089906004016126b5565b60035460408051636cd074bd60e11b815290516000926001600160a01b03169163d9a0e97a9160048083019260209291908290030181865afa158015610c79573d6000803e3d6000fd5b600354604051636eb1769f60e11b81526000916001600160a01b03169063dd62ed3e90611b1d9086908690600401612a82565b602060405180830381865afa158015611b3a573d6000803e3d6000fd5b505050506040513d601f19601f82011682018060405250810190610df79190612637565b600080516020612db9833981519152611b7681611d2b565b60048054604051636fb4d91560e11b81526001600160a01b039091169163df69b22a91610e569186910161202b565b600080516020612cd9833981519152611bbd81611d2b565b600560009054906101000a90046001600160a01b03166001600160a01b031663e5236cc96040518163ffffffff1660e01b8152600401600060405180830381600087803b158015611c0d57600080fd5b505af1158015611c21573d6000803e3d6000fd5b5050505050565b600080516020612d59833981519152611c4081611d2b565b6002546040516307b6bdfd60e51b81526001600160a01b039091169063f6d7bfa0906113f6908690869060040161284e565b60078181548110611c8257600080fd5b6000918252602090912001546001600160a01b0316905081565b600260015403611cbe5760405162461bcd60e51b815260040161116690612ad4565b6002600155565b600354604051637ff0007760e01b81526000916001600160a01b031690637ff0007790611b1d9086908690600401612b28565b600354604051635d4086af60e01b81526000916001600160a01b031690635d4086af90611b1d9086908690600401612b28565b611d358133611e21565b50565b611d428282611566565b611179576000828152602081815260408083206001600160a01b03851684529091529020805460ff19166001179055611d783390565b6001600160a01b0316816001600160a01b0316837f2f8788117e7eff1d82e926ec794901d17c78024a50270940304540a733656f0d60405160405180910390a45050565b611dc68282611566565b15611179576000828152602081815260408083206001600160a01b0385168085529252808320805460ff1916905551339285917ff6391f5c32d9c69d2a47ea670b442974b53935d1edc7fd64eb21e047a839171b9190a45050565b611e2b8282611566565b61117957611e3881611e7a565b611e43836020611e8c565b604051602001611e54929190612b65565b60408051601f198184030181529082905262461bcd60e51b8252611166916004016124f7565b6060610cd36001600160a01b03831660145b60606000611e9b836002612bb7565b611ea6906002612bd6565b6001600160401b03811115611ebd57611ebd6120c1565b6040519080825280601f01601f191660200182016040528015611ee7576020820181803683370190505b509050600360fc1b81600081518110611f0257611f02612be9565b60200101906001600160f81b031916908160001a905350600f60fb1b81600181518110611f3157611f31612be9565b60200101906001600160f81b031916908160001a9053506000611f55846002612bb7565b611f60906001612bd6565b90505b6001811115611fd8576f181899199a1a9b1b9c1cb0b131b232b360811b85600f1660108110611f9457611f94612be9565b1a60f81b828281518110611faa57611faa612be9565b60200101906001600160f81b031916908160001a90535060049490941c93611fd181612bff565b9050611f63565b508315610df75760405162461bcd60e51b815260040161116690612c48565b60006001600160a01b038216610cd3565b61201181611ff7565b82525050565b60208101610cd38284612008565b80612011565b60208101610cd38284612025565b6001600160e01b031981165b8114611d3557600080fd5b8035610cd381612039565b60006020828403121561207057612070600080fd5b6000610fd38484612050565b801515612011565b60208101610cd3828461207c565b80612045565b8035610cd381612092565b61204581611ff7565b8035610cd3816120a3565b601f01601f191690565b634e487b7160e01b600052604160045260246000fd5b6120e0826120b7565b81018181106001600160401b03821117156120fd576120fd6120c1565b6040525050565b600061210f60405190565b905061211b82826120d7565b919050565b60006001600160401b03821115612139576121396120c1565b5060209081020190565b600061215661215184612120565b612104565b8381529050602080820190840283018581111561217557612175600080fd5b835b81811015612199578061218a88826120ac565b84525060209283019201612177565b5050509392505050565b600082601f8301126121b7576121b7600080fd5b8135610fd3848260208601612143565b600080600080600060a086880312156121e2576121e2600080fd5b60006121ee8888612098565b95505060206121ff888289016120ac565b9450506040612210888289016120ac565b935050606061222188828901612098565b92505060808601356001600160401b0381111561224057612240600080fd5b61224c888289016121a3565b9150509295509295909350565b60006020828403121561226e5761226e600080fd5b6000610fd38484612098565b6000806040838503121561229057612290600080fd5b600061229c85856120ac565b92505060206122ad85828601612098565b9150509250929050565b6000602082840312156122cc576122cc600080fd5b6000610fd384846120ac565b6000806000606084860312156122f0576122f0600080fd5b60006122fc86866120ac565b935050602061230d868287016120ac565b925050604061231e86828701612098565b9150509250925092565b6000806040838503121561233e5761233e600080fd5b600061234a8585612098565b92505060206122ad858286016120ac565b60ff8116612011565b60208101610cd3828461235b565b60008060006060848603121561238a5761238a600080fd5b600061239686866120ac565b93505060206123a786828701612098565b92505060408401356001600160401b038111156123c6576123c6600080fd5b61231e868287016121a3565b608081016123e08287612025565b6123ed6020830186612025565b6123fa6040830185612025565b610d696060830184612025565b60008083601f84011261241c5761241c600080fd5b5081356001600160401b0381111561243657612436600080fd5b60208301915083602082028301111561245157612451600080fd5b9250929050565b6000806020838503121561246e5761246e600080fd5b82356001600160401b0381111561248757612487600080fd5b61249385828601612407565b92509250509250929050565b60005b838110156124ba5781810151838201526020016124a2565b50506000910152565b60006124cd825190565b8084526020840193506124e481856020860161249f565b6124ed816120b7565b9093019392505050565b60208082528101610df781846124c3565b801515612045565b8035610cd381612508565b60006020828403121561253057612530600080fd5b6000610fd38484612510565b6040810161254a8285612025565b610df76020830184612025565b60ff8116612045565b8035610cd381612557565b600080600080600080600060e0888a03121561258957612589600080fd5b60006125958a8a6120ac565b97505060206125a68a828b016120ac565b96505060406125b78a828b01612098565b95505060606125c88a828b01612098565b94505060806125d98a828b01612560565b93505060a06125ea8a828b01612098565b92505060c06125fb8a828b01612098565b91505092959891949750929550565b6000806040838503121561262057612620600080fd5b600061234a85856120ac565b8051610cd381612092565b60006020828403121561264c5761264c600080fd5b6000610fd3848461262c565b60006126648383612008565b505060200190565b6000612676825190565b80845260209384019383018060005b838110156126aa5781516126998882612658565b975060208301925050600101612685565b509495945050505050565b60a081016126c38288612025565b6126d06020830187612008565b6126dd6040830186612008565b6126ea6060830185612025565b81810360808301526126fc818461266c565b979650505050505050565b606081016127158286612008565b6127226020830185612008565b610fd36040830184612025565b8051610cd381612508565b60006020828403121561274f5761274f600080fd5b6000610fd3848461272f565b604081016127698285612008565b610df7602083018461207c565b8051610cd381612557565b60006020828403121561279657612796600080fd5b6000610fd38484612776565b606081016127b08286612008565b6127bd6020830185612025565b8181036040830152610d69818461266c565b60208082528101610cd381602f81527f416363657373436f6e74726f6c3a2063616e206f6e6c792072656e6f756e636560208201526e103937b632b9903337b91039b2b63360891b604082015260600190565b8051610cd3816120a3565b60006020828403121561284257612842600080fd5b6000610fd38484612822565b6040810161254a8285612008565b6000610df760208401846120ac565b8183526000602084019350818060005b858110156126aa5761288d828461285c565b6128978882612658565b97506020830192505060010161287b565b60208082528101610fd381848661286b565b634e487b7160e01b600052601160045260246000fd5b80825b600185111561290f578086048111156128ee576128ee6128ba565b60018516156128fc57908102905b80026129088560011c90565b94506128d3565b94509492505050565b60008261292757506001610df7565b8161293457506000610df7565b816001811461294a576002811461295457612981565b6001915050610df7565b60ff841115612965576129656128ba565b8360020a91508482111561297b5761297b6128ba565b50610df7565b5060208310610133831016604e8410600b84101617156129b4575081810a838111156129af576129af6128ba565b610df7565b6129c184848460016128d0565b925090508184048111156129d7576129d76128ba565b0292915050565b600060ff83169250610df76000198484612918565b60008060408385031215612a0957612a09600080fd5b6000612a15858561262c565b92505060206122ad8582860161262c565b60e08101612a34828a612008565b612a416020830189612008565b612a4e6040830188612025565b612a5b6060830187612025565b612a68608083018661235b565b612a7560a0830185612025565b611a3660c0830184612025565b60408101612a908285612008565b610df76020830184612008565b601f81526000602082017f5265656e7472616e637947756172643a207265656e7472616e742063616c6c00815291505b5060200190565b60208082528101610cd381612a9d565b634e487b7160e01b600052602160045260246000fd5b60028110611d3557611d35612ae4565b8061211b81612afa565b6000610cd382612b0a565b61201181612b14565b60408101612b368285612025565b610df76020830184612b1f565b6000612b4d825190565b612b5b81856020860161249f565b9290920192915050565b76020b1b1b2b9b9a1b7b73a3937b61d1030b1b1b7bab73a1604d1b81526017016000612b918285612b43565b7001034b99036b4b9b9b4b733903937b6329607d1b81526011019150610fd38284612b43565b6000816000190483118215151615612bd157612bd16128ba565b500290565b80820180821115610cd357610cd36128ba565b634e487b7160e01b600052603260045260246000fd5b600081612c0e57612c0e6128ba565b506000190190565b60208082527f537472696e67733a20686578206c656e67746820696e73756666696369656e7491019081526000612acd565b60208082528101610cd381612c1656fe152ebba56b9738ee3d8baea1b76fa31dcdcd79b1929bfea7d58ee12cfdf1a653cd9f023a942ee35097ead74b2505bea9f2c5d47465db92dd195cf7f01a41cfe1633076a97f32ae349b28772e7b1483f67a926f150cbc501d02bdbd77389325abc723f4dd6268e1c374639e36d629c765285ee7003913389d582c300f186dde97d45f7ccff42f059d4e47c3f027c444272257266f7e88b981e142f0aa38fbfd78ea672c1c09cd95c51af9509f646f3615ff0071aae8652bd821471ee9037fd72c862f91c9d89d6135b19873b921c90b702cb2e175c371b8430026b9577e6911192a0e761830cc61f2707ea7bb138008bf9dda7f7d34c77736d0a116604e95ea167cbb3cdf689b8ea3e9d265f66bc4e0a99069268217017d38d2a5a559abc627196f430d649a8640e48ff9bfbc353b3f99ed630163857821b3b4075e3871dafbf5900d80def0427daac599092fcb16b21808ec68dd9a2e1eae89d1e8db21357375a18eaea71a088b547b8c932b48861853b3434d9a3240b94466c607e28b6965952f0dbbe8c2c0170206c50ec0cafa1c0dbd03e73e67c2a960178df30a0a30ee2e69d1171ac0a63777a6733cda21aec9ed3d48a4fd11f273c934a691dec5e5589ca26469706673582212207f51f09382f66663f9e1302f423cbf3a4a99eaec24ce95c5c3dff458de1295f864736f6c63430008100033",
  "devdoc": {
    "kind": "dev",
    "methods": {
      "getRoleAdmin(bytes32)": {
        "details": "Returns the admin role that controls `role`. See {grantRole} and {revokeRole}. To change a role's admin, use {_setRoleAdmin}."
      },
      "grantRole(bytes32,address)": {
        "details": "Grants `role` to `account`. If `account` had not been already granted `role`, emits a {RoleGranted} event. Requirements: - the caller must have ``role``'s admin role. May emit a {RoleGranted} event."
      },
      "hasRole(bytes32,address)": {
        "details": "Returns `true` if `account` has been granted `role`."
      },
      "renounceRole(bytes32,address)": {
        "details": "Revokes `role` from the calling account. Roles are often managed via {grantRole} and {revokeRole}: this function's purpose is to provide a mechanism for accounts to lose their privileges if they are compromised (such as when a trusted device is misplaced). If the calling account had been revoked `role`, emits a {RoleRevoked} event. Requirements: - the caller must be `account`. May emit a {RoleRevoked} event."
      },
      "revokeRole(bytes32,address)": {
        "details": "Revokes `role` from `account`. If `account` had been granted `role`, emits a {RoleRevoked} event. Requirements: - the caller must have ``role``'s admin role. May emit a {RoleRevoked} event."
      },
      "supportsInterface(bytes4)": {
        "details": "See {IERC165-supportsInterface}."
      }
    },
    "title": "Yearn V3 Vault",
    "version": 1
  },
  "userdoc": {
    "kind": "user",
    "methods": {},
    "notice": "The Yearn VaultV3 is designed as a non-opinionated system to distribute funds of  depositors for a specific `asset` into different opportunities (aka Strategies) and manage accounting in a robust way.",
    "version": 1
  },
  "storageLayout": {
    "storage": [
      {
        "astId": 24,
        "contract": "contracts/FathomVault.sol:FathomVault",
        "label": "_roles",
        "offset": 0,
        "slot": "0",
        "type": "t_mapping(t_bytes32,t_struct(RoleData)19_storage)"
      },
      {
        "astId": 399,
        "contract": "contracts/FathomVault.sol:FathomVault",
        "label": "_status",
        "offset": 0,
        "slot": "1",
        "type": "t_uint256"
      },
      {
        "astId": 4206,
        "contract": "contracts/FathomVault.sol:FathomVault",
        "label": "strategyManager",
        "offset": 0,
        "slot": "2",
        "type": "t_address"
      },
      {
        "astId": 4208,
        "contract": "contracts/FathomVault.sol:FathomVault",
        "label": "sharesManager",
        "offset": 0,
        "slot": "3",
        "type": "t_address"
      },
      {
        "astId": 4210,
        "contract": "contracts/FathomVault.sol:FathomVault",
        "label": "setters",
        "offset": 0,
        "slot": "4",
        "type": "t_address"
      },
      {
        "astId": 4212,
        "contract": "contracts/FathomVault.sol:FathomVault",
        "label": "governance",
        "offset": 0,
        "slot": "5",
        "type": "t_address"
      },
      {
        "astId": 4217,
        "contract": "contracts/FathomVault.sol:FathomVault",
        "label": "strategies",
        "offset": 0,
        "slot": "6",
        "type": "t_mapping(t_address,t_struct(StrategyParams)4373_storage)"
      },
      {
        "astId": 4220,
        "contract": "contracts/FathomVault.sol:FathomVault",
        "label": "defaultQueue",
        "offset": 0,
        "slot": "7",
        "type": "t_array(t_address)dyn_storage"
      },
      {
        "astId": 4222,
        "contract": "contracts/FathomVault.sol:FathomVault",
        "label": "useDefaultQueue",
        "offset": 0,
        "slot": "8",
        "type": "t_bool"
      },
      {
        "astId": 4226,
        "contract": "contracts/FathomVault.sol:FathomVault",
        "label": "_balanceOf",
        "offset": 0,
        "slot": "9",
        "type": "t_mapping(t_address,t_uint256)"
      },
      {
        "astId": 4232,
        "contract": "contracts/FathomVault.sol:FathomVault",
        "label": "_allowance",
        "offset": 0,
        "slot": "10",
        "type": "t_mapping(t_address,t_mapping(t_address,t_uint256))"
      },
      {
        "astId": 4234,
        "contract": "contracts/FathomVault.sol:FathomVault",
        "label": "totalSupplyAmount",
        "offset": 0,
        "slot": "11",
        "type": "t_uint256"
      },
      {
        "astId": 4236,
        "contract": "contracts/FathomVault.sol:FathomVault",
        "label": "totalDebtAmount",
        "offset": 0,
        "slot": "12",
        "type": "t_uint256"
      },
      {
        "astId": 4238,
        "contract": "contracts/FathomVault.sol:FathomVault",
        "label": "totalIdleAmount",
        "offset": 0,
        "slot": "13",
        "type": "t_uint256"
      },
      {
        "astId": 4240,
        "contract": "contracts/FathomVault.sol:FathomVault",
        "label": "minimumTotalIdle",
        "offset": 0,
        "slot": "14",
        "type": "t_uint256"
      },
      {
        "astId": 4242,
        "contract": "contracts/FathomVault.sol:FathomVault",
        "label": "depositLimit",
        "offset": 0,
        "slot": "15",
        "type": "t_uint256"
      },
      {
        "astId": 4244,
        "contract": "contracts/FathomVault.sol:FathomVault",
        "label": "accountant",
        "offset": 0,
        "slot": "16",
        "type": "t_address"
      },
      {
        "astId": 4246,
        "contract": "contracts/FathomVault.sol:FathomVault",
        "label": "depositLimitModule",
        "offset": 0,
        "slot": "17",
        "type": "t_address"
      },
      {
        "astId": 4248,
        "contract": "contracts/FathomVault.sol:FathomVault",
        "label": "withdrawLimitModule",
        "offset": 0,
        "slot": "18",
        "type": "t_address"
      },
      {
        "astId": 4252,
        "contract": "contracts/FathomVault.sol:FathomVault",
        "label": "roles",
        "offset": 0,
        "slot": "19",
        "type": "t_mapping(t_address,t_bytes32)"
      },
      {
        "astId": 4256,
        "contract": "contracts/FathomVault.sol:FathomVault",
        "label": "openRoles",
        "offset": 0,
        "slot": "20",
        "type": "t_mapping(t_bytes32,t_bool)"
      },
      {
        "astId": 4258,
        "contract": "contracts/FathomVault.sol:FathomVault",
        "label": "roleManager",
        "offset": 0,
        "slot": "21",
        "type": "t_address"
      },
      {
        "astId": 4260,
        "contract": "contracts/FathomVault.sol:FathomVault",
        "label": "futureRoleManager",
        "offset": 0,
        "slot": "22",
        "type": "t_address"
      },
      {
        "astId": 4262,
        "contract": "contracts/FathomVault.sol:FathomVault",
        "label": "shutdown",
        "offset": 20,
        "slot": "22",
        "type": "t_bool"
      },
      {
        "astId": 4264,
        "contract": "contracts/FathomVault.sol:FathomVault",
        "label": "profitMaxUnlockTime",
        "offset": 0,
        "slot": "23",
        "type": "t_uint256"
      },
      {
        "astId": 4266,
        "contract": "contracts/FathomVault.sol:FathomVault",
        "label": "fullProfitUnlockDate",
        "offset": 0,
        "slot": "24",
        "type": "t_uint256"
      },
      {
        "astId": 4268,
        "contract": "contracts/FathomVault.sol:FathomVault",
        "label": "profitUnlockingRate",
        "offset": 0,
        "slot": "25",
        "type": "t_uint256"
      },
      {
        "astId": 4270,
        "contract": "contracts/FathomVault.sol:FathomVault",
        "label": "lastProfitUpdate",
        "offset": 0,
        "slot": "26",
        "type": "t_uint256"
      },
      {
        "astId": 4274,
        "contract": "contracts/FathomVault.sol:FathomVault",
        "label": "nonces",
        "offset": 0,
        "slot": "27",
        "type": "t_mapping(t_address,t_uint256)"
      },
      {
        "astId": 4281,
        "contract": "contracts/FathomVault.sol:FathomVault",
        "label": "DOMAIN_SEPARATOR",
        "offset": 0,
        "slot": "28",
        "type": "t_bytes32"
      }
    ],
    "types": {
      "t_address": {
        "encoding": "inplace",
        "label": "address",
        "numberOfBytes": "20"
      },
      "t_array(t_address)dyn_storage": {
        "base": "t_address",
        "encoding": "dynamic_array",
        "label": "address[]",
        "numberOfBytes": "32"
      },
      "t_bool": {
        "encoding": "inplace",
        "label": "bool",
        "numberOfBytes": "1"
      },
      "t_bytes32": {
        "encoding": "inplace",
        "label": "bytes32",
        "numberOfBytes": "32"
      },
      "t_mapping(t_address,t_bool)": {
        "encoding": "mapping",
        "key": "t_address",
        "label": "mapping(address => bool)",
        "numberOfBytes": "32",
        "value": "t_bool"
      },
      "t_mapping(t_address,t_bytes32)": {
        "encoding": "mapping",
        "key": "t_address",
        "label": "mapping(address => bytes32)",
        "numberOfBytes": "32",
        "value": "t_bytes32"
      },
      "t_mapping(t_address,t_mapping(t_address,t_uint256))": {
        "encoding": "mapping",
        "key": "t_address",
        "label": "mapping(address => mapping(address => uint256))",
        "numberOfBytes": "32",
        "value": "t_mapping(t_address,t_uint256)"
      },
      "t_mapping(t_address,t_struct(StrategyParams)4373_storage)": {
        "encoding": "mapping",
        "key": "t_address",
        "label": "mapping(address => struct StrategyParams)",
        "numberOfBytes": "32",
        "value": "t_struct(StrategyParams)4373_storage"
      },
      "t_mapping(t_address,t_uint256)": {
        "encoding": "mapping",
        "key": "t_address",
        "label": "mapping(address => uint256)",
        "numberOfBytes": "32",
        "value": "t_uint256"
      },
      "t_mapping(t_bytes32,t_bool)": {
        "encoding": "mapping",
        "key": "t_bytes32",
        "label": "mapping(bytes32 => bool)",
        "numberOfBytes": "32",
        "value": "t_bool"
      },
      "t_mapping(t_bytes32,t_struct(RoleData)19_storage)": {
        "encoding": "mapping",
        "key": "t_bytes32",
        "label": "mapping(bytes32 => struct AccessControl.RoleData)",
        "numberOfBytes": "32",
        "value": "t_struct(RoleData)19_storage"
      },
      "t_struct(RoleData)19_storage": {
        "encoding": "inplace",
        "label": "struct AccessControl.RoleData",
        "members": [
          {
            "astId": 16,
            "contract": "contracts/FathomVault.sol:FathomVault",
            "label": "members",
            "offset": 0,
            "slot": "0",
            "type": "t_mapping(t_address,t_bool)"
          },
          {
            "astId": 18,
            "contract": "contracts/FathomVault.sol:FathomVault",
            "label": "adminRole",
            "offset": 0,
            "slot": "1",
            "type": "t_bytes32"
          }
        ],
        "numberOfBytes": "64"
      },
      "t_struct(StrategyParams)4373_storage": {
        "encoding": "inplace",
        "label": "struct StrategyParams",
        "members": [
          {
            "astId": 4366,
            "contract": "contracts/FathomVault.sol:FathomVault",
            "label": "activation",
            "offset": 0,
            "slot": "0",
            "type": "t_uint256"
          },
          {
            "astId": 4368,
            "contract": "contracts/FathomVault.sol:FathomVault",
            "label": "lastReport",
            "offset": 0,
            "slot": "1",
            "type": "t_uint256"
          },
          {
            "astId": 4370,
            "contract": "contracts/FathomVault.sol:FathomVault",
            "label": "currentDebt",
            "offset": 0,
            "slot": "2",
            "type": "t_uint256"
          },
          {
            "astId": 4372,
            "contract": "contracts/FathomVault.sol:FathomVault",
            "label": "maxDebt",
            "offset": 0,
            "slot": "3",
            "type": "t_uint256"
          }
        ],
        "numberOfBytes": "128"
      },
      "t_uint256": {
        "encoding": "inplace",
        "label": "uint256",
        "numberOfBytes": "32"
      }
    }
  }
}