{
  "address": "0x7F75E7CFe9cE4Abd9ba5045f3255D69686bfE470",
  "abi": [
    {
      "inputs": [
        {
          "internalType": "uint256",
          "name": "_profitMaxUnlockTime",
          "type": "uint256"
        },
        {
          "internalType": "address",
          "name": "_strategyManagerAddress",
          "type": "address"
        },
        {
          "internalType": "address",
          "name": "_sharesManagerAddress",
          "type": "address"
        },
        {
          "internalType": "address",
          "name": "_settersAddress",
          "type": "address"
        },
        {
          "internalType": "address",
          "name": "_governanceAddress",
          "type": "address"
        }
      ],
      "stateMutability": "nonpayable",
      "type": "constructor"
    },
    {
      "inputs": [],
      "name": "InsufficientFunds",
      "type": "error"
    },
    {
      "inputs": [],
      "name": "MaxLoss",
      "type": "error"
    },
    {
      "inputs": [],
      "name": "ProfitUnlockTimeTooLong",
      "type": "error"
    },
    {
      "inputs": [],
      "name": "ZeroAddress",
      "type": "error"
    },
    {
      "anonymous": false,
      "inputs": [
        {
          "indexed": true,
          "internalType": "address",
          "name": "strategy",
          "type": "address"
        },
        {
          "indexed": false,
          "internalType": "uint256",
          "name": "amount",
          "type": "uint256"
        }
      ],
      "name": "DebtPurchased",
      "type": "event"
    },
    {
      "anonymous": false,
      "inputs": [
        {
          "indexed": true,
          "internalType": "address",
          "name": "strategy",
          "type": "address"
        },
        {
          "indexed": false,
          "internalType": "uint256",
          "name": "currentDebt",
          "type": "uint256"
        },
        {
          "indexed": false,
          "internalType": "uint256",
          "name": "newDebt",
          "type": "uint256"
        }
      ],
      "name": "DebtUpdated",
      "type": "event"
    },
    {
      "anonymous": false,
      "inputs": [
        {
          "indexed": true,
          "internalType": "bytes32",
          "name": "role",
          "type": "bytes32"
        },
        {
          "indexed": true,
          "internalType": "bytes32",
          "name": "previousAdminRole",
          "type": "bytes32"
        },
        {
          "indexed": true,
          "internalType": "bytes32",
          "name": "newAdminRole",
          "type": "bytes32"
        }
      ],
      "name": "RoleAdminChanged",
      "type": "event"
    },
    {
      "anonymous": false,
      "inputs": [
        {
          "indexed": true,
          "internalType": "bytes32",
          "name": "role",
          "type": "bytes32"
        },
        {
          "indexed": true,
          "internalType": "address",
          "name": "account",
          "type": "address"
        },
        {
          "indexed": true,
          "internalType": "address",
          "name": "sender",
          "type": "address"
        }
      ],
      "name": "RoleGranted",
      "type": "event"
    },
    {
      "anonymous": false,
      "inputs": [
        {
          "indexed": true,
          "internalType": "bytes32",
          "name": "role",
          "type": "bytes32"
        },
        {
          "indexed": true,
          "internalType": "address",
          "name": "account",
          "type": "address"
        },
        {
          "indexed": true,
          "internalType": "address",
          "name": "sender",
          "type": "address"
        }
      ],
      "name": "RoleRevoked",
      "type": "event"
    },
    {
      "anonymous": false,
      "inputs": [
        {
          "indexed": true,
          "internalType": "address",
          "name": "account",
          "type": "address"
        },
        {
          "indexed": false,
          "internalType": "bytes32",
          "name": "role",
          "type": "bytes32"
        }
      ],
      "name": "RoleSet",
      "type": "event"
    },
    {
      "anonymous": false,
      "inputs": [
        {
          "indexed": true,
          "internalType": "bytes32",
          "name": "role",
          "type": "bytes32"
        },
        {
          "indexed": true,
          "internalType": "enum RoleStatusChange",
          "name": "status",
          "type": "uint8"
        }
      ],
      "name": "RoleStatusChanged",
      "type": "event"
    },
    {
      "anonymous": false,
      "inputs": [],
      "name": "Shutdown",
      "type": "event"
    },
    {
      "anonymous": false,
      "inputs": [
        {
          "indexed": true,
          "internalType": "address",
          "name": "strategy",
          "type": "address"
        },
        {
          "indexed": false,
          "internalType": "enum StrategyChangeType",
          "name": "changeType",
          "type": "uint8"
        }
      ],
      "name": "StrategyChanged",
      "type": "event"
    },
    {
      "anonymous": false,
      "inputs": [
        {
          "indexed": true,
          "internalType": "address",
          "name": "strategy",
          "type": "address"
        },
        {
          "indexed": false,
          "internalType": "uint256",
          "name": "gain",
          "type": "uint256"
        },
        {
          "indexed": false,
          "internalType": "uint256",
          "name": "loss",
          "type": "uint256"
        },
        {
          "indexed": false,
          "internalType": "uint256",
          "name": "currentDebt",
          "type": "uint256"
        },
        {
          "indexed": false,
          "internalType": "uint256",
          "name": "protocolFees",
          "type": "uint256"
        },
        {
          "indexed": false,
          "internalType": "uint256",
          "name": "totalFees",
          "type": "uint256"
        },
        {
          "indexed": false,
          "internalType": "uint256",
          "name": "totalRefunds",
          "type": "uint256"
        }
      ],
      "name": "StrategyReported",
      "type": "event"
    },
    {
      "anonymous": false,
      "inputs": [
        {
          "indexed": true,
          "internalType": "address",
          "name": "accountant",
          "type": "address"
        }
      ],
      "name": "UpdateAccountant",
      "type": "event"
    },
    {
      "anonymous": false,
      "inputs": [
        {
          "indexed": false,
          "internalType": "address[]",
          "name": "newDefaultQueue",
          "type": "address[]"
        }
      ],
      "name": "UpdateDefaultQueue",
      "type": "event"
    },
    {
      "anonymous": false,
      "inputs": [
        {
          "indexed": false,
          "internalType": "uint256",
          "name": "depositLimit",
          "type": "uint256"
        }
      ],
      "name": "UpdateDepositLimit",
      "type": "event"
    },
    {
      "anonymous": false,
      "inputs": [
        {
          "indexed": true,
          "internalType": "address",
          "name": "depositLimitModule",
          "type": "address"
        }
      ],
      "name": "UpdateDepositLimitModule",
      "type": "event"
    },
    {
      "anonymous": false,
      "inputs": [
        {
          "indexed": false,
          "internalType": "uint256",
          "name": "minimumTotalIdle",
          "type": "uint256"
        }
      ],
      "name": "UpdateMinimumTotalIdle",
      "type": "event"
    },
    {
      "anonymous": false,
      "inputs": [
        {
          "indexed": false,
          "internalType": "uint256",
          "name": "profitMaxUnlockTime",
          "type": "uint256"
        }
      ],
      "name": "UpdateProfitMaxUnlockTime",
      "type": "event"
    },
    {
      "anonymous": false,
      "inputs": [
        {
          "indexed": true,
          "internalType": "address",
          "name": "roleManager",
          "type": "address"
        }
      ],
      "name": "UpdateRoleManager",
      "type": "event"
    },
    {
      "anonymous": false,
      "inputs": [
        {
          "indexed": false,
          "internalType": "bool",
          "name": "useDefaultQueue",
          "type": "bool"
        }
      ],
      "name": "UpdateUseDefaultQueue",
      "type": "event"
    },
    {
      "anonymous": false,
      "inputs": [
        {
          "indexed": true,
          "internalType": "address",
          "name": "withdrawLimitModule",
          "type": "address"
        }
      ],
      "name": "UpdateWithdrawLimitModule",
      "type": "event"
    },
    {
      "anonymous": false,
      "inputs": [
        {
          "indexed": true,
          "internalType": "address",
          "name": "sender",
          "type": "address"
        },
        {
          "indexed": true,
          "internalType": "address",
          "name": "strategy",
          "type": "address"
        },
        {
          "indexed": false,
          "internalType": "uint256",
          "name": "newDebt",
          "type": "uint256"
        }
      ],
      "name": "UpdatedMaxDebtForStrategy",
      "type": "event"
    },
    {
      "inputs": [],
      "name": "ACCOUNTANT_MANAGER",
      "outputs": [
        {
          "internalType": "bytes32",
          "name": "",
          "type": "bytes32"
        }
      ],
      "stateMutability": "view",
      "type": "function"
    },
    {
      "inputs": [],
      "name": "ADD_STRATEGY_MANAGER",
      "outputs": [
        {
          "internalType": "bytes32",
          "name": "",
          "type": "bytes32"
        }
      ],
      "stateMutability": "view",
      "type": "function"
    },
    {
      "inputs": [],
      "name": "API_VERSION",
      "outputs": [
        {
          "internalType": "string",
          "name": "",
          "type": "string"
        }
      ],
      "stateMutability": "view",
      "type": "function"
    },
    {
      "inputs": [],
      "name": "DEBT_MANAGER",
      "outputs": [
        {
          "internalType": "bytes32",
          "name": "",
          "type": "bytes32"
        }
      ],
      "stateMutability": "view",
      "type": "function"
    },
    {
      "inputs": [],
      "name": "DEBT_PURCHASER",
      "outputs": [
        {
          "internalType": "bytes32",
          "name": "",
          "type": "bytes32"
        }
      ],
      "stateMutability": "view",
      "type": "function"
    },
    {
      "inputs": [],
      "name": "DEFAULT_ADMIN_ROLE",
      "outputs": [
        {
          "internalType": "bytes32",
          "name": "",
          "type": "bytes32"
        }
      ],
      "stateMutability": "view",
      "type": "function"
    },
    {
      "inputs": [],
      "name": "DEPOSIT_LIMIT_MANAGER",
      "outputs": [
        {
          "internalType": "bytes32",
          "name": "",
          "type": "bytes32"
        }
      ],
      "stateMutability": "view",
      "type": "function"
    },
    {
      "inputs": [],
      "name": "DOMAIN_SEPARATOR",
      "outputs": [
        {
          "internalType": "bytes32",
          "name": "",
          "type": "bytes32"
        }
      ],
      "stateMutability": "view",
      "type": "function"
    },
    {
      "inputs": [],
      "name": "DOMAIN_TYPE_HASH",
      "outputs": [
        {
          "internalType": "bytes32",
          "name": "",
          "type": "bytes32"
        }
      ],
      "stateMutability": "view",
      "type": "function"
    },
    {
      "inputs": [],
      "name": "EMERGENCY_MANAGER",
      "outputs": [
        {
          "internalType": "bytes32",
          "name": "",
          "type": "bytes32"
        }
      ],
      "stateMutability": "view",
      "type": "function"
    },
    {
      "inputs": [],
      "name": "FACTORY",
      "outputs": [
        {
          "internalType": "address",
          "name": "",
          "type": "address"
        }
      ],
      "stateMutability": "view",
      "type": "function"
    },
    {
      "inputs": [],
      "name": "FORCE_REVOKE_MANAGER",
      "outputs": [
        {
          "internalType": "bytes32",
          "name": "",
          "type": "bytes32"
        }
      ],
      "stateMutability": "view",
      "type": "function"
    },
    {
      "inputs": [],
      "name": "MAX_BPS",
      "outputs": [
        {
          "internalType": "uint256",
          "name": "",
          "type": "uint256"
        }
      ],
      "stateMutability": "view",
      "type": "function"
    },
    {
      "inputs": [],
      "name": "MAX_BPS_EXTENDED",
      "outputs": [
        {
          "internalType": "uint256",
          "name": "",
          "type": "uint256"
        }
      ],
      "stateMutability": "view",
      "type": "function"
    },
    {
      "inputs": [],
      "name": "MAX_DEBT_MANAGER",
      "outputs": [
        {
          "internalType": "bytes32",
          "name": "",
          "type": "bytes32"
        }
      ],
      "stateMutability": "view",
      "type": "function"
    },
    {
      "inputs": [],
      "name": "MAX_QUEUE",
      "outputs": [
        {
          "internalType": "uint256",
          "name": "",
          "type": "uint256"
        }
      ],
      "stateMutability": "view",
      "type": "function"
    },
    {
      "inputs": [],
      "name": "MINIMUM_IDLE_MANAGER",
      "outputs": [
        {
          "internalType": "bytes32",
          "name": "",
          "type": "bytes32"
        }
      ],
      "stateMutability": "view",
      "type": "function"
    },
    {
      "inputs": [],
      "name": "ONE_YEAR",
      "outputs": [
        {
          "internalType": "uint256",
          "name": "",
          "type": "uint256"
        }
      ],
      "stateMutability": "view",
      "type": "function"
    },
    {
      "inputs": [],
      "name": "PERMIT_TYPE_HASH",
      "outputs": [
        {
          "internalType": "bytes32",
          "name": "",
          "type": "bytes32"
        }
      ],
      "stateMutability": "view",
      "type": "function"
    },
    {
      "inputs": [],
      "name": "PROFIT_UNLOCK_MANAGER",
      "outputs": [
        {
          "internalType": "bytes32",
          "name": "",
          "type": "bytes32"
        }
      ],
      "stateMutability": "view",
      "type": "function"
    },
    {
      "inputs": [],
      "name": "QUEUE_MANAGER",
      "outputs": [
        {
          "internalType": "bytes32",
          "name": "",
          "type": "bytes32"
        }
      ],
      "stateMutability": "view",
      "type": "function"
    },
    {
      "inputs": [],
      "name": "REPORTING_MANAGER",
      "outputs": [
        {
          "internalType": "bytes32",
          "name": "",
          "type": "bytes32"
        }
      ],
      "stateMutability": "view",
      "type": "function"
    },
    {
      "inputs": [],
      "name": "REVOKE_STRATEGY_MANAGER",
      "outputs": [
        {
          "internalType": "bytes32",
          "name": "",
          "type": "bytes32"
        }
      ],
      "stateMutability": "view",
      "type": "function"
    },
    {
      "inputs": [],
      "name": "ROLE_MANAGER",
      "outputs": [
        {
          "internalType": "bytes32",
          "name": "",
          "type": "bytes32"
        }
      ],
      "stateMutability": "view",
      "type": "function"
    },
    {
      "inputs": [],
      "name": "WITHDRAW_LIMIT_MANAGER",
      "outputs": [
        {
          "internalType": "bytes32",
          "name": "",
          "type": "bytes32"
        }
      ],
      "stateMutability": "view",
      "type": "function"
    },
    {
      "inputs": [],
      "name": "accountant",
      "outputs": [
        {
          "internalType": "address",
          "name": "",
          "type": "address"
        }
      ],
      "stateMutability": "view",
      "type": "function"
    },
    {
      "inputs": [
        {
          "internalType": "address",
          "name": "newStrategy",
          "type": "address"
        }
      ],
      "name": "addStrategy",
      "outputs": [],
      "stateMutability": "nonpayable",
      "type": "function"
    },
    {
      "inputs": [
        {
          "internalType": "address",
          "name": "owner",
          "type": "address"
        },
        {
          "internalType": "address",
          "name": "spender",
          "type": "address"
        }
      ],
      "name": "allowance",
      "outputs": [
        {
          "internalType": "uint256",
          "name": "",
          "type": "uint256"
        }
      ],
      "stateMutability": "view",
      "type": "function"
    },
    {
      "inputs": [
        {
          "internalType": "address",
          "name": "spender",
          "type": "address"
        },
        {
          "internalType": "uint256",
          "name": "amount",
          "type": "uint256"
        }
      ],
      "name": "approve",
      "outputs": [
        {
          "internalType": "bool",
          "name": "",
          "type": "bool"
        }
      ],
      "stateMutability": "nonpayable",
      "type": "function"
    },
    {
      "inputs": [],
      "name": "asset",
      "outputs": [
        {
          "internalType": "address",
          "name": "",
          "type": "address"
        }
      ],
      "stateMutability": "view",
      "type": "function"
    },
    {
      "inputs": [
        {
          "internalType": "address",
          "name": "addr",
          "type": "address"
        }
      ],
      "name": "balanceOf",
      "outputs": [
        {
          "internalType": "uint256",
          "name": "",
          "type": "uint256"
        }
      ],
      "stateMutability": "view",
      "type": "function"
    },
    {
      "inputs": [
        {
          "internalType": "address",
          "name": "strategy",
          "type": "address"
        },
        {
          "internalType": "uint256",
          "name": "amount",
          "type": "uint256"
        }
      ],
      "name": "buyDebt",
      "outputs": [],
      "stateMutability": "nonpayable",
      "type": "function"
    },
    {
      "inputs": [
        {
          "internalType": "uint256",
          "name": "shares",
          "type": "uint256"
        }
      ],
      "name": "convertToAssets",
      "outputs": [
        {
          "internalType": "uint256",
          "name": "",
          "type": "uint256"
        }
      ],
      "stateMutability": "view",
      "type": "function"
    },
    {
      "inputs": [
        {
          "internalType": "uint256",
          "name": "assets",
          "type": "uint256"
        }
      ],
      "name": "convertToShares",
      "outputs": [
        {
          "internalType": "uint256",
          "name": "",
          "type": "uint256"
        }
      ],
      "stateMutability": "view",
      "type": "function"
    },
    {
      "inputs": [],
      "name": "decimals",
      "outputs": [
        {
          "internalType": "uint8",
          "name": "",
          "type": "uint8"
        }
      ],
      "stateMutability": "view",
      "type": "function"
    },
    {
      "inputs": [
        {
          "internalType": "address",
          "name": "spender",
          "type": "address"
        },
        {
          "internalType": "uint256",
          "name": "amount",
          "type": "uint256"
        }
      ],
      "name": "decreaseAllowance",
      "outputs": [
        {
          "internalType": "bool",
          "name": "",
          "type": "bool"
        }
      ],
      "stateMutability": "nonpayable",
      "type": "function"
    },
    {
      "inputs": [
        {
          "internalType": "uint256",
          "name": "",
          "type": "uint256"
        }
      ],
      "name": "defaultQueue",
      "outputs": [
        {
          "internalType": "address",
          "name": "",
          "type": "address"
        }
      ],
      "stateMutability": "view",
      "type": "function"
    },
    {
      "inputs": [
        {
          "internalType": "uint256",
          "name": "assets",
          "type": "uint256"
        },
        {
          "internalType": "address",
          "name": "receiver",
          "type": "address"
        }
      ],
      "name": "deposit",
      "outputs": [
        {
          "internalType": "uint256",
          "name": "",
          "type": "uint256"
        }
      ],
      "stateMutability": "nonpayable",
      "type": "function"
    },
    {
      "inputs": [],
      "name": "depositLimit",
      "outputs": [
        {
          "internalType": "uint256",
          "name": "",
          "type": "uint256"
        }
      ],
      "stateMutability": "view",
      "type": "function"
    },
    {
      "inputs": [],
      "name": "depositLimitModule",
      "outputs": [
        {
          "internalType": "address",
          "name": "",
          "type": "address"
        }
      ],
      "stateMutability": "view",
      "type": "function"
    },
    {
      "inputs": [
        {
          "internalType": "address",
          "name": "strategy",
          "type": "address"
        }
      ],
      "name": "forceRevokeStrategy",
      "outputs": [],
      "stateMutability": "nonpayable",
      "type": "function"
    },
    {
      "inputs": [],
      "name": "fullProfitUnlockDate",
      "outputs": [
        {
          "internalType": "uint256",
          "name": "",
          "type": "uint256"
        }
      ],
      "stateMutability": "view",
      "type": "function"
    },
    {
      "inputs": [],
      "name": "futureRoleManager",
      "outputs": [
        {
          "internalType": "address",
          "name": "",
          "type": "address"
        }
      ],
      "stateMutability": "view",
      "type": "function"
    },
    {
      "inputs": [
        {
          "internalType": "bytes32",
          "name": "role",
          "type": "bytes32"
        }
      ],
      "name": "getRoleAdmin",
      "outputs": [
        {
          "internalType": "bytes32",
          "name": "",
          "type": "bytes32"
        }
      ],
      "stateMutability": "view",
      "type": "function"
    },
    {
      "inputs": [],
      "name": "governance",
      "outputs": [
        {
          "internalType": "address",
          "name": "",
          "type": "address"
        }
      ],
      "stateMutability": "view",
      "type": "function"
    },
    {
      "inputs": [
        {
          "internalType": "bytes32",
          "name": "role",
          "type": "bytes32"
        },
        {
          "internalType": "address",
          "name": "account",
          "type": "address"
        }
      ],
      "name": "grantRole",
      "outputs": [],
      "stateMutability": "nonpayable",
      "type": "function"
    },
    {
      "inputs": [
        {
          "internalType": "bytes32",
          "name": "role",
          "type": "bytes32"
        },
        {
          "internalType": "address",
          "name": "account",
          "type": "address"
        }
      ],
      "name": "hasRole",
      "outputs": [
        {
          "internalType": "bool",
          "name": "",
          "type": "bool"
        }
      ],
      "stateMutability": "view",
      "type": "function"
    },
    {
      "inputs": [
        {
          "internalType": "address",
          "name": "spender",
          "type": "address"
        },
        {
          "internalType": "uint256",
          "name": "amount",
          "type": "uint256"
        }
      ],
      "name": "increaseAllowance",
      "outputs": [
        {
          "internalType": "bool",
          "name": "",
          "type": "bool"
        }
      ],
      "stateMutability": "nonpayable",
      "type": "function"
    },
    {
      "inputs": [],
      "name": "lastProfitUpdate",
      "outputs": [
        {
          "internalType": "uint256",
          "name": "",
          "type": "uint256"
        }
      ],
      "stateMutability": "view",
      "type": "function"
    },
    {
      "inputs": [
        {
          "internalType": "address",
          "name": "receiver",
          "type": "address"
        }
      ],
      "name": "maxDeposit",
      "outputs": [
        {
          "internalType": "uint256",
          "name": "",
          "type": "uint256"
        }
      ],
      "stateMutability": "view",
      "type": "function"
    },
    {
      "inputs": [
        {
          "internalType": "address",
          "name": "receiver",
          "type": "address"
        }
      ],
      "name": "maxMint",
      "outputs": [
        {
          "internalType": "uint256",
          "name": "",
          "type": "uint256"
        }
      ],
      "stateMutability": "view",
      "type": "function"
    },
    {
      "inputs": [
        {
          "internalType": "address",
          "name": "owner",
          "type": "address"
        },
        {
          "internalType": "uint256",
          "name": "maxLoss",
          "type": "uint256"
        },
        {
          "internalType": "address[]",
          "name": "_strategies",
          "type": "address[]"
        }
      ],
      "name": "maxRedeem",
      "outputs": [
        {
          "internalType": "uint256",
          "name": "",
          "type": "uint256"
        }
      ],
      "stateMutability": "nonpayable",
      "type": "function"
    },
    {
      "inputs": [
        {
          "internalType": "address",
          "name": "owner",
          "type": "address"
        },
        {
          "internalType": "uint256",
          "name": "maxLoss",
          "type": "uint256"
        },
        {
          "internalType": "address[]",
          "name": "_strategies",
          "type": "address[]"
        }
      ],
      "name": "maxWithdraw",
      "outputs": [
        {
          "internalType": "uint256",
          "name": "",
          "type": "uint256"
        }
      ],
      "stateMutability": "nonpayable",
      "type": "function"
    },
    {
      "inputs": [],
      "name": "minimumTotalIdle",
      "outputs": [
        {
          "internalType": "uint256",
          "name": "",
          "type": "uint256"
        }
      ],
      "stateMutability": "view",
      "type": "function"
    },
    {
      "inputs": [
        {
          "internalType": "uint256",
          "name": "shares",
          "type": "uint256"
        },
        {
          "internalType": "address",
          "name": "receiver",
          "type": "address"
        }
      ],
      "name": "mint",
      "outputs": [
        {
          "internalType": "uint256",
          "name": "",
          "type": "uint256"
        }
      ],
      "stateMutability": "nonpayable",
      "type": "function"
    },
    {
      "inputs": [
        {
          "internalType": "address",
          "name": "",
          "type": "address"
        }
      ],
      "name": "nonces",
      "outputs": [
        {
          "internalType": "uint256",
          "name": "",
          "type": "uint256"
        }
      ],
      "stateMutability": "view",
      "type": "function"
    },
    {
      "inputs": [
        {
          "internalType": "bytes32",
          "name": "",
          "type": "bytes32"
        }
      ],
      "name": "openRoles",
      "outputs": [
        {
          "internalType": "bool",
          "name": "",
          "type": "bool"
        }
      ],
      "stateMutability": "view",
      "type": "function"
    },
    {
      "inputs": [
        {
          "internalType": "address",
          "name": "owner",
          "type": "address"
        },
        {
          "internalType": "address",
          "name": "spender",
          "type": "address"
        },
        {
          "internalType": "uint256",
          "name": "amount",
          "type": "uint256"
        },
        {
          "internalType": "uint256",
          "name": "deadline",
          "type": "uint256"
        },
        {
          "internalType": "uint8",
          "name": "v",
          "type": "uint8"
        },
        {
          "internalType": "bytes32",
          "name": "r",
          "type": "bytes32"
        },
        {
          "internalType": "bytes32",
          "name": "s",
          "type": "bytes32"
        }
      ],
      "name": "permit",
      "outputs": [
        {
          "internalType": "bool",
          "name": "",
          "type": "bool"
        }
      ],
      "stateMutability": "nonpayable",
      "type": "function"
    },
    {
      "inputs": [
        {
          "internalType": "uint256",
          "name": "assets",
          "type": "uint256"
        }
      ],
      "name": "previewDeposit",
      "outputs": [
        {
          "internalType": "uint256",
          "name": "",
          "type": "uint256"
        }
      ],
      "stateMutability": "view",
      "type": "function"
    },
    {
      "inputs": [
        {
          "internalType": "uint256",
          "name": "shares",
          "type": "uint256"
        }
      ],
      "name": "previewMint",
      "outputs": [
        {
          "internalType": "uint256",
          "name": "",
          "type": "uint256"
        }
      ],
      "stateMutability": "view",
      "type": "function"
    },
    {
      "inputs": [
        {
          "internalType": "uint256",
          "name": "shares",
          "type": "uint256"
        }
      ],
      "name": "previewRedeem",
      "outputs": [
        {
          "internalType": "uint256",
          "name": "",
          "type": "uint256"
        }
      ],
      "stateMutability": "view",
      "type": "function"
    },
    {
      "inputs": [
        {
          "internalType": "uint256",
          "name": "assets",
          "type": "uint256"
        }
      ],
      "name": "previewWithdraw",
      "outputs": [
        {
          "internalType": "uint256",
          "name": "",
          "type": "uint256"
        }
      ],
      "stateMutability": "view",
      "type": "function"
    },
    {
      "inputs": [],
      "name": "pricePerShare",
      "outputs": [
        {
          "internalType": "uint256",
          "name": "",
          "type": "uint256"
        }
      ],
      "stateMutability": "view",
      "type": "function"
    },
    {
      "inputs": [
        {
          "internalType": "address",
          "name": "strategy",
          "type": "address"
        }
      ],
      "name": "processReport",
      "outputs": [
        {
          "internalType": "uint256",
          "name": "",
          "type": "uint256"
        },
        {
          "internalType": "uint256",
          "name": "",
          "type": "uint256"
        }
      ],
      "stateMutability": "nonpayable",
      "type": "function"
    },
    {
      "inputs": [],
      "name": "profitMaxUnlockTime",
      "outputs": [
        {
          "internalType": "uint256",
          "name": "",
          "type": "uint256"
        }
      ],
      "stateMutability": "view",
      "type": "function"
    },
    {
      "inputs": [],
      "name": "profitUnlockingRate",
      "outputs": [
        {
          "internalType": "uint256",
          "name": "",
          "type": "uint256"
        }
      ],
      "stateMutability": "view",
      "type": "function"
    },
    {
      "inputs": [
        {
          "internalType": "uint256",
          "name": "shares",
          "type": "uint256"
        },
        {
          "internalType": "address",
          "name": "receiver",
          "type": "address"
        },
        {
          "internalType": "address",
          "name": "owner",
          "type": "address"
        },
        {
          "internalType": "uint256",
          "name": "maxLoss",
          "type": "uint256"
        },
        {
          "internalType": "address[]",
          "name": "_strategies",
          "type": "address[]"
        }
      ],
      "name": "redeem",
      "outputs": [
        {
          "internalType": "uint256",
          "name": "",
          "type": "uint256"
        }
      ],
      "stateMutability": "nonpayable",
      "type": "function"
    },
    {
      "inputs": [
        {
          "internalType": "bytes32",
          "name": "role",
          "type": "bytes32"
        },
        {
          "internalType": "address",
          "name": "account",
          "type": "address"
        }
      ],
      "name": "renounceRole",
      "outputs": [],
      "stateMutability": "nonpayable",
      "type": "function"
    },
    {
      "inputs": [
        {
          "internalType": "bytes32",
          "name": "role",
          "type": "bytes32"
        },
        {
          "internalType": "address",
          "name": "account",
          "type": "address"
        }
      ],
      "name": "revokeRole",
      "outputs": [],
      "stateMutability": "nonpayable",
      "type": "function"
    },
    {
      "inputs": [
        {
          "internalType": "address",
          "name": "strategy",
          "type": "address"
        }
      ],
      "name": "revokeStrategy",
      "outputs": [],
      "stateMutability": "nonpayable",
      "type": "function"
    },
    {
      "inputs": [],
      "name": "roleManager",
      "outputs": [
        {
          "internalType": "address",
          "name": "",
          "type": "address"
        }
      ],
      "stateMutability": "view",
      "type": "function"
    },
    {
      "inputs": [
        {
          "internalType": "address",
          "name": "",
          "type": "address"
        }
      ],
      "name": "roles",
      "outputs": [
        {
          "internalType": "bytes32",
          "name": "",
          "type": "bytes32"
        }
      ],
      "stateMutability": "view",
      "type": "function"
    },
    {
      "inputs": [
        {
          "internalType": "address",
          "name": "newAccountant",
          "type": "address"
        }
      ],
      "name": "setAccountant",
      "outputs": [],
      "stateMutability": "nonpayable",
      "type": "function"
    },
    {
      "inputs": [
        {
          "internalType": "address[]",
          "name": "newDefaultQueue",
          "type": "address[]"
        }
      ],
      "name": "setDefaultQueue",
      "outputs": [],
      "stateMutability": "nonpayable",
      "type": "function"
    },
    {
      "inputs": [
        {
          "internalType": "uint256",
          "name": "_depositLimit",
          "type": "uint256"
        }
      ],
      "name": "setDepositLimit",
      "outputs": [],
      "stateMutability": "nonpayable",
      "type": "function"
    },
    {
      "inputs": [
        {
          "internalType": "address",
          "name": "_depositLimitModule",
          "type": "address"
        }
      ],
      "name": "setDepositLimitModule",
      "outputs": [],
      "stateMutability": "nonpayable",
      "type": "function"
    },
    {
      "inputs": [
        {
          "internalType": "uint256",
          "name": "_minimumTotalIdle",
          "type": "uint256"
        }
      ],
      "name": "setMinimumTotalIdle",
      "outputs": [],
      "stateMutability": "nonpayable",
      "type": "function"
    },
    {
      "inputs": [
        {
          "internalType": "uint256",
          "name": "_newProfitMaxUnlockTime",
          "type": "uint256"
        }
      ],
      "name": "setProfitMaxUnlockTime",
      "outputs": [],
      "stateMutability": "nonpayable",
      "type": "function"
    },
    {
      "inputs": [
        {
          "internalType": "bool",
          "name": "_useDefaultQueue",
          "type": "bool"
        }
      ],
      "name": "setUseDefaultQueue",
      "outputs": [],
      "stateMutability": "nonpayable",
      "type": "function"
    },
    {
      "inputs": [
        {
          "internalType": "address",
          "name": "_withdrawLimitModule",
          "type": "address"
        }
      ],
      "name": "setWithdrawLimitModule",
      "outputs": [],
      "stateMutability": "nonpayable",
      "type": "function"
    },
    {
      "inputs": [],
      "name": "setters",
      "outputs": [
        {
          "internalType": "address",
          "name": "",
          "type": "address"
        }
      ],
      "stateMutability": "view",
      "type": "function"
    },
    {
      "inputs": [],
      "name": "sharesManager",
      "outputs": [
        {
          "internalType": "address",
          "name": "",
          "type": "address"
        }
      ],
      "stateMutability": "view",
      "type": "function"
    },
    {
      "inputs": [],
      "name": "shutdown",
      "outputs": [
        {
          "internalType": "bool",
          "name": "",
          "type": "bool"
        }
      ],
      "stateMutability": "view",
      "type": "function"
    },
    {
      "inputs": [],
      "name": "shutdownVault",
      "outputs": [],
      "stateMutability": "nonpayable",
      "type": "function"
    },
    {
      "inputs": [
        {
          "internalType": "address",
          "name": "",
          "type": "address"
        }
      ],
      "name": "strategies",
      "outputs": [
        {
          "internalType": "uint256",
          "name": "activation",
          "type": "uint256"
        },
        {
          "internalType": "uint256",
          "name": "lastReport",
          "type": "uint256"
        },
        {
          "internalType": "uint256",
          "name": "currentDebt",
          "type": "uint256"
        },
        {
          "internalType": "uint256",
          "name": "maxDebt",
          "type": "uint256"
        }
      ],
      "stateMutability": "view",
      "type": "function"
    },
    {
      "inputs": [],
      "name": "strategyManager",
      "outputs": [
        {
          "internalType": "address",
          "name": "",
          "type": "address"
        }
      ],
      "stateMutability": "view",
      "type": "function"
    },
    {
      "inputs": [
        {
          "internalType": "bytes4",
          "name": "interfaceId",
          "type": "bytes4"
        }
      ],
      "name": "supportsInterface",
      "outputs": [
        {
          "internalType": "bool",
          "name": "",
          "type": "bool"
        }
      ],
      "stateMutability": "view",
      "type": "function"
    },
    {
      "inputs": [],
      "name": "totalAssets",
      "outputs": [
        {
          "internalType": "uint256",
          "name": "",
          "type": "uint256"
        }
      ],
      "stateMutability": "view",
      "type": "function"
    },
    {
      "inputs": [],
      "name": "totalDebtAmount",
      "outputs": [
        {
          "internalType": "uint256",
          "name": "",
          "type": "uint256"
        }
      ],
      "stateMutability": "view",
      "type": "function"
    },
    {
      "inputs": [],
      "name": "totalIdleAmount",
      "outputs": [
        {
          "internalType": "uint256",
          "name": "",
          "type": "uint256"
        }
      ],
      "stateMutability": "view",
      "type": "function"
    },
    {
      "inputs": [],
      "name": "totalSupply",
      "outputs": [
        {
          "internalType": "uint256",
          "name": "",
          "type": "uint256"
        }
      ],
      "stateMutability": "view",
      "type": "function"
    },
    {
      "inputs": [],
      "name": "totalSupplyAmount",
      "outputs": [
        {
          "internalType": "uint256",
          "name": "",
          "type": "uint256"
        }
      ],
      "stateMutability": "view",
      "type": "function"
    },
    {
      "inputs": [
        {
          "internalType": "address",
          "name": "receiver",
          "type": "address"
        },
        {
          "internalType": "uint256",
          "name": "amount",
          "type": "uint256"
        }
      ],
      "name": "transfer",
      "outputs": [
        {
          "internalType": "bool",
          "name": "",
          "type": "bool"
        }
      ],
      "stateMutability": "nonpayable",
      "type": "function"
    },
    {
      "inputs": [
        {
          "internalType": "address",
          "name": "sender",
          "type": "address"
        },
        {
          "internalType": "address",
          "name": "receiver",
          "type": "address"
        },
        {
          "internalType": "uint256",
          "name": "amount",
          "type": "uint256"
        }
      ],
      "name": "transferFrom",
      "outputs": [
        {
          "internalType": "bool",
          "name": "",
          "type": "bool"
        }
      ],
      "stateMutability": "nonpayable",
      "type": "function"
    },
    {
      "inputs": [],
      "name": "unlockedShares",
      "outputs": [
        {
          "internalType": "uint256",
          "name": "",
          "type": "uint256"
        }
      ],
      "stateMutability": "view",
      "type": "function"
    },
    {
      "inputs": [
        {
          "internalType": "address",
          "name": "strategy",
          "type": "address"
        },
        {
          "internalType": "uint256",
          "name": "targetDebt",
          "type": "uint256"
        }
      ],
      "name": "updateDebt",
      "outputs": [
        {
          "internalType": "uint256",
          "name": "",
          "type": "uint256"
        }
      ],
      "stateMutability": "nonpayable",
      "type": "function"
    },
    {
      "inputs": [
        {
          "internalType": "address",
          "name": "strategy",
          "type": "address"
        },
        {
          "internalType": "uint256",
          "name": "newMaxDebt",
          "type": "uint256"
        }
      ],
      "name": "updateMaxDebtForStrategy",
      "outputs": [],
      "stateMutability": "nonpayable",
      "type": "function"
    },
    {
      "inputs": [],
      "name": "useDefaultQueue",
      "outputs": [
        {
          "internalType": "bool",
          "name": "",
          "type": "bool"
        }
      ],
      "stateMutability": "view",
      "type": "function"
    },
    {
      "inputs": [
        {
          "internalType": "uint256",
          "name": "assets",
          "type": "uint256"
        },
        {
          "internalType": "address",
          "name": "receiver",
          "type": "address"
        },
        {
          "internalType": "address",
          "name": "owner",
          "type": "address"
        },
        {
          "internalType": "uint256",
          "name": "maxLoss",
          "type": "uint256"
        },
        {
          "internalType": "address[]",
          "name": "_strategies",
          "type": "address[]"
        }
      ],
      "name": "withdraw",
      "outputs": [
        {
          "internalType": "uint256",
          "name": "",
          "type": "uint256"
        }
      ],
      "stateMutability": "nonpayable",
      "type": "function"
    },
    {
      "inputs": [],
      "name": "withdrawLimitModule",
      "outputs": [
        {
          "internalType": "address",
          "name": "",
          "type": "address"
        }
      ],
      "stateMutability": "view",
      "type": "function"
    }
  ],
  "transactionHash": "0xe1b118d56abd409a7077ff8973b2f16a3bee1a1d68512a070cdd36b7464c081c",
  "args": [
    31536000,
    "0x18695BCBF2F79997B85bfC5d1a07342369c20Ea5",
    "0xBC2Ab409fed847926D05dd4dC26DE7C72891233e",
    "0x412C9103D8FBc33d9df4369131f4c1EeA7502086",
    "0xd01e340f5BfA55955714F18B58875403810eA81e"
  ],
  "numDeployments": 1,
  "solcInputHash": "a44d46dc47283061fc4b26b4c75aaab8",
  "bytecode": "0x60c06040526301e185586080523480156200001957600080fd5b50604051620034c8380380620034c88339810160408190526200003c91620003ad565b600180553360a052608051851115620000685760405163fdfbb0b760e01b815260040160405180910390fd5b6017859055600280546001600160a01b038087166001600160a01b03199283161790925560038054868416908316179055600480548584169083161790556005805492841692909116919091179055620000c4600033620002b1565b620000f07f2f0dbbe8c2c0170206c50ec0cafa1c0dbd03e73e67c2a960178df30a0a30ee2e33620002b1565b6200011c7f2a0e761830cc61f2707ea7bb138008bf9dda7f7d34c77736d0a116604e95ea1633620002b1565b620001487f7cbb3cdf689b8ea3e9d265f66bc4e0a99069268217017d38d2a5a559abc6271933620002b1565b620001747f152ebba56b9738ee3d8baea1b76fa31dcdcd79b1929bfea7d58ee12cfdf1a65333620002b1565b620001a07f633076a97f32ae349b28772e7b1483f67a926f150cbc501d02bdbd77389325ab33620002b1565b600354604080516306fdde0360e01b815290517f8b73c3c69bb8fe3d512ecc4cf759cc79239f7b179b0ffacaa9a75d522b39400f926001600160a01b0316916306fdde039160048083019260009291908290030181865afa1580156200020a573d6000803e3d6000fd5b505050506040513d6000823e601f3d908101601f1916820160405262000234919081019062000561565b805160209182012060408051808201825260058152640312e302e360dc1b90840152516200028a93927f06c015bd22b4c69690933c1058878ebdfef31f9aaae40bbe86d8a09fe1b2972c914691309101620005b4565b60405160208183030381529060405280519060200120601c8190555050505050506200060a565b620002bd82826200033a565b62000336576000828152602081815260408083206001600160a01b03851684529091529020805460ff19166001179055620002f53390565b6001600160a01b0316816001600160a01b0316837f2f8788117e7eff1d82e926ec794901d17c78024a50270940304540a733656f0d60405160405180910390a45b5050565b6000828152602081815260408083206001600160a01b038516845290915290205460ff165b92915050565b805b81146200037357600080fd5b50565b80516200035f8162000365565b60006001600160a01b0382166200035f565b620003678162000383565b80516200035f8162000395565b600080600080600060a08688031215620003ca57620003ca600080fd5b6000620003d8888862000376565b9550506020620003eb88828901620003a0565b9450506040620003fe88828901620003a0565b93505060606200041188828901620003a0565b92505060806200042488828901620003a0565b9150509295509295909350565b634e487b7160e01b600052604160045260246000fd5b601f19601f83011681018181106001600160401b03821117156200046f576200046f62000431565b6040525050565b60006200048260405190565b905062000490828262000447565b919050565b60006001600160401b03821115620004b157620004b162000431565b601f19601f83011660200192915050565b60005b83811015620004df578181015183820152602001620004c5565b50506000910152565b6000620004ff620004f98462000495565b62000476565b9050828152602081018484840111156200051c576200051c600080fd5b62000529848285620004c2565b509392505050565b600082601f830112620005475762000547600080fd5b815162000559848260208601620004e8565b949350505050565b600060208284031215620005785762000578600080fd5b81516001600160401b03811115620005935762000593600080fd5b620005598482850162000531565b805b82525050565b620005a38162000383565b60a08101620005c48288620005a1565b620005d36020830187620005a1565b620005e26040830186620005a1565b620005f16060830185620005a1565b620006006080830184620005a9565b9695505050505050565b60805160a051612e98620006306000396000610604015260006105800152612e986000f3fe608060405234801561001057600080fd5b506004361061047b5760003560e01c806370a082311161025557806370a082311461087257806377e3b267146108855780637ecebe00146108b65780638212fd43146108d65780638afca8f0146108e957806391986003146108f257806391d148541461090557806394bf804d14610918578063993746421461092b57806399530b061461094b5780639bbca884146109535780639e34e348146109665780639f3988f314610979578063a217fddf1461098e578063a457c2d714610996578063a9059cbb146109a9578063a98222c4146109bc578063ab5b4d49146109d1578063acded97d146109e6578063b3c187f2146109f9578063b3d7f6b914610a0c578063b6cc2d1f14610a1f578063bb994d4814610a40578063bbe4eb4914610a53578063bdc8144b14610a60578063bee7e3d914610a73578063c065ca0714610a86578063c0993eea14610a9b578063c63d75b614610ac2578063c6e6f59214610ad5578063c8d74b6014610ae8578063c8dffa9514610afd578063d4ae064f14610b06578063d505accf14610b1b578063d547741f14610b2e578063d81a09f614610b41578063d9a0e97a14610b54578063dd62ed3e14610b5c578063df69b22a14610b6f578063e5236cc914610b82578063ecf7085814610b8a578063ef8b30f714610ad5578063f1daeba814610b93578063f5b944eb14610ba8578063f6d7bfa014610bcf578063f828f50b14610be2578063fc0e74d114610beb578063fd967f4714610bff578063fec61f0614610c08578063ff1e7f0814610c1d57600080fd5b8062435da51461048057806301e1d114146104a957806301ffc9a7146104be57806303dcd12c146104de57806306580f2d146104f357806307a2d13a146105065780630835a3fc146105195780630952864e14610522578063095ea7b31461052b5780630a28a4771461053e5780630ad283d01461055157806316b87ac01461056657806316d3bfbb1461057b57806318160ddd146105a2578063223e5479146105aa57806323b872dd146105bd578063248a9ca3146105d05780632d632692146105e35780632d772168146105ec5780632dd31000146105ff5780632f2ff15d14610626578063313ce5671461063957806334b5fab61461064e5780633644e5151461066157806336568abe1461066a57806336fba0841461067d57806338d52e0f14610689578063395093511461069157806339b70e38146106a457806339ebf823146106b75780633cd7b5ab146106fc5780633f7b5e4014610705578063402d267d1461070d578063405977e71461072057806346e6ac491461073357806348ea7127146107465780634bbd71e9146107595780634cdad506146105065780634ce1d38a1461076c5780634cfe51dc146107815780634d4bb197146107965780634fb3ccc5146107bd5780635141eebb146107d057806353a66132146107d95780635aa6e675146107fc5780635bf6b4fb1461080f578063633f228c14610824578063652da3241461083757806365cb67651461084c5780636e553f651461085f575b600080fd5b601554610493906001600160a01b031681565b6040516104a09190612061565b60405180910390f35b6104b1610c30565b6040516104a09190612075565b6104d16104cc3660046120a5565b610ca2565b6040516104a091906120ce565b6104b1600080516020612ce383398151915281565b6104b1610501366004612211565b610cd9565b6104b16105143660046122a3565b610d72565b6104b1600e5481565b6104b160175481565b6104d16105393660046122c4565b610d7f565b6104b161054c3660046122a3565b610dfe565b6104b1600080516020612d0383398151915281565b610579610574366004612301565b610e0b565b005b6104b17f000000000000000000000000000000000000000000000000000000000000000081565b6104b1610e8c565b6105796105b8366004612301565b610ed6565b6104d16105cb366004612322565b610f1e565b6104b16105de3660046122a3565b610fdb565b6104b160185481565b6105796105fa366004612301565b610ff0565b6104937f000000000000000000000000000000000000000000000000000000000000000081565b610579610634366004612372565b611037565b610641611058565b6040516104a091906123ae565b6104b161065c3660046123bc565b6110c6565b6104b1601c5481565b610579610678366004612372565b61113e565b6104b164e8d4a5100081565b61049361117d565b6104d161069f3660046122c4565b6111eb565b600254610493906001600160a01b031681565b6106ec6106c5366004612301565b60066020526000908152604090208054600182015460028301546003909301549192909184565b6040516104a0949392919061241c565b6104b1600d5481565b6104b1600a81565b6104b161071b366004612301565b611220565b61057961072e3660046122c4565b611292565b6104b16107413660046122c4565b61131f565b610579610754366004612301565b611415565b610579610767366004612301565b61145c565b6104b1600080516020612e4383398151915281565b6104b1600080516020612d6383398151915281565b6104b17f6e71edae12b1b97f4d1f60370fef10105fa2faae0126114a169c64845d6126c981565b601054610493906001600160a01b031681565b6104b160195481565b6104d16107e73660046122a3565b60146020526000908152604090205460ff1681565b600554610493906001600160a01b031681565b6104b1600080516020612d4383398151915281565b6105796108323660046124a2565b6114a3565b6104b1600080516020612cc383398151915281565b6104b161085a3660046123bc565b611523565b6104b161086d366004612372565b611558565b6104b1610880366004612301565b6115e4565b6108a9604051806040016040528060058152602001640312e302e360dc1b81525081565b6040516104a09190612541565b6104b16108c4366004612301565b601b6020526000908152604090205481565b6105796108e43660046122a3565b611615565b6104b1601a5481565b601254610493906001600160a01b031681565b6104d1610913366004612372565b61165c565b6104b1610926366004612372565b611685565b6104b1610939366004612301565b60136020526000908152604090205481565b6104b16116c3565b610579610961366004612565565b611751565b601154610493906001600160a01b031681565b6104b1600080516020612dc383398151915281565b6104b1600081565b6104d16109a43660046122c4565b611798565b6104d16109b73660046122c4565b6117cd565b6104b1600080516020612e2383398151915281565b6104b1600080516020612de383398151915281565b600354610493906001600160a01b031681565b601654610493906001600160a01b031681565b6104b1610a1a3660046122a3565b61187a565b610a32610a2d366004612301565b611887565b6040516104a0929190612586565b610579610a4e366004612301565b61192f565b6008546104d19060ff1681565b610579610a6e3660046122a3565b61197a565b600454610493906001600160a01b031681565b6104b1600080516020612d8383398151915281565b6104b17f8b73c3c69bb8fe3d512ecc4cf759cc79239f7b179b0ffacaa9a75d522b39400f81565b6104b1610ad0366004612301565b6119c2565b6104b1610ae33660046122a3565b6119f3565b6104b1600080516020612ca383398151915281565b6104b1600c5481565b6104b1600080516020612e0383398151915281565b6104d1610b293660046125b5565b611a00565b610579610b3c366004612372565b611a8c565b6104b1610b4f366004612211565b611aa8565b6104b1611aea565b6104b1610b6a366004612654565b611b34565b610579610b7d3660046122a3565b611ba8565b610579611bef565b6104b1600f5481565b6104b1600080516020612da383398151915281565b6104b17ff206625bad3d9112d5609b8d356e6fbd514cd1f69980d4ce2b3e6e68e1789ace81565b610579610bdd3660046122c4565b611c72565b6104b1600b5481565b6016546104d190600160a01b900460ff1681565b6104b161271081565b6104b1600080516020612d2383398151915281565b610493610c2b3660046122a3565b611cbc565b600354604080516278744560e21b815290516000926001600160a01b0316916301e1d1149160048083019260209291908290030181865afa158015610c79573d6000803e3d6000fd5b505050506040513d601f19601f82011682018060405250810190610c9d9190612681565b905090565b60006001600160e01b03198216637965db0b60e01b1480610cd357506301ffc9a760e01b6001600160e01b03198316145b92915050565b6000610ce3611ce6565b6003546040516306580f2d60e01b81526001600160a01b03909116906306580f2d90610d1b90899089908990899089906004016126ff565b6020604051808303816000875af1158015610d3a573d6000803e3d6000fd5b505050506040513d601f19601f82011682018060405250810190610d5e9190612681565b9050610d6960018055565b95945050505050565b6000610cd3826000611d0f565b60035460405163e1f21c6760e01b81526000916001600160a01b03169063e1f21c6790610db490339087908790600401612751565b6020604051808303816000875af1158015610dd3573d6000803e3d6000fd5b505050506040513d601f19601f82011682018060405250810190610df79190612784565b9392505050565b6000610cd3826001611d42565b600080516020612d43833981519152610e2381611d75565b600254604051637a163bd760e11b81526001600160a01b039091169063f42c77ae90610e569085906001906004016127a5565b600060405180830381600087803b158015610e7057600080fd5b505af1158015610e84573d6000803e3d6000fd5b505050505050565b600354604080516318160ddd60e01b815290516000926001600160a01b0316916318160ddd9160048083019260209291908290030181865afa158015610c79573d6000803e3d6000fd5b600080516020612d83833981519152610eee81611d75565b60025460405163223e547960e01b81526001600160a01b039091169063223e547990610e56908590600401612061565b60006001600160a01b038316301480610f3e57506001600160a01b038316155b15610f5c5760405163d92e233d60e01b815260040160405180910390fd5b6003546040516323b872dd60e01b81526001600160a01b03909116906323b872dd90610f9090879087908790600401612751565b6020604051808303816000875af1158015610faf573d6000803e3d6000fd5b505050506040513d601f19601f82011682018060405250810190610fd39190612784565b949350505050565b60009081526020819052604090206001015490565b600080516020612e2383398151915261100881611d75565b600480546040516305aee42d60e31b81526001600160a01b0390911691632d77216891610e5691869101612061565b61104082610fdb565b61104981611d75565b6110538383611d82565b505050565b6003546040805163313ce56760e01b815290516000926001600160a01b03169163313ce5679160048083019260209291908290030181865afa1580156110a2573d6000803e3d6000fd5b505050506040513d601f19601f82011682018060405250810190610c9d91906127cb565b600354604051631a5afd5b60e11b81526000916001600160a01b0316906334b5fab6906110fb908790879087906004016127ec565b6020604051808303816000875af115801561111a573d6000803e3d6000fd5b505050506040513d601f19601f82011682018060405250810190610fd39190612681565b6001600160a01b038116331461116f5760405162461bcd60e51b815260040161116690612819565b60405180910390fd5b6111798282611e06565b5050565b600354604080516338d52e0f60e01b815290516000926001600160a01b0316916338d52e0f9160048083019260209291908290030181865afa1580156111c7573d6000803e3d6000fd5b505050506040513d601f19601f82011682018060405250810190610c9d9190612877565b600354604051633621d16560e11b81526000916001600160a01b031690636c43a2ca90610db490339087908790600401612751565b60035460405163402d267d60e01b81526000916001600160a01b03169063402d267d90611251908590600401612061565b602060405180830381865afa15801561126e573d6000803e3d6000fd5b505050506040513d601f19601f82011682018060405250810190610cd39190612681565b600080516020612de38339815191526112aa81611d75565b6112b2611ce6565b60055460405163405977e760e01b81526001600160a01b039091169063405977e7906112e49086908690600401612898565b600060405180830381600087803b1580156112fe57600080fd5b505af1158015611312573d6000803e3d6000fd5b5050505061105360018055565b6000600080516020612ca383398151915261133981611d75565b611341611ce6565b6001600160a01b03841660009081526006602052604090206002015483148015906113705750600e54600d5411155b1561138e5760405163356680b760e01b815260040160405180910390fd5b6002546040516346e6ac4960e01b81526001600160a01b03909116906346e6ac49906113c09087908790600401612898565b6020604051808303816000875af11580156113df573d6000803e3d6000fd5b505050506040513d601f19601f820116820180604052508101906114039190612681565b915061140e60018055565b5092915050565b600080516020612cc383398151915261142d81611d75565b600480546040516348ea712760e01b81526001600160a01b03909116916348ea712791610e5691869101612061565b600080516020612e4383398151915261147481611d75565b60048054604051634bbd71e960e01b81526001600160a01b0390911691634bbd71e991610e5691869101612061565b600080516020612d638339815191526114bb81611d75565b600480546040516318cfc8a360e21b81526001600160a01b039091169163633f228c916114ec9187918791016128f2565b600060405180830381600087803b15801561150657600080fd5b505af115801561151a573d6000803e3d6000fd5b50505050505050565b6003546040516365cb676560e01b81526000916001600160a01b0316906365cb6765906110fb908790879087906004016127ec565b6000611562611ce6565b600354604051638340f54960e01b81526001600160a01b0390911690638340f5499061159690339086908890600401612751565b6020604051808303816000875af11580156115b5573d6000803e3d6000fd5b505050506040513d601f19601f820116820180604052508101906115d99190612681565b9050610cd360018055565b6003546040516370a0823160e01b81526000916001600160a01b0316906370a0823190611251908590600401612061565b600080516020612d0383398151915261162d81611d75565b60048054604051638212fd4360e01b81526001600160a01b0390911691638212fd4391610e5691869101612075565b6000918252602082815260408084206001600160a01b0393909316845291905290205460ff1690565b600061168f611ce6565b600354604051636361ddf360e11b81526001600160a01b039091169063c6c3bbe69061159690339086908890600401612751565b6000610c9d600360009054906101000a90046001600160a01b03166001600160a01b031663313ce5676040518163ffffffff1660e01b8152600401602060405180830381865afa15801561171b573d6000803e3d6000fd5b505050506040513d601f19601f8201168201806040525081019061173f91906127cb565b61174a90600a612a28565b6000611d0f565b600080516020612d6383398151915261176981611d75565b600480546040516326ef2a2160e21b81526001600160a01b0390911691639bbca88491610e56918691016120ce565b60035460405163d73b1dc960e01b81526000916001600160a01b03169063d73b1dc990610db490339087908790600401612751565b60006001600160a01b0383163014806117ed57506001600160a01b038316155b1561180b5760405163d92e233d60e01b815260040160405180910390fd5b6003546040516317d5759960e31b81526001600160a01b039091169063beabacc89061183f90339087908790600401612751565b600060405180830381600087803b15801561185957600080fd5b505af115801561186d573d6000803e3d6000fd5b5060019695505050505050565b6000610cd3826001611d0f565b600080600080516020612ce38339815191526118a281611d75565b6118aa611ce6565b60025460405163b6cc2d1f60e01b81526001600160a01b039091169063b6cc2d1f906118da908790600401612061565b60408051808303816000875af11580156118f8573d6000803e3d6000fd5b505050506040513d601f19601f8201168201806040525081019061191c9190612a3d565b9250925061192960018055565b50915091565b600080516020612dc383398151915261194781611d75565b600254604051637a163bd760e11b81526001600160a01b039091169063f42c77ae90610e569085906000906004016127a5565b600080516020612e2383398151915261199281611d75565b60035460405163bdc8144b60e01b81526001600160a01b039091169063bdc8144b90610e56908590600401612075565b60035460405163631ebadb60e11b81526000916001600160a01b03169063c63d75b690611251908590600401612061565b6000610cd3826000611d42565b60035460405163d505accf60e01b81526000916001600160a01b03169063d505accf90611a3d908b908b908b908b908b908b908b90600401612a70565b6020604051808303816000875af1158015611a5c573d6000803e3d6000fd5b505050506040513d601f19601f82011682018060405250810190611a809190612784565b98975050505050505050565b611a9582610fdb565b611a9e81611d75565b6110538383611e06565b6000611ab2611ce6565b600354604051636c0d04fb60e11b81526001600160a01b039091169063d81a09f690610d1b90899089908990899089906004016126ff565b60035460408051636cd074bd60e11b815290516000926001600160a01b03169163d9a0e97a9160048083019260209291908290030181865afa158015610c79573d6000803e3d6000fd5b600354604051636eb1769f60e11b81526000916001600160a01b03169063dd62ed3e90611b679086908690600401612acc565b602060405180830381865afa158015611b84573d6000803e3d6000fd5b505050506040513d601f19601f82011682018060405250810190610df79190612681565b600080516020612e03833981519152611bc081611d75565b60048054604051636fb4d91560e11b81526001600160a01b039091169163df69b22a91610e5691869101612075565b600080516020612d23833981519152611c0781611d75565b600560009054906101000a90046001600160a01b03166001600160a01b031663e5236cc96040518163ffffffff1660e01b8152600401600060405180830381600087803b158015611c5757600080fd5b505af1158015611c6b573d6000803e3d6000fd5b5050505050565b600080516020612da3833981519152611c8a81611d75565b6002546040516307b6bdfd60e51b81526001600160a01b039091169063f6d7bfa0906114ec9086908690600401612898565b60078181548110611ccc57600080fd5b6000918252602090912001546001600160a01b0316905081565b600260015403611d085760405162461bcd60e51b815260040161116690612b1e565b6002600155565b600354604051637ff0007760e01b81526000916001600160a01b031690637ff0007790611b679086908690600401612b72565b600354604051635d4086af60e01b81526000916001600160a01b031690635d4086af90611b679086908690600401612b72565b611d7f8133611e6b565b50565b611d8c828261165c565b611179576000828152602081815260408083206001600160a01b03851684529091529020805460ff19166001179055611dc23390565b6001600160a01b0316816001600160a01b0316837f2f8788117e7eff1d82e926ec794901d17c78024a50270940304540a733656f0d60405160405180910390a45050565b611e10828261165c565b15611179576000828152602081815260408083206001600160a01b0385168085529252808320805460ff1916905551339285917ff6391f5c32d9c69d2a47ea670b442974b53935d1edc7fd64eb21e047a839171b9190a45050565b611e75828261165c565b61117957611e8281611ec4565b611e8d836020611ed6565b604051602001611e9e929190612baf565b60408051601f198184030181529082905262461bcd60e51b825261116691600401612541565b6060610cd36001600160a01b03831660145b60606000611ee5836002612c01565b611ef0906002612c20565b6001600160401b03811115611f0757611f0761210b565b6040519080825280601f01601f191660200182016040528015611f31576020820181803683370190505b509050600360fc1b81600081518110611f4c57611f4c612c33565b60200101906001600160f81b031916908160001a905350600f60fb1b81600181518110611f7b57611f7b612c33565b60200101906001600160f81b031916908160001a9053506000611f9f846002612c01565b611faa906001612c20565b90505b6001811115612022576f181899199a1a9b1b9c1cb0b131b232b360811b85600f1660108110611fde57611fde612c33565b1a60f81b828281518110611ff457611ff4612c33565b60200101906001600160f81b031916908160001a90535060049490941c9361201b81612c49565b9050611fad565b508315610df75760405162461bcd60e51b815260040161116690612c92565b60006001600160a01b038216610cd3565b61205b81612041565b82525050565b60208101610cd38284612052565b8061205b565b60208101610cd3828461206f565b6001600160e01b031981165b8114611d7f57600080fd5b8035610cd381612083565b6000602082840312156120ba576120ba600080fd5b6000610fd3848461209a565b80151561205b565b60208101610cd382846120c6565b8061208f565b8035610cd3816120dc565b61208f81612041565b8035610cd3816120ed565b601f01601f191690565b634e487b7160e01b600052604160045260246000fd5b61212a82612101565b81018181106001600160401b03821117156121475761214761210b565b6040525050565b600061215960405190565b90506121658282612121565b919050565b60006001600160401b038211156121835761218361210b565b5060209081020190565b60006121a061219b8461216a565b61214e565b838152905060208082019084028301858111156121bf576121bf600080fd5b835b818110156121e357806121d488826120f6565b845250602092830192016121c1565b5050509392505050565b600082601f83011261220157612201600080fd5b8135610fd384826020860161218d565b600080600080600060a0868803121561222c5761222c600080fd5b600061223888886120e2565b9550506020612249888289016120f6565b945050604061225a888289016120f6565b935050606061226b888289016120e2565b92505060808601356001600160401b0381111561228a5761228a600080fd5b612296888289016121ed565b9150509295509295909350565b6000602082840312156122b8576122b8600080fd5b6000610fd384846120e2565b600080604083850312156122da576122da600080fd5b60006122e685856120f6565b92505060206122f7858286016120e2565b9150509250929050565b60006020828403121561231657612316600080fd5b6000610fd384846120f6565b60008060006060848603121561233a5761233a600080fd5b600061234686866120f6565b9350506020612357868287016120f6565b9250506040612368868287016120e2565b9150509250925092565b6000806040838503121561238857612388600080fd5b600061239485856120e2565b92505060206122f7858286016120f6565b60ff811661205b565b60208101610cd382846123a5565b6000806000606084860312156123d4576123d4600080fd5b60006123e086866120f6565b93505060206123f1868287016120e2565b92505060408401356001600160401b0381111561241057612410600080fd5b612368868287016121ed565b6080810161242a828761206f565b612437602083018661206f565b612444604083018561206f565b610d69606083018461206f565b60008083601f84011261246657612466600080fd5b5081356001600160401b0381111561248057612480600080fd5b60208301915083602082028301111561249b5761249b600080fd5b9250929050565b600080602083850312156124b8576124b8600080fd5b82356001600160401b038111156124d1576124d1600080fd5b6124dd85828601612451565b92509250509250929050565b60005b838110156125045781810151838201526020016124ec565b50506000910152565b6000612517825190565b80845260208401935061252e8185602086016124e9565b61253781612101565b9093019392505050565b60208082528101610df7818461250d565b80151561208f565b8035610cd381612552565b60006020828403121561257a5761257a600080fd5b6000610fd3848461255a565b60408101612594828561206f565b610df7602083018461206f565b60ff811661208f565b8035610cd3816125a1565b600080600080600080600060e0888a0312156125d3576125d3600080fd5b60006125df8a8a6120f6565b97505060206125f08a828b016120f6565b96505060406126018a828b016120e2565b95505060606126128a828b016120e2565b94505060806126238a828b016125aa565b93505060a06126348a828b016120e2565b92505060c06126458a828b016120e2565b91505092959891949750929550565b6000806040838503121561266a5761266a600080fd5b600061239485856120f6565b8051610cd3816120dc565b60006020828403121561269657612696600080fd5b6000610fd38484612676565b60006126ae8383612052565b505060200190565b60006126c0825190565b80845260209384019383018060005b838110156126f45781516126e388826126a2565b9750602083019250506001016126cf565b509495945050505050565b60a0810161270d828861206f565b61271a6020830187612052565b6127276040830186612052565b612734606083018561206f565b818103608083015261274681846126b6565b979650505050505050565b6060810161275f8286612052565b61276c6020830185612052565b610fd3604083018461206f565b8051610cd381612552565b60006020828403121561279957612799600080fd5b6000610fd38484612779565b604081016127b38285612052565b610df760208301846120c6565b8051610cd3816125a1565b6000602082840312156127e0576127e0600080fd5b6000610fd384846127c0565b606081016127fa8286612052565b612807602083018561206f565b8181036040830152610d6981846126b6565b60208082528101610cd381602f81527f416363657373436f6e74726f6c3a2063616e206f6e6c792072656e6f756e636560208201526e103937b632b9903337b91039b2b63360891b604082015260600190565b8051610cd3816120ed565b60006020828403121561288c5761288c600080fd5b6000610fd3848461286c565b604081016125948285612052565b6000610df760208401846120f6565b8183526000602084019350818060005b858110156126f4576128d782846128a6565b6128e188826126a2565b9750602083019250506001016128c5565b60208082528101610fd38184866128b5565b634e487b7160e01b600052601160045260246000fd5b80825b60018511156129595780860481111561293857612938612904565b600185161561294657908102905b80026129528560011c90565b945061291d565b94509492505050565b60008261297157506001610df7565b8161297e57506000610df7565b8160018114612994576002811461299e576129cb565b6001915050610df7565b60ff8411156129af576129af612904565b8360020a9150848211156129c5576129c5612904565b50610df7565b5060208310610133831016604e8410600b84101617156129fe575081810a838111156129f9576129f9612904565b610df7565b612a0b848484600161291a565b92509050818404811115612a2157612a21612904565b0292915050565b600060ff83169250610df76000198484612962565b60008060408385031215612a5357612a53600080fd5b6000612a5f8585612676565b92505060206122f785828601612676565b60e08101612a7e828a612052565b612a8b6020830189612052565b612a98604083018861206f565b612aa5606083018761206f565b612ab260808301866123a5565b612abf60a083018561206f565b611a8060c083018461206f565b60408101612ada8285612052565b610df76020830184612052565b601f81526000602082017f5265656e7472616e637947756172643a207265656e7472616e742063616c6c00815291505b5060200190565b60208082528101610cd381612ae7565b634e487b7160e01b600052602160045260246000fd5b60028110611d7f57611d7f612b2e565b8061216581612b44565b6000610cd382612b54565b61205b81612b5e565b60408101612b80828561206f565b610df76020830184612b69565b6000612b97825190565b612ba58185602086016124e9565b9290920192915050565b76020b1b1b2b9b9a1b7b73a3937b61d1030b1b1b7bab73a1604d1b81526017016000612bdb8285612b8d565b7001034b99036b4b9b9b4b733903937b6329607d1b81526011019150610fd38284612b8d565b6000816000190483118215151615612c1b57612c1b612904565b500290565b80820180821115610cd357610cd3612904565b634e487b7160e01b600052603260045260246000fd5b600081612c5857612c58612904565b506000190190565b60208082527f537472696e67733a20686578206c656e67746820696e73756666696369656e7491019081526000612b17565b60208082528101610cd381612c6056fe152ebba56b9738ee3d8baea1b76fa31dcdcd79b1929bfea7d58ee12cfdf1a653cd9f023a942ee35097ead74b2505bea9f2c5d47465db92dd195cf7f01a41cfe1633076a97f32ae349b28772e7b1483f67a926f150cbc501d02bdbd77389325abc723f4dd6268e1c374639e36d629c765285ee7003913389d582c300f186dde97d45f7ccff42f059d4e47c3f027c444272257266f7e88b981e142f0aa38fbfd78ea672c1c09cd95c51af9509f646f3615ff0071aae8652bd821471ee9037fd72c862f91c9d89d6135b19873b921c90b702cb2e175c371b8430026b9577e6911192a0e761830cc61f2707ea7bb138008bf9dda7f7d34c77736d0a116604e95ea167cbb3cdf689b8ea3e9d265f66bc4e0a99069268217017d38d2a5a559abc627196f430d649a8640e48ff9bfbc353b3f99ed630163857821b3b4075e3871dafbf5900d80def0427daac599092fcb16b21808ec68dd9a2e1eae89d1e8db21357375a18eaea71a088b547b8c932b48861853b3434d9a3240b94466c607e28b6965952f0dbbe8c2c0170206c50ec0cafa1c0dbd03e73e67c2a960178df30a0a30ee2e69d1171ac0a63777a6733cda21aec9ed3d48a4fd11f273c934a691dec5e5589ca26469706673582212202528d55b58dbeadf4616bb6c787efb72ac890c126cc6163fa95d63203339da8164736f6c63430008100033",
  "devdoc": {
    "kind": "dev",
    "methods": {
      "getRoleAdmin(bytes32)": {
        "details": "Returns the admin role that controls `role`. See {grantRole} and {revokeRole}. To change a role's admin, use {_setRoleAdmin}."
      },
      "grantRole(bytes32,address)": {
        "details": "Grants `role` to `account`. If `account` had not been already granted `role`, emits a {RoleGranted} event. Requirements: - the caller must have ``role``'s admin role. May emit a {RoleGranted} event."
      },
      "hasRole(bytes32,address)": {
        "details": "Returns `true` if `account` has been granted `role`."
      },
      "renounceRole(bytes32,address)": {
        "details": "Revokes `role` from the calling account. Roles are often managed via {grantRole} and {revokeRole}: this function's purpose is to provide a mechanism for accounts to lose their privileges if they are compromised (such as when a trusted device is misplaced). If the calling account had been revoked `role`, emits a {RoleRevoked} event. Requirements: - the caller must be `account`. May emit a {RoleRevoked} event."
      },
      "revokeRole(bytes32,address)": {
        "details": "Revokes `role` from `account`. If `account` had been granted `role`, emits a {RoleRevoked} event. Requirements: - the caller must have ``role``'s admin role. May emit a {RoleRevoked} event."
      },
      "supportsInterface(bytes4)": {
        "details": "See {IERC165-supportsInterface}."
      }
    },
    "title": "Yearn V3 Vault",
    "version": 1
  },
  "userdoc": {
    "kind": "user",
    "methods": {},
    "notice": "The Yearn VaultV3 is designed as a non-opinionated system to distribute funds of  depositors for a specific `asset` into different opportunities (aka Strategies) and manage accounting in a robust way.",
    "version": 1
  },
  "storageLayout": {
    "storage": [
      {
        "astId": 24,
        "contract": "contracts/FathomVault.sol:FathomVault",
        "label": "_roles",
        "offset": 0,
        "slot": "0",
        "type": "t_mapping(t_bytes32,t_struct(RoleData)19_storage)"
      },
      {
        "astId": 399,
        "contract": "contracts/FathomVault.sol:FathomVault",
        "label": "_status",
        "offset": 0,
        "slot": "1",
        "type": "t_uint256"
      },
      {
        "astId": 8832,
        "contract": "contracts/FathomVault.sol:FathomVault",
        "label": "strategyManager",
        "offset": 0,
        "slot": "2",
        "type": "t_address"
      },
      {
        "astId": 8834,
        "contract": "contracts/FathomVault.sol:FathomVault",
        "label": "sharesManager",
        "offset": 0,
        "slot": "3",
        "type": "t_address"
      },
      {
        "astId": 8836,
        "contract": "contracts/FathomVault.sol:FathomVault",
        "label": "setters",
        "offset": 0,
        "slot": "4",
        "type": "t_address"
      },
      {
        "astId": 8838,
        "contract": "contracts/FathomVault.sol:FathomVault",
        "label": "governance",
        "offset": 0,
        "slot": "5",
        "type": "t_address"
      },
      {
        "astId": 8843,
        "contract": "contracts/FathomVault.sol:FathomVault",
        "label": "strategies",
        "offset": 0,
        "slot": "6",
        "type": "t_mapping(t_address,t_struct(StrategyParams)8999_storage)"
      },
      {
        "astId": 8846,
        "contract": "contracts/FathomVault.sol:FathomVault",
        "label": "defaultQueue",
        "offset": 0,
        "slot": "7",
        "type": "t_array(t_address)dyn_storage"
      },
      {
        "astId": 8848,
        "contract": "contracts/FathomVault.sol:FathomVault",
        "label": "useDefaultQueue",
        "offset": 0,
        "slot": "8",
        "type": "t_bool"
      },
      {
        "astId": 8852,
        "contract": "contracts/FathomVault.sol:FathomVault",
        "label": "_balanceOf",
        "offset": 0,
        "slot": "9",
        "type": "t_mapping(t_address,t_uint256)"
      },
      {
        "astId": 8858,
        "contract": "contracts/FathomVault.sol:FathomVault",
        "label": "_allowance",
        "offset": 0,
        "slot": "10",
        "type": "t_mapping(t_address,t_mapping(t_address,t_uint256))"
      },
      {
        "astId": 8860,
        "contract": "contracts/FathomVault.sol:FathomVault",
        "label": "totalSupplyAmount",
        "offset": 0,
        "slot": "11",
        "type": "t_uint256"
      },
      {
        "astId": 8862,
        "contract": "contracts/FathomVault.sol:FathomVault",
        "label": "totalDebtAmount",
        "offset": 0,
        "slot": "12",
        "type": "t_uint256"
      },
      {
        "astId": 8864,
        "contract": "contracts/FathomVault.sol:FathomVault",
        "label": "totalIdleAmount",
        "offset": 0,
        "slot": "13",
        "type": "t_uint256"
      },
      {
        "astId": 8866,
        "contract": "contracts/FathomVault.sol:FathomVault",
        "label": "minimumTotalIdle",
        "offset": 0,
        "slot": "14",
        "type": "t_uint256"
      },
      {
        "astId": 8868,
        "contract": "contracts/FathomVault.sol:FathomVault",
        "label": "depositLimit",
        "offset": 0,
        "slot": "15",
        "type": "t_uint256"
      },
      {
        "astId": 8870,
        "contract": "contracts/FathomVault.sol:FathomVault",
        "label": "accountant",
        "offset": 0,
        "slot": "16",
        "type": "t_address"
      },
      {
        "astId": 8872,
        "contract": "contracts/FathomVault.sol:FathomVault",
        "label": "depositLimitModule",
        "offset": 0,
        "slot": "17",
        "type": "t_address"
      },
      {
        "astId": 8874,
        "contract": "contracts/FathomVault.sol:FathomVault",
        "label": "withdrawLimitModule",
        "offset": 0,
        "slot": "18",
        "type": "t_address"
      },
      {
        "astId": 8878,
        "contract": "contracts/FathomVault.sol:FathomVault",
        "label": "roles",
        "offset": 0,
        "slot": "19",
        "type": "t_mapping(t_address,t_bytes32)"
      },
      {
        "astId": 8882,
        "contract": "contracts/FathomVault.sol:FathomVault",
        "label": "openRoles",
        "offset": 0,
        "slot": "20",
        "type": "t_mapping(t_bytes32,t_bool)"
      },
      {
        "astId": 8884,
        "contract": "contracts/FathomVault.sol:FathomVault",
        "label": "roleManager",
        "offset": 0,
        "slot": "21",
        "type": "t_address"
      },
      {
        "astId": 8886,
        "contract": "contracts/FathomVault.sol:FathomVault",
        "label": "futureRoleManager",
        "offset": 0,
        "slot": "22",
        "type": "t_address"
      },
      {
        "astId": 8888,
        "contract": "contracts/FathomVault.sol:FathomVault",
        "label": "shutdown",
        "offset": 20,
        "slot": "22",
        "type": "t_bool"
      },
      {
        "astId": 8890,
        "contract": "contracts/FathomVault.sol:FathomVault",
        "label": "profitMaxUnlockTime",
        "offset": 0,
        "slot": "23",
        "type": "t_uint256"
      },
      {
        "astId": 8892,
        "contract": "contracts/FathomVault.sol:FathomVault",
        "label": "fullProfitUnlockDate",
        "offset": 0,
        "slot": "24",
        "type": "t_uint256"
      },
      {
        "astId": 8894,
        "contract": "contracts/FathomVault.sol:FathomVault",
        "label": "profitUnlockingRate",
        "offset": 0,
        "slot": "25",
        "type": "t_uint256"
      },
      {
        "astId": 8896,
        "contract": "contracts/FathomVault.sol:FathomVault",
        "label": "lastProfitUpdate",
        "offset": 0,
        "slot": "26",
        "type": "t_uint256"
      },
      {
        "astId": 8900,
        "contract": "contracts/FathomVault.sol:FathomVault",
        "label": "nonces",
        "offset": 0,
        "slot": "27",
        "type": "t_mapping(t_address,t_uint256)"
      },
      {
        "astId": 8907,
        "contract": "contracts/FathomVault.sol:FathomVault",
        "label": "DOMAIN_SEPARATOR",
        "offset": 0,
        "slot": "28",
        "type": "t_bytes32"
      }
    ],
    "types": {
      "t_address": {
        "encoding": "inplace",
        "label": "address",
        "numberOfBytes": "20"
      },
      "t_array(t_address)dyn_storage": {
        "base": "t_address",
        "encoding": "dynamic_array",
        "label": "address[]",
        "numberOfBytes": "32"
      },
      "t_bool": {
        "encoding": "inplace",
        "label": "bool",
        "numberOfBytes": "1"
      },
      "t_bytes32": {
        "encoding": "inplace",
        "label": "bytes32",
        "numberOfBytes": "32"
      },
      "t_mapping(t_address,t_bool)": {
        "encoding": "mapping",
        "key": "t_address",
        "label": "mapping(address => bool)",
        "numberOfBytes": "32",
        "value": "t_bool"
      },
      "t_mapping(t_address,t_bytes32)": {
        "encoding": "mapping",
        "key": "t_address",
        "label": "mapping(address => bytes32)",
        "numberOfBytes": "32",
        "value": "t_bytes32"
      },
      "t_mapping(t_address,t_mapping(t_address,t_uint256))": {
        "encoding": "mapping",
        "key": "t_address",
        "label": "mapping(address => mapping(address => uint256))",
        "numberOfBytes": "32",
        "value": "t_mapping(t_address,t_uint256)"
      },
      "t_mapping(t_address,t_struct(StrategyParams)8999_storage)": {
        "encoding": "mapping",
        "key": "t_address",
        "label": "mapping(address => struct StrategyParams)",
        "numberOfBytes": "32",
        "value": "t_struct(StrategyParams)8999_storage"
      },
      "t_mapping(t_address,t_uint256)": {
        "encoding": "mapping",
        "key": "t_address",
        "label": "mapping(address => uint256)",
        "numberOfBytes": "32",
        "value": "t_uint256"
      },
      "t_mapping(t_bytes32,t_bool)": {
        "encoding": "mapping",
        "key": "t_bytes32",
        "label": "mapping(bytes32 => bool)",
        "numberOfBytes": "32",
        "value": "t_bool"
      },
      "t_mapping(t_bytes32,t_struct(RoleData)19_storage)": {
        "encoding": "mapping",
        "key": "t_bytes32",
        "label": "mapping(bytes32 => struct AccessControl.RoleData)",
        "numberOfBytes": "32",
        "value": "t_struct(RoleData)19_storage"
      },
      "t_struct(RoleData)19_storage": {
        "encoding": "inplace",
        "label": "struct AccessControl.RoleData",
        "members": [
          {
            "astId": 16,
            "contract": "contracts/FathomVault.sol:FathomVault",
            "label": "members",
            "offset": 0,
            "slot": "0",
            "type": "t_mapping(t_address,t_bool)"
          },
          {
            "astId": 18,
            "contract": "contracts/FathomVault.sol:FathomVault",
            "label": "adminRole",
            "offset": 0,
            "slot": "1",
            "type": "t_bytes32"
          }
        ],
        "numberOfBytes": "64"
      },
      "t_struct(StrategyParams)8999_storage": {
        "encoding": "inplace",
        "label": "struct StrategyParams",
        "members": [
          {
            "astId": 8992,
            "contract": "contracts/FathomVault.sol:FathomVault",
            "label": "activation",
            "offset": 0,
            "slot": "0",
            "type": "t_uint256"
          },
          {
            "astId": 8994,
            "contract": "contracts/FathomVault.sol:FathomVault",
            "label": "lastReport",
            "offset": 0,
            "slot": "1",
            "type": "t_uint256"
          },
          {
            "astId": 8996,
            "contract": "contracts/FathomVault.sol:FathomVault",
            "label": "currentDebt",
            "offset": 0,
            "slot": "2",
            "type": "t_uint256"
          },
          {
            "astId": 8998,
            "contract": "contracts/FathomVault.sol:FathomVault",
            "label": "maxDebt",
            "offset": 0,
            "slot": "3",
            "type": "t_uint256"
          }
        ],
        "numberOfBytes": "128"
      },
      "t_uint256": {
        "encoding": "inplace",
        "label": "uint256",
        "numberOfBytes": "32"
      }
    }
  }
}