{
  "address": "0xE2DD20a5E66E9398D2683bc5B62F35ee9EFbE394",
  "abi": [
    {
      "inputs": [
        {
          "internalType": "uint256",
          "name": "_profitMaxUnlockTime",
          "type": "uint256"
        },
        {
          "internalType": "address payable",
          "name": "_strategyManagerAddress",
          "type": "address"
        },
        {
          "internalType": "address",
          "name": "_sharesManagerAddress",
          "type": "address"
        },
        {
          "internalType": "address",
          "name": "_settersAddress",
          "type": "address"
        },
        {
          "internalType": "address",
          "name": "_governanceAddress",
          "type": "address"
        }
      ],
      "stateMutability": "nonpayable",
      "type": "constructor"
    },
    {
      "inputs": [],
      "name": "DebtDidntChange",
      "type": "error"
    },
    {
      "inputs": [],
      "name": "DebtHigherThanMaxDebt",
      "type": "error"
    },
    {
      "inputs": [],
      "name": "ERC20InsufficientAllowance",
      "type": "error"
    },
    {
      "inputs": [],
      "name": "ERC20PermitExpired",
      "type": "error"
    },
    {
      "inputs": [],
      "name": "ERC20PermitInvalidSignature",
      "type": "error"
    },
    {
      "inputs": [],
      "name": "ExceedDepositLimit",
      "type": "error"
    },
    {
      "inputs": [],
      "name": "InactiveStrategy",
      "type": "error"
    },
    {
      "inputs": [],
      "name": "InsufficientAssets",
      "type": "error"
    },
    {
      "inputs": [],
      "name": "InsufficientFunds",
      "type": "error"
    },
    {
      "inputs": [],
      "name": "InsufficientShares",
      "type": "error"
    },
    {
      "inputs": [],
      "name": "InvalidAsset",
      "type": "error"
    },
    {
      "inputs": [],
      "name": "InvalidAssetDecimals",
      "type": "error"
    },
    {
      "inputs": [],
      "name": "MaxLoss",
      "type": "error"
    },
    {
      "inputs": [],
      "name": "ProfitUnlockTimeTooLong",
      "type": "error"
    },
    {
      "inputs": [],
      "name": "StrategyAlreadyActive",
      "type": "error"
    },
    {
      "inputs": [],
      "name": "StrategyDebtIsLessThanAssetsNeeded",
      "type": "error"
    },
    {
      "inputs": [],
      "name": "StrategyHasDebt",
      "type": "error"
    },
    {
      "inputs": [],
      "name": "StrategyHasUnrealisedLosses",
      "type": "error"
    },
    {
      "inputs": [],
      "name": "StrategyIsShutdown",
      "type": "error"
    },
    {
      "inputs": [],
      "name": "TooMuchLoss",
      "type": "error"
    },
    {
      "inputs": [],
      "name": "UsingModule",
      "type": "error"
    },
    {
      "inputs": [],
      "name": "ZeroAddress",
      "type": "error"
    },
    {
      "inputs": [],
      "name": "ZeroValue",
      "type": "error"
    },
    {
      "anonymous": false,
      "inputs": [
        {
          "indexed": true,
          "internalType": "address",
          "name": "strategy",
          "type": "address"
        },
        {
          "indexed": false,
          "internalType": "uint256",
          "name": "amount",
          "type": "uint256"
        }
      ],
      "name": "DebtPurchased",
      "type": "event"
    },
    {
      "anonymous": false,
      "inputs": [
        {
          "indexed": true,
          "internalType": "address",
          "name": "strategy",
          "type": "address"
        },
        {
          "indexed": false,
          "internalType": "uint256",
          "name": "currentDebt",
          "type": "uint256"
        },
        {
          "indexed": false,
          "internalType": "uint256",
          "name": "newDebt",
          "type": "uint256"
        }
      ],
      "name": "DebtUpdated",
      "type": "event"
    },
    {
      "anonymous": false,
      "inputs": [
        {
          "indexed": true,
          "internalType": "bytes32",
          "name": "role",
          "type": "bytes32"
        },
        {
          "indexed": true,
          "internalType": "bytes32",
          "name": "previousAdminRole",
          "type": "bytes32"
        },
        {
          "indexed": true,
          "internalType": "bytes32",
          "name": "newAdminRole",
          "type": "bytes32"
        }
      ],
      "name": "RoleAdminChanged",
      "type": "event"
    },
    {
      "anonymous": false,
      "inputs": [
        {
          "indexed": true,
          "internalType": "bytes32",
          "name": "role",
          "type": "bytes32"
        },
        {
          "indexed": true,
          "internalType": "address",
          "name": "account",
          "type": "address"
        },
        {
          "indexed": true,
          "internalType": "address",
          "name": "sender",
          "type": "address"
        }
      ],
      "name": "RoleGranted",
      "type": "event"
    },
    {
      "anonymous": false,
      "inputs": [
        {
          "indexed": true,
          "internalType": "bytes32",
          "name": "role",
          "type": "bytes32"
        },
        {
          "indexed": true,
          "internalType": "address",
          "name": "account",
          "type": "address"
        },
        {
          "indexed": true,
          "internalType": "address",
          "name": "sender",
          "type": "address"
        }
      ],
      "name": "RoleRevoked",
      "type": "event"
    },
    {
      "anonymous": false,
      "inputs": [
        {
          "indexed": true,
          "internalType": "address",
          "name": "account",
          "type": "address"
        },
        {
          "indexed": false,
          "internalType": "bytes32",
          "name": "role",
          "type": "bytes32"
        }
      ],
      "name": "RoleSet",
      "type": "event"
    },
    {
      "anonymous": false,
      "inputs": [
        {
          "indexed": true,
          "internalType": "bytes32",
          "name": "role",
          "type": "bytes32"
        },
        {
          "indexed": true,
          "internalType": "enum RoleStatusChange",
          "name": "status",
          "type": "uint8"
        }
      ],
      "name": "RoleStatusChanged",
      "type": "event"
    },
    {
      "anonymous": false,
      "inputs": [],
      "name": "Shutdown",
      "type": "event"
    },
    {
      "anonymous": false,
      "inputs": [
        {
          "indexed": true,
          "internalType": "address",
          "name": "strategy",
          "type": "address"
        },
        {
          "indexed": false,
          "internalType": "enum StrategyChangeType",
          "name": "changeType",
          "type": "uint8"
        }
      ],
      "name": "StrategyChanged",
      "type": "event"
    },
    {
      "anonymous": false,
      "inputs": [
        {
          "indexed": true,
          "internalType": "address",
          "name": "strategy",
          "type": "address"
        },
        {
          "indexed": false,
          "internalType": "uint256",
          "name": "gain",
          "type": "uint256"
        },
        {
          "indexed": false,
          "internalType": "uint256",
          "name": "loss",
          "type": "uint256"
        },
        {
          "indexed": false,
          "internalType": "uint256",
          "name": "currentDebt",
          "type": "uint256"
        },
        {
          "indexed": false,
          "internalType": "uint256",
          "name": "protocolFees",
          "type": "uint256"
        },
        {
          "indexed": false,
          "internalType": "uint256",
          "name": "totalFees",
          "type": "uint256"
        },
        {
          "indexed": false,
          "internalType": "uint256",
          "name": "totalRefunds",
          "type": "uint256"
        }
      ],
      "name": "StrategyReported",
      "type": "event"
    },
    {
      "anonymous": false,
      "inputs": [
        {
          "indexed": true,
          "internalType": "address",
          "name": "accountant",
          "type": "address"
        }
      ],
      "name": "UpdateAccountant",
      "type": "event"
    },
    {
      "anonymous": false,
      "inputs": [
        {
          "indexed": false,
          "internalType": "address[]",
          "name": "newDefaultQueue",
          "type": "address[]"
        }
      ],
      "name": "UpdateDefaultQueue",
      "type": "event"
    },
    {
      "anonymous": false,
      "inputs": [
        {
          "indexed": false,
          "internalType": "uint256",
          "name": "depositLimit",
          "type": "uint256"
        }
      ],
      "name": "UpdateDepositLimit",
      "type": "event"
    },
    {
      "anonymous": false,
      "inputs": [
        {
          "indexed": true,
          "internalType": "address",
          "name": "depositLimitModule",
          "type": "address"
        }
      ],
      "name": "UpdateDepositLimitModule",
      "type": "event"
    },
    {
      "anonymous": false,
      "inputs": [
        {
          "indexed": false,
          "internalType": "uint256",
          "name": "minimumTotalIdle",
          "type": "uint256"
        }
      ],
      "name": "UpdateMinimumTotalIdle",
      "type": "event"
    },
    {
      "anonymous": false,
      "inputs": [
        {
          "indexed": false,
          "internalType": "uint256",
          "name": "profitMaxUnlockTime",
          "type": "uint256"
        }
      ],
      "name": "UpdateProfitMaxUnlockTime",
      "type": "event"
    },
    {
      "anonymous": false,
      "inputs": [
        {
          "indexed": true,
          "internalType": "address",
          "name": "roleManager",
          "type": "address"
        }
      ],
      "name": "UpdateRoleManager",
      "type": "event"
    },
    {
      "anonymous": false,
      "inputs": [
        {
          "indexed": false,
          "internalType": "bool",
          "name": "useDefaultQueue",
          "type": "bool"
        }
      ],
      "name": "UpdateUseDefaultQueue",
      "type": "event"
    },
    {
      "anonymous": false,
      "inputs": [
        {
          "indexed": true,
          "internalType": "address",
          "name": "withdrawLimitModule",
          "type": "address"
        }
      ],
      "name": "UpdateWithdrawLimitModule",
      "type": "event"
    },
    {
      "anonymous": false,
      "inputs": [
        {
          "indexed": true,
          "internalType": "uint256",
          "name": "totalFees",
          "type": "uint256"
        },
        {
          "indexed": true,
          "internalType": "uint256",
          "name": "totalRefunds",
          "type": "uint256"
        },
        {
          "indexed": true,
          "internalType": "uint256",
          "name": "protocolFees",
          "type": "uint256"
        },
        {
          "indexed": false,
          "internalType": "address",
          "name": "protocolFeeRecipient",
          "type": "address"
        }
      ],
      "name": "UpdatedFees",
      "type": "event"
    },
    {
      "anonymous": false,
      "inputs": [
        {
          "indexed": true,
          "internalType": "address",
          "name": "sender",
          "type": "address"
        },
        {
          "indexed": true,
          "internalType": "address",
          "name": "strategy",
          "type": "address"
        },
        {
          "indexed": false,
          "internalType": "uint256",
          "name": "newDebt",
          "type": "uint256"
        }
      ],
      "name": "UpdatedMaxDebtForStrategy",
      "type": "event"
    },
    {
      "inputs": [],
      "name": "ACCOUNTANT_MANAGER",
      "outputs": [
        {
          "internalType": "bytes32",
          "name": "",
          "type": "bytes32"
        }
      ],
      "stateMutability": "view",
      "type": "function"
    },
    {
      "inputs": [],
      "name": "ADD_STRATEGY_MANAGER",
      "outputs": [
        {
          "internalType": "bytes32",
          "name": "",
          "type": "bytes32"
        }
      ],
      "stateMutability": "view",
      "type": "function"
    },
    {
      "inputs": [],
      "name": "API_VERSION",
      "outputs": [
        {
          "internalType": "string",
          "name": "",
          "type": "string"
        }
      ],
      "stateMutability": "view",
      "type": "function"
    },
    {
      "inputs": [],
      "name": "DEBT_MANAGER",
      "outputs": [
        {
          "internalType": "bytes32",
          "name": "",
          "type": "bytes32"
        }
      ],
      "stateMutability": "view",
      "type": "function"
    },
    {
      "inputs": [],
      "name": "DEBT_PURCHASER",
      "outputs": [
        {
          "internalType": "bytes32",
          "name": "",
          "type": "bytes32"
        }
      ],
      "stateMutability": "view",
      "type": "function"
    },
    {
      "inputs": [],
      "name": "DEFAULT_ADMIN_ROLE",
      "outputs": [
        {
          "internalType": "bytes32",
          "name": "",
          "type": "bytes32"
        }
      ],
      "stateMutability": "view",
      "type": "function"
    },
    {
      "inputs": [],
      "name": "DEPOSIT_LIMIT_MANAGER",
      "outputs": [
        {
          "internalType": "bytes32",
          "name": "",
          "type": "bytes32"
        }
      ],
      "stateMutability": "view",
      "type": "function"
    },
    {
      "inputs": [],
      "name": "DOMAIN_SEPARATOR",
      "outputs": [
        {
          "internalType": "bytes32",
          "name": "",
          "type": "bytes32"
        }
      ],
      "stateMutability": "view",
      "type": "function"
    },
    {
      "inputs": [],
      "name": "DOMAIN_TYPE_HASH",
      "outputs": [
        {
          "internalType": "bytes32",
          "name": "",
          "type": "bytes32"
        }
      ],
      "stateMutability": "view",
      "type": "function"
    },
    {
      "inputs": [],
      "name": "EMERGENCY_MANAGER",
      "outputs": [
        {
          "internalType": "bytes32",
          "name": "",
          "type": "bytes32"
        }
      ],
      "stateMutability": "view",
      "type": "function"
    },
    {
      "inputs": [],
      "name": "FACTORY",
      "outputs": [
        {
          "internalType": "address",
          "name": "",
          "type": "address"
        }
      ],
      "stateMutability": "view",
      "type": "function"
    },
    {
      "inputs": [],
      "name": "FORCE_REVOKE_MANAGER",
      "outputs": [
        {
          "internalType": "bytes32",
          "name": "",
          "type": "bytes32"
        }
      ],
      "stateMutability": "view",
      "type": "function"
    },
    {
      "inputs": [],
      "name": "MAX_BPS",
      "outputs": [
        {
          "internalType": "uint256",
          "name": "",
          "type": "uint256"
        }
      ],
      "stateMutability": "view",
      "type": "function"
    },
    {
      "inputs": [],
      "name": "MAX_BPS_EXTENDED",
      "outputs": [
        {
          "internalType": "uint256",
          "name": "",
          "type": "uint256"
        }
      ],
      "stateMutability": "view",
      "type": "function"
    },
    {
      "inputs": [],
      "name": "MAX_DEBT_MANAGER",
      "outputs": [
        {
          "internalType": "bytes32",
          "name": "",
          "type": "bytes32"
        }
      ],
      "stateMutability": "view",
      "type": "function"
    },
    {
      "inputs": [],
      "name": "MAX_QUEUE",
      "outputs": [
        {
          "internalType": "uint256",
          "name": "",
          "type": "uint256"
        }
      ],
      "stateMutability": "view",
      "type": "function"
    },
    {
      "inputs": [],
      "name": "MINIMUM_IDLE_MANAGER",
      "outputs": [
        {
          "internalType": "bytes32",
          "name": "",
          "type": "bytes32"
        }
      ],
      "stateMutability": "view",
      "type": "function"
    },
    {
      "inputs": [],
      "name": "ONE_YEAR",
      "outputs": [
        {
          "internalType": "uint256",
          "name": "",
          "type": "uint256"
        }
      ],
      "stateMutability": "view",
      "type": "function"
    },
    {
      "inputs": [],
      "name": "PERMIT_TYPE_HASH",
      "outputs": [
        {
          "internalType": "bytes32",
          "name": "",
          "type": "bytes32"
        }
      ],
      "stateMutability": "view",
      "type": "function"
    },
    {
      "inputs": [],
      "name": "PROFIT_UNLOCK_MANAGER",
      "outputs": [
        {
          "internalType": "bytes32",
          "name": "",
          "type": "bytes32"
        }
      ],
      "stateMutability": "view",
      "type": "function"
    },
    {
      "inputs": [],
      "name": "QUEUE_MANAGER",
      "outputs": [
        {
          "internalType": "bytes32",
          "name": "",
          "type": "bytes32"
        }
      ],
      "stateMutability": "view",
      "type": "function"
    },
    {
      "inputs": [],
      "name": "REPORTING_MANAGER",
      "outputs": [
        {
          "internalType": "bytes32",
          "name": "",
          "type": "bytes32"
        }
      ],
      "stateMutability": "view",
      "type": "function"
    },
    {
      "inputs": [],
      "name": "REVOKE_STRATEGY_MANAGER",
      "outputs": [
        {
          "internalType": "bytes32",
          "name": "",
          "type": "bytes32"
        }
      ],
      "stateMutability": "view",
      "type": "function"
    },
    {
      "inputs": [],
      "name": "ROLE_MANAGER",
      "outputs": [
        {
          "internalType": "bytes32",
          "name": "",
          "type": "bytes32"
        }
      ],
      "stateMutability": "view",
      "type": "function"
    },
    {
      "inputs": [],
      "name": "WITHDRAW_LIMIT_MANAGER",
      "outputs": [
        {
          "internalType": "bytes32",
          "name": "",
          "type": "bytes32"
        }
      ],
      "stateMutability": "view",
      "type": "function"
    },
    {
      "inputs": [],
      "name": "accountant",
      "outputs": [
        {
          "internalType": "address",
          "name": "",
          "type": "address"
        }
      ],
      "stateMutability": "view",
      "type": "function"
    },
    {
      "inputs": [
        {
          "internalType": "address",
          "name": "newStrategy",
          "type": "address"
        }
      ],
      "name": "addStrategy",
      "outputs": [],
      "stateMutability": "nonpayable",
      "type": "function"
    },
    {
      "inputs": [
        {
          "internalType": "address",
          "name": "owner",
          "type": "address"
        },
        {
          "internalType": "address",
          "name": "spender",
          "type": "address"
        }
      ],
      "name": "allowance",
      "outputs": [
        {
          "internalType": "uint256",
          "name": "",
          "type": "uint256"
        }
      ],
      "stateMutability": "view",
      "type": "function"
    },
    {
      "inputs": [
        {
          "internalType": "address",
          "name": "spender",
          "type": "address"
        },
        {
          "internalType": "uint256",
          "name": "amount",
          "type": "uint256"
        }
      ],
      "name": "approve",
      "outputs": [
        {
          "internalType": "bool",
          "name": "",
          "type": "bool"
        }
      ],
      "stateMutability": "nonpayable",
      "type": "function"
    },
    {
      "inputs": [],
      "name": "asset",
      "outputs": [
        {
          "internalType": "address",
          "name": "",
          "type": "address"
        }
      ],
      "stateMutability": "view",
      "type": "function"
    },
    {
      "inputs": [
        {
          "internalType": "address",
          "name": "addr",
          "type": "address"
        }
      ],
      "name": "balanceOf",
      "outputs": [
        {
          "internalType": "uint256",
          "name": "",
          "type": "uint256"
        }
      ],
      "stateMutability": "view",
      "type": "function"
    },
    {
      "inputs": [
        {
          "internalType": "address",
          "name": "strategy",
          "type": "address"
        },
        {
          "internalType": "uint256",
          "name": "amount",
          "type": "uint256"
        }
      ],
      "name": "buyDebt",
      "outputs": [],
      "stateMutability": "nonpayable",
      "type": "function"
    },
    {
      "inputs": [
        {
          "internalType": "uint256",
          "name": "shares",
          "type": "uint256"
        }
      ],
      "name": "convertToAssets",
      "outputs": [
        {
          "internalType": "uint256",
          "name": "",
          "type": "uint256"
        }
      ],
      "stateMutability": "view",
      "type": "function"
    },
    {
      "inputs": [
        {
          "internalType": "uint256",
          "name": "assets",
          "type": "uint256"
        }
      ],
      "name": "convertToShares",
      "outputs": [
        {
          "internalType": "uint256",
          "name": "",
          "type": "uint256"
        }
      ],
      "stateMutability": "view",
      "type": "function"
    },
    {
      "inputs": [],
      "name": "decimals",
      "outputs": [
        {
          "internalType": "uint8",
          "name": "",
          "type": "uint8"
        }
      ],
      "stateMutability": "view",
      "type": "function"
    },
    {
      "inputs": [
        {
          "internalType": "address",
          "name": "spender",
          "type": "address"
        },
        {
          "internalType": "uint256",
          "name": "amount",
          "type": "uint256"
        }
      ],
      "name": "decreaseAllowance",
      "outputs": [
        {
          "internalType": "bool",
          "name": "",
          "type": "bool"
        }
      ],
      "stateMutability": "nonpayable",
      "type": "function"
    },
    {
      "inputs": [
        {
          "internalType": "uint256",
          "name": "",
          "type": "uint256"
        }
      ],
      "name": "defaultQueue",
      "outputs": [
        {
          "internalType": "address",
          "name": "",
          "type": "address"
        }
      ],
      "stateMutability": "view",
      "type": "function"
    },
    {
      "inputs": [
        {
          "internalType": "uint256",
          "name": "assets",
          "type": "uint256"
        },
        {
          "internalType": "address",
          "name": "receiver",
          "type": "address"
        }
      ],
      "name": "deposit",
      "outputs": [
        {
          "internalType": "uint256",
          "name": "",
          "type": "uint256"
        }
      ],
      "stateMutability": "nonpayable",
      "type": "function"
    },
    {
      "inputs": [],
      "name": "depositLimit",
      "outputs": [
        {
          "internalType": "uint256",
          "name": "",
          "type": "uint256"
        }
      ],
      "stateMutability": "view",
      "type": "function"
    },
    {
      "inputs": [],
      "name": "depositLimitModule",
      "outputs": [
        {
          "internalType": "address",
          "name": "",
          "type": "address"
        }
      ],
      "stateMutability": "view",
      "type": "function"
    },
    {
      "inputs": [],
      "name": "fees",
      "outputs": [
        {
          "internalType": "uint256",
          "name": "totalFees",
          "type": "uint256"
        },
        {
          "internalType": "uint256",
          "name": "totalRefunds",
          "type": "uint256"
        },
        {
          "internalType": "uint256",
          "name": "protocolFees",
          "type": "uint256"
        },
        {
          "internalType": "address",
          "name": "protocolFeeRecipient",
          "type": "address"
        }
      ],
      "stateMutability": "view",
      "type": "function"
    },
    {
      "inputs": [
        {
          "internalType": "address",
          "name": "strategy",
          "type": "address"
        }
      ],
      "name": "forceRevokeStrategy",
      "outputs": [],
      "stateMutability": "nonpayable",
      "type": "function"
    },
    {
      "inputs": [],
      "name": "fullProfitUnlockDate",
      "outputs": [
        {
          "internalType": "uint256",
          "name": "",
          "type": "uint256"
        }
      ],
      "stateMutability": "view",
      "type": "function"
    },
    {
      "inputs": [],
      "name": "futureRoleManager",
      "outputs": [
        {
          "internalType": "address",
          "name": "",
          "type": "address"
        }
      ],
      "stateMutability": "view",
      "type": "function"
    },
    {
      "inputs": [
        {
          "internalType": "address",
          "name": "strategy",
          "type": "address"
        }
      ],
      "name": "getDebt",
      "outputs": [
        {
          "internalType": "uint256",
          "name": "",
          "type": "uint256"
        }
      ],
      "stateMutability": "view",
      "type": "function"
    },
    {
      "inputs": [
        {
          "internalType": "bytes32",
          "name": "role",
          "type": "bytes32"
        }
      ],
      "name": "getRoleAdmin",
      "outputs": [
        {
          "internalType": "bytes32",
          "name": "",
          "type": "bytes32"
        }
      ],
      "stateMutability": "view",
      "type": "function"
    },
    {
      "inputs": [],
      "name": "governance",
      "outputs": [
        {
          "internalType": "address",
          "name": "",
          "type": "address"
        }
      ],
      "stateMutability": "view",
      "type": "function"
    },
    {
      "inputs": [
        {
          "internalType": "bytes32",
          "name": "role",
          "type": "bytes32"
        },
        {
          "internalType": "address",
          "name": "account",
          "type": "address"
        }
      ],
      "name": "grantRole",
      "outputs": [],
      "stateMutability": "nonpayable",
      "type": "function"
    },
    {
      "inputs": [
        {
          "internalType": "bytes32",
          "name": "role",
          "type": "bytes32"
        },
        {
          "internalType": "address",
          "name": "account",
          "type": "address"
        }
      ],
      "name": "hasRole",
      "outputs": [
        {
          "internalType": "bool",
          "name": "",
          "type": "bool"
        }
      ],
      "stateMutability": "view",
      "type": "function"
    },
    {
      "inputs": [
        {
          "internalType": "address",
          "name": "spender",
          "type": "address"
        },
        {
          "internalType": "uint256",
          "name": "amount",
          "type": "uint256"
        }
      ],
      "name": "increaseAllowance",
      "outputs": [
        {
          "internalType": "bool",
          "name": "",
          "type": "bool"
        }
      ],
      "stateMutability": "nonpayable",
      "type": "function"
    },
    {
      "inputs": [],
      "name": "lastProfitUpdate",
      "outputs": [
        {
          "internalType": "uint256",
          "name": "",
          "type": "uint256"
        }
      ],
      "stateMutability": "view",
      "type": "function"
    },
    {
      "inputs": [
        {
          "internalType": "address",
          "name": "receiver",
          "type": "address"
        }
      ],
      "name": "maxDeposit",
      "outputs": [
        {
          "internalType": "uint256",
          "name": "",
          "type": "uint256"
        }
      ],
      "stateMutability": "view",
      "type": "function"
    },
    {
      "inputs": [
        {
          "internalType": "address",
          "name": "receiver",
          "type": "address"
        }
      ],
      "name": "maxMint",
      "outputs": [
        {
          "internalType": "uint256",
          "name": "",
          "type": "uint256"
        }
      ],
      "stateMutability": "view",
      "type": "function"
    },
    {
      "inputs": [
        {
          "internalType": "address",
          "name": "owner",
          "type": "address"
        },
        {
          "internalType": "uint256",
          "name": "maxLoss",
          "type": "uint256"
        },
        {
          "internalType": "address[]",
          "name": "_strategies",
          "type": "address[]"
        }
      ],
      "name": "maxRedeem",
      "outputs": [
        {
          "internalType": "uint256",
          "name": "",
          "type": "uint256"
        }
      ],
      "stateMutability": "nonpayable",
      "type": "function"
    },
    {
      "inputs": [
        {
          "internalType": "address",
          "name": "owner",
          "type": "address"
        },
        {
          "internalType": "uint256",
          "name": "maxLoss",
          "type": "uint256"
        },
        {
          "internalType": "address[]",
          "name": "_strategies",
          "type": "address[]"
        }
      ],
      "name": "maxWithdraw",
      "outputs": [
        {
          "internalType": "uint256",
          "name": "",
          "type": "uint256"
        }
      ],
      "stateMutability": "nonpayable",
      "type": "function"
    },
    {
      "inputs": [],
      "name": "minimumTotalIdle",
      "outputs": [
        {
          "internalType": "uint256",
          "name": "",
          "type": "uint256"
        }
      ],
      "stateMutability": "view",
      "type": "function"
    },
    {
      "inputs": [
        {
          "internalType": "uint256",
          "name": "shares",
          "type": "uint256"
        },
        {
          "internalType": "address",
          "name": "receiver",
          "type": "address"
        }
      ],
      "name": "mint",
      "outputs": [
        {
          "internalType": "uint256",
          "name": "",
          "type": "uint256"
        }
      ],
      "stateMutability": "nonpayable",
      "type": "function"
    },
    {
      "inputs": [
        {
          "internalType": "address",
          "name": "",
          "type": "address"
        }
      ],
      "name": "nonces",
      "outputs": [
        {
          "internalType": "uint256",
          "name": "",
          "type": "uint256"
        }
      ],
      "stateMutability": "view",
      "type": "function"
    },
    {
      "inputs": [
        {
          "internalType": "bytes32",
          "name": "",
          "type": "bytes32"
        }
      ],
      "name": "openRoles",
      "outputs": [
        {
          "internalType": "bool",
          "name": "",
          "type": "bool"
        }
      ],
      "stateMutability": "view",
      "type": "function"
    },
    {
      "inputs": [
        {
          "internalType": "address",
          "name": "owner",
          "type": "address"
        },
        {
          "internalType": "address",
          "name": "spender",
          "type": "address"
        },
        {
          "internalType": "uint256",
          "name": "amount",
          "type": "uint256"
        },
        {
          "internalType": "uint256",
          "name": "deadline",
          "type": "uint256"
        },
        {
          "internalType": "uint8",
          "name": "v",
          "type": "uint8"
        },
        {
          "internalType": "bytes32",
          "name": "r",
          "type": "bytes32"
        },
        {
          "internalType": "bytes32",
          "name": "s",
          "type": "bytes32"
        }
      ],
      "name": "permit",
      "outputs": [
        {
          "internalType": "bool",
          "name": "",
          "type": "bool"
        }
      ],
      "stateMutability": "nonpayable",
      "type": "function"
    },
    {
      "inputs": [
        {
          "internalType": "uint256",
          "name": "assets",
          "type": "uint256"
        }
      ],
      "name": "previewDeposit",
      "outputs": [
        {
          "internalType": "uint256",
          "name": "",
          "type": "uint256"
        }
      ],
      "stateMutability": "view",
      "type": "function"
    },
    {
      "inputs": [
        {
          "internalType": "uint256",
          "name": "shares",
          "type": "uint256"
        }
      ],
      "name": "previewMint",
      "outputs": [
        {
          "internalType": "uint256",
          "name": "",
          "type": "uint256"
        }
      ],
      "stateMutability": "view",
      "type": "function"
    },
    {
      "inputs": [
        {
          "internalType": "uint256",
          "name": "shares",
          "type": "uint256"
        }
      ],
      "name": "previewRedeem",
      "outputs": [
        {
          "internalType": "uint256",
          "name": "",
          "type": "uint256"
        }
      ],
      "stateMutability": "view",
      "type": "function"
    },
    {
      "inputs": [
        {
          "internalType": "uint256",
          "name": "assets",
          "type": "uint256"
        }
      ],
      "name": "previewWithdraw",
      "outputs": [
        {
          "internalType": "uint256",
          "name": "",
          "type": "uint256"
        }
      ],
      "stateMutability": "view",
      "type": "function"
    },
    {
      "inputs": [],
      "name": "pricePerShare",
      "outputs": [
        {
          "internalType": "uint256",
          "name": "",
          "type": "uint256"
        }
      ],
      "stateMutability": "view",
      "type": "function"
    },
    {
      "inputs": [
        {
          "internalType": "address",
          "name": "strategy",
          "type": "address"
        }
      ],
      "name": "processReport",
      "outputs": [
        {
          "internalType": "uint256",
          "name": "",
          "type": "uint256"
        },
        {
          "internalType": "uint256",
          "name": "",
          "type": "uint256"
        }
      ],
      "stateMutability": "nonpayable",
      "type": "function"
    },
    {
      "inputs": [],
      "name": "profitMaxUnlockTime",
      "outputs": [
        {
          "internalType": "uint256",
          "name": "",
          "type": "uint256"
        }
      ],
      "stateMutability": "view",
      "type": "function"
    },
    {
      "inputs": [],
      "name": "profitUnlockingRate",
      "outputs": [
        {
          "internalType": "uint256",
          "name": "",
          "type": "uint256"
        }
      ],
      "stateMutability": "view",
      "type": "function"
    },
    {
      "inputs": [
        {
          "internalType": "uint256",
          "name": "shares",
          "type": "uint256"
        },
        {
          "internalType": "address",
          "name": "receiver",
          "type": "address"
        },
        {
          "internalType": "address",
          "name": "owner",
          "type": "address"
        },
        {
          "internalType": "uint256",
          "name": "maxLoss",
          "type": "uint256"
        },
        {
          "internalType": "address[]",
          "name": "_strategies",
          "type": "address[]"
        }
      ],
      "name": "redeem",
      "outputs": [
        {
          "internalType": "uint256",
          "name": "",
          "type": "uint256"
        }
      ],
      "stateMutability": "nonpayable",
      "type": "function"
    },
    {
      "inputs": [
        {
          "internalType": "bytes32",
          "name": "role",
          "type": "bytes32"
        },
        {
          "internalType": "address",
          "name": "account",
          "type": "address"
        }
      ],
      "name": "renounceRole",
      "outputs": [],
      "stateMutability": "nonpayable",
      "type": "function"
    },
    {
      "inputs": [
        {
          "internalType": "bytes32",
          "name": "role",
          "type": "bytes32"
        },
        {
          "internalType": "address",
          "name": "account",
          "type": "address"
        }
      ],
      "name": "revokeRole",
      "outputs": [],
      "stateMutability": "nonpayable",
      "type": "function"
    },
    {
      "inputs": [
        {
          "internalType": "address",
          "name": "strategy",
          "type": "address"
        }
      ],
      "name": "revokeStrategy",
      "outputs": [],
      "stateMutability": "nonpayable",
      "type": "function"
    },
    {
      "inputs": [],
      "name": "roleManager",
      "outputs": [
        {
          "internalType": "address",
          "name": "",
          "type": "address"
        }
      ],
      "stateMutability": "view",
      "type": "function"
    },
    {
      "inputs": [
        {
          "internalType": "address",
          "name": "",
          "type": "address"
        }
      ],
      "name": "roles",
      "outputs": [
        {
          "internalType": "bytes32",
          "name": "",
          "type": "bytes32"
        }
      ],
      "stateMutability": "view",
      "type": "function"
    },
    {
      "inputs": [
        {
          "internalType": "address",
          "name": "newAccountant",
          "type": "address"
        }
      ],
      "name": "setAccountant",
      "outputs": [],
      "stateMutability": "nonpayable",
      "type": "function"
    },
    {
      "inputs": [
        {
          "internalType": "address[]",
          "name": "newDefaultQueue",
          "type": "address[]"
        }
      ],
      "name": "setDefaultQueue",
      "outputs": [],
      "stateMutability": "nonpayable",
      "type": "function"
    },
    {
      "inputs": [
        {
          "internalType": "uint256",
          "name": "_depositLimit",
          "type": "uint256"
        }
      ],
      "name": "setDepositLimit",
      "outputs": [],
      "stateMutability": "nonpayable",
      "type": "function"
    },
    {
      "inputs": [
        {
          "internalType": "address",
          "name": "_depositLimitModule",
          "type": "address"
        }
      ],
      "name": "setDepositLimitModule",
      "outputs": [],
      "stateMutability": "nonpayable",
      "type": "function"
    },
    {
      "inputs": [
        {
          "internalType": "uint256",
          "name": "totalFees",
          "type": "uint256"
        },
        {
          "internalType": "uint256",
          "name": "totalRefunds",
          "type": "uint256"
        },
        {
          "internalType": "uint256",
          "name": "protocolFees",
          "type": "uint256"
        },
        {
          "internalType": "address",
          "name": "protocolFeeRecipient",
          "type": "address"
        }
      ],
      "name": "setFees",
      "outputs": [],
      "stateMutability": "nonpayable",
      "type": "function"
    },
    {
      "inputs": [
        {
          "internalType": "uint256",
          "name": "_minimumTotalIdle",
          "type": "uint256"
        }
      ],
      "name": "setMinimumTotalIdle",
      "outputs": [],
      "stateMutability": "nonpayable",
      "type": "function"
    },
    {
      "inputs": [
        {
          "internalType": "uint256",
          "name": "_newProfitMaxUnlockTime",
          "type": "uint256"
        }
      ],
      "name": "setProfitMaxUnlockTime",
      "outputs": [],
      "stateMutability": "nonpayable",
      "type": "function"
    },
    {
      "inputs": [
        {
          "internalType": "bool",
          "name": "_useDefaultQueue",
          "type": "bool"
        }
      ],
      "name": "setUseDefaultQueue",
      "outputs": [],
      "stateMutability": "nonpayable",
      "type": "function"
    },
    {
      "inputs": [
        {
          "internalType": "address",
          "name": "_withdrawLimitModule",
          "type": "address"
        }
      ],
      "name": "setWithdrawLimitModule",
      "outputs": [],
      "stateMutability": "nonpayable",
      "type": "function"
    },
    {
      "inputs": [],
      "name": "setters",
      "outputs": [
        {
          "internalType": "address",
          "name": "",
          "type": "address"
        }
      ],
      "stateMutability": "view",
      "type": "function"
    },
    {
      "inputs": [],
      "name": "sharesManager",
      "outputs": [
        {
          "internalType": "address",
          "name": "",
          "type": "address"
        }
      ],
      "stateMutability": "view",
      "type": "function"
    },
    {
      "inputs": [],
      "name": "shutdown",
      "outputs": [
        {
          "internalType": "bool",
          "name": "",
          "type": "bool"
        }
      ],
      "stateMutability": "view",
      "type": "function"
    },
    {
      "inputs": [],
      "name": "shutdownVault",
      "outputs": [],
      "stateMutability": "nonpayable",
      "type": "function"
    },
    {
      "inputs": [
        {
          "internalType": "address",
          "name": "",
          "type": "address"
        }
      ],
      "name": "strategies",
      "outputs": [
        {
          "internalType": "uint256",
          "name": "activation",
          "type": "uint256"
        },
        {
          "internalType": "uint256",
          "name": "lastReport",
          "type": "uint256"
        },
        {
          "internalType": "uint256",
          "name": "currentDebt",
          "type": "uint256"
        },
        {
          "internalType": "uint256",
          "name": "maxDebt",
          "type": "uint256"
        }
      ],
      "stateMutability": "view",
      "type": "function"
    },
    {
      "inputs": [],
      "name": "strategyManager",
      "outputs": [
        {
          "internalType": "address payable",
          "name": "",
          "type": "address"
        }
      ],
      "stateMutability": "view",
      "type": "function"
    },
    {
      "inputs": [
        {
          "internalType": "bytes4",
          "name": "interfaceId",
          "type": "bytes4"
        }
      ],
      "name": "supportsInterface",
      "outputs": [
        {
          "internalType": "bool",
          "name": "",
          "type": "bool"
        }
      ],
      "stateMutability": "view",
      "type": "function"
    },
    {
      "inputs": [],
      "name": "totalAssets",
      "outputs": [
        {
          "internalType": "uint256",
          "name": "",
          "type": "uint256"
        }
      ],
      "stateMutability": "view",
      "type": "function"
    },
    {
      "inputs": [],
      "name": "totalDebtAmount",
      "outputs": [
        {
          "internalType": "uint256",
          "name": "",
          "type": "uint256"
        }
      ],
      "stateMutability": "view",
      "type": "function"
    },
    {
      "inputs": [],
      "name": "totalIdleAmount",
      "outputs": [
        {
          "internalType": "uint256",
          "name": "",
          "type": "uint256"
        }
      ],
      "stateMutability": "view",
      "type": "function"
    },
    {
      "inputs": [],
      "name": "totalSupply",
      "outputs": [
        {
          "internalType": "uint256",
          "name": "",
          "type": "uint256"
        }
      ],
      "stateMutability": "view",
      "type": "function"
    },
    {
      "inputs": [],
      "name": "totalSupplyAmount",
      "outputs": [
        {
          "internalType": "uint256",
          "name": "",
          "type": "uint256"
        }
      ],
      "stateMutability": "view",
      "type": "function"
    },
    {
      "inputs": [
        {
          "internalType": "address",
          "name": "receiver",
          "type": "address"
        },
        {
          "internalType": "uint256",
          "name": "amount",
          "type": "uint256"
        }
      ],
      "name": "transfer",
      "outputs": [
        {
          "internalType": "bool",
          "name": "",
          "type": "bool"
        }
      ],
      "stateMutability": "nonpayable",
      "type": "function"
    },
    {
      "inputs": [
        {
          "internalType": "address",
          "name": "sender",
          "type": "address"
        },
        {
          "internalType": "address",
          "name": "receiver",
          "type": "address"
        },
        {
          "internalType": "uint256",
          "name": "amount",
          "type": "uint256"
        }
      ],
      "name": "transferFrom",
      "outputs": [
        {
          "internalType": "bool",
          "name": "",
          "type": "bool"
        }
      ],
      "stateMutability": "nonpayable",
      "type": "function"
    },
    {
      "inputs": [],
      "name": "unlockedShares",
      "outputs": [
        {
          "internalType": "uint256",
          "name": "",
          "type": "uint256"
        }
      ],
      "stateMutability": "view",
      "type": "function"
    },
    {
      "inputs": [
        {
          "internalType": "address",
          "name": "sender",
          "type": "address"
        },
        {
          "internalType": "address",
          "name": "strategy",
          "type": "address"
        },
        {
          "internalType": "uint256",
          "name": "targetDebt",
          "type": "uint256"
        }
      ],
      "name": "updateDebt",
      "outputs": [
        {
          "internalType": "uint256",
          "name": "",
          "type": "uint256"
        }
      ],
      "stateMutability": "nonpayable",
      "type": "function"
    },
    {
      "inputs": [
        {
          "internalType": "address",
          "name": "strategy",
          "type": "address"
        },
        {
          "internalType": "uint256",
          "name": "newMaxDebt",
          "type": "uint256"
        }
      ],
      "name": "updateMaxDebtForStrategy",
      "outputs": [],
      "stateMutability": "nonpayable",
      "type": "function"
    },
    {
      "inputs": [],
      "name": "useDefaultQueue",
      "outputs": [
        {
          "internalType": "bool",
          "name": "",
          "type": "bool"
        }
      ],
      "stateMutability": "view",
      "type": "function"
    },
    {
      "inputs": [
        {
          "internalType": "uint256",
          "name": "assets",
          "type": "uint256"
        },
        {
          "internalType": "address",
          "name": "receiver",
          "type": "address"
        },
        {
          "internalType": "address",
          "name": "owner",
          "type": "address"
        },
        {
          "internalType": "uint256",
          "name": "maxLoss",
          "type": "uint256"
        },
        {
          "internalType": "address[]",
          "name": "_strategies",
          "type": "address[]"
        }
      ],
      "name": "withdraw",
      "outputs": [
        {
          "internalType": "uint256",
          "name": "",
          "type": "uint256"
        }
      ],
      "stateMutability": "nonpayable",
      "type": "function"
    },
    {
      "inputs": [],
      "name": "withdrawLimitModule",
      "outputs": [
        {
          "internalType": "address",
          "name": "",
          "type": "address"
        }
      ],
      "stateMutability": "view",
      "type": "function"
    }
  ],
  "transactionHash": "0x636ac26650ee369788a8626c2d04402e66539f44ebf9bce23855aaaca1dec482",
  "args": [
    60,
    "0x9BcBE88aC401c1215c3fC80E435CEf98De25bBcF",
    "0x360e6B086d3529c6E0E240a249b9582a51788478",
    "0xA54121aE2A1aD256CED642A48468DCb4327Fed16",
    "0xcce03f4406C583BA8da3b7eD6eD0e8D7cF0b5E50"
  ],
  "numDeployments": 1,
  "solcInputHash": "798f2dbdaef5b5fa0c5bd1a3e2efe1c6",
  "bytecode": "0x60c06040526301e185586080523480156200001957600080fd5b5060405162003632380380620036328339810160408190526200003c91620003ad565b600180553360a052608051851115620000685760405163fdfbb0b760e01b815260040160405180910390fd5b601b859055600280546001600160a01b038087166001600160a01b03199283161790925560038054868416908316179055600480548584169083161790556005805492841692909116919091179055620000c4600033620002b1565b620000f07f2f0dbbe8c2c0170206c50ec0cafa1c0dbd03e73e67c2a960178df30a0a30ee2e33620002b1565b6200011c7f2a0e761830cc61f2707ea7bb138008bf9dda7f7d34c77736d0a116604e95ea1633620002b1565b620001487f7cbb3cdf689b8ea3e9d265f66bc4e0a99069268217017d38d2a5a559abc6271933620002b1565b620001747f152ebba56b9738ee3d8baea1b76fa31dcdcd79b1929bfea7d58ee12cfdf1a65333620002b1565b620001a07f633076a97f32ae349b28772e7b1483f67a926f150cbc501d02bdbd77389325ab33620002b1565b600354604080516306fdde0360e01b815290517f8b73c3c69bb8fe3d512ecc4cf759cc79239f7b179b0ffacaa9a75d522b39400f926001600160a01b0316916306fdde039160048083019260009291908290030181865afa1580156200020a573d6000803e3d6000fd5b505050506040513d6000823e601f3d908101601f1916820160405262000234919081019062000561565b805160209182012060408051808201825260058152640312e302e360dc1b90840152516200028a93927f06c015bd22b4c69690933c1058878ebdfef31f9aaae40bbe86d8a09fe1b2972c914691309101620005b4565b6040516020818303038152906040528051906020012060208190555050505050506200060a565b620002bd82826200033a565b62000336576000828152602081815260408083206001600160a01b03851684529091529020805460ff19166001179055620002f53390565b6001600160a01b0316816001600160a01b0316837f2f8788117e7eff1d82e926ec794901d17c78024a50270940304540a733656f0d60405160405180910390a45b5050565b6000828152602081815260408083206001600160a01b038516845290915290205460ff165b92915050565b805b81146200037357600080fd5b50565b80516200035f8162000365565b60006001600160a01b0382166200035f565b620003678162000383565b80516200035f8162000395565b600080600080600060a08688031215620003ca57620003ca600080fd5b6000620003d8888862000376565b9550506020620003eb88828901620003a0565b9450506040620003fe88828901620003a0565b93505060606200041188828901620003a0565b92505060806200042488828901620003a0565b9150509295509295909350565b634e487b7160e01b600052604160045260246000fd5b601f19601f83011681018181106001600160401b03821117156200046f576200046f62000431565b6040525050565b60006200048260405190565b905062000490828262000447565b919050565b60006001600160401b03821115620004b157620004b162000431565b601f19601f83011660200192915050565b60005b83811015620004df578181015183820152602001620004c5565b50506000910152565b6000620004ff620004f98462000495565b62000476565b9050828152602081018484840111156200051c576200051c600080fd5b62000529848285620004c2565b509392505050565b600082601f830112620005475762000547600080fd5b815162000559848260208601620004e8565b949350505050565b600060208284031215620005785762000578600080fd5b81516001600160401b03811115620005935762000593600080fd5b620005598482850162000531565b805b82525050565b620005a38162000383565b60a08101620005c48288620005a1565b620005d36020830187620005a1565b620005e26040830186620005a1565b620005f16060830185620005a1565b620006006080830184620005a9565b9695505050505050565b60805160a051613002620006306000396000610625015260006105a101526130026000f3fe608060405234801561001057600080fd5b506004361061049c5760003560e01c80637ecebe001161026b5780637ecebe00146108c45780638212fd43146108e45780638afca8f0146108f7578063919860031461090057806391d148541461091357806394bf804d14610926578063993746421461093957806399530b06146109595780639a78e72e146109615780639af1d35a146109745780639bbca884146109a35780639e34e348146109b65780639f3988f3146109c9578063a217fddf146109de578063a457c2d7146109e6578063a835cd81146109f9578063a9059cbb14610a0c578063a98222c414610a1f578063ab5b4d4914610a34578063acded97d14610a49578063b1c46c9f14610a5c578063b3c187f214610a6f578063b3d7f6b914610a82578063b6cc2d1f14610a95578063bb994d4814610ab6578063bbe4eb4914610ac9578063bdc8144b14610ad6578063bee7e3d914610ae9578063c065ca0714610afc578063c0993eea14610b11578063c63d75b614610b38578063c6e6f59214610b4b578063c8d74b6014610b5e578063c8dffa9514610b73578063d4ae064f14610b7c578063d505accf14610b91578063d547741f14610ba4578063d81a09f614610bb7578063d9a0e97a14610bca578063dd62ed3e14610bd2578063df69b22a14610be5578063e5236cc914610bf8578063ecf7085814610c00578063ef8b30f714610b4b578063f1daeba814610c09578063f5b944eb14610c1e578063f6d7bfa014610c45578063f828f50b14610c58578063fc0e74d114610c61578063fd967f4714610c75578063fec61f0614610c7e578063ff1e7f0814610c9357600080fd5b8062435da5146104a157806301e1d114146104ca57806301ffc9a7146104df57806303dcd12c146104ff57806306580f2d1461051457806307a2d13a146105275780630835a3fc1461053a5780630952864e14610543578063095ea7b31461054c5780630a28a4771461055f5780630ad283d01461057257806316b87ac01461058757806316d3bfbb1461059c57806318160ddd146105c3578063223e5479146105cb57806323b872dd146105de578063248a9ca3146105f15780632d632692146106045780632d7721681461060d5780632dd31000146106205780632f2ff15d14610647578063313ce5671461065a57806334b5fab61461066f5780633644e5151461068257806336568abe1461068b57806336fba0841461069e57806338d52e0f146106aa57806339509351146106b257806339b70e38146106c557806339ebf823146106d85780633cd7b5ab1461071d5780633f7b5e4014610726578063402d267d1461072e578063405977e71461074157806348ea7127146107545780634bbd71e9146107675780634cdad506146105275780634ce1d38a1461077a5780634cfe51dc1461078f5780634d4bb197146107a45780634fb3ccc5146107cb5780635141eebb146107de57806353a66132146107e75780635aa6e6751461080a5780635bf6b4fb1461081d578063633f228c14610832578063652da3241461084557806365cb67651461085a5780636e553f651461086d57806370a082311461088057806377e3b26714610893575b600080fd5b6019546104b4906001600160a01b031681565b6040516104c19190612132565b60405180910390f35b6104d2610ca6565b6040516104c19190612146565b6104f26104ed366004612176565b610d18565b6040516104c1919061219f565b6104d2600080516020612e4d83398151915281565b6104d26105223660046122e2565b610d4f565b6104d2610535366004612374565b610de8565b6104d260125481565b6104d2601b5481565b6104f261055a366004612395565b610df5565b6104d261056d366004612374565b610e74565b6104d2600080516020612e6d83398151915281565b61059a6105953660046123d2565b610e81565b005b6104d27f000000000000000000000000000000000000000000000000000000000000000081565b6104d2610f02565b61059a6105d93660046123d2565b610f4c565b6104f26105ec3660046123f3565b610f94565b6104d26105ff366004612374565b611051565b6104d2601c5481565b61059a61061b3660046123d2565b611066565b6104b47f000000000000000000000000000000000000000000000000000000000000000081565b61059a610655366004612443565b6110ad565b6106626110ce565b6040516104c1919061247f565b6104d261067d36600461248d565b61113c565b6104d260205481565b61059a610699366004612443565b6111b4565b6104d264e8d4a5100081565b6104b46111f3565b6104f26106c0366004612395565b611261565b6002546104b4906001600160a01b031681565b61070d6106e63660046123d2565b60066020526000908152604090208054600182015460028301546003909301549192909184565b6040516104c194939291906124ed565b6104d260115481565b6104d2600a81565b6104d261073c3660046123d2565b611296565b61059a61074f366004612395565b611308565b61059a6107623660046123d2565b611395565b61059a6107753660046123d2565b6113dc565b6104d2600080516020612fad83398151915281565b6104d2600080516020612ecd83398151915281565b6104d27f6e71edae12b1b97f4d1f60370fef10105fa2faae0126114a169c64845d6126c981565b6014546104b4906001600160a01b031681565b6104d2601d5481565b6104f26107f5366004612374565b60186020526000908152604090205460ff1681565b6005546104b4906001600160a01b031681565b6104d2600080516020612ead83398151915281565b61059a610840366004612573565b611423565b6104d2600080516020612e2d83398151915281565b6104d261086836600461248d565b6114a3565b6104d261087b366004612443565b6114d8565b6104d261088e3660046123d2565b611564565b6108b7604051806040016040528060058152602001640312e302e360dc1b81525081565b6040516104c19190612612565b6104d26108d23660046123d2565b601f6020526000908152604090205481565b61059a6108f2366004612374565b611595565b6104d2601e5481565b6016546104b4906001600160a01b031681565b6104f2610921366004612443565b6115dc565b6104d2610934366004612443565b611605565b6104d26109473660046123d2565b60176020526000908152604090205481565b6104d2611643565b6104d261096f3660046123d2565b6116d1565b600754600854600954600a54610993939291906001600160a01b031684565b6040516104c19493929190612623565b61059a6109b136600461266b565b611702565b6015546104b4906001600160a01b031681565b6104d2600080516020612f2d83398151915281565b6104d2600081565b6104f26109f4366004612395565b611749565b6104d2610a073660046123f3565b61177e565b6104f2610a1a366004612395565b61182a565b6104d2600080516020612f8d83398151915281565b6104d2600080516020612f4d83398151915281565b6003546104b4906001600160a01b031681565b61059a610a6a36600461268c565b6118d7565b601a546104b4906001600160a01b031681565b6104d2610a90366004612374565b611952565b610aa8610aa33660046123d2565b61195f565b6040516104c19291906126f0565b61059a610ac43660046123d2565b611a07565b600c546104f29060ff1681565b61059a610ae4366004612374565b611a52565b6004546104b4906001600160a01b031681565b6104d2600080516020612eed83398151915281565b6104d27f8b73c3c69bb8fe3d512ecc4cf759cc79239f7b179b0ffacaa9a75d522b39400f81565b6104d2610b463660046123d2565b611a9a565b6104d2610b59366004612374565b611acb565b6104d2600080516020612e0d83398151915281565b6104d260105481565b6104d2600080516020612f6d83398151915281565b6104f2610b9f36600461271f565b611ad8565b61059a610bb2366004612443565b611b64565b6104d2610bc53660046122e2565b611b80565b6104d2611bc2565b6104d2610be03660046127be565b611c0c565b61059a610bf3366004612374565b611c80565b61059a611cc7565b6104d260135481565b6104d2600080516020612f0d83398151915281565b6104d27ff206625bad3d9112d5609b8d356e6fbd514cd1f69980d4ce2b3e6e68e1789ace81565b61059a610c53366004612395565b611d43565b6104d2600f5481565b601a546104f290600160a01b900460ff1681565b6104d261271081565b6104d2600080516020612e8d83398151915281565b6104b4610ca1366004612374565b611d8d565b600354604080516278744560e21b815290516000926001600160a01b0316916301e1d1149160048083019260209291908290030181865afa158015610cef573d6000803e3d6000fd5b505050506040513d601f19601f82011682018060405250810190610d1391906127eb565b905090565b60006001600160e01b03198216637965db0b60e01b1480610d4957506301ffc9a760e01b6001600160e01b03198316145b92915050565b6000610d59611db7565b6003546040516306580f2d60e01b81526001600160a01b03909116906306580f2d90610d919089908990899089908990600401612869565b6020604051808303816000875af1158015610db0573d6000803e3d6000fd5b505050506040513d601f19601f82011682018060405250810190610dd491906127eb565b9050610ddf60018055565b95945050505050565b6000610d49826000611de0565b60035460405163e1f21c6760e01b81526000916001600160a01b03169063e1f21c6790610e2a903390879087906004016128bb565b6020604051808303816000875af1158015610e49573d6000803e3d6000fd5b505050506040513d601f19601f82011682018060405250810190610e6d91906128ee565b9392505050565b6000610d49826001611e13565b600080516020612ead833981519152610e9981611e46565b600254604051637a163bd760e11b81526001600160a01b039091169063f42c77ae90610ecc90859060019060040161290f565b600060405180830381600087803b158015610ee657600080fd5b505af1158015610efa573d6000803e3d6000fd5b505050505050565b600354604080516318160ddd60e01b815290516000926001600160a01b0316916318160ddd9160048083019260209291908290030181865afa158015610cef573d6000803e3d6000fd5b600080516020612eed833981519152610f6481611e46565b60025460405163223e547960e01b81526001600160a01b039091169063223e547990610ecc908590600401612132565b60006001600160a01b038316301480610fb457506001600160a01b038316155b15610fd25760405163d92e233d60e01b815260040160405180910390fd5b6003546040516323b872dd60e01b81526001600160a01b03909116906323b872dd90611006908790879087906004016128bb565b6020604051808303816000875af1158015611025573d6000803e3d6000fd5b505050506040513d601f19601f8201168201806040525081019061104991906128ee565b949350505050565b60009081526020819052604090206001015490565b600080516020612f8d83398151915261107e81611e46565b600480546040516305aee42d60e31b81526001600160a01b0390911691632d77216891610ecc91869101612132565b6110b682611051565b6110bf81611e46565b6110c98383611e53565b505050565b6003546040805163313ce56760e01b815290516000926001600160a01b03169163313ce5679160048083019260209291908290030181865afa158015611118573d6000803e3d6000fd5b505050506040513d601f19601f82011682018060405250810190610d139190612935565b600354604051631a5afd5b60e11b81526000916001600160a01b0316906334b5fab69061117190879087908790600401612956565b6020604051808303816000875af1158015611190573d6000803e3d6000fd5b505050506040513d601f19601f8201168201806040525081019061104991906127eb565b6001600160a01b03811633146111e55760405162461bcd60e51b81526004016111dc90612983565b60405180910390fd5b6111ef8282611ed7565b5050565b600354604080516338d52e0f60e01b815290516000926001600160a01b0316916338d52e0f9160048083019260209291908290030181865afa15801561123d573d6000803e3d6000fd5b505050506040513d601f19601f82011682018060405250810190610d1391906129e1565b600354604051633621d16560e11b81526000916001600160a01b031690636c43a2ca90610e2a903390879087906004016128bb565b60035460405163402d267d60e01b81526000916001600160a01b03169063402d267d906112c7908590600401612132565b602060405180830381865afa1580156112e4573d6000803e3d6000fd5b505050506040513d601f19601f82011682018060405250810190610d4991906127eb565b600080516020612f4d83398151915261132081611e46565b611328611db7565b60055460405163405977e760e01b81526001600160a01b039091169063405977e79061135a9086908690600401612a02565b600060405180830381600087803b15801561137457600080fd5b505af1158015611388573d6000803e3d6000fd5b505050506110c960018055565b600080516020612e2d8339815191526113ad81611e46565b600480546040516348ea712760e01b81526001600160a01b03909116916348ea712791610ecc91869101612132565b600080516020612fad8339815191526113f481611e46565b60048054604051634bbd71e960e01b81526001600160a01b0390911691634bbd71e991610ecc91869101612132565b600080516020612ecd83398151915261143b81611e46565b600480546040516318cfc8a360e21b81526001600160a01b039091169163633f228c9161146c918791879101612a5c565b600060405180830381600087803b15801561148657600080fd5b505af115801561149a573d6000803e3d6000fd5b50505050505050565b6003546040516365cb676560e01b81526000916001600160a01b0316906365cb67659061117190879087908790600401612956565b60006114e2611db7565b600354604051638340f54960e01b81526001600160a01b0390911690638340f54990611516903390869088906004016128bb565b6020604051808303816000875af1158015611535573d6000803e3d6000fd5b505050506040513d601f19601f8201168201806040525081019061155991906127eb565b9050610d4960018055565b6003546040516370a0823160e01b81526000916001600160a01b0316906370a08231906112c7908590600401612132565b600080516020612e6d8339815191526115ad81611e46565b60048054604051638212fd4360e01b81526001600160a01b0390911691638212fd4391610ecc91869101612146565b6000918252602082815260408084206001600160a01b0393909316845291905290205460ff1690565b600061160f611db7565b600354604051636361ddf360e11b81526001600160a01b039091169063c6c3bbe690611516903390869088906004016128bb565b6000610d13600360009054906101000a90046001600160a01b03166001600160a01b031663313ce5676040518163ffffffff1660e01b8152600401602060405180830381865afa15801561169b573d6000803e3d6000fd5b505050506040513d601f19601f820116820180604052508101906116bf9190612935565b6116ca90600a612b92565b6000611de0565b600254604051634d3c739760e11b81526000916001600160a01b031690639a78e72e906112c7908590600401612132565b600080516020612ecd83398151915261171a81611e46565b600480546040516326ef2a2160e21b81526001600160a01b0390911691639bbca88491610ecc9186910161219f565b60035460405163d73b1dc960e01b81526000916001600160a01b03169063d73b1dc990610e2a903390879087906004016128bb565b6000600080516020612e0d83398151915261179881611e46565b6117a0611db7565b60025460405163a835cd8160e01b81526001600160a01b039091169063a835cd81906117d4908890889088906004016128bb565b6020604051808303816000875af11580156117f3573d6000803e3d6000fd5b505050506040513d601f19601f8201168201806040525081019061181791906127eb565b915061182260018055565b509392505050565b60006001600160a01b03831630148061184a57506001600160a01b038316155b156118685760405163d92e233d60e01b815260040160405180910390fd5b6003546040516317d5759960e31b81526001600160a01b039091169063beabacc89061189c903390879087906004016128bb565b600060405180830381600087803b1580156118b657600080fd5b505af11580156118ca573d6000803e3d6000fd5b5060019695505050505050565b60006118e281611e46565b60025460405163b1c46c9f60e01b81526001600160a01b039091169063b1c46c9f90611918908890889088908890600401612623565b600060405180830381600087803b15801561193257600080fd5b505af1158015611946573d6000803e3d6000fd5b505050505b5050505050565b6000610d49826001611de0565b600080600080516020612e4d83398151915261197a81611e46565b611982611db7565b60025460405163b6cc2d1f60e01b81526001600160a01b039091169063b6cc2d1f906119b2908790600401612132565b60408051808303816000875af11580156119d0573d6000803e3d6000fd5b505050506040513d601f19601f820116820180604052508101906119f49190612ba7565b92509250611a0160018055565b50915091565b600080516020612f2d833981519152611a1f81611e46565b600254604051637a163bd760e11b81526001600160a01b039091169063f42c77ae90610ecc90859060009060040161290f565b600080516020612f8d833981519152611a6a81611e46565b60035460405163bdc8144b60e01b81526001600160a01b039091169063bdc8144b90610ecc908590600401612146565b60035460405163631ebadb60e11b81526000916001600160a01b03169063c63d75b6906112c7908590600401612132565b6000610d49826000611e13565b60035460405163d505accf60e01b81526000916001600160a01b03169063d505accf90611b15908b908b908b908b908b908b908b90600401612bda565b6020604051808303816000875af1158015611b34573d6000803e3d6000fd5b505050506040513d601f19601f82011682018060405250810190611b5891906128ee565b98975050505050505050565b611b6d82611051565b611b7681611e46565b6110c98383611ed7565b6000611b8a611db7565b600354604051636c0d04fb60e11b81526001600160a01b039091169063d81a09f690610d919089908990899089908990600401612869565b60035460408051636cd074bd60e11b815290516000926001600160a01b03169163d9a0e97a9160048083019260209291908290030181865afa158015610cef573d6000803e3d6000fd5b600354604051636eb1769f60e11b81526000916001600160a01b03169063dd62ed3e90611c3f9086908690600401612c36565b602060405180830381865afa158015611c5c573d6000803e3d6000fd5b505050506040513d601f19601f82011682018060405250810190610e6d91906127eb565b600080516020612f6d833981519152611c9881611e46565b60048054604051636fb4d91560e11b81526001600160a01b039091169163df69b22a91610ecc91869101612146565b600080516020612e8d833981519152611cdf81611e46565b600560009054906101000a90046001600160a01b03166001600160a01b031663e5236cc96040518163ffffffff1660e01b8152600401600060405180830381600087803b158015611d2f57600080fd5b505af115801561194b573d6000803e3d6000fd5b600080516020612f0d833981519152611d5b81611e46565b6002546040516307b6bdfd60e51b81526001600160a01b039091169063f6d7bfa09061146c9086908690600401612a02565b600b8181548110611d9d57600080fd5b6000918252602090912001546001600160a01b0316905081565b600260015403611dd95760405162461bcd60e51b81526004016111dc90612c88565b6002600155565b600354604051637ff0007760e01b81526000916001600160a01b031690637ff0007790611c3f9086908690600401612cdc565b600354604051635d4086af60e01b81526000916001600160a01b031690635d4086af90611c3f9086908690600401612cdc565b611e508133611f3c565b50565b611e5d82826115dc565b6111ef576000828152602081815260408083206001600160a01b03851684529091529020805460ff19166001179055611e933390565b6001600160a01b0316816001600160a01b0316837f2f8788117e7eff1d82e926ec794901d17c78024a50270940304540a733656f0d60405160405180910390a45050565b611ee182826115dc565b156111ef576000828152602081815260408083206001600160a01b0385168085529252808320805460ff1916905551339285917ff6391f5c32d9c69d2a47ea670b442974b53935d1edc7fd64eb21e047a839171b9190a45050565b611f4682826115dc565b6111ef57611f5381611f95565b611f5e836020611fa7565b604051602001611f6f929190612d19565b60408051601f198184030181529082905262461bcd60e51b82526111dc91600401612612565b6060610d496001600160a01b03831660145b60606000611fb6836002612d6b565b611fc1906002612d8a565b6001600160401b03811115611fd857611fd86121dc565b6040519080825280601f01601f191660200182016040528015612002576020820181803683370190505b509050600360fc1b8160008151811061201d5761201d612d9d565b60200101906001600160f81b031916908160001a905350600f60fb1b8160018151811061204c5761204c612d9d565b60200101906001600160f81b031916908160001a9053506000612070846002612d6b565b61207b906001612d8a565b90505b60018111156120f3576f181899199a1a9b1b9c1cb0b131b232b360811b85600f16601081106120af576120af612d9d565b1a60f81b8282815181106120c5576120c5612d9d565b60200101906001600160f81b031916908160001a90535060049490941c936120ec81612db3565b905061207e565b508315610e6d5760405162461bcd60e51b81526004016111dc90612dfc565b60006001600160a01b038216610d49565b61212c81612112565b82525050565b60208101610d498284612123565b8061212c565b60208101610d498284612140565b6001600160e01b031981165b8114611e5057600080fd5b8035610d4981612154565b60006020828403121561218b5761218b600080fd5b6000611049848461216b565b80151561212c565b60208101610d498284612197565b80612160565b8035610d49816121ad565b61216081612112565b8035610d49816121be565b601f01601f191690565b634e487b7160e01b600052604160045260246000fd5b6121fb826121d2565b81018181106001600160401b0382111715612218576122186121dc565b6040525050565b600061222a60405190565b905061223682826121f2565b919050565b60006001600160401b03821115612254576122546121dc565b5060209081020190565b600061227161226c8461223b565b61221f565b8381529050602080820190840283018581111561229057612290600080fd5b835b818110156122b457806122a588826121c7565b84525060209283019201612292565b5050509392505050565b600082601f8301126122d2576122d2600080fd5b813561104984826020860161225e565b600080600080600060a086880312156122fd576122fd600080fd5b600061230988886121b3565b955050602061231a888289016121c7565b945050604061232b888289016121c7565b935050606061233c888289016121b3565b92505060808601356001600160401b0381111561235b5761235b600080fd5b612367888289016122be565b9150509295509295909350565b60006020828403121561238957612389600080fd5b600061104984846121b3565b600080604083850312156123ab576123ab600080fd5b60006123b785856121c7565b92505060206123c8858286016121b3565b9150509250929050565b6000602082840312156123e7576123e7600080fd5b600061104984846121c7565b60008060006060848603121561240b5761240b600080fd5b600061241786866121c7565b9350506020612428868287016121c7565b9250506040612439868287016121b3565b9150509250925092565b6000806040838503121561245957612459600080fd5b600061246585856121b3565b92505060206123c8858286016121c7565b60ff811661212c565b60208101610d498284612476565b6000806000606084860312156124a5576124a5600080fd5b60006124b186866121c7565b93505060206124c2868287016121b3565b92505060408401356001600160401b038111156124e1576124e1600080fd5b612439868287016122be565b608081016124fb8287612140565b6125086020830186612140565b6125156040830185612140565b610ddf6060830184612140565b60008083601f84011261253757612537600080fd5b5081356001600160401b0381111561255157612551600080fd5b60208301915083602082028301111561256c5761256c600080fd5b9250929050565b6000806020838503121561258957612589600080fd5b82356001600160401b038111156125a2576125a2600080fd5b6125ae85828601612522565b92509250509250929050565b60005b838110156125d55781810151838201526020016125bd565b50506000910152565b60006125e8825190565b8084526020840193506125ff8185602086016125ba565b612608816121d2565b9093019392505050565b60208082528101610e6d81846125de565b608081016126318287612140565b61263e6020830186612140565b61264b6040830185612140565b610ddf6060830184612123565b801515612160565b8035610d4981612658565b60006020828403121561268057612680600080fd5b60006110498484612660565b600080600080608085870312156126a5576126a5600080fd5b60006126b187876121b3565b94505060206126c2878288016121b3565b93505060406126d3878288016121b3565b92505060606126e4878288016121c7565b91505092959194509250565b604081016126fe8285612140565b610e6d6020830184612140565b60ff8116612160565b8035610d498161270b565b600080600080600080600060e0888a03121561273d5761273d600080fd5b60006127498a8a6121c7565b975050602061275a8a828b016121c7565b965050604061276b8a828b016121b3565b955050606061277c8a828b016121b3565b945050608061278d8a828b01612714565b93505060a061279e8a828b016121b3565b92505060c06127af8a828b016121b3565b91505092959891949750929550565b600080604083850312156127d4576127d4600080fd5b600061246585856121c7565b8051610d49816121ad565b60006020828403121561280057612800600080fd5b600061104984846127e0565b60006128188383612123565b505060200190565b600061282a825190565b80845260209384019383018060005b8381101561285e57815161284d888261280c565b975060208301925050600101612839565b509495945050505050565b60a081016128778288612140565b6128846020830187612123565b6128916040830186612123565b61289e6060830185612140565b81810360808301526128b08184612820565b979650505050505050565b606081016128c98286612123565b6128d66020830185612123565b6110496040830184612140565b8051610d4981612658565b60006020828403121561290357612903600080fd5b600061104984846128e3565b6040810161291d8285612123565b610e6d6020830184612197565b8051610d498161270b565b60006020828403121561294a5761294a600080fd5b6000611049848461292a565b606081016129648286612123565b6129716020830185612140565b8181036040830152610ddf8184612820565b60208082528101610d4981602f81527f416363657373436f6e74726f6c3a2063616e206f6e6c792072656e6f756e636560208201526e103937b632b9903337b91039b2b63360891b604082015260600190565b8051610d49816121be565b6000602082840312156129f6576129f6600080fd5b600061104984846129d6565b604081016126fe8285612123565b6000610e6d60208401846121c7565b8183526000602084019350818060005b8581101561285e57612a418284612a10565b612a4b888261280c565b975060208301925050600101612a2f565b60208082528101611049818486612a1f565b634e487b7160e01b600052601160045260246000fd5b80825b6001851115612ac357808604811115612aa257612aa2612a6e565b6001851615612ab057908102905b8002612abc8560011c90565b9450612a87565b94509492505050565b600082612adb57506001610e6d565b81612ae857506000610e6d565b8160018114612afe5760028114612b0857612b35565b6001915050610e6d565b60ff841115612b1957612b19612a6e565b8360020a915084821115612b2f57612b2f612a6e565b50610e6d565b5060208310610133831016604e8410600b8410161715612b68575081810a83811115612b6357612b63612a6e565b610e6d565b612b758484846001612a84565b92509050818404811115612b8b57612b8b612a6e565b0292915050565b600060ff83169250610e6d6000198484612acc565b60008060408385031215612bbd57612bbd600080fd5b6000612bc985856127e0565b92505060206123c8858286016127e0565b60e08101612be8828a612123565b612bf56020830189612123565b612c026040830188612140565b612c0f6060830187612140565b612c1c6080830186612476565b612c2960a0830185612140565b611b5860c0830184612140565b60408101612c448285612123565b610e6d6020830184612123565b601f81526000602082017f5265656e7472616e637947756172643a207265656e7472616e742063616c6c00815291505b5060200190565b60208082528101610d4981612c51565b634e487b7160e01b600052602160045260246000fd5b60028110611e5057611e50612c98565b8061223681612cae565b6000610d4982612cbe565b61212c81612cc8565b60408101612cea8285612140565b610e6d6020830184612cd3565b6000612d01825190565b612d0f8185602086016125ba565b9290920192915050565b76020b1b1b2b9b9a1b7b73a3937b61d1030b1b1b7bab73a1604d1b81526017016000612d458285612cf7565b7001034b99036b4b9b9b4b733903937b6329607d1b815260110191506110498284612cf7565b6000816000190483118215151615612d8557612d85612a6e565b500290565b80820180821115610d4957610d49612a6e565b634e487b7160e01b600052603260045260246000fd5b600081612dc257612dc2612a6e565b506000190190565b60208082527f537472696e67733a20686578206c656e67746820696e73756666696369656e7491019081526000612c81565b60208082528101610d4981612dca56fe152ebba56b9738ee3d8baea1b76fa31dcdcd79b1929bfea7d58ee12cfdf1a653cd9f023a942ee35097ead74b2505bea9f2c5d47465db92dd195cf7f01a41cfe1633076a97f32ae349b28772e7b1483f67a926f150cbc501d02bdbd77389325abc723f4dd6268e1c374639e36d629c765285ee7003913389d582c300f186dde97d45f7ccff42f059d4e47c3f027c444272257266f7e88b981e142f0aa38fbfd78ea672c1c09cd95c51af9509f646f3615ff0071aae8652bd821471ee9037fd72c862f91c9d89d6135b19873b921c90b702cb2e175c371b8430026b9577e6911192a0e761830cc61f2707ea7bb138008bf9dda7f7d34c77736d0a116604e95ea167cbb3cdf689b8ea3e9d265f66bc4e0a99069268217017d38d2a5a559abc627196f430d649a8640e48ff9bfbc353b3f99ed630163857821b3b4075e3871dafbf5900d80def0427daac599092fcb16b21808ec68dd9a2e1eae89d1e8db21357375a18eaea71a088b547b8c932b48861853b3434d9a3240b94466c607e28b6965952f0dbbe8c2c0170206c50ec0cafa1c0dbd03e73e67c2a960178df30a0a30ee2e69d1171ac0a63777a6733cda21aec9ed3d48a4fd11f273c934a691dec5e5589ca2646970667358221220421965939d1ed03d26433a4d78c3b51c33f4ada1b2a03710f28953f073bb7b2064736f6c63430008100033",
  "devdoc": {
    "kind": "dev",
    "methods": {
      "getRoleAdmin(bytes32)": {
        "details": "Returns the admin role that controls `role`. See {grantRole} and {revokeRole}. To change a role's admin, use {_setRoleAdmin}."
      },
      "grantRole(bytes32,address)": {
        "details": "Grants `role` to `account`. If `account` had not been already granted `role`, emits a {RoleGranted} event. Requirements: - the caller must have ``role``'s admin role. May emit a {RoleGranted} event."
      },
      "hasRole(bytes32,address)": {
        "details": "Returns `true` if `account` has been granted `role`."
      },
      "renounceRole(bytes32,address)": {
        "details": "Revokes `role` from the calling account. Roles are often managed via {grantRole} and {revokeRole}: this function's purpose is to provide a mechanism for accounts to lose their privileges if they are compromised (such as when a trusted device is misplaced). If the calling account had been revoked `role`, emits a {RoleRevoked} event. Requirements: - the caller must be `account`. May emit a {RoleRevoked} event."
      },
      "revokeRole(bytes32,address)": {
        "details": "Revokes `role` from `account`. If `account` had been granted `role`, emits a {RoleRevoked} event. Requirements: - the caller must have ``role``'s admin role. May emit a {RoleRevoked} event."
      },
      "supportsInterface(bytes4)": {
        "details": "See {IERC165-supportsInterface}."
      }
    },
    "title": "Yearn V3 Vault",
    "version": 1
  },
  "userdoc": {
    "kind": "user",
    "methods": {},
    "notice": "The Yearn VaultV3 is designed as a non-opinionated system to distribute funds of  depositors for a specific `asset` into different opportunities (aka Strategies) and manage accounting in a robust way.",
    "version": 1
  },
  "storageLayout": {
    "storage": [
      {
        "astId": 24,
        "contract": "contracts/FathomVault.sol:FathomVault",
        "label": "_roles",
        "offset": 0,
        "slot": "0",
        "type": "t_mapping(t_bytes32,t_struct(RoleData)19_storage)"
      },
      {
        "astId": 796,
        "contract": "contracts/FathomVault.sol:FathomVault",
        "label": "_status",
        "offset": 0,
        "slot": "1",
        "type": "t_uint256"
      },
      {
        "astId": 10919,
        "contract": "contracts/FathomVault.sol:FathomVault",
        "label": "strategyManager",
        "offset": 0,
        "slot": "2",
        "type": "t_address_payable"
      },
      {
        "astId": 10921,
        "contract": "contracts/FathomVault.sol:FathomVault",
        "label": "sharesManager",
        "offset": 0,
        "slot": "3",
        "type": "t_address"
      },
      {
        "astId": 10923,
        "contract": "contracts/FathomVault.sol:FathomVault",
        "label": "setters",
        "offset": 0,
        "slot": "4",
        "type": "t_address"
      },
      {
        "astId": 10925,
        "contract": "contracts/FathomVault.sol:FathomVault",
        "label": "governance",
        "offset": 0,
        "slot": "5",
        "type": "t_address"
      },
      {
        "astId": 10930,
        "contract": "contracts/FathomVault.sol:FathomVault",
        "label": "strategies",
        "offset": 0,
        "slot": "6",
        "type": "t_mapping(t_address,t_struct(StrategyParams)11091_storage)"
      },
      {
        "astId": 10933,
        "contract": "contracts/FathomVault.sol:FathomVault",
        "label": "fees",
        "offset": 0,
        "slot": "7",
        "type": "t_struct(FeeAssessment)11100_storage"
      },
      {
        "astId": 10936,
        "contract": "contracts/FathomVault.sol:FathomVault",
        "label": "defaultQueue",
        "offset": 0,
        "slot": "11",
        "type": "t_array(t_address)dyn_storage"
      },
      {
        "astId": 10938,
        "contract": "contracts/FathomVault.sol:FathomVault",
        "label": "useDefaultQueue",
        "offset": 0,
        "slot": "12",
        "type": "t_bool"
      },
      {
        "astId": 10940,
        "contract": "contracts/FathomVault.sol:FathomVault",
        "label": "initialized",
        "offset": 1,
        "slot": "12",
        "type": "t_bool"
      },
      {
        "astId": 10944,
        "contract": "contracts/FathomVault.sol:FathomVault",
        "label": "_balanceOf",
        "offset": 0,
        "slot": "13",
        "type": "t_mapping(t_address,t_uint256)"
      },
      {
        "astId": 10950,
        "contract": "contracts/FathomVault.sol:FathomVault",
        "label": "_allowance",
        "offset": 0,
        "slot": "14",
        "type": "t_mapping(t_address,t_mapping(t_address,t_uint256))"
      },
      {
        "astId": 10952,
        "contract": "contracts/FathomVault.sol:FathomVault",
        "label": "totalSupplyAmount",
        "offset": 0,
        "slot": "15",
        "type": "t_uint256"
      },
      {
        "astId": 10954,
        "contract": "contracts/FathomVault.sol:FathomVault",
        "label": "totalDebtAmount",
        "offset": 0,
        "slot": "16",
        "type": "t_uint256"
      },
      {
        "astId": 10956,
        "contract": "contracts/FathomVault.sol:FathomVault",
        "label": "totalIdleAmount",
        "offset": 0,
        "slot": "17",
        "type": "t_uint256"
      },
      {
        "astId": 10958,
        "contract": "contracts/FathomVault.sol:FathomVault",
        "label": "minimumTotalIdle",
        "offset": 0,
        "slot": "18",
        "type": "t_uint256"
      },
      {
        "astId": 10960,
        "contract": "contracts/FathomVault.sol:FathomVault",
        "label": "depositLimit",
        "offset": 0,
        "slot": "19",
        "type": "t_uint256"
      },
      {
        "astId": 10962,
        "contract": "contracts/FathomVault.sol:FathomVault",
        "label": "accountant",
        "offset": 0,
        "slot": "20",
        "type": "t_address"
      },
      {
        "astId": 10964,
        "contract": "contracts/FathomVault.sol:FathomVault",
        "label": "depositLimitModule",
        "offset": 0,
        "slot": "21",
        "type": "t_address"
      },
      {
        "astId": 10966,
        "contract": "contracts/FathomVault.sol:FathomVault",
        "label": "withdrawLimitModule",
        "offset": 0,
        "slot": "22",
        "type": "t_address"
      },
      {
        "astId": 10970,
        "contract": "contracts/FathomVault.sol:FathomVault",
        "label": "roles",
        "offset": 0,
        "slot": "23",
        "type": "t_mapping(t_address,t_bytes32)"
      },
      {
        "astId": 10974,
        "contract": "contracts/FathomVault.sol:FathomVault",
        "label": "openRoles",
        "offset": 0,
        "slot": "24",
        "type": "t_mapping(t_bytes32,t_bool)"
      },
      {
        "astId": 10976,
        "contract": "contracts/FathomVault.sol:FathomVault",
        "label": "roleManager",
        "offset": 0,
        "slot": "25",
        "type": "t_address"
      },
      {
        "astId": 10978,
        "contract": "contracts/FathomVault.sol:FathomVault",
        "label": "futureRoleManager",
        "offset": 0,
        "slot": "26",
        "type": "t_address"
      },
      {
        "astId": 10980,
        "contract": "contracts/FathomVault.sol:FathomVault",
        "label": "shutdown",
        "offset": 20,
        "slot": "26",
        "type": "t_bool"
      },
      {
        "astId": 10982,
        "contract": "contracts/FathomVault.sol:FathomVault",
        "label": "profitMaxUnlockTime",
        "offset": 0,
        "slot": "27",
        "type": "t_uint256"
      },
      {
        "astId": 10984,
        "contract": "contracts/FathomVault.sol:FathomVault",
        "label": "fullProfitUnlockDate",
        "offset": 0,
        "slot": "28",
        "type": "t_uint256"
      },
      {
        "astId": 10986,
        "contract": "contracts/FathomVault.sol:FathomVault",
        "label": "profitUnlockingRate",
        "offset": 0,
        "slot": "29",
        "type": "t_uint256"
      },
      {
        "astId": 10988,
        "contract": "contracts/FathomVault.sol:FathomVault",
        "label": "lastProfitUpdate",
        "offset": 0,
        "slot": "30",
        "type": "t_uint256"
      },
      {
        "astId": 10992,
        "contract": "contracts/FathomVault.sol:FathomVault",
        "label": "nonces",
        "offset": 0,
        "slot": "31",
        "type": "t_mapping(t_address,t_uint256)"
      },
      {
        "astId": 10999,
        "contract": "contracts/FathomVault.sol:FathomVault",
        "label": "DOMAIN_SEPARATOR",
        "offset": 0,
        "slot": "32",
        "type": "t_bytes32"
      }
    ],
    "types": {
      "t_address": {
        "encoding": "inplace",
        "label": "address",
        "numberOfBytes": "20"
      },
      "t_address_payable": {
        "encoding": "inplace",
        "label": "address payable",
        "numberOfBytes": "20"
      },
      "t_array(t_address)dyn_storage": {
        "base": "t_address",
        "encoding": "dynamic_array",
        "label": "address[]",
        "numberOfBytes": "32"
      },
      "t_bool": {
        "encoding": "inplace",
        "label": "bool",
        "numberOfBytes": "1"
      },
      "t_bytes32": {
        "encoding": "inplace",
        "label": "bytes32",
        "numberOfBytes": "32"
      },
      "t_mapping(t_address,t_bool)": {
        "encoding": "mapping",
        "key": "t_address",
        "label": "mapping(address => bool)",
        "numberOfBytes": "32",
        "value": "t_bool"
      },
      "t_mapping(t_address,t_bytes32)": {
        "encoding": "mapping",
        "key": "t_address",
        "label": "mapping(address => bytes32)",
        "numberOfBytes": "32",
        "value": "t_bytes32"
      },
      "t_mapping(t_address,t_mapping(t_address,t_uint256))": {
        "encoding": "mapping",
        "key": "t_address",
        "label": "mapping(address => mapping(address => uint256))",
        "numberOfBytes": "32",
        "value": "t_mapping(t_address,t_uint256)"
      },
      "t_mapping(t_address,t_struct(StrategyParams)11091_storage)": {
        "encoding": "mapping",
        "key": "t_address",
        "label": "mapping(address => struct StrategyParams)",
        "numberOfBytes": "32",
        "value": "t_struct(StrategyParams)11091_storage"
      },
      "t_mapping(t_address,t_uint256)": {
        "encoding": "mapping",
        "key": "t_address",
        "label": "mapping(address => uint256)",
        "numberOfBytes": "32",
        "value": "t_uint256"
      },
      "t_mapping(t_bytes32,t_bool)": {
        "encoding": "mapping",
        "key": "t_bytes32",
        "label": "mapping(bytes32 => bool)",
        "numberOfBytes": "32",
        "value": "t_bool"
      },
      "t_mapping(t_bytes32,t_struct(RoleData)19_storage)": {
        "encoding": "mapping",
        "key": "t_bytes32",
        "label": "mapping(bytes32 => struct AccessControl.RoleData)",
        "numberOfBytes": "32",
        "value": "t_struct(RoleData)19_storage"
      },
      "t_struct(FeeAssessment)11100_storage": {
        "encoding": "inplace",
        "label": "struct FeeAssessment",
        "members": [
          {
            "astId": 11093,
            "contract": "contracts/FathomVault.sol:FathomVault",
            "label": "totalFees",
            "offset": 0,
            "slot": "0",
            "type": "t_uint256"
          },
          {
            "astId": 11095,
            "contract": "contracts/FathomVault.sol:FathomVault",
            "label": "totalRefunds",
            "offset": 0,
            "slot": "1",
            "type": "t_uint256"
          },
          {
            "astId": 11097,
            "contract": "contracts/FathomVault.sol:FathomVault",
            "label": "protocolFees",
            "offset": 0,
            "slot": "2",
            "type": "t_uint256"
          },
          {
            "astId": 11099,
            "contract": "contracts/FathomVault.sol:FathomVault",
            "label": "protocolFeeRecipient",
            "offset": 0,
            "slot": "3",
            "type": "t_address"
          }
        ],
        "numberOfBytes": "128"
      },
      "t_struct(RoleData)19_storage": {
        "encoding": "inplace",
        "label": "struct AccessControl.RoleData",
        "members": [
          {
            "astId": 16,
            "contract": "contracts/FathomVault.sol:FathomVault",
            "label": "members",
            "offset": 0,
            "slot": "0",
            "type": "t_mapping(t_address,t_bool)"
          },
          {
            "astId": 18,
            "contract": "contracts/FathomVault.sol:FathomVault",
            "label": "adminRole",
            "offset": 0,
            "slot": "1",
            "type": "t_bytes32"
          }
        ],
        "numberOfBytes": "64"
      },
      "t_struct(StrategyParams)11091_storage": {
        "encoding": "inplace",
        "label": "struct StrategyParams",
        "members": [
          {
            "astId": 11084,
            "contract": "contracts/FathomVault.sol:FathomVault",
            "label": "activation",
            "offset": 0,
            "slot": "0",
            "type": "t_uint256"
          },
          {
            "astId": 11086,
            "contract": "contracts/FathomVault.sol:FathomVault",
            "label": "lastReport",
            "offset": 0,
            "slot": "1",
            "type": "t_uint256"
          },
          {
            "astId": 11088,
            "contract": "contracts/FathomVault.sol:FathomVault",
            "label": "currentDebt",
            "offset": 0,
            "slot": "2",
            "type": "t_uint256"
          },
          {
            "astId": 11090,
            "contract": "contracts/FathomVault.sol:FathomVault",
            "label": "maxDebt",
            "offset": 0,
            "slot": "3",
            "type": "t_uint256"
          }
        ],
        "numberOfBytes": "128"
      },
      "t_uint256": {
        "encoding": "inplace",
        "label": "uint256",
        "numberOfBytes": "32"
      }
    }
  }
}