{
  "address": "0x1a3A2AeFF4E322d672aF2f3D1E20ca2F2F256921",
  "abi": [
    {
      "inputs": [
        {
          "internalType": "address",
          "name": "_sharesManager",
          "type": "address"
        }
      ],
      "stateMutability": "nonpayable",
      "type": "constructor"
    },
    {
      "inputs": [],
      "name": "InactiveStrategy",
      "type": "error"
    },
    {
      "inputs": [],
      "name": "ZeroValue",
      "type": "error"
    },
    {
      "anonymous": false,
      "inputs": [
        {
          "indexed": true,
          "internalType": "address",
          "name": "strategy",
          "type": "address"
        },
        {
          "indexed": false,
          "internalType": "uint256",
          "name": "amount",
          "type": "uint256"
        }
      ],
      "name": "DebtPurchased",
      "type": "event"
    },
    {
      "anonymous": false,
      "inputs": [
        {
          "indexed": true,
          "internalType": "address",
          "name": "strategy",
          "type": "address"
        },
        {
          "indexed": false,
          "internalType": "uint256",
          "name": "currentDebt",
          "type": "uint256"
        },
        {
          "indexed": false,
          "internalType": "uint256",
          "name": "newDebt",
          "type": "uint256"
        }
      ],
      "name": "DebtUpdated",
      "type": "event"
    },
    {
      "anonymous": false,
      "inputs": [
        {
          "indexed": true,
          "internalType": "bytes32",
          "name": "role",
          "type": "bytes32"
        },
        {
          "indexed": true,
          "internalType": "bytes32",
          "name": "previousAdminRole",
          "type": "bytes32"
        },
        {
          "indexed": true,
          "internalType": "bytes32",
          "name": "newAdminRole",
          "type": "bytes32"
        }
      ],
      "name": "RoleAdminChanged",
      "type": "event"
    },
    {
      "anonymous": false,
      "inputs": [
        {
          "indexed": true,
          "internalType": "bytes32",
          "name": "role",
          "type": "bytes32"
        },
        {
          "indexed": true,
          "internalType": "address",
          "name": "account",
          "type": "address"
        },
        {
          "indexed": true,
          "internalType": "address",
          "name": "sender",
          "type": "address"
        }
      ],
      "name": "RoleGranted",
      "type": "event"
    },
    {
      "anonymous": false,
      "inputs": [
        {
          "indexed": true,
          "internalType": "bytes32",
          "name": "role",
          "type": "bytes32"
        },
        {
          "indexed": true,
          "internalType": "address",
          "name": "account",
          "type": "address"
        },
        {
          "indexed": true,
          "internalType": "address",
          "name": "sender",
          "type": "address"
        }
      ],
      "name": "RoleRevoked",
      "type": "event"
    },
    {
      "anonymous": false,
      "inputs": [
        {
          "indexed": true,
          "internalType": "address",
          "name": "account",
          "type": "address"
        },
        {
          "indexed": false,
          "internalType": "bytes32",
          "name": "role",
          "type": "bytes32"
        }
      ],
      "name": "RoleSet",
      "type": "event"
    },
    {
      "anonymous": false,
      "inputs": [
        {
          "indexed": true,
          "internalType": "bytes32",
          "name": "role",
          "type": "bytes32"
        },
        {
          "indexed": true,
          "internalType": "enum RoleStatusChange",
          "name": "status",
          "type": "uint8"
        }
      ],
      "name": "RoleStatusChanged",
      "type": "event"
    },
    {
      "anonymous": false,
      "inputs": [],
      "name": "Shutdown",
      "type": "event"
    },
    {
      "anonymous": false,
      "inputs": [
        {
          "indexed": true,
          "internalType": "address",
          "name": "strategy",
          "type": "address"
        },
        {
          "indexed": false,
          "internalType": "enum StrategyChangeType",
          "name": "changeType",
          "type": "uint8"
        }
      ],
      "name": "StrategyChanged",
      "type": "event"
    },
    {
      "anonymous": false,
      "inputs": [
        {
          "indexed": true,
          "internalType": "address",
          "name": "strategy",
          "type": "address"
        },
        {
          "indexed": false,
          "internalType": "uint256",
          "name": "gain",
          "type": "uint256"
        },
        {
          "indexed": false,
          "internalType": "uint256",
          "name": "loss",
          "type": "uint256"
        },
        {
          "indexed": false,
          "internalType": "uint256",
          "name": "currentDebt",
          "type": "uint256"
        },
        {
          "indexed": false,
          "internalType": "uint256",
          "name": "protocolFees",
          "type": "uint256"
        },
        {
          "indexed": false,
          "internalType": "uint256",
          "name": "totalFees",
          "type": "uint256"
        },
        {
          "indexed": false,
          "internalType": "uint256",
          "name": "totalRefunds",
          "type": "uint256"
        }
      ],
      "name": "StrategyReported",
      "type": "event"
    },
    {
      "anonymous": false,
      "inputs": [
        {
          "indexed": true,
          "internalType": "address",
          "name": "accountant",
          "type": "address"
        }
      ],
      "name": "UpdateAccountant",
      "type": "event"
    },
    {
      "anonymous": false,
      "inputs": [
        {
          "indexed": false,
          "internalType": "address[]",
          "name": "newDefaultQueue",
          "type": "address[]"
        }
      ],
      "name": "UpdateDefaultQueue",
      "type": "event"
    },
    {
      "anonymous": false,
      "inputs": [
        {
          "indexed": false,
          "internalType": "uint256",
          "name": "depositLimit",
          "type": "uint256"
        }
      ],
      "name": "UpdateDepositLimit",
      "type": "event"
    },
    {
      "anonymous": false,
      "inputs": [
        {
          "indexed": true,
          "internalType": "address",
          "name": "depositLimitModule",
          "type": "address"
        }
      ],
      "name": "UpdateDepositLimitModule",
      "type": "event"
    },
    {
      "anonymous": false,
      "inputs": [
        {
          "indexed": false,
          "internalType": "uint256",
          "name": "minimumTotalIdle",
          "type": "uint256"
        }
      ],
      "name": "UpdateMinimumTotalIdle",
      "type": "event"
    },
    {
      "anonymous": false,
      "inputs": [
        {
          "indexed": false,
          "internalType": "uint256",
          "name": "profitMaxUnlockTime",
          "type": "uint256"
        }
      ],
      "name": "UpdateProfitMaxUnlockTime",
      "type": "event"
    },
    {
      "anonymous": false,
      "inputs": [
        {
          "indexed": true,
          "internalType": "address",
          "name": "roleManager",
          "type": "address"
        }
      ],
      "name": "UpdateRoleManager",
      "type": "event"
    },
    {
      "anonymous": false,
      "inputs": [
        {
          "indexed": false,
          "internalType": "bool",
          "name": "useDefaultQueue",
          "type": "bool"
        }
      ],
      "name": "UpdateUseDefaultQueue",
      "type": "event"
    },
    {
      "anonymous": false,
      "inputs": [
        {
          "indexed": true,
          "internalType": "address",
          "name": "withdrawLimitModule",
          "type": "address"
        }
      ],
      "name": "UpdateWithdrawLimitModule",
      "type": "event"
    },
    {
      "anonymous": false,
      "inputs": [
        {
          "indexed": true,
          "internalType": "address",
          "name": "sender",
          "type": "address"
        },
        {
          "indexed": true,
          "internalType": "address",
          "name": "strategy",
          "type": "address"
        },
        {
          "indexed": false,
          "internalType": "uint256",
          "name": "newDebt",
          "type": "uint256"
        }
      ],
      "name": "UpdatedMaxDebtForStrategy",
      "type": "event"
    },
    {
      "inputs": [],
      "name": "ACCOUNTANT_MANAGER",
      "outputs": [
        {
          "internalType": "bytes32",
          "name": "",
          "type": "bytes32"
        }
      ],
      "stateMutability": "view",
      "type": "function"
    },
    {
      "inputs": [],
      "name": "ADD_STRATEGY_MANAGER",
      "outputs": [
        {
          "internalType": "bytes32",
          "name": "",
          "type": "bytes32"
        }
      ],
      "stateMutability": "view",
      "type": "function"
    },
    {
      "inputs": [],
      "name": "API_VERSION",
      "outputs": [
        {
          "internalType": "string",
          "name": "",
          "type": "string"
        }
      ],
      "stateMutability": "view",
      "type": "function"
    },
    {
      "inputs": [],
      "name": "DEBT_MANAGER",
      "outputs": [
        {
          "internalType": "bytes32",
          "name": "",
          "type": "bytes32"
        }
      ],
      "stateMutability": "view",
      "type": "function"
    },
    {
      "inputs": [],
      "name": "DEBT_PURCHASER",
      "outputs": [
        {
          "internalType": "bytes32",
          "name": "",
          "type": "bytes32"
        }
      ],
      "stateMutability": "view",
      "type": "function"
    },
    {
      "inputs": [],
      "name": "DEFAULT_ADMIN_ROLE",
      "outputs": [
        {
          "internalType": "bytes32",
          "name": "",
          "type": "bytes32"
        }
      ],
      "stateMutability": "view",
      "type": "function"
    },
    {
      "inputs": [],
      "name": "DEPOSIT_LIMIT_MANAGER",
      "outputs": [
        {
          "internalType": "bytes32",
          "name": "",
          "type": "bytes32"
        }
      ],
      "stateMutability": "view",
      "type": "function"
    },
    {
      "inputs": [],
      "name": "DOMAIN_SEPARATOR",
      "outputs": [
        {
          "internalType": "bytes32",
          "name": "",
          "type": "bytes32"
        }
      ],
      "stateMutability": "view",
      "type": "function"
    },
    {
      "inputs": [],
      "name": "DOMAIN_TYPE_HASH",
      "outputs": [
        {
          "internalType": "bytes32",
          "name": "",
          "type": "bytes32"
        }
      ],
      "stateMutability": "view",
      "type": "function"
    },
    {
      "inputs": [],
      "name": "EMERGENCY_MANAGER",
      "outputs": [
        {
          "internalType": "bytes32",
          "name": "",
          "type": "bytes32"
        }
      ],
      "stateMutability": "view",
      "type": "function"
    },
    {
      "inputs": [],
      "name": "FORCE_REVOKE_MANAGER",
      "outputs": [
        {
          "internalType": "bytes32",
          "name": "",
          "type": "bytes32"
        }
      ],
      "stateMutability": "view",
      "type": "function"
    },
    {
      "inputs": [],
      "name": "MAX_BPS",
      "outputs": [
        {
          "internalType": "uint256",
          "name": "",
          "type": "uint256"
        }
      ],
      "stateMutability": "view",
      "type": "function"
    },
    {
      "inputs": [],
      "name": "MAX_BPS_EXTENDED",
      "outputs": [
        {
          "internalType": "uint256",
          "name": "",
          "type": "uint256"
        }
      ],
      "stateMutability": "view",
      "type": "function"
    },
    {
      "inputs": [],
      "name": "MAX_DEBT_MANAGER",
      "outputs": [
        {
          "internalType": "bytes32",
          "name": "",
          "type": "bytes32"
        }
      ],
      "stateMutability": "view",
      "type": "function"
    },
    {
      "inputs": [],
      "name": "MAX_QUEUE",
      "outputs": [
        {
          "internalType": "uint256",
          "name": "",
          "type": "uint256"
        }
      ],
      "stateMutability": "view",
      "type": "function"
    },
    {
      "inputs": [],
      "name": "MINIMUM_IDLE_MANAGER",
      "outputs": [
        {
          "internalType": "bytes32",
          "name": "",
          "type": "bytes32"
        }
      ],
      "stateMutability": "view",
      "type": "function"
    },
    {
      "inputs": [],
      "name": "ONE_YEAR",
      "outputs": [
        {
          "internalType": "uint256",
          "name": "",
          "type": "uint256"
        }
      ],
      "stateMutability": "view",
      "type": "function"
    },
    {
      "inputs": [],
      "name": "PERMIT_TYPE_HASH",
      "outputs": [
        {
          "internalType": "bytes32",
          "name": "",
          "type": "bytes32"
        }
      ],
      "stateMutability": "view",
      "type": "function"
    },
    {
      "inputs": [],
      "name": "PROFIT_UNLOCK_MANAGER",
      "outputs": [
        {
          "internalType": "bytes32",
          "name": "",
          "type": "bytes32"
        }
      ],
      "stateMutability": "view",
      "type": "function"
    },
    {
      "inputs": [],
      "name": "QUEUE_MANAGER",
      "outputs": [
        {
          "internalType": "bytes32",
          "name": "",
          "type": "bytes32"
        }
      ],
      "stateMutability": "view",
      "type": "function"
    },
    {
      "inputs": [],
      "name": "REPORTING_MANAGER",
      "outputs": [
        {
          "internalType": "bytes32",
          "name": "",
          "type": "bytes32"
        }
      ],
      "stateMutability": "view",
      "type": "function"
    },
    {
      "inputs": [],
      "name": "REVOKE_STRATEGY_MANAGER",
      "outputs": [
        {
          "internalType": "bytes32",
          "name": "",
          "type": "bytes32"
        }
      ],
      "stateMutability": "view",
      "type": "function"
    },
    {
      "inputs": [],
      "name": "ROLE_MANAGER",
      "outputs": [
        {
          "internalType": "bytes32",
          "name": "",
          "type": "bytes32"
        }
      ],
      "stateMutability": "view",
      "type": "function"
    },
    {
      "inputs": [],
      "name": "WITHDRAW_LIMIT_MANAGER",
      "outputs": [
        {
          "internalType": "bytes32",
          "name": "",
          "type": "bytes32"
        }
      ],
      "stateMutability": "view",
      "type": "function"
    },
    {
      "inputs": [],
      "name": "accountant",
      "outputs": [
        {
          "internalType": "address",
          "name": "",
          "type": "address"
        }
      ],
      "stateMutability": "view",
      "type": "function"
    },
    {
      "inputs": [
        {
          "internalType": "address",
          "name": "strategy",
          "type": "address"
        },
        {
          "internalType": "uint256",
          "name": "amount",
          "type": "uint256"
        }
      ],
      "name": "buyDebt",
      "outputs": [],
      "stateMutability": "nonpayable",
      "type": "function"
    },
    {
      "inputs": [
        {
          "internalType": "uint256",
          "name": "",
          "type": "uint256"
        }
      ],
      "name": "defaultQueue",
      "outputs": [
        {
          "internalType": "address",
          "name": "",
          "type": "address"
        }
      ],
      "stateMutability": "view",
      "type": "function"
    },
    {
      "inputs": [],
      "name": "depositLimit",
      "outputs": [
        {
          "internalType": "uint256",
          "name": "",
          "type": "uint256"
        }
      ],
      "stateMutability": "view",
      "type": "function"
    },
    {
      "inputs": [],
      "name": "depositLimitModule",
      "outputs": [
        {
          "internalType": "address",
          "name": "",
          "type": "address"
        }
      ],
      "stateMutability": "view",
      "type": "function"
    },
    {
      "inputs": [],
      "name": "fullProfitUnlockDate",
      "outputs": [
        {
          "internalType": "uint256",
          "name": "",
          "type": "uint256"
        }
      ],
      "stateMutability": "view",
      "type": "function"
    },
    {
      "inputs": [],
      "name": "futureRoleManager",
      "outputs": [
        {
          "internalType": "address",
          "name": "",
          "type": "address"
        }
      ],
      "stateMutability": "view",
      "type": "function"
    },
    {
      "inputs": [
        {
          "internalType": "bytes32",
          "name": "role",
          "type": "bytes32"
        }
      ],
      "name": "getRoleAdmin",
      "outputs": [
        {
          "internalType": "bytes32",
          "name": "",
          "type": "bytes32"
        }
      ],
      "stateMutability": "view",
      "type": "function"
    },
    {
      "inputs": [],
      "name": "governance",
      "outputs": [
        {
          "internalType": "address",
          "name": "",
          "type": "address"
        }
      ],
      "stateMutability": "view",
      "type": "function"
    },
    {
      "inputs": [
        {
          "internalType": "bytes32",
          "name": "role",
          "type": "bytes32"
        },
        {
          "internalType": "address",
          "name": "account",
          "type": "address"
        }
      ],
      "name": "grantRole",
      "outputs": [],
      "stateMutability": "nonpayable",
      "type": "function"
    },
    {
      "inputs": [
        {
          "internalType": "bytes32",
          "name": "role",
          "type": "bytes32"
        },
        {
          "internalType": "address",
          "name": "account",
          "type": "address"
        }
      ],
      "name": "hasRole",
      "outputs": [
        {
          "internalType": "bool",
          "name": "",
          "type": "bool"
        }
      ],
      "stateMutability": "view",
      "type": "function"
    },
    {
      "inputs": [],
      "name": "lastProfitUpdate",
      "outputs": [
        {
          "internalType": "uint256",
          "name": "",
          "type": "uint256"
        }
      ],
      "stateMutability": "view",
      "type": "function"
    },
    {
      "inputs": [],
      "name": "minimumTotalIdle",
      "outputs": [
        {
          "internalType": "uint256",
          "name": "",
          "type": "uint256"
        }
      ],
      "stateMutability": "view",
      "type": "function"
    },
    {
      "inputs": [
        {
          "internalType": "address",
          "name": "",
          "type": "address"
        }
      ],
      "name": "nonces",
      "outputs": [
        {
          "internalType": "uint256",
          "name": "",
          "type": "uint256"
        }
      ],
      "stateMutability": "view",
      "type": "function"
    },
    {
      "inputs": [
        {
          "internalType": "bytes32",
          "name": "",
          "type": "bytes32"
        }
      ],
      "name": "openRoles",
      "outputs": [
        {
          "internalType": "bool",
          "name": "",
          "type": "bool"
        }
      ],
      "stateMutability": "view",
      "type": "function"
    },
    {
      "inputs": [],
      "name": "profitMaxUnlockTime",
      "outputs": [
        {
          "internalType": "uint256",
          "name": "",
          "type": "uint256"
        }
      ],
      "stateMutability": "view",
      "type": "function"
    },
    {
      "inputs": [],
      "name": "profitUnlockingRate",
      "outputs": [
        {
          "internalType": "uint256",
          "name": "",
          "type": "uint256"
        }
      ],
      "stateMutability": "view",
      "type": "function"
    },
    {
      "inputs": [
        {
          "internalType": "bytes32",
          "name": "role",
          "type": "bytes32"
        },
        {
          "internalType": "address",
          "name": "account",
          "type": "address"
        }
      ],
      "name": "renounceRole",
      "outputs": [],
      "stateMutability": "nonpayable",
      "type": "function"
    },
    {
      "inputs": [
        {
          "internalType": "bytes32",
          "name": "role",
          "type": "bytes32"
        },
        {
          "internalType": "address",
          "name": "account",
          "type": "address"
        }
      ],
      "name": "revokeRole",
      "outputs": [],
      "stateMutability": "nonpayable",
      "type": "function"
    },
    {
      "inputs": [],
      "name": "roleManager",
      "outputs": [
        {
          "internalType": "address",
          "name": "",
          "type": "address"
        }
      ],
      "stateMutability": "view",
      "type": "function"
    },
    {
      "inputs": [
        {
          "internalType": "address",
          "name": "",
          "type": "address"
        }
      ],
      "name": "roles",
      "outputs": [
        {
          "internalType": "bytes32",
          "name": "",
          "type": "bytes32"
        }
      ],
      "stateMutability": "view",
      "type": "function"
    },
    {
      "inputs": [],
      "name": "setters",
      "outputs": [
        {
          "internalType": "address",
          "name": "",
          "type": "address"
        }
      ],
      "stateMutability": "view",
      "type": "function"
    },
    {
      "inputs": [],
      "name": "sharesManager",
      "outputs": [
        {
          "internalType": "address",
          "name": "",
          "type": "address"
        }
      ],
      "stateMutability": "view",
      "type": "function"
    },
    {
      "inputs": [],
      "name": "shutdown",
      "outputs": [
        {
          "internalType": "bool",
          "name": "",
          "type": "bool"
        }
      ],
      "stateMutability": "view",
      "type": "function"
    },
    {
      "inputs": [],
      "name": "shutdownVault",
      "outputs": [],
      "stateMutability": "nonpayable",
      "type": "function"
    },
    {
      "inputs": [
        {
          "internalType": "address",
          "name": "",
          "type": "address"
        }
      ],
      "name": "strategies",
      "outputs": [
        {
          "internalType": "uint256",
          "name": "activation",
          "type": "uint256"
        },
        {
          "internalType": "uint256",
          "name": "lastReport",
          "type": "uint256"
        },
        {
          "internalType": "uint256",
          "name": "currentDebt",
          "type": "uint256"
        },
        {
          "internalType": "uint256",
          "name": "maxDebt",
          "type": "uint256"
        }
      ],
      "stateMutability": "view",
      "type": "function"
    },
    {
      "inputs": [],
      "name": "strategyManager",
      "outputs": [
        {
          "internalType": "address",
          "name": "",
          "type": "address"
        }
      ],
      "stateMutability": "view",
      "type": "function"
    },
    {
      "inputs": [
        {
          "internalType": "bytes4",
          "name": "interfaceId",
          "type": "bytes4"
        }
      ],
      "name": "supportsInterface",
      "outputs": [
        {
          "internalType": "bool",
          "name": "",
          "type": "bool"
        }
      ],
      "stateMutability": "view",
      "type": "function"
    },
    {
      "inputs": [],
      "name": "totalDebtAmount",
      "outputs": [
        {
          "internalType": "uint256",
          "name": "",
          "type": "uint256"
        }
      ],
      "stateMutability": "view",
      "type": "function"
    },
    {
      "inputs": [],
      "name": "totalIdleAmount",
      "outputs": [
        {
          "internalType": "uint256",
          "name": "",
          "type": "uint256"
        }
      ],
      "stateMutability": "view",
      "type": "function"
    },
    {
      "inputs": [],
      "name": "totalSupplyAmount",
      "outputs": [
        {
          "internalType": "uint256",
          "name": "",
          "type": "uint256"
        }
      ],
      "stateMutability": "view",
      "type": "function"
    },
    {
      "inputs": [],
      "name": "useDefaultQueue",
      "outputs": [
        {
          "internalType": "bool",
          "name": "",
          "type": "bool"
        }
      ],
      "stateMutability": "view",
      "type": "function"
    },
    {
      "inputs": [],
      "name": "withdrawLimitModule",
      "outputs": [
        {
          "internalType": "address",
          "name": "",
          "type": "address"
        }
      ],
      "stateMutability": "view",
      "type": "function"
    }
  ],
  "transactionHash": "0x421d2861c5cc82209bc2c1ba185af27448ea3ee847fbaf0004e7842381e32266",
  "args": [
    "0xeC6f2deb13AF4CEdEB84BC1a425A302D25AC8dD2"
  ],
  "numDeployments": 1,
  "solcInputHash": "62165823e394b132d01996ab3c614224",
  "bytecode": "0x60a06040526301e185586080523480156200001957600080fd5b50604051620016e2380380620016e28339810160408190526200003c91620000a1565b6001601c55600280546001600160a01b0319166001600160a01b0392909216919091179055620000ce565b60006001600160a01b0382165b92915050565b620000858162000067565b81146200009157600080fd5b50565b805162000074816200007a565b600060208284031215620000b857620000b8600080fd5b6000620000c6848462000094565b949350505050565b6080516115f8620000ea600039600061035201526115f86000f3fe608060405234801561001057600080fd5b50600436106102925760003560e01c8062435da51461029757806301ffc9a7146102c057806303dcd12c146102e05780630835a3fc146103145780630952864e1461031d5780630ad283d01461032657806316d3bfbb1461034d578063248a9ca3146103745780632d632692146103875780632f2ff15d146103905780633644e515146103a557806336568abe146103ae57806336fba084146103c157806339b70e38146103cd57806339ebf823146103e05780633cd7b5ab146104255780633f7b5e401461042e578063405977e7146104365780634ce1d38a146104495780634cfe51dc146104705780634d4bb197146104975780634fb3ccc5146104be5780635141eebb146104d157806353a66132146104da5780635aa6e675146104fd5780635bf6b4fb14610510578063652da3241461053757806377e3b2671461055e5780637ecebe001461058f5780638afca8f0146105af57806391986003146105b857806391d14854146105cb57806399374642146105de5780639e34e348146105fe5780639f3988f314610611578063a217fddf14610638578063a98222c414610640578063ab5b4d4914610667578063acded97d1461067c578063b3c187f21461068f578063bbe4eb49146106a2578063bee7e3d9146106af578063c065ca07146106c2578063c0993eea146106e9578063c8d74b6014610710578063c8dffa9514610725578063d4ae064f1461072e578063d547741f14610755578063e5236cc914610768578063ecf7085814610770578063f1daeba814610779578063f5b944eb146107a0578063f828f50b146107c7578063fc0e74d1146107d0578063fd967f47146107e4578063fec61f06146107ed578063ff1e7f0814610802575b600080fd5b6014546102aa906001600160a01b031681565b6040516102b7919061108e565b60405180910390f35b6102d36102ce3660046110be565b610815565b6040516102b791906110ef565b6103077f633076a97f32ae349b28772e7b1483f67a926f150cbc501d02bdbd77389325ab81565b6040516102b79190611103565b610307600d5481565b61030760165481565b6103077fc723f4dd6268e1c374639e36d629c765285ee7003913389d582c300f186dde9781565b6103077f000000000000000000000000000000000000000000000000000000000000000081565b610307610382366004611122565b61084c565b61030760175481565b6103a361039e366004611157565b610861565b005b610307601b5481565b6103a36103bc366004611157565b610882565b61030764e8d4a5100081565b6001546102aa906001600160a01b031681565b6104156103ee366004611194565b60056020526000908152604090208054600182015460028301546003909301549192909184565b6040516102b794939291906111b5565b610307600c5481565b610307600a81565b6103a36104443660046111f3565b6108c1565b6103077f69d1171ac0a63777a6733cda21aec9ed3d48a4fd11f273c934a691dec5e5589c81565b6103077f862f91c9d89d6135b19873b921c90b702cb2e175c371b8430026b9577e69111981565b6103077f6e71edae12b1b97f4d1f60370fef10105fa2faae0126114a169c64845d6126c981565b600f546102aa906001600160a01b031681565b61030760185481565b6102d36104e8366004611122565b60136020526000908152604090205460ff1681565b6004546102aa906001600160a01b031681565b6103077fea672c1c09cd95c51af9509f646f3615ff0071aae8652bd821471ee9037fd72c81565b6103077fcd9f023a942ee35097ead74b2505bea9f2c5d47465db92dd195cf7f01a41cfe181565b610582604051806040016040528060058152602001640312e302e360dc1b81525081565b6040516102b7919061127c565b61030761059d366004611194565b601a6020526000908152604090205481565b61030760195481565b6011546102aa906001600160a01b031681565b6102d36105d9366004611157565b610bdb565b6103076105ec366004611194565b60126020526000908152604090205481565b6010546102aa906001600160a01b031681565b6103077f6f430d649a8640e48ff9bfbc353b3f99ed630163857821b3b4075e3871dafbf581565b610307600081565b6103077f2f0dbbe8c2c0170206c50ec0cafa1c0dbd03e73e67c2a960178df30a0a30ee2e81565b6103076000805160206115a383398151915281565b6002546102aa906001600160a01b031681565b6015546102aa906001600160a01b031681565b6007546102d39060ff1681565b6003546102aa906001600160a01b031681565b6103077f2a0e761830cc61f2707ea7bb138008bf9dda7f7d34c77736d0a116604e95ea1681565b6103077f8b73c3c69bb8fe3d512ecc4cf759cc79239f7b179b0ffacaa9a75d522b39400f81565b61030760008051602061156383398151915281565b610307600b5481565b6103077fa18eaea71a088b547b8c932b48861853b3434d9a3240b94466c607e28b69659581565b6103a3610763366004611157565b610c04565b6103a3610c20565b610307600e5481565b6103077f7cbb3cdf689b8ea3e9d265f66bc4e0a99069268217017d38d2a5a559abc6271981565b6103077ff206625bad3d9112d5609b8d356e6fbd514cd1f69980d4ce2b3e6e68e1789ace81565b610307600a5481565b6015546102d390600160a01b900460ff1681565b61030761271081565b61030760008051602061158383398151915281565b6102aa610810366004611122565b610d48565b60006001600160e01b03198216637965db0b60e01b148061084657506301ffc9a760e01b6001600160e01b03198316145b92915050565b60009081526020819052604090206001015490565b61086a8261084c565b61087381610d72565b61087d8383610d7f565b505050565b6001600160a01b03811633146108b35760405162461bcd60e51b81526004016108aa9061128d565b60405180910390fd5b6108bd8282610e03565b5050565b6000805160206115a38339815191526108d981610d72565b6108e1610e68565b6001600160a01b038316600090815260056020526040812054900361091957604051630631bc2160e51b815260040160405180910390fd5b6001600160a01b038316600090815260056020526040902060020154801580610940575082155b1561095e57604051637c946ed760e01b815260040160405180910390fd5b8083111561096a578092505b60008184866001600160a01b03166370a08231306040518263ffffffff1660e01b815260040161099a919061108e565b602060405180830381865afa1580156109b7573d6000803e3d6000fd5b505050506040513d601f19601f820116820180604052508101906109db91906112eb565b6109e59190611322565b6109ef9190611357565b905060008111610a1257604051637c946ed760e01b815260040160405180910390fd5b6002546040516322a155f160e11b81526001600160a01b0390911690634542abe290610a48908390339030908a9060040161136b565b600060405180830381600087803b158015610a6257600080fd5b505af1158015610a76573d6000803e3d6000fd5b505050506001600160a01b03851660009081526005602052604081206002018054869290610aa5908490611393565b9250508190555083600b6000828254610abe9190611393565b9250508190555083600c6000828254610ad791906113a6565b90915550506001600160a01b0385167f5e2b8821ad6e0e26207e0cb4d242d07eeb1cbb1cfd853e645bdcd27cc5484f9583610b128782611393565b604051610b209291906113b9565b60405180910390a26002546040516376372b3760e11b81526001600160a01b039091169063ec6e566e90610b5c908890339086906004016113d4565b600060405180830381600087803b158015610b7657600080fd5b505af1158015610b8a573d6000803e3d6000fd5b50505050846001600160a01b03167fe94e7f88819f66c19b097748cb754149f63b1a176ed425dee1f1ee933e6d09b085604051610bc79190611103565b60405180910390a2505061087d6001601c55565b6000918252602082815260408084206001600160a01b0393909316845291905290205460ff1690565b610c0d8261084c565b610c1681610d72565b61087d8383610e03565b600080516020611583833981519152610c3881610d72565b601554600160a01b900460ff161515600103610c6757604051630631bc2160e51b815260040160405180910390fd5b6015805460ff60a01b1916600160a01b1790556010546001600160a01b031615610cc757601080546001600160a01b03191690556040516000907f777d215db24fb9fee4ded85c66b422abd7162a1caa6ed3ec4c031f6cd29ada52908290a25b6000600e8190556040517fae565aab888bca5e19e25a13db7b0c9144305bf55cb0f3f4d724f730e5acdd6291610cfc91611414565b60405180910390a1610d1c60008051602061156383398151915233610d7f565b6040517f4426aa1fb73e391071491fcfe21a88b5c38a0a0333a1f6e77161470439704cf890600090a150565b60068181548110610d5857600080fd5b6000918252602090912001546001600160a01b0316905081565b610d7c8133610e91565b50565b610d898282610bdb565b6108bd576000828152602081815260408083206001600160a01b03851684529091529020805460ff19166001179055610dbf3390565b6001600160a01b0316816001600160a01b0316837f2f8788117e7eff1d82e926ec794901d17c78024a50270940304540a733656f0d60405160405180910390a45050565b610e0d8282610bdb565b156108bd576000828152602081815260408083206001600160a01b0385168085529252808320805460ff1916905551339285917ff6391f5c32d9c69d2a47ea670b442974b53935d1edc7fd64eb21e047a839171b9190a45050565b6002601c5403610e8a5760405162461bcd60e51b81526004016108aa90611459565b6002601c55565b610e9b8282610bdb565b6108bd57610ea881610eea565b610eb3836020610efc565b604051602001610ec492919061148b565b60408051601f198184030181529082905262461bcd60e51b82526108aa9160040161127c565b60606108466001600160a01b03831660145b60606000610f0b836002611322565b610f169060026113a6565b6001600160401b03811115610f2d57610f2d6114dd565b6040519080825280601f01601f191660200182016040528015610f57576020820181803683370190505b509050600360fc1b81600081518110610f7257610f726114f3565b60200101906001600160f81b031916908160001a905350600f60fb1b81600181518110610fa157610fa16114f3565b60200101906001600160f81b031916908160001a9053506000610fc5846002611322565b610fd09060016113a6565b90505b6001811115611048576f181899199a1a9b1b9c1cb0b131b232b360811b85600f1660108110611004576110046114f3565b1a60f81b82828151811061101a5761101a6114f3565b60200101906001600160f81b031916908160001a90535060049490941c9361104181611509565b9050610fd3565b5083156110675760405162461bcd60e51b81526004016108aa90611552565b9392505050565b60006001600160a01b038216610846565b6110888161106e565b82525050565b60208101610846828461107f565b6001600160e01b031981165b8114610d7c57600080fd5b80356108468161109c565b6000602082840312156110d3576110d3600080fd5b60006110df84846110b3565b949350505050565b801515611088565b6020810161084682846110e7565b80611088565b6020810161084682846110fd565b806110a8565b803561084681611111565b60006020828403121561113757611137600080fd5b60006110df8484611117565b6110a88161106e565b803561084681611143565b6000806040838503121561116d5761116d600080fd5b60006111798585611117565b925050602061118a8582860161114c565b9150509250929050565b6000602082840312156111a9576111a9600080fd5b60006110df848461114c565b608081016111c382876110fd565b6111d060208301866110fd565b6111dd60408301856110fd565b6111ea60608301846110fd565b95945050505050565b6000806040838503121561120957611209600080fd5b6000611215858561114c565b925050602061118a85828601611117565b60005b83811015611241578181015183820152602001611229565b50506000910152565b6000611254825190565b80845260208401935061126b818560208601611226565b601f01601f19169290920192915050565b60208082528101611067818461124a565b6020808252810161084681602f81527f416363657373436f6e74726f6c3a2063616e206f6e6c792072656e6f756e636560208201526e103937b632b9903337b91039b2b63360891b604082015260600190565b805161084681611111565b60006020828403121561130057611300600080fd5b60006110df84846112e0565b634e487b7160e01b600052601160045260246000fd5b600081600019048311821515161561133c5761133c61130c565b500290565b634e487b7160e01b600052601260045260246000fd5b60008261136657611366611341565b500490565b60808101611379828761107f565b611386602083018661107f565b6111dd604083018561107f565b818103818111156108465761084661130c565b808201808211156108465761084661130c565b604081016113c782856110fd565b61106760208301846110fd565b606081016113e2828661107f565b6113ef602083018561107f565b6110df60408301846110fd565b60006108466114088381565b90565b611088816113fc565b60208101610846828461140b565b601f81526000602082017f5265656e7472616e637947756172643a207265656e7472616e742063616c6c00815291505b5060200190565b6020808252810161084681611422565b6000611473825190565b611481818560208601611226565b9290920192915050565b76020b1b1b2b9b9a1b7b73a3937b61d1030b1b1b7bab73a1604d1b815260170160006114b78285611469565b7001034b99036b4b9b9b4b733903937b6329607d1b815260110191506110df8284611469565b634e487b7160e01b600052604160045260246000fd5b634e487b7160e01b600052603260045260246000fd5b6000816115185761151861130c565b506000190190565b60208082527f537472696e67733a20686578206c656e67746820696e73756666696369656e7491019081526000611452565b602080825281016108468161152056fe152ebba56b9738ee3d8baea1b76fa31dcdcd79b1929bfea7d58ee12cfdf1a653d45f7ccff42f059d4e47c3f027c444272257266f7e88b981e142f0aa38fbfd78900d80def0427daac599092fcb16b21808ec68dd9a2e1eae89d1e8db21357375a2646970667358221220bca8c7fd3d20bb71267597acf246e234beee659277eaf896d82155dc769c46fd64736f6c63430008100033",
  "devdoc": {
    "kind": "dev",
    "methods": {
      "getRoleAdmin(bytes32)": {
        "details": "Returns the admin role that controls `role`. See {grantRole} and {revokeRole}. To change a role's admin, use {_setRoleAdmin}."
      },
      "grantRole(bytes32,address)": {
        "details": "Grants `role` to `account`. If `account` had not been already granted `role`, emits a {RoleGranted} event. Requirements: - the caller must have ``role``'s admin role. May emit a {RoleGranted} event."
      },
      "hasRole(bytes32,address)": {
        "details": "Returns `true` if `account` has been granted `role`."
      },
      "renounceRole(bytes32,address)": {
        "details": "Revokes `role` from the calling account. Roles are often managed via {grantRole} and {revokeRole}: this function's purpose is to provide a mechanism for accounts to lose their privileges if they are compromised (such as when a trusted device is misplaced). If the calling account had been revoked `role`, emits a {RoleRevoked} event. Requirements: - the caller must be `account`. May emit a {RoleRevoked} event."
      },
      "revokeRole(bytes32,address)": {
        "details": "Revokes `role` from `account`. If `account` had been granted `role`, emits a {RoleRevoked} event. Requirements: - the caller must have ``role``'s admin role. May emit a {RoleRevoked} event."
      },
      "supportsInterface(bytes4)": {
        "details": "See {IERC165-supportsInterface}."
      }
    },
    "title": "GOVERNANCE MANAGEMENT",
    "version": 1
  },
  "userdoc": {
    "kind": "user",
    "methods": {},
    "version": 1
  },
  "storageLayout": {
    "storage": [
      {
        "astId": 24,
        "contract": "contracts/Governance.sol:Governance",
        "label": "_roles",
        "offset": 0,
        "slot": "0",
        "type": "t_mapping(t_bytes32,t_struct(RoleData)19_storage)"
      },
      {
        "astId": 9212,
        "contract": "contracts/Governance.sol:Governance",
        "label": "strategyManager",
        "offset": 0,
        "slot": "1",
        "type": "t_address"
      },
      {
        "astId": 9214,
        "contract": "contracts/Governance.sol:Governance",
        "label": "sharesManager",
        "offset": 0,
        "slot": "2",
        "type": "t_address"
      },
      {
        "astId": 9216,
        "contract": "contracts/Governance.sol:Governance",
        "label": "setters",
        "offset": 0,
        "slot": "3",
        "type": "t_address"
      },
      {
        "astId": 9218,
        "contract": "contracts/Governance.sol:Governance",
        "label": "governance",
        "offset": 0,
        "slot": "4",
        "type": "t_address"
      },
      {
        "astId": 9223,
        "contract": "contracts/Governance.sol:Governance",
        "label": "strategies",
        "offset": 0,
        "slot": "5",
        "type": "t_mapping(t_address,t_struct(StrategyParams)9381_storage)"
      },
      {
        "astId": 9226,
        "contract": "contracts/Governance.sol:Governance",
        "label": "defaultQueue",
        "offset": 0,
        "slot": "6",
        "type": "t_array(t_address)dyn_storage"
      },
      {
        "astId": 9228,
        "contract": "contracts/Governance.sol:Governance",
        "label": "useDefaultQueue",
        "offset": 0,
        "slot": "7",
        "type": "t_bool"
      },
      {
        "astId": 9230,
        "contract": "contracts/Governance.sol:Governance",
        "label": "initialized",
        "offset": 1,
        "slot": "7",
        "type": "t_bool"
      },
      {
        "astId": 9234,
        "contract": "contracts/Governance.sol:Governance",
        "label": "_balanceOf",
        "offset": 0,
        "slot": "8",
        "type": "t_mapping(t_address,t_uint256)"
      },
      {
        "astId": 9240,
        "contract": "contracts/Governance.sol:Governance",
        "label": "_allowance",
        "offset": 0,
        "slot": "9",
        "type": "t_mapping(t_address,t_mapping(t_address,t_uint256))"
      },
      {
        "astId": 9242,
        "contract": "contracts/Governance.sol:Governance",
        "label": "totalSupplyAmount",
        "offset": 0,
        "slot": "10",
        "type": "t_uint256"
      },
      {
        "astId": 9244,
        "contract": "contracts/Governance.sol:Governance",
        "label": "totalDebtAmount",
        "offset": 0,
        "slot": "11",
        "type": "t_uint256"
      },
      {
        "astId": 9246,
        "contract": "contracts/Governance.sol:Governance",
        "label": "totalIdleAmount",
        "offset": 0,
        "slot": "12",
        "type": "t_uint256"
      },
      {
        "astId": 9248,
        "contract": "contracts/Governance.sol:Governance",
        "label": "minimumTotalIdle",
        "offset": 0,
        "slot": "13",
        "type": "t_uint256"
      },
      {
        "astId": 9250,
        "contract": "contracts/Governance.sol:Governance",
        "label": "depositLimit",
        "offset": 0,
        "slot": "14",
        "type": "t_uint256"
      },
      {
        "astId": 9252,
        "contract": "contracts/Governance.sol:Governance",
        "label": "accountant",
        "offset": 0,
        "slot": "15",
        "type": "t_address"
      },
      {
        "astId": 9254,
        "contract": "contracts/Governance.sol:Governance",
        "label": "depositLimitModule",
        "offset": 0,
        "slot": "16",
        "type": "t_address"
      },
      {
        "astId": 9256,
        "contract": "contracts/Governance.sol:Governance",
        "label": "withdrawLimitModule",
        "offset": 0,
        "slot": "17",
        "type": "t_address"
      },
      {
        "astId": 9260,
        "contract": "contracts/Governance.sol:Governance",
        "label": "roles",
        "offset": 0,
        "slot": "18",
        "type": "t_mapping(t_address,t_bytes32)"
      },
      {
        "astId": 9264,
        "contract": "contracts/Governance.sol:Governance",
        "label": "openRoles",
        "offset": 0,
        "slot": "19",
        "type": "t_mapping(t_bytes32,t_bool)"
      },
      {
        "astId": 9266,
        "contract": "contracts/Governance.sol:Governance",
        "label": "roleManager",
        "offset": 0,
        "slot": "20",
        "type": "t_address"
      },
      {
        "astId": 9268,
        "contract": "contracts/Governance.sol:Governance",
        "label": "futureRoleManager",
        "offset": 0,
        "slot": "21",
        "type": "t_address"
      },
      {
        "astId": 9270,
        "contract": "contracts/Governance.sol:Governance",
        "label": "shutdown",
        "offset": 20,
        "slot": "21",
        "type": "t_bool"
      },
      {
        "astId": 9272,
        "contract": "contracts/Governance.sol:Governance",
        "label": "profitMaxUnlockTime",
        "offset": 0,
        "slot": "22",
        "type": "t_uint256"
      },
      {
        "astId": 9274,
        "contract": "contracts/Governance.sol:Governance",
        "label": "fullProfitUnlockDate",
        "offset": 0,
        "slot": "23",
        "type": "t_uint256"
      },
      {
        "astId": 9276,
        "contract": "contracts/Governance.sol:Governance",
        "label": "profitUnlockingRate",
        "offset": 0,
        "slot": "24",
        "type": "t_uint256"
      },
      {
        "astId": 9278,
        "contract": "contracts/Governance.sol:Governance",
        "label": "lastProfitUpdate",
        "offset": 0,
        "slot": "25",
        "type": "t_uint256"
      },
      {
        "astId": 9282,
        "contract": "contracts/Governance.sol:Governance",
        "label": "nonces",
        "offset": 0,
        "slot": "26",
        "type": "t_mapping(t_address,t_uint256)"
      },
      {
        "astId": 9289,
        "contract": "contracts/Governance.sol:Governance",
        "label": "DOMAIN_SEPARATOR",
        "offset": 0,
        "slot": "27",
        "type": "t_bytes32"
      },
      {
        "astId": 399,
        "contract": "contracts/Governance.sol:Governance",
        "label": "_status",
        "offset": 0,
        "slot": "28",
        "type": "t_uint256"
      }
    ],
    "types": {
      "t_address": {
        "encoding": "inplace",
        "label": "address",
        "numberOfBytes": "20"
      },
      "t_array(t_address)dyn_storage": {
        "base": "t_address",
        "encoding": "dynamic_array",
        "label": "address[]",
        "numberOfBytes": "32"
      },
      "t_bool": {
        "encoding": "inplace",
        "label": "bool",
        "numberOfBytes": "1"
      },
      "t_bytes32": {
        "encoding": "inplace",
        "label": "bytes32",
        "numberOfBytes": "32"
      },
      "t_mapping(t_address,t_bool)": {
        "encoding": "mapping",
        "key": "t_address",
        "label": "mapping(address => bool)",
        "numberOfBytes": "32",
        "value": "t_bool"
      },
      "t_mapping(t_address,t_bytes32)": {
        "encoding": "mapping",
        "key": "t_address",
        "label": "mapping(address => bytes32)",
        "numberOfBytes": "32",
        "value": "t_bytes32"
      },
      "t_mapping(t_address,t_mapping(t_address,t_uint256))": {
        "encoding": "mapping",
        "key": "t_address",
        "label": "mapping(address => mapping(address => uint256))",
        "numberOfBytes": "32",
        "value": "t_mapping(t_address,t_uint256)"
      },
      "t_mapping(t_address,t_struct(StrategyParams)9381_storage)": {
        "encoding": "mapping",
        "key": "t_address",
        "label": "mapping(address => struct StrategyParams)",
        "numberOfBytes": "32",
        "value": "t_struct(StrategyParams)9381_storage"
      },
      "t_mapping(t_address,t_uint256)": {
        "encoding": "mapping",
        "key": "t_address",
        "label": "mapping(address => uint256)",
        "numberOfBytes": "32",
        "value": "t_uint256"
      },
      "t_mapping(t_bytes32,t_bool)": {
        "encoding": "mapping",
        "key": "t_bytes32",
        "label": "mapping(bytes32 => bool)",
        "numberOfBytes": "32",
        "value": "t_bool"
      },
      "t_mapping(t_bytes32,t_struct(RoleData)19_storage)": {
        "encoding": "mapping",
        "key": "t_bytes32",
        "label": "mapping(bytes32 => struct AccessControl.RoleData)",
        "numberOfBytes": "32",
        "value": "t_struct(RoleData)19_storage"
      },
      "t_struct(RoleData)19_storage": {
        "encoding": "inplace",
        "label": "struct AccessControl.RoleData",
        "members": [
          {
            "astId": 16,
            "contract": "contracts/Governance.sol:Governance",
            "label": "members",
            "offset": 0,
            "slot": "0",
            "type": "t_mapping(t_address,t_bool)"
          },
          {
            "astId": 18,
            "contract": "contracts/Governance.sol:Governance",
            "label": "adminRole",
            "offset": 0,
            "slot": "1",
            "type": "t_bytes32"
          }
        ],
        "numberOfBytes": "64"
      },
      "t_struct(StrategyParams)9381_storage": {
        "encoding": "inplace",
        "label": "struct StrategyParams",
        "members": [
          {
            "astId": 9374,
            "contract": "contracts/Governance.sol:Governance",
            "label": "activation",
            "offset": 0,
            "slot": "0",
            "type": "t_uint256"
          },
          {
            "astId": 9376,
            "contract": "contracts/Governance.sol:Governance",
            "label": "lastReport",
            "offset": 0,
            "slot": "1",
            "type": "t_uint256"
          },
          {
            "astId": 9378,
            "contract": "contracts/Governance.sol:Governance",
            "label": "currentDebt",
            "offset": 0,
            "slot": "2",
            "type": "t_uint256"
          },
          {
            "astId": 9380,
            "contract": "contracts/Governance.sol:Governance",
            "label": "maxDebt",
            "offset": 0,
            "slot": "3",
            "type": "t_uint256"
          }
        ],
        "numberOfBytes": "128"
      },
      "t_uint256": {
        "encoding": "inplace",
        "label": "uint256",
        "numberOfBytes": "32"
      }
    }
  }
}