{
  "address": "0xAf857adfEb5a3fcaE980E2c00E51A289c71aF240",
  "abi": [
    {
      "inputs": [],
      "name": "AlreadyInitialized",
      "type": "error"
    },
    {
      "inputs": [],
      "name": "InactiveStrategy",
      "type": "error"
    },
    {
      "inputs": [],
      "name": "ZeroValue",
      "type": "error"
    },
    {
      "anonymous": false,
      "inputs": [
        {
          "indexed": true,
          "internalType": "address",
          "name": "strategy",
          "type": "address"
        },
        {
          "indexed": false,
          "internalType": "uint256",
          "name": "amount",
          "type": "uint256"
        }
      ],
      "name": "DebtPurchased",
      "type": "event"
    },
    {
      "anonymous": false,
      "inputs": [
        {
          "indexed": true,
          "internalType": "address",
          "name": "strategy",
          "type": "address"
        },
        {
          "indexed": false,
          "internalType": "uint256",
          "name": "currentDebt",
          "type": "uint256"
        },
        {
          "indexed": false,
          "internalType": "uint256",
          "name": "newDebt",
          "type": "uint256"
        }
      ],
      "name": "DebtUpdated",
      "type": "event"
    },
    {
      "anonymous": false,
      "inputs": [
        {
          "indexed": true,
          "internalType": "bytes32",
          "name": "role",
          "type": "bytes32"
        },
        {
          "indexed": true,
          "internalType": "bytes32",
          "name": "previousAdminRole",
          "type": "bytes32"
        },
        {
          "indexed": true,
          "internalType": "bytes32",
          "name": "newAdminRole",
          "type": "bytes32"
        }
      ],
      "name": "RoleAdminChanged",
      "type": "event"
    },
    {
      "anonymous": false,
      "inputs": [
        {
          "indexed": true,
          "internalType": "bytes32",
          "name": "role",
          "type": "bytes32"
        },
        {
          "indexed": true,
          "internalType": "address",
          "name": "account",
          "type": "address"
        },
        {
          "indexed": true,
          "internalType": "address",
          "name": "sender",
          "type": "address"
        }
      ],
      "name": "RoleGranted",
      "type": "event"
    },
    {
      "anonymous": false,
      "inputs": [
        {
          "indexed": true,
          "internalType": "bytes32",
          "name": "role",
          "type": "bytes32"
        },
        {
          "indexed": true,
          "internalType": "address",
          "name": "account",
          "type": "address"
        },
        {
          "indexed": true,
          "internalType": "address",
          "name": "sender",
          "type": "address"
        }
      ],
      "name": "RoleRevoked",
      "type": "event"
    },
    {
      "anonymous": false,
      "inputs": [
        {
          "indexed": true,
          "internalType": "address",
          "name": "account",
          "type": "address"
        },
        {
          "indexed": false,
          "internalType": "bytes32",
          "name": "role",
          "type": "bytes32"
        }
      ],
      "name": "RoleSet",
      "type": "event"
    },
    {
      "anonymous": false,
      "inputs": [
        {
          "indexed": true,
          "internalType": "bytes32",
          "name": "role",
          "type": "bytes32"
        },
        {
          "indexed": true,
          "internalType": "enum RoleStatusChange",
          "name": "status",
          "type": "uint8"
        }
      ],
      "name": "RoleStatusChanged",
      "type": "event"
    },
    {
      "anonymous": false,
      "inputs": [],
      "name": "Shutdown",
      "type": "event"
    },
    {
      "anonymous": false,
      "inputs": [
        {
          "indexed": true,
          "internalType": "address",
          "name": "strategy",
          "type": "address"
        },
        {
          "indexed": false,
          "internalType": "enum StrategyChangeType",
          "name": "changeType",
          "type": "uint8"
        }
      ],
      "name": "StrategyChanged",
      "type": "event"
    },
    {
      "anonymous": false,
      "inputs": [
        {
          "indexed": true,
          "internalType": "address",
          "name": "strategy",
          "type": "address"
        },
        {
          "indexed": false,
          "internalType": "uint256",
          "name": "gain",
          "type": "uint256"
        },
        {
          "indexed": false,
          "internalType": "uint256",
          "name": "loss",
          "type": "uint256"
        },
        {
          "indexed": false,
          "internalType": "uint256",
          "name": "currentDebt",
          "type": "uint256"
        },
        {
          "indexed": false,
          "internalType": "uint256",
          "name": "protocolFees",
          "type": "uint256"
        },
        {
          "indexed": false,
          "internalType": "uint256",
          "name": "totalFees",
          "type": "uint256"
        },
        {
          "indexed": false,
          "internalType": "uint256",
          "name": "totalRefunds",
          "type": "uint256"
        }
      ],
      "name": "StrategyReported",
      "type": "event"
    },
    {
      "anonymous": false,
      "inputs": [
        {
          "indexed": true,
          "internalType": "address",
          "name": "accountant",
          "type": "address"
        }
      ],
      "name": "UpdateAccountant",
      "type": "event"
    },
    {
      "anonymous": false,
      "inputs": [
        {
          "indexed": false,
          "internalType": "address[]",
          "name": "newDefaultQueue",
          "type": "address[]"
        }
      ],
      "name": "UpdateDefaultQueue",
      "type": "event"
    },
    {
      "anonymous": false,
      "inputs": [
        {
          "indexed": false,
          "internalType": "uint256",
          "name": "depositLimit",
          "type": "uint256"
        }
      ],
      "name": "UpdateDepositLimit",
      "type": "event"
    },
    {
      "anonymous": false,
      "inputs": [
        {
          "indexed": true,
          "internalType": "address",
          "name": "depositLimitModule",
          "type": "address"
        }
      ],
      "name": "UpdateDepositLimitModule",
      "type": "event"
    },
    {
      "anonymous": false,
      "inputs": [
        {
          "indexed": false,
          "internalType": "uint256",
          "name": "minimumTotalIdle",
          "type": "uint256"
        }
      ],
      "name": "UpdateMinimumTotalIdle",
      "type": "event"
    },
    {
      "anonymous": false,
      "inputs": [
        {
          "indexed": false,
          "internalType": "uint256",
          "name": "profitMaxUnlockTime",
          "type": "uint256"
        }
      ],
      "name": "UpdateProfitMaxUnlockTime",
      "type": "event"
    },
    {
      "anonymous": false,
      "inputs": [
        {
          "indexed": true,
          "internalType": "address",
          "name": "roleManager",
          "type": "address"
        }
      ],
      "name": "UpdateRoleManager",
      "type": "event"
    },
    {
      "anonymous": false,
      "inputs": [
        {
          "indexed": false,
          "internalType": "bool",
          "name": "useDefaultQueue",
          "type": "bool"
        }
      ],
      "name": "UpdateUseDefaultQueue",
      "type": "event"
    },
    {
      "anonymous": false,
      "inputs": [
        {
          "indexed": true,
          "internalType": "address",
          "name": "withdrawLimitModule",
          "type": "address"
        }
      ],
      "name": "UpdateWithdrawLimitModule",
      "type": "event"
    },
    {
      "anonymous": false,
      "inputs": [
        {
          "indexed": true,
          "internalType": "uint256",
          "name": "totalFees",
          "type": "uint256"
        },
        {
          "indexed": true,
          "internalType": "uint256",
          "name": "totalRefunds",
          "type": "uint256"
        },
        {
          "indexed": true,
          "internalType": "uint256",
          "name": "protocolFees",
          "type": "uint256"
        },
        {
          "indexed": false,
          "internalType": "address",
          "name": "protocolFeeRecipient",
          "type": "address"
        }
      ],
      "name": "UpdatedFees",
      "type": "event"
    },
    {
      "anonymous": false,
      "inputs": [
        {
          "indexed": true,
          "internalType": "address",
          "name": "sender",
          "type": "address"
        },
        {
          "indexed": true,
          "internalType": "address",
          "name": "strategy",
          "type": "address"
        },
        {
          "indexed": false,
          "internalType": "uint256",
          "name": "newDebt",
          "type": "uint256"
        }
      ],
      "name": "UpdatedMaxDebtForStrategy",
      "type": "event"
    },
    {
      "inputs": [],
      "name": "ACCOUNTANT_MANAGER",
      "outputs": [
        {
          "internalType": "bytes32",
          "name": "",
          "type": "bytes32"
        }
      ],
      "stateMutability": "view",
      "type": "function"
    },
    {
      "inputs": [],
      "name": "ADD_STRATEGY_MANAGER",
      "outputs": [
        {
          "internalType": "bytes32",
          "name": "",
          "type": "bytes32"
        }
      ],
      "stateMutability": "view",
      "type": "function"
    },
    {
      "inputs": [],
      "name": "API_VERSION",
      "outputs": [
        {
          "internalType": "string",
          "name": "",
          "type": "string"
        }
      ],
      "stateMutability": "view",
      "type": "function"
    },
    {
      "inputs": [],
      "name": "DEBT_MANAGER",
      "outputs": [
        {
          "internalType": "bytes32",
          "name": "",
          "type": "bytes32"
        }
      ],
      "stateMutability": "view",
      "type": "function"
    },
    {
      "inputs": [],
      "name": "DEBT_PURCHASER",
      "outputs": [
        {
          "internalType": "bytes32",
          "name": "",
          "type": "bytes32"
        }
      ],
      "stateMutability": "view",
      "type": "function"
    },
    {
      "inputs": [],
      "name": "DEFAULT_ADMIN_ROLE",
      "outputs": [
        {
          "internalType": "bytes32",
          "name": "",
          "type": "bytes32"
        }
      ],
      "stateMutability": "view",
      "type": "function"
    },
    {
      "inputs": [],
      "name": "DEPOSIT_LIMIT_MANAGER",
      "outputs": [
        {
          "internalType": "bytes32",
          "name": "",
          "type": "bytes32"
        }
      ],
      "stateMutability": "view",
      "type": "function"
    },
    {
      "inputs": [],
      "name": "DOMAIN_SEPARATOR",
      "outputs": [
        {
          "internalType": "bytes32",
          "name": "",
          "type": "bytes32"
        }
      ],
      "stateMutability": "view",
      "type": "function"
    },
    {
      "inputs": [],
      "name": "DOMAIN_TYPE_HASH",
      "outputs": [
        {
          "internalType": "bytes32",
          "name": "",
          "type": "bytes32"
        }
      ],
      "stateMutability": "view",
      "type": "function"
    },
    {
      "inputs": [],
      "name": "EMERGENCY_MANAGER",
      "outputs": [
        {
          "internalType": "bytes32",
          "name": "",
          "type": "bytes32"
        }
      ],
      "stateMutability": "view",
      "type": "function"
    },
    {
      "inputs": [],
      "name": "FORCE_REVOKE_MANAGER",
      "outputs": [
        {
          "internalType": "bytes32",
          "name": "",
          "type": "bytes32"
        }
      ],
      "stateMutability": "view",
      "type": "function"
    },
    {
      "inputs": [],
      "name": "MAX_BPS",
      "outputs": [
        {
          "internalType": "uint256",
          "name": "",
          "type": "uint256"
        }
      ],
      "stateMutability": "view",
      "type": "function"
    },
    {
      "inputs": [],
      "name": "MAX_BPS_EXTENDED",
      "outputs": [
        {
          "internalType": "uint256",
          "name": "",
          "type": "uint256"
        }
      ],
      "stateMutability": "view",
      "type": "function"
    },
    {
      "inputs": [],
      "name": "MAX_DEBT_MANAGER",
      "outputs": [
        {
          "internalType": "bytes32",
          "name": "",
          "type": "bytes32"
        }
      ],
      "stateMutability": "view",
      "type": "function"
    },
    {
      "inputs": [],
      "name": "MAX_QUEUE",
      "outputs": [
        {
          "internalType": "uint256",
          "name": "",
          "type": "uint256"
        }
      ],
      "stateMutability": "view",
      "type": "function"
    },
    {
      "inputs": [],
      "name": "MINIMUM_IDLE_MANAGER",
      "outputs": [
        {
          "internalType": "bytes32",
          "name": "",
          "type": "bytes32"
        }
      ],
      "stateMutability": "view",
      "type": "function"
    },
    {
      "inputs": [],
      "name": "ONE_YEAR",
      "outputs": [
        {
          "internalType": "uint256",
          "name": "",
          "type": "uint256"
        }
      ],
      "stateMutability": "view",
      "type": "function"
    },
    {
      "inputs": [],
      "name": "PERMIT_TYPE_HASH",
      "outputs": [
        {
          "internalType": "bytes32",
          "name": "",
          "type": "bytes32"
        }
      ],
      "stateMutability": "view",
      "type": "function"
    },
    {
      "inputs": [],
      "name": "PROFIT_UNLOCK_MANAGER",
      "outputs": [
        {
          "internalType": "bytes32",
          "name": "",
          "type": "bytes32"
        }
      ],
      "stateMutability": "view",
      "type": "function"
    },
    {
      "inputs": [],
      "name": "QUEUE_MANAGER",
      "outputs": [
        {
          "internalType": "bytes32",
          "name": "",
          "type": "bytes32"
        }
      ],
      "stateMutability": "view",
      "type": "function"
    },
    {
      "inputs": [],
      "name": "REPORTING_MANAGER",
      "outputs": [
        {
          "internalType": "bytes32",
          "name": "",
          "type": "bytes32"
        }
      ],
      "stateMutability": "view",
      "type": "function"
    },
    {
      "inputs": [],
      "name": "REVOKE_STRATEGY_MANAGER",
      "outputs": [
        {
          "internalType": "bytes32",
          "name": "",
          "type": "bytes32"
        }
      ],
      "stateMutability": "view",
      "type": "function"
    },
    {
      "inputs": [],
      "name": "ROLE_MANAGER",
      "outputs": [
        {
          "internalType": "bytes32",
          "name": "",
          "type": "bytes32"
        }
      ],
      "stateMutability": "view",
      "type": "function"
    },
    {
      "inputs": [],
      "name": "WITHDRAW_LIMIT_MANAGER",
      "outputs": [
        {
          "internalType": "bytes32",
          "name": "",
          "type": "bytes32"
        }
      ],
      "stateMutability": "view",
      "type": "function"
    },
    {
      "inputs": [],
      "name": "accountant",
      "outputs": [
        {
          "internalType": "address",
          "name": "",
          "type": "address"
        }
      ],
      "stateMutability": "view",
      "type": "function"
    },
    {
      "inputs": [
        {
          "internalType": "address",
          "name": "strategy",
          "type": "address"
        },
        {
          "internalType": "uint256",
          "name": "amount",
          "type": "uint256"
        }
      ],
      "name": "buyDebt",
      "outputs": [],
      "stateMutability": "nonpayable",
      "type": "function"
    },
    {
      "inputs": [
        {
          "internalType": "uint256",
          "name": "",
          "type": "uint256"
        }
      ],
      "name": "defaultQueue",
      "outputs": [
        {
          "internalType": "address",
          "name": "",
          "type": "address"
        }
      ],
      "stateMutability": "view",
      "type": "function"
    },
    {
      "inputs": [],
      "name": "depositLimit",
      "outputs": [
        {
          "internalType": "uint256",
          "name": "",
          "type": "uint256"
        }
      ],
      "stateMutability": "view",
      "type": "function"
    },
    {
      "inputs": [],
      "name": "depositLimitModule",
      "outputs": [
        {
          "internalType": "address",
          "name": "",
          "type": "address"
        }
      ],
      "stateMutability": "view",
      "type": "function"
    },
    {
      "inputs": [],
      "name": "fees",
      "outputs": [
        {
          "internalType": "uint256",
          "name": "totalFees",
          "type": "uint256"
        },
        {
          "internalType": "uint256",
          "name": "totalRefunds",
          "type": "uint256"
        },
        {
          "internalType": "uint256",
          "name": "protocolFees",
          "type": "uint256"
        },
        {
          "internalType": "address",
          "name": "protocolFeeRecipient",
          "type": "address"
        }
      ],
      "stateMutability": "view",
      "type": "function"
    },
    {
      "inputs": [],
      "name": "fullProfitUnlockDate",
      "outputs": [
        {
          "internalType": "uint256",
          "name": "",
          "type": "uint256"
        }
      ],
      "stateMutability": "view",
      "type": "function"
    },
    {
      "inputs": [],
      "name": "futureRoleManager",
      "outputs": [
        {
          "internalType": "address",
          "name": "",
          "type": "address"
        }
      ],
      "stateMutability": "view",
      "type": "function"
    },
    {
      "inputs": [
        {
          "internalType": "bytes32",
          "name": "role",
          "type": "bytes32"
        }
      ],
      "name": "getRoleAdmin",
      "outputs": [
        {
          "internalType": "bytes32",
          "name": "",
          "type": "bytes32"
        }
      ],
      "stateMutability": "view",
      "type": "function"
    },
    {
      "inputs": [],
      "name": "governance",
      "outputs": [
        {
          "internalType": "address",
          "name": "",
          "type": "address"
        }
      ],
      "stateMutability": "view",
      "type": "function"
    },
    {
      "inputs": [
        {
          "internalType": "bytes32",
          "name": "role",
          "type": "bytes32"
        },
        {
          "internalType": "address",
          "name": "account",
          "type": "address"
        }
      ],
      "name": "grantRole",
      "outputs": [],
      "stateMutability": "nonpayable",
      "type": "function"
    },
    {
      "inputs": [
        {
          "internalType": "bytes32",
          "name": "role",
          "type": "bytes32"
        },
        {
          "internalType": "address",
          "name": "account",
          "type": "address"
        }
      ],
      "name": "hasRole",
      "outputs": [
        {
          "internalType": "bool",
          "name": "",
          "type": "bool"
        }
      ],
      "stateMutability": "view",
      "type": "function"
    },
    {
      "inputs": [
        {
          "internalType": "address",
          "name": "_sharesManager",
          "type": "address"
        }
      ],
      "name": "initialize",
      "outputs": [],
      "stateMutability": "nonpayable",
      "type": "function"
    },
    {
      "inputs": [],
      "name": "lastProfitUpdate",
      "outputs": [
        {
          "internalType": "uint256",
          "name": "",
          "type": "uint256"
        }
      ],
      "stateMutability": "view",
      "type": "function"
    },
    {
      "inputs": [],
      "name": "minimumTotalIdle",
      "outputs": [
        {
          "internalType": "uint256",
          "name": "",
          "type": "uint256"
        }
      ],
      "stateMutability": "view",
      "type": "function"
    },
    {
      "inputs": [
        {
          "internalType": "address",
          "name": "",
          "type": "address"
        }
      ],
      "name": "nonces",
      "outputs": [
        {
          "internalType": "uint256",
          "name": "",
          "type": "uint256"
        }
      ],
      "stateMutability": "view",
      "type": "function"
    },
    {
      "inputs": [
        {
          "internalType": "bytes32",
          "name": "",
          "type": "bytes32"
        }
      ],
      "name": "openRoles",
      "outputs": [
        {
          "internalType": "bool",
          "name": "",
          "type": "bool"
        }
      ],
      "stateMutability": "view",
      "type": "function"
    },
    {
      "inputs": [],
      "name": "profitMaxUnlockTime",
      "outputs": [
        {
          "internalType": "uint256",
          "name": "",
          "type": "uint256"
        }
      ],
      "stateMutability": "view",
      "type": "function"
    },
    {
      "inputs": [],
      "name": "profitUnlockingRate",
      "outputs": [
        {
          "internalType": "uint256",
          "name": "",
          "type": "uint256"
        }
      ],
      "stateMutability": "view",
      "type": "function"
    },
    {
      "inputs": [
        {
          "internalType": "bytes32",
          "name": "role",
          "type": "bytes32"
        },
        {
          "internalType": "address",
          "name": "account",
          "type": "address"
        }
      ],
      "name": "renounceRole",
      "outputs": [],
      "stateMutability": "nonpayable",
      "type": "function"
    },
    {
      "inputs": [
        {
          "internalType": "bytes32",
          "name": "role",
          "type": "bytes32"
        },
        {
          "internalType": "address",
          "name": "account",
          "type": "address"
        }
      ],
      "name": "revokeRole",
      "outputs": [],
      "stateMutability": "nonpayable",
      "type": "function"
    },
    {
      "inputs": [],
      "name": "roleManager",
      "outputs": [
        {
          "internalType": "address",
          "name": "",
          "type": "address"
        }
      ],
      "stateMutability": "view",
      "type": "function"
    },
    {
      "inputs": [
        {
          "internalType": "address",
          "name": "",
          "type": "address"
        }
      ],
      "name": "roles",
      "outputs": [
        {
          "internalType": "bytes32",
          "name": "",
          "type": "bytes32"
        }
      ],
      "stateMutability": "view",
      "type": "function"
    },
    {
      "inputs": [],
      "name": "setters",
      "outputs": [
        {
          "internalType": "address payable",
          "name": "",
          "type": "address"
        }
      ],
      "stateMutability": "view",
      "type": "function"
    },
    {
      "inputs": [],
      "name": "sharesManager",
      "outputs": [
        {
          "internalType": "address",
          "name": "",
          "type": "address"
        }
      ],
      "stateMutability": "view",
      "type": "function"
    },
    {
      "inputs": [],
      "name": "shutdown",
      "outputs": [
        {
          "internalType": "bool",
          "name": "",
          "type": "bool"
        }
      ],
      "stateMutability": "view",
      "type": "function"
    },
    {
      "inputs": [],
      "name": "shutdownVault",
      "outputs": [],
      "stateMutability": "nonpayable",
      "type": "function"
    },
    {
      "inputs": [
        {
          "internalType": "address",
          "name": "",
          "type": "address"
        }
      ],
      "name": "strategies",
      "outputs": [
        {
          "internalType": "uint256",
          "name": "activation",
          "type": "uint256"
        },
        {
          "internalType": "uint256",
          "name": "lastReport",
          "type": "uint256"
        },
        {
          "internalType": "uint256",
          "name": "currentDebt",
          "type": "uint256"
        },
        {
          "internalType": "uint256",
          "name": "maxDebt",
          "type": "uint256"
        }
      ],
      "stateMutability": "view",
      "type": "function"
    },
    {
      "inputs": [],
      "name": "strategyManager",
      "outputs": [
        {
          "internalType": "address payable",
          "name": "",
          "type": "address"
        }
      ],
      "stateMutability": "view",
      "type": "function"
    },
    {
      "inputs": [
        {
          "internalType": "bytes4",
          "name": "interfaceId",
          "type": "bytes4"
        }
      ],
      "name": "supportsInterface",
      "outputs": [
        {
          "internalType": "bool",
          "name": "",
          "type": "bool"
        }
      ],
      "stateMutability": "view",
      "type": "function"
    },
    {
      "inputs": [],
      "name": "totalDebtAmount",
      "outputs": [
        {
          "internalType": "uint256",
          "name": "",
          "type": "uint256"
        }
      ],
      "stateMutability": "view",
      "type": "function"
    },
    {
      "inputs": [],
      "name": "totalIdleAmount",
      "outputs": [
        {
          "internalType": "uint256",
          "name": "",
          "type": "uint256"
        }
      ],
      "stateMutability": "view",
      "type": "function"
    },
    {
      "inputs": [],
      "name": "totalSupplyAmount",
      "outputs": [
        {
          "internalType": "uint256",
          "name": "",
          "type": "uint256"
        }
      ],
      "stateMutability": "view",
      "type": "function"
    },
    {
      "inputs": [],
      "name": "useDefaultQueue",
      "outputs": [
        {
          "internalType": "bool",
          "name": "",
          "type": "bool"
        }
      ],
      "stateMutability": "view",
      "type": "function"
    },
    {
      "inputs": [],
      "name": "withdrawLimitModule",
      "outputs": [
        {
          "internalType": "address",
          "name": "",
          "type": "address"
        }
      ],
      "stateMutability": "view",
      "type": "function"
    }
  ],
  "transactionHash": "0x3e5bbb7b516435b07fe15f92b0df397c9e7abafd247ea3f02c7b51ade88de584",
  "args": [],
  "numDeployments": 1,
  "solcInputHash": "4f5fad6b3b661da677d0c59da67436e7",
  "bytecode": "0x60a06040526301e1855860805234801561001857600080fd5b5060016020556080516116f5610039600039600061036801526116f56000f3fe608060405234801561001057600080fd5b50600436106102a85760003560e01c8062435da5146102ad57806301ffc9a7146102d657806303dcd12c146102f65780630835a3fc1461032a5780630952864e146103335780630ad283d01461033c57806316d3bfbb14610363578063248a9ca31461038a5780632d6326921461039d5780632f2ff15d146103a65780633644e515146103bb57806336568abe146103c457806336fba084146103d757806339b70e38146103e357806339ebf823146103f65780633cd7b5ab1461043b5780633f7b5e4014610444578063405977e71461044c5780634ce1d38a1461045f5780634cfe51dc146104865780634d4bb197146104ad5780634fb3ccc5146104d45780635141eebb146104e757806353a66132146104f05780635aa6e675146105135780635bf6b4fb14610526578063652da3241461054d57806377e3b267146105745780637ecebe00146105a55780638afca8f0146105c557806391986003146105ce57806391d14854146105e157806399374642146105f45780639af1d35a146106145780639e34e348146106435780639f3988f314610656578063a217fddf1461067d578063a98222c414610685578063ab5b4d49146106ac578063acded97d146106c1578063b3c187f2146106d4578063bbe4eb49146106e7578063bee7e3d9146106f4578063c065ca0714610707578063c0993eea1461072e578063c4d66de814610755578063c8d74b6014610768578063c8dffa951461077d578063d4ae064f14610786578063d547741f146107ad578063e5236cc9146107c0578063ecf70858146107c8578063f1daeba8146107d1578063f5b944eb146107f8578063f828f50b1461081f578063fc0e74d114610828578063fd967f471461083c578063fec61f0614610845578063ff1e7f081461085a575b600080fd5b6018546102c0906001600160a01b031681565b6040516102cd9190611156565b60405180910390f35b6102e96102e4366004611186565b61086d565b6040516102cd91906111b7565b61031d7f633076a97f32ae349b28772e7b1483f67a926f150cbc501d02bdbd77389325ab81565b6040516102cd91906111cb565b61031d60115481565b61031d601a5481565b61031d7fc723f4dd6268e1c374639e36d629c765285ee7003913389d582c300f186dde9781565b61031d7f000000000000000000000000000000000000000000000000000000000000000081565b61031d6103983660046111ea565b6108a4565b61031d601b5481565b6103b96103b436600461121f565b6108b9565b005b61031d601f5481565b6103b96103d236600461121f565b6108da565b61031d64e8d4a5100081565b6001546102c0906001600160a01b031681565b61042b61040436600461125c565b60056020526000908152604090208054600182015460028301546003909301549192909184565b6040516102cd949392919061127d565b61031d60105481565b61031d600a81565b6103b961045a3660046112bb565b610919565b61031d7f69d1171ac0a63777a6733cda21aec9ed3d48a4fd11f273c934a691dec5e5589c81565b61031d7f862f91c9d89d6135b19873b921c90b702cb2e175c371b8430026b9577e69111981565b61031d7f6e71edae12b1b97f4d1f60370fef10105fa2faae0126114a169c64845d6126c981565b6013546102c0906001600160a01b031681565b61031d601c5481565b6102e96104fe3660046111ea565b60176020526000908152604090205460ff1681565b6004546102c0906001600160a01b031681565b61031d7fea672c1c09cd95c51af9509f646f3615ff0071aae8652bd821471ee9037fd72c81565b61031d7fcd9f023a942ee35097ead74b2505bea9f2c5d47465db92dd195cf7f01a41cfe181565b610598604051806040016040528060058152602001640312e302e360dc1b81525081565b6040516102cd9190611344565b61031d6105b336600461125c565b601e6020526000908152604090205481565b61031d601d5481565b6015546102c0906001600160a01b031681565b6102e96105ef36600461121f565b610c33565b61031d61060236600461125c565b60166020526000908152604090205481565b600654600754600854600954610633939291906001600160a01b031684565b6040516102cd9493929190611355565b6014546102c0906001600160a01b031681565b61031d7f6f430d649a8640e48ff9bfbc353b3f99ed630163857821b3b4075e3871dafbf581565b61031d600081565b61031d7f2f0dbbe8c2c0170206c50ec0cafa1c0dbd03e73e67c2a960178df30a0a30ee2e81565b61031d6000805160206116a083398151915281565b6002546102c0906001600160a01b031681565b6019546102c0906001600160a01b031681565b600b546102e99060ff1681565b6003546102c0906001600160a01b031681565b61031d7f2a0e761830cc61f2707ea7bb138008bf9dda7f7d34c77736d0a116604e95ea1681565b61031d7f8b73c3c69bb8fe3d512ecc4cf759cc79239f7b179b0ffacaa9a75d522b39400f81565b6103b961076336600461125c565b610c5c565b61031d60008051602061166083398151915281565b61031d600f5481565b61031d7fa18eaea71a088b547b8c932b48861853b3434d9a3240b94466c607e28b69659581565b6103b96107bb36600461121f565b610ccc565b6103b9610ce8565b61031d60125481565b61031d7f7cbb3cdf689b8ea3e9d265f66bc4e0a99069268217017d38d2a5a559abc6271981565b61031d7ff206625bad3d9112d5609b8d356e6fbd514cd1f69980d4ce2b3e6e68e1789ace81565b61031d600e5481565b6019546102e990600160a01b900460ff1681565b61031d61271081565b61031d60008051602061168083398151915281565b6102c06108683660046111ea565b610e10565b60006001600160e01b03198216637965db0b60e01b148061089e57506301ffc9a760e01b6001600160e01b03198316145b92915050565b60009081526020819052604090206001015490565b6108c2826108a4565b6108cb81610e3a565b6108d58383610e47565b505050565b6001600160a01b038116331461090b5760405162461bcd60e51b81526004016109029061138a565b60405180910390fd5b6109158282610ecb565b5050565b6000805160206116a083398151915261093181610e3a565b610939610f30565b6001600160a01b038316600090815260056020526040812054900361097157604051630631bc2160e51b815260040160405180910390fd5b6001600160a01b038316600090815260056020526040902060020154801580610998575082155b156109b657604051637c946ed760e01b815260040160405180910390fd5b808311156109c2578092505b60008184866001600160a01b03166370a08231306040518263ffffffff1660e01b81526004016109f29190611156565b602060405180830381865afa158015610a0f573d6000803e3d6000fd5b505050506040513d601f19601f82011682018060405250810190610a3391906113e8565b610a3d919061141f565b610a479190611454565b905060008111610a6a57604051637c946ed760e01b815260040160405180910390fd5b6002546040516322a155f160e11b81526001600160a01b0390911690634542abe290610aa0908390339030908a90600401611468565b600060405180830381600087803b158015610aba57600080fd5b505af1158015610ace573d6000803e3d6000fd5b505050506001600160a01b03851660009081526005602052604081206002018054869290610afd908490611490565b9250508190555083600f6000828254610b169190611490565b925050819055508360106000828254610b2f91906114a3565b90915550506001600160a01b0385167f5e2b8821ad6e0e26207e0cb4d242d07eeb1cbb1cfd853e645bdcd27cc5484f9583610b6a8782611490565b604051610b789291906114b6565b60405180910390a26002546040516376372b3760e11b81526001600160a01b039091169063ec6e566e90610bb4908890339086906004016114d1565b600060405180830381600087803b158015610bce57600080fd5b505af1158015610be2573d6000803e3d6000fd5b50505050846001600160a01b03167fe94e7f88819f66c19b097748cb754149f63b1a176ed425dee1f1ee933e6d09b085604051610c1f91906111cb565b60405180910390a250506108d56001602055565b6000918252602082815260408084206001600160a01b0393909316845291905290205460ff1690565b6000610c6781610e3a565b600b54610100900460ff161515600103610c935760405162dc149f60e41b815260040160405180910390fd5b600280546001600160a01b0319166001600160a01b038416179055610cb9600083610e47565b5050600b805461ff001916610100179055565b610cd5826108a4565b610cde81610e3a565b6108d58383610ecb565b600080516020611680833981519152610d0081610e3a565b601954600160a01b900460ff161515600103610d2f57604051630631bc2160e51b815260040160405180910390fd5b6019805460ff60a01b1916600160a01b1790556014546001600160a01b031615610d8f57601480546001600160a01b03191690556040516000907f777d215db24fb9fee4ded85c66b422abd7162a1caa6ed3ec4c031f6cd29ada52908290a25b600060128190556040517fae565aab888bca5e19e25a13db7b0c9144305bf55cb0f3f4d724f730e5acdd6291610dc491611511565b60405180910390a1610de460008051602061166083398151915233610e47565b6040517f4426aa1fb73e391071491fcfe21a88b5c38a0a0333a1f6e77161470439704cf890600090a150565b600a8181548110610e2057600080fd5b6000918252602090912001546001600160a01b0316905081565b610e448133610f59565b50565b610e518282610c33565b610915576000828152602081815260408083206001600160a01b03851684529091529020805460ff19166001179055610e873390565b6001600160a01b0316816001600160a01b0316837f2f8788117e7eff1d82e926ec794901d17c78024a50270940304540a733656f0d60405160405180910390a45050565b610ed58282610c33565b15610915576000828152602081815260408083206001600160a01b0385168085529252808320805460ff1916905551339285917ff6391f5c32d9c69d2a47ea670b442974b53935d1edc7fd64eb21e047a839171b9190a45050565b600260205403610f525760405162461bcd60e51b815260040161090290611556565b6002602055565b610f638282610c33565b61091557610f7081610fb2565b610f7b836020610fc4565b604051602001610f8c929190611588565b60408051601f198184030181529082905262461bcd60e51b825261090291600401611344565b606061089e6001600160a01b03831660145b60606000610fd383600261141f565b610fde9060026114a3565b6001600160401b03811115610ff557610ff56115da565b6040519080825280601f01601f19166020018201604052801561101f576020820181803683370190505b509050600360fc1b8160008151811061103a5761103a6115f0565b60200101906001600160f81b031916908160001a905350600f60fb1b81600181518110611069576110696115f0565b60200101906001600160f81b031916908160001a905350600061108d84600261141f565b6110989060016114a3565b90505b6001811115611110576f181899199a1a9b1b9c1cb0b131b232b360811b85600f16601081106110cc576110cc6115f0565b1a60f81b8282815181106110e2576110e26115f0565b60200101906001600160f81b031916908160001a90535060049490941c9361110981611606565b905061109b565b50831561112f5760405162461bcd60e51b81526004016109029061164f565b9392505050565b60006001600160a01b03821661089e565b61115081611136565b82525050565b6020810161089e8284611147565b6001600160e01b031981165b8114610e4457600080fd5b803561089e81611164565b60006020828403121561119b5761119b600080fd5b60006111a7848461117b565b949350505050565b801515611150565b6020810161089e82846111af565b80611150565b6020810161089e82846111c5565b80611170565b803561089e816111d9565b6000602082840312156111ff576111ff600080fd5b60006111a784846111df565b61117081611136565b803561089e8161120b565b6000806040838503121561123557611235600080fd5b600061124185856111df565b925050602061125285828601611214565b9150509250929050565b60006020828403121561127157611271600080fd5b60006111a78484611214565b6080810161128b82876111c5565b61129860208301866111c5565b6112a560408301856111c5565b6112b260608301846111c5565b95945050505050565b600080604083850312156112d1576112d1600080fd5b60006112dd8585611214565b9250506020611252858286016111df565b60005b838110156113095781810151838201526020016112f1565b50506000910152565b600061131c825190565b8084526020840193506113338185602086016112ee565b601f01601f19169290920192915050565b6020808252810161112f8184611312565b6080810161136382876111c5565b61137060208301866111c5565b61137d60408301856111c5565b6112b26060830184611147565b6020808252810161089e81602f81527f416363657373436f6e74726f6c3a2063616e206f6e6c792072656e6f756e636560208201526e103937b632b9903337b91039b2b63360891b604082015260600190565b805161089e816111d9565b6000602082840312156113fd576113fd600080fd5b60006111a784846113dd565b634e487b7160e01b600052601160045260246000fd5b600081600019048311821515161561143957611439611409565b500290565b634e487b7160e01b600052601260045260246000fd5b6000826114635761146361143e565b500490565b608081016114768287611147565b6114836020830186611147565b6112a56040830185611147565b8181038181111561089e5761089e611409565b8082018082111561089e5761089e611409565b604081016114c482856111c5565b61112f60208301846111c5565b606081016114df8286611147565b6114ec6020830185611147565b6111a760408301846111c5565b600061089e6115058381565b90565b611150816114f9565b6020810161089e8284611508565b601f81526000602082017f5265656e7472616e637947756172643a207265656e7472616e742063616c6c00815291505b5060200190565b6020808252810161089e8161151f565b6000611570825190565b61157e8185602086016112ee565b9290920192915050565b76020b1b1b2b9b9a1b7b73a3937b61d1030b1b1b7bab73a1604d1b815260170160006115b48285611566565b7001034b99036b4b9b9b4b733903937b6329607d1b815260110191506111a78284611566565b634e487b7160e01b600052604160045260246000fd5b634e487b7160e01b600052603260045260246000fd5b60008161161557611615611409565b506000190190565b60208082527f537472696e67733a20686578206c656e67746820696e73756666696369656e749101908152600061154f565b6020808252810161089e8161161d56fe152ebba56b9738ee3d8baea1b76fa31dcdcd79b1929bfea7d58ee12cfdf1a653d45f7ccff42f059d4e47c3f027c444272257266f7e88b981e142f0aa38fbfd78900d80def0427daac599092fcb16b21808ec68dd9a2e1eae89d1e8db21357375a264697066735822122050232f5aa9f8892975552c2c9c4d69e91ddb1cc4913161ea620e27247edd52e164736f6c63430008100033",
  "devdoc": {
    "kind": "dev",
    "methods": {
      "getRoleAdmin(bytes32)": {
        "details": "Returns the admin role that controls `role`. See {grantRole} and {revokeRole}. To change a role's admin, use {_setRoleAdmin}."
      },
      "grantRole(bytes32,address)": {
        "details": "Grants `role` to `account`. If `account` had not been already granted `role`, emits a {RoleGranted} event. Requirements: - the caller must have ``role``'s admin role. May emit a {RoleGranted} event."
      },
      "hasRole(bytes32,address)": {
        "details": "Returns `true` if `account` has been granted `role`."
      },
      "renounceRole(bytes32,address)": {
        "details": "Revokes `role` from the calling account. Roles are often managed via {grantRole} and {revokeRole}: this function's purpose is to provide a mechanism for accounts to lose their privileges if they are compromised (such as when a trusted device is misplaced). If the calling account had been revoked `role`, emits a {RoleRevoked} event. Requirements: - the caller must be `account`. May emit a {RoleRevoked} event."
      },
      "revokeRole(bytes32,address)": {
        "details": "Revokes `role` from `account`. If `account` had been granted `role`, emits a {RoleRevoked} event. Requirements: - the caller must have ``role``'s admin role. May emit a {RoleRevoked} event."
      },
      "supportsInterface(bytes4)": {
        "details": "See {IERC165-supportsInterface}."
      }
    },
    "title": "GOVERNANCE MANAGEMENT",
    "version": 1
  },
  "userdoc": {
    "kind": "user",
    "methods": {},
    "version": 1
  },
  "storageLayout": {
    "storage": [
      {
        "astId": 24,
        "contract": "contracts/Packages/GovernancePackage.sol:GovernancePackage",
        "label": "_roles",
        "offset": 0,
        "slot": "0",
        "type": "t_mapping(t_bytes32,t_struct(RoleData)19_storage)"
      },
      {
        "astId": 11300,
        "contract": "contracts/Packages/GovernancePackage.sol:GovernancePackage",
        "label": "strategyManager",
        "offset": 0,
        "slot": "1",
        "type": "t_address_payable"
      },
      {
        "astId": 11302,
        "contract": "contracts/Packages/GovernancePackage.sol:GovernancePackage",
        "label": "sharesManager",
        "offset": 0,
        "slot": "2",
        "type": "t_address"
      },
      {
        "astId": 11304,
        "contract": "contracts/Packages/GovernancePackage.sol:GovernancePackage",
        "label": "setters",
        "offset": 0,
        "slot": "3",
        "type": "t_address_payable"
      },
      {
        "astId": 11306,
        "contract": "contracts/Packages/GovernancePackage.sol:GovernancePackage",
        "label": "governance",
        "offset": 0,
        "slot": "4",
        "type": "t_address"
      },
      {
        "astId": 11311,
        "contract": "contracts/Packages/GovernancePackage.sol:GovernancePackage",
        "label": "strategies",
        "offset": 0,
        "slot": "5",
        "type": "t_mapping(t_address,t_struct(StrategyParams)11472_storage)"
      },
      {
        "astId": 11314,
        "contract": "contracts/Packages/GovernancePackage.sol:GovernancePackage",
        "label": "fees",
        "offset": 0,
        "slot": "6",
        "type": "t_struct(FeeAssessment)11481_storage"
      },
      {
        "astId": 11317,
        "contract": "contracts/Packages/GovernancePackage.sol:GovernancePackage",
        "label": "defaultQueue",
        "offset": 0,
        "slot": "10",
        "type": "t_array(t_address)dyn_storage"
      },
      {
        "astId": 11319,
        "contract": "contracts/Packages/GovernancePackage.sol:GovernancePackage",
        "label": "useDefaultQueue",
        "offset": 0,
        "slot": "11",
        "type": "t_bool"
      },
      {
        "astId": 11321,
        "contract": "contracts/Packages/GovernancePackage.sol:GovernancePackage",
        "label": "initialized",
        "offset": 1,
        "slot": "11",
        "type": "t_bool"
      },
      {
        "astId": 11325,
        "contract": "contracts/Packages/GovernancePackage.sol:GovernancePackage",
        "label": "_balanceOf",
        "offset": 0,
        "slot": "12",
        "type": "t_mapping(t_address,t_uint256)"
      },
      {
        "astId": 11331,
        "contract": "contracts/Packages/GovernancePackage.sol:GovernancePackage",
        "label": "_allowance",
        "offset": 0,
        "slot": "13",
        "type": "t_mapping(t_address,t_mapping(t_address,t_uint256))"
      },
      {
        "astId": 11333,
        "contract": "contracts/Packages/GovernancePackage.sol:GovernancePackage",
        "label": "totalSupplyAmount",
        "offset": 0,
        "slot": "14",
        "type": "t_uint256"
      },
      {
        "astId": 11335,
        "contract": "contracts/Packages/GovernancePackage.sol:GovernancePackage",
        "label": "totalDebtAmount",
        "offset": 0,
        "slot": "15",
        "type": "t_uint256"
      },
      {
        "astId": 11337,
        "contract": "contracts/Packages/GovernancePackage.sol:GovernancePackage",
        "label": "totalIdleAmount",
        "offset": 0,
        "slot": "16",
        "type": "t_uint256"
      },
      {
        "astId": 11339,
        "contract": "contracts/Packages/GovernancePackage.sol:GovernancePackage",
        "label": "minimumTotalIdle",
        "offset": 0,
        "slot": "17",
        "type": "t_uint256"
      },
      {
        "astId": 11341,
        "contract": "contracts/Packages/GovernancePackage.sol:GovernancePackage",
        "label": "depositLimit",
        "offset": 0,
        "slot": "18",
        "type": "t_uint256"
      },
      {
        "astId": 11343,
        "contract": "contracts/Packages/GovernancePackage.sol:GovernancePackage",
        "label": "accountant",
        "offset": 0,
        "slot": "19",
        "type": "t_address"
      },
      {
        "astId": 11345,
        "contract": "contracts/Packages/GovernancePackage.sol:GovernancePackage",
        "label": "depositLimitModule",
        "offset": 0,
        "slot": "20",
        "type": "t_address"
      },
      {
        "astId": 11347,
        "contract": "contracts/Packages/GovernancePackage.sol:GovernancePackage",
        "label": "withdrawLimitModule",
        "offset": 0,
        "slot": "21",
        "type": "t_address"
      },
      {
        "astId": 11351,
        "contract": "contracts/Packages/GovernancePackage.sol:GovernancePackage",
        "label": "roles",
        "offset": 0,
        "slot": "22",
        "type": "t_mapping(t_address,t_bytes32)"
      },
      {
        "astId": 11355,
        "contract": "contracts/Packages/GovernancePackage.sol:GovernancePackage",
        "label": "openRoles",
        "offset": 0,
        "slot": "23",
        "type": "t_mapping(t_bytes32,t_bool)"
      },
      {
        "astId": 11357,
        "contract": "contracts/Packages/GovernancePackage.sol:GovernancePackage",
        "label": "roleManager",
        "offset": 0,
        "slot": "24",
        "type": "t_address"
      },
      {
        "astId": 11359,
        "contract": "contracts/Packages/GovernancePackage.sol:GovernancePackage",
        "label": "futureRoleManager",
        "offset": 0,
        "slot": "25",
        "type": "t_address"
      },
      {
        "astId": 11361,
        "contract": "contracts/Packages/GovernancePackage.sol:GovernancePackage",
        "label": "shutdown",
        "offset": 20,
        "slot": "25",
        "type": "t_bool"
      },
      {
        "astId": 11363,
        "contract": "contracts/Packages/GovernancePackage.sol:GovernancePackage",
        "label": "profitMaxUnlockTime",
        "offset": 0,
        "slot": "26",
        "type": "t_uint256"
      },
      {
        "astId": 11365,
        "contract": "contracts/Packages/GovernancePackage.sol:GovernancePackage",
        "label": "fullProfitUnlockDate",
        "offset": 0,
        "slot": "27",
        "type": "t_uint256"
      },
      {
        "astId": 11367,
        "contract": "contracts/Packages/GovernancePackage.sol:GovernancePackage",
        "label": "profitUnlockingRate",
        "offset": 0,
        "slot": "28",
        "type": "t_uint256"
      },
      {
        "astId": 11369,
        "contract": "contracts/Packages/GovernancePackage.sol:GovernancePackage",
        "label": "lastProfitUpdate",
        "offset": 0,
        "slot": "29",
        "type": "t_uint256"
      },
      {
        "astId": 11373,
        "contract": "contracts/Packages/GovernancePackage.sol:GovernancePackage",
        "label": "nonces",
        "offset": 0,
        "slot": "30",
        "type": "t_mapping(t_address,t_uint256)"
      },
      {
        "astId": 11380,
        "contract": "contracts/Packages/GovernancePackage.sol:GovernancePackage",
        "label": "DOMAIN_SEPARATOR",
        "offset": 0,
        "slot": "31",
        "type": "t_bytes32"
      },
      {
        "astId": 796,
        "contract": "contracts/Packages/GovernancePackage.sol:GovernancePackage",
        "label": "_status",
        "offset": 0,
        "slot": "32",
        "type": "t_uint256"
      }
    ],
    "types": {
      "t_address": {
        "encoding": "inplace",
        "label": "address",
        "numberOfBytes": "20"
      },
      "t_address_payable": {
        "encoding": "inplace",
        "label": "address payable",
        "numberOfBytes": "20"
      },
      "t_array(t_address)dyn_storage": {
        "base": "t_address",
        "encoding": "dynamic_array",
        "label": "address[]",
        "numberOfBytes": "32"
      },
      "t_bool": {
        "encoding": "inplace",
        "label": "bool",
        "numberOfBytes": "1"
      },
      "t_bytes32": {
        "encoding": "inplace",
        "label": "bytes32",
        "numberOfBytes": "32"
      },
      "t_mapping(t_address,t_bool)": {
        "encoding": "mapping",
        "key": "t_address",
        "label": "mapping(address => bool)",
        "numberOfBytes": "32",
        "value": "t_bool"
      },
      "t_mapping(t_address,t_bytes32)": {
        "encoding": "mapping",
        "key": "t_address",
        "label": "mapping(address => bytes32)",
        "numberOfBytes": "32",
        "value": "t_bytes32"
      },
      "t_mapping(t_address,t_mapping(t_address,t_uint256))": {
        "encoding": "mapping",
        "key": "t_address",
        "label": "mapping(address => mapping(address => uint256))",
        "numberOfBytes": "32",
        "value": "t_mapping(t_address,t_uint256)"
      },
      "t_mapping(t_address,t_struct(StrategyParams)11472_storage)": {
        "encoding": "mapping",
        "key": "t_address",
        "label": "mapping(address => struct StrategyParams)",
        "numberOfBytes": "32",
        "value": "t_struct(StrategyParams)11472_storage"
      },
      "t_mapping(t_address,t_uint256)": {
        "encoding": "mapping",
        "key": "t_address",
        "label": "mapping(address => uint256)",
        "numberOfBytes": "32",
        "value": "t_uint256"
      },
      "t_mapping(t_bytes32,t_bool)": {
        "encoding": "mapping",
        "key": "t_bytes32",
        "label": "mapping(bytes32 => bool)",
        "numberOfBytes": "32",
        "value": "t_bool"
      },
      "t_mapping(t_bytes32,t_struct(RoleData)19_storage)": {
        "encoding": "mapping",
        "key": "t_bytes32",
        "label": "mapping(bytes32 => struct AccessControl.RoleData)",
        "numberOfBytes": "32",
        "value": "t_struct(RoleData)19_storage"
      },
      "t_struct(FeeAssessment)11481_storage": {
        "encoding": "inplace",
        "label": "struct FeeAssessment",
        "members": [
          {
            "astId": 11474,
            "contract": "contracts/Packages/GovernancePackage.sol:GovernancePackage",
            "label": "totalFees",
            "offset": 0,
            "slot": "0",
            "type": "t_uint256"
          },
          {
            "astId": 11476,
            "contract": "contracts/Packages/GovernancePackage.sol:GovernancePackage",
            "label": "totalRefunds",
            "offset": 0,
            "slot": "1",
            "type": "t_uint256"
          },
          {
            "astId": 11478,
            "contract": "contracts/Packages/GovernancePackage.sol:GovernancePackage",
            "label": "protocolFees",
            "offset": 0,
            "slot": "2",
            "type": "t_uint256"
          },
          {
            "astId": 11480,
            "contract": "contracts/Packages/GovernancePackage.sol:GovernancePackage",
            "label": "protocolFeeRecipient",
            "offset": 0,
            "slot": "3",
            "type": "t_address"
          }
        ],
        "numberOfBytes": "128"
      },
      "t_struct(RoleData)19_storage": {
        "encoding": "inplace",
        "label": "struct AccessControl.RoleData",
        "members": [
          {
            "astId": 16,
            "contract": "contracts/Packages/GovernancePackage.sol:GovernancePackage",
            "label": "members",
            "offset": 0,
            "slot": "0",
            "type": "t_mapping(t_address,t_bool)"
          },
          {
            "astId": 18,
            "contract": "contracts/Packages/GovernancePackage.sol:GovernancePackage",
            "label": "adminRole",
            "offset": 0,
            "slot": "1",
            "type": "t_bytes32"
          }
        ],
        "numberOfBytes": "64"
      },
      "t_struct(StrategyParams)11472_storage": {
        "encoding": "inplace",
        "label": "struct StrategyParams",
        "members": [
          {
            "astId": 11465,
            "contract": "contracts/Packages/GovernancePackage.sol:GovernancePackage",
            "label": "activation",
            "offset": 0,
            "slot": "0",
            "type": "t_uint256"
          },
          {
            "astId": 11467,
            "contract": "contracts/Packages/GovernancePackage.sol:GovernancePackage",
            "label": "lastReport",
            "offset": 0,
            "slot": "1",
            "type": "t_uint256"
          },
          {
            "astId": 11469,
            "contract": "contracts/Packages/GovernancePackage.sol:GovernancePackage",
            "label": "currentDebt",
            "offset": 0,
            "slot": "2",
            "type": "t_uint256"
          },
          {
            "astId": 11471,
            "contract": "contracts/Packages/GovernancePackage.sol:GovernancePackage",
            "label": "maxDebt",
            "offset": 0,
            "slot": "3",
            "type": "t_uint256"
          }
        ],
        "numberOfBytes": "128"
      },
      "t_uint256": {
        "encoding": "inplace",
        "label": "uint256",
        "numberOfBytes": "32"
      }
    }
  }
}