{
  "address": "0x1E451E5043c445827eA2443050f3a6852c2c64E2",
  "abi": [
    {
      "inputs": [
        {
          "internalType": "address",
          "name": "_asset",
          "type": "address"
        },
        {
          "internalType": "string",
          "name": "_name",
          "type": "string"
        },
        {
          "internalType": "address",
          "name": "_management",
          "type": "address"
        },
        {
          "internalType": "address",
          "name": "_keeper",
          "type": "address"
        },
        {
          "internalType": "uint32",
          "name": "_profitMaxUnlockTime",
          "type": "uint32"
        }
      ],
      "stateMutability": "nonpayable",
      "type": "constructor"
    },
    {
      "anonymous": false,
      "inputs": [
        {
          "indexed": true,
          "internalType": "address",
          "name": "owner",
          "type": "address"
        },
        {
          "indexed": true,
          "internalType": "address",
          "name": "spender",
          "type": "address"
        },
        {
          "indexed": false,
          "internalType": "uint256",
          "name": "value",
          "type": "uint256"
        }
      ],
      "name": "Approval",
      "type": "event"
    },
    {
      "anonymous": false,
      "inputs": [
        {
          "indexed": true,
          "internalType": "address",
          "name": "caller",
          "type": "address"
        },
        {
          "indexed": true,
          "internalType": "address",
          "name": "owner",
          "type": "address"
        },
        {
          "indexed": false,
          "internalType": "uint256",
          "name": "assets",
          "type": "uint256"
        },
        {
          "indexed": false,
          "internalType": "uint256",
          "name": "shares",
          "type": "uint256"
        }
      ],
      "name": "Deposit",
      "type": "event"
    },
    {
      "anonymous": false,
      "inputs": [
        {
          "indexed": true,
          "internalType": "address",
          "name": "strategy",
          "type": "address"
        },
        {
          "indexed": true,
          "internalType": "address",
          "name": "asset",
          "type": "address"
        },
        {
          "indexed": false,
          "internalType": "string",
          "name": "apiVersion",
          "type": "string"
        }
      ],
      "name": "NewTokenizedStrategy",
      "type": "event"
    },
    {
      "anonymous": false,
      "inputs": [
        {
          "indexed": false,
          "internalType": "uint256",
          "name": "profit",
          "type": "uint256"
        },
        {
          "indexed": false,
          "internalType": "uint256",
          "name": "loss",
          "type": "uint256"
        },
        {
          "indexed": false,
          "internalType": "uint256",
          "name": "protocolFees",
          "type": "uint256"
        },
        {
          "indexed": false,
          "internalType": "uint256",
          "name": "performanceFees",
          "type": "uint256"
        }
      ],
      "name": "Reported",
      "type": "event"
    },
    {
      "anonymous": false,
      "inputs": [],
      "name": "StrategyShutdown",
      "type": "event"
    },
    {
      "anonymous": false,
      "inputs": [
        {
          "indexed": true,
          "internalType": "address",
          "name": "from",
          "type": "address"
        },
        {
          "indexed": true,
          "internalType": "address",
          "name": "to",
          "type": "address"
        },
        {
          "indexed": false,
          "internalType": "uint256",
          "name": "value",
          "type": "uint256"
        }
      ],
      "name": "Transfer",
      "type": "event"
    },
    {
      "anonymous": false,
      "inputs": [
        {
          "indexed": true,
          "internalType": "address",
          "name": "newEmergencyAdmin",
          "type": "address"
        }
      ],
      "name": "UpdateEmergencyAdmin",
      "type": "event"
    },
    {
      "anonymous": false,
      "inputs": [
        {
          "indexed": true,
          "internalType": "address",
          "name": "newKeeper",
          "type": "address"
        }
      ],
      "name": "UpdateKeeper",
      "type": "event"
    },
    {
      "anonymous": false,
      "inputs": [
        {
          "indexed": true,
          "internalType": "address",
          "name": "newManagement",
          "type": "address"
        }
      ],
      "name": "UpdateManagement",
      "type": "event"
    },
    {
      "anonymous": false,
      "inputs": [
        {
          "indexed": true,
          "internalType": "address",
          "name": "newPendingManagement",
          "type": "address"
        }
      ],
      "name": "UpdatePendingManagement",
      "type": "event"
    },
    {
      "anonymous": false,
      "inputs": [
        {
          "indexed": false,
          "internalType": "uint16",
          "name": "newPerformanceFee",
          "type": "uint16"
        }
      ],
      "name": "UpdatePerformanceFee",
      "type": "event"
    },
    {
      "anonymous": false,
      "inputs": [
        {
          "indexed": true,
          "internalType": "address",
          "name": "newPerformanceFeeRecipient",
          "type": "address"
        }
      ],
      "name": "UpdatePerformanceFeeRecipient",
      "type": "event"
    },
    {
      "anonymous": false,
      "inputs": [
        {
          "indexed": false,
          "internalType": "uint256",
          "name": "newProfitMaxUnlockTime",
          "type": "uint256"
        }
      ],
      "name": "UpdatedProfitMaxUnlockTime",
      "type": "event"
    },
    {
      "anonymous": false,
      "inputs": [
        {
          "indexed": true,
          "internalType": "address",
          "name": "caller",
          "type": "address"
        },
        {
          "indexed": true,
          "internalType": "address",
          "name": "receiver",
          "type": "address"
        },
        {
          "indexed": true,
          "internalType": "address",
          "name": "owner",
          "type": "address"
        },
        {
          "indexed": false,
          "internalType": "uint256",
          "name": "assets",
          "type": "uint256"
        },
        {
          "indexed": false,
          "internalType": "uint256",
          "name": "shares",
          "type": "uint256"
        }
      ],
      "name": "Withdraw",
      "type": "event"
    },
    {
      "inputs": [],
      "name": "BASE_STRATEGY_STORAGE",
      "outputs": [
        {
          "internalType": "bytes32",
          "name": "",
          "type": "bytes32"
        }
      ],
      "stateMutability": "view",
      "type": "function"
    },
    {
      "inputs": [],
      "name": "DOMAIN_SEPARATOR",
      "outputs": [
        {
          "internalType": "bytes32",
          "name": "",
          "type": "bytes32"
        }
      ],
      "stateMutability": "view",
      "type": "function"
    },
    {
      "inputs": [],
      "name": "FACTORY",
      "outputs": [
        {
          "internalType": "address",
          "name": "",
          "type": "address"
        }
      ],
      "stateMutability": "view",
      "type": "function"
    },
    {
      "inputs": [],
      "name": "MAX_FEE",
      "outputs": [
        {
          "internalType": "uint16",
          "name": "",
          "type": "uint16"
        }
      ],
      "stateMutability": "view",
      "type": "function"
    },
    {
      "inputs": [],
      "name": "MIN_FEE",
      "outputs": [
        {
          "internalType": "uint16",
          "name": "",
          "type": "uint16"
        }
      ],
      "stateMutability": "view",
      "type": "function"
    },
    {
      "inputs": [],
      "name": "acceptManagement",
      "outputs": [],
      "stateMutability": "nonpayable",
      "type": "function"
    },
    {
      "inputs": [
        {
          "internalType": "address",
          "name": "owner",
          "type": "address"
        },
        {
          "internalType": "address",
          "name": "spender",
          "type": "address"
        }
      ],
      "name": "allowance",
      "outputs": [
        {
          "internalType": "uint256",
          "name": "",
          "type": "uint256"
        }
      ],
      "stateMutability": "view",
      "type": "function"
    },
    {
      "inputs": [],
      "name": "apiVersion",
      "outputs": [
        {
          "internalType": "string",
          "name": "",
          "type": "string"
        }
      ],
      "stateMutability": "pure",
      "type": "function"
    },
    {
      "inputs": [
        {
          "internalType": "address",
          "name": "spender",
          "type": "address"
        },
        {
          "internalType": "uint256",
          "name": "amount",
          "type": "uint256"
        }
      ],
      "name": "approve",
      "outputs": [
        {
          "internalType": "bool",
          "name": "",
          "type": "bool"
        }
      ],
      "stateMutability": "nonpayable",
      "type": "function"
    },
    {
      "inputs": [],
      "name": "asset",
      "outputs": [
        {
          "internalType": "address",
          "name": "",
          "type": "address"
        }
      ],
      "stateMutability": "view",
      "type": "function"
    },
    {
      "inputs": [
        {
          "internalType": "address",
          "name": "",
          "type": "address"
        }
      ],
      "name": "availableDepositLimit",
      "outputs": [
        {
          "internalType": "uint256",
          "name": "",
          "type": "uint256"
        }
      ],
      "stateMutability": "view",
      "type": "function"
    },
    {
      "inputs": [
        {
          "internalType": "address",
          "name": "",
          "type": "address"
        }
      ],
      "name": "availableWithdrawLimit",
      "outputs": [
        {
          "internalType": "uint256",
          "name": "",
          "type": "uint256"
        }
      ],
      "stateMutability": "view",
      "type": "function"
    },
    {
      "inputs": [
        {
          "internalType": "address",
          "name": "account",
          "type": "address"
        }
      ],
      "name": "balanceOf",
      "outputs": [
        {
          "internalType": "uint256",
          "name": "",
          "type": "uint256"
        }
      ],
      "stateMutability": "view",
      "type": "function"
    },
    {
      "inputs": [
        {
          "internalType": "uint256",
          "name": "shares",
          "type": "uint256"
        }
      ],
      "name": "convertToAssets",
      "outputs": [
        {
          "internalType": "uint256",
          "name": "",
          "type": "uint256"
        }
      ],
      "stateMutability": "view",
      "type": "function"
    },
    {
      "inputs": [
        {
          "internalType": "uint256",
          "name": "assets",
          "type": "uint256"
        }
      ],
      "name": "convertToShares",
      "outputs": [
        {
          "internalType": "uint256",
          "name": "",
          "type": "uint256"
        }
      ],
      "stateMutability": "view",
      "type": "function"
    },
    {
      "inputs": [],
      "name": "decimals",
      "outputs": [
        {
          "internalType": "uint8",
          "name": "",
          "type": "uint8"
        }
      ],
      "stateMutability": "view",
      "type": "function"
    },
    {
      "inputs": [
        {
          "internalType": "address",
          "name": "spender",
          "type": "address"
        },
        {
          "internalType": "uint256",
          "name": "subtractedValue",
          "type": "uint256"
        }
      ],
      "name": "decreaseAllowance",
      "outputs": [
        {
          "internalType": "bool",
          "name": "",
          "type": "bool"
        }
      ],
      "stateMutability": "nonpayable",
      "type": "function"
    },
    {
      "inputs": [
        {
          "internalType": "uint256",
          "name": "_amount",
          "type": "uint256"
        }
      ],
      "name": "deployFunds",
      "outputs": [],
      "stateMutability": "nonpayable",
      "type": "function"
    },
    {
      "inputs": [
        {
          "internalType": "uint256",
          "name": "assets",
          "type": "uint256"
        },
        {
          "internalType": "address",
          "name": "receiver",
          "type": "address"
        }
      ],
      "name": "deposit",
      "outputs": [
        {
          "internalType": "uint256",
          "name": "shares",
          "type": "uint256"
        }
      ],
      "stateMutability": "nonpayable",
      "type": "function"
    },
    {
      "inputs": [],
      "name": "emergencyAdmin",
      "outputs": [
        {
          "internalType": "address",
          "name": "",
          "type": "address"
        }
      ],
      "stateMutability": "view",
      "type": "function"
    },
    {
      "inputs": [
        {
          "internalType": "uint256",
          "name": "amount",
          "type": "uint256"
        }
      ],
      "name": "emergencyWithdraw",
      "outputs": [],
      "stateMutability": "nonpayable",
      "type": "function"
    },
    {
      "inputs": [
        {
          "internalType": "uint256",
          "name": "_amount",
          "type": "uint256"
        }
      ],
      "name": "freeFunds",
      "outputs": [],
      "stateMutability": "nonpayable",
      "type": "function"
    },
    {
      "inputs": [],
      "name": "fullProfitUnlockDate",
      "outputs": [
        {
          "internalType": "uint256",
          "name": "",
          "type": "uint256"
        }
      ],
      "stateMutability": "view",
      "type": "function"
    },
    {
      "inputs": [],
      "name": "harvestAndReport",
      "outputs": [
        {
          "internalType": "uint256",
          "name": "",
          "type": "uint256"
        }
      ],
      "stateMutability": "nonpayable",
      "type": "function"
    },
    {
      "inputs": [
        {
          "internalType": "address",
          "name": "spender",
          "type": "address"
        },
        {
          "internalType": "uint256",
          "name": "addedValue",
          "type": "uint256"
        }
      ],
      "name": "increaseAllowance",
      "outputs": [
        {
          "internalType": "bool",
          "name": "",
          "type": "bool"
        }
      ],
      "stateMutability": "nonpayable",
      "type": "function"
    },
    {
      "inputs": [
        {
          "internalType": "address",
          "name": "_asset",
          "type": "address"
        },
        {
          "internalType": "string",
          "name": "_name",
          "type": "string"
        },
        {
          "internalType": "address",
          "name": "_management",
          "type": "address"
        },
        {
          "internalType": "address",
          "name": "_performanceFeeRecipient",
          "type": "address"
        },
        {
          "internalType": "address",
          "name": "_keeper",
          "type": "address"
        }
      ],
      "name": "init",
      "outputs": [],
      "stateMutability": "nonpayable",
      "type": "function"
    },
    {
      "inputs": [
        {
          "internalType": "address",
          "name": "_sender",
          "type": "address"
        }
      ],
      "name": "isEmergencyAuthorized",
      "outputs": [
        {
          "internalType": "bool",
          "name": "",
          "type": "bool"
        }
      ],
      "stateMutability": "view",
      "type": "function"
    },
    {
      "inputs": [
        {
          "internalType": "address",
          "name": "_sender",
          "type": "address"
        }
      ],
      "name": "isKeeperOrManagement",
      "outputs": [
        {
          "internalType": "bool",
          "name": "",
          "type": "bool"
        }
      ],
      "stateMutability": "view",
      "type": "function"
    },
    {
      "inputs": [
        {
          "internalType": "address",
          "name": "_sender",
          "type": "address"
        }
      ],
      "name": "isManagement",
      "outputs": [
        {
          "internalType": "bool",
          "name": "",
          "type": "bool"
        }
      ],
      "stateMutability": "view",
      "type": "function"
    },
    {
      "inputs": [],
      "name": "isShutdown",
      "outputs": [
        {
          "internalType": "bool",
          "name": "",
          "type": "bool"
        }
      ],
      "stateMutability": "view",
      "type": "function"
    },
    {
      "inputs": [],
      "name": "keeper",
      "outputs": [
        {
          "internalType": "address",
          "name": "",
          "type": "address"
        }
      ],
      "stateMutability": "view",
      "type": "function"
    },
    {
      "inputs": [],
      "name": "lastReport",
      "outputs": [
        {
          "internalType": "uint256",
          "name": "",
          "type": "uint256"
        }
      ],
      "stateMutability": "view",
      "type": "function"
    },
    {
      "inputs": [],
      "name": "management",
      "outputs": [
        {
          "internalType": "address",
          "name": "",
          "type": "address"
        }
      ],
      "stateMutability": "view",
      "type": "function"
    },
    {
      "inputs": [],
      "name": "maxDebt",
      "outputs": [
        {
          "internalType": "uint256",
          "name": "",
          "type": "uint256"
        }
      ],
      "stateMutability": "view",
      "type": "function"
    },
    {
      "inputs": [
        {
          "internalType": "address",
          "name": "owner",
          "type": "address"
        }
      ],
      "name": "maxDeposit",
      "outputs": [
        {
          "internalType": "uint256",
          "name": "",
          "type": "uint256"
        }
      ],
      "stateMutability": "view",
      "type": "function"
    },
    {
      "inputs": [
        {
          "internalType": "address",
          "name": "owner",
          "type": "address"
        }
      ],
      "name": "maxMint",
      "outputs": [
        {
          "internalType": "uint256",
          "name": "_maxMint",
          "type": "uint256"
        }
      ],
      "stateMutability": "view",
      "type": "function"
    },
    {
      "inputs": [
        {
          "internalType": "address",
          "name": "owner",
          "type": "address"
        }
      ],
      "name": "maxRedeem",
      "outputs": [
        {
          "internalType": "uint256",
          "name": "_maxRedeem",
          "type": "uint256"
        }
      ],
      "stateMutability": "view",
      "type": "function"
    },
    {
      "inputs": [
        {
          "internalType": "address",
          "name": "owner",
          "type": "address"
        }
      ],
      "name": "maxWithdraw",
      "outputs": [
        {
          "internalType": "uint256",
          "name": "_maxWithdraw",
          "type": "uint256"
        }
      ],
      "stateMutability": "view",
      "type": "function"
    },
    {
      "inputs": [],
      "name": "minDebt",
      "outputs": [
        {
          "internalType": "uint256",
          "name": "",
          "type": "uint256"
        }
      ],
      "stateMutability": "view",
      "type": "function"
    },
    {
      "inputs": [
        {
          "internalType": "uint256",
          "name": "shares",
          "type": "uint256"
        },
        {
          "internalType": "address",
          "name": "receiver",
          "type": "address"
        }
      ],
      "name": "mint",
      "outputs": [
        {
          "internalType": "uint256",
          "name": "assets",
          "type": "uint256"
        }
      ],
      "stateMutability": "nonpayable",
      "type": "function"
    },
    {
      "inputs": [],
      "name": "name",
      "outputs": [
        {
          "internalType": "string",
          "name": "",
          "type": "string"
        }
      ],
      "stateMutability": "view",
      "type": "function"
    },
    {
      "inputs": [
        {
          "internalType": "address",
          "name": "_owner",
          "type": "address"
        }
      ],
      "name": "nonces",
      "outputs": [
        {
          "internalType": "uint256",
          "name": "",
          "type": "uint256"
        }
      ],
      "stateMutability": "view",
      "type": "function"
    },
    {
      "inputs": [],
      "name": "pendingManagement",
      "outputs": [
        {
          "internalType": "address",
          "name": "",
          "type": "address"
        }
      ],
      "stateMutability": "view",
      "type": "function"
    },
    {
      "inputs": [],
      "name": "performanceFee",
      "outputs": [
        {
          "internalType": "uint16",
          "name": "",
          "type": "uint16"
        }
      ],
      "stateMutability": "view",
      "type": "function"
    },
    {
      "inputs": [],
      "name": "performanceFeeRecipient",
      "outputs": [
        {
          "internalType": "address",
          "name": "",
          "type": "address"
        }
      ],
      "stateMutability": "view",
      "type": "function"
    },
    {
      "inputs": [
        {
          "internalType": "address",
          "name": "owner",
          "type": "address"
        },
        {
          "internalType": "address",
          "name": "spender",
          "type": "address"
        },
        {
          "internalType": "uint256",
          "name": "value",
          "type": "uint256"
        },
        {
          "internalType": "uint256",
          "name": "deadline",
          "type": "uint256"
        },
        {
          "internalType": "uint8",
          "name": "v",
          "type": "uint8"
        },
        {
          "internalType": "bytes32",
          "name": "r",
          "type": "bytes32"
        },
        {
          "internalType": "bytes32",
          "name": "s",
          "type": "bytes32"
        }
      ],
      "name": "permit",
      "outputs": [],
      "stateMutability": "nonpayable",
      "type": "function"
    },
    {
      "inputs": [
        {
          "internalType": "uint256",
          "name": "assets",
          "type": "uint256"
        }
      ],
      "name": "previewDeposit",
      "outputs": [
        {
          "internalType": "uint256",
          "name": "",
          "type": "uint256"
        }
      ],
      "stateMutability": "view",
      "type": "function"
    },
    {
      "inputs": [
        {
          "internalType": "uint256",
          "name": "shares",
          "type": "uint256"
        }
      ],
      "name": "previewMint",
      "outputs": [
        {
          "internalType": "uint256",
          "name": "",
          "type": "uint256"
        }
      ],
      "stateMutability": "view",
      "type": "function"
    },
    {
      "inputs": [
        {
          "internalType": "uint256",
          "name": "shares",
          "type": "uint256"
        }
      ],
      "name": "previewRedeem",
      "outputs": [
        {
          "internalType": "uint256",
          "name": "",
          "type": "uint256"
        }
      ],
      "stateMutability": "view",
      "type": "function"
    },
    {
      "inputs": [
        {
          "internalType": "uint256",
          "name": "assets",
          "type": "uint256"
        }
      ],
      "name": "previewWithdraw",
      "outputs": [
        {
          "internalType": "uint256",
          "name": "",
          "type": "uint256"
        }
      ],
      "stateMutability": "view",
      "type": "function"
    },
    {
      "inputs": [],
      "name": "pricePerShare",
      "outputs": [
        {
          "internalType": "uint256",
          "name": "",
          "type": "uint256"
        }
      ],
      "stateMutability": "view",
      "type": "function"
    },
    {
      "inputs": [],
      "name": "profitMaxUnlockTime",
      "outputs": [
        {
          "internalType": "uint256",
          "name": "",
          "type": "uint256"
        }
      ],
      "stateMutability": "view",
      "type": "function"
    },
    {
      "inputs": [],
      "name": "profitUnlockingRate",
      "outputs": [
        {
          "internalType": "uint256",
          "name": "",
          "type": "uint256"
        }
      ],
      "stateMutability": "view",
      "type": "function"
    },
    {
      "inputs": [
        {
          "internalType": "uint256",
          "name": "shares",
          "type": "uint256"
        },
        {
          "internalType": "address",
          "name": "receiver",
          "type": "address"
        },
        {
          "internalType": "address",
          "name": "owner",
          "type": "address"
        },
        {
          "internalType": "uint256",
          "name": "maxLoss",
          "type": "uint256"
        }
      ],
      "name": "redeem",
      "outputs": [
        {
          "internalType": "uint256",
          "name": "",
          "type": "uint256"
        }
      ],
      "stateMutability": "nonpayable",
      "type": "function"
    },
    {
      "inputs": [
        {
          "internalType": "uint256",
          "name": "shares",
          "type": "uint256"
        },
        {
          "internalType": "address",
          "name": "receiver",
          "type": "address"
        },
        {
          "internalType": "address",
          "name": "owner",
          "type": "address"
        }
      ],
      "name": "redeem",
      "outputs": [
        {
          "internalType": "uint256",
          "name": "",
          "type": "uint256"
        }
      ],
      "stateMutability": "nonpayable",
      "type": "function"
    },
    {
      "inputs": [],
      "name": "report",
      "outputs": [
        {
          "internalType": "uint256",
          "name": "profit",
          "type": "uint256"
        },
        {
          "internalType": "uint256",
          "name": "loss",
          "type": "uint256"
        }
      ],
      "stateMutability": "nonpayable",
      "type": "function"
    },
    {
      "inputs": [
        {
          "internalType": "address",
          "name": "_emergencyAdmin",
          "type": "address"
        }
      ],
      "name": "setEmergencyAdmin",
      "outputs": [],
      "stateMutability": "nonpayable",
      "type": "function"
    },
    {
      "inputs": [
        {
          "internalType": "address",
          "name": "_keeper",
          "type": "address"
        }
      ],
      "name": "setKeeper",
      "outputs": [],
      "stateMutability": "nonpayable",
      "type": "function"
    },
    {
      "inputs": [
        {
          "internalType": "uint256",
          "name": "_maxDebt",
          "type": "uint256"
        }
      ],
      "name": "setMaxDebt",
      "outputs": [],
      "stateMutability": "nonpayable",
      "type": "function"
    },
    {
      "inputs": [
        {
          "internalType": "uint256",
          "name": "_minDebt",
          "type": "uint256"
        }
      ],
      "name": "setMinDebt",
      "outputs": [],
      "stateMutability": "nonpayable",
      "type": "function"
    },
    {
      "inputs": [
        {
          "internalType": "address",
          "name": "_management",
          "type": "address"
        }
      ],
      "name": "setPendingManagement",
      "outputs": [],
      "stateMutability": "nonpayable",
      "type": "function"
    },
    {
      "inputs": [
        {
          "internalType": "uint16",
          "name": "_performanceFee",
          "type": "uint16"
        }
      ],
      "name": "setPerformanceFee",
      "outputs": [],
      "stateMutability": "nonpayable",
      "type": "function"
    },
    {
      "inputs": [
        {
          "internalType": "address",
          "name": "_performanceFeeRecipient",
          "type": "address"
        }
      ],
      "name": "setPerformanceFeeRecipient",
      "outputs": [],
      "stateMutability": "nonpayable",
      "type": "function"
    },
    {
      "inputs": [
        {
          "internalType": "uint256",
          "name": "_profitMaxUnlockTime",
          "type": "uint256"
        }
      ],
      "name": "setProfitMaxUnlockTime",
      "outputs": [],
      "stateMutability": "nonpayable",
      "type": "function"
    },
    {
      "inputs": [],
      "name": "shutdownStrategy",
      "outputs": [],
      "stateMutability": "nonpayable",
      "type": "function"
    },
    {
      "inputs": [],
      "name": "symbol",
      "outputs": [
        {
          "internalType": "string",
          "name": "",
          "type": "string"
        }
      ],
      "stateMutability": "view",
      "type": "function"
    },
    {
      "inputs": [],
      "name": "tend",
      "outputs": [],
      "stateMutability": "nonpayable",
      "type": "function"
    },
    {
      "inputs": [],
      "name": "totalAssets",
      "outputs": [
        {
          "internalType": "uint256",
          "name": "",
          "type": "uint256"
        }
      ],
      "stateMutability": "view",
      "type": "function"
    },
    {
      "inputs": [],
      "name": "totalDebt",
      "outputs": [
        {
          "internalType": "uint256",
          "name": "",
          "type": "uint256"
        }
      ],
      "stateMutability": "view",
      "type": "function"
    },
    {
      "inputs": [],
      "name": "totalIdle",
      "outputs": [
        {
          "internalType": "uint256",
          "name": "",
          "type": "uint256"
        }
      ],
      "stateMutability": "view",
      "type": "function"
    },
    {
      "inputs": [],
      "name": "totalSupply",
      "outputs": [
        {
          "internalType": "uint256",
          "name": "",
          "type": "uint256"
        }
      ],
      "stateMutability": "view",
      "type": "function"
    },
    {
      "inputs": [
        {
          "internalType": "address",
          "name": "to",
          "type": "address"
        },
        {
          "internalType": "uint256",
          "name": "amount",
          "type": "uint256"
        }
      ],
      "name": "transfer",
      "outputs": [
        {
          "internalType": "bool",
          "name": "",
          "type": "bool"
        }
      ],
      "stateMutability": "nonpayable",
      "type": "function"
    },
    {
      "inputs": [
        {
          "internalType": "address",
          "name": "from",
          "type": "address"
        },
        {
          "internalType": "address",
          "name": "to",
          "type": "address"
        },
        {
          "internalType": "uint256",
          "name": "amount",
          "type": "uint256"
        }
      ],
      "name": "transferFrom",
      "outputs": [
        {
          "internalType": "bool",
          "name": "",
          "type": "bool"
        }
      ],
      "stateMutability": "nonpayable",
      "type": "function"
    },
    {
      "inputs": [],
      "name": "unlockedShares",
      "outputs": [
        {
          "internalType": "uint256",
          "name": "",
          "type": "uint256"
        }
      ],
      "stateMutability": "view",
      "type": "function"
    },
    {
      "inputs": [
        {
          "internalType": "uint256",
          "name": "assets",
          "type": "uint256"
        },
        {
          "internalType": "address",
          "name": "receiver",
          "type": "address"
        },
        {
          "internalType": "address",
          "name": "owner",
          "type": "address"
        },
        {
          "internalType": "uint256",
          "name": "maxLoss",
          "type": "uint256"
        }
      ],
      "name": "withdraw",
      "outputs": [
        {
          "internalType": "uint256",
          "name": "shares",
          "type": "uint256"
        }
      ],
      "stateMutability": "nonpayable",
      "type": "function"
    },
    {
      "inputs": [
        {
          "internalType": "uint256",
          "name": "assets",
          "type": "uint256"
        },
        {
          "internalType": "address",
          "name": "receiver",
          "type": "address"
        },
        {
          "internalType": "address",
          "name": "owner",
          "type": "address"
        }
      ],
      "name": "withdraw",
      "outputs": [
        {
          "internalType": "uint256",
          "name": "shares",
          "type": "uint256"
        }
      ],
      "stateMutability": "nonpayable",
      "type": "function"
    }
  ],
  "transactionHash": "0x5172cd82b1b64edaac9d109c4282efa132590f903d5ea20ed9e0c6b4331cc955",
  "args": [
    "0xdf29cb40cb92a1b8e8337f542e3846e185deff96",
    "Mock Tokenized Strategy",
    "0x0Eb7DEE6e18Cce8fE839E986502d95d47dC0ADa3",
    "0x0Eb7DEE6e18Cce8fE839E986502d95d47dC0ADa3",
    60
  ],
  "numDeployments": 1,
  "solcInputHash": "f0e86c7bd2bf3d6c80a8ae40242bdbd0",
  "bytecode": "0x60806040526000196002553480156200001757600080fd5b5060405162004400380380620044008339810160408190526200003a9162000283565b600160008190556200004b62000205565b60070180546001600160a01b0319166001600160a01b039290921691909117905560006200007862000205565b6007810180546001600160a01b0319166001600160a01b0389161790559050600d8101620000a7868262000433565b50856001600160a01b031663313ce5676040518163ffffffff1660e01b8152600401602060405180830381865afa158015620000e7573d6000803e3d6000fd5b505050506040513d601f19601f820116820180604052508101906200010d9190620004ff565b600c8201805460ff92909216600160d01b0260ff60d01b199092169190911790556006810180546001600160801b03428116600160801b0291161790556001600160a01b038416620001945760405162461bcd60e51b815260206004820152600c60248201526b5a45524f204144445245535360a01b604482015260640160405180910390fd5b6009810180546001600160a01b039586166001600160a01b031991821681179092556008830180548216909217909155600a8201805494909516931692909217909255600c01805463ffffffff909216600160a01b0263ffffffff60a01b19909216919091179055506200054d9050565b6000806200023560017f6ba4c9372343a5330704905897d65e24797fa48dcc8d6dbd0a5e9bd365c947eb6200052b565b92915050565b80516001600160a01b03811681146200025357600080fd5b919050565b634e487b7160e01b600052604160045260246000fd5b805163ffffffff811681146200025357600080fd5b600080600080600060a086880312156200029c57600080fd5b620002a7866200023b565b602087810151919650906001600160401b0380821115620002c757600080fd5b818901915089601f830112620002dc57600080fd5b815181811115620002f157620002f162000258565b604051601f8201601f19908116603f011681019083821181831017156200031c576200031c62000258565b816040528281528c868487010111156200033557600080fd5b600093505b828410156200035957848401860151818501870152928501926200033a565b600086848301015280995050505050505062000378604087016200023b565b925062000388606087016200023b565b915062000398608087016200026e565b90509295509295909350565b600181811c90821680620003b957607f821691505b602082108103620003da57634e487b7160e01b600052602260045260246000fd5b50919050565b601f8211156200042e57600081815260208120601f850160051c81016020861015620004095750805b601f850160051c820191505b818110156200042a5782815560010162000415565b5050505b505050565b81516001600160401b038111156200044f576200044f62000258565b6200046781620004608454620003a4565b84620003e0565b602080601f8311600181146200049f5760008415620004865750858301515b600019600386901b1c1916600185901b1785556200042a565b600085815260208120601f198616915b82811015620004d057888601518255948401946001909101908401620004af565b5085821015620004ef5787850151600019600388901b60f8161c191681555b5050505050600190811b01905550565b6000602082840312156200051257600080fd5b815160ff811681146200052457600080fd5b9392505050565b818103818111156200023557634e487b7160e01b600052601160045260246000fd5b613ea3806200055d6000396000f3fe608060405234801561001057600080fd5b50600436106103745760003560e01c80637ecebe00116101d15780637ecebe0014610610578063877887821461062357806388a8d6021461062b57806394bf804d1461063357806395d89b411461064657806399530b061461064e5780639aa7df94146106565780639d6fdde71461065e5780639f40a7b314610671578063a318c1a414610684578063a457c2d714610697578063a9059cbb146106aa578063aa290e6d146106bd578063aced1661146106d0578063b3d7f6b9146106d8578063b460af94146106eb578063ba087652146106fe578063bc063e1a14610711578063be8f16681461071a578063bf86d69014610722578063c3535b521461072a578063c63d75b614610732578063c6e6f59214610745578063c8c2fe6c14610758578063ce96cb7714610760578063d0064c0014610773578063d505accf1461077c578063d905777e1461078f578063d9a0e97a146107a2578063dd62ed3e146107aa578063df69b22a146107bd578063e11a6cb3146107d0578063ec0c7e28146107d8578063ed27f7c9146107eb578063ef8b30f7146107f3578063f17336d714610806578063f629b7901461080f578063fc7b9c181461082257600080fd5b806301e1d1141461037957806304bd46291461039457806306fdde03146103a957806307a2d13a146103be5780630952864e146103d1578063095ea7b3146103d95780630a28a477146103fc5780630b68f46f1461040f57806318160ddd146104245780631d3b72271461042c57806323b872dd1461043f57806325829410146104525780632606a10b146104735780632d632692146104905780632dd31000146104985780632ecfe315146104a0578063313ce567146104b557806335da3394146104cf5780633644e515146104e257806338d52e0f146104ea57806339509351146104f25780633d6cb57514610505578063402d267d14610516578063440368a31461052957806346aa2f121461053157806349317f1d146105445780634cdad5061461054c578063503160d9146105055780635141eebb1461055f5780635312ea8e146105675780636234dc211461057a5780636526941b1461058d5780636a5f1aa2146105a05780636e553f65146105b357806370905dce146105c657806370a08231146105ce578063748747e6146105e157806376c7a3c7146105f4575b600080fd5b61038161082a565b6040519081526020015b60405180910390f35b6103816103a236600461358d565b5060001990565b6103b1610847565b60405161038b91906135ce565b6103816103cc366004613601565b6108e2565b610381610918565b6103ec6103e736600461361a565b610938565b604051901515815260200161038b565b61038161040a366004613601565b61094f565b610417610994565b60405161038b9190613646565b6103816109b0565b6103ec61043a36600461358d565b6109d5565b6103ec61044d36600461365a565b610a4b565b6040805180820190915260058152640312e302e360dc1b60208201526103b1565b61047b610a6d565b6040805192835260208301919091520161038b565b610381610e71565b610417600081565b6104b36104ae36600461369b565b610e8d565b005b6104bd61112b565b60405160ff909116815260200161038b565b6104b36104dd36600461358d565b611148565b6103816111a8565b6104176111d6565b6103ec61050036600461361a565b6111f2565b6104b3610513366004613601565b50565b61038161052436600461358d565b611214565b6104b361129d565b61038161053f36600461358d565b611325565b610381611352565b61038161055a366004613601565b6113ce565b6103816113d9565b6104b3610575366004613601565b6113ec565b6104b3610588366004613601565b600155565b6104b361059b366004613601565b600255565b6104b36105ae36600461358d565b6114b2565b6103816105c1366004613752565b611581565b610417611623565b6103816105dc36600461358d565b61163f565b6104b36105ef36600461358d565b6116b2565b6105fd6101f481565b60405161ffff909116815260200161038b565b61038161061e36600461358d565b611712565b6105fd61173e565b61041761175c565b610381610641366004613752565b611778565b6103b161180e565b6103816118b8565b6103816118de565b6103ec61066c36600461358d565b6118f1565b61038161067f366004613782565b611970565b610381610692366004613782565b611a19565b6103ec6106a536600461361a565b611abe565b6103ec6106b836600461361a565b611adb565b6104b36106cb3660046137da565b611ae8565b610417611bcf565b6103816106e6366004613601565b611beb565b6103816106f93660046137f7565b611c13565b61038161070c3660046137f7565b611c22565b6105fd61138881565b6104b3611c32565b6103ec611c8e565b610381611cab565b61038161074036600461358d565b611cce565b610381610753366004613601565b611d70565b6104b3611dab565b61038161076e36600461358d565b611e7b565b61038160025481565b6104b361078a366004613848565b611f0e565b61038161079d36600461358d565b612114565b6103816121a4565b6103816107b83660046138b9565b6121ae565b6104b36107cb366004613601565b6121e8565b6103816122d2565b6103ec6107e636600461358d565b6122ee565b61041761234c565b610381610801366004613601565b612368565b61038160015481565b6104b361081d36600461358d565b612373565b6103816123f9565b60008061083561240c565b60048101546003909101540192915050565b606061085161240c565b600d01805461085f906138e7565b80601f016020809104026020016040519081016040528092919081815260200182805461088b906138e7565b80156108d85780601f106108ad576101008083540402835291602001916108d8565b820191906000526020600020905b8154815290600101906020018083116108bb57829003601f168201915b5050505050905090565b6000806108ed6109b0565b9050801561090f5761090a61090061082a565b8490836000612428565b610911565b825b9392505050565b600061092261240c565b600c0154600160a01b900463ffffffff16919050565b6000610945338484612485565b5060015b92915050565b60008061095a61082a565b905060006109666109b0565b90508160000361098757801561097d57600061097f565b835b949350505050565b61097f8482846001612428565b600061099e61240c565b600b01546001600160a01b0316919050565b60006109ba6125ba565b6109c261240c565b600201546109d09190613937565b905090565b6000806109e061240c565b600a8101549091506001600160a01b0384811691161480610a10575060098101546001600160a01b038481169116145b6109455760405162461bcd60e51b815260206004820152600760248201526610b5b2b2b832b960c91b60448201526064015b60405180910390fd5b6000610a58843384612633565b610a638484846126ad565b5060019392505050565b600080610a7861285a565b610a81336109d5565b506000610a8c61240c565b90506000816004015482600301540190506000306001600160a01b03166349317f1d6040518163ffffffff1660e01b81526004016020604051808303816000875af1158015610adf573d6000803e3d6000fd5b505050506040513d601f19601f82011682018060405250810190610b03919061394a565b9050610b0d6128b3565b600c83015460009081908190600160a01b900463ffffffff1685851115610c5957600c870154868603995061271090600160c01b900461ffff168a02049350600080808615610c06576000806001600160a01b03166307d3277f6040518163ffffffff1660e01b81526004016040805180830381865afa158015610b95573d6000803e3d6000fd5b505050506040513d601f19601f82011682018060405250810190610bb99190613979565b9450905061ffff811615610be557612710610bd861ffff83168a6139a8565b610be291906139bf565b96505b610bf0878903611d70565b92508615610c0457610c0187611d70565b91505b505b8315610c2357610c17878d03611d70565b9450610c233086612918565b8115610c415760088a0154610c41906001600160a01b031683612918565b8015610c5157610c518382612918565b505050610c9e565b848603975087600014610c9e57306000908152600f88016020526040812054610c8a90610c858b611d70565b6129d0565b90508015610c9c57610c9c30826129df565b505b306000908152600f880160205260409020548015610d595760068801546000906001600160801b031642811115610ce25784830342826001600160801b0316030291505b600083610cef86886139a8565b610cf990856139e1565b610d0391906139bf565b905080610d1564e8d4a51000866139a8565b610d1f91906139bf565b60058c0155610d2e81426139e1565b60068c0180546001600160801b0319166001600160801b039290921691909117905550610d61915050565b600060058901555b60078801546040516370a0823160e01b81526000916001600160a01b0316906370a0823190610d94903090600401613646565b602060405180830381865afa158015610db1573d6000803e3d6000fd5b505050506040513d601f19601f82011682018060405250810190610dd5919061394a565b60038a018190559050610de88188613937565b60048a01556006890180546001600160801b03428116600160801b0291161790557fecdd072e4d5bd913a75a37f02daedcea7e2dc0281f9942c0063cfd1cfe5c4c4f8b8b87610e37818b613937565b60408051948552602085019390935291830152606082015260800160405180910390a1505050505050505050610e6d6001600055565b9091565b6000610e7b61240c565b600601546001600160801b0316919050565b6000610e9761240c565b60078101549091506001600160a01b031615610ee35760405162461bcd60e51b815260206004820152600b60248201526a1a5b9a5d1a585b1a5e995960aa1b6044820152606401610a42565b6007810180546001600160a01b0319166001600160a01b038916179055600d8101610f0f868883613a58565b50866001600160a01b031663313ce5676040518163ffffffff1660e01b8152600401602060405180830381865afa158015610f4e573d6000803e3d6000fd5b505050506040513d601f19601f82011682018060405250810190610f729190613b18565b600c8201805460ff92909216600160d01b0260ff60d01b19909216919091179055466001820155610fa1612ab4565b8155600c8101805463ffffffff60a01b1916610d2f60a81b1790556001600160a01b038316610fe25760405162461bcd60e51b8152600401610a4290613b35565b306001600160a01b038416036110235760405162461bcd60e51b8152600401610a429060208082526004908201526339b2b63360e11b604082015260600190565b6008810180546001600160a01b038086166001600160a01b031990921691909117909155600c82018054607d60c31b61ffff60c01b199091161790556006820180546001600160801b03428116600160801b02911617905584166110995760405162461bcd60e51b8152600401610a4290613b35565b6009810180546001600160a01b038087166001600160a01b031992831617909255600a83018054858416921691909117905560408051808201825260058152640312e302e360dc1b602082015290519189169130917ffb1616746b8474b6b7c67f2fe5ada156ed24774d0efe8bfe529cf537ba1733309161111a91906135ce565b60405180910390a350505050505050565b600061113561240c565b600c0154600160d01b900460ff16919050565b611151336122ee565b508061115b61240c565b600c0180546001600160a01b0319166001600160a01b03928316179055604051908216907f2bf242d027263e45fab022c28b4144255c97b30b8e54c30f1f5757906d487f0990600090a250565b6000806111b361240c565b9050806001015446146111cd576111c8612ab4565b6111d0565b80545b91505090565b60006111e061240c565b600701546001600160a01b0316919050565b600033610a6381858561120583836121ae565b61120f91906139e1565b612485565b600061121e61240c565b600c0154600160e01b900460ff161561123957506000919050565b604051632355178960e11b815230906346aa2f129061125c908590600401613646565b602060405180830381865afa158015611279573d6000803e3d6000fd5b505050506040513d601f19601f82011682018060405250810190610949919061394a565b6112a561285a565b6112ae336109d5565b5030639d7fb70c6112bd61240c565b600301546040518263ffffffff1660e01b81526004016112df91815260200190565b600060405180830381600087803b1580156112f957600080fd5b505af115801561130d573d6000803e3d6000fd5b50505050611319612b70565b6113236001600055565b565b60008061133061240c565b6003015460025490915081811161134857600061097f565b61097f8282613937565b600061135c61240c565b600701546040516370a0823160e01b81526001600160a01b03909116906370a082319061138d903090600401613646565b602060405180830381865afa1580156113aa573d6000803e3d6000fd5b505050506040513d601f19601f820116820180604052508101906109d0919061394a565b6000610949826108e2565b60006113e361240c565b60050154905090565b6113f461285a565b6113fd336118f1565b5061140661240c565b600c0154600160e01b900460ff1661144f5760405162461bcd60e51b815260206004820152600c60248201526b3737ba1039b43aba3237bbb760a11b6044820152606401610a42565b604051631fbd027560e31b815260048101829052309063fde813a890602401600060405180830381600087803b15801561148857600080fd5b505af115801561149c573d6000803e3d6000fd5b505050506114a8612b70565b6105136001600055565b6114bb336122ee565b506001600160a01b0381166114e25760405162461bcd60e51b8152600401610a4290613b35565b306001600160a01b0382160361152b5760405162461bcd60e51b815260206004820152600e60248201526d21b0b73737ba1031329039b2b63360911b6044820152606401610a42565b8061153461240c565b60080180546001600160a01b0319166001600160a01b03928316179055604051908216907f9ebbf695dd251e855d9d15a146a72f5f654dc6f8630fbc11212f27e0c88ba11a90600090a250565b600061158b61285a565b61159482611214565b8311156115e35760405162461bcd60e51b815260206004820152601e60248201527f455243343632363a206465706f736974206d6f7265207468616e206d617800006044820152606401610a42565b6115ec83612368565b90508060000361160e5760405162461bcd60e51b8152600401610a4290613b5b565b611619828483612c84565b6109496001600055565b600061162d61240c565b600c01546001600160a01b0316919050565b6000306001600160a01b03831603611688576116596125ba565b61166161240c565b6001600160a01b0384166000908152600f9190910160205260409020546109499190613937565b61169061240c565b6001600160a01b039092166000908152600f9290920160205250604090205490565b6116bb336122ee565b50806116c561240c565b600a0180546001600160a01b0319166001600160a01b03928316179055604051908216907fd7f49e282c36d417b290d4181a56943f6d670aaa2987c0d40e60d39919c6888290600090a250565b600061171c61240c565b6001600160a01b039092166000908152600e9290920160205250604090205490565b600061174861240c565b600c0154600160c01b900461ffff16919050565b600061176661240c565b600901546001600160a01b0316919050565b600061178261285a565b61178b82611cce565b8311156117d85760405162461bcd60e51b815260206004820152601b60248201527a08aa486686c646c7440dad2dce840dadee4ca40e8d0c2dc40dac2f602b1b6044820152606401610a42565b6117e183611beb565b9050806000036118035760405162461bcd60e51b8152600401610a4290613b80565b611619828285612c84565b606061181861240c565b60070160009054906101000a90046001600160a01b03166001600160a01b03166395d89b416040518163ffffffff1660e01b8152600401600060405180830381865afa15801561186c573d6000803e3d6000fd5b505050506040513d6000823e601f3d908101601f191682016040526118949190810190613ba5565b6040516020016118a49190613c46565b604051602081830303815290604052905090565b60006109d06118c561240c565b600c01546103cc90600160d01b900460ff16600a613d54565b60006118e861240c565b60030154905090565b6000806118fc61240c565b600c8101549091506001600160a01b038481169116148061192c575060098101546001600160a01b038481169116145b6109455760405162461bcd60e51b815260206004820152601560248201527408595b595c99d95b98de48185d5d1a1bdc9a5e9959605a1b6044820152606401610a42565b600061197a61285a565b61198383612114565b8511156119d25760405162461bcd60e51b815260206004820152601d60248201527f455243343632363a2072656465656d206d6f7265207468616e206d61780000006044820152606401610a42565b60006119dd866113ce565b9050806000036119ff5760405162461bcd60e51b8152600401610a4290613b80565b611a0c8585838987612ed1565b91505061097f6001600055565b6000611a2361285a565b611a2c83611e7b565b851115611a7b5760405162461bcd60e51b815260206004820152601f60248201527f455243343632363a207769746864726177206d6f7265207468616e206d6178006044820152606401610a42565b611a848561094f565b905080600003611aa65760405162461bcd60e51b8152600401610a4290613b5b565b611ab38484878486612ed1565b5061097f6001600055565b600033610a63818585611ad183836121ae565b61120f9190613937565b60006109453384846126ad565b611af1336122ee565b506101f461ffff82161015611b325760405162461bcd60e51b81526020600482015260076024820152664d494e2046454560c81b6044820152606401610a42565b61138861ffff82161115611b725760405162461bcd60e51b81526020600482015260076024820152664d41582046454560c81b6044820152606401610a42565b80611b7b61240c565b600c01805461ffff60c01b1916600160c01b61ffff9384160217905560405190821681527fdc843735e683348ec21c302ffff45462399c5c46f75f67b0a1a5395c535997539060200160405180910390a150565b6000611bd961240c565b600a01546001600160a01b0316919050565b600080611bf66109b0565b9050801561090f5761090a611c0961082a565b8490836001612428565b600061097f8484846000611a19565b600061097f848484612710611970565b611c3b336118f1565b506001611c4661240c565b600c018054911515600160e01b0260ff60e01b199092169190911790556040517ffc1249757a7f27c510c8173c55d03ba442e0d33d9223e06ceb416feac8c7693f90600090a1565b6000611c9861240c565b600c0154600160e01b900460ff16919050565b6000611cb561240c565b60060154600160801b90046001600160801b0316919050565b6000611cd861240c565b600c0154600160e01b900460ff1615611cf357506000919050565b604051632355178960e11b815230906346aa2f1290611d16908590600401613646565b602060405180830381865afa158015611d33573d6000803e3d6000fd5b505050506040513d601f19601f82011682018060405250810190611d57919061394a565b90506000198114611d6b5761094981611d70565b919050565b600080611d7b61082a565b90506000611d876109b0565b905081600003611d9e57801561097d57600061097f565b61097f8482846000612428565b611db361240c565b600b01546001600160a01b03163314611df95760405162461bcd60e51b81526020600482015260086024820152672170656e64696e6760c01b6044820152606401610a42565b33611e0261240c565b60090180546001600160a01b0319166001600160a01b03929092169190911790556000611e2d61240c565b600b0180546001600160a01b0319166001600160a01b039290921691909117905560405133907fff54978127edd34aec0f9061fb3b155fbe0ededdfa881ee3e0d541d3a1eef43890600090a2565b6040516304bd462960e01b815260009030906304bd462990611ea1908590600401613646565b602060405180830381865afa158015611ebe573d6000803e3d6000fd5b505050506040513d601f19601f82011682018060405250810190611ee2919061394a565b90506000198103611ef9576109496103cc8361163f565b610949611f086103cc8461163f565b826129d0565b42841015611f5e5760405162461bcd60e51b815260206004820152601e60248201527f45524332303a205045524d49545f444541444c494e455f4558504952454400006044820152606401610a42565b60006001611f6a6111a8565b7f6e71edae12b1b97f4d1f60370fef10105fa2faae0126114a169c64845d6126c98a8a8a611f9661240c565b6001600160a01b038f81166000908152600e9290920160209081526040928390208054600181019091558351808301989098529582168784015293166060860152608085019190915260a084019290925260c08084018b90528251808503909101815260e08401909252815191012061190160f01b6101008301526101028201929092526101228101919091526101420160408051601f198184030181528282528051602091820120600084529083018083525260ff871690820152606081018590526080810184905260a0016020604051602081039080840390855afa158015612085573d6000803e3d6000fd5b5050604051601f1901519150506001600160a01b038116158015906120bb5750876001600160a01b0316816001600160a01b0316145b6120ff5760405162461bcd60e51b815260206004820152601560248201527422a92199181d1024a72b20a624a22fa9a4a3a722a960591b6044820152606401610a42565b61210a818888612485565b5050505050505050565b6040516304bd462960e01b815260009030906304bd46299061213a908590600401613646565b602060405180830381865afa158015612157573d6000803e3d6000fd5b505050506040513d601f19601f8201168201806040525081019061217b919061394a565b9050600019810361218f576109498261163f565b61094961219b8261094f565b610c858461163f565b60006109d06125ba565b60006121b861240c565b6001600160a01b039384166000908152601091909101602090815260408083209490951682529290925250205490565b6121f1336122ee565b506301e185588111156122315760405162461bcd60e51b8152602060048201526008602482015267746f6f206c6f6e6760c01b6044820152606401610a42565b600061223b61240c565b90508160000361227b57306000818152600f8301602052604090205461226191906129df565b600060058201556006810180546001600160801b03191690555b600c8101805463ffffffff60a01b1916600160a01b63ffffffff8516021790556040518281527fc464d502702beac6615fdfda7756f59ccaf253cb2591db454c8def44d03bddd99060200160405180910390a15050565b6122eb6001600080516020613e2e833981519152613937565b81565b60006122f861240c565b600901546001600160a01b038381169116146123445760405162461bcd60e51b815260206004820152600b60248201526a085b585b9859d95b595b9d60aa1b6044820152606401610a42565b506001919050565b600061235661240c565b600801546001600160a01b0316919050565b600061094982611d70565b61237c336122ee565b506001600160a01b0381166123a35760405162461bcd60e51b8152600401610a4290613b35565b806123ac61240c565b600b0180546001600160a01b0319166001600160a01b03928316179055604051908216907fd74668a8c80a07cc56d7c3318a06439eaa815e740d97dcd83487e1fc75076b8b90600090a250565b600061240361240c565b60040154905090565b6000806109496001600080516020613e2e833981519152613937565b6000806124368686866131f0565b9050600183600281111561244c5761244c613d63565b14801561246957506000848061246457612464613963565b868809115b1561247c576124796001826139e1565b90505b95945050505050565b6001600160a01b0383166124e75760405162461bcd60e51b8152602060048201526024808201527f45524332303a20617070726f76652066726f6d20746865207a65726f206164646044820152637265737360e01b6064820152608401610a42565b6001600160a01b0382166125485760405162461bcd60e51b815260206004820152602260248201527f45524332303a20617070726f766520746f20746865207a65726f206164647265604482015261737360f01b6064820152608401610a42565b8061255161240c565b6001600160a01b038581166000818152601093909301602090815260408085209388168086529382529384902094909455915184815290927f8c5be1e5ebec7d5bd14f71427d1e84f3dd0314c0f7b2291e5b200ac8c7c3b92591015b60405180910390a3505050565b6000806125c561240c565b60068101549091506001600160801b03164281111561260a576006820154600583015464e8d4a5100091600160801b90046001600160801b0316420302049250505090565b6001600160801b0381161561262e57306000908152600f8301602052604090205492505b505090565b600061263f84846121ae565b905060001981146126a7578181101561269a5760405162461bcd60e51b815260206004820152601d60248201527f45524332303a20696e73756666696369656e7420616c6c6f77616e63650000006044820152606401610a42565b6126a78484848403612485565b50505050565b6001600160a01b0383166127115760405162461bcd60e51b815260206004820152602560248201527f45524332303a207472616e736665722066726f6d20746865207a65726f206164604482015264647265737360d81b6064820152608401610a42565b6001600160a01b0382166127735760405162461bcd60e51b815260206004820152602360248201527f45524332303a207472616e7366657220746f20746865207a65726f206164647260448201526265737360e81b6064820152608401610a42565b306001600160a01b038316036127c85760405162461bcd60e51b815260206004820152601a6024820152794552433230207472616e7366657220746f20737472617465677960301b6044820152606401610a42565b60006127d261240c565b6001600160a01b0385166000908152600f82016020526040812080549293508492909190612801908490613937565b90915550506001600160a01b038084166000818152600f8401602052604090819020805486019055519091861690600080516020613e4e8339815191529061284c9086815260200190565b60405180910390a350505050565b6002600054036128ac5760405162461bcd60e51b815260206004820152601f60248201527f5265656e7472616e637947756172643a207265656e7472616e742063616c6c006044820152606401610a42565b6002600055565b60006128bd6125ba565b9050806000036128ca5750565b426128d361240c565b600601546001600160801b0316111561290e57426128ef61240c565b60060180546001600160801b03928316600160801b0292169190911790555b61051330826129df565b6001600160a01b03821661296e5760405162461bcd60e51b815260206004820152601f60248201527f45524332303a206d696e7420746f20746865207a65726f2061646472657373006044820152606401610a42565b600061297861240c565b90508181600201600082825461298e91906139e1565b90915550506001600160a01b0383166000818152600f83016020908152604080832080548701905551858152600080516020613e4e83398151915291016125ad565b600081831061090f5781610911565b6001600160a01b038216612a3f5760405162461bcd60e51b815260206004820152602160248201527f45524332303a206275726e2066726f6d20746865207a65726f206164647265736044820152607360f81b6064820152608401610a42565b6000612a4961240c565b6001600160a01b0384166000908152600f82016020526040812080549293508492909190612a78908490613937565b909155505060028101805483900390556040518281526000906001600160a01b03851690600080516020613e4e833981519152906020016125ad565b60007f8b73c3c69bb8fe3d512ecc4cf759cc79239f7b179b0ffacaa9a75d522b39400f612adf61240c565b600d01604051612aef9190613d79565b60408051918290038220828201825260058352640312e302e360dc1b6020938401528151928301939093528101919091527f06c015bd22b4c69690933c1058878ebdfef31f9aaae40bbe86d8a09fe1b2972c60608201524660808201523060a082015260c00160405160208183030381529060405280519060200120905090565b6000612b7a61240c565b60078101546040516370a0823160e01b81529192506000916001600160a01b03909116906370a0823190612bb2903090600401613646565b602060405180830381865afa158015612bcf573d6000803e3d6000fd5b505050506040513d601f19601f82011682018060405250810190612bf3919061394a565b905080826003015403612c04575050565b6000612c0e61082a565b9050808210612c2a576003830181905560006004840155612c3a565b6003830182905581810360048401555b612c4261082a565b8114612c7f5760405162461bcd60e51b815260206004820152600c60248201526b21746f74616c41737365747360a01b6044820152606401610a42565b505050565b306001600160a01b03841603612cd45760405162461bcd60e51b815260206004820152601560248201527422a9219a1b191b1d1036b4b73a103a379039b2b63360591b6044820152606401610a42565b6000612cde61240c565b60078101549091506001600160a01b0316612cfb813330876132da565b6000848360030154612d0d91906139e1565b90506000826001600160a01b03166370a08231306040518263ffffffff1660e01b8152600401612d3d9190613646565b602060405180830381865afa158015612d5a573d6000803e3d6000fd5b505050506040513d601f19601f82011682018060405250810190612d7e919061394a565b60405163503160d960e01b815260048101849052909150309063503160d990602401600060405180830381600087803b158015612dba57600080fd5b505af1158015612dce573d6000803e3d6000fd5b505050506000612e54846001600160a01b03166370a08231306040518263ffffffff1660e01b8152600401612e039190613646565b602060405180830381865afa158015612e20573d6000803e3d6000fd5b505050506040513d601f19601f82011682018060405250810190612e44919061394a565b612e4e9084613937565b846129d0565b905080856004016000828254612e6a91906139e1565b90915550508083036003860155612e818887612918565b60408051888152602081018890526001600160a01b038a169133917fdcbc1c05240f31ff3ad067ef1ee35ce4997762752e3a095284754544f4c709d7910160405180910390a35050505050505050565b60006001600160a01b038616612ef95760405162461bcd60e51b8152600401610a4290613b35565b612710821115612f3d5760405162461bcd60e51b815260206004820152600f60248201526e65786365656473204d41585f42505360881b6044820152606401610a42565b336001600160a01b03861614612f5857612f58853385612633565b6000612f6261240c565b600781015460038201549192506001600160a01b0316908681101561316b576040516370a0823160e01b81526000906001600160a01b038416906370a0823190612fb0903090600401613646565b602060405180830381865afa158015612fcd573d6000803e3d6000fd5b505050506040513d601f19601f82011682018060405250810190612ff1919061394a565b604051633d6cb57560e01b8152838a0360048201529091503090633d6cb57590602401600060405180830381600087803b15801561302e57600080fd5b505af1158015613042573d6000803e3d6000fd5b5050505060006130cd82856001600160a01b03166370a08231306040518263ffffffff1660e01b81526004016130789190613646565b602060405180830381865afa158015613095573d6000803e3d6000fd5b505050506040513d601f19601f820116820180604052508101906130b9919061394a565b6130c39190613937565b86600401546129d0565b9283019290506000898410156131455750828903612710881015613141576127106130f8898c6139a8565b61310291906139bf565b8111156131415760405162461bcd60e51b815260206004820152600d60248201526c746f6f206d756368206c6f737360981b6044820152606401610a42565b8399505b61314f81836139e1565b8660040160008282546131629190613937565b90915550505050505b6131758782613937565b600384015561318488876129df565b6131986001600160a01b0383168a89613345565b60408051888152602081018890526001600160a01b03808b1692908c169133917ffbde797d201c681b91056529119e0b02407c7bb96a4a2c75c01fc9667232c8db910160405180910390a45094979650505050505050565b600080806000198587098587029250828110838203039150508060000361322a5783828161322057613220613963565b0492505050610911565b8084116132715760405162461bcd60e51b81526020600482015260156024820152744d6174683a206d756c446976206f766572666c6f7760581b6044820152606401610a42565b60008486880960026001871981018816978890046003810283188082028403028082028403028082028403028082028403028082028403029081029092039091026000889003889004909101858311909403939093029303949094049190911702949350505050565b6040516001600160a01b03808516602483015283166044820152606481018290526126a79085906323b872dd60e01b906084015b60408051601f198184030181529190526020810180516001600160e01b03166001600160e01b031990931692909217909152613375565b6040516001600160a01b038316602482015260448101829052612c7f90849063a9059cbb60e01b9060640161330e565b60006133ca826040518060400160405280602081526020017f5361666545524332303a206c6f772d6c6576656c2063616c6c206661696c6564815250856001600160a01b031661344a9092919063ffffffff16565b90508051600014806133eb5750808060200190518101906133eb9190613def565b612c7f5760405162461bcd60e51b815260206004820152602a60248201527f5361666545524332303a204552433230206f7065726174696f6e20646964206e6044820152691bdd081cdd58d8d9595960b21b6064820152608401610a42565b606061097f848460008585600080866001600160a01b031685876040516134719190613e11565b60006040518083038185875af1925050503d80600081146134ae576040519150601f19603f3d011682016040523d82523d6000602084013e6134b3565b606091505b50915091506134c4878383876134cf565b979650505050505050565b6060831561353e578251600003613537576001600160a01b0385163b6135375760405162461bcd60e51b815260206004820152601d60248201527f416464726573733a2063616c6c20746f206e6f6e2d636f6e74726163740000006044820152606401610a42565b508161097f565b61097f83838151156135535781518083602001fd5b8060405162461bcd60e51b8152600401610a4291906135ce565b6001600160a01b038116811461051357600080fd5b8035611d6b8161356d565b60006020828403121561359f57600080fd5b81356109118161356d565b60005b838110156135c55781810151838201526020016135ad565b50506000910152565b60208152600082518060208401526135ed8160408501602087016135aa565b601f01601f19169190910160400192915050565b60006020828403121561361357600080fd5b5035919050565b6000806040838503121561362d57600080fd5b82356136388161356d565b946020939093013593505050565b6001600160a01b0391909116815260200190565b60008060006060848603121561366f57600080fd5b833561367a8161356d565b9250602084013561368a8161356d565b929592945050506040919091013590565b60008060008060008060a087890312156136b457600080fd5b86356136bf8161356d565b955060208701356001600160401b03808211156136db57600080fd5b818901915089601f8301126136ef57600080fd5b8135818111156136fe57600080fd5b8a602082850101111561371057600080fd5b602083019750809650505050604087013561372a8161356d565b925061373860608801613582565b915061374660808801613582565b90509295509295509295565b6000806040838503121561376557600080fd5b8235915060208301356137778161356d565b809150509250929050565b6000806000806080858703121561379857600080fd5b8435935060208501356137aa8161356d565b925060408501356137ba8161356d565b9396929550929360600135925050565b61ffff8116811461051357600080fd5b6000602082840312156137ec57600080fd5b8135610911816137ca565b60008060006060848603121561380c57600080fd5b83359250602084013561381e8161356d565b9150604084013561382e8161356d565b809150509250925092565b60ff8116811461051357600080fd5b600080600080600080600060e0888a03121561386357600080fd5b873561386e8161356d565b9650602088013561387e8161356d565b95506040880135945060608801359350608088013561389c81613839565b9699959850939692959460a0840135945060c09093013592915050565b600080604083850312156138cc57600080fd5b82356138d78161356d565b915060208301356137778161356d565b600181811c908216806138fb57607f821691505b60208210810361391b57634e487b7160e01b600052602260045260246000fd5b50919050565b634e487b7160e01b600052601160045260246000fd5b8181038181111561094957610949613921565b60006020828403121561395c57600080fd5b5051919050565b634e487b7160e01b600052601260045260246000fd5b6000806040838503121561398c57600080fd5b8251613997816137ca565b60208401519092506137778161356d565b808202811582820484141761094957610949613921565b6000826139dc57634e487b7160e01b600052601260045260246000fd5b500490565b8082018082111561094957610949613921565b634e487b7160e01b600052604160045260246000fd5b601f821115612c7f57600081815260208120601f850160051c81016020861015613a315750805b601f850160051c820191505b81811015613a5057828155600101613a3d565b505050505050565b6001600160401b03831115613a6f57613a6f6139f4565b613a8383613a7d83546138e7565b83613a0a565b6000601f841160018114613ab75760008515613a9f5750838201355b600019600387901b1c1916600186901b178355613b11565b600083815260209020601f19861690835b82811015613ae85786850135825560209485019460019092019101613ac8565b5086821015613b055760001960f88860031b161c19848701351681555b505060018560011b0183555b5050505050565b600060208284031215613b2a57600080fd5b815161091181613839565b6020808252600c908201526b5a45524f204144445245535360a01b604082015260600190565b6020808252600b908201526a5a45524f5f53484152455360a81b604082015260600190565b6020808252600b908201526a5a45524f5f41535345545360a81b604082015260600190565b600060208284031215613bb757600080fd5b81516001600160401b0380821115613bce57600080fd5b818401915084601f830112613be257600080fd5b815181811115613bf457613bf46139f4565b604051601f8201601f19908116603f01168101908382118183101715613c1c57613c1c6139f4565b81604052828152876020848701011115613c3557600080fd5b6134c48360208301602088016135aa565b61797360f01b815260008251613c638160028501602087016135aa565b9190910160020192915050565b600181815b80851115613cab578160001904821115613c9157613c91613921565b80851615613c9e57918102915b93841c9390800290613c75565b509250929050565b600082613cc257506001610949565b81613ccf57506000610949565b8160018114613ce55760028114613cef57613d0b565b6001915050610949565b60ff841115613d0057613d00613921565b50506001821b610949565b5060208310610133831016604e8410600b8410161715613d2e575081810a610949565b613d388383613c70565b8060001904821115613d4c57613d4c613921565b029392505050565b600061091160ff841683613cb3565b634e487b7160e01b600052602160045260246000fd5b6000808354613d87816138e7565b60018281168015613d9f5760018114613db457613de3565b60ff1984168752821515830287019450613de3565b8760005260208060002060005b85811015613dda5781548a820152908401908201613dc1565b50505082870194505b50929695505050505050565b600060208284031215613e0157600080fd5b8151801515811461091157600080fd5b60008251613e238184602087016135aa565b919091019291505056fe6ba4c9372343a5330704905897d65e24797fa48dcc8d6dbd0a5e9bd365c947ebddf252ad1be2c89b69c2b068fc378daa952ba7f163c4a11628f55a4df523b3efa2646970667358221220a463d9ffe705ca3a960bdb1a0f43f9f28d868d1214b6d34dc14b2e6e2c75ca6d64736f6c63430008130033",
  "devdoc": {
    "events": {
      "Approval(address,address,uint256)": {
        "details": "Emitted when the allowance of a `spender` for an `owner` is set by a call to {approve}. `value` is the new allowance."
      },
      "Deposit(address,address,uint256,uint256)": {
        "details": "Emitted when the `caller` has exchanged `assets` for `shares`, and transferred those `shares` to `owner`."
      },
      "NewTokenizedStrategy(address,address,string)": {
        "details": "Emitted on the initialization of any new `strategy` that uses `asset` with this specific `apiVersion`."
      },
      "Reported(uint256,uint256,uint256,uint256)": {
        "details": "Emitted when the strategy reports `profit` or `loss` and `performanceFees` and `protocolFees` are paid out."
      },
      "Transfer(address,address,uint256)": {
        "details": "Emitted when `value` tokens are moved from one account (`from`) to another (`to`). Note that `value` may be zero."
      },
      "Withdraw(address,address,address,uint256,uint256)": {
        "details": "Emitted when the `caller` has exchanged `owner`s `shares` for `assets`, and transferred those `assets` to `receiver`."
      }
    },
    "kind": "dev",
    "methods": {
      "DOMAIN_SEPARATOR()": {
        "details": "This checks that the current chain id is the same as when the contract was deployed to prevent replay attacks. If false it will calculate a new domain separator based on the new chain id.",
        "returns": {
          "_0": "The domain separator that will be used for any {permit} calls."
        }
      },
      "acceptManagement()": {
        "details": "Can only be called by the current `pendingManagement`."
      },
      "allowance(address,address)": {
        "params": {
          "owner": "The address who owns the shares.",
          "spender": "The address who would be moving the owners shares."
        },
        "returns": {
          "_0": "The remaining amount of shares of `owner` that could be moved by `spender`."
        }
      },
      "apiVersion()": {
        "returns": {
          "_0": "The API version for this TokenizedStrategy"
        }
      },
      "approve(address,uint256)": {
        "details": "NOTE: If `amount` is the maximum `uint256`, the allowance is not updated on `transferFrom`. This is semantically equivalent to an infinite approval. Requirements: - `spender` cannot be the zero address. IMPORTANT: Beware that changing an allowance with this method brings the risk that someone may use both the old and the new allowance by unfortunate transaction ordering. One possible solution to mitigate this race condition is to first reduce the spender's allowance to 0 and set the desired value afterwards: https://github.com/ethereum/EIPs/issues/20#issuecomment-263524729 Emits an {Approval} event.",
        "params": {
          "amount": "the amount of shares to allow `spender` to move.",
          "spender": "the address to allow the shares to be moved by."
        },
        "returns": {
          "_0": "a boolean value indicating whether the operation succeeded."
        }
      },
      "asset()": {
        "returns": {
          "_0": "The underlying asset."
        }
      },
      "balanceOf(address)": {
        "details": "If the '_account` is the strategy then this will subtract the amount of shares that have been unlocked since the last profit first.",
        "params": {
          "account": "the address to return the balance for."
        },
        "returns": {
          "_0": "The current balance in y shares of the '_account'."
        }
      },
      "convertToAssets(uint256)": {
        "params": {
          "shares": "The amount of the strategies shares."
        },
        "returns": {
          "_0": "Expected amount of `asset` the shares represents."
        }
      },
      "convertToShares(uint256)": {
        "params": {
          "assets": "The amount of underlying."
        },
        "returns": {
          "_0": "Expected shares that `assets` represents."
        }
      },
      "decimals()": {
        "returns": {
          "_0": "The decimals used for the strategy and `asset`."
        }
      },
      "decreaseAllowance(address,uint256)": {
        "details": "This is an alternative to {approve} that can be used as a mitigation for problems described in {IERC20-approve}. Emits an {Approval} event indicating the updated allowance. Requirements: - `spender` cannot be the zero address. - `spender` must have allowance for the caller of at least `subtractedValue`.",
        "params": {
          "spender": "the account that will be able to move less of the senders shares.",
          "subtractedValue": "the amount to decrease the current allowance by."
        },
        "returns": {
          "_0": "a boolean value indicating whether the operation succeeded."
        }
      },
      "deposit(uint256,address)": {
        "params": {
          "assets": "The amount of underlying to deposit in.",
          "receiver": "The address to receive the `shares`."
        },
        "returns": {
          "shares": "The actual amount of shares issued."
        }
      },
      "emergencyAdmin()": {
        "returns": {
          "_0": "Address of the emergencyAdmin"
        }
      },
      "emergencyWithdraw(uint256)": {
        "details": "This can only be called post {shutdownStrategy}. This will update totalDebt and totalIdle based on the amount of loose `asset` after the withdraw leaving `totalAssets` unchanged. A strategist will need to override the {_emergencyWithdraw} function in their strategy for this to work.",
        "params": {
          "amount": "The amount of asset to attempt to free."
        }
      },
      "fullProfitUnlockDate()": {
        "returns": {
          "_0": "The full profit unlocking timestamp"
        }
      },
      "increaseAllowance(address,uint256)": {
        "details": "This is an alternative to {approve} that can be used as a mitigation for problems described in {IERC20-approve}. Emits an {Approval} event indicating the updated allowance. Requirements: - `spender` cannot be the zero address. - cannot give spender over uint256.max allowance",
        "params": {
          "addedValue": "the extra amount to add to the current allowance.",
          "spender": "the account that will be able to move the senders shares."
        },
        "returns": {
          "_0": "a boolean value indicating whether the operation succeeded."
        }
      },
      "init(address,string,address,address,address)": {
        "details": "This should be called atomically whenever a new strategy is deployed and can only be called once for each strategy. This will set all the default storage that must be set for a strategy to function. Any changes can be made post deployment through external calls from `management`. The function will also emit an event that off chain indexers can look for to track any new deployments using this TokenizedStrategy. This is called through a low level call in the BaseStrategy so any reverts will return the \"init failed\" string.",
        "params": {
          "_asset": "Address of the underlying asset.",
          "_keeper": "Address to set as strategies `keeper`.",
          "_management": "Address to set as the strategies `management`.",
          "_name": "Name the strategy will use.",
          "_performanceFeeRecipient": "Address to receive performance fees."
        }
      },
      "isEmergencyAuthorized(address)": {
        "details": "Is left public so that it can be used by the Strategy. When the Strategy calls this the msg.sender would be the address of the strategy so we need to specify the sender. Will return `true` if the check passed.",
        "params": {
          "_sender": "The original msg.sender."
        }
      },
      "isKeeperOrManagement(address)": {
        "details": "Is left public so that it can be used by the Strategy. When the Strategy calls this the msg.sender would be the address of the strategy so we need to specify the sender. Will return `true` if the check passed.",
        "params": {
          "_sender": "The original msg.sender."
        }
      },
      "isManagement(address)": {
        "details": "Is left public so that it can be used by the Strategy. When the Strategy calls this the msg.sender would be the address of the strategy so we need to specify the sender. Will return `true` if the check passed.",
        "params": {
          "_sender": "The original msg.sender."
        }
      },
      "isShutdown()": {
        "returns": {
          "_0": "Whether or not the strategy is shutdown."
        }
      },
      "keeper()": {
        "returns": {
          "_0": "Address of the keeper"
        }
      },
      "lastReport()": {
        "returns": {
          "_0": "The last report."
        }
      },
      "management()": {
        "returns": {
          "_0": "Address of management"
        }
      },
      "maxDeposit(address)": {
        "params": {
          "owner": "The address depositing."
        },
        "returns": {
          "_0": "The max that `owner` can deposit in `asset`."
        }
      },
      "maxMint(address)": {
        "params": {
          "owner": "The address minting."
        },
        "returns": {
          "_maxMint": "The max that `owner` can mint in shares."
        }
      },
      "maxRedeem(address)": {
        "params": {
          "owner": "The owner of the shares."
        },
        "returns": {
          "_maxRedeem": "Max amount of shares that can be redeemed."
        }
      },
      "maxWithdraw(address)": {
        "params": {
          "owner": "The owner of the shares."
        },
        "returns": {
          "_maxWithdraw": "Max amount of `asset` that can be withdrawn."
        }
      },
      "mint(uint256,address)": {
        "params": {
          "receiver": "The address to receive the `shares`.",
          "shares": "The amount of strategy shares mint."
        },
        "returns": {
          "assets": "The actual amount of asset deposited."
        }
      },
      "name()": {
        "returns": {
          "_0": "The name the strategy is using for its token."
        }
      },
      "nonces(address)": {
        "details": "Every successful call to {permit} increases ``owner``'s nonce by one. This prevents a signature from being used multiple times.",
        "params": {
          "_owner": "the address of the account to return the nonce for."
        },
        "returns": {
          "_0": "the current nonce for the account."
        }
      },
      "pendingManagement()": {
        "returns": {
          "_0": "Address of pendingManagement"
        }
      },
      "performanceFee()": {
        "returns": {
          "_0": "Current performance fee."
        }
      },
      "performanceFeeRecipient()": {
        "returns": {
          "_0": "Address of performanceFeeRecipient"
        }
      },
      "permit(address,address,uint256,uint256,uint8,bytes32,bytes32)": {
        "details": "IMPORTANT: The same issues {IERC20-approve} has related to transaction ordering also apply here. Emits an {Approval} event. Requirements: - `spender` cannot be the zero address. - `deadline` must be a timestamp in the future. - `v`, `r` and `s` must be a valid `secp256k1` signature from `owner` over the EIP712-formatted function arguments. - the signature must use ``owner``'s current nonce (see {nonces}). For more information on the signature format, see the https://eips.ethereum.org/EIPS/eip-2612#specification[relevant EIP section]."
      },
      "previewDeposit(uint256)": {
        "details": "This will round down.",
        "params": {
          "assets": "The amount of `asset` to deposits."
        },
        "returns": {
          "_0": "Expected shares that would be issued."
        }
      },
      "previewMint(uint256)": {
        "details": "This is used instead of convertToAssets so that it can round up for safer mints.",
        "params": {
          "shares": "The amount of shares to mint."
        },
        "returns": {
          "_0": "The needed amount of `asset` for the mint."
        }
      },
      "previewRedeem(uint256)": {
        "details": "This will round down.",
        "params": {
          "shares": "The amount of shares that would be redeemed."
        },
        "returns": {
          "_0": "The amount of `asset` that would be returned."
        }
      },
      "previewWithdraw(uint256)": {
        "details": "This is used instead of convertToShares so that it can round up for safer withdraws.",
        "params": {
          "assets": "The amount of `asset` that would be withdrawn."
        },
        "returns": {
          "_0": "The amount of shares that would be burnt."
        }
      },
      "pricePerShare()": {
        "details": "This value offers limited precision. Integrations that require exact precision should use convertToAssets or convertToShares instead.",
        "returns": {
          "_0": "The price per share."
        }
      },
      "profitMaxUnlockTime()": {
        "returns": {
          "_0": "The current profit max unlock time."
        }
      },
      "profitUnlockingRate()": {
        "details": "This is denominated in EXTENDED_BPS decimals.",
        "returns": {
          "_0": "The current profit unlocking rate."
        }
      },
      "redeem(uint256,address,address)": {
        "details": "This will default to allowing any loss passed to be realized.",
        "params": {
          "owner": "The address whose shares are burnt.",
          "receiver": "The address to receive `assets`.",
          "shares": "The amount of shares burnt."
        },
        "returns": {
          "_0": "assets The actual amount of underlying withdrawn."
        }
      },
      "redeem(uint256,address,address,uint256)": {
        "details": "This includes an added parameter to allow for losses.",
        "params": {
          "maxLoss": "The amount of acceptable loss in Basis points.",
          "owner": "The address whose shares are burnt.",
          "receiver": "The address to receive `assets`.",
          "shares": "The amount of shares burnt."
        },
        "returns": {
          "_0": "The actual amount of underlying withdrawn."
        }
      },
      "report()": {
        "details": "This should be called through protected relays if swaps are likely occur. This will account for any gains/losses since the last report and charge fees accordingly. Any profit over the fees charged will be immediately locked so there is no change in PricePerShare. Then slowly unlocked over the `maxProfitUnlockTime` each second based on the calculated `profitUnlockingRate`. In case of a loss it will first attempt to offset the loss with any remaining locked shares from the last report in order to reduce any negative impact to PPS. Will then recalculate the new time to unlock profits over and the rate based on a weighted average of any remaining time from the last report and the new amount of shares to be locked.",
        "returns": {
          "loss": "The notional amount of loss if any since the last report in terms of `asset`.",
          "profit": "The notional amount of gain if any since the last report in terms of `asset`."
        }
      },
      "setEmergencyAdmin(address)": {
        "details": "Can only be called by the current `management`.",
        "params": {
          "_emergencyAdmin": "New address to set `emergencyAdmin` to."
        }
      },
      "setKeeper(address)": {
        "details": "Can only be called by the current `management`.",
        "params": {
          "_keeper": "New address to set `keeper` to."
        }
      },
      "setPendingManagement(address)": {
        "details": "Can only be called by the current `management`. The address is set to pending management and will then have to call {acceptManagement} in order for the 'management' to officially change. Cannot set `management` to address(0).",
        "params": {
          "_management": "New address to set `pendingManagement` to."
        }
      },
      "setPerformanceFee(uint16)": {
        "details": "Can only be called by the current `management`. Denominated in Basis Points. So 100% == 10_000. Cannot be set less than the MIN_FEE. Cannot set greater than to MAX_FEE.",
        "params": {
          "_performanceFee": "New performance fee."
        }
      },
      "setPerformanceFeeRecipient(address)": {
        "details": "Can only be called by the current `management`. Cannot set to address(0).",
        "params": {
          "_performanceFeeRecipient": "New address to set `management` to."
        }
      },
      "setProfitMaxUnlockTime(uint256)": {
        "details": "Can only be called by the current `management`. Denominated in seconds and cannot be greater than 1 year. NOTE: Setting to 0 will cause all currently locked profit to be unlocked instantly and should be done with care. `profitMaxUnlockTime` is stored as a uint32 for packing but can be passed in as uint256 for simplicity.",
        "params": {
          "_profitMaxUnlockTime": "New `profitMaxUnlockTime`."
        }
      },
      "shutdownStrategy()": {
        "details": "Can only be called by the current `management` or `emergencyAdmin`. This will stop any new {deposit} or {mint} calls but will not prevent {withdraw} or {redeem}. It will also still allow for {tend} and {report} so that management can report any last losses in an emergency as well as provide any maintenance to allow for full withdraw. This is a one way switch and can never be set back once shutdown."
      },
      "symbol()": {
        "details": "Will be 'ys + asset symbol'.",
        "returns": {
          "_0": "The symbol the strategy is using for its tokens."
        }
      },
      "tend()": {
        "details": "Both 'tendTrigger' and '_tend' will need to be overridden for this to be used. This will callback the internal '_tend' call in the BaseStrategy with the total current amount available to the strategy to deploy. Keepers are expected to use protected relays in tend calls so this can be used for illiquid or manipulatable strategies to compound rewards, perform maintenance or deposit/withdraw funds. All accounting for totalDebt and totalIdle updates will be done here post '_tend'. This should never cause an increase in PPS. Total assets should be the same before and after A report() call will be needed to record the profit."
      },
      "totalAssets()": {
        "returns": {
          "_0": "Total assets the strategy holds."
        }
      },
      "totalDebt()": {
        "returns": {
          "_0": "The current amount of debt."
        }
      },
      "totalIdle()": {
        "returns": {
          "_0": "The current amount of idle funds."
        }
      },
      "totalSupply()": {
        "returns": {
          "_0": "Total amount of shares issued."
        }
      },
      "transfer(address,uint256)": {
        "details": "Requirements: - `to` cannot be the zero address. - `to` cannot be the address of the strategy. - the caller must have a balance of at least `_amount`.",
        "params": {
          "amount": "The amount of shares to be transferred from sender.",
          "to": "The address shares will be transferred to."
        },
        "returns": {
          "_0": "a boolean value indicating whether the operation succeeded."
        }
      },
      "transferFrom(address,address,uint256)": {
        "details": "Emits an {Approval} event indicating the updated allowance. This is not required by the EIP. NOTE: Does not update the allowance if the current allowance is the maximum `uint256`. Requirements: - `from` and `to` cannot be the zero address. - `to` cannot be the address of the strategy. - `from` must have a balance of at least `amount`. - the caller must have allowance for ``from``'s tokens of at least `amount`. Emits a {Transfer} event.",
        "params": {
          "amount": "the quantity of shares to move.",
          "from": "the address to be moving shares from.",
          "to": "the address to be moving shares to."
        },
        "returns": {
          "_0": "a boolean value indicating whether the operation succeeded."
        }
      },
      "unlockedShares()": {
        "returns": {
          "_0": "The amount of shares that have unlocked."
        }
      },
      "withdraw(uint256,address,address)": {
        "details": "This will default to not allowing any loss to be taken.",
        "params": {
          "assets": "The amount of underlying to withdraw.",
          "owner": "The address whose shares are burnt.",
          "receiver": "The address to receive `assets`."
        },
        "returns": {
          "shares": "The actual amount of shares burnt."
        }
      },
      "withdraw(uint256,address,address,uint256)": {
        "details": "This includes an added parameter to allow for losses.",
        "params": {
          "assets": "The amount of underlying to withdraw.",
          "maxLoss": "The amount of acceptable loss in Basis points.",
          "owner": "The address whose shares are burnt.",
          "receiver": "The address to receive `assets`."
        },
        "returns": {
          "shares": "The actual amount of shares burnt."
        }
      }
    },
    "version": 1
  },
  "userdoc": {
    "events": {
      "StrategyShutdown()": {
        "notice": "Emitted when a strategy is shutdown."
      },
      "UpdateEmergencyAdmin(address)": {
        "notice": "Emitted when the 'emergencyAdmin' address is updated to 'newEmergencyAdmin'."
      },
      "UpdateKeeper(address)": {
        "notice": "Emitted when the 'keeper' address is updated to 'newKeeper'."
      },
      "UpdateManagement(address)": {
        "notice": "Emitted when the 'management' address is updated to 'newManagement'."
      },
      "UpdatePendingManagement(address)": {
        "notice": "Emitted when the 'pendingManagement' address is updated to 'newPendingManagement'."
      },
      "UpdatePerformanceFee(uint16)": {
        "notice": "Emitted when the 'performanceFee' is updated to 'newPerformanceFee'."
      },
      "UpdatePerformanceFeeRecipient(address)": {
        "notice": "Emitted when the 'performanceFeeRecipient' address is updated to 'newPerformanceFeeRecipient'."
      },
      "UpdatedProfitMaxUnlockTime(uint256)": {
        "notice": "Emitted when the 'profitMaxUnlockTime' is updated to 'newProfitMaxUnlockTime'."
      }
    },
    "kind": "user",
    "methods": {
      "BASE_STRATEGY_STORAGE()": {
        "notice": "Private variables and functions used in this mock."
      },
      "DOMAIN_SEPARATOR()": {
        "notice": "Returns the domain separator used in the encoding of the signature for {permit}, as defined by {EIP712}."
      },
      "FACTORY()": {
        "notice": "Address of the previously deployed Vault factory that theprotocol fee config is retrieved from.NOTE: This will be set to deployed factory. deterministic address for testing is used now"
      },
      "MIN_FEE()": {
        "notice": "Minimum in Basis points the Performance fee can be set to.Used to disincentive forking strategies just to lower fees."
      },
      "acceptManagement()": {
        "notice": "Step two of two to set a new 'management' of the strategy."
      },
      "allowance(address,address)": {
        "notice": "Returns the remaining number of tokens that `spender` will be allowed to spend on behalf of `owner` through {transferFrom}. This is zero by default. This value changes when {approve} or {transferFrom} are called."
      },
      "apiVersion()": {
        "notice": "Get the API version for this TokenizedStrategy."
      },
      "approve(address,uint256)": {
        "notice": "Sets `amount` as the allowance of `spender` over the caller's tokens."
      },
      "asset()": {
        "notice": "Get the underlying asset for the strategy."
      },
      "balanceOf(address)": {
        "notice": "Returns the current balance for a given '_account'."
      },
      "convertToAssets(uint256)": {
        "notice": "The amount of assets that the strategy would exchange for the amount of shares provided, in an ideal scenario where all the conditions are met."
      },
      "convertToShares(uint256)": {
        "notice": "The amount of shares that the strategy would exchange for the amount of assets provided, in an ideal scenario where all the conditions are met."
      },
      "decimals()": {
        "notice": "Returns the number of decimals used to get its user representation."
      },
      "decreaseAllowance(address,uint256)": {
        "notice": "Atomically decreases the allowance granted to `spender` by the caller."
      },
      "deposit(uint256,address)": {
        "notice": "Mints `shares` of strategy shares to `receiver` by depositing exactly `assets` of underlying tokens."
      },
      "emergencyAdmin()": {
        "notice": "Get the current address that can shutdown and emergency withdraw."
      },
      "emergencyWithdraw(uint256)": {
        "notice": "To manually withdraw funds from the yield source after a strategy has been shutdown."
      },
      "fullProfitUnlockDate()": {
        "notice": "Gets the timestamp at which all profits will be unlocked."
      },
      "increaseAllowance(address,uint256)": {
        "notice": "Atomically increases the allowance granted to `spender` by the caller."
      },
      "init(address,string,address,address,address)": {
        "notice": "Used to initialize storage for a newly deployed strategy."
      },
      "isEmergencyAuthorized(address)": {
        "notice": "To check if a sender is the keeper or emergency admin for a specific strategy."
      },
      "isKeeperOrManagement(address)": {
        "notice": "To check if a sender is the keeper or management for a specific strategy."
      },
      "isManagement(address)": {
        "notice": "To check if a sender is the management for a specific strategy."
      },
      "isShutdown()": {
        "notice": "To check if the strategy has been shutdown."
      },
      "keeper()": {
        "notice": "Get the current address that can call tend and report."
      },
      "lastReport()": {
        "notice": "The timestamp of the last time protocol fees were charged."
      },
      "management()": {
        "notice": "Get the current address that controls the strategy."
      },
      "maxDeposit(address)": {
        "notice": "Total number of underlying assets that can be deposited by `_owner` into the strategy, where `owner` corresponds to the receiver of a {deposit} call."
      },
      "maxMint(address)": {
        "notice": "Total number of shares that can be minted by `owner` into the strategy, where `_owner` corresponds to the receiver of a {mint} call."
      },
      "maxRedeem(address)": {
        "notice": "Total number of strategy shares that can be redeemed from the strategy by `owner`, where `owner` corresponds to the msg.sender of a {redeem} call."
      },
      "maxWithdraw(address)": {
        "notice": "Total number of underlying assets that can be withdrawn from the strategy by `owner`, where `owner` corresponds to the msg.sender of a {redeem} call."
      },
      "mint(uint256,address)": {
        "notice": "Mints exactly `shares` of strategy shares to `receiver` by depositing `assets` of underlying tokens."
      },
      "name()": {
        "notice": "Returns the name of the token."
      },
      "nonces(address)": {
        "notice": "Returns the current nonce for `owner`. This value must be included whenever a signature is generated for {permit}."
      },
      "pendingManagement()": {
        "notice": "Get the current pending management address if any."
      },
      "performanceFee()": {
        "notice": "Get the current performance fee charged on profits. denominated in Basis Points where 10_000 == 100%"
      },
      "performanceFeeRecipient()": {
        "notice": "Get the current address that receives the performance fees."
      },
      "permit(address,address,uint256,uint256,uint8,bytes32,bytes32)": {
        "notice": "Sets `value` as the allowance of `spender` over ``owner``'s tokens, given ``owner``'s signed approval."
      },
      "previewDeposit(uint256)": {
        "notice": "Allows an on-chain or off-chain user to simulate the effects of their deposit at the current block, given current on-chain conditions."
      },
      "previewMint(uint256)": {
        "notice": "Allows an on-chain or off-chain user to simulate the effects of their mint at the current block, given current on-chain conditions."
      },
      "previewRedeem(uint256)": {
        "notice": "Allows an on-chain or off-chain user to simulate the effects of their redemption at the current block, given current on-chain conditions."
      },
      "previewWithdraw(uint256)": {
        "notice": "Allows an on-chain or off-chain user to simulate the effects of their withdrawal at the current block, given current on-chain conditions."
      },
      "pricePerShare()": {
        "notice": "Get the price per share."
      },
      "profitMaxUnlockTime()": {
        "notice": "Gets the current time profits are set to unlock over."
      },
      "profitUnlockingRate()": {
        "notice": "The per second rate at which profits are unlocking."
      },
      "redeem(uint256,address,address)": {
        "notice": "Redeems exactly `shares` from `owner` and sends `assets` of underlying tokens to `receiver`."
      },
      "redeem(uint256,address,address,uint256)": {
        "notice": "Redeems exactly `shares` from `owner` and sends `assets` of underlying tokens to `receiver`."
      },
      "report()": {
        "notice": "Function for keepers to call to harvest and record all profits accrued."
      },
      "setEmergencyAdmin(address)": {
        "notice": "Sets a new address to be able to shutdown the strategy."
      },
      "setKeeper(address)": {
        "notice": "Sets a new address to be in charge of tend and reports."
      },
      "setPendingManagement(address)": {
        "notice": "Step one of two to set a new address to be in charge of the strategy."
      },
      "setPerformanceFee(uint16)": {
        "notice": "Sets the performance fee to be charged on reported gains."
      },
      "setPerformanceFeeRecipient(address)": {
        "notice": "Sets a new address to receive performance fees."
      },
      "setProfitMaxUnlockTime(uint256)": {
        "notice": "Sets the time for profits to be unlocked over."
      },
      "shutdownStrategy()": {
        "notice": "Used to shutdown the strategy preventing any further deposits."
      },
      "symbol()": {
        "notice": "Returns the symbol of the strategies token."
      },
      "tend()": {
        "notice": "For a 'keeper' to 'tend' the strategy if a custom tendTrigger() is implemented."
      },
      "totalAssets()": {
        "notice": "Get the total amount of assets this strategy holds as of the last report. We manually track debt and idle to avoid any PPS manipulation from donations, touch values of debt etc."
      },
      "totalDebt()": {
        "notice": "Get the current total debt for a strategy."
      },
      "totalIdle()": {
        "notice": "Get the current total idle for a strategy."
      },
      "totalSupply()": {
        "notice": "Get the current supply of the strategies shares. Locked shares issued to the strategy from profits are not counted towards the full supply until they are unlocked. As more shares slowly unlock the totalSupply will decrease causing the PPS of the strategy to increase."
      },
      "transfer(address,uint256)": {
        "notice": "Transfer '_amount` of shares from `msg.sender` to `to`."
      },
      "transferFrom(address,address,uint256)": {
        "notice": "`amount` tokens from `from` to `to` using the allowance mechanism. `amount` is then deducted from the caller's allowance."
      },
      "unlockedShares()": {
        "notice": "Get how many shares have been unlocked since last report."
      },
      "withdraw(uint256,address,address)": {
        "notice": "Withdraws exactly `assets` from `owners` shares and sends the underlying tokens to `receiver`."
      },
      "withdraw(uint256,address,address,uint256)": {
        "notice": "Withdraws `assets` from `owners` shares and sends the underlying tokens to `receiver`."
      }
    },
    "version": 1
  },
  "storageLayout": {
    "storage": [
      {
        "astId": 796,
        "contract": "contracts/test/mocks/MockTokenizedStrategy.sol:MockTokenizedStrategy",
        "label": "_status",
        "offset": 0,
        "slot": "0",
        "type": "t_uint256"
      },
      {
        "astId": 9701,
        "contract": "contracts/test/mocks/MockTokenizedStrategy.sol:MockTokenizedStrategy",
        "label": "minDebt",
        "offset": 0,
        "slot": "1",
        "type": "t_uint256"
      },
      {
        "astId": 9708,
        "contract": "contracts/test/mocks/MockTokenizedStrategy.sol:MockTokenizedStrategy",
        "label": "maxDebt",
        "offset": 0,
        "slot": "2",
        "type": "t_uint256"
      }
    ],
    "types": {
      "t_uint256": {
        "encoding": "inplace",
        "label": "uint256",
        "numberOfBytes": "32"
      }
    }
  }
}