{
  "address": "0x6303479B3cf428ba793133f8cdE84AC527897e46",
  "abi": [
    {
      "inputs": [
        {
          "internalType": "address",
          "name": "_asset",
          "type": "address"
        },
        {
          "internalType": "uint8",
          "name": "_decimals",
          "type": "uint8"
        },
        {
          "internalType": "string",
          "name": "_name",
          "type": "string"
        },
        {
          "internalType": "string",
          "name": "_symbol",
          "type": "string"
        }
      ],
      "stateMutability": "nonpayable",
      "type": "constructor"
    },
    {
      "inputs": [],
      "name": "ERC20InsufficientAllowance",
      "type": "error"
    },
    {
      "inputs": [],
      "name": "ERC20PermitExpired",
      "type": "error"
    },
    {
      "inputs": [],
      "name": "ERC20PermitInvalidSignature",
      "type": "error"
    },
    {
      "inputs": [],
      "name": "ExceedDepositLimit",
      "type": "error"
    },
    {
      "inputs": [],
      "name": "InactiveStrategy",
      "type": "error"
    },
    {
      "inputs": [],
      "name": "InsufficientAssets",
      "type": "error"
    },
    {
      "inputs": [],
      "name": "InsufficientFunds",
      "type": "error"
    },
    {
      "inputs": [],
      "name": "InsufficientShares",
      "type": "error"
    },
    {
      "inputs": [],
      "name": "InvalidAssetDecimals",
      "type": "error"
    },
    {
      "inputs": [],
      "name": "MaxLoss",
      "type": "error"
    },
    {
      "inputs": [],
      "name": "StrategyDebtIsLessThanAssetsNeeded",
      "type": "error"
    },
    {
      "inputs": [],
      "name": "StrategyIsShutdown",
      "type": "error"
    },
    {
      "inputs": [],
      "name": "TooMuchLoss",
      "type": "error"
    },
    {
      "inputs": [],
      "name": "UsingModule",
      "type": "error"
    },
    {
      "inputs": [],
      "name": "ZeroAddress",
      "type": "error"
    },
    {
      "inputs": [],
      "name": "ZeroValue",
      "type": "error"
    },
    {
      "anonymous": false,
      "inputs": [
        {
          "indexed": true,
          "internalType": "address",
          "name": "owner",
          "type": "address"
        },
        {
          "indexed": true,
          "internalType": "address",
          "name": "spender",
          "type": "address"
        },
        {
          "indexed": false,
          "internalType": "uint256",
          "name": "value",
          "type": "uint256"
        }
      ],
      "name": "Approval",
      "type": "event"
    },
    {
      "anonymous": false,
      "inputs": [
        {
          "indexed": true,
          "internalType": "address",
          "name": "strategy",
          "type": "address"
        },
        {
          "indexed": false,
          "internalType": "uint256",
          "name": "amount",
          "type": "uint256"
        }
      ],
      "name": "DebtPurchased",
      "type": "event"
    },
    {
      "anonymous": false,
      "inputs": [
        {
          "indexed": true,
          "internalType": "address",
          "name": "strategy",
          "type": "address"
        },
        {
          "indexed": false,
          "internalType": "uint256",
          "name": "currentDebt",
          "type": "uint256"
        },
        {
          "indexed": false,
          "internalType": "uint256",
          "name": "newDebt",
          "type": "uint256"
        }
      ],
      "name": "DebtUpdated",
      "type": "event"
    },
    {
      "anonymous": false,
      "inputs": [
        {
          "indexed": true,
          "internalType": "address",
          "name": "sender",
          "type": "address"
        },
        {
          "indexed": true,
          "internalType": "address",
          "name": "owner",
          "type": "address"
        },
        {
          "indexed": false,
          "internalType": "uint256",
          "name": "assets",
          "type": "uint256"
        },
        {
          "indexed": false,
          "internalType": "uint256",
          "name": "shares",
          "type": "uint256"
        }
      ],
      "name": "Deposit",
      "type": "event"
    },
    {
      "anonymous": false,
      "inputs": [
        {
          "indexed": true,
          "internalType": "address",
          "name": "account",
          "type": "address"
        },
        {
          "indexed": false,
          "internalType": "bytes32",
          "name": "role",
          "type": "bytes32"
        }
      ],
      "name": "RoleSet",
      "type": "event"
    },
    {
      "anonymous": false,
      "inputs": [
        {
          "indexed": true,
          "internalType": "bytes32",
          "name": "role",
          "type": "bytes32"
        },
        {
          "indexed": true,
          "internalType": "enum RoleStatusChange",
          "name": "status",
          "type": "uint8"
        }
      ],
      "name": "RoleStatusChanged",
      "type": "event"
    },
    {
      "anonymous": false,
      "inputs": [],
      "name": "Shutdown",
      "type": "event"
    },
    {
      "anonymous": false,
      "inputs": [
        {
          "indexed": true,
          "internalType": "address",
          "name": "strategy",
          "type": "address"
        },
        {
          "indexed": false,
          "internalType": "enum StrategyChangeType",
          "name": "changeType",
          "type": "uint8"
        }
      ],
      "name": "StrategyChanged",
      "type": "event"
    },
    {
      "anonymous": false,
      "inputs": [
        {
          "indexed": true,
          "internalType": "address",
          "name": "strategy",
          "type": "address"
        },
        {
          "indexed": false,
          "internalType": "uint256",
          "name": "gain",
          "type": "uint256"
        },
        {
          "indexed": false,
          "internalType": "uint256",
          "name": "loss",
          "type": "uint256"
        },
        {
          "indexed": false,
          "internalType": "uint256",
          "name": "currentDebt",
          "type": "uint256"
        },
        {
          "indexed": false,
          "internalType": "uint256",
          "name": "protocolFees",
          "type": "uint256"
        },
        {
          "indexed": false,
          "internalType": "uint256",
          "name": "totalFees",
          "type": "uint256"
        },
        {
          "indexed": false,
          "internalType": "uint256",
          "name": "totalRefunds",
          "type": "uint256"
        }
      ],
      "name": "StrategyReported",
      "type": "event"
    },
    {
      "anonymous": false,
      "inputs": [
        {
          "indexed": true,
          "internalType": "address",
          "name": "from",
          "type": "address"
        },
        {
          "indexed": true,
          "internalType": "address",
          "name": "to",
          "type": "address"
        },
        {
          "indexed": false,
          "internalType": "uint256",
          "name": "value",
          "type": "uint256"
        }
      ],
      "name": "Transfer",
      "type": "event"
    },
    {
      "anonymous": false,
      "inputs": [
        {
          "indexed": true,
          "internalType": "address",
          "name": "accountant",
          "type": "address"
        }
      ],
      "name": "UpdateAccountant",
      "type": "event"
    },
    {
      "anonymous": false,
      "inputs": [
        {
          "indexed": false,
          "internalType": "address[]",
          "name": "newDefaultQueue",
          "type": "address[]"
        }
      ],
      "name": "UpdateDefaultQueue",
      "type": "event"
    },
    {
      "anonymous": false,
      "inputs": [
        {
          "indexed": false,
          "internalType": "uint256",
          "name": "depositLimit",
          "type": "uint256"
        }
      ],
      "name": "UpdateDepositLimit",
      "type": "event"
    },
    {
      "anonymous": false,
      "inputs": [
        {
          "indexed": true,
          "internalType": "address",
          "name": "depositLimitModule",
          "type": "address"
        }
      ],
      "name": "UpdateDepositLimitModule",
      "type": "event"
    },
    {
      "anonymous": false,
      "inputs": [
        {
          "indexed": false,
          "internalType": "uint256",
          "name": "minimumTotalIdle",
          "type": "uint256"
        }
      ],
      "name": "UpdateMinimumTotalIdle",
      "type": "event"
    },
    {
      "anonymous": false,
      "inputs": [
        {
          "indexed": false,
          "internalType": "uint256",
          "name": "profitMaxUnlockTime",
          "type": "uint256"
        }
      ],
      "name": "UpdateProfitMaxUnlockTime",
      "type": "event"
    },
    {
      "anonymous": false,
      "inputs": [
        {
          "indexed": true,
          "internalType": "address",
          "name": "roleManager",
          "type": "address"
        }
      ],
      "name": "UpdateRoleManager",
      "type": "event"
    },
    {
      "anonymous": false,
      "inputs": [
        {
          "indexed": false,
          "internalType": "bool",
          "name": "useDefaultQueue",
          "type": "bool"
        }
      ],
      "name": "UpdateUseDefaultQueue",
      "type": "event"
    },
    {
      "anonymous": false,
      "inputs": [
        {
          "indexed": true,
          "internalType": "address",
          "name": "withdrawLimitModule",
          "type": "address"
        }
      ],
      "name": "UpdateWithdrawLimitModule",
      "type": "event"
    },
    {
      "anonymous": false,
      "inputs": [
        {
          "indexed": true,
          "internalType": "address",
          "name": "sender",
          "type": "address"
        },
        {
          "indexed": true,
          "internalType": "address",
          "name": "strategy",
          "type": "address"
        },
        {
          "indexed": false,
          "internalType": "uint256",
          "name": "newDebt",
          "type": "uint256"
        }
      ],
      "name": "UpdatedMaxDebtForStrategy",
      "type": "event"
    },
    {
      "anonymous": false,
      "inputs": [
        {
          "indexed": true,
          "internalType": "address",
          "name": "sender",
          "type": "address"
        },
        {
          "indexed": true,
          "internalType": "address",
          "name": "receiver",
          "type": "address"
        },
        {
          "indexed": true,
          "internalType": "address",
          "name": "owner",
          "type": "address"
        },
        {
          "indexed": false,
          "internalType": "uint256",
          "name": "assets",
          "type": "uint256"
        },
        {
          "indexed": false,
          "internalType": "uint256",
          "name": "shares",
          "type": "uint256"
        }
      ],
      "name": "Withdraw",
      "type": "event"
    },
    {
      "inputs": [],
      "name": "ACCOUNTANT_MANAGER",
      "outputs": [
        {
          "internalType": "bytes32",
          "name": "",
          "type": "bytes32"
        }
      ],
      "stateMutability": "view",
      "type": "function"
    },
    {
      "inputs": [],
      "name": "ADD_STRATEGY_MANAGER",
      "outputs": [
        {
          "internalType": "bytes32",
          "name": "",
          "type": "bytes32"
        }
      ],
      "stateMutability": "view",
      "type": "function"
    },
    {
      "inputs": [],
      "name": "API_VERSION",
      "outputs": [
        {
          "internalType": "string",
          "name": "",
          "type": "string"
        }
      ],
      "stateMutability": "view",
      "type": "function"
    },
    {
      "inputs": [],
      "name": "ASSET",
      "outputs": [
        {
          "internalType": "contract IERC20",
          "name": "",
          "type": "address"
        }
      ],
      "stateMutability": "view",
      "type": "function"
    },
    {
      "inputs": [],
      "name": "DEBT_MANAGER",
      "outputs": [
        {
          "internalType": "bytes32",
          "name": "",
          "type": "bytes32"
        }
      ],
      "stateMutability": "view",
      "type": "function"
    },
    {
      "inputs": [],
      "name": "DEBT_PURCHASER",
      "outputs": [
        {
          "internalType": "bytes32",
          "name": "",
          "type": "bytes32"
        }
      ],
      "stateMutability": "view",
      "type": "function"
    },
    {
      "inputs": [],
      "name": "DECIMALS",
      "outputs": [
        {
          "internalType": "uint8",
          "name": "",
          "type": "uint8"
        }
      ],
      "stateMutability": "view",
      "type": "function"
    },
    {
      "inputs": [],
      "name": "DEPOSIT_LIMIT_MANAGER",
      "outputs": [
        {
          "internalType": "bytes32",
          "name": "",
          "type": "bytes32"
        }
      ],
      "stateMutability": "view",
      "type": "function"
    },
    {
      "inputs": [],
      "name": "DOMAIN_SEPARATOR",
      "outputs": [
        {
          "internalType": "bytes32",
          "name": "",
          "type": "bytes32"
        }
      ],
      "stateMutability": "view",
      "type": "function"
    },
    {
      "inputs": [],
      "name": "DOMAIN_TYPE_HASH",
      "outputs": [
        {
          "internalType": "bytes32",
          "name": "",
          "type": "bytes32"
        }
      ],
      "stateMutability": "view",
      "type": "function"
    },
    {
      "inputs": [],
      "name": "EMERGENCY_MANAGER",
      "outputs": [
        {
          "internalType": "bytes32",
          "name": "",
          "type": "bytes32"
        }
      ],
      "stateMutability": "view",
      "type": "function"
    },
    {
      "inputs": [],
      "name": "FORCE_REVOKE_MANAGER",
      "outputs": [
        {
          "internalType": "bytes32",
          "name": "",
          "type": "bytes32"
        }
      ],
      "stateMutability": "view",
      "type": "function"
    },
    {
      "inputs": [],
      "name": "MAX_BPS",
      "outputs": [
        {
          "internalType": "uint256",
          "name": "",
          "type": "uint256"
        }
      ],
      "stateMutability": "view",
      "type": "function"
    },
    {
      "inputs": [],
      "name": "MAX_BPS_EXTENDED",
      "outputs": [
        {
          "internalType": "uint256",
          "name": "",
          "type": "uint256"
        }
      ],
      "stateMutability": "view",
      "type": "function"
    },
    {
      "inputs": [],
      "name": "MAX_DEBT_MANAGER",
      "outputs": [
        {
          "internalType": "bytes32",
          "name": "",
          "type": "bytes32"
        }
      ],
      "stateMutability": "view",
      "type": "function"
    },
    {
      "inputs": [],
      "name": "MAX_QUEUE",
      "outputs": [
        {
          "internalType": "uint256",
          "name": "",
          "type": "uint256"
        }
      ],
      "stateMutability": "view",
      "type": "function"
    },
    {
      "inputs": [],
      "name": "MINIMUM_IDLE_MANAGER",
      "outputs": [
        {
          "internalType": "bytes32",
          "name": "",
          "type": "bytes32"
        }
      ],
      "stateMutability": "view",
      "type": "function"
    },
    {
      "inputs": [],
      "name": "ONE_YEAR",
      "outputs": [
        {
          "internalType": "uint256",
          "name": "",
          "type": "uint256"
        }
      ],
      "stateMutability": "view",
      "type": "function"
    },
    {
      "inputs": [],
      "name": "PERMIT_TYPE_HASH",
      "outputs": [
        {
          "internalType": "bytes32",
          "name": "",
          "type": "bytes32"
        }
      ],
      "stateMutability": "view",
      "type": "function"
    },
    {
      "inputs": [],
      "name": "PROFIT_UNLOCK_MANAGER",
      "outputs": [
        {
          "internalType": "bytes32",
          "name": "",
          "type": "bytes32"
        }
      ],
      "stateMutability": "view",
      "type": "function"
    },
    {
      "inputs": [],
      "name": "QUEUE_MANAGER",
      "outputs": [
        {
          "internalType": "bytes32",
          "name": "",
          "type": "bytes32"
        }
      ],
      "stateMutability": "view",
      "type": "function"
    },
    {
      "inputs": [],
      "name": "REPORTING_MANAGER",
      "outputs": [
        {
          "internalType": "bytes32",
          "name": "",
          "type": "bytes32"
        }
      ],
      "stateMutability": "view",
      "type": "function"
    },
    {
      "inputs": [],
      "name": "REVOKE_STRATEGY_MANAGER",
      "outputs": [
        {
          "internalType": "bytes32",
          "name": "",
          "type": "bytes32"
        }
      ],
      "stateMutability": "view",
      "type": "function"
    },
    {
      "inputs": [],
      "name": "ROLE_MANAGER",
      "outputs": [
        {
          "internalType": "bytes32",
          "name": "",
          "type": "bytes32"
        }
      ],
      "stateMutability": "view",
      "type": "function"
    },
    {
      "inputs": [],
      "name": "WITHDRAW_LIMIT_MANAGER",
      "outputs": [
        {
          "internalType": "bytes32",
          "name": "",
          "type": "bytes32"
        }
      ],
      "stateMutability": "view",
      "type": "function"
    },
    {
      "inputs": [],
      "name": "accountant",
      "outputs": [
        {
          "internalType": "address",
          "name": "",
          "type": "address"
        }
      ],
      "stateMutability": "view",
      "type": "function"
    },
    {
      "inputs": [
        {
          "internalType": "address",
          "name": "owner",
          "type": "address"
        },
        {
          "internalType": "address",
          "name": "spender",
          "type": "address"
        }
      ],
      "name": "allowance",
      "outputs": [
        {
          "internalType": "uint256",
          "name": "",
          "type": "uint256"
        }
      ],
      "stateMutability": "view",
      "type": "function"
    },
    {
      "inputs": [
        {
          "internalType": "address",
          "name": "spender",
          "type": "address"
        },
        {
          "internalType": "uint256",
          "name": "amount",
          "type": "uint256"
        }
      ],
      "name": "approve",
      "outputs": [
        {
          "internalType": "bool",
          "name": "",
          "type": "bool"
        }
      ],
      "stateMutability": "nonpayable",
      "type": "function"
    },
    {
      "inputs": [
        {
          "internalType": "address",
          "name": "owner",
          "type": "address"
        },
        {
          "internalType": "address",
          "name": "spender",
          "type": "address"
        },
        {
          "internalType": "uint256",
          "name": "amount",
          "type": "uint256"
        }
      ],
      "name": "approve",
      "outputs": [
        {
          "internalType": "bool",
          "name": "",
          "type": "bool"
        }
      ],
      "stateMutability": "nonpayable",
      "type": "function"
    },
    {
      "inputs": [
        {
          "internalType": "address",
          "name": "strategy",
          "type": "address"
        },
        {
          "internalType": "uint256",
          "name": "assetsNeeded",
          "type": "uint256"
        }
      ],
      "name": "assessShareOfUnrealisedLosses",
      "outputs": [
        {
          "internalType": "uint256",
          "name": "",
          "type": "uint256"
        }
      ],
      "stateMutability": "view",
      "type": "function"
    },
    {
      "inputs": [],
      "name": "asset",
      "outputs": [
        {
          "internalType": "address",
          "name": "",
          "type": "address"
        }
      ],
      "stateMutability": "view",
      "type": "function"
    },
    {
      "inputs": [
        {
          "internalType": "address",
          "name": "addr",
          "type": "address"
        }
      ],
      "name": "balanceOf",
      "outputs": [
        {
          "internalType": "uint256",
          "name": "",
          "type": "uint256"
        }
      ],
      "stateMutability": "view",
      "type": "function"
    },
    {
      "inputs": [
        {
          "internalType": "uint256",
          "name": "shares",
          "type": "uint256"
        },
        {
          "internalType": "address",
          "name": "owner",
          "type": "address"
        }
      ],
      "name": "burnShares",
      "outputs": [],
      "stateMutability": "nonpayable",
      "type": "function"
    },
    {
      "inputs": [],
      "name": "burnUnlockedShares",
      "outputs": [],
      "stateMutability": "nonpayable",
      "type": "function"
    },
    {
      "inputs": [
        {
          "internalType": "uint256",
          "name": "loss",
          "type": "uint256"
        },
        {
          "internalType": "uint256",
          "name": "totalFees",
          "type": "uint256"
        },
        {
          "internalType": "uint256",
          "name": "protocolFees",
          "type": "uint256"
        }
      ],
      "name": "calculateShareManagement",
      "outputs": [
        {
          "components": [
            {
              "internalType": "uint256",
              "name": "sharesToBurn",
              "type": "uint256"
            },
            {
              "internalType": "uint256",
              "name": "accountantFeesShares",
              "type": "uint256"
            },
            {
              "internalType": "uint256",
              "name": "protocolFeesShares",
              "type": "uint256"
            }
          ],
          "internalType": "struct ShareManagement",
          "name": "",
          "type": "tuple"
        }
      ],
      "stateMutability": "view",
      "type": "function"
    },
    {
      "inputs": [
        {
          "internalType": "uint256",
          "name": "shares",
          "type": "uint256"
        }
      ],
      "name": "convertToAssets",
      "outputs": [
        {
          "internalType": "uint256",
          "name": "",
          "type": "uint256"
        }
      ],
      "stateMutability": "view",
      "type": "function"
    },
    {
      "inputs": [
        {
          "internalType": "uint256",
          "name": "shares",
          "type": "uint256"
        },
        {
          "internalType": "enum Rounding",
          "name": "rounding",
          "type": "uint8"
        }
      ],
      "name": "convertToAssets",
      "outputs": [
        {
          "internalType": "uint256",
          "name": "",
          "type": "uint256"
        }
      ],
      "stateMutability": "view",
      "type": "function"
    },
    {
      "inputs": [
        {
          "internalType": "uint256",
          "name": "assets",
          "type": "uint256"
        },
        {
          "internalType": "enum Rounding",
          "name": "rounding",
          "type": "uint8"
        }
      ],
      "name": "convertToShares",
      "outputs": [
        {
          "internalType": "uint256",
          "name": "",
          "type": "uint256"
        }
      ],
      "stateMutability": "view",
      "type": "function"
    },
    {
      "inputs": [
        {
          "internalType": "uint256",
          "name": "assets",
          "type": "uint256"
        }
      ],
      "name": "convertToShares",
      "outputs": [
        {
          "internalType": "uint256",
          "name": "",
          "type": "uint256"
        }
      ],
      "stateMutability": "view",
      "type": "function"
    },
    {
      "inputs": [],
      "name": "decimals",
      "outputs": [
        {
          "internalType": "uint8",
          "name": "",
          "type": "uint8"
        }
      ],
      "stateMutability": "view",
      "type": "function"
    },
    {
      "inputs": [
        {
          "internalType": "address",
          "name": "owner",
          "type": "address"
        },
        {
          "internalType": "address",
          "name": "spender",
          "type": "address"
        },
        {
          "internalType": "uint256",
          "name": "amount",
          "type": "uint256"
        }
      ],
      "name": "decreaseAllowance",
      "outputs": [
        {
          "internalType": "bool",
          "name": "",
          "type": "bool"
        }
      ],
      "stateMutability": "nonpayable",
      "type": "function"
    },
    {
      "inputs": [
        {
          "internalType": "uint256",
          "name": "",
          "type": "uint256"
        }
      ],
      "name": "defaultQueue",
      "outputs": [
        {
          "internalType": "address",
          "name": "",
          "type": "address"
        }
      ],
      "stateMutability": "view",
      "type": "function"
    },
    {
      "inputs": [
        {
          "internalType": "uint256",
          "name": "assets",
          "type": "uint256"
        },
        {
          "internalType": "address",
          "name": "receiver",
          "type": "address"
        }
      ],
      "name": "deposit",
      "outputs": [
        {
          "internalType": "uint256",
          "name": "",
          "type": "uint256"
        }
      ],
      "stateMutability": "nonpayable",
      "type": "function"
    },
    {
      "inputs": [
        {
          "internalType": "address",
          "name": "sender",
          "type": "address"
        },
        {
          "internalType": "address",
          "name": "recipient",
          "type": "address"
        },
        {
          "internalType": "uint256",
          "name": "assets",
          "type": "uint256"
        }
      ],
      "name": "deposit",
      "outputs": [
        {
          "internalType": "uint256",
          "name": "",
          "type": "uint256"
        }
      ],
      "stateMutability": "nonpayable",
      "type": "function"
    },
    {
      "inputs": [],
      "name": "depositLimit",
      "outputs": [
        {
          "internalType": "uint256",
          "name": "",
          "type": "uint256"
        }
      ],
      "stateMutability": "view",
      "type": "function"
    },
    {
      "inputs": [],
      "name": "depositLimitModule",
      "outputs": [
        {
          "internalType": "address",
          "name": "",
          "type": "address"
        }
      ],
      "stateMutability": "view",
      "type": "function"
    },
    {
      "inputs": [
        {
          "internalType": "address",
          "name": "strategy",
          "type": "address"
        },
        {
          "internalType": "uint256",
          "name": "assetsToDeposit",
          "type": "uint256"
        }
      ],
      "name": "depositToStrategy",
      "outputs": [],
      "stateMutability": "nonpayable",
      "type": "function"
    },
    {
      "inputs": [
        {
          "internalType": "address",
          "name": "token",
          "type": "address"
        },
        {
          "internalType": "address",
          "name": "spender",
          "type": "address"
        },
        {
          "internalType": "uint256",
          "name": "amount",
          "type": "uint256"
        }
      ],
      "name": "erc20SafeApprove",
      "outputs": [],
      "stateMutability": "nonpayable",
      "type": "function"
    },
    {
      "inputs": [
        {
          "internalType": "address",
          "name": "token",
          "type": "address"
        },
        {
          "internalType": "address",
          "name": "receiver",
          "type": "address"
        },
        {
          "internalType": "uint256",
          "name": "amount",
          "type": "uint256"
        }
      ],
      "name": "erc20SafeTransfer",
      "outputs": [],
      "stateMutability": "nonpayable",
      "type": "function"
    },
    {
      "inputs": [
        {
          "internalType": "address",
          "name": "token",
          "type": "address"
        },
        {
          "internalType": "address",
          "name": "sender",
          "type": "address"
        },
        {
          "internalType": "address",
          "name": "receiver",
          "type": "address"
        },
        {
          "internalType": "uint256",
          "name": "amount",
          "type": "uint256"
        }
      ],
      "name": "erc20SafeTransferFrom",
      "outputs": [],
      "stateMutability": "nonpayable",
      "type": "function"
    },
    {
      "inputs": [],
      "name": "fullProfitUnlockDate",
      "outputs": [
        {
          "internalType": "uint256",
          "name": "",
          "type": "uint256"
        }
      ],
      "stateMutability": "view",
      "type": "function"
    },
    {
      "inputs": [],
      "name": "futureRoleManager",
      "outputs": [
        {
          "internalType": "address",
          "name": "",
          "type": "address"
        }
      ],
      "stateMutability": "view",
      "type": "function"
    },
    {
      "inputs": [],
      "name": "getMinimumTotalIdle",
      "outputs": [
        {
          "internalType": "uint256",
          "name": "",
          "type": "uint256"
        }
      ],
      "stateMutability": "view",
      "type": "function"
    },
    {
      "inputs": [],
      "name": "getTotalIdleAmount",
      "outputs": [
        {
          "internalType": "uint256",
          "name": "",
          "type": "uint256"
        }
      ],
      "stateMutability": "view",
      "type": "function"
    },
    {
      "inputs": [],
      "name": "governance",
      "outputs": [
        {
          "internalType": "address",
          "name": "",
          "type": "address"
        }
      ],
      "stateMutability": "view",
      "type": "function"
    },
    {
      "inputs": [
        {
          "components": [
            {
              "internalType": "uint256",
              "name": "sharesToBurn",
              "type": "uint256"
            },
            {
              "internalType": "uint256",
              "name": "accountantFeesShares",
              "type": "uint256"
            },
            {
              "internalType": "uint256",
              "name": "protocolFeesShares",
              "type": "uint256"
            }
          ],
          "internalType": "struct ShareManagement",
          "name": "shares",
          "type": "tuple"
        },
        {
          "components": [
            {
              "internalType": "uint256",
              "name": "totalFees",
              "type": "uint256"
            },
            {
              "internalType": "uint256",
              "name": "totalRefunds",
              "type": "uint256"
            },
            {
              "internalType": "uint256",
              "name": "protocolFees",
              "type": "uint256"
            },
            {
              "internalType": "address",
              "name": "protocolFeeRecipient",
              "type": "address"
            }
          ],
          "internalType": "struct FeeAssessment",
          "name": "fees",
          "type": "tuple"
        },
        {
          "internalType": "uint256",
          "name": "gain",
          "type": "uint256"
        },
        {
          "internalType": "uint256",
          "name": "loss",
          "type": "uint256"
        },
        {
          "internalType": "address",
          "name": "strategy",
          "type": "address"
        }
      ],
      "name": "handleShareBurnsAndIssues",
      "outputs": [
        {
          "internalType": "uint256",
          "name": "previouslyLockedShares",
          "type": "uint256"
        },
        {
          "internalType": "uint256",
          "name": "newlyLockedShares",
          "type": "uint256"
        }
      ],
      "stateMutability": "nonpayable",
      "type": "function"
    },
    {
      "inputs": [
        {
          "internalType": "address",
          "name": "owner",
          "type": "address"
        },
        {
          "internalType": "address",
          "name": "spender",
          "type": "address"
        },
        {
          "internalType": "uint256",
          "name": "amount",
          "type": "uint256"
        }
      ],
      "name": "increaseAllowance",
      "outputs": [
        {
          "internalType": "bool",
          "name": "",
          "type": "bool"
        }
      ],
      "stateMutability": "nonpayable",
      "type": "function"
    },
    {
      "inputs": [
        {
          "internalType": "uint256",
          "name": "shares",
          "type": "uint256"
        },
        {
          "internalType": "address",
          "name": "recipient",
          "type": "address"
        }
      ],
      "name": "issueShares",
      "outputs": [],
      "stateMutability": "nonpayable",
      "type": "function"
    },
    {
      "inputs": [
        {
          "internalType": "uint256",
          "name": "amount",
          "type": "uint256"
        },
        {
          "internalType": "address",
          "name": "recipient",
          "type": "address"
        }
      ],
      "name": "issueSharesForAmount",
      "outputs": [
        {
          "internalType": "uint256",
          "name": "",
          "type": "uint256"
        }
      ],
      "stateMutability": "nonpayable",
      "type": "function"
    },
    {
      "inputs": [],
      "name": "lastProfitUpdate",
      "outputs": [
        {
          "internalType": "uint256",
          "name": "",
          "type": "uint256"
        }
      ],
      "stateMutability": "view",
      "type": "function"
    },
    {
      "inputs": [
        {
          "internalType": "uint256",
          "name": "previouslyLockedShares",
          "type": "uint256"
        },
        {
          "internalType": "uint256",
          "name": "newlyLockedShares",
          "type": "uint256"
        }
      ],
      "name": "manageUnlockingOfShares",
      "outputs": [],
      "stateMutability": "nonpayable",
      "type": "function"
    },
    {
      "inputs": [
        {
          "internalType": "address",
          "name": "receiver",
          "type": "address"
        }
      ],
      "name": "maxDeposit",
      "outputs": [
        {
          "internalType": "uint256",
          "name": "",
          "type": "uint256"
        }
      ],
      "stateMutability": "view",
      "type": "function"
    },
    {
      "inputs": [
        {
          "internalType": "address",
          "name": "receiver",
          "type": "address"
        }
      ],
      "name": "maxMint",
      "outputs": [
        {
          "internalType": "uint256",
          "name": "",
          "type": "uint256"
        }
      ],
      "stateMutability": "view",
      "type": "function"
    },
    {
      "inputs": [
        {
          "internalType": "address",
          "name": "owner",
          "type": "address"
        },
        {
          "internalType": "uint256",
          "name": "maxLoss",
          "type": "uint256"
        },
        {
          "internalType": "address[]",
          "name": "_strategies",
          "type": "address[]"
        }
      ],
      "name": "maxRedeem",
      "outputs": [
        {
          "internalType": "uint256",
          "name": "",
          "type": "uint256"
        }
      ],
      "stateMutability": "nonpayable",
      "type": "function"
    },
    {
      "inputs": [
        {
          "internalType": "address",
          "name": "owner",
          "type": "address"
        },
        {
          "internalType": "uint256",
          "name": "_maxLoss",
          "type": "uint256"
        },
        {
          "internalType": "address[]",
          "name": "_strategies",
          "type": "address[]"
        }
      ],
      "name": "maxWithdraw",
      "outputs": [
        {
          "internalType": "uint256",
          "name": "",
          "type": "uint256"
        }
      ],
      "stateMutability": "nonpayable",
      "type": "function"
    },
    {
      "inputs": [],
      "name": "minimumTotalIdle",
      "outputs": [
        {
          "internalType": "uint256",
          "name": "",
          "type": "uint256"
        }
      ],
      "stateMutability": "view",
      "type": "function"
    },
    {
      "inputs": [
        {
          "internalType": "uint256",
          "name": "shares",
          "type": "uint256"
        },
        {
          "internalType": "address",
          "name": "receiver",
          "type": "address"
        }
      ],
      "name": "mint",
      "outputs": [
        {
          "internalType": "uint256",
          "name": "",
          "type": "uint256"
        }
      ],
      "stateMutability": "nonpayable",
      "type": "function"
    },
    {
      "inputs": [
        {
          "internalType": "address",
          "name": "sender",
          "type": "address"
        },
        {
          "internalType": "address",
          "name": "recipient",
          "type": "address"
        },
        {
          "internalType": "uint256",
          "name": "shares",
          "type": "uint256"
        }
      ],
      "name": "mint",
      "outputs": [
        {
          "internalType": "uint256",
          "name": "",
          "type": "uint256"
        }
      ],
      "stateMutability": "nonpayable",
      "type": "function"
    },
    {
      "inputs": [],
      "name": "name",
      "outputs": [
        {
          "internalType": "string",
          "name": "",
          "type": "string"
        }
      ],
      "stateMutability": "view",
      "type": "function"
    },
    {
      "inputs": [
        {
          "internalType": "address",
          "name": "",
          "type": "address"
        }
      ],
      "name": "nonces",
      "outputs": [
        {
          "internalType": "uint256",
          "name": "",
          "type": "uint256"
        }
      ],
      "stateMutability": "view",
      "type": "function"
    },
    {
      "inputs": [
        {
          "internalType": "bytes32",
          "name": "",
          "type": "bytes32"
        }
      ],
      "name": "openRoles",
      "outputs": [
        {
          "internalType": "bool",
          "name": "",
          "type": "bool"
        }
      ],
      "stateMutability": "view",
      "type": "function"
    },
    {
      "inputs": [
        {
          "internalType": "address",
          "name": "owner",
          "type": "address"
        },
        {
          "internalType": "address",
          "name": "spender",
          "type": "address"
        },
        {
          "internalType": "uint256",
          "name": "amount",
          "type": "uint256"
        },
        {
          "internalType": "uint256",
          "name": "deadline",
          "type": "uint256"
        },
        {
          "internalType": "uint8",
          "name": "v",
          "type": "uint8"
        },
        {
          "internalType": "bytes32",
          "name": "r",
          "type": "bytes32"
        },
        {
          "internalType": "bytes32",
          "name": "s",
          "type": "bytes32"
        }
      ],
      "name": "permit",
      "outputs": [
        {
          "internalType": "bool",
          "name": "",
          "type": "bool"
        }
      ],
      "stateMutability": "nonpayable",
      "type": "function"
    },
    {
      "inputs": [
        {
          "internalType": "uint256",
          "name": "assets",
          "type": "uint256"
        }
      ],
      "name": "previewDeposit",
      "outputs": [
        {
          "internalType": "uint256",
          "name": "",
          "type": "uint256"
        }
      ],
      "stateMutability": "view",
      "type": "function"
    },
    {
      "inputs": [
        {
          "internalType": "uint256",
          "name": "shares",
          "type": "uint256"
        }
      ],
      "name": "previewMint",
      "outputs": [
        {
          "internalType": "uint256",
          "name": "",
          "type": "uint256"
        }
      ],
      "stateMutability": "view",
      "type": "function"
    },
    {
      "inputs": [
        {
          "internalType": "uint256",
          "name": "shares",
          "type": "uint256"
        }
      ],
      "name": "previewRedeem",
      "outputs": [
        {
          "internalType": "uint256",
          "name": "",
          "type": "uint256"
        }
      ],
      "stateMutability": "view",
      "type": "function"
    },
    {
      "inputs": [
        {
          "internalType": "uint256",
          "name": "assets",
          "type": "uint256"
        }
      ],
      "name": "previewWithdraw",
      "outputs": [
        {
          "internalType": "uint256",
          "name": "",
          "type": "uint256"
        }
      ],
      "stateMutability": "view",
      "type": "function"
    },
    {
      "inputs": [],
      "name": "profitMaxUnlockTime",
      "outputs": [
        {
          "internalType": "uint256",
          "name": "",
          "type": "uint256"
        }
      ],
      "stateMutability": "view",
      "type": "function"
    },
    {
      "inputs": [],
      "name": "profitUnlockingRate",
      "outputs": [
        {
          "internalType": "uint256",
          "name": "",
          "type": "uint256"
        }
      ],
      "stateMutability": "view",
      "type": "function"
    },
    {
      "inputs": [
        {
          "internalType": "uint256",
          "name": "shares",
          "type": "uint256"
        },
        {
          "internalType": "address",
          "name": "receiver",
          "type": "address"
        },
        {
          "internalType": "address",
          "name": "owner",
          "type": "address"
        },
        {
          "internalType": "uint256",
          "name": "maxLoss",
          "type": "uint256"
        },
        {
          "internalType": "address[]",
          "name": "_strategies",
          "type": "address[]"
        }
      ],
      "name": "redeem",
      "outputs": [
        {
          "internalType": "uint256",
          "name": "",
          "type": "uint256"
        }
      ],
      "stateMutability": "nonpayable",
      "type": "function"
    },
    {
      "inputs": [],
      "name": "roleManager",
      "outputs": [
        {
          "internalType": "address",
          "name": "",
          "type": "address"
        }
      ],
      "stateMutability": "view",
      "type": "function"
    },
    {
      "inputs": [
        {
          "internalType": "address",
          "name": "",
          "type": "address"
        }
      ],
      "name": "roles",
      "outputs": [
        {
          "internalType": "bytes32",
          "name": "",
          "type": "bytes32"
        }
      ],
      "stateMutability": "view",
      "type": "function"
    },
    {
      "inputs": [
        {
          "internalType": "uint256",
          "name": "_depositLimit",
          "type": "uint256"
        }
      ],
      "name": "setDepositLimit",
      "outputs": [],
      "stateMutability": "nonpayable",
      "type": "function"
    },
    {
      "inputs": [
        {
          "internalType": "uint256",
          "name": "_minimumTotalIdle",
          "type": "uint256"
        }
      ],
      "name": "setMinimumTotalIdle",
      "outputs": [],
      "stateMutability": "nonpayable",
      "type": "function"
    },
    {
      "inputs": [
        {
          "internalType": "uint256",
          "name": "_totalDebtAmount",
          "type": "uint256"
        }
      ],
      "name": "setTotalDebtAmount",
      "outputs": [],
      "stateMutability": "nonpayable",
      "type": "function"
    },
    {
      "inputs": [
        {
          "internalType": "uint256",
          "name": "_totalIdleAmount",
          "type": "uint256"
        }
      ],
      "name": "setTotalIdleAmount",
      "outputs": [],
      "stateMutability": "nonpayable",
      "type": "function"
    },
    {
      "inputs": [],
      "name": "setters",
      "outputs": [
        {
          "internalType": "address",
          "name": "",
          "type": "address"
        }
      ],
      "stateMutability": "view",
      "type": "function"
    },
    {
      "inputs": [],
      "name": "sharesManager",
      "outputs": [
        {
          "internalType": "address",
          "name": "",
          "type": "address"
        }
      ],
      "stateMutability": "view",
      "type": "function"
    },
    {
      "inputs": [],
      "name": "shutdown",
      "outputs": [
        {
          "internalType": "bool",
          "name": "",
          "type": "bool"
        }
      ],
      "stateMutability": "view",
      "type": "function"
    },
    {
      "inputs": [
        {
          "internalType": "address",
          "name": "owner",
          "type": "address"
        },
        {
          "internalType": "address",
          "name": "spender",
          "type": "address"
        },
        {
          "internalType": "uint256",
          "name": "amount",
          "type": "uint256"
        }
      ],
      "name": "spendAllowance",
      "outputs": [],
      "stateMutability": "nonpayable",
      "type": "function"
    },
    {
      "inputs": [
        {
          "internalType": "address",
          "name": "",
          "type": "address"
        }
      ],
      "name": "strategies",
      "outputs": [
        {
          "internalType": "uint256",
          "name": "activation",
          "type": "uint256"
        },
        {
          "internalType": "uint256",
          "name": "lastReport",
          "type": "uint256"
        },
        {
          "internalType": "uint256",
          "name": "currentDebt",
          "type": "uint256"
        },
        {
          "internalType": "uint256",
          "name": "maxDebt",
          "type": "uint256"
        }
      ],
      "stateMutability": "view",
      "type": "function"
    },
    {
      "inputs": [],
      "name": "strategyManager",
      "outputs": [
        {
          "internalType": "address",
          "name": "",
          "type": "address"
        }
      ],
      "stateMutability": "view",
      "type": "function"
    },
    {
      "inputs": [],
      "name": "symbol",
      "outputs": [
        {
          "internalType": "string",
          "name": "",
          "type": "string"
        }
      ],
      "stateMutability": "view",
      "type": "function"
    },
    {
      "inputs": [],
      "name": "totalAssets",
      "outputs": [
        {
          "internalType": "uint256",
          "name": "",
          "type": "uint256"
        }
      ],
      "stateMutability": "view",
      "type": "function"
    },
    {
      "inputs": [],
      "name": "totalDebtAmount",
      "outputs": [
        {
          "internalType": "uint256",
          "name": "",
          "type": "uint256"
        }
      ],
      "stateMutability": "view",
      "type": "function"
    },
    {
      "inputs": [],
      "name": "totalIdleAmount",
      "outputs": [
        {
          "internalType": "uint256",
          "name": "",
          "type": "uint256"
        }
      ],
      "stateMutability": "view",
      "type": "function"
    },
    {
      "inputs": [],
      "name": "totalSupply",
      "outputs": [
        {
          "internalType": "uint256",
          "name": "",
          "type": "uint256"
        }
      ],
      "stateMutability": "view",
      "type": "function"
    },
    {
      "inputs": [],
      "name": "totalSupplyAmount",
      "outputs": [
        {
          "internalType": "uint256",
          "name": "",
          "type": "uint256"
        }
      ],
      "stateMutability": "view",
      "type": "function"
    },
    {
      "inputs": [
        {
          "internalType": "address",
          "name": "receiver",
          "type": "address"
        },
        {
          "internalType": "uint256",
          "name": "amount",
          "type": "uint256"
        }
      ],
      "name": "transfer",
      "outputs": [
        {
          "internalType": "bool",
          "name": "",
          "type": "bool"
        }
      ],
      "stateMutability": "nonpayable",
      "type": "function"
    },
    {
      "inputs": [
        {
          "internalType": "address",
          "name": "sender",
          "type": "address"
        },
        {
          "internalType": "address",
          "name": "receiver",
          "type": "address"
        },
        {
          "internalType": "uint256",
          "name": "amount",
          "type": "uint256"
        }
      ],
      "name": "transfer",
      "outputs": [],
      "stateMutability": "nonpayable",
      "type": "function"
    },
    {
      "inputs": [
        {
          "internalType": "address",
          "name": "sender",
          "type": "address"
        },
        {
          "internalType": "address",
          "name": "receiver",
          "type": "address"
        },
        {
          "internalType": "uint256",
          "name": "amount",
          "type": "uint256"
        }
      ],
      "name": "transferFrom",
      "outputs": [
        {
          "internalType": "bool",
          "name": "",
          "type": "bool"
        }
      ],
      "stateMutability": "nonpayable",
      "type": "function"
    },
    {
      "inputs": [],
      "name": "unlockedShares",
      "outputs": [
        {
          "internalType": "uint256",
          "name": "",
          "type": "uint256"
        }
      ],
      "stateMutability": "view",
      "type": "function"
    },
    {
      "inputs": [],
      "name": "useDefaultQueue",
      "outputs": [
        {
          "internalType": "bool",
          "name": "",
          "type": "bool"
        }
      ],
      "stateMutability": "view",
      "type": "function"
    },
    {
      "inputs": [
        {
          "internalType": "uint256",
          "name": "assets",
          "type": "uint256"
        },
        {
          "internalType": "address",
          "name": "receiver",
          "type": "address"
        },
        {
          "internalType": "address",
          "name": "owner",
          "type": "address"
        },
        {
          "internalType": "uint256",
          "name": "maxLoss",
          "type": "uint256"
        },
        {
          "internalType": "address[]",
          "name": "_strategies",
          "type": "address[]"
        }
      ],
      "name": "withdraw",
      "outputs": [
        {
          "internalType": "uint256",
          "name": "",
          "type": "uint256"
        }
      ],
      "stateMutability": "nonpayable",
      "type": "function"
    },
    {
      "inputs": [
        {
          "internalType": "address",
          "name": "strategy",
          "type": "address"
        },
        {
          "internalType": "uint256",
          "name": "assetsToWithdraw",
          "type": "uint256"
        }
      ],
      "name": "withdrawFromStrategy",
      "outputs": [],
      "stateMutability": "nonpayable",
      "type": "function"
    },
    {
      "inputs": [],
      "name": "withdrawLimitModule",
      "outputs": [
        {
          "internalType": "address",
          "name": "",
          "type": "address"
        }
      ],
      "stateMutability": "view",
      "type": "function"
    }
  ],
  "transactionHash": "0x13b63643bcd5124f2bf6b1d2bf9500197aca74d6ebf4166284ddcfd8ac8db12e",
  "args": [
    "0x471Bf3aB739a3e57c71F87B1a5A1D6E4A9a1Df74",
    18,
    "Vault Shares FXD",
    "vFXD"
  ],
  "numDeployments": 1,
  "solcInputHash": "bbf25c455b10ae41b266c3424d7d3b18",
  "bytecode": "0x60e06040526301e185586080523480156200001957600080fd5b5060405162004731380380620047318339810160408190526200003c9162000222565b6001601b5560ff831660c0819052610100116200006c5760405163e236476560e01b815260040160405180910390fd5b6001600160a01b03841660a052601c620000878382620003c5565b50601d620000968282620003c5565b505050505062000495565b60006001600160a01b0382165b92915050565b620000bf81620000a1565b8114620000cb57600080fd5b50565b8051620000ae81620000b4565b60ff8116620000bf565b8051620000ae81620000db565b634e487b7160e01b600052604160045260246000fd5b601f19601f83011681018181106001600160401b0382111715620001305762000130620000f2565b6040525050565b60006200014360405190565b905062000151828262000108565b919050565b60006001600160401b03821115620001725762000172620000f2565b601f19601f83011660200192915050565b60005b83811015620001a057818101518382015260200162000186565b50506000910152565b6000620001c0620001ba8462000156565b62000137565b905082815260208101848484011115620001dd57620001dd600080fd5b620001ea84828562000183565b509392505050565b600082601f830112620002085762000208600080fd5b81516200021a848260208601620001a9565b949350505050565b600080600080608085870312156200023d576200023d600080fd5b60006200024b8787620000ce565b94505060206200025e87828801620000e5565b93505060408501516001600160401b038111156200027f576200027f600080fd5b6200028d87828801620001f2565b92505060608501516001600160401b03811115620002ae57620002ae600080fd5b620002bc87828801620001f2565b91505092959194509250565b634e487b7160e01b600052602260045260246000fd5b600281046001821680620002f357607f821691505b602082108103620003085762000308620002c8565b50919050565b6000620000ae6200031c8381565b90565b6200032a836200030e565b81546008840282811b60001990911b908116901990911617825550505050565b6000620003598184846200031f565b505050565b818110156200037d57620003746000826200034a565b6001016200035e565b5050565b601f82111562000359576000818152602090206020601f85010481016020851015620003aa5750805b620003be6020601f8601048301826200035e565b5050505050565b81516001600160401b03811115620003e157620003e1620000f2565b620003ed8254620002de565b620003fa82828562000381565b6020601f831160018114620004315760008415620004185750858201515b600019600886021c19811660028602178655506200048d565b600085815260208120601f198616915b8281101562000463578885015182556020948501946001909201910162000441565b86831015620004805784890151600019601f89166008021c191682555b6001600288020188555050505b505050505050565b60805160a05160c051614234620004fd6000396000818161065401526106850152600081816106d3015281816107a001528181611058015281816128b601528181612abd01528181612e620152818161326e01526134f6015260006105e901526142346000f3fe608060405234801561001057600080fd5b50600436106104b25760003560e01c80638212fd43116102765780638212fd43146109b65780638340f549146109c95780638afca8f0146109dc57806391986003146109e557806394bf804d146109f857806395d89b4114610a0b57806399167fb414610a135780639937464214610a265780639a508d0a14610a465780639e34e34814610a595780639f3988f314610a6c578063a9059cbb14610a93578063a98222c414610aa6578063ab5b4d4914610acd578063acded97d14610af4578063af76d4bd14610b07578063b3c187f214610b1a578063b3d7f6b914610b2d578063b53d095814610b40578063bbe4eb4914610b53578063bdc8144b14610b60578063beabacc814610b73578063bee7e3d914610b86578063c034969414610b99578063c065ca0714610bac578063c0993eea14610bd3578063c63d75b614610bfa578063c6c3bbe614610c0d578063c6e6f59214610c20578063c8d74b6014610c33578063c8dffa9514610c5a578063ca4c1c3714610c63578063cea5a1a714610c76578063d4ae064f14610c7e578063d505accf14610ca5578063d73b1dc914610cb8578063d81a09f614610ccb578063d9a0e97a14610cde578063dd62ed3e14610ce6578063dd8aaa4f14610d1f578063e0bf18ad14610d32578063e1f21c6714610d3a578063e315cd7514610d4d578063ec6e566e14610d60578063ecf7085814610d73578063ef8b30f714610c20578063f1daeba814610d7c578063f5b944eb14610da3578063f828f50b14610dca578063fc0e74d114610dd3578063fd967f4714610de7578063fec61f0614610df0578063ff1e7f0814610e1757600080fd5b8062435da5146104b757806301e1d114146104e057806303dcd12c146104f557806306580f2d1461051c57806306fdde031461052f57806307a2d13a146105445780630835a3fc146105575780630952864e14610560578063095ea7b3146105695780630a28a477146105895780630ad283d01461059c5780630ceca244146105c357806316d3bfbb146105e457806318160ddd1461060b5780631e9579551461061357806323b872dd146106335780632d632692146106465780632e0f26251461064f578063313ce5671461068357806334b5fab6146106a95780633644e515146106bc57806336fba084146106c557806338d52e0f146106d157806339b70e38146106f757806339ebf8231461070a5780633cd7b5ab1461074f5780633e986eed146107585780633f7b5e401461076d578063402d267d146107755780634542abe2146107885780634800d97f1461079b5780634cdad506146105445780634ce1d38a146107cf5780634cfe51dc146107f65780634d4bb1971461081d5780634fb3ccc5146108325780635141eebb1461084557806353a661321461084e5780635453491f146108715780635a569099146108795780635aa6e6751461088c5780635bf6b4fb1461089f5780635d4086af146108c6578063652da324146108d957806365cb6765146109005780636c43a2ca146109135780636e553f651461092657806370a08231146109395780637659bcc61461094c57806377e3b2671461095f5780637ecebe00146109835780637ff00077146109a3575b600080fd5b6013546104ca906001600160a01b031681565b6040516104d7919061356c565b60405180910390f35b6104e8610e2a565b6040516104d79190613580565b6104e87f633076a97f32ae349b28772e7b1483f67a926f150cbc501d02bdbd77389325ab81565b6104e861052a3660046136ca565b610e39565b610537610e77565b6040516104d791906137b4565b6104e86105523660046137c5565b610f05565b6104e8600c5481565b6104e860155481565b61057c6105773660046137e6565b610f18565b6040516104d7919061382b565b6104e86105973660046137c5565b610f2c565b6104e87fc723f4dd6268e1c374639e36d629c765285ee7003913389d582c300f186dde9781565b6105d66105d1366004613909565b610f39565b6040516104d7929190613977565b6104e87f000000000000000000000000000000000000000000000000000000000000000081565b6104e8611250565b610626610621366004613992565b61125a565b6040516104d79190613a19565b61057c610641366004613a27565b6112e0565b6104e860165481565b6106767f000000000000000000000000000000000000000000000000000000000000000081565b6040516104d79190613a65565b7f0000000000000000000000000000000000000000000000000000000000000000610676565b6104e86106b7366004613a73565b611302565b6104e8601a5481565b6104e864e8d4a5100081565b7f00000000000000000000000000000000000000000000000000000000000000006104ca565b6000546104ca906001600160a01b031681565b61073f610718366004613ad3565b60046020526000908152604090208054600182015460028301546003909301549192909184565b6040516104d79493929190613af4565b6104e8600b5481565b61076b610766366004613b29565b611350565b005b6104e8600a81565b6104e8610783366004613ad3565b6113f2565b61076b610796366004613b4b565b6113fd565b6107c27f000000000000000000000000000000000000000000000000000000000000000081565b6040516104d79190613be7565b6104e87f69d1171ac0a63777a6733cda21aec9ed3d48a4fd11f273c934a691dec5e5589c81565b6104e87f862f91c9d89d6135b19873b921c90b702cb2e175c371b8430026b9577e69111981565b6104e860008051602061417f83398151915281565b600e546104ca906001600160a01b031681565b6104e860175481565b61057c61085c3660046137c5565b60126020526000908152604090205460ff1681565b600b546104e8565b6104e86108873660046137e6565b61140f565b6003546104ca906001600160a01b031681565b6104e87fea672c1c09cd95c51af9509f646f3615ff0071aae8652bd821471ee9037fd72c81565b6104e86108d4366004613c0d565b611455565b6104e87fcd9f023a942ee35097ead74b2505bea9f2c5d47465db92dd195cf7f01a41cfe181565b6104e861090e366004613a73565b611461565b61057c610921366004613a27565b61146e565b6104e8610934366004613c40565b61147b565b6104e8610947366004613ad3565b61149c565b6104e861095a366004613c40565b6114f5565b610537604051806040016040528060058152602001640312e302e360dc1b81525081565b6104e8610991366004613ad3565b60196020526000908152604090205481565b6104e86109b1366004613c0d565b611501565b61076b6109c43660046137c5565b600c55565b6104e86109d7366004613a27565b61150d565b6104e860185481565b6010546104ca906001600160a01b031681565b6104e8610a06366004613c40565b61151a565b61053761152f565b61076b610a21366004613c40565b61153c565b6104e8610a34366004613ad3565b60116020526000908152604090205481565b61076b610a543660046137c5565b600b55565b600f546104ca906001600160a01b031681565b6104e87f6f430d649a8640e48ff9bfbc353b3f99ed630163857821b3b4075e3871dafbf581565b61057c610aa13660046137e6565b61154a565b6104e87f2f0dbbe8c2c0170206c50ec0cafa1c0dbd03e73e67c2a960178df30a0a30ee2e81565b6104e87f900d80def0427daac599092fcb16b21808ec68dd9a2e1eae89d1e8db2135737581565b6001546104ca906001600160a01b031681565b61076b610b153660046137e6565b61159c565b6014546104ca906001600160a01b031681565b6104e8610b3b3660046137c5565b61160d565b61076b610b4e3660046137e6565b61161a565b60065461057c9060ff1681565b61076b610b6e3660046137c5565b611624565b61076b610b81366004613a27565b6116bd565b6002546104ca906001600160a01b031681565b61076b610ba7366004613a27565b6116c8565b6104e87f2a0e761830cc61f2707ea7bb138008bf9dda7f7d34c77736d0a116604e95ea1681565b6104e87f8b73c3c69bb8fe3d512ecc4cf759cc79239f7b179b0ffacaa9a75d522b39400f81565b6104e8610c08366004613ad3565b611799565b6104e8610c1b366004613a27565b6117b2565b6104e8610c2e3660046137c5565b6117bf565b6104e87f152ebba56b9738ee3d8baea1b76fa31dcdcd79b1929bfea7d58ee12cfdf1a65381565b6104e8600a5481565b61076b610c71366004613c40565b6117cc565b600c546104e8565b6104e87fa18eaea71a088b547b8c932b48861853b3434d9a3240b94466c607e28b69659581565b61057c610cb3366004613c87565b6117d6565b61057c610cc6366004613a27565b6119c8565b6104e8610cd93660046136ca565b611a16565b6104e8611a40565b6104e8610cf4366004613d26565b6001600160a01b03918216600090815260086020908152604080832093909416825291909152205490565b61076b610d2d366004613a27565b611a4a565b61076b611a55565b61057c610d48366004613a27565b611a88565b61076b610d5b3660046137c5565b600a55565b61076b610d6e366004613a27565b611a95565b6104e8600d5481565b6104e87f7cbb3cdf689b8ea3e9d265f66bc4e0a99069268217017d38d2a5a559abc6271981565b6104e87ff206625bad3d9112d5609b8d356e6fbd514cd1f69980d4ce2b3e6e68e1789ace81565b6104e860095481565b60145461057c90600160a01b900460ff1681565b6104e861271081565b6104e87fd45f7ccff42f059d4e47c3f027c444272257266f7e88b981e142f0aa38fbfd7881565b6104ca610e253660046137c5565b611aa0565b6000610e34611aca565b905090565b6000610e43611adc565b6000610e50876000611b05565b9050610e61328787848b8989611b9b565b915050610e6e6001601b55565b95945050505050565b601c8054610e8490613d5e565b80601f0160208091040260200160405190810160405280929190818152602001828054610eb090613d5e565b8015610efd5780601f10610ed257610100808354040283529160200191610efd565b820191906000526020600020905b815481529060010190602001808311610ee057829003601f168201915b505050505081565b6000610f12826000611b05565b92915050565b6000610f25338484611c38565b9392505050565b6000610f12826001611cd0565b600080600080876020015111156110a5576020870151600154600e546040516370a0823160e01b81526110489392611043926001600160a01b03918216926370a0823192610f8b92169060040161356c565b602060405180830381865afa158015610fa8573d6000803e3d6000fd5b505050506040513d601f19601f82011682018060405250810190610fcc9190613d95565b600154600e54604051636eb1769f60e11b81526001600160a01b039283169263dd62ed3e92611002929116903090600401613db6565b602060405180830381865afa15801561101f573d6000803e3d6000fd5b505050506040513d601f19601f820116820180604052508101906110439190613d95565b611d7e565b60208801819052600e54611089917f0000000000000000000000000000000000000000000000000000000000000000916001600160a01b0316903090611d94565b8660200151600b600082825461109f9190613de7565b90915550505b85156110f5576001600160a01b038416600090815260046020526040812060020180548892906110d6908490613de7565b9250508190555085600a60008282546110ef9190613de7565b90915550505b60008760200151876111079190613de7565b118015611115575060155415155b156111365761113387602001518761112d9190613de7565b30611e70565b90505b8415611186576001600160a01b03841660009081526004602052604081206002018054879290611167908490613dfa565b9250508190555084600a60008282546111809190613dfa565b90915550505b306000908152600760205260408120546111a1908390613dfa565b8951909150156112025788516111bb906110438484613de7565b808a526111c89030611f25565b60006111d88a6000015184611d7e565b90506111e48184613dfa565b8a519093506111f4908290613dfa565b6111fe9083613dfa565b9150505b602089015115611227576020890151600e5461122791906001600160a01b0316611fdc565b6040890151156112435761124389604001518960600151611fdc565b9890975095505050505050565b6000610e34612075565b611262613525565b61126a613525565b60006112768587613de7565b11156112d8576112906112898587613de7565b6001611cd0565b8151829061129f908390613de7565b90525083156112d8576112bc6112b58486613dfa565b6000611cd0565b602082015282156112d8576112d2836000611cd0565b60408201525b949350505050565b60006112ed84338461208c565b6112f88484846120ee565b5060019392505050565b6000806113108585856121eb565b9050600061131f826001611cd0565b6001600160a01b038716600090815260076020526040902054909150611346908290611d7e565b9695505050505050565b600061135c8284613de7565b905080156113e757600042601654111561138b574260165461137e9190613dfa565b6113889085613e0d565b90505b6000826015548561139c9190613e0d565b6113a69084613de7565b6113b09190613e42565b9050806113c264e8d4a5100085613e0d565b6113cc9190613e42565b6017556113d98142613de7565b601655505042601855505050565b60006017555b505050565b6000610f12826125b5565b61140984848484611d94565b50505050565b6001600160a01b03821660009081526004602052604081206002015482111561144b576040516337deae0760e01b815260040160405180910390fd5b610f25838361268d565b6000610f258383611cd0565b60006112d88484846121eb565b60006112d88484846127ee565b6000611485611adc565b611490338385612823565b9050610f126001601b55565b6000306001600160a01b038316036114d9576114b66129bd565b6001600160a01b038316600090815260076020526040902054610f129190613dfa565b506001600160a01b031660009081526007602052604090205490565b6000610f258383611e70565b6000610f258383611b05565b60006112d8848484612823565b6000611524611adc565b611490338385612a1b565b601d8054610e8490613d5e565b6115468282611f25565b5050565b60006001600160a01b03831630148061156a57506001600160a01b038316155b156115885760405163d92e233d60e01b815260040160405180910390fd5b6115933384846120ee565b50600192915050565b604051636e553f6560e01b81526001600160a01b03831690636e553f65906115ca9084903090600401613e56565b6020604051808303816000875af11580156115e9573d6000803e3d6000fd5b505050506040513d601f19601f820116820180604052508101906113ed9190613d95565b6000610f12826001611b05565b6115468282612b8f565b601454600160a01b900460ff16151560010361165357604051630f3c386760e01b815260040160405180910390fd5b600f546001600160a01b03161561167d576040516364b9991160e11b815260040160405180910390fd5b600d8190556040517fae565aab888bca5e19e25a13db7b0c9144305bf55cb0f3f4d724f730e5acdd62906116b2908390613580565b60405180910390a150565b6113ed8383836120ee565b6001600160a01b03831615806116e557506001600160a01b038216155b156117035760405163d92e233d60e01b815260040160405180910390fd5b60405163095ea7b360e01b81526001600160a01b0384169063095ea7b3906117319085908590600401613e64565b6020604051808303816000875af1158015611750573d6000803e3d6000fd5b505050506040513d601f19601f820116820180604052508101906117749190613e85565b6113ed5760405162461bcd60e51b815260040161179090613ecf565b60405180910390fd5b6000806117a5836125b5565b9050610f25816000611cd0565b60006112d8848484612a1b565b6000610f12826000611cd0565b6115468282611fdc565b60006001600160a01b0388166117ff5760405163d92e233d60e01b815260040160405180910390fd5b42851015611820576040516363bef56160e11b815260040160405180910390fd5b6001600160a01b03881660009081526019602090815260408083205490519092916118659160008051602061417f833981519152918d918d918d9188918e9101613edf565b6040516020818303038152906040528051906020012090506000601a5482604051602001611894929190613f2e565b6040516020818303038152906040528051906020012090506000600182898989604051600081526020016040526040516118d19493929190613f5f565b6020604051602081039080840390855afa1580156118f3573d6000803e3d6000fd5b5050604051601f1901519150506001600160a01b038116158061192857508b6001600160a01b0316816001600160a01b031614155b15611946576040516310454c9960e31b815260040160405180910390fd5b6119518c8c8c611c38565b506001600160a01b038c16600090815260196020526040812080549161197683613f7a565b91905055508a6001600160a01b03168c6001600160a01b031660008051602061419f8339815191528c6040516119ac9190613580565b60405180910390a360019450505050505b979650505050505050565b6001600160a01b03808416600090815260086020908152604080832093861683529290529081205481906119fd908490613dfa565b9050611a0a858583611c38565b50600195945050505050565b600080611a24876001611cd0565b9050611a353287878a858989611b9b565b509695505050505050565b6000610e346129bd565b6113ed83838361208c565b6000611a5f6129bd565b905080600003611a6c5750565b426016541115611a7b57426018555b611a858130611f25565b50565b60006112d8848484611c38565b6113ed838383612ca3565b60058181548110611ab057600080fd5b6000918252602090912001546001600160a01b0316905081565b6000600a54600b54610e349190613de7565b6002601b5403611afe5760405162461bcd60e51b815260040161179090613fc8565b6002601b55565b6000600019831480611b15575082155b15611b21575081610f12565b6000611b2b612075565b905080600003611b3e5783915050610f12565b6000611b48611aca565b611b529086613e0d565b90506000611b608383613e42565b90506001856001811115611b7657611b76613fd8565b148015611b8b5750611b888383613fee565b15155b15610e6e57611346600182613de7565b6000611ba987878686612d6b565b611bb4868986612e0f565b600080611bc18785612e33565b91509150611bd48989888a86868b613485565b876001600160a01b0316896001600160a01b03168b6001600160a01b03167ffbde797d201c681b91056529119e0b02407c7bb96a4a2c75c01fc9667232c8db858a604051611c23929190613977565b60405180910390a45098975050505050505050565b60006001600160a01b0384161580611c5757506001600160a01b038316155b15611c755760405163d92e233d60e01b815260040160405180910390fd5b6001600160a01b03808516600081815260086020908152604080832094881680845294909152908190208590555160008051602061419f83398151915290611cbe908690613580565b60405180910390a35060019392505050565b6000600019831480611ce0575082155b15611cec575081610f12565b6000611cf6612075565b90506000611d02611aca565b905080600003611d295781600003611d1e578492505050610f12565b600092505050610f12565b6000611d358387613e0d565b90506000611d438383613e42565b90506001866001811115611d5957611d59613fd8565b148015611d6e5750611d6b8383613fee565b15155b15611346576119bd600182613de7565b6000818310611d8d5781610f25565b5090919050565b6001600160a01b0384161580611db157506001600160a01b038316155b80611dc357506001600160a01b038216155b15611de15760405163d92e233d60e01b815260040160405180910390fd5b6040516323b872dd60e01b81526001600160a01b038516906323b872dd90611e1190869086908690600401614002565b6020604051808303816000875af1158015611e30573d6000803e3d6000fd5b505050506040513d601f19601f82011682018060405250810190611e549190613e85565b6114095760405162461bcd60e51b815260040161179090614050565b60006001600160a01b038216611e995760405163d92e233d60e01b815260040160405180910390fd5b6000611ea3612075565b90506000611eaf611aca565b9050600082600003611ec2575084611f07565b85821115611eef57611ed48683613dfa565b611ede8488613e0d565b611ee89190613e42565b9050611f07565b60405162461bcd60e51b815260040161179090614086565b80600003611f1b5760009350505050610f12565b610e6e8186611fdc565b6001600160a01b038116600090815260076020526040902054821115611f5e57604051633999656760e01b815260040160405180910390fd5b6001600160a01b03811660009081526007602052604081208054849290611f86908490613dfa565b925050819055508160096000828254611f9f9190613dfa565b90915550506040516000906001600160a01b0383169060008051602061415f83398151915290611fd0908690613580565b60405180910390a35050565b6001600160a01b0381166120035760405163d92e233d60e01b815260040160405180910390fd5b6001600160a01b0381166000908152600760205260408120805484929061202b908490613de7565b9250508190555081600960008282546120449190613de7565b90915550506040516001600160a01b0382169060009060008051602061415f83398151915290611fd0908690613580565b600061207f6129bd565b600954610e349190613dfa565b6001600160a01b03808416600090815260086020908152604080832093861683529290522054818110156120d35760405163017e286b60e51b815260040160405180910390fd5b6120e784846120e28585613dfa565b611c38565b5050505050565b6001600160a01b038316600090815260076020526040902054818110156121285760405163356680b760e01b815260040160405180910390fd5b6001600160a01b038416158061214557506001600160a01b038316155b156121635760405163d92e233d60e01b815260040160405180910390fd5b61216d8282613dfa565b6001600160a01b03808616600090815260076020526040808220939093559085168152205461219c8382613de7565b6001600160a01b03808616600081815260076020526040908190209390935591519087169060008051602061415f833981519152906121dc908790613580565b60405180910390a35050505050565b6001600160a01b03831660009081526007602052604081205481906122109082611b05565b6010549091506001600160a01b0316156122b257601054604051632319b8cf60e01b81526000916001600160a01b031690632319b8cf90612259908990899089906004016140f3565b6020604051808303816000875af1158015612278573d6000803e3d6000fd5b505050506040513d601f19601f8201168201806040525081019061229c9190613d95565b9050818110156122aa578091505b509050610f25565b600b54808211156125ac57835181906000908190158015906122d7575060065460ff16155b61233b57600580548060200260200160405190810160405280929190818152602001828054801561233157602002820191906000526020600020905b81546001600160a01b03168152600190910190602001808311612313575b505050505061233d565b865b905060005b81518110156125a557600082828151811061235f5761235f614120565b6020026020010151905060046000826001600160a01b03166001600160a01b03168152602001908152602001600020600001546000036123b257604051630631bc2160e51b815260040160405180910390fd5b60006123e26123c1878a613dfa565b6001600160a01b038416600090815260046020526040902060020154611d7e565b905060006123f0838361268d565b90506000836001600160a01b03166307a2d13a856001600160a01b031663d905777e306040518263ffffffff1660e01b815260040161242f919061356c565b602060405180830381865afa15801561244c573d6000803e3d6000fd5b505050506040513d601f19601f820116820180604052508101906124709190613d95565b6040518263ffffffff1660e01b815260040161248c9190613580565b602060405180830381865afa1580156124a9573d6000803e3d6000fd5b505050506040513d601f19601f820116820180604052508101906124cd9190613d95565b90506124d98284613dfa565b81101561250457826124eb8284613e0d565b6124f59190613e42565b91506125018282613de7565b92505b826000036125155750505050612593565b60008211801561252657506127108d105b15612566576127108d612539858b613de7565b6125439190613e0d565b61254d9190613e42565b6125578389613de7565b111561256657505050506125a5565b6125708389613de7565b975089881061258257505050506125a5565b61258c8288613de7565b9650505050505b8061259d81613f7a565b915050612342565b5091935050505b50949350505050565b60006001600160a01b0382163014806125d557506001600160a01b038216155b156125e257506000919050565b600f546001600160a01b0316801561266157604051632355178960e11b81526001600160a01b038216906346aa2f129061262090869060040161356c565b602060405180830381865afa15801561263d573d6000803e3d6000fd5b505050506040513d601f19601f82011682018060405250810190610f259190613d95565b600061266b611aca565b600d5490915080821061268357506000949350505050565b610e6e8282613dfa565b6001600160a01b03821660008181526004602081905260408083206002015490516370a0823160e01b81529293909284926370a08231916126d09130910161356c565b602060405180830381865afa1580156126ed573d6000803e3d6000fd5b505050506040513d601f19601f820116820180604052508101906127119190613d95565b90506000856001600160a01b03166307a2d13a836040518263ffffffff1660e01b81526004016127419190613580565b602060405180830381865afa15801561275e573d6000803e3d6000fd5b505050506040513d601f19601f820116820180604052508101906127829190613d95565b90508281101580612791575082155b156127a25760009350505050610f12565b60006127ae8287613e0d565b905060006127bc8583613e42565b6127c69088613dfa565b90506127d28583613fee565b156119bd576127e2600182613de7565b98975050505050505050565b6001600160a01b03808416600090815260086020908152604080832093861683529290529081205481906119fd908490613de7565b601454600090600160a01b900460ff16151560010361285557604051630f3c386760e01b815260040160405180910390fd5b61285e836125b5565b82111561287e576040516325d16c5160e01b815260040160405180910390fd5b6000821161289f57604051637c946ed760e01b815260040160405180910390fd5b6040516323b872dd60e01b81526001600160a01b037f000000000000000000000000000000000000000000000000000000000000000016906323b872dd906128ef90329030908790600401614002565b6020604051808303816000875af115801561290e573d6000803e3d6000fd5b505050506040513d601f19601f820116820180604052508101906129329190613e85565b5081600b60008282546129459190613de7565b90915550600090506129578385611e70565b90506000811161297a57604051637c946ed760e01b815260040160405180910390fd5b836001600160a01b0316856001600160a01b03166000805160206141bf83398151915285846040516129ad929190613977565b60405180910390a3949350505050565b60165460009081428211156129fe5764e8d4a51000601854426129e09190613dfa565b6017546129ed9190613e0d565b6129f79190613e42565b9050610f12565b8115610f1257503060009081526007602052604090205492915050565b601454600090600160a01b900460ff161515600103612a4d57604051630f3c386760e01b815260040160405180910390fd5b6000612a5a836001611b05565b905060008111612a7d57604051637c946ed760e01b815260040160405180910390fd5b612a86846125b5565b811115612aa6576040516325d16c5160e01b815260040160405180910390fd5b6040516323b872dd60e01b81526001600160a01b037f000000000000000000000000000000000000000000000000000000000000000016906323b872dd90612af690889030908690600401614002565b6020604051808303816000875af1158015612b15573d6000803e3d6000fd5b505050506040513d601f19601f82011682018060405250810190612b399190613e85565b5080600b6000828254612b4c9190613de7565b90915550612b5c90508385611fdc565b836001600160a01b0316856001600160a01b03166000805160206141bf83398151915283866040516129ad929190613977565b6000612c2d836001600160a01b0316630a28a477846040518263ffffffff1660e01b8152600401612bc09190613580565b602060405180830381865afa158015612bdd573d6000803e3d6000fd5b505050506040513d601f19601f82011682018060405250810190612c019190613d95565b6040516370a0823160e01b81526001600160a01b038616906370a082319061100290309060040161356c565b604051635d043b2960e11b81529091506001600160a01b0384169063ba08765290612c6090849030908190600401614136565b6020604051808303816000875af1158015612c7f573d6000803e3d6000fd5b505050506040513d601f19601f820116820180604052508101906114099190613d95565b6001600160a01b0383161580612cc057506001600160a01b038216155b15612cde5760405163d92e233d60e01b815260040160405180910390fd5b60405163a9059cbb60e01b81526001600160a01b0384169063a9059cbb90612d0c9085908590600401613e64565b6020604051808303816000875af1158015612d2b573d6000803e3d6000fd5b505050506040513d601f19601f82011682018060405250810190612d4f9190613e85565b6113ed5760405162461bcd60e51b815260040161179090614050565b6001600160a01b038416612d925760405163d92e233d60e01b815260040160405180910390fd5b612710811115612db557604051631a7ed0a160e31b815260040160405180910390fd5b60008211612dd657604051637c946ed760e01b815260040160405180910390fd5b6001600160a01b03831660009081526007602052604090205482111561140957604051633999656760e01b815260040160405180910390fd5b826001600160a01b0316826001600160a01b0316146113ed576113ed83838361208c565b60008060006040518060c00160405280868152602001600b548152602001600a548152602001600081526020017f00000000000000000000000000000000000000000000000000000000000000006001600160a01b03166370a08231306040518263ffffffff1660e01b8152600401612eac919061356c565b602060405180830381865afa158015612ec9573d6000803e3d6000fd5b505050506040513d601f19601f82011682018060405250810190612eed9190613d95565b81526000602091820152810151815191925010156134725760008451600014158015612f1c575060065460ff16155b612f80576005805480602002602001604051908101604052809291908181526020018280548015612f7657602002820191906000526020600020905b81546001600160a01b03168152600190910190602001808311612f58575b5050505050612f82565b845b60208301518351919250612f9591613dfa565b606083015260005b8151811015613441576000828281518110612fba57612fba614120565b6020026020010151905060046000826001600160a01b03166001600160a01b031681526020019081526020016000206000015460000361300d57604051630631bc2160e51b815260040160405180910390fd5b6001600160a01b038116600090815260046020526040812060020154606086015190919061303b9083611d7e565b90506000836001600160a01b03166307a2d13a856001600160a01b031663d905777e306040518263ffffffff1660e01b815260040161307a919061356c565b602060405180830381865afa158015613097573d6000803e3d6000fd5b505050506040513d601f19601f820116820180604052508101906130bb9190613d95565b6040518263ffffffff1660e01b81526004016130d79190613580565b602060405180830381865afa1580156130f4573d6000803e3d6000fd5b505050506040513d601f19601f820116820180604052508101906131189190613d95565b90506000613126858461268d565b9050801561322c576131388184613dfa565b82101561317257600061314b8285613dfa565b9050806131588484613e0d565b6131629190613e42565b915061316e8284613de7565b9350505b61317c8184613dfa565b925080886000018181516131909190613dfa565b9052506060880180518291906131a7908390613dfa565b9052506040880180518291906131be908390613dfa565b905250811580156131cf5750600081115b1561322c5760006131e08286613dfa565b6001600160a01b0387166000818152600460205260409081902060020183905551919250906000805160206141df833981519152906132229088908590613977565b60405180910390a2505b6132368383611d7e565b92508260000361324a57505050505061342f565b6132548584612b8f565b6040516370a0823160e01b81526000906001600160a01b037f000000000000000000000000000000000000000000000000000000000000000016906370a08231906132a390309060040161356c565b602060405180830381865afa1580156132c0573d6000803e3d6000fd5b505050506040513d601f19601f820116820180604052508101906132e49190613d95565b905060008960800151826132f89190613dfa565b905060008582111561332f578682111561331457869550613344565b61331e8683613dfa565b6133289087613de7565b9550613344565b85821015613344576133418287613dfa565b90505b61334e8187613dfa565b8b60200181815161335f9190613de7565b9052508a5181908c90613373908390613dfa565b90525060408b01805187919061338a908390613dfa565b90525060006133998588613de7565b6133a39089613dfa565b6001600160a01b038a166000818152600460205260409081902060020183905551919250906000805160206141df833981519152906133e5908b908590613977565b60405180910390a260208c01518c511161340757505050505050505050613441565b60808c0184905260608c018051889190613422908390613dfa565b9052505050505050505050505b8061343981613f7a565b915050612f9d565b50815160208301511015613468576040516396d8043360e01b815260040160405180910390fd5b506040810151600a555b8051602090910151909590945092505050565b8284118015613495575061271081105b156134da576127106134a78286613e0d565b6134b19190613e42565b6134bb8486613dfa565b11156134da576040516307f65e3960e11b815260040160405180910390fd5b6134e48587611f25565b6134ee8383613dfa565b600b5561351c7f00000000000000000000000000000000000000000000000000000000000000008885612ca3565b50505050505050565b60405180606001604052806000815260200160008152602001600081525090565b6001600160a01b031690565b6000610f1282613546565b61356681613552565b82525050565b60208101610f12828461355d565b80613566565b60208101610f12828461357a565b805b8114611a8557600080fd5b8035610f128161358e565b61359081613552565b8035610f12816135a6565b601f01601f191690565b634e487b7160e01b600052604160045260246000fd5b6135e3826135ba565b81018181106001600160401b0382111715613600576136006135c4565b6040525050565b600061361260405190565b905061361e82826135da565b919050565b60006001600160401b0382111561363c5761363c6135c4565b5060209081020190565b600061365961365484613623565b613607565b8381529050602080820190840283018581111561367857613678600080fd5b835b8181101561369c578061368d88826135af565b8452506020928301920161367a565b5050509392505050565b600082601f8301126136ba576136ba600080fd5b81356112d8848260208601613646565b600080600080600060a086880312156136e5576136e5600080fd5b60006136f1888861359b565b9550506020613702888289016135af565b9450506040613713888289016135af565b93505060606137248882890161359b565b92505060808601356001600160401b0381111561374357613743600080fd5b61374f888289016136a6565b9150509295509295909350565b60005b8381101561377757818101518382015260200161375f565b50506000910152565b600061378a825190565b8084526020840193506137a181856020860161375c565b6137aa816135ba565b9093019392505050565b60208082528101610f258184613780565b6000602082840312156137da576137da600080fd5b60006112d8848461359b565b600080604083850312156137fc576137fc600080fd5b600061380885856135af565b92505060206138198582860161359b565b9150509250929050565b801515613566565b60208101610f128284613823565b60006060828403121561384e5761384e600080fd5b6138586060613607565b90506000613866848461359b565b82525060206138778484830161359b565b602083015250604061388b8482850161359b565b60408301525092915050565b6000608082840312156138ac576138ac600080fd5b6138b66080613607565b905060006138c4848461359b565b82525060206138d58484830161359b565b60208301525060406138e98482850161359b565b60408301525060606138fd848285016135af565b60608301525092915050565b6000806000806000610140868803121561392557613925600080fd5b60006139318888613839565b955050606061394288828901613897565b94505060e06139538882890161359b565b9350506101006139658882890161359b565b92505061012061374f888289016135af565b60408101613985828561357a565b610f25602083018461357a565b6000806000606084860312156139aa576139aa600080fd5b60006139b6868661359b565b93505060206139c78682870161359b565b92505060406139d88682870161359b565b9150509250925092565b805160608301906139f3848261357a565b506020820151613a06602085018261357a565b506040820151611409604085018261357a565b60608101610f1282846139e2565b600080600060608486031215613a3f57613a3f600080fd5b6000613a4b86866135af565b93505060206139c7868287016135af565b60ff8116613566565b60208101610f128284613a5c565b600080600060608486031215613a8b57613a8b600080fd5b6000613a9786866135af565b9350506020613aa88682870161359b565b92505060408401356001600160401b03811115613ac757613ac7600080fd5b6139d8868287016136a6565b600060208284031215613ae857613ae8600080fd5b60006112d884846135af565b60808101613b02828761357a565b613b0f602083018661357a565b613b1c604083018561357a565b610e6e606083018461357a565b60008060408385031215613b3f57613b3f600080fd5b6000613808858561359b565b60008060008060808587031215613b6457613b64600080fd5b6000613b7087876135af565b9450506020613b81878288016135af565b9350506040613b92878288016135af565b9250506060613ba38782880161359b565b91505092959194509250565b6000610f12613bc3613bc084613546565b90565b613546565b6000610f1282613baf565b6000610f1282613bc8565b61356681613bd3565b60208101610f128284613bde565b60028110611a8557600080fd5b8035610f1281613bf5565b60008060408385031215613c2357613c23600080fd5b6000613c2f858561359b565b925050602061381985828601613c02565b60008060408385031215613c5657613c56600080fd5b6000613c62858561359b565b9250506020613819858286016135af565b60ff8116613590565b8035610f1281613c73565b600080600080600080600060e0888a031215613ca557613ca5600080fd5b6000613cb18a8a6135af565b9750506020613cc28a828b016135af565b9650506040613cd38a828b0161359b565b9550506060613ce48a828b0161359b565b9450506080613cf58a828b01613c7c565b93505060a0613d068a828b0161359b565b92505060c0613d178a828b0161359b565b91505092959891949750929550565b60008060408385031215613d3c57613d3c600080fd5b6000613c6285856135af565b634e487b7160e01b600052602260045260246000fd5b600281046001821680613d7257607f821691505b602082108103613d8457613d84613d48565b50919050565b8051610f128161358e565b600060208284031215613daa57613daa600080fd5b60006112d88484613d8a565b60408101613dc4828561355d565b610f25602083018461355d565b634e487b7160e01b600052601160045260246000fd5b80820180821115610f1257610f12613dd1565b81810381811115610f1257610f12613dd1565b6000816000190483118215151615613e2757613e27613dd1565b500290565b634e487b7160e01b600052601260045260246000fd5b600082613e5157613e51613e2c565b500490565b60408101613dc4828561357a565b60408101613985828561355d565b801515613590565b8051610f1281613e72565b600060208284031215613e9a57613e9a600080fd5b60006112d88484613e7a565b600f81526000602082016e185c1c1c9bdd985b0819985a5b1959608a1b815291505b5060200190565b60208082528101610f1281613ea6565b60c08101613eed828961357a565b613efa602083018861355d565b613f07604083018761355d565b613f14606083018661357a565b613f21608083018561357a565b6119bd60a083018461357a565b61190160f01b81526002016000613f45828561357a565b602082019150613f55828461357a565b5060200192915050565b60808101613f6d828761357a565b613b0f6020830186613a5c565b60006000198203613f8d57613f8d613dd1565b5060010190565b601f81526000602082017f5265656e7472616e637947756172643a207265656e7472616e742063616c6c0081529150613ec8565b60208082528101610f1281613f94565b634e487b7160e01b600052602160045260246000fd5b600082613ffd57613ffd613e2c565b500690565b60608101614010828661355d565b61401d602083018561355d565b6112d8604083018461357a565b600f81526000602082016e1d1c985b9cd9995c8819985a5b1959608a1b81529150613ec8565b60208082528101610f128161402a565b600f81526000602082016e0c2dadeeadce840e8dede40d0d2ced608b1b81529150613ec8565b60208082528101610f1281614060565b60006140a2838361355d565b505060200190565b60006140b4825190565b80845260209384019383018060005b838110156140e85781516140d78882614096565b9750602083019250506001016140c3565b509495945050505050565b60608101614101828661355d565b61410e602083018561357a565b8181036040830152610e6e81846140aa565b634e487b7160e01b600052603260045260246000fd5b60608101614144828661357a565b614151602083018561355d565b6112d8604083018461355d56feddf252ad1be2c89b69c2b068fc378daa952ba7f163c4a11628f55a4df523b3ef6e71edae12b1b97f4d1f60370fef10105fa2faae0126114a169c64845d6126c98c5be1e5ebec7d5bd14f71427d1e84f3dd0314c0f7b2291e5b200ac8c7c3b925dcbc1c05240f31ff3ad067ef1ee35ce4997762752e3a095284754544f4c709d75e2b8821ad6e0e26207e0cb4d242d07eeb1cbb1cfd853e645bdcd27cc5484f95a264697066735822122049dd3761f2c76558e3d0fc03e215894e944fe6424244f31f8f97112415fa13bc64736f6c63430008100033",
  "devdoc": {
    "kind": "dev",
    "methods": {
      "allowance(address,address)": {
        "details": "Returns the remaining number of tokens that `spender` will be allowed to spend on behalf of `owner` through {transferFrom}. This is zero by default. This value changes when {approve} or {transferFrom} are called."
      },
      "approve(address,uint256)": {
        "details": "Sets `amount` as the allowance of `spender` over the caller's tokens. Returns a boolean value indicating whether the operation succeeded. IMPORTANT: Beware that changing an allowance with this method brings the risk that someone may use both the old and the new allowance by unfortunate transaction ordering. One possible solution to mitigate this race condition is to first reduce the spender's allowance to 0 and set the desired value afterwards: https://github.com/ethereum/EIPs/issues/20#issuecomment-263524729 Emits an {Approval} event."
      },
      "asset()": {
        "details": "Returns the address of the underlying token used for the Vault for accounting, depositing, and withdrawing. - MUST be an ERC-20 token contract. - MUST NOT revert."
      },
      "convertToAssets(uint256)": {
        "details": "Returns the amount of assets that the Vault would exchange for the amount of shares provided, in an ideal scenario where all the conditions are met. - MUST NOT be inclusive of any fees that are charged against assets in the Vault. - MUST NOT show any variations depending on the caller. - MUST NOT reflect slippage or other on-chain conditions, when performing the actual exchange. - MUST NOT revert. NOTE: This calculation MAY NOT reflect the per-user price-per-share, and instead should reflect the average-users price-per-share, meaning what the average user should expect to see when exchanging to and from."
      },
      "convertToShares(uint256)": {
        "details": "Returns the amount of shares that the Vault would exchange for the amount of assets provided, in an ideal scenario where all the conditions are met. - MUST NOT be inclusive of any fees that are charged against assets in the Vault. - MUST NOT show any variations depending on the caller. - MUST NOT reflect slippage or other on-chain conditions, when performing the actual exchange. - MUST NOT revert. NOTE: This calculation MAY NOT reflect the per-user price-per-share, and instead should reflect the average-users price-per-share, meaning what the average user should expect to see when exchanging to and from."
      },
      "decimals()": {
        "details": "Returns the decimals places of the token."
      },
      "deposit(uint256,address)": {
        "details": "Mints shares Vault shares to receiver by depositing exactly amount of underlying tokens. - MUST emit the Deposit event. - MAY support an additional flow in which the underlying tokens are owned by the Vault contract before the   deposit execution, and are accounted for during deposit. - MUST revert if all of assets cannot be deposited (due to deposit limit being reached, slippage, the user not   approving enough underlying tokens to the Vault contract, etc). NOTE: most implementations will require pre-approval of the Vault with the Vaults underlying asset token."
      },
      "maxDeposit(address)": {
        "details": "Returns the maximum amount of the underlying asset that can be deposited into the Vault for the receiver, through a deposit call. - MUST return a limited value if receiver is subject to some deposit limit. - MUST return 2 ** 256 - 1 if there is no limit on the maximum amount of assets that may be deposited. - MUST NOT revert."
      },
      "maxMint(address)": {
        "details": "Returns the maximum amount of the Vault shares that can be minted for the receiver, through a mint call. - MUST return a limited value if receiver is subject to some mint limit. - MUST return 2 ** 256 - 1 if there is no limit on the maximum amount of shares that may be minted. - MUST NOT revert."
      },
      "mint(uint256,address)": {
        "details": "Mints exactly shares Vault shares to receiver by depositing amount of underlying tokens. - MUST emit the Deposit event. - MAY support an additional flow in which the underlying tokens are owned by the Vault contract before the mint   execution, and are accounted for during mint. - MUST revert if all of shares cannot be minted (due to deposit limit being reached, slippage, the user not   approving enough underlying tokens to the Vault contract, etc). NOTE: most implementations will require pre-approval of the Vault with the Vaults underlying asset token."
      },
      "previewDeposit(uint256)": {
        "details": "Allows an on-chain or off-chain user to simulate the effects of their deposit at the current block, given current on-chain conditions. - MUST return as close to and no more than the exact amount of Vault shares that would be minted in a deposit   call in the same transaction. I.e. deposit should return the same or more shares as previewDeposit if called   in the same transaction. - MUST NOT account for deposit limits like those returned from maxDeposit and should always act as though the   deposit would be accepted, regardless if the user has enough tokens approved, etc. - MUST be inclusive of deposit fees. Integrators should be aware of the existence of deposit fees. - MUST NOT revert. NOTE: any unfavorable discrepancy between convertToShares and previewDeposit SHOULD be considered slippage in share price or some other type of condition, meaning the depositor will lose assets by depositing."
      },
      "previewMint(uint256)": {
        "details": "Allows an on-chain or off-chain user to simulate the effects of their mint at the current block, given current on-chain conditions. - MUST return as close to and no fewer than the exact amount of assets that would be deposited in a mint call   in the same transaction. I.e. mint should return the same or fewer assets as previewMint if called in the   same transaction. - MUST NOT account for mint limits like those returned from maxMint and should always act as though the mint   would be accepted, regardless if the user has enough tokens approved, etc. - MUST be inclusive of deposit fees. Integrators should be aware of the existence of deposit fees. - MUST NOT revert. NOTE: any unfavorable discrepancy between convertToAssets and previewMint SHOULD be considered slippage in share price or some other type of condition, meaning the depositor will lose assets by minting."
      },
      "previewRedeem(uint256)": {
        "details": "Allows an on-chain or off-chain user to simulate the effects of their redeemption at the current block, given current on-chain conditions. - MUST return as close to and no more than the exact amount of assets that would be withdrawn in a redeem call   in the same transaction. I.e. redeem should return the same or more assets as previewRedeem if called in the   same transaction. - MUST NOT account for redemption limits like those returned from maxRedeem and should always act as though the   redemption would be accepted, regardless if the user has enough shares, etc. - MUST be inclusive of withdrawal fees. Integrators should be aware of the existence of withdrawal fees. - MUST NOT revert. NOTE: any unfavorable discrepancy between convertToAssets and previewRedeem SHOULD be considered slippage in share price or some other type of condition, meaning the depositor will lose assets by redeeming."
      },
      "previewWithdraw(uint256)": {
        "details": "Allows an on-chain or off-chain user to simulate the effects of their withdrawal at the current block, given current on-chain conditions. - MUST return as close to and no fewer than the exact amount of Vault shares that would be burned in a withdraw   call in the same transaction. I.e. withdraw should return the same or fewer shares as previewWithdraw if   called   in the same transaction. - MUST NOT account for withdrawal limits like those returned from maxWithdraw and should always act as though   the withdrawal would be accepted, regardless if the user has enough shares, etc. - MUST be inclusive of withdrawal fees. Integrators should be aware of the existence of withdrawal fees. - MUST NOT revert. NOTE: any unfavorable discrepancy between convertToShares and previewWithdraw SHOULD be considered slippage in share price or some other type of condition, meaning the depositor will lose assets by depositing."
      },
      "totalAssets()": {
        "details": "Returns the total amount of the underlying asset that is managed by Vault. - SHOULD include any compounding that occurs from yield. - MUST be inclusive of any fees that are charged against assets in the Vault. - MUST NOT revert."
      },
      "totalSupply()": {
        "details": "Returns the amount of tokens in existence."
      }
    },
    "stateVariables": {
      "name": {
        "details": "Returns the name of the token."
      },
      "symbol": {
        "details": "Returns the symbol of the token."
      }
    },
    "title": "STRATEGY MANAGEMENT",
    "version": 1
  },
  "userdoc": {
    "kind": "user",
    "methods": {},
    "version": 1
  },
  "storageLayout": {
    "storage": [
      {
        "astId": 5088,
        "contract": "contracts/SharesManager.sol:SharesManager",
        "label": "strategyManager",
        "offset": 0,
        "slot": "0",
        "type": "t_address"
      },
      {
        "astId": 5090,
        "contract": "contracts/SharesManager.sol:SharesManager",
        "label": "sharesManager",
        "offset": 0,
        "slot": "1",
        "type": "t_address"
      },
      {
        "astId": 5092,
        "contract": "contracts/SharesManager.sol:SharesManager",
        "label": "setters",
        "offset": 0,
        "slot": "2",
        "type": "t_address"
      },
      {
        "astId": 5094,
        "contract": "contracts/SharesManager.sol:SharesManager",
        "label": "governance",
        "offset": 0,
        "slot": "3",
        "type": "t_address"
      },
      {
        "astId": 5099,
        "contract": "contracts/SharesManager.sol:SharesManager",
        "label": "strategies",
        "offset": 0,
        "slot": "4",
        "type": "t_mapping(t_address,t_struct(StrategyParams)5255_storage)"
      },
      {
        "astId": 5102,
        "contract": "contracts/SharesManager.sol:SharesManager",
        "label": "defaultQueue",
        "offset": 0,
        "slot": "5",
        "type": "t_array(t_address)dyn_storage"
      },
      {
        "astId": 5104,
        "contract": "contracts/SharesManager.sol:SharesManager",
        "label": "useDefaultQueue",
        "offset": 0,
        "slot": "6",
        "type": "t_bool"
      },
      {
        "astId": 5108,
        "contract": "contracts/SharesManager.sol:SharesManager",
        "label": "_balanceOf",
        "offset": 0,
        "slot": "7",
        "type": "t_mapping(t_address,t_uint256)"
      },
      {
        "astId": 5114,
        "contract": "contracts/SharesManager.sol:SharesManager",
        "label": "_allowance",
        "offset": 0,
        "slot": "8",
        "type": "t_mapping(t_address,t_mapping(t_address,t_uint256))"
      },
      {
        "astId": 5116,
        "contract": "contracts/SharesManager.sol:SharesManager",
        "label": "totalSupplyAmount",
        "offset": 0,
        "slot": "9",
        "type": "t_uint256"
      },
      {
        "astId": 5118,
        "contract": "contracts/SharesManager.sol:SharesManager",
        "label": "totalDebtAmount",
        "offset": 0,
        "slot": "10",
        "type": "t_uint256"
      },
      {
        "astId": 5120,
        "contract": "contracts/SharesManager.sol:SharesManager",
        "label": "totalIdleAmount",
        "offset": 0,
        "slot": "11",
        "type": "t_uint256"
      },
      {
        "astId": 5122,
        "contract": "contracts/SharesManager.sol:SharesManager",
        "label": "minimumTotalIdle",
        "offset": 0,
        "slot": "12",
        "type": "t_uint256"
      },
      {
        "astId": 5124,
        "contract": "contracts/SharesManager.sol:SharesManager",
        "label": "depositLimit",
        "offset": 0,
        "slot": "13",
        "type": "t_uint256"
      },
      {
        "astId": 5126,
        "contract": "contracts/SharesManager.sol:SharesManager",
        "label": "accountant",
        "offset": 0,
        "slot": "14",
        "type": "t_address"
      },
      {
        "astId": 5128,
        "contract": "contracts/SharesManager.sol:SharesManager",
        "label": "depositLimitModule",
        "offset": 0,
        "slot": "15",
        "type": "t_address"
      },
      {
        "astId": 5130,
        "contract": "contracts/SharesManager.sol:SharesManager",
        "label": "withdrawLimitModule",
        "offset": 0,
        "slot": "16",
        "type": "t_address"
      },
      {
        "astId": 5134,
        "contract": "contracts/SharesManager.sol:SharesManager",
        "label": "roles",
        "offset": 0,
        "slot": "17",
        "type": "t_mapping(t_address,t_bytes32)"
      },
      {
        "astId": 5138,
        "contract": "contracts/SharesManager.sol:SharesManager",
        "label": "openRoles",
        "offset": 0,
        "slot": "18",
        "type": "t_mapping(t_bytes32,t_bool)"
      },
      {
        "astId": 5140,
        "contract": "contracts/SharesManager.sol:SharesManager",
        "label": "roleManager",
        "offset": 0,
        "slot": "19",
        "type": "t_address"
      },
      {
        "astId": 5142,
        "contract": "contracts/SharesManager.sol:SharesManager",
        "label": "futureRoleManager",
        "offset": 0,
        "slot": "20",
        "type": "t_address"
      },
      {
        "astId": 5144,
        "contract": "contracts/SharesManager.sol:SharesManager",
        "label": "shutdown",
        "offset": 20,
        "slot": "20",
        "type": "t_bool"
      },
      {
        "astId": 5146,
        "contract": "contracts/SharesManager.sol:SharesManager",
        "label": "profitMaxUnlockTime",
        "offset": 0,
        "slot": "21",
        "type": "t_uint256"
      },
      {
        "astId": 5148,
        "contract": "contracts/SharesManager.sol:SharesManager",
        "label": "fullProfitUnlockDate",
        "offset": 0,
        "slot": "22",
        "type": "t_uint256"
      },
      {
        "astId": 5150,
        "contract": "contracts/SharesManager.sol:SharesManager",
        "label": "profitUnlockingRate",
        "offset": 0,
        "slot": "23",
        "type": "t_uint256"
      },
      {
        "astId": 5152,
        "contract": "contracts/SharesManager.sol:SharesManager",
        "label": "lastProfitUpdate",
        "offset": 0,
        "slot": "24",
        "type": "t_uint256"
      },
      {
        "astId": 5156,
        "contract": "contracts/SharesManager.sol:SharesManager",
        "label": "nonces",
        "offset": 0,
        "slot": "25",
        "type": "t_mapping(t_address,t_uint256)"
      },
      {
        "astId": 5163,
        "contract": "contracts/SharesManager.sol:SharesManager",
        "label": "DOMAIN_SEPARATOR",
        "offset": 0,
        "slot": "26",
        "type": "t_bytes32"
      },
      {
        "astId": 10,
        "contract": "contracts/SharesManager.sol:SharesManager",
        "label": "_status",
        "offset": 0,
        "slot": "27",
        "type": "t_uint256"
      },
      {
        "astId": 1780,
        "contract": "contracts/SharesManager.sol:SharesManager",
        "label": "name",
        "offset": 0,
        "slot": "28",
        "type": "t_string_storage"
      },
      {
        "astId": 1783,
        "contract": "contracts/SharesManager.sol:SharesManager",
        "label": "symbol",
        "offset": 0,
        "slot": "29",
        "type": "t_string_storage"
      }
    ],
    "types": {
      "t_address": {
        "encoding": "inplace",
        "label": "address",
        "numberOfBytes": "20"
      },
      "t_array(t_address)dyn_storage": {
        "base": "t_address",
        "encoding": "dynamic_array",
        "label": "address[]",
        "numberOfBytes": "32"
      },
      "t_bool": {
        "encoding": "inplace",
        "label": "bool",
        "numberOfBytes": "1"
      },
      "t_bytes32": {
        "encoding": "inplace",
        "label": "bytes32",
        "numberOfBytes": "32"
      },
      "t_mapping(t_address,t_bytes32)": {
        "encoding": "mapping",
        "key": "t_address",
        "label": "mapping(address => bytes32)",
        "numberOfBytes": "32",
        "value": "t_bytes32"
      },
      "t_mapping(t_address,t_mapping(t_address,t_uint256))": {
        "encoding": "mapping",
        "key": "t_address",
        "label": "mapping(address => mapping(address => uint256))",
        "numberOfBytes": "32",
        "value": "t_mapping(t_address,t_uint256)"
      },
      "t_mapping(t_address,t_struct(StrategyParams)5255_storage)": {
        "encoding": "mapping",
        "key": "t_address",
        "label": "mapping(address => struct StrategyParams)",
        "numberOfBytes": "32",
        "value": "t_struct(StrategyParams)5255_storage"
      },
      "t_mapping(t_address,t_uint256)": {
        "encoding": "mapping",
        "key": "t_address",
        "label": "mapping(address => uint256)",
        "numberOfBytes": "32",
        "value": "t_uint256"
      },
      "t_mapping(t_bytes32,t_bool)": {
        "encoding": "mapping",
        "key": "t_bytes32",
        "label": "mapping(bytes32 => bool)",
        "numberOfBytes": "32",
        "value": "t_bool"
      },
      "t_string_storage": {
        "encoding": "bytes",
        "label": "string",
        "numberOfBytes": "32"
      },
      "t_struct(StrategyParams)5255_storage": {
        "encoding": "inplace",
        "label": "struct StrategyParams",
        "members": [
          {
            "astId": 5248,
            "contract": "contracts/SharesManager.sol:SharesManager",
            "label": "activation",
            "offset": 0,
            "slot": "0",
            "type": "t_uint256"
          },
          {
            "astId": 5250,
            "contract": "contracts/SharesManager.sol:SharesManager",
            "label": "lastReport",
            "offset": 0,
            "slot": "1",
            "type": "t_uint256"
          },
          {
            "astId": 5252,
            "contract": "contracts/SharesManager.sol:SharesManager",
            "label": "currentDebt",
            "offset": 0,
            "slot": "2",
            "type": "t_uint256"
          },
          {
            "astId": 5254,
            "contract": "contracts/SharesManager.sol:SharesManager",
            "label": "maxDebt",
            "offset": 0,
            "slot": "3",
            "type": "t_uint256"
          }
        ],
        "numberOfBytes": "128"
      },
      "t_uint256": {
        "encoding": "inplace",
        "label": "uint256",
        "numberOfBytes": "32"
      }
    }
  }
}