{
  "address": "0x5E85229dDfC404BaEd0F5D0630DF42fCB5de3221",
  "abi": [
    {
      "inputs": [],
      "name": "AlreadyInitialized",
      "type": "error"
    },
    {
      "inputs": [],
      "name": "AmountTooHigh",
      "type": "error"
    },
    {
      "inputs": [],
      "name": "ERC20InsufficientAllowance",
      "type": "error"
    },
    {
      "inputs": [],
      "name": "ERC20PermitExpired",
      "type": "error"
    },
    {
      "inputs": [],
      "name": "ERC20PermitInvalidSignature",
      "type": "error"
    },
    {
      "inputs": [],
      "name": "ExceedDepositLimit",
      "type": "error"
    },
    {
      "inputs": [],
      "name": "InactiveStrategy",
      "type": "error"
    },
    {
      "inputs": [],
      "name": "InsufficientAssets",
      "type": "error"
    },
    {
      "inputs": [],
      "name": "InsufficientFunds",
      "type": "error"
    },
    {
      "inputs": [],
      "name": "InsufficientShares",
      "type": "error"
    },
    {
      "inputs": [],
      "name": "InvalidAssetDecimals",
      "type": "error"
    },
    {
      "inputs": [],
      "name": "MaxLoss",
      "type": "error"
    },
    {
      "inputs": [],
      "name": "StrategyDebtIsLessThanAssetsNeeded",
      "type": "error"
    },
    {
      "inputs": [],
      "name": "StrategyIsShutdown",
      "type": "error"
    },
    {
      "inputs": [],
      "name": "TooMuchLoss",
      "type": "error"
    },
    {
      "inputs": [],
      "name": "UsingModule",
      "type": "error"
    },
    {
      "inputs": [],
      "name": "ZeroAddress",
      "type": "error"
    },
    {
      "inputs": [],
      "name": "ZeroValue",
      "type": "error"
    },
    {
      "anonymous": false,
      "inputs": [
        {
          "indexed": true,
          "internalType": "address",
          "name": "owner",
          "type": "address"
        },
        {
          "indexed": true,
          "internalType": "address",
          "name": "spender",
          "type": "address"
        },
        {
          "indexed": false,
          "internalType": "uint256",
          "name": "value",
          "type": "uint256"
        }
      ],
      "name": "Approval",
      "type": "event"
    },
    {
      "anonymous": false,
      "inputs": [
        {
          "indexed": true,
          "internalType": "address",
          "name": "strategy",
          "type": "address"
        },
        {
          "indexed": false,
          "internalType": "uint256",
          "name": "amount",
          "type": "uint256"
        }
      ],
      "name": "DebtPurchased",
      "type": "event"
    },
    {
      "anonymous": false,
      "inputs": [
        {
          "indexed": true,
          "internalType": "address",
          "name": "strategy",
          "type": "address"
        },
        {
          "indexed": false,
          "internalType": "uint256",
          "name": "currentDebt",
          "type": "uint256"
        },
        {
          "indexed": false,
          "internalType": "uint256",
          "name": "newDebt",
          "type": "uint256"
        }
      ],
      "name": "DebtUpdated",
      "type": "event"
    },
    {
      "anonymous": false,
      "inputs": [
        {
          "indexed": true,
          "internalType": "address",
          "name": "sender",
          "type": "address"
        },
        {
          "indexed": true,
          "internalType": "address",
          "name": "owner",
          "type": "address"
        },
        {
          "indexed": false,
          "internalType": "uint256",
          "name": "assets",
          "type": "uint256"
        },
        {
          "indexed": false,
          "internalType": "uint256",
          "name": "shares",
          "type": "uint256"
        }
      ],
      "name": "Deposit",
      "type": "event"
    },
    {
      "anonymous": false,
      "inputs": [
        {
          "indexed": true,
          "internalType": "bytes32",
          "name": "role",
          "type": "bytes32"
        },
        {
          "indexed": true,
          "internalType": "bytes32",
          "name": "previousAdminRole",
          "type": "bytes32"
        },
        {
          "indexed": true,
          "internalType": "bytes32",
          "name": "newAdminRole",
          "type": "bytes32"
        }
      ],
      "name": "RoleAdminChanged",
      "type": "event"
    },
    {
      "anonymous": false,
      "inputs": [
        {
          "indexed": true,
          "internalType": "bytes32",
          "name": "role",
          "type": "bytes32"
        },
        {
          "indexed": true,
          "internalType": "address",
          "name": "account",
          "type": "address"
        },
        {
          "indexed": true,
          "internalType": "address",
          "name": "sender",
          "type": "address"
        }
      ],
      "name": "RoleGranted",
      "type": "event"
    },
    {
      "anonymous": false,
      "inputs": [
        {
          "indexed": true,
          "internalType": "bytes32",
          "name": "role",
          "type": "bytes32"
        },
        {
          "indexed": true,
          "internalType": "address",
          "name": "account",
          "type": "address"
        },
        {
          "indexed": true,
          "internalType": "address",
          "name": "sender",
          "type": "address"
        }
      ],
      "name": "RoleRevoked",
      "type": "event"
    },
    {
      "anonymous": false,
      "inputs": [
        {
          "indexed": true,
          "internalType": "address",
          "name": "account",
          "type": "address"
        },
        {
          "indexed": false,
          "internalType": "bytes32",
          "name": "role",
          "type": "bytes32"
        }
      ],
      "name": "RoleSet",
      "type": "event"
    },
    {
      "anonymous": false,
      "inputs": [
        {
          "indexed": true,
          "internalType": "bytes32",
          "name": "role",
          "type": "bytes32"
        },
        {
          "indexed": true,
          "internalType": "enum RoleStatusChange",
          "name": "status",
          "type": "uint8"
        }
      ],
      "name": "RoleStatusChanged",
      "type": "event"
    },
    {
      "anonymous": false,
      "inputs": [],
      "name": "Shutdown",
      "type": "event"
    },
    {
      "anonymous": false,
      "inputs": [
        {
          "indexed": true,
          "internalType": "address",
          "name": "strategy",
          "type": "address"
        },
        {
          "indexed": false,
          "internalType": "enum StrategyChangeType",
          "name": "changeType",
          "type": "uint8"
        }
      ],
      "name": "StrategyChanged",
      "type": "event"
    },
    {
      "anonymous": false,
      "inputs": [
        {
          "indexed": true,
          "internalType": "address",
          "name": "strategy",
          "type": "address"
        },
        {
          "indexed": false,
          "internalType": "uint256",
          "name": "gain",
          "type": "uint256"
        },
        {
          "indexed": false,
          "internalType": "uint256",
          "name": "loss",
          "type": "uint256"
        },
        {
          "indexed": false,
          "internalType": "uint256",
          "name": "currentDebt",
          "type": "uint256"
        },
        {
          "indexed": false,
          "internalType": "uint256",
          "name": "protocolFees",
          "type": "uint256"
        },
        {
          "indexed": false,
          "internalType": "uint256",
          "name": "totalFees",
          "type": "uint256"
        },
        {
          "indexed": false,
          "internalType": "uint256",
          "name": "totalRefunds",
          "type": "uint256"
        }
      ],
      "name": "StrategyReported",
      "type": "event"
    },
    {
      "anonymous": false,
      "inputs": [
        {
          "indexed": true,
          "internalType": "address",
          "name": "from",
          "type": "address"
        },
        {
          "indexed": true,
          "internalType": "address",
          "name": "to",
          "type": "address"
        },
        {
          "indexed": false,
          "internalType": "uint256",
          "name": "value",
          "type": "uint256"
        }
      ],
      "name": "Transfer",
      "type": "event"
    },
    {
      "anonymous": false,
      "inputs": [
        {
          "indexed": true,
          "internalType": "address",
          "name": "accountant",
          "type": "address"
        }
      ],
      "name": "UpdateAccountant",
      "type": "event"
    },
    {
      "anonymous": false,
      "inputs": [
        {
          "indexed": false,
          "internalType": "address[]",
          "name": "newDefaultQueue",
          "type": "address[]"
        }
      ],
      "name": "UpdateDefaultQueue",
      "type": "event"
    },
    {
      "anonymous": false,
      "inputs": [
        {
          "indexed": false,
          "internalType": "uint256",
          "name": "depositLimit",
          "type": "uint256"
        }
      ],
      "name": "UpdateDepositLimit",
      "type": "event"
    },
    {
      "anonymous": false,
      "inputs": [
        {
          "indexed": true,
          "internalType": "address",
          "name": "depositLimitModule",
          "type": "address"
        }
      ],
      "name": "UpdateDepositLimitModule",
      "type": "event"
    },
    {
      "anonymous": false,
      "inputs": [
        {
          "indexed": false,
          "internalType": "uint256",
          "name": "minimumTotalIdle",
          "type": "uint256"
        }
      ],
      "name": "UpdateMinimumTotalIdle",
      "type": "event"
    },
    {
      "anonymous": false,
      "inputs": [
        {
          "indexed": false,
          "internalType": "uint256",
          "name": "profitMaxUnlockTime",
          "type": "uint256"
        }
      ],
      "name": "UpdateProfitMaxUnlockTime",
      "type": "event"
    },
    {
      "anonymous": false,
      "inputs": [
        {
          "indexed": true,
          "internalType": "address",
          "name": "roleManager",
          "type": "address"
        }
      ],
      "name": "UpdateRoleManager",
      "type": "event"
    },
    {
      "anonymous": false,
      "inputs": [
        {
          "indexed": false,
          "internalType": "bool",
          "name": "useDefaultQueue",
          "type": "bool"
        }
      ],
      "name": "UpdateUseDefaultQueue",
      "type": "event"
    },
    {
      "anonymous": false,
      "inputs": [
        {
          "indexed": true,
          "internalType": "address",
          "name": "withdrawLimitModule",
          "type": "address"
        }
      ],
      "name": "UpdateWithdrawLimitModule",
      "type": "event"
    },
    {
      "anonymous": false,
      "inputs": [
        {
          "indexed": true,
          "internalType": "uint256",
          "name": "totalFees",
          "type": "uint256"
        },
        {
          "indexed": true,
          "internalType": "uint256",
          "name": "totalRefunds",
          "type": "uint256"
        },
        {
          "indexed": true,
          "internalType": "uint256",
          "name": "protocolFees",
          "type": "uint256"
        },
        {
          "indexed": false,
          "internalType": "address",
          "name": "protocolFeeRecipient",
          "type": "address"
        }
      ],
      "name": "UpdatedFees",
      "type": "event"
    },
    {
      "anonymous": false,
      "inputs": [
        {
          "indexed": true,
          "internalType": "address",
          "name": "sender",
          "type": "address"
        },
        {
          "indexed": true,
          "internalType": "address",
          "name": "strategy",
          "type": "address"
        },
        {
          "indexed": false,
          "internalType": "uint256",
          "name": "newDebt",
          "type": "uint256"
        }
      ],
      "name": "UpdatedMaxDebtForStrategy",
      "type": "event"
    },
    {
      "anonymous": false,
      "inputs": [
        {
          "indexed": true,
          "internalType": "address",
          "name": "sender",
          "type": "address"
        },
        {
          "indexed": true,
          "internalType": "address",
          "name": "receiver",
          "type": "address"
        },
        {
          "indexed": true,
          "internalType": "address",
          "name": "owner",
          "type": "address"
        },
        {
          "indexed": false,
          "internalType": "uint256",
          "name": "assets",
          "type": "uint256"
        },
        {
          "indexed": false,
          "internalType": "uint256",
          "name": "shares",
          "type": "uint256"
        }
      ],
      "name": "Withdraw",
      "type": "event"
    },
    {
      "inputs": [],
      "name": "ACCOUNTANT_MANAGER",
      "outputs": [
        {
          "internalType": "bytes32",
          "name": "",
          "type": "bytes32"
        }
      ],
      "stateMutability": "view",
      "type": "function"
    },
    {
      "inputs": [],
      "name": "ADD_STRATEGY_MANAGER",
      "outputs": [
        {
          "internalType": "bytes32",
          "name": "",
          "type": "bytes32"
        }
      ],
      "stateMutability": "view",
      "type": "function"
    },
    {
      "inputs": [],
      "name": "API_VERSION",
      "outputs": [
        {
          "internalType": "string",
          "name": "",
          "type": "string"
        }
      ],
      "stateMutability": "view",
      "type": "function"
    },
    {
      "inputs": [],
      "name": "ASSET",
      "outputs": [
        {
          "internalType": "contract IERC20",
          "name": "",
          "type": "address"
        }
      ],
      "stateMutability": "view",
      "type": "function"
    },
    {
      "inputs": [],
      "name": "DEBT_MANAGER",
      "outputs": [
        {
          "internalType": "bytes32",
          "name": "",
          "type": "bytes32"
        }
      ],
      "stateMutability": "view",
      "type": "function"
    },
    {
      "inputs": [],
      "name": "DEBT_PURCHASER",
      "outputs": [
        {
          "internalType": "bytes32",
          "name": "",
          "type": "bytes32"
        }
      ],
      "stateMutability": "view",
      "type": "function"
    },
    {
      "inputs": [],
      "name": "DECIMALS",
      "outputs": [
        {
          "internalType": "uint8",
          "name": "",
          "type": "uint8"
        }
      ],
      "stateMutability": "view",
      "type": "function"
    },
    {
      "inputs": [],
      "name": "DEFAULT_ADMIN_ROLE",
      "outputs": [
        {
          "internalType": "bytes32",
          "name": "",
          "type": "bytes32"
        }
      ],
      "stateMutability": "view",
      "type": "function"
    },
    {
      "inputs": [],
      "name": "DEPOSIT_LIMIT_MANAGER",
      "outputs": [
        {
          "internalType": "bytes32",
          "name": "",
          "type": "bytes32"
        }
      ],
      "stateMutability": "view",
      "type": "function"
    },
    {
      "inputs": [],
      "name": "DOMAIN_SEPARATOR",
      "outputs": [
        {
          "internalType": "bytes32",
          "name": "",
          "type": "bytes32"
        }
      ],
      "stateMutability": "view",
      "type": "function"
    },
    {
      "inputs": [],
      "name": "DOMAIN_TYPE_HASH",
      "outputs": [
        {
          "internalType": "bytes32",
          "name": "",
          "type": "bytes32"
        }
      ],
      "stateMutability": "view",
      "type": "function"
    },
    {
      "inputs": [],
      "name": "EMERGENCY_MANAGER",
      "outputs": [
        {
          "internalType": "bytes32",
          "name": "",
          "type": "bytes32"
        }
      ],
      "stateMutability": "view",
      "type": "function"
    },
    {
      "inputs": [],
      "name": "FORCE_REVOKE_MANAGER",
      "outputs": [
        {
          "internalType": "bytes32",
          "name": "",
          "type": "bytes32"
        }
      ],
      "stateMutability": "view",
      "type": "function"
    },
    {
      "inputs": [],
      "name": "MAX_BPS",
      "outputs": [
        {
          "internalType": "uint256",
          "name": "",
          "type": "uint256"
        }
      ],
      "stateMutability": "view",
      "type": "function"
    },
    {
      "inputs": [],
      "name": "MAX_BPS_EXTENDED",
      "outputs": [
        {
          "internalType": "uint256",
          "name": "",
          "type": "uint256"
        }
      ],
      "stateMutability": "view",
      "type": "function"
    },
    {
      "inputs": [],
      "name": "MAX_DEBT_MANAGER",
      "outputs": [
        {
          "internalType": "bytes32",
          "name": "",
          "type": "bytes32"
        }
      ],
      "stateMutability": "view",
      "type": "function"
    },
    {
      "inputs": [],
      "name": "MAX_QUEUE",
      "outputs": [
        {
          "internalType": "uint256",
          "name": "",
          "type": "uint256"
        }
      ],
      "stateMutability": "view",
      "type": "function"
    },
    {
      "inputs": [],
      "name": "MINIMUM_IDLE_MANAGER",
      "outputs": [
        {
          "internalType": "bytes32",
          "name": "",
          "type": "bytes32"
        }
      ],
      "stateMutability": "view",
      "type": "function"
    },
    {
      "inputs": [],
      "name": "ONE_YEAR",
      "outputs": [
        {
          "internalType": "uint256",
          "name": "",
          "type": "uint256"
        }
      ],
      "stateMutability": "view",
      "type": "function"
    },
    {
      "inputs": [],
      "name": "PERMIT_TYPE_HASH",
      "outputs": [
        {
          "internalType": "bytes32",
          "name": "",
          "type": "bytes32"
        }
      ],
      "stateMutability": "view",
      "type": "function"
    },
    {
      "inputs": [],
      "name": "PROFIT_UNLOCK_MANAGER",
      "outputs": [
        {
          "internalType": "bytes32",
          "name": "",
          "type": "bytes32"
        }
      ],
      "stateMutability": "view",
      "type": "function"
    },
    {
      "inputs": [],
      "name": "QUEUE_MANAGER",
      "outputs": [
        {
          "internalType": "bytes32",
          "name": "",
          "type": "bytes32"
        }
      ],
      "stateMutability": "view",
      "type": "function"
    },
    {
      "inputs": [],
      "name": "REPORTING_MANAGER",
      "outputs": [
        {
          "internalType": "bytes32",
          "name": "",
          "type": "bytes32"
        }
      ],
      "stateMutability": "view",
      "type": "function"
    },
    {
      "inputs": [],
      "name": "REVOKE_STRATEGY_MANAGER",
      "outputs": [
        {
          "internalType": "bytes32",
          "name": "",
          "type": "bytes32"
        }
      ],
      "stateMutability": "view",
      "type": "function"
    },
    {
      "inputs": [],
      "name": "ROLE_MANAGER",
      "outputs": [
        {
          "internalType": "bytes32",
          "name": "",
          "type": "bytes32"
        }
      ],
      "stateMutability": "view",
      "type": "function"
    },
    {
      "inputs": [],
      "name": "WITHDRAW_LIMIT_MANAGER",
      "outputs": [
        {
          "internalType": "bytes32",
          "name": "",
          "type": "bytes32"
        }
      ],
      "stateMutability": "view",
      "type": "function"
    },
    {
      "inputs": [],
      "name": "accountant",
      "outputs": [
        {
          "internalType": "address",
          "name": "",
          "type": "address"
        }
      ],
      "stateMutability": "view",
      "type": "function"
    },
    {
      "inputs": [
        {
          "internalType": "address",
          "name": "owner",
          "type": "address"
        },
        {
          "internalType": "address",
          "name": "spender",
          "type": "address"
        }
      ],
      "name": "allowance",
      "outputs": [
        {
          "internalType": "uint256",
          "name": "",
          "type": "uint256"
        }
      ],
      "stateMutability": "view",
      "type": "function"
    },
    {
      "inputs": [
        {
          "internalType": "address",
          "name": "spender",
          "type": "address"
        },
        {
          "internalType": "uint256",
          "name": "amount",
          "type": "uint256"
        }
      ],
      "name": "approve",
      "outputs": [
        {
          "internalType": "bool",
          "name": "",
          "type": "bool"
        }
      ],
      "stateMutability": "nonpayable",
      "type": "function"
    },
    {
      "inputs": [
        {
          "internalType": "address",
          "name": "owner",
          "type": "address"
        },
        {
          "internalType": "address",
          "name": "spender",
          "type": "address"
        },
        {
          "internalType": "uint256",
          "name": "amount",
          "type": "uint256"
        }
      ],
      "name": "approve",
      "outputs": [
        {
          "internalType": "bool",
          "name": "",
          "type": "bool"
        }
      ],
      "stateMutability": "nonpayable",
      "type": "function"
    },
    {
      "inputs": [
        {
          "internalType": "address",
          "name": "strategy",
          "type": "address"
        },
        {
          "internalType": "uint256",
          "name": "assetsNeeded",
          "type": "uint256"
        }
      ],
      "name": "assessShareOfUnrealisedLosses",
      "outputs": [
        {
          "internalType": "uint256",
          "name": "",
          "type": "uint256"
        }
      ],
      "stateMutability": "view",
      "type": "function"
    },
    {
      "inputs": [],
      "name": "asset",
      "outputs": [
        {
          "internalType": "address",
          "name": "",
          "type": "address"
        }
      ],
      "stateMutability": "view",
      "type": "function"
    },
    {
      "inputs": [
        {
          "internalType": "address",
          "name": "addr",
          "type": "address"
        }
      ],
      "name": "balanceOf",
      "outputs": [
        {
          "internalType": "uint256",
          "name": "",
          "type": "uint256"
        }
      ],
      "stateMutability": "view",
      "type": "function"
    },
    {
      "inputs": [
        {
          "internalType": "uint256",
          "name": "shares",
          "type": "uint256"
        },
        {
          "internalType": "address",
          "name": "owner",
          "type": "address"
        }
      ],
      "name": "burnShares",
      "outputs": [],
      "stateMutability": "nonpayable",
      "type": "function"
    },
    {
      "inputs": [],
      "name": "burnUnlockedShares",
      "outputs": [],
      "stateMutability": "nonpayable",
      "type": "function"
    },
    {
      "inputs": [
        {
          "internalType": "uint256",
          "name": "gain",
          "type": "uint256"
        },
        {
          "internalType": "uint256",
          "name": "loss",
          "type": "uint256"
        },
        {
          "internalType": "uint256",
          "name": "totalFees",
          "type": "uint256"
        },
        {
          "internalType": "uint256",
          "name": "protocolFees",
          "type": "uint256"
        },
        {
          "internalType": "address",
          "name": "strategy",
          "type": "address"
        }
      ],
      "name": "calculateShareManagement",
      "outputs": [
        {
          "components": [
            {
              "internalType": "uint256",
              "name": "sharesToBurn",
              "type": "uint256"
            },
            {
              "internalType": "uint256",
              "name": "accountantFeesShares",
              "type": "uint256"
            },
            {
              "internalType": "uint256",
              "name": "protocolFeesShares",
              "type": "uint256"
            }
          ],
          "internalType": "struct ShareManagement",
          "name": "",
          "type": "tuple"
        }
      ],
      "stateMutability": "nonpayable",
      "type": "function"
    },
    {
      "inputs": [
        {
          "internalType": "uint256",
          "name": "shares",
          "type": "uint256"
        }
      ],
      "name": "convertToAssets",
      "outputs": [
        {
          "internalType": "uint256",
          "name": "",
          "type": "uint256"
        }
      ],
      "stateMutability": "view",
      "type": "function"
    },
    {
      "inputs": [
        {
          "internalType": "uint256",
          "name": "shares",
          "type": "uint256"
        },
        {
          "internalType": "enum Rounding",
          "name": "rounding",
          "type": "uint8"
        }
      ],
      "name": "convertToAssets",
      "outputs": [
        {
          "internalType": "uint256",
          "name": "",
          "type": "uint256"
        }
      ],
      "stateMutability": "view",
      "type": "function"
    },
    {
      "inputs": [
        {
          "internalType": "uint256",
          "name": "assets",
          "type": "uint256"
        },
        {
          "internalType": "enum Rounding",
          "name": "rounding",
          "type": "uint8"
        }
      ],
      "name": "convertToShares",
      "outputs": [
        {
          "internalType": "uint256",
          "name": "",
          "type": "uint256"
        }
      ],
      "stateMutability": "view",
      "type": "function"
    },
    {
      "inputs": [
        {
          "internalType": "uint256",
          "name": "assets",
          "type": "uint256"
        }
      ],
      "name": "convertToShares",
      "outputs": [
        {
          "internalType": "uint256",
          "name": "",
          "type": "uint256"
        }
      ],
      "stateMutability": "view",
      "type": "function"
    },
    {
      "inputs": [],
      "name": "decimals",
      "outputs": [
        {
          "internalType": "uint8",
          "name": "",
          "type": "uint8"
        }
      ],
      "stateMutability": "view",
      "type": "function"
    },
    {
      "inputs": [
        {
          "internalType": "address",
          "name": "owner",
          "type": "address"
        },
        {
          "internalType": "address",
          "name": "spender",
          "type": "address"
        },
        {
          "internalType": "uint256",
          "name": "amount",
          "type": "uint256"
        }
      ],
      "name": "decreaseAllowance",
      "outputs": [
        {
          "internalType": "bool",
          "name": "",
          "type": "bool"
        }
      ],
      "stateMutability": "nonpayable",
      "type": "function"
    },
    {
      "inputs": [
        {
          "internalType": "uint256",
          "name": "",
          "type": "uint256"
        }
      ],
      "name": "defaultQueue",
      "outputs": [
        {
          "internalType": "address",
          "name": "",
          "type": "address"
        }
      ],
      "stateMutability": "view",
      "type": "function"
    },
    {
      "inputs": [
        {
          "internalType": "uint256",
          "name": "assets",
          "type": "uint256"
        },
        {
          "internalType": "address",
          "name": "receiver",
          "type": "address"
        }
      ],
      "name": "deposit",
      "outputs": [
        {
          "internalType": "uint256",
          "name": "",
          "type": "uint256"
        }
      ],
      "stateMutability": "nonpayable",
      "type": "function"
    },
    {
      "inputs": [
        {
          "internalType": "address",
          "name": "sender",
          "type": "address"
        },
        {
          "internalType": "address",
          "name": "recipient",
          "type": "address"
        },
        {
          "internalType": "uint256",
          "name": "assets",
          "type": "uint256"
        }
      ],
      "name": "deposit",
      "outputs": [
        {
          "internalType": "uint256",
          "name": "",
          "type": "uint256"
        }
      ],
      "stateMutability": "nonpayable",
      "type": "function"
    },
    {
      "inputs": [],
      "name": "depositLimit",
      "outputs": [
        {
          "internalType": "uint256",
          "name": "",
          "type": "uint256"
        }
      ],
      "stateMutability": "view",
      "type": "function"
    },
    {
      "inputs": [],
      "name": "depositLimitModule",
      "outputs": [
        {
          "internalType": "address",
          "name": "",
          "type": "address"
        }
      ],
      "stateMutability": "view",
      "type": "function"
    },
    {
      "inputs": [
        {
          "internalType": "address",
          "name": "strategy",
          "type": "address"
        },
        {
          "internalType": "uint256",
          "name": "assetsToDeposit",
          "type": "uint256"
        }
      ],
      "name": "depositToStrategy",
      "outputs": [],
      "stateMutability": "nonpayable",
      "type": "function"
    },
    {
      "inputs": [
        {
          "internalType": "address",
          "name": "token",
          "type": "address"
        },
        {
          "internalType": "address",
          "name": "spender",
          "type": "address"
        },
        {
          "internalType": "uint256",
          "name": "amount",
          "type": "uint256"
        }
      ],
      "name": "erc20SafeApprove",
      "outputs": [],
      "stateMutability": "nonpayable",
      "type": "function"
    },
    {
      "inputs": [
        {
          "internalType": "address",
          "name": "token",
          "type": "address"
        },
        {
          "internalType": "address",
          "name": "receiver",
          "type": "address"
        },
        {
          "internalType": "uint256",
          "name": "amount",
          "type": "uint256"
        }
      ],
      "name": "erc20SafeTransfer",
      "outputs": [],
      "stateMutability": "nonpayable",
      "type": "function"
    },
    {
      "inputs": [
        {
          "internalType": "address",
          "name": "token",
          "type": "address"
        },
        {
          "internalType": "address",
          "name": "sender",
          "type": "address"
        },
        {
          "internalType": "address",
          "name": "receiver",
          "type": "address"
        },
        {
          "internalType": "uint256",
          "name": "amount",
          "type": "uint256"
        }
      ],
      "name": "erc20SafeTransferFrom",
      "outputs": [],
      "stateMutability": "nonpayable",
      "type": "function"
    },
    {
      "inputs": [],
      "name": "fees",
      "outputs": [
        {
          "internalType": "uint256",
          "name": "totalFees",
          "type": "uint256"
        },
        {
          "internalType": "uint256",
          "name": "totalRefunds",
          "type": "uint256"
        },
        {
          "internalType": "uint256",
          "name": "protocolFees",
          "type": "uint256"
        },
        {
          "internalType": "address",
          "name": "protocolFeeRecipient",
          "type": "address"
        }
      ],
      "stateMutability": "view",
      "type": "function"
    },
    {
      "inputs": [],
      "name": "fullProfitUnlockDate",
      "outputs": [
        {
          "internalType": "uint256",
          "name": "",
          "type": "uint256"
        }
      ],
      "stateMutability": "view",
      "type": "function"
    },
    {
      "inputs": [],
      "name": "futureRoleManager",
      "outputs": [
        {
          "internalType": "address",
          "name": "",
          "type": "address"
        }
      ],
      "stateMutability": "view",
      "type": "function"
    },
    {
      "inputs": [],
      "name": "getMinimumTotalIdle",
      "outputs": [
        {
          "internalType": "uint256",
          "name": "",
          "type": "uint256"
        }
      ],
      "stateMutability": "view",
      "type": "function"
    },
    {
      "inputs": [
        {
          "internalType": "bytes32",
          "name": "role",
          "type": "bytes32"
        }
      ],
      "name": "getRoleAdmin",
      "outputs": [
        {
          "internalType": "bytes32",
          "name": "",
          "type": "bytes32"
        }
      ],
      "stateMutability": "view",
      "type": "function"
    },
    {
      "inputs": [],
      "name": "getTotalIdleAmount",
      "outputs": [
        {
          "internalType": "uint256",
          "name": "",
          "type": "uint256"
        }
      ],
      "stateMutability": "view",
      "type": "function"
    },
    {
      "inputs": [],
      "name": "governance",
      "outputs": [
        {
          "internalType": "address",
          "name": "",
          "type": "address"
        }
      ],
      "stateMutability": "view",
      "type": "function"
    },
    {
      "inputs": [
        {
          "internalType": "bytes32",
          "name": "role",
          "type": "bytes32"
        },
        {
          "internalType": "address",
          "name": "account",
          "type": "address"
        }
      ],
      "name": "grantRole",
      "outputs": [],
      "stateMutability": "nonpayable",
      "type": "function"
    },
    {
      "inputs": [
        {
          "components": [
            {
              "internalType": "uint256",
              "name": "sharesToBurn",
              "type": "uint256"
            },
            {
              "internalType": "uint256",
              "name": "accountantFeesShares",
              "type": "uint256"
            },
            {
              "internalType": "uint256",
              "name": "protocolFeesShares",
              "type": "uint256"
            }
          ],
          "internalType": "struct ShareManagement",
          "name": "shares",
          "type": "tuple"
        },
        {
          "components": [
            {
              "internalType": "uint256",
              "name": "totalFees",
              "type": "uint256"
            },
            {
              "internalType": "uint256",
              "name": "totalRefunds",
              "type": "uint256"
            },
            {
              "internalType": "uint256",
              "name": "protocolFees",
              "type": "uint256"
            },
            {
              "internalType": "address",
              "name": "protocolFeeRecipient",
              "type": "address"
            }
          ],
          "internalType": "struct FeeAssessment",
          "name": "_fees",
          "type": "tuple"
        },
        {
          "internalType": "uint256",
          "name": "gain",
          "type": "uint256"
        }
      ],
      "name": "handleShareBurnsAndIssues",
      "outputs": [
        {
          "internalType": "uint256",
          "name": "previouslyLockedShares",
          "type": "uint256"
        },
        {
          "internalType": "uint256",
          "name": "newlyLockedShares",
          "type": "uint256"
        }
      ],
      "stateMutability": "nonpayable",
      "type": "function"
    },
    {
      "inputs": [
        {
          "internalType": "bytes32",
          "name": "role",
          "type": "bytes32"
        },
        {
          "internalType": "address",
          "name": "account",
          "type": "address"
        }
      ],
      "name": "hasRole",
      "outputs": [
        {
          "internalType": "bool",
          "name": "",
          "type": "bool"
        }
      ],
      "stateMutability": "view",
      "type": "function"
    },
    {
      "inputs": [
        {
          "internalType": "address",
          "name": "owner",
          "type": "address"
        },
        {
          "internalType": "address",
          "name": "spender",
          "type": "address"
        },
        {
          "internalType": "uint256",
          "name": "amount",
          "type": "uint256"
        }
      ],
      "name": "increaseAllowance",
      "outputs": [
        {
          "internalType": "bool",
          "name": "",
          "type": "bool"
        }
      ],
      "stateMutability": "nonpayable",
      "type": "function"
    },
    {
      "inputs": [
        {
          "internalType": "address payable",
          "name": "_strategyManager",
          "type": "address"
        },
        {
          "internalType": "address payable",
          "name": "_setters",
          "type": "address"
        },
        {
          "internalType": "address",
          "name": "_asset",
          "type": "address"
        },
        {
          "internalType": "uint8",
          "name": "_decimals",
          "type": "uint8"
        },
        {
          "internalType": "string",
          "name": "_name",
          "type": "string"
        },
        {
          "internalType": "string",
          "name": "_symbol",
          "type": "string"
        }
      ],
      "name": "initialize",
      "outputs": [],
      "stateMutability": "nonpayable",
      "type": "function"
    },
    {
      "inputs": [
        {
          "internalType": "uint256",
          "name": "shares",
          "type": "uint256"
        },
        {
          "internalType": "address",
          "name": "recipient",
          "type": "address"
        }
      ],
      "name": "issueShares",
      "outputs": [],
      "stateMutability": "nonpayable",
      "type": "function"
    },
    {
      "inputs": [
        {
          "internalType": "uint256",
          "name": "amount",
          "type": "uint256"
        },
        {
          "internalType": "address",
          "name": "recipient",
          "type": "address"
        }
      ],
      "name": "issueSharesForAmount",
      "outputs": [
        {
          "internalType": "uint256",
          "name": "",
          "type": "uint256"
        }
      ],
      "stateMutability": "nonpayable",
      "type": "function"
    },
    {
      "inputs": [],
      "name": "lastProfitUpdate",
      "outputs": [
        {
          "internalType": "uint256",
          "name": "",
          "type": "uint256"
        }
      ],
      "stateMutability": "view",
      "type": "function"
    },
    {
      "inputs": [
        {
          "internalType": "uint256",
          "name": "previouslyLockedShares",
          "type": "uint256"
        },
        {
          "internalType": "uint256",
          "name": "newlyLockedShares",
          "type": "uint256"
        }
      ],
      "name": "manageUnlockingOfShares",
      "outputs": [],
      "stateMutability": "nonpayable",
      "type": "function"
    },
    {
      "inputs": [
        {
          "internalType": "address",
          "name": "receiver",
          "type": "address"
        }
      ],
      "name": "maxDeposit",
      "outputs": [
        {
          "internalType": "uint256",
          "name": "",
          "type": "uint256"
        }
      ],
      "stateMutability": "view",
      "type": "function"
    },
    {
      "inputs": [
        {
          "internalType": "address",
          "name": "receiver",
          "type": "address"
        }
      ],
      "name": "maxMint",
      "outputs": [
        {
          "internalType": "uint256",
          "name": "",
          "type": "uint256"
        }
      ],
      "stateMutability": "view",
      "type": "function"
    },
    {
      "inputs": [
        {
          "internalType": "address",
          "name": "owner",
          "type": "address"
        },
        {
          "internalType": "uint256",
          "name": "maxLoss",
          "type": "uint256"
        },
        {
          "internalType": "address[]",
          "name": "_strategies",
          "type": "address[]"
        }
      ],
      "name": "maxRedeem",
      "outputs": [
        {
          "internalType": "uint256",
          "name": "",
          "type": "uint256"
        }
      ],
      "stateMutability": "nonpayable",
      "type": "function"
    },
    {
      "inputs": [
        {
          "internalType": "address",
          "name": "owner",
          "type": "address"
        },
        {
          "internalType": "uint256",
          "name": "_maxLoss",
          "type": "uint256"
        },
        {
          "internalType": "address[]",
          "name": "_strategies",
          "type": "address[]"
        }
      ],
      "name": "maxWithdraw",
      "outputs": [
        {
          "internalType": "uint256",
          "name": "",
          "type": "uint256"
        }
      ],
      "stateMutability": "nonpayable",
      "type": "function"
    },
    {
      "inputs": [],
      "name": "minimumTotalIdle",
      "outputs": [
        {
          "internalType": "uint256",
          "name": "",
          "type": "uint256"
        }
      ],
      "stateMutability": "view",
      "type": "function"
    },
    {
      "inputs": [
        {
          "internalType": "uint256",
          "name": "shares",
          "type": "uint256"
        },
        {
          "internalType": "address",
          "name": "receiver",
          "type": "address"
        }
      ],
      "name": "mint",
      "outputs": [
        {
          "internalType": "uint256",
          "name": "",
          "type": "uint256"
        }
      ],
      "stateMutability": "nonpayable",
      "type": "function"
    },
    {
      "inputs": [
        {
          "internalType": "address",
          "name": "sender",
          "type": "address"
        },
        {
          "internalType": "address",
          "name": "recipient",
          "type": "address"
        },
        {
          "internalType": "uint256",
          "name": "shares",
          "type": "uint256"
        }
      ],
      "name": "mint",
      "outputs": [
        {
          "internalType": "uint256",
          "name": "",
          "type": "uint256"
        }
      ],
      "stateMutability": "nonpayable",
      "type": "function"
    },
    {
      "inputs": [],
      "name": "name",
      "outputs": [
        {
          "internalType": "string",
          "name": "",
          "type": "string"
        }
      ],
      "stateMutability": "view",
      "type": "function"
    },
    {
      "inputs": [
        {
          "internalType": "address",
          "name": "",
          "type": "address"
        }
      ],
      "name": "nonces",
      "outputs": [
        {
          "internalType": "uint256",
          "name": "",
          "type": "uint256"
        }
      ],
      "stateMutability": "view",
      "type": "function"
    },
    {
      "inputs": [
        {
          "internalType": "bytes32",
          "name": "",
          "type": "bytes32"
        }
      ],
      "name": "openRoles",
      "outputs": [
        {
          "internalType": "bool",
          "name": "",
          "type": "bool"
        }
      ],
      "stateMutability": "view",
      "type": "function"
    },
    {
      "inputs": [
        {
          "internalType": "address",
          "name": "owner",
          "type": "address"
        },
        {
          "internalType": "address",
          "name": "spender",
          "type": "address"
        },
        {
          "internalType": "uint256",
          "name": "amount",
          "type": "uint256"
        },
        {
          "internalType": "uint256",
          "name": "deadline",
          "type": "uint256"
        },
        {
          "internalType": "uint8",
          "name": "v",
          "type": "uint8"
        },
        {
          "internalType": "bytes32",
          "name": "r",
          "type": "bytes32"
        },
        {
          "internalType": "bytes32",
          "name": "s",
          "type": "bytes32"
        }
      ],
      "name": "permit",
      "outputs": [
        {
          "internalType": "bool",
          "name": "",
          "type": "bool"
        }
      ],
      "stateMutability": "nonpayable",
      "type": "function"
    },
    {
      "inputs": [
        {
          "internalType": "uint256",
          "name": "assets",
          "type": "uint256"
        }
      ],
      "name": "previewDeposit",
      "outputs": [
        {
          "internalType": "uint256",
          "name": "",
          "type": "uint256"
        }
      ],
      "stateMutability": "view",
      "type": "function"
    },
    {
      "inputs": [
        {
          "internalType": "uint256",
          "name": "shares",
          "type": "uint256"
        }
      ],
      "name": "previewMint",
      "outputs": [
        {
          "internalType": "uint256",
          "name": "",
          "type": "uint256"
        }
      ],
      "stateMutability": "view",
      "type": "function"
    },
    {
      "inputs": [
        {
          "internalType": "uint256",
          "name": "shares",
          "type": "uint256"
        }
      ],
      "name": "previewRedeem",
      "outputs": [
        {
          "internalType": "uint256",
          "name": "",
          "type": "uint256"
        }
      ],
      "stateMutability": "view",
      "type": "function"
    },
    {
      "inputs": [
        {
          "internalType": "uint256",
          "name": "assets",
          "type": "uint256"
        }
      ],
      "name": "previewWithdraw",
      "outputs": [
        {
          "internalType": "uint256",
          "name": "",
          "type": "uint256"
        }
      ],
      "stateMutability": "view",
      "type": "function"
    },
    {
      "inputs": [],
      "name": "profitMaxUnlockTime",
      "outputs": [
        {
          "internalType": "uint256",
          "name": "",
          "type": "uint256"
        }
      ],
      "stateMutability": "view",
      "type": "function"
    },
    {
      "inputs": [],
      "name": "profitUnlockingRate",
      "outputs": [
        {
          "internalType": "uint256",
          "name": "",
          "type": "uint256"
        }
      ],
      "stateMutability": "view",
      "type": "function"
    },
    {
      "inputs": [
        {
          "internalType": "uint256",
          "name": "shares",
          "type": "uint256"
        },
        {
          "internalType": "address",
          "name": "receiver",
          "type": "address"
        },
        {
          "internalType": "address",
          "name": "owner",
          "type": "address"
        },
        {
          "internalType": "uint256",
          "name": "maxLoss",
          "type": "uint256"
        },
        {
          "internalType": "address[]",
          "name": "_strategies",
          "type": "address[]"
        }
      ],
      "name": "redeem",
      "outputs": [
        {
          "internalType": "uint256",
          "name": "",
          "type": "uint256"
        }
      ],
      "stateMutability": "nonpayable",
      "type": "function"
    },
    {
      "inputs": [
        {
          "internalType": "bytes32",
          "name": "role",
          "type": "bytes32"
        },
        {
          "internalType": "address",
          "name": "account",
          "type": "address"
        }
      ],
      "name": "renounceRole",
      "outputs": [],
      "stateMutability": "nonpayable",
      "type": "function"
    },
    {
      "inputs": [
        {
          "internalType": "bytes32",
          "name": "role",
          "type": "bytes32"
        },
        {
          "internalType": "address",
          "name": "account",
          "type": "address"
        }
      ],
      "name": "revokeRole",
      "outputs": [],
      "stateMutability": "nonpayable",
      "type": "function"
    },
    {
      "inputs": [],
      "name": "roleManager",
      "outputs": [
        {
          "internalType": "address",
          "name": "",
          "type": "address"
        }
      ],
      "stateMutability": "view",
      "type": "function"
    },
    {
      "inputs": [
        {
          "internalType": "address",
          "name": "",
          "type": "address"
        }
      ],
      "name": "roles",
      "outputs": [
        {
          "internalType": "bytes32",
          "name": "",
          "type": "bytes32"
        }
      ],
      "stateMutability": "view",
      "type": "function"
    },
    {
      "inputs": [
        {
          "internalType": "uint256",
          "name": "_depositLimit",
          "type": "uint256"
        }
      ],
      "name": "setDepositLimit",
      "outputs": [],
      "stateMutability": "nonpayable",
      "type": "function"
    },
    {
      "inputs": [
        {
          "internalType": "uint256",
          "name": "_minimumTotalIdle",
          "type": "uint256"
        }
      ],
      "name": "setMinimumTotalIdle",
      "outputs": [],
      "stateMutability": "nonpayable",
      "type": "function"
    },
    {
      "inputs": [
        {
          "internalType": "uint256",
          "name": "_totalDebtAmount",
          "type": "uint256"
        }
      ],
      "name": "setTotalDebtAmount",
      "outputs": [],
      "stateMutability": "nonpayable",
      "type": "function"
    },
    {
      "inputs": [
        {
          "internalType": "uint256",
          "name": "_totalIdleAmount",
          "type": "uint256"
        }
      ],
      "name": "setTotalIdleAmount",
      "outputs": [],
      "stateMutability": "nonpayable",
      "type": "function"
    },
    {
      "inputs": [],
      "name": "setters",
      "outputs": [
        {
          "internalType": "address payable",
          "name": "",
          "type": "address"
        }
      ],
      "stateMutability": "view",
      "type": "function"
    },
    {
      "inputs": [],
      "name": "sharesManager",
      "outputs": [
        {
          "internalType": "address",
          "name": "",
          "type": "address"
        }
      ],
      "stateMutability": "view",
      "type": "function"
    },
    {
      "inputs": [],
      "name": "shutdown",
      "outputs": [
        {
          "internalType": "bool",
          "name": "",
          "type": "bool"
        }
      ],
      "stateMutability": "view",
      "type": "function"
    },
    {
      "inputs": [
        {
          "internalType": "address",
          "name": "owner",
          "type": "address"
        },
        {
          "internalType": "address",
          "name": "spender",
          "type": "address"
        },
        {
          "internalType": "uint256",
          "name": "amount",
          "type": "uint256"
        }
      ],
      "name": "spendAllowance",
      "outputs": [],
      "stateMutability": "nonpayable",
      "type": "function"
    },
    {
      "inputs": [
        {
          "internalType": "address",
          "name": "",
          "type": "address"
        }
      ],
      "name": "strategies",
      "outputs": [
        {
          "internalType": "uint256",
          "name": "activation",
          "type": "uint256"
        },
        {
          "internalType": "uint256",
          "name": "lastReport",
          "type": "uint256"
        },
        {
          "internalType": "uint256",
          "name": "currentDebt",
          "type": "uint256"
        },
        {
          "internalType": "uint256",
          "name": "maxDebt",
          "type": "uint256"
        }
      ],
      "stateMutability": "view",
      "type": "function"
    },
    {
      "inputs": [],
      "name": "strategyManager",
      "outputs": [
        {
          "internalType": "address payable",
          "name": "",
          "type": "address"
        }
      ],
      "stateMutability": "view",
      "type": "function"
    },
    {
      "inputs": [
        {
          "internalType": "bytes4",
          "name": "interfaceId",
          "type": "bytes4"
        }
      ],
      "name": "supportsInterface",
      "outputs": [
        {
          "internalType": "bool",
          "name": "",
          "type": "bool"
        }
      ],
      "stateMutability": "view",
      "type": "function"
    },
    {
      "inputs": [],
      "name": "symbol",
      "outputs": [
        {
          "internalType": "string",
          "name": "",
          "type": "string"
        }
      ],
      "stateMutability": "view",
      "type": "function"
    },
    {
      "inputs": [],
      "name": "totalAssets",
      "outputs": [
        {
          "internalType": "uint256",
          "name": "",
          "type": "uint256"
        }
      ],
      "stateMutability": "view",
      "type": "function"
    },
    {
      "inputs": [],
      "name": "totalDebtAmount",
      "outputs": [
        {
          "internalType": "uint256",
          "name": "",
          "type": "uint256"
        }
      ],
      "stateMutability": "view",
      "type": "function"
    },
    {
      "inputs": [],
      "name": "totalIdleAmount",
      "outputs": [
        {
          "internalType": "uint256",
          "name": "",
          "type": "uint256"
        }
      ],
      "stateMutability": "view",
      "type": "function"
    },
    {
      "inputs": [],
      "name": "totalSupply",
      "outputs": [
        {
          "internalType": "uint256",
          "name": "",
          "type": "uint256"
        }
      ],
      "stateMutability": "view",
      "type": "function"
    },
    {
      "inputs": [],
      "name": "totalSupplyAmount",
      "outputs": [
        {
          "internalType": "uint256",
          "name": "",
          "type": "uint256"
        }
      ],
      "stateMutability": "view",
      "type": "function"
    },
    {
      "inputs": [
        {
          "internalType": "address",
          "name": "receiver",
          "type": "address"
        },
        {
          "internalType": "uint256",
          "name": "amount",
          "type": "uint256"
        }
      ],
      "name": "transfer",
      "outputs": [
        {
          "internalType": "bool",
          "name": "",
          "type": "bool"
        }
      ],
      "stateMutability": "nonpayable",
      "type": "function"
    },
    {
      "inputs": [
        {
          "internalType": "address",
          "name": "sender",
          "type": "address"
        },
        {
          "internalType": "address",
          "name": "receiver",
          "type": "address"
        },
        {
          "internalType": "uint256",
          "name": "amount",
          "type": "uint256"
        }
      ],
      "name": "transfer",
      "outputs": [],
      "stateMutability": "nonpayable",
      "type": "function"
    },
    {
      "inputs": [
        {
          "internalType": "address",
          "name": "sender",
          "type": "address"
        },
        {
          "internalType": "address",
          "name": "receiver",
          "type": "address"
        },
        {
          "internalType": "uint256",
          "name": "amount",
          "type": "uint256"
        }
      ],
      "name": "transferFrom",
      "outputs": [
        {
          "internalType": "bool",
          "name": "",
          "type": "bool"
        }
      ],
      "stateMutability": "nonpayable",
      "type": "function"
    },
    {
      "inputs": [],
      "name": "unlockedShares",
      "outputs": [
        {
          "internalType": "uint256",
          "name": "",
          "type": "uint256"
        }
      ],
      "stateMutability": "view",
      "type": "function"
    },
    {
      "inputs": [],
      "name": "useDefaultQueue",
      "outputs": [
        {
          "internalType": "bool",
          "name": "",
          "type": "bool"
        }
      ],
      "stateMutability": "view",
      "type": "function"
    },
    {
      "inputs": [
        {
          "internalType": "uint256",
          "name": "assets",
          "type": "uint256"
        },
        {
          "internalType": "address",
          "name": "receiver",
          "type": "address"
        },
        {
          "internalType": "address",
          "name": "owner",
          "type": "address"
        },
        {
          "internalType": "uint256",
          "name": "maxLoss",
          "type": "uint256"
        },
        {
          "internalType": "address[]",
          "name": "_strategies",
          "type": "address[]"
        }
      ],
      "name": "withdraw",
      "outputs": [
        {
          "internalType": "uint256",
          "name": "",
          "type": "uint256"
        }
      ],
      "stateMutability": "nonpayable",
      "type": "function"
    },
    {
      "inputs": [
        {
          "internalType": "address",
          "name": "strategy",
          "type": "address"
        },
        {
          "internalType": "uint256",
          "name": "assetsToWithdraw",
          "type": "uint256"
        }
      ],
      "name": "withdrawFromStrategy",
      "outputs": [],
      "stateMutability": "nonpayable",
      "type": "function"
    },
    {
      "inputs": [],
      "name": "withdrawLimitModule",
      "outputs": [
        {
          "internalType": "address",
          "name": "",
          "type": "address"
        }
      ],
      "stateMutability": "view",
      "type": "function"
    }
  ],
  "transactionHash": "0x7737216088ebe9bf684e568e2b39ef497abaf0e78f0f807537b81eb27f7f1b88",
  "args": [],
  "numDeployments": 1,
  "solcInputHash": "4f5fad6b3b661da677d0c59da67436e7",
  "bytecode": "0x60a06040526301e1855860805234801561001857600080fd5b506001601f55608051615390610039600039600061063e01526153906000f3fe608060405234801561001057600080fd5b50600436106105155760003560e01c80638afca8f0116102a25780638afca8f014610a1a5780639198600314610a2357806391d1485414610a3657806394bf804d14610a4957806395d89b4114610a5c57806399167fb414610a645780639937464214610a775780639a508d0a14610a975780639af1d35a14610aaa5780639e34e34814610ad95780639f3988f314610aec578063a217fddf14610b13578063a9059cbb14610b1b578063a98222c414610b2e578063ab5b4d4914610b55578063acded97d14610b7c578063adba799e14610b8f578063af76d4bd14610bb0578063b3c187f214610bc3578063b3d7f6b914610bd6578063b53d095814610be9578063bbe4eb4914610bfc578063bdc8144b14610c09578063beabacc814610c1c578063bee7e3d914610c2f578063c034969414610c42578063c065ca0714610c55578063c0993eea14610c7c578063c63d75b614610ca3578063c6c3bbe614610cb6578063c6e6f59214610cc9578063c8d74b6014610cdc578063c8dffa9514610d03578063ca4c1c3714610d0c578063cea5a1a714610d1f578063d3b1e9a414610d27578063d4ae064f14610d3a578063d505accf14610d61578063d547741f14610d74578063d73b1dc914610d87578063d81a09f614610d9a578063d9a0e97a14610dad578063dd62ed3e14610db5578063dd8aaa4f14610dee578063e0bf18ad14610e01578063e1f21c6714610e09578063e315cd7514610e1c578063ec6e566e14610e2f578063ecf7085814610e42578063ef8b30f714610cc9578063f1daeba814610e4b578063f5b944eb14610e72578063f828f50b14610e99578063fc0e74d114610ea2578063fd967f4714610eb6578063fec61f0614610ebf578063ff1e7f0814610ee657600080fd5b8062435da51461051a57806301e1d1141461054357806301ffc9a71461055857806303dcd12c1461057857806306580f2d1461059f57806306fdde03146105b257806307a2d13a146105c75780630835a3fc146105da5780630952864e146105e3578063095ea7b3146105ec5780630a28a477146105ff5780630ad283d01461061257806316d3bfbb1461063957806318160ddd146106605780631d8325ef1461066857806323b872dd14610688578063248a9ca31461069b5780632d632692146106ae5780632e0f2625146106b75780632f2ff15d146106d8578063313ce567146106ed57806334b5fab6146106ff5780633644e5151461071257806336568abe1461071b57806336fba0841461072e57806338d52e0f1461073a57806339b70e381461074b57806339ebf8231461075e5780633cd7b5ab146107a35780633e986eed146107ac5780633f7b5e40146107bf578063402d267d146107c75780634542abe2146107da5780634800d97f146107ed5780634cdad506146105c75780634ce1d38a1461080d5780634cfe51dc146108345780634d4bb1971461085b5780634fb3ccc5146108705780635141eebb1461088357806353a661321461088c5780635453491f146108af5780635a569099146108b75780635aa6e675146108ca5780635bf6b4fb146108dd5780635d4086af14610904578063652da3241461091757806365cb67651461093e5780636c43a2ca146109515780636e553f651461096457806370a08231146109775780637659bcc61461098a57806377e3b2671461099d5780637ecebe00146109c15780637ff00077146109e15780638212fd43146109f45780638340f54914610a07575b600080fd5b60175461052d906001600160a01b031681565b60405161053a9190614177565b60405180910390f35b61054b610ef9565b60405161053a919061418b565b61056b6105663660046141bb565b610f08565b60405161053a91906141e4565b61054b7f633076a97f32ae349b28772e7b1483f67a926f150cbc501d02bdbd77389325ab81565b61054b6105ad366004614327565b610f3f565b6105ba610f7d565b60405161053a9190614411565b61054b6105d5366004614422565b61100b565b61054b60105481565b61054b60195481565b61056b6105fa366004614443565b611018565b61054b61060d366004614422565b61102c565b61054b7fc723f4dd6268e1c374639e36d629c765285ee7003913389d582c300f186dde9781565b61054b7f000000000000000000000000000000000000000000000000000000000000000081565b61054b611039565b61067b610676366004614480565b611043565b60405161053a9190614522565b61056b610696366004614530565b611264565b61054b6106a9366004614422565b611286565b61054b601a5481565b6021546106cb90600160a01b900460ff1681565b60405161053a9190614589565b6106eb6106e6366004614597565b61129a565b005b602154600160a01b900460ff166106cb565b61054b61070d3660046145ca565b6112bb565b61054b601e5481565b6106eb610729366004614597565b611309565b61054b64e8d4a5100081565b6021546001600160a01b031661052d565b60005461052d906001600160a01b031681565b61079361076c36600461462a565b60046020526000908152604090208054600182015460028301546003909301549192909184565b60405161053a949392919061464b565b61054b600f5481565b6106eb6107ba366004614680565b611348565b61054b600a81565b61054b6107d536600461462a565b611539565b6106eb6107e83660046146a2565b611544565b602154610800906001600160a01b031681565b60405161053a919061473e565b61054b7f69d1171ac0a63777a6733cda21aec9ed3d48a4fd11f273c934a691dec5e5589c81565b61054b7f862f91c9d89d6135b19873b921c90b702cb2e175c371b8430026b9577e69111981565b61054b6000805160206152db83398151915281565b60125461052d906001600160a01b031681565b61054b601b5481565b61056b61089a366004614422565b60166020526000908152604090205460ff1681565b600f5461054b565b61054b6108c5366004614443565b611556565b60035461052d906001600160a01b031681565b61054b7fea672c1c09cd95c51af9509f646f3615ff0071aae8652bd821471ee9037fd72c81565b61054b610912366004614764565b611600565b61054b7fcd9f023a942ee35097ead74b2505bea9f2c5d47465db92dd195cf7f01a41cfe181565b61054b61094c3660046145ca565b61160c565b61056b61095f366004614530565b611619565b61054b610972366004614597565b611626565b61054b61098536600461462a565b611647565b61054b610998366004614597565b6116a0565b6105ba604051806040016040528060058152602001640312e302e360dc1b81525081565b61054b6109cf36600461462a565b601d6020526000908152604090205481565b61054b6109ef366004614764565b6116ac565b6106eb610a02366004614422565b601055565b61054b610a15366004614530565b6116b8565b61054b601c5481565b60145461052d906001600160a01b031681565b61056b610a44366004614597565b6116c5565b61054b610a57366004614597565b6116ee565b6105ba611703565b6106eb610a72366004614597565b611710565b61054b610a8536600461462a565b60156020526000908152604090205481565b6106eb610aa5366004614422565b600f55565b600554600654600754600854610ac9939291906001600160a01b031684565b60405161053a9493929190614797565b60135461052d906001600160a01b031681565b61054b7f6f430d649a8640e48ff9bfbc353b3f99ed630163857821b3b4075e3871dafbf581565b61054b600081565b61056b610b29366004614443565b61171a565b61054b7f2f0dbbe8c2c0170206c50ec0cafa1c0dbd03e73e67c2a960178df30a0a30ee2e81565b61054b7f900d80def0427daac599092fcb16b21808ec68dd9a2e1eae89d1e8db2135737581565b60015461052d906001600160a01b031681565b610ba2610b9d36600461489c565b61176c565b60405161053a9291906148e3565b6106eb610bbe366004614443565b611a3c565b60185461052d906001600160a01b031681565b61054b610be4366004614422565b611aad565b6106eb610bf7366004614443565b611aba565b600a5461056b9060ff1681565b6106eb610c17366004614422565b611ac4565b6106eb610c2a366004614530565b611b5d565b60025461052d906001600160a01b031681565b6106eb610c50366004614530565b611b68565b61054b7f2a0e761830cc61f2707ea7bb138008bf9dda7f7d34c77736d0a116604e95ea1681565b61054b7f8b73c3c69bb8fe3d512ecc4cf759cc79239f7b179b0ffacaa9a75d522b39400f81565b61054b610cb136600461462a565b611c30565b61054b610cc4366004614530565b611c49565b61054b610cd7366004614422565b611c56565b61054b7f152ebba56b9738ee3d8baea1b76fa31dcdcd79b1929bfea7d58ee12cfdf1a65381565b61054b600e5481565b6106eb610d1a366004614597565b611c63565b60105461054b565b6106eb610d353660046149a9565b611c6d565b61054b7fa18eaea71a088b547b8c932b48861853b3434d9a3240b94466c607e28b69659581565b61056b610d6f366004614a67565b611d66565b6106eb610d82366004614597565b611f58565b61056b610d95366004614530565b611f74565b61054b610da8366004614327565b611fc2565b61054b611fe1565b61054b610dc3366004614b06565b6001600160a01b039182166000908152600c6020908152604080832093909416825291909152205490565b6106eb610dfc366004614530565b611feb565b6106eb611ff6565b61056b610e17366004614530565b612092565b6106eb610e2a366004614422565b600e55565b6106eb610e3d366004614530565b61209f565b61054b60115481565b61054b7f7cbb3cdf689b8ea3e9d265f66bc4e0a99069268217017d38d2a5a559abc6271981565b61054b7ff206625bad3d9112d5609b8d356e6fbd514cd1f69980d4ce2b3e6e68e1789ace81565b61054b600d5481565b60185461056b90600160a01b900460ff1681565b61054b61271081565b61054b7fd45f7ccff42f059d4e47c3f027c444272257266f7e88b981e142f0aa38fbfd7881565b61052d610ef4366004614422565b6120aa565b6000610f036120d4565b905090565b60006001600160e01b03198216637965db0b60e01b1480610f3957506301ffc9a760e01b6001600160e01b03198316145b92915050565b6000610f496120e6565b6000610f5687600061210f565b9050610f67328787848b89896121a5565b915050610f746001601f55565b95945050505050565b60228054610f8a90614b3e565b80601f0160208091040260200160405190810160405280929190818152602001828054610fb690614b3e565b80156110035780601f10610fd857610100808354040283529160200191611003565b820191906000526020600020905b815481529060010190602001808311610fe657829003601f168201915b505050505081565b6000610f3982600061210f565b6000611025338484612242565b9392505050565b6000610f398260016122da565b6000610f03612388565b61104b614130565b611053614130565b60008054604051634d3c739760e11b81526001600160a01b0390911690639a78e72e90611084908790600401614177565b602060405180830381865afa1580156110a1573d6000803e3d6000fd5b505050506040513d601f19601f820116820180604052508101906110c59190614b75565b90508715611150576000546001600160a01b0316633764254a856110e98b85614bac565b6040518363ffffffff1660e01b8152600401611106929190614bbf565b600060405180830381600087803b15801561112057600080fd5b505af1158015611134573d6000803e3d6000fd5b5050505087600e600082825461114a9190614bac565b90915550505b86156111d9576000546001600160a01b0316633764254a856111728a85614bcd565b6040518363ffffffff1660e01b815260040161118f929190614bbf565b600060405180830381600087803b1580156111a957600080fd5b505af11580156111bd573d6000803e3d6000fd5b5050505086600e60008282546111d39190614bcd565b90915550505b60006111e58789614bac565b1115611259576111ff6111f88789614bac565b60016122da565b8251839061120e908390614bac565b90525085156112595761122b6112248688614bcd565b60006122da565b602083015284156112595760006112428987614be0565b9050611252611224606483614c15565b6040840152505b509695505050505050565b600061127184338461239f565b61127c848484612401565b5060019392505050565b600090815260208052604090206001015490565b6112a382611286565b6112ac816124fe565b6112b68383612508565b505050565b6000806112c985858561258c565b905060006112d88260016122da565b6001600160a01b0387166000908152600b60205260409020549091506112ff908290612956565b9695505050505050565b6001600160a01b038116331461133a5760405162461bcd60e51b815260040161133190614c29565b60405180910390fd5b611344828261296c565b5050565b60006113548284614bac565b9050801561152f57600042600260009054906101000a90046001600160a01b03166001600160a01b0316632d6326926040518163ffffffff1660e01b8152600401602060405180830381865afa1580156113b2573d6000803e3d6000fd5b505050506040513d601f19601f820116820180604052508101906113d69190614b75565b111561146057600254604080516316b1934960e11b8152905142926001600160a01b031691632d6326929160048083019260209291908290030181865afa158015611425573d6000803e3d6000fd5b505050506040513d601f19601f820116820180604052508101906114499190614b75565b6114539190614bcd565b61145d9085614be0565b90505b600082600260009054906101000a90046001600160a01b03166001600160a01b0316630952864e6040518163ffffffff1660e01b8152600401602060405180830381865afa1580156114b6573d6000803e3d6000fd5b505050506040513d601f19601f820116820180604052508101906114da9190614b75565b6114e49086614be0565b6114ee9084614bac565b6114f89190614c15565b90508061150a64e8d4a5100085614be0565b6115149190614c15565b601b556115218142614bac565b601a55505042601c55505050565b6000601b55505050565b6000610f39826129d1565b61155084848484612aa9565b50505050565b600080546040516339ebf82360e01b815282916001600160a01b0316906339ebf82390611587908790600401614177565b608060405180830381865afa1580156115a4573d6000803e3d6000fd5b505050506040513d601f19601f820116820180604052508101906115c89190614c7c565b5092505050828110156115ee576040516337deae0760e01b815260040160405180910390fd5b6115f88484612b85565b949350505050565b600061102583836122da565b60006115f884848461258c565b60006115f8848484612d48565b60006116306120e6565b61163b338385612d7d565b9050610f396001601f55565b6000306001600160a01b0383160361168457611661612efb565b6001600160a01b0383166000908152600b6020526040902054610f399190614bcd565b506001600160a01b03166000908152600b602052604090205490565b60006110258383613044565b6000611025838361210f565b60006115f8848484612d7d565b6000918252602080805260408084206001600160a01b0393909316845291905290205460ff1690565b60006116f86120e6565b61163b3383856130fa565b60238054610f8a90614b3e565b6113448282613252565b60006001600160a01b03831630148061173a57506001600160a01b038316155b156117585760405163d92e233d60e01b815260040160405180910390fd5b611763338484612401565b50600192915050565b600080600080856020015111156118bf5760208501516001546012546040516370a0823160e01b815261187b9392611876926001600160a01b03918216926370a08231926117be921690600401614177565b602060405180830381865afa1580156117db573d6000803e3d6000fd5b505050506040513d601f19601f820116820180604052508101906117ff9190614b75565b600154601254604051636eb1769f60e11b81526001600160a01b039283169263dd62ed3e92611835929116903090600401614cd4565b602060405180830381865afa158015611852573d6000803e3d6000fd5b505050506040513d601f19601f820116820180604052508101906118769190614b75565b612956565b602086018190526021546012546118a3926001600160a01b0392831692909116903090612aa9565b8460200151600f60008282546118b99190614bac565b90915550505b60008560200151856118d19190614bac565b1180156119535750600260009054906101000a90046001600160a01b03166001600160a01b0316630952864e6040518163ffffffff1660e01b8152600401602060405180830381865afa15801561192c573d6000803e3d6000fd5b505050506040513d601f19601f820116820180604052508101906119509190614b75565b15155b156119745761197185602001518561196b9190614bac565b30613044565b90505b306000908152600b602052604081205461198f908390614bcd565b8751909150156119f05786516119a9906118768484614bac565b8088526119b69030613252565b60006119c6886000015184612956565b90506119d28184614bcd565b88519093506119e2908290614bcd565b6119ec9083614bcd565b9150505b602087015115611a15576020870151601254611a1591906001600160a01b0316613309565b604087015115611a3157611a3187604001518760600151613309565b969095509350505050565b604051636e553f6560e01b81526001600160a01b03831690636e553f6590611a6a9084903090600401614cef565b6020604051808303816000875af1158015611a89573d6000803e3d6000fd5b505050506040513d601f19601f820116820180604052508101906112b69190614b75565b6000610f3982600161210f565b61134482826133a2565b601854600160a01b900460ff161515600103611af357604051630f3c386760e01b815260040160405180910390fd5b6013546001600160a01b031615611b1d576040516364b9991160e11b815260040160405180910390fd5b60118190556040517fae565aab888bca5e19e25a13db7b0c9144305bf55cb0f3f4d724f730e5acdd6290611b5290839061418b565b60405180910390a150565b6112b6838383612401565b6001600160a01b0383161580611b8557506001600160a01b038216155b15611ba35760405163d92e233d60e01b815260040160405180910390fd5b60405163095ea7b360e01b81526001600160a01b0384169063095ea7b390611bd19085908590600401614bbf565b6020604051808303816000875af1158015611bf0573d6000803e3d6000fd5b505050506040513d601f19601f82011682018060405250810190611c149190614d10565b6112b65760405162461bcd60e51b815260040161133190614d5a565b600080611c3c836129d1565b90506110258160006122da565b60006115f88484846130fa565b6000610f398260006122da565b6113448282613309565b6000611c78816124fe565b600a54610100900460ff161515600103611ca45760405162dc149f60e41b815260040160405180910390fd5b600080546001600160a01b03199081166001600160a01b038a811691909117909255600280549091169188169190911790556021805460ff60a01b1916600160a01b60ff8781168202929092179283905561010092041610611d195760405163e236476560e01b815260040160405180910390fd5b602180546001600160a01b0319166001600160a01b0387161790556022611d408482614e2c565b506023611d4d8382614e2c565b5050600a805461ff001916610100179055505050505050565b60006001600160a01b038816611d8f5760405163d92e233d60e01b815260040160405180910390fd5b42851015611db0576040516363bef56160e11b815260040160405180910390fd5b6001600160a01b0388166000908152601d60209081526040808320549051909291611df5916000805160206152db833981519152918d918d918d9188918e9101614eea565b6040516020818303038152906040528051906020012090506000601e5482604051602001611e24929190614f39565b604051602081830303815290604052805190602001209050600060018289898960405160008152602001604052604051611e619493929190614f6a565b6020604051602081039080840390855afa158015611e83573d6000803e3d6000fd5b5050604051601f1901519150506001600160a01b0381161580611eb857508b6001600160a01b0316816001600160a01b031614155b15611ed6576040516310454c9960e31b815260040160405180910390fd5b611ee18c8c8c612242565b506001600160a01b038c166000908152601d60205260408120805491611f0683614f85565b91905055508a6001600160a01b03168c6001600160a01b03166000805160206152fb8339815191528c604051611f3c919061418b565b60405180910390a360019450505050505b979650505050505050565b611f6182611286565b611f6a816124fe565b6112b6838361296c565b6001600160a01b038084166000908152600c602090815260408083209386168352929052908120548190611fa9908490614bcd565b9050611fb6858583612242565b50600195945050505050565b600080611fd08760016122da565b90506112593287878a8589896121a5565b6000610f03612efb565b6112b683838361239f565b6000612000612efb565b90508060000361200d5750565b600254604080516316b1934960e11b8152905142926001600160a01b031691632d6326929160048083019260209291908290030181865afa158015612056573d6000803e3d6000fd5b505050506040513d601f19601f8201168201806040525081019061207a9190614b75565b11156120855742601c555b61208f8130613252565b50565b60006115f8848484612242565b6112b68383836134b6565b600981815481106120ba57600080fd5b6000918252602090912001546001600160a01b0316905081565b6000600e54600f54610f039190614bac565b6002601f54036121085760405162461bcd60e51b815260040161133190614fd3565b6002601f55565b600060001983148061211f575082155b1561212b575081610f39565b6000612135612388565b9050806000036121485783915050610f39565b60006121526120d4565b61215c9086614be0565b9050600061216a8383614c15565b9050600185600181111561218057612180614fe3565b14801561219557506121928383614ff9565b15155b15610f74576112ff600182614bac565b60006121b38787868661357e565b6121be868986613622565b6000806121cb8785613646565b915091506121de8989888a86868b613ece565b876001600160a01b0316896001600160a01b03168b6001600160a01b03167ffbde797d201c681b91056529119e0b02407c7bb96a4a2c75c01fc9667232c8db858a60405161222d9291906148e3565b60405180910390a45098975050505050505050565b60006001600160a01b038416158061226157506001600160a01b038316155b1561227f5760405163d92e233d60e01b815260040160405180910390fd5b6001600160a01b038085166000818152600c602090815260408083209488168084529490915290819020859055516000805160206152fb833981519152906122c890869061418b565b60405180910390a35060019392505050565b60006000198314806122ea575082155b156122f6575081610f39565b6000612300612388565b9050600061230c6120d4565b9050806000036123335781600003612328578492505050610f39565b600092505050610f39565b600061233f8387614be0565b9050600061234d8383614c15565b9050600186600181111561236357612363614fe3565b14801561237857506123758383614ff9565b15155b156112ff57611f4d600182614bac565b6000612392612efb565b600d54610f039190614bcd565b6001600160a01b038084166000908152600c6020908152604080832093861683529290522054818110156123e65760405163017e286b60e51b815260040160405180910390fd5b6123fa84846123f58585614bcd565b612242565b5050505050565b6001600160a01b0383166000908152600b60205260409020548181101561243b5760405163356680b760e01b815260040160405180910390fd5b6001600160a01b038416158061245857506001600160a01b038316155b156124765760405163d92e233d60e01b815260040160405180910390fd5b6124808282614bcd565b6001600160a01b038086166000908152600b602052604080822093909355908516815220546124af8382614bac565b6001600160a01b038086166000818152600b602052604090819020939093559151908716906000805160206152bb833981519152906124ef90879061418b565b60405180910390a35050505050565b61208f8133613f5a565b61251282826116c5565b611344576000828152602080805260408083206001600160a01b03851684529091529020805460ff191660011790556125483390565b6001600160a01b0316816001600160a01b0316837f2f8788117e7eff1d82e926ec794901d17c78024a50270940304540a733656f0d60405160405180910390a45050565b6001600160a01b0383166000908152600b602052604081205481906125b1908261210f565b6014549091506001600160a01b03161561265357601454604051632319b8cf60e01b81526000916001600160a01b031690632319b8cf906125fa9089908990899060040161506a565b6020604051808303816000875af1158015612619573d6000803e3d6000fd5b505050506040513d601f19601f8201168201806040525081019061263d9190614b75565b90508181101561264b578091505b509050611025565b600f548082111561294d57835181906000908190158015906126785750600a5460ff16155b6126dc5760098054806020026020016040519081016040528092919081815260200182805480156126d257602002820191906000526020600020905b81546001600160a01b031681526001909101906020018083116126b4575b50505050506126de565b865b905060005b815181101561294657600082828151811061270057612700615097565b6020026020010151905060046000826001600160a01b03166001600160a01b031681526020019081526020016000206000015460000361275357604051630631bc2160e51b815260040160405180910390fd5b6000612783612762878a614bcd565b6001600160a01b038416600090815260046020526040902060020154612956565b905060006127918383612b85565b90506000836001600160a01b03166307a2d13a856001600160a01b031663d905777e306040518263ffffffff1660e01b81526004016127d09190614177565b602060405180830381865afa1580156127ed573d6000803e3d6000fd5b505050506040513d601f19601f820116820180604052508101906128119190614b75565b6040518263ffffffff1660e01b815260040161282d919061418b565b602060405180830381865afa15801561284a573d6000803e3d6000fd5b505050506040513d601f19601f8201168201806040525081019061286e9190614b75565b905061287a8284614bcd565b8110156128a5578261288c8284614be0565b6128969190614c15565b91506128a28282614bac565b92505b826000036128b65750505050612934565b6000821180156128c757506127108d105b15612907576127108d6128da858b614bac565b6128e49190614be0565b6128ee9190614c15565b6128f88389614bac565b11156129075750505050612946565b6129118389614bac565b97508988106129235750505050612946565b61292d8288614bac565b9650505050505b8061293e81614f85565b9150506126e3565b5091935050505b50949350505050565b60008183106129655781611025565b5090919050565b61297682826116c5565b15611344576000828152602080805260408083206001600160a01b0385168085529252808320805460ff1916905551339285917ff6391f5c32d9c69d2a47ea670b442974b53935d1edc7fd64eb21e047a839171b9190a45050565b60006001600160a01b0382163014806129f157506001600160a01b038216155b156129fe57506000919050565b6013546001600160a01b03168015612a7d57604051632355178960e11b81526001600160a01b038216906346aa2f1290612a3c908690600401614177565b602060405180830381865afa158015612a59573d6000803e3d6000fd5b505050506040513d601f19601f820116820180604052508101906110259190614b75565b6000612a876120d4565b601154909150808210612a9f57506000949350505050565b610f748282614bcd565b6001600160a01b0384161580612ac657506001600160a01b038316155b80612ad857506001600160a01b038216155b15612af65760405163d92e233d60e01b815260040160405180910390fd5b6040516323b872dd60e01b81526001600160a01b038516906323b872dd90612b26908690869086906004016150ad565b6020604051808303816000875af1158015612b45573d6000803e3d6000fd5b505050506040513d601f19601f82011682018060405250810190612b699190614d10565b6115505760405162461bcd60e51b8152600401611331906150fb565b600080546040516339ebf82360e01b815282916001600160a01b0316906339ebf82390612bb6908790600401614177565b608060405180830381865afa158015612bd3573d6000803e3d6000fd5b505050506040513d601f19601f82011682018060405250810190612bf79190614c7c565b50925050506000846001600160a01b03166370a08231306040518263ffffffff1660e01b8152600401612c2a9190614177565b602060405180830381865afa158015612c47573d6000803e3d6000fd5b505050506040513d601f19601f82011682018060405250810190612c6b9190614b75565b90506000856001600160a01b03166307a2d13a836040518263ffffffff1660e01b8152600401612c9b919061418b565b602060405180830381865afa158015612cb8573d6000803e3d6000fd5b505050506040513d601f19601f82011682018060405250810190612cdc9190614b75565b90508281101580612ceb575082155b15612cfc5760009350505050610f39565b6000612d088287614be0565b90506000612d168583614c15565b612d209088614bcd565b9050612d2c8583614ff9565b15611f4d57612d3c600182614bac565b98975050505050505050565b6001600160a01b038084166000908152600c602090815260408083209386168352929052908120548190611fa9908490614bac565b601854600090600160a01b900460ff161515600103612daf57604051630f3c386760e01b815260040160405180910390fd5b612db8836129d1565b821115612dd8576040516325d16c5160e01b815260040160405180910390fd5b60008211612df957604051637c946ed760e01b815260040160405180910390fd5b6021546040516323b872dd60e01b81526001600160a01b03909116906323b872dd90612e2d903290309087906004016150ad565b6020604051808303816000875af1158015612e4c573d6000803e3d6000fd5b505050506040513d601f19601f82011682018060405250810190612e709190614d10565b5081600f6000828254612e839190614bac565b9091555060009050612e958385613044565b905060008111612eb857604051637c946ed760e01b815260040160405180910390fd5b836001600160a01b0316856001600160a01b031660008051602061531b8339815191528584604051612eeb9291906148e3565b60405180910390a3949350505050565b600080600260009054906101000a90046001600160a01b03166001600160a01b0316632d6326926040518163ffffffff1660e01b8152600401602060405180830381865afa158015612f51573d6000803e3d6000fd5b505050506040513d601f19601f82011682018060405250810190612f759190614b75565b90506000428211156130275764e8d4a51000601c5442612f959190614bcd565b600260009054906101000a90046001600160a01b03166001600160a01b0316635141eebb6040518163ffffffff1660e01b8152600401602060405180830381865afa158015612fe8573d6000803e3d6000fd5b505050506040513d601f19601f8201168201806040525081019061300c9190614b75565b6130169190614be0565b6130209190614c15565b9050610f39565b8115610f395750306000908152600b602052604090205492915050565b60006001600160a01b03821661306d5760405163d92e233d60e01b815260040160405180910390fd5b6000613077612388565b905060006130836120d4565b90506000826000036130965750846130dc565b858211156130c3576130a88683614bcd565b6130b28488614be0565b6130bc9190614c15565b90506130dc565b60405163fd7850ad60e01b815260040160405180910390fd5b806000036130f05760009350505050610f39565b610f748186613309565b601854600090600160a01b900460ff16151560010361312c57604051630f3c386760e01b815260040160405180910390fd5b600061313983600161210f565b90506000811161315c57604051637c946ed760e01b815260040160405180910390fd5b613165846129d1565b811115613185576040516325d16c5160e01b815260040160405180910390fd5b6021546040516323b872dd60e01b81526001600160a01b03909116906323b872dd906131b9908890309086906004016150ad565b6020604051808303816000875af11580156131d8573d6000803e3d6000fd5b505050506040513d601f19601f820116820180604052508101906131fc9190614d10565b5080600f600082825461320f9190614bac565b9091555061321f90508385613309565b836001600160a01b0316856001600160a01b031660008051602061531b8339815191528386604051612eeb9291906148e3565b6001600160a01b0381166000908152600b602052604090205482111561328b57604051633999656760e01b815260040160405180910390fd5b6001600160a01b0381166000908152600b6020526040812080548492906132b3908490614bcd565b9250508190555081600d60008282546132cc9190614bcd565b90915550506040516000906001600160a01b038316906000805160206152bb833981519152906132fd90869061418b565b60405180910390a35050565b6001600160a01b0381166133305760405163d92e233d60e01b815260040160405180910390fd5b6001600160a01b0381166000908152600b602052604081208054849290613358908490614bac565b9250508190555081600d60008282546133719190614bac565b90915550506040516001600160a01b038216906000906000805160206152bb833981519152906132fd90869061418b565b6000613440836001600160a01b0316630a28a477846040518263ffffffff1660e01b81526004016133d3919061418b565b602060405180830381865afa1580156133f0573d6000803e3d6000fd5b505050506040513d601f19601f820116820180604052508101906134149190614b75565b6040516370a0823160e01b81526001600160a01b038616906370a0823190611835903090600401614177565b604051635d043b2960e11b81529091506001600160a01b0384169063ba087652906134739084903090819060040161510b565b6020604051808303816000875af1158015613492573d6000803e3d6000fd5b505050506040513d601f19601f820116820180604052508101906115509190614b75565b6001600160a01b03831615806134d357506001600160a01b038216155b156134f15760405163d92e233d60e01b815260040160405180910390fd5b60405163a9059cbb60e01b81526001600160a01b0384169063a9059cbb9061351f9085908590600401614bbf565b6020604051808303816000875af115801561353e573d6000803e3d6000fd5b505050506040513d601f19601f820116820180604052508101906135629190614d10565b6112b65760405162461bcd60e51b8152600401611331906150fb565b6001600160a01b0384166135a55760405163d92e233d60e01b815260040160405180910390fd5b6127108111156135c857604051631a7ed0a160e31b815260040160405180910390fd5b600082116135e957604051637c946ed760e01b815260040160405180910390fd5b6001600160a01b0383166000908152600b602052604090205482111561155057604051633999656760e01b815260040160405180910390fd5b826001600160a01b0316826001600160a01b0316146112b6576112b683838361239f565b60008060006040518060c00160405280868152602001600f548152602001600e54815260200160008152602001602160009054906101000a90046001600160a01b03166001600160a01b03166370a08231306040518263ffffffff1660e01b81526004016136b49190614177565b602060405180830381865afa1580156136d1573d6000803e3d6000fd5b505050506040513d601f19601f820116820180604052508101906136f59190614b75565b8152600060209182015281015181519192501015613ebb57606060008551600014158015613795575060008054906101000a90046001600160a01b03166001600160a01b031663bbe4eb496040518163ffffffff1660e01b8152600401602060405180830381865afa15801561376f573d6000803e3d6000fd5b505050506040513d601f19601f820116820180604052508101906137939190614d10565b155b156137a557505083518490613815565b60008054604080516329f3cef560e01b815290516001600160a01b03909216926329f3cef5926004808401938290030181865afa1580156137ea573d6000803e3d6000fd5b505050506040513d6000823e601f3d908101601f1916820160405261381291908101906151b3565b91505b602083015183516138269190614bcd565b606084015260005b8251811015613e8957600083828151811061384b5761384b615097565b6020908102919091010151600080546040516339ebf82360e01b815292935090916001600160a01b03909116906339ebf8239061388c908590600401614177565b608060405180830381865afa1580156138a9573d6000803e3d6000fd5b505050506040513d601f19601f820116820180604052508101906138cd9190614c7c565b5050509050806000036138f357604051630631bc2160e51b815260040160405180910390fd5b600080546040516339ebf82360e01b81526001600160a01b03909116906339ebf82390613924908690600401614177565b608060405180830381865afa158015613941573d6000803e3d6000fd5b505050506040513d601f19601f820116820180604052508101906139659190614c7c565b5092505050600061397a886060015183612956565b90506000846001600160a01b03166307a2d13a866001600160a01b031663d905777e306040518263ffffffff1660e01b81526004016139b99190614177565b602060405180830381865afa1580156139d6573d6000803e3d6000fd5b505050506040513d601f19601f820116820180604052508101906139fa9190614b75565b6040518263ffffffff1660e01b8152600401613a16919061418b565b602060405180830381865afa158015613a33573d6000803e3d6000fd5b505050506040513d601f19601f82011682018060405250810190613a579190614b75565b90506000613a658684612b85565b90508015613bb757613a778184614bcd565b821015613ab1576000613a8a8285614bcd565b905080613a978484614be0565b613aa19190614c15565b9150613aad8284614bac565b9350505b613abb8184614bcd565b9250808a600001818151613acf9190614bcd565b90525060608a018051829190613ae6908390614bcd565b90525060408a018051829190613afd908390614bcd565b90525081158015613b0e5750600081115b15613bb7576000613b1f8286614bcd565b600054604051631bb212a560e11b81529192506001600160a01b031690633764254a90613b52908a908590600401614bbf565b600060405180830381600087803b158015613b6c57600080fd5b505af1158015613b80573d6000803e3d6000fd5b50505050866001600160a01b031660008051602061533b8339815191528683604051613bad9291906148e3565b60405180910390a2505b613bc18383612956565b925082600003613bd657505050505050613e77565b613be086846133a2565b6021546040516370a0823160e01b81526000916001600160a01b0316906370a0823190613c11903090600401614177565b602060405180830381865afa158015613c2e573d6000803e3d6000fd5b505050506040513d601f19601f82011682018060405250810190613c529190614b75565b905060008b6080015182613c669190614bcd565b9050600085821115613c9d5786821115613c8257869550613cb2565b613c8c8683614bcd565b613c969087614bac565b9550613cb2565b85821015613cb257613caf8287614bcd565b90505b600081878f60200151613cc59190614bac565b613ccf9190614bcd565b11613ce057600060208e0152613cff565b613cea8187614bcd565b8d602001818151613cfb9190614bac565b9052505b8c51600090613d0f908390614bcd565b11613d1d5760008d52613d33565b808d600001818151613d2f9190614bcd565b9052505b6000868e60400151613d459190614bcd565b11613d5657600060408e0152613d6c565b858d604001818151613d689190614bcd565b9052505b6000613d788588614bac565b881015613d8757506000613d9e565b613d918588614bac565b613d9b9089614bcd565b90505b600054604051631bb212a560e11b81526001600160a01b0390911690633764254a90613dd0908d908590600401614bbf565b600060405180830381600087803b158015613dea57600080fd5b505af1158015613dfe573d6000803e3d6000fd5b50505050896001600160a01b031660008051602061533b8339815191528983604051613e2b9291906148e3565b60405180910390a260208e01518e5111613e4e5750505050505050505050613e89565b60808e0184905260608e018051889190613e69908390614bcd565b905250505050505050505050505b80613e8181614f85565b91505061382e565b50825160208401511015613eb0576040516396d8043360e01b815260040160405180910390fd5b50506040810151600e555b8051602090910151909590945092505050565b8284118015613ede575061271081105b15613f2357612710613ef08286614be0565b613efa9190614c15565b613f048486614bcd565b1115613f23576040516307f65e3960e11b815260040160405180910390fd5b613f2d8587613252565b613f378383614bcd565b600f55602154613f51906001600160a01b031688856134b6565b50505050505050565b613f6482826116c5565b61134457613f7181613fb3565b613f7c836020613fc5565b604051602001613f8d92919061520f565b60408051601f198184030181529082905262461bcd60e51b825261133191600401614411565b6060610f396001600160a01b03831660145b60606000613fd4836002614be0565b613fdf906002614bac565b6001600160401b03811115613ff657613ff6614221565b6040519080825280601f01601f191660200182016040528015614020576020820181803683370190505b509050600360fc1b8160008151811061403b5761403b615097565b60200101906001600160f81b031916908160001a905350600f60fb1b8160018151811061406a5761406a615097565b60200101906001600160f81b031916908160001a905350600061408e846002614be0565b614099906001614bac565b90505b6001811115614111576f181899199a1a9b1b9c1cb0b131b232b360811b85600f16601081106140cd576140cd615097565b1a60f81b8282815181106140e3576140e3615097565b60200101906001600160f81b031916908160001a90535060049490941c9361410a81615261565b905061409c565b5083156110255760405162461bcd60e51b8152600401611331906152aa565b60405180606001604052806000815260200160008152602001600081525090565b6001600160a01b031690565b6000610f3982614151565b6141718161415d565b82525050565b60208101610f398284614168565b80614171565b60208101610f398284614185565b6001600160e01b031981165b811461208f57600080fd5b8035610f3981614199565b6000602082840312156141d0576141d0600080fd5b60006115f884846141b0565b801515614171565b60208101610f3982846141dc565b806141a5565b8035610f39816141f2565b6141a58161415d565b8035610f3981614203565b601f01601f191690565b634e487b7160e01b600052604160045260246000fd5b61424082614217565b81018181106001600160401b038211171561425d5761425d614221565b6040525050565b600061426f60405190565b905061427b8282614237565b919050565b60006001600160401b0382111561429957614299614221565b5060209081020190565b60006142b66142b184614280565b614264565b838152905060208082019084028301858111156142d5576142d5600080fd5b835b818110156142f957806142ea888261420c565b845250602092830192016142d7565b5050509392505050565b600082601f83011261431757614317600080fd5b81356115f88482602086016142a3565b600080600080600060a0868803121561434257614342600080fd5b600061434e88886141f8565b955050602061435f8882890161420c565b94505060406143708882890161420c565b9350506060614381888289016141f8565b92505060808601356001600160401b038111156143a0576143a0600080fd5b6143ac88828901614303565b9150509295509295909350565b60005b838110156143d45781810151838201526020016143bc565b50506000910152565b60006143e7825190565b8084526020840193506143fe8185602086016143b9565b61440781614217565b9093019392505050565b6020808252810161102581846143dd565b60006020828403121561443757614437600080fd5b60006115f884846141f8565b6000806040838503121561445957614459600080fd5b6000614465858561420c565b9250506020614476858286016141f8565b9150509250929050565b600080600080600060a0868803121561449b5761449b600080fd5b60006144a788886141f8565b95505060206144b8888289016141f8565b94505060406144c9888289016141f8565b93505060606144da888289016141f8565b92505060806143ac8882890161420c565b805160608301906144fc8482614185565b50602082015161450f6020850182614185565b5060408201516115506040850182614185565b60608101610f3982846144eb565b60008060006060848603121561454857614548600080fd5b6000614554868661420c565b93505060206145658682870161420c565b9250506040614576868287016141f8565b9150509250925092565b60ff8116614171565b60208101610f398284614580565b600080604083850312156145ad576145ad600080fd5b60006145b985856141f8565b92505060206144768582860161420c565b6000806000606084860312156145e2576145e2600080fd5b60006145ee868661420c565b93505060206145ff868287016141f8565b92505060408401356001600160401b0381111561461e5761461e600080fd5b61457686828701614303565b60006020828403121561463f5761463f600080fd5b60006115f8848461420c565b608081016146598287614185565b6146666020830186614185565b6146736040830185614185565b610f746060830184614185565b6000806040838503121561469657614696600080fd5b600061446585856141f8565b600080600080608085870312156146bb576146bb600080fd5b60006146c7878761420c565b94505060206146d88782880161420c565b93505060406146e98782880161420c565b92505060606146fa878288016141f8565b91505092959194509250565b6000610f3961471a61471784614151565b90565b614151565b6000610f3982614706565b6000610f398261471f565b6141718161472a565b60208101610f398284614735565b6002811061208f57600080fd5b8035610f398161474c565b6000806040838503121561477a5761477a600080fd5b600061478685856141f8565b925050602061447685828601614759565b608081016147a58287614185565b6147b26020830186614185565b6147bf6040830185614185565b610f746060830184614168565b6000606082840312156147e1576147e1600080fd5b6147eb6060614264565b905060006147f984846141f8565b825250602061480a848483016141f8565b602083015250604061481e848285016141f8565b60408301525092915050565b60006080828403121561483f5761483f600080fd5b6148496080614264565b9050600061485784846141f8565b8252506020614868848483016141f8565b602083015250604061487c848285016141f8565b60408301525060606148908482850161420c565b60608301525092915050565b600080600061010084860312156148b5576148b5600080fd5b60006148c186866147cc565b93505060606148d28682870161482a565b92505060e0614576868287016141f8565b604081016148f18285614185565b6110256020830184614185565b60ff81166141a5565b8035610f39816148fe565b60006001600160401b0382111561492b5761492b614221565b61493482614217565b60200192915050565b82818337506000910152565b60006149576142b184614912565b90508281526020810184848401111561497257614972600080fd5b61497d84828561493d565b509392505050565b600082601f83011261499957614999600080fd5b81356115f8848260208601614949565b60008060008060008060c087890312156149c5576149c5600080fd5b60006149d1898961420c565b96505060206149e289828a0161420c565b95505060406149f389828a0161420c565b9450506060614a0489828a01614907565b93505060808701356001600160401b03811115614a2357614a23600080fd5b614a2f89828a01614985565b92505060a08701356001600160401b03811115614a4e57614a4e600080fd5b614a5a89828a01614985565b9150509295509295509295565b600080600080600080600060e0888a031215614a8557614a85600080fd5b6000614a918a8a61420c565b9750506020614aa28a828b0161420c565b9650506040614ab38a828b016141f8565b9550506060614ac48a828b016141f8565b9450506080614ad58a828b01614907565b93505060a0614ae68a828b016141f8565b92505060c0614af78a828b016141f8565b91505092959891949750929550565b60008060408385031215614b1c57614b1c600080fd5b60006145b9858561420c565b634e487b7160e01b600052602260045260246000fd5b600281046001821680614b5257607f821691505b602082108103614b6457614b64614b28565b50919050565b8051610f39816141f2565b600060208284031215614b8a57614b8a600080fd5b60006115f88484614b6a565b634e487b7160e01b600052601160045260246000fd5b80820180821115610f3957610f39614b96565b604081016148f18285614168565b81810381811115610f3957610f39614b96565b6000816000190483118215151615614bfa57614bfa614b96565b500290565b634e487b7160e01b600052601260045260246000fd5b600082614c2457614c24614bff565b500490565b60208082528101610f3981602f81527f416363657373436f6e74726f6c3a2063616e206f6e6c792072656e6f756e636560208201526e103937b632b9903337b91039b2b63360891b604082015260600190565b60008060008060808587031215614c9557614c95600080fd5b6000614ca18787614b6a565b9450506020614cb287828801614b6a565b9350506040614cc387828801614b6a565b92505060606146fa87828801614b6a565b60408101614ce28285614168565b6110256020830184614168565b60408101614ce28285614185565b8015156141a5565b8051610f3981614cfd565b600060208284031215614d2557614d25600080fd5b60006115f88484614d05565b600f81526000602082016e185c1c1c9bdd985b0819985a5b1959608a1b815291505b5060200190565b60208082528101610f3981614d31565b6000610f396147178381565b614d7f83614d6a565b81546008840282811b60001990911b908116901990911617825550505050565b60006112b6818484614d76565b8181101561134457614dbf600082614d9f565b600101614dac565b601f8211156112b6576000818152602090206020601f85010481016020851015614dee5750805b6123fa6020601f860104830182614dac565b6000196008929092029190911c191690565b6000614e1e8383614e00565b600290930290921792915050565b81516001600160401b03811115614e4557614e45614221565b614e4f8254614b3e565b614e5a828285614dc7565b6020601f831160018114614e885760008415614e765750858201515b614e808582614e12565b865550614ee2565b600085815260208120601f198616915b82811015614eb85788850151825560209485019460019092019101614e98565b86831015614ed55784890151614ed1601f891682614e00565b8355505b6001600288020188555050505b505050505050565b60c08101614ef88289614185565b614f056020830188614168565b614f126040830187614168565b614f1f6060830186614185565b614f2c6080830185614185565b611f4d60a0830184614185565b61190160f01b81526002016000614f508285614185565b602082019150614f608284614185565b5060200192915050565b60808101614f788287614185565b6146666020830186614580565b60006000198203614f9857614f98614b96565b5060010190565b601f81526000602082017f5265656e7472616e637947756172643a207265656e7472616e742063616c6c0081529150614d53565b60208082528101610f3981614f9f565b634e487b7160e01b600052602160045260246000fd5b60008261500857615008614bff565b500690565b60006150198383614168565b505060200190565b600061502b825190565b80845260209384019383018060005b8381101561505f57815161504e888261500d565b97506020830192505060010161503a565b509495945050505050565b606081016150788286614168565b6150856020830185614185565b8181036040830152610f748184615021565b634e487b7160e01b600052603260045260246000fd5b606081016150bb8286614168565b6150c86020830185614168565b6115f86040830184614185565b600f81526000602082016e1d1c985b9cd9995c8819985a5b1959608a1b81529150614d53565b60208082528101610f39816150d5565b606081016151198286614185565b6151266020830185614168565b6115f86040830184614168565b8051610f3981614203565b600061514c6142b184614280565b8381529050602080820190840283018581111561516b5761516b600080fd5b835b818110156142f957806151808882615133565b8452506020928301920161516d565b600082601f8301126151a3576151a3600080fd5b81516115f884826020860161513e565b6000602082840312156151c8576151c8600080fd5b81516001600160401b038111156151e1576151e1600080fd5b6115f88482850161518f565b60006151f7825190565b6152058185602086016143b9565b9290920192915050565b76020b1b1b2b9b9a1b7b73a3937b61d1030b1b1b7bab73a1604d1b8152601701600061523b82856151ed565b7001034b99036b4b9b9b4b733903937b6329607d1b815260110191506115f882846151ed565b60008161527057615270614b96565b506000190190565b60208082527f537472696e67733a20686578206c656e67746820696e73756666696369656e7491019081526000614d53565b60208082528101610f398161527856feddf252ad1be2c89b69c2b068fc378daa952ba7f163c4a11628f55a4df523b3ef6e71edae12b1b97f4d1f60370fef10105fa2faae0126114a169c64845d6126c98c5be1e5ebec7d5bd14f71427d1e84f3dd0314c0f7b2291e5b200ac8c7c3b925dcbc1c05240f31ff3ad067ef1ee35ce4997762752e3a095284754544f4c709d75e2b8821ad6e0e26207e0cb4d242d07eeb1cbb1cfd853e645bdcd27cc5484f95a2646970667358221220aa1f3f1840337ef6ed92b288fe0358a0b9f19debc222fc81388becf2cf1d8c3764736f6c63430008100033",
  "devdoc": {
    "kind": "dev",
    "methods": {
      "allowance(address,address)": {
        "details": "Returns the remaining number of tokens that `spender` will be allowed to spend on behalf of `owner` through {transferFrom}. This is zero by default. This value changes when {approve} or {transferFrom} are called."
      },
      "approve(address,uint256)": {
        "details": "Sets `amount` as the allowance of `spender` over the caller's tokens. Returns a boolean value indicating whether the operation succeeded. IMPORTANT: Beware that changing an allowance with this method brings the risk that someone may use both the old and the new allowance by unfortunate transaction ordering. One possible solution to mitigate this race condition is to first reduce the spender's allowance to 0 and set the desired value afterwards: https://github.com/ethereum/EIPs/issues/20#issuecomment-263524729 Emits an {Approval} event."
      },
      "asset()": {
        "details": "Returns the address of the underlying token used for the Vault for accounting, depositing, and withdrawing. - MUST be an ERC-20 token contract. - MUST NOT revert."
      },
      "convertToAssets(uint256)": {
        "details": "Returns the amount of assets that the Vault would exchange for the amount of shares provided, in an ideal scenario where all the conditions are met. - MUST NOT be inclusive of any fees that are charged against assets in the Vault. - MUST NOT show any variations depending on the caller. - MUST NOT reflect slippage or other on-chain conditions, when performing the actual exchange. - MUST NOT revert. NOTE: This calculation MAY NOT reflect the per-user price-per-share, and instead should reflect the average-users price-per-share, meaning what the average user should expect to see when exchanging to and from."
      },
      "convertToShares(uint256)": {
        "details": "Returns the amount of shares that the Vault would exchange for the amount of assets provided, in an ideal scenario where all the conditions are met. - MUST NOT be inclusive of any fees that are charged against assets in the Vault. - MUST NOT show any variations depending on the caller. - MUST NOT reflect slippage or other on-chain conditions, when performing the actual exchange. - MUST NOT revert. NOTE: This calculation MAY NOT reflect the per-user price-per-share, and instead should reflect the average-users price-per-share, meaning what the average user should expect to see when exchanging to and from."
      },
      "decimals()": {
        "details": "Returns the decimals places of the token."
      },
      "deposit(uint256,address)": {
        "details": "Mints shares Vault shares to receiver by depositing exactly amount of underlying tokens. - MUST emit the Deposit event. - MAY support an additional flow in which the underlying tokens are owned by the Vault contract before the   deposit execution, and are accounted for during deposit. - MUST revert if all of assets cannot be deposited (due to deposit limit being reached, slippage, the user not   approving enough underlying tokens to the Vault contract, etc). NOTE: most implementations will require pre-approval of the Vault with the Vaults underlying asset token."
      },
      "getRoleAdmin(bytes32)": {
        "details": "Returns the admin role that controls `role`. See {grantRole} and {revokeRole}. To change a role's admin, use {_setRoleAdmin}."
      },
      "grantRole(bytes32,address)": {
        "details": "Grants `role` to `account`. If `account` had not been already granted `role`, emits a {RoleGranted} event. Requirements: - the caller must have ``role``'s admin role. May emit a {RoleGranted} event."
      },
      "hasRole(bytes32,address)": {
        "details": "Returns `true` if `account` has been granted `role`."
      },
      "maxDeposit(address)": {
        "details": "Returns the maximum amount of the underlying asset that can be deposited into the Vault for the receiver, through a deposit call. - MUST return a limited value if receiver is subject to some deposit limit. - MUST return 2 ** 256 - 1 if there is no limit on the maximum amount of assets that may be deposited. - MUST NOT revert."
      },
      "maxMint(address)": {
        "details": "Returns the maximum amount of the Vault shares that can be minted for the receiver, through a mint call. - MUST return a limited value if receiver is subject to some mint limit. - MUST return 2 ** 256 - 1 if there is no limit on the maximum amount of shares that may be minted. - MUST NOT revert."
      },
      "mint(uint256,address)": {
        "details": "Mints exactly shares Vault shares to receiver by depositing amount of underlying tokens. - MUST emit the Deposit event. - MAY support an additional flow in which the underlying tokens are owned by the Vault contract before the mint   execution, and are accounted for during mint. - MUST revert if all of shares cannot be minted (due to deposit limit being reached, slippage, the user not   approving enough underlying tokens to the Vault contract, etc). NOTE: most implementations will require pre-approval of the Vault with the Vaults underlying asset token."
      },
      "previewDeposit(uint256)": {
        "details": "Allows an on-chain or off-chain user to simulate the effects of their deposit at the current block, given current on-chain conditions. - MUST return as close to and no more than the exact amount of Vault shares that would be minted in a deposit   call in the same transaction. I.e. deposit should return the same or more shares as previewDeposit if called   in the same transaction. - MUST NOT account for deposit limits like those returned from maxDeposit and should always act as though the   deposit would be accepted, regardless if the user has enough tokens approved, etc. - MUST be inclusive of deposit fees. Integrators should be aware of the existence of deposit fees. - MUST NOT revert. NOTE: any unfavorable discrepancy between convertToShares and previewDeposit SHOULD be considered slippage in share price or some other type of condition, meaning the depositor will lose assets by depositing."
      },
      "previewMint(uint256)": {
        "details": "Allows an on-chain or off-chain user to simulate the effects of their mint at the current block, given current on-chain conditions. - MUST return as close to and no fewer than the exact amount of assets that would be deposited in a mint call   in the same transaction. I.e. mint should return the same or fewer assets as previewMint if called in the   same transaction. - MUST NOT account for mint limits like those returned from maxMint and should always act as though the mint   would be accepted, regardless if the user has enough tokens approved, etc. - MUST be inclusive of deposit fees. Integrators should be aware of the existence of deposit fees. - MUST NOT revert. NOTE: any unfavorable discrepancy between convertToAssets and previewMint SHOULD be considered slippage in share price or some other type of condition, meaning the depositor will lose assets by minting."
      },
      "previewRedeem(uint256)": {
        "details": "Allows an on-chain or off-chain user to simulate the effects of their redeemption at the current block, given current on-chain conditions. - MUST return as close to and no more than the exact amount of assets that would be withdrawn in a redeem call   in the same transaction. I.e. redeem should return the same or more assets as previewRedeem if called in the   same transaction. - MUST NOT account for redemption limits like those returned from maxRedeem and should always act as though the   redemption would be accepted, regardless if the user has enough shares, etc. - MUST be inclusive of withdrawal fees. Integrators should be aware of the existence of withdrawal fees. - MUST NOT revert. NOTE: any unfavorable discrepancy between convertToAssets and previewRedeem SHOULD be considered slippage in share price or some other type of condition, meaning the depositor will lose assets by redeeming."
      },
      "previewWithdraw(uint256)": {
        "details": "Allows an on-chain or off-chain user to simulate the effects of their withdrawal at the current block, given current on-chain conditions. - MUST return as close to and no fewer than the exact amount of Vault shares that would be burned in a withdraw   call in the same transaction. I.e. withdraw should return the same or fewer shares as previewWithdraw if   called   in the same transaction. - MUST NOT account for withdrawal limits like those returned from maxWithdraw and should always act as though   the withdrawal would be accepted, regardless if the user has enough shares, etc. - MUST be inclusive of withdrawal fees. Integrators should be aware of the existence of withdrawal fees. - MUST NOT revert. NOTE: any unfavorable discrepancy between convertToShares and previewWithdraw SHOULD be considered slippage in share price or some other type of condition, meaning the depositor will lose assets by depositing."
      },
      "renounceRole(bytes32,address)": {
        "details": "Revokes `role` from the calling account. Roles are often managed via {grantRole} and {revokeRole}: this function's purpose is to provide a mechanism for accounts to lose their privileges if they are compromised (such as when a trusted device is misplaced). If the calling account had been revoked `role`, emits a {RoleRevoked} event. Requirements: - the caller must be `account`. May emit a {RoleRevoked} event."
      },
      "revokeRole(bytes32,address)": {
        "details": "Revokes `role` from `account`. If `account` had been granted `role`, emits a {RoleRevoked} event. Requirements: - the caller must have ``role``'s admin role. May emit a {RoleRevoked} event."
      },
      "supportsInterface(bytes4)": {
        "details": "See {IERC165-supportsInterface}."
      },
      "totalAssets()": {
        "details": "Returns the total amount of the underlying asset that is managed by Vault. - SHOULD include any compounding that occurs from yield. - MUST be inclusive of any fees that are charged against assets in the Vault. - MUST NOT revert."
      },
      "totalSupply()": {
        "details": "Returns the amount of tokens in existence."
      }
    },
    "stateVariables": {
      "name": {
        "details": "Returns the name of the token."
      },
      "symbol": {
        "details": "Returns the symbol of the token."
      }
    },
    "title": "STRATEGY MANAGEMENT",
    "version": 1
  },
  "userdoc": {
    "kind": "user",
    "methods": {},
    "version": 1
  },
  "storageLayout": {
    "storage": [
      {
        "astId": 11300,
        "contract": "contracts/Packages/SharesManagerPackage.sol:SharesManagerPackage",
        "label": "strategyManager",
        "offset": 0,
        "slot": "0",
        "type": "t_address_payable"
      },
      {
        "astId": 11302,
        "contract": "contracts/Packages/SharesManagerPackage.sol:SharesManagerPackage",
        "label": "sharesManager",
        "offset": 0,
        "slot": "1",
        "type": "t_address"
      },
      {
        "astId": 11304,
        "contract": "contracts/Packages/SharesManagerPackage.sol:SharesManagerPackage",
        "label": "setters",
        "offset": 0,
        "slot": "2",
        "type": "t_address_payable"
      },
      {
        "astId": 11306,
        "contract": "contracts/Packages/SharesManagerPackage.sol:SharesManagerPackage",
        "label": "governance",
        "offset": 0,
        "slot": "3",
        "type": "t_address"
      },
      {
        "astId": 11311,
        "contract": "contracts/Packages/SharesManagerPackage.sol:SharesManagerPackage",
        "label": "strategies",
        "offset": 0,
        "slot": "4",
        "type": "t_mapping(t_address,t_struct(StrategyParams)11472_storage)"
      },
      {
        "astId": 11314,
        "contract": "contracts/Packages/SharesManagerPackage.sol:SharesManagerPackage",
        "label": "fees",
        "offset": 0,
        "slot": "5",
        "type": "t_struct(FeeAssessment)11481_storage"
      },
      {
        "astId": 11317,
        "contract": "contracts/Packages/SharesManagerPackage.sol:SharesManagerPackage",
        "label": "defaultQueue",
        "offset": 0,
        "slot": "9",
        "type": "t_array(t_address)dyn_storage"
      },
      {
        "astId": 11319,
        "contract": "contracts/Packages/SharesManagerPackage.sol:SharesManagerPackage",
        "label": "useDefaultQueue",
        "offset": 0,
        "slot": "10",
        "type": "t_bool"
      },
      {
        "astId": 11321,
        "contract": "contracts/Packages/SharesManagerPackage.sol:SharesManagerPackage",
        "label": "initialized",
        "offset": 1,
        "slot": "10",
        "type": "t_bool"
      },
      {
        "astId": 11325,
        "contract": "contracts/Packages/SharesManagerPackage.sol:SharesManagerPackage",
        "label": "_balanceOf",
        "offset": 0,
        "slot": "11",
        "type": "t_mapping(t_address,t_uint256)"
      },
      {
        "astId": 11331,
        "contract": "contracts/Packages/SharesManagerPackage.sol:SharesManagerPackage",
        "label": "_allowance",
        "offset": 0,
        "slot": "12",
        "type": "t_mapping(t_address,t_mapping(t_address,t_uint256))"
      },
      {
        "astId": 11333,
        "contract": "contracts/Packages/SharesManagerPackage.sol:SharesManagerPackage",
        "label": "totalSupplyAmount",
        "offset": 0,
        "slot": "13",
        "type": "t_uint256"
      },
      {
        "astId": 11335,
        "contract": "contracts/Packages/SharesManagerPackage.sol:SharesManagerPackage",
        "label": "totalDebtAmount",
        "offset": 0,
        "slot": "14",
        "type": "t_uint256"
      },
      {
        "astId": 11337,
        "contract": "contracts/Packages/SharesManagerPackage.sol:SharesManagerPackage",
        "label": "totalIdleAmount",
        "offset": 0,
        "slot": "15",
        "type": "t_uint256"
      },
      {
        "astId": 11339,
        "contract": "contracts/Packages/SharesManagerPackage.sol:SharesManagerPackage",
        "label": "minimumTotalIdle",
        "offset": 0,
        "slot": "16",
        "type": "t_uint256"
      },
      {
        "astId": 11341,
        "contract": "contracts/Packages/SharesManagerPackage.sol:SharesManagerPackage",
        "label": "depositLimit",
        "offset": 0,
        "slot": "17",
        "type": "t_uint256"
      },
      {
        "astId": 11343,
        "contract": "contracts/Packages/SharesManagerPackage.sol:SharesManagerPackage",
        "label": "accountant",
        "offset": 0,
        "slot": "18",
        "type": "t_address"
      },
      {
        "astId": 11345,
        "contract": "contracts/Packages/SharesManagerPackage.sol:SharesManagerPackage",
        "label": "depositLimitModule",
        "offset": 0,
        "slot": "19",
        "type": "t_address"
      },
      {
        "astId": 11347,
        "contract": "contracts/Packages/SharesManagerPackage.sol:SharesManagerPackage",
        "label": "withdrawLimitModule",
        "offset": 0,
        "slot": "20",
        "type": "t_address"
      },
      {
        "astId": 11351,
        "contract": "contracts/Packages/SharesManagerPackage.sol:SharesManagerPackage",
        "label": "roles",
        "offset": 0,
        "slot": "21",
        "type": "t_mapping(t_address,t_bytes32)"
      },
      {
        "astId": 11355,
        "contract": "contracts/Packages/SharesManagerPackage.sol:SharesManagerPackage",
        "label": "openRoles",
        "offset": 0,
        "slot": "22",
        "type": "t_mapping(t_bytes32,t_bool)"
      },
      {
        "astId": 11357,
        "contract": "contracts/Packages/SharesManagerPackage.sol:SharesManagerPackage",
        "label": "roleManager",
        "offset": 0,
        "slot": "23",
        "type": "t_address"
      },
      {
        "astId": 11359,
        "contract": "contracts/Packages/SharesManagerPackage.sol:SharesManagerPackage",
        "label": "futureRoleManager",
        "offset": 0,
        "slot": "24",
        "type": "t_address"
      },
      {
        "astId": 11361,
        "contract": "contracts/Packages/SharesManagerPackage.sol:SharesManagerPackage",
        "label": "shutdown",
        "offset": 20,
        "slot": "24",
        "type": "t_bool"
      },
      {
        "astId": 11363,
        "contract": "contracts/Packages/SharesManagerPackage.sol:SharesManagerPackage",
        "label": "profitMaxUnlockTime",
        "offset": 0,
        "slot": "25",
        "type": "t_uint256"
      },
      {
        "astId": 11365,
        "contract": "contracts/Packages/SharesManagerPackage.sol:SharesManagerPackage",
        "label": "fullProfitUnlockDate",
        "offset": 0,
        "slot": "26",
        "type": "t_uint256"
      },
      {
        "astId": 11367,
        "contract": "contracts/Packages/SharesManagerPackage.sol:SharesManagerPackage",
        "label": "profitUnlockingRate",
        "offset": 0,
        "slot": "27",
        "type": "t_uint256"
      },
      {
        "astId": 11369,
        "contract": "contracts/Packages/SharesManagerPackage.sol:SharesManagerPackage",
        "label": "lastProfitUpdate",
        "offset": 0,
        "slot": "28",
        "type": "t_uint256"
      },
      {
        "astId": 11373,
        "contract": "contracts/Packages/SharesManagerPackage.sol:SharesManagerPackage",
        "label": "nonces",
        "offset": 0,
        "slot": "29",
        "type": "t_mapping(t_address,t_uint256)"
      },
      {
        "astId": 11380,
        "contract": "contracts/Packages/SharesManagerPackage.sol:SharesManagerPackage",
        "label": "DOMAIN_SEPARATOR",
        "offset": 0,
        "slot": "30",
        "type": "t_bytes32"
      },
      {
        "astId": 796,
        "contract": "contracts/Packages/SharesManagerPackage.sol:SharesManagerPackage",
        "label": "_status",
        "offset": 0,
        "slot": "31",
        "type": "t_uint256"
      },
      {
        "astId": 24,
        "contract": "contracts/Packages/SharesManagerPackage.sol:SharesManagerPackage",
        "label": "_roles",
        "offset": 0,
        "slot": "32",
        "type": "t_mapping(t_bytes32,t_struct(RoleData)19_storage)"
      },
      {
        "astId": 5203,
        "contract": "contracts/Packages/SharesManagerPackage.sol:SharesManagerPackage",
        "label": "ASSET",
        "offset": 0,
        "slot": "33",
        "type": "t_contract(IERC20)928"
      },
      {
        "astId": 5205,
        "contract": "contracts/Packages/SharesManagerPackage.sol:SharesManagerPackage",
        "label": "DECIMALS",
        "offset": 20,
        "slot": "33",
        "type": "t_uint8"
      },
      {
        "astId": 5208,
        "contract": "contracts/Packages/SharesManagerPackage.sol:SharesManagerPackage",
        "label": "name",
        "offset": 0,
        "slot": "34",
        "type": "t_string_storage"
      },
      {
        "astId": 5211,
        "contract": "contracts/Packages/SharesManagerPackage.sol:SharesManagerPackage",
        "label": "symbol",
        "offset": 0,
        "slot": "35",
        "type": "t_string_storage"
      }
    ],
    "types": {
      "t_address": {
        "encoding": "inplace",
        "label": "address",
        "numberOfBytes": "20"
      },
      "t_address_payable": {
        "encoding": "inplace",
        "label": "address payable",
        "numberOfBytes": "20"
      },
      "t_array(t_address)dyn_storage": {
        "base": "t_address",
        "encoding": "dynamic_array",
        "label": "address[]",
        "numberOfBytes": "32"
      },
      "t_bool": {
        "encoding": "inplace",
        "label": "bool",
        "numberOfBytes": "1"
      },
      "t_bytes32": {
        "encoding": "inplace",
        "label": "bytes32",
        "numberOfBytes": "32"
      },
      "t_contract(IERC20)928": {
        "encoding": "inplace",
        "label": "contract IERC20",
        "numberOfBytes": "20"
      },
      "t_mapping(t_address,t_bool)": {
        "encoding": "mapping",
        "key": "t_address",
        "label": "mapping(address => bool)",
        "numberOfBytes": "32",
        "value": "t_bool"
      },
      "t_mapping(t_address,t_bytes32)": {
        "encoding": "mapping",
        "key": "t_address",
        "label": "mapping(address => bytes32)",
        "numberOfBytes": "32",
        "value": "t_bytes32"
      },
      "t_mapping(t_address,t_mapping(t_address,t_uint256))": {
        "encoding": "mapping",
        "key": "t_address",
        "label": "mapping(address => mapping(address => uint256))",
        "numberOfBytes": "32",
        "value": "t_mapping(t_address,t_uint256)"
      },
      "t_mapping(t_address,t_struct(StrategyParams)11472_storage)": {
        "encoding": "mapping",
        "key": "t_address",
        "label": "mapping(address => struct StrategyParams)",
        "numberOfBytes": "32",
        "value": "t_struct(StrategyParams)11472_storage"
      },
      "t_mapping(t_address,t_uint256)": {
        "encoding": "mapping",
        "key": "t_address",
        "label": "mapping(address => uint256)",
        "numberOfBytes": "32",
        "value": "t_uint256"
      },
      "t_mapping(t_bytes32,t_bool)": {
        "encoding": "mapping",
        "key": "t_bytes32",
        "label": "mapping(bytes32 => bool)",
        "numberOfBytes": "32",
        "value": "t_bool"
      },
      "t_mapping(t_bytes32,t_struct(RoleData)19_storage)": {
        "encoding": "mapping",
        "key": "t_bytes32",
        "label": "mapping(bytes32 => struct AccessControl.RoleData)",
        "numberOfBytes": "32",
        "value": "t_struct(RoleData)19_storage"
      },
      "t_string_storage": {
        "encoding": "bytes",
        "label": "string",
        "numberOfBytes": "32"
      },
      "t_struct(FeeAssessment)11481_storage": {
        "encoding": "inplace",
        "label": "struct FeeAssessment",
        "members": [
          {
            "astId": 11474,
            "contract": "contracts/Packages/SharesManagerPackage.sol:SharesManagerPackage",
            "label": "totalFees",
            "offset": 0,
            "slot": "0",
            "type": "t_uint256"
          },
          {
            "astId": 11476,
            "contract": "contracts/Packages/SharesManagerPackage.sol:SharesManagerPackage",
            "label": "totalRefunds",
            "offset": 0,
            "slot": "1",
            "type": "t_uint256"
          },
          {
            "astId": 11478,
            "contract": "contracts/Packages/SharesManagerPackage.sol:SharesManagerPackage",
            "label": "protocolFees",
            "offset": 0,
            "slot": "2",
            "type": "t_uint256"
          },
          {
            "astId": 11480,
            "contract": "contracts/Packages/SharesManagerPackage.sol:SharesManagerPackage",
            "label": "protocolFeeRecipient",
            "offset": 0,
            "slot": "3",
            "type": "t_address"
          }
        ],
        "numberOfBytes": "128"
      },
      "t_struct(RoleData)19_storage": {
        "encoding": "inplace",
        "label": "struct AccessControl.RoleData",
        "members": [
          {
            "astId": 16,
            "contract": "contracts/Packages/SharesManagerPackage.sol:SharesManagerPackage",
            "label": "members",
            "offset": 0,
            "slot": "0",
            "type": "t_mapping(t_address,t_bool)"
          },
          {
            "astId": 18,
            "contract": "contracts/Packages/SharesManagerPackage.sol:SharesManagerPackage",
            "label": "adminRole",
            "offset": 0,
            "slot": "1",
            "type": "t_bytes32"
          }
        ],
        "numberOfBytes": "64"
      },
      "t_struct(StrategyParams)11472_storage": {
        "encoding": "inplace",
        "label": "struct StrategyParams",
        "members": [
          {
            "astId": 11465,
            "contract": "contracts/Packages/SharesManagerPackage.sol:SharesManagerPackage",
            "label": "activation",
            "offset": 0,
            "slot": "0",
            "type": "t_uint256"
          },
          {
            "astId": 11467,
            "contract": "contracts/Packages/SharesManagerPackage.sol:SharesManagerPackage",
            "label": "lastReport",
            "offset": 0,
            "slot": "1",
            "type": "t_uint256"
          },
          {
            "astId": 11469,
            "contract": "contracts/Packages/SharesManagerPackage.sol:SharesManagerPackage",
            "label": "currentDebt",
            "offset": 0,
            "slot": "2",
            "type": "t_uint256"
          },
          {
            "astId": 11471,
            "contract": "contracts/Packages/SharesManagerPackage.sol:SharesManagerPackage",
            "label": "maxDebt",
            "offset": 0,
            "slot": "3",
            "type": "t_uint256"
          }
        ],
        "numberOfBytes": "128"
      },
      "t_uint256": {
        "encoding": "inplace",
        "label": "uint256",
        "numberOfBytes": "32"
      },
      "t_uint8": {
        "encoding": "inplace",
        "label": "uint8",
        "numberOfBytes": "1"
      }
    }
  }
}