{
  "address": "0xb251aBcF78e5989258a3D997eE65B38172c569f0",
  "abi": [
    {
      "inputs": [],
      "name": "ERC20InsufficientAllowance",
      "type": "error"
    },
    {
      "inputs": [],
      "name": "ERC20PermitExpired",
      "type": "error"
    },
    {
      "inputs": [],
      "name": "ERC20PermitInvalidSignature",
      "type": "error"
    },
    {
      "inputs": [],
      "name": "ExceedDepositLimit",
      "type": "error"
    },
    {
      "inputs": [],
      "name": "InactiveStrategy",
      "type": "error"
    },
    {
      "inputs": [],
      "name": "InsufficientAssets",
      "type": "error"
    },
    {
      "inputs": [],
      "name": "InsufficientFunds",
      "type": "error"
    },
    {
      "inputs": [],
      "name": "InsufficientShares",
      "type": "error"
    },
    {
      "inputs": [],
      "name": "InvalidAssetDecimals",
      "type": "error"
    },
    {
      "inputs": [],
      "name": "MaxLoss",
      "type": "error"
    },
    {
      "inputs": [],
      "name": "StrategyDebtIsLessThanAssetsNeeded",
      "type": "error"
    },
    {
      "inputs": [],
      "name": "StrategyIsShutdown",
      "type": "error"
    },
    {
      "inputs": [],
      "name": "TooMuchLoss",
      "type": "error"
    },
    {
      "inputs": [],
      "name": "UsingModule",
      "type": "error"
    },
    {
      "inputs": [],
      "name": "ZeroAddress",
      "type": "error"
    },
    {
      "inputs": [],
      "name": "ZeroValue",
      "type": "error"
    },
    {
      "anonymous": false,
      "inputs": [
        {
          "indexed": true,
          "internalType": "address",
          "name": "owner",
          "type": "address"
        },
        {
          "indexed": true,
          "internalType": "address",
          "name": "spender",
          "type": "address"
        },
        {
          "indexed": false,
          "internalType": "uint256",
          "name": "value",
          "type": "uint256"
        }
      ],
      "name": "Approval",
      "type": "event"
    },
    {
      "anonymous": false,
      "inputs": [
        {
          "indexed": true,
          "internalType": "address",
          "name": "strategy",
          "type": "address"
        },
        {
          "indexed": false,
          "internalType": "uint256",
          "name": "amount",
          "type": "uint256"
        }
      ],
      "name": "DebtPurchased",
      "type": "event"
    },
    {
      "anonymous": false,
      "inputs": [
        {
          "indexed": true,
          "internalType": "address",
          "name": "strategy",
          "type": "address"
        },
        {
          "indexed": false,
          "internalType": "uint256",
          "name": "currentDebt",
          "type": "uint256"
        },
        {
          "indexed": false,
          "internalType": "uint256",
          "name": "newDebt",
          "type": "uint256"
        }
      ],
      "name": "DebtUpdated",
      "type": "event"
    },
    {
      "anonymous": false,
      "inputs": [
        {
          "indexed": true,
          "internalType": "address",
          "name": "sender",
          "type": "address"
        },
        {
          "indexed": true,
          "internalType": "address",
          "name": "owner",
          "type": "address"
        },
        {
          "indexed": false,
          "internalType": "uint256",
          "name": "assets",
          "type": "uint256"
        },
        {
          "indexed": false,
          "internalType": "uint256",
          "name": "shares",
          "type": "uint256"
        }
      ],
      "name": "Deposit",
      "type": "event"
    },
    {
      "anonymous": false,
      "inputs": [
        {
          "indexed": true,
          "internalType": "bytes32",
          "name": "role",
          "type": "bytes32"
        },
        {
          "indexed": true,
          "internalType": "bytes32",
          "name": "previousAdminRole",
          "type": "bytes32"
        },
        {
          "indexed": true,
          "internalType": "bytes32",
          "name": "newAdminRole",
          "type": "bytes32"
        }
      ],
      "name": "RoleAdminChanged",
      "type": "event"
    },
    {
      "anonymous": false,
      "inputs": [
        {
          "indexed": true,
          "internalType": "bytes32",
          "name": "role",
          "type": "bytes32"
        },
        {
          "indexed": true,
          "internalType": "address",
          "name": "account",
          "type": "address"
        },
        {
          "indexed": true,
          "internalType": "address",
          "name": "sender",
          "type": "address"
        }
      ],
      "name": "RoleGranted",
      "type": "event"
    },
    {
      "anonymous": false,
      "inputs": [
        {
          "indexed": true,
          "internalType": "bytes32",
          "name": "role",
          "type": "bytes32"
        },
        {
          "indexed": true,
          "internalType": "address",
          "name": "account",
          "type": "address"
        },
        {
          "indexed": true,
          "internalType": "address",
          "name": "sender",
          "type": "address"
        }
      ],
      "name": "RoleRevoked",
      "type": "event"
    },
    {
      "anonymous": false,
      "inputs": [
        {
          "indexed": true,
          "internalType": "address",
          "name": "account",
          "type": "address"
        },
        {
          "indexed": false,
          "internalType": "bytes32",
          "name": "role",
          "type": "bytes32"
        }
      ],
      "name": "RoleSet",
      "type": "event"
    },
    {
      "anonymous": false,
      "inputs": [
        {
          "indexed": true,
          "internalType": "bytes32",
          "name": "role",
          "type": "bytes32"
        },
        {
          "indexed": true,
          "internalType": "enum RoleStatusChange",
          "name": "status",
          "type": "uint8"
        }
      ],
      "name": "RoleStatusChanged",
      "type": "event"
    },
    {
      "anonymous": false,
      "inputs": [],
      "name": "Shutdown",
      "type": "event"
    },
    {
      "anonymous": false,
      "inputs": [
        {
          "indexed": true,
          "internalType": "address",
          "name": "strategy",
          "type": "address"
        },
        {
          "indexed": false,
          "internalType": "enum StrategyChangeType",
          "name": "changeType",
          "type": "uint8"
        }
      ],
      "name": "StrategyChanged",
      "type": "event"
    },
    {
      "anonymous": false,
      "inputs": [
        {
          "indexed": true,
          "internalType": "address",
          "name": "strategy",
          "type": "address"
        },
        {
          "indexed": false,
          "internalType": "uint256",
          "name": "gain",
          "type": "uint256"
        },
        {
          "indexed": false,
          "internalType": "uint256",
          "name": "loss",
          "type": "uint256"
        },
        {
          "indexed": false,
          "internalType": "uint256",
          "name": "currentDebt",
          "type": "uint256"
        },
        {
          "indexed": false,
          "internalType": "uint256",
          "name": "protocolFees",
          "type": "uint256"
        },
        {
          "indexed": false,
          "internalType": "uint256",
          "name": "totalFees",
          "type": "uint256"
        },
        {
          "indexed": false,
          "internalType": "uint256",
          "name": "totalRefunds",
          "type": "uint256"
        }
      ],
      "name": "StrategyReported",
      "type": "event"
    },
    {
      "anonymous": false,
      "inputs": [
        {
          "indexed": true,
          "internalType": "address",
          "name": "from",
          "type": "address"
        },
        {
          "indexed": true,
          "internalType": "address",
          "name": "to",
          "type": "address"
        },
        {
          "indexed": false,
          "internalType": "uint256",
          "name": "value",
          "type": "uint256"
        }
      ],
      "name": "Transfer",
      "type": "event"
    },
    {
      "anonymous": false,
      "inputs": [
        {
          "indexed": true,
          "internalType": "address",
          "name": "accountant",
          "type": "address"
        }
      ],
      "name": "UpdateAccountant",
      "type": "event"
    },
    {
      "anonymous": false,
      "inputs": [
        {
          "indexed": false,
          "internalType": "address[]",
          "name": "newDefaultQueue",
          "type": "address[]"
        }
      ],
      "name": "UpdateDefaultQueue",
      "type": "event"
    },
    {
      "anonymous": false,
      "inputs": [
        {
          "indexed": false,
          "internalType": "uint256",
          "name": "depositLimit",
          "type": "uint256"
        }
      ],
      "name": "UpdateDepositLimit",
      "type": "event"
    },
    {
      "anonymous": false,
      "inputs": [
        {
          "indexed": true,
          "internalType": "address",
          "name": "depositLimitModule",
          "type": "address"
        }
      ],
      "name": "UpdateDepositLimitModule",
      "type": "event"
    },
    {
      "anonymous": false,
      "inputs": [
        {
          "indexed": false,
          "internalType": "uint256",
          "name": "minimumTotalIdle",
          "type": "uint256"
        }
      ],
      "name": "UpdateMinimumTotalIdle",
      "type": "event"
    },
    {
      "anonymous": false,
      "inputs": [
        {
          "indexed": false,
          "internalType": "uint256",
          "name": "profitMaxUnlockTime",
          "type": "uint256"
        }
      ],
      "name": "UpdateProfitMaxUnlockTime",
      "type": "event"
    },
    {
      "anonymous": false,
      "inputs": [
        {
          "indexed": true,
          "internalType": "address",
          "name": "roleManager",
          "type": "address"
        }
      ],
      "name": "UpdateRoleManager",
      "type": "event"
    },
    {
      "anonymous": false,
      "inputs": [
        {
          "indexed": false,
          "internalType": "bool",
          "name": "useDefaultQueue",
          "type": "bool"
        }
      ],
      "name": "UpdateUseDefaultQueue",
      "type": "event"
    },
    {
      "anonymous": false,
      "inputs": [
        {
          "indexed": true,
          "internalType": "address",
          "name": "withdrawLimitModule",
          "type": "address"
        }
      ],
      "name": "UpdateWithdrawLimitModule",
      "type": "event"
    },
    {
      "anonymous": false,
      "inputs": [
        {
          "indexed": true,
          "internalType": "uint256",
          "name": "totalFees",
          "type": "uint256"
        },
        {
          "indexed": true,
          "internalType": "uint256",
          "name": "totalRefunds",
          "type": "uint256"
        },
        {
          "indexed": true,
          "internalType": "uint256",
          "name": "protocolFees",
          "type": "uint256"
        },
        {
          "indexed": false,
          "internalType": "address",
          "name": "protocolFeeRecipient",
          "type": "address"
        }
      ],
      "name": "UpdatedFees",
      "type": "event"
    },
    {
      "anonymous": false,
      "inputs": [
        {
          "indexed": true,
          "internalType": "address",
          "name": "sender",
          "type": "address"
        },
        {
          "indexed": true,
          "internalType": "address",
          "name": "strategy",
          "type": "address"
        },
        {
          "indexed": false,
          "internalType": "uint256",
          "name": "newDebt",
          "type": "uint256"
        }
      ],
      "name": "UpdatedMaxDebtForStrategy",
      "type": "event"
    },
    {
      "anonymous": false,
      "inputs": [
        {
          "indexed": true,
          "internalType": "address",
          "name": "sender",
          "type": "address"
        },
        {
          "indexed": true,
          "internalType": "address",
          "name": "receiver",
          "type": "address"
        },
        {
          "indexed": true,
          "internalType": "address",
          "name": "owner",
          "type": "address"
        },
        {
          "indexed": false,
          "internalType": "uint256",
          "name": "assets",
          "type": "uint256"
        },
        {
          "indexed": false,
          "internalType": "uint256",
          "name": "shares",
          "type": "uint256"
        }
      ],
      "name": "Withdraw",
      "type": "event"
    },
    {
      "inputs": [],
      "name": "ACCOUNTANT_MANAGER",
      "outputs": [
        {
          "internalType": "bytes32",
          "name": "",
          "type": "bytes32"
        }
      ],
      "stateMutability": "view",
      "type": "function"
    },
    {
      "inputs": [],
      "name": "ADD_STRATEGY_MANAGER",
      "outputs": [
        {
          "internalType": "bytes32",
          "name": "",
          "type": "bytes32"
        }
      ],
      "stateMutability": "view",
      "type": "function"
    },
    {
      "inputs": [],
      "name": "API_VERSION",
      "outputs": [
        {
          "internalType": "string",
          "name": "",
          "type": "string"
        }
      ],
      "stateMutability": "view",
      "type": "function"
    },
    {
      "inputs": [],
      "name": "ASSET",
      "outputs": [
        {
          "internalType": "contract IERC20",
          "name": "",
          "type": "address"
        }
      ],
      "stateMutability": "view",
      "type": "function"
    },
    {
      "inputs": [],
      "name": "DEBT_MANAGER",
      "outputs": [
        {
          "internalType": "bytes32",
          "name": "",
          "type": "bytes32"
        }
      ],
      "stateMutability": "view",
      "type": "function"
    },
    {
      "inputs": [],
      "name": "DEBT_PURCHASER",
      "outputs": [
        {
          "internalType": "bytes32",
          "name": "",
          "type": "bytes32"
        }
      ],
      "stateMutability": "view",
      "type": "function"
    },
    {
      "inputs": [],
      "name": "DECIMALS",
      "outputs": [
        {
          "internalType": "uint8",
          "name": "",
          "type": "uint8"
        }
      ],
      "stateMutability": "view",
      "type": "function"
    },
    {
      "inputs": [],
      "name": "DEFAULT_ADMIN_ROLE",
      "outputs": [
        {
          "internalType": "bytes32",
          "name": "",
          "type": "bytes32"
        }
      ],
      "stateMutability": "view",
      "type": "function"
    },
    {
      "inputs": [],
      "name": "DEPOSIT_LIMIT_MANAGER",
      "outputs": [
        {
          "internalType": "bytes32",
          "name": "",
          "type": "bytes32"
        }
      ],
      "stateMutability": "view",
      "type": "function"
    },
    {
      "inputs": [],
      "name": "DOMAIN_SEPARATOR",
      "outputs": [
        {
          "internalType": "bytes32",
          "name": "",
          "type": "bytes32"
        }
      ],
      "stateMutability": "view",
      "type": "function"
    },
    {
      "inputs": [],
      "name": "DOMAIN_TYPE_HASH",
      "outputs": [
        {
          "internalType": "bytes32",
          "name": "",
          "type": "bytes32"
        }
      ],
      "stateMutability": "view",
      "type": "function"
    },
    {
      "inputs": [],
      "name": "EMERGENCY_MANAGER",
      "outputs": [
        {
          "internalType": "bytes32",
          "name": "",
          "type": "bytes32"
        }
      ],
      "stateMutability": "view",
      "type": "function"
    },
    {
      "inputs": [],
      "name": "FORCE_REVOKE_MANAGER",
      "outputs": [
        {
          "internalType": "bytes32",
          "name": "",
          "type": "bytes32"
        }
      ],
      "stateMutability": "view",
      "type": "function"
    },
    {
      "inputs": [],
      "name": "MAX_BPS",
      "outputs": [
        {
          "internalType": "uint256",
          "name": "",
          "type": "uint256"
        }
      ],
      "stateMutability": "view",
      "type": "function"
    },
    {
      "inputs": [],
      "name": "MAX_BPS_EXTENDED",
      "outputs": [
        {
          "internalType": "uint256",
          "name": "",
          "type": "uint256"
        }
      ],
      "stateMutability": "view",
      "type": "function"
    },
    {
      "inputs": [],
      "name": "MAX_DEBT_MANAGER",
      "outputs": [
        {
          "internalType": "bytes32",
          "name": "",
          "type": "bytes32"
        }
      ],
      "stateMutability": "view",
      "type": "function"
    },
    {
      "inputs": [],
      "name": "MAX_QUEUE",
      "outputs": [
        {
          "internalType": "uint256",
          "name": "",
          "type": "uint256"
        }
      ],
      "stateMutability": "view",
      "type": "function"
    },
    {
      "inputs": [],
      "name": "MINIMUM_IDLE_MANAGER",
      "outputs": [
        {
          "internalType": "bytes32",
          "name": "",
          "type": "bytes32"
        }
      ],
      "stateMutability": "view",
      "type": "function"
    },
    {
      "inputs": [],
      "name": "ONE_YEAR",
      "outputs": [
        {
          "internalType": "uint256",
          "name": "",
          "type": "uint256"
        }
      ],
      "stateMutability": "view",
      "type": "function"
    },
    {
      "inputs": [],
      "name": "PERMIT_TYPE_HASH",
      "outputs": [
        {
          "internalType": "bytes32",
          "name": "",
          "type": "bytes32"
        }
      ],
      "stateMutability": "view",
      "type": "function"
    },
    {
      "inputs": [],
      "name": "PROFIT_UNLOCK_MANAGER",
      "outputs": [
        {
          "internalType": "bytes32",
          "name": "",
          "type": "bytes32"
        }
      ],
      "stateMutability": "view",
      "type": "function"
    },
    {
      "inputs": [],
      "name": "QUEUE_MANAGER",
      "outputs": [
        {
          "internalType": "bytes32",
          "name": "",
          "type": "bytes32"
        }
      ],
      "stateMutability": "view",
      "type": "function"
    },
    {
      "inputs": [],
      "name": "REPORTING_MANAGER",
      "outputs": [
        {
          "internalType": "bytes32",
          "name": "",
          "type": "bytes32"
        }
      ],
      "stateMutability": "view",
      "type": "function"
    },
    {
      "inputs": [],
      "name": "REVOKE_STRATEGY_MANAGER",
      "outputs": [
        {
          "internalType": "bytes32",
          "name": "",
          "type": "bytes32"
        }
      ],
      "stateMutability": "view",
      "type": "function"
    },
    {
      "inputs": [],
      "name": "ROLE_MANAGER",
      "outputs": [
        {
          "internalType": "bytes32",
          "name": "",
          "type": "bytes32"
        }
      ],
      "stateMutability": "view",
      "type": "function"
    },
    {
      "inputs": [],
      "name": "WITHDRAW_LIMIT_MANAGER",
      "outputs": [
        {
          "internalType": "bytes32",
          "name": "",
          "type": "bytes32"
        }
      ],
      "stateMutability": "view",
      "type": "function"
    },
    {
      "inputs": [],
      "name": "accountant",
      "outputs": [
        {
          "internalType": "address",
          "name": "",
          "type": "address"
        }
      ],
      "stateMutability": "view",
      "type": "function"
    },
    {
      "inputs": [
        {
          "internalType": "address",
          "name": "owner",
          "type": "address"
        },
        {
          "internalType": "address",
          "name": "spender",
          "type": "address"
        }
      ],
      "name": "allowance",
      "outputs": [
        {
          "internalType": "uint256",
          "name": "",
          "type": "uint256"
        }
      ],
      "stateMutability": "view",
      "type": "function"
    },
    {
      "inputs": [
        {
          "internalType": "address",
          "name": "spender",
          "type": "address"
        },
        {
          "internalType": "uint256",
          "name": "amount",
          "type": "uint256"
        }
      ],
      "name": "approve",
      "outputs": [
        {
          "internalType": "bool",
          "name": "",
          "type": "bool"
        }
      ],
      "stateMutability": "nonpayable",
      "type": "function"
    },
    {
      "inputs": [
        {
          "internalType": "address",
          "name": "owner",
          "type": "address"
        },
        {
          "internalType": "address",
          "name": "spender",
          "type": "address"
        },
        {
          "internalType": "uint256",
          "name": "amount",
          "type": "uint256"
        }
      ],
      "name": "approve",
      "outputs": [
        {
          "internalType": "bool",
          "name": "",
          "type": "bool"
        }
      ],
      "stateMutability": "nonpayable",
      "type": "function"
    },
    {
      "inputs": [
        {
          "internalType": "address",
          "name": "strategy",
          "type": "address"
        },
        {
          "internalType": "uint256",
          "name": "assetsNeeded",
          "type": "uint256"
        }
      ],
      "name": "assessShareOfUnrealisedLosses",
      "outputs": [
        {
          "internalType": "uint256",
          "name": "",
          "type": "uint256"
        }
      ],
      "stateMutability": "view",
      "type": "function"
    },
    {
      "inputs": [],
      "name": "asset",
      "outputs": [
        {
          "internalType": "address",
          "name": "",
          "type": "address"
        }
      ],
      "stateMutability": "view",
      "type": "function"
    },
    {
      "inputs": [
        {
          "internalType": "address",
          "name": "addr",
          "type": "address"
        }
      ],
      "name": "balanceOf",
      "outputs": [
        {
          "internalType": "uint256",
          "name": "",
          "type": "uint256"
        }
      ],
      "stateMutability": "view",
      "type": "function"
    },
    {
      "inputs": [
        {
          "internalType": "uint256",
          "name": "shares",
          "type": "uint256"
        },
        {
          "internalType": "address",
          "name": "owner",
          "type": "address"
        }
      ],
      "name": "burnShares",
      "outputs": [],
      "stateMutability": "nonpayable",
      "type": "function"
    },
    {
      "inputs": [],
      "name": "burnUnlockedShares",
      "outputs": [],
      "stateMutability": "nonpayable",
      "type": "function"
    },
    {
      "inputs": [
        {
          "internalType": "uint256",
          "name": "gain",
          "type": "uint256"
        },
        {
          "internalType": "uint256",
          "name": "loss",
          "type": "uint256"
        },
        {
          "internalType": "uint256",
          "name": "totalFees",
          "type": "uint256"
        },
        {
          "internalType": "uint256",
          "name": "protocolFees",
          "type": "uint256"
        },
        {
          "internalType": "address",
          "name": "strategy",
          "type": "address"
        }
      ],
      "name": "calculateShareManagement",
      "outputs": [
        {
          "components": [
            {
              "internalType": "uint256",
              "name": "sharesToBurn",
              "type": "uint256"
            },
            {
              "internalType": "uint256",
              "name": "accountantFeesShares",
              "type": "uint256"
            },
            {
              "internalType": "uint256",
              "name": "protocolFeesShares",
              "type": "uint256"
            }
          ],
          "internalType": "struct ShareManagement",
          "name": "",
          "type": "tuple"
        }
      ],
      "stateMutability": "nonpayable",
      "type": "function"
    },
    {
      "inputs": [
        {
          "internalType": "uint256",
          "name": "shares",
          "type": "uint256"
        }
      ],
      "name": "convertToAssets",
      "outputs": [
        {
          "internalType": "uint256",
          "name": "",
          "type": "uint256"
        }
      ],
      "stateMutability": "view",
      "type": "function"
    },
    {
      "inputs": [
        {
          "internalType": "uint256",
          "name": "shares",
          "type": "uint256"
        },
        {
          "internalType": "enum Rounding",
          "name": "rounding",
          "type": "uint8"
        }
      ],
      "name": "convertToAssets",
      "outputs": [
        {
          "internalType": "uint256",
          "name": "",
          "type": "uint256"
        }
      ],
      "stateMutability": "view",
      "type": "function"
    },
    {
      "inputs": [
        {
          "internalType": "uint256",
          "name": "assets",
          "type": "uint256"
        },
        {
          "internalType": "enum Rounding",
          "name": "rounding",
          "type": "uint8"
        }
      ],
      "name": "convertToShares",
      "outputs": [
        {
          "internalType": "uint256",
          "name": "",
          "type": "uint256"
        }
      ],
      "stateMutability": "view",
      "type": "function"
    },
    {
      "inputs": [
        {
          "internalType": "uint256",
          "name": "assets",
          "type": "uint256"
        }
      ],
      "name": "convertToShares",
      "outputs": [
        {
          "internalType": "uint256",
          "name": "",
          "type": "uint256"
        }
      ],
      "stateMutability": "view",
      "type": "function"
    },
    {
      "inputs": [],
      "name": "decimals",
      "outputs": [
        {
          "internalType": "uint8",
          "name": "",
          "type": "uint8"
        }
      ],
      "stateMutability": "view",
      "type": "function"
    },
    {
      "inputs": [
        {
          "internalType": "address",
          "name": "owner",
          "type": "address"
        },
        {
          "internalType": "address",
          "name": "spender",
          "type": "address"
        },
        {
          "internalType": "uint256",
          "name": "amount",
          "type": "uint256"
        }
      ],
      "name": "decreaseAllowance",
      "outputs": [
        {
          "internalType": "bool",
          "name": "",
          "type": "bool"
        }
      ],
      "stateMutability": "nonpayable",
      "type": "function"
    },
    {
      "inputs": [
        {
          "internalType": "uint256",
          "name": "",
          "type": "uint256"
        }
      ],
      "name": "defaultQueue",
      "outputs": [
        {
          "internalType": "address",
          "name": "",
          "type": "address"
        }
      ],
      "stateMutability": "view",
      "type": "function"
    },
    {
      "inputs": [
        {
          "internalType": "uint256",
          "name": "assets",
          "type": "uint256"
        },
        {
          "internalType": "address",
          "name": "receiver",
          "type": "address"
        }
      ],
      "name": "deposit",
      "outputs": [
        {
          "internalType": "uint256",
          "name": "",
          "type": "uint256"
        }
      ],
      "stateMutability": "nonpayable",
      "type": "function"
    },
    {
      "inputs": [
        {
          "internalType": "address",
          "name": "sender",
          "type": "address"
        },
        {
          "internalType": "address",
          "name": "recipient",
          "type": "address"
        },
        {
          "internalType": "uint256",
          "name": "assets",
          "type": "uint256"
        }
      ],
      "name": "deposit",
      "outputs": [
        {
          "internalType": "uint256",
          "name": "",
          "type": "uint256"
        }
      ],
      "stateMutability": "nonpayable",
      "type": "function"
    },
    {
      "inputs": [],
      "name": "depositLimit",
      "outputs": [
        {
          "internalType": "uint256",
          "name": "",
          "type": "uint256"
        }
      ],
      "stateMutability": "view",
      "type": "function"
    },
    {
      "inputs": [],
      "name": "depositLimitModule",
      "outputs": [
        {
          "internalType": "address",
          "name": "",
          "type": "address"
        }
      ],
      "stateMutability": "view",
      "type": "function"
    },
    {
      "inputs": [
        {
          "internalType": "address",
          "name": "strategy",
          "type": "address"
        },
        {
          "internalType": "uint256",
          "name": "assetsToDeposit",
          "type": "uint256"
        }
      ],
      "name": "depositToStrategy",
      "outputs": [],
      "stateMutability": "nonpayable",
      "type": "function"
    },
    {
      "inputs": [
        {
          "internalType": "address",
          "name": "token",
          "type": "address"
        },
        {
          "internalType": "address",
          "name": "spender",
          "type": "address"
        },
        {
          "internalType": "uint256",
          "name": "amount",
          "type": "uint256"
        }
      ],
      "name": "erc20SafeApprove",
      "outputs": [],
      "stateMutability": "nonpayable",
      "type": "function"
    },
    {
      "inputs": [
        {
          "internalType": "address",
          "name": "token",
          "type": "address"
        },
        {
          "internalType": "address",
          "name": "receiver",
          "type": "address"
        },
        {
          "internalType": "uint256",
          "name": "amount",
          "type": "uint256"
        }
      ],
      "name": "erc20SafeTransfer",
      "outputs": [],
      "stateMutability": "nonpayable",
      "type": "function"
    },
    {
      "inputs": [
        {
          "internalType": "address",
          "name": "token",
          "type": "address"
        },
        {
          "internalType": "address",
          "name": "sender",
          "type": "address"
        },
        {
          "internalType": "address",
          "name": "receiver",
          "type": "address"
        },
        {
          "internalType": "uint256",
          "name": "amount",
          "type": "uint256"
        }
      ],
      "name": "erc20SafeTransferFrom",
      "outputs": [],
      "stateMutability": "nonpayable",
      "type": "function"
    },
    {
      "inputs": [],
      "name": "fees",
      "outputs": [
        {
          "internalType": "uint256",
          "name": "totalFees",
          "type": "uint256"
        },
        {
          "internalType": "uint256",
          "name": "totalRefunds",
          "type": "uint256"
        },
        {
          "internalType": "uint256",
          "name": "protocolFees",
          "type": "uint256"
        },
        {
          "internalType": "address",
          "name": "protocolFeeRecipient",
          "type": "address"
        }
      ],
      "stateMutability": "view",
      "type": "function"
    },
    {
      "inputs": [],
      "name": "fullProfitUnlockDate",
      "outputs": [
        {
          "internalType": "uint256",
          "name": "",
          "type": "uint256"
        }
      ],
      "stateMutability": "view",
      "type": "function"
    },
    {
      "inputs": [],
      "name": "futureRoleManager",
      "outputs": [
        {
          "internalType": "address",
          "name": "",
          "type": "address"
        }
      ],
      "stateMutability": "view",
      "type": "function"
    },
    {
      "inputs": [],
      "name": "getMinimumTotalIdle",
      "outputs": [
        {
          "internalType": "uint256",
          "name": "",
          "type": "uint256"
        }
      ],
      "stateMutability": "view",
      "type": "function"
    },
    {
      "inputs": [
        {
          "internalType": "bytes32",
          "name": "role",
          "type": "bytes32"
        }
      ],
      "name": "getRoleAdmin",
      "outputs": [
        {
          "internalType": "bytes32",
          "name": "",
          "type": "bytes32"
        }
      ],
      "stateMutability": "view",
      "type": "function"
    },
    {
      "inputs": [],
      "name": "getTotalIdleAmount",
      "outputs": [
        {
          "internalType": "uint256",
          "name": "",
          "type": "uint256"
        }
      ],
      "stateMutability": "view",
      "type": "function"
    },
    {
      "inputs": [],
      "name": "governance",
      "outputs": [
        {
          "internalType": "address",
          "name": "",
          "type": "address"
        }
      ],
      "stateMutability": "view",
      "type": "function"
    },
    {
      "inputs": [
        {
          "internalType": "bytes32",
          "name": "role",
          "type": "bytes32"
        },
        {
          "internalType": "address",
          "name": "account",
          "type": "address"
        }
      ],
      "name": "grantRole",
      "outputs": [],
      "stateMutability": "nonpayable",
      "type": "function"
    },
    {
      "inputs": [
        {
          "components": [
            {
              "internalType": "uint256",
              "name": "sharesToBurn",
              "type": "uint256"
            },
            {
              "internalType": "uint256",
              "name": "accountantFeesShares",
              "type": "uint256"
            },
            {
              "internalType": "uint256",
              "name": "protocolFeesShares",
              "type": "uint256"
            }
          ],
          "internalType": "struct ShareManagement",
          "name": "shares",
          "type": "tuple"
        },
        {
          "components": [
            {
              "internalType": "uint256",
              "name": "totalFees",
              "type": "uint256"
            },
            {
              "internalType": "uint256",
              "name": "totalRefunds",
              "type": "uint256"
            },
            {
              "internalType": "uint256",
              "name": "protocolFees",
              "type": "uint256"
            },
            {
              "internalType": "address",
              "name": "protocolFeeRecipient",
              "type": "address"
            }
          ],
          "internalType": "struct FeeAssessment",
          "name": "_fees",
          "type": "tuple"
        },
        {
          "internalType": "uint256",
          "name": "gain",
          "type": "uint256"
        }
      ],
      "name": "handleShareBurnsAndIssues",
      "outputs": [
        {
          "internalType": "uint256",
          "name": "previouslyLockedShares",
          "type": "uint256"
        },
        {
          "internalType": "uint256",
          "name": "newlyLockedShares",
          "type": "uint256"
        }
      ],
      "stateMutability": "nonpayable",
      "type": "function"
    },
    {
      "inputs": [
        {
          "internalType": "bytes32",
          "name": "role",
          "type": "bytes32"
        },
        {
          "internalType": "address",
          "name": "account",
          "type": "address"
        }
      ],
      "name": "hasRole",
      "outputs": [
        {
          "internalType": "bool",
          "name": "",
          "type": "bool"
        }
      ],
      "stateMutability": "view",
      "type": "function"
    },
    {
      "inputs": [
        {
          "internalType": "bytes4",
          "name": "",
          "type": "bytes4"
        }
      ],
      "name": "implementations",
      "outputs": [
        {
          "internalType": "address",
          "name": "",
          "type": "address"
        }
      ],
      "stateMutability": "view",
      "type": "function"
    },
    {
      "inputs": [
        {
          "internalType": "address",
          "name": "owner",
          "type": "address"
        },
        {
          "internalType": "address",
          "name": "spender",
          "type": "address"
        },
        {
          "internalType": "uint256",
          "name": "amount",
          "type": "uint256"
        }
      ],
      "name": "increaseAllowance",
      "outputs": [
        {
          "internalType": "bool",
          "name": "",
          "type": "bool"
        }
      ],
      "stateMutability": "nonpayable",
      "type": "function"
    },
    {
      "inputs": [
        {
          "internalType": "address",
          "name": "_strategyManager",
          "type": "address"
        },
        {
          "internalType": "address",
          "name": "_setters",
          "type": "address"
        },
        {
          "internalType": "address",
          "name": "_asset",
          "type": "address"
        },
        {
          "internalType": "uint8",
          "name": "_decimals",
          "type": "uint8"
        },
        {
          "internalType": "string",
          "name": "_name",
          "type": "string"
        },
        {
          "internalType": "string",
          "name": "_symbol",
          "type": "string"
        }
      ],
      "name": "initialize",
      "outputs": [],
      "stateMutability": "nonpayable",
      "type": "function"
    },
    {
      "inputs": [
        {
          "internalType": "uint256",
          "name": "shares",
          "type": "uint256"
        },
        {
          "internalType": "address",
          "name": "recipient",
          "type": "address"
        }
      ],
      "name": "issueShares",
      "outputs": [],
      "stateMutability": "nonpayable",
      "type": "function"
    },
    {
      "inputs": [
        {
          "internalType": "uint256",
          "name": "amount",
          "type": "uint256"
        },
        {
          "internalType": "address",
          "name": "recipient",
          "type": "address"
        }
      ],
      "name": "issueSharesForAmount",
      "outputs": [
        {
          "internalType": "uint256",
          "name": "",
          "type": "uint256"
        }
      ],
      "stateMutability": "nonpayable",
      "type": "function"
    },
    {
      "inputs": [],
      "name": "lastProfitUpdate",
      "outputs": [
        {
          "internalType": "uint256",
          "name": "",
          "type": "uint256"
        }
      ],
      "stateMutability": "view",
      "type": "function"
    },
    {
      "inputs": [
        {
          "internalType": "uint256",
          "name": "previouslyLockedShares",
          "type": "uint256"
        },
        {
          "internalType": "uint256",
          "name": "newlyLockedShares",
          "type": "uint256"
        }
      ],
      "name": "manageUnlockingOfShares",
      "outputs": [],
      "stateMutability": "nonpayable",
      "type": "function"
    },
    {
      "inputs": [
        {
          "internalType": "address",
          "name": "receiver",
          "type": "address"
        }
      ],
      "name": "maxDeposit",
      "outputs": [
        {
          "internalType": "uint256",
          "name": "",
          "type": "uint256"
        }
      ],
      "stateMutability": "view",
      "type": "function"
    },
    {
      "inputs": [
        {
          "internalType": "address",
          "name": "receiver",
          "type": "address"
        }
      ],
      "name": "maxMint",
      "outputs": [
        {
          "internalType": "uint256",
          "name": "",
          "type": "uint256"
        }
      ],
      "stateMutability": "view",
      "type": "function"
    },
    {
      "inputs": [
        {
          "internalType": "address",
          "name": "owner",
          "type": "address"
        },
        {
          "internalType": "uint256",
          "name": "maxLoss",
          "type": "uint256"
        },
        {
          "internalType": "address[]",
          "name": "_strategies",
          "type": "address[]"
        }
      ],
      "name": "maxRedeem",
      "outputs": [
        {
          "internalType": "uint256",
          "name": "",
          "type": "uint256"
        }
      ],
      "stateMutability": "nonpayable",
      "type": "function"
    },
    {
      "inputs": [
        {
          "internalType": "address",
          "name": "owner",
          "type": "address"
        },
        {
          "internalType": "uint256",
          "name": "_maxLoss",
          "type": "uint256"
        },
        {
          "internalType": "address[]",
          "name": "_strategies",
          "type": "address[]"
        }
      ],
      "name": "maxWithdraw",
      "outputs": [
        {
          "internalType": "uint256",
          "name": "",
          "type": "uint256"
        }
      ],
      "stateMutability": "nonpayable",
      "type": "function"
    },
    {
      "inputs": [],
      "name": "minimumTotalIdle",
      "outputs": [
        {
          "internalType": "uint256",
          "name": "",
          "type": "uint256"
        }
      ],
      "stateMutability": "view",
      "type": "function"
    },
    {
      "inputs": [
        {
          "internalType": "uint256",
          "name": "shares",
          "type": "uint256"
        },
        {
          "internalType": "address",
          "name": "receiver",
          "type": "address"
        }
      ],
      "name": "mint",
      "outputs": [
        {
          "internalType": "uint256",
          "name": "",
          "type": "uint256"
        }
      ],
      "stateMutability": "nonpayable",
      "type": "function"
    },
    {
      "inputs": [
        {
          "internalType": "address",
          "name": "sender",
          "type": "address"
        },
        {
          "internalType": "address",
          "name": "recipient",
          "type": "address"
        },
        {
          "internalType": "uint256",
          "name": "shares",
          "type": "uint256"
        }
      ],
      "name": "mint",
      "outputs": [
        {
          "internalType": "uint256",
          "name": "",
          "type": "uint256"
        }
      ],
      "stateMutability": "nonpayable",
      "type": "function"
    },
    {
      "inputs": [],
      "name": "name",
      "outputs": [
        {
          "internalType": "string",
          "name": "",
          "type": "string"
        }
      ],
      "stateMutability": "view",
      "type": "function"
    },
    {
      "inputs": [
        {
          "internalType": "address",
          "name": "",
          "type": "address"
        }
      ],
      "name": "nonces",
      "outputs": [
        {
          "internalType": "uint256",
          "name": "",
          "type": "uint256"
        }
      ],
      "stateMutability": "view",
      "type": "function"
    },
    {
      "inputs": [
        {
          "internalType": "bytes32",
          "name": "",
          "type": "bytes32"
        }
      ],
      "name": "openRoles",
      "outputs": [
        {
          "internalType": "bool",
          "name": "",
          "type": "bool"
        }
      ],
      "stateMutability": "view",
      "type": "function"
    },
    {
      "inputs": [
        {
          "internalType": "address",
          "name": "owner",
          "type": "address"
        },
        {
          "internalType": "address",
          "name": "spender",
          "type": "address"
        },
        {
          "internalType": "uint256",
          "name": "amount",
          "type": "uint256"
        },
        {
          "internalType": "uint256",
          "name": "deadline",
          "type": "uint256"
        },
        {
          "internalType": "uint8",
          "name": "v",
          "type": "uint8"
        },
        {
          "internalType": "bytes32",
          "name": "r",
          "type": "bytes32"
        },
        {
          "internalType": "bytes32",
          "name": "s",
          "type": "bytes32"
        }
      ],
      "name": "permit",
      "outputs": [
        {
          "internalType": "bool",
          "name": "",
          "type": "bool"
        }
      ],
      "stateMutability": "nonpayable",
      "type": "function"
    },
    {
      "inputs": [
        {
          "internalType": "uint256",
          "name": "assets",
          "type": "uint256"
        }
      ],
      "name": "previewDeposit",
      "outputs": [
        {
          "internalType": "uint256",
          "name": "",
          "type": "uint256"
        }
      ],
      "stateMutability": "view",
      "type": "function"
    },
    {
      "inputs": [
        {
          "internalType": "uint256",
          "name": "shares",
          "type": "uint256"
        }
      ],
      "name": "previewMint",
      "outputs": [
        {
          "internalType": "uint256",
          "name": "",
          "type": "uint256"
        }
      ],
      "stateMutability": "view",
      "type": "function"
    },
    {
      "inputs": [
        {
          "internalType": "uint256",
          "name": "shares",
          "type": "uint256"
        }
      ],
      "name": "previewRedeem",
      "outputs": [
        {
          "internalType": "uint256",
          "name": "",
          "type": "uint256"
        }
      ],
      "stateMutability": "view",
      "type": "function"
    },
    {
      "inputs": [
        {
          "internalType": "uint256",
          "name": "assets",
          "type": "uint256"
        }
      ],
      "name": "previewWithdraw",
      "outputs": [
        {
          "internalType": "uint256",
          "name": "",
          "type": "uint256"
        }
      ],
      "stateMutability": "view",
      "type": "function"
    },
    {
      "inputs": [],
      "name": "profitMaxUnlockTime",
      "outputs": [
        {
          "internalType": "uint256",
          "name": "",
          "type": "uint256"
        }
      ],
      "stateMutability": "view",
      "type": "function"
    },
    {
      "inputs": [],
      "name": "profitUnlockingRate",
      "outputs": [
        {
          "internalType": "uint256",
          "name": "",
          "type": "uint256"
        }
      ],
      "stateMutability": "view",
      "type": "function"
    },
    {
      "inputs": [
        {
          "internalType": "uint256",
          "name": "shares",
          "type": "uint256"
        },
        {
          "internalType": "address",
          "name": "receiver",
          "type": "address"
        },
        {
          "internalType": "address",
          "name": "owner",
          "type": "address"
        },
        {
          "internalType": "uint256",
          "name": "maxLoss",
          "type": "uint256"
        },
        {
          "internalType": "address[]",
          "name": "_strategies",
          "type": "address[]"
        }
      ],
      "name": "redeem",
      "outputs": [
        {
          "internalType": "uint256",
          "name": "",
          "type": "uint256"
        }
      ],
      "stateMutability": "nonpayable",
      "type": "function"
    },
    {
      "inputs": [
        {
          "internalType": "bytes32",
          "name": "role",
          "type": "bytes32"
        },
        {
          "internalType": "address",
          "name": "account",
          "type": "address"
        }
      ],
      "name": "renounceRole",
      "outputs": [],
      "stateMutability": "nonpayable",
      "type": "function"
    },
    {
      "inputs": [
        {
          "internalType": "bytes32",
          "name": "role",
          "type": "bytes32"
        },
        {
          "internalType": "address",
          "name": "account",
          "type": "address"
        }
      ],
      "name": "revokeRole",
      "outputs": [],
      "stateMutability": "nonpayable",
      "type": "function"
    },
    {
      "inputs": [],
      "name": "roleManager",
      "outputs": [
        {
          "internalType": "address",
          "name": "",
          "type": "address"
        }
      ],
      "stateMutability": "view",
      "type": "function"
    },
    {
      "inputs": [
        {
          "internalType": "address",
          "name": "",
          "type": "address"
        }
      ],
      "name": "roles",
      "outputs": [
        {
          "internalType": "bytes32",
          "name": "",
          "type": "bytes32"
        }
      ],
      "stateMutability": "view",
      "type": "function"
    },
    {
      "inputs": [
        {
          "internalType": "uint256",
          "name": "_depositLimit",
          "type": "uint256"
        }
      ],
      "name": "setDepositLimit",
      "outputs": [],
      "stateMutability": "nonpayable",
      "type": "function"
    },
    {
      "inputs": [
        {
          "internalType": "uint256",
          "name": "_minimumTotalIdle",
          "type": "uint256"
        }
      ],
      "name": "setMinimumTotalIdle",
      "outputs": [],
      "stateMutability": "nonpayable",
      "type": "function"
    },
    {
      "inputs": [
        {
          "internalType": "uint256",
          "name": "_totalDebtAmount",
          "type": "uint256"
        }
      ],
      "name": "setTotalDebtAmount",
      "outputs": [],
      "stateMutability": "nonpayable",
      "type": "function"
    },
    {
      "inputs": [
        {
          "internalType": "uint256",
          "name": "_totalIdleAmount",
          "type": "uint256"
        }
      ],
      "name": "setTotalIdleAmount",
      "outputs": [],
      "stateMutability": "nonpayable",
      "type": "function"
    },
    {
      "inputs": [],
      "name": "setters",
      "outputs": [
        {
          "internalType": "address",
          "name": "",
          "type": "address"
        }
      ],
      "stateMutability": "view",
      "type": "function"
    },
    {
      "inputs": [],
      "name": "sharesManager",
      "outputs": [
        {
          "internalType": "address",
          "name": "",
          "type": "address"
        }
      ],
      "stateMutability": "view",
      "type": "function"
    },
    {
      "inputs": [],
      "name": "shutdown",
      "outputs": [
        {
          "internalType": "bool",
          "name": "",
          "type": "bool"
        }
      ],
      "stateMutability": "view",
      "type": "function"
    },
    {
      "inputs": [
        {
          "internalType": "address",
          "name": "owner",
          "type": "address"
        },
        {
          "internalType": "address",
          "name": "spender",
          "type": "address"
        },
        {
          "internalType": "uint256",
          "name": "amount",
          "type": "uint256"
        }
      ],
      "name": "spendAllowance",
      "outputs": [],
      "stateMutability": "nonpayable",
      "type": "function"
    },
    {
      "inputs": [
        {
          "internalType": "address",
          "name": "",
          "type": "address"
        }
      ],
      "name": "strategies",
      "outputs": [
        {
          "internalType": "uint256",
          "name": "activation",
          "type": "uint256"
        },
        {
          "internalType": "uint256",
          "name": "lastReport",
          "type": "uint256"
        },
        {
          "internalType": "uint256",
          "name": "currentDebt",
          "type": "uint256"
        },
        {
          "internalType": "uint256",
          "name": "maxDebt",
          "type": "uint256"
        }
      ],
      "stateMutability": "view",
      "type": "function"
    },
    {
      "inputs": [],
      "name": "strategyManager",
      "outputs": [
        {
          "internalType": "address",
          "name": "",
          "type": "address"
        }
      ],
      "stateMutability": "view",
      "type": "function"
    },
    {
      "inputs": [
        {
          "internalType": "bytes4",
          "name": "interfaceId",
          "type": "bytes4"
        }
      ],
      "name": "supportsInterface",
      "outputs": [
        {
          "internalType": "bool",
          "name": "",
          "type": "bool"
        }
      ],
      "stateMutability": "view",
      "type": "function"
    },
    {
      "inputs": [],
      "name": "symbol",
      "outputs": [
        {
          "internalType": "string",
          "name": "",
          "type": "string"
        }
      ],
      "stateMutability": "view",
      "type": "function"
    },
    {
      "inputs": [],
      "name": "totalAssets",
      "outputs": [
        {
          "internalType": "uint256",
          "name": "",
          "type": "uint256"
        }
      ],
      "stateMutability": "view",
      "type": "function"
    },
    {
      "inputs": [],
      "name": "totalDebtAmount",
      "outputs": [
        {
          "internalType": "uint256",
          "name": "",
          "type": "uint256"
        }
      ],
      "stateMutability": "view",
      "type": "function"
    },
    {
      "inputs": [],
      "name": "totalIdleAmount",
      "outputs": [
        {
          "internalType": "uint256",
          "name": "",
          "type": "uint256"
        }
      ],
      "stateMutability": "view",
      "type": "function"
    },
    {
      "inputs": [],
      "name": "totalSupply",
      "outputs": [
        {
          "internalType": "uint256",
          "name": "",
          "type": "uint256"
        }
      ],
      "stateMutability": "view",
      "type": "function"
    },
    {
      "inputs": [],
      "name": "totalSupplyAmount",
      "outputs": [
        {
          "internalType": "uint256",
          "name": "",
          "type": "uint256"
        }
      ],
      "stateMutability": "view",
      "type": "function"
    },
    {
      "inputs": [
        {
          "internalType": "address",
          "name": "receiver",
          "type": "address"
        },
        {
          "internalType": "uint256",
          "name": "amount",
          "type": "uint256"
        }
      ],
      "name": "transfer",
      "outputs": [
        {
          "internalType": "bool",
          "name": "",
          "type": "bool"
        }
      ],
      "stateMutability": "nonpayable",
      "type": "function"
    },
    {
      "inputs": [
        {
          "internalType": "address",
          "name": "sender",
          "type": "address"
        },
        {
          "internalType": "address",
          "name": "receiver",
          "type": "address"
        },
        {
          "internalType": "uint256",
          "name": "amount",
          "type": "uint256"
        }
      ],
      "name": "transfer",
      "outputs": [],
      "stateMutability": "nonpayable",
      "type": "function"
    },
    {
      "inputs": [
        {
          "internalType": "address",
          "name": "sender",
          "type": "address"
        },
        {
          "internalType": "address",
          "name": "receiver",
          "type": "address"
        },
        {
          "internalType": "uint256",
          "name": "amount",
          "type": "uint256"
        }
      ],
      "name": "transferFrom",
      "outputs": [
        {
          "internalType": "bool",
          "name": "",
          "type": "bool"
        }
      ],
      "stateMutability": "nonpayable",
      "type": "function"
    },
    {
      "inputs": [],
      "name": "unlockedShares",
      "outputs": [
        {
          "internalType": "uint256",
          "name": "",
          "type": "uint256"
        }
      ],
      "stateMutability": "view",
      "type": "function"
    },
    {
      "inputs": [],
      "name": "useDefaultQueue",
      "outputs": [
        {
          "internalType": "bool",
          "name": "",
          "type": "bool"
        }
      ],
      "stateMutability": "view",
      "type": "function"
    },
    {
      "inputs": [
        {
          "internalType": "uint256",
          "name": "assets",
          "type": "uint256"
        },
        {
          "internalType": "address",
          "name": "receiver",
          "type": "address"
        },
        {
          "internalType": "address",
          "name": "owner",
          "type": "address"
        },
        {
          "internalType": "uint256",
          "name": "maxLoss",
          "type": "uint256"
        },
        {
          "internalType": "address[]",
          "name": "_strategies",
          "type": "address[]"
        }
      ],
      "name": "withdraw",
      "outputs": [
        {
          "internalType": "uint256",
          "name": "",
          "type": "uint256"
        }
      ],
      "stateMutability": "nonpayable",
      "type": "function"
    },
    {
      "inputs": [
        {
          "internalType": "address",
          "name": "strategy",
          "type": "address"
        },
        {
          "internalType": "uint256",
          "name": "assetsToWithdraw",
          "type": "uint256"
        }
      ],
      "name": "withdrawFromStrategy",
      "outputs": [],
      "stateMutability": "nonpayable",
      "type": "function"
    },
    {
      "inputs": [],
      "name": "withdrawLimitModule",
      "outputs": [
        {
          "internalType": "address",
          "name": "",
          "type": "address"
        }
      ],
      "stateMutability": "view",
      "type": "function"
    }
  ],
  "transactionHash": "0x9f0145731b85dfb0a9409745d3e3c5a6731361bc5e486c59593da8ef2feb2e84",
  "args": [],
  "numDeployments": 1,
  "solcInputHash": "7ab2345cf854203d773afda9327956de",
  "bytecode": "0x60a06040526301e1855860805234801561001857600080fd5b50600160205560805161543a6100396000396000610649015261543a6000f3fe608060405234801561001057600080fd5b50600436106105205760003560e01c80638afca8f0116102ad5780638afca8f014610a255780639198600314610a2e57806391d1485414610a4157806394bf804d14610a5457806395d89b4114610a6757806399167fb414610a6f5780639937464214610a825780639a508d0a14610aa25780639af1d35a14610ab55780639e34e34814610ae45780639f3988f314610af7578063a217fddf14610b1e578063a9059cbb14610b26578063a98222c414610b39578063ab5b4d4914610b60578063acded97d14610b87578063adba799e14610b9a578063af76d4bd14610bbb578063b3c187f214610bce578063b3d7f6b914610be1578063b53d095814610bf4578063bbe4eb4914610c07578063bdc8144b14610c14578063beabacc814610c27578063bee7e3d914610c3a578063c034969414610c4d578063c065ca0714610c60578063c0993eea14610c87578063c63d75b614610cae578063c6c3bbe614610cc1578063c6e6f59214610cd4578063c8d74b6014610ce7578063c8dffa9514610d0e578063ca4c1c3714610d17578063cea5a1a714610d2a578063d3b1e9a414610d32578063d4ae064f14610d45578063d505accf14610d6c578063d547741f14610d7f578063d73b1dc914610d92578063d81a09f614610da5578063d9a0e97a14610db8578063dd62ed3e14610dc0578063dd8aaa4f14610df9578063e0bf18ad14610e0c578063e1f21c6714610e14578063e315cd7514610e27578063e91db8e514610e3a578063ec6e566e14610e63578063ecf7085814610e76578063ef8b30f714610cd4578063f1daeba814610e7f578063f5b944eb14610ea6578063f828f50b14610ecd578063fc0e74d114610ed6578063fd967f4714610eea578063fec61f0614610ef3578063ff1e7f0814610f1a57600080fd5b8062435da51461052557806301e1d1141461054e57806301ffc9a71461056357806303dcd12c1461058357806306580f2d146105aa57806306fdde03146105bd57806307a2d13a146105d25780630835a3fc146105e55780630952864e146105ee578063095ea7b3146105f75780630a28a4771461060a5780630ad283d01461061d57806316d3bfbb1461064457806318160ddd1461066b5780631d8325ef1461067357806323b872dd14610693578063248a9ca3146106a65780632d632692146106b95780632e0f2625146106c25780632f2ff15d146106e3578063313ce567146106f857806334b5fab61461070a5780633644e5151461071d57806336568abe1461072657806336fba0841461073957806338d52e0f1461074557806339b70e381461075657806339ebf823146107695780633cd7b5ab146107ae5780633e986eed146107b75780633f7b5e40146107ca578063402d267d146107d25780634542abe2146107e55780634800d97f146107f85780634cdad506146105d25780634ce1d38a146108185780634cfe51dc1461083f5780634d4bb197146108665780634fb3ccc51461087b5780635141eebb1461088e57806353a66132146108975780635453491f146108ba5780635a569099146108c25780635aa6e675146108d55780635bf6b4fb146108e85780635d4086af1461090f578063652da3241461092257806365cb6765146109495780636c43a2ca1461095c5780636e553f651461096f57806370a08231146109825780637659bcc61461099557806377e3b267146109a85780637ecebe00146109cc5780637ff00077146109ec5780638212fd43146109ff5780638340f54914610a12575b600080fd5b601854610538906001600160a01b031681565b60405161054591906141b1565b60405180910390f35b610556610f2d565b60405161054591906141c5565b6105766105713660046141f5565b610f3c565b604051610545919061421e565b6105567f633076a97f32ae349b28772e7b1483f67a926f150cbc501d02bdbd77389325ab81565b6105566105b8366004614361565b610f73565b6105c5610fb1565b604051610545919061444b565b6105566105e036600461445c565b61103f565b61055660115481565b610556601a5481565b61057661060536600461447d565b61104c565b61055661061836600461445c565b611060565b6105567fc723f4dd6268e1c374639e36d629c765285ee7003913389d582c300f186dde9781565b6105567f000000000000000000000000000000000000000000000000000000000000000081565b61055661106d565b6106866106813660046144ba565b611077565b604051610545919061455c565b6105766106a136600461456a565b611298565b6105566106b436600461445c565b6112ba565b610556601b5481565b6022546106d690600160a01b900460ff1681565b60405161054591906145c3565b6106f66106f13660046145d1565b6112cf565b005b602254600160a01b900460ff166106d6565b610556610718366004614604565b6112f0565b610556601f5481565b6106f66107343660046145d1565b61133e565b61055664e8d4a5100081565b6022546001600160a01b0316610538565b600054610538906001600160a01b031681565b61079e610777366004614664565b60046020526000908152604090208054600182015460028301546003909301549192909184565b6040516105459493929190614685565b61055660105481565b6106f66107c53660046146ba565b61137d565b610556600a81565b6105566107e0366004614664565b61156e565b6106f66107f33660046146dc565b611579565b60225461080b906001600160a01b031681565b6040516105459190614778565b6105567f69d1171ac0a63777a6733cda21aec9ed3d48a4fd11f273c934a691dec5e5589c81565b6105567f862f91c9d89d6135b19873b921c90b702cb2e175c371b8430026b9577e69111981565b61055660008051602061538583398151915281565b601354610538906001600160a01b031681565b610556601c5481565b6105766108a536600461445c565b60176020526000908152604090205460ff1681565b601054610556565b6105566108d036600461447d565b61158b565b600354610538906001600160a01b031681565b6105567fea672c1c09cd95c51af9509f646f3615ff0071aae8652bd821471ee9037fd72c81565b61055661091d36600461479e565b611635565b6105567fcd9f023a942ee35097ead74b2505bea9f2c5d47465db92dd195cf7f01a41cfe181565b610556610957366004614604565b611641565b61057661096a36600461456a565b61164e565b61055661097d3660046145d1565b61165b565b610556610990366004614664565b61167c565b6105566109a33660046145d1565b6116d5565b6105c5604051806040016040528060058152602001640312e302e360dc1b81525081565b6105566109da366004614664565b601e6020526000908152604090205481565b6105566109fa36600461479e565b6116e1565b6106f6610a0d36600461445c565b601155565b610556610a2036600461456a565b6116ed565b610556601d5481565b601554610538906001600160a01b031681565b610576610a4f3660046145d1565b6116fa565b610556610a623660046145d1565b611725565b6105c561173a565b6106f6610a7d3660046145d1565b611747565b610556610a90366004614664565b60166020526000908152604090205481565b6106f6610ab036600461445c565b601055565b600554600654600754600854610ad4939291906001600160a01b031684565b60405161054594939291906147d1565b601454610538906001600160a01b031681565b6105567f6f430d649a8640e48ff9bfbc353b3f99ed630163857821b3b4075e3871dafbf581565b610556600081565b610576610b3436600461447d565b611751565b6105567f2f0dbbe8c2c0170206c50ec0cafa1c0dbd03e73e67c2a960178df30a0a30ee2e81565b6105567f900d80def0427daac599092fcb16b21808ec68dd9a2e1eae89d1e8db2135737581565b600154610538906001600160a01b031681565b610bad610ba83660046148d6565b6117a3565b60405161054592919061491d565b6106f6610bc936600461447d565b611a73565b601954610538906001600160a01b031681565b610556610bef36600461445c565b611ae4565b6106f6610c0236600461447d565b611af1565b600a546105769060ff1681565b6106f6610c2236600461445c565b611afb565b6106f6610c3536600461456a565b611b94565b600254610538906001600160a01b031681565b6106f6610c5b36600461456a565b611b9f565b6105567f2a0e761830cc61f2707ea7bb138008bf9dda7f7d34c77736d0a116604e95ea1681565b6105567f8b73c3c69bb8fe3d512ecc4cf759cc79239f7b179b0ffacaa9a75d522b39400f81565b610556610cbc366004614664565b611c67565b610556610ccf36600461456a565b611c80565b610556610ce236600461445c565b611c8d565b6105567f152ebba56b9738ee3d8baea1b76fa31dcdcd79b1929bfea7d58ee12cfdf1a65381565b610556600f5481565b6106f6610d253660046145d1565b611c9a565b601154610556565b6106f6610d403660046149e3565b611ca4565b6105567fa18eaea71a088b547b8c932b48861853b3434d9a3240b94466c607e28b69659581565b610576610d7a366004614aa1565b611d9d565b6106f6610d8d3660046145d1565b611f8f565b610576610da036600461456a565b611fab565b610556610db3366004614361565b611ff9565b610556612018565b610556610dce366004614b40565b6001600160a01b039182166000908152600c6020908152604080832093909416825291909152205490565b6106f6610e0736600461456a565b612022565b6106f661202d565b610576610e2236600461456a565b6120c9565b6106f6610e3536600461445c565b600f55565b610538610e483660046141f5565b600d602052600090815260409020546001600160a01b031681565b6106f6610e7136600461456a565b6120d6565b61055660125481565b6105567f7cbb3cdf689b8ea3e9d265f66bc4e0a99069268217017d38d2a5a559abc6271981565b6105567ff206625bad3d9112d5609b8d356e6fbd514cd1f69980d4ce2b3e6e68e1789ace81565b610556600e5481565b60195461057690600160a01b900460ff1681565b61055661271081565b6105567fd45f7ccff42f059d4e47c3f027c444272257266f7e88b981e142f0aa38fbfd7881565b610538610f2836600461445c565b6120e1565b6000610f3761210b565b905090565b60006001600160e01b03198216637965db0b60e01b1480610f6d57506301ffc9a760e01b6001600160e01b03198316145b92915050565b6000610f7d61211d565b6000610f8a876000612146565b9050610f9b328787848b89896121dc565b915050610fa86001602055565b95945050505050565b60238054610fbe90614b78565b80601f0160208091040260200160405190810160405280929190818152602001828054610fea90614b78565b80156110375780601f1061100c57610100808354040283529160200191611037565b820191906000526020600020905b81548152906001019060200180831161101a57829003601f168201915b505050505081565b6000610f6d826000612146565b6000611059338484612279565b9392505050565b6000610f6d826001612311565b6000610f376123bf565b61107f61416a565b61108761416a565b60008054604051634d3c739760e11b81526001600160a01b0390911690639a78e72e906110b89087906004016141b1565b602060405180830381865afa1580156110d5573d6000803e3d6000fd5b505050506040513d601f19601f820116820180604052508101906110f99190614baf565b90508715611184576000546001600160a01b0316633764254a8561111d8b85614be6565b6040518363ffffffff1660e01b815260040161113a929190614bf9565b600060405180830381600087803b15801561115457600080fd5b505af1158015611168573d6000803e3d6000fd5b5050505087600f600082825461117e9190614be6565b90915550505b861561120d576000546001600160a01b0316633764254a856111a68a85614c07565b6040518363ffffffff1660e01b81526004016111c3929190614bf9565b600060405180830381600087803b1580156111dd57600080fd5b505af11580156111f1573d6000803e3d6000fd5b5050505086600f60008282546112079190614c07565b90915550505b60006112198789614be6565b111561128d5761123361122c8789614be6565b6001612311565b82518390611242908390614be6565b905250851561128d5761125f6112588688614c07565b6000612311565b6020830152841561128d5760006112768987614c1a565b9050611286611258606483614c4f565b6040840152505b509695505050505050565b60006112a58433846123d6565b6112b0848484612438565b5060019392505050565b60009081526021602052604090206001015490565b6112d8826112ba565b6112e181612535565b6112eb838361253f565b505050565b6000806112fe8585856125c5565b9050600061130d826001612311565b6001600160a01b0387166000908152600b602052604090205490915061133490829061298f565b9695505050505050565b6001600160a01b038116331461136f5760405162461bcd60e51b815260040161136690614c63565b60405180910390fd5b61137982826129a5565b5050565b60006113898284614be6565b9050801561156457600042600260009054906101000a90046001600160a01b03166001600160a01b0316632d6326926040518163ffffffff1660e01b8152600401602060405180830381865afa1580156113e7573d6000803e3d6000fd5b505050506040513d601f19601f8201168201806040525081019061140b9190614baf565b111561149557600254604080516316b1934960e11b8152905142926001600160a01b031691632d6326929160048083019260209291908290030181865afa15801561145a573d6000803e3d6000fd5b505050506040513d601f19601f8201168201806040525081019061147e9190614baf565b6114889190614c07565b6114929085614c1a565b90505b600082600260009054906101000a90046001600160a01b03166001600160a01b0316630952864e6040518163ffffffff1660e01b8152600401602060405180830381865afa1580156114eb573d6000803e3d6000fd5b505050506040513d601f19601f8201168201806040525081019061150f9190614baf565b6115199086614c1a565b6115239084614be6565b61152d9190614c4f565b90508061153f64e8d4a5100085614c1a565b6115499190614c4f565b601c556115568142614be6565b601b55505042601d55505050565b6000601c55505050565b6000610f6d82612a0c565b61158584848484612ae4565b50505050565b600080546040516339ebf82360e01b815282916001600160a01b0316906339ebf823906115bc9087906004016141b1565b608060405180830381865afa1580156115d9573d6000803e3d6000fd5b505050506040513d601f19601f820116820180604052508101906115fd9190614cb6565b509250505082811015611623576040516337deae0760e01b815260040160405180910390fd5b61162d8484612bc0565b949350505050565b60006110598383612311565b600061162d8484846125c5565b600061162d848484612d83565b600061166561211d565b611670338385612db8565b9050610f6d6001602055565b6000306001600160a01b038316036116b957611696612f36565b6001600160a01b0383166000908152600b6020526040902054610f6d9190614c07565b506001600160a01b03166000908152600b602052604090205490565b6000611059838361307f565b60006110598383612146565b600061162d848484612db8565b60009182526021602090815260408084206001600160a01b0393909316845291905290205460ff1690565b600061172f61211d565b611670338385613134565b60248054610fbe90614b78565b611379828261328c565b60006001600160a01b03831630148061177157506001600160a01b038316155b1561178f5760405163d92e233d60e01b815260040160405180910390fd5b61179a338484612438565b50600192915050565b600080600080856020015111156118f65760208501516001546013546040516370a0823160e01b81526118b293926118ad926001600160a01b03918216926370a08231926117f59216906004016141b1565b602060405180830381865afa158015611812573d6000803e3d6000fd5b505050506040513d601f19601f820116820180604052508101906118369190614baf565b600154601354604051636eb1769f60e11b81526001600160a01b039283169263dd62ed3e9261186c929116903090600401614d0e565b602060405180830381865afa158015611889573d6000803e3d6000fd5b505050506040513d601f19601f820116820180604052508101906118ad9190614baf565b61298f565b602086018190526022546013546118da926001600160a01b0392831692909116903090612ae4565b8460200151601060008282546118f09190614be6565b90915550505b60008560200151856119089190614be6565b11801561198a5750600260009054906101000a90046001600160a01b03166001600160a01b0316630952864e6040518163ffffffff1660e01b8152600401602060405180830381865afa158015611963573d6000803e3d6000fd5b505050506040513d601f19601f820116820180604052508101906119879190614baf565b15155b156119ab576119a88560200151856119a29190614be6565b3061307f565b90505b306000908152600b60205260408120546119c6908390614c07565b875190915015611a275786516119e0906118ad8484614be6565b8088526119ed903061328c565b60006119fd88600001518461298f565b9050611a098184614c07565b8851909350611a19908290614c07565b611a239083614c07565b9150505b602087015115611a4c576020870151601354611a4c91906001600160a01b0316613343565b604087015115611a6857611a6887604001518760600151613343565b969095509350505050565b604051636e553f6560e01b81526001600160a01b03831690636e553f6590611aa19084903090600401614d29565b6020604051808303816000875af1158015611ac0573d6000803e3d6000fd5b505050506040513d601f19601f820116820180604052508101906112eb9190614baf565b6000610f6d826001612146565b61137982826133dc565b601954600160a01b900460ff161515600103611b2a57604051630f3c386760e01b815260040160405180910390fd5b6014546001600160a01b031615611b54576040516364b9991160e11b815260040160405180910390fd5b60128190556040517fae565aab888bca5e19e25a13db7b0c9144305bf55cb0f3f4d724f730e5acdd6290611b899083906141c5565b60405180910390a150565b6112eb838383612438565b6001600160a01b0383161580611bbc57506001600160a01b038216155b15611bda5760405163d92e233d60e01b815260040160405180910390fd5b60405163095ea7b360e01b81526001600160a01b0384169063095ea7b390611c089085908590600401614bf9565b6020604051808303816000875af1158015611c27573d6000803e3d6000fd5b505050506040513d601f19601f82011682018060405250810190611c4b9190614d4a565b6112eb5760405162461bcd60e51b815260040161136690614d94565b600080611c7383612a0c565b9050611059816000612311565b600061162d848484613134565b6000610f6d826000612311565b6113798282613343565b6000611caf81612535565b600a54610100900460ff161515600103611cdb5760405162461bcd60e51b815260040161136690614dce565b600080546001600160a01b03199081166001600160a01b038a811691909117909255600280549091169188169190911790556022805460ff60a01b1916600160a01b60ff8781168202929092179283905561010092041610611d505760405163e236476560e01b815260040160405180910390fd5b602280546001600160a01b0319166001600160a01b0387161790556023611d778482614ea0565b506024611d848382614ea0565b5050600a805461ff001916610100179055505050505050565b60006001600160a01b038816611dc65760405163d92e233d60e01b815260040160405180910390fd5b42851015611de7576040516363bef56160e11b815260040160405180910390fd5b6001600160a01b0388166000908152601e60209081526040808320549051909291611e2c91600080516020615385833981519152918d918d918d9188918e9101614f5e565b6040516020818303038152906040528051906020012090506000601f5482604051602001611e5b929190614fad565b604051602081830303815290604052805190602001209050600060018289898960405160008152602001604052604051611e989493929190614fde565b6020604051602081039080840390855afa158015611eba573d6000803e3d6000fd5b5050604051601f1901519150506001600160a01b0381161580611eef57508b6001600160a01b0316816001600160a01b031614155b15611f0d576040516310454c9960e31b815260040160405180910390fd5b611f188c8c8c612279565b506001600160a01b038c166000908152601e60205260408120805491611f3d83614ff9565b91905055508a6001600160a01b03168c6001600160a01b03166000805160206153a58339815191528c604051611f7391906141c5565b60405180910390a360019450505050505b979650505050505050565b611f98826112ba565b611fa181612535565b6112eb83836129a5565b6001600160a01b038084166000908152600c602090815260408083209386168352929052908120548190611fe0908490614c07565b9050611fed858583612279565b50600195945050505050565b600080612007876001612311565b905061128d3287878a8589896121dc565b6000610f37612f36565b6112eb8383836123d6565b6000612037612f36565b9050806000036120445750565b600254604080516316b1934960e11b8152905142926001600160a01b031691632d6326929160048083019260209291908290030181865afa15801561208d573d6000803e3d6000fd5b505050506040513d601f19601f820116820180604052508101906120b19190614baf565b11156120bc5742601d555b6120c6813061328c565b50565b600061162d848484612279565b6112eb8383836134f0565b600981815481106120f157600080fd5b6000918252602090912001546001600160a01b0316905081565b6000600f54601054610f379190614be6565b60026020540361213f5760405162461bcd60e51b815260040161136690615047565b6002602055565b6000600019831480612156575082155b15612162575081610f6d565b600061216c6123bf565b90508060000361217f5783915050610f6d565b600061218961210b565b6121939086614c1a565b905060006121a18383614c4f565b905060018560018111156121b7576121b7615057565b1480156121cc57506121c9838361506d565b15155b15610fa857611334600182614be6565b60006121ea878786866135b8565b6121f586898661365c565b6000806122028785613680565b915091506122158989888a86868b613f08565b876001600160a01b0316896001600160a01b03168b6001600160a01b03167ffbde797d201c681b91056529119e0b02407c7bb96a4a2c75c01fc9667232c8db858a60405161226492919061491d565b60405180910390a45098975050505050505050565b60006001600160a01b038416158061229857506001600160a01b038316155b156122b65760405163d92e233d60e01b815260040160405180910390fd5b6001600160a01b038085166000818152600c602090815260408083209488168084529490915290819020859055516000805160206153a5833981519152906122ff9086906141c5565b60405180910390a35060019392505050565b6000600019831480612321575082155b1561232d575081610f6d565b60006123376123bf565b9050600061234361210b565b90508060000361236a578160000361235f578492505050610f6d565b600092505050610f6d565b60006123768387614c1a565b905060006123848383614c4f565b9050600186600181111561239a5761239a615057565b1480156123af57506123ac838361506d565b15155b1561133457611f84600182614be6565b60006123c9612f36565b600e54610f379190614c07565b6001600160a01b038084166000908152600c60209081526040808320938616835292905220548181101561241d5760405163017e286b60e51b815260040160405180910390fd5b612431848461242c8585614c07565b612279565b5050505050565b6001600160a01b0383166000908152600b6020526040902054818110156124725760405163356680b760e01b815260040160405180910390fd5b6001600160a01b038416158061248f57506001600160a01b038316155b156124ad5760405163d92e233d60e01b815260040160405180910390fd5b6124b78282614c07565b6001600160a01b038086166000908152600b602052604080822093909355908516815220546124e68382614be6565b6001600160a01b038086166000818152600b60205260409081902093909355915190871690600080516020615365833981519152906125269087906141c5565b60405180910390a35050505050565b6120c68133613f94565b61254982826116fa565b6113795760008281526021602090815260408083206001600160a01b03851684529091529020805460ff191660011790556125813390565b6001600160a01b0316816001600160a01b0316837f2f8788117e7eff1d82e926ec794901d17c78024a50270940304540a733656f0d60405160405180910390a45050565b6001600160a01b0383166000908152600b602052604081205481906125ea9082612146565b6015549091506001600160a01b03161561268c57601554604051632319b8cf60e01b81526000916001600160a01b031690632319b8cf90612633908990899089906004016150de565b6020604051808303816000875af1158015612652573d6000803e3d6000fd5b505050506040513d601f19601f820116820180604052508101906126769190614baf565b905081811015612684578091505b509050611059565b6010548082111561298657835181906000908190158015906126b15750600a5460ff16155b61271557600980548060200260200160405190810160405280929190818152602001828054801561270b57602002820191906000526020600020905b81546001600160a01b031681526001909101906020018083116126ed575b5050505050612717565b865b905060005b815181101561297f5760008282815181106127395761273961510b565b6020026020010151905060046000826001600160a01b03166001600160a01b031681526020019081526020016000206000015460000361278c57604051630631bc2160e51b815260040160405180910390fd5b60006127bc61279b878a614c07565b6001600160a01b03841660009081526004602052604090206002015461298f565b905060006127ca8383612bc0565b90506000836001600160a01b03166307a2d13a856001600160a01b031663d905777e306040518263ffffffff1660e01b815260040161280991906141b1565b602060405180830381865afa158015612826573d6000803e3d6000fd5b505050506040513d601f19601f8201168201806040525081019061284a9190614baf565b6040518263ffffffff1660e01b815260040161286691906141c5565b602060405180830381865afa158015612883573d6000803e3d6000fd5b505050506040513d601f19601f820116820180604052508101906128a79190614baf565b90506128b38284614c07565b8110156128de57826128c58284614c1a565b6128cf9190614c4f565b91506128db8282614be6565b92505b826000036128ef575050505061296d565b60008211801561290057506127108d105b15612940576127108d612913858b614be6565b61291d9190614c1a565b6129279190614c4f565b6129318389614be6565b1115612940575050505061297f565b61294a8389614be6565b975089881061295c575050505061297f565b6129668288614be6565b9650505050505b8061297781614ff9565b91505061271c565b5091935050505b50949350505050565b600081831061299e5781611059565b5090919050565b6129af82826116fa565b156113795760008281526021602090815260408083206001600160a01b0385168085529252808320805460ff1916905551339285917ff6391f5c32d9c69d2a47ea670b442974b53935d1edc7fd64eb21e047a839171b9190a45050565b60006001600160a01b038216301480612a2c57506001600160a01b038216155b15612a3957506000919050565b6014546001600160a01b03168015612ab857604051632355178960e11b81526001600160a01b038216906346aa2f1290612a779086906004016141b1565b602060405180830381865afa158015612a94573d6000803e3d6000fd5b505050506040513d601f19601f820116820180604052508101906110599190614baf565b6000612ac261210b565b601254909150808210612ada57506000949350505050565b610fa88282614c07565b6001600160a01b0384161580612b0157506001600160a01b038316155b80612b1357506001600160a01b038216155b15612b315760405163d92e233d60e01b815260040160405180910390fd5b6040516323b872dd60e01b81526001600160a01b038516906323b872dd90612b6190869086908690600401615121565b6020604051808303816000875af1158015612b80573d6000803e3d6000fd5b505050506040513d601f19601f82011682018060405250810190612ba49190614d4a565b6115855760405162461bcd60e51b81526004016113669061516f565b600080546040516339ebf82360e01b815282916001600160a01b0316906339ebf82390612bf19087906004016141b1565b608060405180830381865afa158015612c0e573d6000803e3d6000fd5b505050506040513d601f19601f82011682018060405250810190612c329190614cb6565b50925050506000846001600160a01b03166370a08231306040518263ffffffff1660e01b8152600401612c6591906141b1565b602060405180830381865afa158015612c82573d6000803e3d6000fd5b505050506040513d601f19601f82011682018060405250810190612ca69190614baf565b90506000856001600160a01b03166307a2d13a836040518263ffffffff1660e01b8152600401612cd691906141c5565b602060405180830381865afa158015612cf3573d6000803e3d6000fd5b505050506040513d601f19601f82011682018060405250810190612d179190614baf565b90508281101580612d26575082155b15612d375760009350505050610f6d565b6000612d438287614c1a565b90506000612d518583614c4f565b612d5b9088614c07565b9050612d67858361506d565b15611f8457612d77600182614be6565b98975050505050505050565b6001600160a01b038084166000908152600c602090815260408083209386168352929052908120548190611fe0908490614be6565b601954600090600160a01b900460ff161515600103612dea57604051630f3c386760e01b815260040160405180910390fd5b612df383612a0c565b821115612e13576040516325d16c5160e01b815260040160405180910390fd5b60008211612e3457604051637c946ed760e01b815260040160405180910390fd5b6022546040516323b872dd60e01b81526001600160a01b03909116906323b872dd90612e6890329030908790600401615121565b6020604051808303816000875af1158015612e87573d6000803e3d6000fd5b505050506040513d601f19601f82011682018060405250810190612eab9190614d4a565b508160106000828254612ebe9190614be6565b9091555060009050612ed0838561307f565b905060008111612ef357604051637c946ed760e01b815260040160405180910390fd5b836001600160a01b0316856001600160a01b03166000805160206153c58339815191528584604051612f2692919061491d565b60405180910390a3949350505050565b600080600260009054906101000a90046001600160a01b03166001600160a01b0316632d6326926040518163ffffffff1660e01b8152600401602060405180830381865afa158015612f8c573d6000803e3d6000fd5b505050506040513d601f19601f82011682018060405250810190612fb09190614baf565b90506000428211156130625764e8d4a51000601d5442612fd09190614c07565b600260009054906101000a90046001600160a01b03166001600160a01b0316635141eebb6040518163ffffffff1660e01b8152600401602060405180830381865afa158015613023573d6000803e3d6000fd5b505050506040513d601f19601f820116820180604052508101906130479190614baf565b6130519190614c1a565b61305b9190614c4f565b9050610f6d565b8115610f6d5750306000908152600b602052604090205492915050565b60006001600160a01b0382166130a85760405163d92e233d60e01b815260040160405180910390fd5b60006130b26123bf565b905060006130be61210b565b90506000826000036130d1575084613116565b858211156130fe576130e38683614c07565b6130ed8488614c1a565b6130f79190614c4f565b9050613116565b60405162461bcd60e51b8152600401611366906151a5565b8060000361312a5760009350505050610f6d565b610fa88186613343565b601954600090600160a01b900460ff16151560010361316657604051630f3c386760e01b815260040160405180910390fd5b6000613173836001612146565b90506000811161319657604051637c946ed760e01b815260040160405180910390fd5b61319f84612a0c565b8111156131bf576040516325d16c5160e01b815260040160405180910390fd5b6022546040516323b872dd60e01b81526001600160a01b03909116906323b872dd906131f390889030908690600401615121565b6020604051808303816000875af1158015613212573d6000803e3d6000fd5b505050506040513d601f19601f820116820180604052508101906132369190614d4a565b5080601060008282546132499190614be6565b9091555061325990508385613343565b836001600160a01b0316856001600160a01b03166000805160206153c58339815191528386604051612f2692919061491d565b6001600160a01b0381166000908152600b60205260409020548211156132c557604051633999656760e01b815260040160405180910390fd5b6001600160a01b0381166000908152600b6020526040812080548492906132ed908490614c07565b9250508190555081600e60008282546133069190614c07565b90915550506040516000906001600160a01b03831690600080516020615365833981519152906133379086906141c5565b60405180910390a35050565b6001600160a01b03811661336a5760405163d92e233d60e01b815260040160405180910390fd5b6001600160a01b0381166000908152600b602052604081208054849290613392908490614be6565b9250508190555081600e60008282546133ab9190614be6565b90915550506040516001600160a01b03821690600090600080516020615365833981519152906133379086906141c5565b600061347a836001600160a01b0316630a28a477846040518263ffffffff1660e01b815260040161340d91906141c5565b602060405180830381865afa15801561342a573d6000803e3d6000fd5b505050506040513d601f19601f8201168201806040525081019061344e9190614baf565b6040516370a0823160e01b81526001600160a01b038616906370a082319061186c9030906004016141b1565b604051635d043b2960e11b81529091506001600160a01b0384169063ba087652906134ad908490309081906004016151b5565b6020604051808303816000875af11580156134cc573d6000803e3d6000fd5b505050506040513d601f19601f820116820180604052508101906115859190614baf565b6001600160a01b038316158061350d57506001600160a01b038216155b1561352b5760405163d92e233d60e01b815260040160405180910390fd5b60405163a9059cbb60e01b81526001600160a01b0384169063a9059cbb906135599085908590600401614bf9565b6020604051808303816000875af1158015613578573d6000803e3d6000fd5b505050506040513d601f19601f8201168201806040525081019061359c9190614d4a565b6112eb5760405162461bcd60e51b81526004016113669061516f565b6001600160a01b0384166135df5760405163d92e233d60e01b815260040160405180910390fd5b61271081111561360257604051631a7ed0a160e31b815260040160405180910390fd5b6000821161362357604051637c946ed760e01b815260040160405180910390fd5b6001600160a01b0383166000908152600b602052604090205482111561158557604051633999656760e01b815260040160405180910390fd5b826001600160a01b0316826001600160a01b0316146112eb576112eb8383836123d6565b60008060006040518060c001604052808681526020016010548152602001600f54815260200160008152602001602260009054906101000a90046001600160a01b03166001600160a01b03166370a08231306040518263ffffffff1660e01b81526004016136ee91906141b1565b602060405180830381865afa15801561370b573d6000803e3d6000fd5b505050506040513d601f19601f8201168201806040525081019061372f9190614baf565b8152600060209182015281015181519192501015613ef5576060600085516000141580156137cf575060008054906101000a90046001600160a01b03166001600160a01b031663bbe4eb496040518163ffffffff1660e01b8152600401602060405180830381865afa1580156137a9573d6000803e3d6000fd5b505050506040513d601f19601f820116820180604052508101906137cd9190614d4a565b155b156137df5750508351849061384f565b60008054604080516329f3cef560e01b815290516001600160a01b03909216926329f3cef5926004808401938290030181865afa158015613824573d6000803e3d6000fd5b505050506040513d6000823e601f3d908101601f1916820160405261384c919081019061525d565b91505b602083015183516138609190614c07565b606084015260005b8251811015613ec35760008382815181106138855761388561510b565b6020908102919091010151600080546040516339ebf82360e01b815292935090916001600160a01b03909116906339ebf823906138c69085906004016141b1565b608060405180830381865afa1580156138e3573d6000803e3d6000fd5b505050506040513d601f19601f820116820180604052508101906139079190614cb6565b50505090508060000361392d57604051630631bc2160e51b815260040160405180910390fd5b600080546040516339ebf82360e01b81526001600160a01b03909116906339ebf8239061395e9086906004016141b1565b608060405180830381865afa15801561397b573d6000803e3d6000fd5b505050506040513d601f19601f8201168201806040525081019061399f9190614cb6565b509250505060006139b488606001518361298f565b90506000846001600160a01b03166307a2d13a866001600160a01b031663d905777e306040518263ffffffff1660e01b81526004016139f391906141b1565b602060405180830381865afa158015613a10573d6000803e3d6000fd5b505050506040513d601f19601f82011682018060405250810190613a349190614baf565b6040518263ffffffff1660e01b8152600401613a5091906141c5565b602060405180830381865afa158015613a6d573d6000803e3d6000fd5b505050506040513d601f19601f82011682018060405250810190613a919190614baf565b90506000613a9f8684612bc0565b90508015613bf157613ab18184614c07565b821015613aeb576000613ac48285614c07565b905080613ad18484614c1a565b613adb9190614c4f565b9150613ae78284614be6565b9350505b613af58184614c07565b9250808a600001818151613b099190614c07565b90525060608a018051829190613b20908390614c07565b90525060408a018051829190613b37908390614c07565b90525081158015613b485750600081115b15613bf1576000613b598286614c07565b600054604051631bb212a560e11b81529192506001600160a01b031690633764254a90613b8c908a908590600401614bf9565b600060405180830381600087803b158015613ba657600080fd5b505af1158015613bba573d6000803e3d6000fd5b50505050866001600160a01b03166000805160206153e58339815191528683604051613be792919061491d565b60405180910390a2505b613bfb838361298f565b925082600003613c1057505050505050613eb1565b613c1a86846133dc565b6022546040516370a0823160e01b81526000916001600160a01b0316906370a0823190613c4b9030906004016141b1565b602060405180830381865afa158015613c68573d6000803e3d6000fd5b505050506040513d601f19601f82011682018060405250810190613c8c9190614baf565b905060008b6080015182613ca09190614c07565b9050600085821115613cd75786821115613cbc57869550613cec565b613cc68683614c07565b613cd09087614be6565b9550613cec565b85821015613cec57613ce98287614c07565b90505b600081878f60200151613cff9190614be6565b613d099190614c07565b11613d1a57600060208e0152613d39565b613d248187614c07565b8d602001818151613d359190614be6565b9052505b8c51600090613d49908390614c07565b11613d575760008d52613d6d565b808d600001818151613d699190614c07565b9052505b6000868e60400151613d7f9190614c07565b11613d9057600060408e0152613da6565b858d604001818151613da29190614c07565b9052505b6000613db28588614be6565b881015613dc157506000613dd8565b613dcb8588614be6565b613dd59089614c07565b90505b600054604051631bb212a560e11b81526001600160a01b0390911690633764254a90613e0a908d908590600401614bf9565b600060405180830381600087803b158015613e2457600080fd5b505af1158015613e38573d6000803e3d6000fd5b50505050896001600160a01b03166000805160206153e58339815191528983604051613e6592919061491d565b60405180910390a260208e01518e5111613e885750505050505050505050613ec3565b60808e0184905260608e018051889190613ea3908390614c07565b905250505050505050505050505b80613ebb81614ff9565b915050613868565b50825160208401511015613eea576040516396d8043360e01b815260040160405180910390fd5b50506040810151600f555b8051602090910151909590945092505050565b8284118015613f18575061271081105b15613f5d57612710613f2a8286614c1a565b613f349190614c4f565b613f3e8486614c07565b1115613f5d576040516307f65e3960e11b815260040160405180910390fd5b613f67858761328c565b613f718383614c07565b601055602254613f8b906001600160a01b031688856134f0565b50505050505050565b613f9e82826116fa565b61137957613fab81613fed565b613fb6836020613fff565b604051602001613fc79291906152b9565b60408051601f198184030181529082905262461bcd60e51b82526113669160040161444b565b6060610f6d6001600160a01b03831660145b6060600061400e836002614c1a565b614019906002614be6565b6001600160401b038111156140305761403061425b565b6040519080825280601f01601f19166020018201604052801561405a576020820181803683370190505b509050600360fc1b816000815181106140755761407561510b565b60200101906001600160f81b031916908160001a905350600f60fb1b816001815181106140a4576140a461510b565b60200101906001600160f81b031916908160001a90535060006140c8846002614c1a565b6140d3906001614be6565b90505b600181111561414b576f181899199a1a9b1b9c1cb0b131b232b360811b85600f16601081106141075761410761510b565b1a60f81b82828151811061411d5761411d61510b565b60200101906001600160f81b031916908160001a90535060049490941c936141448161530b565b90506140d6565b5083156110595760405162461bcd60e51b815260040161136690615354565b60405180606001604052806000815260200160008152602001600081525090565b6001600160a01b031690565b6000610f6d8261418b565b6141ab81614197565b82525050565b60208101610f6d82846141a2565b806141ab565b60208101610f6d82846141bf565b6001600160e01b031981165b81146120c657600080fd5b8035610f6d816141d3565b60006020828403121561420a5761420a600080fd5b600061162d84846141ea565b8015156141ab565b60208101610f6d8284614216565b806141df565b8035610f6d8161422c565b6141df81614197565b8035610f6d8161423d565b601f01601f191690565b634e487b7160e01b600052604160045260246000fd5b61427a82614251565b81018181106001600160401b03821117156142975761429761425b565b6040525050565b60006142a960405190565b90506142b58282614271565b919050565b60006001600160401b038211156142d3576142d361425b565b5060209081020190565b60006142f06142eb846142ba565b61429e565b8381529050602080820190840283018581111561430f5761430f600080fd5b835b8181101561433357806143248882614246565b84525060209283019201614311565b5050509392505050565b600082601f83011261435157614351600080fd5b813561162d8482602086016142dd565b600080600080600060a0868803121561437c5761437c600080fd5b60006143888888614232565b955050602061439988828901614246565b94505060406143aa88828901614246565b93505060606143bb88828901614232565b92505060808601356001600160401b038111156143da576143da600080fd5b6143e68882890161433d565b9150509295509295909350565b60005b8381101561440e5781810151838201526020016143f6565b50506000910152565b6000614421825190565b8084526020840193506144388185602086016143f3565b61444181614251565b9093019392505050565b602080825281016110598184614417565b60006020828403121561447157614471600080fd5b600061162d8484614232565b6000806040838503121561449357614493600080fd5b600061449f8585614246565b92505060206144b085828601614232565b9150509250929050565b600080600080600060a086880312156144d5576144d5600080fd5b60006144e18888614232565b95505060206144f288828901614232565b945050604061450388828901614232565b935050606061451488828901614232565b92505060806143e688828901614246565b8051606083019061453684826141bf565b50602082015161454960208501826141bf565b50604082015161158560408501826141bf565b60608101610f6d8284614525565b60008060006060848603121561458257614582600080fd5b600061458e8686614246565b935050602061459f86828701614246565b92505060406145b086828701614232565b9150509250925092565b60ff81166141ab565b60208101610f6d82846145ba565b600080604083850312156145e7576145e7600080fd5b60006145f38585614232565b92505060206144b085828601614246565b60008060006060848603121561461c5761461c600080fd5b60006146288686614246565b935050602061463986828701614232565b92505060408401356001600160401b0381111561465857614658600080fd5b6145b08682870161433d565b60006020828403121561467957614679600080fd5b600061162d8484614246565b6080810161469382876141bf565b6146a060208301866141bf565b6146ad60408301856141bf565b610fa860608301846141bf565b600080604083850312156146d0576146d0600080fd5b600061449f8585614232565b600080600080608085870312156146f5576146f5600080fd5b60006147018787614246565b945050602061471287828801614246565b935050604061472387828801614246565b925050606061473487828801614232565b91505092959194509250565b6000610f6d6147546147518461418b565b90565b61418b565b6000610f6d82614740565b6000610f6d82614759565b6141ab81614764565b60208101610f6d828461476f565b600281106120c657600080fd5b8035610f6d81614786565b600080604083850312156147b4576147b4600080fd5b60006147c08585614232565b92505060206144b085828601614793565b608081016147df82876141bf565b6147ec60208301866141bf565b6147f960408301856141bf565b610fa860608301846141a2565b60006060828403121561481b5761481b600080fd5b614825606061429e565b905060006148338484614232565b825250602061484484848301614232565b602083015250604061485884828501614232565b60408301525092915050565b60006080828403121561487957614879600080fd5b614883608061429e565b905060006148918484614232565b82525060206148a284848301614232565b60208301525060406148b684828501614232565b60408301525060606148ca84828501614246565b60608301525092915050565b600080600061010084860312156148ef576148ef600080fd5b60006148fb8686614806565b935050606061490c86828701614864565b92505060e06145b086828701614232565b6040810161492b82856141bf565b61105960208301846141bf565b60ff81166141df565b8035610f6d81614938565b60006001600160401b038211156149655761496561425b565b61496e82614251565b60200192915050565b82818337506000910152565b60006149916142eb8461494c565b9050828152602081018484840111156149ac576149ac600080fd5b6149b7848285614977565b509392505050565b600082601f8301126149d3576149d3600080fd5b813561162d848260208601614983565b60008060008060008060c087890312156149ff576149ff600080fd5b6000614a0b8989614246565b9650506020614a1c89828a01614246565b9550506040614a2d89828a01614246565b9450506060614a3e89828a01614941565b93505060808701356001600160401b03811115614a5d57614a5d600080fd5b614a6989828a016149bf565b92505060a08701356001600160401b03811115614a8857614a88600080fd5b614a9489828a016149bf565b9150509295509295509295565b600080600080600080600060e0888a031215614abf57614abf600080fd5b6000614acb8a8a614246565b9750506020614adc8a828b01614246565b9650506040614aed8a828b01614232565b9550506060614afe8a828b01614232565b9450506080614b0f8a828b01614941565b93505060a0614b208a828b01614232565b92505060c0614b318a828b01614232565b91505092959891949750929550565b60008060408385031215614b5657614b56600080fd5b60006145f38585614246565b634e487b7160e01b600052602260045260246000fd5b600281046001821680614b8c57607f821691505b602082108103614b9e57614b9e614b62565b50919050565b8051610f6d8161422c565b600060208284031215614bc457614bc4600080fd5b600061162d8484614ba4565b634e487b7160e01b600052601160045260246000fd5b80820180821115610f6d57610f6d614bd0565b6040810161492b82856141a2565b81810381811115610f6d57610f6d614bd0565b6000816000190483118215151615614c3457614c34614bd0565b500290565b634e487b7160e01b600052601260045260246000fd5b600082614c5e57614c5e614c39565b500490565b60208082528101610f6d81602f81527f416363657373436f6e74726f6c3a2063616e206f6e6c792072656e6f756e636560208201526e103937b632b9903337b91039b2b63360891b604082015260600190565b60008060008060808587031215614ccf57614ccf600080fd5b6000614cdb8787614ba4565b9450506020614cec87828801614ba4565b9350506040614cfd87828801614ba4565b925050606061473487828801614ba4565b60408101614d1c82856141a2565b61105960208301846141a2565b60408101614d1c82856141bf565b8015156141df565b8051610f6d81614d37565b600060208284031215614d5f57614d5f600080fd5b600061162d8484614d3f565b600f81526000602082016e185c1c1c9bdd985b0819985a5b1959608a1b815291505b5060200190565b60208082528101610f6d81614d6b565b6013815260006020820172185b1c9958591e481a5b9a5d1a585b1a5e9959606a1b81529150614d8d565b60208082528101610f6d81614da4565b6000610f6d6147518381565b614df383614dde565b81546008840282811b60001990911b908116901990911617825550505050565b60006112eb818484614dea565b8181101561137957614e33600082614e13565b600101614e20565b601f8211156112eb576000818152602090206020601f85010481016020851015614e625750805b6124316020601f860104830182614e20565b6000196008929092029190911c191690565b6000614e928383614e74565b600290930290921792915050565b81516001600160401b03811115614eb957614eb961425b565b614ec38254614b78565b614ece828285614e3b565b6020601f831160018114614efc5760008415614eea5750858201515b614ef48582614e86565b865550614f56565b600085815260208120601f198616915b82811015614f2c5788850151825560209485019460019092019101614f0c565b86831015614f495784890151614f45601f891682614e74565b8355505b6001600288020188555050505b505050505050565b60c08101614f6c82896141bf565b614f7960208301886141a2565b614f8660408301876141a2565b614f9360608301866141bf565b614fa060808301856141bf565b611f8460a08301846141bf565b61190160f01b81526002016000614fc482856141bf565b602082019150614fd482846141bf565b5060200192915050565b60808101614fec82876141bf565b6146a060208301866145ba565b6000600019820361500c5761500c614bd0565b5060010190565b601f81526000602082017f5265656e7472616e637947756172643a207265656e7472616e742063616c6c0081529150614d8d565b60208082528101610f6d81615013565b634e487b7160e01b600052602160045260246000fd5b60008261507c5761507c614c39565b500690565b600061508d83836141a2565b505060200190565b600061509f825190565b80845260209384019383018060005b838110156150d35781516150c28882615081565b9750602083019250506001016150ae565b509495945050505050565b606081016150ec82866141a2565b6150f960208301856141bf565b8181036040830152610fa88184615095565b634e487b7160e01b600052603260045260246000fd5b6060810161512f82866141a2565b61513c60208301856141a2565b61162d60408301846141bf565b600f81526000602082016e1d1c985b9cd9995c8819985a5b1959608a1b81529150614d8d565b60208082528101610f6d81615149565b600f81526000602082016e0c2dadeeadce840e8dede40d0d2ced608b1b81529150614d8d565b60208082528101610f6d8161517f565b606081016151c382866141bf565b6151d060208301856141a2565b61162d60408301846141a2565b8051610f6d8161423d565b60006151f66142eb846142ba565b8381529050602080820190840283018581111561521557615215600080fd5b835b81811015614333578061522a88826151dd565b84525060209283019201615217565b600082601f83011261524d5761524d600080fd5b815161162d8482602086016151e8565b60006020828403121561527257615272600080fd5b81516001600160401b0381111561528b5761528b600080fd5b61162d84828501615239565b60006152a1825190565b6152af8185602086016143f3565b9290920192915050565b76020b1b1b2b9b9a1b7b73a3937b61d1030b1b1b7bab73a1604d1b815260170160006152e58285615297565b7001034b99036b4b9b9b4b733903937b6329607d1b8152601101915061162d8284615297565b60008161531a5761531a614bd0565b506000190190565b60208082527f537472696e67733a20686578206c656e67746820696e73756666696369656e7491019081526000614d8d565b60208082528101610f6d8161532256feddf252ad1be2c89b69c2b068fc378daa952ba7f163c4a11628f55a4df523b3ef6e71edae12b1b97f4d1f60370fef10105fa2faae0126114a169c64845d6126c98c5be1e5ebec7d5bd14f71427d1e84f3dd0314c0f7b2291e5b200ac8c7c3b925dcbc1c05240f31ff3ad067ef1ee35ce4997762752e3a095284754544f4c709d75e2b8821ad6e0e26207e0cb4d242d07eeb1cbb1cfd853e645bdcd27cc5484f95a264697066735822122089eb05477dc5c4edda72a3ce10c4b719edaeca0e1fbb9e182e13ecb322d6c72464736f6c63430008100033",
  "devdoc": {
    "kind": "dev",
    "methods": {
      "allowance(address,address)": {
        "details": "Returns the remaining number of tokens that `spender` will be allowed to spend on behalf of `owner` through {transferFrom}. This is zero by default. This value changes when {approve} or {transferFrom} are called."
      },
      "approve(address,uint256)": {
        "details": "Sets `amount` as the allowance of `spender` over the caller's tokens. Returns a boolean value indicating whether the operation succeeded. IMPORTANT: Beware that changing an allowance with this method brings the risk that someone may use both the old and the new allowance by unfortunate transaction ordering. One possible solution to mitigate this race condition is to first reduce the spender's allowance to 0 and set the desired value afterwards: https://github.com/ethereum/EIPs/issues/20#issuecomment-263524729 Emits an {Approval} event."
      },
      "asset()": {
        "details": "Returns the address of the underlying token used for the Vault for accounting, depositing, and withdrawing. - MUST be an ERC-20 token contract. - MUST NOT revert."
      },
      "convertToAssets(uint256)": {
        "details": "Returns the amount of assets that the Vault would exchange for the amount of shares provided, in an ideal scenario where all the conditions are met. - MUST NOT be inclusive of any fees that are charged against assets in the Vault. - MUST NOT show any variations depending on the caller. - MUST NOT reflect slippage or other on-chain conditions, when performing the actual exchange. - MUST NOT revert. NOTE: This calculation MAY NOT reflect the per-user price-per-share, and instead should reflect the average-users price-per-share, meaning what the average user should expect to see when exchanging to and from."
      },
      "convertToShares(uint256)": {
        "details": "Returns the amount of shares that the Vault would exchange for the amount of assets provided, in an ideal scenario where all the conditions are met. - MUST NOT be inclusive of any fees that are charged against assets in the Vault. - MUST NOT show any variations depending on the caller. - MUST NOT reflect slippage or other on-chain conditions, when performing the actual exchange. - MUST NOT revert. NOTE: This calculation MAY NOT reflect the per-user price-per-share, and instead should reflect the average-users price-per-share, meaning what the average user should expect to see when exchanging to and from."
      },
      "decimals()": {
        "details": "Returns the decimals places of the token."
      },
      "deposit(uint256,address)": {
        "details": "Mints shares Vault shares to receiver by depositing exactly amount of underlying tokens. - MUST emit the Deposit event. - MAY support an additional flow in which the underlying tokens are owned by the Vault contract before the   deposit execution, and are accounted for during deposit. - MUST revert if all of assets cannot be deposited (due to deposit limit being reached, slippage, the user not   approving enough underlying tokens to the Vault contract, etc). NOTE: most implementations will require pre-approval of the Vault with the Vaults underlying asset token."
      },
      "getRoleAdmin(bytes32)": {
        "details": "Returns the admin role that controls `role`. See {grantRole} and {revokeRole}. To change a role's admin, use {_setRoleAdmin}."
      },
      "grantRole(bytes32,address)": {
        "details": "Grants `role` to `account`. If `account` had not been already granted `role`, emits a {RoleGranted} event. Requirements: - the caller must have ``role``'s admin role. May emit a {RoleGranted} event."
      },
      "hasRole(bytes32,address)": {
        "details": "Returns `true` if `account` has been granted `role`."
      },
      "maxDeposit(address)": {
        "details": "Returns the maximum amount of the underlying asset that can be deposited into the Vault for the receiver, through a deposit call. - MUST return a limited value if receiver is subject to some deposit limit. - MUST return 2 ** 256 - 1 if there is no limit on the maximum amount of assets that may be deposited. - MUST NOT revert."
      },
      "maxMint(address)": {
        "details": "Returns the maximum amount of the Vault shares that can be minted for the receiver, through a mint call. - MUST return a limited value if receiver is subject to some mint limit. - MUST return 2 ** 256 - 1 if there is no limit on the maximum amount of shares that may be minted. - MUST NOT revert."
      },
      "mint(uint256,address)": {
        "details": "Mints exactly shares Vault shares to receiver by depositing amount of underlying tokens. - MUST emit the Deposit event. - MAY support an additional flow in which the underlying tokens are owned by the Vault contract before the mint   execution, and are accounted for during mint. - MUST revert if all of shares cannot be minted (due to deposit limit being reached, slippage, the user not   approving enough underlying tokens to the Vault contract, etc). NOTE: most implementations will require pre-approval of the Vault with the Vaults underlying asset token."
      },
      "previewDeposit(uint256)": {
        "details": "Allows an on-chain or off-chain user to simulate the effects of their deposit at the current block, given current on-chain conditions. - MUST return as close to and no more than the exact amount of Vault shares that would be minted in a deposit   call in the same transaction. I.e. deposit should return the same or more shares as previewDeposit if called   in the same transaction. - MUST NOT account for deposit limits like those returned from maxDeposit and should always act as though the   deposit would be accepted, regardless if the user has enough tokens approved, etc. - MUST be inclusive of deposit fees. Integrators should be aware of the existence of deposit fees. - MUST NOT revert. NOTE: any unfavorable discrepancy between convertToShares and previewDeposit SHOULD be considered slippage in share price or some other type of condition, meaning the depositor will lose assets by depositing."
      },
      "previewMint(uint256)": {
        "details": "Allows an on-chain or off-chain user to simulate the effects of their mint at the current block, given current on-chain conditions. - MUST return as close to and no fewer than the exact amount of assets that would be deposited in a mint call   in the same transaction. I.e. mint should return the same or fewer assets as previewMint if called in the   same transaction. - MUST NOT account for mint limits like those returned from maxMint and should always act as though the mint   would be accepted, regardless if the user has enough tokens approved, etc. - MUST be inclusive of deposit fees. Integrators should be aware of the existence of deposit fees. - MUST NOT revert. NOTE: any unfavorable discrepancy between convertToAssets and previewMint SHOULD be considered slippage in share price or some other type of condition, meaning the depositor will lose assets by minting."
      },
      "previewRedeem(uint256)": {
        "details": "Allows an on-chain or off-chain user to simulate the effects of their redeemption at the current block, given current on-chain conditions. - MUST return as close to and no more than the exact amount of assets that would be withdrawn in a redeem call   in the same transaction. I.e. redeem should return the same or more assets as previewRedeem if called in the   same transaction. - MUST NOT account for redemption limits like those returned from maxRedeem and should always act as though the   redemption would be accepted, regardless if the user has enough shares, etc. - MUST be inclusive of withdrawal fees. Integrators should be aware of the existence of withdrawal fees. - MUST NOT revert. NOTE: any unfavorable discrepancy between convertToAssets and previewRedeem SHOULD be considered slippage in share price or some other type of condition, meaning the depositor will lose assets by redeeming."
      },
      "previewWithdraw(uint256)": {
        "details": "Allows an on-chain or off-chain user to simulate the effects of their withdrawal at the current block, given current on-chain conditions. - MUST return as close to and no fewer than the exact amount of Vault shares that would be burned in a withdraw   call in the same transaction. I.e. withdraw should return the same or fewer shares as previewWithdraw if   called   in the same transaction. - MUST NOT account for withdrawal limits like those returned from maxWithdraw and should always act as though   the withdrawal would be accepted, regardless if the user has enough shares, etc. - MUST be inclusive of withdrawal fees. Integrators should be aware of the existence of withdrawal fees. - MUST NOT revert. NOTE: any unfavorable discrepancy between convertToShares and previewWithdraw SHOULD be considered slippage in share price or some other type of condition, meaning the depositor will lose assets by depositing."
      },
      "renounceRole(bytes32,address)": {
        "details": "Revokes `role` from the calling account. Roles are often managed via {grantRole} and {revokeRole}: this function's purpose is to provide a mechanism for accounts to lose their privileges if they are compromised (such as when a trusted device is misplaced). If the calling account had been revoked `role`, emits a {RoleRevoked} event. Requirements: - the caller must be `account`. May emit a {RoleRevoked} event."
      },
      "revokeRole(bytes32,address)": {
        "details": "Revokes `role` from `account`. If `account` had been granted `role`, emits a {RoleRevoked} event. Requirements: - the caller must have ``role``'s admin role. May emit a {RoleRevoked} event."
      },
      "supportsInterface(bytes4)": {
        "details": "See {IERC165-supportsInterface}."
      },
      "totalAssets()": {
        "details": "Returns the total amount of the underlying asset that is managed by Vault. - SHOULD include any compounding that occurs from yield. - MUST be inclusive of any fees that are charged against assets in the Vault. - MUST NOT revert."
      },
      "totalSupply()": {
        "details": "Returns the amount of tokens in existence."
      }
    },
    "stateVariables": {
      "name": {
        "details": "Returns the name of the token."
      },
      "symbol": {
        "details": "Returns the symbol of the token."
      }
    },
    "title": "STRATEGY MANAGEMENT",
    "version": 1
  },
  "userdoc": {
    "kind": "user",
    "methods": {},
    "version": 1
  },
  "storageLayout": {
    "storage": [
      {
        "astId": 7971,
        "contract": "contracts/Packages/SharesManagerPackage.sol:SharesManagerPackage",
        "label": "strategyManager",
        "offset": 0,
        "slot": "0",
        "type": "t_address"
      },
      {
        "astId": 7973,
        "contract": "contracts/Packages/SharesManagerPackage.sol:SharesManagerPackage",
        "label": "sharesManager",
        "offset": 0,
        "slot": "1",
        "type": "t_address"
      },
      {
        "astId": 7975,
        "contract": "contracts/Packages/SharesManagerPackage.sol:SharesManagerPackage",
        "label": "setters",
        "offset": 0,
        "slot": "2",
        "type": "t_address"
      },
      {
        "astId": 7977,
        "contract": "contracts/Packages/SharesManagerPackage.sol:SharesManagerPackage",
        "label": "governance",
        "offset": 0,
        "slot": "3",
        "type": "t_address"
      },
      {
        "astId": 7982,
        "contract": "contracts/Packages/SharesManagerPackage.sol:SharesManagerPackage",
        "label": "strategies",
        "offset": 0,
        "slot": "4",
        "type": "t_mapping(t_address,t_struct(StrategyParams)8147_storage)"
      },
      {
        "astId": 7985,
        "contract": "contracts/Packages/SharesManagerPackage.sol:SharesManagerPackage",
        "label": "fees",
        "offset": 0,
        "slot": "5",
        "type": "t_struct(FeeAssessment)8156_storage"
      },
      {
        "astId": 7988,
        "contract": "contracts/Packages/SharesManagerPackage.sol:SharesManagerPackage",
        "label": "defaultQueue",
        "offset": 0,
        "slot": "9",
        "type": "t_array(t_address)dyn_storage"
      },
      {
        "astId": 7990,
        "contract": "contracts/Packages/SharesManagerPackage.sol:SharesManagerPackage",
        "label": "useDefaultQueue",
        "offset": 0,
        "slot": "10",
        "type": "t_bool"
      },
      {
        "astId": 7992,
        "contract": "contracts/Packages/SharesManagerPackage.sol:SharesManagerPackage",
        "label": "initialized",
        "offset": 1,
        "slot": "10",
        "type": "t_bool"
      },
      {
        "astId": 7996,
        "contract": "contracts/Packages/SharesManagerPackage.sol:SharesManagerPackage",
        "label": "_balanceOf",
        "offset": 0,
        "slot": "11",
        "type": "t_mapping(t_address,t_uint256)"
      },
      {
        "astId": 8002,
        "contract": "contracts/Packages/SharesManagerPackage.sol:SharesManagerPackage",
        "label": "_allowance",
        "offset": 0,
        "slot": "12",
        "type": "t_mapping(t_address,t_mapping(t_address,t_uint256))"
      },
      {
        "astId": 8006,
        "contract": "contracts/Packages/SharesManagerPackage.sol:SharesManagerPackage",
        "label": "implementations",
        "offset": 0,
        "slot": "13",
        "type": "t_mapping(t_bytes4,t_address)"
      },
      {
        "astId": 8008,
        "contract": "contracts/Packages/SharesManagerPackage.sol:SharesManagerPackage",
        "label": "totalSupplyAmount",
        "offset": 0,
        "slot": "14",
        "type": "t_uint256"
      },
      {
        "astId": 8010,
        "contract": "contracts/Packages/SharesManagerPackage.sol:SharesManagerPackage",
        "label": "totalDebtAmount",
        "offset": 0,
        "slot": "15",
        "type": "t_uint256"
      },
      {
        "astId": 8012,
        "contract": "contracts/Packages/SharesManagerPackage.sol:SharesManagerPackage",
        "label": "totalIdleAmount",
        "offset": 0,
        "slot": "16",
        "type": "t_uint256"
      },
      {
        "astId": 8014,
        "contract": "contracts/Packages/SharesManagerPackage.sol:SharesManagerPackage",
        "label": "minimumTotalIdle",
        "offset": 0,
        "slot": "17",
        "type": "t_uint256"
      },
      {
        "astId": 8016,
        "contract": "contracts/Packages/SharesManagerPackage.sol:SharesManagerPackage",
        "label": "depositLimit",
        "offset": 0,
        "slot": "18",
        "type": "t_uint256"
      },
      {
        "astId": 8018,
        "contract": "contracts/Packages/SharesManagerPackage.sol:SharesManagerPackage",
        "label": "accountant",
        "offset": 0,
        "slot": "19",
        "type": "t_address"
      },
      {
        "astId": 8020,
        "contract": "contracts/Packages/SharesManagerPackage.sol:SharesManagerPackage",
        "label": "depositLimitModule",
        "offset": 0,
        "slot": "20",
        "type": "t_address"
      },
      {
        "astId": 8022,
        "contract": "contracts/Packages/SharesManagerPackage.sol:SharesManagerPackage",
        "label": "withdrawLimitModule",
        "offset": 0,
        "slot": "21",
        "type": "t_address"
      },
      {
        "astId": 8026,
        "contract": "contracts/Packages/SharesManagerPackage.sol:SharesManagerPackage",
        "label": "roles",
        "offset": 0,
        "slot": "22",
        "type": "t_mapping(t_address,t_bytes32)"
      },
      {
        "astId": 8030,
        "contract": "contracts/Packages/SharesManagerPackage.sol:SharesManagerPackage",
        "label": "openRoles",
        "offset": 0,
        "slot": "23",
        "type": "t_mapping(t_bytes32,t_bool)"
      },
      {
        "astId": 8032,
        "contract": "contracts/Packages/SharesManagerPackage.sol:SharesManagerPackage",
        "label": "roleManager",
        "offset": 0,
        "slot": "24",
        "type": "t_address"
      },
      {
        "astId": 8034,
        "contract": "contracts/Packages/SharesManagerPackage.sol:SharesManagerPackage",
        "label": "futureRoleManager",
        "offset": 0,
        "slot": "25",
        "type": "t_address"
      },
      {
        "astId": 8036,
        "contract": "contracts/Packages/SharesManagerPackage.sol:SharesManagerPackage",
        "label": "shutdown",
        "offset": 20,
        "slot": "25",
        "type": "t_bool"
      },
      {
        "astId": 8038,
        "contract": "contracts/Packages/SharesManagerPackage.sol:SharesManagerPackage",
        "label": "profitMaxUnlockTime",
        "offset": 0,
        "slot": "26",
        "type": "t_uint256"
      },
      {
        "astId": 8040,
        "contract": "contracts/Packages/SharesManagerPackage.sol:SharesManagerPackage",
        "label": "fullProfitUnlockDate",
        "offset": 0,
        "slot": "27",
        "type": "t_uint256"
      },
      {
        "astId": 8042,
        "contract": "contracts/Packages/SharesManagerPackage.sol:SharesManagerPackage",
        "label": "profitUnlockingRate",
        "offset": 0,
        "slot": "28",
        "type": "t_uint256"
      },
      {
        "astId": 8044,
        "contract": "contracts/Packages/SharesManagerPackage.sol:SharesManagerPackage",
        "label": "lastProfitUpdate",
        "offset": 0,
        "slot": "29",
        "type": "t_uint256"
      },
      {
        "astId": 8048,
        "contract": "contracts/Packages/SharesManagerPackage.sol:SharesManagerPackage",
        "label": "nonces",
        "offset": 0,
        "slot": "30",
        "type": "t_mapping(t_address,t_uint256)"
      },
      {
        "astId": 8055,
        "contract": "contracts/Packages/SharesManagerPackage.sol:SharesManagerPackage",
        "label": "DOMAIN_SEPARATOR",
        "offset": 0,
        "slot": "31",
        "type": "t_bytes32"
      },
      {
        "astId": 399,
        "contract": "contracts/Packages/SharesManagerPackage.sol:SharesManagerPackage",
        "label": "_status",
        "offset": 0,
        "slot": "32",
        "type": "t_uint256"
      },
      {
        "astId": 24,
        "contract": "contracts/Packages/SharesManagerPackage.sol:SharesManagerPackage",
        "label": "_roles",
        "offset": 0,
        "slot": "33",
        "type": "t_mapping(t_bytes32,t_struct(RoleData)19_storage)"
      },
      {
        "astId": 3103,
        "contract": "contracts/Packages/SharesManagerPackage.sol:SharesManagerPackage",
        "label": "ASSET",
        "offset": 0,
        "slot": "34",
        "type": "t_contract(IERC20)531"
      },
      {
        "astId": 3105,
        "contract": "contracts/Packages/SharesManagerPackage.sol:SharesManagerPackage",
        "label": "DECIMALS",
        "offset": 20,
        "slot": "34",
        "type": "t_uint8"
      },
      {
        "astId": 3108,
        "contract": "contracts/Packages/SharesManagerPackage.sol:SharesManagerPackage",
        "label": "name",
        "offset": 0,
        "slot": "35",
        "type": "t_string_storage"
      },
      {
        "astId": 3111,
        "contract": "contracts/Packages/SharesManagerPackage.sol:SharesManagerPackage",
        "label": "symbol",
        "offset": 0,
        "slot": "36",
        "type": "t_string_storage"
      }
    ],
    "types": {
      "t_address": {
        "encoding": "inplace",
        "label": "address",
        "numberOfBytes": "20"
      },
      "t_array(t_address)dyn_storage": {
        "base": "t_address",
        "encoding": "dynamic_array",
        "label": "address[]",
        "numberOfBytes": "32"
      },
      "t_bool": {
        "encoding": "inplace",
        "label": "bool",
        "numberOfBytes": "1"
      },
      "t_bytes32": {
        "encoding": "inplace",
        "label": "bytes32",
        "numberOfBytes": "32"
      },
      "t_bytes4": {
        "encoding": "inplace",
        "label": "bytes4",
        "numberOfBytes": "4"
      },
      "t_contract(IERC20)531": {
        "encoding": "inplace",
        "label": "contract IERC20",
        "numberOfBytes": "20"
      },
      "t_mapping(t_address,t_bool)": {
        "encoding": "mapping",
        "key": "t_address",
        "label": "mapping(address => bool)",
        "numberOfBytes": "32",
        "value": "t_bool"
      },
      "t_mapping(t_address,t_bytes32)": {
        "encoding": "mapping",
        "key": "t_address",
        "label": "mapping(address => bytes32)",
        "numberOfBytes": "32",
        "value": "t_bytes32"
      },
      "t_mapping(t_address,t_mapping(t_address,t_uint256))": {
        "encoding": "mapping",
        "key": "t_address",
        "label": "mapping(address => mapping(address => uint256))",
        "numberOfBytes": "32",
        "value": "t_mapping(t_address,t_uint256)"
      },
      "t_mapping(t_address,t_struct(StrategyParams)8147_storage)": {
        "encoding": "mapping",
        "key": "t_address",
        "label": "mapping(address => struct StrategyParams)",
        "numberOfBytes": "32",
        "value": "t_struct(StrategyParams)8147_storage"
      },
      "t_mapping(t_address,t_uint256)": {
        "encoding": "mapping",
        "key": "t_address",
        "label": "mapping(address => uint256)",
        "numberOfBytes": "32",
        "value": "t_uint256"
      },
      "t_mapping(t_bytes32,t_bool)": {
        "encoding": "mapping",
        "key": "t_bytes32",
        "label": "mapping(bytes32 => bool)",
        "numberOfBytes": "32",
        "value": "t_bool"
      },
      "t_mapping(t_bytes32,t_struct(RoleData)19_storage)": {
        "encoding": "mapping",
        "key": "t_bytes32",
        "label": "mapping(bytes32 => struct AccessControl.RoleData)",
        "numberOfBytes": "32",
        "value": "t_struct(RoleData)19_storage"
      },
      "t_mapping(t_bytes4,t_address)": {
        "encoding": "mapping",
        "key": "t_bytes4",
        "label": "mapping(bytes4 => address)",
        "numberOfBytes": "32",
        "value": "t_address"
      },
      "t_string_storage": {
        "encoding": "bytes",
        "label": "string",
        "numberOfBytes": "32"
      },
      "t_struct(FeeAssessment)8156_storage": {
        "encoding": "inplace",
        "label": "struct FeeAssessment",
        "members": [
          {
            "astId": 8149,
            "contract": "contracts/Packages/SharesManagerPackage.sol:SharesManagerPackage",
            "label": "totalFees",
            "offset": 0,
            "slot": "0",
            "type": "t_uint256"
          },
          {
            "astId": 8151,
            "contract": "contracts/Packages/SharesManagerPackage.sol:SharesManagerPackage",
            "label": "totalRefunds",
            "offset": 0,
            "slot": "1",
            "type": "t_uint256"
          },
          {
            "astId": 8153,
            "contract": "contracts/Packages/SharesManagerPackage.sol:SharesManagerPackage",
            "label": "protocolFees",
            "offset": 0,
            "slot": "2",
            "type": "t_uint256"
          },
          {
            "astId": 8155,
            "contract": "contracts/Packages/SharesManagerPackage.sol:SharesManagerPackage",
            "label": "protocolFeeRecipient",
            "offset": 0,
            "slot": "3",
            "type": "t_address"
          }
        ],
        "numberOfBytes": "128"
      },
      "t_struct(RoleData)19_storage": {
        "encoding": "inplace",
        "label": "struct AccessControl.RoleData",
        "members": [
          {
            "astId": 16,
            "contract": "contracts/Packages/SharesManagerPackage.sol:SharesManagerPackage",
            "label": "members",
            "offset": 0,
            "slot": "0",
            "type": "t_mapping(t_address,t_bool)"
          },
          {
            "astId": 18,
            "contract": "contracts/Packages/SharesManagerPackage.sol:SharesManagerPackage",
            "label": "adminRole",
            "offset": 0,
            "slot": "1",
            "type": "t_bytes32"
          }
        ],
        "numberOfBytes": "64"
      },
      "t_struct(StrategyParams)8147_storage": {
        "encoding": "inplace",
        "label": "struct StrategyParams",
        "members": [
          {
            "astId": 8140,
            "contract": "contracts/Packages/SharesManagerPackage.sol:SharesManagerPackage",
            "label": "activation",
            "offset": 0,
            "slot": "0",
            "type": "t_uint256"
          },
          {
            "astId": 8142,
            "contract": "contracts/Packages/SharesManagerPackage.sol:SharesManagerPackage",
            "label": "lastReport",
            "offset": 0,
            "slot": "1",
            "type": "t_uint256"
          },
          {
            "astId": 8144,
            "contract": "contracts/Packages/SharesManagerPackage.sol:SharesManagerPackage",
            "label": "currentDebt",
            "offset": 0,
            "slot": "2",
            "type": "t_uint256"
          },
          {
            "astId": 8146,
            "contract": "contracts/Packages/SharesManagerPackage.sol:SharesManagerPackage",
            "label": "maxDebt",
            "offset": 0,
            "slot": "3",
            "type": "t_uint256"
          }
        ],
        "numberOfBytes": "128"
      },
      "t_uint256": {
        "encoding": "inplace",
        "label": "uint256",
        "numberOfBytes": "32"
      },
      "t_uint8": {
        "encoding": "inplace",
        "label": "uint8",
        "numberOfBytes": "1"
      }
    }
  }
}