{
  "address": "0xBC2Ab409fed847926D05dd4dC26DE7C72891233e",
  "abi": [
    {
      "inputs": [
        {
          "internalType": "address",
          "name": "_asset",
          "type": "address"
        },
        {
          "internalType": "uint8",
          "name": "_decimals",
          "type": "uint8"
        },
        {
          "internalType": "string",
          "name": "_name",
          "type": "string"
        },
        {
          "internalType": "string",
          "name": "_symbol",
          "type": "string"
        }
      ],
      "stateMutability": "nonpayable",
      "type": "constructor"
    },
    {
      "inputs": [],
      "name": "ERC20InsufficientAllowance",
      "type": "error"
    },
    {
      "inputs": [],
      "name": "ERC20PermitExpired",
      "type": "error"
    },
    {
      "inputs": [],
      "name": "ERC20PermitInvalidSignature",
      "type": "error"
    },
    {
      "inputs": [],
      "name": "ExceedDepositLimit",
      "type": "error"
    },
    {
      "inputs": [],
      "name": "InactiveStrategy",
      "type": "error"
    },
    {
      "inputs": [],
      "name": "InsufficientAssets",
      "type": "error"
    },
    {
      "inputs": [],
      "name": "InsufficientFunds",
      "type": "error"
    },
    {
      "inputs": [],
      "name": "InsufficientShares",
      "type": "error"
    },
    {
      "inputs": [],
      "name": "InvalidAssetDecimals",
      "type": "error"
    },
    {
      "inputs": [],
      "name": "MaxLoss",
      "type": "error"
    },
    {
      "inputs": [],
      "name": "StrategyDebtIsLessThanAssetsNeeded",
      "type": "error"
    },
    {
      "inputs": [],
      "name": "StrategyIsShutdown",
      "type": "error"
    },
    {
      "inputs": [],
      "name": "TooMuchLoss",
      "type": "error"
    },
    {
      "inputs": [],
      "name": "UsingModule",
      "type": "error"
    },
    {
      "inputs": [],
      "name": "ZeroAddress",
      "type": "error"
    },
    {
      "inputs": [],
      "name": "ZeroValue",
      "type": "error"
    },
    {
      "anonymous": false,
      "inputs": [
        {
          "indexed": true,
          "internalType": "address",
          "name": "owner",
          "type": "address"
        },
        {
          "indexed": true,
          "internalType": "address",
          "name": "spender",
          "type": "address"
        },
        {
          "indexed": false,
          "internalType": "uint256",
          "name": "value",
          "type": "uint256"
        }
      ],
      "name": "Approval",
      "type": "event"
    },
    {
      "anonymous": false,
      "inputs": [
        {
          "indexed": true,
          "internalType": "address",
          "name": "strategy",
          "type": "address"
        },
        {
          "indexed": false,
          "internalType": "uint256",
          "name": "amount",
          "type": "uint256"
        }
      ],
      "name": "DebtPurchased",
      "type": "event"
    },
    {
      "anonymous": false,
      "inputs": [
        {
          "indexed": true,
          "internalType": "address",
          "name": "strategy",
          "type": "address"
        },
        {
          "indexed": false,
          "internalType": "uint256",
          "name": "currentDebt",
          "type": "uint256"
        },
        {
          "indexed": false,
          "internalType": "uint256",
          "name": "newDebt",
          "type": "uint256"
        }
      ],
      "name": "DebtUpdated",
      "type": "event"
    },
    {
      "anonymous": false,
      "inputs": [
        {
          "indexed": true,
          "internalType": "address",
          "name": "sender",
          "type": "address"
        },
        {
          "indexed": true,
          "internalType": "address",
          "name": "owner",
          "type": "address"
        },
        {
          "indexed": false,
          "internalType": "uint256",
          "name": "assets",
          "type": "uint256"
        },
        {
          "indexed": false,
          "internalType": "uint256",
          "name": "shares",
          "type": "uint256"
        }
      ],
      "name": "Deposit",
      "type": "event"
    },
    {
      "anonymous": false,
      "inputs": [
        {
          "indexed": true,
          "internalType": "address",
          "name": "account",
          "type": "address"
        },
        {
          "indexed": false,
          "internalType": "bytes32",
          "name": "role",
          "type": "bytes32"
        }
      ],
      "name": "RoleSet",
      "type": "event"
    },
    {
      "anonymous": false,
      "inputs": [
        {
          "indexed": true,
          "internalType": "bytes32",
          "name": "role",
          "type": "bytes32"
        },
        {
          "indexed": true,
          "internalType": "enum RoleStatusChange",
          "name": "status",
          "type": "uint8"
        }
      ],
      "name": "RoleStatusChanged",
      "type": "event"
    },
    {
      "anonymous": false,
      "inputs": [],
      "name": "Shutdown",
      "type": "event"
    },
    {
      "anonymous": false,
      "inputs": [
        {
          "indexed": true,
          "internalType": "address",
          "name": "strategy",
          "type": "address"
        },
        {
          "indexed": false,
          "internalType": "enum StrategyChangeType",
          "name": "changeType",
          "type": "uint8"
        }
      ],
      "name": "StrategyChanged",
      "type": "event"
    },
    {
      "anonymous": false,
      "inputs": [
        {
          "indexed": true,
          "internalType": "address",
          "name": "strategy",
          "type": "address"
        },
        {
          "indexed": false,
          "internalType": "uint256",
          "name": "gain",
          "type": "uint256"
        },
        {
          "indexed": false,
          "internalType": "uint256",
          "name": "loss",
          "type": "uint256"
        },
        {
          "indexed": false,
          "internalType": "uint256",
          "name": "currentDebt",
          "type": "uint256"
        },
        {
          "indexed": false,
          "internalType": "uint256",
          "name": "protocolFees",
          "type": "uint256"
        },
        {
          "indexed": false,
          "internalType": "uint256",
          "name": "totalFees",
          "type": "uint256"
        },
        {
          "indexed": false,
          "internalType": "uint256",
          "name": "totalRefunds",
          "type": "uint256"
        }
      ],
      "name": "StrategyReported",
      "type": "event"
    },
    {
      "anonymous": false,
      "inputs": [
        {
          "indexed": true,
          "internalType": "address",
          "name": "from",
          "type": "address"
        },
        {
          "indexed": true,
          "internalType": "address",
          "name": "to",
          "type": "address"
        },
        {
          "indexed": false,
          "internalType": "uint256",
          "name": "value",
          "type": "uint256"
        }
      ],
      "name": "Transfer",
      "type": "event"
    },
    {
      "anonymous": false,
      "inputs": [
        {
          "indexed": true,
          "internalType": "address",
          "name": "accountant",
          "type": "address"
        }
      ],
      "name": "UpdateAccountant",
      "type": "event"
    },
    {
      "anonymous": false,
      "inputs": [
        {
          "indexed": false,
          "internalType": "address[]",
          "name": "newDefaultQueue",
          "type": "address[]"
        }
      ],
      "name": "UpdateDefaultQueue",
      "type": "event"
    },
    {
      "anonymous": false,
      "inputs": [
        {
          "indexed": false,
          "internalType": "uint256",
          "name": "depositLimit",
          "type": "uint256"
        }
      ],
      "name": "UpdateDepositLimit",
      "type": "event"
    },
    {
      "anonymous": false,
      "inputs": [
        {
          "indexed": true,
          "internalType": "address",
          "name": "depositLimitModule",
          "type": "address"
        }
      ],
      "name": "UpdateDepositLimitModule",
      "type": "event"
    },
    {
      "anonymous": false,
      "inputs": [
        {
          "indexed": false,
          "internalType": "uint256",
          "name": "minimumTotalIdle",
          "type": "uint256"
        }
      ],
      "name": "UpdateMinimumTotalIdle",
      "type": "event"
    },
    {
      "anonymous": false,
      "inputs": [
        {
          "indexed": false,
          "internalType": "uint256",
          "name": "profitMaxUnlockTime",
          "type": "uint256"
        }
      ],
      "name": "UpdateProfitMaxUnlockTime",
      "type": "event"
    },
    {
      "anonymous": false,
      "inputs": [
        {
          "indexed": true,
          "internalType": "address",
          "name": "roleManager",
          "type": "address"
        }
      ],
      "name": "UpdateRoleManager",
      "type": "event"
    },
    {
      "anonymous": false,
      "inputs": [
        {
          "indexed": false,
          "internalType": "bool",
          "name": "useDefaultQueue",
          "type": "bool"
        }
      ],
      "name": "UpdateUseDefaultQueue",
      "type": "event"
    },
    {
      "anonymous": false,
      "inputs": [
        {
          "indexed": true,
          "internalType": "address",
          "name": "withdrawLimitModule",
          "type": "address"
        }
      ],
      "name": "UpdateWithdrawLimitModule",
      "type": "event"
    },
    {
      "anonymous": false,
      "inputs": [
        {
          "indexed": true,
          "internalType": "address",
          "name": "sender",
          "type": "address"
        },
        {
          "indexed": true,
          "internalType": "address",
          "name": "strategy",
          "type": "address"
        },
        {
          "indexed": false,
          "internalType": "uint256",
          "name": "newDebt",
          "type": "uint256"
        }
      ],
      "name": "UpdatedMaxDebtForStrategy",
      "type": "event"
    },
    {
      "anonymous": false,
      "inputs": [
        {
          "indexed": true,
          "internalType": "address",
          "name": "sender",
          "type": "address"
        },
        {
          "indexed": true,
          "internalType": "address",
          "name": "receiver",
          "type": "address"
        },
        {
          "indexed": true,
          "internalType": "address",
          "name": "owner",
          "type": "address"
        },
        {
          "indexed": false,
          "internalType": "uint256",
          "name": "assets",
          "type": "uint256"
        },
        {
          "indexed": false,
          "internalType": "uint256",
          "name": "shares",
          "type": "uint256"
        }
      ],
      "name": "Withdraw",
      "type": "event"
    },
    {
      "inputs": [],
      "name": "ACCOUNTANT_MANAGER",
      "outputs": [
        {
          "internalType": "bytes32",
          "name": "",
          "type": "bytes32"
        }
      ],
      "stateMutability": "view",
      "type": "function"
    },
    {
      "inputs": [],
      "name": "ADD_STRATEGY_MANAGER",
      "outputs": [
        {
          "internalType": "bytes32",
          "name": "",
          "type": "bytes32"
        }
      ],
      "stateMutability": "view",
      "type": "function"
    },
    {
      "inputs": [],
      "name": "API_VERSION",
      "outputs": [
        {
          "internalType": "string",
          "name": "",
          "type": "string"
        }
      ],
      "stateMutability": "view",
      "type": "function"
    },
    {
      "inputs": [],
      "name": "ASSET",
      "outputs": [
        {
          "internalType": "contract IERC20",
          "name": "",
          "type": "address"
        }
      ],
      "stateMutability": "view",
      "type": "function"
    },
    {
      "inputs": [],
      "name": "DEBT_MANAGER",
      "outputs": [
        {
          "internalType": "bytes32",
          "name": "",
          "type": "bytes32"
        }
      ],
      "stateMutability": "view",
      "type": "function"
    },
    {
      "inputs": [],
      "name": "DEBT_PURCHASER",
      "outputs": [
        {
          "internalType": "bytes32",
          "name": "",
          "type": "bytes32"
        }
      ],
      "stateMutability": "view",
      "type": "function"
    },
    {
      "inputs": [],
      "name": "DECIMALS",
      "outputs": [
        {
          "internalType": "uint8",
          "name": "",
          "type": "uint8"
        }
      ],
      "stateMutability": "view",
      "type": "function"
    },
    {
      "inputs": [],
      "name": "DEPOSIT_LIMIT_MANAGER",
      "outputs": [
        {
          "internalType": "bytes32",
          "name": "",
          "type": "bytes32"
        }
      ],
      "stateMutability": "view",
      "type": "function"
    },
    {
      "inputs": [],
      "name": "DOMAIN_SEPARATOR",
      "outputs": [
        {
          "internalType": "bytes32",
          "name": "",
          "type": "bytes32"
        }
      ],
      "stateMutability": "view",
      "type": "function"
    },
    {
      "inputs": [],
      "name": "DOMAIN_TYPE_HASH",
      "outputs": [
        {
          "internalType": "bytes32",
          "name": "",
          "type": "bytes32"
        }
      ],
      "stateMutability": "view",
      "type": "function"
    },
    {
      "inputs": [],
      "name": "EMERGENCY_MANAGER",
      "outputs": [
        {
          "internalType": "bytes32",
          "name": "",
          "type": "bytes32"
        }
      ],
      "stateMutability": "view",
      "type": "function"
    },
    {
      "inputs": [],
      "name": "FORCE_REVOKE_MANAGER",
      "outputs": [
        {
          "internalType": "bytes32",
          "name": "",
          "type": "bytes32"
        }
      ],
      "stateMutability": "view",
      "type": "function"
    },
    {
      "inputs": [],
      "name": "MAX_BPS",
      "outputs": [
        {
          "internalType": "uint256",
          "name": "",
          "type": "uint256"
        }
      ],
      "stateMutability": "view",
      "type": "function"
    },
    {
      "inputs": [],
      "name": "MAX_BPS_EXTENDED",
      "outputs": [
        {
          "internalType": "uint256",
          "name": "",
          "type": "uint256"
        }
      ],
      "stateMutability": "view",
      "type": "function"
    },
    {
      "inputs": [],
      "name": "MAX_DEBT_MANAGER",
      "outputs": [
        {
          "internalType": "bytes32",
          "name": "",
          "type": "bytes32"
        }
      ],
      "stateMutability": "view",
      "type": "function"
    },
    {
      "inputs": [],
      "name": "MAX_QUEUE",
      "outputs": [
        {
          "internalType": "uint256",
          "name": "",
          "type": "uint256"
        }
      ],
      "stateMutability": "view",
      "type": "function"
    },
    {
      "inputs": [],
      "name": "MINIMUM_IDLE_MANAGER",
      "outputs": [
        {
          "internalType": "bytes32",
          "name": "",
          "type": "bytes32"
        }
      ],
      "stateMutability": "view",
      "type": "function"
    },
    {
      "inputs": [],
      "name": "ONE_YEAR",
      "outputs": [
        {
          "internalType": "uint256",
          "name": "",
          "type": "uint256"
        }
      ],
      "stateMutability": "view",
      "type": "function"
    },
    {
      "inputs": [],
      "name": "PERMIT_TYPE_HASH",
      "outputs": [
        {
          "internalType": "bytes32",
          "name": "",
          "type": "bytes32"
        }
      ],
      "stateMutability": "view",
      "type": "function"
    },
    {
      "inputs": [],
      "name": "PROFIT_UNLOCK_MANAGER",
      "outputs": [
        {
          "internalType": "bytes32",
          "name": "",
          "type": "bytes32"
        }
      ],
      "stateMutability": "view",
      "type": "function"
    },
    {
      "inputs": [],
      "name": "QUEUE_MANAGER",
      "outputs": [
        {
          "internalType": "bytes32",
          "name": "",
          "type": "bytes32"
        }
      ],
      "stateMutability": "view",
      "type": "function"
    },
    {
      "inputs": [],
      "name": "REPORTING_MANAGER",
      "outputs": [
        {
          "internalType": "bytes32",
          "name": "",
          "type": "bytes32"
        }
      ],
      "stateMutability": "view",
      "type": "function"
    },
    {
      "inputs": [],
      "name": "REVOKE_STRATEGY_MANAGER",
      "outputs": [
        {
          "internalType": "bytes32",
          "name": "",
          "type": "bytes32"
        }
      ],
      "stateMutability": "view",
      "type": "function"
    },
    {
      "inputs": [],
      "name": "ROLE_MANAGER",
      "outputs": [
        {
          "internalType": "bytes32",
          "name": "",
          "type": "bytes32"
        }
      ],
      "stateMutability": "view",
      "type": "function"
    },
    {
      "inputs": [],
      "name": "WITHDRAW_LIMIT_MANAGER",
      "outputs": [
        {
          "internalType": "bytes32",
          "name": "",
          "type": "bytes32"
        }
      ],
      "stateMutability": "view",
      "type": "function"
    },
    {
      "inputs": [],
      "name": "accountant",
      "outputs": [
        {
          "internalType": "address",
          "name": "",
          "type": "address"
        }
      ],
      "stateMutability": "view",
      "type": "function"
    },
    {
      "inputs": [
        {
          "internalType": "address",
          "name": "owner",
          "type": "address"
        },
        {
          "internalType": "address",
          "name": "spender",
          "type": "address"
        }
      ],
      "name": "allowance",
      "outputs": [
        {
          "internalType": "uint256",
          "name": "",
          "type": "uint256"
        }
      ],
      "stateMutability": "view",
      "type": "function"
    },
    {
      "inputs": [
        {
          "internalType": "address",
          "name": "spender",
          "type": "address"
        },
        {
          "internalType": "uint256",
          "name": "amount",
          "type": "uint256"
        }
      ],
      "name": "approve",
      "outputs": [
        {
          "internalType": "bool",
          "name": "",
          "type": "bool"
        }
      ],
      "stateMutability": "nonpayable",
      "type": "function"
    },
    {
      "inputs": [
        {
          "internalType": "address",
          "name": "owner",
          "type": "address"
        },
        {
          "internalType": "address",
          "name": "spender",
          "type": "address"
        },
        {
          "internalType": "uint256",
          "name": "amount",
          "type": "uint256"
        }
      ],
      "name": "approve",
      "outputs": [
        {
          "internalType": "bool",
          "name": "",
          "type": "bool"
        }
      ],
      "stateMutability": "nonpayable",
      "type": "function"
    },
    {
      "inputs": [
        {
          "internalType": "address",
          "name": "strategy",
          "type": "address"
        },
        {
          "internalType": "uint256",
          "name": "assetsNeeded",
          "type": "uint256"
        }
      ],
      "name": "assessShareOfUnrealisedLosses",
      "outputs": [
        {
          "internalType": "uint256",
          "name": "",
          "type": "uint256"
        }
      ],
      "stateMutability": "view",
      "type": "function"
    },
    {
      "inputs": [],
      "name": "asset",
      "outputs": [
        {
          "internalType": "address",
          "name": "",
          "type": "address"
        }
      ],
      "stateMutability": "view",
      "type": "function"
    },
    {
      "inputs": [
        {
          "internalType": "address",
          "name": "addr",
          "type": "address"
        }
      ],
      "name": "balanceOf",
      "outputs": [
        {
          "internalType": "uint256",
          "name": "",
          "type": "uint256"
        }
      ],
      "stateMutability": "view",
      "type": "function"
    },
    {
      "inputs": [
        {
          "internalType": "uint256",
          "name": "shares",
          "type": "uint256"
        },
        {
          "internalType": "address",
          "name": "owner",
          "type": "address"
        }
      ],
      "name": "burnShares",
      "outputs": [],
      "stateMutability": "nonpayable",
      "type": "function"
    },
    {
      "inputs": [],
      "name": "burnUnlockedShares",
      "outputs": [],
      "stateMutability": "nonpayable",
      "type": "function"
    },
    {
      "inputs": [
        {
          "internalType": "uint256",
          "name": "loss",
          "type": "uint256"
        },
        {
          "internalType": "uint256",
          "name": "totalFees",
          "type": "uint256"
        },
        {
          "internalType": "uint256",
          "name": "protocolFees",
          "type": "uint256"
        }
      ],
      "name": "calculateShareManagement",
      "outputs": [
        {
          "components": [
            {
              "internalType": "uint256",
              "name": "sharesToBurn",
              "type": "uint256"
            },
            {
              "internalType": "uint256",
              "name": "accountantFeesShares",
              "type": "uint256"
            },
            {
              "internalType": "uint256",
              "name": "protocolFeesShares",
              "type": "uint256"
            }
          ],
          "internalType": "struct ShareManagement",
          "name": "",
          "type": "tuple"
        }
      ],
      "stateMutability": "view",
      "type": "function"
    },
    {
      "inputs": [
        {
          "internalType": "uint256",
          "name": "shares",
          "type": "uint256"
        }
      ],
      "name": "convertToAssets",
      "outputs": [
        {
          "internalType": "uint256",
          "name": "",
          "type": "uint256"
        }
      ],
      "stateMutability": "view",
      "type": "function"
    },
    {
      "inputs": [
        {
          "internalType": "uint256",
          "name": "shares",
          "type": "uint256"
        },
        {
          "internalType": "enum Rounding",
          "name": "rounding",
          "type": "uint8"
        }
      ],
      "name": "convertToAssets",
      "outputs": [
        {
          "internalType": "uint256",
          "name": "",
          "type": "uint256"
        }
      ],
      "stateMutability": "view",
      "type": "function"
    },
    {
      "inputs": [
        {
          "internalType": "uint256",
          "name": "assets",
          "type": "uint256"
        },
        {
          "internalType": "enum Rounding",
          "name": "rounding",
          "type": "uint8"
        }
      ],
      "name": "convertToShares",
      "outputs": [
        {
          "internalType": "uint256",
          "name": "",
          "type": "uint256"
        }
      ],
      "stateMutability": "view",
      "type": "function"
    },
    {
      "inputs": [
        {
          "internalType": "uint256",
          "name": "assets",
          "type": "uint256"
        }
      ],
      "name": "convertToShares",
      "outputs": [
        {
          "internalType": "uint256",
          "name": "",
          "type": "uint256"
        }
      ],
      "stateMutability": "view",
      "type": "function"
    },
    {
      "inputs": [],
      "name": "decimals",
      "outputs": [
        {
          "internalType": "uint8",
          "name": "",
          "type": "uint8"
        }
      ],
      "stateMutability": "view",
      "type": "function"
    },
    {
      "inputs": [
        {
          "internalType": "address",
          "name": "owner",
          "type": "address"
        },
        {
          "internalType": "address",
          "name": "spender",
          "type": "address"
        },
        {
          "internalType": "uint256",
          "name": "amount",
          "type": "uint256"
        }
      ],
      "name": "decreaseAllowance",
      "outputs": [
        {
          "internalType": "bool",
          "name": "",
          "type": "bool"
        }
      ],
      "stateMutability": "nonpayable",
      "type": "function"
    },
    {
      "inputs": [
        {
          "internalType": "uint256",
          "name": "",
          "type": "uint256"
        }
      ],
      "name": "defaultQueue",
      "outputs": [
        {
          "internalType": "address",
          "name": "",
          "type": "address"
        }
      ],
      "stateMutability": "view",
      "type": "function"
    },
    {
      "inputs": [
        {
          "internalType": "uint256",
          "name": "assets",
          "type": "uint256"
        },
        {
          "internalType": "address",
          "name": "receiver",
          "type": "address"
        }
      ],
      "name": "deposit",
      "outputs": [
        {
          "internalType": "uint256",
          "name": "",
          "type": "uint256"
        }
      ],
      "stateMutability": "nonpayable",
      "type": "function"
    },
    {
      "inputs": [
        {
          "internalType": "address",
          "name": "sender",
          "type": "address"
        },
        {
          "internalType": "address",
          "name": "recipient",
          "type": "address"
        },
        {
          "internalType": "uint256",
          "name": "assets",
          "type": "uint256"
        }
      ],
      "name": "deposit",
      "outputs": [
        {
          "internalType": "uint256",
          "name": "",
          "type": "uint256"
        }
      ],
      "stateMutability": "nonpayable",
      "type": "function"
    },
    {
      "inputs": [],
      "name": "depositLimit",
      "outputs": [
        {
          "internalType": "uint256",
          "name": "",
          "type": "uint256"
        }
      ],
      "stateMutability": "view",
      "type": "function"
    },
    {
      "inputs": [],
      "name": "depositLimitModule",
      "outputs": [
        {
          "internalType": "address",
          "name": "",
          "type": "address"
        }
      ],
      "stateMutability": "view",
      "type": "function"
    },
    {
      "inputs": [
        {
          "internalType": "address",
          "name": "token",
          "type": "address"
        },
        {
          "internalType": "address",
          "name": "spender",
          "type": "address"
        },
        {
          "internalType": "uint256",
          "name": "amount",
          "type": "uint256"
        }
      ],
      "name": "erc20SafeApprove",
      "outputs": [],
      "stateMutability": "nonpayable",
      "type": "function"
    },
    {
      "inputs": [
        {
          "internalType": "address",
          "name": "token",
          "type": "address"
        },
        {
          "internalType": "address",
          "name": "receiver",
          "type": "address"
        },
        {
          "internalType": "uint256",
          "name": "amount",
          "type": "uint256"
        }
      ],
      "name": "erc20SafeTransfer",
      "outputs": [],
      "stateMutability": "nonpayable",
      "type": "function"
    },
    {
      "inputs": [
        {
          "internalType": "address",
          "name": "token",
          "type": "address"
        },
        {
          "internalType": "address",
          "name": "sender",
          "type": "address"
        },
        {
          "internalType": "address",
          "name": "receiver",
          "type": "address"
        },
        {
          "internalType": "uint256",
          "name": "amount",
          "type": "uint256"
        }
      ],
      "name": "erc20SafeTransferFrom",
      "outputs": [],
      "stateMutability": "nonpayable",
      "type": "function"
    },
    {
      "inputs": [],
      "name": "fullProfitUnlockDate",
      "outputs": [
        {
          "internalType": "uint256",
          "name": "",
          "type": "uint256"
        }
      ],
      "stateMutability": "view",
      "type": "function"
    },
    {
      "inputs": [],
      "name": "futureRoleManager",
      "outputs": [
        {
          "internalType": "address",
          "name": "",
          "type": "address"
        }
      ],
      "stateMutability": "view",
      "type": "function"
    },
    {
      "inputs": [],
      "name": "governance",
      "outputs": [
        {
          "internalType": "address",
          "name": "",
          "type": "address"
        }
      ],
      "stateMutability": "view",
      "type": "function"
    },
    {
      "inputs": [
        {
          "components": [
            {
              "internalType": "uint256",
              "name": "sharesToBurn",
              "type": "uint256"
            },
            {
              "internalType": "uint256",
              "name": "accountantFeesShares",
              "type": "uint256"
            },
            {
              "internalType": "uint256",
              "name": "protocolFeesShares",
              "type": "uint256"
            }
          ],
          "internalType": "struct ShareManagement",
          "name": "shares",
          "type": "tuple"
        },
        {
          "components": [
            {
              "internalType": "uint256",
              "name": "totalFees",
              "type": "uint256"
            },
            {
              "internalType": "uint256",
              "name": "totalRefunds",
              "type": "uint256"
            },
            {
              "internalType": "uint256",
              "name": "protocolFees",
              "type": "uint256"
            },
            {
              "internalType": "address",
              "name": "protocolFeeRecipient",
              "type": "address"
            }
          ],
          "internalType": "struct FeeAssessment",
          "name": "fees",
          "type": "tuple"
        },
        {
          "internalType": "uint256",
          "name": "gain",
          "type": "uint256"
        },
        {
          "internalType": "uint256",
          "name": "loss",
          "type": "uint256"
        },
        {
          "internalType": "address",
          "name": "strategy",
          "type": "address"
        }
      ],
      "name": "handleShareBurnsAndIssues",
      "outputs": [
        {
          "internalType": "uint256",
          "name": "previouslyLockedShares",
          "type": "uint256"
        },
        {
          "internalType": "uint256",
          "name": "newlyLockedShares",
          "type": "uint256"
        }
      ],
      "stateMutability": "nonpayable",
      "type": "function"
    },
    {
      "inputs": [
        {
          "internalType": "address",
          "name": "owner",
          "type": "address"
        },
        {
          "internalType": "address",
          "name": "spender",
          "type": "address"
        },
        {
          "internalType": "uint256",
          "name": "amount",
          "type": "uint256"
        }
      ],
      "name": "increaseAllowance",
      "outputs": [
        {
          "internalType": "bool",
          "name": "",
          "type": "bool"
        }
      ],
      "stateMutability": "nonpayable",
      "type": "function"
    },
    {
      "inputs": [
        {
          "internalType": "uint256",
          "name": "shares",
          "type": "uint256"
        },
        {
          "internalType": "address",
          "name": "recipient",
          "type": "address"
        }
      ],
      "name": "issueShares",
      "outputs": [],
      "stateMutability": "nonpayable",
      "type": "function"
    },
    {
      "inputs": [
        {
          "internalType": "uint256",
          "name": "amount",
          "type": "uint256"
        },
        {
          "internalType": "address",
          "name": "recipient",
          "type": "address"
        }
      ],
      "name": "issueSharesForAmount",
      "outputs": [
        {
          "internalType": "uint256",
          "name": "",
          "type": "uint256"
        }
      ],
      "stateMutability": "nonpayable",
      "type": "function"
    },
    {
      "inputs": [],
      "name": "lastProfitUpdate",
      "outputs": [
        {
          "internalType": "uint256",
          "name": "",
          "type": "uint256"
        }
      ],
      "stateMutability": "view",
      "type": "function"
    },
    {
      "inputs": [
        {
          "internalType": "uint256",
          "name": "previouslyLockedShares",
          "type": "uint256"
        },
        {
          "internalType": "uint256",
          "name": "newlyLockedShares",
          "type": "uint256"
        }
      ],
      "name": "manageUnlockingOfShares",
      "outputs": [],
      "stateMutability": "nonpayable",
      "type": "function"
    },
    {
      "inputs": [
        {
          "internalType": "address",
          "name": "receiver",
          "type": "address"
        }
      ],
      "name": "maxDeposit",
      "outputs": [
        {
          "internalType": "uint256",
          "name": "",
          "type": "uint256"
        }
      ],
      "stateMutability": "view",
      "type": "function"
    },
    {
      "inputs": [
        {
          "internalType": "address",
          "name": "receiver",
          "type": "address"
        }
      ],
      "name": "maxMint",
      "outputs": [
        {
          "internalType": "uint256",
          "name": "",
          "type": "uint256"
        }
      ],
      "stateMutability": "view",
      "type": "function"
    },
    {
      "inputs": [
        {
          "internalType": "address",
          "name": "owner",
          "type": "address"
        },
        {
          "internalType": "uint256",
          "name": "maxLoss",
          "type": "uint256"
        },
        {
          "internalType": "address[]",
          "name": "_strategies",
          "type": "address[]"
        }
      ],
      "name": "maxRedeem",
      "outputs": [
        {
          "internalType": "uint256",
          "name": "",
          "type": "uint256"
        }
      ],
      "stateMutability": "nonpayable",
      "type": "function"
    },
    {
      "inputs": [
        {
          "internalType": "address",
          "name": "owner",
          "type": "address"
        },
        {
          "internalType": "uint256",
          "name": "_maxLoss",
          "type": "uint256"
        },
        {
          "internalType": "address[]",
          "name": "_strategies",
          "type": "address[]"
        }
      ],
      "name": "maxWithdraw",
      "outputs": [
        {
          "internalType": "uint256",
          "name": "",
          "type": "uint256"
        }
      ],
      "stateMutability": "nonpayable",
      "type": "function"
    },
    {
      "inputs": [],
      "name": "minimumTotalIdle",
      "outputs": [
        {
          "internalType": "uint256",
          "name": "",
          "type": "uint256"
        }
      ],
      "stateMutability": "view",
      "type": "function"
    },
    {
      "inputs": [
        {
          "internalType": "uint256",
          "name": "shares",
          "type": "uint256"
        },
        {
          "internalType": "address",
          "name": "receiver",
          "type": "address"
        }
      ],
      "name": "mint",
      "outputs": [
        {
          "internalType": "uint256",
          "name": "",
          "type": "uint256"
        }
      ],
      "stateMutability": "nonpayable",
      "type": "function"
    },
    {
      "inputs": [
        {
          "internalType": "address",
          "name": "sender",
          "type": "address"
        },
        {
          "internalType": "address",
          "name": "recipient",
          "type": "address"
        },
        {
          "internalType": "uint256",
          "name": "shares",
          "type": "uint256"
        }
      ],
      "name": "mint",
      "outputs": [
        {
          "internalType": "uint256",
          "name": "",
          "type": "uint256"
        }
      ],
      "stateMutability": "nonpayable",
      "type": "function"
    },
    {
      "inputs": [],
      "name": "name",
      "outputs": [
        {
          "internalType": "string",
          "name": "",
          "type": "string"
        }
      ],
      "stateMutability": "view",
      "type": "function"
    },
    {
      "inputs": [
        {
          "internalType": "address",
          "name": "",
          "type": "address"
        }
      ],
      "name": "nonces",
      "outputs": [
        {
          "internalType": "uint256",
          "name": "",
          "type": "uint256"
        }
      ],
      "stateMutability": "view",
      "type": "function"
    },
    {
      "inputs": [
        {
          "internalType": "bytes32",
          "name": "",
          "type": "bytes32"
        }
      ],
      "name": "openRoles",
      "outputs": [
        {
          "internalType": "bool",
          "name": "",
          "type": "bool"
        }
      ],
      "stateMutability": "view",
      "type": "function"
    },
    {
      "inputs": [
        {
          "internalType": "address",
          "name": "owner",
          "type": "address"
        },
        {
          "internalType": "address",
          "name": "spender",
          "type": "address"
        },
        {
          "internalType": "uint256",
          "name": "amount",
          "type": "uint256"
        },
        {
          "internalType": "uint256",
          "name": "deadline",
          "type": "uint256"
        },
        {
          "internalType": "uint8",
          "name": "v",
          "type": "uint8"
        },
        {
          "internalType": "bytes32",
          "name": "r",
          "type": "bytes32"
        },
        {
          "internalType": "bytes32",
          "name": "s",
          "type": "bytes32"
        }
      ],
      "name": "permit",
      "outputs": [
        {
          "internalType": "bool",
          "name": "",
          "type": "bool"
        }
      ],
      "stateMutability": "nonpayable",
      "type": "function"
    },
    {
      "inputs": [
        {
          "internalType": "uint256",
          "name": "assets",
          "type": "uint256"
        }
      ],
      "name": "previewDeposit",
      "outputs": [
        {
          "internalType": "uint256",
          "name": "",
          "type": "uint256"
        }
      ],
      "stateMutability": "view",
      "type": "function"
    },
    {
      "inputs": [
        {
          "internalType": "uint256",
          "name": "shares",
          "type": "uint256"
        }
      ],
      "name": "previewMint",
      "outputs": [
        {
          "internalType": "uint256",
          "name": "",
          "type": "uint256"
        }
      ],
      "stateMutability": "view",
      "type": "function"
    },
    {
      "inputs": [
        {
          "internalType": "uint256",
          "name": "shares",
          "type": "uint256"
        }
      ],
      "name": "previewRedeem",
      "outputs": [
        {
          "internalType": "uint256",
          "name": "",
          "type": "uint256"
        }
      ],
      "stateMutability": "view",
      "type": "function"
    },
    {
      "inputs": [
        {
          "internalType": "uint256",
          "name": "assets",
          "type": "uint256"
        }
      ],
      "name": "previewWithdraw",
      "outputs": [
        {
          "internalType": "uint256",
          "name": "",
          "type": "uint256"
        }
      ],
      "stateMutability": "view",
      "type": "function"
    },
    {
      "inputs": [],
      "name": "profitMaxUnlockTime",
      "outputs": [
        {
          "internalType": "uint256",
          "name": "",
          "type": "uint256"
        }
      ],
      "stateMutability": "view",
      "type": "function"
    },
    {
      "inputs": [],
      "name": "profitUnlockingRate",
      "outputs": [
        {
          "internalType": "uint256",
          "name": "",
          "type": "uint256"
        }
      ],
      "stateMutability": "view",
      "type": "function"
    },
    {
      "inputs": [
        {
          "internalType": "uint256",
          "name": "shares",
          "type": "uint256"
        },
        {
          "internalType": "address",
          "name": "receiver",
          "type": "address"
        },
        {
          "internalType": "address",
          "name": "owner",
          "type": "address"
        },
        {
          "internalType": "uint256",
          "name": "maxLoss",
          "type": "uint256"
        },
        {
          "internalType": "address[]",
          "name": "_strategies",
          "type": "address[]"
        }
      ],
      "name": "redeem",
      "outputs": [
        {
          "internalType": "uint256",
          "name": "",
          "type": "uint256"
        }
      ],
      "stateMutability": "nonpayable",
      "type": "function"
    },
    {
      "inputs": [],
      "name": "roleManager",
      "outputs": [
        {
          "internalType": "address",
          "name": "",
          "type": "address"
        }
      ],
      "stateMutability": "view",
      "type": "function"
    },
    {
      "inputs": [
        {
          "internalType": "address",
          "name": "",
          "type": "address"
        }
      ],
      "name": "roles",
      "outputs": [
        {
          "internalType": "bytes32",
          "name": "",
          "type": "bytes32"
        }
      ],
      "stateMutability": "view",
      "type": "function"
    },
    {
      "inputs": [
        {
          "internalType": "uint256",
          "name": "_depositLimit",
          "type": "uint256"
        }
      ],
      "name": "setDepositLimit",
      "outputs": [],
      "stateMutability": "nonpayable",
      "type": "function"
    },
    {
      "inputs": [],
      "name": "setters",
      "outputs": [
        {
          "internalType": "address",
          "name": "",
          "type": "address"
        }
      ],
      "stateMutability": "view",
      "type": "function"
    },
    {
      "inputs": [],
      "name": "sharesManager",
      "outputs": [
        {
          "internalType": "address",
          "name": "",
          "type": "address"
        }
      ],
      "stateMutability": "view",
      "type": "function"
    },
    {
      "inputs": [],
      "name": "shutdown",
      "outputs": [
        {
          "internalType": "bool",
          "name": "",
          "type": "bool"
        }
      ],
      "stateMutability": "view",
      "type": "function"
    },
    {
      "inputs": [
        {
          "internalType": "address",
          "name": "owner",
          "type": "address"
        },
        {
          "internalType": "address",
          "name": "spender",
          "type": "address"
        },
        {
          "internalType": "uint256",
          "name": "amount",
          "type": "uint256"
        }
      ],
      "name": "spendAllowance",
      "outputs": [],
      "stateMutability": "nonpayable",
      "type": "function"
    },
    {
      "inputs": [
        {
          "internalType": "address",
          "name": "",
          "type": "address"
        }
      ],
      "name": "strategies",
      "outputs": [
        {
          "internalType": "uint256",
          "name": "activation",
          "type": "uint256"
        },
        {
          "internalType": "uint256",
          "name": "lastReport",
          "type": "uint256"
        },
        {
          "internalType": "uint256",
          "name": "currentDebt",
          "type": "uint256"
        },
        {
          "internalType": "uint256",
          "name": "maxDebt",
          "type": "uint256"
        }
      ],
      "stateMutability": "view",
      "type": "function"
    },
    {
      "inputs": [],
      "name": "strategyManager",
      "outputs": [
        {
          "internalType": "address",
          "name": "",
          "type": "address"
        }
      ],
      "stateMutability": "view",
      "type": "function"
    },
    {
      "inputs": [],
      "name": "symbol",
      "outputs": [
        {
          "internalType": "string",
          "name": "",
          "type": "string"
        }
      ],
      "stateMutability": "view",
      "type": "function"
    },
    {
      "inputs": [],
      "name": "totalAssets",
      "outputs": [
        {
          "internalType": "uint256",
          "name": "",
          "type": "uint256"
        }
      ],
      "stateMutability": "view",
      "type": "function"
    },
    {
      "inputs": [],
      "name": "totalDebtAmount",
      "outputs": [
        {
          "internalType": "uint256",
          "name": "",
          "type": "uint256"
        }
      ],
      "stateMutability": "view",
      "type": "function"
    },
    {
      "inputs": [],
      "name": "totalIdleAmount",
      "outputs": [
        {
          "internalType": "uint256",
          "name": "",
          "type": "uint256"
        }
      ],
      "stateMutability": "view",
      "type": "function"
    },
    {
      "inputs": [],
      "name": "totalSupply",
      "outputs": [
        {
          "internalType": "uint256",
          "name": "",
          "type": "uint256"
        }
      ],
      "stateMutability": "view",
      "type": "function"
    },
    {
      "inputs": [],
      "name": "totalSupplyAmount",
      "outputs": [
        {
          "internalType": "uint256",
          "name": "",
          "type": "uint256"
        }
      ],
      "stateMutability": "view",
      "type": "function"
    },
    {
      "inputs": [
        {
          "internalType": "address",
          "name": "receiver",
          "type": "address"
        },
        {
          "internalType": "uint256",
          "name": "amount",
          "type": "uint256"
        }
      ],
      "name": "transfer",
      "outputs": [
        {
          "internalType": "bool",
          "name": "",
          "type": "bool"
        }
      ],
      "stateMutability": "nonpayable",
      "type": "function"
    },
    {
      "inputs": [
        {
          "internalType": "address",
          "name": "sender",
          "type": "address"
        },
        {
          "internalType": "address",
          "name": "receiver",
          "type": "address"
        },
        {
          "internalType": "uint256",
          "name": "amount",
          "type": "uint256"
        }
      ],
      "name": "transfer",
      "outputs": [],
      "stateMutability": "nonpayable",
      "type": "function"
    },
    {
      "inputs": [
        {
          "internalType": "address",
          "name": "sender",
          "type": "address"
        },
        {
          "internalType": "address",
          "name": "receiver",
          "type": "address"
        },
        {
          "internalType": "uint256",
          "name": "amount",
          "type": "uint256"
        }
      ],
      "name": "transferFrom",
      "outputs": [
        {
          "internalType": "bool",
          "name": "",
          "type": "bool"
        }
      ],
      "stateMutability": "nonpayable",
      "type": "function"
    },
    {
      "inputs": [],
      "name": "unlockedShares",
      "outputs": [
        {
          "internalType": "uint256",
          "name": "",
          "type": "uint256"
        }
      ],
      "stateMutability": "view",
      "type": "function"
    },
    {
      "inputs": [],
      "name": "useDefaultQueue",
      "outputs": [
        {
          "internalType": "bool",
          "name": "",
          "type": "bool"
        }
      ],
      "stateMutability": "view",
      "type": "function"
    },
    {
      "inputs": [
        {
          "internalType": "uint256",
          "name": "assets",
          "type": "uint256"
        },
        {
          "internalType": "address",
          "name": "receiver",
          "type": "address"
        },
        {
          "internalType": "address",
          "name": "owner",
          "type": "address"
        },
        {
          "internalType": "uint256",
          "name": "maxLoss",
          "type": "uint256"
        },
        {
          "internalType": "address[]",
          "name": "_strategies",
          "type": "address[]"
        }
      ],
      "name": "withdraw",
      "outputs": [
        {
          "internalType": "uint256",
          "name": "",
          "type": "uint256"
        }
      ],
      "stateMutability": "nonpayable",
      "type": "function"
    },
    {
      "inputs": [
        {
          "internalType": "address",
          "name": "strategy",
          "type": "address"
        },
        {
          "internalType": "uint256",
          "name": "assetsToWithdraw",
          "type": "uint256"
        }
      ],
      "name": "withdrawFromStrategy",
      "outputs": [],
      "stateMutability": "nonpayable",
      "type": "function"
    },
    {
      "inputs": [],
      "name": "withdrawLimitModule",
      "outputs": [
        {
          "internalType": "address",
          "name": "",
          "type": "address"
        }
      ],
      "stateMutability": "view",
      "type": "function"
    }
  ],
  "transactionHash": "0x8ba5036cc70ac943344c7d564f5c0f69e5b5be60df0b87e9da3eb4906dd5caba",
  "args": [
    "0x1b13fEDd2E955E1cE15b0DaAa9cD5f6aE815F7C0",
    18,
    "Vault Shares FXD",
    "vFXD"
  ],
  "numDeployments": 1,
  "solcInputHash": "483db0298175bf5cc0b740674336c683",
  "bytecode": "0x60e06040526301e185586080523480156200001957600080fd5b50604051620045f4380380620045f48339810160408190526200003c9162000222565b6001601b5560ff831660c0819052610100116200006c5760405163e236476560e01b815260040160405180910390fd5b6001600160a01b03841660a052601c620000878382620003c5565b50601d620000968282620003c5565b505050505062000495565b60006001600160a01b0382165b92915050565b620000bf81620000a1565b8114620000cb57600080fd5b50565b8051620000ae81620000b4565b60ff8116620000bf565b8051620000ae81620000db565b634e487b7160e01b600052604160045260246000fd5b601f19601f83011681018181106001600160401b0382111715620001305762000130620000f2565b6040525050565b60006200014360405190565b905062000151828262000108565b919050565b60006001600160401b03821115620001725762000172620000f2565b601f19601f83011660200192915050565b60005b83811015620001a057818101518382015260200162000186565b50506000910152565b6000620001c0620001ba8462000156565b62000137565b905082815260208101848484011115620001dd57620001dd600080fd5b620001ea84828562000183565b509392505050565b600082601f830112620002085762000208600080fd5b81516200021a848260208601620001a9565b949350505050565b600080600080608085870312156200023d576200023d600080fd5b60006200024b8787620000ce565b94505060206200025e87828801620000e5565b93505060408501516001600160401b038111156200027f576200027f600080fd5b6200028d87828801620001f2565b92505060608501516001600160401b03811115620002ae57620002ae600080fd5b620002bc87828801620001f2565b91505092959194509250565b634e487b7160e01b600052602260045260246000fd5b600281046001821680620002f357607f821691505b602082108103620003085762000308620002c8565b50919050565b6000620000ae6200031c8381565b90565b6200032a836200030e565b81546008840282811b60001990911b908116901990911617825550505050565b6000620003598184846200031f565b505050565b818110156200037d57620003746000826200034a565b6001016200035e565b5050565b601f82111562000359576000818152602090206020601f85010481016020851015620003aa5750805b620003be6020601f8601048301826200035e565b5050505050565b81516001600160401b03811115620003e157620003e1620000f2565b620003ed8254620002de565b620003fa82828562000381565b6020601f831160018114620004315760008415620004185750858201515b600019600886021c19811660028602178655506200048d565b600085815260208120601f198616915b8281101562000463578885015182556020948501946001909201910162000441565b86831015620004805784890151600019601f89166008021c191682555b6001600288020188555050505b505050505050565b60805160a05160c0516140fe620004f66000396000818161061201526106430152600081816106910152818161075e0152818161278e0152818161299501528181612d3a0152818161314601526133ce015260006105a701526140fe6000f3fe608060405234801561001057600080fd5b50600436106104705760003560e01c80637ecebe00116102555780637ecebe00146109395780637ff00077146109595780638340f5491461096c5780638afca8f01461097f578063919860031461098857806394bf804d1461099b57806395d89b41146109ae57806399167fb4146109b657806399374642146109c95780639e34e348146109e95780639f3988f3146109fc578063a9059cbb14610a23578063a98222c414610a36578063ab5b4d4914610a5d578063acded97d14610a84578063b3c187f214610a97578063b3d7f6b914610aaa578063b53d095814610abd578063bbe4eb4914610ad0578063bdc8144b14610add578063beabacc814610af0578063bee7e3d914610b03578063c034969414610b16578063c065ca0714610b29578063c0993eea14610b50578063c63d75b614610b77578063c6c3bbe614610b8a578063c6e6f59214610b9d578063c8d74b6014610bb0578063c8dffa9514610bd7578063ca4c1c3714610be0578063d4ae064f14610bf3578063d505accf14610c1a578063d73b1dc914610c2d578063d81a09f614610c40578063d9a0e97a14610c53578063dd62ed3e14610c5b578063dd8aaa4f14610c94578063e0bf18ad14610ca7578063e1f21c6714610caf578063ec6e566e14610cc2578063ecf7085814610cd5578063ef8b30f714610b9d578063f1daeba814610cde578063f5b944eb14610d05578063f828f50b14610d2c578063fc0e74d114610d35578063fd967f4714610d49578063fec61f0614610d52578063ff1e7f0814610d7957600080fd5b8062435da51461047557806301e1d1141461049e57806303dcd12c146104b357806306580f2d146104da57806306fdde03146104ed57806307a2d13a146105025780630835a3fc146105155780630952864e1461051e578063095ea7b3146105275780630a28a477146105475780630ad283d01461055a5780630ceca2441461058157806316d3bfbb146105a257806318160ddd146105c95780631e957955146105d157806323b872dd146105f15780632d632692146106045780632e0f26251461060d578063313ce5671461064157806334b5fab6146106675780633644e5151461067a57806336fba0841461068357806338d52e0f1461068f57806339b70e38146106b557806339ebf823146106c85780633cd7b5ab1461070d5780633e986eed146107165780633f7b5e401461072b578063402d267d146107335780634542abe2146107465780634800d97f146107595780634cdad506146105025780634ce1d38a1461078d5780634cfe51dc146107b45780634d4bb197146107db5780634fb3ccc5146107f05780635141eebb1461080357806353a661321461080c5780635a5690991461082f5780635aa6e675146108425780635bf6b4fb146108555780635d4086af1461087c578063652da3241461088f57806365cb6765146108b65780636c43a2ca146108c95780636e553f65146108dc57806370a08231146108ef5780637659bcc61461090257806377e3b26714610915575b600080fd5b601354610488906001600160a01b031681565b6040516104959190613444565b60405180910390f35b6104a6610d8c565b6040516104959190613458565b6104a67f633076a97f32ae349b28772e7b1483f67a926f150cbc501d02bdbd77389325ab81565b6104a66104e83660046135a2565b610d9b565b6104f5610dd9565b604051610495919061368c565b6104a661051036600461369d565b610e67565b6104a6600c5481565b6104a660155481565b61053a6105353660046136be565b610e7a565b6040516104959190613703565b6104a661055536600461369d565b610e8e565b6104a67fc723f4dd6268e1c374639e36d629c765285ee7003913389d582c300f186dde9781565b61059461058f3660046137e1565b610e9b565b60405161049592919061384f565b6104a67f000000000000000000000000000000000000000000000000000000000000000081565b6104a6611199565b6105e46105df36600461386a565b6111a3565b60405161049591906138f1565b61053a6105ff3660046138ff565b611229565b6104a660165481565b6106347f000000000000000000000000000000000000000000000000000000000000000081565b604051610495919061393d565b7f0000000000000000000000000000000000000000000000000000000000000000610634565b6104a661067536600461394b565b61124b565b6104a6601a5481565b6104a664e8d4a5100081565b7f0000000000000000000000000000000000000000000000000000000000000000610488565b600054610488906001600160a01b031681565b6106fd6106d63660046139ab565b60046020526000908152604090208054600182015460028301546003909301549192909184565b60405161049594939291906139cc565b6104a6600b5481565b610729610724366004613a01565b611299565b005b6104a6600a81565b6104a66107413660046139ab565b61133b565b610729610754366004613a23565b611346565b6107807f000000000000000000000000000000000000000000000000000000000000000081565b6040516104959190613abf565b6104a67f69d1171ac0a63777a6733cda21aec9ed3d48a4fd11f273c934a691dec5e5589c81565b6104a67f862f91c9d89d6135b19873b921c90b702cb2e175c371b8430026b9577e69111981565b6104a660008051602061404983398151915281565b600e54610488906001600160a01b031681565b6104a660175481565b61053a61081a36600461369d565b60126020526000908152604090205460ff1681565b6104a661083d3660046136be565b611358565b600354610488906001600160a01b031681565b6104a67fea672c1c09cd95c51af9509f646f3615ff0071aae8652bd821471ee9037fd72c81565b6104a661088a366004613ae5565b61139e565b6104a67fcd9f023a942ee35097ead74b2505bea9f2c5d47465db92dd195cf7f01a41cfe181565b6104a66108c436600461394b565b6113aa565b61053a6108d73660046138ff565b6113b7565b6104a66108ea366004613b18565b6113c4565b6104a66108fd3660046139ab565b6113e5565b6104a6610910366004613b18565b61143e565b6104f5604051806040016040528060058152602001640312e302e360dc1b81525081565b6104a66109473660046139ab565b60196020526000908152604090205481565b6104a6610967366004613ae5565b61144a565b6104a661097a3660046138ff565b611456565b6104a660185481565b601054610488906001600160a01b031681565b6104a66109a9366004613b18565b611463565b6104f5611478565b6107296109c4366004613b18565b611485565b6104a66109d73660046139ab565b60116020526000908152604090205481565b600f54610488906001600160a01b031681565b6104a67f6f430d649a8640e48ff9bfbc353b3f99ed630163857821b3b4075e3871dafbf581565b61053a610a313660046136be565b611493565b6104a67f2f0dbbe8c2c0170206c50ec0cafa1c0dbd03e73e67c2a960178df30a0a30ee2e81565b6104a67f900d80def0427daac599092fcb16b21808ec68dd9a2e1eae89d1e8db2135737581565b600154610488906001600160a01b031681565b601454610488906001600160a01b031681565b6104a6610ab836600461369d565b6114e5565b610729610acb3660046136be565b6114f2565b60065461053a9060ff1681565b610729610aeb36600461369d565b6114fc565b610729610afe3660046138ff565b611595565b600254610488906001600160a01b031681565b610729610b243660046138ff565b6115a0565b6104a67f2a0e761830cc61f2707ea7bb138008bf9dda7f7d34c77736d0a116604e95ea1681565b6104a67f8b73c3c69bb8fe3d512ecc4cf759cc79239f7b179b0ffacaa9a75d522b39400f81565b6104a6610b853660046139ab565b611671565b6104a6610b983660046138ff565b61168a565b6104a6610bab36600461369d565b611697565b6104a67f152ebba56b9738ee3d8baea1b76fa31dcdcd79b1929bfea7d58ee12cfdf1a65381565b6104a6600a5481565b610729610bee366004613b18565b6116a4565b6104a67fa18eaea71a088b547b8c932b48861853b3434d9a3240b94466c607e28b69659581565b61053a610c28366004613b5f565b6116ae565b61053a610c3b3660046138ff565b6118a0565b6104a6610c4e3660046135a2565b6118ee565b6104a6611918565b6104a6610c69366004613bfe565b6001600160a01b03918216600090815260086020908152604080832093909416825291909152205490565b610729610ca23660046138ff565b611922565b61072961192d565b61053a610cbd3660046138ff565b611960565b610729610cd03660046138ff565b61196d565b6104a6600d5481565b6104a67f7cbb3cdf689b8ea3e9d265f66bc4e0a99069268217017d38d2a5a559abc6271981565b6104a67ff206625bad3d9112d5609b8d356e6fbd514cd1f69980d4ce2b3e6e68e1789ace81565b6104a660095481565b60145461053a90600160a01b900460ff1681565b6104a661271081565b6104a67fd45f7ccff42f059d4e47c3f027c444272257266f7e88b981e142f0aa38fbfd7881565b610488610d8736600461369d565b611978565b6000610d966119a2565b905090565b6000610da56119b4565b6000610db28760006119dd565b9050610dc3328787848b8989611a73565b915050610dd06001601b55565b95945050505050565b601c8054610de690613c36565b80601f0160208091040260200160405190810160405280929190818152602001828054610e1290613c36565b8015610e5f5780601f10610e3457610100808354040283529160200191610e5f565b820191906000526020600020905b815481529060010190602001808311610e4257829003601f168201915b505050505081565b6000610e748260006119dd565b92915050565b6000610e87338484611b10565b9392505050565b6000610e74826001611ba8565b60008060008087602001511115610fee576020870151600154600e546040516370a0823160e01b8152610faa9392610fa5926001600160a01b03918216926370a0823192610eed921690600401613444565b602060405180830381865afa158015610f0a573d6000803e3d6000fd5b505050506040513d601f19601f82011682018060405250810190610f2e9190613c6d565b600154600e54604051636eb1769f60e11b81526001600160a01b039283169263dd62ed3e92610f64929116903090600401613c8e565b602060405180830381865afa158015610f81573d6000803e3d6000fd5b505050506040513d601f19601f82011682018060405250810190610fa59190613c6d565b611c56565b60208801819052600154600e54610fd2926001600160a01b0392831692909116903090611c6c565b8660200151600b6000828254610fe89190613cbf565b90915550505b851561103e576001600160a01b0384166000908152600460205260408120600201805488929061101f908490613cbf565b9250508190555085600a60008282546110389190613cbf565b90915550505b60008760200151876110509190613cbf565b11801561105e575060155415155b1561107f5761107c8760200151876110769190613cbf565b30611d48565b90505b84156110cf576001600160a01b038416600090815260046020526040812060020180548792906110b0908490613cd2565b9250508190555084600a60008282546110c99190613cd2565b90915550505b306000908152600760205260408120546110ea908390613cd2565b89519091501561114b57885161110490610fa58484613cbf565b808a526111119030611dfd565b60006111218a6000015184611c56565b905061112d8184613cd2565b8a5190935061113d908290613cd2565b6111479083613cd2565b9150505b602089015115611170576020890151600e5461117091906001600160a01b0316611eb4565b60408901511561118c5761118c89604001518960600151611eb4565b9890975095505050505050565b6000610d96611f4d565b6111ab6133fd565b6111b36133fd565b60006111bf8587613cbf565b1115611221576111d96111d28587613cbf565b6001611ba8565b815182906111e8908390613cbf565b9052508315611221576112056111fe8486613cd2565b6000611ba8565b602082015282156112215761121b836000611ba8565b60408201525b949350505050565b6000611236843384611f64565b611241848484611fc6565b5060019392505050565b6000806112598585856120c3565b90506000611268826001611ba8565b6001600160a01b03871660009081526007602052604090205490915061128f908290611c56565b9695505050505050565b60006112a58284613cbf565b905080156113305760004260165411156112d457426016546112c79190613cd2565b6112d19085613ce5565b90505b600082601554856112e59190613ce5565b6112ef9084613cbf565b6112f99190613d1a565b90508061130b64e8d4a5100085613ce5565b6113159190613d1a565b6017556113228142613cbf565b601655505042601855505050565b60006017555b505050565b6000610e748261248d565b61135284848484611c6c565b50505050565b6001600160a01b038216600090815260046020526040812060020154821115611394576040516337deae0760e01b815260040160405180910390fd5b610e878383612565565b6000610e878383611ba8565b60006112218484846120c3565b60006112218484846126c6565b60006113ce6119b4565b6113d93383856126fb565b9050610e746001601b55565b6000306001600160a01b03831603611422576113ff612895565b6001600160a01b038316600090815260076020526040902054610e749190613cd2565b506001600160a01b031660009081526007602052604090205490565b6000610e878383611d48565b6000610e8783836119dd565b60006112218484846126fb565b600061146d6119b4565b6113d93383856128f3565b601d8054610de690613c36565b61148f8282611dfd565b5050565b60006001600160a01b0383163014806114b357506001600160a01b038316155b156114d15760405163d92e233d60e01b815260040160405180910390fd5b6114dc338484611fc6565b50600192915050565b6000610e748260016119dd565b61148f8282612a67565b601454600160a01b900460ff16151560010361152b57604051630f3c386760e01b815260040160405180910390fd5b600f546001600160a01b031615611555576040516364b9991160e11b815260040160405180910390fd5b600d8190556040517fae565aab888bca5e19e25a13db7b0c9144305bf55cb0f3f4d724f730e5acdd629061158a908390613458565b60405180910390a150565b611336838383611fc6565b6001600160a01b03831615806115bd57506001600160a01b038216155b156115db5760405163d92e233d60e01b815260040160405180910390fd5b60405163095ea7b360e01b81526001600160a01b0384169063095ea7b3906116099085908590600401613d2e565b6020604051808303816000875af1158015611628573d6000803e3d6000fd5b505050506040513d601f19601f8201168201806040525081019061164c9190613d4f565b6113365760405162461bcd60e51b815260040161166890613d99565b60405180910390fd5b60008061167d8361248d565b9050610e87816000611ba8565b60006112218484846128f3565b6000610e74826000611ba8565b61148f8282611eb4565b60006001600160a01b0388166116d75760405163d92e233d60e01b815260040160405180910390fd5b428510156116f8576040516363bef56160e11b815260040160405180910390fd5b6001600160a01b038816600090815260196020908152604080832054905190929161173d91600080516020614049833981519152918d918d918d9188918e9101613da9565b6040516020818303038152906040528051906020012090506000601a548260405160200161176c929190613df8565b6040516020818303038152906040528051906020012090506000600182898989604051600081526020016040526040516117a99493929190613e29565b6020604051602081039080840390855afa1580156117cb573d6000803e3d6000fd5b5050604051601f1901519150506001600160a01b038116158061180057508b6001600160a01b0316816001600160a01b031614155b1561181e576040516310454c9960e31b815260040160405180910390fd5b6118298c8c8c611b10565b506001600160a01b038c16600090815260196020526040812080549161184e83613e44565b91905055508a6001600160a01b03168c6001600160a01b03166000805160206140698339815191528c6040516118849190613458565b60405180910390a360019450505050505b979650505050505050565b6001600160a01b03808416600090815260086020908152604080832093861683529290529081205481906118d5908490613cd2565b90506118e2858583611b10565b50600195945050505050565b6000806118fc876001611ba8565b905061190d3287878a858989611a73565b509695505050505050565b6000610d96612895565b611336838383611f64565b6000611937612895565b9050806000036119445750565b42601654111561195357426018555b61195d8130611dfd565b50565b6000611221848484611b10565b611336838383612b7b565b6005818154811061198857600080fd5b6000918252602090912001546001600160a01b0316905081565b6000600a54600b54610d969190613cbf565b6002601b54036119d65760405162461bcd60e51b815260040161166890613e92565b6002601b55565b60006000198314806119ed575082155b156119f9575081610e74565b6000611a03611f4d565b905080600003611a165783915050610e74565b6000611a206119a2565b611a2a9086613ce5565b90506000611a388383613d1a565b90506001856001811115611a4e57611a4e613ea2565b148015611a635750611a608383613eb8565b15155b15610dd05761128f600182613cbf565b6000611a8187878686612c43565b611a8c868986612ce7565b600080611a998785612d0b565b91509150611aac8989888a86868b61335d565b876001600160a01b0316896001600160a01b03168b6001600160a01b03167ffbde797d201c681b91056529119e0b02407c7bb96a4a2c75c01fc9667232c8db858a604051611afb92919061384f565b60405180910390a45098975050505050505050565b60006001600160a01b0384161580611b2f57506001600160a01b038316155b15611b4d5760405163d92e233d60e01b815260040160405180910390fd5b6001600160a01b03808516600081815260086020908152604080832094881680845294909152908190208590555160008051602061406983398151915290611b96908690613458565b60405180910390a35060019392505050565b6000600019831480611bb8575082155b15611bc4575081610e74565b6000611bce611f4d565b90506000611bda6119a2565b905080600003611c015781600003611bf6578492505050610e74565b600092505050610e74565b6000611c0d8387613ce5565b90506000611c1b8383613d1a565b90506001866001811115611c3157611c31613ea2565b148015611c465750611c438383613eb8565b15155b1561128f57611895600182613cbf565b6000818310611c655781610e87565b5090919050565b6001600160a01b0384161580611c8957506001600160a01b038316155b80611c9b57506001600160a01b038216155b15611cb95760405163d92e233d60e01b815260040160405180910390fd5b6040516323b872dd60e01b81526001600160a01b038516906323b872dd90611ce990869086908690600401613ecc565b6020604051808303816000875af1158015611d08573d6000803e3d6000fd5b505050506040513d601f19601f82011682018060405250810190611d2c9190613d4f565b6113525760405162461bcd60e51b815260040161166890613f1a565b60006001600160a01b038216611d715760405163d92e233d60e01b815260040160405180910390fd5b6000611d7b611f4d565b90506000611d876119a2565b9050600082600003611d9a575084611ddf565b85821115611dc757611dac8683613cd2565b611db68488613ce5565b611dc09190613d1a565b9050611ddf565b60405162461bcd60e51b815260040161166890613f50565b80600003611df35760009350505050610e74565b610dd08186611eb4565b6001600160a01b038116600090815260076020526040902054821115611e3657604051633999656760e01b815260040160405180910390fd5b6001600160a01b03811660009081526007602052604081208054849290611e5e908490613cd2565b925050819055508160096000828254611e779190613cd2565b90915550506040516000906001600160a01b0383169060008051602061402983398151915290611ea8908690613458565b60405180910390a35050565b6001600160a01b038116611edb5760405163d92e233d60e01b815260040160405180910390fd5b6001600160a01b03811660009081526007602052604081208054849290611f03908490613cbf565b925050819055508160096000828254611f1c9190613cbf565b90915550506040516001600160a01b0382169060009060008051602061402983398151915290611ea8908690613458565b6000611f57612895565b600954610d969190613cd2565b6001600160a01b0380841660009081526008602090815260408083209386168352929052205481811015611fab5760405163017e286b60e51b815260040160405180910390fd5b611fbf8484611fba8585613cd2565b611b10565b5050505050565b6001600160a01b038316600090815260076020526040902054818110156120005760405163356680b760e01b815260040160405180910390fd5b6001600160a01b038416158061201d57506001600160a01b038316155b1561203b5760405163d92e233d60e01b815260040160405180910390fd5b6120458282613cd2565b6001600160a01b0380861660009081526007602052604080822093909355908516815220546120748382613cbf565b6001600160a01b038086166000818152600760205260409081902093909355915190871690600080516020614029833981519152906120b4908790613458565b60405180910390a35050505050565b6001600160a01b03831660009081526007602052604081205481906120e890826119dd565b6010549091506001600160a01b03161561218a57601054604051632319b8cf60e01b81526000916001600160a01b031690632319b8cf9061213190899089908990600401613fbd565b6020604051808303816000875af1158015612150573d6000803e3d6000fd5b505050506040513d601f19601f820116820180604052508101906121749190613c6d565b905081811015612182578091505b509050610e87565b600b548082111561248457835181906000908190158015906121af575060065460ff16155b61221357600580548060200260200160405190810160405280929190818152602001828054801561220957602002820191906000526020600020905b81546001600160a01b031681526001909101906020018083116121eb575b5050505050612215565b865b905060005b815181101561247d57600082828151811061223757612237613fea565b6020026020010151905060046000826001600160a01b03166001600160a01b031681526020019081526020016000206000015460000361228a57604051630631bc2160e51b815260040160405180910390fd5b60006122ba612299878a613cd2565b6001600160a01b038416600090815260046020526040902060020154611c56565b905060006122c88383612565565b90506000836001600160a01b03166307a2d13a856001600160a01b031663d905777e306040518263ffffffff1660e01b81526004016123079190613444565b602060405180830381865afa158015612324573d6000803e3d6000fd5b505050506040513d601f19601f820116820180604052508101906123489190613c6d565b6040518263ffffffff1660e01b81526004016123649190613458565b602060405180830381865afa158015612381573d6000803e3d6000fd5b505050506040513d601f19601f820116820180604052508101906123a59190613c6d565b90506123b18284613cd2565b8110156123dc57826123c38284613ce5565b6123cd9190613d1a565b91506123d98282613cbf565b92505b826000036123ed575050505061246b565b6000821180156123fe57506127108d105b1561243e576127108d612411858b613cbf565b61241b9190613ce5565b6124259190613d1a565b61242f8389613cbf565b111561243e575050505061247d565b6124488389613cbf565b975089881061245a575050505061247d565b6124648288613cbf565b9650505050505b8061247581613e44565b91505061221a565b5091935050505b50949350505050565b60006001600160a01b0382163014806124ad57506001600160a01b038216155b156124ba57506000919050565b600f546001600160a01b0316801561253957604051632355178960e11b81526001600160a01b038216906346aa2f12906124f8908690600401613444565b602060405180830381865afa158015612515573d6000803e3d6000fd5b505050506040513d601f19601f82011682018060405250810190610e879190613c6d565b60006125436119a2565b600d5490915080821061255b57506000949350505050565b610dd08282613cd2565b6001600160a01b03821660008181526004602081905260408083206002015490516370a0823160e01b81529293909284926370a08231916125a891309101613444565b602060405180830381865afa1580156125c5573d6000803e3d6000fd5b505050506040513d601f19601f820116820180604052508101906125e99190613c6d565b90506000856001600160a01b03166307a2d13a836040518263ffffffff1660e01b81526004016126199190613458565b602060405180830381865afa158015612636573d6000803e3d6000fd5b505050506040513d601f19601f8201168201806040525081019061265a9190613c6d565b90508281101580612669575082155b1561267a5760009350505050610e74565b60006126868287613ce5565b905060006126948583613d1a565b61269e9088613cd2565b90506126aa8583613eb8565b15611895576126ba600182613cbf565b98975050505050505050565b6001600160a01b03808416600090815260086020908152604080832093861683529290529081205481906118d5908490613cbf565b601454600090600160a01b900460ff16151560010361272d57604051630f3c386760e01b815260040160405180910390fd5b6127368361248d565b821115612756576040516325d16c5160e01b815260040160405180910390fd5b6000821161277757604051637c946ed760e01b815260040160405180910390fd5b6040516323b872dd60e01b81526001600160a01b037f000000000000000000000000000000000000000000000000000000000000000016906323b872dd906127c790329030908790600401613ecc565b6020604051808303816000875af11580156127e6573d6000803e3d6000fd5b505050506040513d601f19601f8201168201806040525081019061280a9190613d4f565b5081600b600082825461281d9190613cbf565b909155506000905061282f8385611d48565b90506000811161285257604051637c946ed760e01b815260040160405180910390fd5b836001600160a01b0316856001600160a01b0316600080516020614089833981519152858460405161288592919061384f565b60405180910390a3949350505050565b60165460009081428211156128d65764e8d4a51000601854426128b89190613cd2565b6017546128c59190613ce5565b6128cf9190613d1a565b9050610e74565b8115610e7457503060009081526007602052604090205492915050565b601454600090600160a01b900460ff16151560010361292557604051630f3c386760e01b815260040160405180910390fd5b60006129328360016119dd565b90506000811161295557604051637c946ed760e01b815260040160405180910390fd5b61295e8461248d565b81111561297e576040516325d16c5160e01b815260040160405180910390fd5b6040516323b872dd60e01b81526001600160a01b037f000000000000000000000000000000000000000000000000000000000000000016906323b872dd906129ce90339030908690600401613ecc565b6020604051808303816000875af11580156129ed573d6000803e3d6000fd5b505050506040513d601f19601f82011682018060405250810190612a119190613d4f565b5080600b6000828254612a249190613cbf565b90915550612a3490508385611eb4565b836001600160a01b0316856001600160a01b0316600080516020614089833981519152838660405161288592919061384f565b6000612b05836001600160a01b0316630a28a477846040518263ffffffff1660e01b8152600401612a989190613458565b602060405180830381865afa158015612ab5573d6000803e3d6000fd5b505050506040513d601f19601f82011682018060405250810190612ad99190613c6d565b6040516370a0823160e01b81526001600160a01b038616906370a0823190610f64903090600401613444565b604051635d043b2960e11b81529091506001600160a01b0384169063ba08765290612b3890849030908190600401614000565b6020604051808303816000875af1158015612b57573d6000803e3d6000fd5b505050506040513d601f19601f820116820180604052508101906113529190613c6d565b6001600160a01b0383161580612b9857506001600160a01b038216155b15612bb65760405163d92e233d60e01b815260040160405180910390fd5b60405163a9059cbb60e01b81526001600160a01b0384169063a9059cbb90612be49085908590600401613d2e565b6020604051808303816000875af1158015612c03573d6000803e3d6000fd5b505050506040513d601f19601f82011682018060405250810190612c279190613d4f565b6113365760405162461bcd60e51b815260040161166890613f1a565b6001600160a01b038416612c6a5760405163d92e233d60e01b815260040160405180910390fd5b612710811115612c8d57604051631a7ed0a160e31b815260040160405180910390fd5b60008211612cae57604051637c946ed760e01b815260040160405180910390fd5b6001600160a01b03831660009081526007602052604090205482111561135257604051633999656760e01b815260040160405180910390fd5b826001600160a01b0316826001600160a01b03161461133657611336838383611f64565b60008060006040518060c00160405280868152602001600b548152602001600a548152602001600081526020017f00000000000000000000000000000000000000000000000000000000000000006001600160a01b03166370a08231306040518263ffffffff1660e01b8152600401612d849190613444565b602060405180830381865afa158015612da1573d6000803e3d6000fd5b505050506040513d601f19601f82011682018060405250810190612dc59190613c6d565b815260006020918201528101518151919250101561334a5760008451600014158015612df4575060065460ff16155b612e58576005805480602002602001604051908101604052809291908181526020018280548015612e4e57602002820191906000526020600020905b81546001600160a01b03168152600190910190602001808311612e30575b5050505050612e5a565b845b60208301518351919250612e6d91613cd2565b606083015260005b8151811015613319576000828281518110612e9257612e92613fea565b6020026020010151905060046000826001600160a01b03166001600160a01b0316815260200190815260200160002060000154600003612ee557604051630631bc2160e51b815260040160405180910390fd5b6001600160a01b0381166000908152600460205260408120600201546060860151909190612f139083611c56565b90506000836001600160a01b03166307a2d13a856001600160a01b031663d905777e306040518263ffffffff1660e01b8152600401612f529190613444565b602060405180830381865afa158015612f6f573d6000803e3d6000fd5b505050506040513d601f19601f82011682018060405250810190612f939190613c6d565b6040518263ffffffff1660e01b8152600401612faf9190613458565b602060405180830381865afa158015612fcc573d6000803e3d6000fd5b505050506040513d601f19601f82011682018060405250810190612ff09190613c6d565b90506000612ffe8584612565565b90508015613104576130108184613cd2565b82101561304a5760006130238285613cd2565b9050806130308484613ce5565b61303a9190613d1a565b91506130468284613cbf565b9350505b6130548184613cd2565b925080886000018181516130689190613cd2565b90525060608801805182919061307f908390613cd2565b905250604088018051829190613096908390613cd2565b905250811580156130a75750600081115b156131045760006130b88286613cd2565b6001600160a01b0387166000818152600460205260409081902060020183905551919250906000805160206140a9833981519152906130fa908890859061384f565b60405180910390a2505b61310e8383611c56565b925082600003613122575050505050613307565b61312c8584612a67565b6040516370a0823160e01b81526000906001600160a01b037f000000000000000000000000000000000000000000000000000000000000000016906370a082319061317b903090600401613444565b602060405180830381865afa158015613198573d6000803e3d6000fd5b505050506040513d601f19601f820116820180604052508101906131bc9190613c6d565b905060008960800151826131d09190613cd2565b905060008582111561320757868211156131ec5786955061321c565b6131f68683613cd2565b6132009087613cbf565b955061321c565b8582101561321c576132198287613cd2565b90505b6132268187613cd2565b8b6020018181516132379190613cbf565b9052508a5181908c9061324b908390613cd2565b90525060408b018051879190613262908390613cd2565b90525060006132718588613cbf565b61327b9089613cd2565b6001600160a01b038a166000818152600460205260409081902060020183905551919250906000805160206140a9833981519152906132bd908b90859061384f565b60405180910390a260208c01518c51116132df57505050505050505050613319565b60808c0184905260608c0180518891906132fa908390613cd2565b9052505050505050505050505b8061331181613e44565b915050612e75565b50815160208301511015613340576040516396d8043360e01b815260040160405180910390fd5b506040810151600a555b8051602090910151909590945092505050565b828411801561336d575061271081105b156133b25761271061337f8286613ce5565b6133899190613d1a565b6133938486613cd2565b11156133b2576040516307f65e3960e11b815260040160405180910390fd5b6133bc8587611dfd565b6133c68383613cd2565b600b556133f47f00000000000000000000000000000000000000000000000000000000000000008885612b7b565b50505050505050565b60405180606001604052806000815260200160008152602001600081525090565b6001600160a01b031690565b6000610e748261341e565b61343e8161342a565b82525050565b60208101610e748284613435565b8061343e565b60208101610e748284613452565b805b811461195d57600080fd5b8035610e7481613466565b6134688161342a565b8035610e748161347e565b601f01601f191690565b634e487b7160e01b600052604160045260246000fd5b6134bb82613492565b81018181106001600160401b03821117156134d8576134d861349c565b6040525050565b60006134ea60405190565b90506134f682826134b2565b919050565b60006001600160401b038211156135145761351461349c565b5060209081020190565b600061353161352c846134fb565b6134df565b8381529050602080820190840283018581111561355057613550600080fd5b835b8181101561357457806135658882613487565b84525060209283019201613552565b5050509392505050565b600082601f83011261359257613592600080fd5b813561122184826020860161351e565b600080600080600060a086880312156135bd576135bd600080fd5b60006135c98888613473565b95505060206135da88828901613487565b94505060406135eb88828901613487565b93505060606135fc88828901613473565b92505060808601356001600160401b0381111561361b5761361b600080fd5b6136278882890161357e565b9150509295509295909350565b60005b8381101561364f578181015183820152602001613637565b50506000910152565b6000613662825190565b808452602084019350613679818560208601613634565b61368281613492565b9093019392505050565b60208082528101610e878184613658565b6000602082840312156136b2576136b2600080fd5b60006112218484613473565b600080604083850312156136d4576136d4600080fd5b60006136e08585613487565b92505060206136f185828601613473565b9150509250929050565b80151561343e565b60208101610e7482846136fb565b60006060828403121561372657613726600080fd5b61373060606134df565b9050600061373e8484613473565b825250602061374f84848301613473565b602083015250604061376384828501613473565b60408301525092915050565b60006080828403121561378457613784600080fd5b61378e60806134df565b9050600061379c8484613473565b82525060206137ad84848301613473565b60208301525060406137c184828501613473565b60408301525060606137d584828501613487565b60608301525092915050565b600080600080600061014086880312156137fd576137fd600080fd5b60006138098888613711565b955050606061381a8882890161376f565b94505060e061382b88828901613473565b93505061010061383d88828901613473565b92505061012061362788828901613487565b6040810161385d8285613452565b610e876020830184613452565b60008060006060848603121561388257613882600080fd5b600061388e8686613473565b935050602061389f86828701613473565b92505060406138b086828701613473565b9150509250925092565b805160608301906138cb8482613452565b5060208201516138de6020850182613452565b5060408201516113526040850182613452565b60608101610e7482846138ba565b60008060006060848603121561391757613917600080fd5b60006139238686613487565b935050602061389f86828701613487565b60ff811661343e565b60208101610e748284613934565b60008060006060848603121561396357613963600080fd5b600061396f8686613487565b935050602061398086828701613473565b92505060408401356001600160401b0381111561399f5761399f600080fd5b6138b08682870161357e565b6000602082840312156139c0576139c0600080fd5b60006112218484613487565b608081016139da8287613452565b6139e76020830186613452565b6139f46040830185613452565b610dd06060830184613452565b60008060408385031215613a1757613a17600080fd5b60006136e08585613473565b60008060008060808587031215613a3c57613a3c600080fd5b6000613a488787613487565b9450506020613a5987828801613487565b9350506040613a6a87828801613487565b9250506060613a7b87828801613473565b91505092959194509250565b6000610e74613a9b613a988461341e565b90565b61341e565b6000610e7482613a87565b6000610e7482613aa0565b61343e81613aab565b60208101610e748284613ab6565b6002811061195d57600080fd5b8035610e7481613acd565b60008060408385031215613afb57613afb600080fd5b6000613b078585613473565b92505060206136f185828601613ada565b60008060408385031215613b2e57613b2e600080fd5b6000613b3a8585613473565b92505060206136f185828601613487565b60ff8116613468565b8035610e7481613b4b565b600080600080600080600060e0888a031215613b7d57613b7d600080fd5b6000613b898a8a613487565b9750506020613b9a8a828b01613487565b9650506040613bab8a828b01613473565b9550506060613bbc8a828b01613473565b9450506080613bcd8a828b01613b54565b93505060a0613bde8a828b01613473565b92505060c0613bef8a828b01613473565b91505092959891949750929550565b60008060408385031215613c1457613c14600080fd5b6000613b3a8585613487565b634e487b7160e01b600052602260045260246000fd5b600281046001821680613c4a57607f821691505b602082108103613c5c57613c5c613c20565b50919050565b8051610e7481613466565b600060208284031215613c8257613c82600080fd5b60006112218484613c62565b60408101613c9c8285613435565b610e876020830184613435565b634e487b7160e01b600052601160045260246000fd5b80820180821115610e7457610e74613ca9565b81810381811115610e7457610e74613ca9565b6000816000190483118215151615613cff57613cff613ca9565b500290565b634e487b7160e01b600052601260045260246000fd5b600082613d2957613d29613d04565b500490565b6040810161385d8285613435565b801515613468565b8051610e7481613d3c565b600060208284031215613d6457613d64600080fd5b60006112218484613d44565b600f81526000602082016e185c1c1c9bdd985b0819985a5b1959608a1b815291505b5060200190565b60208082528101610e7481613d70565b60c08101613db78289613452565b613dc46020830188613435565b613dd16040830187613435565b613dde6060830186613452565b613deb6080830185613452565b61189560a0830184613452565b61190160f01b81526002016000613e0f8285613452565b602082019150613e1f8284613452565b5060200192915050565b60808101613e378287613452565b6139e76020830186613934565b60006000198203613e5757613e57613ca9565b5060010190565b601f81526000602082017f5265656e7472616e637947756172643a207265656e7472616e742063616c6c0081529150613d92565b60208082528101610e7481613e5e565b634e487b7160e01b600052602160045260246000fd5b600082613ec757613ec7613d04565b500690565b60608101613eda8286613435565b613ee76020830185613435565b6112216040830184613452565b600f81526000602082016e1d1c985b9cd9995c8819985a5b1959608a1b81529150613d92565b60208082528101610e7481613ef4565b600f81526000602082016e0c2dadeeadce840e8dede40d0d2ced608b1b81529150613d92565b60208082528101610e7481613f2a565b6000613f6c8383613435565b505060200190565b6000613f7e825190565b80845260209384019383018060005b83811015613fb2578151613fa18882613f60565b975060208301925050600101613f8d565b509495945050505050565b60608101613fcb8286613435565b613fd86020830185613452565b8181036040830152610dd08184613f74565b634e487b7160e01b600052603260045260246000fd5b6060810161400e8286613452565b61401b6020830185613435565b611221604083018461343556feddf252ad1be2c89b69c2b068fc378daa952ba7f163c4a11628f55a4df523b3ef6e71edae12b1b97f4d1f60370fef10105fa2faae0126114a169c64845d6126c98c5be1e5ebec7d5bd14f71427d1e84f3dd0314c0f7b2291e5b200ac8c7c3b925dcbc1c05240f31ff3ad067ef1ee35ce4997762752e3a095284754544f4c709d75e2b8821ad6e0e26207e0cb4d242d07eeb1cbb1cfd853e645bdcd27cc5484f95a2646970667358221220ca4d04e5e991c965fb11dbe642fee713576e37907ead35ae4381ea8dd644738264736f6c63430008100033",
  "devdoc": {
    "kind": "dev",
    "methods": {
      "allowance(address,address)": {
        "details": "Returns the remaining number of tokens that `spender` will be allowed to spend on behalf of `owner` through {transferFrom}. This is zero by default. This value changes when {approve} or {transferFrom} are called."
      },
      "approve(address,uint256)": {
        "details": "Sets `amount` as the allowance of `spender` over the caller's tokens. Returns a boolean value indicating whether the operation succeeded. IMPORTANT: Beware that changing an allowance with this method brings the risk that someone may use both the old and the new allowance by unfortunate transaction ordering. One possible solution to mitigate this race condition is to first reduce the spender's allowance to 0 and set the desired value afterwards: https://github.com/ethereum/EIPs/issues/20#issuecomment-263524729 Emits an {Approval} event."
      },
      "asset()": {
        "details": "Returns the address of the underlying token used for the Vault for accounting, depositing, and withdrawing. - MUST be an ERC-20 token contract. - MUST NOT revert."
      },
      "convertToAssets(uint256)": {
        "details": "Returns the amount of assets that the Vault would exchange for the amount of shares provided, in an ideal scenario where all the conditions are met. - MUST NOT be inclusive of any fees that are charged against assets in the Vault. - MUST NOT show any variations depending on the caller. - MUST NOT reflect slippage or other on-chain conditions, when performing the actual exchange. - MUST NOT revert. NOTE: This calculation MAY NOT reflect the per-user price-per-share, and instead should reflect the average-users price-per-share, meaning what the average user should expect to see when exchanging to and from."
      },
      "convertToShares(uint256)": {
        "details": "Returns the amount of shares that the Vault would exchange for the amount of assets provided, in an ideal scenario where all the conditions are met. - MUST NOT be inclusive of any fees that are charged against assets in the Vault. - MUST NOT show any variations depending on the caller. - MUST NOT reflect slippage or other on-chain conditions, when performing the actual exchange. - MUST NOT revert. NOTE: This calculation MAY NOT reflect the per-user price-per-share, and instead should reflect the average-users price-per-share, meaning what the average user should expect to see when exchanging to and from."
      },
      "decimals()": {
        "details": "Returns the decimals places of the token."
      },
      "deposit(uint256,address)": {
        "details": "Mints shares Vault shares to receiver by depositing exactly amount of underlying tokens. - MUST emit the Deposit event. - MAY support an additional flow in which the underlying tokens are owned by the Vault contract before the   deposit execution, and are accounted for during deposit. - MUST revert if all of assets cannot be deposited (due to deposit limit being reached, slippage, the user not   approving enough underlying tokens to the Vault contract, etc). NOTE: most implementations will require pre-approval of the Vault with the Vaults underlying asset token."
      },
      "maxDeposit(address)": {
        "details": "Returns the maximum amount of the underlying asset that can be deposited into the Vault for the receiver, through a deposit call. - MUST return a limited value if receiver is subject to some deposit limit. - MUST return 2 ** 256 - 1 if there is no limit on the maximum amount of assets that may be deposited. - MUST NOT revert."
      },
      "maxMint(address)": {
        "details": "Returns the maximum amount of the Vault shares that can be minted for the receiver, through a mint call. - MUST return a limited value if receiver is subject to some mint limit. - MUST return 2 ** 256 - 1 if there is no limit on the maximum amount of shares that may be minted. - MUST NOT revert."
      },
      "mint(uint256,address)": {
        "details": "Mints exactly shares Vault shares to receiver by depositing amount of underlying tokens. - MUST emit the Deposit event. - MAY support an additional flow in which the underlying tokens are owned by the Vault contract before the mint   execution, and are accounted for during mint. - MUST revert if all of shares cannot be minted (due to deposit limit being reached, slippage, the user not   approving enough underlying tokens to the Vault contract, etc). NOTE: most implementations will require pre-approval of the Vault with the Vaults underlying asset token."
      },
      "previewDeposit(uint256)": {
        "details": "Allows an on-chain or off-chain user to simulate the effects of their deposit at the current block, given current on-chain conditions. - MUST return as close to and no more than the exact amount of Vault shares that would be minted in a deposit   call in the same transaction. I.e. deposit should return the same or more shares as previewDeposit if called   in the same transaction. - MUST NOT account for deposit limits like those returned from maxDeposit and should always act as though the   deposit would be accepted, regardless if the user has enough tokens approved, etc. - MUST be inclusive of deposit fees. Integrators should be aware of the existence of deposit fees. - MUST NOT revert. NOTE: any unfavorable discrepancy between convertToShares and previewDeposit SHOULD be considered slippage in share price or some other type of condition, meaning the depositor will lose assets by depositing."
      },
      "previewMint(uint256)": {
        "details": "Allows an on-chain or off-chain user to simulate the effects of their mint at the current block, given current on-chain conditions. - MUST return as close to and no fewer than the exact amount of assets that would be deposited in a mint call   in the same transaction. I.e. mint should return the same or fewer assets as previewMint if called in the   same transaction. - MUST NOT account for mint limits like those returned from maxMint and should always act as though the mint   would be accepted, regardless if the user has enough tokens approved, etc. - MUST be inclusive of deposit fees. Integrators should be aware of the existence of deposit fees. - MUST NOT revert. NOTE: any unfavorable discrepancy between convertToAssets and previewMint SHOULD be considered slippage in share price or some other type of condition, meaning the depositor will lose assets by minting."
      },
      "previewRedeem(uint256)": {
        "details": "Allows an on-chain or off-chain user to simulate the effects of their redeemption at the current block, given current on-chain conditions. - MUST return as close to and no more than the exact amount of assets that would be withdrawn in a redeem call   in the same transaction. I.e. redeem should return the same or more assets as previewRedeem if called in the   same transaction. - MUST NOT account for redemption limits like those returned from maxRedeem and should always act as though the   redemption would be accepted, regardless if the user has enough shares, etc. - MUST be inclusive of withdrawal fees. Integrators should be aware of the existence of withdrawal fees. - MUST NOT revert. NOTE: any unfavorable discrepancy between convertToAssets and previewRedeem SHOULD be considered slippage in share price or some other type of condition, meaning the depositor will lose assets by redeeming."
      },
      "previewWithdraw(uint256)": {
        "details": "Allows an on-chain or off-chain user to simulate the effects of their withdrawal at the current block, given current on-chain conditions. - MUST return as close to and no fewer than the exact amount of Vault shares that would be burned in a withdraw   call in the same transaction. I.e. withdraw should return the same or fewer shares as previewWithdraw if   called   in the same transaction. - MUST NOT account for withdrawal limits like those returned from maxWithdraw and should always act as though   the withdrawal would be accepted, regardless if the user has enough shares, etc. - MUST be inclusive of withdrawal fees. Integrators should be aware of the existence of withdrawal fees. - MUST NOT revert. NOTE: any unfavorable discrepancy between convertToShares and previewWithdraw SHOULD be considered slippage in share price or some other type of condition, meaning the depositor will lose assets by depositing."
      },
      "totalAssets()": {
        "details": "Returns the total amount of the underlying asset that is managed by Vault. - SHOULD include any compounding that occurs from yield. - MUST be inclusive of any fees that are charged against assets in the Vault. - MUST NOT revert."
      },
      "totalSupply()": {
        "details": "Returns the amount of tokens in existence."
      }
    },
    "stateVariables": {
      "name": {
        "details": "Returns the name of the token."
      },
      "symbol": {
        "details": "Returns the symbol of the token."
      }
    },
    "title": "STRATEGY MANAGEMENT",
    "version": 1
  },
  "userdoc": {
    "kind": "user",
    "methods": {},
    "version": 1
  },
  "storageLayout": {
    "storage": [
      {
        "astId": 4983,
        "contract": "contracts/SharesManager.sol:SharesManager",
        "label": "strategyManager",
        "offset": 0,
        "slot": "0",
        "type": "t_address"
      },
      {
        "astId": 4985,
        "contract": "contracts/SharesManager.sol:SharesManager",
        "label": "sharesManager",
        "offset": 0,
        "slot": "1",
        "type": "t_address"
      },
      {
        "astId": 4987,
        "contract": "contracts/SharesManager.sol:SharesManager",
        "label": "setters",
        "offset": 0,
        "slot": "2",
        "type": "t_address"
      },
      {
        "astId": 4989,
        "contract": "contracts/SharesManager.sol:SharesManager",
        "label": "governance",
        "offset": 0,
        "slot": "3",
        "type": "t_address"
      },
      {
        "astId": 4994,
        "contract": "contracts/SharesManager.sol:SharesManager",
        "label": "strategies",
        "offset": 0,
        "slot": "4",
        "type": "t_mapping(t_address,t_struct(StrategyParams)5150_storage)"
      },
      {
        "astId": 4997,
        "contract": "contracts/SharesManager.sol:SharesManager",
        "label": "defaultQueue",
        "offset": 0,
        "slot": "5",
        "type": "t_array(t_address)dyn_storage"
      },
      {
        "astId": 4999,
        "contract": "contracts/SharesManager.sol:SharesManager",
        "label": "useDefaultQueue",
        "offset": 0,
        "slot": "6",
        "type": "t_bool"
      },
      {
        "astId": 5003,
        "contract": "contracts/SharesManager.sol:SharesManager",
        "label": "_balanceOf",
        "offset": 0,
        "slot": "7",
        "type": "t_mapping(t_address,t_uint256)"
      },
      {
        "astId": 5009,
        "contract": "contracts/SharesManager.sol:SharesManager",
        "label": "_allowance",
        "offset": 0,
        "slot": "8",
        "type": "t_mapping(t_address,t_mapping(t_address,t_uint256))"
      },
      {
        "astId": 5011,
        "contract": "contracts/SharesManager.sol:SharesManager",
        "label": "totalSupplyAmount",
        "offset": 0,
        "slot": "9",
        "type": "t_uint256"
      },
      {
        "astId": 5013,
        "contract": "contracts/SharesManager.sol:SharesManager",
        "label": "totalDebtAmount",
        "offset": 0,
        "slot": "10",
        "type": "t_uint256"
      },
      {
        "astId": 5015,
        "contract": "contracts/SharesManager.sol:SharesManager",
        "label": "totalIdleAmount",
        "offset": 0,
        "slot": "11",
        "type": "t_uint256"
      },
      {
        "astId": 5017,
        "contract": "contracts/SharesManager.sol:SharesManager",
        "label": "minimumTotalIdle",
        "offset": 0,
        "slot": "12",
        "type": "t_uint256"
      },
      {
        "astId": 5019,
        "contract": "contracts/SharesManager.sol:SharesManager",
        "label": "depositLimit",
        "offset": 0,
        "slot": "13",
        "type": "t_uint256"
      },
      {
        "astId": 5021,
        "contract": "contracts/SharesManager.sol:SharesManager",
        "label": "accountant",
        "offset": 0,
        "slot": "14",
        "type": "t_address"
      },
      {
        "astId": 5023,
        "contract": "contracts/SharesManager.sol:SharesManager",
        "label": "depositLimitModule",
        "offset": 0,
        "slot": "15",
        "type": "t_address"
      },
      {
        "astId": 5025,
        "contract": "contracts/SharesManager.sol:SharesManager",
        "label": "withdrawLimitModule",
        "offset": 0,
        "slot": "16",
        "type": "t_address"
      },
      {
        "astId": 5029,
        "contract": "contracts/SharesManager.sol:SharesManager",
        "label": "roles",
        "offset": 0,
        "slot": "17",
        "type": "t_mapping(t_address,t_bytes32)"
      },
      {
        "astId": 5033,
        "contract": "contracts/SharesManager.sol:SharesManager",
        "label": "openRoles",
        "offset": 0,
        "slot": "18",
        "type": "t_mapping(t_bytes32,t_bool)"
      },
      {
        "astId": 5035,
        "contract": "contracts/SharesManager.sol:SharesManager",
        "label": "roleManager",
        "offset": 0,
        "slot": "19",
        "type": "t_address"
      },
      {
        "astId": 5037,
        "contract": "contracts/SharesManager.sol:SharesManager",
        "label": "futureRoleManager",
        "offset": 0,
        "slot": "20",
        "type": "t_address"
      },
      {
        "astId": 5039,
        "contract": "contracts/SharesManager.sol:SharesManager",
        "label": "shutdown",
        "offset": 20,
        "slot": "20",
        "type": "t_bool"
      },
      {
        "astId": 5041,
        "contract": "contracts/SharesManager.sol:SharesManager",
        "label": "profitMaxUnlockTime",
        "offset": 0,
        "slot": "21",
        "type": "t_uint256"
      },
      {
        "astId": 5043,
        "contract": "contracts/SharesManager.sol:SharesManager",
        "label": "fullProfitUnlockDate",
        "offset": 0,
        "slot": "22",
        "type": "t_uint256"
      },
      {
        "astId": 5045,
        "contract": "contracts/SharesManager.sol:SharesManager",
        "label": "profitUnlockingRate",
        "offset": 0,
        "slot": "23",
        "type": "t_uint256"
      },
      {
        "astId": 5047,
        "contract": "contracts/SharesManager.sol:SharesManager",
        "label": "lastProfitUpdate",
        "offset": 0,
        "slot": "24",
        "type": "t_uint256"
      },
      {
        "astId": 5051,
        "contract": "contracts/SharesManager.sol:SharesManager",
        "label": "nonces",
        "offset": 0,
        "slot": "25",
        "type": "t_mapping(t_address,t_uint256)"
      },
      {
        "astId": 5058,
        "contract": "contracts/SharesManager.sol:SharesManager",
        "label": "DOMAIN_SEPARATOR",
        "offset": 0,
        "slot": "26",
        "type": "t_bytes32"
      },
      {
        "astId": 10,
        "contract": "contracts/SharesManager.sol:SharesManager",
        "label": "_status",
        "offset": 0,
        "slot": "27",
        "type": "t_uint256"
      },
      {
        "astId": 1748,
        "contract": "contracts/SharesManager.sol:SharesManager",
        "label": "name",
        "offset": 0,
        "slot": "28",
        "type": "t_string_storage"
      },
      {
        "astId": 1751,
        "contract": "contracts/SharesManager.sol:SharesManager",
        "label": "symbol",
        "offset": 0,
        "slot": "29",
        "type": "t_string_storage"
      }
    ],
    "types": {
      "t_address": {
        "encoding": "inplace",
        "label": "address",
        "numberOfBytes": "20"
      },
      "t_array(t_address)dyn_storage": {
        "base": "t_address",
        "encoding": "dynamic_array",
        "label": "address[]",
        "numberOfBytes": "32"
      },
      "t_bool": {
        "encoding": "inplace",
        "label": "bool",
        "numberOfBytes": "1"
      },
      "t_bytes32": {
        "encoding": "inplace",
        "label": "bytes32",
        "numberOfBytes": "32"
      },
      "t_mapping(t_address,t_bytes32)": {
        "encoding": "mapping",
        "key": "t_address",
        "label": "mapping(address => bytes32)",
        "numberOfBytes": "32",
        "value": "t_bytes32"
      },
      "t_mapping(t_address,t_mapping(t_address,t_uint256))": {
        "encoding": "mapping",
        "key": "t_address",
        "label": "mapping(address => mapping(address => uint256))",
        "numberOfBytes": "32",
        "value": "t_mapping(t_address,t_uint256)"
      },
      "t_mapping(t_address,t_struct(StrategyParams)5150_storage)": {
        "encoding": "mapping",
        "key": "t_address",
        "label": "mapping(address => struct StrategyParams)",
        "numberOfBytes": "32",
        "value": "t_struct(StrategyParams)5150_storage"
      },
      "t_mapping(t_address,t_uint256)": {
        "encoding": "mapping",
        "key": "t_address",
        "label": "mapping(address => uint256)",
        "numberOfBytes": "32",
        "value": "t_uint256"
      },
      "t_mapping(t_bytes32,t_bool)": {
        "encoding": "mapping",
        "key": "t_bytes32",
        "label": "mapping(bytes32 => bool)",
        "numberOfBytes": "32",
        "value": "t_bool"
      },
      "t_string_storage": {
        "encoding": "bytes",
        "label": "string",
        "numberOfBytes": "32"
      },
      "t_struct(StrategyParams)5150_storage": {
        "encoding": "inplace",
        "label": "struct StrategyParams",
        "members": [
          {
            "astId": 5143,
            "contract": "contracts/SharesManager.sol:SharesManager",
            "label": "activation",
            "offset": 0,
            "slot": "0",
            "type": "t_uint256"
          },
          {
            "astId": 5145,
            "contract": "contracts/SharesManager.sol:SharesManager",
            "label": "lastReport",
            "offset": 0,
            "slot": "1",
            "type": "t_uint256"
          },
          {
            "astId": 5147,
            "contract": "contracts/SharesManager.sol:SharesManager",
            "label": "currentDebt",
            "offset": 0,
            "slot": "2",
            "type": "t_uint256"
          },
          {
            "astId": 5149,
            "contract": "contracts/SharesManager.sol:SharesManager",
            "label": "maxDebt",
            "offset": 0,
            "slot": "3",
            "type": "t_uint256"
          }
        ],
        "numberOfBytes": "128"
      },
      "t_uint256": {
        "encoding": "inplace",
        "label": "uint256",
        "numberOfBytes": "32"
      }
    }
  }
}