{
  "address": "0x8c892F0dEE6E599f22B83688E23D074b9eaCa2cb",
  "abi": [
    {
      "inputs": [
        {
          "internalType": "address",
          "name": "_asset",
          "type": "address"
        },
        {
          "internalType": "uint8",
          "name": "_decimals",
          "type": "uint8"
        },
        {
          "internalType": "string",
          "name": "_name",
          "type": "string"
        },
        {
          "internalType": "string",
          "name": "_symbol",
          "type": "string"
        }
      ],
      "stateMutability": "nonpayable",
      "type": "constructor"
    },
    {
      "inputs": [],
      "name": "ERC20InsufficientAllowance",
      "type": "error"
    },
    {
      "inputs": [],
      "name": "ERC20PermitExpired",
      "type": "error"
    },
    {
      "inputs": [],
      "name": "ERC20PermitInvalidSignature",
      "type": "error"
    },
    {
      "inputs": [],
      "name": "ExceedDepositLimit",
      "type": "error"
    },
    {
      "inputs": [],
      "name": "InactiveStrategy",
      "type": "error"
    },
    {
      "inputs": [],
      "name": "InsufficientAssets",
      "type": "error"
    },
    {
      "inputs": [],
      "name": "InsufficientFunds",
      "type": "error"
    },
    {
      "inputs": [],
      "name": "InsufficientShares",
      "type": "error"
    },
    {
      "inputs": [],
      "name": "InvalidAssetDecimals",
      "type": "error"
    },
    {
      "inputs": [],
      "name": "MaxLoss",
      "type": "error"
    },
    {
      "inputs": [],
      "name": "StrategyDebtIsLessThanAssetsNeeded",
      "type": "error"
    },
    {
      "inputs": [],
      "name": "StrategyIsShutdown",
      "type": "error"
    },
    {
      "inputs": [],
      "name": "TooMuchLoss",
      "type": "error"
    },
    {
      "inputs": [],
      "name": "UsingModule",
      "type": "error"
    },
    {
      "inputs": [],
      "name": "ZeroAddress",
      "type": "error"
    },
    {
      "inputs": [],
      "name": "ZeroValue",
      "type": "error"
    },
    {
      "anonymous": false,
      "inputs": [
        {
          "indexed": true,
          "internalType": "address",
          "name": "owner",
          "type": "address"
        },
        {
          "indexed": true,
          "internalType": "address",
          "name": "spender",
          "type": "address"
        },
        {
          "indexed": false,
          "internalType": "uint256",
          "name": "value",
          "type": "uint256"
        }
      ],
      "name": "Approval",
      "type": "event"
    },
    {
      "anonymous": false,
      "inputs": [
        {
          "indexed": true,
          "internalType": "address",
          "name": "strategy",
          "type": "address"
        },
        {
          "indexed": false,
          "internalType": "uint256",
          "name": "amount",
          "type": "uint256"
        }
      ],
      "name": "DebtPurchased",
      "type": "event"
    },
    {
      "anonymous": false,
      "inputs": [
        {
          "indexed": true,
          "internalType": "address",
          "name": "strategy",
          "type": "address"
        },
        {
          "indexed": false,
          "internalType": "uint256",
          "name": "currentDebt",
          "type": "uint256"
        },
        {
          "indexed": false,
          "internalType": "uint256",
          "name": "newDebt",
          "type": "uint256"
        }
      ],
      "name": "DebtUpdated",
      "type": "event"
    },
    {
      "anonymous": false,
      "inputs": [
        {
          "indexed": true,
          "internalType": "address",
          "name": "sender",
          "type": "address"
        },
        {
          "indexed": true,
          "internalType": "address",
          "name": "owner",
          "type": "address"
        },
        {
          "indexed": false,
          "internalType": "uint256",
          "name": "assets",
          "type": "uint256"
        },
        {
          "indexed": false,
          "internalType": "uint256",
          "name": "shares",
          "type": "uint256"
        }
      ],
      "name": "Deposit",
      "type": "event"
    },
    {
      "anonymous": false,
      "inputs": [
        {
          "indexed": true,
          "internalType": "bytes32",
          "name": "role",
          "type": "bytes32"
        },
        {
          "indexed": true,
          "internalType": "bytes32",
          "name": "previousAdminRole",
          "type": "bytes32"
        },
        {
          "indexed": true,
          "internalType": "bytes32",
          "name": "newAdminRole",
          "type": "bytes32"
        }
      ],
      "name": "RoleAdminChanged",
      "type": "event"
    },
    {
      "anonymous": false,
      "inputs": [
        {
          "indexed": true,
          "internalType": "bytes32",
          "name": "role",
          "type": "bytes32"
        },
        {
          "indexed": true,
          "internalType": "address",
          "name": "account",
          "type": "address"
        },
        {
          "indexed": true,
          "internalType": "address",
          "name": "sender",
          "type": "address"
        }
      ],
      "name": "RoleGranted",
      "type": "event"
    },
    {
      "anonymous": false,
      "inputs": [
        {
          "indexed": true,
          "internalType": "bytes32",
          "name": "role",
          "type": "bytes32"
        },
        {
          "indexed": true,
          "internalType": "address",
          "name": "account",
          "type": "address"
        },
        {
          "indexed": true,
          "internalType": "address",
          "name": "sender",
          "type": "address"
        }
      ],
      "name": "RoleRevoked",
      "type": "event"
    },
    {
      "anonymous": false,
      "inputs": [
        {
          "indexed": true,
          "internalType": "address",
          "name": "account",
          "type": "address"
        },
        {
          "indexed": false,
          "internalType": "bytes32",
          "name": "role",
          "type": "bytes32"
        }
      ],
      "name": "RoleSet",
      "type": "event"
    },
    {
      "anonymous": false,
      "inputs": [
        {
          "indexed": true,
          "internalType": "bytes32",
          "name": "role",
          "type": "bytes32"
        },
        {
          "indexed": true,
          "internalType": "enum RoleStatusChange",
          "name": "status",
          "type": "uint8"
        }
      ],
      "name": "RoleStatusChanged",
      "type": "event"
    },
    {
      "anonymous": false,
      "inputs": [],
      "name": "Shutdown",
      "type": "event"
    },
    {
      "anonymous": false,
      "inputs": [
        {
          "indexed": true,
          "internalType": "address",
          "name": "strategy",
          "type": "address"
        },
        {
          "indexed": false,
          "internalType": "enum StrategyChangeType",
          "name": "changeType",
          "type": "uint8"
        }
      ],
      "name": "StrategyChanged",
      "type": "event"
    },
    {
      "anonymous": false,
      "inputs": [
        {
          "indexed": true,
          "internalType": "address",
          "name": "strategy",
          "type": "address"
        },
        {
          "indexed": false,
          "internalType": "uint256",
          "name": "gain",
          "type": "uint256"
        },
        {
          "indexed": false,
          "internalType": "uint256",
          "name": "loss",
          "type": "uint256"
        },
        {
          "indexed": false,
          "internalType": "uint256",
          "name": "currentDebt",
          "type": "uint256"
        },
        {
          "indexed": false,
          "internalType": "uint256",
          "name": "protocolFees",
          "type": "uint256"
        },
        {
          "indexed": false,
          "internalType": "uint256",
          "name": "totalFees",
          "type": "uint256"
        },
        {
          "indexed": false,
          "internalType": "uint256",
          "name": "totalRefunds",
          "type": "uint256"
        }
      ],
      "name": "StrategyReported",
      "type": "event"
    },
    {
      "anonymous": false,
      "inputs": [
        {
          "indexed": true,
          "internalType": "address",
          "name": "from",
          "type": "address"
        },
        {
          "indexed": true,
          "internalType": "address",
          "name": "to",
          "type": "address"
        },
        {
          "indexed": false,
          "internalType": "uint256",
          "name": "value",
          "type": "uint256"
        }
      ],
      "name": "Transfer",
      "type": "event"
    },
    {
      "anonymous": false,
      "inputs": [
        {
          "indexed": true,
          "internalType": "address",
          "name": "accountant",
          "type": "address"
        }
      ],
      "name": "UpdateAccountant",
      "type": "event"
    },
    {
      "anonymous": false,
      "inputs": [
        {
          "indexed": false,
          "internalType": "address[]",
          "name": "newDefaultQueue",
          "type": "address[]"
        }
      ],
      "name": "UpdateDefaultQueue",
      "type": "event"
    },
    {
      "anonymous": false,
      "inputs": [
        {
          "indexed": false,
          "internalType": "uint256",
          "name": "depositLimit",
          "type": "uint256"
        }
      ],
      "name": "UpdateDepositLimit",
      "type": "event"
    },
    {
      "anonymous": false,
      "inputs": [
        {
          "indexed": true,
          "internalType": "address",
          "name": "depositLimitModule",
          "type": "address"
        }
      ],
      "name": "UpdateDepositLimitModule",
      "type": "event"
    },
    {
      "anonymous": false,
      "inputs": [
        {
          "indexed": false,
          "internalType": "uint256",
          "name": "minimumTotalIdle",
          "type": "uint256"
        }
      ],
      "name": "UpdateMinimumTotalIdle",
      "type": "event"
    },
    {
      "anonymous": false,
      "inputs": [
        {
          "indexed": false,
          "internalType": "uint256",
          "name": "profitMaxUnlockTime",
          "type": "uint256"
        }
      ],
      "name": "UpdateProfitMaxUnlockTime",
      "type": "event"
    },
    {
      "anonymous": false,
      "inputs": [
        {
          "indexed": true,
          "internalType": "address",
          "name": "roleManager",
          "type": "address"
        }
      ],
      "name": "UpdateRoleManager",
      "type": "event"
    },
    {
      "anonymous": false,
      "inputs": [
        {
          "indexed": false,
          "internalType": "bool",
          "name": "useDefaultQueue",
          "type": "bool"
        }
      ],
      "name": "UpdateUseDefaultQueue",
      "type": "event"
    },
    {
      "anonymous": false,
      "inputs": [
        {
          "indexed": true,
          "internalType": "address",
          "name": "withdrawLimitModule",
          "type": "address"
        }
      ],
      "name": "UpdateWithdrawLimitModule",
      "type": "event"
    },
    {
      "anonymous": false,
      "inputs": [
        {
          "indexed": true,
          "internalType": "uint256",
          "name": "totalFees",
          "type": "uint256"
        },
        {
          "indexed": true,
          "internalType": "uint256",
          "name": "totalRefunds",
          "type": "uint256"
        },
        {
          "indexed": true,
          "internalType": "uint256",
          "name": "protocolFees",
          "type": "uint256"
        },
        {
          "indexed": false,
          "internalType": "address",
          "name": "protocolFeeRecipient",
          "type": "address"
        }
      ],
      "name": "UpdatedFees",
      "type": "event"
    },
    {
      "anonymous": false,
      "inputs": [
        {
          "indexed": true,
          "internalType": "address",
          "name": "sender",
          "type": "address"
        },
        {
          "indexed": true,
          "internalType": "address",
          "name": "strategy",
          "type": "address"
        },
        {
          "indexed": false,
          "internalType": "uint256",
          "name": "newDebt",
          "type": "uint256"
        }
      ],
      "name": "UpdatedMaxDebtForStrategy",
      "type": "event"
    },
    {
      "anonymous": false,
      "inputs": [
        {
          "indexed": true,
          "internalType": "address",
          "name": "sender",
          "type": "address"
        },
        {
          "indexed": true,
          "internalType": "address",
          "name": "receiver",
          "type": "address"
        },
        {
          "indexed": true,
          "internalType": "address",
          "name": "owner",
          "type": "address"
        },
        {
          "indexed": false,
          "internalType": "uint256",
          "name": "assets",
          "type": "uint256"
        },
        {
          "indexed": false,
          "internalType": "uint256",
          "name": "shares",
          "type": "uint256"
        }
      ],
      "name": "Withdraw",
      "type": "event"
    },
    {
      "inputs": [],
      "name": "ACCOUNTANT_MANAGER",
      "outputs": [
        {
          "internalType": "bytes32",
          "name": "",
          "type": "bytes32"
        }
      ],
      "stateMutability": "view",
      "type": "function"
    },
    {
      "inputs": [],
      "name": "ADD_STRATEGY_MANAGER",
      "outputs": [
        {
          "internalType": "bytes32",
          "name": "",
          "type": "bytes32"
        }
      ],
      "stateMutability": "view",
      "type": "function"
    },
    {
      "inputs": [],
      "name": "API_VERSION",
      "outputs": [
        {
          "internalType": "string",
          "name": "",
          "type": "string"
        }
      ],
      "stateMutability": "view",
      "type": "function"
    },
    {
      "inputs": [],
      "name": "ASSET",
      "outputs": [
        {
          "internalType": "contract IERC20",
          "name": "",
          "type": "address"
        }
      ],
      "stateMutability": "view",
      "type": "function"
    },
    {
      "inputs": [],
      "name": "DEBT_MANAGER",
      "outputs": [
        {
          "internalType": "bytes32",
          "name": "",
          "type": "bytes32"
        }
      ],
      "stateMutability": "view",
      "type": "function"
    },
    {
      "inputs": [],
      "name": "DEBT_PURCHASER",
      "outputs": [
        {
          "internalType": "bytes32",
          "name": "",
          "type": "bytes32"
        }
      ],
      "stateMutability": "view",
      "type": "function"
    },
    {
      "inputs": [],
      "name": "DECIMALS",
      "outputs": [
        {
          "internalType": "uint8",
          "name": "",
          "type": "uint8"
        }
      ],
      "stateMutability": "view",
      "type": "function"
    },
    {
      "inputs": [],
      "name": "DEFAULT_ADMIN_ROLE",
      "outputs": [
        {
          "internalType": "bytes32",
          "name": "",
          "type": "bytes32"
        }
      ],
      "stateMutability": "view",
      "type": "function"
    },
    {
      "inputs": [],
      "name": "DEPOSIT_LIMIT_MANAGER",
      "outputs": [
        {
          "internalType": "bytes32",
          "name": "",
          "type": "bytes32"
        }
      ],
      "stateMutability": "view",
      "type": "function"
    },
    {
      "inputs": [],
      "name": "DOMAIN_SEPARATOR",
      "outputs": [
        {
          "internalType": "bytes32",
          "name": "",
          "type": "bytes32"
        }
      ],
      "stateMutability": "view",
      "type": "function"
    },
    {
      "inputs": [],
      "name": "DOMAIN_TYPE_HASH",
      "outputs": [
        {
          "internalType": "bytes32",
          "name": "",
          "type": "bytes32"
        }
      ],
      "stateMutability": "view",
      "type": "function"
    },
    {
      "inputs": [],
      "name": "EMERGENCY_MANAGER",
      "outputs": [
        {
          "internalType": "bytes32",
          "name": "",
          "type": "bytes32"
        }
      ],
      "stateMutability": "view",
      "type": "function"
    },
    {
      "inputs": [],
      "name": "FORCE_REVOKE_MANAGER",
      "outputs": [
        {
          "internalType": "bytes32",
          "name": "",
          "type": "bytes32"
        }
      ],
      "stateMutability": "view",
      "type": "function"
    },
    {
      "inputs": [],
      "name": "MAX_BPS",
      "outputs": [
        {
          "internalType": "uint256",
          "name": "",
          "type": "uint256"
        }
      ],
      "stateMutability": "view",
      "type": "function"
    },
    {
      "inputs": [],
      "name": "MAX_BPS_EXTENDED",
      "outputs": [
        {
          "internalType": "uint256",
          "name": "",
          "type": "uint256"
        }
      ],
      "stateMutability": "view",
      "type": "function"
    },
    {
      "inputs": [],
      "name": "MAX_DEBT_MANAGER",
      "outputs": [
        {
          "internalType": "bytes32",
          "name": "",
          "type": "bytes32"
        }
      ],
      "stateMutability": "view",
      "type": "function"
    },
    {
      "inputs": [],
      "name": "MAX_QUEUE",
      "outputs": [
        {
          "internalType": "uint256",
          "name": "",
          "type": "uint256"
        }
      ],
      "stateMutability": "view",
      "type": "function"
    },
    {
      "inputs": [],
      "name": "MINIMUM_IDLE_MANAGER",
      "outputs": [
        {
          "internalType": "bytes32",
          "name": "",
          "type": "bytes32"
        }
      ],
      "stateMutability": "view",
      "type": "function"
    },
    {
      "inputs": [],
      "name": "ONE_YEAR",
      "outputs": [
        {
          "internalType": "uint256",
          "name": "",
          "type": "uint256"
        }
      ],
      "stateMutability": "view",
      "type": "function"
    },
    {
      "inputs": [],
      "name": "PERMIT_TYPE_HASH",
      "outputs": [
        {
          "internalType": "bytes32",
          "name": "",
          "type": "bytes32"
        }
      ],
      "stateMutability": "view",
      "type": "function"
    },
    {
      "inputs": [],
      "name": "PROFIT_UNLOCK_MANAGER",
      "outputs": [
        {
          "internalType": "bytes32",
          "name": "",
          "type": "bytes32"
        }
      ],
      "stateMutability": "view",
      "type": "function"
    },
    {
      "inputs": [],
      "name": "QUEUE_MANAGER",
      "outputs": [
        {
          "internalType": "bytes32",
          "name": "",
          "type": "bytes32"
        }
      ],
      "stateMutability": "view",
      "type": "function"
    },
    {
      "inputs": [],
      "name": "REPORTING_MANAGER",
      "outputs": [
        {
          "internalType": "bytes32",
          "name": "",
          "type": "bytes32"
        }
      ],
      "stateMutability": "view",
      "type": "function"
    },
    {
      "inputs": [],
      "name": "REVOKE_STRATEGY_MANAGER",
      "outputs": [
        {
          "internalType": "bytes32",
          "name": "",
          "type": "bytes32"
        }
      ],
      "stateMutability": "view",
      "type": "function"
    },
    {
      "inputs": [],
      "name": "ROLE_MANAGER",
      "outputs": [
        {
          "internalType": "bytes32",
          "name": "",
          "type": "bytes32"
        }
      ],
      "stateMutability": "view",
      "type": "function"
    },
    {
      "inputs": [],
      "name": "WITHDRAW_LIMIT_MANAGER",
      "outputs": [
        {
          "internalType": "bytes32",
          "name": "",
          "type": "bytes32"
        }
      ],
      "stateMutability": "view",
      "type": "function"
    },
    {
      "inputs": [],
      "name": "accountant",
      "outputs": [
        {
          "internalType": "address",
          "name": "",
          "type": "address"
        }
      ],
      "stateMutability": "view",
      "type": "function"
    },
    {
      "inputs": [
        {
          "internalType": "address",
          "name": "owner",
          "type": "address"
        },
        {
          "internalType": "address",
          "name": "spender",
          "type": "address"
        }
      ],
      "name": "allowance",
      "outputs": [
        {
          "internalType": "uint256",
          "name": "",
          "type": "uint256"
        }
      ],
      "stateMutability": "view",
      "type": "function"
    },
    {
      "inputs": [
        {
          "internalType": "address",
          "name": "spender",
          "type": "address"
        },
        {
          "internalType": "uint256",
          "name": "amount",
          "type": "uint256"
        }
      ],
      "name": "approve",
      "outputs": [
        {
          "internalType": "bool",
          "name": "",
          "type": "bool"
        }
      ],
      "stateMutability": "nonpayable",
      "type": "function"
    },
    {
      "inputs": [
        {
          "internalType": "address",
          "name": "owner",
          "type": "address"
        },
        {
          "internalType": "address",
          "name": "spender",
          "type": "address"
        },
        {
          "internalType": "uint256",
          "name": "amount",
          "type": "uint256"
        }
      ],
      "name": "approve",
      "outputs": [
        {
          "internalType": "bool",
          "name": "",
          "type": "bool"
        }
      ],
      "stateMutability": "nonpayable",
      "type": "function"
    },
    {
      "inputs": [
        {
          "internalType": "address",
          "name": "strategy",
          "type": "address"
        },
        {
          "internalType": "uint256",
          "name": "assetsNeeded",
          "type": "uint256"
        }
      ],
      "name": "assessShareOfUnrealisedLosses",
      "outputs": [
        {
          "internalType": "uint256",
          "name": "",
          "type": "uint256"
        }
      ],
      "stateMutability": "view",
      "type": "function"
    },
    {
      "inputs": [],
      "name": "asset",
      "outputs": [
        {
          "internalType": "address",
          "name": "",
          "type": "address"
        }
      ],
      "stateMutability": "view",
      "type": "function"
    },
    {
      "inputs": [
        {
          "internalType": "address",
          "name": "addr",
          "type": "address"
        }
      ],
      "name": "balanceOf",
      "outputs": [
        {
          "internalType": "uint256",
          "name": "",
          "type": "uint256"
        }
      ],
      "stateMutability": "view",
      "type": "function"
    },
    {
      "inputs": [
        {
          "internalType": "uint256",
          "name": "shares",
          "type": "uint256"
        },
        {
          "internalType": "address",
          "name": "owner",
          "type": "address"
        }
      ],
      "name": "burnShares",
      "outputs": [],
      "stateMutability": "nonpayable",
      "type": "function"
    },
    {
      "inputs": [],
      "name": "burnUnlockedShares",
      "outputs": [],
      "stateMutability": "nonpayable",
      "type": "function"
    },
    {
      "inputs": [
        {
          "internalType": "uint256",
          "name": "gain",
          "type": "uint256"
        },
        {
          "internalType": "uint256",
          "name": "loss",
          "type": "uint256"
        },
        {
          "internalType": "uint256",
          "name": "totalFees",
          "type": "uint256"
        },
        {
          "internalType": "uint256",
          "name": "protocolFees",
          "type": "uint256"
        },
        {
          "internalType": "address",
          "name": "strategy",
          "type": "address"
        }
      ],
      "name": "calculateShareManagement",
      "outputs": [
        {
          "components": [
            {
              "internalType": "uint256",
              "name": "sharesToBurn",
              "type": "uint256"
            },
            {
              "internalType": "uint256",
              "name": "accountantFeesShares",
              "type": "uint256"
            },
            {
              "internalType": "uint256",
              "name": "protocolFeesShares",
              "type": "uint256"
            }
          ],
          "internalType": "struct ShareManagement",
          "name": "",
          "type": "tuple"
        }
      ],
      "stateMutability": "nonpayable",
      "type": "function"
    },
    {
      "inputs": [
        {
          "internalType": "uint256",
          "name": "shares",
          "type": "uint256"
        }
      ],
      "name": "convertToAssets",
      "outputs": [
        {
          "internalType": "uint256",
          "name": "",
          "type": "uint256"
        }
      ],
      "stateMutability": "view",
      "type": "function"
    },
    {
      "inputs": [
        {
          "internalType": "uint256",
          "name": "shares",
          "type": "uint256"
        },
        {
          "internalType": "enum Rounding",
          "name": "rounding",
          "type": "uint8"
        }
      ],
      "name": "convertToAssets",
      "outputs": [
        {
          "internalType": "uint256",
          "name": "",
          "type": "uint256"
        }
      ],
      "stateMutability": "view",
      "type": "function"
    },
    {
      "inputs": [
        {
          "internalType": "uint256",
          "name": "assets",
          "type": "uint256"
        },
        {
          "internalType": "enum Rounding",
          "name": "rounding",
          "type": "uint8"
        }
      ],
      "name": "convertToShares",
      "outputs": [
        {
          "internalType": "uint256",
          "name": "",
          "type": "uint256"
        }
      ],
      "stateMutability": "view",
      "type": "function"
    },
    {
      "inputs": [
        {
          "internalType": "uint256",
          "name": "assets",
          "type": "uint256"
        }
      ],
      "name": "convertToShares",
      "outputs": [
        {
          "internalType": "uint256",
          "name": "",
          "type": "uint256"
        }
      ],
      "stateMutability": "view",
      "type": "function"
    },
    {
      "inputs": [],
      "name": "decimals",
      "outputs": [
        {
          "internalType": "uint8",
          "name": "",
          "type": "uint8"
        }
      ],
      "stateMutability": "view",
      "type": "function"
    },
    {
      "inputs": [
        {
          "internalType": "address",
          "name": "owner",
          "type": "address"
        },
        {
          "internalType": "address",
          "name": "spender",
          "type": "address"
        },
        {
          "internalType": "uint256",
          "name": "amount",
          "type": "uint256"
        }
      ],
      "name": "decreaseAllowance",
      "outputs": [
        {
          "internalType": "bool",
          "name": "",
          "type": "bool"
        }
      ],
      "stateMutability": "nonpayable",
      "type": "function"
    },
    {
      "inputs": [
        {
          "internalType": "uint256",
          "name": "",
          "type": "uint256"
        }
      ],
      "name": "defaultQueue",
      "outputs": [
        {
          "internalType": "address",
          "name": "",
          "type": "address"
        }
      ],
      "stateMutability": "view",
      "type": "function"
    },
    {
      "inputs": [
        {
          "internalType": "uint256",
          "name": "assets",
          "type": "uint256"
        },
        {
          "internalType": "address",
          "name": "receiver",
          "type": "address"
        }
      ],
      "name": "deposit",
      "outputs": [
        {
          "internalType": "uint256",
          "name": "",
          "type": "uint256"
        }
      ],
      "stateMutability": "nonpayable",
      "type": "function"
    },
    {
      "inputs": [
        {
          "internalType": "address",
          "name": "sender",
          "type": "address"
        },
        {
          "internalType": "address",
          "name": "recipient",
          "type": "address"
        },
        {
          "internalType": "uint256",
          "name": "assets",
          "type": "uint256"
        }
      ],
      "name": "deposit",
      "outputs": [
        {
          "internalType": "uint256",
          "name": "",
          "type": "uint256"
        }
      ],
      "stateMutability": "nonpayable",
      "type": "function"
    },
    {
      "inputs": [],
      "name": "depositLimit",
      "outputs": [
        {
          "internalType": "uint256",
          "name": "",
          "type": "uint256"
        }
      ],
      "stateMutability": "view",
      "type": "function"
    },
    {
      "inputs": [],
      "name": "depositLimitModule",
      "outputs": [
        {
          "internalType": "address",
          "name": "",
          "type": "address"
        }
      ],
      "stateMutability": "view",
      "type": "function"
    },
    {
      "inputs": [
        {
          "internalType": "address",
          "name": "strategy",
          "type": "address"
        },
        {
          "internalType": "uint256",
          "name": "assetsToDeposit",
          "type": "uint256"
        }
      ],
      "name": "depositToStrategy",
      "outputs": [],
      "stateMutability": "nonpayable",
      "type": "function"
    },
    {
      "inputs": [
        {
          "internalType": "address",
          "name": "token",
          "type": "address"
        },
        {
          "internalType": "address",
          "name": "spender",
          "type": "address"
        },
        {
          "internalType": "uint256",
          "name": "amount",
          "type": "uint256"
        }
      ],
      "name": "erc20SafeApprove",
      "outputs": [],
      "stateMutability": "nonpayable",
      "type": "function"
    },
    {
      "inputs": [
        {
          "internalType": "address",
          "name": "token",
          "type": "address"
        },
        {
          "internalType": "address",
          "name": "receiver",
          "type": "address"
        },
        {
          "internalType": "uint256",
          "name": "amount",
          "type": "uint256"
        }
      ],
      "name": "erc20SafeTransfer",
      "outputs": [],
      "stateMutability": "nonpayable",
      "type": "function"
    },
    {
      "inputs": [
        {
          "internalType": "address",
          "name": "token",
          "type": "address"
        },
        {
          "internalType": "address",
          "name": "sender",
          "type": "address"
        },
        {
          "internalType": "address",
          "name": "receiver",
          "type": "address"
        },
        {
          "internalType": "uint256",
          "name": "amount",
          "type": "uint256"
        }
      ],
      "name": "erc20SafeTransferFrom",
      "outputs": [],
      "stateMutability": "nonpayable",
      "type": "function"
    },
    {
      "inputs": [],
      "name": "fees",
      "outputs": [
        {
          "internalType": "uint256",
          "name": "totalFees",
          "type": "uint256"
        },
        {
          "internalType": "uint256",
          "name": "totalRefunds",
          "type": "uint256"
        },
        {
          "internalType": "uint256",
          "name": "protocolFees",
          "type": "uint256"
        },
        {
          "internalType": "address",
          "name": "protocolFeeRecipient",
          "type": "address"
        }
      ],
      "stateMutability": "view",
      "type": "function"
    },
    {
      "inputs": [],
      "name": "fullProfitUnlockDate",
      "outputs": [
        {
          "internalType": "uint256",
          "name": "",
          "type": "uint256"
        }
      ],
      "stateMutability": "view",
      "type": "function"
    },
    {
      "inputs": [],
      "name": "futureRoleManager",
      "outputs": [
        {
          "internalType": "address",
          "name": "",
          "type": "address"
        }
      ],
      "stateMutability": "view",
      "type": "function"
    },
    {
      "inputs": [],
      "name": "getMinimumTotalIdle",
      "outputs": [
        {
          "internalType": "uint256",
          "name": "",
          "type": "uint256"
        }
      ],
      "stateMutability": "view",
      "type": "function"
    },
    {
      "inputs": [
        {
          "internalType": "bytes32",
          "name": "role",
          "type": "bytes32"
        }
      ],
      "name": "getRoleAdmin",
      "outputs": [
        {
          "internalType": "bytes32",
          "name": "",
          "type": "bytes32"
        }
      ],
      "stateMutability": "view",
      "type": "function"
    },
    {
      "inputs": [],
      "name": "getTotalIdleAmount",
      "outputs": [
        {
          "internalType": "uint256",
          "name": "",
          "type": "uint256"
        }
      ],
      "stateMutability": "view",
      "type": "function"
    },
    {
      "inputs": [],
      "name": "governance",
      "outputs": [
        {
          "internalType": "address",
          "name": "",
          "type": "address"
        }
      ],
      "stateMutability": "view",
      "type": "function"
    },
    {
      "inputs": [
        {
          "internalType": "bytes32",
          "name": "role",
          "type": "bytes32"
        },
        {
          "internalType": "address",
          "name": "account",
          "type": "address"
        }
      ],
      "name": "grantRole",
      "outputs": [],
      "stateMutability": "nonpayable",
      "type": "function"
    },
    {
      "inputs": [
        {
          "components": [
            {
              "internalType": "uint256",
              "name": "sharesToBurn",
              "type": "uint256"
            },
            {
              "internalType": "uint256",
              "name": "accountantFeesShares",
              "type": "uint256"
            },
            {
              "internalType": "uint256",
              "name": "protocolFeesShares",
              "type": "uint256"
            }
          ],
          "internalType": "struct ShareManagement",
          "name": "shares",
          "type": "tuple"
        },
        {
          "components": [
            {
              "internalType": "uint256",
              "name": "totalFees",
              "type": "uint256"
            },
            {
              "internalType": "uint256",
              "name": "totalRefunds",
              "type": "uint256"
            },
            {
              "internalType": "uint256",
              "name": "protocolFees",
              "type": "uint256"
            },
            {
              "internalType": "address",
              "name": "protocolFeeRecipient",
              "type": "address"
            }
          ],
          "internalType": "struct FeeAssessment",
          "name": "_fees",
          "type": "tuple"
        },
        {
          "internalType": "uint256",
          "name": "gain",
          "type": "uint256"
        }
      ],
      "name": "handleShareBurnsAndIssues",
      "outputs": [
        {
          "internalType": "uint256",
          "name": "previouslyLockedShares",
          "type": "uint256"
        },
        {
          "internalType": "uint256",
          "name": "newlyLockedShares",
          "type": "uint256"
        }
      ],
      "stateMutability": "nonpayable",
      "type": "function"
    },
    {
      "inputs": [
        {
          "internalType": "bytes32",
          "name": "role",
          "type": "bytes32"
        },
        {
          "internalType": "address",
          "name": "account",
          "type": "address"
        }
      ],
      "name": "hasRole",
      "outputs": [
        {
          "internalType": "bool",
          "name": "",
          "type": "bool"
        }
      ],
      "stateMutability": "view",
      "type": "function"
    },
    {
      "inputs": [
        {
          "internalType": "address",
          "name": "owner",
          "type": "address"
        },
        {
          "internalType": "address",
          "name": "spender",
          "type": "address"
        },
        {
          "internalType": "uint256",
          "name": "amount",
          "type": "uint256"
        }
      ],
      "name": "increaseAllowance",
      "outputs": [
        {
          "internalType": "bool",
          "name": "",
          "type": "bool"
        }
      ],
      "stateMutability": "nonpayable",
      "type": "function"
    },
    {
      "inputs": [
        {
          "internalType": "address",
          "name": "_strategyManager",
          "type": "address"
        },
        {
          "internalType": "address",
          "name": "_setters",
          "type": "address"
        }
      ],
      "name": "initialize",
      "outputs": [],
      "stateMutability": "nonpayable",
      "type": "function"
    },
    {
      "inputs": [
        {
          "internalType": "uint256",
          "name": "shares",
          "type": "uint256"
        },
        {
          "internalType": "address",
          "name": "recipient",
          "type": "address"
        }
      ],
      "name": "issueShares",
      "outputs": [],
      "stateMutability": "nonpayable",
      "type": "function"
    },
    {
      "inputs": [
        {
          "internalType": "uint256",
          "name": "amount",
          "type": "uint256"
        },
        {
          "internalType": "address",
          "name": "recipient",
          "type": "address"
        }
      ],
      "name": "issueSharesForAmount",
      "outputs": [
        {
          "internalType": "uint256",
          "name": "",
          "type": "uint256"
        }
      ],
      "stateMutability": "nonpayable",
      "type": "function"
    },
    {
      "inputs": [],
      "name": "lastProfitUpdate",
      "outputs": [
        {
          "internalType": "uint256",
          "name": "",
          "type": "uint256"
        }
      ],
      "stateMutability": "view",
      "type": "function"
    },
    {
      "inputs": [
        {
          "internalType": "uint256",
          "name": "previouslyLockedShares",
          "type": "uint256"
        },
        {
          "internalType": "uint256",
          "name": "newlyLockedShares",
          "type": "uint256"
        }
      ],
      "name": "manageUnlockingOfShares",
      "outputs": [],
      "stateMutability": "nonpayable",
      "type": "function"
    },
    {
      "inputs": [
        {
          "internalType": "address",
          "name": "receiver",
          "type": "address"
        }
      ],
      "name": "maxDeposit",
      "outputs": [
        {
          "internalType": "uint256",
          "name": "",
          "type": "uint256"
        }
      ],
      "stateMutability": "view",
      "type": "function"
    },
    {
      "inputs": [
        {
          "internalType": "address",
          "name": "receiver",
          "type": "address"
        }
      ],
      "name": "maxMint",
      "outputs": [
        {
          "internalType": "uint256",
          "name": "",
          "type": "uint256"
        }
      ],
      "stateMutability": "view",
      "type": "function"
    },
    {
      "inputs": [
        {
          "internalType": "address",
          "name": "owner",
          "type": "address"
        },
        {
          "internalType": "uint256",
          "name": "maxLoss",
          "type": "uint256"
        },
        {
          "internalType": "address[]",
          "name": "_strategies",
          "type": "address[]"
        }
      ],
      "name": "maxRedeem",
      "outputs": [
        {
          "internalType": "uint256",
          "name": "",
          "type": "uint256"
        }
      ],
      "stateMutability": "nonpayable",
      "type": "function"
    },
    {
      "inputs": [
        {
          "internalType": "address",
          "name": "owner",
          "type": "address"
        },
        {
          "internalType": "uint256",
          "name": "_maxLoss",
          "type": "uint256"
        },
        {
          "internalType": "address[]",
          "name": "_strategies",
          "type": "address[]"
        }
      ],
      "name": "maxWithdraw",
      "outputs": [
        {
          "internalType": "uint256",
          "name": "",
          "type": "uint256"
        }
      ],
      "stateMutability": "nonpayable",
      "type": "function"
    },
    {
      "inputs": [],
      "name": "minimumTotalIdle",
      "outputs": [
        {
          "internalType": "uint256",
          "name": "",
          "type": "uint256"
        }
      ],
      "stateMutability": "view",
      "type": "function"
    },
    {
      "inputs": [
        {
          "internalType": "uint256",
          "name": "shares",
          "type": "uint256"
        },
        {
          "internalType": "address",
          "name": "receiver",
          "type": "address"
        }
      ],
      "name": "mint",
      "outputs": [
        {
          "internalType": "uint256",
          "name": "",
          "type": "uint256"
        }
      ],
      "stateMutability": "nonpayable",
      "type": "function"
    },
    {
      "inputs": [
        {
          "internalType": "address",
          "name": "sender",
          "type": "address"
        },
        {
          "internalType": "address",
          "name": "recipient",
          "type": "address"
        },
        {
          "internalType": "uint256",
          "name": "shares",
          "type": "uint256"
        }
      ],
      "name": "mint",
      "outputs": [
        {
          "internalType": "uint256",
          "name": "",
          "type": "uint256"
        }
      ],
      "stateMutability": "nonpayable",
      "type": "function"
    },
    {
      "inputs": [],
      "name": "name",
      "outputs": [
        {
          "internalType": "string",
          "name": "",
          "type": "string"
        }
      ],
      "stateMutability": "view",
      "type": "function"
    },
    {
      "inputs": [
        {
          "internalType": "address",
          "name": "",
          "type": "address"
        }
      ],
      "name": "nonces",
      "outputs": [
        {
          "internalType": "uint256",
          "name": "",
          "type": "uint256"
        }
      ],
      "stateMutability": "view",
      "type": "function"
    },
    {
      "inputs": [
        {
          "internalType": "bytes32",
          "name": "",
          "type": "bytes32"
        }
      ],
      "name": "openRoles",
      "outputs": [
        {
          "internalType": "bool",
          "name": "",
          "type": "bool"
        }
      ],
      "stateMutability": "view",
      "type": "function"
    },
    {
      "inputs": [
        {
          "internalType": "address",
          "name": "owner",
          "type": "address"
        },
        {
          "internalType": "address",
          "name": "spender",
          "type": "address"
        },
        {
          "internalType": "uint256",
          "name": "amount",
          "type": "uint256"
        },
        {
          "internalType": "uint256",
          "name": "deadline",
          "type": "uint256"
        },
        {
          "internalType": "uint8",
          "name": "v",
          "type": "uint8"
        },
        {
          "internalType": "bytes32",
          "name": "r",
          "type": "bytes32"
        },
        {
          "internalType": "bytes32",
          "name": "s",
          "type": "bytes32"
        }
      ],
      "name": "permit",
      "outputs": [
        {
          "internalType": "bool",
          "name": "",
          "type": "bool"
        }
      ],
      "stateMutability": "nonpayable",
      "type": "function"
    },
    {
      "inputs": [
        {
          "internalType": "uint256",
          "name": "assets",
          "type": "uint256"
        }
      ],
      "name": "previewDeposit",
      "outputs": [
        {
          "internalType": "uint256",
          "name": "",
          "type": "uint256"
        }
      ],
      "stateMutability": "view",
      "type": "function"
    },
    {
      "inputs": [
        {
          "internalType": "uint256",
          "name": "shares",
          "type": "uint256"
        }
      ],
      "name": "previewMint",
      "outputs": [
        {
          "internalType": "uint256",
          "name": "",
          "type": "uint256"
        }
      ],
      "stateMutability": "view",
      "type": "function"
    },
    {
      "inputs": [
        {
          "internalType": "uint256",
          "name": "shares",
          "type": "uint256"
        }
      ],
      "name": "previewRedeem",
      "outputs": [
        {
          "internalType": "uint256",
          "name": "",
          "type": "uint256"
        }
      ],
      "stateMutability": "view",
      "type": "function"
    },
    {
      "inputs": [
        {
          "internalType": "uint256",
          "name": "assets",
          "type": "uint256"
        }
      ],
      "name": "previewWithdraw",
      "outputs": [
        {
          "internalType": "uint256",
          "name": "",
          "type": "uint256"
        }
      ],
      "stateMutability": "view",
      "type": "function"
    },
    {
      "inputs": [],
      "name": "profitMaxUnlockTime",
      "outputs": [
        {
          "internalType": "uint256",
          "name": "",
          "type": "uint256"
        }
      ],
      "stateMutability": "view",
      "type": "function"
    },
    {
      "inputs": [],
      "name": "profitUnlockingRate",
      "outputs": [
        {
          "internalType": "uint256",
          "name": "",
          "type": "uint256"
        }
      ],
      "stateMutability": "view",
      "type": "function"
    },
    {
      "inputs": [
        {
          "internalType": "uint256",
          "name": "shares",
          "type": "uint256"
        },
        {
          "internalType": "address",
          "name": "receiver",
          "type": "address"
        },
        {
          "internalType": "address",
          "name": "owner",
          "type": "address"
        },
        {
          "internalType": "uint256",
          "name": "maxLoss",
          "type": "uint256"
        },
        {
          "internalType": "address[]",
          "name": "_strategies",
          "type": "address[]"
        }
      ],
      "name": "redeem",
      "outputs": [
        {
          "internalType": "uint256",
          "name": "",
          "type": "uint256"
        }
      ],
      "stateMutability": "nonpayable",
      "type": "function"
    },
    {
      "inputs": [
        {
          "internalType": "bytes32",
          "name": "role",
          "type": "bytes32"
        },
        {
          "internalType": "address",
          "name": "account",
          "type": "address"
        }
      ],
      "name": "renounceRole",
      "outputs": [],
      "stateMutability": "nonpayable",
      "type": "function"
    },
    {
      "inputs": [
        {
          "internalType": "bytes32",
          "name": "role",
          "type": "bytes32"
        },
        {
          "internalType": "address",
          "name": "account",
          "type": "address"
        }
      ],
      "name": "revokeRole",
      "outputs": [],
      "stateMutability": "nonpayable",
      "type": "function"
    },
    {
      "inputs": [],
      "name": "roleManager",
      "outputs": [
        {
          "internalType": "address",
          "name": "",
          "type": "address"
        }
      ],
      "stateMutability": "view",
      "type": "function"
    },
    {
      "inputs": [
        {
          "internalType": "address",
          "name": "",
          "type": "address"
        }
      ],
      "name": "roles",
      "outputs": [
        {
          "internalType": "bytes32",
          "name": "",
          "type": "bytes32"
        }
      ],
      "stateMutability": "view",
      "type": "function"
    },
    {
      "inputs": [
        {
          "internalType": "uint256",
          "name": "_depositLimit",
          "type": "uint256"
        }
      ],
      "name": "setDepositLimit",
      "outputs": [],
      "stateMutability": "nonpayable",
      "type": "function"
    },
    {
      "inputs": [
        {
          "internalType": "uint256",
          "name": "_minimumTotalIdle",
          "type": "uint256"
        }
      ],
      "name": "setMinimumTotalIdle",
      "outputs": [],
      "stateMutability": "nonpayable",
      "type": "function"
    },
    {
      "inputs": [
        {
          "internalType": "uint256",
          "name": "_totalDebtAmount",
          "type": "uint256"
        }
      ],
      "name": "setTotalDebtAmount",
      "outputs": [],
      "stateMutability": "nonpayable",
      "type": "function"
    },
    {
      "inputs": [
        {
          "internalType": "uint256",
          "name": "_totalIdleAmount",
          "type": "uint256"
        }
      ],
      "name": "setTotalIdleAmount",
      "outputs": [],
      "stateMutability": "nonpayable",
      "type": "function"
    },
    {
      "inputs": [],
      "name": "setters",
      "outputs": [
        {
          "internalType": "address",
          "name": "",
          "type": "address"
        }
      ],
      "stateMutability": "view",
      "type": "function"
    },
    {
      "inputs": [],
      "name": "sharesManager",
      "outputs": [
        {
          "internalType": "address",
          "name": "",
          "type": "address"
        }
      ],
      "stateMutability": "view",
      "type": "function"
    },
    {
      "inputs": [],
      "name": "shutdown",
      "outputs": [
        {
          "internalType": "bool",
          "name": "",
          "type": "bool"
        }
      ],
      "stateMutability": "view",
      "type": "function"
    },
    {
      "inputs": [
        {
          "internalType": "address",
          "name": "owner",
          "type": "address"
        },
        {
          "internalType": "address",
          "name": "spender",
          "type": "address"
        },
        {
          "internalType": "uint256",
          "name": "amount",
          "type": "uint256"
        }
      ],
      "name": "spendAllowance",
      "outputs": [],
      "stateMutability": "nonpayable",
      "type": "function"
    },
    {
      "inputs": [
        {
          "internalType": "address",
          "name": "",
          "type": "address"
        }
      ],
      "name": "strategies",
      "outputs": [
        {
          "internalType": "uint256",
          "name": "activation",
          "type": "uint256"
        },
        {
          "internalType": "uint256",
          "name": "lastReport",
          "type": "uint256"
        },
        {
          "internalType": "uint256",
          "name": "currentDebt",
          "type": "uint256"
        },
        {
          "internalType": "uint256",
          "name": "maxDebt",
          "type": "uint256"
        }
      ],
      "stateMutability": "view",
      "type": "function"
    },
    {
      "inputs": [],
      "name": "strategyManager",
      "outputs": [
        {
          "internalType": "address",
          "name": "",
          "type": "address"
        }
      ],
      "stateMutability": "view",
      "type": "function"
    },
    {
      "inputs": [
        {
          "internalType": "bytes4",
          "name": "interfaceId",
          "type": "bytes4"
        }
      ],
      "name": "supportsInterface",
      "outputs": [
        {
          "internalType": "bool",
          "name": "",
          "type": "bool"
        }
      ],
      "stateMutability": "view",
      "type": "function"
    },
    {
      "inputs": [],
      "name": "symbol",
      "outputs": [
        {
          "internalType": "string",
          "name": "",
          "type": "string"
        }
      ],
      "stateMutability": "view",
      "type": "function"
    },
    {
      "inputs": [],
      "name": "totalAssets",
      "outputs": [
        {
          "internalType": "uint256",
          "name": "",
          "type": "uint256"
        }
      ],
      "stateMutability": "view",
      "type": "function"
    },
    {
      "inputs": [],
      "name": "totalDebtAmount",
      "outputs": [
        {
          "internalType": "uint256",
          "name": "",
          "type": "uint256"
        }
      ],
      "stateMutability": "view",
      "type": "function"
    },
    {
      "inputs": [],
      "name": "totalIdleAmount",
      "outputs": [
        {
          "internalType": "uint256",
          "name": "",
          "type": "uint256"
        }
      ],
      "stateMutability": "view",
      "type": "function"
    },
    {
      "inputs": [],
      "name": "totalSupply",
      "outputs": [
        {
          "internalType": "uint256",
          "name": "",
          "type": "uint256"
        }
      ],
      "stateMutability": "view",
      "type": "function"
    },
    {
      "inputs": [],
      "name": "totalSupplyAmount",
      "outputs": [
        {
          "internalType": "uint256",
          "name": "",
          "type": "uint256"
        }
      ],
      "stateMutability": "view",
      "type": "function"
    },
    {
      "inputs": [
        {
          "internalType": "address",
          "name": "receiver",
          "type": "address"
        },
        {
          "internalType": "uint256",
          "name": "amount",
          "type": "uint256"
        }
      ],
      "name": "transfer",
      "outputs": [
        {
          "internalType": "bool",
          "name": "",
          "type": "bool"
        }
      ],
      "stateMutability": "nonpayable",
      "type": "function"
    },
    {
      "inputs": [
        {
          "internalType": "address",
          "name": "sender",
          "type": "address"
        },
        {
          "internalType": "address",
          "name": "receiver",
          "type": "address"
        },
        {
          "internalType": "uint256",
          "name": "amount",
          "type": "uint256"
        }
      ],
      "name": "transfer",
      "outputs": [],
      "stateMutability": "nonpayable",
      "type": "function"
    },
    {
      "inputs": [
        {
          "internalType": "address",
          "name": "sender",
          "type": "address"
        },
        {
          "internalType": "address",
          "name": "receiver",
          "type": "address"
        },
        {
          "internalType": "uint256",
          "name": "amount",
          "type": "uint256"
        }
      ],
      "name": "transferFrom",
      "outputs": [
        {
          "internalType": "bool",
          "name": "",
          "type": "bool"
        }
      ],
      "stateMutability": "nonpayable",
      "type": "function"
    },
    {
      "inputs": [],
      "name": "unlockedShares",
      "outputs": [
        {
          "internalType": "uint256",
          "name": "",
          "type": "uint256"
        }
      ],
      "stateMutability": "view",
      "type": "function"
    },
    {
      "inputs": [],
      "name": "useDefaultQueue",
      "outputs": [
        {
          "internalType": "bool",
          "name": "",
          "type": "bool"
        }
      ],
      "stateMutability": "view",
      "type": "function"
    },
    {
      "inputs": [
        {
          "internalType": "uint256",
          "name": "assets",
          "type": "uint256"
        },
        {
          "internalType": "address",
          "name": "receiver",
          "type": "address"
        },
        {
          "internalType": "address",
          "name": "owner",
          "type": "address"
        },
        {
          "internalType": "uint256",
          "name": "maxLoss",
          "type": "uint256"
        },
        {
          "internalType": "address[]",
          "name": "_strategies",
          "type": "address[]"
        }
      ],
      "name": "withdraw",
      "outputs": [
        {
          "internalType": "uint256",
          "name": "",
          "type": "uint256"
        }
      ],
      "stateMutability": "nonpayable",
      "type": "function"
    },
    {
      "inputs": [
        {
          "internalType": "address",
          "name": "strategy",
          "type": "address"
        },
        {
          "internalType": "uint256",
          "name": "assetsToWithdraw",
          "type": "uint256"
        }
      ],
      "name": "withdrawFromStrategy",
      "outputs": [],
      "stateMutability": "nonpayable",
      "type": "function"
    },
    {
      "inputs": [],
      "name": "withdrawLimitModule",
      "outputs": [
        {
          "internalType": "address",
          "name": "",
          "type": "address"
        }
      ],
      "stateMutability": "view",
      "type": "function"
    }
  ],
  "transactionHash": "0x5bbdc794406f4341ba7a5041ddb9e7118662446d7585e5769760f67ad0d0369d",
  "args": [
    "0xdf29cb40cb92a1b8e8337f542e3846e185deff96",
    18,
    "Vault Shares FXD",
    "vFXD"
  ],
  "numDeployments": 1,
  "solcInputHash": "94fa051da3b46ef97592ccf25a1c46c7",
  "bytecode": "0x60e06040526301e185586080523480156200001957600080fd5b506040516200573d3803806200573d8339810160408190526200003c91620002e2565b6001601f5560ff831660c0819052610100116200006c5760405163e236476560e01b815260040160405180910390fd5b6001600160a01b03841660a052602162000087838262000481565b50602262000096828262000481565b50620000a4600033620000ae565b5050505062000551565b620000ba828262000137565b62000133576000828152602080805260408083206001600160a01b03851684529091529020805460ff19166001179055620000f23390565b6001600160a01b0316816001600160a01b0316837f2f8788117e7eff1d82e926ec794901d17c78024a50270940304540a733656f0d60405160405180910390a45b5050565b6000828152602080805260408083206001600160a01b038516845290915290205460ff165b92915050565b60006001600160a01b0382166200015c565b6200017f8162000162565b81146200018b57600080fd5b50565b80516200015c8162000174565b60ff81166200017f565b80516200015c816200019b565b634e487b7160e01b600052604160045260246000fd5b601f19601f83011681018181106001600160401b0382111715620001f057620001f0620001b2565b6040525050565b60006200020360405190565b9050620002118282620001c8565b919050565b60006001600160401b03821115620002325762000232620001b2565b601f19601f83011660200192915050565b60005b838110156200026057818101518382015260200162000246565b50506000910152565b6000620002806200027a8462000216565b620001f7565b9050828152602081018484840111156200029d576200029d600080fd5b620002aa84828562000243565b509392505050565b600082601f830112620002c857620002c8600080fd5b8151620002da84826020860162000269565b949350505050565b60008060008060808587031215620002fd57620002fd600080fd5b60006200030b87876200018e565b94505060206200031e87828801620001a5565b93505060408501516001600160401b038111156200033f576200033f600080fd5b6200034d87828801620002b2565b92505060608501516001600160401b038111156200036e576200036e600080fd5b6200037c87828801620002b2565b91505092959194509250565b634e487b7160e01b600052602260045260246000fd5b600281046001821680620003b357607f821691505b602082108103620003c857620003c862000388565b50919050565b60006200015c620003dc8381565b90565b620003ea83620003ce565b81546008840282811b60001990911b908116901990911617825550505050565b600062000419818484620003df565b505050565b818110156200013357620004346000826200040a565b6001016200041e565b601f82111562000419576000818152602090206020601f85010481016020851015620004665750805b6200047a6020601f8601048301826200041e565b5050505050565b81516001600160401b038111156200049d576200049d620001b2565b620004a982546200039e565b620004b68282856200043d565b6020601f831160018114620004ed5760008415620004d45750858201515b600019600886021c198116600286021786555062000549565b600085815260208120601f198616915b828110156200051f5788850151825560209485019460019092019101620004fd565b868310156200053c5784890151600019601f89166008021c191682555b6001600288020188555050505b505050505050565b60805160a05160c051615184620005b9600039600081816106bc01526107020152600081816107630152818161082e0152818161195001528181612df50152818161319c0152818161369101528181613c210152613f840152600061063e01526151846000f3fe608060405234801561001057600080fd5b50600436106105155760003560e01c80638340f549116102a25780638340f54914610a6a5780638afca8f014610a7d5780639198600314610a8657806391d1485414610a9957806394bf804d14610aac57806395d89b4114610abf57806399167fb414610ac75780639937464214610ada5780639a508d0a14610afa5780639af1d35a14610b0d5780639e34e34814610b3c5780639f3988f314610b4f578063a217fddf14610b76578063a9059cbb14610b7e578063a98222c414610b91578063ab5b4d4914610bb8578063acded97d14610bdf578063adba799e14610bf2578063af76d4bd14610c13578063b3c187f214610c26578063b3d7f6b914610c39578063b53d095814610c4c578063bbe4eb4914610c5f578063bdc8144b14610c6c578063beabacc814610c7f578063bee7e3d914610c92578063c034969414610ca5578063c065ca0714610cb8578063c0993eea14610cdf578063c63d75b614610d06578063c6c3bbe614610d19578063c6e6f59214610d2c578063c8d74b6014610d3f578063c8dffa9514610d66578063ca4c1c3714610d6f578063cea5a1a714610d82578063d4ae064f14610d8a578063d505accf14610db1578063d547741f14610dc4578063d73b1dc914610dd7578063d81a09f614610dea578063d9a0e97a14610dfd578063dd62ed3e14610e05578063dd8aaa4f14610e3e578063e0bf18ad14610e51578063e1f21c6714610e59578063e315cd7514610e6c578063ec6e566e14610e7f578063ecf7085814610e92578063ef8b30f714610d2c578063f1daeba814610e9b578063f5b944eb14610ec2578063f828f50b14610ee9578063fc0e74d114610ef2578063fd967f4714610f06578063fec61f0614610f0f578063ff1e7f0814610f3657600080fd5b8062435da51461051a57806301e1d1141461054357806301ffc9a71461055857806303dcd12c1461057857806306580f2d1461059f57806306fdde03146105b257806307a2d13a146105c75780630835a3fc146105da5780630952864e146105e3578063095ea7b3146105ec5780630a28a477146105ff5780630ad283d01461061257806316d3bfbb1461063957806318160ddd146106605780631d8325ef1461066857806323b872dd14610688578063248a9ca31461069b5780632d632692146106ae5780632e0f2625146106b75780632f2ff15d146106eb578063313ce5671461070057806334b5fab6146107265780633644e5151461073957806336568abe1461074257806336fba0841461075557806338d52e0f1461076157806339b70e381461078757806339ebf8231461079a5780633cd7b5ab146107df5780633e986eed146107e85780633f7b5e40146107fb578063402d267d146108035780634542abe2146108165780634800d97f14610829578063485cc9551461085d5780634cdad506146105c75780634ce1d38a146108705780634cfe51dc146108975780634d4bb197146108be5780634fb3ccc5146108d35780635141eebb146108e657806353a66132146108ef5780635453491f146109125780635a5690991461091a5780635aa6e6751461092d5780635bf6b4fb146109405780635d4086af14610967578063652da3241461097a57806365cb6765146109a15780636c43a2ca146109b45780636e553f65146109c757806370a08231146109da5780637659bcc6146109ed57806377e3b26714610a005780637ecebe0014610a245780637ff0007714610a445780638212fd4314610a57575b600080fd5b60175461052d906001600160a01b031681565b60405161053a91906141d0565b60405180910390f35b61054b610f49565b60405161053a91906141e4565b61056b610566366004614214565b610f58565b60405161053a919061423d565b61054b7f633076a97f32ae349b28772e7b1483f67a926f150cbc501d02bdbd77389325ab81565b61054b6105ad366004614380565b610f8f565b6105ba610fcd565b60405161053a919061446a565b61054b6105d536600461447b565b61105b565b61054b60105481565b61054b60195481565b61056b6105fa36600461449c565b611068565b61054b61060d36600461447b565b61107c565b61054b7fc723f4dd6268e1c374639e36d629c765285ee7003913389d582c300f186dde9781565b61054b7f000000000000000000000000000000000000000000000000000000000000000081565b61054b611089565b61067b6106763660046144d9565b611093565b60405161053a919061457b565b61056b610696366004614589565b6112b4565b61054b6106a936600461447b565b6112d6565b61054b601a5481565b6106de7f000000000000000000000000000000000000000000000000000000000000000081565b60405161053a91906145e2565b6106fe6106f93660046145f0565b6112ea565b005b7f00000000000000000000000000000000000000000000000000000000000000006106de565b61054b610734366004614623565b61130b565b61054b601e5481565b6106fe6107503660046145f0565b611359565b61054b64e8d4a5100081565b7f000000000000000000000000000000000000000000000000000000000000000061052d565b60005461052d906001600160a01b031681565b6107cf6107a8366004614683565b60046020526000908152604090208054600182015460028301546003909301549192909184565b60405161053a94939291906146a4565b61054b600f5481565b6106fe6107f63660046146d9565b611398565b61054b600a81565b61054b610811366004614683565b611589565b6106fe6108243660046146fb565b611594565b6108507f000000000000000000000000000000000000000000000000000000000000000081565b60405161053a9190614797565b6106fe61086b3660046147a5565b6115a6565b61054b7f69d1171ac0a63777a6733cda21aec9ed3d48a4fd11f273c934a691dec5e5589c81565b61054b7f862f91c9d89d6135b19873b921c90b702cb2e175c371b8430026b9577e69111981565b61054b6000805160206150cf83398151915281565b60125461052d906001600160a01b031681565b61054b601b5481565b61056b6108fd36600461447b565b60166020526000908152604090205460ff1681565b600f5461054b565b61054b61092836600461449c565b61161b565b60035461052d906001600160a01b031681565b61054b7fea672c1c09cd95c51af9509f646f3615ff0071aae8652bd821471ee9037fd72c81565b61054b6109753660046147df565b6116c5565b61054b7fcd9f023a942ee35097ead74b2505bea9f2c5d47465db92dd195cf7f01a41cfe181565b61054b6109af366004614623565b6116d1565b61056b6109c2366004614589565b6116de565b61054b6109d53660046145f0565b6116eb565b61054b6109e8366004614683565b61170c565b61054b6109fb3660046145f0565b611765565b6105ba604051806040016040528060058152602001640312e302e360dc1b81525081565b61054b610a32366004614683565b601d6020526000908152604090205481565b61054b610a523660046147df565b611771565b6106fe610a6536600461447b565b601055565b61054b610a78366004614589565b61177d565b61054b601c5481565b60145461052d906001600160a01b031681565b61056b610aa73660046145f0565b61178a565b61054b610aba3660046145f0565b6117b3565b6105ba6117c8565b6106fe610ad53660046145f0565b6117d5565b61054b610ae8366004614683565b60156020526000908152604090205481565b6106fe610b0836600461447b565b600f55565b600554600654600754600854610b2c939291906001600160a01b031684565b60405161053a9493929190614812565b60135461052d906001600160a01b031681565b61054b7f6f430d649a8640e48ff9bfbc353b3f99ed630163857821b3b4075e3871dafbf581565b61054b600081565b61056b610b8c36600461449c565b6117df565b61054b7f2f0dbbe8c2c0170206c50ec0cafa1c0dbd03e73e67c2a960178df30a0a30ee2e81565b61054b7f900d80def0427daac599092fcb16b21808ec68dd9a2e1eae89d1e8db2135737581565b60015461052d906001600160a01b031681565b610c05610c00366004614917565b611831565b60405161053a92919061495e565b6106fe610c2136600461449c565b611b1a565b60185461052d906001600160a01b031681565b61054b610c4736600461447b565b611b8b565b6106fe610c5a36600461449c565b611b98565b600a5461056b9060ff1681565b6106fe610c7a36600461447b565b611ba2565b6106fe610c8d366004614589565b611c3b565b60025461052d906001600160a01b031681565b6106fe610cb3366004614589565b611c46565b61054b7f2a0e761830cc61f2707ea7bb138008bf9dda7f7d34c77736d0a116604e95ea1681565b61054b7f8b73c3c69bb8fe3d512ecc4cf759cc79239f7b179b0ffacaa9a75d522b39400f81565b61054b610d14366004614683565b611d0e565b61054b610d27366004614589565b611d27565b61054b610d3a36600461447b565b611d34565b61054b7f152ebba56b9738ee3d8baea1b76fa31dcdcd79b1929bfea7d58ee12cfdf1a65381565b61054b600e5481565b6106fe610d7d3660046145f0565b611d41565b60105461054b565b61054b7fa18eaea71a088b547b8c932b48861853b3434d9a3240b94466c607e28b69659581565b61056b610dbf36600461498d565b611d4b565b6106fe610dd23660046145f0565b611f3d565b61056b610de5366004614589565b611f59565b61054b610df8366004614380565b611fa7565b61054b611fc6565b61054b610e133660046147a5565b6001600160a01b039182166000908152600c6020908152604080832093909416825291909152205490565b6106fe610e4c366004614589565b611fd0565b6106fe611fdb565b61056b610e67366004614589565b612077565b6106fe610e7a36600461447b565b600e55565b6106fe610e8d366004614589565b612084565b61054b60115481565b61054b7f7cbb3cdf689b8ea3e9d265f66bc4e0a99069268217017d38d2a5a559abc6271981565b61054b7ff206625bad3d9112d5609b8d356e6fbd514cd1f69980d4ce2b3e6e68e1789ace81565b61054b600d5481565b60185461056b90600160a01b900460ff1681565b61054b61271081565b61054b7fd45f7ccff42f059d4e47c3f027c444272257266f7e88b981e142f0aa38fbfd7881565b61052d610f4436600461447b565b61208f565b6000610f536120b9565b905090565b60006001600160e01b03198216637965db0b60e01b1480610f8957506301ffc9a760e01b6001600160e01b03198316145b92915050565b6000610f996120cb565b6000610fa68760006120f4565b9050610fb7328787848b898961218a565b915050610fc46001601f55565b95945050505050565b60218054610fda90614a42565b80601f016020809104026020016040519081016040528092919081815260200182805461100690614a42565b80156110535780601f1061102857610100808354040283529160200191611053565b820191906000526020600020905b81548152906001019060200180831161103657829003601f168201915b505050505081565b6000610f898260006120f4565b6000611075338484612227565b9392505050565b6000610f898260016122bf565b6000610f5361236d565b61109b614189565b6110a3614189565b60008054604051634d3c739760e11b81526001600160a01b0390911690639a78e72e906110d49087906004016141d0565b602060405180830381865afa1580156110f1573d6000803e3d6000fd5b505050506040513d601f19601f820116820180604052508101906111159190614a79565b905087156111a0576000546001600160a01b0316633764254a856111398b85614ab0565b6040518363ffffffff1660e01b8152600401611156929190614ac3565b600060405180830381600087803b15801561117057600080fd5b505af1158015611184573d6000803e3d6000fd5b5050505087600e600082825461119a9190614ab0565b90915550505b8615611229576000546001600160a01b0316633764254a856111c28a85614ad1565b6040518363ffffffff1660e01b81526004016111df929190614ac3565b600060405180830381600087803b1580156111f957600080fd5b505af115801561120d573d6000803e3d6000fd5b5050505086600e60008282546112239190614ad1565b90915550505b60006112358789614ab0565b11156112a95761124f6112488789614ab0565b60016122bf565b8251839061125e908390614ab0565b90525085156112a95761127b6112748688614ad1565b60006122bf565b602083015284156112a95760006112928987614ae4565b90506112a2611274606483614b19565b6040840152505b509695505050505050565b60006112c1843384612384565b6112cc8484846123e6565b5060019392505050565b600090815260208052604090206001015490565b6112f3826112d6565b6112fc816124e3565b61130683836124ed565b505050565b600080611319858585612571565b905060006113288260016122bf565b6001600160a01b0387166000908152600b602052604090205490915061134f90829061293b565b9695505050505050565b6001600160a01b038116331461138a5760405162461bcd60e51b815260040161138190614b2d565b60405180910390fd5b6113948282612951565b5050565b60006113a48284614ab0565b9050801561157f57600042600260009054906101000a90046001600160a01b03166001600160a01b0316632d6326926040518163ffffffff1660e01b8152600401602060405180830381865afa158015611402573d6000803e3d6000fd5b505050506040513d601f19601f820116820180604052508101906114269190614a79565b11156114b057600254604080516316b1934960e11b8152905142926001600160a01b031691632d6326929160048083019260209291908290030181865afa158015611475573d6000803e3d6000fd5b505050506040513d601f19601f820116820180604052508101906114999190614a79565b6114a39190614ad1565b6114ad9085614ae4565b90505b600082600260009054906101000a90046001600160a01b03166001600160a01b0316630952864e6040518163ffffffff1660e01b8152600401602060405180830381865afa158015611506573d6000803e3d6000fd5b505050506040513d601f19601f8201168201806040525081019061152a9190614a79565b6115349086614ae4565b61153e9084614ab0565b6115489190614b19565b90508061155a64e8d4a5100085614ae4565b6115649190614b19565b601b556115718142614ab0565b601a55505042601c55505050565b6000601b55505050565b6000610f89826129b6565b6115a084848484612a8e565b50505050565b60006115b1816124e3565b600a54610100900460ff1615156001036115dd5760405162461bcd60e51b815260040161138190614bad565b50600080546001600160a01b039384166001600160a01b03199182161790915560028054929093169116179055600a805461ff001916610100179055565b600080546040516339ebf82360e01b815282916001600160a01b0316906339ebf8239061164c9087906004016141d0565b608060405180830381865afa158015611669573d6000803e3d6000fd5b505050506040513d601f19601f8201168201806040525081019061168d9190614bbd565b5092505050828110156116b3576040516337deae0760e01b815260040160405180910390fd5b6116bd8484612b6a565b949350505050565b600061107583836122bf565b60006116bd848484612571565b60006116bd848484612d2d565b60006116f56120cb565b611700338385612d62565b9050610f896001601f55565b6000306001600160a01b0383160361174957611726612efc565b6001600160a01b0383166000908152600b6020526040902054610f899190614ad1565b506001600160a01b03166000908152600b602052604090205490565b60006110758383613045565b600061107583836120f4565b60006116bd848484612d62565b6000918252602080805260408084206001600160a01b0393909316845291905290205460ff1690565b60006117bd6120cb565b6117003383856130fa565b60228054610fda90614a42565b611394828261326e565b60006001600160a01b0383163014806117ff57506001600160a01b038316155b1561181d5760405163d92e233d60e01b815260040160405180910390fd5b6118283384846123e6565b50600192915050565b6000806000808560200151111561199d5760208501516001546012546040516370a0823160e01b8152611940939261193b926001600160a01b03918216926370a08231926118839216906004016141d0565b602060405180830381865afa1580156118a0573d6000803e3d6000fd5b505050506040513d601f19601f820116820180604052508101906118c49190614a79565b600154601254604051636eb1769f60e11b81526001600160a01b039283169263dd62ed3e926118fa929116903090600401614c15565b602060405180830381865afa158015611917573d6000803e3d6000fd5b505050506040513d601f19601f8201168201806040525081019061193b9190614a79565b61293b565b60208601819052601254611981917f0000000000000000000000000000000000000000000000000000000000000000916001600160a01b0316903090612a8e565b8460200151600f60008282546119979190614ab0565b90915550505b60008560200151856119af9190614ab0565b118015611a315750600260009054906101000a90046001600160a01b03166001600160a01b0316630952864e6040518163ffffffff1660e01b8152600401602060405180830381865afa158015611a0a573d6000803e3d6000fd5b505050506040513d601f19601f82011682018060405250810190611a2e9190614a79565b15155b15611a5257611a4f856020015185611a499190614ab0565b30613045565b90505b306000908152600b6020526040812054611a6d908390614ad1565b875190915015611ace578651611a879061193b8484614ab0565b808852611a94903061326e565b6000611aa488600001518461293b565b9050611ab08184614ad1565b8851909350611ac0908290614ad1565b611aca9083614ad1565b9150505b602087015115611af3576020870151601254611af391906001600160a01b0316613325565b604087015115611b0f57611b0f87604001518760600151613325565b969095509350505050565b604051636e553f6560e01b81526001600160a01b03831690636e553f6590611b489084903090600401614c30565b6020604051808303816000875af1158015611b67573d6000803e3d6000fd5b505050506040513d601f19601f820116820180604052508101906113069190614a79565b6000610f898260016120f4565b61139482826133be565b601854600160a01b900460ff161515600103611bd157604051630f3c386760e01b815260040160405180910390fd5b6013546001600160a01b031615611bfb576040516364b9991160e11b815260040160405180910390fd5b60118190556040517fae565aab888bca5e19e25a13db7b0c9144305bf55cb0f3f4d724f730e5acdd6290611c309083906141e4565b60405180910390a150565b6113068383836123e6565b6001600160a01b0383161580611c6357506001600160a01b038216155b15611c815760405163d92e233d60e01b815260040160405180910390fd5b60405163095ea7b360e01b81526001600160a01b0384169063095ea7b390611caf9085908590600401614ac3565b6020604051808303816000875af1158015611cce573d6000803e3d6000fd5b505050506040513d601f19601f82011682018060405250810190611cf29190614c51565b6113065760405162461bcd60e51b815260040161138190614c98565b600080611d1a836129b6565b90506110758160006122bf565b60006116bd8484846130fa565b6000610f898260006122bf565b6113948282613325565b60006001600160a01b038816611d745760405163d92e233d60e01b815260040160405180910390fd5b42851015611d95576040516363bef56160e11b815260040160405180910390fd5b6001600160a01b0388166000908152601d60209081526040808320549051909291611dda916000805160206150cf833981519152918d918d918d9188918e9101614ca8565b6040516020818303038152906040528051906020012090506000601e5482604051602001611e09929190614cf7565b604051602081830303815290604052805190602001209050600060018289898960405160008152602001604052604051611e469493929190614d28565b6020604051602081039080840390855afa158015611e68573d6000803e3d6000fd5b5050604051601f1901519150506001600160a01b0381161580611e9d57508b6001600160a01b0316816001600160a01b031614155b15611ebb576040516310454c9960e31b815260040160405180910390fd5b611ec68c8c8c612227565b506001600160a01b038c166000908152601d60205260408120805491611eeb83614d43565b91905055508a6001600160a01b03168c6001600160a01b03166000805160206150ef8339815191528c604051611f2191906141e4565b60405180910390a360019450505050505b979650505050505050565b611f46826112d6565b611f4f816124e3565b6113068383612951565b6001600160a01b038084166000908152600c602090815260408083209386168352929052908120548190611f8e908490614ad1565b9050611f9b858583612227565b50600195945050505050565b600080611fb58760016122bf565b90506112a93287878a85898961218a565b6000610f53612efc565b611306838383612384565b6000611fe5612efc565b905080600003611ff25750565b600254604080516316b1934960e11b8152905142926001600160a01b031691632d6326929160048083019260209291908290030181865afa15801561203b573d6000803e3d6000fd5b505050506040513d601f19601f8201168201806040525081019061205f9190614a79565b111561206a5742601c555b612074813061326e565b50565b60006116bd848484612227565b6113068383836134d2565b6009818154811061209f57600080fd5b6000918252602090912001546001600160a01b0316905081565b6000600e54600f54610f539190614ab0565b6002601f54036120ed5760405162461bcd60e51b815260040161138190614d91565b6002601f55565b6000600019831480612104575082155b15612110575081610f89565b600061211a61236d565b90508060000361212d5783915050610f89565b60006121376120b9565b6121419086614ae4565b9050600061214f8383614b19565b9050600185600181111561216557612165614da1565b14801561217a57506121778383614db7565b15155b15610fc45761134f600182614ab0565b60006121988787868661359a565b6121a386898661363e565b6000806121b08785613662565b915091506121c38989888a86868b613f13565b876001600160a01b0316896001600160a01b03168b6001600160a01b03167ffbde797d201c681b91056529119e0b02407c7bb96a4a2c75c01fc9667232c8db858a60405161221292919061495e565b60405180910390a45098975050505050505050565b60006001600160a01b038416158061224657506001600160a01b038316155b156122645760405163d92e233d60e01b815260040160405180910390fd5b6001600160a01b038085166000818152600c602090815260408083209488168084529490915290819020859055516000805160206150ef833981519152906122ad9086906141e4565b60405180910390a35060019392505050565b60006000198314806122cf575082155b156122db575081610f89565b60006122e561236d565b905060006122f16120b9565b905080600003612318578160000361230d578492505050610f89565b600092505050610f89565b60006123248387614ae4565b905060006123328383614b19565b9050600186600181111561234857612348614da1565b14801561235d575061235a8383614db7565b15155b1561134f57611f32600182614ab0565b6000612377612efc565b600d54610f539190614ad1565b6001600160a01b038084166000908152600c6020908152604080832093861683529290522054818110156123cb5760405163017e286b60e51b815260040160405180910390fd5b6123df84846123da8585614ad1565b612227565b5050505050565b6001600160a01b0383166000908152600b6020526040902054818110156124205760405163356680b760e01b815260040160405180910390fd5b6001600160a01b038416158061243d57506001600160a01b038316155b1561245b5760405163d92e233d60e01b815260040160405180910390fd5b6124658282614ad1565b6001600160a01b038086166000908152600b602052604080822093909355908516815220546124948382614ab0565b6001600160a01b038086166000818152600b602052604090819020939093559151908716906000805160206150af833981519152906124d49087906141e4565b60405180910390a35050505050565b6120748133613fb3565b6124f7828261178a565b611394576000828152602080805260408083206001600160a01b03851684529091529020805460ff1916600117905561252d3390565b6001600160a01b0316816001600160a01b0316837f2f8788117e7eff1d82e926ec794901d17c78024a50270940304540a733656f0d60405160405180910390a45050565b6001600160a01b0383166000908152600b6020526040812054819061259690826120f4565b6014549091506001600160a01b03161561263857601454604051632319b8cf60e01b81526000916001600160a01b031690632319b8cf906125df90899089908990600401614e28565b6020604051808303816000875af11580156125fe573d6000803e3d6000fd5b505050506040513d601f19601f820116820180604052508101906126229190614a79565b905081811015612630578091505b509050611075565b600f5480821115612932578351819060009081901580159061265d5750600a5460ff16155b6126c15760098054806020026020016040519081016040528092919081815260200182805480156126b757602002820191906000526020600020905b81546001600160a01b03168152600190910190602001808311612699575b50505050506126c3565b865b905060005b815181101561292b5760008282815181106126e5576126e5614e55565b6020026020010151905060046000826001600160a01b03166001600160a01b031681526020019081526020016000206000015460000361273857604051630631bc2160e51b815260040160405180910390fd5b6000612768612747878a614ad1565b6001600160a01b03841660009081526004602052604090206002015461293b565b905060006127768383612b6a565b90506000836001600160a01b03166307a2d13a856001600160a01b031663d905777e306040518263ffffffff1660e01b81526004016127b591906141d0565b602060405180830381865afa1580156127d2573d6000803e3d6000fd5b505050506040513d601f19601f820116820180604052508101906127f69190614a79565b6040518263ffffffff1660e01b815260040161281291906141e4565b602060405180830381865afa15801561282f573d6000803e3d6000fd5b505050506040513d601f19601f820116820180604052508101906128539190614a79565b905061285f8284614ad1565b81101561288a57826128718284614ae4565b61287b9190614b19565b91506128878282614ab0565b92505b8260000361289b5750505050612919565b6000821180156128ac57506127108d105b156128ec576127108d6128bf858b614ab0565b6128c99190614ae4565b6128d39190614b19565b6128dd8389614ab0565b11156128ec575050505061292b565b6128f68389614ab0565b9750898810612908575050505061292b565b6129128288614ab0565b9650505050505b8061292381614d43565b9150506126c8565b5091935050505b50949350505050565b600081831061294a5781611075565b5090919050565b61295b828261178a565b15611394576000828152602080805260408083206001600160a01b0385168085529252808320805460ff1916905551339285917ff6391f5c32d9c69d2a47ea670b442974b53935d1edc7fd64eb21e047a839171b9190a45050565b60006001600160a01b0382163014806129d657506001600160a01b038216155b156129e357506000919050565b6013546001600160a01b03168015612a6257604051632355178960e11b81526001600160a01b038216906346aa2f1290612a219086906004016141d0565b602060405180830381865afa158015612a3e573d6000803e3d6000fd5b505050506040513d601f19601f820116820180604052508101906110759190614a79565b6000612a6c6120b9565b601154909150808210612a8457506000949350505050565b610fc48282614ad1565b6001600160a01b0384161580612aab57506001600160a01b038316155b80612abd57506001600160a01b038216155b15612adb5760405163d92e233d60e01b815260040160405180910390fd5b6040516323b872dd60e01b81526001600160a01b038516906323b872dd90612b0b90869086908690600401614e6b565b6020604051808303816000875af1158015612b2a573d6000803e3d6000fd5b505050506040513d601f19601f82011682018060405250810190612b4e9190614c51565b6115a05760405162461bcd60e51b815260040161138190614eb9565b600080546040516339ebf82360e01b815282916001600160a01b0316906339ebf82390612b9b9087906004016141d0565b608060405180830381865afa158015612bb8573d6000803e3d6000fd5b505050506040513d601f19601f82011682018060405250810190612bdc9190614bbd565b50925050506000846001600160a01b03166370a08231306040518263ffffffff1660e01b8152600401612c0f91906141d0565b602060405180830381865afa158015612c2c573d6000803e3d6000fd5b505050506040513d601f19601f82011682018060405250810190612c509190614a79565b90506000856001600160a01b03166307a2d13a836040518263ffffffff1660e01b8152600401612c8091906141e4565b602060405180830381865afa158015612c9d573d6000803e3d6000fd5b505050506040513d601f19601f82011682018060405250810190612cc19190614a79565b90508281101580612cd0575082155b15612ce15760009350505050610f89565b6000612ced8287614ae4565b90506000612cfb8583614b19565b612d059088614ad1565b9050612d118583614db7565b15611f3257612d21600182614ab0565b98975050505050505050565b6001600160a01b038084166000908152600c602090815260408083209386168352929052908120548190611f8e908490614ab0565b601854600090600160a01b900460ff161515600103612d9457604051630f3c386760e01b815260040160405180910390fd5b612d9d836129b6565b821115612dbd576040516325d16c5160e01b815260040160405180910390fd5b60008211612dde57604051637c946ed760e01b815260040160405180910390fd5b6040516323b872dd60e01b81526001600160a01b037f000000000000000000000000000000000000000000000000000000000000000016906323b872dd90612e2e90329030908790600401614e6b565b6020604051808303816000875af1158015612e4d573d6000803e3d6000fd5b505050506040513d601f19601f82011682018060405250810190612e719190614c51565b5081600f6000828254612e849190614ab0565b9091555060009050612e968385613045565b905060008111612eb957604051637c946ed760e01b815260040160405180910390fd5b836001600160a01b0316856001600160a01b031660008051602061510f8339815191528584604051612eec92919061495e565b60405180910390a3949350505050565b600080600260009054906101000a90046001600160a01b03166001600160a01b0316632d6326926040518163ffffffff1660e01b8152600401602060405180830381865afa158015612f52573d6000803e3d6000fd5b505050506040513d601f19601f82011682018060405250810190612f769190614a79565b90506000428211156130285764e8d4a51000601c5442612f969190614ad1565b600260009054906101000a90046001600160a01b03166001600160a01b0316635141eebb6040518163ffffffff1660e01b8152600401602060405180830381865afa158015612fe9573d6000803e3d6000fd5b505050506040513d601f19601f8201168201806040525081019061300d9190614a79565b6130179190614ae4565b6130219190614b19565b9050610f89565b8115610f895750306000908152600b602052604090205492915050565b60006001600160a01b03821661306e5760405163d92e233d60e01b815260040160405180910390fd5b600061307861236d565b905060006130846120b9565b90506000826000036130975750846130dc565b858211156130c4576130a98683614ad1565b6130b38488614ae4565b6130bd9190614b19565b90506130dc565b60405162461bcd60e51b815260040161138190614eef565b806000036130f05760009350505050610f89565b610fc48186613325565b601854600090600160a01b900460ff16151560010361312c57604051630f3c386760e01b815260040160405180910390fd5b60006131398360016120f4565b90506000811161315c57604051637c946ed760e01b815260040160405180910390fd5b613165846129b6565b811115613185576040516325d16c5160e01b815260040160405180910390fd5b6040516323b872dd60e01b81526001600160a01b037f000000000000000000000000000000000000000000000000000000000000000016906323b872dd906131d590889030908690600401614e6b565b6020604051808303816000875af11580156131f4573d6000803e3d6000fd5b505050506040513d601f19601f820116820180604052508101906132189190614c51565b5080600f600082825461322b9190614ab0565b9091555061323b90508385613325565b836001600160a01b0316856001600160a01b031660008051602061510f8339815191528386604051612eec92919061495e565b6001600160a01b0381166000908152600b60205260409020548211156132a757604051633999656760e01b815260040160405180910390fd5b6001600160a01b0381166000908152600b6020526040812080548492906132cf908490614ad1565b9250508190555081600d60008282546132e89190614ad1565b90915550506040516000906001600160a01b038316906000805160206150af833981519152906133199086906141e4565b60405180910390a35050565b6001600160a01b03811661334c5760405163d92e233d60e01b815260040160405180910390fd5b6001600160a01b0381166000908152600b602052604081208054849290613374908490614ab0565b9250508190555081600d600082825461338d9190614ab0565b90915550506040516001600160a01b038216906000906000805160206150af833981519152906133199086906141e4565b600061345c836001600160a01b0316630a28a477846040518263ffffffff1660e01b81526004016133ef91906141e4565b602060405180830381865afa15801561340c573d6000803e3d6000fd5b505050506040513d601f19601f820116820180604052508101906134309190614a79565b6040516370a0823160e01b81526001600160a01b038616906370a08231906118fa9030906004016141d0565b604051635d043b2960e11b81529091506001600160a01b0384169063ba0876529061348f90849030908190600401614eff565b6020604051808303816000875af11580156134ae573d6000803e3d6000fd5b505050506040513d601f19601f820116820180604052508101906115a09190614a79565b6001600160a01b03831615806134ef57506001600160a01b038216155b1561350d5760405163d92e233d60e01b815260040160405180910390fd5b60405163a9059cbb60e01b81526001600160a01b0384169063a9059cbb9061353b9085908590600401614ac3565b6020604051808303816000875af115801561355a573d6000803e3d6000fd5b505050506040513d601f19601f8201168201806040525081019061357e9190614c51565b6113065760405162461bcd60e51b815260040161138190614eb9565b6001600160a01b0384166135c15760405163d92e233d60e01b815260040160405180910390fd5b6127108111156135e457604051631a7ed0a160e31b815260040160405180910390fd5b6000821161360557604051637c946ed760e01b815260040160405180910390fd5b6001600160a01b0383166000908152600b60205260409020548211156115a057604051633999656760e01b815260040160405180910390fd5b826001600160a01b0316826001600160a01b03161461130657611306838383612384565b60008060006040518060c00160405280868152602001600f548152602001600e548152602001600081526020017f00000000000000000000000000000000000000000000000000000000000000006001600160a01b03166370a08231306040518263ffffffff1660e01b81526004016136db91906141d0565b602060405180830381865afa1580156136f8573d6000803e3d6000fd5b505050506040513d601f19601f8201168201806040525081019061371c9190614a79565b8152600060209182015281015181519192501015613f00576060600085516000141580156137bc575060008054906101000a90046001600160a01b03166001600160a01b031663bbe4eb496040518163ffffffff1660e01b8152600401602060405180830381865afa158015613796573d6000803e3d6000fd5b505050506040513d601f19601f820116820180604052508101906137ba9190614c51565b155b156137cc5750508351849061383c565b60008054604080516329f3cef560e01b815290516001600160a01b03909216926329f3cef5926004808401938290030181865afa158015613811573d6000803e3d6000fd5b505050506040513d6000823e601f3d908101601f191682016040526138399190810190614fa7565b91505b6020830151835161384d9190614ad1565b606084015260005b8251811015613ece57600083828151811061387257613872614e55565b6020908102919091010151600080546040516339ebf82360e01b815292935090916001600160a01b03909116906339ebf823906138b39085906004016141d0565b608060405180830381865afa1580156138d0573d6000803e3d6000fd5b505050506040513d601f19601f820116820180604052508101906138f49190614bbd565b50505090508060000361391a57604051630631bc2160e51b815260040160405180910390fd5b600080546040516339ebf82360e01b81526001600160a01b03909116906339ebf8239061394b9086906004016141d0565b608060405180830381865afa158015613968573d6000803e3d6000fd5b505050506040513d601f19601f8201168201806040525081019061398c9190614bbd565b509250505060006139a188606001518361293b565b90506000846001600160a01b03166307a2d13a866001600160a01b031663d905777e306040518263ffffffff1660e01b81526004016139e091906141d0565b602060405180830381865afa1580156139fd573d6000803e3d6000fd5b505050506040513d601f19601f82011682018060405250810190613a219190614a79565b6040518263ffffffff1660e01b8152600401613a3d91906141e4565b602060405180830381865afa158015613a5a573d6000803e3d6000fd5b505050506040513d601f19601f82011682018060405250810190613a7e9190614a79565b90506000613a8c8684612b6a565b90508015613bde57613a9e8184614ad1565b821015613ad8576000613ab18285614ad1565b905080613abe8484614ae4565b613ac89190614b19565b9150613ad48284614ab0565b9350505b613ae28184614ad1565b9250808a600001818151613af69190614ad1565b90525060608a018051829190613b0d908390614ad1565b90525060408a018051829190613b24908390614ad1565b90525081158015613b355750600081115b15613bde576000613b468286614ad1565b600054604051631bb212a560e11b81529192506001600160a01b031690633764254a90613b79908a908590600401614ac3565b600060405180830381600087803b158015613b9357600080fd5b505af1158015613ba7573d6000803e3d6000fd5b50505050866001600160a01b031660008051602061512f8339815191528683604051613bd492919061495e565b60405180910390a2505b613be8838361293b565b925082600003613bfd57505050505050613ebc565b613c0786846133be565b6040516370a0823160e01b81526000906001600160a01b037f000000000000000000000000000000000000000000000000000000000000000016906370a0823190613c569030906004016141d0565b602060405180830381865afa158015613c73573d6000803e3d6000fd5b505050506040513d601f19601f82011682018060405250810190613c979190614a79565b905060008b6080015182613cab9190614ad1565b9050600085821115613ce25786821115613cc757869550613cf7565b613cd18683614ad1565b613cdb9087614ab0565b9550613cf7565b85821015613cf757613cf48287614ad1565b90505b600081878f60200151613d0a9190614ab0565b613d149190614ad1565b11613d2557600060208e0152613d44565b613d2f8187614ad1565b8d602001818151613d409190614ab0565b9052505b8c51600090613d54908390614ad1565b11613d625760008d52613d78565b808d600001818151613d749190614ad1565b9052505b6000868e60400151613d8a9190614ad1565b11613d9b57600060408e0152613db1565b858d604001818151613dad9190614ad1565b9052505b6000613dbd8588614ab0565b881015613dcc57506000613de3565b613dd68588614ab0565b613de09089614ad1565b90505b600054604051631bb212a560e11b81526001600160a01b0390911690633764254a90613e15908d908590600401614ac3565b600060405180830381600087803b158015613e2f57600080fd5b505af1158015613e43573d6000803e3d6000fd5b50505050896001600160a01b031660008051602061512f8339815191528983604051613e7092919061495e565b60405180910390a260208e01518e5111613e935750505050505050505050613ece565b60808e0184905260608e018051889190613eae908390614ad1565b905250505050505050505050505b80613ec681614d43565b915050613855565b50825160208401511015613ef5576040516396d8043360e01b815260040160405180910390fd5b50506040810151600e555b8051602090910151909590945092505050565b8284118015613f23575061271081105b15613f6857612710613f358286614ae4565b613f3f9190614b19565b613f498486614ad1565b1115613f68576040516307f65e3960e11b815260040160405180910390fd5b613f72858761326e565b613f7c8383614ad1565b600f55613faa7f000000000000000000000000000000000000000000000000000000000000000088856134d2565b50505050505050565b613fbd828261178a565b61139457613fca8161400c565b613fd583602061401e565b604051602001613fe6929190615003565b60408051601f198184030181529082905262461bcd60e51b82526113819160040161446a565b6060610f896001600160a01b03831660145b6060600061402d836002614ae4565b614038906002614ab0565b6001600160401b0381111561404f5761404f61427a565b6040519080825280601f01601f191660200182016040528015614079576020820181803683370190505b509050600360fc1b8160008151811061409457614094614e55565b60200101906001600160f81b031916908160001a905350600f60fb1b816001815181106140c3576140c3614e55565b60200101906001600160f81b031916908160001a90535060006140e7846002614ae4565b6140f2906001614ab0565b90505b600181111561416a576f181899199a1a9b1b9c1cb0b131b232b360811b85600f166010811061412657614126614e55565b1a60f81b82828151811061413c5761413c614e55565b60200101906001600160f81b031916908160001a90535060049490941c9361416381615055565b90506140f5565b5083156110755760405162461bcd60e51b81526004016113819061509e565b60405180606001604052806000815260200160008152602001600081525090565b6001600160a01b031690565b6000610f89826141aa565b6141ca816141b6565b82525050565b60208101610f8982846141c1565b806141ca565b60208101610f8982846141de565b6001600160e01b031981165b811461207457600080fd5b8035610f89816141f2565b60006020828403121561422957614229600080fd5b60006116bd8484614209565b8015156141ca565b60208101610f898284614235565b806141fe565b8035610f898161424b565b6141fe816141b6565b8035610f898161425c565b601f01601f191690565b634e487b7160e01b600052604160045260246000fd5b61429982614270565b81018181106001600160401b03821117156142b6576142b661427a565b6040525050565b60006142c860405190565b90506142d48282614290565b919050565b60006001600160401b038211156142f2576142f261427a565b5060209081020190565b600061430f61430a846142d9565b6142bd565b8381529050602080820190840283018581111561432e5761432e600080fd5b835b8181101561435257806143438882614265565b84525060209283019201614330565b5050509392505050565b600082601f83011261437057614370600080fd5b81356116bd8482602086016142fc565b600080600080600060a0868803121561439b5761439b600080fd5b60006143a78888614251565b95505060206143b888828901614265565b94505060406143c988828901614265565b93505060606143da88828901614251565b92505060808601356001600160401b038111156143f9576143f9600080fd5b6144058882890161435c565b9150509295509295909350565b60005b8381101561442d578181015183820152602001614415565b50506000910152565b6000614440825190565b808452602084019350614457818560208601614412565b61446081614270565b9093019392505050565b602080825281016110758184614436565b60006020828403121561449057614490600080fd5b60006116bd8484614251565b600080604083850312156144b2576144b2600080fd5b60006144be8585614265565b92505060206144cf85828601614251565b9150509250929050565b600080600080600060a086880312156144f4576144f4600080fd5b60006145008888614251565b955050602061451188828901614251565b945050604061452288828901614251565b935050606061453388828901614251565b925050608061440588828901614265565b8051606083019061455584826141de565b50602082015161456860208501826141de565b5060408201516115a060408501826141de565b60608101610f898284614544565b6000806000606084860312156145a1576145a1600080fd5b60006145ad8686614265565b93505060206145be86828701614265565b92505060406145cf86828701614251565b9150509250925092565b60ff81166141ca565b60208101610f8982846145d9565b6000806040838503121561460657614606600080fd5b60006146128585614251565b92505060206144cf85828601614265565b60008060006060848603121561463b5761463b600080fd5b60006146478686614265565b935050602061465886828701614251565b92505060408401356001600160401b0381111561467757614677600080fd5b6145cf8682870161435c565b60006020828403121561469857614698600080fd5b60006116bd8484614265565b608081016146b282876141de565b6146bf60208301866141de565b6146cc60408301856141de565b610fc460608301846141de565b600080604083850312156146ef576146ef600080fd5b60006144be8585614251565b6000806000806080858703121561471457614714600080fd5b60006147208787614265565b945050602061473187828801614265565b935050604061474287828801614265565b925050606061475387828801614251565b91505092959194509250565b6000610f89614773614770846141aa565b90565b6141aa565b6000610f898261475f565b6000610f8982614778565b6141ca81614783565b60208101610f89828461478e565b600080604083850312156147bb576147bb600080fd5b60006146128585614265565b6002811061207457600080fd5b8035610f89816147c7565b600080604083850312156147f5576147f5600080fd5b60006148018585614251565b92505060206144cf858286016147d4565b6080810161482082876141de565b61482d60208301866141de565b61483a60408301856141de565b610fc460608301846141c1565b60006060828403121561485c5761485c600080fd5b61486660606142bd565b905060006148748484614251565b825250602061488584848301614251565b602083015250604061489984828501614251565b60408301525092915050565b6000608082840312156148ba576148ba600080fd5b6148c460806142bd565b905060006148d28484614251565b82525060206148e384848301614251565b60208301525060406148f784828501614251565b604083015250606061490b84828501614265565b60608301525092915050565b6000806000610100848603121561493057614930600080fd5b600061493c8686614847565b935050606061494d868287016148a5565b92505060e06145cf86828701614251565b6040810161496c82856141de565b61107560208301846141de565b60ff81166141fe565b8035610f8981614979565b600080600080600080600060e0888a0312156149ab576149ab600080fd5b60006149b78a8a614265565b97505060206149c88a828b01614265565b96505060406149d98a828b01614251565b95505060606149ea8a828b01614251565b94505060806149fb8a828b01614982565b93505060a0614a0c8a828b01614251565b92505060c0614a1d8a828b01614251565b91505092959891949750929550565b634e487b7160e01b600052602260045260246000fd5b600281046001821680614a5657607f821691505b602082108103614a6857614a68614a2c565b50919050565b8051610f898161424b565b600060208284031215614a8e57614a8e600080fd5b60006116bd8484614a6e565b634e487b7160e01b600052601160045260246000fd5b80820180821115610f8957610f89614a9a565b6040810161496c82856141c1565b81810381811115610f8957610f89614a9a565b6000816000190483118215151615614afe57614afe614a9a565b500290565b634e487b7160e01b600052601260045260246000fd5b600082614b2857614b28614b03565b500490565b60208082528101610f8981602f81527f416363657373436f6e74726f6c3a2063616e206f6e6c792072656e6f756e636560208201526e103937b632b9903337b91039b2b63360891b604082015260600190565b6013815260006020820172185b1c9958591e481a5b9a5d1a585b1a5e9959606a1b815291505b5060200190565b60208082528101610f8981614b80565b60008060008060808587031215614bd657614bd6600080fd5b6000614be28787614a6e565b9450506020614bf387828801614a6e565b9350506040614c0487828801614a6e565b925050606061475387828801614a6e565b60408101614c2382856141c1565b61107560208301846141c1565b60408101614c2382856141de565b8015156141fe565b8051610f8981614c3e565b600060208284031215614c6657614c66600080fd5b60006116bd8484614c46565b600f81526000602082016e185c1c1c9bdd985b0819985a5b1959608a1b81529150614ba6565b60208082528101610f8981614c72565b60c08101614cb682896141de565b614cc360208301886141c1565b614cd060408301876141c1565b614cdd60608301866141de565b614cea60808301856141de565b611f3260a08301846141de565b61190160f01b81526002016000614d0e82856141de565b602082019150614d1e82846141de565b5060200192915050565b60808101614d3682876141de565b6146bf60208301866145d9565b60006000198203614d5657614d56614a9a565b5060010190565b601f81526000602082017f5265656e7472616e637947756172643a207265656e7472616e742063616c6c0081529150614ba6565b60208082528101610f8981614d5d565b634e487b7160e01b600052602160045260246000fd5b600082614dc657614dc6614b03565b500690565b6000614dd783836141c1565b505060200190565b6000614de9825190565b80845260209384019383018060005b83811015614e1d578151614e0c8882614dcb565b975060208301925050600101614df8565b509495945050505050565b60608101614e3682866141c1565b614e4360208301856141de565b8181036040830152610fc48184614ddf565b634e487b7160e01b600052603260045260246000fd5b60608101614e7982866141c1565b614e8660208301856141c1565b6116bd60408301846141de565b600f81526000602082016e1d1c985b9cd9995c8819985a5b1959608a1b81529150614ba6565b60208082528101610f8981614e93565b600f81526000602082016e0c2dadeeadce840e8dede40d0d2ced608b1b81529150614ba6565b60208082528101610f8981614ec9565b60608101614f0d82866141de565b614f1a60208301856141c1565b6116bd60408301846141c1565b8051610f898161425c565b6000614f4061430a846142d9565b83815290506020808201908402830185811115614f5f57614f5f600080fd5b835b818110156143525780614f748882614f27565b84525060209283019201614f61565b600082601f830112614f9757614f97600080fd5b81516116bd848260208601614f32565b600060208284031215614fbc57614fbc600080fd5b81516001600160401b03811115614fd557614fd5600080fd5b6116bd84828501614f83565b6000614feb825190565b614ff9818560208601614412565b9290920192915050565b76020b1b1b2b9b9a1b7b73a3937b61d1030b1b1b7bab73a1604d1b8152601701600061502f8285614fe1565b7001034b99036b4b9b9b4b733903937b6329607d1b815260110191506116bd8284614fe1565b60008161506457615064614a9a565b506000190190565b60208082527f537472696e67733a20686578206c656e67746820696e73756666696369656e7491019081526000614ba6565b60208082528101610f898161506c56feddf252ad1be2c89b69c2b068fc378daa952ba7f163c4a11628f55a4df523b3ef6e71edae12b1b97f4d1f60370fef10105fa2faae0126114a169c64845d6126c98c5be1e5ebec7d5bd14f71427d1e84f3dd0314c0f7b2291e5b200ac8c7c3b925dcbc1c05240f31ff3ad067ef1ee35ce4997762752e3a095284754544f4c709d75e2b8821ad6e0e26207e0cb4d242d07eeb1cbb1cfd853e645bdcd27cc5484f95a2646970667358221220580e03267b78dae7441af6bc6427d2bb118bd513075f7f00b3a8d5c663151c3b64736f6c63430008100033",
  "devdoc": {
    "kind": "dev",
    "methods": {
      "allowance(address,address)": {
        "details": "Returns the remaining number of tokens that `spender` will be allowed to spend on behalf of `owner` through {transferFrom}. This is zero by default. This value changes when {approve} or {transferFrom} are called."
      },
      "approve(address,uint256)": {
        "details": "Sets `amount` as the allowance of `spender` over the caller's tokens. Returns a boolean value indicating whether the operation succeeded. IMPORTANT: Beware that changing an allowance with this method brings the risk that someone may use both the old and the new allowance by unfortunate transaction ordering. One possible solution to mitigate this race condition is to first reduce the spender's allowance to 0 and set the desired value afterwards: https://github.com/ethereum/EIPs/issues/20#issuecomment-263524729 Emits an {Approval} event."
      },
      "asset()": {
        "details": "Returns the address of the underlying token used for the Vault for accounting, depositing, and withdrawing. - MUST be an ERC-20 token contract. - MUST NOT revert."
      },
      "convertToAssets(uint256)": {
        "details": "Returns the amount of assets that the Vault would exchange for the amount of shares provided, in an ideal scenario where all the conditions are met. - MUST NOT be inclusive of any fees that are charged against assets in the Vault. - MUST NOT show any variations depending on the caller. - MUST NOT reflect slippage or other on-chain conditions, when performing the actual exchange. - MUST NOT revert. NOTE: This calculation MAY NOT reflect the per-user price-per-share, and instead should reflect the average-users price-per-share, meaning what the average user should expect to see when exchanging to and from."
      },
      "convertToShares(uint256)": {
        "details": "Returns the amount of shares that the Vault would exchange for the amount of assets provided, in an ideal scenario where all the conditions are met. - MUST NOT be inclusive of any fees that are charged against assets in the Vault. - MUST NOT show any variations depending on the caller. - MUST NOT reflect slippage or other on-chain conditions, when performing the actual exchange. - MUST NOT revert. NOTE: This calculation MAY NOT reflect the per-user price-per-share, and instead should reflect the average-users price-per-share, meaning what the average user should expect to see when exchanging to and from."
      },
      "decimals()": {
        "details": "Returns the decimals places of the token."
      },
      "deposit(uint256,address)": {
        "details": "Mints shares Vault shares to receiver by depositing exactly amount of underlying tokens. - MUST emit the Deposit event. - MAY support an additional flow in which the underlying tokens are owned by the Vault contract before the   deposit execution, and are accounted for during deposit. - MUST revert if all of assets cannot be deposited (due to deposit limit being reached, slippage, the user not   approving enough underlying tokens to the Vault contract, etc). NOTE: most implementations will require pre-approval of the Vault with the Vaults underlying asset token."
      },
      "getRoleAdmin(bytes32)": {
        "details": "Returns the admin role that controls `role`. See {grantRole} and {revokeRole}. To change a role's admin, use {_setRoleAdmin}."
      },
      "grantRole(bytes32,address)": {
        "details": "Grants `role` to `account`. If `account` had not been already granted `role`, emits a {RoleGranted} event. Requirements: - the caller must have ``role``'s admin role. May emit a {RoleGranted} event."
      },
      "hasRole(bytes32,address)": {
        "details": "Returns `true` if `account` has been granted `role`."
      },
      "maxDeposit(address)": {
        "details": "Returns the maximum amount of the underlying asset that can be deposited into the Vault for the receiver, through a deposit call. - MUST return a limited value if receiver is subject to some deposit limit. - MUST return 2 ** 256 - 1 if there is no limit on the maximum amount of assets that may be deposited. - MUST NOT revert."
      },
      "maxMint(address)": {
        "details": "Returns the maximum amount of the Vault shares that can be minted for the receiver, through a mint call. - MUST return a limited value if receiver is subject to some mint limit. - MUST return 2 ** 256 - 1 if there is no limit on the maximum amount of shares that may be minted. - MUST NOT revert."
      },
      "mint(uint256,address)": {
        "details": "Mints exactly shares Vault shares to receiver by depositing amount of underlying tokens. - MUST emit the Deposit event. - MAY support an additional flow in which the underlying tokens are owned by the Vault contract before the mint   execution, and are accounted for during mint. - MUST revert if all of shares cannot be minted (due to deposit limit being reached, slippage, the user not   approving enough underlying tokens to the Vault contract, etc). NOTE: most implementations will require pre-approval of the Vault with the Vaults underlying asset token."
      },
      "previewDeposit(uint256)": {
        "details": "Allows an on-chain or off-chain user to simulate the effects of their deposit at the current block, given current on-chain conditions. - MUST return as close to and no more than the exact amount of Vault shares that would be minted in a deposit   call in the same transaction. I.e. deposit should return the same or more shares as previewDeposit if called   in the same transaction. - MUST NOT account for deposit limits like those returned from maxDeposit and should always act as though the   deposit would be accepted, regardless if the user has enough tokens approved, etc. - MUST be inclusive of deposit fees. Integrators should be aware of the existence of deposit fees. - MUST NOT revert. NOTE: any unfavorable discrepancy between convertToShares and previewDeposit SHOULD be considered slippage in share price or some other type of condition, meaning the depositor will lose assets by depositing."
      },
      "previewMint(uint256)": {
        "details": "Allows an on-chain or off-chain user to simulate the effects of their mint at the current block, given current on-chain conditions. - MUST return as close to and no fewer than the exact amount of assets that would be deposited in a mint call   in the same transaction. I.e. mint should return the same or fewer assets as previewMint if called in the   same transaction. - MUST NOT account for mint limits like those returned from maxMint and should always act as though the mint   would be accepted, regardless if the user has enough tokens approved, etc. - MUST be inclusive of deposit fees. Integrators should be aware of the existence of deposit fees. - MUST NOT revert. NOTE: any unfavorable discrepancy between convertToAssets and previewMint SHOULD be considered slippage in share price or some other type of condition, meaning the depositor will lose assets by minting."
      },
      "previewRedeem(uint256)": {
        "details": "Allows an on-chain or off-chain user to simulate the effects of their redeemption at the current block, given current on-chain conditions. - MUST return as close to and no more than the exact amount of assets that would be withdrawn in a redeem call   in the same transaction. I.e. redeem should return the same or more assets as previewRedeem if called in the   same transaction. - MUST NOT account for redemption limits like those returned from maxRedeem and should always act as though the   redemption would be accepted, regardless if the user has enough shares, etc. - MUST be inclusive of withdrawal fees. Integrators should be aware of the existence of withdrawal fees. - MUST NOT revert. NOTE: any unfavorable discrepancy between convertToAssets and previewRedeem SHOULD be considered slippage in share price or some other type of condition, meaning the depositor will lose assets by redeeming."
      },
      "previewWithdraw(uint256)": {
        "details": "Allows an on-chain or off-chain user to simulate the effects of their withdrawal at the current block, given current on-chain conditions. - MUST return as close to and no fewer than the exact amount of Vault shares that would be burned in a withdraw   call in the same transaction. I.e. withdraw should return the same or fewer shares as previewWithdraw if   called   in the same transaction. - MUST NOT account for withdrawal limits like those returned from maxWithdraw and should always act as though   the withdrawal would be accepted, regardless if the user has enough shares, etc. - MUST be inclusive of withdrawal fees. Integrators should be aware of the existence of withdrawal fees. - MUST NOT revert. NOTE: any unfavorable discrepancy between convertToShares and previewWithdraw SHOULD be considered slippage in share price or some other type of condition, meaning the depositor will lose assets by depositing."
      },
      "renounceRole(bytes32,address)": {
        "details": "Revokes `role` from the calling account. Roles are often managed via {grantRole} and {revokeRole}: this function's purpose is to provide a mechanism for accounts to lose their privileges if they are compromised (such as when a trusted device is misplaced). If the calling account had been revoked `role`, emits a {RoleRevoked} event. Requirements: - the caller must be `account`. May emit a {RoleRevoked} event."
      },
      "revokeRole(bytes32,address)": {
        "details": "Revokes `role` from `account`. If `account` had been granted `role`, emits a {RoleRevoked} event. Requirements: - the caller must have ``role``'s admin role. May emit a {RoleRevoked} event."
      },
      "supportsInterface(bytes4)": {
        "details": "See {IERC165-supportsInterface}."
      },
      "totalAssets()": {
        "details": "Returns the total amount of the underlying asset that is managed by Vault. - SHOULD include any compounding that occurs from yield. - MUST be inclusive of any fees that are charged against assets in the Vault. - MUST NOT revert."
      },
      "totalSupply()": {
        "details": "Returns the amount of tokens in existence."
      }
    },
    "stateVariables": {
      "name": {
        "details": "Returns the name of the token."
      },
      "symbol": {
        "details": "Returns the symbol of the token."
      }
    },
    "title": "STRATEGY MANAGEMENT",
    "version": 1
  },
  "userdoc": {
    "kind": "user",
    "methods": {},
    "version": 1
  },
  "storageLayout": {
    "storage": [
      {
        "astId": 9466,
        "contract": "contracts/SharesManager.sol:SharesManager",
        "label": "strategyManager",
        "offset": 0,
        "slot": "0",
        "type": "t_address"
      },
      {
        "astId": 9468,
        "contract": "contracts/SharesManager.sol:SharesManager",
        "label": "sharesManager",
        "offset": 0,
        "slot": "1",
        "type": "t_address"
      },
      {
        "astId": 9470,
        "contract": "contracts/SharesManager.sol:SharesManager",
        "label": "setters",
        "offset": 0,
        "slot": "2",
        "type": "t_address"
      },
      {
        "astId": 9472,
        "contract": "contracts/SharesManager.sol:SharesManager",
        "label": "governance",
        "offset": 0,
        "slot": "3",
        "type": "t_address"
      },
      {
        "astId": 9477,
        "contract": "contracts/SharesManager.sol:SharesManager",
        "label": "strategies",
        "offset": 0,
        "slot": "4",
        "type": "t_mapping(t_address,t_struct(StrategyParams)9638_storage)"
      },
      {
        "astId": 9480,
        "contract": "contracts/SharesManager.sol:SharesManager",
        "label": "fees",
        "offset": 0,
        "slot": "5",
        "type": "t_struct(FeeAssessment)9647_storage"
      },
      {
        "astId": 9483,
        "contract": "contracts/SharesManager.sol:SharesManager",
        "label": "defaultQueue",
        "offset": 0,
        "slot": "9",
        "type": "t_array(t_address)dyn_storage"
      },
      {
        "astId": 9485,
        "contract": "contracts/SharesManager.sol:SharesManager",
        "label": "useDefaultQueue",
        "offset": 0,
        "slot": "10",
        "type": "t_bool"
      },
      {
        "astId": 9487,
        "contract": "contracts/SharesManager.sol:SharesManager",
        "label": "initialized",
        "offset": 1,
        "slot": "10",
        "type": "t_bool"
      },
      {
        "astId": 9491,
        "contract": "contracts/SharesManager.sol:SharesManager",
        "label": "_balanceOf",
        "offset": 0,
        "slot": "11",
        "type": "t_mapping(t_address,t_uint256)"
      },
      {
        "astId": 9497,
        "contract": "contracts/SharesManager.sol:SharesManager",
        "label": "_allowance",
        "offset": 0,
        "slot": "12",
        "type": "t_mapping(t_address,t_mapping(t_address,t_uint256))"
      },
      {
        "astId": 9499,
        "contract": "contracts/SharesManager.sol:SharesManager",
        "label": "totalSupplyAmount",
        "offset": 0,
        "slot": "13",
        "type": "t_uint256"
      },
      {
        "astId": 9501,
        "contract": "contracts/SharesManager.sol:SharesManager",
        "label": "totalDebtAmount",
        "offset": 0,
        "slot": "14",
        "type": "t_uint256"
      },
      {
        "astId": 9503,
        "contract": "contracts/SharesManager.sol:SharesManager",
        "label": "totalIdleAmount",
        "offset": 0,
        "slot": "15",
        "type": "t_uint256"
      },
      {
        "astId": 9505,
        "contract": "contracts/SharesManager.sol:SharesManager",
        "label": "minimumTotalIdle",
        "offset": 0,
        "slot": "16",
        "type": "t_uint256"
      },
      {
        "astId": 9507,
        "contract": "contracts/SharesManager.sol:SharesManager",
        "label": "depositLimit",
        "offset": 0,
        "slot": "17",
        "type": "t_uint256"
      },
      {
        "astId": 9509,
        "contract": "contracts/SharesManager.sol:SharesManager",
        "label": "accountant",
        "offset": 0,
        "slot": "18",
        "type": "t_address"
      },
      {
        "astId": 9511,
        "contract": "contracts/SharesManager.sol:SharesManager",
        "label": "depositLimitModule",
        "offset": 0,
        "slot": "19",
        "type": "t_address"
      },
      {
        "astId": 9513,
        "contract": "contracts/SharesManager.sol:SharesManager",
        "label": "withdrawLimitModule",
        "offset": 0,
        "slot": "20",
        "type": "t_address"
      },
      {
        "astId": 9517,
        "contract": "contracts/SharesManager.sol:SharesManager",
        "label": "roles",
        "offset": 0,
        "slot": "21",
        "type": "t_mapping(t_address,t_bytes32)"
      },
      {
        "astId": 9521,
        "contract": "contracts/SharesManager.sol:SharesManager",
        "label": "openRoles",
        "offset": 0,
        "slot": "22",
        "type": "t_mapping(t_bytes32,t_bool)"
      },
      {
        "astId": 9523,
        "contract": "contracts/SharesManager.sol:SharesManager",
        "label": "roleManager",
        "offset": 0,
        "slot": "23",
        "type": "t_address"
      },
      {
        "astId": 9525,
        "contract": "contracts/SharesManager.sol:SharesManager",
        "label": "futureRoleManager",
        "offset": 0,
        "slot": "24",
        "type": "t_address"
      },
      {
        "astId": 9527,
        "contract": "contracts/SharesManager.sol:SharesManager",
        "label": "shutdown",
        "offset": 20,
        "slot": "24",
        "type": "t_bool"
      },
      {
        "astId": 9529,
        "contract": "contracts/SharesManager.sol:SharesManager",
        "label": "profitMaxUnlockTime",
        "offset": 0,
        "slot": "25",
        "type": "t_uint256"
      },
      {
        "astId": 9531,
        "contract": "contracts/SharesManager.sol:SharesManager",
        "label": "fullProfitUnlockDate",
        "offset": 0,
        "slot": "26",
        "type": "t_uint256"
      },
      {
        "astId": 9533,
        "contract": "contracts/SharesManager.sol:SharesManager",
        "label": "profitUnlockingRate",
        "offset": 0,
        "slot": "27",
        "type": "t_uint256"
      },
      {
        "astId": 9535,
        "contract": "contracts/SharesManager.sol:SharesManager",
        "label": "lastProfitUpdate",
        "offset": 0,
        "slot": "28",
        "type": "t_uint256"
      },
      {
        "astId": 9539,
        "contract": "contracts/SharesManager.sol:SharesManager",
        "label": "nonces",
        "offset": 0,
        "slot": "29",
        "type": "t_mapping(t_address,t_uint256)"
      },
      {
        "astId": 9546,
        "contract": "contracts/SharesManager.sol:SharesManager",
        "label": "DOMAIN_SEPARATOR",
        "offset": 0,
        "slot": "30",
        "type": "t_bytes32"
      },
      {
        "astId": 399,
        "contract": "contracts/SharesManager.sol:SharesManager",
        "label": "_status",
        "offset": 0,
        "slot": "31",
        "type": "t_uint256"
      },
      {
        "astId": 24,
        "contract": "contracts/SharesManager.sol:SharesManager",
        "label": "_roles",
        "offset": 0,
        "slot": "32",
        "type": "t_mapping(t_bytes32,t_struct(RoleData)19_storage)"
      },
      {
        "astId": 4847,
        "contract": "contracts/SharesManager.sol:SharesManager",
        "label": "name",
        "offset": 0,
        "slot": "33",
        "type": "t_string_storage"
      },
      {
        "astId": 4850,
        "contract": "contracts/SharesManager.sol:SharesManager",
        "label": "symbol",
        "offset": 0,
        "slot": "34",
        "type": "t_string_storage"
      }
    ],
    "types": {
      "t_address": {
        "encoding": "inplace",
        "label": "address",
        "numberOfBytes": "20"
      },
      "t_array(t_address)dyn_storage": {
        "base": "t_address",
        "encoding": "dynamic_array",
        "label": "address[]",
        "numberOfBytes": "32"
      },
      "t_bool": {
        "encoding": "inplace",
        "label": "bool",
        "numberOfBytes": "1"
      },
      "t_bytes32": {
        "encoding": "inplace",
        "label": "bytes32",
        "numberOfBytes": "32"
      },
      "t_mapping(t_address,t_bool)": {
        "encoding": "mapping",
        "key": "t_address",
        "label": "mapping(address => bool)",
        "numberOfBytes": "32",
        "value": "t_bool"
      },
      "t_mapping(t_address,t_bytes32)": {
        "encoding": "mapping",
        "key": "t_address",
        "label": "mapping(address => bytes32)",
        "numberOfBytes": "32",
        "value": "t_bytes32"
      },
      "t_mapping(t_address,t_mapping(t_address,t_uint256))": {
        "encoding": "mapping",
        "key": "t_address",
        "label": "mapping(address => mapping(address => uint256))",
        "numberOfBytes": "32",
        "value": "t_mapping(t_address,t_uint256)"
      },
      "t_mapping(t_address,t_struct(StrategyParams)9638_storage)": {
        "encoding": "mapping",
        "key": "t_address",
        "label": "mapping(address => struct StrategyParams)",
        "numberOfBytes": "32",
        "value": "t_struct(StrategyParams)9638_storage"
      },
      "t_mapping(t_address,t_uint256)": {
        "encoding": "mapping",
        "key": "t_address",
        "label": "mapping(address => uint256)",
        "numberOfBytes": "32",
        "value": "t_uint256"
      },
      "t_mapping(t_bytes32,t_bool)": {
        "encoding": "mapping",
        "key": "t_bytes32",
        "label": "mapping(bytes32 => bool)",
        "numberOfBytes": "32",
        "value": "t_bool"
      },
      "t_mapping(t_bytes32,t_struct(RoleData)19_storage)": {
        "encoding": "mapping",
        "key": "t_bytes32",
        "label": "mapping(bytes32 => struct AccessControl.RoleData)",
        "numberOfBytes": "32",
        "value": "t_struct(RoleData)19_storage"
      },
      "t_string_storage": {
        "encoding": "bytes",
        "label": "string",
        "numberOfBytes": "32"
      },
      "t_struct(FeeAssessment)9647_storage": {
        "encoding": "inplace",
        "label": "struct FeeAssessment",
        "members": [
          {
            "astId": 9640,
            "contract": "contracts/SharesManager.sol:SharesManager",
            "label": "totalFees",
            "offset": 0,
            "slot": "0",
            "type": "t_uint256"
          },
          {
            "astId": 9642,
            "contract": "contracts/SharesManager.sol:SharesManager",
            "label": "totalRefunds",
            "offset": 0,
            "slot": "1",
            "type": "t_uint256"
          },
          {
            "astId": 9644,
            "contract": "contracts/SharesManager.sol:SharesManager",
            "label": "protocolFees",
            "offset": 0,
            "slot": "2",
            "type": "t_uint256"
          },
          {
            "astId": 9646,
            "contract": "contracts/SharesManager.sol:SharesManager",
            "label": "protocolFeeRecipient",
            "offset": 0,
            "slot": "3",
            "type": "t_address"
          }
        ],
        "numberOfBytes": "128"
      },
      "t_struct(RoleData)19_storage": {
        "encoding": "inplace",
        "label": "struct AccessControl.RoleData",
        "members": [
          {
            "astId": 16,
            "contract": "contracts/SharesManager.sol:SharesManager",
            "label": "members",
            "offset": 0,
            "slot": "0",
            "type": "t_mapping(t_address,t_bool)"
          },
          {
            "astId": 18,
            "contract": "contracts/SharesManager.sol:SharesManager",
            "label": "adminRole",
            "offset": 0,
            "slot": "1",
            "type": "t_bytes32"
          }
        ],
        "numberOfBytes": "64"
      },
      "t_struct(StrategyParams)9638_storage": {
        "encoding": "inplace",
        "label": "struct StrategyParams",
        "members": [
          {
            "astId": 9631,
            "contract": "contracts/SharesManager.sol:SharesManager",
            "label": "activation",
            "offset": 0,
            "slot": "0",
            "type": "t_uint256"
          },
          {
            "astId": 9633,
            "contract": "contracts/SharesManager.sol:SharesManager",
            "label": "lastReport",
            "offset": 0,
            "slot": "1",
            "type": "t_uint256"
          },
          {
            "astId": 9635,
            "contract": "contracts/SharesManager.sol:SharesManager",
            "label": "currentDebt",
            "offset": 0,
            "slot": "2",
            "type": "t_uint256"
          },
          {
            "astId": 9637,
            "contract": "contracts/SharesManager.sol:SharesManager",
            "label": "maxDebt",
            "offset": 0,
            "slot": "3",
            "type": "t_uint256"
          }
        ],
        "numberOfBytes": "128"
      },
      "t_uint256": {
        "encoding": "inplace",
        "label": "uint256",
        "numberOfBytes": "32"
      }
    }
  }
}