{
  "address": "0xa3C8AE34Cd401dBB741bBC30b594696FD07C82ac",
  "abi": [
    {
      "inputs": [],
      "name": "ERC20InsufficientAllowance",
      "type": "error"
    },
    {
      "inputs": [],
      "name": "ERC20PermitExpired",
      "type": "error"
    },
    {
      "inputs": [],
      "name": "ERC20PermitInvalidSignature",
      "type": "error"
    },
    {
      "inputs": [],
      "name": "ExceedDepositLimit",
      "type": "error"
    },
    {
      "inputs": [],
      "name": "InactiveStrategy",
      "type": "error"
    },
    {
      "inputs": [],
      "name": "InsufficientAssets",
      "type": "error"
    },
    {
      "inputs": [],
      "name": "InsufficientFunds",
      "type": "error"
    },
    {
      "inputs": [],
      "name": "InsufficientShares",
      "type": "error"
    },
    {
      "inputs": [],
      "name": "InvalidAssetDecimals",
      "type": "error"
    },
    {
      "inputs": [],
      "name": "MaxLoss",
      "type": "error"
    },
    {
      "inputs": [],
      "name": "StrategyDebtIsLessThanAssetsNeeded",
      "type": "error"
    },
    {
      "inputs": [],
      "name": "StrategyIsShutdown",
      "type": "error"
    },
    {
      "inputs": [],
      "name": "TooMuchLoss",
      "type": "error"
    },
    {
      "inputs": [],
      "name": "UsingModule",
      "type": "error"
    },
    {
      "inputs": [],
      "name": "ZeroAddress",
      "type": "error"
    },
    {
      "inputs": [],
      "name": "ZeroValue",
      "type": "error"
    },
    {
      "anonymous": false,
      "inputs": [
        {
          "indexed": true,
          "internalType": "address",
          "name": "owner",
          "type": "address"
        },
        {
          "indexed": true,
          "internalType": "address",
          "name": "spender",
          "type": "address"
        },
        {
          "indexed": false,
          "internalType": "uint256",
          "name": "value",
          "type": "uint256"
        }
      ],
      "name": "Approval",
      "type": "event"
    },
    {
      "anonymous": false,
      "inputs": [
        {
          "indexed": true,
          "internalType": "address",
          "name": "strategy",
          "type": "address"
        },
        {
          "indexed": false,
          "internalType": "uint256",
          "name": "amount",
          "type": "uint256"
        }
      ],
      "name": "DebtPurchased",
      "type": "event"
    },
    {
      "anonymous": false,
      "inputs": [
        {
          "indexed": true,
          "internalType": "address",
          "name": "strategy",
          "type": "address"
        },
        {
          "indexed": false,
          "internalType": "uint256",
          "name": "currentDebt",
          "type": "uint256"
        },
        {
          "indexed": false,
          "internalType": "uint256",
          "name": "newDebt",
          "type": "uint256"
        }
      ],
      "name": "DebtUpdated",
      "type": "event"
    },
    {
      "anonymous": false,
      "inputs": [
        {
          "indexed": true,
          "internalType": "address",
          "name": "sender",
          "type": "address"
        },
        {
          "indexed": true,
          "internalType": "address",
          "name": "owner",
          "type": "address"
        },
        {
          "indexed": false,
          "internalType": "uint256",
          "name": "assets",
          "type": "uint256"
        },
        {
          "indexed": false,
          "internalType": "uint256",
          "name": "shares",
          "type": "uint256"
        }
      ],
      "name": "Deposit",
      "type": "event"
    },
    {
      "anonymous": false,
      "inputs": [
        {
          "indexed": true,
          "internalType": "bytes32",
          "name": "role",
          "type": "bytes32"
        },
        {
          "indexed": true,
          "internalType": "bytes32",
          "name": "previousAdminRole",
          "type": "bytes32"
        },
        {
          "indexed": true,
          "internalType": "bytes32",
          "name": "newAdminRole",
          "type": "bytes32"
        }
      ],
      "name": "RoleAdminChanged",
      "type": "event"
    },
    {
      "anonymous": false,
      "inputs": [
        {
          "indexed": true,
          "internalType": "bytes32",
          "name": "role",
          "type": "bytes32"
        },
        {
          "indexed": true,
          "internalType": "address",
          "name": "account",
          "type": "address"
        },
        {
          "indexed": true,
          "internalType": "address",
          "name": "sender",
          "type": "address"
        }
      ],
      "name": "RoleGranted",
      "type": "event"
    },
    {
      "anonymous": false,
      "inputs": [
        {
          "indexed": true,
          "internalType": "bytes32",
          "name": "role",
          "type": "bytes32"
        },
        {
          "indexed": true,
          "internalType": "address",
          "name": "account",
          "type": "address"
        },
        {
          "indexed": true,
          "internalType": "address",
          "name": "sender",
          "type": "address"
        }
      ],
      "name": "RoleRevoked",
      "type": "event"
    },
    {
      "anonymous": false,
      "inputs": [
        {
          "indexed": true,
          "internalType": "address",
          "name": "account",
          "type": "address"
        },
        {
          "indexed": false,
          "internalType": "bytes32",
          "name": "role",
          "type": "bytes32"
        }
      ],
      "name": "RoleSet",
      "type": "event"
    },
    {
      "anonymous": false,
      "inputs": [
        {
          "indexed": true,
          "internalType": "bytes32",
          "name": "role",
          "type": "bytes32"
        },
        {
          "indexed": true,
          "internalType": "enum RoleStatusChange",
          "name": "status",
          "type": "uint8"
        }
      ],
      "name": "RoleStatusChanged",
      "type": "event"
    },
    {
      "anonymous": false,
      "inputs": [],
      "name": "Shutdown",
      "type": "event"
    },
    {
      "anonymous": false,
      "inputs": [
        {
          "indexed": true,
          "internalType": "address",
          "name": "strategy",
          "type": "address"
        },
        {
          "indexed": false,
          "internalType": "enum StrategyChangeType",
          "name": "changeType",
          "type": "uint8"
        }
      ],
      "name": "StrategyChanged",
      "type": "event"
    },
    {
      "anonymous": false,
      "inputs": [
        {
          "indexed": true,
          "internalType": "address",
          "name": "strategy",
          "type": "address"
        },
        {
          "indexed": false,
          "internalType": "uint256",
          "name": "gain",
          "type": "uint256"
        },
        {
          "indexed": false,
          "internalType": "uint256",
          "name": "loss",
          "type": "uint256"
        },
        {
          "indexed": false,
          "internalType": "uint256",
          "name": "currentDebt",
          "type": "uint256"
        },
        {
          "indexed": false,
          "internalType": "uint256",
          "name": "protocolFees",
          "type": "uint256"
        },
        {
          "indexed": false,
          "internalType": "uint256",
          "name": "totalFees",
          "type": "uint256"
        },
        {
          "indexed": false,
          "internalType": "uint256",
          "name": "totalRefunds",
          "type": "uint256"
        }
      ],
      "name": "StrategyReported",
      "type": "event"
    },
    {
      "anonymous": false,
      "inputs": [
        {
          "indexed": true,
          "internalType": "address",
          "name": "from",
          "type": "address"
        },
        {
          "indexed": true,
          "internalType": "address",
          "name": "to",
          "type": "address"
        },
        {
          "indexed": false,
          "internalType": "uint256",
          "name": "value",
          "type": "uint256"
        }
      ],
      "name": "Transfer",
      "type": "event"
    },
    {
      "anonymous": false,
      "inputs": [
        {
          "indexed": true,
          "internalType": "address",
          "name": "accountant",
          "type": "address"
        }
      ],
      "name": "UpdateAccountant",
      "type": "event"
    },
    {
      "anonymous": false,
      "inputs": [
        {
          "indexed": false,
          "internalType": "address[]",
          "name": "newDefaultQueue",
          "type": "address[]"
        }
      ],
      "name": "UpdateDefaultQueue",
      "type": "event"
    },
    {
      "anonymous": false,
      "inputs": [
        {
          "indexed": false,
          "internalType": "uint256",
          "name": "depositLimit",
          "type": "uint256"
        }
      ],
      "name": "UpdateDepositLimit",
      "type": "event"
    },
    {
      "anonymous": false,
      "inputs": [
        {
          "indexed": true,
          "internalType": "address",
          "name": "depositLimitModule",
          "type": "address"
        }
      ],
      "name": "UpdateDepositLimitModule",
      "type": "event"
    },
    {
      "anonymous": false,
      "inputs": [
        {
          "indexed": false,
          "internalType": "uint256",
          "name": "minimumTotalIdle",
          "type": "uint256"
        }
      ],
      "name": "UpdateMinimumTotalIdle",
      "type": "event"
    },
    {
      "anonymous": false,
      "inputs": [
        {
          "indexed": false,
          "internalType": "uint256",
          "name": "profitMaxUnlockTime",
          "type": "uint256"
        }
      ],
      "name": "UpdateProfitMaxUnlockTime",
      "type": "event"
    },
    {
      "anonymous": false,
      "inputs": [
        {
          "indexed": true,
          "internalType": "address",
          "name": "roleManager",
          "type": "address"
        }
      ],
      "name": "UpdateRoleManager",
      "type": "event"
    },
    {
      "anonymous": false,
      "inputs": [
        {
          "indexed": false,
          "internalType": "bool",
          "name": "useDefaultQueue",
          "type": "bool"
        }
      ],
      "name": "UpdateUseDefaultQueue",
      "type": "event"
    },
    {
      "anonymous": false,
      "inputs": [
        {
          "indexed": true,
          "internalType": "address",
          "name": "withdrawLimitModule",
          "type": "address"
        }
      ],
      "name": "UpdateWithdrawLimitModule",
      "type": "event"
    },
    {
      "anonymous": false,
      "inputs": [
        {
          "indexed": true,
          "internalType": "address",
          "name": "sender",
          "type": "address"
        },
        {
          "indexed": true,
          "internalType": "address",
          "name": "strategy",
          "type": "address"
        },
        {
          "indexed": false,
          "internalType": "uint256",
          "name": "newDebt",
          "type": "uint256"
        }
      ],
      "name": "UpdatedMaxDebtForStrategy",
      "type": "event"
    },
    {
      "anonymous": false,
      "inputs": [
        {
          "indexed": true,
          "internalType": "address",
          "name": "sender",
          "type": "address"
        },
        {
          "indexed": true,
          "internalType": "address",
          "name": "receiver",
          "type": "address"
        },
        {
          "indexed": true,
          "internalType": "address",
          "name": "owner",
          "type": "address"
        },
        {
          "indexed": false,
          "internalType": "uint256",
          "name": "assets",
          "type": "uint256"
        },
        {
          "indexed": false,
          "internalType": "uint256",
          "name": "shares",
          "type": "uint256"
        }
      ],
      "name": "Withdraw",
      "type": "event"
    },
    {
      "inputs": [],
      "name": "ACCOUNTANT_MANAGER",
      "outputs": [
        {
          "internalType": "bytes32",
          "name": "",
          "type": "bytes32"
        }
      ],
      "stateMutability": "view",
      "type": "function"
    },
    {
      "inputs": [],
      "name": "ADD_STRATEGY_MANAGER",
      "outputs": [
        {
          "internalType": "bytes32",
          "name": "",
          "type": "bytes32"
        }
      ],
      "stateMutability": "view",
      "type": "function"
    },
    {
      "inputs": [],
      "name": "API_VERSION",
      "outputs": [
        {
          "internalType": "string",
          "name": "",
          "type": "string"
        }
      ],
      "stateMutability": "view",
      "type": "function"
    },
    {
      "inputs": [],
      "name": "ASSET",
      "outputs": [
        {
          "internalType": "contract IERC20",
          "name": "",
          "type": "address"
        }
      ],
      "stateMutability": "view",
      "type": "function"
    },
    {
      "inputs": [],
      "name": "DEBT_MANAGER",
      "outputs": [
        {
          "internalType": "bytes32",
          "name": "",
          "type": "bytes32"
        }
      ],
      "stateMutability": "view",
      "type": "function"
    },
    {
      "inputs": [],
      "name": "DEBT_PURCHASER",
      "outputs": [
        {
          "internalType": "bytes32",
          "name": "",
          "type": "bytes32"
        }
      ],
      "stateMutability": "view",
      "type": "function"
    },
    {
      "inputs": [],
      "name": "DECIMALS",
      "outputs": [
        {
          "internalType": "uint8",
          "name": "",
          "type": "uint8"
        }
      ],
      "stateMutability": "view",
      "type": "function"
    },
    {
      "inputs": [],
      "name": "DEFAULT_ADMIN_ROLE",
      "outputs": [
        {
          "internalType": "bytes32",
          "name": "",
          "type": "bytes32"
        }
      ],
      "stateMutability": "view",
      "type": "function"
    },
    {
      "inputs": [],
      "name": "DEPOSIT_LIMIT_MANAGER",
      "outputs": [
        {
          "internalType": "bytes32",
          "name": "",
          "type": "bytes32"
        }
      ],
      "stateMutability": "view",
      "type": "function"
    },
    {
      "inputs": [],
      "name": "DOMAIN_SEPARATOR",
      "outputs": [
        {
          "internalType": "bytes32",
          "name": "",
          "type": "bytes32"
        }
      ],
      "stateMutability": "view",
      "type": "function"
    },
    {
      "inputs": [],
      "name": "DOMAIN_TYPE_HASH",
      "outputs": [
        {
          "internalType": "bytes32",
          "name": "",
          "type": "bytes32"
        }
      ],
      "stateMutability": "view",
      "type": "function"
    },
    {
      "inputs": [],
      "name": "EMERGENCY_MANAGER",
      "outputs": [
        {
          "internalType": "bytes32",
          "name": "",
          "type": "bytes32"
        }
      ],
      "stateMutability": "view",
      "type": "function"
    },
    {
      "inputs": [],
      "name": "FORCE_REVOKE_MANAGER",
      "outputs": [
        {
          "internalType": "bytes32",
          "name": "",
          "type": "bytes32"
        }
      ],
      "stateMutability": "view",
      "type": "function"
    },
    {
      "inputs": [],
      "name": "MAX_BPS",
      "outputs": [
        {
          "internalType": "uint256",
          "name": "",
          "type": "uint256"
        }
      ],
      "stateMutability": "view",
      "type": "function"
    },
    {
      "inputs": [],
      "name": "MAX_BPS_EXTENDED",
      "outputs": [
        {
          "internalType": "uint256",
          "name": "",
          "type": "uint256"
        }
      ],
      "stateMutability": "view",
      "type": "function"
    },
    {
      "inputs": [],
      "name": "MAX_DEBT_MANAGER",
      "outputs": [
        {
          "internalType": "bytes32",
          "name": "",
          "type": "bytes32"
        }
      ],
      "stateMutability": "view",
      "type": "function"
    },
    {
      "inputs": [],
      "name": "MAX_QUEUE",
      "outputs": [
        {
          "internalType": "uint256",
          "name": "",
          "type": "uint256"
        }
      ],
      "stateMutability": "view",
      "type": "function"
    },
    {
      "inputs": [],
      "name": "MINIMUM_IDLE_MANAGER",
      "outputs": [
        {
          "internalType": "bytes32",
          "name": "",
          "type": "bytes32"
        }
      ],
      "stateMutability": "view",
      "type": "function"
    },
    {
      "inputs": [],
      "name": "ONE_YEAR",
      "outputs": [
        {
          "internalType": "uint256",
          "name": "",
          "type": "uint256"
        }
      ],
      "stateMutability": "view",
      "type": "function"
    },
    {
      "inputs": [],
      "name": "PERMIT_TYPE_HASH",
      "outputs": [
        {
          "internalType": "bytes32",
          "name": "",
          "type": "bytes32"
        }
      ],
      "stateMutability": "view",
      "type": "function"
    },
    {
      "inputs": [],
      "name": "PROFIT_UNLOCK_MANAGER",
      "outputs": [
        {
          "internalType": "bytes32",
          "name": "",
          "type": "bytes32"
        }
      ],
      "stateMutability": "view",
      "type": "function"
    },
    {
      "inputs": [],
      "name": "QUEUE_MANAGER",
      "outputs": [
        {
          "internalType": "bytes32",
          "name": "",
          "type": "bytes32"
        }
      ],
      "stateMutability": "view",
      "type": "function"
    },
    {
      "inputs": [],
      "name": "REPORTING_MANAGER",
      "outputs": [
        {
          "internalType": "bytes32",
          "name": "",
          "type": "bytes32"
        }
      ],
      "stateMutability": "view",
      "type": "function"
    },
    {
      "inputs": [],
      "name": "REVOKE_STRATEGY_MANAGER",
      "outputs": [
        {
          "internalType": "bytes32",
          "name": "",
          "type": "bytes32"
        }
      ],
      "stateMutability": "view",
      "type": "function"
    },
    {
      "inputs": [],
      "name": "ROLE_MANAGER",
      "outputs": [
        {
          "internalType": "bytes32",
          "name": "",
          "type": "bytes32"
        }
      ],
      "stateMutability": "view",
      "type": "function"
    },
    {
      "inputs": [],
      "name": "WITHDRAW_LIMIT_MANAGER",
      "outputs": [
        {
          "internalType": "bytes32",
          "name": "",
          "type": "bytes32"
        }
      ],
      "stateMutability": "view",
      "type": "function"
    },
    {
      "inputs": [],
      "name": "accountant",
      "outputs": [
        {
          "internalType": "address",
          "name": "",
          "type": "address"
        }
      ],
      "stateMutability": "view",
      "type": "function"
    },
    {
      "inputs": [
        {
          "internalType": "address",
          "name": "owner",
          "type": "address"
        },
        {
          "internalType": "address",
          "name": "spender",
          "type": "address"
        }
      ],
      "name": "allowance",
      "outputs": [
        {
          "internalType": "uint256",
          "name": "",
          "type": "uint256"
        }
      ],
      "stateMutability": "view",
      "type": "function"
    },
    {
      "inputs": [
        {
          "internalType": "address",
          "name": "spender",
          "type": "address"
        },
        {
          "internalType": "uint256",
          "name": "amount",
          "type": "uint256"
        }
      ],
      "name": "approve",
      "outputs": [
        {
          "internalType": "bool",
          "name": "",
          "type": "bool"
        }
      ],
      "stateMutability": "nonpayable",
      "type": "function"
    },
    {
      "inputs": [
        {
          "internalType": "address",
          "name": "owner",
          "type": "address"
        },
        {
          "internalType": "address",
          "name": "spender",
          "type": "address"
        },
        {
          "internalType": "uint256",
          "name": "amount",
          "type": "uint256"
        }
      ],
      "name": "approve",
      "outputs": [
        {
          "internalType": "bool",
          "name": "",
          "type": "bool"
        }
      ],
      "stateMutability": "nonpayable",
      "type": "function"
    },
    {
      "inputs": [
        {
          "internalType": "address",
          "name": "strategy",
          "type": "address"
        },
        {
          "internalType": "uint256",
          "name": "assetsNeeded",
          "type": "uint256"
        }
      ],
      "name": "assessShareOfUnrealisedLosses",
      "outputs": [
        {
          "internalType": "uint256",
          "name": "",
          "type": "uint256"
        }
      ],
      "stateMutability": "view",
      "type": "function"
    },
    {
      "inputs": [],
      "name": "asset",
      "outputs": [
        {
          "internalType": "address",
          "name": "",
          "type": "address"
        }
      ],
      "stateMutability": "view",
      "type": "function"
    },
    {
      "inputs": [
        {
          "internalType": "address",
          "name": "addr",
          "type": "address"
        }
      ],
      "name": "balanceOf",
      "outputs": [
        {
          "internalType": "uint256",
          "name": "",
          "type": "uint256"
        }
      ],
      "stateMutability": "view",
      "type": "function"
    },
    {
      "inputs": [
        {
          "internalType": "uint256",
          "name": "shares",
          "type": "uint256"
        },
        {
          "internalType": "address",
          "name": "owner",
          "type": "address"
        }
      ],
      "name": "burnShares",
      "outputs": [],
      "stateMutability": "nonpayable",
      "type": "function"
    },
    {
      "inputs": [],
      "name": "burnUnlockedShares",
      "outputs": [],
      "stateMutability": "nonpayable",
      "type": "function"
    },
    {
      "inputs": [
        {
          "internalType": "uint256",
          "name": "loss",
          "type": "uint256"
        },
        {
          "internalType": "uint256",
          "name": "totalFees",
          "type": "uint256"
        },
        {
          "internalType": "uint256",
          "name": "protocolFees",
          "type": "uint256"
        }
      ],
      "name": "calculateShareManagement",
      "outputs": [
        {
          "components": [
            {
              "internalType": "uint256",
              "name": "sharesToBurn",
              "type": "uint256"
            },
            {
              "internalType": "uint256",
              "name": "accountantFeesShares",
              "type": "uint256"
            },
            {
              "internalType": "uint256",
              "name": "protocolFeesShares",
              "type": "uint256"
            }
          ],
          "internalType": "struct ShareManagement",
          "name": "",
          "type": "tuple"
        }
      ],
      "stateMutability": "view",
      "type": "function"
    },
    {
      "inputs": [
        {
          "internalType": "uint256",
          "name": "shares",
          "type": "uint256"
        }
      ],
      "name": "convertToAssets",
      "outputs": [
        {
          "internalType": "uint256",
          "name": "",
          "type": "uint256"
        }
      ],
      "stateMutability": "view",
      "type": "function"
    },
    {
      "inputs": [
        {
          "internalType": "uint256",
          "name": "shares",
          "type": "uint256"
        },
        {
          "internalType": "enum Rounding",
          "name": "rounding",
          "type": "uint8"
        }
      ],
      "name": "convertToAssets",
      "outputs": [
        {
          "internalType": "uint256",
          "name": "",
          "type": "uint256"
        }
      ],
      "stateMutability": "view",
      "type": "function"
    },
    {
      "inputs": [
        {
          "internalType": "uint256",
          "name": "assets",
          "type": "uint256"
        },
        {
          "internalType": "enum Rounding",
          "name": "rounding",
          "type": "uint8"
        }
      ],
      "name": "convertToShares",
      "outputs": [
        {
          "internalType": "uint256",
          "name": "",
          "type": "uint256"
        }
      ],
      "stateMutability": "view",
      "type": "function"
    },
    {
      "inputs": [
        {
          "internalType": "uint256",
          "name": "assets",
          "type": "uint256"
        }
      ],
      "name": "convertToShares",
      "outputs": [
        {
          "internalType": "uint256",
          "name": "",
          "type": "uint256"
        }
      ],
      "stateMutability": "view",
      "type": "function"
    },
    {
      "inputs": [],
      "name": "decimals",
      "outputs": [
        {
          "internalType": "uint8",
          "name": "",
          "type": "uint8"
        }
      ],
      "stateMutability": "view",
      "type": "function"
    },
    {
      "inputs": [
        {
          "internalType": "address",
          "name": "owner",
          "type": "address"
        },
        {
          "internalType": "address",
          "name": "spender",
          "type": "address"
        },
        {
          "internalType": "uint256",
          "name": "amount",
          "type": "uint256"
        }
      ],
      "name": "decreaseAllowance",
      "outputs": [
        {
          "internalType": "bool",
          "name": "",
          "type": "bool"
        }
      ],
      "stateMutability": "nonpayable",
      "type": "function"
    },
    {
      "inputs": [
        {
          "internalType": "uint256",
          "name": "",
          "type": "uint256"
        }
      ],
      "name": "defaultQueue",
      "outputs": [
        {
          "internalType": "address",
          "name": "",
          "type": "address"
        }
      ],
      "stateMutability": "view",
      "type": "function"
    },
    {
      "inputs": [
        {
          "internalType": "uint256",
          "name": "assets",
          "type": "uint256"
        },
        {
          "internalType": "address",
          "name": "receiver",
          "type": "address"
        }
      ],
      "name": "deposit",
      "outputs": [
        {
          "internalType": "uint256",
          "name": "",
          "type": "uint256"
        }
      ],
      "stateMutability": "nonpayable",
      "type": "function"
    },
    {
      "inputs": [
        {
          "internalType": "address",
          "name": "sender",
          "type": "address"
        },
        {
          "internalType": "address",
          "name": "recipient",
          "type": "address"
        },
        {
          "internalType": "uint256",
          "name": "assets",
          "type": "uint256"
        }
      ],
      "name": "deposit",
      "outputs": [
        {
          "internalType": "uint256",
          "name": "",
          "type": "uint256"
        }
      ],
      "stateMutability": "nonpayable",
      "type": "function"
    },
    {
      "inputs": [],
      "name": "depositLimit",
      "outputs": [
        {
          "internalType": "uint256",
          "name": "",
          "type": "uint256"
        }
      ],
      "stateMutability": "view",
      "type": "function"
    },
    {
      "inputs": [],
      "name": "depositLimitModule",
      "outputs": [
        {
          "internalType": "address",
          "name": "",
          "type": "address"
        }
      ],
      "stateMutability": "view",
      "type": "function"
    },
    {
      "inputs": [
        {
          "internalType": "address",
          "name": "strategy",
          "type": "address"
        },
        {
          "internalType": "uint256",
          "name": "assetsToDeposit",
          "type": "uint256"
        }
      ],
      "name": "depositToStrategy",
      "outputs": [],
      "stateMutability": "nonpayable",
      "type": "function"
    },
    {
      "inputs": [
        {
          "internalType": "address",
          "name": "token",
          "type": "address"
        },
        {
          "internalType": "address",
          "name": "spender",
          "type": "address"
        },
        {
          "internalType": "uint256",
          "name": "amount",
          "type": "uint256"
        }
      ],
      "name": "erc20SafeApprove",
      "outputs": [],
      "stateMutability": "nonpayable",
      "type": "function"
    },
    {
      "inputs": [
        {
          "internalType": "address",
          "name": "token",
          "type": "address"
        },
        {
          "internalType": "address",
          "name": "receiver",
          "type": "address"
        },
        {
          "internalType": "uint256",
          "name": "amount",
          "type": "uint256"
        }
      ],
      "name": "erc20SafeTransfer",
      "outputs": [],
      "stateMutability": "nonpayable",
      "type": "function"
    },
    {
      "inputs": [
        {
          "internalType": "address",
          "name": "token",
          "type": "address"
        },
        {
          "internalType": "address",
          "name": "sender",
          "type": "address"
        },
        {
          "internalType": "address",
          "name": "receiver",
          "type": "address"
        },
        {
          "internalType": "uint256",
          "name": "amount",
          "type": "uint256"
        }
      ],
      "name": "erc20SafeTransferFrom",
      "outputs": [],
      "stateMutability": "nonpayable",
      "type": "function"
    },
    {
      "inputs": [],
      "name": "fullProfitUnlockDate",
      "outputs": [
        {
          "internalType": "uint256",
          "name": "",
          "type": "uint256"
        }
      ],
      "stateMutability": "view",
      "type": "function"
    },
    {
      "inputs": [],
      "name": "futureRoleManager",
      "outputs": [
        {
          "internalType": "address",
          "name": "",
          "type": "address"
        }
      ],
      "stateMutability": "view",
      "type": "function"
    },
    {
      "inputs": [],
      "name": "getMinimumTotalIdle",
      "outputs": [
        {
          "internalType": "uint256",
          "name": "",
          "type": "uint256"
        }
      ],
      "stateMutability": "view",
      "type": "function"
    },
    {
      "inputs": [
        {
          "internalType": "bytes32",
          "name": "role",
          "type": "bytes32"
        }
      ],
      "name": "getRoleAdmin",
      "outputs": [
        {
          "internalType": "bytes32",
          "name": "",
          "type": "bytes32"
        }
      ],
      "stateMutability": "view",
      "type": "function"
    },
    {
      "inputs": [],
      "name": "getTotalIdleAmount",
      "outputs": [
        {
          "internalType": "uint256",
          "name": "",
          "type": "uint256"
        }
      ],
      "stateMutability": "view",
      "type": "function"
    },
    {
      "inputs": [],
      "name": "governance",
      "outputs": [
        {
          "internalType": "address",
          "name": "",
          "type": "address"
        }
      ],
      "stateMutability": "view",
      "type": "function"
    },
    {
      "inputs": [
        {
          "internalType": "bytes32",
          "name": "role",
          "type": "bytes32"
        },
        {
          "internalType": "address",
          "name": "account",
          "type": "address"
        }
      ],
      "name": "grantRole",
      "outputs": [],
      "stateMutability": "nonpayable",
      "type": "function"
    },
    {
      "inputs": [
        {
          "components": [
            {
              "internalType": "uint256",
              "name": "sharesToBurn",
              "type": "uint256"
            },
            {
              "internalType": "uint256",
              "name": "accountantFeesShares",
              "type": "uint256"
            },
            {
              "internalType": "uint256",
              "name": "protocolFeesShares",
              "type": "uint256"
            }
          ],
          "internalType": "struct ShareManagement",
          "name": "shares",
          "type": "tuple"
        },
        {
          "components": [
            {
              "internalType": "uint256",
              "name": "totalFees",
              "type": "uint256"
            },
            {
              "internalType": "uint256",
              "name": "totalRefunds",
              "type": "uint256"
            },
            {
              "internalType": "uint256",
              "name": "protocolFees",
              "type": "uint256"
            },
            {
              "internalType": "address",
              "name": "protocolFeeRecipient",
              "type": "address"
            }
          ],
          "internalType": "struct FeeAssessment",
          "name": "fees",
          "type": "tuple"
        },
        {
          "internalType": "uint256",
          "name": "gain",
          "type": "uint256"
        },
        {
          "internalType": "uint256",
          "name": "loss",
          "type": "uint256"
        },
        {
          "internalType": "address",
          "name": "strategy",
          "type": "address"
        }
      ],
      "name": "handleShareBurnsAndIssues",
      "outputs": [
        {
          "internalType": "uint256",
          "name": "previouslyLockedShares",
          "type": "uint256"
        },
        {
          "internalType": "uint256",
          "name": "newlyLockedShares",
          "type": "uint256"
        }
      ],
      "stateMutability": "nonpayable",
      "type": "function"
    },
    {
      "inputs": [
        {
          "internalType": "bytes32",
          "name": "role",
          "type": "bytes32"
        },
        {
          "internalType": "address",
          "name": "account",
          "type": "address"
        }
      ],
      "name": "hasRole",
      "outputs": [
        {
          "internalType": "bool",
          "name": "",
          "type": "bool"
        }
      ],
      "stateMutability": "view",
      "type": "function"
    },
    {
      "inputs": [
        {
          "internalType": "bytes4",
          "name": "",
          "type": "bytes4"
        }
      ],
      "name": "implementations",
      "outputs": [
        {
          "internalType": "address",
          "name": "",
          "type": "address"
        }
      ],
      "stateMutability": "view",
      "type": "function"
    },
    {
      "inputs": [
        {
          "internalType": "address",
          "name": "owner",
          "type": "address"
        },
        {
          "internalType": "address",
          "name": "spender",
          "type": "address"
        },
        {
          "internalType": "uint256",
          "name": "amount",
          "type": "uint256"
        }
      ],
      "name": "increaseAllowance",
      "outputs": [
        {
          "internalType": "bool",
          "name": "",
          "type": "bool"
        }
      ],
      "stateMutability": "nonpayable",
      "type": "function"
    },
    {
      "inputs": [
        {
          "internalType": "address",
          "name": "_strategyManager",
          "type": "address"
        },
        {
          "internalType": "address",
          "name": "_setters",
          "type": "address"
        },
        {
          "internalType": "address",
          "name": "_asset",
          "type": "address"
        },
        {
          "internalType": "uint8",
          "name": "_decimals",
          "type": "uint8"
        },
        {
          "internalType": "string",
          "name": "_name",
          "type": "string"
        },
        {
          "internalType": "string",
          "name": "_symbol",
          "type": "string"
        }
      ],
      "name": "initialize",
      "outputs": [],
      "stateMutability": "nonpayable",
      "type": "function"
    },
    {
      "inputs": [
        {
          "internalType": "uint256",
          "name": "shares",
          "type": "uint256"
        },
        {
          "internalType": "address",
          "name": "recipient",
          "type": "address"
        }
      ],
      "name": "issueShares",
      "outputs": [],
      "stateMutability": "nonpayable",
      "type": "function"
    },
    {
      "inputs": [
        {
          "internalType": "uint256",
          "name": "amount",
          "type": "uint256"
        },
        {
          "internalType": "address",
          "name": "recipient",
          "type": "address"
        }
      ],
      "name": "issueSharesForAmount",
      "outputs": [
        {
          "internalType": "uint256",
          "name": "",
          "type": "uint256"
        }
      ],
      "stateMutability": "nonpayable",
      "type": "function"
    },
    {
      "inputs": [],
      "name": "lastProfitUpdate",
      "outputs": [
        {
          "internalType": "uint256",
          "name": "",
          "type": "uint256"
        }
      ],
      "stateMutability": "view",
      "type": "function"
    },
    {
      "inputs": [
        {
          "internalType": "uint256",
          "name": "previouslyLockedShares",
          "type": "uint256"
        },
        {
          "internalType": "uint256",
          "name": "newlyLockedShares",
          "type": "uint256"
        }
      ],
      "name": "manageUnlockingOfShares",
      "outputs": [],
      "stateMutability": "nonpayable",
      "type": "function"
    },
    {
      "inputs": [
        {
          "internalType": "address",
          "name": "receiver",
          "type": "address"
        }
      ],
      "name": "maxDeposit",
      "outputs": [
        {
          "internalType": "uint256",
          "name": "",
          "type": "uint256"
        }
      ],
      "stateMutability": "view",
      "type": "function"
    },
    {
      "inputs": [
        {
          "internalType": "address",
          "name": "receiver",
          "type": "address"
        }
      ],
      "name": "maxMint",
      "outputs": [
        {
          "internalType": "uint256",
          "name": "",
          "type": "uint256"
        }
      ],
      "stateMutability": "view",
      "type": "function"
    },
    {
      "inputs": [
        {
          "internalType": "address",
          "name": "owner",
          "type": "address"
        },
        {
          "internalType": "uint256",
          "name": "maxLoss",
          "type": "uint256"
        },
        {
          "internalType": "address[]",
          "name": "_strategies",
          "type": "address[]"
        }
      ],
      "name": "maxRedeem",
      "outputs": [
        {
          "internalType": "uint256",
          "name": "",
          "type": "uint256"
        }
      ],
      "stateMutability": "nonpayable",
      "type": "function"
    },
    {
      "inputs": [
        {
          "internalType": "address",
          "name": "owner",
          "type": "address"
        },
        {
          "internalType": "uint256",
          "name": "_maxLoss",
          "type": "uint256"
        },
        {
          "internalType": "address[]",
          "name": "_strategies",
          "type": "address[]"
        }
      ],
      "name": "maxWithdraw",
      "outputs": [
        {
          "internalType": "uint256",
          "name": "",
          "type": "uint256"
        }
      ],
      "stateMutability": "nonpayable",
      "type": "function"
    },
    {
      "inputs": [],
      "name": "minimumTotalIdle",
      "outputs": [
        {
          "internalType": "uint256",
          "name": "",
          "type": "uint256"
        }
      ],
      "stateMutability": "view",
      "type": "function"
    },
    {
      "inputs": [
        {
          "internalType": "uint256",
          "name": "shares",
          "type": "uint256"
        },
        {
          "internalType": "address",
          "name": "receiver",
          "type": "address"
        }
      ],
      "name": "mint",
      "outputs": [
        {
          "internalType": "uint256",
          "name": "",
          "type": "uint256"
        }
      ],
      "stateMutability": "nonpayable",
      "type": "function"
    },
    {
      "inputs": [
        {
          "internalType": "address",
          "name": "sender",
          "type": "address"
        },
        {
          "internalType": "address",
          "name": "recipient",
          "type": "address"
        },
        {
          "internalType": "uint256",
          "name": "shares",
          "type": "uint256"
        }
      ],
      "name": "mint",
      "outputs": [
        {
          "internalType": "uint256",
          "name": "",
          "type": "uint256"
        }
      ],
      "stateMutability": "nonpayable",
      "type": "function"
    },
    {
      "inputs": [],
      "name": "name",
      "outputs": [
        {
          "internalType": "string",
          "name": "",
          "type": "string"
        }
      ],
      "stateMutability": "view",
      "type": "function"
    },
    {
      "inputs": [
        {
          "internalType": "address",
          "name": "",
          "type": "address"
        }
      ],
      "name": "nonces",
      "outputs": [
        {
          "internalType": "uint256",
          "name": "",
          "type": "uint256"
        }
      ],
      "stateMutability": "view",
      "type": "function"
    },
    {
      "inputs": [
        {
          "internalType": "bytes32",
          "name": "",
          "type": "bytes32"
        }
      ],
      "name": "openRoles",
      "outputs": [
        {
          "internalType": "bool",
          "name": "",
          "type": "bool"
        }
      ],
      "stateMutability": "view",
      "type": "function"
    },
    {
      "inputs": [
        {
          "internalType": "address",
          "name": "owner",
          "type": "address"
        },
        {
          "internalType": "address",
          "name": "spender",
          "type": "address"
        },
        {
          "internalType": "uint256",
          "name": "amount",
          "type": "uint256"
        },
        {
          "internalType": "uint256",
          "name": "deadline",
          "type": "uint256"
        },
        {
          "internalType": "uint8",
          "name": "v",
          "type": "uint8"
        },
        {
          "internalType": "bytes32",
          "name": "r",
          "type": "bytes32"
        },
        {
          "internalType": "bytes32",
          "name": "s",
          "type": "bytes32"
        }
      ],
      "name": "permit",
      "outputs": [
        {
          "internalType": "bool",
          "name": "",
          "type": "bool"
        }
      ],
      "stateMutability": "nonpayable",
      "type": "function"
    },
    {
      "inputs": [
        {
          "internalType": "uint256",
          "name": "assets",
          "type": "uint256"
        }
      ],
      "name": "previewDeposit",
      "outputs": [
        {
          "internalType": "uint256",
          "name": "",
          "type": "uint256"
        }
      ],
      "stateMutability": "view",
      "type": "function"
    },
    {
      "inputs": [
        {
          "internalType": "uint256",
          "name": "shares",
          "type": "uint256"
        }
      ],
      "name": "previewMint",
      "outputs": [
        {
          "internalType": "uint256",
          "name": "",
          "type": "uint256"
        }
      ],
      "stateMutability": "view",
      "type": "function"
    },
    {
      "inputs": [
        {
          "internalType": "uint256",
          "name": "shares",
          "type": "uint256"
        }
      ],
      "name": "previewRedeem",
      "outputs": [
        {
          "internalType": "uint256",
          "name": "",
          "type": "uint256"
        }
      ],
      "stateMutability": "view",
      "type": "function"
    },
    {
      "inputs": [
        {
          "internalType": "uint256",
          "name": "assets",
          "type": "uint256"
        }
      ],
      "name": "previewWithdraw",
      "outputs": [
        {
          "internalType": "uint256",
          "name": "",
          "type": "uint256"
        }
      ],
      "stateMutability": "view",
      "type": "function"
    },
    {
      "inputs": [],
      "name": "profitMaxUnlockTime",
      "outputs": [
        {
          "internalType": "uint256",
          "name": "",
          "type": "uint256"
        }
      ],
      "stateMutability": "view",
      "type": "function"
    },
    {
      "inputs": [],
      "name": "profitUnlockingRate",
      "outputs": [
        {
          "internalType": "uint256",
          "name": "",
          "type": "uint256"
        }
      ],
      "stateMutability": "view",
      "type": "function"
    },
    {
      "inputs": [
        {
          "internalType": "uint256",
          "name": "shares",
          "type": "uint256"
        },
        {
          "internalType": "address",
          "name": "receiver",
          "type": "address"
        },
        {
          "internalType": "address",
          "name": "owner",
          "type": "address"
        },
        {
          "internalType": "uint256",
          "name": "maxLoss",
          "type": "uint256"
        },
        {
          "internalType": "address[]",
          "name": "_strategies",
          "type": "address[]"
        }
      ],
      "name": "redeem",
      "outputs": [
        {
          "internalType": "uint256",
          "name": "",
          "type": "uint256"
        }
      ],
      "stateMutability": "nonpayable",
      "type": "function"
    },
    {
      "inputs": [
        {
          "internalType": "bytes32",
          "name": "role",
          "type": "bytes32"
        },
        {
          "internalType": "address",
          "name": "account",
          "type": "address"
        }
      ],
      "name": "renounceRole",
      "outputs": [],
      "stateMutability": "nonpayable",
      "type": "function"
    },
    {
      "inputs": [
        {
          "internalType": "bytes32",
          "name": "role",
          "type": "bytes32"
        },
        {
          "internalType": "address",
          "name": "account",
          "type": "address"
        }
      ],
      "name": "revokeRole",
      "outputs": [],
      "stateMutability": "nonpayable",
      "type": "function"
    },
    {
      "inputs": [],
      "name": "roleManager",
      "outputs": [
        {
          "internalType": "address",
          "name": "",
          "type": "address"
        }
      ],
      "stateMutability": "view",
      "type": "function"
    },
    {
      "inputs": [
        {
          "internalType": "address",
          "name": "",
          "type": "address"
        }
      ],
      "name": "roles",
      "outputs": [
        {
          "internalType": "bytes32",
          "name": "",
          "type": "bytes32"
        }
      ],
      "stateMutability": "view",
      "type": "function"
    },
    {
      "inputs": [
        {
          "internalType": "uint256",
          "name": "_depositLimit",
          "type": "uint256"
        }
      ],
      "name": "setDepositLimit",
      "outputs": [],
      "stateMutability": "nonpayable",
      "type": "function"
    },
    {
      "inputs": [
        {
          "internalType": "uint256",
          "name": "_minimumTotalIdle",
          "type": "uint256"
        }
      ],
      "name": "setMinimumTotalIdle",
      "outputs": [],
      "stateMutability": "nonpayable",
      "type": "function"
    },
    {
      "inputs": [
        {
          "internalType": "uint256",
          "name": "_totalDebtAmount",
          "type": "uint256"
        }
      ],
      "name": "setTotalDebtAmount",
      "outputs": [],
      "stateMutability": "nonpayable",
      "type": "function"
    },
    {
      "inputs": [
        {
          "internalType": "uint256",
          "name": "_totalIdleAmount",
          "type": "uint256"
        }
      ],
      "name": "setTotalIdleAmount",
      "outputs": [],
      "stateMutability": "nonpayable",
      "type": "function"
    },
    {
      "inputs": [],
      "name": "setters",
      "outputs": [
        {
          "internalType": "address",
          "name": "",
          "type": "address"
        }
      ],
      "stateMutability": "view",
      "type": "function"
    },
    {
      "inputs": [],
      "name": "sharesManager",
      "outputs": [
        {
          "internalType": "address",
          "name": "",
          "type": "address"
        }
      ],
      "stateMutability": "view",
      "type": "function"
    },
    {
      "inputs": [],
      "name": "shutdown",
      "outputs": [
        {
          "internalType": "bool",
          "name": "",
          "type": "bool"
        }
      ],
      "stateMutability": "view",
      "type": "function"
    },
    {
      "inputs": [
        {
          "internalType": "address",
          "name": "owner",
          "type": "address"
        },
        {
          "internalType": "address",
          "name": "spender",
          "type": "address"
        },
        {
          "internalType": "uint256",
          "name": "amount",
          "type": "uint256"
        }
      ],
      "name": "spendAllowance",
      "outputs": [],
      "stateMutability": "nonpayable",
      "type": "function"
    },
    {
      "inputs": [
        {
          "internalType": "address",
          "name": "",
          "type": "address"
        }
      ],
      "name": "strategies",
      "outputs": [
        {
          "internalType": "uint256",
          "name": "activation",
          "type": "uint256"
        },
        {
          "internalType": "uint256",
          "name": "lastReport",
          "type": "uint256"
        },
        {
          "internalType": "uint256",
          "name": "currentDebt",
          "type": "uint256"
        },
        {
          "internalType": "uint256",
          "name": "maxDebt",
          "type": "uint256"
        }
      ],
      "stateMutability": "view",
      "type": "function"
    },
    {
      "inputs": [],
      "name": "strategyManager",
      "outputs": [
        {
          "internalType": "address",
          "name": "",
          "type": "address"
        }
      ],
      "stateMutability": "view",
      "type": "function"
    },
    {
      "inputs": [
        {
          "internalType": "bytes4",
          "name": "interfaceId",
          "type": "bytes4"
        }
      ],
      "name": "supportsInterface",
      "outputs": [
        {
          "internalType": "bool",
          "name": "",
          "type": "bool"
        }
      ],
      "stateMutability": "view",
      "type": "function"
    },
    {
      "inputs": [],
      "name": "symbol",
      "outputs": [
        {
          "internalType": "string",
          "name": "",
          "type": "string"
        }
      ],
      "stateMutability": "view",
      "type": "function"
    },
    {
      "inputs": [],
      "name": "totalAssets",
      "outputs": [
        {
          "internalType": "uint256",
          "name": "",
          "type": "uint256"
        }
      ],
      "stateMutability": "view",
      "type": "function"
    },
    {
      "inputs": [],
      "name": "totalDebtAmount",
      "outputs": [
        {
          "internalType": "uint256",
          "name": "",
          "type": "uint256"
        }
      ],
      "stateMutability": "view",
      "type": "function"
    },
    {
      "inputs": [],
      "name": "totalIdleAmount",
      "outputs": [
        {
          "internalType": "uint256",
          "name": "",
          "type": "uint256"
        }
      ],
      "stateMutability": "view",
      "type": "function"
    },
    {
      "inputs": [],
      "name": "totalSupply",
      "outputs": [
        {
          "internalType": "uint256",
          "name": "",
          "type": "uint256"
        }
      ],
      "stateMutability": "view",
      "type": "function"
    },
    {
      "inputs": [],
      "name": "totalSupplyAmount",
      "outputs": [
        {
          "internalType": "uint256",
          "name": "",
          "type": "uint256"
        }
      ],
      "stateMutability": "view",
      "type": "function"
    },
    {
      "inputs": [
        {
          "internalType": "address",
          "name": "receiver",
          "type": "address"
        },
        {
          "internalType": "uint256",
          "name": "amount",
          "type": "uint256"
        }
      ],
      "name": "transfer",
      "outputs": [
        {
          "internalType": "bool",
          "name": "",
          "type": "bool"
        }
      ],
      "stateMutability": "nonpayable",
      "type": "function"
    },
    {
      "inputs": [
        {
          "internalType": "address",
          "name": "sender",
          "type": "address"
        },
        {
          "internalType": "address",
          "name": "receiver",
          "type": "address"
        },
        {
          "internalType": "uint256",
          "name": "amount",
          "type": "uint256"
        }
      ],
      "name": "transfer",
      "outputs": [],
      "stateMutability": "nonpayable",
      "type": "function"
    },
    {
      "inputs": [
        {
          "internalType": "address",
          "name": "sender",
          "type": "address"
        },
        {
          "internalType": "address",
          "name": "receiver",
          "type": "address"
        },
        {
          "internalType": "uint256",
          "name": "amount",
          "type": "uint256"
        }
      ],
      "name": "transferFrom",
      "outputs": [
        {
          "internalType": "bool",
          "name": "",
          "type": "bool"
        }
      ],
      "stateMutability": "nonpayable",
      "type": "function"
    },
    {
      "inputs": [],
      "name": "unlockedShares",
      "outputs": [
        {
          "internalType": "uint256",
          "name": "",
          "type": "uint256"
        }
      ],
      "stateMutability": "view",
      "type": "function"
    },
    {
      "inputs": [],
      "name": "useDefaultQueue",
      "outputs": [
        {
          "internalType": "bool",
          "name": "",
          "type": "bool"
        }
      ],
      "stateMutability": "view",
      "type": "function"
    },
    {
      "inputs": [
        {
          "internalType": "uint256",
          "name": "assets",
          "type": "uint256"
        },
        {
          "internalType": "address",
          "name": "receiver",
          "type": "address"
        },
        {
          "internalType": "address",
          "name": "owner",
          "type": "address"
        },
        {
          "internalType": "uint256",
          "name": "maxLoss",
          "type": "uint256"
        },
        {
          "internalType": "address[]",
          "name": "_strategies",
          "type": "address[]"
        }
      ],
      "name": "withdraw",
      "outputs": [
        {
          "internalType": "uint256",
          "name": "",
          "type": "uint256"
        }
      ],
      "stateMutability": "nonpayable",
      "type": "function"
    },
    {
      "inputs": [
        {
          "internalType": "address",
          "name": "strategy",
          "type": "address"
        },
        {
          "internalType": "uint256",
          "name": "assetsToWithdraw",
          "type": "uint256"
        }
      ],
      "name": "withdrawFromStrategy",
      "outputs": [],
      "stateMutability": "nonpayable",
      "type": "function"
    },
    {
      "inputs": [],
      "name": "withdrawLimitModule",
      "outputs": [
        {
          "internalType": "address",
          "name": "",
          "type": "address"
        }
      ],
      "stateMutability": "view",
      "type": "function"
    }
  ],
  "transactionHash": "0x93c0c7189c924958dee242959a7cd864124f3b7549d382961844d683433b24cc",
  "args": [],
  "numDeployments": 1,
  "solcInputHash": "55aa9053d670e8046fe159726688ec0f",
  "bytecode": "0x60a06040526301e1855860805234801561001857600080fd5b506001601c556080516153ae610039600039600061065f01526153ae6000f3fe608060405234801561001057600080fd5b50600436106105155760003560e01c80638340f549116102a25780638340f54914610a285780638afca8f014610a3b5780639198600314610a4457806391d1485414610a5757806394bf804d14610a6a57806395d89b4114610a7d57806399167fb414610a855780639937464214610a985780639a508d0a14610ab85780639e34e34814610acb5780639f3988f314610ade578063a217fddf14610b05578063a9059cbb14610b0d578063a98222c414610b20578063ab5b4d4914610b47578063acded97d14610b6e578063af76d4bd14610b81578063b3c187f214610b94578063b3d7f6b914610ba7578063b53d095814610bba578063bbe4eb4914610bcd578063bdc8144b14610bda578063beabacc814610bed578063bee7e3d914610c00578063c034969414610c13578063c065ca0714610c26578063c0993eea14610c4d578063c63d75b614610c74578063c6c3bbe614610c87578063c6e6f59214610c9a578063c8d74b6014610cad578063c8dffa9514610cd4578063ca4c1c3714610cdd578063cea5a1a714610cf0578063d3b1e9a414610cf8578063d4ae064f14610d0b578063d505accf14610d32578063d547741f14610d45578063d73b1dc914610d58578063d81a09f614610d6b578063d9a0e97a14610d7e578063dd62ed3e14610d86578063dd8aaa4f14610dbf578063e0bf18ad14610dd2578063e1f21c6714610dda578063e315cd7514610ded578063e91db8e514610e00578063ec6e566e14610e29578063ecf7085814610e3c578063ef8b30f714610c9a578063f1daeba814610e45578063f5b944eb14610e6c578063f828f50b14610e93578063fc0e74d114610e9c578063fd967f4714610eb0578063fec61f0614610eb9578063ff1e7f0814610ee057600080fd5b8062435da51461051a57806301e1d1141461054357806301ffc9a71461055857806303dcd12c1461057857806306580f2d1461059f57806306fdde03146105b257806307a2d13a146105c75780630835a3fc146105da5780630952864e146105e3578063095ea7b3146105ec5780630a28a477146105ff5780630ad283d0146106125780630ceca2441461063957806316d3bfbb1461065a57806318160ddd146106815780631e9579551461068957806323b872dd146106a9578063248a9ca3146106bc5780632d632692146106cf5780632e0f2625146106d85780632f2ff15d146106f9578063313ce5671461070e57806334b5fab6146107205780633644e5151461073357806336568abe1461073c57806336fba0841461074f57806338d52e0f1461075b57806339b70e381461076c57806339ebf8231461077f5780633cd7b5ab146107c45780633e986eed146107cd5780633f7b5e40146107e0578063402d267d146107e85780634542abe2146107fb5780634800d97f1461080e5780634cdad506146105c75780634ce1d38a1461082e5780634cfe51dc146108555780634d4bb1971461087c5780634fb3ccc5146108915780635141eebb146108a457806353a66132146108ad5780635453491f146108d05780635a569099146108d85780635aa6e675146108eb5780635bf6b4fb146108fe5780635d4086af14610925578063652da3241461093857806365cb67651461095f5780636c43a2ca146109725780636e553f651461098557806370a08231146109985780637659bcc6146109ab57806377e3b267146109be5780637ecebe00146109e25780637ff0007714610a025780638212fd4314610a15575b600080fd5b60145461052d906001600160a01b031681565b60405161053a9190614169565b60405180910390f35b61054b610ef3565b60405161053a919061417d565b61056b6105663660046141ad565b610f02565b60405161053a91906141d6565b61054b7f633076a97f32ae349b28772e7b1483f67a926f150cbc501d02bdbd77389325ab81565b61054b6105ad366004614319565b610f39565b6105ba610f77565b60405161053a9190614403565b61054b6105d5366004614414565b611005565b61054b600d5481565b61054b60165481565b61056b6105fa366004614435565b611012565b61054b61060d366004614414565b611026565b61054b7fc723f4dd6268e1c374639e36d629c765285ee7003913389d582c300f186dde9781565b61064c610647366004614542565b611033565b60405161053a9291906145b0565b61054b7f000000000000000000000000000000000000000000000000000000000000000081565b61054b61148d565b61069c6106973660046145cb565b611497565b60405161053a9190614652565b61056b6106b7366004614660565b61151d565b61054b6106ca366004614414565b61153f565b61054b60175481565b601e546106ec90600160a01b900460ff1681565b60405161053a919061469e565b61070c6107073660046146ac565b611554565b005b601e54600160a01b900460ff166106ec565b61054b61072e3660046146df565b611575565b61054b601b5481565b61070c61074a3660046146ac565b6115c3565b61054b64e8d4a5100081565b601e546001600160a01b031661052d565b60005461052d906001600160a01b031681565b6107b461078d36600461473f565b60046020526000908152604090208054600182015460028301546003909301549192909184565b60405161053a9493929190614760565b61054b600c5481565b61070c6107db366004614795565b611602565b61054b600a81565b61054b6107f636600461473f565b6117f3565b61070c6108093660046147b7565b6117fe565b601e54610821906001600160a01b031681565b60405161053a9190614853565b61054b7f69d1171ac0a63777a6733cda21aec9ed3d48a4fd11f273c934a691dec5e5589c81565b61054b7f862f91c9d89d6135b19873b921c90b702cb2e175c371b8430026b9577e69111981565b61054b6000805160206152f983398151915281565b600f5461052d906001600160a01b031681565b61054b60185481565b61056b6108bb366004614414565b60136020526000908152604090205460ff1681565b600c5461054b565b61054b6108e6366004614435565b611810565b60035461052d906001600160a01b031681565b61054b7fea672c1c09cd95c51af9509f646f3615ff0071aae8652bd821471ee9037fd72c81565b61054b610933366004614879565b6118b2565b61054b7fcd9f023a942ee35097ead74b2505bea9f2c5d47465db92dd195cf7f01a41cfe181565b61054b61096d3660046146df565b6118be565b61056b610980366004614660565b6118cb565b61054b6109933660046146ac565b6118d8565b61054b6109a636600461473f565b6118f9565b61054b6109b93660046146ac565b611952565b6105ba604051806040016040528060058152602001640312e302e360dc1b81525081565b61054b6109f036600461473f565b601a6020526000908152604090205481565b61054b610a10366004614879565b61195e565b61070c610a23366004614414565b600d55565b61054b610a36366004614660565b61196a565b61054b60195481565b60115461052d906001600160a01b031681565b61056b610a653660046146ac565b611977565b61054b610a783660046146ac565b6119a2565b6105ba6119b7565b61070c610a933660046146ac565b6119c4565b61054b610aa636600461473f565b60126020526000908152604090205481565b61070c610ac6366004614414565b600c55565b60105461052d906001600160a01b031681565b61054b7f6f430d649a8640e48ff9bfbc353b3f99ed630163857821b3b4075e3871dafbf581565b61054b600081565b61056b610b1b366004614435565b6119ce565b61054b7f2f0dbbe8c2c0170206c50ec0cafa1c0dbd03e73e67c2a960178df30a0a30ee2e81565b61054b7f900d80def0427daac599092fcb16b21808ec68dd9a2e1eae89d1e8db2135737581565b60015461052d906001600160a01b031681565b61070c610b8f366004614435565b611a20565b60155461052d906001600160a01b031681565b61054b610bb5366004614414565b611a91565b61070c610bc8366004614435565b611a9e565b60065461056b9060ff1681565b61070c610be8366004614414565b611aa8565b61070c610bfb366004614660565b611b41565b60025461052d906001600160a01b031681565b61070c610c21366004614660565b611b4c565b61054b7f2a0e761830cc61f2707ea7bb138008bf9dda7f7d34c77736d0a116604e95ea1681565b61054b7f8b73c3c69bb8fe3d512ecc4cf759cc79239f7b179b0ffacaa9a75d522b39400f81565b61054b610c8236600461473f565b611c14565b61054b610c95366004614660565b611c2d565b61054b610ca8366004614414565b611c3a565b61054b7f152ebba56b9738ee3d8baea1b76fa31dcdcd79b1929bfea7d58ee12cfdf1a65381565b61054b600b5481565b61070c610ceb3660046146ac565b611c47565b600d5461054b565b61070c610d06366004614957565b611c51565b61054b7fa18eaea71a088b547b8c932b48861853b3434d9a3240b94466c607e28b69659581565b61056b610d40366004614a15565b611d4a565b61070c610d533660046146ac565b611f3c565b61056b610d66366004614660565b611f58565b61054b610d79366004614319565b611fa6565b61054b611fd0565b61054b610d94366004614ab4565b6001600160a01b03918216600090815260086020908152604080832093909416825291909152205490565b61070c610dcd366004614660565b611fda565b61070c611fe5565b61056b610de8366004614660565b612081565b61070c610dfb366004614414565b600b55565b61052d610e0e3660046141ad565b6009602052600090815260409020546001600160a01b031681565b61070c610e37366004614660565b61208e565b61054b600e5481565b61054b7f7cbb3cdf689b8ea3e9d265f66bc4e0a99069268217017d38d2a5a559abc6271981565b61054b7ff206625bad3d9112d5609b8d356e6fbd514cd1f69980d4ce2b3e6e68e1789ace81565b61054b600a5481565b60155461056b90600160a01b900460ff1681565b61054b61271081565b61054b7fd45f7ccff42f059d4e47c3f027c444272257266f7e88b981e142f0aa38fbfd7881565b61052d610eee366004614414565b612099565b6000610efd6120c3565b905090565b60006001600160e01b03198216637965db0b60e01b1480610f3357506301ffc9a760e01b6001600160e01b03198316145b92915050565b6000610f436120d5565b6000610f508760006120fe565b9050610f61328787848b8989612194565b915050610f6e6001601c55565b95945050505050565b601f8054610f8490614aec565b80601f0160208091040260200160405190810160405280929190818152602001828054610fb090614aec565b8015610ffd5780601f10610fd257610100808354040283529160200191610ffd565b820191906000526020600020905b815481529060010190602001808311610fe057829003601f168201915b505050505081565b6000610f338260006120fe565b600061101f338484612231565b9392505050565b6000610f338260016122c9565b60008060008087602001511115611186576020870151600154600f546040516370a0823160e01b8152611142939261113d926001600160a01b03918216926370a0823192611085921690600401614169565b602060405180830381865afa1580156110a2573d6000803e3d6000fd5b505050506040513d601f19601f820116820180604052508101906110c69190614b23565b600154600f54604051636eb1769f60e11b81526001600160a01b039283169263dd62ed3e926110fc929116903090600401614b44565b602060405180830381865afa158015611119573d6000803e3d6000fd5b505050506040513d601f19601f8201168201806040525081019061113d9190614b23565b612377565b60208801819052601e54600f5461116a926001600160a01b039283169290911690309061238d565b8660200151600c60008282546111809190614b75565b90915550505b60008054604051634d3c739760e11b81526001600160a01b0390911690639a78e72e906111b7908890600401614169565b602060405180830381865afa1580156111d4573d6000803e3d6000fd5b505050506040513d601f19601f820116820180604052508101906111f89190614b23565b90508615611283576000546001600160a01b0316633764254a8661121c8a85614b75565b6040518363ffffffff1660e01b8152600401611239929190614b88565b600060405180830381600087803b15801561125357600080fd5b505af1158015611267573d6000803e3d6000fd5b5050505086600b600082825461127d9190614b75565b90915550505b60008860200151886112959190614b75565b1180156113175750600260009054906101000a90046001600160a01b03166001600160a01b0316630952864e6040518163ffffffff1660e01b8152600401602060405180830381865afa1580156112f0573d6000803e3d6000fd5b505050506040513d601f19601f820116820180604052508101906113149190614b23565b15155b156113385761133588602001518861132f9190614b75565b30612469565b91505b85156113c1576000546001600160a01b0316633764254a8661135a8985614b96565b6040518363ffffffff1660e01b8152600401611377929190614b88565b600060405180830381600087803b15801561139157600080fd5b505af11580156113a5573d6000803e3d6000fd5b5050505085600b60008282546113bb9190614b96565b90915550505b306000908152600760205260408120546113dc908490614b96565b8a519091501561143d5789516113f69061113d8584614b75565b808b52611403903061251e565b60006114138b6000015185612377565b905061141f8185614b96565b8b5190945061142f908290614b96565b6114399083614b96565b9150505b60208a0151156114625760208a0151600f5461146291906001600160a01b03166125d5565b60408a01511561147e5761147e8a604001518a606001516125d5565b99919850909650505050505050565b6000610efd61266e565b61149f614122565b6114a7614122565b60006114b38587614b75565b1115611515576114cd6114c68587614b75565b60016122c9565b815182906114dc908390614b75565b9052508315611515576114f96114f28486614b96565b60006122c9565b602082015282156115155761150f8360006122c9565b60408201525b949350505050565b600061152a843384612685565b6115358484846126e7565b5060019392505050565b6000908152601d602052604090206001015490565b61155d8261153f565b611566816127e4565b61157083836127ee565b505050565b600080611583858585612874565b905060006115928260016122c9565b6001600160a01b0387166000908152600760205260409020549091506115b9908290612377565b9695505050505050565b6001600160a01b03811633146115f45760405162461bcd60e51b81526004016115eb90614ba9565b60405180910390fd5b6115fe8282612c3e565b5050565b600061160e8284614b75565b905080156117e957600042600260009054906101000a90046001600160a01b03166001600160a01b0316632d6326926040518163ffffffff1660e01b8152600401602060405180830381865afa15801561166c573d6000803e3d6000fd5b505050506040513d601f19601f820116820180604052508101906116909190614b23565b111561171a57600254604080516316b1934960e11b8152905142926001600160a01b031691632d6326929160048083019260209291908290030181865afa1580156116df573d6000803e3d6000fd5b505050506040513d601f19601f820116820180604052508101906117039190614b23565b61170d9190614b96565b6117179085614bfc565b90505b600082600260009054906101000a90046001600160a01b03166001600160a01b0316630952864e6040518163ffffffff1660e01b8152600401602060405180830381865afa158015611770573d6000803e3d6000fd5b505050506040513d601f19601f820116820180604052508101906117949190614b23565b61179e9086614bfc565b6117a89084614b75565b6117b29190614c31565b9050806117c464e8d4a5100085614bfc565b6117ce9190614c31565b6018556117db8142614b75565b601755505042601955505050565b6000601855505050565b6000610f3382612ca5565b61180a8484848461238d565b50505050565b600080546040516339ebf82360e01b815282916001600160a01b0316906339ebf82390611841908790600401614169565b608060405180830381865afa15801561185e573d6000803e3d6000fd5b505050506040513d601f19601f820116820180604052508101906118829190614c45565b5092505050828110156118a8576040516337deae0760e01b815260040160405180910390fd5b6115158484612d7d565b600061101f83836122c9565b6000611515848484612874565b6000611515848484612f40565b60006118e26120d5565b6118ed338385612f75565b9050610f336001601c55565b6000306001600160a01b03831603611936576119136130f3565b6001600160a01b038316600090815260076020526040902054610f339190614b96565b506001600160a01b031660009081526007602052604090205490565b600061101f8383612469565b600061101f83836120fe565b6000611515848484612f75565b6000918252601d602090815260408084206001600160a01b0393909316845291905290205460ff1690565b60006119ac6120d5565b6118ed33838561323c565b60208054610f8490614aec565b6115fe828261251e565b60006001600160a01b0383163014806119ee57506001600160a01b038316155b15611a0c5760405163d92e233d60e01b815260040160405180910390fd5b611a173384846126e7565b50600192915050565b604051636e553f6560e01b81526001600160a01b03831690636e553f6590611a4e9084903090600401614c9d565b6020604051808303816000875af1158015611a6d573d6000803e3d6000fd5b505050506040513d601f19601f820116820180604052508101906115709190614b23565b6000610f338260016120fe565b6115fe8282613394565b601554600160a01b900460ff161515600103611ad757604051630f3c386760e01b815260040160405180910390fd5b6010546001600160a01b031615611b01576040516364b9991160e11b815260040160405180910390fd5b600e8190556040517fae565aab888bca5e19e25a13db7b0c9144305bf55cb0f3f4d724f730e5acdd6290611b3690839061417d565b60405180910390a150565b6115708383836126e7565b6001600160a01b0383161580611b6957506001600160a01b038216155b15611b875760405163d92e233d60e01b815260040160405180910390fd5b60405163095ea7b360e01b81526001600160a01b0384169063095ea7b390611bb59085908590600401614b88565b6020604051808303816000875af1158015611bd4573d6000803e3d6000fd5b505050506040513d601f19601f82011682018060405250810190611bf89190614cbe565b6115705760405162461bcd60e51b81526004016115eb90614d08565b600080611c2083612ca5565b905061101f8160006122c9565b600061151584848461323c565b6000610f338260006122c9565b6115fe82826125d5565b6000611c5c816127e4565b600654610100900460ff161515600103611c885760405162461bcd60e51b81526004016115eb90614d42565b600080546001600160a01b03199081166001600160a01b038a81169190911790925560028054909116918816919091179055601e805460ff60a01b1916600160a01b60ff8781168202929092179283905561010092041610611cfd5760405163e236476560e01b815260040160405180910390fd5b601e80546001600160a01b0319166001600160a01b038716179055601f611d248482614e14565b506020611d318382614e14565b50506006805461ff001916610100179055505050505050565b60006001600160a01b038816611d735760405163d92e233d60e01b815260040160405180910390fd5b42851015611d94576040516363bef56160e11b815260040160405180910390fd5b6001600160a01b0388166000908152601a60209081526040808320549051909291611dd9916000805160206152f9833981519152918d918d918d9188918e9101614ed2565b6040516020818303038152906040528051906020012090506000601b5482604051602001611e08929190614f21565b604051602081830303815290604052805190602001209050600060018289898960405160008152602001604052604051611e459493929190614f52565b6020604051602081039080840390855afa158015611e67573d6000803e3d6000fd5b5050604051601f1901519150506001600160a01b0381161580611e9c57508b6001600160a01b0316816001600160a01b031614155b15611eba576040516310454c9960e31b815260040160405180910390fd5b611ec58c8c8c612231565b506001600160a01b038c166000908152601a60205260408120805491611eea83614f6d565b91905055508a6001600160a01b03168c6001600160a01b03166000805160206153198339815191528c604051611f20919061417d565b60405180910390a360019450505050505b979650505050505050565b611f458261153f565b611f4e816127e4565b6115708383612c3e565b6001600160a01b0380841660009081526008602090815260408083209386168352929052908120548190611f8d908490614b96565b9050611f9a858583612231565b50600195945050505050565b600080611fb48760016122c9565b9050611fc53287878a858989612194565b509695505050505050565b6000610efd6130f3565b611570838383612685565b6000611fef6130f3565b905080600003611ffc5750565b600254604080516316b1934960e11b8152905142926001600160a01b031691632d6326929160048083019260209291908290030181865afa158015612045573d6000803e3d6000fd5b505050506040513d601f19601f820116820180604052508101906120699190614b23565b111561207457426019555b61207e813061251e565b50565b6000611515848484612231565b6115708383836134a8565b600581815481106120a957600080fd5b6000918252602090912001546001600160a01b0316905081565b6000600b54600c54610efd9190614b75565b6002601c54036120f75760405162461bcd60e51b81526004016115eb90614fbb565b6002601c55565b600060001983148061210e575082155b1561211a575081610f33565b600061212461266e565b9050806000036121375783915050610f33565b60006121416120c3565b61214b9086614bfc565b905060006121598383614c31565b9050600185600181111561216f5761216f614fcb565b14801561218457506121818383614fe1565b15155b15610f6e576115b9600182614b75565b60006121a287878686613570565b6121ad868986613614565b6000806121ba8785613638565b915091506121cd8989888a86868b613ec0565b876001600160a01b0316896001600160a01b03168b6001600160a01b03167ffbde797d201c681b91056529119e0b02407c7bb96a4a2c75c01fc9667232c8db858a60405161221c9291906145b0565b60405180910390a45098975050505050505050565b60006001600160a01b038416158061225057506001600160a01b038316155b1561226e5760405163d92e233d60e01b815260040160405180910390fd5b6001600160a01b038085166000818152600860209081526040808320948816808452949091529081902085905551600080516020615319833981519152906122b790869061417d565b60405180910390a35060019392505050565b60006000198314806122d9575082155b156122e5575081610f33565b60006122ef61266e565b905060006122fb6120c3565b9050806000036123225781600003612317578492505050610f33565b600092505050610f33565b600061232e8387614bfc565b9050600061233c8383614c31565b9050600186600181111561235257612352614fcb565b14801561236757506123648383614fe1565b15155b156115b957611f31600182614b75565b6000818310612386578161101f565b5090919050565b6001600160a01b03841615806123aa57506001600160a01b038316155b806123bc57506001600160a01b038216155b156123da5760405163d92e233d60e01b815260040160405180910390fd5b6040516323b872dd60e01b81526001600160a01b038516906323b872dd9061240a90869086908690600401614ff5565b6020604051808303816000875af1158015612429573d6000803e3d6000fd5b505050506040513d601f19601f8201168201806040525081019061244d9190614cbe565b61180a5760405162461bcd60e51b81526004016115eb90615043565b60006001600160a01b0382166124925760405163d92e233d60e01b815260040160405180910390fd5b600061249c61266e565b905060006124a86120c3565b90506000826000036124bb575084612500565b858211156124e8576124cd8683614b96565b6124d78488614bfc565b6124e19190614c31565b9050612500565b60405162461bcd60e51b81526004016115eb90615079565b806000036125145760009350505050610f33565b610f6e81866125d5565b6001600160a01b03811660009081526007602052604090205482111561255757604051633999656760e01b815260040160405180910390fd5b6001600160a01b0381166000908152600760205260408120805484929061257f908490614b96565b9250508190555081600a60008282546125989190614b96565b90915550506040516000906001600160a01b038316906000805160206152d9833981519152906125c990869061417d565b60405180910390a35050565b6001600160a01b0381166125fc5760405163d92e233d60e01b815260040160405180910390fd5b6001600160a01b03811660009081526007602052604081208054849290612624908490614b75565b9250508190555081600a600082825461263d9190614b75565b90915550506040516001600160a01b038216906000906000805160206152d9833981519152906125c990869061417d565b60006126786130f3565b600a54610efd9190614b96565b6001600160a01b03808416600090815260086020908152604080832093861683529290522054818110156126cc5760405163017e286b60e51b815260040160405180910390fd5b6126e084846126db8585614b96565b612231565b5050505050565b6001600160a01b038316600090815260076020526040902054818110156127215760405163356680b760e01b815260040160405180910390fd5b6001600160a01b038416158061273e57506001600160a01b038316155b1561275c5760405163d92e233d60e01b815260040160405180910390fd5b6127668282614b96565b6001600160a01b0380861660009081526007602052604080822093909355908516815220546127958382614b75565b6001600160a01b0380861660008181526007602052604090819020939093559151908716906000805160206152d9833981519152906127d590879061417d565b60405180910390a35050505050565b61207e8133613f4c565b6127f88282611977565b6115fe576000828152601d602090815260408083206001600160a01b03851684529091529020805460ff191660011790556128303390565b6001600160a01b0316816001600160a01b0316837f2f8788117e7eff1d82e926ec794901d17c78024a50270940304540a733656f0d60405160405180910390a45050565b6001600160a01b038316600090815260076020526040812054819061289990826120fe565b6011549091506001600160a01b03161561293b57601154604051632319b8cf60e01b81526000916001600160a01b031690632319b8cf906128e2908990899089906004016150e6565b6020604051808303816000875af1158015612901573d6000803e3d6000fd5b505050506040513d601f19601f820116820180604052508101906129259190614b23565b905081811015612933578091505b50905061101f565b600c5480821115612c355783518190600090819015801590612960575060065460ff16155b6129c45760058054806020026020016040519081016040528092919081815260200182805480156129ba57602002820191906000526020600020905b81546001600160a01b0316815260019091019060200180831161299c575b50505050506129c6565b865b905060005b8151811015612c2e5760008282815181106129e8576129e8615113565b6020026020010151905060046000826001600160a01b03166001600160a01b0316815260200190815260200160002060000154600003612a3b57604051630631bc2160e51b815260040160405180910390fd5b6000612a6b612a4a878a614b96565b6001600160a01b038416600090815260046020526040902060020154612377565b90506000612a798383612d7d565b90506000836001600160a01b03166307a2d13a856001600160a01b031663d905777e306040518263ffffffff1660e01b8152600401612ab89190614169565b602060405180830381865afa158015612ad5573d6000803e3d6000fd5b505050506040513d601f19601f82011682018060405250810190612af99190614b23565b6040518263ffffffff1660e01b8152600401612b15919061417d565b602060405180830381865afa158015612b32573d6000803e3d6000fd5b505050506040513d601f19601f82011682018060405250810190612b569190614b23565b9050612b628284614b96565b811015612b8d5782612b748284614bfc565b612b7e9190614c31565b9150612b8a8282614b75565b92505b82600003612b9e5750505050612c1c565b600082118015612baf57506127108d105b15612bef576127108d612bc2858b614b75565b612bcc9190614bfc565b612bd69190614c31565b612be08389614b75565b1115612bef5750505050612c2e565b612bf98389614b75565b9750898810612c0b5750505050612c2e565b612c158288614b75565b9650505050505b80612c2681614f6d565b9150506129cb565b5091935050505b50949350505050565b612c488282611977565b156115fe576000828152601d602090815260408083206001600160a01b0385168085529252808320805460ff1916905551339285917ff6391f5c32d9c69d2a47ea670b442974b53935d1edc7fd64eb21e047a839171b9190a45050565b60006001600160a01b038216301480612cc557506001600160a01b038216155b15612cd257506000919050565b6010546001600160a01b03168015612d5157604051632355178960e11b81526001600160a01b038216906346aa2f1290612d10908690600401614169565b602060405180830381865afa158015612d2d573d6000803e3d6000fd5b505050506040513d601f19601f8201168201806040525081019061101f9190614b23565b6000612d5b6120c3565b600e54909150808210612d7357506000949350505050565b610f6e8282614b96565b600080546040516339ebf82360e01b815282916001600160a01b0316906339ebf82390612dae908790600401614169565b608060405180830381865afa158015612dcb573d6000803e3d6000fd5b505050506040513d601f19601f82011682018060405250810190612def9190614c45565b50925050506000846001600160a01b03166370a08231306040518263ffffffff1660e01b8152600401612e229190614169565b602060405180830381865afa158015612e3f573d6000803e3d6000fd5b505050506040513d601f19601f82011682018060405250810190612e639190614b23565b90506000856001600160a01b03166307a2d13a836040518263ffffffff1660e01b8152600401612e93919061417d565b602060405180830381865afa158015612eb0573d6000803e3d6000fd5b505050506040513d601f19601f82011682018060405250810190612ed49190614b23565b90508281101580612ee3575082155b15612ef45760009350505050610f33565b6000612f008287614bfc565b90506000612f0e8583614c31565b612f189088614b96565b9050612f248583614fe1565b15611f3157612f34600182614b75565b98975050505050505050565b6001600160a01b0380841660009081526008602090815260408083209386168352929052908120548190611f8d908490614b75565b601554600090600160a01b900460ff161515600103612fa757604051630f3c386760e01b815260040160405180910390fd5b612fb083612ca5565b821115612fd0576040516325d16c5160e01b815260040160405180910390fd5b60008211612ff157604051637c946ed760e01b815260040160405180910390fd5b601e546040516323b872dd60e01b81526001600160a01b03909116906323b872dd9061302590329030908790600401614ff5565b6020604051808303816000875af1158015613044573d6000803e3d6000fd5b505050506040513d601f19601f820116820180604052508101906130689190614cbe565b5081600c600082825461307b9190614b75565b909155506000905061308d8385612469565b9050600081116130b057604051637c946ed760e01b815260040160405180910390fd5b836001600160a01b0316856001600160a01b031660008051602061533983398151915285846040516130e39291906145b0565b60405180910390a3949350505050565b600080600260009054906101000a90046001600160a01b03166001600160a01b0316632d6326926040518163ffffffff1660e01b8152600401602060405180830381865afa158015613149573d6000803e3d6000fd5b505050506040513d601f19601f8201168201806040525081019061316d9190614b23565b905060004282111561321f5764e8d4a510006019544261318d9190614b96565b600260009054906101000a90046001600160a01b03166001600160a01b0316635141eebb6040518163ffffffff1660e01b8152600401602060405180830381865afa1580156131e0573d6000803e3d6000fd5b505050506040513d601f19601f820116820180604052508101906132049190614b23565b61320e9190614bfc565b6132189190614c31565b9050610f33565b8115610f3357503060009081526007602052604090205492915050565b601554600090600160a01b900460ff16151560010361326e57604051630f3c386760e01b815260040160405180910390fd5b600061327b8360016120fe565b90506000811161329e57604051637c946ed760e01b815260040160405180910390fd5b6132a784612ca5565b8111156132c7576040516325d16c5160e01b815260040160405180910390fd5b601e546040516323b872dd60e01b81526001600160a01b03909116906323b872dd906132fb90889030908690600401614ff5565b6020604051808303816000875af115801561331a573d6000803e3d6000fd5b505050506040513d601f19601f8201168201806040525081019061333e9190614cbe565b5080600c60008282546133519190614b75565b90915550613361905083856125d5565b836001600160a01b0316856001600160a01b031660008051602061533983398151915283866040516130e39291906145b0565b6000613432836001600160a01b0316630a28a477846040518263ffffffff1660e01b81526004016133c5919061417d565b602060405180830381865afa1580156133e2573d6000803e3d6000fd5b505050506040513d601f19601f820116820180604052508101906134069190614b23565b6040516370a0823160e01b81526001600160a01b038616906370a08231906110fc903090600401614169565b604051635d043b2960e11b81529091506001600160a01b0384169063ba0876529061346590849030908190600401615129565b6020604051808303816000875af1158015613484573d6000803e3d6000fd5b505050506040513d601f19601f8201168201806040525081019061180a9190614b23565b6001600160a01b03831615806134c557506001600160a01b038216155b156134e35760405163d92e233d60e01b815260040160405180910390fd5b60405163a9059cbb60e01b81526001600160a01b0384169063a9059cbb906135119085908590600401614b88565b6020604051808303816000875af1158015613530573d6000803e3d6000fd5b505050506040513d601f19601f820116820180604052508101906135549190614cbe565b6115705760405162461bcd60e51b81526004016115eb90615043565b6001600160a01b0384166135975760405163d92e233d60e01b815260040160405180910390fd5b6127108111156135ba57604051631a7ed0a160e31b815260040160405180910390fd5b600082116135db57604051637c946ed760e01b815260040160405180910390fd5b6001600160a01b03831660009081526007602052604090205482111561180a57604051633999656760e01b815260040160405180910390fd5b826001600160a01b0316826001600160a01b03161461157057611570838383612685565b60008060006040518060c00160405280868152602001600c548152602001600b54815260200160008152602001601e60009054906101000a90046001600160a01b03166001600160a01b03166370a08231306040518263ffffffff1660e01b81526004016136a69190614169565b602060405180830381865afa1580156136c3573d6000803e3d6000fd5b505050506040513d601f19601f820116820180604052508101906136e79190614b23565b8152600060209182015281015181519192501015613ead57606060008551600014158015613787575060008054906101000a90046001600160a01b03166001600160a01b031663bbe4eb496040518163ffffffff1660e01b8152600401602060405180830381865afa158015613761573d6000803e3d6000fd5b505050506040513d601f19601f820116820180604052508101906137859190614cbe565b155b1561379757505083518490613807565b60008054604080516329f3cef560e01b815290516001600160a01b03909216926329f3cef5926004808401938290030181865afa1580156137dc573d6000803e3d6000fd5b505050506040513d6000823e601f3d908101601f1916820160405261380491908101906151d1565b91505b602083015183516138189190614b96565b606084015260005b8251811015613e7b57600083828151811061383d5761383d615113565b6020908102919091010151600080546040516339ebf82360e01b815292935090916001600160a01b03909116906339ebf8239061387e908590600401614169565b608060405180830381865afa15801561389b573d6000803e3d6000fd5b505050506040513d601f19601f820116820180604052508101906138bf9190614c45565b5050509050806000036138e557604051630631bc2160e51b815260040160405180910390fd5b600080546040516339ebf82360e01b81526001600160a01b03909116906339ebf82390613916908690600401614169565b608060405180830381865afa158015613933573d6000803e3d6000fd5b505050506040513d601f19601f820116820180604052508101906139579190614c45565b5092505050600061396c886060015183612377565b90506000846001600160a01b03166307a2d13a866001600160a01b031663d905777e306040518263ffffffff1660e01b81526004016139ab9190614169565b602060405180830381865afa1580156139c8573d6000803e3d6000fd5b505050506040513d601f19601f820116820180604052508101906139ec9190614b23565b6040518263ffffffff1660e01b8152600401613a08919061417d565b602060405180830381865afa158015613a25573d6000803e3d6000fd5b505050506040513d601f19601f82011682018060405250810190613a499190614b23565b90506000613a578684612d7d565b90508015613ba957613a698184614b96565b821015613aa3576000613a7c8285614b96565b905080613a898484614bfc565b613a939190614c31565b9150613a9f8284614b75565b9350505b613aad8184614b96565b9250808a600001818151613ac19190614b96565b90525060608a018051829190613ad8908390614b96565b90525060408a018051829190613aef908390614b96565b90525081158015613b005750600081115b15613ba9576000613b118286614b96565b600054604051631bb212a560e11b81529192506001600160a01b031690633764254a90613b44908a908590600401614b88565b600060405180830381600087803b158015613b5e57600080fd5b505af1158015613b72573d6000803e3d6000fd5b50505050866001600160a01b03166000805160206153598339815191528683604051613b9f9291906145b0565b60405180910390a2505b613bb38383612377565b925082600003613bc857505050505050613e69565b613bd28684613394565b601e546040516370a0823160e01b81526000916001600160a01b0316906370a0823190613c03903090600401614169565b602060405180830381865afa158015613c20573d6000803e3d6000fd5b505050506040513d601f19601f82011682018060405250810190613c449190614b23565b905060008b6080015182613c589190614b96565b9050600085821115613c8f5786821115613c7457869550613ca4565b613c7e8683614b96565b613c889087614b75565b9550613ca4565b85821015613ca457613ca18287614b96565b90505b600081878f60200151613cb79190614b75565b613cc19190614b96565b11613cd257600060208e0152613cf1565b613cdc8187614b96565b8d602001818151613ced9190614b75565b9052505b8c51600090613d01908390614b96565b11613d0f5760008d52613d25565b808d600001818151613d219190614b96565b9052505b6000868e60400151613d379190614b96565b11613d4857600060408e0152613d5e565b858d604001818151613d5a9190614b96565b9052505b6000613d6a8588614b75565b881015613d7957506000613d90565b613d838588614b75565b613d8d9089614b96565b90505b600054604051631bb212a560e11b81526001600160a01b0390911690633764254a90613dc2908d908590600401614b88565b600060405180830381600087803b158015613ddc57600080fd5b505af1158015613df0573d6000803e3d6000fd5b50505050896001600160a01b03166000805160206153598339815191528983604051613e1d9291906145b0565b60405180910390a260208e01518e5111613e405750505050505050505050613e7b565b60808e0184905260608e018051889190613e5b908390614b96565b905250505050505050505050505b80613e7381614f6d565b915050613820565b50825160208401511015613ea2576040516396d8043360e01b815260040160405180910390fd5b50506040810151600b555b8051602090910151909590945092505050565b8284118015613ed0575061271081105b15613f1557612710613ee28286614bfc565b613eec9190614c31565b613ef68486614b96565b1115613f15576040516307f65e3960e11b815260040160405180910390fd5b613f1f858761251e565b613f298383614b96565b600c55601e54613f43906001600160a01b031688856134a8565b50505050505050565b613f568282611977565b6115fe57613f6381613fa5565b613f6e836020613fb7565b604051602001613f7f92919061522d565b60408051601f198184030181529082905262461bcd60e51b82526115eb91600401614403565b6060610f336001600160a01b03831660145b60606000613fc6836002614bfc565b613fd1906002614b75565b6001600160401b03811115613fe857613fe8614213565b6040519080825280601f01601f191660200182016040528015614012576020820181803683370190505b509050600360fc1b8160008151811061402d5761402d615113565b60200101906001600160f81b031916908160001a905350600f60fb1b8160018151811061405c5761405c615113565b60200101906001600160f81b031916908160001a9053506000614080846002614bfc565b61408b906001614b75565b90505b6001811115614103576f181899199a1a9b1b9c1cb0b131b232b360811b85600f16601081106140bf576140bf615113565b1a60f81b8282815181106140d5576140d5615113565b60200101906001600160f81b031916908160001a90535060049490941c936140fc8161527f565b905061408e565b50831561101f5760405162461bcd60e51b81526004016115eb906152c8565b60405180606001604052806000815260200160008152602001600081525090565b6001600160a01b031690565b6000610f3382614143565b6141638161414f565b82525050565b60208101610f33828461415a565b80614163565b60208101610f338284614177565b6001600160e01b031981165b811461207e57600080fd5b8035610f338161418b565b6000602082840312156141c2576141c2600080fd5b600061151584846141a2565b801515614163565b60208101610f3382846141ce565b80614197565b8035610f33816141e4565b6141978161414f565b8035610f33816141f5565b601f01601f191690565b634e487b7160e01b600052604160045260246000fd5b61423282614209565b81018181106001600160401b038211171561424f5761424f614213565b6040525050565b600061426160405190565b905061426d8282614229565b919050565b60006001600160401b0382111561428b5761428b614213565b5060209081020190565b60006142a86142a384614272565b614256565b838152905060208082019084028301858111156142c7576142c7600080fd5b835b818110156142eb57806142dc88826141fe565b845250602092830192016142c9565b5050509392505050565b600082601f83011261430957614309600080fd5b8135611515848260208601614295565b600080600080600060a0868803121561433457614334600080fd5b600061434088886141ea565b9550506020614351888289016141fe565b9450506040614362888289016141fe565b9350506060614373888289016141ea565b92505060808601356001600160401b0381111561439257614392600080fd5b61439e888289016142f5565b9150509295509295909350565b60005b838110156143c65781810151838201526020016143ae565b50506000910152565b60006143d9825190565b8084526020840193506143f08185602086016143ab565b6143f981614209565b9093019392505050565b6020808252810161101f81846143cf565b60006020828403121561442957614429600080fd5b600061151584846141ea565b6000806040838503121561444b5761444b600080fd5b600061445785856141fe565b9250506020614468858286016141ea565b9150509250929050565b60006060828403121561448757614487600080fd5b6144916060614256565b9050600061449f84846141ea565b82525060206144b0848483016141ea565b60208301525060406144c4848285016141ea565b60408301525092915050565b6000608082840312156144e5576144e5600080fd5b6144ef6080614256565b905060006144fd84846141ea565b825250602061450e848483016141ea565b6020830152506040614522848285016141ea565b6040830152506060614536848285016141fe565b60608301525092915050565b6000806000806000610140868803121561455e5761455e600080fd5b600061456a8888614472565b955050606061457b888289016144d0565b94505060e061458c888289016141ea565b93505061010061459e888289016141ea565b92505061012061439e888289016141fe565b604081016145be8285614177565b61101f6020830184614177565b6000806000606084860312156145e3576145e3600080fd5b60006145ef86866141ea565b9350506020614600868287016141ea565b9250506040614611868287016141ea565b9150509250925092565b8051606083019061462c8482614177565b50602082015161463f6020850182614177565b50604082015161180a6040850182614177565b60608101610f33828461461b565b60008060006060848603121561467857614678600080fd5b600061468486866141fe565b9350506020614600868287016141fe565b60ff8116614163565b60208101610f338284614695565b600080604083850312156146c2576146c2600080fd5b60006146ce85856141ea565b9250506020614468858286016141fe565b6000806000606084860312156146f7576146f7600080fd5b600061470386866141fe565b9350506020614714868287016141ea565b92505060408401356001600160401b0381111561473357614733600080fd5b614611868287016142f5565b60006020828403121561475457614754600080fd5b600061151584846141fe565b6080810161476e8287614177565b61477b6020830186614177565b6147886040830185614177565b610f6e6060830184614177565b600080604083850312156147ab576147ab600080fd5b600061445785856141ea565b600080600080608085870312156147d0576147d0600080fd5b60006147dc87876141fe565b94505060206147ed878288016141fe565b93505060406147fe878288016141fe565b925050606061480f878288016141ea565b91505092959194509250565b6000610f3361482f61482c84614143565b90565b614143565b6000610f338261481b565b6000610f3382614834565b6141638161483f565b60208101610f33828461484a565b6002811061207e57600080fd5b8035610f3381614861565b6000806040838503121561488f5761488f600080fd5b600061489b85856141ea565b92505060206144688582860161486e565b60ff8116614197565b8035610f33816148ac565b60006001600160401b038211156148d9576148d9614213565b6148e282614209565b60200192915050565b82818337506000910152565b60006149056142a3846148c0565b90508281526020810184848401111561492057614920600080fd5b61492b8482856148eb565b509392505050565b600082601f83011261494757614947600080fd5b81356115158482602086016148f7565b60008060008060008060c0878903121561497357614973600080fd5b600061497f89896141fe565b965050602061499089828a016141fe565b95505060406149a189828a016141fe565b94505060606149b289828a016148b5565b93505060808701356001600160401b038111156149d1576149d1600080fd5b6149dd89828a01614933565b92505060a08701356001600160401b038111156149fc576149fc600080fd5b614a0889828a01614933565b9150509295509295509295565b600080600080600080600060e0888a031215614a3357614a33600080fd5b6000614a3f8a8a6141fe565b9750506020614a508a828b016141fe565b9650506040614a618a828b016141ea565b9550506060614a728a828b016141ea565b9450506080614a838a828b016148b5565b93505060a0614a948a828b016141ea565b92505060c0614aa58a828b016141ea565b91505092959891949750929550565b60008060408385031215614aca57614aca600080fd5b60006146ce85856141fe565b634e487b7160e01b600052602260045260246000fd5b600281046001821680614b0057607f821691505b602082108103614b1257614b12614ad6565b50919050565b8051610f33816141e4565b600060208284031215614b3857614b38600080fd5b60006115158484614b18565b60408101614b52828561415a565b61101f602083018461415a565b634e487b7160e01b600052601160045260246000fd5b80820180821115610f3357610f33614b5f565b604081016145be828561415a565b81810381811115610f3357610f33614b5f565b60208082528101610f3381602f81527f416363657373436f6e74726f6c3a2063616e206f6e6c792072656e6f756e636560208201526e103937b632b9903337b91039b2b63360891b604082015260600190565b6000816000190483118215151615614c1657614c16614b5f565b500290565b634e487b7160e01b600052601260045260246000fd5b600082614c4057614c40614c1b565b500490565b60008060008060808587031215614c5e57614c5e600080fd5b6000614c6a8787614b18565b9450506020614c7b87828801614b18565b9350506040614c8c87828801614b18565b925050606061480f87828801614b18565b60408101614b528285614177565b801515614197565b8051610f3381614cab565b600060208284031215614cd357614cd3600080fd5b60006115158484614cb3565b600f81526000602082016e185c1c1c9bdd985b0819985a5b1959608a1b815291505b5060200190565b60208082528101610f3381614cdf565b6013815260006020820172185b1c9958591e481a5b9a5d1a585b1a5e9959606a1b81529150614d01565b60208082528101610f3381614d18565b6000610f3361482c8381565b614d6783614d52565b81546008840282811b60001990911b908116901990911617825550505050565b6000611570818484614d5e565b818110156115fe57614da7600082614d87565b600101614d94565b601f821115611570576000818152602090206020601f85010481016020851015614dd65750805b6126e06020601f860104830182614d94565b6000196008929092029190911c191690565b6000614e068383614de8565b600290930290921792915050565b81516001600160401b03811115614e2d57614e2d614213565b614e378254614aec565b614e42828285614daf565b6020601f831160018114614e705760008415614e5e5750858201515b614e688582614dfa565b865550614eca565b600085815260208120601f198616915b82811015614ea05788850151825560209485019460019092019101614e80565b86831015614ebd5784890151614eb9601f891682614de8565b8355505b6001600288020188555050505b505050505050565b60c08101614ee08289614177565b614eed602083018861415a565b614efa604083018761415a565b614f076060830186614177565b614f146080830185614177565b611f3160a0830184614177565b61190160f01b81526002016000614f388285614177565b602082019150614f488284614177565b5060200192915050565b60808101614f608287614177565b61477b6020830186614695565b60006000198203614f8057614f80614b5f565b5060010190565b601f81526000602082017f5265656e7472616e637947756172643a207265656e7472616e742063616c6c0081529150614d01565b60208082528101610f3381614f87565b634e487b7160e01b600052602160045260246000fd5b600082614ff057614ff0614c1b565b500690565b60608101615003828661415a565b615010602083018561415a565b6115156040830184614177565b600f81526000602082016e1d1c985b9cd9995c8819985a5b1959608a1b81529150614d01565b60208082528101610f338161501d565b600f81526000602082016e0c2dadeeadce840e8dede40d0d2ced608b1b81529150614d01565b60208082528101610f3381615053565b6000615095838361415a565b505060200190565b60006150a7825190565b80845260209384019383018060005b838110156150db5781516150ca8882615089565b9750602083019250506001016150b6565b509495945050505050565b606081016150f4828661415a565b6151016020830185614177565b8181036040830152610f6e818461509d565b634e487b7160e01b600052603260045260246000fd5b606081016151378286614177565b615144602083018561415a565b611515604083018461415a565b8051610f33816141f5565b600061516a6142a384614272565b8381529050602080820190840283018581111561518957615189600080fd5b835b818110156142eb578061519e8882615151565b8452506020928301920161518b565b600082601f8301126151c1576151c1600080fd5b815161151584826020860161515c565b6000602082840312156151e6576151e6600080fd5b81516001600160401b038111156151ff576151ff600080fd5b611515848285016151ad565b6000615215825190565b6152238185602086016143ab565b9290920192915050565b76020b1b1b2b9b9a1b7b73a3937b61d1030b1b1b7bab73a1604d1b81526017016000615259828561520b565b7001034b99036b4b9b9b4b733903937b6329607d1b81526011019150611515828461520b565b60008161528e5761528e614b5f565b506000190190565b60208082527f537472696e67733a20686578206c656e67746820696e73756666696369656e7491019081526000614d01565b60208082528101610f338161529656feddf252ad1be2c89b69c2b068fc378daa952ba7f163c4a11628f55a4df523b3ef6e71edae12b1b97f4d1f60370fef10105fa2faae0126114a169c64845d6126c98c5be1e5ebec7d5bd14f71427d1e84f3dd0314c0f7b2291e5b200ac8c7c3b925dcbc1c05240f31ff3ad067ef1ee35ce4997762752e3a095284754544f4c709d75e2b8821ad6e0e26207e0cb4d242d07eeb1cbb1cfd853e645bdcd27cc5484f95a264697066735822122055d6166ecb1b54ff722972201fa1656f27c711fa88b1438aefd0cca35c73398364736f6c63430008100033",
  "devdoc": {
    "kind": "dev",
    "methods": {
      "allowance(address,address)": {
        "details": "Returns the remaining number of tokens that `spender` will be allowed to spend on behalf of `owner` through {transferFrom}. This is zero by default. This value changes when {approve} or {transferFrom} are called."
      },
      "approve(address,uint256)": {
        "details": "Sets `amount` as the allowance of `spender` over the caller's tokens. Returns a boolean value indicating whether the operation succeeded. IMPORTANT: Beware that changing an allowance with this method brings the risk that someone may use both the old and the new allowance by unfortunate transaction ordering. One possible solution to mitigate this race condition is to first reduce the spender's allowance to 0 and set the desired value afterwards: https://github.com/ethereum/EIPs/issues/20#issuecomment-263524729 Emits an {Approval} event."
      },
      "asset()": {
        "details": "Returns the address of the underlying token used for the Vault for accounting, depositing, and withdrawing. - MUST be an ERC-20 token contract. - MUST NOT revert."
      },
      "convertToAssets(uint256)": {
        "details": "Returns the amount of assets that the Vault would exchange for the amount of shares provided, in an ideal scenario where all the conditions are met. - MUST NOT be inclusive of any fees that are charged against assets in the Vault. - MUST NOT show any variations depending on the caller. - MUST NOT reflect slippage or other on-chain conditions, when performing the actual exchange. - MUST NOT revert. NOTE: This calculation MAY NOT reflect the per-user price-per-share, and instead should reflect the average-users price-per-share, meaning what the average user should expect to see when exchanging to and from."
      },
      "convertToShares(uint256)": {
        "details": "Returns the amount of shares that the Vault would exchange for the amount of assets provided, in an ideal scenario where all the conditions are met. - MUST NOT be inclusive of any fees that are charged against assets in the Vault. - MUST NOT show any variations depending on the caller. - MUST NOT reflect slippage or other on-chain conditions, when performing the actual exchange. - MUST NOT revert. NOTE: This calculation MAY NOT reflect the per-user price-per-share, and instead should reflect the average-users price-per-share, meaning what the average user should expect to see when exchanging to and from."
      },
      "decimals()": {
        "details": "Returns the decimals places of the token."
      },
      "deposit(uint256,address)": {
        "details": "Mints shares Vault shares to receiver by depositing exactly amount of underlying tokens. - MUST emit the Deposit event. - MAY support an additional flow in which the underlying tokens are owned by the Vault contract before the   deposit execution, and are accounted for during deposit. - MUST revert if all of assets cannot be deposited (due to deposit limit being reached, slippage, the user not   approving enough underlying tokens to the Vault contract, etc). NOTE: most implementations will require pre-approval of the Vault with the Vaults underlying asset token."
      },
      "getRoleAdmin(bytes32)": {
        "details": "Returns the admin role that controls `role`. See {grantRole} and {revokeRole}. To change a role's admin, use {_setRoleAdmin}."
      },
      "grantRole(bytes32,address)": {
        "details": "Grants `role` to `account`. If `account` had not been already granted `role`, emits a {RoleGranted} event. Requirements: - the caller must have ``role``'s admin role. May emit a {RoleGranted} event."
      },
      "hasRole(bytes32,address)": {
        "details": "Returns `true` if `account` has been granted `role`."
      },
      "maxDeposit(address)": {
        "details": "Returns the maximum amount of the underlying asset that can be deposited into the Vault for the receiver, through a deposit call. - MUST return a limited value if receiver is subject to some deposit limit. - MUST return 2 ** 256 - 1 if there is no limit on the maximum amount of assets that may be deposited. - MUST NOT revert."
      },
      "maxMint(address)": {
        "details": "Returns the maximum amount of the Vault shares that can be minted for the receiver, through a mint call. - MUST return a limited value if receiver is subject to some mint limit. - MUST return 2 ** 256 - 1 if there is no limit on the maximum amount of shares that may be minted. - MUST NOT revert."
      },
      "mint(uint256,address)": {
        "details": "Mints exactly shares Vault shares to receiver by depositing amount of underlying tokens. - MUST emit the Deposit event. - MAY support an additional flow in which the underlying tokens are owned by the Vault contract before the mint   execution, and are accounted for during mint. - MUST revert if all of shares cannot be minted (due to deposit limit being reached, slippage, the user not   approving enough underlying tokens to the Vault contract, etc). NOTE: most implementations will require pre-approval of the Vault with the Vaults underlying asset token."
      },
      "previewDeposit(uint256)": {
        "details": "Allows an on-chain or off-chain user to simulate the effects of their deposit at the current block, given current on-chain conditions. - MUST return as close to and no more than the exact amount of Vault shares that would be minted in a deposit   call in the same transaction. I.e. deposit should return the same or more shares as previewDeposit if called   in the same transaction. - MUST NOT account for deposit limits like those returned from maxDeposit and should always act as though the   deposit would be accepted, regardless if the user has enough tokens approved, etc. - MUST be inclusive of deposit fees. Integrators should be aware of the existence of deposit fees. - MUST NOT revert. NOTE: any unfavorable discrepancy between convertToShares and previewDeposit SHOULD be considered slippage in share price or some other type of condition, meaning the depositor will lose assets by depositing."
      },
      "previewMint(uint256)": {
        "details": "Allows an on-chain or off-chain user to simulate the effects of their mint at the current block, given current on-chain conditions. - MUST return as close to and no fewer than the exact amount of assets that would be deposited in a mint call   in the same transaction. I.e. mint should return the same or fewer assets as previewMint if called in the   same transaction. - MUST NOT account for mint limits like those returned from maxMint and should always act as though the mint   would be accepted, regardless if the user has enough tokens approved, etc. - MUST be inclusive of deposit fees. Integrators should be aware of the existence of deposit fees. - MUST NOT revert. NOTE: any unfavorable discrepancy between convertToAssets and previewMint SHOULD be considered slippage in share price or some other type of condition, meaning the depositor will lose assets by minting."
      },
      "previewRedeem(uint256)": {
        "details": "Allows an on-chain or off-chain user to simulate the effects of their redeemption at the current block, given current on-chain conditions. - MUST return as close to and no more than the exact amount of assets that would be withdrawn in a redeem call   in the same transaction. I.e. redeem should return the same or more assets as previewRedeem if called in the   same transaction. - MUST NOT account for redemption limits like those returned from maxRedeem and should always act as though the   redemption would be accepted, regardless if the user has enough shares, etc. - MUST be inclusive of withdrawal fees. Integrators should be aware of the existence of withdrawal fees. - MUST NOT revert. NOTE: any unfavorable discrepancy between convertToAssets and previewRedeem SHOULD be considered slippage in share price or some other type of condition, meaning the depositor will lose assets by redeeming."
      },
      "previewWithdraw(uint256)": {
        "details": "Allows an on-chain or off-chain user to simulate the effects of their withdrawal at the current block, given current on-chain conditions. - MUST return as close to and no fewer than the exact amount of Vault shares that would be burned in a withdraw   call in the same transaction. I.e. withdraw should return the same or fewer shares as previewWithdraw if   called   in the same transaction. - MUST NOT account for withdrawal limits like those returned from maxWithdraw and should always act as though   the withdrawal would be accepted, regardless if the user has enough shares, etc. - MUST be inclusive of withdrawal fees. Integrators should be aware of the existence of withdrawal fees. - MUST NOT revert. NOTE: any unfavorable discrepancy between convertToShares and previewWithdraw SHOULD be considered slippage in share price or some other type of condition, meaning the depositor will lose assets by depositing."
      },
      "renounceRole(bytes32,address)": {
        "details": "Revokes `role` from the calling account. Roles are often managed via {grantRole} and {revokeRole}: this function's purpose is to provide a mechanism for accounts to lose their privileges if they are compromised (such as when a trusted device is misplaced). If the calling account had been revoked `role`, emits a {RoleRevoked} event. Requirements: - the caller must be `account`. May emit a {RoleRevoked} event."
      },
      "revokeRole(bytes32,address)": {
        "details": "Revokes `role` from `account`. If `account` had been granted `role`, emits a {RoleRevoked} event. Requirements: - the caller must have ``role``'s admin role. May emit a {RoleRevoked} event."
      },
      "supportsInterface(bytes4)": {
        "details": "See {IERC165-supportsInterface}."
      },
      "totalAssets()": {
        "details": "Returns the total amount of the underlying asset that is managed by Vault. - SHOULD include any compounding that occurs from yield. - MUST be inclusive of any fees that are charged against assets in the Vault. - MUST NOT revert."
      },
      "totalSupply()": {
        "details": "Returns the amount of tokens in existence."
      }
    },
    "stateVariables": {
      "name": {
        "details": "Returns the name of the token."
      },
      "symbol": {
        "details": "Returns the symbol of the token."
      }
    },
    "title": "STRATEGY MANAGEMENT",
    "version": 1
  },
  "userdoc": {
    "kind": "user",
    "methods": {},
    "version": 1
  },
  "storageLayout": {
    "storage": [
      {
        "astId": 10617,
        "contract": "contracts/Packages/SharesManagerPackage.sol:SharesManagerPackage",
        "label": "strategyManager",
        "offset": 0,
        "slot": "0",
        "type": "t_address"
      },
      {
        "astId": 10619,
        "contract": "contracts/Packages/SharesManagerPackage.sol:SharesManagerPackage",
        "label": "sharesManager",
        "offset": 0,
        "slot": "1",
        "type": "t_address"
      },
      {
        "astId": 10621,
        "contract": "contracts/Packages/SharesManagerPackage.sol:SharesManagerPackage",
        "label": "setters",
        "offset": 0,
        "slot": "2",
        "type": "t_address"
      },
      {
        "astId": 10623,
        "contract": "contracts/Packages/SharesManagerPackage.sol:SharesManagerPackage",
        "label": "governance",
        "offset": 0,
        "slot": "3",
        "type": "t_address"
      },
      {
        "astId": 10628,
        "contract": "contracts/Packages/SharesManagerPackage.sol:SharesManagerPackage",
        "label": "strategies",
        "offset": 0,
        "slot": "4",
        "type": "t_mapping(t_address,t_struct(StrategyParams)10790_storage)"
      },
      {
        "astId": 10631,
        "contract": "contracts/Packages/SharesManagerPackage.sol:SharesManagerPackage",
        "label": "defaultQueue",
        "offset": 0,
        "slot": "5",
        "type": "t_array(t_address)dyn_storage"
      },
      {
        "astId": 10633,
        "contract": "contracts/Packages/SharesManagerPackage.sol:SharesManagerPackage",
        "label": "useDefaultQueue",
        "offset": 0,
        "slot": "6",
        "type": "t_bool"
      },
      {
        "astId": 10635,
        "contract": "contracts/Packages/SharesManagerPackage.sol:SharesManagerPackage",
        "label": "initialized",
        "offset": 1,
        "slot": "6",
        "type": "t_bool"
      },
      {
        "astId": 10639,
        "contract": "contracts/Packages/SharesManagerPackage.sol:SharesManagerPackage",
        "label": "_balanceOf",
        "offset": 0,
        "slot": "7",
        "type": "t_mapping(t_address,t_uint256)"
      },
      {
        "astId": 10645,
        "contract": "contracts/Packages/SharesManagerPackage.sol:SharesManagerPackage",
        "label": "_allowance",
        "offset": 0,
        "slot": "8",
        "type": "t_mapping(t_address,t_mapping(t_address,t_uint256))"
      },
      {
        "astId": 10649,
        "contract": "contracts/Packages/SharesManagerPackage.sol:SharesManagerPackage",
        "label": "implementations",
        "offset": 0,
        "slot": "9",
        "type": "t_mapping(t_bytes4,t_address)"
      },
      {
        "astId": 10651,
        "contract": "contracts/Packages/SharesManagerPackage.sol:SharesManagerPackage",
        "label": "totalSupplyAmount",
        "offset": 0,
        "slot": "10",
        "type": "t_uint256"
      },
      {
        "astId": 10653,
        "contract": "contracts/Packages/SharesManagerPackage.sol:SharesManagerPackage",
        "label": "totalDebtAmount",
        "offset": 0,
        "slot": "11",
        "type": "t_uint256"
      },
      {
        "astId": 10655,
        "contract": "contracts/Packages/SharesManagerPackage.sol:SharesManagerPackage",
        "label": "totalIdleAmount",
        "offset": 0,
        "slot": "12",
        "type": "t_uint256"
      },
      {
        "astId": 10657,
        "contract": "contracts/Packages/SharesManagerPackage.sol:SharesManagerPackage",
        "label": "minimumTotalIdle",
        "offset": 0,
        "slot": "13",
        "type": "t_uint256"
      },
      {
        "astId": 10659,
        "contract": "contracts/Packages/SharesManagerPackage.sol:SharesManagerPackage",
        "label": "depositLimit",
        "offset": 0,
        "slot": "14",
        "type": "t_uint256"
      },
      {
        "astId": 10661,
        "contract": "contracts/Packages/SharesManagerPackage.sol:SharesManagerPackage",
        "label": "accountant",
        "offset": 0,
        "slot": "15",
        "type": "t_address"
      },
      {
        "astId": 10663,
        "contract": "contracts/Packages/SharesManagerPackage.sol:SharesManagerPackage",
        "label": "depositLimitModule",
        "offset": 0,
        "slot": "16",
        "type": "t_address"
      },
      {
        "astId": 10665,
        "contract": "contracts/Packages/SharesManagerPackage.sol:SharesManagerPackage",
        "label": "withdrawLimitModule",
        "offset": 0,
        "slot": "17",
        "type": "t_address"
      },
      {
        "astId": 10669,
        "contract": "contracts/Packages/SharesManagerPackage.sol:SharesManagerPackage",
        "label": "roles",
        "offset": 0,
        "slot": "18",
        "type": "t_mapping(t_address,t_bytes32)"
      },
      {
        "astId": 10673,
        "contract": "contracts/Packages/SharesManagerPackage.sol:SharesManagerPackage",
        "label": "openRoles",
        "offset": 0,
        "slot": "19",
        "type": "t_mapping(t_bytes32,t_bool)"
      },
      {
        "astId": 10675,
        "contract": "contracts/Packages/SharesManagerPackage.sol:SharesManagerPackage",
        "label": "roleManager",
        "offset": 0,
        "slot": "20",
        "type": "t_address"
      },
      {
        "astId": 10677,
        "contract": "contracts/Packages/SharesManagerPackage.sol:SharesManagerPackage",
        "label": "futureRoleManager",
        "offset": 0,
        "slot": "21",
        "type": "t_address"
      },
      {
        "astId": 10679,
        "contract": "contracts/Packages/SharesManagerPackage.sol:SharesManagerPackage",
        "label": "shutdown",
        "offset": 20,
        "slot": "21",
        "type": "t_bool"
      },
      {
        "astId": 10681,
        "contract": "contracts/Packages/SharesManagerPackage.sol:SharesManagerPackage",
        "label": "profitMaxUnlockTime",
        "offset": 0,
        "slot": "22",
        "type": "t_uint256"
      },
      {
        "astId": 10683,
        "contract": "contracts/Packages/SharesManagerPackage.sol:SharesManagerPackage",
        "label": "fullProfitUnlockDate",
        "offset": 0,
        "slot": "23",
        "type": "t_uint256"
      },
      {
        "astId": 10685,
        "contract": "contracts/Packages/SharesManagerPackage.sol:SharesManagerPackage",
        "label": "profitUnlockingRate",
        "offset": 0,
        "slot": "24",
        "type": "t_uint256"
      },
      {
        "astId": 10687,
        "contract": "contracts/Packages/SharesManagerPackage.sol:SharesManagerPackage",
        "label": "lastProfitUpdate",
        "offset": 0,
        "slot": "25",
        "type": "t_uint256"
      },
      {
        "astId": 10691,
        "contract": "contracts/Packages/SharesManagerPackage.sol:SharesManagerPackage",
        "label": "nonces",
        "offset": 0,
        "slot": "26",
        "type": "t_mapping(t_address,t_uint256)"
      },
      {
        "astId": 10698,
        "contract": "contracts/Packages/SharesManagerPackage.sol:SharesManagerPackage",
        "label": "DOMAIN_SEPARATOR",
        "offset": 0,
        "slot": "27",
        "type": "t_bytes32"
      },
      {
        "astId": 796,
        "contract": "contracts/Packages/SharesManagerPackage.sol:SharesManagerPackage",
        "label": "_status",
        "offset": 0,
        "slot": "28",
        "type": "t_uint256"
      },
      {
        "astId": 24,
        "contract": "contracts/Packages/SharesManagerPackage.sol:SharesManagerPackage",
        "label": "_roles",
        "offset": 0,
        "slot": "29",
        "type": "t_mapping(t_bytes32,t_struct(RoleData)19_storage)"
      },
      {
        "astId": 5709,
        "contract": "contracts/Packages/SharesManagerPackage.sol:SharesManagerPackage",
        "label": "ASSET",
        "offset": 0,
        "slot": "30",
        "type": "t_contract(IERC20)928"
      },
      {
        "astId": 5711,
        "contract": "contracts/Packages/SharesManagerPackage.sol:SharesManagerPackage",
        "label": "DECIMALS",
        "offset": 20,
        "slot": "30",
        "type": "t_uint8"
      },
      {
        "astId": 5714,
        "contract": "contracts/Packages/SharesManagerPackage.sol:SharesManagerPackage",
        "label": "name",
        "offset": 0,
        "slot": "31",
        "type": "t_string_storage"
      },
      {
        "astId": 5717,
        "contract": "contracts/Packages/SharesManagerPackage.sol:SharesManagerPackage",
        "label": "symbol",
        "offset": 0,
        "slot": "32",
        "type": "t_string_storage"
      }
    ],
    "types": {
      "t_address": {
        "encoding": "inplace",
        "label": "address",
        "numberOfBytes": "20"
      },
      "t_array(t_address)dyn_storage": {
        "base": "t_address",
        "encoding": "dynamic_array",
        "label": "address[]",
        "numberOfBytes": "32"
      },
      "t_bool": {
        "encoding": "inplace",
        "label": "bool",
        "numberOfBytes": "1"
      },
      "t_bytes32": {
        "encoding": "inplace",
        "label": "bytes32",
        "numberOfBytes": "32"
      },
      "t_bytes4": {
        "encoding": "inplace",
        "label": "bytes4",
        "numberOfBytes": "4"
      },
      "t_contract(IERC20)928": {
        "encoding": "inplace",
        "label": "contract IERC20",
        "numberOfBytes": "20"
      },
      "t_mapping(t_address,t_bool)": {
        "encoding": "mapping",
        "key": "t_address",
        "label": "mapping(address => bool)",
        "numberOfBytes": "32",
        "value": "t_bool"
      },
      "t_mapping(t_address,t_bytes32)": {
        "encoding": "mapping",
        "key": "t_address",
        "label": "mapping(address => bytes32)",
        "numberOfBytes": "32",
        "value": "t_bytes32"
      },
      "t_mapping(t_address,t_mapping(t_address,t_uint256))": {
        "encoding": "mapping",
        "key": "t_address",
        "label": "mapping(address => mapping(address => uint256))",
        "numberOfBytes": "32",
        "value": "t_mapping(t_address,t_uint256)"
      },
      "t_mapping(t_address,t_struct(StrategyParams)10790_storage)": {
        "encoding": "mapping",
        "key": "t_address",
        "label": "mapping(address => struct StrategyParams)",
        "numberOfBytes": "32",
        "value": "t_struct(StrategyParams)10790_storage"
      },
      "t_mapping(t_address,t_uint256)": {
        "encoding": "mapping",
        "key": "t_address",
        "label": "mapping(address => uint256)",
        "numberOfBytes": "32",
        "value": "t_uint256"
      },
      "t_mapping(t_bytes32,t_bool)": {
        "encoding": "mapping",
        "key": "t_bytes32",
        "label": "mapping(bytes32 => bool)",
        "numberOfBytes": "32",
        "value": "t_bool"
      },
      "t_mapping(t_bytes32,t_struct(RoleData)19_storage)": {
        "encoding": "mapping",
        "key": "t_bytes32",
        "label": "mapping(bytes32 => struct AccessControl.RoleData)",
        "numberOfBytes": "32",
        "value": "t_struct(RoleData)19_storage"
      },
      "t_mapping(t_bytes4,t_address)": {
        "encoding": "mapping",
        "key": "t_bytes4",
        "label": "mapping(bytes4 => address)",
        "numberOfBytes": "32",
        "value": "t_address"
      },
      "t_string_storage": {
        "encoding": "bytes",
        "label": "string",
        "numberOfBytes": "32"
      },
      "t_struct(RoleData)19_storage": {
        "encoding": "inplace",
        "label": "struct AccessControl.RoleData",
        "members": [
          {
            "astId": 16,
            "contract": "contracts/Packages/SharesManagerPackage.sol:SharesManagerPackage",
            "label": "members",
            "offset": 0,
            "slot": "0",
            "type": "t_mapping(t_address,t_bool)"
          },
          {
            "astId": 18,
            "contract": "contracts/Packages/SharesManagerPackage.sol:SharesManagerPackage",
            "label": "adminRole",
            "offset": 0,
            "slot": "1",
            "type": "t_bytes32"
          }
        ],
        "numberOfBytes": "64"
      },
      "t_struct(StrategyParams)10790_storage": {
        "encoding": "inplace",
        "label": "struct StrategyParams",
        "members": [
          {
            "astId": 10783,
            "contract": "contracts/Packages/SharesManagerPackage.sol:SharesManagerPackage",
            "label": "activation",
            "offset": 0,
            "slot": "0",
            "type": "t_uint256"
          },
          {
            "astId": 10785,
            "contract": "contracts/Packages/SharesManagerPackage.sol:SharesManagerPackage",
            "label": "lastReport",
            "offset": 0,
            "slot": "1",
            "type": "t_uint256"
          },
          {
            "astId": 10787,
            "contract": "contracts/Packages/SharesManagerPackage.sol:SharesManagerPackage",
            "label": "currentDebt",
            "offset": 0,
            "slot": "2",
            "type": "t_uint256"
          },
          {
            "astId": 10789,
            "contract": "contracts/Packages/SharesManagerPackage.sol:SharesManagerPackage",
            "label": "maxDebt",
            "offset": 0,
            "slot": "3",
            "type": "t_uint256"
          }
        ],
        "numberOfBytes": "128"
      },
      "t_uint256": {
        "encoding": "inplace",
        "label": "uint256",
        "numberOfBytes": "32"
      },
      "t_uint8": {
        "encoding": "inplace",
        "label": "uint8",
        "numberOfBytes": "1"
      }
    }
  }
}