{
  "address": "0xcdc41A34DD91AEBc86Cab288a1368021bB2A8D6a",
  "abi": [
    {
      "inputs": [
        {
          "internalType": "address",
          "name": "_asset",
          "type": "address"
        },
        {
          "internalType": "uint8",
          "name": "_decimals",
          "type": "uint8"
        },
        {
          "internalType": "string",
          "name": "_name",
          "type": "string"
        },
        {
          "internalType": "string",
          "name": "_symbol",
          "type": "string"
        }
      ],
      "stateMutability": "nonpayable",
      "type": "constructor"
    },
    {
      "inputs": [],
      "name": "ERC20InsufficientAllowance",
      "type": "error"
    },
    {
      "inputs": [],
      "name": "ERC20PermitExpired",
      "type": "error"
    },
    {
      "inputs": [],
      "name": "ERC20PermitInvalidSignature",
      "type": "error"
    },
    {
      "inputs": [],
      "name": "ExceedDepositLimit",
      "type": "error"
    },
    {
      "inputs": [],
      "name": "InactiveStrategy",
      "type": "error"
    },
    {
      "inputs": [],
      "name": "InsufficientAssets",
      "type": "error"
    },
    {
      "inputs": [],
      "name": "InsufficientFunds",
      "type": "error"
    },
    {
      "inputs": [],
      "name": "InsufficientShares",
      "type": "error"
    },
    {
      "inputs": [],
      "name": "InvalidAssetDecimals",
      "type": "error"
    },
    {
      "inputs": [],
      "name": "MaxLoss",
      "type": "error"
    },
    {
      "inputs": [],
      "name": "StrategyDebtIsLessThanAssetsNeeded",
      "type": "error"
    },
    {
      "inputs": [],
      "name": "StrategyIsShutdown",
      "type": "error"
    },
    {
      "inputs": [],
      "name": "TooMuchLoss",
      "type": "error"
    },
    {
      "inputs": [],
      "name": "UsingModule",
      "type": "error"
    },
    {
      "inputs": [],
      "name": "ZeroAddress",
      "type": "error"
    },
    {
      "inputs": [],
      "name": "ZeroValue",
      "type": "error"
    },
    {
      "anonymous": false,
      "inputs": [
        {
          "indexed": true,
          "internalType": "address",
          "name": "owner",
          "type": "address"
        },
        {
          "indexed": true,
          "internalType": "address",
          "name": "spender",
          "type": "address"
        },
        {
          "indexed": false,
          "internalType": "uint256",
          "name": "value",
          "type": "uint256"
        }
      ],
      "name": "Approval",
      "type": "event"
    },
    {
      "anonymous": false,
      "inputs": [
        {
          "indexed": true,
          "internalType": "address",
          "name": "strategy",
          "type": "address"
        },
        {
          "indexed": false,
          "internalType": "uint256",
          "name": "amount",
          "type": "uint256"
        }
      ],
      "name": "DebtPurchased",
      "type": "event"
    },
    {
      "anonymous": false,
      "inputs": [
        {
          "indexed": true,
          "internalType": "address",
          "name": "strategy",
          "type": "address"
        },
        {
          "indexed": false,
          "internalType": "uint256",
          "name": "currentDebt",
          "type": "uint256"
        },
        {
          "indexed": false,
          "internalType": "uint256",
          "name": "newDebt",
          "type": "uint256"
        }
      ],
      "name": "DebtUpdated",
      "type": "event"
    },
    {
      "anonymous": false,
      "inputs": [
        {
          "indexed": true,
          "internalType": "address",
          "name": "sender",
          "type": "address"
        },
        {
          "indexed": true,
          "internalType": "address",
          "name": "owner",
          "type": "address"
        },
        {
          "indexed": false,
          "internalType": "uint256",
          "name": "assets",
          "type": "uint256"
        },
        {
          "indexed": false,
          "internalType": "uint256",
          "name": "shares",
          "type": "uint256"
        }
      ],
      "name": "Deposit",
      "type": "event"
    },
    {
      "anonymous": false,
      "inputs": [
        {
          "indexed": true,
          "internalType": "bytes32",
          "name": "role",
          "type": "bytes32"
        },
        {
          "indexed": true,
          "internalType": "bytes32",
          "name": "previousAdminRole",
          "type": "bytes32"
        },
        {
          "indexed": true,
          "internalType": "bytes32",
          "name": "newAdminRole",
          "type": "bytes32"
        }
      ],
      "name": "RoleAdminChanged",
      "type": "event"
    },
    {
      "anonymous": false,
      "inputs": [
        {
          "indexed": true,
          "internalType": "bytes32",
          "name": "role",
          "type": "bytes32"
        },
        {
          "indexed": true,
          "internalType": "address",
          "name": "account",
          "type": "address"
        },
        {
          "indexed": true,
          "internalType": "address",
          "name": "sender",
          "type": "address"
        }
      ],
      "name": "RoleGranted",
      "type": "event"
    },
    {
      "anonymous": false,
      "inputs": [
        {
          "indexed": true,
          "internalType": "bytes32",
          "name": "role",
          "type": "bytes32"
        },
        {
          "indexed": true,
          "internalType": "address",
          "name": "account",
          "type": "address"
        },
        {
          "indexed": true,
          "internalType": "address",
          "name": "sender",
          "type": "address"
        }
      ],
      "name": "RoleRevoked",
      "type": "event"
    },
    {
      "anonymous": false,
      "inputs": [
        {
          "indexed": true,
          "internalType": "address",
          "name": "account",
          "type": "address"
        },
        {
          "indexed": false,
          "internalType": "bytes32",
          "name": "role",
          "type": "bytes32"
        }
      ],
      "name": "RoleSet",
      "type": "event"
    },
    {
      "anonymous": false,
      "inputs": [
        {
          "indexed": true,
          "internalType": "bytes32",
          "name": "role",
          "type": "bytes32"
        },
        {
          "indexed": true,
          "internalType": "enum RoleStatusChange",
          "name": "status",
          "type": "uint8"
        }
      ],
      "name": "RoleStatusChanged",
      "type": "event"
    },
    {
      "anonymous": false,
      "inputs": [],
      "name": "Shutdown",
      "type": "event"
    },
    {
      "anonymous": false,
      "inputs": [
        {
          "indexed": true,
          "internalType": "address",
          "name": "strategy",
          "type": "address"
        },
        {
          "indexed": false,
          "internalType": "enum StrategyChangeType",
          "name": "changeType",
          "type": "uint8"
        }
      ],
      "name": "StrategyChanged",
      "type": "event"
    },
    {
      "anonymous": false,
      "inputs": [
        {
          "indexed": true,
          "internalType": "address",
          "name": "strategy",
          "type": "address"
        },
        {
          "indexed": false,
          "internalType": "uint256",
          "name": "gain",
          "type": "uint256"
        },
        {
          "indexed": false,
          "internalType": "uint256",
          "name": "loss",
          "type": "uint256"
        },
        {
          "indexed": false,
          "internalType": "uint256",
          "name": "currentDebt",
          "type": "uint256"
        },
        {
          "indexed": false,
          "internalType": "uint256",
          "name": "protocolFees",
          "type": "uint256"
        },
        {
          "indexed": false,
          "internalType": "uint256",
          "name": "totalFees",
          "type": "uint256"
        },
        {
          "indexed": false,
          "internalType": "uint256",
          "name": "totalRefunds",
          "type": "uint256"
        }
      ],
      "name": "StrategyReported",
      "type": "event"
    },
    {
      "anonymous": false,
      "inputs": [
        {
          "indexed": true,
          "internalType": "address",
          "name": "from",
          "type": "address"
        },
        {
          "indexed": true,
          "internalType": "address",
          "name": "to",
          "type": "address"
        },
        {
          "indexed": false,
          "internalType": "uint256",
          "name": "value",
          "type": "uint256"
        }
      ],
      "name": "Transfer",
      "type": "event"
    },
    {
      "anonymous": false,
      "inputs": [
        {
          "indexed": true,
          "internalType": "address",
          "name": "accountant",
          "type": "address"
        }
      ],
      "name": "UpdateAccountant",
      "type": "event"
    },
    {
      "anonymous": false,
      "inputs": [
        {
          "indexed": false,
          "internalType": "address[]",
          "name": "newDefaultQueue",
          "type": "address[]"
        }
      ],
      "name": "UpdateDefaultQueue",
      "type": "event"
    },
    {
      "anonymous": false,
      "inputs": [
        {
          "indexed": false,
          "internalType": "uint256",
          "name": "depositLimit",
          "type": "uint256"
        }
      ],
      "name": "UpdateDepositLimit",
      "type": "event"
    },
    {
      "anonymous": false,
      "inputs": [
        {
          "indexed": true,
          "internalType": "address",
          "name": "depositLimitModule",
          "type": "address"
        }
      ],
      "name": "UpdateDepositLimitModule",
      "type": "event"
    },
    {
      "anonymous": false,
      "inputs": [
        {
          "indexed": false,
          "internalType": "uint256",
          "name": "minimumTotalIdle",
          "type": "uint256"
        }
      ],
      "name": "UpdateMinimumTotalIdle",
      "type": "event"
    },
    {
      "anonymous": false,
      "inputs": [
        {
          "indexed": false,
          "internalType": "uint256",
          "name": "profitMaxUnlockTime",
          "type": "uint256"
        }
      ],
      "name": "UpdateProfitMaxUnlockTime",
      "type": "event"
    },
    {
      "anonymous": false,
      "inputs": [
        {
          "indexed": true,
          "internalType": "address",
          "name": "roleManager",
          "type": "address"
        }
      ],
      "name": "UpdateRoleManager",
      "type": "event"
    },
    {
      "anonymous": false,
      "inputs": [
        {
          "indexed": false,
          "internalType": "bool",
          "name": "useDefaultQueue",
          "type": "bool"
        }
      ],
      "name": "UpdateUseDefaultQueue",
      "type": "event"
    },
    {
      "anonymous": false,
      "inputs": [
        {
          "indexed": true,
          "internalType": "address",
          "name": "withdrawLimitModule",
          "type": "address"
        }
      ],
      "name": "UpdateWithdrawLimitModule",
      "type": "event"
    },
    {
      "anonymous": false,
      "inputs": [
        {
          "indexed": true,
          "internalType": "address",
          "name": "sender",
          "type": "address"
        },
        {
          "indexed": true,
          "internalType": "address",
          "name": "strategy",
          "type": "address"
        },
        {
          "indexed": false,
          "internalType": "uint256",
          "name": "newDebt",
          "type": "uint256"
        }
      ],
      "name": "UpdatedMaxDebtForStrategy",
      "type": "event"
    },
    {
      "anonymous": false,
      "inputs": [
        {
          "indexed": true,
          "internalType": "address",
          "name": "sender",
          "type": "address"
        },
        {
          "indexed": true,
          "internalType": "address",
          "name": "receiver",
          "type": "address"
        },
        {
          "indexed": true,
          "internalType": "address",
          "name": "owner",
          "type": "address"
        },
        {
          "indexed": false,
          "internalType": "uint256",
          "name": "assets",
          "type": "uint256"
        },
        {
          "indexed": false,
          "internalType": "uint256",
          "name": "shares",
          "type": "uint256"
        }
      ],
      "name": "Withdraw",
      "type": "event"
    },
    {
      "inputs": [],
      "name": "ACCOUNTANT_MANAGER",
      "outputs": [
        {
          "internalType": "bytes32",
          "name": "",
          "type": "bytes32"
        }
      ],
      "stateMutability": "view",
      "type": "function"
    },
    {
      "inputs": [],
      "name": "ADD_STRATEGY_MANAGER",
      "outputs": [
        {
          "internalType": "bytes32",
          "name": "",
          "type": "bytes32"
        }
      ],
      "stateMutability": "view",
      "type": "function"
    },
    {
      "inputs": [],
      "name": "API_VERSION",
      "outputs": [
        {
          "internalType": "string",
          "name": "",
          "type": "string"
        }
      ],
      "stateMutability": "view",
      "type": "function"
    },
    {
      "inputs": [],
      "name": "ASSET",
      "outputs": [
        {
          "internalType": "contract IERC20",
          "name": "",
          "type": "address"
        }
      ],
      "stateMutability": "view",
      "type": "function"
    },
    {
      "inputs": [],
      "name": "DEBT_MANAGER",
      "outputs": [
        {
          "internalType": "bytes32",
          "name": "",
          "type": "bytes32"
        }
      ],
      "stateMutability": "view",
      "type": "function"
    },
    {
      "inputs": [],
      "name": "DEBT_PURCHASER",
      "outputs": [
        {
          "internalType": "bytes32",
          "name": "",
          "type": "bytes32"
        }
      ],
      "stateMutability": "view",
      "type": "function"
    },
    {
      "inputs": [],
      "name": "DECIMALS",
      "outputs": [
        {
          "internalType": "uint8",
          "name": "",
          "type": "uint8"
        }
      ],
      "stateMutability": "view",
      "type": "function"
    },
    {
      "inputs": [],
      "name": "DEFAULT_ADMIN_ROLE",
      "outputs": [
        {
          "internalType": "bytes32",
          "name": "",
          "type": "bytes32"
        }
      ],
      "stateMutability": "view",
      "type": "function"
    },
    {
      "inputs": [],
      "name": "DEPOSIT_LIMIT_MANAGER",
      "outputs": [
        {
          "internalType": "bytes32",
          "name": "",
          "type": "bytes32"
        }
      ],
      "stateMutability": "view",
      "type": "function"
    },
    {
      "inputs": [],
      "name": "DOMAIN_SEPARATOR",
      "outputs": [
        {
          "internalType": "bytes32",
          "name": "",
          "type": "bytes32"
        }
      ],
      "stateMutability": "view",
      "type": "function"
    },
    {
      "inputs": [],
      "name": "DOMAIN_TYPE_HASH",
      "outputs": [
        {
          "internalType": "bytes32",
          "name": "",
          "type": "bytes32"
        }
      ],
      "stateMutability": "view",
      "type": "function"
    },
    {
      "inputs": [],
      "name": "EMERGENCY_MANAGER",
      "outputs": [
        {
          "internalType": "bytes32",
          "name": "",
          "type": "bytes32"
        }
      ],
      "stateMutability": "view",
      "type": "function"
    },
    {
      "inputs": [],
      "name": "FORCE_REVOKE_MANAGER",
      "outputs": [
        {
          "internalType": "bytes32",
          "name": "",
          "type": "bytes32"
        }
      ],
      "stateMutability": "view",
      "type": "function"
    },
    {
      "inputs": [],
      "name": "MAX_BPS",
      "outputs": [
        {
          "internalType": "uint256",
          "name": "",
          "type": "uint256"
        }
      ],
      "stateMutability": "view",
      "type": "function"
    },
    {
      "inputs": [],
      "name": "MAX_BPS_EXTENDED",
      "outputs": [
        {
          "internalType": "uint256",
          "name": "",
          "type": "uint256"
        }
      ],
      "stateMutability": "view",
      "type": "function"
    },
    {
      "inputs": [],
      "name": "MAX_DEBT_MANAGER",
      "outputs": [
        {
          "internalType": "bytes32",
          "name": "",
          "type": "bytes32"
        }
      ],
      "stateMutability": "view",
      "type": "function"
    },
    {
      "inputs": [],
      "name": "MAX_QUEUE",
      "outputs": [
        {
          "internalType": "uint256",
          "name": "",
          "type": "uint256"
        }
      ],
      "stateMutability": "view",
      "type": "function"
    },
    {
      "inputs": [],
      "name": "MINIMUM_IDLE_MANAGER",
      "outputs": [
        {
          "internalType": "bytes32",
          "name": "",
          "type": "bytes32"
        }
      ],
      "stateMutability": "view",
      "type": "function"
    },
    {
      "inputs": [],
      "name": "ONE_YEAR",
      "outputs": [
        {
          "internalType": "uint256",
          "name": "",
          "type": "uint256"
        }
      ],
      "stateMutability": "view",
      "type": "function"
    },
    {
      "inputs": [],
      "name": "PERMIT_TYPE_HASH",
      "outputs": [
        {
          "internalType": "bytes32",
          "name": "",
          "type": "bytes32"
        }
      ],
      "stateMutability": "view",
      "type": "function"
    },
    {
      "inputs": [],
      "name": "PROFIT_UNLOCK_MANAGER",
      "outputs": [
        {
          "internalType": "bytes32",
          "name": "",
          "type": "bytes32"
        }
      ],
      "stateMutability": "view",
      "type": "function"
    },
    {
      "inputs": [],
      "name": "QUEUE_MANAGER",
      "outputs": [
        {
          "internalType": "bytes32",
          "name": "",
          "type": "bytes32"
        }
      ],
      "stateMutability": "view",
      "type": "function"
    },
    {
      "inputs": [],
      "name": "REPORTING_MANAGER",
      "outputs": [
        {
          "internalType": "bytes32",
          "name": "",
          "type": "bytes32"
        }
      ],
      "stateMutability": "view",
      "type": "function"
    },
    {
      "inputs": [],
      "name": "REVOKE_STRATEGY_MANAGER",
      "outputs": [
        {
          "internalType": "bytes32",
          "name": "",
          "type": "bytes32"
        }
      ],
      "stateMutability": "view",
      "type": "function"
    },
    {
      "inputs": [],
      "name": "ROLE_MANAGER",
      "outputs": [
        {
          "internalType": "bytes32",
          "name": "",
          "type": "bytes32"
        }
      ],
      "stateMutability": "view",
      "type": "function"
    },
    {
      "inputs": [],
      "name": "WITHDRAW_LIMIT_MANAGER",
      "outputs": [
        {
          "internalType": "bytes32",
          "name": "",
          "type": "bytes32"
        }
      ],
      "stateMutability": "view",
      "type": "function"
    },
    {
      "inputs": [],
      "name": "accountant",
      "outputs": [
        {
          "internalType": "address",
          "name": "",
          "type": "address"
        }
      ],
      "stateMutability": "view",
      "type": "function"
    },
    {
      "inputs": [
        {
          "internalType": "address",
          "name": "owner",
          "type": "address"
        },
        {
          "internalType": "address",
          "name": "spender",
          "type": "address"
        }
      ],
      "name": "allowance",
      "outputs": [
        {
          "internalType": "uint256",
          "name": "",
          "type": "uint256"
        }
      ],
      "stateMutability": "view",
      "type": "function"
    },
    {
      "inputs": [
        {
          "internalType": "address",
          "name": "spender",
          "type": "address"
        },
        {
          "internalType": "uint256",
          "name": "amount",
          "type": "uint256"
        }
      ],
      "name": "approve",
      "outputs": [
        {
          "internalType": "bool",
          "name": "",
          "type": "bool"
        }
      ],
      "stateMutability": "nonpayable",
      "type": "function"
    },
    {
      "inputs": [
        {
          "internalType": "address",
          "name": "owner",
          "type": "address"
        },
        {
          "internalType": "address",
          "name": "spender",
          "type": "address"
        },
        {
          "internalType": "uint256",
          "name": "amount",
          "type": "uint256"
        }
      ],
      "name": "approve",
      "outputs": [
        {
          "internalType": "bool",
          "name": "",
          "type": "bool"
        }
      ],
      "stateMutability": "nonpayable",
      "type": "function"
    },
    {
      "inputs": [
        {
          "internalType": "address",
          "name": "strategy",
          "type": "address"
        },
        {
          "internalType": "uint256",
          "name": "assetsNeeded",
          "type": "uint256"
        }
      ],
      "name": "assessShareOfUnrealisedLosses",
      "outputs": [
        {
          "internalType": "uint256",
          "name": "",
          "type": "uint256"
        }
      ],
      "stateMutability": "view",
      "type": "function"
    },
    {
      "inputs": [],
      "name": "asset",
      "outputs": [
        {
          "internalType": "address",
          "name": "",
          "type": "address"
        }
      ],
      "stateMutability": "view",
      "type": "function"
    },
    {
      "inputs": [
        {
          "internalType": "address",
          "name": "addr",
          "type": "address"
        }
      ],
      "name": "balanceOf",
      "outputs": [
        {
          "internalType": "uint256",
          "name": "",
          "type": "uint256"
        }
      ],
      "stateMutability": "view",
      "type": "function"
    },
    {
      "inputs": [
        {
          "internalType": "uint256",
          "name": "shares",
          "type": "uint256"
        },
        {
          "internalType": "address",
          "name": "owner",
          "type": "address"
        }
      ],
      "name": "burnShares",
      "outputs": [],
      "stateMutability": "nonpayable",
      "type": "function"
    },
    {
      "inputs": [],
      "name": "burnUnlockedShares",
      "outputs": [],
      "stateMutability": "nonpayable",
      "type": "function"
    },
    {
      "inputs": [
        {
          "internalType": "uint256",
          "name": "gain",
          "type": "uint256"
        },
        {
          "internalType": "uint256",
          "name": "loss",
          "type": "uint256"
        },
        {
          "internalType": "uint256",
          "name": "totalFees",
          "type": "uint256"
        },
        {
          "internalType": "uint256",
          "name": "protocolFees",
          "type": "uint256"
        },
        {
          "internalType": "address",
          "name": "strategy",
          "type": "address"
        }
      ],
      "name": "calculateShareManagement",
      "outputs": [
        {
          "components": [
            {
              "internalType": "uint256",
              "name": "sharesToBurn",
              "type": "uint256"
            },
            {
              "internalType": "uint256",
              "name": "accountantFeesShares",
              "type": "uint256"
            },
            {
              "internalType": "uint256",
              "name": "protocolFeesShares",
              "type": "uint256"
            }
          ],
          "internalType": "struct ShareManagement",
          "name": "",
          "type": "tuple"
        }
      ],
      "stateMutability": "nonpayable",
      "type": "function"
    },
    {
      "inputs": [
        {
          "internalType": "uint256",
          "name": "shares",
          "type": "uint256"
        }
      ],
      "name": "convertToAssets",
      "outputs": [
        {
          "internalType": "uint256",
          "name": "",
          "type": "uint256"
        }
      ],
      "stateMutability": "view",
      "type": "function"
    },
    {
      "inputs": [
        {
          "internalType": "uint256",
          "name": "shares",
          "type": "uint256"
        },
        {
          "internalType": "enum Rounding",
          "name": "rounding",
          "type": "uint8"
        }
      ],
      "name": "convertToAssets",
      "outputs": [
        {
          "internalType": "uint256",
          "name": "",
          "type": "uint256"
        }
      ],
      "stateMutability": "view",
      "type": "function"
    },
    {
      "inputs": [
        {
          "internalType": "uint256",
          "name": "assets",
          "type": "uint256"
        },
        {
          "internalType": "enum Rounding",
          "name": "rounding",
          "type": "uint8"
        }
      ],
      "name": "convertToShares",
      "outputs": [
        {
          "internalType": "uint256",
          "name": "",
          "type": "uint256"
        }
      ],
      "stateMutability": "view",
      "type": "function"
    },
    {
      "inputs": [
        {
          "internalType": "uint256",
          "name": "assets",
          "type": "uint256"
        }
      ],
      "name": "convertToShares",
      "outputs": [
        {
          "internalType": "uint256",
          "name": "",
          "type": "uint256"
        }
      ],
      "stateMutability": "view",
      "type": "function"
    },
    {
      "inputs": [],
      "name": "decimals",
      "outputs": [
        {
          "internalType": "uint8",
          "name": "",
          "type": "uint8"
        }
      ],
      "stateMutability": "view",
      "type": "function"
    },
    {
      "inputs": [
        {
          "internalType": "address",
          "name": "owner",
          "type": "address"
        },
        {
          "internalType": "address",
          "name": "spender",
          "type": "address"
        },
        {
          "internalType": "uint256",
          "name": "amount",
          "type": "uint256"
        }
      ],
      "name": "decreaseAllowance",
      "outputs": [
        {
          "internalType": "bool",
          "name": "",
          "type": "bool"
        }
      ],
      "stateMutability": "nonpayable",
      "type": "function"
    },
    {
      "inputs": [
        {
          "internalType": "uint256",
          "name": "",
          "type": "uint256"
        }
      ],
      "name": "defaultQueue",
      "outputs": [
        {
          "internalType": "address",
          "name": "",
          "type": "address"
        }
      ],
      "stateMutability": "view",
      "type": "function"
    },
    {
      "inputs": [
        {
          "internalType": "uint256",
          "name": "assets",
          "type": "uint256"
        },
        {
          "internalType": "address",
          "name": "receiver",
          "type": "address"
        }
      ],
      "name": "deposit",
      "outputs": [
        {
          "internalType": "uint256",
          "name": "",
          "type": "uint256"
        }
      ],
      "stateMutability": "nonpayable",
      "type": "function"
    },
    {
      "inputs": [
        {
          "internalType": "address",
          "name": "sender",
          "type": "address"
        },
        {
          "internalType": "address",
          "name": "recipient",
          "type": "address"
        },
        {
          "internalType": "uint256",
          "name": "assets",
          "type": "uint256"
        }
      ],
      "name": "deposit",
      "outputs": [
        {
          "internalType": "uint256",
          "name": "",
          "type": "uint256"
        }
      ],
      "stateMutability": "nonpayable",
      "type": "function"
    },
    {
      "inputs": [],
      "name": "depositLimit",
      "outputs": [
        {
          "internalType": "uint256",
          "name": "",
          "type": "uint256"
        }
      ],
      "stateMutability": "view",
      "type": "function"
    },
    {
      "inputs": [],
      "name": "depositLimitModule",
      "outputs": [
        {
          "internalType": "address",
          "name": "",
          "type": "address"
        }
      ],
      "stateMutability": "view",
      "type": "function"
    },
    {
      "inputs": [
        {
          "internalType": "address",
          "name": "strategy",
          "type": "address"
        },
        {
          "internalType": "uint256",
          "name": "assetsToDeposit",
          "type": "uint256"
        }
      ],
      "name": "depositToStrategy",
      "outputs": [],
      "stateMutability": "nonpayable",
      "type": "function"
    },
    {
      "inputs": [
        {
          "internalType": "address",
          "name": "token",
          "type": "address"
        },
        {
          "internalType": "address",
          "name": "spender",
          "type": "address"
        },
        {
          "internalType": "uint256",
          "name": "amount",
          "type": "uint256"
        }
      ],
      "name": "erc20SafeApprove",
      "outputs": [],
      "stateMutability": "nonpayable",
      "type": "function"
    },
    {
      "inputs": [
        {
          "internalType": "address",
          "name": "token",
          "type": "address"
        },
        {
          "internalType": "address",
          "name": "receiver",
          "type": "address"
        },
        {
          "internalType": "uint256",
          "name": "amount",
          "type": "uint256"
        }
      ],
      "name": "erc20SafeTransfer",
      "outputs": [],
      "stateMutability": "nonpayable",
      "type": "function"
    },
    {
      "inputs": [
        {
          "internalType": "address",
          "name": "token",
          "type": "address"
        },
        {
          "internalType": "address",
          "name": "sender",
          "type": "address"
        },
        {
          "internalType": "address",
          "name": "receiver",
          "type": "address"
        },
        {
          "internalType": "uint256",
          "name": "amount",
          "type": "uint256"
        }
      ],
      "name": "erc20SafeTransferFrom",
      "outputs": [],
      "stateMutability": "nonpayable",
      "type": "function"
    },
    {
      "inputs": [],
      "name": "fees",
      "outputs": [
        {
          "internalType": "uint256",
          "name": "totalFees",
          "type": "uint256"
        },
        {
          "internalType": "uint256",
          "name": "totalRefunds",
          "type": "uint256"
        },
        {
          "internalType": "uint256",
          "name": "protocolFees",
          "type": "uint256"
        },
        {
          "internalType": "address",
          "name": "protocolFeeRecipient",
          "type": "address"
        }
      ],
      "stateMutability": "view",
      "type": "function"
    },
    {
      "inputs": [],
      "name": "fullProfitUnlockDate",
      "outputs": [
        {
          "internalType": "uint256",
          "name": "",
          "type": "uint256"
        }
      ],
      "stateMutability": "view",
      "type": "function"
    },
    {
      "inputs": [],
      "name": "futureRoleManager",
      "outputs": [
        {
          "internalType": "address",
          "name": "",
          "type": "address"
        }
      ],
      "stateMutability": "view",
      "type": "function"
    },
    {
      "inputs": [],
      "name": "getMinimumTotalIdle",
      "outputs": [
        {
          "internalType": "uint256",
          "name": "",
          "type": "uint256"
        }
      ],
      "stateMutability": "view",
      "type": "function"
    },
    {
      "inputs": [
        {
          "internalType": "bytes32",
          "name": "role",
          "type": "bytes32"
        }
      ],
      "name": "getRoleAdmin",
      "outputs": [
        {
          "internalType": "bytes32",
          "name": "",
          "type": "bytes32"
        }
      ],
      "stateMutability": "view",
      "type": "function"
    },
    {
      "inputs": [],
      "name": "getTotalIdleAmount",
      "outputs": [
        {
          "internalType": "uint256",
          "name": "",
          "type": "uint256"
        }
      ],
      "stateMutability": "view",
      "type": "function"
    },
    {
      "inputs": [],
      "name": "governance",
      "outputs": [
        {
          "internalType": "address",
          "name": "",
          "type": "address"
        }
      ],
      "stateMutability": "view",
      "type": "function"
    },
    {
      "inputs": [
        {
          "internalType": "bytes32",
          "name": "role",
          "type": "bytes32"
        },
        {
          "internalType": "address",
          "name": "account",
          "type": "address"
        }
      ],
      "name": "grantRole",
      "outputs": [],
      "stateMutability": "nonpayable",
      "type": "function"
    },
    {
      "inputs": [
        {
          "components": [
            {
              "internalType": "uint256",
              "name": "sharesToBurn",
              "type": "uint256"
            },
            {
              "internalType": "uint256",
              "name": "accountantFeesShares",
              "type": "uint256"
            },
            {
              "internalType": "uint256",
              "name": "protocolFeesShares",
              "type": "uint256"
            }
          ],
          "internalType": "struct ShareManagement",
          "name": "shares",
          "type": "tuple"
        },
        {
          "components": [
            {
              "internalType": "uint256",
              "name": "totalFees",
              "type": "uint256"
            },
            {
              "internalType": "uint256",
              "name": "totalRefunds",
              "type": "uint256"
            },
            {
              "internalType": "uint256",
              "name": "protocolFees",
              "type": "uint256"
            },
            {
              "internalType": "address",
              "name": "protocolFeeRecipient",
              "type": "address"
            }
          ],
          "internalType": "struct FeeAssessment",
          "name": "_fees",
          "type": "tuple"
        },
        {
          "internalType": "uint256",
          "name": "gain",
          "type": "uint256"
        },
        {
          "internalType": "uint256",
          "name": "loss",
          "type": "uint256"
        },
        {
          "internalType": "address",
          "name": "strategy",
          "type": "address"
        }
      ],
      "name": "handleShareBurnsAndIssues",
      "outputs": [
        {
          "internalType": "uint256",
          "name": "previouslyLockedShares",
          "type": "uint256"
        },
        {
          "internalType": "uint256",
          "name": "newlyLockedShares",
          "type": "uint256"
        }
      ],
      "stateMutability": "nonpayable",
      "type": "function"
    },
    {
      "inputs": [
        {
          "internalType": "bytes32",
          "name": "role",
          "type": "bytes32"
        },
        {
          "internalType": "address",
          "name": "account",
          "type": "address"
        }
      ],
      "name": "hasRole",
      "outputs": [
        {
          "internalType": "bool",
          "name": "",
          "type": "bool"
        }
      ],
      "stateMutability": "view",
      "type": "function"
    },
    {
      "inputs": [
        {
          "internalType": "address",
          "name": "owner",
          "type": "address"
        },
        {
          "internalType": "address",
          "name": "spender",
          "type": "address"
        },
        {
          "internalType": "uint256",
          "name": "amount",
          "type": "uint256"
        }
      ],
      "name": "increaseAllowance",
      "outputs": [
        {
          "internalType": "bool",
          "name": "",
          "type": "bool"
        }
      ],
      "stateMutability": "nonpayable",
      "type": "function"
    },
    {
      "inputs": [
        {
          "internalType": "address",
          "name": "_strategyManager",
          "type": "address"
        },
        {
          "internalType": "address",
          "name": "_setters",
          "type": "address"
        }
      ],
      "name": "initialize",
      "outputs": [],
      "stateMutability": "nonpayable",
      "type": "function"
    },
    {
      "inputs": [
        {
          "internalType": "uint256",
          "name": "shares",
          "type": "uint256"
        },
        {
          "internalType": "address",
          "name": "recipient",
          "type": "address"
        }
      ],
      "name": "issueShares",
      "outputs": [],
      "stateMutability": "nonpayable",
      "type": "function"
    },
    {
      "inputs": [
        {
          "internalType": "uint256",
          "name": "amount",
          "type": "uint256"
        },
        {
          "internalType": "address",
          "name": "recipient",
          "type": "address"
        }
      ],
      "name": "issueSharesForAmount",
      "outputs": [
        {
          "internalType": "uint256",
          "name": "",
          "type": "uint256"
        }
      ],
      "stateMutability": "nonpayable",
      "type": "function"
    },
    {
      "inputs": [],
      "name": "lastProfitUpdate",
      "outputs": [
        {
          "internalType": "uint256",
          "name": "",
          "type": "uint256"
        }
      ],
      "stateMutability": "view",
      "type": "function"
    },
    {
      "inputs": [
        {
          "internalType": "uint256",
          "name": "previouslyLockedShares",
          "type": "uint256"
        },
        {
          "internalType": "uint256",
          "name": "newlyLockedShares",
          "type": "uint256"
        }
      ],
      "name": "manageUnlockingOfShares",
      "outputs": [],
      "stateMutability": "nonpayable",
      "type": "function"
    },
    {
      "inputs": [
        {
          "internalType": "address",
          "name": "receiver",
          "type": "address"
        }
      ],
      "name": "maxDeposit",
      "outputs": [
        {
          "internalType": "uint256",
          "name": "",
          "type": "uint256"
        }
      ],
      "stateMutability": "view",
      "type": "function"
    },
    {
      "inputs": [
        {
          "internalType": "address",
          "name": "receiver",
          "type": "address"
        }
      ],
      "name": "maxMint",
      "outputs": [
        {
          "internalType": "uint256",
          "name": "",
          "type": "uint256"
        }
      ],
      "stateMutability": "view",
      "type": "function"
    },
    {
      "inputs": [
        {
          "internalType": "address",
          "name": "owner",
          "type": "address"
        },
        {
          "internalType": "uint256",
          "name": "maxLoss",
          "type": "uint256"
        },
        {
          "internalType": "address[]",
          "name": "_strategies",
          "type": "address[]"
        }
      ],
      "name": "maxRedeem",
      "outputs": [
        {
          "internalType": "uint256",
          "name": "",
          "type": "uint256"
        }
      ],
      "stateMutability": "nonpayable",
      "type": "function"
    },
    {
      "inputs": [
        {
          "internalType": "address",
          "name": "owner",
          "type": "address"
        },
        {
          "internalType": "uint256",
          "name": "_maxLoss",
          "type": "uint256"
        },
        {
          "internalType": "address[]",
          "name": "_strategies",
          "type": "address[]"
        }
      ],
      "name": "maxWithdraw",
      "outputs": [
        {
          "internalType": "uint256",
          "name": "",
          "type": "uint256"
        }
      ],
      "stateMutability": "nonpayable",
      "type": "function"
    },
    {
      "inputs": [],
      "name": "minimumTotalIdle",
      "outputs": [
        {
          "internalType": "uint256",
          "name": "",
          "type": "uint256"
        }
      ],
      "stateMutability": "view",
      "type": "function"
    },
    {
      "inputs": [
        {
          "internalType": "uint256",
          "name": "shares",
          "type": "uint256"
        },
        {
          "internalType": "address",
          "name": "receiver",
          "type": "address"
        }
      ],
      "name": "mint",
      "outputs": [
        {
          "internalType": "uint256",
          "name": "",
          "type": "uint256"
        }
      ],
      "stateMutability": "nonpayable",
      "type": "function"
    },
    {
      "inputs": [
        {
          "internalType": "address",
          "name": "sender",
          "type": "address"
        },
        {
          "internalType": "address",
          "name": "recipient",
          "type": "address"
        },
        {
          "internalType": "uint256",
          "name": "shares",
          "type": "uint256"
        }
      ],
      "name": "mint",
      "outputs": [
        {
          "internalType": "uint256",
          "name": "",
          "type": "uint256"
        }
      ],
      "stateMutability": "nonpayable",
      "type": "function"
    },
    {
      "inputs": [],
      "name": "name",
      "outputs": [
        {
          "internalType": "string",
          "name": "",
          "type": "string"
        }
      ],
      "stateMutability": "view",
      "type": "function"
    },
    {
      "inputs": [
        {
          "internalType": "address",
          "name": "",
          "type": "address"
        }
      ],
      "name": "nonces",
      "outputs": [
        {
          "internalType": "uint256",
          "name": "",
          "type": "uint256"
        }
      ],
      "stateMutability": "view",
      "type": "function"
    },
    {
      "inputs": [
        {
          "internalType": "bytes32",
          "name": "",
          "type": "bytes32"
        }
      ],
      "name": "openRoles",
      "outputs": [
        {
          "internalType": "bool",
          "name": "",
          "type": "bool"
        }
      ],
      "stateMutability": "view",
      "type": "function"
    },
    {
      "inputs": [
        {
          "internalType": "address",
          "name": "owner",
          "type": "address"
        },
        {
          "internalType": "address",
          "name": "spender",
          "type": "address"
        },
        {
          "internalType": "uint256",
          "name": "amount",
          "type": "uint256"
        },
        {
          "internalType": "uint256",
          "name": "deadline",
          "type": "uint256"
        },
        {
          "internalType": "uint8",
          "name": "v",
          "type": "uint8"
        },
        {
          "internalType": "bytes32",
          "name": "r",
          "type": "bytes32"
        },
        {
          "internalType": "bytes32",
          "name": "s",
          "type": "bytes32"
        }
      ],
      "name": "permit",
      "outputs": [
        {
          "internalType": "bool",
          "name": "",
          "type": "bool"
        }
      ],
      "stateMutability": "nonpayable",
      "type": "function"
    },
    {
      "inputs": [
        {
          "internalType": "uint256",
          "name": "assets",
          "type": "uint256"
        }
      ],
      "name": "previewDeposit",
      "outputs": [
        {
          "internalType": "uint256",
          "name": "",
          "type": "uint256"
        }
      ],
      "stateMutability": "view",
      "type": "function"
    },
    {
      "inputs": [
        {
          "internalType": "uint256",
          "name": "shares",
          "type": "uint256"
        }
      ],
      "name": "previewMint",
      "outputs": [
        {
          "internalType": "uint256",
          "name": "",
          "type": "uint256"
        }
      ],
      "stateMutability": "view",
      "type": "function"
    },
    {
      "inputs": [
        {
          "internalType": "uint256",
          "name": "shares",
          "type": "uint256"
        }
      ],
      "name": "previewRedeem",
      "outputs": [
        {
          "internalType": "uint256",
          "name": "",
          "type": "uint256"
        }
      ],
      "stateMutability": "view",
      "type": "function"
    },
    {
      "inputs": [
        {
          "internalType": "uint256",
          "name": "assets",
          "type": "uint256"
        }
      ],
      "name": "previewWithdraw",
      "outputs": [
        {
          "internalType": "uint256",
          "name": "",
          "type": "uint256"
        }
      ],
      "stateMutability": "view",
      "type": "function"
    },
    {
      "inputs": [],
      "name": "profitMaxUnlockTime",
      "outputs": [
        {
          "internalType": "uint256",
          "name": "",
          "type": "uint256"
        }
      ],
      "stateMutability": "view",
      "type": "function"
    },
    {
      "inputs": [],
      "name": "profitUnlockingRate",
      "outputs": [
        {
          "internalType": "uint256",
          "name": "",
          "type": "uint256"
        }
      ],
      "stateMutability": "view",
      "type": "function"
    },
    {
      "inputs": [
        {
          "internalType": "uint256",
          "name": "shares",
          "type": "uint256"
        },
        {
          "internalType": "address",
          "name": "receiver",
          "type": "address"
        },
        {
          "internalType": "address",
          "name": "owner",
          "type": "address"
        },
        {
          "internalType": "uint256",
          "name": "maxLoss",
          "type": "uint256"
        },
        {
          "internalType": "address[]",
          "name": "_strategies",
          "type": "address[]"
        }
      ],
      "name": "redeem",
      "outputs": [
        {
          "internalType": "uint256",
          "name": "",
          "type": "uint256"
        }
      ],
      "stateMutability": "nonpayable",
      "type": "function"
    },
    {
      "inputs": [
        {
          "internalType": "bytes32",
          "name": "role",
          "type": "bytes32"
        },
        {
          "internalType": "address",
          "name": "account",
          "type": "address"
        }
      ],
      "name": "renounceRole",
      "outputs": [],
      "stateMutability": "nonpayable",
      "type": "function"
    },
    {
      "inputs": [
        {
          "internalType": "bytes32",
          "name": "role",
          "type": "bytes32"
        },
        {
          "internalType": "address",
          "name": "account",
          "type": "address"
        }
      ],
      "name": "revokeRole",
      "outputs": [],
      "stateMutability": "nonpayable",
      "type": "function"
    },
    {
      "inputs": [],
      "name": "roleManager",
      "outputs": [
        {
          "internalType": "address",
          "name": "",
          "type": "address"
        }
      ],
      "stateMutability": "view",
      "type": "function"
    },
    {
      "inputs": [
        {
          "internalType": "address",
          "name": "",
          "type": "address"
        }
      ],
      "name": "roles",
      "outputs": [
        {
          "internalType": "bytes32",
          "name": "",
          "type": "bytes32"
        }
      ],
      "stateMutability": "view",
      "type": "function"
    },
    {
      "inputs": [
        {
          "internalType": "uint256",
          "name": "_depositLimit",
          "type": "uint256"
        }
      ],
      "name": "setDepositLimit",
      "outputs": [],
      "stateMutability": "nonpayable",
      "type": "function"
    },
    {
      "inputs": [
        {
          "internalType": "uint256",
          "name": "_minimumTotalIdle",
          "type": "uint256"
        }
      ],
      "name": "setMinimumTotalIdle",
      "outputs": [],
      "stateMutability": "nonpayable",
      "type": "function"
    },
    {
      "inputs": [
        {
          "internalType": "uint256",
          "name": "_totalDebtAmount",
          "type": "uint256"
        }
      ],
      "name": "setTotalDebtAmount",
      "outputs": [],
      "stateMutability": "nonpayable",
      "type": "function"
    },
    {
      "inputs": [
        {
          "internalType": "uint256",
          "name": "_totalIdleAmount",
          "type": "uint256"
        }
      ],
      "name": "setTotalIdleAmount",
      "outputs": [],
      "stateMutability": "nonpayable",
      "type": "function"
    },
    {
      "inputs": [],
      "name": "setters",
      "outputs": [
        {
          "internalType": "address",
          "name": "",
          "type": "address"
        }
      ],
      "stateMutability": "view",
      "type": "function"
    },
    {
      "inputs": [],
      "name": "sharesManager",
      "outputs": [
        {
          "internalType": "address",
          "name": "",
          "type": "address"
        }
      ],
      "stateMutability": "view",
      "type": "function"
    },
    {
      "inputs": [],
      "name": "shutdown",
      "outputs": [
        {
          "internalType": "bool",
          "name": "",
          "type": "bool"
        }
      ],
      "stateMutability": "view",
      "type": "function"
    },
    {
      "inputs": [
        {
          "internalType": "address",
          "name": "owner",
          "type": "address"
        },
        {
          "internalType": "address",
          "name": "spender",
          "type": "address"
        },
        {
          "internalType": "uint256",
          "name": "amount",
          "type": "uint256"
        }
      ],
      "name": "spendAllowance",
      "outputs": [],
      "stateMutability": "nonpayable",
      "type": "function"
    },
    {
      "inputs": [
        {
          "internalType": "address",
          "name": "",
          "type": "address"
        }
      ],
      "name": "strategies",
      "outputs": [
        {
          "internalType": "uint256",
          "name": "activation",
          "type": "uint256"
        },
        {
          "internalType": "uint256",
          "name": "lastReport",
          "type": "uint256"
        },
        {
          "internalType": "uint256",
          "name": "currentDebt",
          "type": "uint256"
        },
        {
          "internalType": "uint256",
          "name": "maxDebt",
          "type": "uint256"
        }
      ],
      "stateMutability": "view",
      "type": "function"
    },
    {
      "inputs": [],
      "name": "strategyManager",
      "outputs": [
        {
          "internalType": "address",
          "name": "",
          "type": "address"
        }
      ],
      "stateMutability": "view",
      "type": "function"
    },
    {
      "inputs": [
        {
          "internalType": "bytes4",
          "name": "interfaceId",
          "type": "bytes4"
        }
      ],
      "name": "supportsInterface",
      "outputs": [
        {
          "internalType": "bool",
          "name": "",
          "type": "bool"
        }
      ],
      "stateMutability": "view",
      "type": "function"
    },
    {
      "inputs": [],
      "name": "symbol",
      "outputs": [
        {
          "internalType": "string",
          "name": "",
          "type": "string"
        }
      ],
      "stateMutability": "view",
      "type": "function"
    },
    {
      "inputs": [],
      "name": "totalAssets",
      "outputs": [
        {
          "internalType": "uint256",
          "name": "",
          "type": "uint256"
        }
      ],
      "stateMutability": "view",
      "type": "function"
    },
    {
      "inputs": [],
      "name": "totalDebtAmount",
      "outputs": [
        {
          "internalType": "uint256",
          "name": "",
          "type": "uint256"
        }
      ],
      "stateMutability": "view",
      "type": "function"
    },
    {
      "inputs": [],
      "name": "totalIdleAmount",
      "outputs": [
        {
          "internalType": "uint256",
          "name": "",
          "type": "uint256"
        }
      ],
      "stateMutability": "view",
      "type": "function"
    },
    {
      "inputs": [],
      "name": "totalSupply",
      "outputs": [
        {
          "internalType": "uint256",
          "name": "",
          "type": "uint256"
        }
      ],
      "stateMutability": "view",
      "type": "function"
    },
    {
      "inputs": [],
      "name": "totalSupplyAmount",
      "outputs": [
        {
          "internalType": "uint256",
          "name": "",
          "type": "uint256"
        }
      ],
      "stateMutability": "view",
      "type": "function"
    },
    {
      "inputs": [
        {
          "internalType": "address",
          "name": "receiver",
          "type": "address"
        },
        {
          "internalType": "uint256",
          "name": "amount",
          "type": "uint256"
        }
      ],
      "name": "transfer",
      "outputs": [
        {
          "internalType": "bool",
          "name": "",
          "type": "bool"
        }
      ],
      "stateMutability": "nonpayable",
      "type": "function"
    },
    {
      "inputs": [
        {
          "internalType": "address",
          "name": "sender",
          "type": "address"
        },
        {
          "internalType": "address",
          "name": "receiver",
          "type": "address"
        },
        {
          "internalType": "uint256",
          "name": "amount",
          "type": "uint256"
        }
      ],
      "name": "transfer",
      "outputs": [],
      "stateMutability": "nonpayable",
      "type": "function"
    },
    {
      "inputs": [
        {
          "internalType": "address",
          "name": "sender",
          "type": "address"
        },
        {
          "internalType": "address",
          "name": "receiver",
          "type": "address"
        },
        {
          "internalType": "uint256",
          "name": "amount",
          "type": "uint256"
        }
      ],
      "name": "transferFrom",
      "outputs": [
        {
          "internalType": "bool",
          "name": "",
          "type": "bool"
        }
      ],
      "stateMutability": "nonpayable",
      "type": "function"
    },
    {
      "inputs": [],
      "name": "unlockedShares",
      "outputs": [
        {
          "internalType": "uint256",
          "name": "",
          "type": "uint256"
        }
      ],
      "stateMutability": "view",
      "type": "function"
    },
    {
      "inputs": [],
      "name": "useDefaultQueue",
      "outputs": [
        {
          "internalType": "bool",
          "name": "",
          "type": "bool"
        }
      ],
      "stateMutability": "view",
      "type": "function"
    },
    {
      "inputs": [
        {
          "internalType": "uint256",
          "name": "assets",
          "type": "uint256"
        },
        {
          "internalType": "address",
          "name": "receiver",
          "type": "address"
        },
        {
          "internalType": "address",
          "name": "owner",
          "type": "address"
        },
        {
          "internalType": "uint256",
          "name": "maxLoss",
          "type": "uint256"
        },
        {
          "internalType": "address[]",
          "name": "_strategies",
          "type": "address[]"
        }
      ],
      "name": "withdraw",
      "outputs": [
        {
          "internalType": "uint256",
          "name": "",
          "type": "uint256"
        }
      ],
      "stateMutability": "nonpayable",
      "type": "function"
    },
    {
      "inputs": [
        {
          "internalType": "address",
          "name": "strategy",
          "type": "address"
        },
        {
          "internalType": "uint256",
          "name": "assetsToWithdraw",
          "type": "uint256"
        }
      ],
      "name": "withdrawFromStrategy",
      "outputs": [],
      "stateMutability": "nonpayable",
      "type": "function"
    },
    {
      "inputs": [],
      "name": "withdrawLimitModule",
      "outputs": [
        {
          "internalType": "address",
          "name": "",
          "type": "address"
        }
      ],
      "stateMutability": "view",
      "type": "function"
    }
  ],
  "transactionHash": "0xefeb5ae523cec244743a5ae8c7e976cb551ee536816c532369d450ed5c2f364f",
  "args": [
    "0xdf29cb40cb92a1b8e8337f542e3846e185deff96",
    18,
    "Vault Shares FXD",
    "vFXD"
  ],
  "numDeployments": 1,
  "solcInputHash": "7e2ba453b883e6d3a66220df6fa5f9ad",
  "bytecode": "0x60e06040526301e185586080523480156200001957600080fd5b5060405162005766380380620057668339810160408190526200003c91620002e2565b6001601f5560ff831660c0819052610100116200006c5760405163e236476560e01b815260040160405180910390fd5b6001600160a01b03841660a052602162000087838262000481565b50602262000096828262000481565b50620000a4600033620000ae565b5050505062000551565b620000ba828262000137565b62000133576000828152602080805260408083206001600160a01b03851684529091529020805460ff19166001179055620000f23390565b6001600160a01b0316816001600160a01b0316837f2f8788117e7eff1d82e926ec794901d17c78024a50270940304540a733656f0d60405160405180910390a45b5050565b6000828152602080805260408083206001600160a01b038516845290915290205460ff165b92915050565b60006001600160a01b0382166200015c565b6200017f8162000162565b81146200018b57600080fd5b50565b80516200015c8162000174565b60ff81166200017f565b80516200015c816200019b565b634e487b7160e01b600052604160045260246000fd5b601f19601f83011681018181106001600160401b0382111715620001f057620001f0620001b2565b6040525050565b60006200020360405190565b9050620002118282620001c8565b919050565b60006001600160401b03821115620002325762000232620001b2565b601f19601f83011660200192915050565b60005b838110156200026057818101518382015260200162000246565b50506000910152565b6000620002806200027a8462000216565b620001f7565b9050828152602081018484840111156200029d576200029d600080fd5b620002aa84828562000243565b509392505050565b600082601f830112620002c857620002c8600080fd5b8151620002da84826020860162000269565b949350505050565b60008060008060808587031215620002fd57620002fd600080fd5b60006200030b87876200018e565b94505060206200031e87828801620001a5565b93505060408501516001600160401b038111156200033f576200033f600080fd5b6200034d87828801620002b2565b92505060608501516001600160401b038111156200036e576200036e600080fd5b6200037c87828801620002b2565b91505092959194509250565b634e487b7160e01b600052602260045260246000fd5b600281046001821680620003b357607f821691505b602082108103620003c857620003c862000388565b50919050565b60006200015c620003dc8381565b90565b620003ea83620003ce565b81546008840282811b60001990911b908116901990911617825550505050565b600062000419818484620003df565b505050565b818110156200013357620004346000826200040a565b6001016200041e565b601f82111562000419576000818152602090206020601f85010481016020851015620004665750805b6200047a6020601f8601048301826200041e565b5050505050565b81516001600160401b038111156200049d576200049d620001b2565b620004a982546200039e565b620004b68282856200043d565b6020601f831160018114620004ed5760008415620004d45750858201515b600019600886021c198116600286021786555062000549565b600085815260208120601f198616915b828110156200051f5788850151825560209485019460019092019101620004fd565b868310156200053c5784890151600019601f89166008021c191682555b6001600288020188555050505b505050505050565b60805160a05160c0516151ad620005b9600039600081816106dd01526107230152600081816107840152818161084f015281816111a801528181612ffc015281816132ee0152818161369301528181613c230152613f860152600061065f01526151ad6000f3fe608060405234801561001057600080fd5b50600436106105155760003560e01c80638212fd43116102a25780638212fd4314610a785780638340f54914610a8b5780638afca8f014610a9e5780639198600314610aa757806391d1485414610aba57806394bf804d14610acd57806395d89b4114610ae057806399167fb414610ae85780639937464214610afb5780639a508d0a14610b1b5780639af1d35a14610b2e5780639e34e34814610b5d5780639f3988f314610b70578063a217fddf14610b97578063a9059cbb14610b9f578063a98222c414610bb2578063ab5b4d4914610bd9578063acded97d14610c00578063af76d4bd14610c13578063b3c187f214610c26578063b3d7f6b914610c39578063b53d095814610c4c578063bbe4eb4914610c5f578063bdc8144b14610c6c578063beabacc814610c7f578063bee7e3d914610c92578063c034969414610ca5578063c065ca0714610cb8578063c0993eea14610cdf578063c63d75b614610d06578063c6c3bbe614610d19578063c6e6f59214610d2c578063c8d74b6014610d3f578063c8dffa9514610d66578063ca4c1c3714610d6f578063cea5a1a714610d82578063d4ae064f14610d8a578063d505accf14610db1578063d547741f14610dc4578063d73b1dc914610dd7578063d81a09f614610dea578063d9a0e97a14610dfd578063dd62ed3e14610e05578063dd8aaa4f14610e3e578063e0bf18ad14610e51578063e1f21c6714610e59578063e315cd7514610e6c578063ec6e566e14610e7f578063ecf7085814610e92578063ef8b30f714610d2c578063f1daeba814610e9b578063f5b944eb14610ec2578063f828f50b14610ee9578063fc0e74d114610ef2578063fd967f4714610f06578063fec61f0614610f0f578063ff1e7f0814610f3657600080fd5b8062435da51461051a57806301e1d1141461054357806301ffc9a71461055857806303dcd12c1461057857806306580f2d1461059f57806306fdde03146105b257806307a2d13a146105c75780630835a3fc146105da5780630952864e146105e3578063095ea7b3146105ec5780630a28a477146105ff5780630ad283d0146106125780630ceca2441461063957806316d3bfbb1461065a57806318160ddd146106815780631d8325ef1461068957806323b872dd146106a9578063248a9ca3146106bc5780632d632692146106cf5780632e0f2625146106d85780632f2ff15d1461070c578063313ce5671461072157806334b5fab6146107475780633644e5151461075a57806336568abe1461076357806336fba0841461077657806338d52e0f1461078257806339b70e38146107a857806339ebf823146107bb5780633cd7b5ab146108005780633e986eed146108095780633f7b5e401461081c578063402d267d146108245780634542abe2146108375780634800d97f1461084a578063485cc9551461087e5780634cdad506146105c75780634ce1d38a146108915780634cfe51dc146108b85780634d4bb197146108df5780634fb3ccc5146108f45780635141eebb1461090757806353a66132146109105780635453491f146109335780635a5690991461093b5780635aa6e6751461094e5780635bf6b4fb146109615780635d4086af14610988578063652da3241461099b57806365cb6765146109c25780636c43a2ca146109d55780636e553f65146109e857806370a08231146109fb5780637659bcc614610a0e57806377e3b26714610a215780637ecebe0014610a455780637ff0007714610a65575b600080fd5b60175461052d906001600160a01b031681565b60405161053a91906141d2565b60405180910390f35b61054b610f49565b60405161053a91906141e6565b61056b610566366004614216565b610f58565b60405161053a919061423f565b61054b7f633076a97f32ae349b28772e7b1483f67a926f150cbc501d02bdbd77389325ab81565b61054b6105ad366004614382565b610f8f565b6105ba610fcd565b60405161053a919061446c565b61054b6105d536600461447d565b61105b565b61054b60105481565b61054b60195481565b61056b6105fa36600461449e565b611068565b61054b61060d36600461447d565b61107c565b61054b7fc723f4dd6268e1c374639e36d629c765285ee7003913389d582c300f186dde9781565b61064c6106473660046145ab565b611089565b60405161053a929190614619565b61054b7f000000000000000000000000000000000000000000000000000000000000000081565b61054b611374565b61069c610697366004614634565b61137e565b60405161053a91906146d6565b61056b6106b73660046146e4565b61159f565b61054b6106ca36600461447d565b6115c1565b61054b601a5481565b6106ff7f000000000000000000000000000000000000000000000000000000000000000081565b60405161053a919061473d565b61071f61071a36600461474b565b6115d5565b005b7f00000000000000000000000000000000000000000000000000000000000000006106ff565b61054b61075536600461477e565b6115f6565b61054b601e5481565b61071f61077136600461474b565b611644565b61054b64e8d4a5100081565b7f000000000000000000000000000000000000000000000000000000000000000061052d565b60005461052d906001600160a01b031681565b6107f06107c93660046147de565b60046020526000908152604090208054600182015460028301546003909301549192909184565b60405161053a94939291906147ff565b61054b600f5481565b61071f610817366004614834565b611683565b61054b600a81565b61054b6108323660046147de565b611874565b61071f610845366004614856565b61187f565b6108717f000000000000000000000000000000000000000000000000000000000000000081565b60405161053a91906148f2565b61071f61088c366004614900565b611891565b61054b7f69d1171ac0a63777a6733cda21aec9ed3d48a4fd11f273c934a691dec5e5589c81565b61054b7f862f91c9d89d6135b19873b921c90b702cb2e175c371b8430026b9577e69111981565b61054b6000805160206150f883398151915281565b60125461052d906001600160a01b031681565b61054b601b5481565b61056b61091e36600461447d565b60166020526000908152604090205460ff1681565b600f5461054b565b61054b61094936600461449e565b611906565b60035461052d906001600160a01b031681565b61054b7fea672c1c09cd95c51af9509f646f3615ff0071aae8652bd821471ee9037fd72c81565b61054b61099636600461493a565b6119b0565b61054b7fcd9f023a942ee35097ead74b2505bea9f2c5d47465db92dd195cf7f01a41cfe181565b61054b6109d036600461477e565b6119bc565b61056b6109e33660046146e4565b6119c9565b61054b6109f636600461474b565b6119d6565b61054b610a093660046147de565b6119f7565b61054b610a1c36600461474b565b611a50565b6105ba604051806040016040528060058152602001640312e302e360dc1b81525081565b61054b610a533660046147de565b601d6020526000908152604090205481565b61054b610a7336600461493a565b611a5c565b61071f610a8636600461447d565b601055565b61054b610a993660046146e4565b611a68565b61054b601c5481565b60145461052d906001600160a01b031681565b61056b610ac836600461474b565b611a75565b61054b610adb36600461474b565b611a9e565b6105ba611ab3565b61071f610af636600461474b565b611ac0565b61054b610b093660046147de565b60156020526000908152604090205481565b61071f610b2936600461447d565b600f55565b600554600654600754600854610b4d939291906001600160a01b031684565b60405161053a949392919061496d565b60135461052d906001600160a01b031681565b61054b7f6f430d649a8640e48ff9bfbc353b3f99ed630163857821b3b4075e3871dafbf581565b61054b600081565b61056b610bad36600461449e565b611aca565b61054b7f2f0dbbe8c2c0170206c50ec0cafa1c0dbd03e73e67c2a960178df30a0a30ee2e81565b61054b7f900d80def0427daac599092fcb16b21808ec68dd9a2e1eae89d1e8db2135737581565b60015461052d906001600160a01b031681565b61071f610c2136600461449e565b611b1c565b60185461052d906001600160a01b031681565b61054b610c4736600461447d565b611b8d565b61071f610c5a36600461449e565b611b9a565b600a5461056b9060ff1681565b61071f610c7a36600461447d565b611ba4565b61071f610c8d3660046146e4565b611c3d565b60025461052d906001600160a01b031681565b61071f610cb33660046146e4565b611c48565b61054b7f2a0e761830cc61f2707ea7bb138008bf9dda7f7d34c77736d0a116604e95ea1681565b61054b7f8b73c3c69bb8fe3d512ecc4cf759cc79239f7b179b0ffacaa9a75d522b39400f81565b61054b610d143660046147de565b611d10565b61054b610d273660046146e4565b611d29565b61054b610d3a36600461447d565b611d36565b61054b7f152ebba56b9738ee3d8baea1b76fa31dcdcd79b1929bfea7d58ee12cfdf1a65381565b61054b600e5481565b61071f610d7d36600461474b565b611d43565b60105461054b565b61054b7fa18eaea71a088b547b8c932b48861853b3434d9a3240b94466c607e28b69659581565b61056b610dbf3660046149b6565b611d4d565b61071f610dd236600461474b565b611f3f565b61056b610de53660046146e4565b611f5b565b61054b610df8366004614382565b611fa9565b61054b611fc8565b61054b610e13366004614900565b6001600160a01b039182166000908152600c6020908152604080832093909416825291909152205490565b61071f610e4c3660046146e4565b611fd2565b61071f611fdd565b61056b610e673660046146e4565b612079565b61071f610e7a36600461447d565b600e55565b61071f610e8d3660046146e4565b612086565b61054b60115481565b61054b7f7cbb3cdf689b8ea3e9d265f66bc4e0a99069268217017d38d2a5a559abc6271981565b61054b7ff206625bad3d9112d5609b8d356e6fbd514cd1f69980d4ce2b3e6e68e1789ace81565b61054b600d5481565b60185461056b90600160a01b900460ff1681565b61054b61271081565b61054b7fd45f7ccff42f059d4e47c3f027c444272257266f7e88b981e142f0aa38fbfd7881565b61052d610f4436600461447d565b612091565b6000610f536120bb565b905090565b60006001600160e01b03198216637965db0b60e01b1480610f8957506301ffc9a760e01b6001600160e01b03198316145b92915050565b6000610f996120cd565b6000610fa68760006120f6565b9050610fb7328787848b898961218c565b915050610fc46001601f55565b95945050505050565b60218054610fda90614a6b565b80601f016020809104026020016040519081016040528092919081815260200182805461100690614a6b565b80156110535780601f1061102857610100808354040283529160200191611053565b820191906000526020600020905b81548152906001019060200180831161103657829003601f168201915b505050505081565b6000610f898260006120f6565b6000611075338484612229565b9392505050565b6000610f898260016122c1565b600080600080876020015111156111f55760208701516001546012546040516370a0823160e01b81526111989392611193926001600160a01b03918216926370a08231926110db9216906004016141d2565b602060405180830381865afa1580156110f8573d6000803e3d6000fd5b505050506040513d601f19601f8201168201806040525081019061111c9190614aa2565b600154601254604051636eb1769f60e11b81526001600160a01b039283169263dd62ed3e92611152929116903090600401614ac3565b602060405180830381865afa15801561116f573d6000803e3d6000fd5b505050506040513d601f19601f820116820180604052508101906111939190614aa2565b61236f565b602088018190526012546111d9917f0000000000000000000000000000000000000000000000000000000000000000916001600160a01b0316903090612385565b8660200151600f60008282546111ef9190614af4565b90915550505b60008760200151876112079190614af4565b1180156112895750600260009054906101000a90046001600160a01b03166001600160a01b0316630952864e6040518163ffffffff1660e01b8152600401602060405180830381865afa158015611262573d6000803e3d6000fd5b505050506040513d601f19601f820116820180604052508101906112869190614aa2565b15155b156112aa576112a78760200151876112a19190614af4565b30612461565b90505b306000908152600b60205260408120546112c5908390614b07565b8951909150156113265788516112df906111938484614af4565b808a526112ec9030612516565b60006112fc8a600001518461236f565b90506113088184614b07565b8a51909350611318908290614b07565b6113229083614b07565b9150505b60208901511561134b57602089015160125461134b91906001600160a01b03166125cd565b60408901511561136757611367896040015189606001516125cd565b9890975095505050505050565b6000610f53612666565b61138661418b565b61138e61418b565b60008054604051634d3c739760e11b81526001600160a01b0390911690639a78e72e906113bf9087906004016141d2565b602060405180830381865afa1580156113dc573d6000803e3d6000fd5b505050506040513d601f19601f820116820180604052508101906114009190614aa2565b9050871561148b576000546001600160a01b0316633764254a856114248b85614af4565b6040518363ffffffff1660e01b8152600401611441929190614b1a565b600060405180830381600087803b15801561145b57600080fd5b505af115801561146f573d6000803e3d6000fd5b5050505087600e60008282546114859190614af4565b90915550505b8615611514576000546001600160a01b0316633764254a856114ad8a85614b07565b6040518363ffffffff1660e01b81526004016114ca929190614b1a565b600060405180830381600087803b1580156114e457600080fd5b505af11580156114f8573d6000803e3d6000fd5b5050505086600e600082825461150e9190614b07565b90915550505b60006115208789614af4565b11156115945761153a6115338789614af4565b60016122c1565b82518390611549908390614af4565b90525085156115945761156661155f8688614b07565b60006122c1565b6020830152841561159457600061157d8987614b28565b905061158d61155f606483614b5d565b6040840152505b509695505050505050565b60006115ac84338461267d565b6115b78484846126df565b5060019392505050565b600090815260208052604090206001015490565b6115de826115c1565b6115e7816127dc565b6115f183836127e6565b505050565b60008061160485858561286a565b905060006116138260016122c1565b6001600160a01b0387166000908152600b602052604090205490915061163a90829061236f565b9695505050505050565b6001600160a01b03811633146116755760405162461bcd60e51b815260040161166c90614b71565b60405180910390fd5b61167f8282612c34565b5050565b600061168f8284614af4565b9050801561186a57600042600260009054906101000a90046001600160a01b03166001600160a01b0316632d6326926040518163ffffffff1660e01b8152600401602060405180830381865afa1580156116ed573d6000803e3d6000fd5b505050506040513d601f19601f820116820180604052508101906117119190614aa2565b111561179b57600254604080516316b1934960e11b8152905142926001600160a01b031691632d6326929160048083019260209291908290030181865afa158015611760573d6000803e3d6000fd5b505050506040513d601f19601f820116820180604052508101906117849190614aa2565b61178e9190614b07565b6117989085614b28565b90505b600082600260009054906101000a90046001600160a01b03166001600160a01b0316630952864e6040518163ffffffff1660e01b8152600401602060405180830381865afa1580156117f1573d6000803e3d6000fd5b505050506040513d601f19601f820116820180604052508101906118159190614aa2565b61181f9086614b28565b6118299084614af4565b6118339190614b5d565b90508061184564e8d4a5100085614b28565b61184f9190614b5d565b601b5561185c8142614af4565b601a55505042601c55505050565b6000601b55505050565b6000610f8982612c99565b61188b84848484612385565b50505050565b600061189c816127dc565b600a54610100900460ff1615156001036118c85760405162461bcd60e51b815260040161166c90614bf1565b50600080546001600160a01b039384166001600160a01b03199182161790915560028054929093169116179055600a805461ff001916610100179055565b600080546040516339ebf82360e01b815282916001600160a01b0316906339ebf823906119379087906004016141d2565b608060405180830381865afa158015611954573d6000803e3d6000fd5b505050506040513d601f19601f820116820180604052508101906119789190614c01565b50925050508281101561199e576040516337deae0760e01b815260040160405180910390fd5b6119a88484612d71565b949350505050565b600061107583836122c1565b60006119a884848461286a565b60006119a8848484612f34565b60006119e06120cd565b6119eb338385612f69565b9050610f896001601f55565b6000306001600160a01b03831603611a3457611a11613103565b6001600160a01b0383166000908152600b6020526040902054610f899190614b07565b506001600160a01b03166000908152600b602052604090205490565b60006110758383612461565b600061107583836120f6565b60006119a8848484612f69565b6000918252602080805260408084206001600160a01b0393909316845291905290205460ff1690565b6000611aa86120cd565b6119eb33838561324c565b60228054610fda90614a6b565b61167f8282612516565b60006001600160a01b038316301480611aea57506001600160a01b038316155b15611b085760405163d92e233d60e01b815260040160405180910390fd5b611b133384846126df565b50600192915050565b604051636e553f6560e01b81526001600160a01b03831690636e553f6590611b4a9084903090600401614c59565b6020604051808303816000875af1158015611b69573d6000803e3d6000fd5b505050506040513d601f19601f820116820180604052508101906115f19190614aa2565b6000610f898260016120f6565b61167f82826133c0565b601854600160a01b900460ff161515600103611bd357604051630f3c386760e01b815260040160405180910390fd5b6013546001600160a01b031615611bfd576040516364b9991160e11b815260040160405180910390fd5b60118190556040517fae565aab888bca5e19e25a13db7b0c9144305bf55cb0f3f4d724f730e5acdd6290611c329083906141e6565b60405180910390a150565b6115f18383836126df565b6001600160a01b0383161580611c6557506001600160a01b038216155b15611c835760405163d92e233d60e01b815260040160405180910390fd5b60405163095ea7b360e01b81526001600160a01b0384169063095ea7b390611cb19085908590600401614b1a565b6020604051808303816000875af1158015611cd0573d6000803e3d6000fd5b505050506040513d601f19601f82011682018060405250810190611cf49190614c7a565b6115f15760405162461bcd60e51b815260040161166c90614cc1565b600080611d1c83612c99565b90506110758160006122c1565b60006119a884848461324c565b6000610f898260006122c1565b61167f82826125cd565b60006001600160a01b038816611d765760405163d92e233d60e01b815260040160405180910390fd5b42851015611d97576040516363bef56160e11b815260040160405180910390fd5b6001600160a01b0388166000908152601d60209081526040808320549051909291611ddc916000805160206150f8833981519152918d918d918d9188918e9101614cd1565b6040516020818303038152906040528051906020012090506000601e5482604051602001611e0b929190614d20565b604051602081830303815290604052805190602001209050600060018289898960405160008152602001604052604051611e489493929190614d51565b6020604051602081039080840390855afa158015611e6a573d6000803e3d6000fd5b5050604051601f1901519150506001600160a01b0381161580611e9f57508b6001600160a01b0316816001600160a01b031614155b15611ebd576040516310454c9960e31b815260040160405180910390fd5b611ec88c8c8c612229565b506001600160a01b038c166000908152601d60205260408120805491611eed83614d6c565b91905055508a6001600160a01b03168c6001600160a01b03166000805160206151188339815191528c604051611f2391906141e6565b60405180910390a360019450505050505b979650505050505050565b611f48826115c1565b611f51816127dc565b6115f18383612c34565b6001600160a01b038084166000908152600c602090815260408083209386168352929052908120548190611f90908490614b07565b9050611f9d858583612229565b50600195945050505050565b600080611fb78760016122c1565b90506115943287878a85898961218c565b6000610f53613103565b6115f183838361267d565b6000611fe7613103565b905080600003611ff45750565b600254604080516316b1934960e11b8152905142926001600160a01b031691632d6326929160048083019260209291908290030181865afa15801561203d573d6000803e3d6000fd5b505050506040513d601f19601f820116820180604052508101906120619190614aa2565b111561206c5742601c555b6120768130612516565b50565b60006119a8848484612229565b6115f18383836134d4565b600981815481106120a157600080fd5b6000918252602090912001546001600160a01b0316905081565b6000600e54600f54610f539190614af4565b6002601f54036120ef5760405162461bcd60e51b815260040161166c90614dba565b6002601f55565b6000600019831480612106575082155b15612112575081610f89565b600061211c612666565b90508060000361212f5783915050610f89565b60006121396120bb565b6121439086614b28565b905060006121518383614b5d565b9050600185600181111561216757612167614dca565b14801561217c57506121798383614de0565b15155b15610fc45761163a600182614af4565b600061219a8787868661359c565b6121a5868986613640565b6000806121b28785613664565b915091506121c58989888a86868b613f15565b876001600160a01b0316896001600160a01b03168b6001600160a01b03167ffbde797d201c681b91056529119e0b02407c7bb96a4a2c75c01fc9667232c8db858a604051612214929190614619565b60405180910390a45098975050505050505050565b60006001600160a01b038416158061224857506001600160a01b038316155b156122665760405163d92e233d60e01b815260040160405180910390fd5b6001600160a01b038085166000818152600c60209081526040808320948816808452949091529081902085905551600080516020615118833981519152906122af9086906141e6565b60405180910390a35060019392505050565b60006000198314806122d1575082155b156122dd575081610f89565b60006122e7612666565b905060006122f36120bb565b90508060000361231a578160000361230f578492505050610f89565b600092505050610f89565b60006123268387614b28565b905060006123348383614b5d565b9050600186600181111561234a5761234a614dca565b14801561235f575061235c8383614de0565b15155b1561163a57611f34600182614af4565b600081831061237e5781611075565b5090919050565b6001600160a01b03841615806123a257506001600160a01b038316155b806123b457506001600160a01b038216155b156123d25760405163d92e233d60e01b815260040160405180910390fd5b6040516323b872dd60e01b81526001600160a01b038516906323b872dd9061240290869086908690600401614df4565b6020604051808303816000875af1158015612421573d6000803e3d6000fd5b505050506040513d601f19601f820116820180604052508101906124459190614c7a565b61188b5760405162461bcd60e51b815260040161166c90614e42565b60006001600160a01b03821661248a5760405163d92e233d60e01b815260040160405180910390fd5b6000612494612666565b905060006124a06120bb565b90506000826000036124b35750846124f8565b858211156124e0576124c58683614b07565b6124cf8488614b28565b6124d99190614b5d565b90506124f8565b60405162461bcd60e51b815260040161166c90614e78565b8060000361250c5760009350505050610f89565b610fc481866125cd565b6001600160a01b0381166000908152600b602052604090205482111561254f57604051633999656760e01b815260040160405180910390fd5b6001600160a01b0381166000908152600b602052604081208054849290612577908490614b07565b9250508190555081600d60008282546125909190614b07565b90915550506040516000906001600160a01b038316906000805160206150d8833981519152906125c19086906141e6565b60405180910390a35050565b6001600160a01b0381166125f45760405163d92e233d60e01b815260040160405180910390fd5b6001600160a01b0381166000908152600b60205260408120805484929061261c908490614af4565b9250508190555081600d60008282546126359190614af4565b90915550506040516001600160a01b038216906000906000805160206150d8833981519152906125c19086906141e6565b6000612670613103565b600d54610f539190614b07565b6001600160a01b038084166000908152600c6020908152604080832093861683529290522054818110156126c45760405163017e286b60e51b815260040160405180910390fd5b6126d884846126d38585614b07565b612229565b5050505050565b6001600160a01b0383166000908152600b6020526040902054818110156127195760405163356680b760e01b815260040160405180910390fd5b6001600160a01b038416158061273657506001600160a01b038316155b156127545760405163d92e233d60e01b815260040160405180910390fd5b61275e8282614b07565b6001600160a01b038086166000908152600b6020526040808220939093559085168152205461278d8382614af4565b6001600160a01b038086166000818152600b602052604090819020939093559151908716906000805160206150d8833981519152906127cd9087906141e6565b60405180910390a35050505050565b6120768133613fb5565b6127f08282611a75565b61167f576000828152602080805260408083206001600160a01b03851684529091529020805460ff191660011790556128263390565b6001600160a01b0316816001600160a01b0316837f2f8788117e7eff1d82e926ec794901d17c78024a50270940304540a733656f0d60405160405180910390a45050565b6001600160a01b0383166000908152600b6020526040812054819061288f90826120f6565b6014549091506001600160a01b03161561293157601454604051632319b8cf60e01b81526000916001600160a01b031690632319b8cf906128d890899089908990600401614ee5565b6020604051808303816000875af11580156128f7573d6000803e3d6000fd5b505050506040513d601f19601f8201168201806040525081019061291b9190614aa2565b905081811015612929578091505b509050611075565b600f5480821115612c2b57835181906000908190158015906129565750600a5460ff16155b6129ba5760098054806020026020016040519081016040528092919081815260200182805480156129b057602002820191906000526020600020905b81546001600160a01b03168152600190910190602001808311612992575b50505050506129bc565b865b905060005b8151811015612c245760008282815181106129de576129de614f12565b6020026020010151905060046000826001600160a01b03166001600160a01b0316815260200190815260200160002060000154600003612a3157604051630631bc2160e51b815260040160405180910390fd5b6000612a61612a40878a614b07565b6001600160a01b03841660009081526004602052604090206002015461236f565b90506000612a6f8383612d71565b90506000836001600160a01b03166307a2d13a856001600160a01b031663d905777e306040518263ffffffff1660e01b8152600401612aae91906141d2565b602060405180830381865afa158015612acb573d6000803e3d6000fd5b505050506040513d601f19601f82011682018060405250810190612aef9190614aa2565b6040518263ffffffff1660e01b8152600401612b0b91906141e6565b602060405180830381865afa158015612b28573d6000803e3d6000fd5b505050506040513d601f19601f82011682018060405250810190612b4c9190614aa2565b9050612b588284614b07565b811015612b835782612b6a8284614b28565b612b749190614b5d565b9150612b808282614af4565b92505b82600003612b945750505050612c12565b600082118015612ba557506127108d105b15612be5576127108d612bb8858b614af4565b612bc29190614b28565b612bcc9190614b5d565b612bd68389614af4565b1115612be55750505050612c24565b612bef8389614af4565b9750898810612c015750505050612c24565b612c0b8288614af4565b9650505050505b80612c1c81614d6c565b9150506129c1565b5091935050505b50949350505050565b612c3e8282611a75565b1561167f576000828152602080805260408083206001600160a01b0385168085529252808320805460ff1916905551339285917ff6391f5c32d9c69d2a47ea670b442974b53935d1edc7fd64eb21e047a839171b9190a45050565b60006001600160a01b038216301480612cb957506001600160a01b038216155b15612cc657506000919050565b6013546001600160a01b03168015612d4557604051632355178960e11b81526001600160a01b038216906346aa2f1290612d049086906004016141d2565b602060405180830381865afa158015612d21573d6000803e3d6000fd5b505050506040513d601f19601f820116820180604052508101906110759190614aa2565b6000612d4f6120bb565b601154909150808210612d6757506000949350505050565b610fc48282614b07565b600080546040516339ebf82360e01b815282916001600160a01b0316906339ebf82390612da29087906004016141d2565b608060405180830381865afa158015612dbf573d6000803e3d6000fd5b505050506040513d601f19601f82011682018060405250810190612de39190614c01565b50925050506000846001600160a01b03166370a08231306040518263ffffffff1660e01b8152600401612e1691906141d2565b602060405180830381865afa158015612e33573d6000803e3d6000fd5b505050506040513d601f19601f82011682018060405250810190612e579190614aa2565b90506000856001600160a01b03166307a2d13a836040518263ffffffff1660e01b8152600401612e8791906141e6565b602060405180830381865afa158015612ea4573d6000803e3d6000fd5b505050506040513d601f19601f82011682018060405250810190612ec89190614aa2565b90508281101580612ed7575082155b15612ee85760009350505050610f89565b6000612ef48287614b28565b90506000612f028583614b5d565b612f0c9088614b07565b9050612f188583614de0565b15611f3457612f28600182614af4565b98975050505050505050565b6001600160a01b038084166000908152600c602090815260408083209386168352929052908120548190611f90908490614af4565b601854600090600160a01b900460ff161515600103612f9b57604051630f3c386760e01b815260040160405180910390fd5b612fa483612c99565b821115612fc4576040516325d16c5160e01b815260040160405180910390fd5b60008211612fe557604051637c946ed760e01b815260040160405180910390fd5b6040516323b872dd60e01b81526001600160a01b037f000000000000000000000000000000000000000000000000000000000000000016906323b872dd9061303590329030908790600401614df4565b6020604051808303816000875af1158015613054573d6000803e3d6000fd5b505050506040513d601f19601f820116820180604052508101906130789190614c7a565b5081600f600082825461308b9190614af4565b909155506000905061309d8385612461565b9050600081116130c057604051637c946ed760e01b815260040160405180910390fd5b836001600160a01b0316856001600160a01b031660008051602061513883398151915285846040516130f3929190614619565b60405180910390a3949350505050565b600080600260009054906101000a90046001600160a01b03166001600160a01b0316632d6326926040518163ffffffff1660e01b8152600401602060405180830381865afa158015613159573d6000803e3d6000fd5b505050506040513d601f19601f8201168201806040525081019061317d9190614aa2565b905060004282111561322f5764e8d4a51000601c544261319d9190614b07565b600260009054906101000a90046001600160a01b03166001600160a01b0316635141eebb6040518163ffffffff1660e01b8152600401602060405180830381865afa1580156131f0573d6000803e3d6000fd5b505050506040513d601f19601f820116820180604052508101906132149190614aa2565b61321e9190614b28565b6132289190614b5d565b9050610f89565b8115610f895750306000908152600b602052604090205492915050565b601854600090600160a01b900460ff16151560010361327e57604051630f3c386760e01b815260040160405180910390fd5b600061328b8360016120f6565b9050600081116132ae57604051637c946ed760e01b815260040160405180910390fd5b6132b784612c99565b8111156132d7576040516325d16c5160e01b815260040160405180910390fd5b6040516323b872dd60e01b81526001600160a01b037f000000000000000000000000000000000000000000000000000000000000000016906323b872dd9061332790889030908690600401614df4565b6020604051808303816000875af1158015613346573d6000803e3d6000fd5b505050506040513d601f19601f8201168201806040525081019061336a9190614c7a565b5080600f600082825461337d9190614af4565b9091555061338d905083856125cd565b836001600160a01b0316856001600160a01b031660008051602061513883398151915283866040516130f3929190614619565b600061345e836001600160a01b0316630a28a477846040518263ffffffff1660e01b81526004016133f191906141e6565b602060405180830381865afa15801561340e573d6000803e3d6000fd5b505050506040513d601f19601f820116820180604052508101906134329190614aa2565b6040516370a0823160e01b81526001600160a01b038616906370a08231906111529030906004016141d2565b604051635d043b2960e11b81529091506001600160a01b0384169063ba0876529061349190849030908190600401614f28565b6020604051808303816000875af11580156134b0573d6000803e3d6000fd5b505050506040513d601f19601f8201168201806040525081019061188b9190614aa2565b6001600160a01b03831615806134f157506001600160a01b038216155b1561350f5760405163d92e233d60e01b815260040160405180910390fd5b60405163a9059cbb60e01b81526001600160a01b0384169063a9059cbb9061353d9085908590600401614b1a565b6020604051808303816000875af115801561355c573d6000803e3d6000fd5b505050506040513d601f19601f820116820180604052508101906135809190614c7a565b6115f15760405162461bcd60e51b815260040161166c90614e42565b6001600160a01b0384166135c35760405163d92e233d60e01b815260040160405180910390fd5b6127108111156135e657604051631a7ed0a160e31b815260040160405180910390fd5b6000821161360757604051637c946ed760e01b815260040160405180910390fd5b6001600160a01b0383166000908152600b602052604090205482111561188b57604051633999656760e01b815260040160405180910390fd5b826001600160a01b0316826001600160a01b0316146115f1576115f183838361267d565b60008060006040518060c00160405280868152602001600f548152602001600e548152602001600081526020017f00000000000000000000000000000000000000000000000000000000000000006001600160a01b03166370a08231306040518263ffffffff1660e01b81526004016136dd91906141d2565b602060405180830381865afa1580156136fa573d6000803e3d6000fd5b505050506040513d601f19601f8201168201806040525081019061371e9190614aa2565b8152600060209182015281015181519192501015613f02576060600085516000141580156137be575060008054906101000a90046001600160a01b03166001600160a01b031663bbe4eb496040518163ffffffff1660e01b8152600401602060405180830381865afa158015613798573d6000803e3d6000fd5b505050506040513d601f19601f820116820180604052508101906137bc9190614c7a565b155b156137ce5750508351849061383e565b60008054604080516329f3cef560e01b815290516001600160a01b03909216926329f3cef5926004808401938290030181865afa158015613813573d6000803e3d6000fd5b505050506040513d6000823e601f3d908101601f1916820160405261383b9190810190614fd0565b91505b6020830151835161384f9190614b07565b606084015260005b8251811015613ed057600083828151811061387457613874614f12565b6020908102919091010151600080546040516339ebf82360e01b815292935090916001600160a01b03909116906339ebf823906138b59085906004016141d2565b608060405180830381865afa1580156138d2573d6000803e3d6000fd5b505050506040513d601f19601f820116820180604052508101906138f69190614c01565b50505090508060000361391c57604051630631bc2160e51b815260040160405180910390fd5b600080546040516339ebf82360e01b81526001600160a01b03909116906339ebf8239061394d9086906004016141d2565b608060405180830381865afa15801561396a573d6000803e3d6000fd5b505050506040513d601f19601f8201168201806040525081019061398e9190614c01565b509250505060006139a388606001518361236f565b90506000846001600160a01b03166307a2d13a866001600160a01b031663d905777e306040518263ffffffff1660e01b81526004016139e291906141d2565b602060405180830381865afa1580156139ff573d6000803e3d6000fd5b505050506040513d601f19601f82011682018060405250810190613a239190614aa2565b6040518263ffffffff1660e01b8152600401613a3f91906141e6565b602060405180830381865afa158015613a5c573d6000803e3d6000fd5b505050506040513d601f19601f82011682018060405250810190613a809190614aa2565b90506000613a8e8684612d71565b90508015613be057613aa08184614b07565b821015613ada576000613ab38285614b07565b905080613ac08484614b28565b613aca9190614b5d565b9150613ad68284614af4565b9350505b613ae48184614b07565b9250808a600001818151613af89190614b07565b90525060608a018051829190613b0f908390614b07565b90525060408a018051829190613b26908390614b07565b90525081158015613b375750600081115b15613be0576000613b488286614b07565b600054604051631bb212a560e11b81529192506001600160a01b031690633764254a90613b7b908a908590600401614b1a565b600060405180830381600087803b158015613b9557600080fd5b505af1158015613ba9573d6000803e3d6000fd5b50505050866001600160a01b03166000805160206151588339815191528683604051613bd6929190614619565b60405180910390a2505b613bea838361236f565b925082600003613bff57505050505050613ebe565b613c0986846133c0565b6040516370a0823160e01b81526000906001600160a01b037f000000000000000000000000000000000000000000000000000000000000000016906370a0823190613c589030906004016141d2565b602060405180830381865afa158015613c75573d6000803e3d6000fd5b505050506040513d601f19601f82011682018060405250810190613c999190614aa2565b905060008b6080015182613cad9190614b07565b9050600085821115613ce45786821115613cc957869550613cf9565b613cd38683614b07565b613cdd9087614af4565b9550613cf9565b85821015613cf957613cf68287614b07565b90505b600081878f60200151613d0c9190614af4565b613d169190614b07565b11613d2757600060208e0152613d46565b613d318187614b07565b8d602001818151613d429190614af4565b9052505b8c51600090613d56908390614b07565b11613d645760008d52613d7a565b808d600001818151613d769190614b07565b9052505b6000868e60400151613d8c9190614b07565b11613d9d57600060408e0152613db3565b858d604001818151613daf9190614b07565b9052505b6000613dbf8588614af4565b881015613dce57506000613de5565b613dd88588614af4565b613de29089614b07565b90505b600054604051631bb212a560e11b81526001600160a01b0390911690633764254a90613e17908d908590600401614b1a565b600060405180830381600087803b158015613e3157600080fd5b505af1158015613e45573d6000803e3d6000fd5b50505050896001600160a01b03166000805160206151588339815191528983604051613e72929190614619565b60405180910390a260208e01518e5111613e955750505050505050505050613ed0565b60808e0184905260608e018051889190613eb0908390614b07565b905250505050505050505050505b80613ec881614d6c565b915050613857565b50825160208401511015613ef7576040516396d8043360e01b815260040160405180910390fd5b50506040810151600e555b8051602090910151909590945092505050565b8284118015613f25575061271081105b15613f6a57612710613f378286614b28565b613f419190614b5d565b613f4b8486614b07565b1115613f6a576040516307f65e3960e11b815260040160405180910390fd5b613f748587612516565b613f7e8383614b07565b600f55613fac7f000000000000000000000000000000000000000000000000000000000000000088856134d4565b50505050505050565b613fbf8282611a75565b61167f57613fcc8161400e565b613fd7836020614020565b604051602001613fe892919061502c565b60408051601f198184030181529082905262461bcd60e51b825261166c9160040161446c565b6060610f896001600160a01b03831660145b6060600061402f836002614b28565b61403a906002614af4565b6001600160401b038111156140515761405161427c565b6040519080825280601f01601f19166020018201604052801561407b576020820181803683370190505b509050600360fc1b8160008151811061409657614096614f12565b60200101906001600160f81b031916908160001a905350600f60fb1b816001815181106140c5576140c5614f12565b60200101906001600160f81b031916908160001a90535060006140e9846002614b28565b6140f4906001614af4565b90505b600181111561416c576f181899199a1a9b1b9c1cb0b131b232b360811b85600f166010811061412857614128614f12565b1a60f81b82828151811061413e5761413e614f12565b60200101906001600160f81b031916908160001a90535060049490941c936141658161507e565b90506140f7565b5083156110755760405162461bcd60e51b815260040161166c906150c7565b60405180606001604052806000815260200160008152602001600081525090565b6001600160a01b031690565b6000610f89826141ac565b6141cc816141b8565b82525050565b60208101610f8982846141c3565b806141cc565b60208101610f8982846141e0565b6001600160e01b031981165b811461207657600080fd5b8035610f89816141f4565b60006020828403121561422b5761422b600080fd5b60006119a8848461420b565b8015156141cc565b60208101610f898284614237565b80614200565b8035610f898161424d565b614200816141b8565b8035610f898161425e565b601f01601f191690565b634e487b7160e01b600052604160045260246000fd5b61429b82614272565b81018181106001600160401b03821117156142b8576142b861427c565b6040525050565b60006142ca60405190565b90506142d68282614292565b919050565b60006001600160401b038211156142f4576142f461427c565b5060209081020190565b600061431161430c846142db565b6142bf565b8381529050602080820190840283018581111561433057614330600080fd5b835b8181101561435457806143458882614267565b84525060209283019201614332565b5050509392505050565b600082601f83011261437257614372600080fd5b81356119a88482602086016142fe565b600080600080600060a0868803121561439d5761439d600080fd5b60006143a98888614253565b95505060206143ba88828901614267565b94505060406143cb88828901614267565b93505060606143dc88828901614253565b92505060808601356001600160401b038111156143fb576143fb600080fd5b6144078882890161435e565b9150509295509295909350565b60005b8381101561442f578181015183820152602001614417565b50506000910152565b6000614442825190565b808452602084019350614459818560208601614414565b61446281614272565b9093019392505050565b602080825281016110758184614438565b60006020828403121561449257614492600080fd5b60006119a88484614253565b600080604083850312156144b4576144b4600080fd5b60006144c08585614267565b92505060206144d185828601614253565b9150509250929050565b6000606082840312156144f0576144f0600080fd5b6144fa60606142bf565b905060006145088484614253565b825250602061451984848301614253565b602083015250604061452d84828501614253565b60408301525092915050565b60006080828403121561454e5761454e600080fd5b61455860806142bf565b905060006145668484614253565b825250602061457784848301614253565b602083015250604061458b84828501614253565b604083015250606061459f84828501614267565b60608301525092915050565b600080600080600061014086880312156145c7576145c7600080fd5b60006145d388886144db565b95505060606145e488828901614539565b94505060e06145f588828901614253565b93505061010061460788828901614253565b92505061012061440788828901614267565b6040810161462782856141e0565b61107560208301846141e0565b600080600080600060a0868803121561464f5761464f600080fd5b600061465b8888614253565b955050602061466c88828901614253565b945050604061467d88828901614253565b935050606061468e88828901614253565b925050608061440788828901614267565b805160608301906146b084826141e0565b5060208201516146c360208501826141e0565b50604082015161188b60408501826141e0565b60608101610f89828461469f565b6000806000606084860312156146fc576146fc600080fd5b60006147088686614267565b935050602061471986828701614267565b925050604061472a86828701614253565b9150509250925092565b60ff81166141cc565b60208101610f898284614734565b6000806040838503121561476157614761600080fd5b600061476d8585614253565b92505060206144d185828601614267565b60008060006060848603121561479657614796600080fd5b60006147a28686614267565b93505060206147b386828701614253565b92505060408401356001600160401b038111156147d2576147d2600080fd5b61472a8682870161435e565b6000602082840312156147f3576147f3600080fd5b60006119a88484614267565b6080810161480d82876141e0565b61481a60208301866141e0565b61482760408301856141e0565b610fc460608301846141e0565b6000806040838503121561484a5761484a600080fd5b60006144c08585614253565b6000806000806080858703121561486f5761486f600080fd5b600061487b8787614267565b945050602061488c87828801614267565b935050604061489d87828801614267565b92505060606148ae87828801614253565b91505092959194509250565b6000610f896148ce6148cb846141ac565b90565b6141ac565b6000610f89826148ba565b6000610f89826148d3565b6141cc816148de565b60208101610f8982846148e9565b6000806040838503121561491657614916600080fd5b600061476d8585614267565b6002811061207657600080fd5b8035610f8981614922565b6000806040838503121561495057614950600080fd5b600061495c8585614253565b92505060206144d18582860161492f565b6080810161497b82876141e0565b61498860208301866141e0565b61499560408301856141e0565b610fc460608301846141c3565b60ff8116614200565b8035610f89816149a2565b600080600080600080600060e0888a0312156149d4576149d4600080fd5b60006149e08a8a614267565b97505060206149f18a828b01614267565b9650506040614a028a828b01614253565b9550506060614a138a828b01614253565b9450506080614a248a828b016149ab565b93505060a0614a358a828b01614253565b92505060c0614a468a828b01614253565b91505092959891949750929550565b634e487b7160e01b600052602260045260246000fd5b600281046001821680614a7f57607f821691505b602082108103614a9157614a91614a55565b50919050565b8051610f898161424d565b600060208284031215614ab757614ab7600080fd5b60006119a88484614a97565b60408101614ad182856141c3565b61107560208301846141c3565b634e487b7160e01b600052601160045260246000fd5b80820180821115610f8957610f89614ade565b81810381811115610f8957610f89614ade565b6040810161462782856141c3565b6000816000190483118215151615614b4257614b42614ade565b500290565b634e487b7160e01b600052601260045260246000fd5b600082614b6c57614b6c614b47565b500490565b60208082528101610f8981602f81527f416363657373436f6e74726f6c3a2063616e206f6e6c792072656e6f756e636560208201526e103937b632b9903337b91039b2b63360891b604082015260600190565b6013815260006020820172185b1c9958591e481a5b9a5d1a585b1a5e9959606a1b815291505b5060200190565b60208082528101610f8981614bc4565b60008060008060808587031215614c1a57614c1a600080fd5b6000614c268787614a97565b9450506020614c3787828801614a97565b9350506040614c4887828801614a97565b92505060606148ae87828801614a97565b60408101614ad182856141e0565b801515614200565b8051610f8981614c67565b600060208284031215614c8f57614c8f600080fd5b60006119a88484614c6f565b600f81526000602082016e185c1c1c9bdd985b0819985a5b1959608a1b81529150614bea565b60208082528101610f8981614c9b565b60c08101614cdf82896141e0565b614cec60208301886141c3565b614cf960408301876141c3565b614d0660608301866141e0565b614d1360808301856141e0565b611f3460a08301846141e0565b61190160f01b81526002016000614d3782856141e0565b602082019150614d4782846141e0565b5060200192915050565b60808101614d5f82876141e0565b61481a6020830186614734565b60006000198203614d7f57614d7f614ade565b5060010190565b601f81526000602082017f5265656e7472616e637947756172643a207265656e7472616e742063616c6c0081529150614bea565b60208082528101610f8981614d86565b634e487b7160e01b600052602160045260246000fd5b600082614def57614def614b47565b500690565b60608101614e0282866141c3565b614e0f60208301856141c3565b6119a860408301846141e0565b600f81526000602082016e1d1c985b9cd9995c8819985a5b1959608a1b81529150614bea565b60208082528101610f8981614e1c565b600f81526000602082016e0c2dadeeadce840e8dede40d0d2ced608b1b81529150614bea565b60208082528101610f8981614e52565b6000614e9483836141c3565b505060200190565b6000614ea6825190565b80845260209384019383018060005b83811015614eda578151614ec98882614e88565b975060208301925050600101614eb5565b509495945050505050565b60608101614ef382866141c3565b614f0060208301856141e0565b8181036040830152610fc48184614e9c565b634e487b7160e01b600052603260045260246000fd5b60608101614f3682866141e0565b614f4360208301856141c3565b6119a860408301846141c3565b8051610f898161425e565b6000614f6961430c846142db565b83815290506020808201908402830185811115614f8857614f88600080fd5b835b818110156143545780614f9d8882614f50565b84525060209283019201614f8a565b600082601f830112614fc057614fc0600080fd5b81516119a8848260208601614f5b565b600060208284031215614fe557614fe5600080fd5b81516001600160401b03811115614ffe57614ffe600080fd5b6119a884828501614fac565b6000615014825190565b615022818560208601614414565b9290920192915050565b76020b1b1b2b9b9a1b7b73a3937b61d1030b1b1b7bab73a1604d1b81526017016000615058828561500a565b7001034b99036b4b9b9b4b733903937b6329607d1b815260110191506119a8828461500a565b60008161508d5761508d614ade565b506000190190565b60208082527f537472696e67733a20686578206c656e67746820696e73756666696369656e7491019081526000614bea565b60208082528101610f898161509556feddf252ad1be2c89b69c2b068fc378daa952ba7f163c4a11628f55a4df523b3ef6e71edae12b1b97f4d1f60370fef10105fa2faae0126114a169c64845d6126c98c5be1e5ebec7d5bd14f71427d1e84f3dd0314c0f7b2291e5b200ac8c7c3b925dcbc1c05240f31ff3ad067ef1ee35ce4997762752e3a095284754544f4c709d75e2b8821ad6e0e26207e0cb4d242d07eeb1cbb1cfd853e645bdcd27cc5484f95a26469706673582212206da9c66faf887eeb3ad445fefdd6681b8fe472a40f47eccbaa053168f16244ba64736f6c63430008100033",
  "devdoc": {
    "kind": "dev",
    "methods": {
      "allowance(address,address)": {
        "details": "Returns the remaining number of tokens that `spender` will be allowed to spend on behalf of `owner` through {transferFrom}. This is zero by default. This value changes when {approve} or {transferFrom} are called."
      },
      "approve(address,uint256)": {
        "details": "Sets `amount` as the allowance of `spender` over the caller's tokens. Returns a boolean value indicating whether the operation succeeded. IMPORTANT: Beware that changing an allowance with this method brings the risk that someone may use both the old and the new allowance by unfortunate transaction ordering. One possible solution to mitigate this race condition is to first reduce the spender's allowance to 0 and set the desired value afterwards: https://github.com/ethereum/EIPs/issues/20#issuecomment-263524729 Emits an {Approval} event."
      },
      "asset()": {
        "details": "Returns the address of the underlying token used for the Vault for accounting, depositing, and withdrawing. - MUST be an ERC-20 token contract. - MUST NOT revert."
      },
      "convertToAssets(uint256)": {
        "details": "Returns the amount of assets that the Vault would exchange for the amount of shares provided, in an ideal scenario where all the conditions are met. - MUST NOT be inclusive of any fees that are charged against assets in the Vault. - MUST NOT show any variations depending on the caller. - MUST NOT reflect slippage or other on-chain conditions, when performing the actual exchange. - MUST NOT revert. NOTE: This calculation MAY NOT reflect the per-user price-per-share, and instead should reflect the average-users price-per-share, meaning what the average user should expect to see when exchanging to and from."
      },
      "convertToShares(uint256)": {
        "details": "Returns the amount of shares that the Vault would exchange for the amount of assets provided, in an ideal scenario where all the conditions are met. - MUST NOT be inclusive of any fees that are charged against assets in the Vault. - MUST NOT show any variations depending on the caller. - MUST NOT reflect slippage or other on-chain conditions, when performing the actual exchange. - MUST NOT revert. NOTE: This calculation MAY NOT reflect the per-user price-per-share, and instead should reflect the average-users price-per-share, meaning what the average user should expect to see when exchanging to and from."
      },
      "decimals()": {
        "details": "Returns the decimals places of the token."
      },
      "deposit(uint256,address)": {
        "details": "Mints shares Vault shares to receiver by depositing exactly amount of underlying tokens. - MUST emit the Deposit event. - MAY support an additional flow in which the underlying tokens are owned by the Vault contract before the   deposit execution, and are accounted for during deposit. - MUST revert if all of assets cannot be deposited (due to deposit limit being reached, slippage, the user not   approving enough underlying tokens to the Vault contract, etc). NOTE: most implementations will require pre-approval of the Vault with the Vaults underlying asset token."
      },
      "getRoleAdmin(bytes32)": {
        "details": "Returns the admin role that controls `role`. See {grantRole} and {revokeRole}. To change a role's admin, use {_setRoleAdmin}."
      },
      "grantRole(bytes32,address)": {
        "details": "Grants `role` to `account`. If `account` had not been already granted `role`, emits a {RoleGranted} event. Requirements: - the caller must have ``role``'s admin role. May emit a {RoleGranted} event."
      },
      "hasRole(bytes32,address)": {
        "details": "Returns `true` if `account` has been granted `role`."
      },
      "maxDeposit(address)": {
        "details": "Returns the maximum amount of the underlying asset that can be deposited into the Vault for the receiver, through a deposit call. - MUST return a limited value if receiver is subject to some deposit limit. - MUST return 2 ** 256 - 1 if there is no limit on the maximum amount of assets that may be deposited. - MUST NOT revert."
      },
      "maxMint(address)": {
        "details": "Returns the maximum amount of the Vault shares that can be minted for the receiver, through a mint call. - MUST return a limited value if receiver is subject to some mint limit. - MUST return 2 ** 256 - 1 if there is no limit on the maximum amount of shares that may be minted. - MUST NOT revert."
      },
      "mint(uint256,address)": {
        "details": "Mints exactly shares Vault shares to receiver by depositing amount of underlying tokens. - MUST emit the Deposit event. - MAY support an additional flow in which the underlying tokens are owned by the Vault contract before the mint   execution, and are accounted for during mint. - MUST revert if all of shares cannot be minted (due to deposit limit being reached, slippage, the user not   approving enough underlying tokens to the Vault contract, etc). NOTE: most implementations will require pre-approval of the Vault with the Vaults underlying asset token."
      },
      "previewDeposit(uint256)": {
        "details": "Allows an on-chain or off-chain user to simulate the effects of their deposit at the current block, given current on-chain conditions. - MUST return as close to and no more than the exact amount of Vault shares that would be minted in a deposit   call in the same transaction. I.e. deposit should return the same or more shares as previewDeposit if called   in the same transaction. - MUST NOT account for deposit limits like those returned from maxDeposit and should always act as though the   deposit would be accepted, regardless if the user has enough tokens approved, etc. - MUST be inclusive of deposit fees. Integrators should be aware of the existence of deposit fees. - MUST NOT revert. NOTE: any unfavorable discrepancy between convertToShares and previewDeposit SHOULD be considered slippage in share price or some other type of condition, meaning the depositor will lose assets by depositing."
      },
      "previewMint(uint256)": {
        "details": "Allows an on-chain or off-chain user to simulate the effects of their mint at the current block, given current on-chain conditions. - MUST return as close to and no fewer than the exact amount of assets that would be deposited in a mint call   in the same transaction. I.e. mint should return the same or fewer assets as previewMint if called in the   same transaction. - MUST NOT account for mint limits like those returned from maxMint and should always act as though the mint   would be accepted, regardless if the user has enough tokens approved, etc. - MUST be inclusive of deposit fees. Integrators should be aware of the existence of deposit fees. - MUST NOT revert. NOTE: any unfavorable discrepancy between convertToAssets and previewMint SHOULD be considered slippage in share price or some other type of condition, meaning the depositor will lose assets by minting."
      },
      "previewRedeem(uint256)": {
        "details": "Allows an on-chain or off-chain user to simulate the effects of their redeemption at the current block, given current on-chain conditions. - MUST return as close to and no more than the exact amount of assets that would be withdrawn in a redeem call   in the same transaction. I.e. redeem should return the same or more assets as previewRedeem if called in the   same transaction. - MUST NOT account for redemption limits like those returned from maxRedeem and should always act as though the   redemption would be accepted, regardless if the user has enough shares, etc. - MUST be inclusive of withdrawal fees. Integrators should be aware of the existence of withdrawal fees. - MUST NOT revert. NOTE: any unfavorable discrepancy between convertToAssets and previewRedeem SHOULD be considered slippage in share price or some other type of condition, meaning the depositor will lose assets by redeeming."
      },
      "previewWithdraw(uint256)": {
        "details": "Allows an on-chain or off-chain user to simulate the effects of their withdrawal at the current block, given current on-chain conditions. - MUST return as close to and no fewer than the exact amount of Vault shares that would be burned in a withdraw   call in the same transaction. I.e. withdraw should return the same or fewer shares as previewWithdraw if   called   in the same transaction. - MUST NOT account for withdrawal limits like those returned from maxWithdraw and should always act as though   the withdrawal would be accepted, regardless if the user has enough shares, etc. - MUST be inclusive of withdrawal fees. Integrators should be aware of the existence of withdrawal fees. - MUST NOT revert. NOTE: any unfavorable discrepancy between convertToShares and previewWithdraw SHOULD be considered slippage in share price or some other type of condition, meaning the depositor will lose assets by depositing."
      },
      "renounceRole(bytes32,address)": {
        "details": "Revokes `role` from the calling account. Roles are often managed via {grantRole} and {revokeRole}: this function's purpose is to provide a mechanism for accounts to lose their privileges if they are compromised (such as when a trusted device is misplaced). If the calling account had been revoked `role`, emits a {RoleRevoked} event. Requirements: - the caller must be `account`. May emit a {RoleRevoked} event."
      },
      "revokeRole(bytes32,address)": {
        "details": "Revokes `role` from `account`. If `account` had been granted `role`, emits a {RoleRevoked} event. Requirements: - the caller must have ``role``'s admin role. May emit a {RoleRevoked} event."
      },
      "supportsInterface(bytes4)": {
        "details": "See {IERC165-supportsInterface}."
      },
      "totalAssets()": {
        "details": "Returns the total amount of the underlying asset that is managed by Vault. - SHOULD include any compounding that occurs from yield. - MUST be inclusive of any fees that are charged against assets in the Vault. - MUST NOT revert."
      },
      "totalSupply()": {
        "details": "Returns the amount of tokens in existence."
      }
    },
    "stateVariables": {
      "name": {
        "details": "Returns the name of the token."
      },
      "symbol": {
        "details": "Returns the symbol of the token."
      }
    },
    "title": "STRATEGY MANAGEMENT",
    "version": 1
  },
  "userdoc": {
    "kind": "user",
    "methods": {},
    "version": 1
  },
  "storageLayout": {
    "storage": [
      {
        "astId": 9459,
        "contract": "contracts/SharesManager.sol:SharesManager",
        "label": "strategyManager",
        "offset": 0,
        "slot": "0",
        "type": "t_address"
      },
      {
        "astId": 9461,
        "contract": "contracts/SharesManager.sol:SharesManager",
        "label": "sharesManager",
        "offset": 0,
        "slot": "1",
        "type": "t_address"
      },
      {
        "astId": 9463,
        "contract": "contracts/SharesManager.sol:SharesManager",
        "label": "setters",
        "offset": 0,
        "slot": "2",
        "type": "t_address"
      },
      {
        "astId": 9465,
        "contract": "contracts/SharesManager.sol:SharesManager",
        "label": "governance",
        "offset": 0,
        "slot": "3",
        "type": "t_address"
      },
      {
        "astId": 9470,
        "contract": "contracts/SharesManager.sol:SharesManager",
        "label": "strategies",
        "offset": 0,
        "slot": "4",
        "type": "t_mapping(t_address,t_struct(StrategyParams)9631_storage)"
      },
      {
        "astId": 9473,
        "contract": "contracts/SharesManager.sol:SharesManager",
        "label": "fees",
        "offset": 0,
        "slot": "5",
        "type": "t_struct(FeeAssessment)9640_storage"
      },
      {
        "astId": 9476,
        "contract": "contracts/SharesManager.sol:SharesManager",
        "label": "defaultQueue",
        "offset": 0,
        "slot": "9",
        "type": "t_array(t_address)dyn_storage"
      },
      {
        "astId": 9478,
        "contract": "contracts/SharesManager.sol:SharesManager",
        "label": "useDefaultQueue",
        "offset": 0,
        "slot": "10",
        "type": "t_bool"
      },
      {
        "astId": 9480,
        "contract": "contracts/SharesManager.sol:SharesManager",
        "label": "initialized",
        "offset": 1,
        "slot": "10",
        "type": "t_bool"
      },
      {
        "astId": 9484,
        "contract": "contracts/SharesManager.sol:SharesManager",
        "label": "_balanceOf",
        "offset": 0,
        "slot": "11",
        "type": "t_mapping(t_address,t_uint256)"
      },
      {
        "astId": 9490,
        "contract": "contracts/SharesManager.sol:SharesManager",
        "label": "_allowance",
        "offset": 0,
        "slot": "12",
        "type": "t_mapping(t_address,t_mapping(t_address,t_uint256))"
      },
      {
        "astId": 9492,
        "contract": "contracts/SharesManager.sol:SharesManager",
        "label": "totalSupplyAmount",
        "offset": 0,
        "slot": "13",
        "type": "t_uint256"
      },
      {
        "astId": 9494,
        "contract": "contracts/SharesManager.sol:SharesManager",
        "label": "totalDebtAmount",
        "offset": 0,
        "slot": "14",
        "type": "t_uint256"
      },
      {
        "astId": 9496,
        "contract": "contracts/SharesManager.sol:SharesManager",
        "label": "totalIdleAmount",
        "offset": 0,
        "slot": "15",
        "type": "t_uint256"
      },
      {
        "astId": 9498,
        "contract": "contracts/SharesManager.sol:SharesManager",
        "label": "minimumTotalIdle",
        "offset": 0,
        "slot": "16",
        "type": "t_uint256"
      },
      {
        "astId": 9500,
        "contract": "contracts/SharesManager.sol:SharesManager",
        "label": "depositLimit",
        "offset": 0,
        "slot": "17",
        "type": "t_uint256"
      },
      {
        "astId": 9502,
        "contract": "contracts/SharesManager.sol:SharesManager",
        "label": "accountant",
        "offset": 0,
        "slot": "18",
        "type": "t_address"
      },
      {
        "astId": 9504,
        "contract": "contracts/SharesManager.sol:SharesManager",
        "label": "depositLimitModule",
        "offset": 0,
        "slot": "19",
        "type": "t_address"
      },
      {
        "astId": 9506,
        "contract": "contracts/SharesManager.sol:SharesManager",
        "label": "withdrawLimitModule",
        "offset": 0,
        "slot": "20",
        "type": "t_address"
      },
      {
        "astId": 9510,
        "contract": "contracts/SharesManager.sol:SharesManager",
        "label": "roles",
        "offset": 0,
        "slot": "21",
        "type": "t_mapping(t_address,t_bytes32)"
      },
      {
        "astId": 9514,
        "contract": "contracts/SharesManager.sol:SharesManager",
        "label": "openRoles",
        "offset": 0,
        "slot": "22",
        "type": "t_mapping(t_bytes32,t_bool)"
      },
      {
        "astId": 9516,
        "contract": "contracts/SharesManager.sol:SharesManager",
        "label": "roleManager",
        "offset": 0,
        "slot": "23",
        "type": "t_address"
      },
      {
        "astId": 9518,
        "contract": "contracts/SharesManager.sol:SharesManager",
        "label": "futureRoleManager",
        "offset": 0,
        "slot": "24",
        "type": "t_address"
      },
      {
        "astId": 9520,
        "contract": "contracts/SharesManager.sol:SharesManager",
        "label": "shutdown",
        "offset": 20,
        "slot": "24",
        "type": "t_bool"
      },
      {
        "astId": 9522,
        "contract": "contracts/SharesManager.sol:SharesManager",
        "label": "profitMaxUnlockTime",
        "offset": 0,
        "slot": "25",
        "type": "t_uint256"
      },
      {
        "astId": 9524,
        "contract": "contracts/SharesManager.sol:SharesManager",
        "label": "fullProfitUnlockDate",
        "offset": 0,
        "slot": "26",
        "type": "t_uint256"
      },
      {
        "astId": 9526,
        "contract": "contracts/SharesManager.sol:SharesManager",
        "label": "profitUnlockingRate",
        "offset": 0,
        "slot": "27",
        "type": "t_uint256"
      },
      {
        "astId": 9528,
        "contract": "contracts/SharesManager.sol:SharesManager",
        "label": "lastProfitUpdate",
        "offset": 0,
        "slot": "28",
        "type": "t_uint256"
      },
      {
        "astId": 9532,
        "contract": "contracts/SharesManager.sol:SharesManager",
        "label": "nonces",
        "offset": 0,
        "slot": "29",
        "type": "t_mapping(t_address,t_uint256)"
      },
      {
        "astId": 9539,
        "contract": "contracts/SharesManager.sol:SharesManager",
        "label": "DOMAIN_SEPARATOR",
        "offset": 0,
        "slot": "30",
        "type": "t_bytes32"
      },
      {
        "astId": 399,
        "contract": "contracts/SharesManager.sol:SharesManager",
        "label": "_status",
        "offset": 0,
        "slot": "31",
        "type": "t_uint256"
      },
      {
        "astId": 24,
        "contract": "contracts/SharesManager.sol:SharesManager",
        "label": "_roles",
        "offset": 0,
        "slot": "32",
        "type": "t_mapping(t_bytes32,t_struct(RoleData)19_storage)"
      },
      {
        "astId": 4841,
        "contract": "contracts/SharesManager.sol:SharesManager",
        "label": "name",
        "offset": 0,
        "slot": "33",
        "type": "t_string_storage"
      },
      {
        "astId": 4844,
        "contract": "contracts/SharesManager.sol:SharesManager",
        "label": "symbol",
        "offset": 0,
        "slot": "34",
        "type": "t_string_storage"
      }
    ],
    "types": {
      "t_address": {
        "encoding": "inplace",
        "label": "address",
        "numberOfBytes": "20"
      },
      "t_array(t_address)dyn_storage": {
        "base": "t_address",
        "encoding": "dynamic_array",
        "label": "address[]",
        "numberOfBytes": "32"
      },
      "t_bool": {
        "encoding": "inplace",
        "label": "bool",
        "numberOfBytes": "1"
      },
      "t_bytes32": {
        "encoding": "inplace",
        "label": "bytes32",
        "numberOfBytes": "32"
      },
      "t_mapping(t_address,t_bool)": {
        "encoding": "mapping",
        "key": "t_address",
        "label": "mapping(address => bool)",
        "numberOfBytes": "32",
        "value": "t_bool"
      },
      "t_mapping(t_address,t_bytes32)": {
        "encoding": "mapping",
        "key": "t_address",
        "label": "mapping(address => bytes32)",
        "numberOfBytes": "32",
        "value": "t_bytes32"
      },
      "t_mapping(t_address,t_mapping(t_address,t_uint256))": {
        "encoding": "mapping",
        "key": "t_address",
        "label": "mapping(address => mapping(address => uint256))",
        "numberOfBytes": "32",
        "value": "t_mapping(t_address,t_uint256)"
      },
      "t_mapping(t_address,t_struct(StrategyParams)9631_storage)": {
        "encoding": "mapping",
        "key": "t_address",
        "label": "mapping(address => struct StrategyParams)",
        "numberOfBytes": "32",
        "value": "t_struct(StrategyParams)9631_storage"
      },
      "t_mapping(t_address,t_uint256)": {
        "encoding": "mapping",
        "key": "t_address",
        "label": "mapping(address => uint256)",
        "numberOfBytes": "32",
        "value": "t_uint256"
      },
      "t_mapping(t_bytes32,t_bool)": {
        "encoding": "mapping",
        "key": "t_bytes32",
        "label": "mapping(bytes32 => bool)",
        "numberOfBytes": "32",
        "value": "t_bool"
      },
      "t_mapping(t_bytes32,t_struct(RoleData)19_storage)": {
        "encoding": "mapping",
        "key": "t_bytes32",
        "label": "mapping(bytes32 => struct AccessControl.RoleData)",
        "numberOfBytes": "32",
        "value": "t_struct(RoleData)19_storage"
      },
      "t_string_storage": {
        "encoding": "bytes",
        "label": "string",
        "numberOfBytes": "32"
      },
      "t_struct(FeeAssessment)9640_storage": {
        "encoding": "inplace",
        "label": "struct FeeAssessment",
        "members": [
          {
            "astId": 9633,
            "contract": "contracts/SharesManager.sol:SharesManager",
            "label": "totalFees",
            "offset": 0,
            "slot": "0",
            "type": "t_uint256"
          },
          {
            "astId": 9635,
            "contract": "contracts/SharesManager.sol:SharesManager",
            "label": "totalRefunds",
            "offset": 0,
            "slot": "1",
            "type": "t_uint256"
          },
          {
            "astId": 9637,
            "contract": "contracts/SharesManager.sol:SharesManager",
            "label": "protocolFees",
            "offset": 0,
            "slot": "2",
            "type": "t_uint256"
          },
          {
            "astId": 9639,
            "contract": "contracts/SharesManager.sol:SharesManager",
            "label": "protocolFeeRecipient",
            "offset": 0,
            "slot": "3",
            "type": "t_address"
          }
        ],
        "numberOfBytes": "128"
      },
      "t_struct(RoleData)19_storage": {
        "encoding": "inplace",
        "label": "struct AccessControl.RoleData",
        "members": [
          {
            "astId": 16,
            "contract": "contracts/SharesManager.sol:SharesManager",
            "label": "members",
            "offset": 0,
            "slot": "0",
            "type": "t_mapping(t_address,t_bool)"
          },
          {
            "astId": 18,
            "contract": "contracts/SharesManager.sol:SharesManager",
            "label": "adminRole",
            "offset": 0,
            "slot": "1",
            "type": "t_bytes32"
          }
        ],
        "numberOfBytes": "64"
      },
      "t_struct(StrategyParams)9631_storage": {
        "encoding": "inplace",
        "label": "struct StrategyParams",
        "members": [
          {
            "astId": 9624,
            "contract": "contracts/SharesManager.sol:SharesManager",
            "label": "activation",
            "offset": 0,
            "slot": "0",
            "type": "t_uint256"
          },
          {
            "astId": 9626,
            "contract": "contracts/SharesManager.sol:SharesManager",
            "label": "lastReport",
            "offset": 0,
            "slot": "1",
            "type": "t_uint256"
          },
          {
            "astId": 9628,
            "contract": "contracts/SharesManager.sol:SharesManager",
            "label": "currentDebt",
            "offset": 0,
            "slot": "2",
            "type": "t_uint256"
          },
          {
            "astId": 9630,
            "contract": "contracts/SharesManager.sol:SharesManager",
            "label": "maxDebt",
            "offset": 0,
            "slot": "3",
            "type": "t_uint256"
          }
        ],
        "numberOfBytes": "128"
      },
      "t_uint256": {
        "encoding": "inplace",
        "label": "uint256",
        "numberOfBytes": "32"
      }
    }
  }
}