{
  "address": "0xB543AcD779E40B07657e045e3457258A7f94A2cE",
  "abi": [
    {
      "inputs": [],
      "name": "AlreadyInitialized",
      "type": "error"
    },
    {
      "inputs": [],
      "name": "DebtDidntChange",
      "type": "error"
    },
    {
      "inputs": [],
      "name": "DebtHigherThanMaxDebt",
      "type": "error"
    },
    {
      "inputs": [],
      "name": "InactiveStrategy",
      "type": "error"
    },
    {
      "inputs": [],
      "name": "InsufficientFunds",
      "type": "error"
    },
    {
      "inputs": [],
      "name": "InvalidAsset",
      "type": "error"
    },
    {
      "inputs": [],
      "name": "StrategyAlreadyActive",
      "type": "error"
    },
    {
      "inputs": [],
      "name": "StrategyDebtIsLessThanAssetsNeeded",
      "type": "error"
    },
    {
      "inputs": [],
      "name": "StrategyHasDebt",
      "type": "error"
    },
    {
      "inputs": [],
      "name": "StrategyHasUnrealisedLosses",
      "type": "error"
    },
    {
      "inputs": [],
      "name": "ZeroAddress",
      "type": "error"
    },
    {
      "inputs": [],
      "name": "ZeroValue",
      "type": "error"
    },
    {
      "anonymous": false,
      "inputs": [
        {
          "indexed": true,
          "internalType": "address",
          "name": "strategy",
          "type": "address"
        },
        {
          "indexed": false,
          "internalType": "uint256",
          "name": "amount",
          "type": "uint256"
        }
      ],
      "name": "DebtPurchased",
      "type": "event"
    },
    {
      "anonymous": false,
      "inputs": [
        {
          "indexed": true,
          "internalType": "address",
          "name": "strategy",
          "type": "address"
        },
        {
          "indexed": false,
          "internalType": "uint256",
          "name": "currentDebt",
          "type": "uint256"
        },
        {
          "indexed": false,
          "internalType": "uint256",
          "name": "newDebt",
          "type": "uint256"
        }
      ],
      "name": "DebtUpdated",
      "type": "event"
    },
    {
      "anonymous": false,
      "inputs": [
        {
          "indexed": true,
          "internalType": "bytes32",
          "name": "role",
          "type": "bytes32"
        },
        {
          "indexed": true,
          "internalType": "bytes32",
          "name": "previousAdminRole",
          "type": "bytes32"
        },
        {
          "indexed": true,
          "internalType": "bytes32",
          "name": "newAdminRole",
          "type": "bytes32"
        }
      ],
      "name": "RoleAdminChanged",
      "type": "event"
    },
    {
      "anonymous": false,
      "inputs": [
        {
          "indexed": true,
          "internalType": "bytes32",
          "name": "role",
          "type": "bytes32"
        },
        {
          "indexed": true,
          "internalType": "address",
          "name": "account",
          "type": "address"
        },
        {
          "indexed": true,
          "internalType": "address",
          "name": "sender",
          "type": "address"
        }
      ],
      "name": "RoleGranted",
      "type": "event"
    },
    {
      "anonymous": false,
      "inputs": [
        {
          "indexed": true,
          "internalType": "bytes32",
          "name": "role",
          "type": "bytes32"
        },
        {
          "indexed": true,
          "internalType": "address",
          "name": "account",
          "type": "address"
        },
        {
          "indexed": true,
          "internalType": "address",
          "name": "sender",
          "type": "address"
        }
      ],
      "name": "RoleRevoked",
      "type": "event"
    },
    {
      "anonymous": false,
      "inputs": [
        {
          "indexed": true,
          "internalType": "address",
          "name": "account",
          "type": "address"
        },
        {
          "indexed": false,
          "internalType": "bytes32",
          "name": "role",
          "type": "bytes32"
        }
      ],
      "name": "RoleSet",
      "type": "event"
    },
    {
      "anonymous": false,
      "inputs": [
        {
          "indexed": true,
          "internalType": "bytes32",
          "name": "role",
          "type": "bytes32"
        },
        {
          "indexed": true,
          "internalType": "enum RoleStatusChange",
          "name": "status",
          "type": "uint8"
        }
      ],
      "name": "RoleStatusChanged",
      "type": "event"
    },
    {
      "anonymous": false,
      "inputs": [],
      "name": "Shutdown",
      "type": "event"
    },
    {
      "anonymous": false,
      "inputs": [
        {
          "indexed": true,
          "internalType": "address",
          "name": "strategy",
          "type": "address"
        },
        {
          "indexed": false,
          "internalType": "enum StrategyChangeType",
          "name": "changeType",
          "type": "uint8"
        }
      ],
      "name": "StrategyChanged",
      "type": "event"
    },
    {
      "anonymous": false,
      "inputs": [
        {
          "indexed": true,
          "internalType": "address",
          "name": "strategy",
          "type": "address"
        },
        {
          "indexed": false,
          "internalType": "uint256",
          "name": "gain",
          "type": "uint256"
        },
        {
          "indexed": false,
          "internalType": "uint256",
          "name": "loss",
          "type": "uint256"
        },
        {
          "indexed": false,
          "internalType": "uint256",
          "name": "currentDebt",
          "type": "uint256"
        },
        {
          "indexed": false,
          "internalType": "uint256",
          "name": "protocolFees",
          "type": "uint256"
        },
        {
          "indexed": false,
          "internalType": "uint256",
          "name": "totalFees",
          "type": "uint256"
        },
        {
          "indexed": false,
          "internalType": "uint256",
          "name": "totalRefunds",
          "type": "uint256"
        }
      ],
      "name": "StrategyReported",
      "type": "event"
    },
    {
      "anonymous": false,
      "inputs": [
        {
          "indexed": true,
          "internalType": "address",
          "name": "accountant",
          "type": "address"
        }
      ],
      "name": "UpdateAccountant",
      "type": "event"
    },
    {
      "anonymous": false,
      "inputs": [
        {
          "indexed": false,
          "internalType": "address[]",
          "name": "newDefaultQueue",
          "type": "address[]"
        }
      ],
      "name": "UpdateDefaultQueue",
      "type": "event"
    },
    {
      "anonymous": false,
      "inputs": [
        {
          "indexed": false,
          "internalType": "uint256",
          "name": "depositLimit",
          "type": "uint256"
        }
      ],
      "name": "UpdateDepositLimit",
      "type": "event"
    },
    {
      "anonymous": false,
      "inputs": [
        {
          "indexed": true,
          "internalType": "address",
          "name": "depositLimitModule",
          "type": "address"
        }
      ],
      "name": "UpdateDepositLimitModule",
      "type": "event"
    },
    {
      "anonymous": false,
      "inputs": [
        {
          "indexed": false,
          "internalType": "uint256",
          "name": "minimumTotalIdle",
          "type": "uint256"
        }
      ],
      "name": "UpdateMinimumTotalIdle",
      "type": "event"
    },
    {
      "anonymous": false,
      "inputs": [
        {
          "indexed": false,
          "internalType": "uint256",
          "name": "profitMaxUnlockTime",
          "type": "uint256"
        }
      ],
      "name": "UpdateProfitMaxUnlockTime",
      "type": "event"
    },
    {
      "anonymous": false,
      "inputs": [
        {
          "indexed": true,
          "internalType": "address",
          "name": "roleManager",
          "type": "address"
        }
      ],
      "name": "UpdateRoleManager",
      "type": "event"
    },
    {
      "anonymous": false,
      "inputs": [
        {
          "indexed": false,
          "internalType": "bool",
          "name": "useDefaultQueue",
          "type": "bool"
        }
      ],
      "name": "UpdateUseDefaultQueue",
      "type": "event"
    },
    {
      "anonymous": false,
      "inputs": [
        {
          "indexed": true,
          "internalType": "address",
          "name": "withdrawLimitModule",
          "type": "address"
        }
      ],
      "name": "UpdateWithdrawLimitModule",
      "type": "event"
    },
    {
      "anonymous": false,
      "inputs": [
        {
          "indexed": true,
          "internalType": "uint256",
          "name": "totalFees",
          "type": "uint256"
        },
        {
          "indexed": true,
          "internalType": "uint256",
          "name": "totalRefunds",
          "type": "uint256"
        },
        {
          "indexed": true,
          "internalType": "uint256",
          "name": "protocolFees",
          "type": "uint256"
        },
        {
          "indexed": false,
          "internalType": "address",
          "name": "protocolFeeRecipient",
          "type": "address"
        }
      ],
      "name": "UpdatedFees",
      "type": "event"
    },
    {
      "anonymous": false,
      "inputs": [
        {
          "indexed": true,
          "internalType": "address",
          "name": "sender",
          "type": "address"
        },
        {
          "indexed": true,
          "internalType": "address",
          "name": "strategy",
          "type": "address"
        },
        {
          "indexed": false,
          "internalType": "uint256",
          "name": "newDebt",
          "type": "uint256"
        }
      ],
      "name": "UpdatedMaxDebtForStrategy",
      "type": "event"
    },
    {
      "inputs": [],
      "name": "ACCOUNTANT_MANAGER",
      "outputs": [
        {
          "internalType": "bytes32",
          "name": "",
          "type": "bytes32"
        }
      ],
      "stateMutability": "view",
      "type": "function"
    },
    {
      "inputs": [],
      "name": "ADD_STRATEGY_MANAGER",
      "outputs": [
        {
          "internalType": "bytes32",
          "name": "",
          "type": "bytes32"
        }
      ],
      "stateMutability": "view",
      "type": "function"
    },
    {
      "inputs": [],
      "name": "API_VERSION",
      "outputs": [
        {
          "internalType": "string",
          "name": "",
          "type": "string"
        }
      ],
      "stateMutability": "view",
      "type": "function"
    },
    {
      "inputs": [],
      "name": "ASSET",
      "outputs": [
        {
          "internalType": "contract IERC20",
          "name": "",
          "type": "address"
        }
      ],
      "stateMutability": "view",
      "type": "function"
    },
    {
      "inputs": [],
      "name": "DEBT_MANAGER",
      "outputs": [
        {
          "internalType": "bytes32",
          "name": "",
          "type": "bytes32"
        }
      ],
      "stateMutability": "view",
      "type": "function"
    },
    {
      "inputs": [],
      "name": "DEBT_PURCHASER",
      "outputs": [
        {
          "internalType": "bytes32",
          "name": "",
          "type": "bytes32"
        }
      ],
      "stateMutability": "view",
      "type": "function"
    },
    {
      "inputs": [],
      "name": "DEFAULT_ADMIN_ROLE",
      "outputs": [
        {
          "internalType": "bytes32",
          "name": "",
          "type": "bytes32"
        }
      ],
      "stateMutability": "view",
      "type": "function"
    },
    {
      "inputs": [],
      "name": "DEPOSIT_LIMIT_MANAGER",
      "outputs": [
        {
          "internalType": "bytes32",
          "name": "",
          "type": "bytes32"
        }
      ],
      "stateMutability": "view",
      "type": "function"
    },
    {
      "inputs": [],
      "name": "DOMAIN_SEPARATOR",
      "outputs": [
        {
          "internalType": "bytes32",
          "name": "",
          "type": "bytes32"
        }
      ],
      "stateMutability": "view",
      "type": "function"
    },
    {
      "inputs": [],
      "name": "DOMAIN_TYPE_HASH",
      "outputs": [
        {
          "internalType": "bytes32",
          "name": "",
          "type": "bytes32"
        }
      ],
      "stateMutability": "view",
      "type": "function"
    },
    {
      "inputs": [],
      "name": "EMERGENCY_MANAGER",
      "outputs": [
        {
          "internalType": "bytes32",
          "name": "",
          "type": "bytes32"
        }
      ],
      "stateMutability": "view",
      "type": "function"
    },
    {
      "inputs": [],
      "name": "FACTORY",
      "outputs": [
        {
          "internalType": "address",
          "name": "",
          "type": "address"
        }
      ],
      "stateMutability": "view",
      "type": "function"
    },
    {
      "inputs": [],
      "name": "FORCE_REVOKE_MANAGER",
      "outputs": [
        {
          "internalType": "bytes32",
          "name": "",
          "type": "bytes32"
        }
      ],
      "stateMutability": "view",
      "type": "function"
    },
    {
      "inputs": [],
      "name": "MAX_BPS",
      "outputs": [
        {
          "internalType": "uint256",
          "name": "",
          "type": "uint256"
        }
      ],
      "stateMutability": "view",
      "type": "function"
    },
    {
      "inputs": [],
      "name": "MAX_BPS_EXTENDED",
      "outputs": [
        {
          "internalType": "uint256",
          "name": "",
          "type": "uint256"
        }
      ],
      "stateMutability": "view",
      "type": "function"
    },
    {
      "inputs": [],
      "name": "MAX_DEBT_MANAGER",
      "outputs": [
        {
          "internalType": "bytes32",
          "name": "",
          "type": "bytes32"
        }
      ],
      "stateMutability": "view",
      "type": "function"
    },
    {
      "inputs": [],
      "name": "MAX_QUEUE",
      "outputs": [
        {
          "internalType": "uint256",
          "name": "",
          "type": "uint256"
        }
      ],
      "stateMutability": "view",
      "type": "function"
    },
    {
      "inputs": [],
      "name": "MINIMUM_IDLE_MANAGER",
      "outputs": [
        {
          "internalType": "bytes32",
          "name": "",
          "type": "bytes32"
        }
      ],
      "stateMutability": "view",
      "type": "function"
    },
    {
      "inputs": [],
      "name": "ONE_YEAR",
      "outputs": [
        {
          "internalType": "uint256",
          "name": "",
          "type": "uint256"
        }
      ],
      "stateMutability": "view",
      "type": "function"
    },
    {
      "inputs": [],
      "name": "PERMIT_TYPE_HASH",
      "outputs": [
        {
          "internalType": "bytes32",
          "name": "",
          "type": "bytes32"
        }
      ],
      "stateMutability": "view",
      "type": "function"
    },
    {
      "inputs": [],
      "name": "PROFIT_UNLOCK_MANAGER",
      "outputs": [
        {
          "internalType": "bytes32",
          "name": "",
          "type": "bytes32"
        }
      ],
      "stateMutability": "view",
      "type": "function"
    },
    {
      "inputs": [],
      "name": "QUEUE_MANAGER",
      "outputs": [
        {
          "internalType": "bytes32",
          "name": "",
          "type": "bytes32"
        }
      ],
      "stateMutability": "view",
      "type": "function"
    },
    {
      "inputs": [],
      "name": "REPORTING_MANAGER",
      "outputs": [
        {
          "internalType": "bytes32",
          "name": "",
          "type": "bytes32"
        }
      ],
      "stateMutability": "view",
      "type": "function"
    },
    {
      "inputs": [],
      "name": "REVOKE_STRATEGY_MANAGER",
      "outputs": [
        {
          "internalType": "bytes32",
          "name": "",
          "type": "bytes32"
        }
      ],
      "stateMutability": "view",
      "type": "function"
    },
    {
      "inputs": [],
      "name": "ROLE_MANAGER",
      "outputs": [
        {
          "internalType": "bytes32",
          "name": "",
          "type": "bytes32"
        }
      ],
      "stateMutability": "view",
      "type": "function"
    },
    {
      "inputs": [],
      "name": "WITHDRAW_LIMIT_MANAGER",
      "outputs": [
        {
          "internalType": "bytes32",
          "name": "",
          "type": "bytes32"
        }
      ],
      "stateMutability": "view",
      "type": "function"
    },
    {
      "inputs": [],
      "name": "accountant",
      "outputs": [
        {
          "internalType": "address",
          "name": "",
          "type": "address"
        }
      ],
      "stateMutability": "view",
      "type": "function"
    },
    {
      "inputs": [
        {
          "internalType": "address",
          "name": "newStrategy",
          "type": "address"
        }
      ],
      "name": "addStrategy",
      "outputs": [],
      "stateMutability": "nonpayable",
      "type": "function"
    },
    {
      "inputs": [
        {
          "internalType": "uint256",
          "name": "",
          "type": "uint256"
        }
      ],
      "name": "defaultQueue",
      "outputs": [
        {
          "internalType": "address",
          "name": "",
          "type": "address"
        }
      ],
      "stateMutability": "view",
      "type": "function"
    },
    {
      "inputs": [],
      "name": "depositLimit",
      "outputs": [
        {
          "internalType": "uint256",
          "name": "",
          "type": "uint256"
        }
      ],
      "stateMutability": "view",
      "type": "function"
    },
    {
      "inputs": [],
      "name": "depositLimitModule",
      "outputs": [
        {
          "internalType": "address",
          "name": "",
          "type": "address"
        }
      ],
      "stateMutability": "view",
      "type": "function"
    },
    {
      "inputs": [],
      "name": "fees",
      "outputs": [
        {
          "internalType": "uint256",
          "name": "totalFees",
          "type": "uint256"
        },
        {
          "internalType": "uint256",
          "name": "totalRefunds",
          "type": "uint256"
        },
        {
          "internalType": "uint256",
          "name": "protocolFees",
          "type": "uint256"
        },
        {
          "internalType": "address",
          "name": "protocolFeeRecipient",
          "type": "address"
        }
      ],
      "stateMutability": "view",
      "type": "function"
    },
    {
      "inputs": [],
      "name": "fullProfitUnlockDate",
      "outputs": [
        {
          "internalType": "uint256",
          "name": "",
          "type": "uint256"
        }
      ],
      "stateMutability": "view",
      "type": "function"
    },
    {
      "inputs": [],
      "name": "futureRoleManager",
      "outputs": [
        {
          "internalType": "address",
          "name": "",
          "type": "address"
        }
      ],
      "stateMutability": "view",
      "type": "function"
    },
    {
      "inputs": [
        {
          "internalType": "address",
          "name": "strategy",
          "type": "address"
        }
      ],
      "name": "getDebt",
      "outputs": [
        {
          "internalType": "uint256",
          "name": "",
          "type": "uint256"
        }
      ],
      "stateMutability": "view",
      "type": "function"
    },
    {
      "inputs": [],
      "name": "getDefaultQueue",
      "outputs": [
        {
          "internalType": "address[]",
          "name": "",
          "type": "address[]"
        }
      ],
      "stateMutability": "view",
      "type": "function"
    },
    {
      "inputs": [],
      "name": "getDefaultQueueLength",
      "outputs": [
        {
          "internalType": "uint256",
          "name": "length",
          "type": "uint256"
        }
      ],
      "stateMutability": "view",
      "type": "function"
    },
    {
      "inputs": [
        {
          "internalType": "bytes32",
          "name": "role",
          "type": "bytes32"
        }
      ],
      "name": "getRoleAdmin",
      "outputs": [
        {
          "internalType": "bytes32",
          "name": "",
          "type": "bytes32"
        }
      ],
      "stateMutability": "view",
      "type": "function"
    },
    {
      "inputs": [],
      "name": "governance",
      "outputs": [
        {
          "internalType": "address",
          "name": "",
          "type": "address"
        }
      ],
      "stateMutability": "view",
      "type": "function"
    },
    {
      "inputs": [
        {
          "internalType": "bytes32",
          "name": "role",
          "type": "bytes32"
        },
        {
          "internalType": "address",
          "name": "account",
          "type": "address"
        }
      ],
      "name": "grantRole",
      "outputs": [],
      "stateMutability": "nonpayable",
      "type": "function"
    },
    {
      "inputs": [
        {
          "internalType": "bytes32",
          "name": "role",
          "type": "bytes32"
        },
        {
          "internalType": "address",
          "name": "account",
          "type": "address"
        }
      ],
      "name": "hasRole",
      "outputs": [
        {
          "internalType": "bool",
          "name": "",
          "type": "bool"
        }
      ],
      "stateMutability": "view",
      "type": "function"
    },
    {
      "inputs": [
        {
          "internalType": "address",
          "name": "_asset",
          "type": "address"
        },
        {
          "internalType": "address",
          "name": "_sharesManager",
          "type": "address"
        }
      ],
      "name": "initialize",
      "outputs": [],
      "stateMutability": "nonpayable",
      "type": "function"
    },
    {
      "inputs": [],
      "name": "lastProfitUpdate",
      "outputs": [
        {
          "internalType": "uint256",
          "name": "",
          "type": "uint256"
        }
      ],
      "stateMutability": "view",
      "type": "function"
    },
    {
      "inputs": [],
      "name": "minimumTotalIdle",
      "outputs": [
        {
          "internalType": "uint256",
          "name": "",
          "type": "uint256"
        }
      ],
      "stateMutability": "view",
      "type": "function"
    },
    {
      "inputs": [
        {
          "internalType": "address",
          "name": "",
          "type": "address"
        }
      ],
      "name": "nonces",
      "outputs": [
        {
          "internalType": "uint256",
          "name": "",
          "type": "uint256"
        }
      ],
      "stateMutability": "view",
      "type": "function"
    },
    {
      "inputs": [
        {
          "internalType": "bytes32",
          "name": "",
          "type": "bytes32"
        }
      ],
      "name": "openRoles",
      "outputs": [
        {
          "internalType": "bool",
          "name": "",
          "type": "bool"
        }
      ],
      "stateMutability": "view",
      "type": "function"
    },
    {
      "inputs": [
        {
          "internalType": "address",
          "name": "strategy",
          "type": "address"
        }
      ],
      "name": "processReport",
      "outputs": [
        {
          "internalType": "uint256",
          "name": "",
          "type": "uint256"
        },
        {
          "internalType": "uint256",
          "name": "",
          "type": "uint256"
        }
      ],
      "stateMutability": "nonpayable",
      "type": "function"
    },
    {
      "inputs": [],
      "name": "profitMaxUnlockTime",
      "outputs": [
        {
          "internalType": "uint256",
          "name": "",
          "type": "uint256"
        }
      ],
      "stateMutability": "view",
      "type": "function"
    },
    {
      "inputs": [],
      "name": "profitUnlockingRate",
      "outputs": [
        {
          "internalType": "uint256",
          "name": "",
          "type": "uint256"
        }
      ],
      "stateMutability": "view",
      "type": "function"
    },
    {
      "inputs": [
        {
          "internalType": "bytes32",
          "name": "role",
          "type": "bytes32"
        },
        {
          "internalType": "address",
          "name": "account",
          "type": "address"
        }
      ],
      "name": "renounceRole",
      "outputs": [],
      "stateMutability": "nonpayable",
      "type": "function"
    },
    {
      "inputs": [
        {
          "internalType": "bytes32",
          "name": "role",
          "type": "bytes32"
        },
        {
          "internalType": "address",
          "name": "account",
          "type": "address"
        }
      ],
      "name": "revokeRole",
      "outputs": [],
      "stateMutability": "nonpayable",
      "type": "function"
    },
    {
      "inputs": [
        {
          "internalType": "address",
          "name": "strategy",
          "type": "address"
        },
        {
          "internalType": "bool",
          "name": "force",
          "type": "bool"
        }
      ],
      "name": "revokeStrategy",
      "outputs": [],
      "stateMutability": "nonpayable",
      "type": "function"
    },
    {
      "inputs": [],
      "name": "roleManager",
      "outputs": [
        {
          "internalType": "address",
          "name": "",
          "type": "address"
        }
      ],
      "stateMutability": "view",
      "type": "function"
    },
    {
      "inputs": [
        {
          "internalType": "address",
          "name": "",
          "type": "address"
        }
      ],
      "name": "roles",
      "outputs": [
        {
          "internalType": "bytes32",
          "name": "",
          "type": "bytes32"
        }
      ],
      "stateMutability": "view",
      "type": "function"
    },
    {
      "inputs": [
        {
          "internalType": "address",
          "name": "strategy",
          "type": "address"
        },
        {
          "internalType": "uint256",
          "name": "_newDebt",
          "type": "uint256"
        }
      ],
      "name": "setDebt",
      "outputs": [],
      "stateMutability": "nonpayable",
      "type": "function"
    },
    {
      "inputs": [
        {
          "internalType": "uint256",
          "name": "totalFees",
          "type": "uint256"
        },
        {
          "internalType": "uint256",
          "name": "totalRefunds",
          "type": "uint256"
        },
        {
          "internalType": "uint256",
          "name": "protocolFees",
          "type": "uint256"
        },
        {
          "internalType": "address",
          "name": "protocolFeeRecipient",
          "type": "address"
        }
      ],
      "name": "setFees",
      "outputs": [],
      "stateMutability": "nonpayable",
      "type": "function"
    },
    {
      "inputs": [],
      "name": "setters",
      "outputs": [
        {
          "internalType": "address payable",
          "name": "",
          "type": "address"
        }
      ],
      "stateMutability": "view",
      "type": "function"
    },
    {
      "inputs": [],
      "name": "sharesManager",
      "outputs": [
        {
          "internalType": "address",
          "name": "",
          "type": "address"
        }
      ],
      "stateMutability": "view",
      "type": "function"
    },
    {
      "inputs": [],
      "name": "shutdown",
      "outputs": [
        {
          "internalType": "bool",
          "name": "",
          "type": "bool"
        }
      ],
      "stateMutability": "view",
      "type": "function"
    },
    {
      "inputs": [
        {
          "internalType": "address",
          "name": "",
          "type": "address"
        }
      ],
      "name": "strategies",
      "outputs": [
        {
          "internalType": "uint256",
          "name": "activation",
          "type": "uint256"
        },
        {
          "internalType": "uint256",
          "name": "lastReport",
          "type": "uint256"
        },
        {
          "internalType": "uint256",
          "name": "currentDebt",
          "type": "uint256"
        },
        {
          "internalType": "uint256",
          "name": "maxDebt",
          "type": "uint256"
        }
      ],
      "stateMutability": "view",
      "type": "function"
    },
    {
      "inputs": [],
      "name": "strategyManager",
      "outputs": [
        {
          "internalType": "address payable",
          "name": "",
          "type": "address"
        }
      ],
      "stateMutability": "view",
      "type": "function"
    },
    {
      "inputs": [
        {
          "internalType": "bytes4",
          "name": "interfaceId",
          "type": "bytes4"
        }
      ],
      "name": "supportsInterface",
      "outputs": [
        {
          "internalType": "bool",
          "name": "",
          "type": "bool"
        }
      ],
      "stateMutability": "view",
      "type": "function"
    },
    {
      "inputs": [],
      "name": "totalDebtAmount",
      "outputs": [
        {
          "internalType": "uint256",
          "name": "",
          "type": "uint256"
        }
      ],
      "stateMutability": "view",
      "type": "function"
    },
    {
      "inputs": [],
      "name": "totalIdleAmount",
      "outputs": [
        {
          "internalType": "uint256",
          "name": "",
          "type": "uint256"
        }
      ],
      "stateMutability": "view",
      "type": "function"
    },
    {
      "inputs": [],
      "name": "totalSupplyAmount",
      "outputs": [
        {
          "internalType": "uint256",
          "name": "",
          "type": "uint256"
        }
      ],
      "stateMutability": "view",
      "type": "function"
    },
    {
      "inputs": [
        {
          "internalType": "address",
          "name": "sender",
          "type": "address"
        },
        {
          "internalType": "address",
          "name": "strategy",
          "type": "address"
        },
        {
          "internalType": "uint256",
          "name": "targetDebt",
          "type": "uint256"
        }
      ],
      "name": "updateDebt",
      "outputs": [
        {
          "internalType": "uint256",
          "name": "",
          "type": "uint256"
        }
      ],
      "stateMutability": "nonpayable",
      "type": "function"
    },
    {
      "inputs": [
        {
          "internalType": "address",
          "name": "strategy",
          "type": "address"
        },
        {
          "internalType": "uint256",
          "name": "newMaxDebt",
          "type": "uint256"
        }
      ],
      "name": "updateMaxDebtForStrategy",
      "outputs": [],
      "stateMutability": "nonpayable",
      "type": "function"
    },
    {
      "inputs": [],
      "name": "useDefaultQueue",
      "outputs": [
        {
          "internalType": "bool",
          "name": "",
          "type": "bool"
        }
      ],
      "stateMutability": "view",
      "type": "function"
    },
    {
      "inputs": [],
      "name": "withdrawLimitModule",
      "outputs": [
        {
          "internalType": "address",
          "name": "",
          "type": "address"
        }
      ],
      "stateMutability": "view",
      "type": "function"
    }
  ],
  "transactionHash": "0xecee569eb4b524c3957a304efcdac8151dd0c956a6cfdf08daa28e6987bf1032",
  "args": [],
  "numDeployments": 1,
  "solcInputHash": "4f5fad6b3b661da677d0c59da67436e7",
  "bytecode": "0x60a06040526301e1855860805234801561001857600080fd5b5060805161309a61003460003960006103e6015261309a6000f3fe608060405234801561001057600080fd5b50600436106103265760003560e01c80638afca8f0116101b05780638afca8f0146106b157806391986003146106ba57806391d14854146106cd57806399374642146106e05780639a78e72e146107005780639af1d35a1461072c5780639e34e3481461075b5780639f3988f31461076e578063a217fddf14610795578063a835cd811461079d578063a98222c4146107b0578063ab5b4d49146107d7578063acded97d146107fe578063b1c46c9f14610811578063b3c187f214610824578063b6cc2d1f14610837578063ba71ecd414610858578063bbe4eb4914610860578063bee7e3d91461086d578063c065ca0714610880578063c0993eea146108a7578063c8d74b60146108ce578063c8dffa95146108f5578063d4ae064f146108fe578063d547741f14610925578063ecf7085814610938578063f1daeba814610941578063f42c77ae14610968578063f5b944eb1461097b578063f6d7bfa0146109a2578063f828f50b146109b5578063fc0e74d1146109be578063fd967f47146109d2578063fec61f06146109db578063ff1e7f0814610a0257600080fd5b8062435da51461032b57806301ffc9a71461035457806303dcd12c146103745780630835a3fc146103a85780630952864e146103b15780630ad283d0146103ba57806316d3bfbb146103e1578063223e547914610408578063248a9ca31461041d57806329f3cef5146104305780632d632692146104455780632dd310001461044e5780632f2ff15d146104615780633644e5151461047457806336568abe1461047d57806336fba084146104905780633764254a1461049c57806339b70e38146104af57806339ebf823146104c25780633cd7b5ab146105075780633f7b5e40146105105780634800d97f14610518578063485cc955146105385780634ce1d38a1461054b5780634cfe51dc146105725780634d4bb197146105995780634fb3ccc5146105c05780635141eebb146105d357806353a66132146105dc5780635aa6e675146105ff5780635bf6b4fb14610612578063652da3241461063957806377e3b267146106605780637ecebe0014610691575b600080fd5b60185461033e906001600160a01b031681565b60405161034b91906125e3565b60405180910390f35b610367610362366004612613565b610a15565b60405161034b919061263c565b61039b7f633076a97f32ae349b28772e7b1483f67a926f150cbc501d02bdbd77389325ab81565b60405161034b9190612650565b61039b60115481565b61039b601a5481565b61039b7fc723f4dd6268e1c374639e36d629c765285ee7003913389d582c300f186dde9781565b61039b7f000000000000000000000000000000000000000000000000000000000000000081565b61041b610416366004612672565b610a4c565b005b61039b61042b3660046126a4565b610c33565b610438610c48565b60405161034b9190612722565b61039b601b5481565b60215461033e906001600160a01b031681565b61041b61046f366004612733565b610caa565b61039b601f5481565b61041b61048b366004612733565b610ccb565b61039b64e8d4a5100081565b61041b6104aa366004612770565b610d0a565b60015461033e906001600160a01b031681565b6104f76104d0366004612672565b60056020526000908152604090208054600182015460028301546003909301549192909184565b60405161034b94939291906127a3565b61039b60105481565b61039b600a81565b60205461052b906001600160a01b031681565b60405161034b9190612819565b61041b610546366004612827565b610d35565b61039b7f69d1171ac0a63777a6733cda21aec9ed3d48a4fd11f273c934a691dec5e5589c81565b61039b7f862f91c9d89d6135b19873b921c90b702cb2e175c371b8430026b9577e69111981565b61039b7f6e71edae12b1b97f4d1f60370fef10105fa2faae0126114a169c64845d6126c981565b60135461033e906001600160a01b031681565b61039b601c5481565b6103676105ea3660046126a4565b60176020526000908152604090205460ff1681565b60045461033e906001600160a01b031681565b61039b7fea672c1c09cd95c51af9509f646f3615ff0071aae8652bd821471ee9037fd72c81565b61039b7fcd9f023a942ee35097ead74b2505bea9f2c5d47465db92dd195cf7f01a41cfe181565b610684604051806040016040528060058152602001640312e302e360dc1b81525081565b60405161034b91906128ab565b61039b61069f366004612672565b601e6020526000908152604090205481565b61039b601d5481565b60155461033e906001600160a01b031681565b6103676106db366004612733565b610dc5565b61039b6106ee366004612672565b60166020526000908152604090205481565b61039b61070e366004612672565b6001600160a01b031660009081526005602052604090206002015490565b60065460075460085460095461074b939291906001600160a01b031684565b60405161034b94939291906128bc565b60145461033e906001600160a01b031681565b61039b7f6f430d649a8640e48ff9bfbc353b3f99ed630163857821b3b4075e3871dafbf581565b61039b600081565b61039b6107ab3660046128f1565b610dee565b61039b7f2f0dbbe8c2c0170206c50ec0cafa1c0dbd03e73e67c2a960178df30a0a30ee2e81565b61039b7f900d80def0427daac599092fcb16b21808ec68dd9a2e1eae89d1e8db2135737581565b60025461033e906001600160a01b031681565b61041b61081f366004612941565b611890565b60195461033e906001600160a01b031681565b61084a610845366004612672565b6118fe565b60405161034b9291906129a5565b600a5461039b565b600b546103679060ff1681565b60035461033e906001600160a01b031681565b61039b7f2a0e761830cc61f2707ea7bb138008bf9dda7f7d34c77736d0a116604e95ea1681565b61039b7f8b73c3c69bb8fe3d512ecc4cf759cc79239f7b179b0ffacaa9a75d522b39400f81565b61039b7f152ebba56b9738ee3d8baea1b76fa31dcdcd79b1929bfea7d58ee12cfdf1a65381565b61039b600f5481565b61039b7fa18eaea71a088b547b8c932b48861853b3434d9a3240b94466c607e28b69659581565b61041b610933366004612733565b611c83565b61039b60125481565b61039b7f7cbb3cdf689b8ea3e9d265f66bc4e0a99069268217017d38d2a5a559abc6271981565b61041b6109763660046129d3565b611c9f565b61039b7ff206625bad3d9112d5609b8d356e6fbd514cd1f69980d4ce2b3e6e68e1789ace81565b61041b6109b0366004612770565b611ec0565b61039b600e5481565b60195461036790600160a01b900460ff1681565b61039b61271081565b61039b7fd45f7ccff42f059d4e47c3f027c444272257266f7e88b981e142f0aa38fbfd7881565b61033e610a103660046126a4565b611f54565b60006001600160e01b03198216637965db0b60e01b1480610a4657506301ffc9a760e01b6001600160e01b03198316145b92915050565b6001600160a01b0381161580610a6a57506001600160a01b03811630145b15610a885760405163d92e233d60e01b815260040160405180910390fd5b60208054604080516338d52e0f60e01b815290516001600160a01b0392831693928516926338d52e0f92600480820193918290030181865afa158015610ad2573d6000803e3d6000fd5b505050506040513d601f19601f82011682018060405250810190610af69190612a11565b6001600160a01b031614610b1d57604051636448d6e960e11b815260040160405180910390fd5b6001600160a01b03811660009081526005602052604090205415610b545760405163c976754d60e01b815260040160405180910390fd5b604080516080810182524280825260208083019182526000838501818152606085018281526001600160a01b038816835260059093529490209251835590516001830155915160028201559051600390910155600a805490811015610bff57600a80546001810182556000919091527fc65a7bb8d6351c1cf70c95a316cc6a92839c986682d98bc35f958f4883f9d2a80180546001600160a01b0319166001600160a01b0384161790555b816001600160a01b03166000805160206130258339815191526000604051610c279190612a7b565b60405180910390a25050565b60009081526020819052604090206001015490565b6060600a805480602002602001604051908101604052809291908181526020018280548015610ca057602002820191906000526020600020905b81546001600160a01b03168152600190910190602001808311610c82575b5050505050905090565b610cb382610c33565b610cbc81611f7e565b610cc68383611f8b565b505050565b6001600160a01b0381163314610cfc5760405162461bcd60e51b8152600401610cf390612a89565b60405180910390fd5b610d06828261200f565b5050565b6000610d1581611f7e565b506001600160a01b03909116600090815260056020526040902060020155565b6000610d4081611f7e565b600b54610100900460ff161515600103610d6c5760405162dc149f60e41b815260040160405180910390fd5b602080546001600160a01b038086166001600160a01b031992831617909255602180548216331790556002805492851692909116919091179055610db1600083611f8b565b5050600b805461ff00191661010017905550565b6000918252602082815260408084206001600160a01b0393909316845291905290205460ff1690565b60025460408051635453491f60e01b815290516000926001600160a01b031691635453491f916004808301926020929190829003018187875af1158015610e39573d6000803e3d6000fd5b505050506040513d601f19601f82011682018060405250810190610e5d9190612ae7565b6010556002546040805163cea5a1a760e01b815290516001600160a01b039092169163cea5a1a79160048082019260209290919082900301816000875af1158015610eac573d6000803e3d6000fd5b505050506040513d601f19601f82011682018060405250810190610ed09190612ae7565b6011556001600160a01b0383166000908152600560205260409020600201548214801590610f02575060115460105411155b15610f205760405163356680b760e01b815260040160405180910390fd5b6001600160a01b038316600090815260056020526040902060020154601954839190600160a01b900460ff161515600103610f5a57600091505b808203610f7a5760405163084df06b60e41b815260040160405180910390fd5b818111156113dc576000610f8e8383612b1e565b905060115481601054610fa19190612b31565b1015610fc457601054601154610fb79190612b1e565b905081811115610fc45750805b604051636c82bbbf60e11b81526000906001600160a01b038816906307a2d13a90829063d905777e90610ffb908d906004016125e3565b602060405180830381865afa158015611018573d6000803e3d6000fd5b505050506040513d601f19601f8201168201806040525081019061103c9190612ae7565b6040518263ffffffff1660e01b81526004016110589190612650565b602060405180830381865afa158015611075573d6000803e3d6000fd5b505050506040513d601f19601f820116820180604052508101906110999190612ae7565b9050600081116110bc57604051637c946ed760e01b815260040160405180910390fd5b818110156110c8578091505b600254604051635a56909960e01b81526000916001600160a01b031690635a569099906110fb908b908790600401612b44565b602060405180830381865afa158015611118573d6000803e3d6000fd5b505050506040513d601f19601f8201168201806040525081019061113c9190612ae7565b9050801561115d576040516339589fdd60e21b815260040160405180910390fd5b6020546040516370a0823160e01b81526000916001600160a01b0316906370a082319061118e908d906004016125e3565b602060405180830381865afa1580156111ab573d6000803e3d6000fd5b505050506040513d601f19601f820116820180604052508101906111cf9190612ae7565b6002546040516316a7a12b60e31b81529192506001600160a01b03169063b53d095890611202908c908890600401612b44565b600060405180830381600087803b15801561121c57600080fd5b505af1158015611230573d6000803e3d6000fd5b50506020546040516370a0823160e01b8152600093506001600160a01b0390911691506370a0823190611267908e906004016125e3565b602060405180830381865afa158015611284573d6000803e3d6000fd5b505050506040513d601f19601f820116820180604052508101906112a89190612ae7565b905060006112bf6112b98484612b1e565b88612074565b9050858111156112cd578095505b80601060008282546112df9190612b31565b9250508190555085600f60008282546112f89190612b1e565b9091555050600254601054604051634d28468560e11b81526001600160a01b0390921691639a508d0a9161132e91600401612650565b600060405180830381600087803b15801561134857600080fd5b505af115801561135c573d6000803e3d6000fd5b5050600254600f5460405163e315cd7560e01b81526001600160a01b03909216935063e315cd75925061139191600401612650565b600060405180830381600087803b1580156113ab57600080fd5b505af11580156113bf573d6000803e3d6000fd5b5050505085876113cf9190612b1e565b975050505050505061182d565b6001600160a01b0385166000908152600560205260409020600301548211156114185760405163d49d8c2360e01b815260040160405180910390fd5b60405163402d267d60e01b81526000906001600160a01b0387169063402d267d90611447908a906004016125e3565b602060405180830381865afa158015611464573d6000803e3d6000fd5b505050506040513d601f19601f820116820180604052508101906114889190612ae7565b9050600081116114ab57604051637c946ed760e01b815260040160405180910390fd5b60006114b78385612b1e565b9050818111156114c45750805b60006011546010546114d69190612b1e565b9050808211156114e4578091505b81156118295760025460205460405163300d25a560e21b81526001600160a01b039283169263c034969492611522929116908c908790600401612b52565b600060405180830381600087803b15801561153c57600080fd5b505af1158015611550573d6000803e3d6000fd5b50506020546002546040516370a0823160e01b8152600094506001600160a01b0392831693506370a082319261158a9216906004016125e3565b602060405180830381865afa1580156115a7573d6000803e3d6000fd5b505050506040513d601f19601f820116820180604052508101906115cb9190612ae7565b60025460405163af76d4bd60e01b81529192506001600160a01b03169063af76d4bd906115fe908c908790600401612b44565b600060405180830381600087803b15801561161857600080fd5b505af115801561162c573d6000803e3d6000fd5b50506020546002546040516370a0823160e01b8152600094506001600160a01b0392831693506370a08231926116669216906004016125e3565b602060405180830381865afa158015611683573d6000803e3d6000fd5b505050506040513d601f19601f820116820180604052508101906116a79190612ae7565b60025460205460405163300d25a560e21b81529293506001600160a01b039182169263c0349694926116e29216908e90600090600401612b8f565b600060405180830381600087803b1580156116fc57600080fd5b505af1158015611710573d6000803e3d6000fd5b5050505080826117209190612b1e565b935083601060008282546117349190612b1e565b9250508190555083600f600082825461174d9190612b31565b9091555050600254601054604051634d28468560e11b81526001600160a01b0390921691639a508d0a9161178391600401612650565b600060405180830381600087803b15801561179d57600080fd5b505af11580156117b1573d6000803e3d6000fd5b5050600254600f5460405163e315cd7560e01b81526001600160a01b03909216935063e315cd7592506117e691600401612650565b600060405180830381600087803b15801561180057600080fd5b505af1158015611814573d6000803e3d6000fd5b5050505083866118249190612b31565b965050505b5050505b6001600160a01b03851660008181526005602052604090819020600201849055517f5e2b8821ad6e0e26207e0cb4d242d07eeb1cbb1cfd853e645bdcd27cc5484f959061187d90849086906129a5565b60405180910390a25090505b9392505050565b600684905560078390556008829055600980546001600160a01b0319166001600160a01b0383161790556040518290849086907f94aff052e386f7223093efb6183667af7a14a6d206ce5e9c66a9c064ebe94528906118f09086906125e3565b60405180910390a450505050565b6001600160a01b0381166000908152600560205260408120548190810361193857604051630631bc2160e51b815260040160405180910390fd5b600260009054906101000a90046001600160a01b03166001600160a01b031663e0bf18ad6040518163ffffffff1660e01b8152600401600060405180830381600087803b15801561198857600080fd5b505af115801561199c573d6000803e3d6000fd5b505050506000806119ac8561208a565b9150915060006119bd8684846121c6565b60025481516040808401519051631d8325ef60e01b81529394506000936001600160a01b0390931692631d8325ef92611a00928992899291908e90600401612bb7565b6060604051808303816000875af1158015611a1f573d6000803e3d6000fd5b505050506040513d601f19601f82011682018060405250810190611a439190612cbb565b6002546040516356dd3ccf60e11b815291925060009182916001600160a01b03169063adba799e90611a7d90869088908b90600401612d63565b60408051808303816000875af1158015611a9b573d6000803e3d6000fd5b505050506040513d601f19601f82011682018060405250810190611abf9190612d8c565b600254604051633e986eed60e01b81529294509092506001600160a01b031690633e986eed90611af590859085906004016129a5565b600060405180830381600087803b158015611b0f57600080fd5b505af1158015611b23573d6000803e3d6000fd5b505050506001600160a01b038981166000818152600560205260408082204260018201556002908101549054888301519251637ff0007760e01b81529495600080516020613045833981519152958d958d959390921692637ff0007792611b8c92600401612dbf565b602060405180830381865afa158015611ba9573d6000803e3d6000fd5b505050506040513d601f19601f82011682018060405250810190611bcd9190612ae7565b60025460208a015160408b01516001600160a01b0390921691637ff0007791611bf591612b31565b60006040518363ffffffff1660e01b8152600401611c14929190612dbf565b602060405180830381865afa158015611c31573d6000803e3d6000fd5b505050506040513d601f19601f82011682018060405250810190611c559190612ae7565b8a60200151604051611c6c96959493929190612dda565b60405180910390a250939792965091945050505050565b611c8c82610c33565b611c9581611f7e565b610cc6838361200f565b6001600160a01b0382166000908152600560205260408120549003611cd757604051630631bc2160e51b815260040160405180910390fd5b6001600160a01b03821660009081526005602052604081206002015415801590611cff575081155b15611d1d57604051633546382f60e21b815260040160405180910390fd5b506001600160a01b038216600090815260056020526040812060020154600f805491928392611d4d908490612b1e565b92505081905550826001600160a01b0316600080516020613045833981519152600083600080600080604051611d8896959493929190612e34565b60405180910390a2604080516080810182526000808252602080830182815283850183815260608086018581526001600160a01b038b168652600590945295909320935184555160018401559051600283015551600390910155600a5415611e765760005b600a54811015611e74576000600a8281548110611e0c57611e0c612e83565b6000918252602090912001546001600160a01b03908116915086168114611e615780838381518110611e4057611e40612e83565b60200260200101906001600160a01b031690816001600160a01b0316815250505b5080611e6c81612e99565b915050611ded565b505b8051611e8990600a906020840190612543565b50836001600160a01b03166000805160206130258339815191526001604051611eb29190612a7b565b60405180910390a250505050565b6001600160a01b0382166000908152600560205260408120549003611ef857604051630631bc2160e51b815260040160405180910390fd5b6001600160a01b038216600081815260056020526040908190206003018390555132907fb3eef2123fec1523a6bbc90aceb203000154c1a4974335fe06b544c7534d4b8990611f48908590612650565b60405180910390a35050565b600a8181548110611f6457600080fd5b6000918252602090912001546001600160a01b0316905081565b611f88813361236d565b50565b611f958282610dc5565b610d06576000828152602081815260408083206001600160a01b03851684529091529020805460ff19166001179055611fcb3390565b6001600160a01b0316816001600160a01b0316837f2f8788117e7eff1d82e926ec794901d17c78024a50270940304540a733656f0d60405160405180910390a45050565b6120198282610dc5565b15610d06576000828152602081815260408083206001600160a01b0385168085529252808320805460ff1916905551339285917ff6391f5c32d9c69d2a47ea670b442974b53935d1edc7fd64eb21e047a839171b9190a45050565b60008183106120835781611889565b5090919050565b6002546040516370a0823160e01b8152600091829182916001600160a01b03808716926370a08231926120c19216906004016125e3565b602060405180830381865afa1580156120de573d6000803e3d6000fd5b505050506040513d601f19601f820116820180604052508101906121029190612ae7565b90506000846001600160a01b03166307a2d13a836040518263ffffffff1660e01b81526004016121329190612650565b602060405180830381865afa15801561214f573d6000803e3d6000fd5b505050506040513d601f19601f820116820180604052508101906121739190612ae7565b6001600160a01b03861660009081526005602052604081206002015491925080828411156121ac576121a58385612b1e565b91506121b9565b6121b68484612b1e565b90505b9097909650945050505050565b6121fa604051806080016040528060008152602001600081526020016000815260200160006001600160a01b031681525090565b6040805160808101825260065481526007546020820152600854918101919091526009546001600160a01b03908116606083015260135416156123655760135460405163921f8a8f60e01b81526001600160a01b039091169063921f8a8f9061226b90889088908890600401612eb3565b60408051808303816000875af1158015612289573d6000803e3d6000fd5b505050506040513d601f19601f820116820180604052508101906122ad9190612d8c565b60208301528082521561236557602154604080516307d3277f60e01b815281516000936001600160a01b0316926307d3277f92600480820193918290030181865afa158015612300573d6000803e3d6000fd5b505050506040513d601f19601f820116820180604052508101906123249190612ee3565b6001600160a01b03166060840152905061ffff811615612363578151612710906123539061ffff841690612f16565b61235d9190612f4b565b60408301525b505b949350505050565b6123778282610dc5565b610d0657612384816123c6565b61238f8360206123d8565b6040516020016123a0929190612f81565b60408051601f198184030181529082905262461bcd60e51b8252610cf3916004016128ab565b6060610a466001600160a01b03831660145b606060006123e7836002612f16565b6123f2906002612b31565b6001600160401b0381111561240957612409612c03565b6040519080825280601f01601f191660200182016040528015612433576020820181803683370190505b509050600360fc1b8160008151811061244e5761244e612e83565b60200101906001600160f81b031916908160001a905350600f60fb1b8160018151811061247d5761247d612e83565b60200101906001600160f81b031916908160001a90535060006124a1846002612f16565b6124ac906001612b31565b90505b6001811115612524576f181899199a1a9b1b9c1cb0b131b232b360811b85600f16601081106124e0576124e0612e83565b1a60f81b8282815181106124f6576124f6612e83565b60200101906001600160f81b031916908160001a90535060049490941c9361251d81612fd3565b90506124af565b5083156118895760405162461bcd60e51b8152600401610cf390612fea565b828054828255906000526020600020908101928215612598579160200282015b8281111561259857825182546001600160a01b0319166001600160a01b03909116178255602090920191600190910190612563565b506125a49291506125a8565b5090565b5b808211156125a457600081556001016125a9565b6001600160a01b031690565b6000610a46826125bd565b6125dd816125c9565b82525050565b60208101610a4682846125d4565b6001600160e01b031981165b8114611f8857600080fd5b8035610a46816125f1565b60006020828403121561262857612628600080fd5b60006123658484612608565b8015156125dd565b60208101610a468284612634565b806125dd565b60208101610a46828461264a565b6125fd816125c9565b8035610a468161265e565b60006020828403121561268757612687600080fd5b60006123658484612667565b806125fd565b8035610a4681612693565b6000602082840312156126b9576126b9600080fd5b60006123658484612699565b60006126d183836125d4565b505060200190565b60006126e3825190565b80845260209384019383018060005b8381101561271757815161270688826126c5565b9750602083019250506001016126f2565b509495945050505050565b6020808252810161188981846126d9565b6000806040838503121561274957612749600080fd5b60006127558585612699565b925050602061276685828601612667565b9150509250929050565b6000806040838503121561278657612786600080fd5b60006127928585612667565b925050602061276685828601612699565b608081016127b1828761264a565b6127be602083018661264a565b6127cb604083018561264a565b6127d8606083018461264a565b95945050505050565b6000610a466127f56127f2846125bd565b90565b6125bd565b6000610a46826127e1565b6000610a46826127fa565b6125dd81612805565b60208101610a468284612810565b6000806040838503121561283d5761283d600080fd5b60006127558585612667565b60005b8381101561286457818101518382015260200161284c565b50506000910152565b601f01601f191690565b6000612881825190565b808452602084019350612898818560208601612849565b6128a18161286d565b9093019392505050565b602080825281016118898184612877565b608081016128ca828761264a565b6128d7602083018661264a565b6128e4604083018561264a565b6127d860608301846125d4565b60008060006060848603121561290957612909600080fd5b60006129158686612667565b935050602061292686828701612667565b925050604061293786828701612699565b9150509250925092565b6000806000806080858703121561295a5761295a600080fd5b60006129668787612699565b945050602061297787828801612699565b935050604061298887828801612699565b925050606061299987828801612667565b91505092959194509250565b604081016129b3828561264a565b611889602083018461264a565b8015156125fd565b8035610a46816129c0565b600080604083850312156129e9576129e9600080fd5b60006129f58585612667565b9250506020612766858286016129c8565b8051610a468161265e565b600060208284031215612a2657612a26600080fd5b60006123658484612a06565b634e487b7160e01b600052602160045260246000fd5b60028110611f8857611f88612a32565b80612a6281612a48565b919050565b6000610a4682612a58565b6125dd81612a67565b60208101610a468284612a72565b60208082528101610a4681602f81527f416363657373436f6e74726f6c3a2063616e206f6e6c792072656e6f756e636560208201526e103937b632b9903337b91039b2b63360891b604082015260600190565b8051610a4681612693565b600060208284031215612afc57612afc600080fd5b60006123658484612adc565b634e487b7160e01b600052601160045260246000fd5b81810381811115610a4657610a46612b08565b80820180821115610a4657610a46612b08565b604081016129b382856125d4565b60608101612b6082866125d4565b612b6d60208301856125d4565b612365604083018461264a565b6000610a466127f28381565b6125dd81612b7a565b60608101612b9d82866125d4565b612baa60208301856125d4565b6123656040830184612b86565b60a08101612bc5828861264a565b612bd2602083018761264a565b612bdf604083018661264a565b612bec606083018561264a565b612bf960808301846125d4565b9695505050505050565b634e487b7160e01b600052604160045260246000fd5b612c228261286d565b81018181106001600160401b0382111715612c3f57612c3f612c03565b6040525050565b6000612c5160405190565b9050612a628282612c19565b600060608284031215612c7257612c72600080fd5b612c7c6060612c46565b90506000612c8a8484612adc565b8252506020612c9b84848301612adc565b6020830152506040612caf84828501612adc565b60408301525092915050565b600060608284031215612cd057612cd0600080fd5b60006123658484612c5d565b80516060830190612ced848261264a565b506020820151612d00602085018261264a565b506040820151612d13604085018261264a565b50505050565b80516080830190612d2a848261264a565b506020820151612d3d602085018261264a565b506040820151612d50604085018261264a565b506060820151612d1360608501826125d4565b6101008101612d728286612cdc565b612d7f6060830185612d19565b61236560e083018461264a565b60008060408385031215612da257612da2600080fd5b6000612dae8585612adc565b925050602061276685828601612adc565b60408101612dcd828561264a565b6118896020830184612a72565b60c08101612de8828961264a565b612df5602083018861264a565b612e02604083018761264a565b612e0f606083018661264a565b612e1c608083018561264a565b612e2960a083018461264a565b979650505050505050565b60c08101612e428289612b86565b612e4f602083018861264a565b612e5c6040830187612b86565b612e696060830186612b86565b612e766080830185612b86565b612e2960a0830184612b86565b634e487b7160e01b600052603260045260246000fd5b60006000198203612eac57612eac612b08565b5060010190565b60608101612ec182866125d4565b612b6d602083018561264a565b61ffff81166125fd565b8051610a4681612ece565b60008060408385031215612ef957612ef9600080fd5b6000612f058585612ed8565b925050602061276685828601612a06565b6000816000190483118215151615612f3057612f30612b08565b500290565b634e487b7160e01b600052601260045260246000fd5b600082612f5a57612f5a612f35565b500490565b6000612f69825190565b612f77818560208601612849565b9290920192915050565b76020b1b1b2b9b9a1b7b73a3937b61d1030b1b1b7bab73a1604d1b81526017016000612fad8285612f5f565b7001034b99036b4b9b9b4b733903937b6329607d1b815260110191506123658284612f5f565b600081612fe257612fe2612b08565b506000190190565b60208082528181019081527f537472696e67733a20686578206c656e67746820696e73756666696369656e74604083015260608201610a4656febcf55f13710eed7eda89416c2984da5475fcff67e96fe85e56eed808559a52227f2ad1d3ba35276f35ef140f83e3e0f17b23064fd710113d3f7a5ab30d267811a264697066735822122064b45f6e5050a6b239366657de65821c123a4730b9f07c5d5671c3908c36432c64736f6c63430008100033",
  "devdoc": {
    "kind": "dev",
    "methods": {
      "getRoleAdmin(bytes32)": {
        "details": "Returns the admin role that controls `role`. See {grantRole} and {revokeRole}. To change a role's admin, use {_setRoleAdmin}."
      },
      "grantRole(bytes32,address)": {
        "details": "Grants `role` to `account`. If `account` had not been already granted `role`, emits a {RoleGranted} event. Requirements: - the caller must have ``role``'s admin role. May emit a {RoleGranted} event."
      },
      "hasRole(bytes32,address)": {
        "details": "Returns `true` if `account` has been granted `role`."
      },
      "renounceRole(bytes32,address)": {
        "details": "Revokes `role` from the calling account. Roles are often managed via {grantRole} and {revokeRole}: this function's purpose is to provide a mechanism for accounts to lose their privileges if they are compromised (such as when a trusted device is misplaced). If the calling account had been revoked `role`, emits a {RoleRevoked} event. Requirements: - the caller must be `account`. May emit a {RoleRevoked} event."
      },
      "revokeRole(bytes32,address)": {
        "details": "Revokes `role` from `account`. If `account` had been granted `role`, emits a {RoleRevoked} event. Requirements: - the caller must have ``role``'s admin role. May emit a {RoleRevoked} event."
      },
      "supportsInterface(bytes4)": {
        "details": "See {IERC165-supportsInterface}."
      }
    },
    "title": "STRATEGY MANAGEMENT",
    "version": 1
  },
  "userdoc": {
    "kind": "user",
    "methods": {},
    "version": 1
  },
  "storageLayout": {
    "storage": [
      {
        "astId": 24,
        "contract": "contracts/Packages/StrategyManagerPackage.sol:StrategyManagerPackage",
        "label": "_roles",
        "offset": 0,
        "slot": "0",
        "type": "t_mapping(t_bytes32,t_struct(RoleData)19_storage)"
      },
      {
        "astId": 11300,
        "contract": "contracts/Packages/StrategyManagerPackage.sol:StrategyManagerPackage",
        "label": "strategyManager",
        "offset": 0,
        "slot": "1",
        "type": "t_address_payable"
      },
      {
        "astId": 11302,
        "contract": "contracts/Packages/StrategyManagerPackage.sol:StrategyManagerPackage",
        "label": "sharesManager",
        "offset": 0,
        "slot": "2",
        "type": "t_address"
      },
      {
        "astId": 11304,
        "contract": "contracts/Packages/StrategyManagerPackage.sol:StrategyManagerPackage",
        "label": "setters",
        "offset": 0,
        "slot": "3",
        "type": "t_address_payable"
      },
      {
        "astId": 11306,
        "contract": "contracts/Packages/StrategyManagerPackage.sol:StrategyManagerPackage",
        "label": "governance",
        "offset": 0,
        "slot": "4",
        "type": "t_address"
      },
      {
        "astId": 11311,
        "contract": "contracts/Packages/StrategyManagerPackage.sol:StrategyManagerPackage",
        "label": "strategies",
        "offset": 0,
        "slot": "5",
        "type": "t_mapping(t_address,t_struct(StrategyParams)11472_storage)"
      },
      {
        "astId": 11314,
        "contract": "contracts/Packages/StrategyManagerPackage.sol:StrategyManagerPackage",
        "label": "fees",
        "offset": 0,
        "slot": "6",
        "type": "t_struct(FeeAssessment)11481_storage"
      },
      {
        "astId": 11317,
        "contract": "contracts/Packages/StrategyManagerPackage.sol:StrategyManagerPackage",
        "label": "defaultQueue",
        "offset": 0,
        "slot": "10",
        "type": "t_array(t_address)dyn_storage"
      },
      {
        "astId": 11319,
        "contract": "contracts/Packages/StrategyManagerPackage.sol:StrategyManagerPackage",
        "label": "useDefaultQueue",
        "offset": 0,
        "slot": "11",
        "type": "t_bool"
      },
      {
        "astId": 11321,
        "contract": "contracts/Packages/StrategyManagerPackage.sol:StrategyManagerPackage",
        "label": "initialized",
        "offset": 1,
        "slot": "11",
        "type": "t_bool"
      },
      {
        "astId": 11325,
        "contract": "contracts/Packages/StrategyManagerPackage.sol:StrategyManagerPackage",
        "label": "_balanceOf",
        "offset": 0,
        "slot": "12",
        "type": "t_mapping(t_address,t_uint256)"
      },
      {
        "astId": 11331,
        "contract": "contracts/Packages/StrategyManagerPackage.sol:StrategyManagerPackage",
        "label": "_allowance",
        "offset": 0,
        "slot": "13",
        "type": "t_mapping(t_address,t_mapping(t_address,t_uint256))"
      },
      {
        "astId": 11333,
        "contract": "contracts/Packages/StrategyManagerPackage.sol:StrategyManagerPackage",
        "label": "totalSupplyAmount",
        "offset": 0,
        "slot": "14",
        "type": "t_uint256"
      },
      {
        "astId": 11335,
        "contract": "contracts/Packages/StrategyManagerPackage.sol:StrategyManagerPackage",
        "label": "totalDebtAmount",
        "offset": 0,
        "slot": "15",
        "type": "t_uint256"
      },
      {
        "astId": 11337,
        "contract": "contracts/Packages/StrategyManagerPackage.sol:StrategyManagerPackage",
        "label": "totalIdleAmount",
        "offset": 0,
        "slot": "16",
        "type": "t_uint256"
      },
      {
        "astId": 11339,
        "contract": "contracts/Packages/StrategyManagerPackage.sol:StrategyManagerPackage",
        "label": "minimumTotalIdle",
        "offset": 0,
        "slot": "17",
        "type": "t_uint256"
      },
      {
        "astId": 11341,
        "contract": "contracts/Packages/StrategyManagerPackage.sol:StrategyManagerPackage",
        "label": "depositLimit",
        "offset": 0,
        "slot": "18",
        "type": "t_uint256"
      },
      {
        "astId": 11343,
        "contract": "contracts/Packages/StrategyManagerPackage.sol:StrategyManagerPackage",
        "label": "accountant",
        "offset": 0,
        "slot": "19",
        "type": "t_address"
      },
      {
        "astId": 11345,
        "contract": "contracts/Packages/StrategyManagerPackage.sol:StrategyManagerPackage",
        "label": "depositLimitModule",
        "offset": 0,
        "slot": "20",
        "type": "t_address"
      },
      {
        "astId": 11347,
        "contract": "contracts/Packages/StrategyManagerPackage.sol:StrategyManagerPackage",
        "label": "withdrawLimitModule",
        "offset": 0,
        "slot": "21",
        "type": "t_address"
      },
      {
        "astId": 11351,
        "contract": "contracts/Packages/StrategyManagerPackage.sol:StrategyManagerPackage",
        "label": "roles",
        "offset": 0,
        "slot": "22",
        "type": "t_mapping(t_address,t_bytes32)"
      },
      {
        "astId": 11355,
        "contract": "contracts/Packages/StrategyManagerPackage.sol:StrategyManagerPackage",
        "label": "openRoles",
        "offset": 0,
        "slot": "23",
        "type": "t_mapping(t_bytes32,t_bool)"
      },
      {
        "astId": 11357,
        "contract": "contracts/Packages/StrategyManagerPackage.sol:StrategyManagerPackage",
        "label": "roleManager",
        "offset": 0,
        "slot": "24",
        "type": "t_address"
      },
      {
        "astId": 11359,
        "contract": "contracts/Packages/StrategyManagerPackage.sol:StrategyManagerPackage",
        "label": "futureRoleManager",
        "offset": 0,
        "slot": "25",
        "type": "t_address"
      },
      {
        "astId": 11361,
        "contract": "contracts/Packages/StrategyManagerPackage.sol:StrategyManagerPackage",
        "label": "shutdown",
        "offset": 20,
        "slot": "25",
        "type": "t_bool"
      },
      {
        "astId": 11363,
        "contract": "contracts/Packages/StrategyManagerPackage.sol:StrategyManagerPackage",
        "label": "profitMaxUnlockTime",
        "offset": 0,
        "slot": "26",
        "type": "t_uint256"
      },
      {
        "astId": 11365,
        "contract": "contracts/Packages/StrategyManagerPackage.sol:StrategyManagerPackage",
        "label": "fullProfitUnlockDate",
        "offset": 0,
        "slot": "27",
        "type": "t_uint256"
      },
      {
        "astId": 11367,
        "contract": "contracts/Packages/StrategyManagerPackage.sol:StrategyManagerPackage",
        "label": "profitUnlockingRate",
        "offset": 0,
        "slot": "28",
        "type": "t_uint256"
      },
      {
        "astId": 11369,
        "contract": "contracts/Packages/StrategyManagerPackage.sol:StrategyManagerPackage",
        "label": "lastProfitUpdate",
        "offset": 0,
        "slot": "29",
        "type": "t_uint256"
      },
      {
        "astId": 11373,
        "contract": "contracts/Packages/StrategyManagerPackage.sol:StrategyManagerPackage",
        "label": "nonces",
        "offset": 0,
        "slot": "30",
        "type": "t_mapping(t_address,t_uint256)"
      },
      {
        "astId": 11380,
        "contract": "contracts/Packages/StrategyManagerPackage.sol:StrategyManagerPackage",
        "label": "DOMAIN_SEPARATOR",
        "offset": 0,
        "slot": "31",
        "type": "t_bytes32"
      },
      {
        "astId": 8674,
        "contract": "contracts/Packages/StrategyManagerPackage.sol:StrategyManagerPackage",
        "label": "ASSET",
        "offset": 0,
        "slot": "32",
        "type": "t_contract(IERC20)928"
      },
      {
        "astId": 8676,
        "contract": "contracts/Packages/StrategyManagerPackage.sol:StrategyManagerPackage",
        "label": "FACTORY",
        "offset": 0,
        "slot": "33",
        "type": "t_address"
      }
    ],
    "types": {
      "t_address": {
        "encoding": "inplace",
        "label": "address",
        "numberOfBytes": "20"
      },
      "t_address_payable": {
        "encoding": "inplace",
        "label": "address payable",
        "numberOfBytes": "20"
      },
      "t_array(t_address)dyn_storage": {
        "base": "t_address",
        "encoding": "dynamic_array",
        "label": "address[]",
        "numberOfBytes": "32"
      },
      "t_bool": {
        "encoding": "inplace",
        "label": "bool",
        "numberOfBytes": "1"
      },
      "t_bytes32": {
        "encoding": "inplace",
        "label": "bytes32",
        "numberOfBytes": "32"
      },
      "t_contract(IERC20)928": {
        "encoding": "inplace",
        "label": "contract IERC20",
        "numberOfBytes": "20"
      },
      "t_mapping(t_address,t_bool)": {
        "encoding": "mapping",
        "key": "t_address",
        "label": "mapping(address => bool)",
        "numberOfBytes": "32",
        "value": "t_bool"
      },
      "t_mapping(t_address,t_bytes32)": {
        "encoding": "mapping",
        "key": "t_address",
        "label": "mapping(address => bytes32)",
        "numberOfBytes": "32",
        "value": "t_bytes32"
      },
      "t_mapping(t_address,t_mapping(t_address,t_uint256))": {
        "encoding": "mapping",
        "key": "t_address",
        "label": "mapping(address => mapping(address => uint256))",
        "numberOfBytes": "32",
        "value": "t_mapping(t_address,t_uint256)"
      },
      "t_mapping(t_address,t_struct(StrategyParams)11472_storage)": {
        "encoding": "mapping",
        "key": "t_address",
        "label": "mapping(address => struct StrategyParams)",
        "numberOfBytes": "32",
        "value": "t_struct(StrategyParams)11472_storage"
      },
      "t_mapping(t_address,t_uint256)": {
        "encoding": "mapping",
        "key": "t_address",
        "label": "mapping(address => uint256)",
        "numberOfBytes": "32",
        "value": "t_uint256"
      },
      "t_mapping(t_bytes32,t_bool)": {
        "encoding": "mapping",
        "key": "t_bytes32",
        "label": "mapping(bytes32 => bool)",
        "numberOfBytes": "32",
        "value": "t_bool"
      },
      "t_mapping(t_bytes32,t_struct(RoleData)19_storage)": {
        "encoding": "mapping",
        "key": "t_bytes32",
        "label": "mapping(bytes32 => struct AccessControl.RoleData)",
        "numberOfBytes": "32",
        "value": "t_struct(RoleData)19_storage"
      },
      "t_struct(FeeAssessment)11481_storage": {
        "encoding": "inplace",
        "label": "struct FeeAssessment",
        "members": [
          {
            "astId": 11474,
            "contract": "contracts/Packages/StrategyManagerPackage.sol:StrategyManagerPackage",
            "label": "totalFees",
            "offset": 0,
            "slot": "0",
            "type": "t_uint256"
          },
          {
            "astId": 11476,
            "contract": "contracts/Packages/StrategyManagerPackage.sol:StrategyManagerPackage",
            "label": "totalRefunds",
            "offset": 0,
            "slot": "1",
            "type": "t_uint256"
          },
          {
            "astId": 11478,
            "contract": "contracts/Packages/StrategyManagerPackage.sol:StrategyManagerPackage",
            "label": "protocolFees",
            "offset": 0,
            "slot": "2",
            "type": "t_uint256"
          },
          {
            "astId": 11480,
            "contract": "contracts/Packages/StrategyManagerPackage.sol:StrategyManagerPackage",
            "label": "protocolFeeRecipient",
            "offset": 0,
            "slot": "3",
            "type": "t_address"
          }
        ],
        "numberOfBytes": "128"
      },
      "t_struct(RoleData)19_storage": {
        "encoding": "inplace",
        "label": "struct AccessControl.RoleData",
        "members": [
          {
            "astId": 16,
            "contract": "contracts/Packages/StrategyManagerPackage.sol:StrategyManagerPackage",
            "label": "members",
            "offset": 0,
            "slot": "0",
            "type": "t_mapping(t_address,t_bool)"
          },
          {
            "astId": 18,
            "contract": "contracts/Packages/StrategyManagerPackage.sol:StrategyManagerPackage",
            "label": "adminRole",
            "offset": 0,
            "slot": "1",
            "type": "t_bytes32"
          }
        ],
        "numberOfBytes": "64"
      },
      "t_struct(StrategyParams)11472_storage": {
        "encoding": "inplace",
        "label": "struct StrategyParams",
        "members": [
          {
            "astId": 11465,
            "contract": "contracts/Packages/StrategyManagerPackage.sol:StrategyManagerPackage",
            "label": "activation",
            "offset": 0,
            "slot": "0",
            "type": "t_uint256"
          },
          {
            "astId": 11467,
            "contract": "contracts/Packages/StrategyManagerPackage.sol:StrategyManagerPackage",
            "label": "lastReport",
            "offset": 0,
            "slot": "1",
            "type": "t_uint256"
          },
          {
            "astId": 11469,
            "contract": "contracts/Packages/StrategyManagerPackage.sol:StrategyManagerPackage",
            "label": "currentDebt",
            "offset": 0,
            "slot": "2",
            "type": "t_uint256"
          },
          {
            "astId": 11471,
            "contract": "contracts/Packages/StrategyManagerPackage.sol:StrategyManagerPackage",
            "label": "maxDebt",
            "offset": 0,
            "slot": "3",
            "type": "t_uint256"
          }
        ],
        "numberOfBytes": "128"
      },
      "t_uint256": {
        "encoding": "inplace",
        "label": "uint256",
        "numberOfBytes": "32"
      }
    }
  }
}