{
  "address": "0x18695BCBF2F79997B85bfC5d1a07342369c20Ea5",
  "abi": [
    {
      "inputs": [
        {
          "internalType": "address",
          "name": "_asset",
          "type": "address"
        },
        {
          "internalType": "address",
          "name": "_sharesManager",
          "type": "address"
        }
      ],
      "stateMutability": "nonpayable",
      "type": "constructor"
    },
    {
      "inputs": [],
      "name": "DebtDidntChange",
      "type": "error"
    },
    {
      "inputs": [],
      "name": "DebtHigherThanMaxDebt",
      "type": "error"
    },
    {
      "inputs": [],
      "name": "InactiveStrategy",
      "type": "error"
    },
    {
      "inputs": [],
      "name": "InsufficientFunds",
      "type": "error"
    },
    {
      "inputs": [],
      "name": "InvalidAsset",
      "type": "error"
    },
    {
      "inputs": [],
      "name": "StrategyAlreadyActive",
      "type": "error"
    },
    {
      "inputs": [],
      "name": "StrategyDebtIsLessThanAssetsNeeded",
      "type": "error"
    },
    {
      "inputs": [],
      "name": "StrategyHasDebt",
      "type": "error"
    },
    {
      "inputs": [],
      "name": "StrategyHasUnrealisedLosses",
      "type": "error"
    },
    {
      "inputs": [],
      "name": "ZeroAddress",
      "type": "error"
    },
    {
      "inputs": [],
      "name": "ZeroValue",
      "type": "error"
    },
    {
      "anonymous": false,
      "inputs": [
        {
          "indexed": true,
          "internalType": "address",
          "name": "strategy",
          "type": "address"
        },
        {
          "indexed": false,
          "internalType": "uint256",
          "name": "amount",
          "type": "uint256"
        }
      ],
      "name": "DebtPurchased",
      "type": "event"
    },
    {
      "anonymous": false,
      "inputs": [
        {
          "indexed": true,
          "internalType": "address",
          "name": "strategy",
          "type": "address"
        },
        {
          "indexed": false,
          "internalType": "uint256",
          "name": "currentDebt",
          "type": "uint256"
        },
        {
          "indexed": false,
          "internalType": "uint256",
          "name": "newDebt",
          "type": "uint256"
        }
      ],
      "name": "DebtUpdated",
      "type": "event"
    },
    {
      "anonymous": false,
      "inputs": [
        {
          "indexed": true,
          "internalType": "address",
          "name": "account",
          "type": "address"
        },
        {
          "indexed": false,
          "internalType": "bytes32",
          "name": "role",
          "type": "bytes32"
        }
      ],
      "name": "RoleSet",
      "type": "event"
    },
    {
      "anonymous": false,
      "inputs": [
        {
          "indexed": true,
          "internalType": "bytes32",
          "name": "role",
          "type": "bytes32"
        },
        {
          "indexed": true,
          "internalType": "enum RoleStatusChange",
          "name": "status",
          "type": "uint8"
        }
      ],
      "name": "RoleStatusChanged",
      "type": "event"
    },
    {
      "anonymous": false,
      "inputs": [],
      "name": "Shutdown",
      "type": "event"
    },
    {
      "anonymous": false,
      "inputs": [
        {
          "indexed": true,
          "internalType": "address",
          "name": "strategy",
          "type": "address"
        },
        {
          "indexed": false,
          "internalType": "enum StrategyChangeType",
          "name": "changeType",
          "type": "uint8"
        }
      ],
      "name": "StrategyChanged",
      "type": "event"
    },
    {
      "anonymous": false,
      "inputs": [
        {
          "indexed": true,
          "internalType": "address",
          "name": "strategy",
          "type": "address"
        },
        {
          "indexed": false,
          "internalType": "uint256",
          "name": "gain",
          "type": "uint256"
        },
        {
          "indexed": false,
          "internalType": "uint256",
          "name": "loss",
          "type": "uint256"
        },
        {
          "indexed": false,
          "internalType": "uint256",
          "name": "currentDebt",
          "type": "uint256"
        },
        {
          "indexed": false,
          "internalType": "uint256",
          "name": "protocolFees",
          "type": "uint256"
        },
        {
          "indexed": false,
          "internalType": "uint256",
          "name": "totalFees",
          "type": "uint256"
        },
        {
          "indexed": false,
          "internalType": "uint256",
          "name": "totalRefunds",
          "type": "uint256"
        }
      ],
      "name": "StrategyReported",
      "type": "event"
    },
    {
      "anonymous": false,
      "inputs": [
        {
          "indexed": true,
          "internalType": "address",
          "name": "accountant",
          "type": "address"
        }
      ],
      "name": "UpdateAccountant",
      "type": "event"
    },
    {
      "anonymous": false,
      "inputs": [
        {
          "indexed": false,
          "internalType": "address[]",
          "name": "newDefaultQueue",
          "type": "address[]"
        }
      ],
      "name": "UpdateDefaultQueue",
      "type": "event"
    },
    {
      "anonymous": false,
      "inputs": [
        {
          "indexed": false,
          "internalType": "uint256",
          "name": "depositLimit",
          "type": "uint256"
        }
      ],
      "name": "UpdateDepositLimit",
      "type": "event"
    },
    {
      "anonymous": false,
      "inputs": [
        {
          "indexed": true,
          "internalType": "address",
          "name": "depositLimitModule",
          "type": "address"
        }
      ],
      "name": "UpdateDepositLimitModule",
      "type": "event"
    },
    {
      "anonymous": false,
      "inputs": [
        {
          "indexed": false,
          "internalType": "uint256",
          "name": "minimumTotalIdle",
          "type": "uint256"
        }
      ],
      "name": "UpdateMinimumTotalIdle",
      "type": "event"
    },
    {
      "anonymous": false,
      "inputs": [
        {
          "indexed": false,
          "internalType": "uint256",
          "name": "profitMaxUnlockTime",
          "type": "uint256"
        }
      ],
      "name": "UpdateProfitMaxUnlockTime",
      "type": "event"
    },
    {
      "anonymous": false,
      "inputs": [
        {
          "indexed": true,
          "internalType": "address",
          "name": "roleManager",
          "type": "address"
        }
      ],
      "name": "UpdateRoleManager",
      "type": "event"
    },
    {
      "anonymous": false,
      "inputs": [
        {
          "indexed": false,
          "internalType": "bool",
          "name": "useDefaultQueue",
          "type": "bool"
        }
      ],
      "name": "UpdateUseDefaultQueue",
      "type": "event"
    },
    {
      "anonymous": false,
      "inputs": [
        {
          "indexed": true,
          "internalType": "address",
          "name": "withdrawLimitModule",
          "type": "address"
        }
      ],
      "name": "UpdateWithdrawLimitModule",
      "type": "event"
    },
    {
      "anonymous": false,
      "inputs": [
        {
          "indexed": true,
          "internalType": "address",
          "name": "sender",
          "type": "address"
        },
        {
          "indexed": true,
          "internalType": "address",
          "name": "strategy",
          "type": "address"
        },
        {
          "indexed": false,
          "internalType": "uint256",
          "name": "newDebt",
          "type": "uint256"
        }
      ],
      "name": "UpdatedMaxDebtForStrategy",
      "type": "event"
    },
    {
      "inputs": [],
      "name": "ACCOUNTANT_MANAGER",
      "outputs": [
        {
          "internalType": "bytes32",
          "name": "",
          "type": "bytes32"
        }
      ],
      "stateMutability": "view",
      "type": "function"
    },
    {
      "inputs": [],
      "name": "ADD_STRATEGY_MANAGER",
      "outputs": [
        {
          "internalType": "bytes32",
          "name": "",
          "type": "bytes32"
        }
      ],
      "stateMutability": "view",
      "type": "function"
    },
    {
      "inputs": [],
      "name": "API_VERSION",
      "outputs": [
        {
          "internalType": "string",
          "name": "",
          "type": "string"
        }
      ],
      "stateMutability": "view",
      "type": "function"
    },
    {
      "inputs": [],
      "name": "ASSET",
      "outputs": [
        {
          "internalType": "contract IERC20",
          "name": "",
          "type": "address"
        }
      ],
      "stateMutability": "view",
      "type": "function"
    },
    {
      "inputs": [],
      "name": "DEBT_MANAGER",
      "outputs": [
        {
          "internalType": "bytes32",
          "name": "",
          "type": "bytes32"
        }
      ],
      "stateMutability": "view",
      "type": "function"
    },
    {
      "inputs": [],
      "name": "DEBT_PURCHASER",
      "outputs": [
        {
          "internalType": "bytes32",
          "name": "",
          "type": "bytes32"
        }
      ],
      "stateMutability": "view",
      "type": "function"
    },
    {
      "inputs": [],
      "name": "DEPOSIT_LIMIT_MANAGER",
      "outputs": [
        {
          "internalType": "bytes32",
          "name": "",
          "type": "bytes32"
        }
      ],
      "stateMutability": "view",
      "type": "function"
    },
    {
      "inputs": [],
      "name": "DOMAIN_SEPARATOR",
      "outputs": [
        {
          "internalType": "bytes32",
          "name": "",
          "type": "bytes32"
        }
      ],
      "stateMutability": "view",
      "type": "function"
    },
    {
      "inputs": [],
      "name": "DOMAIN_TYPE_HASH",
      "outputs": [
        {
          "internalType": "bytes32",
          "name": "",
          "type": "bytes32"
        }
      ],
      "stateMutability": "view",
      "type": "function"
    },
    {
      "inputs": [],
      "name": "EMERGENCY_MANAGER",
      "outputs": [
        {
          "internalType": "bytes32",
          "name": "",
          "type": "bytes32"
        }
      ],
      "stateMutability": "view",
      "type": "function"
    },
    {
      "inputs": [],
      "name": "FACTORY",
      "outputs": [
        {
          "internalType": "address",
          "name": "",
          "type": "address"
        }
      ],
      "stateMutability": "view",
      "type": "function"
    },
    {
      "inputs": [],
      "name": "FORCE_REVOKE_MANAGER",
      "outputs": [
        {
          "internalType": "bytes32",
          "name": "",
          "type": "bytes32"
        }
      ],
      "stateMutability": "view",
      "type": "function"
    },
    {
      "inputs": [],
      "name": "MAX_BPS",
      "outputs": [
        {
          "internalType": "uint256",
          "name": "",
          "type": "uint256"
        }
      ],
      "stateMutability": "view",
      "type": "function"
    },
    {
      "inputs": [],
      "name": "MAX_BPS_EXTENDED",
      "outputs": [
        {
          "internalType": "uint256",
          "name": "",
          "type": "uint256"
        }
      ],
      "stateMutability": "view",
      "type": "function"
    },
    {
      "inputs": [],
      "name": "MAX_DEBT_MANAGER",
      "outputs": [
        {
          "internalType": "bytes32",
          "name": "",
          "type": "bytes32"
        }
      ],
      "stateMutability": "view",
      "type": "function"
    },
    {
      "inputs": [],
      "name": "MAX_QUEUE",
      "outputs": [
        {
          "internalType": "uint256",
          "name": "",
          "type": "uint256"
        }
      ],
      "stateMutability": "view",
      "type": "function"
    },
    {
      "inputs": [],
      "name": "MINIMUM_IDLE_MANAGER",
      "outputs": [
        {
          "internalType": "bytes32",
          "name": "",
          "type": "bytes32"
        }
      ],
      "stateMutability": "view",
      "type": "function"
    },
    {
      "inputs": [],
      "name": "ONE_YEAR",
      "outputs": [
        {
          "internalType": "uint256",
          "name": "",
          "type": "uint256"
        }
      ],
      "stateMutability": "view",
      "type": "function"
    },
    {
      "inputs": [],
      "name": "PERMIT_TYPE_HASH",
      "outputs": [
        {
          "internalType": "bytes32",
          "name": "",
          "type": "bytes32"
        }
      ],
      "stateMutability": "view",
      "type": "function"
    },
    {
      "inputs": [],
      "name": "PROFIT_UNLOCK_MANAGER",
      "outputs": [
        {
          "internalType": "bytes32",
          "name": "",
          "type": "bytes32"
        }
      ],
      "stateMutability": "view",
      "type": "function"
    },
    {
      "inputs": [],
      "name": "QUEUE_MANAGER",
      "outputs": [
        {
          "internalType": "bytes32",
          "name": "",
          "type": "bytes32"
        }
      ],
      "stateMutability": "view",
      "type": "function"
    },
    {
      "inputs": [],
      "name": "REPORTING_MANAGER",
      "outputs": [
        {
          "internalType": "bytes32",
          "name": "",
          "type": "bytes32"
        }
      ],
      "stateMutability": "view",
      "type": "function"
    },
    {
      "inputs": [],
      "name": "REVOKE_STRATEGY_MANAGER",
      "outputs": [
        {
          "internalType": "bytes32",
          "name": "",
          "type": "bytes32"
        }
      ],
      "stateMutability": "view",
      "type": "function"
    },
    {
      "inputs": [],
      "name": "ROLE_MANAGER",
      "outputs": [
        {
          "internalType": "bytes32",
          "name": "",
          "type": "bytes32"
        }
      ],
      "stateMutability": "view",
      "type": "function"
    },
    {
      "inputs": [],
      "name": "WITHDRAW_LIMIT_MANAGER",
      "outputs": [
        {
          "internalType": "bytes32",
          "name": "",
          "type": "bytes32"
        }
      ],
      "stateMutability": "view",
      "type": "function"
    },
    {
      "inputs": [],
      "name": "accountant",
      "outputs": [
        {
          "internalType": "address",
          "name": "",
          "type": "address"
        }
      ],
      "stateMutability": "view",
      "type": "function"
    },
    {
      "inputs": [
        {
          "internalType": "address",
          "name": "newStrategy",
          "type": "address"
        }
      ],
      "name": "addStrategy",
      "outputs": [],
      "stateMutability": "nonpayable",
      "type": "function"
    },
    {
      "inputs": [
        {
          "internalType": "uint256",
          "name": "",
          "type": "uint256"
        }
      ],
      "name": "defaultQueue",
      "outputs": [
        {
          "internalType": "address",
          "name": "",
          "type": "address"
        }
      ],
      "stateMutability": "view",
      "type": "function"
    },
    {
      "inputs": [],
      "name": "depositLimit",
      "outputs": [
        {
          "internalType": "uint256",
          "name": "",
          "type": "uint256"
        }
      ],
      "stateMutability": "view",
      "type": "function"
    },
    {
      "inputs": [],
      "name": "depositLimitModule",
      "outputs": [
        {
          "internalType": "address",
          "name": "",
          "type": "address"
        }
      ],
      "stateMutability": "view",
      "type": "function"
    },
    {
      "inputs": [],
      "name": "fullProfitUnlockDate",
      "outputs": [
        {
          "internalType": "uint256",
          "name": "",
          "type": "uint256"
        }
      ],
      "stateMutability": "view",
      "type": "function"
    },
    {
      "inputs": [],
      "name": "futureRoleManager",
      "outputs": [
        {
          "internalType": "address",
          "name": "",
          "type": "address"
        }
      ],
      "stateMutability": "view",
      "type": "function"
    },
    {
      "inputs": [],
      "name": "governance",
      "outputs": [
        {
          "internalType": "address",
          "name": "",
          "type": "address"
        }
      ],
      "stateMutability": "view",
      "type": "function"
    },
    {
      "inputs": [],
      "name": "lastProfitUpdate",
      "outputs": [
        {
          "internalType": "uint256",
          "name": "",
          "type": "uint256"
        }
      ],
      "stateMutability": "view",
      "type": "function"
    },
    {
      "inputs": [],
      "name": "minimumTotalIdle",
      "outputs": [
        {
          "internalType": "uint256",
          "name": "",
          "type": "uint256"
        }
      ],
      "stateMutability": "view",
      "type": "function"
    },
    {
      "inputs": [
        {
          "internalType": "address",
          "name": "",
          "type": "address"
        }
      ],
      "name": "nonces",
      "outputs": [
        {
          "internalType": "uint256",
          "name": "",
          "type": "uint256"
        }
      ],
      "stateMutability": "view",
      "type": "function"
    },
    {
      "inputs": [
        {
          "internalType": "bytes32",
          "name": "",
          "type": "bytes32"
        }
      ],
      "name": "openRoles",
      "outputs": [
        {
          "internalType": "bool",
          "name": "",
          "type": "bool"
        }
      ],
      "stateMutability": "view",
      "type": "function"
    },
    {
      "inputs": [
        {
          "internalType": "address",
          "name": "strategy",
          "type": "address"
        }
      ],
      "name": "processReport",
      "outputs": [
        {
          "internalType": "uint256",
          "name": "",
          "type": "uint256"
        },
        {
          "internalType": "uint256",
          "name": "",
          "type": "uint256"
        }
      ],
      "stateMutability": "nonpayable",
      "type": "function"
    },
    {
      "inputs": [],
      "name": "profitMaxUnlockTime",
      "outputs": [
        {
          "internalType": "uint256",
          "name": "",
          "type": "uint256"
        }
      ],
      "stateMutability": "view",
      "type": "function"
    },
    {
      "inputs": [],
      "name": "profitUnlockingRate",
      "outputs": [
        {
          "internalType": "uint256",
          "name": "",
          "type": "uint256"
        }
      ],
      "stateMutability": "view",
      "type": "function"
    },
    {
      "inputs": [
        {
          "internalType": "address",
          "name": "strategy",
          "type": "address"
        },
        {
          "internalType": "bool",
          "name": "force",
          "type": "bool"
        }
      ],
      "name": "revokeStrategy",
      "outputs": [],
      "stateMutability": "nonpayable",
      "type": "function"
    },
    {
      "inputs": [],
      "name": "roleManager",
      "outputs": [
        {
          "internalType": "address",
          "name": "",
          "type": "address"
        }
      ],
      "stateMutability": "view",
      "type": "function"
    },
    {
      "inputs": [
        {
          "internalType": "address",
          "name": "",
          "type": "address"
        }
      ],
      "name": "roles",
      "outputs": [
        {
          "internalType": "bytes32",
          "name": "",
          "type": "bytes32"
        }
      ],
      "stateMutability": "view",
      "type": "function"
    },
    {
      "inputs": [],
      "name": "setters",
      "outputs": [
        {
          "internalType": "address",
          "name": "",
          "type": "address"
        }
      ],
      "stateMutability": "view",
      "type": "function"
    },
    {
      "inputs": [],
      "name": "sharesManager",
      "outputs": [
        {
          "internalType": "address",
          "name": "",
          "type": "address"
        }
      ],
      "stateMutability": "view",
      "type": "function"
    },
    {
      "inputs": [],
      "name": "shutdown",
      "outputs": [
        {
          "internalType": "bool",
          "name": "",
          "type": "bool"
        }
      ],
      "stateMutability": "view",
      "type": "function"
    },
    {
      "inputs": [
        {
          "internalType": "address",
          "name": "",
          "type": "address"
        }
      ],
      "name": "strategies",
      "outputs": [
        {
          "internalType": "uint256",
          "name": "activation",
          "type": "uint256"
        },
        {
          "internalType": "uint256",
          "name": "lastReport",
          "type": "uint256"
        },
        {
          "internalType": "uint256",
          "name": "currentDebt",
          "type": "uint256"
        },
        {
          "internalType": "uint256",
          "name": "maxDebt",
          "type": "uint256"
        }
      ],
      "stateMutability": "view",
      "type": "function"
    },
    {
      "inputs": [],
      "name": "strategyManager",
      "outputs": [
        {
          "internalType": "address",
          "name": "",
          "type": "address"
        }
      ],
      "stateMutability": "view",
      "type": "function"
    },
    {
      "inputs": [],
      "name": "totalDebtAmount",
      "outputs": [
        {
          "internalType": "uint256",
          "name": "",
          "type": "uint256"
        }
      ],
      "stateMutability": "view",
      "type": "function"
    },
    {
      "inputs": [],
      "name": "totalIdleAmount",
      "outputs": [
        {
          "internalType": "uint256",
          "name": "",
          "type": "uint256"
        }
      ],
      "stateMutability": "view",
      "type": "function"
    },
    {
      "inputs": [],
      "name": "totalSupplyAmount",
      "outputs": [
        {
          "internalType": "uint256",
          "name": "",
          "type": "uint256"
        }
      ],
      "stateMutability": "view",
      "type": "function"
    },
    {
      "inputs": [
        {
          "internalType": "address",
          "name": "strategy",
          "type": "address"
        },
        {
          "internalType": "uint256",
          "name": "targetDebt",
          "type": "uint256"
        }
      ],
      "name": "updateDebt",
      "outputs": [
        {
          "internalType": "uint256",
          "name": "",
          "type": "uint256"
        }
      ],
      "stateMutability": "nonpayable",
      "type": "function"
    },
    {
      "inputs": [
        {
          "internalType": "address",
          "name": "strategy",
          "type": "address"
        },
        {
          "internalType": "uint256",
          "name": "newMaxDebt",
          "type": "uint256"
        }
      ],
      "name": "updateMaxDebtForStrategy",
      "outputs": [],
      "stateMutability": "nonpayable",
      "type": "function"
    },
    {
      "inputs": [],
      "name": "useDefaultQueue",
      "outputs": [
        {
          "internalType": "bool",
          "name": "",
          "type": "bool"
        }
      ],
      "stateMutability": "view",
      "type": "function"
    },
    {
      "inputs": [],
      "name": "withdrawLimitModule",
      "outputs": [
        {
          "internalType": "address",
          "name": "",
          "type": "address"
        }
      ],
      "stateMutability": "view",
      "type": "function"
    }
  ],
  "transactionHash": "0x7f8ceca09d2f46f4768d1470ec2c986279964d3f14795c7f3a588e4bd91feb91",
  "args": [
    "0x1b13fEDd2E955E1cE15b0DaAa9cD5f6aE815F7C0",
    "0xBC2Ab409fed847926D05dd4dC26DE7C72891233e"
  ],
  "numDeployments": 1,
  "solcInputHash": "a44d46dc47283061fc4b26b4c75aaab8",
  "bytecode": "0x60e06040526301e185586080523480156200001957600080fd5b506040516200261b3803806200261b8339810160408190526200003c91620000a3565b6001600160a01b0391821660a0523360c052600180546001600160a01b03191691909216179055620000e6565b60006001600160a01b0382165b92915050565b620000878162000069565b81146200009357600080fd5b50565b805162000076816200007c565b60008060408385031215620000bb57620000bb600080fd5b6000620000c9858562000096565b9250506020620000dc8582860162000096565b9150509250929050565b60805160a05160c0516124cd6200014e600039600081816103610152611b73015260008181610419015281816108a601528181610cc401528181610db801528181610fd2015281816110490152818161114f01526111ee0152600061031c01526124cd6000f3fe608060405234801561001057600080fd5b506004361061027c5760003560e01c8062435da51461028157806303dcd12c146102aa5780630835a3fc146102de5780630952864e146102e75780630ad283d0146102f057806316d3bfbb14610317578063223e54791461033e5780632d632692146103535780632dd310001461035c5780633644e5151461038357806336fba0841461038c57806339b70e381461039857806339ebf823146103ab5780633cd7b5ab146103f05780633f7b5e40146103f957806346e6ac49146104015780634800d97f146104145780634ce1d38a146104485780634cfe51dc1461046f5780634d4bb197146104965780634fb3ccc5146104bd5780635141eebb146104d057806353a66132146104d95780635aa6e675146105095780635bf6b4fb1461051c578063652da3241461054357806377e3b2671461056a5780637ecebe001461059b5780638afca8f0146105bb57806391986003146105c457806399374642146105d75780639e34e348146105f75780639f3988f31461060a578063a98222c414610631578063ab5b4d4914610658578063acded97d1461067f578063b3c187f214610692578063b6cc2d1f146106a5578063bbe4eb49146106c6578063bee7e3d9146106d3578063c065ca07146106e6578063c0993eea1461070d578063c8d74b6014610734578063c8dffa951461075b578063d4ae064f14610764578063ecf708581461078b578063f1daeba814610794578063f42c77ae146107bb578063f5b944eb146107ce578063f6d7bfa0146107f5578063f828f50b14610808578063fc0e74d114610811578063fd967f4714610825578063fec61f061461082e578063ff1e7f0814610855575b600080fd5b601354610294906001600160a01b031681565b6040516102a19190611d0c565b60405180910390f35b6102d17f633076a97f32ae349b28772e7b1483f67a926f150cbc501d02bdbd77389325ab81565b6040516102a19190611d20565b6102d1600c5481565b6102d160155481565b6102d17fc723f4dd6268e1c374639e36d629c765285ee7003913389d582c300f186dde9781565b6102d17f000000000000000000000000000000000000000000000000000000000000000081565b61035161034c366004611d50565b610868565b005b6102d160165481565b6102947f000000000000000000000000000000000000000000000000000000000000000081565b6102d1601a5481565b6102d164e8d4a5100081565b600054610294906001600160a01b031681565b6103e06103b9366004611d50565b60046020526000908152604090208054600182015460028301546003909301549192909184565b6040516102a19493929190611d71565b6102d1600b5481565b6102d1600a81565b6102d161040f366004611dc0565b610a6d565b61043b7f000000000000000000000000000000000000000000000000000000000000000081565b6040516102a19190611e35565b6102d17f69d1171ac0a63777a6733cda21aec9ed3d48a4fd11f273c934a691dec5e5589c81565b6102d17f862f91c9d89d6135b19873b921c90b702cb2e175c371b8430026b9577e69111981565b6102d17f6e71edae12b1b97f4d1f60370fef10105fa2faae0126114a169c64845d6126c981565b600e54610294906001600160a01b031681565b6102d160175481565b6104fc6104e7366004611e43565b60126020526000908152604090205460ff1681565b6040516102a19190611e6c565b600354610294906001600160a01b031681565b6102d17fea672c1c09cd95c51af9509f646f3615ff0071aae8652bd821471ee9037fd72c81565b6102d17fcd9f023a942ee35097ead74b2505bea9f2c5d47465db92dd195cf7f01a41cfe181565b61058e604051806040016040528060058152602001640312e302e360dc1b81525081565b6040516102a19190611edc565b6102d16105a9366004611d50565b60196020526000908152604090205481565b6102d160185481565b601054610294906001600160a01b031681565b6102d16105e5366004611d50565b60116020526000908152604090205481565b600f54610294906001600160a01b031681565b6102d17f6f430d649a8640e48ff9bfbc353b3f99ed630163857821b3b4075e3871dafbf581565b6102d17f2f0dbbe8c2c0170206c50ec0cafa1c0dbd03e73e67c2a960178df30a0a30ee2e81565b6102d17f900d80def0427daac599092fcb16b21808ec68dd9a2e1eae89d1e8db2135737581565b600154610294906001600160a01b031681565b601454610294906001600160a01b031681565b6106b86106b3366004611d50565b611301565b6040516102a1929190611eed565b6006546104fc9060ff1681565b600254610294906001600160a01b031681565b6102d17f2a0e761830cc61f2707ea7bb138008bf9dda7f7d34c77736d0a116604e95ea1681565b6102d17f8b73c3c69bb8fe3d512ecc4cf759cc79239f7b179b0ffacaa9a75d522b39400f81565b6102d17f152ebba56b9738ee3d8baea1b76fa31dcdcd79b1929bfea7d58ee12cfdf1a65381565b6102d1600a5481565b6102d17fa18eaea71a088b547b8c932b48861853b3434d9a3240b94466c607e28b69659581565b6102d1600d5481565b6102d17f7cbb3cdf689b8ea3e9d265f66bc4e0a99069268217017d38d2a5a559abc6271981565b6103516107c9366004611f1b565b61169e565b6102d17ff206625bad3d9112d5609b8d356e6fbd514cd1f69980d4ce2b3e6e68e1789ace81565b610351610803366004611dc0565b6118bf565b6102d160095481565b6014546104fc90600160a01b900460ff1681565b6102d161271081565b6102d17fd45f7ccff42f059d4e47c3f027c444272257266f7e88b981e142f0aa38fbfd7881565b610294610863366004611e43565b611953565b6001600160a01b038116158061088657506001600160a01b03811630145b156108a45760405163d92e233d60e01b815260040160405180910390fd5b7f00000000000000000000000000000000000000000000000000000000000000006001600160a01b0316816001600160a01b03166338d52e0f6040518163ffffffff1660e01b8152600401602060405180830381865afa15801561090c573d6000803e3d6000fd5b505050506040513d601f19601f820116820180604052508101906109309190611f59565b6001600160a01b03161461095757604051636448d6e960e11b815260040160405180910390fd5b6001600160a01b0381166000908152600460205260409020541561098e5760405163c976754d60e01b815260040160405180910390fd5b604080516080810182524280825260208083019182526000838501818152606085018281526001600160a01b038816835260049093529490209251835590516001830155915160028201559051600390910155600554600a811015610a3957600580546001810182556000919091527f036b6384b5eca791c62761152d0c79bb0604c104a5fb6f4eb0703f3154bb3db00180546001600160a01b0319166001600160a01b0384161790555b816001600160a01b03166000805160206124588339815191526000604051610a619190611fc3565b60405180910390a25050565b6001600160a01b038216600090815260046020526040812060020154601454839190600160a01b900460ff161515600103610aa757600091505b808203610ac75760405163084df06b60e41b815260040160405180910390fd5b81811115610e9c576000610adb8383611fe7565b9050600c5481600b54610aee9190611ffa565b1015610b1157600b54600c54610b049190611fe7565b905081811115610b115750805b604051636c82bbbf60e11b81526000906001600160a01b038816906307a2d13a90829063d905777e90610b48903090600401611d0c565b602060405180830381865afa158015610b65573d6000803e3d6000fd5b505050506040513d601f19601f82011682018060405250810190610b899190612018565b6040518263ffffffff1660e01b8152600401610ba59190611d20565b602060405180830381865afa158015610bc2573d6000803e3d6000fd5b505050506040513d601f19601f82011682018060405250810190610be69190612018565b905060008111610c0957604051637c946ed760e01b815260040160405180910390fd5b81811015610c15578091505b600154604051635a56909960e01b81526000916001600160a01b031690635a56909990610c48908b908790600401612039565b602060405180830381865afa158015610c65573d6000803e3d6000fd5b505050506040513d601f19601f82011682018060405250810190610c899190612018565b90508015610caa576040516339589fdd60e21b815260040160405180910390fd5b6040516370a0823160e01b81526000906001600160a01b037f000000000000000000000000000000000000000000000000000000000000000016906370a0823190610cf9903090600401611d0c565b602060405180830381865afa158015610d16573d6000803e3d6000fd5b505050506040513d601f19601f82011682018060405250810190610d3a9190612018565b6001546040516316a7a12b60e31b81529192506001600160a01b03169063b53d095890610d6d908c908890600401612039565b600060405180830381600087803b158015610d8757600080fd5b505af1158015610d9b573d6000803e3d6000fd5b50506040516370a0823160e01b8152600092506001600160a01b037f00000000000000000000000000000000000000000000000000000000000000001691506370a0823190610dee903090600401611d0c565b602060405180830381865afa158015610e0b573d6000803e3d6000fd5b505050506040513d601f19601f82011682018060405250810190610e2f9190612018565b90506000610e46610e408484611fe7565b8861197d565b905085811115610e54578095505b80600b6000828254610e669190611ffa565b9250508190555085600a6000828254610e7f9190611fe7565b90915550610e8f90508688611fe7565b975050505050505061129f565b6001600160a01b038516600090815260046020526040902060030154821115610ed85760405163d49d8c2360e01b815260040160405180910390fd5b60405163402d267d60e01b81526000906001600160a01b0387169063402d267d90610f07903090600401611d0c565b602060405180830381865afa158015610f24573d6000803e3d6000fd5b505050506040513d601f19601f82011682018060405250810190610f489190612018565b905060008111610f6b57604051637c946ed760e01b815260040160405180910390fd5b6000610f778385611fe7565b905081811115610f845750805b6000600c54600b54610f969190611fe7565b905080821115610fa4578091505b811561129b5760015460405163300d25a560e21b81526001600160a01b039091169063c034969490610ffe907f0000000000000000000000000000000000000000000000000000000000000000908c908790600401612047565b600060405180830381600087803b15801561101857600080fd5b505af115801561102c573d6000803e3d6000fd5b50506040516370a0823160e01b8152600092506001600160a01b037f00000000000000000000000000000000000000000000000000000000000000001691506370a082319061107f903090600401611d0c565b602060405180830381865afa15801561109c573d6000803e3d6000fd5b505050506040513d601f19601f820116820180604052508101906110c09190612018565b604051636e553f6560e01b81529091506001600160a01b038a1690636e553f65906110f1908690309060040161206f565b6020604051808303816000875af1158015611110573d6000803e3d6000fd5b505050506040513d601f19601f820116820180604052508101906111349190612018565b506040516370a0823160e01b81526000906001600160a01b037f000000000000000000000000000000000000000000000000000000000000000016906370a0823190611184903090600401611d0c565b602060405180830381865afa1580156111a1573d6000803e3d6000fd5b505050506040513d601f19601f820116820180604052508101906111c59190612018565b60015460405163300d25a560e21b81529192506001600160a01b03169063c03496949061121b907f0000000000000000000000000000000000000000000000000000000000000000908e9060009060040161209f565b600060405180830381600087803b15801561123557600080fd5b505af1158015611249573d6000803e3d6000fd5b5050505080826112599190611fe7565b935083600b600082825461126d9190611fe7565b9250508190555083600a60008282546112869190611ffa565b9091555061129690508487611ffa565b965050505b5050505b6001600160a01b03851660008181526004602052604090819020600201849055517f5e2b8821ad6e0e26207e0cb4d242d07eeb1cbb1cfd853e645bdcd27cc5484f95906112ef9084908690611eed565b60405180910390a25090505b92915050565b6001600160a01b0381166000908152600460205260408120548190810361133b57604051630631bc2160e51b815260040160405180910390fd5b600160009054906101000a90046001600160a01b03166001600160a01b031663e0bf18ad6040518163ffffffff1660e01b8152600401600060405180830381600087803b15801561138b57600080fd5b505af115801561139f573d6000803e3d6000fd5b505050506000806113af85611995565b9150915060006113c0868484611acb565b60015481516040808401519051631e95795560e01b81529394506000936001600160a01b0390931692631e957955926113fd9288926004016120c7565b6060604051808303816000875af115801561141c573d6000803e3d6000fd5b505050506040513d601f19601f82011682018060405250810190611440919061219a565b9050600080600160009054906101000a90046001600160a01b03166001600160a01b0316630ceca244848689898e6040518663ffffffff1660e01b815260040161148e959493929190612242565b60408051808303816000875af11580156114ac573d6000803e3d6000fd5b505050506040513d601f19601f820116820180604052508101906114d09190612291565b600154604051633e986eed60e01b81529294509092506001600160a01b031690633e986eed906115069085908590600401611eed565b600060405180830381600087803b15801561152057600080fd5b505af1158015611534573d6000803e3d6000fd5b5050506001600160a01b03808b1660008181526004602081905260408083204260018083019190915560029091015490548a8301519251637ff0007760e01b8152959750600080516020612478833981519152968e968e9693959290911693637ff00077936115a79391929091016122c4565b602060405180830381865afa1580156115c4573d6000803e3d6000fd5b505050506040513d601f19601f820116820180604052508101906115e89190612018565b60015460208a015160408b01516001600160a01b0390921691637ff000779161161091611ffa565b60006040518363ffffffff1660e01b815260040161162f9291906122c4565b602060405180830381865afa15801561164c573d6000803e3d6000fd5b505050506040513d601f19601f820116820180604052508101906116709190612018565b8a60200151604051611687969594939291906122df565b60405180910390a250939792965091945050505050565b6001600160a01b03821660009081526004602052604081205490036116d657604051630631bc2160e51b815260040160405180910390fd5b6001600160a01b038216600090815260046020526040812060020154158015906116fe575081155b1561171c57604051633546382f60e21b815260040160405180910390fd5b506001600160a01b038216600090815260046020526040812060020154600a80549192839261174c908490611fe7565b92505081905550826001600160a01b031660008051602061247883398151915260008360008060008060405161178796959493929190612339565b60405180910390a2604080516080810182526000808252602080830182815283850183815260608086018581526001600160a01b038b168652600490945295909320935184555160018401559051600283015551600390910155600554156118755760005b6005548110156118735760006005828154811061180b5761180b612388565b6000918252602090912001546001600160a01b03908116915086168114611860578083838151811061183f5761183f612388565b60200260200101906001600160a01b031690816001600160a01b0316815250505b508061186b8161239e565b9150506117ec565b505b8051611888906005906020840190611c3b565b50836001600160a01b031660008051602061245883398151915260016040516118b19190611fc3565b60405180910390a250505050565b6001600160a01b03821660009081526004602052604081205490036118f757604051630631bc2160e51b815260040160405180910390fd5b6001600160a01b038216600081815260046020526040908190206003018390555133907fb3eef2123fec1523a6bbc90aceb203000154c1a4974335fe06b544c7534d4b8990611947908590611d20565b60405180910390a35050565b6005818154811061196357600080fd5b6000918252602090912001546001600160a01b0316905081565b600081831061198c578161198e565b825b9392505050565b6000806000836001600160a01b03166370a08231306040518263ffffffff1660e01b81526004016119c69190611d0c565b602060405180830381865afa1580156119e3573d6000803e3d6000fd5b505050506040513d601f19601f82011682018060405250810190611a079190612018565b90506000846001600160a01b03166307a2d13a836040518263ffffffff1660e01b8152600401611a379190611d20565b602060405180830381865afa158015611a54573d6000803e3d6000fd5b505050506040513d601f19601f82011682018060405250810190611a789190612018565b6001600160a01b0386166000908152600460205260408120600201549192508082841115611ab157611aaa8385611fe7565b9150611abe565b611abb8484611fe7565b90505b9097909650945050505050565b611ad3611ca0565b611adb611ca0565b600e546001600160a01b031615611c3357600e5460405163921f8a8f60e01b81526001600160a01b039091169063921f8a8f90611b20908890889088906004016123b8565b60408051808303816000875af1158015611b3e573d6000803e3d6000fd5b505050506040513d601f19601f82011682018060405250810190611b629190612291565b602083015280825215611c335760007f00000000000000000000000000000000000000000000000000000000000000006001600160a01b03166307d3277f6040518163ffffffff1660e01b81526004016040805180830381865afa158015611bce573d6000803e3d6000fd5b505050506040513d601f19601f82011682018060405250810190611bf291906123db565b6001600160a01b03166060840152905061ffff811615611c3157815161271090611c219061ffff84169061240e565b611c2b9190612443565b60408301525b505b949350505050565b828054828255906000526020600020908101928215611c90579160200282015b82811115611c9057825182546001600160a01b0319166001600160a01b03909116178255602090920191600190910190611c5b565b50611c9c929150611cd1565b5090565b604051806080016040528060008152602001600081526020016000815260200160006001600160a01b031681525090565b5b80821115611c9c5760008155600101611cd2565b6001600160a01b031690565b60006112fb82611ce6565b611d0681611cf2565b82525050565b602081016112fb8284611cfd565b80611d06565b602081016112fb8284611d1a565b611d3781611cf2565b8114611d4257600080fd5b50565b80356112fb81611d2e565b600060208284031215611d6557611d65600080fd5b6000611c338484611d45565b60808101611d7f8287611d1a565b611d8c6020830186611d1a565b611d996040830185611d1a565b611da66060830184611d1a565b95945050505050565b80611d37565b80356112fb81611daf565b60008060408385031215611dd657611dd6600080fd5b6000611de28585611d45565b9250506020611df385828601611db5565b9150509250929050565b60006112fb611e11611e0e84611ce6565b90565b611ce6565b60006112fb82611dfd565b60006112fb82611e16565b611d0681611e21565b602081016112fb8284611e2c565b600060208284031215611e5857611e58600080fd5b6000611c338484611db5565b801515611d06565b602081016112fb8284611e64565b60005b83811015611e95578181015183820152602001611e7d565b50506000910152565b601f01601f191690565b6000611eb2825190565b808452602084019350611ec9818560208601611e7a565b611ed281611e9e565b9093019392505050565b6020808252810161198e8184611ea8565b60408101611efb8285611d1a565b61198e6020830184611d1a565b801515611d37565b80356112fb81611f08565b60008060408385031215611f3157611f31600080fd5b6000611f3d8585611d45565b9250506020611df385828601611f10565b80516112fb81611d2e565b600060208284031215611f6e57611f6e600080fd5b6000611c338484611f4e565b634e487b7160e01b600052602160045260246000fd5b60028110611d4257611d42611f7a565b80611faa81611f90565b919050565b60006112fb82611fa0565b611d0681611faf565b602081016112fb8284611fba565b634e487b7160e01b600052601160045260246000fd5b818103818111156112fb576112fb611fd1565b808201808211156112fb576112fb611fd1565b80516112fb81611daf565b60006020828403121561202d5761202d600080fd5b6000611c33848461200d565b60408101611efb8285611cfd565b606081016120558286611cfd565b6120626020830185611cfd565b611c336040830184611d1a565b6040810161207d8285611d1a565b61198e6020830184611cfd565b60006112fb611e0e8381565b611d068161208a565b606081016120ad8286611cfd565b6120ba6020830185611cfd565b611c336040830184612096565b606081016120d58286611d1a565b6120626020830185611d1a565b634e487b7160e01b600052604160045260246000fd5b61210182611e9e565b81018181106001600160401b038211171561211e5761211e6120e2565b6040525050565b600061213060405190565b9050611faa82826120f8565b60006060828403121561215157612151600080fd5b61215b6060612125565b90506000612169848461200d565b825250602061217a8484830161200d565b602083015250604061218e8482850161200d565b60408301525092915050565b6000606082840312156121af576121af600080fd5b6000611c33848461213c565b805160608301906121cc8482611d1a565b5060208201516121df6020850182611d1a565b5060408201516121f26040850182611d1a565b50505050565b805160808301906122098482611d1a565b50602082015161221c6020850182611d1a565b50604082015161222f6040850182611d1a565b5060608201516121f26060850182611cfd565b610140810161225182886121bb565b61225e60608301876121f8565b61226b60e0830186611d1a565b612279610100830185611d1a565b612287610120830184611cfd565b9695505050505050565b600080604083850312156122a7576122a7600080fd5b60006122b3858561200d565b9250506020611df38582860161200d565b604081016122d28285611d1a565b61198e6020830184611fba565b60c081016122ed8289611d1a565b6122fa6020830188611d1a565b6123076040830187611d1a565b6123146060830186611d1a565b6123216080830185611d1a565b61232e60a0830184611d1a565b979650505050505050565b60c081016123478289612096565b6123546020830188611d1a565b6123616040830187612096565b61236e6060830186612096565b61237b6080830185612096565b61232e60a0830184612096565b634e487b7160e01b600052603260045260246000fd5b600060001982036123b1576123b1611fd1565b5060010190565b606081016120d58286611cfd565b61ffff8116611d37565b80516112fb816123c6565b600080604083850312156123f1576123f1600080fd5b60006123fd85856123d0565b9250506020611df385828601611f4e565b600081600019048311821515161561242857612428611fd1565b500290565b634e487b7160e01b600052601260045260246000fd5b6000826124525761245261242d565b50049056febcf55f13710eed7eda89416c2984da5475fcff67e96fe85e56eed808559a52227f2ad1d3ba35276f35ef140f83e3e0f17b23064fd710113d3f7a5ab30d267811a2646970667358221220f3281c3e7917f38db889ba62857dbd6b2a8df25bef2e46291dbfbe631989e67764736f6c63430008100033",
  "devdoc": {
    "kind": "dev",
    "methods": {},
    "title": "STRATEGY MANAGEMENT",
    "version": 1
  },
  "userdoc": {
    "kind": "user",
    "methods": {},
    "version": 1
  },
  "storageLayout": {
    "storage": [
      {
        "astId": 8832,
        "contract": "contracts/StrategyManager.sol:StrategyManager",
        "label": "strategyManager",
        "offset": 0,
        "slot": "0",
        "type": "t_address"
      },
      {
        "astId": 8834,
        "contract": "contracts/StrategyManager.sol:StrategyManager",
        "label": "sharesManager",
        "offset": 0,
        "slot": "1",
        "type": "t_address"
      },
      {
        "astId": 8836,
        "contract": "contracts/StrategyManager.sol:StrategyManager",
        "label": "setters",
        "offset": 0,
        "slot": "2",
        "type": "t_address"
      },
      {
        "astId": 8838,
        "contract": "contracts/StrategyManager.sol:StrategyManager",
        "label": "governance",
        "offset": 0,
        "slot": "3",
        "type": "t_address"
      },
      {
        "astId": 8843,
        "contract": "contracts/StrategyManager.sol:StrategyManager",
        "label": "strategies",
        "offset": 0,
        "slot": "4",
        "type": "t_mapping(t_address,t_struct(StrategyParams)8999_storage)"
      },
      {
        "astId": 8846,
        "contract": "contracts/StrategyManager.sol:StrategyManager",
        "label": "defaultQueue",
        "offset": 0,
        "slot": "5",
        "type": "t_array(t_address)dyn_storage"
      },
      {
        "astId": 8848,
        "contract": "contracts/StrategyManager.sol:StrategyManager",
        "label": "useDefaultQueue",
        "offset": 0,
        "slot": "6",
        "type": "t_bool"
      },
      {
        "astId": 8852,
        "contract": "contracts/StrategyManager.sol:StrategyManager",
        "label": "_balanceOf",
        "offset": 0,
        "slot": "7",
        "type": "t_mapping(t_address,t_uint256)"
      },
      {
        "astId": 8858,
        "contract": "contracts/StrategyManager.sol:StrategyManager",
        "label": "_allowance",
        "offset": 0,
        "slot": "8",
        "type": "t_mapping(t_address,t_mapping(t_address,t_uint256))"
      },
      {
        "astId": 8860,
        "contract": "contracts/StrategyManager.sol:StrategyManager",
        "label": "totalSupplyAmount",
        "offset": 0,
        "slot": "9",
        "type": "t_uint256"
      },
      {
        "astId": 8862,
        "contract": "contracts/StrategyManager.sol:StrategyManager",
        "label": "totalDebtAmount",
        "offset": 0,
        "slot": "10",
        "type": "t_uint256"
      },
      {
        "astId": 8864,
        "contract": "contracts/StrategyManager.sol:StrategyManager",
        "label": "totalIdleAmount",
        "offset": 0,
        "slot": "11",
        "type": "t_uint256"
      },
      {
        "astId": 8866,
        "contract": "contracts/StrategyManager.sol:StrategyManager",
        "label": "minimumTotalIdle",
        "offset": 0,
        "slot": "12",
        "type": "t_uint256"
      },
      {
        "astId": 8868,
        "contract": "contracts/StrategyManager.sol:StrategyManager",
        "label": "depositLimit",
        "offset": 0,
        "slot": "13",
        "type": "t_uint256"
      },
      {
        "astId": 8870,
        "contract": "contracts/StrategyManager.sol:StrategyManager",
        "label": "accountant",
        "offset": 0,
        "slot": "14",
        "type": "t_address"
      },
      {
        "astId": 8872,
        "contract": "contracts/StrategyManager.sol:StrategyManager",
        "label": "depositLimitModule",
        "offset": 0,
        "slot": "15",
        "type": "t_address"
      },
      {
        "astId": 8874,
        "contract": "contracts/StrategyManager.sol:StrategyManager",
        "label": "withdrawLimitModule",
        "offset": 0,
        "slot": "16",
        "type": "t_address"
      },
      {
        "astId": 8878,
        "contract": "contracts/StrategyManager.sol:StrategyManager",
        "label": "roles",
        "offset": 0,
        "slot": "17",
        "type": "t_mapping(t_address,t_bytes32)"
      },
      {
        "astId": 8882,
        "contract": "contracts/StrategyManager.sol:StrategyManager",
        "label": "openRoles",
        "offset": 0,
        "slot": "18",
        "type": "t_mapping(t_bytes32,t_bool)"
      },
      {
        "astId": 8884,
        "contract": "contracts/StrategyManager.sol:StrategyManager",
        "label": "roleManager",
        "offset": 0,
        "slot": "19",
        "type": "t_address"
      },
      {
        "astId": 8886,
        "contract": "contracts/StrategyManager.sol:StrategyManager",
        "label": "futureRoleManager",
        "offset": 0,
        "slot": "20",
        "type": "t_address"
      },
      {
        "astId": 8888,
        "contract": "contracts/StrategyManager.sol:StrategyManager",
        "label": "shutdown",
        "offset": 20,
        "slot": "20",
        "type": "t_bool"
      },
      {
        "astId": 8890,
        "contract": "contracts/StrategyManager.sol:StrategyManager",
        "label": "profitMaxUnlockTime",
        "offset": 0,
        "slot": "21",
        "type": "t_uint256"
      },
      {
        "astId": 8892,
        "contract": "contracts/StrategyManager.sol:StrategyManager",
        "label": "fullProfitUnlockDate",
        "offset": 0,
        "slot": "22",
        "type": "t_uint256"
      },
      {
        "astId": 8894,
        "contract": "contracts/StrategyManager.sol:StrategyManager",
        "label": "profitUnlockingRate",
        "offset": 0,
        "slot": "23",
        "type": "t_uint256"
      },
      {
        "astId": 8896,
        "contract": "contracts/StrategyManager.sol:StrategyManager",
        "label": "lastProfitUpdate",
        "offset": 0,
        "slot": "24",
        "type": "t_uint256"
      },
      {
        "astId": 8900,
        "contract": "contracts/StrategyManager.sol:StrategyManager",
        "label": "nonces",
        "offset": 0,
        "slot": "25",
        "type": "t_mapping(t_address,t_uint256)"
      },
      {
        "astId": 8907,
        "contract": "contracts/StrategyManager.sol:StrategyManager",
        "label": "DOMAIN_SEPARATOR",
        "offset": 0,
        "slot": "26",
        "type": "t_bytes32"
      }
    ],
    "types": {
      "t_address": {
        "encoding": "inplace",
        "label": "address",
        "numberOfBytes": "20"
      },
      "t_array(t_address)dyn_storage": {
        "base": "t_address",
        "encoding": "dynamic_array",
        "label": "address[]",
        "numberOfBytes": "32"
      },
      "t_bool": {
        "encoding": "inplace",
        "label": "bool",
        "numberOfBytes": "1"
      },
      "t_bytes32": {
        "encoding": "inplace",
        "label": "bytes32",
        "numberOfBytes": "32"
      },
      "t_mapping(t_address,t_bytes32)": {
        "encoding": "mapping",
        "key": "t_address",
        "label": "mapping(address => bytes32)",
        "numberOfBytes": "32",
        "value": "t_bytes32"
      },
      "t_mapping(t_address,t_mapping(t_address,t_uint256))": {
        "encoding": "mapping",
        "key": "t_address",
        "label": "mapping(address => mapping(address => uint256))",
        "numberOfBytes": "32",
        "value": "t_mapping(t_address,t_uint256)"
      },
      "t_mapping(t_address,t_struct(StrategyParams)8999_storage)": {
        "encoding": "mapping",
        "key": "t_address",
        "label": "mapping(address => struct StrategyParams)",
        "numberOfBytes": "32",
        "value": "t_struct(StrategyParams)8999_storage"
      },
      "t_mapping(t_address,t_uint256)": {
        "encoding": "mapping",
        "key": "t_address",
        "label": "mapping(address => uint256)",
        "numberOfBytes": "32",
        "value": "t_uint256"
      },
      "t_mapping(t_bytes32,t_bool)": {
        "encoding": "mapping",
        "key": "t_bytes32",
        "label": "mapping(bytes32 => bool)",
        "numberOfBytes": "32",
        "value": "t_bool"
      },
      "t_struct(StrategyParams)8999_storage": {
        "encoding": "inplace",
        "label": "struct StrategyParams",
        "members": [
          {
            "astId": 8992,
            "contract": "contracts/StrategyManager.sol:StrategyManager",
            "label": "activation",
            "offset": 0,
            "slot": "0",
            "type": "t_uint256"
          },
          {
            "astId": 8994,
            "contract": "contracts/StrategyManager.sol:StrategyManager",
            "label": "lastReport",
            "offset": 0,
            "slot": "1",
            "type": "t_uint256"
          },
          {
            "astId": 8996,
            "contract": "contracts/StrategyManager.sol:StrategyManager",
            "label": "currentDebt",
            "offset": 0,
            "slot": "2",
            "type": "t_uint256"
          },
          {
            "astId": 8998,
            "contract": "contracts/StrategyManager.sol:StrategyManager",
            "label": "maxDebt",
            "offset": 0,
            "slot": "3",
            "type": "t_uint256"
          }
        ],
        "numberOfBytes": "128"
      },
      "t_uint256": {
        "encoding": "inplace",
        "label": "uint256",
        "numberOfBytes": "32"
      }
    }
  }
}