{
  "address": "0x8Bb5367F7DB3878ABC6767cB5A98E3FBCFc2645E",
  "abi": [
    {
      "inputs": [
        {
          "internalType": "address",
          "name": "_asset",
          "type": "address"
        },
        {
          "internalType": "address",
          "name": "_sharesManager",
          "type": "address"
        }
      ],
      "stateMutability": "nonpayable",
      "type": "constructor"
    },
    {
      "inputs": [],
      "name": "DebtDidntChange",
      "type": "error"
    },
    {
      "inputs": [],
      "name": "DebtHigherThanMaxDebt",
      "type": "error"
    },
    {
      "inputs": [],
      "name": "InactiveStrategy",
      "type": "error"
    },
    {
      "inputs": [],
      "name": "InsufficientFunds",
      "type": "error"
    },
    {
      "inputs": [],
      "name": "InvalidAsset",
      "type": "error"
    },
    {
      "inputs": [],
      "name": "StrategyAlreadyActive",
      "type": "error"
    },
    {
      "inputs": [],
      "name": "StrategyDebtIsLessThanAssetsNeeded",
      "type": "error"
    },
    {
      "inputs": [],
      "name": "StrategyHasDebt",
      "type": "error"
    },
    {
      "inputs": [],
      "name": "StrategyHasUnrealisedLosses",
      "type": "error"
    },
    {
      "inputs": [],
      "name": "ZeroAddress",
      "type": "error"
    },
    {
      "inputs": [],
      "name": "ZeroValue",
      "type": "error"
    },
    {
      "anonymous": false,
      "inputs": [
        {
          "indexed": true,
          "internalType": "address",
          "name": "strategy",
          "type": "address"
        },
        {
          "indexed": false,
          "internalType": "uint256",
          "name": "amount",
          "type": "uint256"
        }
      ],
      "name": "DebtPurchased",
      "type": "event"
    },
    {
      "anonymous": false,
      "inputs": [
        {
          "indexed": true,
          "internalType": "address",
          "name": "strategy",
          "type": "address"
        },
        {
          "indexed": false,
          "internalType": "uint256",
          "name": "currentDebt",
          "type": "uint256"
        },
        {
          "indexed": false,
          "internalType": "uint256",
          "name": "newDebt",
          "type": "uint256"
        }
      ],
      "name": "DebtUpdated",
      "type": "event"
    },
    {
      "anonymous": false,
      "inputs": [
        {
          "indexed": true,
          "internalType": "bytes32",
          "name": "role",
          "type": "bytes32"
        },
        {
          "indexed": true,
          "internalType": "bytes32",
          "name": "previousAdminRole",
          "type": "bytes32"
        },
        {
          "indexed": true,
          "internalType": "bytes32",
          "name": "newAdminRole",
          "type": "bytes32"
        }
      ],
      "name": "RoleAdminChanged",
      "type": "event"
    },
    {
      "anonymous": false,
      "inputs": [
        {
          "indexed": true,
          "internalType": "bytes32",
          "name": "role",
          "type": "bytes32"
        },
        {
          "indexed": true,
          "internalType": "address",
          "name": "account",
          "type": "address"
        },
        {
          "indexed": true,
          "internalType": "address",
          "name": "sender",
          "type": "address"
        }
      ],
      "name": "RoleGranted",
      "type": "event"
    },
    {
      "anonymous": false,
      "inputs": [
        {
          "indexed": true,
          "internalType": "bytes32",
          "name": "role",
          "type": "bytes32"
        },
        {
          "indexed": true,
          "internalType": "address",
          "name": "account",
          "type": "address"
        },
        {
          "indexed": true,
          "internalType": "address",
          "name": "sender",
          "type": "address"
        }
      ],
      "name": "RoleRevoked",
      "type": "event"
    },
    {
      "anonymous": false,
      "inputs": [
        {
          "indexed": true,
          "internalType": "address",
          "name": "account",
          "type": "address"
        },
        {
          "indexed": false,
          "internalType": "bytes32",
          "name": "role",
          "type": "bytes32"
        }
      ],
      "name": "RoleSet",
      "type": "event"
    },
    {
      "anonymous": false,
      "inputs": [
        {
          "indexed": true,
          "internalType": "bytes32",
          "name": "role",
          "type": "bytes32"
        },
        {
          "indexed": true,
          "internalType": "enum RoleStatusChange",
          "name": "status",
          "type": "uint8"
        }
      ],
      "name": "RoleStatusChanged",
      "type": "event"
    },
    {
      "anonymous": false,
      "inputs": [],
      "name": "Shutdown",
      "type": "event"
    },
    {
      "anonymous": false,
      "inputs": [
        {
          "indexed": true,
          "internalType": "address",
          "name": "strategy",
          "type": "address"
        },
        {
          "indexed": false,
          "internalType": "enum StrategyChangeType",
          "name": "changeType",
          "type": "uint8"
        }
      ],
      "name": "StrategyChanged",
      "type": "event"
    },
    {
      "anonymous": false,
      "inputs": [
        {
          "indexed": true,
          "internalType": "address",
          "name": "strategy",
          "type": "address"
        },
        {
          "indexed": false,
          "internalType": "uint256",
          "name": "gain",
          "type": "uint256"
        },
        {
          "indexed": false,
          "internalType": "uint256",
          "name": "loss",
          "type": "uint256"
        },
        {
          "indexed": false,
          "internalType": "uint256",
          "name": "currentDebt",
          "type": "uint256"
        },
        {
          "indexed": false,
          "internalType": "uint256",
          "name": "protocolFees",
          "type": "uint256"
        },
        {
          "indexed": false,
          "internalType": "uint256",
          "name": "totalFees",
          "type": "uint256"
        },
        {
          "indexed": false,
          "internalType": "uint256",
          "name": "totalRefunds",
          "type": "uint256"
        }
      ],
      "name": "StrategyReported",
      "type": "event"
    },
    {
      "anonymous": false,
      "inputs": [
        {
          "indexed": true,
          "internalType": "address",
          "name": "accountant",
          "type": "address"
        }
      ],
      "name": "UpdateAccountant",
      "type": "event"
    },
    {
      "anonymous": false,
      "inputs": [
        {
          "indexed": false,
          "internalType": "address[]",
          "name": "newDefaultQueue",
          "type": "address[]"
        }
      ],
      "name": "UpdateDefaultQueue",
      "type": "event"
    },
    {
      "anonymous": false,
      "inputs": [
        {
          "indexed": false,
          "internalType": "uint256",
          "name": "depositLimit",
          "type": "uint256"
        }
      ],
      "name": "UpdateDepositLimit",
      "type": "event"
    },
    {
      "anonymous": false,
      "inputs": [
        {
          "indexed": true,
          "internalType": "address",
          "name": "depositLimitModule",
          "type": "address"
        }
      ],
      "name": "UpdateDepositLimitModule",
      "type": "event"
    },
    {
      "anonymous": false,
      "inputs": [
        {
          "indexed": false,
          "internalType": "uint256",
          "name": "minimumTotalIdle",
          "type": "uint256"
        }
      ],
      "name": "UpdateMinimumTotalIdle",
      "type": "event"
    },
    {
      "anonymous": false,
      "inputs": [
        {
          "indexed": false,
          "internalType": "uint256",
          "name": "profitMaxUnlockTime",
          "type": "uint256"
        }
      ],
      "name": "UpdateProfitMaxUnlockTime",
      "type": "event"
    },
    {
      "anonymous": false,
      "inputs": [
        {
          "indexed": true,
          "internalType": "address",
          "name": "roleManager",
          "type": "address"
        }
      ],
      "name": "UpdateRoleManager",
      "type": "event"
    },
    {
      "anonymous": false,
      "inputs": [
        {
          "indexed": false,
          "internalType": "bool",
          "name": "useDefaultQueue",
          "type": "bool"
        }
      ],
      "name": "UpdateUseDefaultQueue",
      "type": "event"
    },
    {
      "anonymous": false,
      "inputs": [
        {
          "indexed": true,
          "internalType": "address",
          "name": "withdrawLimitModule",
          "type": "address"
        }
      ],
      "name": "UpdateWithdrawLimitModule",
      "type": "event"
    },
    {
      "anonymous": false,
      "inputs": [
        {
          "indexed": true,
          "internalType": "address",
          "name": "sender",
          "type": "address"
        },
        {
          "indexed": true,
          "internalType": "address",
          "name": "strategy",
          "type": "address"
        },
        {
          "indexed": false,
          "internalType": "uint256",
          "name": "newDebt",
          "type": "uint256"
        }
      ],
      "name": "UpdatedMaxDebtForStrategy",
      "type": "event"
    },
    {
      "inputs": [],
      "name": "ACCOUNTANT_MANAGER",
      "outputs": [
        {
          "internalType": "bytes32",
          "name": "",
          "type": "bytes32"
        }
      ],
      "stateMutability": "view",
      "type": "function"
    },
    {
      "inputs": [],
      "name": "ADD_STRATEGY_MANAGER",
      "outputs": [
        {
          "internalType": "bytes32",
          "name": "",
          "type": "bytes32"
        }
      ],
      "stateMutability": "view",
      "type": "function"
    },
    {
      "inputs": [],
      "name": "API_VERSION",
      "outputs": [
        {
          "internalType": "string",
          "name": "",
          "type": "string"
        }
      ],
      "stateMutability": "view",
      "type": "function"
    },
    {
      "inputs": [],
      "name": "ASSET",
      "outputs": [
        {
          "internalType": "contract IERC20",
          "name": "",
          "type": "address"
        }
      ],
      "stateMutability": "view",
      "type": "function"
    },
    {
      "inputs": [],
      "name": "DEBT_MANAGER",
      "outputs": [
        {
          "internalType": "bytes32",
          "name": "",
          "type": "bytes32"
        }
      ],
      "stateMutability": "view",
      "type": "function"
    },
    {
      "inputs": [],
      "name": "DEBT_PURCHASER",
      "outputs": [
        {
          "internalType": "bytes32",
          "name": "",
          "type": "bytes32"
        }
      ],
      "stateMutability": "view",
      "type": "function"
    },
    {
      "inputs": [],
      "name": "DEFAULT_ADMIN_ROLE",
      "outputs": [
        {
          "internalType": "bytes32",
          "name": "",
          "type": "bytes32"
        }
      ],
      "stateMutability": "view",
      "type": "function"
    },
    {
      "inputs": [],
      "name": "DEPOSIT_LIMIT_MANAGER",
      "outputs": [
        {
          "internalType": "bytes32",
          "name": "",
          "type": "bytes32"
        }
      ],
      "stateMutability": "view",
      "type": "function"
    },
    {
      "inputs": [],
      "name": "DOMAIN_SEPARATOR",
      "outputs": [
        {
          "internalType": "bytes32",
          "name": "",
          "type": "bytes32"
        }
      ],
      "stateMutability": "view",
      "type": "function"
    },
    {
      "inputs": [],
      "name": "DOMAIN_TYPE_HASH",
      "outputs": [
        {
          "internalType": "bytes32",
          "name": "",
          "type": "bytes32"
        }
      ],
      "stateMutability": "view",
      "type": "function"
    },
    {
      "inputs": [],
      "name": "EMERGENCY_MANAGER",
      "outputs": [
        {
          "internalType": "bytes32",
          "name": "",
          "type": "bytes32"
        }
      ],
      "stateMutability": "view",
      "type": "function"
    },
    {
      "inputs": [],
      "name": "FACTORY",
      "outputs": [
        {
          "internalType": "address",
          "name": "",
          "type": "address"
        }
      ],
      "stateMutability": "view",
      "type": "function"
    },
    {
      "inputs": [],
      "name": "FORCE_REVOKE_MANAGER",
      "outputs": [
        {
          "internalType": "bytes32",
          "name": "",
          "type": "bytes32"
        }
      ],
      "stateMutability": "view",
      "type": "function"
    },
    {
      "inputs": [],
      "name": "MAX_BPS",
      "outputs": [
        {
          "internalType": "uint256",
          "name": "",
          "type": "uint256"
        }
      ],
      "stateMutability": "view",
      "type": "function"
    },
    {
      "inputs": [],
      "name": "MAX_BPS_EXTENDED",
      "outputs": [
        {
          "internalType": "uint256",
          "name": "",
          "type": "uint256"
        }
      ],
      "stateMutability": "view",
      "type": "function"
    },
    {
      "inputs": [],
      "name": "MAX_DEBT_MANAGER",
      "outputs": [
        {
          "internalType": "bytes32",
          "name": "",
          "type": "bytes32"
        }
      ],
      "stateMutability": "view",
      "type": "function"
    },
    {
      "inputs": [],
      "name": "MAX_QUEUE",
      "outputs": [
        {
          "internalType": "uint256",
          "name": "",
          "type": "uint256"
        }
      ],
      "stateMutability": "view",
      "type": "function"
    },
    {
      "inputs": [],
      "name": "MINIMUM_IDLE_MANAGER",
      "outputs": [
        {
          "internalType": "bytes32",
          "name": "",
          "type": "bytes32"
        }
      ],
      "stateMutability": "view",
      "type": "function"
    },
    {
      "inputs": [],
      "name": "ONE_YEAR",
      "outputs": [
        {
          "internalType": "uint256",
          "name": "",
          "type": "uint256"
        }
      ],
      "stateMutability": "view",
      "type": "function"
    },
    {
      "inputs": [],
      "name": "PERMIT_TYPE_HASH",
      "outputs": [
        {
          "internalType": "bytes32",
          "name": "",
          "type": "bytes32"
        }
      ],
      "stateMutability": "view",
      "type": "function"
    },
    {
      "inputs": [],
      "name": "PROFIT_UNLOCK_MANAGER",
      "outputs": [
        {
          "internalType": "bytes32",
          "name": "",
          "type": "bytes32"
        }
      ],
      "stateMutability": "view",
      "type": "function"
    },
    {
      "inputs": [],
      "name": "QUEUE_MANAGER",
      "outputs": [
        {
          "internalType": "bytes32",
          "name": "",
          "type": "bytes32"
        }
      ],
      "stateMutability": "view",
      "type": "function"
    },
    {
      "inputs": [],
      "name": "REPORTING_MANAGER",
      "outputs": [
        {
          "internalType": "bytes32",
          "name": "",
          "type": "bytes32"
        }
      ],
      "stateMutability": "view",
      "type": "function"
    },
    {
      "inputs": [],
      "name": "REVOKE_STRATEGY_MANAGER",
      "outputs": [
        {
          "internalType": "bytes32",
          "name": "",
          "type": "bytes32"
        }
      ],
      "stateMutability": "view",
      "type": "function"
    },
    {
      "inputs": [],
      "name": "ROLE_MANAGER",
      "outputs": [
        {
          "internalType": "bytes32",
          "name": "",
          "type": "bytes32"
        }
      ],
      "stateMutability": "view",
      "type": "function"
    },
    {
      "inputs": [],
      "name": "WITHDRAW_LIMIT_MANAGER",
      "outputs": [
        {
          "internalType": "bytes32",
          "name": "",
          "type": "bytes32"
        }
      ],
      "stateMutability": "view",
      "type": "function"
    },
    {
      "inputs": [],
      "name": "accountant",
      "outputs": [
        {
          "internalType": "address",
          "name": "",
          "type": "address"
        }
      ],
      "stateMutability": "view",
      "type": "function"
    },
    {
      "inputs": [
        {
          "internalType": "address",
          "name": "newStrategy",
          "type": "address"
        }
      ],
      "name": "addStrategy",
      "outputs": [],
      "stateMutability": "nonpayable",
      "type": "function"
    },
    {
      "inputs": [
        {
          "internalType": "uint256",
          "name": "",
          "type": "uint256"
        }
      ],
      "name": "defaultQueue",
      "outputs": [
        {
          "internalType": "address",
          "name": "",
          "type": "address"
        }
      ],
      "stateMutability": "view",
      "type": "function"
    },
    {
      "inputs": [],
      "name": "depositLimit",
      "outputs": [
        {
          "internalType": "uint256",
          "name": "",
          "type": "uint256"
        }
      ],
      "stateMutability": "view",
      "type": "function"
    },
    {
      "inputs": [],
      "name": "depositLimitModule",
      "outputs": [
        {
          "internalType": "address",
          "name": "",
          "type": "address"
        }
      ],
      "stateMutability": "view",
      "type": "function"
    },
    {
      "inputs": [],
      "name": "fullProfitUnlockDate",
      "outputs": [
        {
          "internalType": "uint256",
          "name": "",
          "type": "uint256"
        }
      ],
      "stateMutability": "view",
      "type": "function"
    },
    {
      "inputs": [],
      "name": "futureRoleManager",
      "outputs": [
        {
          "internalType": "address",
          "name": "",
          "type": "address"
        }
      ],
      "stateMutability": "view",
      "type": "function"
    },
    {
      "inputs": [
        {
          "internalType": "address",
          "name": "strategy",
          "type": "address"
        }
      ],
      "name": "getDebt",
      "outputs": [
        {
          "internalType": "uint256",
          "name": "",
          "type": "uint256"
        }
      ],
      "stateMutability": "view",
      "type": "function"
    },
    {
      "inputs": [],
      "name": "getDefaultQueue",
      "outputs": [
        {
          "internalType": "address[]",
          "name": "",
          "type": "address[]"
        }
      ],
      "stateMutability": "view",
      "type": "function"
    },
    {
      "inputs": [],
      "name": "getDefaultQueueLength",
      "outputs": [
        {
          "internalType": "uint256",
          "name": "length",
          "type": "uint256"
        }
      ],
      "stateMutability": "view",
      "type": "function"
    },
    {
      "inputs": [
        {
          "internalType": "bytes32",
          "name": "role",
          "type": "bytes32"
        }
      ],
      "name": "getRoleAdmin",
      "outputs": [
        {
          "internalType": "bytes32",
          "name": "",
          "type": "bytes32"
        }
      ],
      "stateMutability": "view",
      "type": "function"
    },
    {
      "inputs": [],
      "name": "governance",
      "outputs": [
        {
          "internalType": "address",
          "name": "",
          "type": "address"
        }
      ],
      "stateMutability": "view",
      "type": "function"
    },
    {
      "inputs": [
        {
          "internalType": "bytes32",
          "name": "role",
          "type": "bytes32"
        },
        {
          "internalType": "address",
          "name": "account",
          "type": "address"
        }
      ],
      "name": "grantRole",
      "outputs": [],
      "stateMutability": "nonpayable",
      "type": "function"
    },
    {
      "inputs": [
        {
          "internalType": "bytes32",
          "name": "role",
          "type": "bytes32"
        },
        {
          "internalType": "address",
          "name": "account",
          "type": "address"
        }
      ],
      "name": "hasRole",
      "outputs": [
        {
          "internalType": "bool",
          "name": "",
          "type": "bool"
        }
      ],
      "stateMutability": "view",
      "type": "function"
    },
    {
      "inputs": [],
      "name": "lastProfitUpdate",
      "outputs": [
        {
          "internalType": "uint256",
          "name": "",
          "type": "uint256"
        }
      ],
      "stateMutability": "view",
      "type": "function"
    },
    {
      "inputs": [],
      "name": "minimumTotalIdle",
      "outputs": [
        {
          "internalType": "uint256",
          "name": "",
          "type": "uint256"
        }
      ],
      "stateMutability": "view",
      "type": "function"
    },
    {
      "inputs": [
        {
          "internalType": "address",
          "name": "",
          "type": "address"
        }
      ],
      "name": "nonces",
      "outputs": [
        {
          "internalType": "uint256",
          "name": "",
          "type": "uint256"
        }
      ],
      "stateMutability": "view",
      "type": "function"
    },
    {
      "inputs": [
        {
          "internalType": "bytes32",
          "name": "",
          "type": "bytes32"
        }
      ],
      "name": "openRoles",
      "outputs": [
        {
          "internalType": "bool",
          "name": "",
          "type": "bool"
        }
      ],
      "stateMutability": "view",
      "type": "function"
    },
    {
      "inputs": [
        {
          "internalType": "address",
          "name": "strategy",
          "type": "address"
        }
      ],
      "name": "processReport",
      "outputs": [
        {
          "internalType": "uint256",
          "name": "",
          "type": "uint256"
        },
        {
          "internalType": "uint256",
          "name": "",
          "type": "uint256"
        }
      ],
      "stateMutability": "nonpayable",
      "type": "function"
    },
    {
      "inputs": [],
      "name": "profitMaxUnlockTime",
      "outputs": [
        {
          "internalType": "uint256",
          "name": "",
          "type": "uint256"
        }
      ],
      "stateMutability": "view",
      "type": "function"
    },
    {
      "inputs": [],
      "name": "profitUnlockingRate",
      "outputs": [
        {
          "internalType": "uint256",
          "name": "",
          "type": "uint256"
        }
      ],
      "stateMutability": "view",
      "type": "function"
    },
    {
      "inputs": [
        {
          "internalType": "bytes32",
          "name": "role",
          "type": "bytes32"
        },
        {
          "internalType": "address",
          "name": "account",
          "type": "address"
        }
      ],
      "name": "renounceRole",
      "outputs": [],
      "stateMutability": "nonpayable",
      "type": "function"
    },
    {
      "inputs": [
        {
          "internalType": "bytes32",
          "name": "role",
          "type": "bytes32"
        },
        {
          "internalType": "address",
          "name": "account",
          "type": "address"
        }
      ],
      "name": "revokeRole",
      "outputs": [],
      "stateMutability": "nonpayable",
      "type": "function"
    },
    {
      "inputs": [
        {
          "internalType": "address",
          "name": "strategy",
          "type": "address"
        },
        {
          "internalType": "bool",
          "name": "force",
          "type": "bool"
        }
      ],
      "name": "revokeStrategy",
      "outputs": [],
      "stateMutability": "nonpayable",
      "type": "function"
    },
    {
      "inputs": [],
      "name": "roleManager",
      "outputs": [
        {
          "internalType": "address",
          "name": "",
          "type": "address"
        }
      ],
      "stateMutability": "view",
      "type": "function"
    },
    {
      "inputs": [
        {
          "internalType": "address",
          "name": "",
          "type": "address"
        }
      ],
      "name": "roles",
      "outputs": [
        {
          "internalType": "bytes32",
          "name": "",
          "type": "bytes32"
        }
      ],
      "stateMutability": "view",
      "type": "function"
    },
    {
      "inputs": [
        {
          "internalType": "address",
          "name": "strategy",
          "type": "address"
        },
        {
          "internalType": "uint256",
          "name": "_newDebt",
          "type": "uint256"
        }
      ],
      "name": "setDebt",
      "outputs": [],
      "stateMutability": "nonpayable",
      "type": "function"
    },
    {
      "inputs": [],
      "name": "setters",
      "outputs": [
        {
          "internalType": "address",
          "name": "",
          "type": "address"
        }
      ],
      "stateMutability": "view",
      "type": "function"
    },
    {
      "inputs": [],
      "name": "sharesManager",
      "outputs": [
        {
          "internalType": "address",
          "name": "",
          "type": "address"
        }
      ],
      "stateMutability": "view",
      "type": "function"
    },
    {
      "inputs": [],
      "name": "shutdown",
      "outputs": [
        {
          "internalType": "bool",
          "name": "",
          "type": "bool"
        }
      ],
      "stateMutability": "view",
      "type": "function"
    },
    {
      "inputs": [
        {
          "internalType": "address",
          "name": "",
          "type": "address"
        }
      ],
      "name": "strategies",
      "outputs": [
        {
          "internalType": "uint256",
          "name": "activation",
          "type": "uint256"
        },
        {
          "internalType": "uint256",
          "name": "lastReport",
          "type": "uint256"
        },
        {
          "internalType": "uint256",
          "name": "currentDebt",
          "type": "uint256"
        },
        {
          "internalType": "uint256",
          "name": "maxDebt",
          "type": "uint256"
        }
      ],
      "stateMutability": "view",
      "type": "function"
    },
    {
      "inputs": [],
      "name": "strategyManager",
      "outputs": [
        {
          "internalType": "address",
          "name": "",
          "type": "address"
        }
      ],
      "stateMutability": "view",
      "type": "function"
    },
    {
      "inputs": [
        {
          "internalType": "bytes4",
          "name": "interfaceId",
          "type": "bytes4"
        }
      ],
      "name": "supportsInterface",
      "outputs": [
        {
          "internalType": "bool",
          "name": "",
          "type": "bool"
        }
      ],
      "stateMutability": "view",
      "type": "function"
    },
    {
      "inputs": [],
      "name": "totalDebtAmount",
      "outputs": [
        {
          "internalType": "uint256",
          "name": "",
          "type": "uint256"
        }
      ],
      "stateMutability": "view",
      "type": "function"
    },
    {
      "inputs": [],
      "name": "totalIdleAmount",
      "outputs": [
        {
          "internalType": "uint256",
          "name": "",
          "type": "uint256"
        }
      ],
      "stateMutability": "view",
      "type": "function"
    },
    {
      "inputs": [],
      "name": "totalSupplyAmount",
      "outputs": [
        {
          "internalType": "uint256",
          "name": "",
          "type": "uint256"
        }
      ],
      "stateMutability": "view",
      "type": "function"
    },
    {
      "inputs": [
        {
          "internalType": "address",
          "name": "sender",
          "type": "address"
        },
        {
          "internalType": "address",
          "name": "strategy",
          "type": "address"
        },
        {
          "internalType": "uint256",
          "name": "targetDebt",
          "type": "uint256"
        }
      ],
      "name": "updateDebt",
      "outputs": [
        {
          "internalType": "uint256",
          "name": "",
          "type": "uint256"
        }
      ],
      "stateMutability": "nonpayable",
      "type": "function"
    },
    {
      "inputs": [
        {
          "internalType": "address",
          "name": "strategy",
          "type": "address"
        },
        {
          "internalType": "uint256",
          "name": "newMaxDebt",
          "type": "uint256"
        }
      ],
      "name": "updateMaxDebtForStrategy",
      "outputs": [],
      "stateMutability": "nonpayable",
      "type": "function"
    },
    {
      "inputs": [],
      "name": "useDefaultQueue",
      "outputs": [
        {
          "internalType": "bool",
          "name": "",
          "type": "bool"
        }
      ],
      "stateMutability": "view",
      "type": "function"
    },
    {
      "inputs": [],
      "name": "withdrawLimitModule",
      "outputs": [
        {
          "internalType": "address",
          "name": "",
          "type": "address"
        }
      ],
      "stateMutability": "view",
      "type": "function"
    }
  ],
  "transactionHash": "0x8d92d1b56393b4912e0bb3fb9191c9840c4d9e0963004ce348fb031990098ca5",
  "args": [
    "0xdf29cb40cb92a1b8e8337f542e3846e185deff96",
    "0xeC6f2deb13AF4CEdEB84BC1a425A302D25AC8dD2"
  ],
  "numDeployments": 1,
  "solcInputHash": "b3fbebf59ef5838936feb91ec6045ace",
  "bytecode": "0x60e06040526301e185586080523480156200001957600080fd5b5060405162003160380380620031608339810160408190526200003c9162000167565b6001600160a01b0382811660a0523360c052600280546001600160a01b031916918316919091179055620000726000826200007a565b5050620001aa565b62000086828262000103565b620000ff576000828152602081815260408083206001600160a01b03851684529091529020805460ff19166001179055620000be3390565b6001600160a01b0316816001600160a01b0316837f2f8788117e7eff1d82e926ec794901d17c78024a50270940304540a733656f0d60405160405180910390a45b5050565b6000828152602081815260408083206001600160a01b038516845290915290205460ff165b92915050565b60006001600160a01b03821662000128565b6200014b816200012e565b81146200015757600080fd5b50565b8051620001288162000140565b600080604083850312156200017f576200017f600080fd5b60006200018d85856200015a565b9250506020620001a0858286016200015a565b9150509250929050565b60805160a05160c051612f4e620002126000396000818161043201526121fb01526000818161051001528181610a3c015281816110b7015281816111ab0152818161148c015281816115060152818161160001526116a2015260006103c50152612f4e6000f3fe608060405234801561001057600080fd5b50600436106103055760003560e01c80638afca8f01161019a5780638afca8f0146106a557806391986003146106ae57806391d14854146106c157806399374642146106d45780639a78e72e146106f45780639e34e348146107205780639f3988f314610733578063a217fddf1461075a578063a835cd8114610762578063a98222c414610775578063ab5b4d491461079c578063acded97d146107c3578063b3c187f2146107d6578063b6cc2d1f146107e9578063ba71ecd41461080a578063bbe4eb4914610812578063bee7e3d91461081f578063c065ca0714610832578063c0993eea14610859578063c8d74b6014610880578063c8dffa95146108a7578063d4ae064f146108b0578063d547741f146108d7578063ecf70858146108ea578063f1daeba8146108f3578063f42c77ae1461091a578063f5b944eb1461092d578063f6d7bfa014610954578063f828f50b14610967578063fc0e74d114610970578063fd967f4714610984578063fec61f061461098d578063ff1e7f08146109b457600080fd5b8062435da51461030a57806301ffc9a71461033357806303dcd12c146103535780630835a3fc146103875780630952864e146103905780630ad283d01461039957806316d3bfbb146103c0578063223e5479146103e7578063248a9ca3146103fc57806329f3cef51461040f5780632d632692146104245780632dd310001461042d5780632f2ff15d146104545780633644e5151461046757806336568abe1461047057806336fba084146104835780633764254a1461048f57806339b70e38146104a257806339ebf823146104b55780633cd7b5ab146104fa5780633f7b5e40146105035780634800d97f1461050b5780634ce1d38a1461053f5780634cfe51dc146105665780634d4bb1971461058d5780634fb3ccc5146105b45780635141eebb146105c757806353a66132146105d05780635aa6e675146105f35780635bf6b4fb14610606578063652da3241461062d57806377e3b267146106545780637ecebe0014610685575b600080fd5b60145461031d906001600160a01b031681565b60405161032a919061256a565b60405180910390f35b61034661034136600461259a565b6109c7565b60405161032a91906125c3565b61037a7f633076a97f32ae349b28772e7b1483f67a926f150cbc501d02bdbd77389325ab81565b60405161032a91906125d7565b61037a600d5481565b61037a60165481565b61037a7fc723f4dd6268e1c374639e36d629c765285ee7003913389d582c300f186dde9781565b61037a7f000000000000000000000000000000000000000000000000000000000000000081565b6103fa6103f53660046125f9565b6109fe565b005b61037a61040a36600461262b565b610c03565b610417610c18565b60405161032a91906126a9565b61037a60175481565b61031d7f000000000000000000000000000000000000000000000000000000000000000081565b6103fa6104623660046126ba565b610c7a565b61037a601b5481565b6103fa61047e3660046126ba565b610c9b565b61037a64e8d4a5100081565b6103fa61049d3660046126f7565b610cda565b60015461031d906001600160a01b031681565b6104ea6104c33660046125f9565b60056020526000908152604090208054600182015460028301546003909301549192909184565b60405161032a949392919061272a565b61037a600c5481565b61037a600a81565b6105327f000000000000000000000000000000000000000000000000000000000000000081565b60405161032a91906127a0565b61037a7f69d1171ac0a63777a6733cda21aec9ed3d48a4fd11f273c934a691dec5e5589c81565b61037a7f862f91c9d89d6135b19873b921c90b702cb2e175c371b8430026b9577e69111981565b61037a7f6e71edae12b1b97f4d1f60370fef10105fa2faae0126114a169c64845d6126c981565b600f5461031d906001600160a01b031681565b61037a60185481565b6103466105de36600461262b565b60136020526000908152604090205460ff1681565b60045461031d906001600160a01b031681565b61037a7fea672c1c09cd95c51af9509f646f3615ff0071aae8652bd821471ee9037fd72c81565b61037a7fcd9f023a942ee35097ead74b2505bea9f2c5d47465db92dd195cf7f01a41cfe181565b610678604051806040016040528060058152602001640312e302e360dc1b81525081565b60405161032a9190612810565b61037a6106933660046125f9565b601a6020526000908152604090205481565b61037a60195481565b60115461031d906001600160a01b031681565b6103466106cf3660046126ba565b610d05565b61037a6106e23660046125f9565b60126020526000908152604090205481565b61037a6107023660046125f9565b6001600160a01b031660009081526005602052604090206002015490565b60105461031d906001600160a01b031681565b61037a7f6f430d649a8640e48ff9bfbc353b3f99ed630163857821b3b4075e3871dafbf581565b61037a600081565b61037a610770366004612821565b610d2e565b61037a7f2f0dbbe8c2c0170206c50ec0cafa1c0dbd03e73e67c2a960178df30a0a30ee2e81565b61037a7f900d80def0427daac599092fcb16b21808ec68dd9a2e1eae89d1e8db2135737581565b60025461031d906001600160a01b031681565b60155461031d906001600160a01b031681565b6107fc6107f73660046125f9565b61187d565b60405161032a929190612871565b60065461037a565b6007546103469060ff1681565b60035461031d906001600160a01b031681565b61037a7f2a0e761830cc61f2707ea7bb138008bf9dda7f7d34c77736d0a116604e95ea1681565b61037a7f8b73c3c69bb8fe3d512ecc4cf759cc79239f7b179b0ffacaa9a75d522b39400f81565b61037a7f152ebba56b9738ee3d8baea1b76fa31dcdcd79b1929bfea7d58ee12cfdf1a65381565b61037a600b5481565b61037a7fa18eaea71a088b547b8c932b48861853b3434d9a3240b94466c607e28b69659581565b6103fa6108e53660046126ba565b611c10565b61037a600e5481565b61037a7f7cbb3cdf689b8ea3e9d265f66bc4e0a99069268217017d38d2a5a559abc6271981565b6103fa61092836600461289f565b611c2c565b61037a7ff206625bad3d9112d5609b8d356e6fbd514cd1f69980d4ce2b3e6e68e1789ace81565b6103fa6109623660046126f7565b611e4d565b61037a600a5481565b60155461034690600160a01b900460ff1681565b61037a61271081565b61037a7fd45f7ccff42f059d4e47c3f027c444272257266f7e88b981e142f0aa38fbfd7881565b61031d6109c236600461262b565b611ee1565b60006001600160e01b03198216637965db0b60e01b14806109f857506301ffc9a760e01b6001600160e01b03198316145b92915050565b6001600160a01b0381161580610a1c57506001600160a01b03811630145b15610a3a5760405163d92e233d60e01b815260040160405180910390fd5b7f00000000000000000000000000000000000000000000000000000000000000006001600160a01b0316816001600160a01b03166338d52e0f6040518163ffffffff1660e01b8152600401602060405180830381865afa158015610aa2573d6000803e3d6000fd5b505050506040513d601f19601f82011682018060405250810190610ac691906128dd565b6001600160a01b031614610aed57604051636448d6e960e11b815260040160405180910390fd5b6001600160a01b03811660009081526005602052604090205415610b245760405163c976754d60e01b815260040160405180910390fd5b604080516080810182524280825260208083019182526000838501818152606085018281526001600160a01b038816835260059093529490209251835590516001830155915160028201559051600390910155600654600a811015610bcf57600680546001810182556000919091527ff652222313e28459528d920b65115c16c04f3efc82aaedc97be59f3f377c0d3f0180546001600160a01b0319166001600160a01b0384161790555b816001600160a01b0316600080516020612ed98339815191526000604051610bf79190612947565b60405180910390a25050565b60009081526020819052604090206001015490565b60606006805480602002602001604051908101604052809291908181526020018280548015610c7057602002820191906000526020600020905b81546001600160a01b03168152600190910190602001808311610c52575b5050505050905090565b610c8382610c03565b610c8c81611f0b565b610c968383611f18565b505050565b6001600160a01b0381163314610ccc5760405162461bcd60e51b8152600401610cc390612955565b60405180910390fd5b610cd68282611f9c565b5050565b6000610ce581611f0b565b506001600160a01b03909116600090815260056020526040902060020155565b6000918252602082815260408084206001600160a01b0393909316845291905290205460ff1690565b60025460408051635453491f60e01b815290516000926001600160a01b031691635453491f916004808301926020929190829003018187875af1158015610d79573d6000803e3d6000fd5b505050506040513d601f19601f82011682018060405250810190610d9d91906129b3565b600c556002546040805163cea5a1a760e01b815290516001600160a01b039092169163cea5a1a79160048082019260209290919082900301816000875af1158015610dec573d6000803e3d6000fd5b505050506040513d601f19601f82011682018060405250810190610e1091906129b3565b600d556001600160a01b0383166000908152600560205260409020600201548214801590610e425750600d54600c5411155b15610e605760405163356680b760e01b815260040160405180910390fd5b6001600160a01b038316600090815260056020526040902060020154601554839190600160a01b900460ff161515600103610e9a57600091505b808203610eba5760405163084df06b60e41b815260040160405180910390fd5b81811115611356576000610ece83836129ea565b9050600d5481600c54610ee191906129fd565b1015610f0457600c54600d54610ef791906129ea565b905081811115610f045750805b604051636c82bbbf60e11b81526000906001600160a01b038816906307a2d13a90829063d905777e90610f3b908d9060040161256a565b602060405180830381865afa158015610f58573d6000803e3d6000fd5b505050506040513d601f19601f82011682018060405250810190610f7c91906129b3565b6040518263ffffffff1660e01b8152600401610f9891906125d7565b602060405180830381865afa158015610fb5573d6000803e3d6000fd5b505050506040513d601f19601f82011682018060405250810190610fd991906129b3565b905060008111610ffc57604051637c946ed760e01b815260040160405180910390fd5b81811015611008578091505b600254604051635a56909960e01b81526000916001600160a01b031690635a5690999061103b908b908790600401612a10565b602060405180830381865afa158015611058573d6000803e3d6000fd5b505050506040513d601f19601f8201168201806040525081019061107c91906129b3565b9050801561109d576040516339589fdd60e21b815260040160405180910390fd5b6040516370a0823160e01b81526000906001600160a01b037f000000000000000000000000000000000000000000000000000000000000000016906370a08231906110ec908d9060040161256a565b602060405180830381865afa158015611109573d6000803e3d6000fd5b505050506040513d601f19601f8201168201806040525081019061112d91906129b3565b6002546040516316a7a12b60e31b81529192506001600160a01b03169063b53d095890611160908c908890600401612a10565b600060405180830381600087803b15801561117a57600080fd5b505af115801561118e573d6000803e3d6000fd5b50506040516370a0823160e01b8152600092506001600160a01b037f00000000000000000000000000000000000000000000000000000000000000001691506370a08231906111e1908e9060040161256a565b602060405180830381865afa1580156111fe573d6000803e3d6000fd5b505050506040513d601f19601f8201168201806040525081019061122291906129b3565b9050600061123961123384846129ea565b88612001565b905085811115611247578095505b80600c600082825461125991906129fd565b9250508190555085600b600082825461127291906129ea565b9091555050600254600c54604051634d28468560e11b81526001600160a01b0390921691639a508d0a916112a8916004016125d7565b600060405180830381600087803b1580156112c257600080fd5b505af11580156112d6573d6000803e3d6000fd5b5050600254600b5460405163e315cd7560e01b81526001600160a01b03909216935063e315cd75925061130b916004016125d7565b600060405180830381600087803b15801561132557600080fd5b505af1158015611339573d6000803e3d6000fd5b50505050858761134991906129ea565b975050505050505061181a565b6001600160a01b0385166000908152600560205260409020600301548211156113925760405163d49d8c2360e01b815260040160405180910390fd5b60405163402d267d60e01b81526000906001600160a01b0387169063402d267d906113c1908a9060040161256a565b602060405180830381865afa1580156113de573d6000803e3d6000fd5b505050506040513d601f19601f8201168201806040525081019061140291906129b3565b90506000811161142557604051637c946ed760e01b815260040160405180910390fd5b600061143183856129ea565b90508181111561143e5750805b6000600d54600c5461145091906129ea565b90508082111561145e578091505b81156118165760025460405163300d25a560e21b81526001600160a01b039091169063c0349694906114b8907f0000000000000000000000000000000000000000000000000000000000000000908c908790600401612a1e565b600060405180830381600087803b1580156114d257600080fd5b505af11580156114e6573d6000803e3d6000fd5b50506002546040516370a0823160e01b8152600093506001600160a01b037f0000000000000000000000000000000000000000000000000000000000000000811693506370a082319261153e9291169060040161256a565b602060405180830381865afa15801561155b573d6000803e3d6000fd5b505050506040513d601f19601f8201168201806040525081019061157f91906129b3565b60025460405163af76d4bd60e01b81529192506001600160a01b03169063af76d4bd906115b2908c908790600401612a10565b600060405180830381600087803b1580156115cc57600080fd5b505af11580156115e0573d6000803e3d6000fd5b50506002546040516370a0823160e01b8152600093506001600160a01b037f0000000000000000000000000000000000000000000000000000000000000000811693506370a08231926116389291169060040161256a565b602060405180830381865afa158015611655573d6000803e3d6000fd5b505050506040513d601f19601f8201168201806040525081019061167991906129b3565b60025460405163300d25a560e21b81529192506001600160a01b03169063c0349694906116cf907f0000000000000000000000000000000000000000000000000000000000000000908e90600090600401612a5b565b600060405180830381600087803b1580156116e957600080fd5b505af11580156116fd573d6000803e3d6000fd5b50505050808261170d91906129ea565b935083600c600082825461172191906129ea565b9250508190555083600b600082825461173a91906129fd565b9091555050600254600c54604051634d28468560e11b81526001600160a01b0390921691639a508d0a91611770916004016125d7565b600060405180830381600087803b15801561178a57600080fd5b505af115801561179e573d6000803e3d6000fd5b5050600254600b5460405163e315cd7560e01b81526001600160a01b03909216935063e315cd7592506117d3916004016125d7565b600060405180830381600087803b1580156117ed57600080fd5b505af1158015611801573d6000803e3d6000fd5b50505050838661181191906129fd565b965050505b5050505b6001600160a01b03851660008181526005602052604090819020600201849055517f5e2b8821ad6e0e26207e0cb4d242d07eeb1cbb1cfd853e645bdcd27cc5484f959061186a9084908690612871565b60405180910390a25090505b9392505050565b6001600160a01b038116600090815260056020526040812054819081036118b757604051630631bc2160e51b815260040160405180910390fd5b600260009054906101000a90046001600160a01b03166001600160a01b031663e0bf18ad6040518163ffffffff1660e01b8152600401600060405180830381600087803b15801561190757600080fd5b505af115801561191b573d6000803e3d6000fd5b5050505060008061192b85612017565b91509150600061193c868484612153565b60025481516040808401519051631e95795560e01b81529394506000936001600160a01b0390931692631e95795592611979928892600401612a83565b6060604051808303816000875af1158015611998573d6000803e3d6000fd5b505050506040513d601f19601f820116820180604052508101906119bc9190612b56565b9050600080600260009054906101000a90046001600160a01b03166001600160a01b0316630ceca244848689898e6040518663ffffffff1660e01b8152600401611a0a959493929190612bfe565b60408051808303816000875af1158015611a28573d6000803e3d6000fd5b505050506040513d601f19601f82011682018060405250810190611a4c9190612c4d565b600254604051633e986eed60e01b81529294509092506001600160a01b031690633e986eed90611a829085908590600401612871565b600060405180830381600087803b158015611a9c57600080fd5b505af1158015611ab0573d6000803e3d6000fd5b505050506001600160a01b038981166000818152600560205260408082204260018201556002908101549054888301519251637ff0007760e01b81529495600080516020612ef9833981519152958d958d959390921692637ff0007792611b1992600401612c80565b602060405180830381865afa158015611b36573d6000803e3d6000fd5b505050506040513d601f19601f82011682018060405250810190611b5a91906129b3565b60025460208a015160408b01516001600160a01b0390921691637ff0007791611b82916129fd565b60006040518363ffffffff1660e01b8152600401611ba1929190612c80565b602060405180830381865afa158015611bbe573d6000803e3d6000fd5b505050506040513d601f19601f82011682018060405250810190611be291906129b3565b8a60200151604051611bf996959493929190612c9b565b60405180910390a250939792965091945050505050565b611c1982610c03565b611c2281611f0b565b610c968383611f9c565b6001600160a01b0382166000908152600560205260408120549003611c6457604051630631bc2160e51b815260040160405180910390fd5b6001600160a01b03821660009081526005602052604081206002015415801590611c8c575081155b15611caa57604051633546382f60e21b815260040160405180910390fd5b506001600160a01b038216600090815260056020526040812060020154600b805491928392611cda9084906129ea565b92505081905550826001600160a01b0316600080516020612ef9833981519152600083600080600080604051611d1596959493929190612cf5565b60405180910390a2604080516080810182526000808252602080830182815283850183815260608086018581526001600160a01b038b16865260059094529590932093518455516001840155905160028301555160039091015560065415611e035760005b600654811015611e0157600060068281548110611d9957611d99612d44565b6000918252602090912001546001600160a01b03908116915086168114611dee5780838381518110611dcd57611dcd612d44565b60200260200101906001600160a01b031690816001600160a01b0316815250505b5080611df981612d5a565b915050611d7a565b505b8051611e16906006906020840190612499565b50836001600160a01b0316600080516020612ed98339815191526001604051611e3f9190612947565b60405180910390a250505050565b6001600160a01b0382166000908152600560205260408120549003611e8557604051630631bc2160e51b815260040160405180910390fd5b6001600160a01b038216600081815260056020526040908190206003018390555132907fb3eef2123fec1523a6bbc90aceb203000154c1a4974335fe06b544c7534d4b8990611ed59085906125d7565b60405180910390a35050565b60068181548110611ef157600080fd5b6000918252602090912001546001600160a01b0316905081565b611f1581336122c3565b50565b611f228282610d05565b610cd6576000828152602081815260408083206001600160a01b03851684529091529020805460ff19166001179055611f583390565b6001600160a01b0316816001600160a01b0316837f2f8788117e7eff1d82e926ec794901d17c78024a50270940304540a733656f0d60405160405180910390a45050565b611fa68282610d05565b15610cd6576000828152602081815260408083206001600160a01b0385168085529252808320805460ff1916905551339285917ff6391f5c32d9c69d2a47ea670b442974b53935d1edc7fd64eb21e047a839171b9190a45050565b60008183106120105781611876565b5090919050565b6002546040516370a0823160e01b8152600091829182916001600160a01b03808716926370a082319261204e92169060040161256a565b602060405180830381865afa15801561206b573d6000803e3d6000fd5b505050506040513d601f19601f8201168201806040525081019061208f91906129b3565b90506000846001600160a01b03166307a2d13a836040518263ffffffff1660e01b81526004016120bf91906125d7565b602060405180830381865afa1580156120dc573d6000803e3d6000fd5b505050506040513d601f19601f8201168201806040525081019061210091906129b3565b6001600160a01b03861660009081526005602052604081206002015491925080828411156121395761213283856129ea565b9150612146565b61214384846129ea565b90505b9097909650945050505050565b61215b6124fe565b6121636124fe565b600f546001600160a01b0316156122bb57600f5460405163921f8a8f60e01b81526001600160a01b039091169063921f8a8f906121a890889088908890600401612d74565b60408051808303816000875af11580156121c6573d6000803e3d6000fd5b505050506040513d601f19601f820116820180604052508101906121ea9190612c4d565b6020830152808252156122bb5760007f00000000000000000000000000000000000000000000000000000000000000006001600160a01b03166307d3277f6040518163ffffffff1660e01b81526004016040805180830381865afa158015612256573d6000803e3d6000fd5b505050506040513d601f19601f8201168201806040525081019061227a9190612d97565b6001600160a01b03166060840152905061ffff8116156122b9578151612710906122a99061ffff841690612dca565b6122b39190612dff565b60408301525b505b949350505050565b6122cd8282610d05565b610cd6576122da8161231c565b6122e583602061232e565b6040516020016122f6929190612e35565b60408051601f198184030181529082905262461bcd60e51b8252610cc391600401612810565b60606109f86001600160a01b03831660145b6060600061233d836002612dca565b6123489060026129fd565b6001600160401b0381111561235f5761235f612a9e565b6040519080825280601f01601f191660200182016040528015612389576020820181803683370190505b509050600360fc1b816000815181106123a4576123a4612d44565b60200101906001600160f81b031916908160001a905350600f60fb1b816001815181106123d3576123d3612d44565b60200101906001600160f81b031916908160001a90535060006123f7846002612dca565b6124029060016129fd565b90505b600181111561247a576f181899199a1a9b1b9c1cb0b131b232b360811b85600f166010811061243657612436612d44565b1a60f81b82828151811061244c5761244c612d44565b60200101906001600160f81b031916908160001a90535060049490941c9361247381612e87565b9050612405565b5083156118765760405162461bcd60e51b8152600401610cc390612e9e565b8280548282559060005260206000209081019282156124ee579160200282015b828111156124ee57825182546001600160a01b0319166001600160a01b039091161782556020909201916001909101906124b9565b506124fa92915061252f565b5090565b604051806080016040528060008152602001600081526020016000815260200160006001600160a01b031681525090565b5b808211156124fa5760008155600101612530565b6001600160a01b031690565b60006109f882612544565b61256481612550565b82525050565b602081016109f8828461255b565b6001600160e01b031981165b8114611f1557600080fd5b80356109f881612578565b6000602082840312156125af576125af600080fd5b60006122bb848461258f565b801515612564565b602081016109f882846125bb565b80612564565b602081016109f882846125d1565b61258481612550565b80356109f8816125e5565b60006020828403121561260e5761260e600080fd5b60006122bb84846125ee565b80612584565b80356109f88161261a565b60006020828403121561264057612640600080fd5b60006122bb8484612620565b6000612658838361255b565b505060200190565b600061266a825190565b80845260209384019383018060005b8381101561269e57815161268d888261264c565b975060208301925050600101612679565b509495945050505050565b602080825281016118768184612660565b600080604083850312156126d0576126d0600080fd5b60006126dc8585612620565b92505060206126ed858286016125ee565b9150509250929050565b6000806040838503121561270d5761270d600080fd5b600061271985856125ee565b92505060206126ed85828601612620565b6080810161273882876125d1565b61274560208301866125d1565b61275260408301856125d1565b61275f60608301846125d1565b95945050505050565b60006109f861277c61277984612544565b90565b612544565b60006109f882612768565b60006109f882612781565b6125648161278c565b602081016109f88284612797565b60005b838110156127c95781810151838201526020016127b1565b50506000910152565b601f01601f191690565b60006127e6825190565b8084526020840193506127fd8185602086016127ae565b612806816127d2565b9093019392505050565b6020808252810161187681846127dc565b60008060006060848603121561283957612839600080fd5b600061284586866125ee565b9350506020612856868287016125ee565b925050604061286786828701612620565b9150509250925092565b6040810161287f82856125d1565b61187660208301846125d1565b801515612584565b80356109f88161288c565b600080604083850312156128b5576128b5600080fd5b60006128c185856125ee565b92505060206126ed85828601612894565b80516109f8816125e5565b6000602082840312156128f2576128f2600080fd5b60006122bb84846128d2565b634e487b7160e01b600052602160045260246000fd5b60028110611f1557611f156128fe565b8061292e81612914565b919050565b60006109f882612924565b61256481612933565b602081016109f8828461293e565b602080825281016109f881602f81527f416363657373436f6e74726f6c3a2063616e206f6e6c792072656e6f756e636560208201526e103937b632b9903337b91039b2b63360891b604082015260600190565b80516109f88161261a565b6000602082840312156129c8576129c8600080fd5b60006122bb84846129a8565b634e487b7160e01b600052601160045260246000fd5b818103818111156109f8576109f86129d4565b808201808211156109f8576109f86129d4565b6040810161287f828561255b565b60608101612a2c828661255b565b612a39602083018561255b565b6122bb60408301846125d1565b60006109f86127798381565b61256481612a46565b60608101612a69828661255b565b612a76602083018561255b565b6122bb6040830184612a52565b60608101612a9182866125d1565b612a3960208301856125d1565b634e487b7160e01b600052604160045260246000fd5b612abd826127d2565b81018181106001600160401b0382111715612ada57612ada612a9e565b6040525050565b6000612aec60405190565b905061292e8282612ab4565b600060608284031215612b0d57612b0d600080fd5b612b176060612ae1565b90506000612b2584846129a8565b8252506020612b36848483016129a8565b6020830152506040612b4a848285016129a8565b60408301525092915050565b600060608284031215612b6b57612b6b600080fd5b60006122bb8484612af8565b80516060830190612b8884826125d1565b506020820151612b9b60208501826125d1565b506040820151612bae60408501826125d1565b50505050565b80516080830190612bc584826125d1565b506020820151612bd860208501826125d1565b506040820151612beb60408501826125d1565b506060820151612bae606085018261255b565b6101408101612c0d8288612b77565b612c1a6060830187612bb4565b612c2760e08301866125d1565b612c356101008301856125d1565b612c4361012083018461255b565b9695505050505050565b60008060408385031215612c6357612c63600080fd5b6000612c6f85856129a8565b92505060206126ed858286016129a8565b60408101612c8e82856125d1565b611876602083018461293e565b60c08101612ca982896125d1565b612cb660208301886125d1565b612cc360408301876125d1565b612cd060608301866125d1565b612cdd60808301856125d1565b612cea60a08301846125d1565b979650505050505050565b60c08101612d038289612a52565b612d1060208301886125d1565b612d1d6040830187612a52565b612d2a6060830186612a52565b612d376080830185612a52565b612cea60a0830184612a52565b634e487b7160e01b600052603260045260246000fd5b60006000198203612d6d57612d6d6129d4565b5060010190565b60608101612a91828661255b565b61ffff8116612584565b80516109f881612d82565b60008060408385031215612dad57612dad600080fd5b6000612db98585612d8c565b92505060206126ed858286016128d2565b6000816000190483118215151615612de457612de46129d4565b500290565b634e487b7160e01b600052601260045260246000fd5b600082612e0e57612e0e612de9565b500490565b6000612e1d825190565b612e2b8185602086016127ae565b9290920192915050565b76020b1b1b2b9b9a1b7b73a3937b61d1030b1b1b7bab73a1604d1b81526017016000612e618285612e13565b7001034b99036b4b9b9b4b733903937b6329607d1b815260110191506122bb8284612e13565b600081612e9657612e966129d4565b506000190190565b60208082528181019081527f537472696e67733a20686578206c656e67746820696e73756666696369656e746040830152606082016109f856febcf55f13710eed7eda89416c2984da5475fcff67e96fe85e56eed808559a52227f2ad1d3ba35276f35ef140f83e3e0f17b23064fd710113d3f7a5ab30d267811a26469706673582212207b8789dd23d25c67f8b8cabd9dc5338c0830f41034015af371847e2d70d8ad7364736f6c63430008100033",
  "devdoc": {
    "kind": "dev",
    "methods": {
      "getRoleAdmin(bytes32)": {
        "details": "Returns the admin role that controls `role`. See {grantRole} and {revokeRole}. To change a role's admin, use {_setRoleAdmin}."
      },
      "grantRole(bytes32,address)": {
        "details": "Grants `role` to `account`. If `account` had not been already granted `role`, emits a {RoleGranted} event. Requirements: - the caller must have ``role``'s admin role. May emit a {RoleGranted} event."
      },
      "hasRole(bytes32,address)": {
        "details": "Returns `true` if `account` has been granted `role`."
      },
      "renounceRole(bytes32,address)": {
        "details": "Revokes `role` from the calling account. Roles are often managed via {grantRole} and {revokeRole}: this function's purpose is to provide a mechanism for accounts to lose their privileges if they are compromised (such as when a trusted device is misplaced). If the calling account had been revoked `role`, emits a {RoleRevoked} event. Requirements: - the caller must be `account`. May emit a {RoleRevoked} event."
      },
      "revokeRole(bytes32,address)": {
        "details": "Revokes `role` from `account`. If `account` had been granted `role`, emits a {RoleRevoked} event. Requirements: - the caller must have ``role``'s admin role. May emit a {RoleRevoked} event."
      },
      "supportsInterface(bytes4)": {
        "details": "See {IERC165-supportsInterface}."
      }
    },
    "title": "STRATEGY MANAGEMENT",
    "version": 1
  },
  "userdoc": {
    "kind": "user",
    "methods": {},
    "version": 1
  },
  "storageLayout": {
    "storage": [
      {
        "astId": 24,
        "contract": "contracts/StrategyManager.sol:StrategyManager",
        "label": "_roles",
        "offset": 0,
        "slot": "0",
        "type": "t_mapping(t_bytes32,t_struct(RoleData)19_storage)"
      },
      {
        "astId": 9120,
        "contract": "contracts/StrategyManager.sol:StrategyManager",
        "label": "strategyManager",
        "offset": 0,
        "slot": "1",
        "type": "t_address"
      },
      {
        "astId": 9122,
        "contract": "contracts/StrategyManager.sol:StrategyManager",
        "label": "sharesManager",
        "offset": 0,
        "slot": "2",
        "type": "t_address"
      },
      {
        "astId": 9124,
        "contract": "contracts/StrategyManager.sol:StrategyManager",
        "label": "setters",
        "offset": 0,
        "slot": "3",
        "type": "t_address"
      },
      {
        "astId": 9126,
        "contract": "contracts/StrategyManager.sol:StrategyManager",
        "label": "governance",
        "offset": 0,
        "slot": "4",
        "type": "t_address"
      },
      {
        "astId": 9131,
        "contract": "contracts/StrategyManager.sol:StrategyManager",
        "label": "strategies",
        "offset": 0,
        "slot": "5",
        "type": "t_mapping(t_address,t_struct(StrategyParams)9289_storage)"
      },
      {
        "astId": 9134,
        "contract": "contracts/StrategyManager.sol:StrategyManager",
        "label": "defaultQueue",
        "offset": 0,
        "slot": "6",
        "type": "t_array(t_address)dyn_storage"
      },
      {
        "astId": 9136,
        "contract": "contracts/StrategyManager.sol:StrategyManager",
        "label": "useDefaultQueue",
        "offset": 0,
        "slot": "7",
        "type": "t_bool"
      },
      {
        "astId": 9138,
        "contract": "contracts/StrategyManager.sol:StrategyManager",
        "label": "initialized",
        "offset": 1,
        "slot": "7",
        "type": "t_bool"
      },
      {
        "astId": 9142,
        "contract": "contracts/StrategyManager.sol:StrategyManager",
        "label": "_balanceOf",
        "offset": 0,
        "slot": "8",
        "type": "t_mapping(t_address,t_uint256)"
      },
      {
        "astId": 9148,
        "contract": "contracts/StrategyManager.sol:StrategyManager",
        "label": "_allowance",
        "offset": 0,
        "slot": "9",
        "type": "t_mapping(t_address,t_mapping(t_address,t_uint256))"
      },
      {
        "astId": 9150,
        "contract": "contracts/StrategyManager.sol:StrategyManager",
        "label": "totalSupplyAmount",
        "offset": 0,
        "slot": "10",
        "type": "t_uint256"
      },
      {
        "astId": 9152,
        "contract": "contracts/StrategyManager.sol:StrategyManager",
        "label": "totalDebtAmount",
        "offset": 0,
        "slot": "11",
        "type": "t_uint256"
      },
      {
        "astId": 9154,
        "contract": "contracts/StrategyManager.sol:StrategyManager",
        "label": "totalIdleAmount",
        "offset": 0,
        "slot": "12",
        "type": "t_uint256"
      },
      {
        "astId": 9156,
        "contract": "contracts/StrategyManager.sol:StrategyManager",
        "label": "minimumTotalIdle",
        "offset": 0,
        "slot": "13",
        "type": "t_uint256"
      },
      {
        "astId": 9158,
        "contract": "contracts/StrategyManager.sol:StrategyManager",
        "label": "depositLimit",
        "offset": 0,
        "slot": "14",
        "type": "t_uint256"
      },
      {
        "astId": 9160,
        "contract": "contracts/StrategyManager.sol:StrategyManager",
        "label": "accountant",
        "offset": 0,
        "slot": "15",
        "type": "t_address"
      },
      {
        "astId": 9162,
        "contract": "contracts/StrategyManager.sol:StrategyManager",
        "label": "depositLimitModule",
        "offset": 0,
        "slot": "16",
        "type": "t_address"
      },
      {
        "astId": 9164,
        "contract": "contracts/StrategyManager.sol:StrategyManager",
        "label": "withdrawLimitModule",
        "offset": 0,
        "slot": "17",
        "type": "t_address"
      },
      {
        "astId": 9168,
        "contract": "contracts/StrategyManager.sol:StrategyManager",
        "label": "roles",
        "offset": 0,
        "slot": "18",
        "type": "t_mapping(t_address,t_bytes32)"
      },
      {
        "astId": 9172,
        "contract": "contracts/StrategyManager.sol:StrategyManager",
        "label": "openRoles",
        "offset": 0,
        "slot": "19",
        "type": "t_mapping(t_bytes32,t_bool)"
      },
      {
        "astId": 9174,
        "contract": "contracts/StrategyManager.sol:StrategyManager",
        "label": "roleManager",
        "offset": 0,
        "slot": "20",
        "type": "t_address"
      },
      {
        "astId": 9176,
        "contract": "contracts/StrategyManager.sol:StrategyManager",
        "label": "futureRoleManager",
        "offset": 0,
        "slot": "21",
        "type": "t_address"
      },
      {
        "astId": 9178,
        "contract": "contracts/StrategyManager.sol:StrategyManager",
        "label": "shutdown",
        "offset": 20,
        "slot": "21",
        "type": "t_bool"
      },
      {
        "astId": 9180,
        "contract": "contracts/StrategyManager.sol:StrategyManager",
        "label": "profitMaxUnlockTime",
        "offset": 0,
        "slot": "22",
        "type": "t_uint256"
      },
      {
        "astId": 9182,
        "contract": "contracts/StrategyManager.sol:StrategyManager",
        "label": "fullProfitUnlockDate",
        "offset": 0,
        "slot": "23",
        "type": "t_uint256"
      },
      {
        "astId": 9184,
        "contract": "contracts/StrategyManager.sol:StrategyManager",
        "label": "profitUnlockingRate",
        "offset": 0,
        "slot": "24",
        "type": "t_uint256"
      },
      {
        "astId": 9186,
        "contract": "contracts/StrategyManager.sol:StrategyManager",
        "label": "lastProfitUpdate",
        "offset": 0,
        "slot": "25",
        "type": "t_uint256"
      },
      {
        "astId": 9190,
        "contract": "contracts/StrategyManager.sol:StrategyManager",
        "label": "nonces",
        "offset": 0,
        "slot": "26",
        "type": "t_mapping(t_address,t_uint256)"
      },
      {
        "astId": 9197,
        "contract": "contracts/StrategyManager.sol:StrategyManager",
        "label": "DOMAIN_SEPARATOR",
        "offset": 0,
        "slot": "27",
        "type": "t_bytes32"
      }
    ],
    "types": {
      "t_address": {
        "encoding": "inplace",
        "label": "address",
        "numberOfBytes": "20"
      },
      "t_array(t_address)dyn_storage": {
        "base": "t_address",
        "encoding": "dynamic_array",
        "label": "address[]",
        "numberOfBytes": "32"
      },
      "t_bool": {
        "encoding": "inplace",
        "label": "bool",
        "numberOfBytes": "1"
      },
      "t_bytes32": {
        "encoding": "inplace",
        "label": "bytes32",
        "numberOfBytes": "32"
      },
      "t_mapping(t_address,t_bool)": {
        "encoding": "mapping",
        "key": "t_address",
        "label": "mapping(address => bool)",
        "numberOfBytes": "32",
        "value": "t_bool"
      },
      "t_mapping(t_address,t_bytes32)": {
        "encoding": "mapping",
        "key": "t_address",
        "label": "mapping(address => bytes32)",
        "numberOfBytes": "32",
        "value": "t_bytes32"
      },
      "t_mapping(t_address,t_mapping(t_address,t_uint256))": {
        "encoding": "mapping",
        "key": "t_address",
        "label": "mapping(address => mapping(address => uint256))",
        "numberOfBytes": "32",
        "value": "t_mapping(t_address,t_uint256)"
      },
      "t_mapping(t_address,t_struct(StrategyParams)9289_storage)": {
        "encoding": "mapping",
        "key": "t_address",
        "label": "mapping(address => struct StrategyParams)",
        "numberOfBytes": "32",
        "value": "t_struct(StrategyParams)9289_storage"
      },
      "t_mapping(t_address,t_uint256)": {
        "encoding": "mapping",
        "key": "t_address",
        "label": "mapping(address => uint256)",
        "numberOfBytes": "32",
        "value": "t_uint256"
      },
      "t_mapping(t_bytes32,t_bool)": {
        "encoding": "mapping",
        "key": "t_bytes32",
        "label": "mapping(bytes32 => bool)",
        "numberOfBytes": "32",
        "value": "t_bool"
      },
      "t_mapping(t_bytes32,t_struct(RoleData)19_storage)": {
        "encoding": "mapping",
        "key": "t_bytes32",
        "label": "mapping(bytes32 => struct AccessControl.RoleData)",
        "numberOfBytes": "32",
        "value": "t_struct(RoleData)19_storage"
      },
      "t_struct(RoleData)19_storage": {
        "encoding": "inplace",
        "label": "struct AccessControl.RoleData",
        "members": [
          {
            "astId": 16,
            "contract": "contracts/StrategyManager.sol:StrategyManager",
            "label": "members",
            "offset": 0,
            "slot": "0",
            "type": "t_mapping(t_address,t_bool)"
          },
          {
            "astId": 18,
            "contract": "contracts/StrategyManager.sol:StrategyManager",
            "label": "adminRole",
            "offset": 0,
            "slot": "1",
            "type": "t_bytes32"
          }
        ],
        "numberOfBytes": "64"
      },
      "t_struct(StrategyParams)9289_storage": {
        "encoding": "inplace",
        "label": "struct StrategyParams",
        "members": [
          {
            "astId": 9282,
            "contract": "contracts/StrategyManager.sol:StrategyManager",
            "label": "activation",
            "offset": 0,
            "slot": "0",
            "type": "t_uint256"
          },
          {
            "astId": 9284,
            "contract": "contracts/StrategyManager.sol:StrategyManager",
            "label": "lastReport",
            "offset": 0,
            "slot": "1",
            "type": "t_uint256"
          },
          {
            "astId": 9286,
            "contract": "contracts/StrategyManager.sol:StrategyManager",
            "label": "currentDebt",
            "offset": 0,
            "slot": "2",
            "type": "t_uint256"
          },
          {
            "astId": 9288,
            "contract": "contracts/StrategyManager.sol:StrategyManager",
            "label": "maxDebt",
            "offset": 0,
            "slot": "3",
            "type": "t_uint256"
          }
        ],
        "numberOfBytes": "128"
      },
      "t_uint256": {
        "encoding": "inplace",
        "label": "uint256",
        "numberOfBytes": "32"
      }
    }
  }
}