{
  "address": "0xE5D8b20Cf1B1FCf7190EA992f57185aaa4b78Dcb",
  "abi": [
    {
      "inputs": [
        {
          "internalType": "address",
          "name": "_asset",
          "type": "address"
        },
        {
          "internalType": "address",
          "name": "_sharesManager",
          "type": "address"
        }
      ],
      "stateMutability": "nonpayable",
      "type": "constructor"
    },
    {
      "inputs": [],
      "name": "DebtDidntChange",
      "type": "error"
    },
    {
      "inputs": [],
      "name": "DebtHigherThanMaxDebt",
      "type": "error"
    },
    {
      "inputs": [],
      "name": "InactiveStrategy",
      "type": "error"
    },
    {
      "inputs": [],
      "name": "InsufficientFunds",
      "type": "error"
    },
    {
      "inputs": [],
      "name": "InvalidAsset",
      "type": "error"
    },
    {
      "inputs": [],
      "name": "StrategyAlreadyActive",
      "type": "error"
    },
    {
      "inputs": [],
      "name": "StrategyDebtIsLessThanAssetsNeeded",
      "type": "error"
    },
    {
      "inputs": [],
      "name": "StrategyHasDebt",
      "type": "error"
    },
    {
      "inputs": [],
      "name": "StrategyHasUnrealisedLosses",
      "type": "error"
    },
    {
      "inputs": [],
      "name": "ZeroAddress",
      "type": "error"
    },
    {
      "inputs": [],
      "name": "ZeroValue",
      "type": "error"
    },
    {
      "anonymous": false,
      "inputs": [
        {
          "indexed": true,
          "internalType": "address",
          "name": "strategy",
          "type": "address"
        },
        {
          "indexed": false,
          "internalType": "uint256",
          "name": "amount",
          "type": "uint256"
        }
      ],
      "name": "DebtPurchased",
      "type": "event"
    },
    {
      "anonymous": false,
      "inputs": [
        {
          "indexed": true,
          "internalType": "address",
          "name": "strategy",
          "type": "address"
        },
        {
          "indexed": false,
          "internalType": "uint256",
          "name": "currentDebt",
          "type": "uint256"
        },
        {
          "indexed": false,
          "internalType": "uint256",
          "name": "newDebt",
          "type": "uint256"
        }
      ],
      "name": "DebtUpdated",
      "type": "event"
    },
    {
      "anonymous": false,
      "inputs": [
        {
          "indexed": true,
          "internalType": "bytes32",
          "name": "role",
          "type": "bytes32"
        },
        {
          "indexed": true,
          "internalType": "bytes32",
          "name": "previousAdminRole",
          "type": "bytes32"
        },
        {
          "indexed": true,
          "internalType": "bytes32",
          "name": "newAdminRole",
          "type": "bytes32"
        }
      ],
      "name": "RoleAdminChanged",
      "type": "event"
    },
    {
      "anonymous": false,
      "inputs": [
        {
          "indexed": true,
          "internalType": "bytes32",
          "name": "role",
          "type": "bytes32"
        },
        {
          "indexed": true,
          "internalType": "address",
          "name": "account",
          "type": "address"
        },
        {
          "indexed": true,
          "internalType": "address",
          "name": "sender",
          "type": "address"
        }
      ],
      "name": "RoleGranted",
      "type": "event"
    },
    {
      "anonymous": false,
      "inputs": [
        {
          "indexed": true,
          "internalType": "bytes32",
          "name": "role",
          "type": "bytes32"
        },
        {
          "indexed": true,
          "internalType": "address",
          "name": "account",
          "type": "address"
        },
        {
          "indexed": true,
          "internalType": "address",
          "name": "sender",
          "type": "address"
        }
      ],
      "name": "RoleRevoked",
      "type": "event"
    },
    {
      "anonymous": false,
      "inputs": [
        {
          "indexed": true,
          "internalType": "address",
          "name": "account",
          "type": "address"
        },
        {
          "indexed": false,
          "internalType": "bytes32",
          "name": "role",
          "type": "bytes32"
        }
      ],
      "name": "RoleSet",
      "type": "event"
    },
    {
      "anonymous": false,
      "inputs": [
        {
          "indexed": true,
          "internalType": "bytes32",
          "name": "role",
          "type": "bytes32"
        },
        {
          "indexed": true,
          "internalType": "enum RoleStatusChange",
          "name": "status",
          "type": "uint8"
        }
      ],
      "name": "RoleStatusChanged",
      "type": "event"
    },
    {
      "anonymous": false,
      "inputs": [],
      "name": "Shutdown",
      "type": "event"
    },
    {
      "anonymous": false,
      "inputs": [
        {
          "indexed": true,
          "internalType": "address",
          "name": "strategy",
          "type": "address"
        },
        {
          "indexed": false,
          "internalType": "enum StrategyChangeType",
          "name": "changeType",
          "type": "uint8"
        }
      ],
      "name": "StrategyChanged",
      "type": "event"
    },
    {
      "anonymous": false,
      "inputs": [
        {
          "indexed": true,
          "internalType": "address",
          "name": "strategy",
          "type": "address"
        },
        {
          "indexed": false,
          "internalType": "uint256",
          "name": "gain",
          "type": "uint256"
        },
        {
          "indexed": false,
          "internalType": "uint256",
          "name": "loss",
          "type": "uint256"
        },
        {
          "indexed": false,
          "internalType": "uint256",
          "name": "currentDebt",
          "type": "uint256"
        },
        {
          "indexed": false,
          "internalType": "uint256",
          "name": "protocolFees",
          "type": "uint256"
        },
        {
          "indexed": false,
          "internalType": "uint256",
          "name": "totalFees",
          "type": "uint256"
        },
        {
          "indexed": false,
          "internalType": "uint256",
          "name": "totalRefunds",
          "type": "uint256"
        }
      ],
      "name": "StrategyReported",
      "type": "event"
    },
    {
      "anonymous": false,
      "inputs": [
        {
          "indexed": true,
          "internalType": "address",
          "name": "accountant",
          "type": "address"
        }
      ],
      "name": "UpdateAccountant",
      "type": "event"
    },
    {
      "anonymous": false,
      "inputs": [
        {
          "indexed": false,
          "internalType": "address[]",
          "name": "newDefaultQueue",
          "type": "address[]"
        }
      ],
      "name": "UpdateDefaultQueue",
      "type": "event"
    },
    {
      "anonymous": false,
      "inputs": [
        {
          "indexed": false,
          "internalType": "uint256",
          "name": "depositLimit",
          "type": "uint256"
        }
      ],
      "name": "UpdateDepositLimit",
      "type": "event"
    },
    {
      "anonymous": false,
      "inputs": [
        {
          "indexed": true,
          "internalType": "address",
          "name": "depositLimitModule",
          "type": "address"
        }
      ],
      "name": "UpdateDepositLimitModule",
      "type": "event"
    },
    {
      "anonymous": false,
      "inputs": [
        {
          "indexed": false,
          "internalType": "uint256",
          "name": "minimumTotalIdle",
          "type": "uint256"
        }
      ],
      "name": "UpdateMinimumTotalIdle",
      "type": "event"
    },
    {
      "anonymous": false,
      "inputs": [
        {
          "indexed": false,
          "internalType": "uint256",
          "name": "profitMaxUnlockTime",
          "type": "uint256"
        }
      ],
      "name": "UpdateProfitMaxUnlockTime",
      "type": "event"
    },
    {
      "anonymous": false,
      "inputs": [
        {
          "indexed": true,
          "internalType": "address",
          "name": "roleManager",
          "type": "address"
        }
      ],
      "name": "UpdateRoleManager",
      "type": "event"
    },
    {
      "anonymous": false,
      "inputs": [
        {
          "indexed": false,
          "internalType": "bool",
          "name": "useDefaultQueue",
          "type": "bool"
        }
      ],
      "name": "UpdateUseDefaultQueue",
      "type": "event"
    },
    {
      "anonymous": false,
      "inputs": [
        {
          "indexed": true,
          "internalType": "address",
          "name": "withdrawLimitModule",
          "type": "address"
        }
      ],
      "name": "UpdateWithdrawLimitModule",
      "type": "event"
    },
    {
      "anonymous": false,
      "inputs": [
        {
          "indexed": true,
          "internalType": "address",
          "name": "sender",
          "type": "address"
        },
        {
          "indexed": true,
          "internalType": "address",
          "name": "strategy",
          "type": "address"
        },
        {
          "indexed": false,
          "internalType": "uint256",
          "name": "newDebt",
          "type": "uint256"
        }
      ],
      "name": "UpdatedMaxDebtForStrategy",
      "type": "event"
    },
    {
      "inputs": [],
      "name": "ACCOUNTANT_MANAGER",
      "outputs": [
        {
          "internalType": "bytes32",
          "name": "",
          "type": "bytes32"
        }
      ],
      "stateMutability": "view",
      "type": "function"
    },
    {
      "inputs": [],
      "name": "ADD_STRATEGY_MANAGER",
      "outputs": [
        {
          "internalType": "bytes32",
          "name": "",
          "type": "bytes32"
        }
      ],
      "stateMutability": "view",
      "type": "function"
    },
    {
      "inputs": [],
      "name": "API_VERSION",
      "outputs": [
        {
          "internalType": "string",
          "name": "",
          "type": "string"
        }
      ],
      "stateMutability": "view",
      "type": "function"
    },
    {
      "inputs": [],
      "name": "ASSET",
      "outputs": [
        {
          "internalType": "contract IERC20",
          "name": "",
          "type": "address"
        }
      ],
      "stateMutability": "view",
      "type": "function"
    },
    {
      "inputs": [],
      "name": "DEBT_MANAGER",
      "outputs": [
        {
          "internalType": "bytes32",
          "name": "",
          "type": "bytes32"
        }
      ],
      "stateMutability": "view",
      "type": "function"
    },
    {
      "inputs": [],
      "name": "DEBT_PURCHASER",
      "outputs": [
        {
          "internalType": "bytes32",
          "name": "",
          "type": "bytes32"
        }
      ],
      "stateMutability": "view",
      "type": "function"
    },
    {
      "inputs": [],
      "name": "DEFAULT_ADMIN_ROLE",
      "outputs": [
        {
          "internalType": "bytes32",
          "name": "",
          "type": "bytes32"
        }
      ],
      "stateMutability": "view",
      "type": "function"
    },
    {
      "inputs": [],
      "name": "DEPOSIT_LIMIT_MANAGER",
      "outputs": [
        {
          "internalType": "bytes32",
          "name": "",
          "type": "bytes32"
        }
      ],
      "stateMutability": "view",
      "type": "function"
    },
    {
      "inputs": [],
      "name": "DOMAIN_SEPARATOR",
      "outputs": [
        {
          "internalType": "bytes32",
          "name": "",
          "type": "bytes32"
        }
      ],
      "stateMutability": "view",
      "type": "function"
    },
    {
      "inputs": [],
      "name": "DOMAIN_TYPE_HASH",
      "outputs": [
        {
          "internalType": "bytes32",
          "name": "",
          "type": "bytes32"
        }
      ],
      "stateMutability": "view",
      "type": "function"
    },
    {
      "inputs": [],
      "name": "EMERGENCY_MANAGER",
      "outputs": [
        {
          "internalType": "bytes32",
          "name": "",
          "type": "bytes32"
        }
      ],
      "stateMutability": "view",
      "type": "function"
    },
    {
      "inputs": [],
      "name": "FACTORY",
      "outputs": [
        {
          "internalType": "address",
          "name": "",
          "type": "address"
        }
      ],
      "stateMutability": "view",
      "type": "function"
    },
    {
      "inputs": [],
      "name": "FORCE_REVOKE_MANAGER",
      "outputs": [
        {
          "internalType": "bytes32",
          "name": "",
          "type": "bytes32"
        }
      ],
      "stateMutability": "view",
      "type": "function"
    },
    {
      "inputs": [],
      "name": "MAX_BPS",
      "outputs": [
        {
          "internalType": "uint256",
          "name": "",
          "type": "uint256"
        }
      ],
      "stateMutability": "view",
      "type": "function"
    },
    {
      "inputs": [],
      "name": "MAX_BPS_EXTENDED",
      "outputs": [
        {
          "internalType": "uint256",
          "name": "",
          "type": "uint256"
        }
      ],
      "stateMutability": "view",
      "type": "function"
    },
    {
      "inputs": [],
      "name": "MAX_DEBT_MANAGER",
      "outputs": [
        {
          "internalType": "bytes32",
          "name": "",
          "type": "bytes32"
        }
      ],
      "stateMutability": "view",
      "type": "function"
    },
    {
      "inputs": [],
      "name": "MAX_QUEUE",
      "outputs": [
        {
          "internalType": "uint256",
          "name": "",
          "type": "uint256"
        }
      ],
      "stateMutability": "view",
      "type": "function"
    },
    {
      "inputs": [],
      "name": "MINIMUM_IDLE_MANAGER",
      "outputs": [
        {
          "internalType": "bytes32",
          "name": "",
          "type": "bytes32"
        }
      ],
      "stateMutability": "view",
      "type": "function"
    },
    {
      "inputs": [],
      "name": "ONE_YEAR",
      "outputs": [
        {
          "internalType": "uint256",
          "name": "",
          "type": "uint256"
        }
      ],
      "stateMutability": "view",
      "type": "function"
    },
    {
      "inputs": [],
      "name": "PERMIT_TYPE_HASH",
      "outputs": [
        {
          "internalType": "bytes32",
          "name": "",
          "type": "bytes32"
        }
      ],
      "stateMutability": "view",
      "type": "function"
    },
    {
      "inputs": [],
      "name": "PROFIT_UNLOCK_MANAGER",
      "outputs": [
        {
          "internalType": "bytes32",
          "name": "",
          "type": "bytes32"
        }
      ],
      "stateMutability": "view",
      "type": "function"
    },
    {
      "inputs": [],
      "name": "QUEUE_MANAGER",
      "outputs": [
        {
          "internalType": "bytes32",
          "name": "",
          "type": "bytes32"
        }
      ],
      "stateMutability": "view",
      "type": "function"
    },
    {
      "inputs": [],
      "name": "REPORTING_MANAGER",
      "outputs": [
        {
          "internalType": "bytes32",
          "name": "",
          "type": "bytes32"
        }
      ],
      "stateMutability": "view",
      "type": "function"
    },
    {
      "inputs": [],
      "name": "REVOKE_STRATEGY_MANAGER",
      "outputs": [
        {
          "internalType": "bytes32",
          "name": "",
          "type": "bytes32"
        }
      ],
      "stateMutability": "view",
      "type": "function"
    },
    {
      "inputs": [],
      "name": "ROLE_MANAGER",
      "outputs": [
        {
          "internalType": "bytes32",
          "name": "",
          "type": "bytes32"
        }
      ],
      "stateMutability": "view",
      "type": "function"
    },
    {
      "inputs": [],
      "name": "WITHDRAW_LIMIT_MANAGER",
      "outputs": [
        {
          "internalType": "bytes32",
          "name": "",
          "type": "bytes32"
        }
      ],
      "stateMutability": "view",
      "type": "function"
    },
    {
      "inputs": [],
      "name": "accountant",
      "outputs": [
        {
          "internalType": "address",
          "name": "",
          "type": "address"
        }
      ],
      "stateMutability": "view",
      "type": "function"
    },
    {
      "inputs": [
        {
          "internalType": "address",
          "name": "newStrategy",
          "type": "address"
        }
      ],
      "name": "addStrategy",
      "outputs": [],
      "stateMutability": "nonpayable",
      "type": "function"
    },
    {
      "inputs": [
        {
          "internalType": "uint256",
          "name": "",
          "type": "uint256"
        }
      ],
      "name": "defaultQueue",
      "outputs": [
        {
          "internalType": "address",
          "name": "",
          "type": "address"
        }
      ],
      "stateMutability": "view",
      "type": "function"
    },
    {
      "inputs": [],
      "name": "depositLimit",
      "outputs": [
        {
          "internalType": "uint256",
          "name": "",
          "type": "uint256"
        }
      ],
      "stateMutability": "view",
      "type": "function"
    },
    {
      "inputs": [],
      "name": "depositLimitModule",
      "outputs": [
        {
          "internalType": "address",
          "name": "",
          "type": "address"
        }
      ],
      "stateMutability": "view",
      "type": "function"
    },
    {
      "inputs": [],
      "name": "fees",
      "outputs": [
        {
          "internalType": "uint256",
          "name": "totalFees",
          "type": "uint256"
        },
        {
          "internalType": "uint256",
          "name": "totalRefunds",
          "type": "uint256"
        },
        {
          "internalType": "uint256",
          "name": "protocolFees",
          "type": "uint256"
        },
        {
          "internalType": "address",
          "name": "protocolFeeRecipient",
          "type": "address"
        }
      ],
      "stateMutability": "view",
      "type": "function"
    },
    {
      "inputs": [],
      "name": "fullProfitUnlockDate",
      "outputs": [
        {
          "internalType": "uint256",
          "name": "",
          "type": "uint256"
        }
      ],
      "stateMutability": "view",
      "type": "function"
    },
    {
      "inputs": [],
      "name": "futureRoleManager",
      "outputs": [
        {
          "internalType": "address",
          "name": "",
          "type": "address"
        }
      ],
      "stateMutability": "view",
      "type": "function"
    },
    {
      "inputs": [
        {
          "internalType": "address",
          "name": "strategy",
          "type": "address"
        }
      ],
      "name": "getDebt",
      "outputs": [
        {
          "internalType": "uint256",
          "name": "",
          "type": "uint256"
        }
      ],
      "stateMutability": "view",
      "type": "function"
    },
    {
      "inputs": [],
      "name": "getDefaultQueue",
      "outputs": [
        {
          "internalType": "address[]",
          "name": "",
          "type": "address[]"
        }
      ],
      "stateMutability": "view",
      "type": "function"
    },
    {
      "inputs": [],
      "name": "getDefaultQueueLength",
      "outputs": [
        {
          "internalType": "uint256",
          "name": "length",
          "type": "uint256"
        }
      ],
      "stateMutability": "view",
      "type": "function"
    },
    {
      "inputs": [
        {
          "internalType": "bytes32",
          "name": "role",
          "type": "bytes32"
        }
      ],
      "name": "getRoleAdmin",
      "outputs": [
        {
          "internalType": "bytes32",
          "name": "",
          "type": "bytes32"
        }
      ],
      "stateMutability": "view",
      "type": "function"
    },
    {
      "inputs": [],
      "name": "governance",
      "outputs": [
        {
          "internalType": "address",
          "name": "",
          "type": "address"
        }
      ],
      "stateMutability": "view",
      "type": "function"
    },
    {
      "inputs": [
        {
          "internalType": "bytes32",
          "name": "role",
          "type": "bytes32"
        },
        {
          "internalType": "address",
          "name": "account",
          "type": "address"
        }
      ],
      "name": "grantRole",
      "outputs": [],
      "stateMutability": "nonpayable",
      "type": "function"
    },
    {
      "inputs": [
        {
          "internalType": "bytes32",
          "name": "role",
          "type": "bytes32"
        },
        {
          "internalType": "address",
          "name": "account",
          "type": "address"
        }
      ],
      "name": "hasRole",
      "outputs": [
        {
          "internalType": "bool",
          "name": "",
          "type": "bool"
        }
      ],
      "stateMutability": "view",
      "type": "function"
    },
    {
      "inputs": [],
      "name": "lastProfitUpdate",
      "outputs": [
        {
          "internalType": "uint256",
          "name": "",
          "type": "uint256"
        }
      ],
      "stateMutability": "view",
      "type": "function"
    },
    {
      "inputs": [],
      "name": "minimumTotalIdle",
      "outputs": [
        {
          "internalType": "uint256",
          "name": "",
          "type": "uint256"
        }
      ],
      "stateMutability": "view",
      "type": "function"
    },
    {
      "inputs": [
        {
          "internalType": "address",
          "name": "",
          "type": "address"
        }
      ],
      "name": "nonces",
      "outputs": [
        {
          "internalType": "uint256",
          "name": "",
          "type": "uint256"
        }
      ],
      "stateMutability": "view",
      "type": "function"
    },
    {
      "inputs": [
        {
          "internalType": "bytes32",
          "name": "",
          "type": "bytes32"
        }
      ],
      "name": "openRoles",
      "outputs": [
        {
          "internalType": "bool",
          "name": "",
          "type": "bool"
        }
      ],
      "stateMutability": "view",
      "type": "function"
    },
    {
      "inputs": [
        {
          "internalType": "address",
          "name": "strategy",
          "type": "address"
        }
      ],
      "name": "processReport",
      "outputs": [
        {
          "internalType": "uint256",
          "name": "",
          "type": "uint256"
        },
        {
          "internalType": "uint256",
          "name": "",
          "type": "uint256"
        }
      ],
      "stateMutability": "nonpayable",
      "type": "function"
    },
    {
      "inputs": [],
      "name": "profitMaxUnlockTime",
      "outputs": [
        {
          "internalType": "uint256",
          "name": "",
          "type": "uint256"
        }
      ],
      "stateMutability": "view",
      "type": "function"
    },
    {
      "inputs": [],
      "name": "profitUnlockingRate",
      "outputs": [
        {
          "internalType": "uint256",
          "name": "",
          "type": "uint256"
        }
      ],
      "stateMutability": "view",
      "type": "function"
    },
    {
      "inputs": [
        {
          "internalType": "bytes32",
          "name": "role",
          "type": "bytes32"
        },
        {
          "internalType": "address",
          "name": "account",
          "type": "address"
        }
      ],
      "name": "renounceRole",
      "outputs": [],
      "stateMutability": "nonpayable",
      "type": "function"
    },
    {
      "inputs": [
        {
          "internalType": "bytes32",
          "name": "role",
          "type": "bytes32"
        },
        {
          "internalType": "address",
          "name": "account",
          "type": "address"
        }
      ],
      "name": "revokeRole",
      "outputs": [],
      "stateMutability": "nonpayable",
      "type": "function"
    },
    {
      "inputs": [
        {
          "internalType": "address",
          "name": "strategy",
          "type": "address"
        },
        {
          "internalType": "bool",
          "name": "force",
          "type": "bool"
        }
      ],
      "name": "revokeStrategy",
      "outputs": [],
      "stateMutability": "nonpayable",
      "type": "function"
    },
    {
      "inputs": [],
      "name": "roleManager",
      "outputs": [
        {
          "internalType": "address",
          "name": "",
          "type": "address"
        }
      ],
      "stateMutability": "view",
      "type": "function"
    },
    {
      "inputs": [
        {
          "internalType": "address",
          "name": "",
          "type": "address"
        }
      ],
      "name": "roles",
      "outputs": [
        {
          "internalType": "bytes32",
          "name": "",
          "type": "bytes32"
        }
      ],
      "stateMutability": "view",
      "type": "function"
    },
    {
      "inputs": [
        {
          "internalType": "address",
          "name": "strategy",
          "type": "address"
        },
        {
          "internalType": "uint256",
          "name": "_newDebt",
          "type": "uint256"
        }
      ],
      "name": "setDebt",
      "outputs": [],
      "stateMutability": "nonpayable",
      "type": "function"
    },
    {
      "inputs": [
        {
          "internalType": "uint256",
          "name": "totalFees",
          "type": "uint256"
        },
        {
          "internalType": "uint256",
          "name": "totalRefunds",
          "type": "uint256"
        },
        {
          "internalType": "uint256",
          "name": "protocolFees",
          "type": "uint256"
        },
        {
          "internalType": "address",
          "name": "protocolFeeRecipient",
          "type": "address"
        }
      ],
      "name": "setFees",
      "outputs": [],
      "stateMutability": "nonpayable",
      "type": "function"
    },
    {
      "inputs": [],
      "name": "setters",
      "outputs": [
        {
          "internalType": "address",
          "name": "",
          "type": "address"
        }
      ],
      "stateMutability": "view",
      "type": "function"
    },
    {
      "inputs": [],
      "name": "sharesManager",
      "outputs": [
        {
          "internalType": "address",
          "name": "",
          "type": "address"
        }
      ],
      "stateMutability": "view",
      "type": "function"
    },
    {
      "inputs": [],
      "name": "shutdown",
      "outputs": [
        {
          "internalType": "bool",
          "name": "",
          "type": "bool"
        }
      ],
      "stateMutability": "view",
      "type": "function"
    },
    {
      "inputs": [
        {
          "internalType": "address",
          "name": "",
          "type": "address"
        }
      ],
      "name": "strategies",
      "outputs": [
        {
          "internalType": "uint256",
          "name": "activation",
          "type": "uint256"
        },
        {
          "internalType": "uint256",
          "name": "lastReport",
          "type": "uint256"
        },
        {
          "internalType": "uint256",
          "name": "currentDebt",
          "type": "uint256"
        },
        {
          "internalType": "uint256",
          "name": "maxDebt",
          "type": "uint256"
        }
      ],
      "stateMutability": "view",
      "type": "function"
    },
    {
      "inputs": [],
      "name": "strategyManager",
      "outputs": [
        {
          "internalType": "address",
          "name": "",
          "type": "address"
        }
      ],
      "stateMutability": "view",
      "type": "function"
    },
    {
      "inputs": [
        {
          "internalType": "bytes4",
          "name": "interfaceId",
          "type": "bytes4"
        }
      ],
      "name": "supportsInterface",
      "outputs": [
        {
          "internalType": "bool",
          "name": "",
          "type": "bool"
        }
      ],
      "stateMutability": "view",
      "type": "function"
    },
    {
      "inputs": [],
      "name": "totalDebtAmount",
      "outputs": [
        {
          "internalType": "uint256",
          "name": "",
          "type": "uint256"
        }
      ],
      "stateMutability": "view",
      "type": "function"
    },
    {
      "inputs": [],
      "name": "totalIdleAmount",
      "outputs": [
        {
          "internalType": "uint256",
          "name": "",
          "type": "uint256"
        }
      ],
      "stateMutability": "view",
      "type": "function"
    },
    {
      "inputs": [],
      "name": "totalSupplyAmount",
      "outputs": [
        {
          "internalType": "uint256",
          "name": "",
          "type": "uint256"
        }
      ],
      "stateMutability": "view",
      "type": "function"
    },
    {
      "inputs": [
        {
          "internalType": "address",
          "name": "sender",
          "type": "address"
        },
        {
          "internalType": "address",
          "name": "strategy",
          "type": "address"
        },
        {
          "internalType": "uint256",
          "name": "targetDebt",
          "type": "uint256"
        }
      ],
      "name": "updateDebt",
      "outputs": [
        {
          "internalType": "uint256",
          "name": "",
          "type": "uint256"
        }
      ],
      "stateMutability": "nonpayable",
      "type": "function"
    },
    {
      "inputs": [
        {
          "internalType": "address",
          "name": "strategy",
          "type": "address"
        },
        {
          "internalType": "uint256",
          "name": "newMaxDebt",
          "type": "uint256"
        }
      ],
      "name": "updateMaxDebtForStrategy",
      "outputs": [],
      "stateMutability": "nonpayable",
      "type": "function"
    },
    {
      "inputs": [],
      "name": "useDefaultQueue",
      "outputs": [
        {
          "internalType": "bool",
          "name": "",
          "type": "bool"
        }
      ],
      "stateMutability": "view",
      "type": "function"
    },
    {
      "inputs": [],
      "name": "withdrawLimitModule",
      "outputs": [
        {
          "internalType": "address",
          "name": "",
          "type": "address"
        }
      ],
      "stateMutability": "view",
      "type": "function"
    }
  ],
  "transactionHash": "0x0c8313ee8621c1dc2cedd13e3e9d9cedc50998a088c13ea5e57d47874e5d3a17",
  "args": [
    "0xdf29cb40cb92a1b8e8337f542e3846e185deff96",
    "0xcdc41A34DD91AEBc86Cab288a1368021bB2A8D6a"
  ],
  "numDeployments": 1,
  "solcInputHash": "7e2ba453b883e6d3a66220df6fa5f9ad",
  "bytecode": "0x60e06040526301e185586080523480156200001957600080fd5b50604051620032d5380380620032d58339810160408190526200003c9162000167565b6001600160a01b0382811660a0523360c052600280546001600160a01b031916918316919091179055620000726000826200007a565b5050620001aa565b62000086828262000103565b620000ff576000828152602081815260408083206001600160a01b03851684529091529020805460ff19166001179055620000be3390565b6001600160a01b0316816001600160a01b0316837f2f8788117e7eff1d82e926ec794901d17c78024a50270940304540a733656f0d60405160405180910390a45b5050565b6000828152602081815260408083206001600160a01b038516845290915290205460ff165b92915050565b60006001600160a01b03821662000128565b6200014b816200012e565b81146200015757600080fd5b50565b8051620001288162000140565b600080604083850312156200017f576200017f600080fd5b60006200018d85856200015a565b9250506020620001a0858286016200015a565b9150509250929050565b60805160a05160c0516130c3620002126000396000818161044801526122d401526000818161052601528181610abf0152818161113a0152818161122e0152818161150f01528181611589015281816116830152611725015260006103db01526130c36000f3fe608060405234801561001057600080fd5b506004361061031b5760003560e01c806391986003116101a557806391986003146106c457806391d14854146106d757806399374642146106ea5780639a78e72e1461070a5780639af1d35a146107365780639e34e348146107655780639f3988f314610778578063a217fddf1461079f578063a835cd81146107a7578063a98222c4146107ba578063ab5b4d49146107e1578063acded97d14610808578063b1c46c9f1461081b578063b3c187f214610859578063b6cc2d1f1461086c578063ba71ecd41461088d578063bbe4eb4914610895578063bee7e3d9146108a2578063c065ca07146108b5578063c0993eea146108dc578063c8d74b6014610903578063c8dffa951461092a578063d4ae064f14610933578063d547741f1461095a578063ecf708581461096d578063f1daeba814610976578063f42c77ae1461099d578063f5b944eb146109b0578063f6d7bfa0146109d7578063f828f50b146109ea578063fc0e74d1146109f3578063fd967f4714610a07578063fec61f0614610a10578063ff1e7f0814610a3757600080fd5b8062435da51461032057806301ffc9a71461034957806303dcd12c146103695780630835a3fc1461039d5780630952864e146103a65780630ad283d0146103af57806316d3bfbb146103d6578063223e5479146103fd578063248a9ca31461041257806329f3cef5146104255780632d6326921461043a5780632dd31000146104435780632f2ff15d1461046a5780633644e5151461047d57806336568abe1461048657806336fba084146104995780633764254a146104a557806339b70e38146104b857806339ebf823146104cb5780633cd7b5ab146105105780633f7b5e40146105195780634800d97f146105215780634ce1d38a146105555780634cfe51dc1461057c5780634d4bb197146105a35780634fb3ccc5146105ca5780635141eebb146105dd57806353a66132146105e65780635aa6e675146106095780635bf6b4fb1461061c578063652da3241461064357806377e3b2671461066a5780637ecebe001461069b5780638afca8f0146106bb575b600080fd5b601854610333906001600160a01b031681565b6040516103409190612612565b60405180910390f35b61035c610357366004612642565b610a4a565b604051610340919061266b565b6103907f633076a97f32ae349b28772e7b1483f67a926f150cbc501d02bdbd77389325ab81565b604051610340919061267f565b61039060115481565b610390601a5481565b6103907fc723f4dd6268e1c374639e36d629c765285ee7003913389d582c300f186dde9781565b6103907f000000000000000000000000000000000000000000000000000000000000000081565b61041061040b3660046126a1565b610a81565b005b6103906104203660046126d3565b610c86565b61042d610c9b565b6040516103409190612751565b610390601b5481565b6103337f000000000000000000000000000000000000000000000000000000000000000081565b610410610478366004612762565b610cfd565b610390601f5481565b610410610494366004612762565b610d1e565b61039064e8d4a5100081565b6104106104b336600461279f565b610d5d565b600154610333906001600160a01b031681565b6105006104d93660046126a1565b60056020526000908152604090208054600182015460028301546003909301549192909184565b60405161034094939291906127d2565b61039060105481565b610390600a81565b6105487f000000000000000000000000000000000000000000000000000000000000000081565b6040516103409190612848565b6103907f69d1171ac0a63777a6733cda21aec9ed3d48a4fd11f273c934a691dec5e5589c81565b6103907f862f91c9d89d6135b19873b921c90b702cb2e175c371b8430026b9577e69111981565b6103907f6e71edae12b1b97f4d1f60370fef10105fa2faae0126114a169c64845d6126c981565b601354610333906001600160a01b031681565b610390601c5481565b61035c6105f43660046126d3565b60176020526000908152604090205460ff1681565b600454610333906001600160a01b031681565b6103907fea672c1c09cd95c51af9509f646f3615ff0071aae8652bd821471ee9037fd72c81565b6103907fcd9f023a942ee35097ead74b2505bea9f2c5d47465db92dd195cf7f01a41cfe181565b61068e604051806040016040528060058152602001640312e302e360dc1b81525081565b60405161034091906128b8565b6103906106a93660046126a1565b601e6020526000908152604090205481565b610390601d5481565b601554610333906001600160a01b031681565b61035c6106e5366004612762565b610d88565b6103906106f83660046126a1565b60166020526000908152604090205481565b6103906107183660046126a1565b6001600160a01b031660009081526005602052604090206002015490565b600654600754600854600954610755939291906001600160a01b031684565b60405161034094939291906128c9565b601454610333906001600160a01b031681565b6103907f6f430d649a8640e48ff9bfbc353b3f99ed630163857821b3b4075e3871dafbf581565b610390600081565b6103906107b53660046128fe565b610db1565b6103907f2f0dbbe8c2c0170206c50ec0cafa1c0dbd03e73e67c2a960178df30a0a30ee2e81565b6103907f900d80def0427daac599092fcb16b21808ec68dd9a2e1eae89d1e8db2135737581565b600254610333906001600160a01b031681565b61041061082936600461294e565b600693909355600791909155600855600980546001600160a01b0319166001600160a01b03909216919091179055565b601954610333906001600160a01b031681565b61087f61087a3660046126a1565b611900565b6040516103409291906129b2565b600a54610390565b600b5461035c9060ff1681565b600354610333906001600160a01b031681565b6103907f2a0e761830cc61f2707ea7bb138008bf9dda7f7d34c77736d0a116604e95ea1681565b6103907f8b73c3c69bb8fe3d512ecc4cf759cc79239f7b179b0ffacaa9a75d522b39400f81565b6103907f152ebba56b9738ee3d8baea1b76fa31dcdcd79b1929bfea7d58ee12cfdf1a65381565b610390600f5481565b6103907fa18eaea71a088b547b8c932b48861853b3434d9a3240b94466c607e28b69659581565b610410610968366004612762565b611c99565b61039060125481565b6103907f7cbb3cdf689b8ea3e9d265f66bc4e0a99069268217017d38d2a5a559abc6271981565b6104106109ab3660046129e0565b611cb5565b6103907ff206625bad3d9112d5609b8d356e6fbd514cd1f69980d4ce2b3e6e68e1789ace81565b6104106109e536600461279f565b611ed6565b610390600e5481565b60195461035c90600160a01b900460ff1681565b61039061271081565b6103907fd45f7ccff42f059d4e47c3f027c444272257266f7e88b981e142f0aa38fbfd7881565b610333610a453660046126d3565b611f6a565b60006001600160e01b03198216637965db0b60e01b1480610a7b57506301ffc9a760e01b6001600160e01b03198316145b92915050565b6001600160a01b0381161580610a9f57506001600160a01b03811630145b15610abd5760405163d92e233d60e01b815260040160405180910390fd5b7f00000000000000000000000000000000000000000000000000000000000000006001600160a01b0316816001600160a01b03166338d52e0f6040518163ffffffff1660e01b8152600401602060405180830381865afa158015610b25573d6000803e3d6000fd5b505050506040513d601f19601f82011682018060405250810190610b499190612a1e565b6001600160a01b031614610b7057604051636448d6e960e11b815260040160405180910390fd5b6001600160a01b03811660009081526005602052604090205415610ba75760405163c976754d60e01b815260040160405180910390fd5b604080516080810182524280825260208083019182526000838501818152606085018281526001600160a01b038816835260059093529490209251835590516001830155915160028201559051600390910155600a805490811015610c5257600a80546001810182556000919091527fc65a7bb8d6351c1cf70c95a316cc6a92839c986682d98bc35f958f4883f9d2a80180546001600160a01b0319166001600160a01b0384161790555b816001600160a01b031660008051602061304e8339815191526000604051610c7a9190612a88565b60405180910390a25050565b60009081526020819052604090206001015490565b6060600a805480602002602001604051908101604052809291908181526020018280548015610cf357602002820191906000526020600020905b81546001600160a01b03168152600190910190602001808311610cd5575b5050505050905090565b610d0682610c86565b610d0f81611f94565b610d198383611fa1565b505050565b6001600160a01b0381163314610d4f5760405162461bcd60e51b8152600401610d4690612a96565b60405180910390fd5b610d598282612025565b5050565b6000610d6881611f94565b506001600160a01b03909116600090815260056020526040902060020155565b6000918252602082815260408084206001600160a01b0393909316845291905290205460ff1690565b60025460408051635453491f60e01b815290516000926001600160a01b031691635453491f916004808301926020929190829003018187875af1158015610dfc573d6000803e3d6000fd5b505050506040513d601f19601f82011682018060405250810190610e209190612af4565b6010556002546040805163cea5a1a760e01b815290516001600160a01b039092169163cea5a1a79160048082019260209290919082900301816000875af1158015610e6f573d6000803e3d6000fd5b505050506040513d601f19601f82011682018060405250810190610e939190612af4565b6011556001600160a01b0383166000908152600560205260409020600201548214801590610ec5575060115460105411155b15610ee35760405163356680b760e01b815260040160405180910390fd5b6001600160a01b038316600090815260056020526040902060020154601954839190600160a01b900460ff161515600103610f1d57600091505b808203610f3d5760405163084df06b60e41b815260040160405180910390fd5b818111156113d9576000610f518383612b2b565b905060115481601054610f649190612b3e565b1015610f8757601054601154610f7a9190612b2b565b905081811115610f875750805b604051636c82bbbf60e11b81526000906001600160a01b038816906307a2d13a90829063d905777e90610fbe908d90600401612612565b602060405180830381865afa158015610fdb573d6000803e3d6000fd5b505050506040513d601f19601f82011682018060405250810190610fff9190612af4565b6040518263ffffffff1660e01b815260040161101b919061267f565b602060405180830381865afa158015611038573d6000803e3d6000fd5b505050506040513d601f19601f8201168201806040525081019061105c9190612af4565b90506000811161107f57604051637c946ed760e01b815260040160405180910390fd5b8181101561108b578091505b600254604051635a56909960e01b81526000916001600160a01b031690635a569099906110be908b908790600401612b51565b602060405180830381865afa1580156110db573d6000803e3d6000fd5b505050506040513d601f19601f820116820180604052508101906110ff9190612af4565b90508015611120576040516339589fdd60e21b815260040160405180910390fd5b6040516370a0823160e01b81526000906001600160a01b037f000000000000000000000000000000000000000000000000000000000000000016906370a082319061116f908d90600401612612565b602060405180830381865afa15801561118c573d6000803e3d6000fd5b505050506040513d601f19601f820116820180604052508101906111b09190612af4565b6002546040516316a7a12b60e31b81529192506001600160a01b03169063b53d0958906111e3908c908890600401612b51565b600060405180830381600087803b1580156111fd57600080fd5b505af1158015611211573d6000803e3d6000fd5b50506040516370a0823160e01b8152600092506001600160a01b037f00000000000000000000000000000000000000000000000000000000000000001691506370a0823190611264908e90600401612612565b602060405180830381865afa158015611281573d6000803e3d6000fd5b505050506040513d601f19601f820116820180604052508101906112a59190612af4565b905060006112bc6112b68484612b2b565b8861208a565b9050858111156112ca578095505b80601060008282546112dc9190612b3e565b9250508190555085600f60008282546112f59190612b2b565b9091555050600254601054604051634d28468560e11b81526001600160a01b0390921691639a508d0a9161132b9160040161267f565b600060405180830381600087803b15801561134557600080fd5b505af1158015611359573d6000803e3d6000fd5b5050600254600f5460405163e315cd7560e01b81526001600160a01b03909216935063e315cd75925061138e9160040161267f565b600060405180830381600087803b1580156113a857600080fd5b505af11580156113bc573d6000803e3d6000fd5b5050505085876113cc9190612b2b565b975050505050505061189d565b6001600160a01b0385166000908152600560205260409020600301548211156114155760405163d49d8c2360e01b815260040160405180910390fd5b60405163402d267d60e01b81526000906001600160a01b0387169063402d267d90611444908a90600401612612565b602060405180830381865afa158015611461573d6000803e3d6000fd5b505050506040513d601f19601f820116820180604052508101906114859190612af4565b9050600081116114a857604051637c946ed760e01b815260040160405180910390fd5b60006114b48385612b2b565b9050818111156114c15750805b60006011546010546114d39190612b2b565b9050808211156114e1578091505b81156118995760025460405163300d25a560e21b81526001600160a01b039091169063c03496949061153b907f0000000000000000000000000000000000000000000000000000000000000000908c908790600401612b5f565b600060405180830381600087803b15801561155557600080fd5b505af1158015611569573d6000803e3d6000fd5b50506002546040516370a0823160e01b8152600093506001600160a01b037f0000000000000000000000000000000000000000000000000000000000000000811693506370a08231926115c192911690600401612612565b602060405180830381865afa1580156115de573d6000803e3d6000fd5b505050506040513d601f19601f820116820180604052508101906116029190612af4565b60025460405163af76d4bd60e01b81529192506001600160a01b03169063af76d4bd90611635908c908790600401612b51565b600060405180830381600087803b15801561164f57600080fd5b505af1158015611663573d6000803e3d6000fd5b50506002546040516370a0823160e01b8152600093506001600160a01b037f0000000000000000000000000000000000000000000000000000000000000000811693506370a08231926116bb92911690600401612612565b602060405180830381865afa1580156116d8573d6000803e3d6000fd5b505050506040513d601f19601f820116820180604052508101906116fc9190612af4565b60025460405163300d25a560e21b81529192506001600160a01b03169063c034969490611752907f0000000000000000000000000000000000000000000000000000000000000000908e90600090600401612b9c565b600060405180830381600087803b15801561176c57600080fd5b505af1158015611780573d6000803e3d6000fd5b5050505080826117909190612b2b565b935083601060008282546117a49190612b2b565b9250508190555083600f60008282546117bd9190612b3e565b9091555050600254601054604051634d28468560e11b81526001600160a01b0390921691639a508d0a916117f39160040161267f565b600060405180830381600087803b15801561180d57600080fd5b505af1158015611821573d6000803e3d6000fd5b5050600254600f5460405163e315cd7560e01b81526001600160a01b03909216935063e315cd7592506118569160040161267f565b600060405180830381600087803b15801561187057600080fd5b505af1158015611884573d6000803e3d6000fd5b5050505083866118949190612b3e565b965050505b5050505b6001600160a01b03851660008181526005602052604090819020600201849055517f5e2b8821ad6e0e26207e0cb4d242d07eeb1cbb1cfd853e645bdcd27cc5484f95906118ed90849086906129b2565b60405180910390a25090505b9392505050565b6001600160a01b0381166000908152600560205260408120548190810361193a57604051630631bc2160e51b815260040160405180910390fd5b600260009054906101000a90046001600160a01b03166001600160a01b031663e0bf18ad6040518163ffffffff1660e01b8152600401600060405180830381600087803b15801561198a57600080fd5b505af115801561199e573d6000803e3d6000fd5b505050506000806119ae856120a0565b9150915060006119bf8684846121dc565b60025481516040808401519051631d8325ef60e01b81529394506000936001600160a01b0390931692631d8325ef92611a02928992899291908e90600401612bc4565b6060604051808303816000875af1158015611a21573d6000803e3d6000fd5b505050506040513d601f19601f82011682018060405250810190611a459190612cc8565b9050600080600260009054906101000a90046001600160a01b03166001600160a01b0316630ceca244848689898e6040518663ffffffff1660e01b8152600401611a93959493929190612d70565b60408051808303816000875af1158015611ab1573d6000803e3d6000fd5b505050506040513d601f19601f82011682018060405250810190611ad59190612db5565b600254604051633e986eed60e01b81529294509092506001600160a01b031690633e986eed90611b0b90859085906004016129b2565b600060405180830381600087803b158015611b2557600080fd5b505af1158015611b39573d6000803e3d6000fd5b505050506001600160a01b038981166000818152600560205260408082204260018201556002908101549054888301519251637ff0007760e01b8152949560008051602061306e833981519152958d958d959390921692637ff0007792611ba292600401612de8565b602060405180830381865afa158015611bbf573d6000803e3d6000fd5b505050506040513d601f19601f82011682018060405250810190611be39190612af4565b60025460208a015160408b01516001600160a01b0390921691637ff0007791611c0b91612b3e565b60006040518363ffffffff1660e01b8152600401611c2a929190612de8565b602060405180830381865afa158015611c47573d6000803e3d6000fd5b505050506040513d601f19601f82011682018060405250810190611c6b9190612af4565b8a60200151604051611c8296959493929190612e03565b60405180910390a250939792965091945050505050565b611ca282610c86565b611cab81611f94565b610d198383612025565b6001600160a01b0382166000908152600560205260408120549003611ced57604051630631bc2160e51b815260040160405180910390fd5b6001600160a01b03821660009081526005602052604081206002015415801590611d15575081155b15611d3357604051633546382f60e21b815260040160405180910390fd5b506001600160a01b038216600090815260056020526040812060020154600f805491928392611d63908490612b2b565b92505081905550826001600160a01b031660008051602061306e833981519152600083600080600080604051611d9e96959493929190612e5d565b60405180910390a2604080516080810182526000808252602080830182815283850183815260608086018581526001600160a01b038b168652600590945295909320935184555160018401559051600283015551600390910155600a5415611e8c5760005b600a54811015611e8a576000600a8281548110611e2257611e22612eac565b6000918252602090912001546001600160a01b03908116915086168114611e775780838381518110611e5657611e56612eac565b60200260200101906001600160a01b031690816001600160a01b0316815250505b5080611e8281612ec2565b915050611e03565b505b8051611e9f90600a906020840190612572565b50836001600160a01b031660008051602061304e8339815191526001604051611ec89190612a88565b60405180910390a250505050565b6001600160a01b0382166000908152600560205260408120549003611f0e57604051630631bc2160e51b815260040160405180910390fd5b6001600160a01b038216600081815260056020526040908190206003018390555132907fb3eef2123fec1523a6bbc90aceb203000154c1a4974335fe06b544c7534d4b8990611f5e90859061267f565b60405180910390a35050565b600a8181548110611f7a57600080fd5b6000918252602090912001546001600160a01b0316905081565b611f9e813361239c565b50565b611fab8282610d88565b610d59576000828152602081815260408083206001600160a01b03851684529091529020805460ff19166001179055611fe13390565b6001600160a01b0316816001600160a01b0316837f2f8788117e7eff1d82e926ec794901d17c78024a50270940304540a733656f0d60405160405180910390a45050565b61202f8282610d88565b15610d59576000828152602081815260408083206001600160a01b0385168085529252808320805460ff1916905551339285917ff6391f5c32d9c69d2a47ea670b442974b53935d1edc7fd64eb21e047a839171b9190a45050565b600081831061209957816118f9565b5090919050565b6002546040516370a0823160e01b8152600091829182916001600160a01b03808716926370a08231926120d7921690600401612612565b602060405180830381865afa1580156120f4573d6000803e3d6000fd5b505050506040513d601f19601f820116820180604052508101906121189190612af4565b90506000846001600160a01b03166307a2d13a836040518263ffffffff1660e01b8152600401612148919061267f565b602060405180830381865afa158015612165573d6000803e3d6000fd5b505050506040513d601f19601f820116820180604052508101906121899190612af4565b6001600160a01b03861660009081526005602052604081206002015491925080828411156121c2576121bb8385612b2b565b91506121cf565b6121cc8484612b2b565b90505b9097909650945050505050565b612210604051806080016040528060008152602001600081526020016000815260200160006001600160a01b031681525090565b6040805160808101825260065481526007546020820152600854918101919091526009546001600160a01b03908116606083015260135416156123945760135460405163921f8a8f60e01b81526001600160a01b039091169063921f8a8f9061228190889088908890600401612edc565b60408051808303816000875af115801561229f573d6000803e3d6000fd5b505050506040513d601f19601f820116820180604052508101906122c39190612db5565b6020830152808252156123945760007f00000000000000000000000000000000000000000000000000000000000000006001600160a01b03166307d3277f6040518163ffffffff1660e01b81526004016040805180830381865afa15801561232f573d6000803e3d6000fd5b505050506040513d601f19601f820116820180604052508101906123539190612f0c565b6001600160a01b03166060840152905061ffff811615612392578151612710906123829061ffff841690612f3f565b61238c9190612f74565b60408301525b505b949350505050565b6123a68282610d88565b610d59576123b3816123f5565b6123be836020612407565b6040516020016123cf929190612faa565b60408051601f198184030181529082905262461bcd60e51b8252610d46916004016128b8565b6060610a7b6001600160a01b03831660145b60606000612416836002612f3f565b612421906002612b3e565b6001600160401b0381111561243857612438612c10565b6040519080825280601f01601f191660200182016040528015612462576020820181803683370190505b509050600360fc1b8160008151811061247d5761247d612eac565b60200101906001600160f81b031916908160001a905350600f60fb1b816001815181106124ac576124ac612eac565b60200101906001600160f81b031916908160001a90535060006124d0846002612f3f565b6124db906001612b3e565b90505b6001811115612553576f181899199a1a9b1b9c1cb0b131b232b360811b85600f166010811061250f5761250f612eac565b1a60f81b82828151811061252557612525612eac565b60200101906001600160f81b031916908160001a90535060049490941c9361254c81612ffc565b90506124de565b5083156118f95760405162461bcd60e51b8152600401610d4690613013565b8280548282559060005260206000209081019282156125c7579160200282015b828111156125c757825182546001600160a01b0319166001600160a01b03909116178255602090920191600190910190612592565b506125d39291506125d7565b5090565b5b808211156125d357600081556001016125d8565b6001600160a01b031690565b6000610a7b826125ec565b61260c816125f8565b82525050565b60208101610a7b8284612603565b6001600160e01b031981165b8114611f9e57600080fd5b8035610a7b81612620565b60006020828403121561265757612657600080fd5b60006123948484612637565b80151561260c565b60208101610a7b8284612663565b8061260c565b60208101610a7b8284612679565b61262c816125f8565b8035610a7b8161268d565b6000602082840312156126b6576126b6600080fd5b60006123948484612696565b8061262c565b8035610a7b816126c2565b6000602082840312156126e8576126e8600080fd5b600061239484846126c8565b60006127008383612603565b505060200190565b6000612712825190565b80845260209384019383018060005b8381101561274657815161273588826126f4565b975060208301925050600101612721565b509495945050505050565b602080825281016118f98184612708565b6000806040838503121561277857612778600080fd5b600061278485856126c8565b925050602061279585828601612696565b9150509250929050565b600080604083850312156127b5576127b5600080fd5b60006127c18585612696565b9250506020612795858286016126c8565b608081016127e08287612679565b6127ed6020830186612679565b6127fa6040830185612679565b6128076060830184612679565b95945050505050565b6000610a7b612824612821846125ec565b90565b6125ec565b6000610a7b82612810565b6000610a7b82612829565b61260c81612834565b60208101610a7b828461283f565b60005b83811015612871578181015183820152602001612859565b50506000910152565b601f01601f191690565b600061288e825190565b8084526020840193506128a5818560208601612856565b6128ae8161287a565b9093019392505050565b602080825281016118f98184612884565b608081016128d78287612679565b6128e46020830186612679565b6128f16040830185612679565b6128076060830184612603565b60008060006060848603121561291657612916600080fd5b60006129228686612696565b935050602061293386828701612696565b9250506040612944868287016126c8565b9150509250925092565b6000806000806080858703121561296757612967600080fd5b600061297387876126c8565b9450506020612984878288016126c8565b9350506040612995878288016126c8565b92505060606129a687828801612696565b91505092959194509250565b604081016129c08285612679565b6118f96020830184612679565b80151561262c565b8035610a7b816129cd565b600080604083850312156129f6576129f6600080fd5b6000612a028585612696565b9250506020612795858286016129d5565b8051610a7b8161268d565b600060208284031215612a3357612a33600080fd5b60006123948484612a13565b634e487b7160e01b600052602160045260246000fd5b60028110611f9e57611f9e612a3f565b80612a6f81612a55565b919050565b6000610a7b82612a65565b61260c81612a74565b60208101610a7b8284612a7f565b60208082528101610a7b81602f81527f416363657373436f6e74726f6c3a2063616e206f6e6c792072656e6f756e636560208201526e103937b632b9903337b91039b2b63360891b604082015260600190565b8051610a7b816126c2565b600060208284031215612b0957612b09600080fd5b60006123948484612ae9565b634e487b7160e01b600052601160045260246000fd5b81810381811115610a7b57610a7b612b15565b80820180821115610a7b57610a7b612b15565b604081016129c08285612603565b60608101612b6d8286612603565b612b7a6020830185612603565b6123946040830184612679565b6000610a7b6128218381565b61260c81612b87565b60608101612baa8286612603565b612bb76020830185612603565b6123946040830184612b93565b60a08101612bd28288612679565b612bdf6020830187612679565b612bec6040830186612679565b612bf96060830185612679565b612c066080830184612603565b9695505050505050565b634e487b7160e01b600052604160045260246000fd5b612c2f8261287a565b81018181106001600160401b0382111715612c4c57612c4c612c10565b6040525050565b6000612c5e60405190565b9050612a6f8282612c26565b600060608284031215612c7f57612c7f600080fd5b612c896060612c53565b90506000612c978484612ae9565b8252506020612ca884848301612ae9565b6020830152506040612cbc84828501612ae9565b60408301525092915050565b600060608284031215612cdd57612cdd600080fd5b60006123948484612c6a565b80516060830190612cfa8482612679565b506020820151612d0d6020850182612679565b506040820151612d206040850182612679565b50505050565b80516080830190612d378482612679565b506020820151612d4a6020850182612679565b506040820151612d5d6040850182612679565b506060820151612d206060850182612603565b6101408101612d7f8288612ce9565b612d8c6060830187612d26565b612d9960e0830186612679565b612da7610100830185612679565b612c06610120830184612603565b60008060408385031215612dcb57612dcb600080fd5b6000612dd78585612ae9565b925050602061279585828601612ae9565b60408101612df68285612679565b6118f96020830184612a7f565b60c08101612e118289612679565b612e1e6020830188612679565b612e2b6040830187612679565b612e386060830186612679565b612e456080830185612679565b612e5260a0830184612679565b979650505050505050565b60c08101612e6b8289612b93565b612e786020830188612679565b612e856040830187612b93565b612e926060830186612b93565b612e9f6080830185612b93565b612e5260a0830184612b93565b634e487b7160e01b600052603260045260246000fd5b60006000198203612ed557612ed5612b15565b5060010190565b60608101612eea8286612603565b612b7a6020830185612679565b61ffff811661262c565b8051610a7b81612ef7565b60008060408385031215612f2257612f22600080fd5b6000612f2e8585612f01565b925050602061279585828601612a13565b6000816000190483118215151615612f5957612f59612b15565b500290565b634e487b7160e01b600052601260045260246000fd5b600082612f8357612f83612f5e565b500490565b6000612f92825190565b612fa0818560208601612856565b9290920192915050565b76020b1b1b2b9b9a1b7b73a3937b61d1030b1b1b7bab73a1604d1b81526017016000612fd68285612f88565b7001034b99036b4b9b9b4b733903937b6329607d1b815260110191506123948284612f88565b60008161300b5761300b612b15565b506000190190565b60208082528181019081527f537472696e67733a20686578206c656e67746820696e73756666696369656e74604083015260608201610a7b56febcf55f13710eed7eda89416c2984da5475fcff67e96fe85e56eed808559a52227f2ad1d3ba35276f35ef140f83e3e0f17b23064fd710113d3f7a5ab30d267811a2646970667358221220fac5fc3ed2f80c8f7aa204516bd9063b671f6ac9bc4bf8176f6a90e65045d66c64736f6c63430008100033",
  "devdoc": {
    "kind": "dev",
    "methods": {
      "getRoleAdmin(bytes32)": {
        "details": "Returns the admin role that controls `role`. See {grantRole} and {revokeRole}. To change a role's admin, use {_setRoleAdmin}."
      },
      "grantRole(bytes32,address)": {
        "details": "Grants `role` to `account`. If `account` had not been already granted `role`, emits a {RoleGranted} event. Requirements: - the caller must have ``role``'s admin role. May emit a {RoleGranted} event."
      },
      "hasRole(bytes32,address)": {
        "details": "Returns `true` if `account` has been granted `role`."
      },
      "renounceRole(bytes32,address)": {
        "details": "Revokes `role` from the calling account. Roles are often managed via {grantRole} and {revokeRole}: this function's purpose is to provide a mechanism for accounts to lose their privileges if they are compromised (such as when a trusted device is misplaced). If the calling account had been revoked `role`, emits a {RoleRevoked} event. Requirements: - the caller must be `account`. May emit a {RoleRevoked} event."
      },
      "revokeRole(bytes32,address)": {
        "details": "Revokes `role` from `account`. If `account` had been granted `role`, emits a {RoleRevoked} event. Requirements: - the caller must have ``role``'s admin role. May emit a {RoleRevoked} event."
      },
      "supportsInterface(bytes4)": {
        "details": "See {IERC165-supportsInterface}."
      }
    },
    "title": "STRATEGY MANAGEMENT",
    "version": 1
  },
  "userdoc": {
    "kind": "user",
    "methods": {},
    "version": 1
  },
  "storageLayout": {
    "storage": [
      {
        "astId": 24,
        "contract": "contracts/StrategyManager.sol:StrategyManager",
        "label": "_roles",
        "offset": 0,
        "slot": "0",
        "type": "t_mapping(t_bytes32,t_struct(RoleData)19_storage)"
      },
      {
        "astId": 9459,
        "contract": "contracts/StrategyManager.sol:StrategyManager",
        "label": "strategyManager",
        "offset": 0,
        "slot": "1",
        "type": "t_address"
      },
      {
        "astId": 9461,
        "contract": "contracts/StrategyManager.sol:StrategyManager",
        "label": "sharesManager",
        "offset": 0,
        "slot": "2",
        "type": "t_address"
      },
      {
        "astId": 9463,
        "contract": "contracts/StrategyManager.sol:StrategyManager",
        "label": "setters",
        "offset": 0,
        "slot": "3",
        "type": "t_address"
      },
      {
        "astId": 9465,
        "contract": "contracts/StrategyManager.sol:StrategyManager",
        "label": "governance",
        "offset": 0,
        "slot": "4",
        "type": "t_address"
      },
      {
        "astId": 9470,
        "contract": "contracts/StrategyManager.sol:StrategyManager",
        "label": "strategies",
        "offset": 0,
        "slot": "5",
        "type": "t_mapping(t_address,t_struct(StrategyParams)9631_storage)"
      },
      {
        "astId": 9473,
        "contract": "contracts/StrategyManager.sol:StrategyManager",
        "label": "fees",
        "offset": 0,
        "slot": "6",
        "type": "t_struct(FeeAssessment)9640_storage"
      },
      {
        "astId": 9476,
        "contract": "contracts/StrategyManager.sol:StrategyManager",
        "label": "defaultQueue",
        "offset": 0,
        "slot": "10",
        "type": "t_array(t_address)dyn_storage"
      },
      {
        "astId": 9478,
        "contract": "contracts/StrategyManager.sol:StrategyManager",
        "label": "useDefaultQueue",
        "offset": 0,
        "slot": "11",
        "type": "t_bool"
      },
      {
        "astId": 9480,
        "contract": "contracts/StrategyManager.sol:StrategyManager",
        "label": "initialized",
        "offset": 1,
        "slot": "11",
        "type": "t_bool"
      },
      {
        "astId": 9484,
        "contract": "contracts/StrategyManager.sol:StrategyManager",
        "label": "_balanceOf",
        "offset": 0,
        "slot": "12",
        "type": "t_mapping(t_address,t_uint256)"
      },
      {
        "astId": 9490,
        "contract": "contracts/StrategyManager.sol:StrategyManager",
        "label": "_allowance",
        "offset": 0,
        "slot": "13",
        "type": "t_mapping(t_address,t_mapping(t_address,t_uint256))"
      },
      {
        "astId": 9492,
        "contract": "contracts/StrategyManager.sol:StrategyManager",
        "label": "totalSupplyAmount",
        "offset": 0,
        "slot": "14",
        "type": "t_uint256"
      },
      {
        "astId": 9494,
        "contract": "contracts/StrategyManager.sol:StrategyManager",
        "label": "totalDebtAmount",
        "offset": 0,
        "slot": "15",
        "type": "t_uint256"
      },
      {
        "astId": 9496,
        "contract": "contracts/StrategyManager.sol:StrategyManager",
        "label": "totalIdleAmount",
        "offset": 0,
        "slot": "16",
        "type": "t_uint256"
      },
      {
        "astId": 9498,
        "contract": "contracts/StrategyManager.sol:StrategyManager",
        "label": "minimumTotalIdle",
        "offset": 0,
        "slot": "17",
        "type": "t_uint256"
      },
      {
        "astId": 9500,
        "contract": "contracts/StrategyManager.sol:StrategyManager",
        "label": "depositLimit",
        "offset": 0,
        "slot": "18",
        "type": "t_uint256"
      },
      {
        "astId": 9502,
        "contract": "contracts/StrategyManager.sol:StrategyManager",
        "label": "accountant",
        "offset": 0,
        "slot": "19",
        "type": "t_address"
      },
      {
        "astId": 9504,
        "contract": "contracts/StrategyManager.sol:StrategyManager",
        "label": "depositLimitModule",
        "offset": 0,
        "slot": "20",
        "type": "t_address"
      },
      {
        "astId": 9506,
        "contract": "contracts/StrategyManager.sol:StrategyManager",
        "label": "withdrawLimitModule",
        "offset": 0,
        "slot": "21",
        "type": "t_address"
      },
      {
        "astId": 9510,
        "contract": "contracts/StrategyManager.sol:StrategyManager",
        "label": "roles",
        "offset": 0,
        "slot": "22",
        "type": "t_mapping(t_address,t_bytes32)"
      },
      {
        "astId": 9514,
        "contract": "contracts/StrategyManager.sol:StrategyManager",
        "label": "openRoles",
        "offset": 0,
        "slot": "23",
        "type": "t_mapping(t_bytes32,t_bool)"
      },
      {
        "astId": 9516,
        "contract": "contracts/StrategyManager.sol:StrategyManager",
        "label": "roleManager",
        "offset": 0,
        "slot": "24",
        "type": "t_address"
      },
      {
        "astId": 9518,
        "contract": "contracts/StrategyManager.sol:StrategyManager",
        "label": "futureRoleManager",
        "offset": 0,
        "slot": "25",
        "type": "t_address"
      },
      {
        "astId": 9520,
        "contract": "contracts/StrategyManager.sol:StrategyManager",
        "label": "shutdown",
        "offset": 20,
        "slot": "25",
        "type": "t_bool"
      },
      {
        "astId": 9522,
        "contract": "contracts/StrategyManager.sol:StrategyManager",
        "label": "profitMaxUnlockTime",
        "offset": 0,
        "slot": "26",
        "type": "t_uint256"
      },
      {
        "astId": 9524,
        "contract": "contracts/StrategyManager.sol:StrategyManager",
        "label": "fullProfitUnlockDate",
        "offset": 0,
        "slot": "27",
        "type": "t_uint256"
      },
      {
        "astId": 9526,
        "contract": "contracts/StrategyManager.sol:StrategyManager",
        "label": "profitUnlockingRate",
        "offset": 0,
        "slot": "28",
        "type": "t_uint256"
      },
      {
        "astId": 9528,
        "contract": "contracts/StrategyManager.sol:StrategyManager",
        "label": "lastProfitUpdate",
        "offset": 0,
        "slot": "29",
        "type": "t_uint256"
      },
      {
        "astId": 9532,
        "contract": "contracts/StrategyManager.sol:StrategyManager",
        "label": "nonces",
        "offset": 0,
        "slot": "30",
        "type": "t_mapping(t_address,t_uint256)"
      },
      {
        "astId": 9539,
        "contract": "contracts/StrategyManager.sol:StrategyManager",
        "label": "DOMAIN_SEPARATOR",
        "offset": 0,
        "slot": "31",
        "type": "t_bytes32"
      }
    ],
    "types": {
      "t_address": {
        "encoding": "inplace",
        "label": "address",
        "numberOfBytes": "20"
      },
      "t_array(t_address)dyn_storage": {
        "base": "t_address",
        "encoding": "dynamic_array",
        "label": "address[]",
        "numberOfBytes": "32"
      },
      "t_bool": {
        "encoding": "inplace",
        "label": "bool",
        "numberOfBytes": "1"
      },
      "t_bytes32": {
        "encoding": "inplace",
        "label": "bytes32",
        "numberOfBytes": "32"
      },
      "t_mapping(t_address,t_bool)": {
        "encoding": "mapping",
        "key": "t_address",
        "label": "mapping(address => bool)",
        "numberOfBytes": "32",
        "value": "t_bool"
      },
      "t_mapping(t_address,t_bytes32)": {
        "encoding": "mapping",
        "key": "t_address",
        "label": "mapping(address => bytes32)",
        "numberOfBytes": "32",
        "value": "t_bytes32"
      },
      "t_mapping(t_address,t_mapping(t_address,t_uint256))": {
        "encoding": "mapping",
        "key": "t_address",
        "label": "mapping(address => mapping(address => uint256))",
        "numberOfBytes": "32",
        "value": "t_mapping(t_address,t_uint256)"
      },
      "t_mapping(t_address,t_struct(StrategyParams)9631_storage)": {
        "encoding": "mapping",
        "key": "t_address",
        "label": "mapping(address => struct StrategyParams)",
        "numberOfBytes": "32",
        "value": "t_struct(StrategyParams)9631_storage"
      },
      "t_mapping(t_address,t_uint256)": {
        "encoding": "mapping",
        "key": "t_address",
        "label": "mapping(address => uint256)",
        "numberOfBytes": "32",
        "value": "t_uint256"
      },
      "t_mapping(t_bytes32,t_bool)": {
        "encoding": "mapping",
        "key": "t_bytes32",
        "label": "mapping(bytes32 => bool)",
        "numberOfBytes": "32",
        "value": "t_bool"
      },
      "t_mapping(t_bytes32,t_struct(RoleData)19_storage)": {
        "encoding": "mapping",
        "key": "t_bytes32",
        "label": "mapping(bytes32 => struct AccessControl.RoleData)",
        "numberOfBytes": "32",
        "value": "t_struct(RoleData)19_storage"
      },
      "t_struct(FeeAssessment)9640_storage": {
        "encoding": "inplace",
        "label": "struct FeeAssessment",
        "members": [
          {
            "astId": 9633,
            "contract": "contracts/StrategyManager.sol:StrategyManager",
            "label": "totalFees",
            "offset": 0,
            "slot": "0",
            "type": "t_uint256"
          },
          {
            "astId": 9635,
            "contract": "contracts/StrategyManager.sol:StrategyManager",
            "label": "totalRefunds",
            "offset": 0,
            "slot": "1",
            "type": "t_uint256"
          },
          {
            "astId": 9637,
            "contract": "contracts/StrategyManager.sol:StrategyManager",
            "label": "protocolFees",
            "offset": 0,
            "slot": "2",
            "type": "t_uint256"
          },
          {
            "astId": 9639,
            "contract": "contracts/StrategyManager.sol:StrategyManager",
            "label": "protocolFeeRecipient",
            "offset": 0,
            "slot": "3",
            "type": "t_address"
          }
        ],
        "numberOfBytes": "128"
      },
      "t_struct(RoleData)19_storage": {
        "encoding": "inplace",
        "label": "struct AccessControl.RoleData",
        "members": [
          {
            "astId": 16,
            "contract": "contracts/StrategyManager.sol:StrategyManager",
            "label": "members",
            "offset": 0,
            "slot": "0",
            "type": "t_mapping(t_address,t_bool)"
          },
          {
            "astId": 18,
            "contract": "contracts/StrategyManager.sol:StrategyManager",
            "label": "adminRole",
            "offset": 0,
            "slot": "1",
            "type": "t_bytes32"
          }
        ],
        "numberOfBytes": "64"
      },
      "t_struct(StrategyParams)9631_storage": {
        "encoding": "inplace",
        "label": "struct StrategyParams",
        "members": [
          {
            "astId": 9624,
            "contract": "contracts/StrategyManager.sol:StrategyManager",
            "label": "activation",
            "offset": 0,
            "slot": "0",
            "type": "t_uint256"
          },
          {
            "astId": 9626,
            "contract": "contracts/StrategyManager.sol:StrategyManager",
            "label": "lastReport",
            "offset": 0,
            "slot": "1",
            "type": "t_uint256"
          },
          {
            "astId": 9628,
            "contract": "contracts/StrategyManager.sol:StrategyManager",
            "label": "currentDebt",
            "offset": 0,
            "slot": "2",
            "type": "t_uint256"
          },
          {
            "astId": 9630,
            "contract": "contracts/StrategyManager.sol:StrategyManager",
            "label": "maxDebt",
            "offset": 0,
            "slot": "3",
            "type": "t_uint256"
          }
        ],
        "numberOfBytes": "128"
      },
      "t_uint256": {
        "encoding": "inplace",
        "label": "uint256",
        "numberOfBytes": "32"
      }
    }
  }
}