{
  "address": "0xEAf81a05C7bf87ba57A5265ff5aF6F37958118Da",
  "abi": [
    {
      "inputs": [
        {
          "internalType": "address",
          "name": "_asset",
          "type": "address"
        }
      ],
      "stateMutability": "nonpayable",
      "type": "constructor"
    },
    {
      "inputs": [],
      "name": "InactiveStrategy",
      "type": "error"
    },
    {
      "inputs": [],
      "name": "InvalidAsset",
      "type": "error"
    },
    {
      "inputs": [],
      "name": "StrategyAlreadyActive",
      "type": "error"
    },
    {
      "inputs": [],
      "name": "StrategyHasDebt",
      "type": "error"
    },
    {
      "inputs": [],
      "name": "ZeroAddress",
      "type": "error"
    },
    {
      "anonymous": false,
      "inputs": [
        {
          "indexed": true,
          "internalType": "address",
          "name": "strategy",
          "type": "address"
        },
        {
          "indexed": false,
          "internalType": "uint256",
          "name": "amount",
          "type": "uint256"
        }
      ],
      "name": "DebtPurchased",
      "type": "event"
    },
    {
      "anonymous": false,
      "inputs": [
        {
          "indexed": true,
          "internalType": "address",
          "name": "strategy",
          "type": "address"
        },
        {
          "indexed": false,
          "internalType": "uint256",
          "name": "currentDebt",
          "type": "uint256"
        },
        {
          "indexed": false,
          "internalType": "uint256",
          "name": "newDebt",
          "type": "uint256"
        }
      ],
      "name": "DebtUpdated",
      "type": "event"
    },
    {
      "anonymous": false,
      "inputs": [
        {
          "indexed": true,
          "internalType": "address",
          "name": "account",
          "type": "address"
        },
        {
          "indexed": false,
          "internalType": "bytes32",
          "name": "role",
          "type": "bytes32"
        }
      ],
      "name": "RoleSet",
      "type": "event"
    },
    {
      "anonymous": false,
      "inputs": [
        {
          "indexed": true,
          "internalType": "bytes32",
          "name": "role",
          "type": "bytes32"
        },
        {
          "indexed": true,
          "internalType": "enum RoleStatusChange",
          "name": "status",
          "type": "uint8"
        }
      ],
      "name": "RoleStatusChanged",
      "type": "event"
    },
    {
      "anonymous": false,
      "inputs": [],
      "name": "Shutdown",
      "type": "event"
    },
    {
      "anonymous": false,
      "inputs": [
        {
          "indexed": true,
          "internalType": "address",
          "name": "strategy",
          "type": "address"
        },
        {
          "indexed": false,
          "internalType": "enum StrategyChangeType",
          "name": "changeType",
          "type": "uint8"
        }
      ],
      "name": "StrategyChanged",
      "type": "event"
    },
    {
      "anonymous": false,
      "inputs": [
        {
          "indexed": true,
          "internalType": "address",
          "name": "strategy",
          "type": "address"
        },
        {
          "indexed": false,
          "internalType": "uint256",
          "name": "gain",
          "type": "uint256"
        },
        {
          "indexed": false,
          "internalType": "uint256",
          "name": "loss",
          "type": "uint256"
        },
        {
          "indexed": false,
          "internalType": "uint256",
          "name": "currentDebt",
          "type": "uint256"
        },
        {
          "indexed": false,
          "internalType": "uint256",
          "name": "protocolFees",
          "type": "uint256"
        },
        {
          "indexed": false,
          "internalType": "uint256",
          "name": "totalFees",
          "type": "uint256"
        },
        {
          "indexed": false,
          "internalType": "uint256",
          "name": "totalRefunds",
          "type": "uint256"
        }
      ],
      "name": "StrategyReported",
      "type": "event"
    },
    {
      "anonymous": false,
      "inputs": [
        {
          "indexed": true,
          "internalType": "address",
          "name": "accountant",
          "type": "address"
        }
      ],
      "name": "UpdateAccountant",
      "type": "event"
    },
    {
      "anonymous": false,
      "inputs": [
        {
          "indexed": false,
          "internalType": "address[]",
          "name": "newDefaultQueue",
          "type": "address[]"
        }
      ],
      "name": "UpdateDefaultQueue",
      "type": "event"
    },
    {
      "anonymous": false,
      "inputs": [
        {
          "indexed": false,
          "internalType": "uint256",
          "name": "depositLimit",
          "type": "uint256"
        }
      ],
      "name": "UpdateDepositLimit",
      "type": "event"
    },
    {
      "anonymous": false,
      "inputs": [
        {
          "indexed": true,
          "internalType": "address",
          "name": "depositLimitModule",
          "type": "address"
        }
      ],
      "name": "UpdateDepositLimitModule",
      "type": "event"
    },
    {
      "anonymous": false,
      "inputs": [
        {
          "indexed": false,
          "internalType": "uint256",
          "name": "minimumTotalIdle",
          "type": "uint256"
        }
      ],
      "name": "UpdateMinimumTotalIdle",
      "type": "event"
    },
    {
      "anonymous": false,
      "inputs": [
        {
          "indexed": false,
          "internalType": "uint256",
          "name": "profitMaxUnlockTime",
          "type": "uint256"
        }
      ],
      "name": "UpdateProfitMaxUnlockTime",
      "type": "event"
    },
    {
      "anonymous": false,
      "inputs": [
        {
          "indexed": true,
          "internalType": "address",
          "name": "roleManager",
          "type": "address"
        }
      ],
      "name": "UpdateRoleManager",
      "type": "event"
    },
    {
      "anonymous": false,
      "inputs": [
        {
          "indexed": false,
          "internalType": "bool",
          "name": "useDefaultQueue",
          "type": "bool"
        }
      ],
      "name": "UpdateUseDefaultQueue",
      "type": "event"
    },
    {
      "anonymous": false,
      "inputs": [
        {
          "indexed": true,
          "internalType": "address",
          "name": "withdrawLimitModule",
          "type": "address"
        }
      ],
      "name": "UpdateWithdrawLimitModule",
      "type": "event"
    },
    {
      "anonymous": false,
      "inputs": [
        {
          "indexed": true,
          "internalType": "address",
          "name": "sender",
          "type": "address"
        },
        {
          "indexed": true,
          "internalType": "address",
          "name": "strategy",
          "type": "address"
        },
        {
          "indexed": false,
          "internalType": "uint256",
          "name": "newDebt",
          "type": "uint256"
        }
      ],
      "name": "UpdatedMaxDebtForStrategy",
      "type": "event"
    },
    {
      "inputs": [],
      "name": "ACCOUNTANT_MANAGER",
      "outputs": [
        {
          "internalType": "bytes32",
          "name": "",
          "type": "bytes32"
        }
      ],
      "stateMutability": "view",
      "type": "function"
    },
    {
      "inputs": [],
      "name": "ADD_STRATEGY_MANAGER",
      "outputs": [
        {
          "internalType": "bytes32",
          "name": "",
          "type": "bytes32"
        }
      ],
      "stateMutability": "view",
      "type": "function"
    },
    {
      "inputs": [],
      "name": "API_VERSION",
      "outputs": [
        {
          "internalType": "string",
          "name": "",
          "type": "string"
        }
      ],
      "stateMutability": "view",
      "type": "function"
    },
    {
      "inputs": [],
      "name": "ASSET",
      "outputs": [
        {
          "internalType": "contract IERC20",
          "name": "",
          "type": "address"
        }
      ],
      "stateMutability": "view",
      "type": "function"
    },
    {
      "inputs": [],
      "name": "DEBT_MANAGER",
      "outputs": [
        {
          "internalType": "bytes32",
          "name": "",
          "type": "bytes32"
        }
      ],
      "stateMutability": "view",
      "type": "function"
    },
    {
      "inputs": [],
      "name": "DEBT_PURCHASER",
      "outputs": [
        {
          "internalType": "bytes32",
          "name": "",
          "type": "bytes32"
        }
      ],
      "stateMutability": "view",
      "type": "function"
    },
    {
      "inputs": [],
      "name": "DEPOSIT_LIMIT_MANAGER",
      "outputs": [
        {
          "internalType": "bytes32",
          "name": "",
          "type": "bytes32"
        }
      ],
      "stateMutability": "view",
      "type": "function"
    },
    {
      "inputs": [],
      "name": "DOMAIN_SEPARATOR",
      "outputs": [
        {
          "internalType": "bytes32",
          "name": "",
          "type": "bytes32"
        }
      ],
      "stateMutability": "view",
      "type": "function"
    },
    {
      "inputs": [],
      "name": "DOMAIN_TYPE_HASH",
      "outputs": [
        {
          "internalType": "bytes32",
          "name": "",
          "type": "bytes32"
        }
      ],
      "stateMutability": "view",
      "type": "function"
    },
    {
      "inputs": [],
      "name": "EMERGENCY_MANAGER",
      "outputs": [
        {
          "internalType": "bytes32",
          "name": "",
          "type": "bytes32"
        }
      ],
      "stateMutability": "view",
      "type": "function"
    },
    {
      "inputs": [],
      "name": "FORCE_REVOKE_MANAGER",
      "outputs": [
        {
          "internalType": "bytes32",
          "name": "",
          "type": "bytes32"
        }
      ],
      "stateMutability": "view",
      "type": "function"
    },
    {
      "inputs": [],
      "name": "MAX_BPS",
      "outputs": [
        {
          "internalType": "uint256",
          "name": "",
          "type": "uint256"
        }
      ],
      "stateMutability": "view",
      "type": "function"
    },
    {
      "inputs": [],
      "name": "MAX_BPS_EXTENDED",
      "outputs": [
        {
          "internalType": "uint256",
          "name": "",
          "type": "uint256"
        }
      ],
      "stateMutability": "view",
      "type": "function"
    },
    {
      "inputs": [],
      "name": "MAX_DEBT_MANAGER",
      "outputs": [
        {
          "internalType": "bytes32",
          "name": "",
          "type": "bytes32"
        }
      ],
      "stateMutability": "view",
      "type": "function"
    },
    {
      "inputs": [],
      "name": "MAX_QUEUE",
      "outputs": [
        {
          "internalType": "uint256",
          "name": "",
          "type": "uint256"
        }
      ],
      "stateMutability": "view",
      "type": "function"
    },
    {
      "inputs": [],
      "name": "MINIMUM_IDLE_MANAGER",
      "outputs": [
        {
          "internalType": "bytes32",
          "name": "",
          "type": "bytes32"
        }
      ],
      "stateMutability": "view",
      "type": "function"
    },
    {
      "inputs": [],
      "name": "PERMIT_TYPE_HASH",
      "outputs": [
        {
          "internalType": "bytes32",
          "name": "",
          "type": "bytes32"
        }
      ],
      "stateMutability": "view",
      "type": "function"
    },
    {
      "inputs": [],
      "name": "PROFIT_UNLOCK_MANAGER",
      "outputs": [
        {
          "internalType": "bytes32",
          "name": "",
          "type": "bytes32"
        }
      ],
      "stateMutability": "view",
      "type": "function"
    },
    {
      "inputs": [],
      "name": "QUEUE_MANAGER",
      "outputs": [
        {
          "internalType": "bytes32",
          "name": "",
          "type": "bytes32"
        }
      ],
      "stateMutability": "view",
      "type": "function"
    },
    {
      "inputs": [],
      "name": "REPORTING_MANAGER",
      "outputs": [
        {
          "internalType": "bytes32",
          "name": "",
          "type": "bytes32"
        }
      ],
      "stateMutability": "view",
      "type": "function"
    },
    {
      "inputs": [],
      "name": "REVOKE_STRATEGY_MANAGER",
      "outputs": [
        {
          "internalType": "bytes32",
          "name": "",
          "type": "bytes32"
        }
      ],
      "stateMutability": "view",
      "type": "function"
    },
    {
      "inputs": [],
      "name": "ROLE_MANAGER",
      "outputs": [
        {
          "internalType": "bytes32",
          "name": "",
          "type": "bytes32"
        }
      ],
      "stateMutability": "view",
      "type": "function"
    },
    {
      "inputs": [],
      "name": "WITHDRAW_LIMIT_MANAGER",
      "outputs": [
        {
          "internalType": "bytes32",
          "name": "",
          "type": "bytes32"
        }
      ],
      "stateMutability": "view",
      "type": "function"
    },
    {
      "inputs": [],
      "name": "accountant",
      "outputs": [
        {
          "internalType": "address",
          "name": "",
          "type": "address"
        }
      ],
      "stateMutability": "view",
      "type": "function"
    },
    {
      "inputs": [
        {
          "internalType": "address",
          "name": "newStrategy",
          "type": "address"
        }
      ],
      "name": "addStrategy",
      "outputs": [],
      "stateMutability": "nonpayable",
      "type": "function"
    },
    {
      "inputs": [
        {
          "internalType": "uint256",
          "name": "",
          "type": "uint256"
        }
      ],
      "name": "defaultQueue",
      "outputs": [
        {
          "internalType": "address",
          "name": "",
          "type": "address"
        }
      ],
      "stateMutability": "view",
      "type": "function"
    },
    {
      "inputs": [],
      "name": "depositLimit",
      "outputs": [
        {
          "internalType": "uint256",
          "name": "",
          "type": "uint256"
        }
      ],
      "stateMutability": "view",
      "type": "function"
    },
    {
      "inputs": [],
      "name": "depositLimitModule",
      "outputs": [
        {
          "internalType": "address",
          "name": "",
          "type": "address"
        }
      ],
      "stateMutability": "view",
      "type": "function"
    },
    {
      "inputs": [],
      "name": "fullProfitUnlockDate",
      "outputs": [
        {
          "internalType": "uint256",
          "name": "",
          "type": "uint256"
        }
      ],
      "stateMutability": "view",
      "type": "function"
    },
    {
      "inputs": [],
      "name": "futureRoleManager",
      "outputs": [
        {
          "internalType": "address",
          "name": "",
          "type": "address"
        }
      ],
      "stateMutability": "view",
      "type": "function"
    },
    {
      "inputs": [],
      "name": "lastProfitUpdate",
      "outputs": [
        {
          "internalType": "uint256",
          "name": "",
          "type": "uint256"
        }
      ],
      "stateMutability": "view",
      "type": "function"
    },
    {
      "inputs": [],
      "name": "minimumTotalIdle",
      "outputs": [
        {
          "internalType": "uint256",
          "name": "",
          "type": "uint256"
        }
      ],
      "stateMutability": "view",
      "type": "function"
    },
    {
      "inputs": [
        {
          "internalType": "address",
          "name": "",
          "type": "address"
        }
      ],
      "name": "nonces",
      "outputs": [
        {
          "internalType": "uint256",
          "name": "",
          "type": "uint256"
        }
      ],
      "stateMutability": "view",
      "type": "function"
    },
    {
      "inputs": [
        {
          "internalType": "bytes32",
          "name": "",
          "type": "bytes32"
        }
      ],
      "name": "openRoles",
      "outputs": [
        {
          "internalType": "bool",
          "name": "",
          "type": "bool"
        }
      ],
      "stateMutability": "view",
      "type": "function"
    },
    {
      "inputs": [],
      "name": "profitMaxUnlockTime",
      "outputs": [
        {
          "internalType": "uint256",
          "name": "",
          "type": "uint256"
        }
      ],
      "stateMutability": "view",
      "type": "function"
    },
    {
      "inputs": [],
      "name": "profitUnlockingRate",
      "outputs": [
        {
          "internalType": "uint256",
          "name": "",
          "type": "uint256"
        }
      ],
      "stateMutability": "view",
      "type": "function"
    },
    {
      "inputs": [
        {
          "internalType": "address",
          "name": "strategy",
          "type": "address"
        },
        {
          "internalType": "bool",
          "name": "force",
          "type": "bool"
        }
      ],
      "name": "revokeStrategy",
      "outputs": [],
      "stateMutability": "nonpayable",
      "type": "function"
    },
    {
      "inputs": [],
      "name": "roleManager",
      "outputs": [
        {
          "internalType": "address",
          "name": "",
          "type": "address"
        }
      ],
      "stateMutability": "view",
      "type": "function"
    },
    {
      "inputs": [
        {
          "internalType": "address",
          "name": "",
          "type": "address"
        }
      ],
      "name": "roles",
      "outputs": [
        {
          "internalType": "bytes32",
          "name": "",
          "type": "bytes32"
        }
      ],
      "stateMutability": "view",
      "type": "function"
    },
    {
      "inputs": [],
      "name": "sharesManager",
      "outputs": [
        {
          "internalType": "address",
          "name": "",
          "type": "address"
        }
      ],
      "stateMutability": "view",
      "type": "function"
    },
    {
      "inputs": [],
      "name": "shutdown",
      "outputs": [
        {
          "internalType": "bool",
          "name": "",
          "type": "bool"
        }
      ],
      "stateMutability": "view",
      "type": "function"
    },
    {
      "inputs": [
        {
          "internalType": "address",
          "name": "",
          "type": "address"
        }
      ],
      "name": "strategies",
      "outputs": [
        {
          "internalType": "uint256",
          "name": "activation",
          "type": "uint256"
        },
        {
          "internalType": "uint256",
          "name": "lastReport",
          "type": "uint256"
        },
        {
          "internalType": "uint256",
          "name": "currentDebt",
          "type": "uint256"
        },
        {
          "internalType": "uint256",
          "name": "maxDebt",
          "type": "uint256"
        }
      ],
      "stateMutability": "view",
      "type": "function"
    },
    {
      "inputs": [],
      "name": "strategyManager",
      "outputs": [
        {
          "internalType": "address",
          "name": "",
          "type": "address"
        }
      ],
      "stateMutability": "view",
      "type": "function"
    },
    {
      "inputs": [],
      "name": "totalDebtAmount",
      "outputs": [
        {
          "internalType": "uint256",
          "name": "",
          "type": "uint256"
        }
      ],
      "stateMutability": "view",
      "type": "function"
    },
    {
      "inputs": [],
      "name": "totalIdleAmount",
      "outputs": [
        {
          "internalType": "uint256",
          "name": "",
          "type": "uint256"
        }
      ],
      "stateMutability": "view",
      "type": "function"
    },
    {
      "inputs": [],
      "name": "totalSupplyAmount",
      "outputs": [
        {
          "internalType": "uint256",
          "name": "",
          "type": "uint256"
        }
      ],
      "stateMutability": "view",
      "type": "function"
    },
    {
      "inputs": [],
      "name": "useDefaultQueue",
      "outputs": [
        {
          "internalType": "bool",
          "name": "",
          "type": "bool"
        }
      ],
      "stateMutability": "view",
      "type": "function"
    },
    {
      "inputs": [],
      "name": "withdrawLimitModule",
      "outputs": [
        {
          "internalType": "address",
          "name": "",
          "type": "address"
        }
      ],
      "stateMutability": "view",
      "type": "function"
    }
  ],
  "transactionHash": "0x4de4dc05877a8a4e4e2b57e42c6eb2a9ceecf21a1ce58e6e00e530ef384e5617",
  "args": [
    "0xDf29cB40Cb92a1b8E8337F542E3846E185DefF96"
  ],
  "numDeployments": 1,
  "solcInputHash": "6f1daa483f5b5335201a879bb8254b75",
  "bytecode": "0x60a060405234801561001057600080fd5b506040516110c03803806110c083398101604081905261002f91610075565b6001600160a01b031660805261009e565b60006001600160a01b0382165b92915050565b61005c81610040565b811461006757600080fd5b50565b805161004d81610053565b60006020828403121561008a5761008a600080fd5b6000610096848461006a565b949350505050565b6080516110006100c06000396000818161036d01526107a001526110006000f3fe608060405234801561001057600080fd5b506004361061022f5760003560e01c8062435da51461023457806303dcd12c1461025d5780630835a3fc146102915780630952864e1461029a5780630ad283d0146102a3578063223e5479146102ca5780632d632692146102df5780633644e515146102e857806336fba084146102f157806339b70e38146102fd57806339ebf823146103105780633cd7b5ab146103575780633f7b5e40146103605780634800d97f146103685780634ce1d38a1461039c5780634cfe51dc146103c35780634d4bb197146103ea5780634fb3ccc5146104115780635141eebb1461042457806353a661321461042d5780635bf6b4fb1461045d578063652da3241461048457806377e3b267146104ab5780637ecebe00146104dc5780638afca8f0146104fc578063919860031461050557806399374642146105185780639e34e348146105385780639f3988f31461054b578063a98222c414610572578063ab5b4d4914610599578063acded97d146105c0578063b3c187f2146105d3578063bbe4eb49146105e6578063c065ca07146105f3578063c0993eea1461061a578063c8d74b6014610641578063c8dffa9514610668578063d4ae064f14610671578063ecf7085814610698578063f1daeba8146106a1578063f42c77ae146106c8578063f5b944eb146106db578063f828f50b14610702578063fc0e74d11461070b578063fd967f471461071f578063fec61f0614610728578063ff1e7f081461074f575b600080fd5b601154610247906001600160a01b031681565b6040516102549190610c68565b60405180910390f35b6102847f633076a97f32ae349b28772e7b1483f67a926f150cbc501d02bdbd77389325ab81565b6040516102549190610c7c565b610284600a5481565b61028460135481565b6102847fc723f4dd6268e1c374639e36d629c765285ee7003913389d582c300f186dde9781565b6102dd6102d8366004610cac565b610762565b005b61028460145481565b61028460185481565b61028464e8d4a5100081565b600054610247906001600160a01b031681565b61034761031e366004610cac565b600260208190526000918252604090912080546001820154928201546003909201549092919084565b6040516102549493929190610cd5565b61028460095481565b610284600a81565b61038f7f000000000000000000000000000000000000000000000000000000000000000081565b6040516102549190610d4b565b6102847f69d1171ac0a63777a6733cda21aec9ed3d48a4fd11f273c934a691dec5e5589c81565b6102847f862f91c9d89d6135b19873b921c90b702cb2e175c371b8430026b9577e69111981565b6102847f6e71edae12b1b97f4d1f60370fef10105fa2faae0126114a169c64845d6126c981565b600c54610247906001600160a01b031681565b61028460155481565b61045061043b366004610d6a565b60106020526000908152604090205460ff1681565b6040516102549190610d93565b6102847fea672c1c09cd95c51af9509f646f3615ff0071aae8652bd821471ee9037fd72c81565b6102847fcd9f023a942ee35097ead74b2505bea9f2c5d47465db92dd195cf7f01a41cfe181565b6104cf604051806040016040528060058152602001640312e302e360dc1b81525081565b6040516102549190610df7565b6102846104ea366004610cac565b60176020526000908152604090205481565b61028460165481565b600e54610247906001600160a01b031681565b610284610526366004610cac565b600f6020526000908152604090205481565b600d54610247906001600160a01b031681565b6102847f6f430d649a8640e48ff9bfbc353b3f99ed630163857821b3b4075e3871dafbf581565b6102847f2f0dbbe8c2c0170206c50ec0cafa1c0dbd03e73e67c2a960178df30a0a30ee2e81565b6102847f900d80def0427daac599092fcb16b21808ec68dd9a2e1eae89d1e8db2135737581565b600154610247906001600160a01b031681565b601254610247906001600160a01b031681565b6004546104509060ff1681565b6102847f2a0e761830cc61f2707ea7bb138008bf9dda7f7d34c77736d0a116604e95ea1681565b6102847f8b73c3c69bb8fe3d512ecc4cf759cc79239f7b179b0ffacaa9a75d522b39400f81565b6102847f152ebba56b9738ee3d8baea1b76fa31dcdcd79b1929bfea7d58ee12cfdf1a65381565b61028460085481565b6102847fa18eaea71a088b547b8c932b48861853b3434d9a3240b94466c607e28b69659581565b610284600b5481565b6102847f7cbb3cdf689b8ea3e9d265f66bc4e0a99069268217017d38d2a5a559abc6271981565b6102dd6106d6366004610e22565b610966565b6102847ff206625bad3d9112d5609b8d356e6fbd514cd1f69980d4ce2b3e6e68e1789ace81565b61028460075481565b60125461045090600160a01b900460ff1681565b61028461271081565b6102847fd45f7ccff42f059d4e47c3f027c444272257266f7e88b981e142f0aa38fbfd7881565b61024761075d366004610d6a565b610b98565b6001600160a01b038116158061078057506001600160a01b03811630145b1561079e5760405163d92e233d60e01b815260040160405180910390fd5b7f00000000000000000000000000000000000000000000000000000000000000006001600160a01b0316816001600160a01b03166338d52e0f6040518163ffffffff1660e01b8152600401602060405180830381865afa158015610806573d6000803e3d6000fd5b505050506040513d601f19601f8201168201806040525081019061082a9190610e6a565b6001600160a01b03161461085157604051636448d6e960e11b815260040160405180910390fd5b6001600160a01b038116600090815260026020526040902054156108885760405163c976754d60e01b815260040160405180910390fd5b604080516080810182524280825260208083019182526000838501818152606085018281526001600160a01b0388168352600293849052959091209351845591516001840155905190820155905160039182015554600a81101561093257600380546001810182556000919091527fc2575a0e9e593c00f959f8c92f12db2869c3395a3b0502d05e2516446f71f85b0180546001600160a01b0319166001600160a01b0384161790555b816001600160a01b0316600080516020610fab833981519152600060405161095a9190610ed4565b60405180910390a25050565b6001600160a01b038216600090815260026020526040812054900361099e57604051630631bc2160e51b815260040160405180910390fd5b6001600160a01b038216600090815260026020819052604082200154158015906109c6575081155b156109e457604051633546382f60e21b815260040160405180910390fd5b506001600160a01b0382166000908152600260208190526040822001546008805491928392610a14908490610ef8565b92505081905550826001600160a01b03167f7f2ad1d3ba35276f35ef140f83e3e0f17b23064fd710113d3f7a5ab30d267811600083600080600080604051610a6196959493929190610f20565b60405180910390a2604080516080810182526000808252602080830182815283850183815260608086018581526001600160a01b038b168652600294859052969094209451855590516001850155519083015591516003918201555415610b4e5760005b600354811015610b4c57600060038281548110610ae457610ae4610f7a565b6000918252602090912001546001600160a01b03908116915086168114610b395780838381518110610b1857610b18610f7a565b60200260200101906001600160a01b031690816001600160a01b0316815250505b5080610b4481610f90565b915050610ac5565b505b8051610b61906003906020840190610bc2565b50836001600160a01b0316600080516020610fab8339815191526001604051610b8a9190610ed4565b60405180910390a250505050565b60038181548110610ba857600080fd5b6000918252602090912001546001600160a01b0316905081565b828054828255906000526020600020908101928215610c17579160200282015b82811115610c1757825182546001600160a01b0319166001600160a01b03909116178255602090920191600190910190610be2565b50610c23929150610c27565b5090565b5b80821115610c235760008155600101610c28565b6001600160a01b031690565b6000610c5382610c3c565b92915050565b610c6281610c48565b82525050565b60208101610c538284610c59565b80610c62565b60208101610c538284610c76565b610c9381610c48565b8114610c9e57600080fd5b50565b8035610c5381610c8a565b600060208284031215610cc157610cc1600080fd5b6000610ccd8484610ca1565b949350505050565b60808101610ce38287610c76565b610cf06020830186610c76565b610cfd6040830185610c76565b610d0a6060830184610c76565b95945050505050565b6000610c53610d27610d2484610c3c565b90565b610c3c565b6000610c5382610d13565b6000610c5382610d2c565b610c6281610d37565b60208101610c538284610d42565b80610c93565b8035610c5381610d59565b600060208284031215610d7f57610d7f600080fd5b6000610ccd8484610d5f565b801515610c62565b60208101610c538284610d8b565b60005b83811015610dbc578181015183820152602001610da4565b50506000910152565b6000610dcf825190565b808452602084019350610de6818560208601610da1565b601f01601f19169290920192915050565b60208082528101610e088184610dc5565b9392505050565b801515610c93565b8035610c5381610e0f565b60008060408385031215610e3857610e38600080fd5b6000610e448585610ca1565b9250506020610e5585828601610e17565b9150509250929050565b8051610c5381610c8a565b600060208284031215610e7f57610e7f600080fd5b6000610ccd8484610e5f565b634e487b7160e01b600052602160045260246000fd5b60028110610c9e57610c9e610e8b565b80610ebb81610ea1565b919050565b6000610c5382610eb1565b610c6281610ec0565b60208101610c538284610ecb565b634e487b7160e01b600052601160045260246000fd5b81810381811115610c5357610c53610ee2565b6000610c53610d248381565b610c6281610f0b565b60c08101610f2e8289610f17565b610f3b6020830188610c76565b610f486040830187610f17565b610f556060830186610f17565b610f626080830185610f17565b610f6f60a0830184610f17565b979650505050505050565b634e487b7160e01b600052603260045260246000fd5b60006000198203610fa357610fa3610ee2565b506001019056febcf55f13710eed7eda89416c2984da5475fcff67e96fe85e56eed808559a5222a26469706673582212203d9129537c10b92a379d484e115f0357b6f42b4b4cae7dcb36f891b3d9d83f6964736f6c63430008100033",
  "devdoc": {
    "kind": "dev",
    "methods": {},
    "title": "STRATEGY MANAGEMENT",
    "version": 1
  },
  "userdoc": {
    "kind": "user",
    "methods": {},
    "version": 1
  },
  "storageLayout": {
    "storage": [
      {
        "astId": 533,
        "contract": "contracts/StrategyManager.sol:StrategyManager",
        "label": "strategyManager",
        "offset": 0,
        "slot": "0",
        "type": "t_address"
      },
      {
        "astId": 535,
        "contract": "contracts/StrategyManager.sol:StrategyManager",
        "label": "sharesManager",
        "offset": 0,
        "slot": "1",
        "type": "t_address"
      },
      {
        "astId": 540,
        "contract": "contracts/StrategyManager.sol:StrategyManager",
        "label": "strategies",
        "offset": 0,
        "slot": "2",
        "type": "t_mapping(t_address,t_struct(StrategyParams)696_storage)"
      },
      {
        "astId": 543,
        "contract": "contracts/StrategyManager.sol:StrategyManager",
        "label": "defaultQueue",
        "offset": 0,
        "slot": "3",
        "type": "t_array(t_address)dyn_storage"
      },
      {
        "astId": 545,
        "contract": "contracts/StrategyManager.sol:StrategyManager",
        "label": "useDefaultQueue",
        "offset": 0,
        "slot": "4",
        "type": "t_bool"
      },
      {
        "astId": 549,
        "contract": "contracts/StrategyManager.sol:StrategyManager",
        "label": "_balanceOf",
        "offset": 0,
        "slot": "5",
        "type": "t_mapping(t_address,t_uint256)"
      },
      {
        "astId": 555,
        "contract": "contracts/StrategyManager.sol:StrategyManager",
        "label": "_allowance",
        "offset": 0,
        "slot": "6",
        "type": "t_mapping(t_address,t_mapping(t_address,t_uint256))"
      },
      {
        "astId": 557,
        "contract": "contracts/StrategyManager.sol:StrategyManager",
        "label": "totalSupplyAmount",
        "offset": 0,
        "slot": "7",
        "type": "t_uint256"
      },
      {
        "astId": 559,
        "contract": "contracts/StrategyManager.sol:StrategyManager",
        "label": "totalDebtAmount",
        "offset": 0,
        "slot": "8",
        "type": "t_uint256"
      },
      {
        "astId": 561,
        "contract": "contracts/StrategyManager.sol:StrategyManager",
        "label": "totalIdleAmount",
        "offset": 0,
        "slot": "9",
        "type": "t_uint256"
      },
      {
        "astId": 563,
        "contract": "contracts/StrategyManager.sol:StrategyManager",
        "label": "minimumTotalIdle",
        "offset": 0,
        "slot": "10",
        "type": "t_uint256"
      },
      {
        "astId": 565,
        "contract": "contracts/StrategyManager.sol:StrategyManager",
        "label": "depositLimit",
        "offset": 0,
        "slot": "11",
        "type": "t_uint256"
      },
      {
        "astId": 567,
        "contract": "contracts/StrategyManager.sol:StrategyManager",
        "label": "accountant",
        "offset": 0,
        "slot": "12",
        "type": "t_address"
      },
      {
        "astId": 569,
        "contract": "contracts/StrategyManager.sol:StrategyManager",
        "label": "depositLimitModule",
        "offset": 0,
        "slot": "13",
        "type": "t_address"
      },
      {
        "astId": 571,
        "contract": "contracts/StrategyManager.sol:StrategyManager",
        "label": "withdrawLimitModule",
        "offset": 0,
        "slot": "14",
        "type": "t_address"
      },
      {
        "astId": 575,
        "contract": "contracts/StrategyManager.sol:StrategyManager",
        "label": "roles",
        "offset": 0,
        "slot": "15",
        "type": "t_mapping(t_address,t_bytes32)"
      },
      {
        "astId": 579,
        "contract": "contracts/StrategyManager.sol:StrategyManager",
        "label": "openRoles",
        "offset": 0,
        "slot": "16",
        "type": "t_mapping(t_bytes32,t_bool)"
      },
      {
        "astId": 581,
        "contract": "contracts/StrategyManager.sol:StrategyManager",
        "label": "roleManager",
        "offset": 0,
        "slot": "17",
        "type": "t_address"
      },
      {
        "astId": 583,
        "contract": "contracts/StrategyManager.sol:StrategyManager",
        "label": "futureRoleManager",
        "offset": 0,
        "slot": "18",
        "type": "t_address"
      },
      {
        "astId": 585,
        "contract": "contracts/StrategyManager.sol:StrategyManager",
        "label": "shutdown",
        "offset": 20,
        "slot": "18",
        "type": "t_bool"
      },
      {
        "astId": 587,
        "contract": "contracts/StrategyManager.sol:StrategyManager",
        "label": "profitMaxUnlockTime",
        "offset": 0,
        "slot": "19",
        "type": "t_uint256"
      },
      {
        "astId": 589,
        "contract": "contracts/StrategyManager.sol:StrategyManager",
        "label": "fullProfitUnlockDate",
        "offset": 0,
        "slot": "20",
        "type": "t_uint256"
      },
      {
        "astId": 591,
        "contract": "contracts/StrategyManager.sol:StrategyManager",
        "label": "profitUnlockingRate",
        "offset": 0,
        "slot": "21",
        "type": "t_uint256"
      },
      {
        "astId": 593,
        "contract": "contracts/StrategyManager.sol:StrategyManager",
        "label": "lastProfitUpdate",
        "offset": 0,
        "slot": "22",
        "type": "t_uint256"
      },
      {
        "astId": 597,
        "contract": "contracts/StrategyManager.sol:StrategyManager",
        "label": "nonces",
        "offset": 0,
        "slot": "23",
        "type": "t_mapping(t_address,t_uint256)"
      },
      {
        "astId": 604,
        "contract": "contracts/StrategyManager.sol:StrategyManager",
        "label": "DOMAIN_SEPARATOR",
        "offset": 0,
        "slot": "24",
        "type": "t_bytes32"
      }
    ],
    "types": {
      "t_address": {
        "encoding": "inplace",
        "label": "address",
        "numberOfBytes": "20"
      },
      "t_array(t_address)dyn_storage": {
        "base": "t_address",
        "encoding": "dynamic_array",
        "label": "address[]",
        "numberOfBytes": "32"
      },
      "t_bool": {
        "encoding": "inplace",
        "label": "bool",
        "numberOfBytes": "1"
      },
      "t_bytes32": {
        "encoding": "inplace",
        "label": "bytes32",
        "numberOfBytes": "32"
      },
      "t_mapping(t_address,t_bytes32)": {
        "encoding": "mapping",
        "key": "t_address",
        "label": "mapping(address => bytes32)",
        "numberOfBytes": "32",
        "value": "t_bytes32"
      },
      "t_mapping(t_address,t_mapping(t_address,t_uint256))": {
        "encoding": "mapping",
        "key": "t_address",
        "label": "mapping(address => mapping(address => uint256))",
        "numberOfBytes": "32",
        "value": "t_mapping(t_address,t_uint256)"
      },
      "t_mapping(t_address,t_struct(StrategyParams)696_storage)": {
        "encoding": "mapping",
        "key": "t_address",
        "label": "mapping(address => struct StrategyParams)",
        "numberOfBytes": "32",
        "value": "t_struct(StrategyParams)696_storage"
      },
      "t_mapping(t_address,t_uint256)": {
        "encoding": "mapping",
        "key": "t_address",
        "label": "mapping(address => uint256)",
        "numberOfBytes": "32",
        "value": "t_uint256"
      },
      "t_mapping(t_bytes32,t_bool)": {
        "encoding": "mapping",
        "key": "t_bytes32",
        "label": "mapping(bytes32 => bool)",
        "numberOfBytes": "32",
        "value": "t_bool"
      },
      "t_struct(StrategyParams)696_storage": {
        "encoding": "inplace",
        "label": "struct StrategyParams",
        "members": [
          {
            "astId": 689,
            "contract": "contracts/StrategyManager.sol:StrategyManager",
            "label": "activation",
            "offset": 0,
            "slot": "0",
            "type": "t_uint256"
          },
          {
            "astId": 691,
            "contract": "contracts/StrategyManager.sol:StrategyManager",
            "label": "lastReport",
            "offset": 0,
            "slot": "1",
            "type": "t_uint256"
          },
          {
            "astId": 693,
            "contract": "contracts/StrategyManager.sol:StrategyManager",
            "label": "currentDebt",
            "offset": 0,
            "slot": "2",
            "type": "t_uint256"
          },
          {
            "astId": 695,
            "contract": "contracts/StrategyManager.sol:StrategyManager",
            "label": "maxDebt",
            "offset": 0,
            "slot": "3",
            "type": "t_uint256"
          }
        ],
        "numberOfBytes": "128"
      },
      "t_uint256": {
        "encoding": "inplace",
        "label": "uint256",
        "numberOfBytes": "32"
      }
    }
  }
}