{
  "address": "0x699d806A62287dB249A568525F791d37c99A5307",
  "abi": [
    {
      "inputs": [
        {
          "internalType": "address",
          "name": "_asset",
          "type": "address"
        },
        {
          "internalType": "address",
          "name": "_sharesManager",
          "type": "address"
        }
      ],
      "stateMutability": "nonpayable",
      "type": "constructor"
    },
    {
      "inputs": [],
      "name": "DebtDidntChange",
      "type": "error"
    },
    {
      "inputs": [],
      "name": "DebtHigherThanMaxDebt",
      "type": "error"
    },
    {
      "inputs": [],
      "name": "InactiveStrategy",
      "type": "error"
    },
    {
      "inputs": [],
      "name": "InsufficientFunds",
      "type": "error"
    },
    {
      "inputs": [],
      "name": "InvalidAsset",
      "type": "error"
    },
    {
      "inputs": [],
      "name": "StrategyAlreadyActive",
      "type": "error"
    },
    {
      "inputs": [],
      "name": "StrategyDebtIsLessThanAssetsNeeded",
      "type": "error"
    },
    {
      "inputs": [],
      "name": "StrategyHasDebt",
      "type": "error"
    },
    {
      "inputs": [],
      "name": "StrategyHasUnrealisedLosses",
      "type": "error"
    },
    {
      "inputs": [],
      "name": "ZeroAddress",
      "type": "error"
    },
    {
      "inputs": [],
      "name": "ZeroValue",
      "type": "error"
    },
    {
      "anonymous": false,
      "inputs": [
        {
          "indexed": true,
          "internalType": "address",
          "name": "strategy",
          "type": "address"
        },
        {
          "indexed": false,
          "internalType": "uint256",
          "name": "amount",
          "type": "uint256"
        }
      ],
      "name": "DebtPurchased",
      "type": "event"
    },
    {
      "anonymous": false,
      "inputs": [
        {
          "indexed": true,
          "internalType": "address",
          "name": "strategy",
          "type": "address"
        },
        {
          "indexed": false,
          "internalType": "uint256",
          "name": "currentDebt",
          "type": "uint256"
        },
        {
          "indexed": false,
          "internalType": "uint256",
          "name": "newDebt",
          "type": "uint256"
        }
      ],
      "name": "DebtUpdated",
      "type": "event"
    },
    {
      "anonymous": false,
      "inputs": [
        {
          "indexed": true,
          "internalType": "bytes32",
          "name": "role",
          "type": "bytes32"
        },
        {
          "indexed": true,
          "internalType": "bytes32",
          "name": "previousAdminRole",
          "type": "bytes32"
        },
        {
          "indexed": true,
          "internalType": "bytes32",
          "name": "newAdminRole",
          "type": "bytes32"
        }
      ],
      "name": "RoleAdminChanged",
      "type": "event"
    },
    {
      "anonymous": false,
      "inputs": [
        {
          "indexed": true,
          "internalType": "bytes32",
          "name": "role",
          "type": "bytes32"
        },
        {
          "indexed": true,
          "internalType": "address",
          "name": "account",
          "type": "address"
        },
        {
          "indexed": true,
          "internalType": "address",
          "name": "sender",
          "type": "address"
        }
      ],
      "name": "RoleGranted",
      "type": "event"
    },
    {
      "anonymous": false,
      "inputs": [
        {
          "indexed": true,
          "internalType": "bytes32",
          "name": "role",
          "type": "bytes32"
        },
        {
          "indexed": true,
          "internalType": "address",
          "name": "account",
          "type": "address"
        },
        {
          "indexed": true,
          "internalType": "address",
          "name": "sender",
          "type": "address"
        }
      ],
      "name": "RoleRevoked",
      "type": "event"
    },
    {
      "anonymous": false,
      "inputs": [
        {
          "indexed": true,
          "internalType": "address",
          "name": "account",
          "type": "address"
        },
        {
          "indexed": false,
          "internalType": "bytes32",
          "name": "role",
          "type": "bytes32"
        }
      ],
      "name": "RoleSet",
      "type": "event"
    },
    {
      "anonymous": false,
      "inputs": [
        {
          "indexed": true,
          "internalType": "bytes32",
          "name": "role",
          "type": "bytes32"
        },
        {
          "indexed": true,
          "internalType": "enum RoleStatusChange",
          "name": "status",
          "type": "uint8"
        }
      ],
      "name": "RoleStatusChanged",
      "type": "event"
    },
    {
      "anonymous": false,
      "inputs": [],
      "name": "Shutdown",
      "type": "event"
    },
    {
      "anonymous": false,
      "inputs": [
        {
          "indexed": true,
          "internalType": "address",
          "name": "strategy",
          "type": "address"
        },
        {
          "indexed": false,
          "internalType": "enum StrategyChangeType",
          "name": "changeType",
          "type": "uint8"
        }
      ],
      "name": "StrategyChanged",
      "type": "event"
    },
    {
      "anonymous": false,
      "inputs": [
        {
          "indexed": true,
          "internalType": "address",
          "name": "strategy",
          "type": "address"
        },
        {
          "indexed": false,
          "internalType": "uint256",
          "name": "gain",
          "type": "uint256"
        },
        {
          "indexed": false,
          "internalType": "uint256",
          "name": "loss",
          "type": "uint256"
        },
        {
          "indexed": false,
          "internalType": "uint256",
          "name": "currentDebt",
          "type": "uint256"
        },
        {
          "indexed": false,
          "internalType": "uint256",
          "name": "protocolFees",
          "type": "uint256"
        },
        {
          "indexed": false,
          "internalType": "uint256",
          "name": "totalFees",
          "type": "uint256"
        },
        {
          "indexed": false,
          "internalType": "uint256",
          "name": "totalRefunds",
          "type": "uint256"
        }
      ],
      "name": "StrategyReported",
      "type": "event"
    },
    {
      "anonymous": false,
      "inputs": [
        {
          "indexed": true,
          "internalType": "address",
          "name": "accountant",
          "type": "address"
        }
      ],
      "name": "UpdateAccountant",
      "type": "event"
    },
    {
      "anonymous": false,
      "inputs": [
        {
          "indexed": false,
          "internalType": "address[]",
          "name": "newDefaultQueue",
          "type": "address[]"
        }
      ],
      "name": "UpdateDefaultQueue",
      "type": "event"
    },
    {
      "anonymous": false,
      "inputs": [
        {
          "indexed": false,
          "internalType": "uint256",
          "name": "depositLimit",
          "type": "uint256"
        }
      ],
      "name": "UpdateDepositLimit",
      "type": "event"
    },
    {
      "anonymous": false,
      "inputs": [
        {
          "indexed": true,
          "internalType": "address",
          "name": "depositLimitModule",
          "type": "address"
        }
      ],
      "name": "UpdateDepositLimitModule",
      "type": "event"
    },
    {
      "anonymous": false,
      "inputs": [
        {
          "indexed": false,
          "internalType": "uint256",
          "name": "minimumTotalIdle",
          "type": "uint256"
        }
      ],
      "name": "UpdateMinimumTotalIdle",
      "type": "event"
    },
    {
      "anonymous": false,
      "inputs": [
        {
          "indexed": false,
          "internalType": "uint256",
          "name": "profitMaxUnlockTime",
          "type": "uint256"
        }
      ],
      "name": "UpdateProfitMaxUnlockTime",
      "type": "event"
    },
    {
      "anonymous": false,
      "inputs": [
        {
          "indexed": true,
          "internalType": "address",
          "name": "roleManager",
          "type": "address"
        }
      ],
      "name": "UpdateRoleManager",
      "type": "event"
    },
    {
      "anonymous": false,
      "inputs": [
        {
          "indexed": false,
          "internalType": "bool",
          "name": "useDefaultQueue",
          "type": "bool"
        }
      ],
      "name": "UpdateUseDefaultQueue",
      "type": "event"
    },
    {
      "anonymous": false,
      "inputs": [
        {
          "indexed": true,
          "internalType": "address",
          "name": "withdrawLimitModule",
          "type": "address"
        }
      ],
      "name": "UpdateWithdrawLimitModule",
      "type": "event"
    },
    {
      "anonymous": false,
      "inputs": [
        {
          "indexed": true,
          "internalType": "uint256",
          "name": "totalFees",
          "type": "uint256"
        },
        {
          "indexed": true,
          "internalType": "uint256",
          "name": "totalRefunds",
          "type": "uint256"
        },
        {
          "indexed": true,
          "internalType": "uint256",
          "name": "protocolFees",
          "type": "uint256"
        },
        {
          "indexed": false,
          "internalType": "address",
          "name": "protocolFeeRecipient",
          "type": "address"
        }
      ],
      "name": "UpdatedFees",
      "type": "event"
    },
    {
      "anonymous": false,
      "inputs": [
        {
          "indexed": true,
          "internalType": "address",
          "name": "sender",
          "type": "address"
        },
        {
          "indexed": true,
          "internalType": "address",
          "name": "strategy",
          "type": "address"
        },
        {
          "indexed": false,
          "internalType": "uint256",
          "name": "newDebt",
          "type": "uint256"
        }
      ],
      "name": "UpdatedMaxDebtForStrategy",
      "type": "event"
    },
    {
      "inputs": [],
      "name": "ACCOUNTANT_MANAGER",
      "outputs": [
        {
          "internalType": "bytes32",
          "name": "",
          "type": "bytes32"
        }
      ],
      "stateMutability": "view",
      "type": "function"
    },
    {
      "inputs": [],
      "name": "ADD_STRATEGY_MANAGER",
      "outputs": [
        {
          "internalType": "bytes32",
          "name": "",
          "type": "bytes32"
        }
      ],
      "stateMutability": "view",
      "type": "function"
    },
    {
      "inputs": [],
      "name": "API_VERSION",
      "outputs": [
        {
          "internalType": "string",
          "name": "",
          "type": "string"
        }
      ],
      "stateMutability": "view",
      "type": "function"
    },
    {
      "inputs": [],
      "name": "ASSET",
      "outputs": [
        {
          "internalType": "contract IERC20",
          "name": "",
          "type": "address"
        }
      ],
      "stateMutability": "view",
      "type": "function"
    },
    {
      "inputs": [],
      "name": "DEBT_MANAGER",
      "outputs": [
        {
          "internalType": "bytes32",
          "name": "",
          "type": "bytes32"
        }
      ],
      "stateMutability": "view",
      "type": "function"
    },
    {
      "inputs": [],
      "name": "DEBT_PURCHASER",
      "outputs": [
        {
          "internalType": "bytes32",
          "name": "",
          "type": "bytes32"
        }
      ],
      "stateMutability": "view",
      "type": "function"
    },
    {
      "inputs": [],
      "name": "DEFAULT_ADMIN_ROLE",
      "outputs": [
        {
          "internalType": "bytes32",
          "name": "",
          "type": "bytes32"
        }
      ],
      "stateMutability": "view",
      "type": "function"
    },
    {
      "inputs": [],
      "name": "DEPOSIT_LIMIT_MANAGER",
      "outputs": [
        {
          "internalType": "bytes32",
          "name": "",
          "type": "bytes32"
        }
      ],
      "stateMutability": "view",
      "type": "function"
    },
    {
      "inputs": [],
      "name": "DOMAIN_SEPARATOR",
      "outputs": [
        {
          "internalType": "bytes32",
          "name": "",
          "type": "bytes32"
        }
      ],
      "stateMutability": "view",
      "type": "function"
    },
    {
      "inputs": [],
      "name": "DOMAIN_TYPE_HASH",
      "outputs": [
        {
          "internalType": "bytes32",
          "name": "",
          "type": "bytes32"
        }
      ],
      "stateMutability": "view",
      "type": "function"
    },
    {
      "inputs": [],
      "name": "EMERGENCY_MANAGER",
      "outputs": [
        {
          "internalType": "bytes32",
          "name": "",
          "type": "bytes32"
        }
      ],
      "stateMutability": "view",
      "type": "function"
    },
    {
      "inputs": [],
      "name": "FACTORY",
      "outputs": [
        {
          "internalType": "address",
          "name": "",
          "type": "address"
        }
      ],
      "stateMutability": "view",
      "type": "function"
    },
    {
      "inputs": [],
      "name": "FORCE_REVOKE_MANAGER",
      "outputs": [
        {
          "internalType": "bytes32",
          "name": "",
          "type": "bytes32"
        }
      ],
      "stateMutability": "view",
      "type": "function"
    },
    {
      "inputs": [],
      "name": "MAX_BPS",
      "outputs": [
        {
          "internalType": "uint256",
          "name": "",
          "type": "uint256"
        }
      ],
      "stateMutability": "view",
      "type": "function"
    },
    {
      "inputs": [],
      "name": "MAX_BPS_EXTENDED",
      "outputs": [
        {
          "internalType": "uint256",
          "name": "",
          "type": "uint256"
        }
      ],
      "stateMutability": "view",
      "type": "function"
    },
    {
      "inputs": [],
      "name": "MAX_DEBT_MANAGER",
      "outputs": [
        {
          "internalType": "bytes32",
          "name": "",
          "type": "bytes32"
        }
      ],
      "stateMutability": "view",
      "type": "function"
    },
    {
      "inputs": [],
      "name": "MAX_QUEUE",
      "outputs": [
        {
          "internalType": "uint256",
          "name": "",
          "type": "uint256"
        }
      ],
      "stateMutability": "view",
      "type": "function"
    },
    {
      "inputs": [],
      "name": "MINIMUM_IDLE_MANAGER",
      "outputs": [
        {
          "internalType": "bytes32",
          "name": "",
          "type": "bytes32"
        }
      ],
      "stateMutability": "view",
      "type": "function"
    },
    {
      "inputs": [],
      "name": "ONE_YEAR",
      "outputs": [
        {
          "internalType": "uint256",
          "name": "",
          "type": "uint256"
        }
      ],
      "stateMutability": "view",
      "type": "function"
    },
    {
      "inputs": [],
      "name": "PERMIT_TYPE_HASH",
      "outputs": [
        {
          "internalType": "bytes32",
          "name": "",
          "type": "bytes32"
        }
      ],
      "stateMutability": "view",
      "type": "function"
    },
    {
      "inputs": [],
      "name": "PROFIT_UNLOCK_MANAGER",
      "outputs": [
        {
          "internalType": "bytes32",
          "name": "",
          "type": "bytes32"
        }
      ],
      "stateMutability": "view",
      "type": "function"
    },
    {
      "inputs": [],
      "name": "QUEUE_MANAGER",
      "outputs": [
        {
          "internalType": "bytes32",
          "name": "",
          "type": "bytes32"
        }
      ],
      "stateMutability": "view",
      "type": "function"
    },
    {
      "inputs": [],
      "name": "REPORTING_MANAGER",
      "outputs": [
        {
          "internalType": "bytes32",
          "name": "",
          "type": "bytes32"
        }
      ],
      "stateMutability": "view",
      "type": "function"
    },
    {
      "inputs": [],
      "name": "REVOKE_STRATEGY_MANAGER",
      "outputs": [
        {
          "internalType": "bytes32",
          "name": "",
          "type": "bytes32"
        }
      ],
      "stateMutability": "view",
      "type": "function"
    },
    {
      "inputs": [],
      "name": "ROLE_MANAGER",
      "outputs": [
        {
          "internalType": "bytes32",
          "name": "",
          "type": "bytes32"
        }
      ],
      "stateMutability": "view",
      "type": "function"
    },
    {
      "inputs": [],
      "name": "WITHDRAW_LIMIT_MANAGER",
      "outputs": [
        {
          "internalType": "bytes32",
          "name": "",
          "type": "bytes32"
        }
      ],
      "stateMutability": "view",
      "type": "function"
    },
    {
      "inputs": [],
      "name": "accountant",
      "outputs": [
        {
          "internalType": "address",
          "name": "",
          "type": "address"
        }
      ],
      "stateMutability": "view",
      "type": "function"
    },
    {
      "inputs": [
        {
          "internalType": "address",
          "name": "newStrategy",
          "type": "address"
        }
      ],
      "name": "addStrategy",
      "outputs": [],
      "stateMutability": "nonpayable",
      "type": "function"
    },
    {
      "inputs": [
        {
          "internalType": "uint256",
          "name": "",
          "type": "uint256"
        }
      ],
      "name": "defaultQueue",
      "outputs": [
        {
          "internalType": "address",
          "name": "",
          "type": "address"
        }
      ],
      "stateMutability": "view",
      "type": "function"
    },
    {
      "inputs": [],
      "name": "depositLimit",
      "outputs": [
        {
          "internalType": "uint256",
          "name": "",
          "type": "uint256"
        }
      ],
      "stateMutability": "view",
      "type": "function"
    },
    {
      "inputs": [],
      "name": "depositLimitModule",
      "outputs": [
        {
          "internalType": "address",
          "name": "",
          "type": "address"
        }
      ],
      "stateMutability": "view",
      "type": "function"
    },
    {
      "inputs": [],
      "name": "fees",
      "outputs": [
        {
          "internalType": "uint256",
          "name": "totalFees",
          "type": "uint256"
        },
        {
          "internalType": "uint256",
          "name": "totalRefunds",
          "type": "uint256"
        },
        {
          "internalType": "uint256",
          "name": "protocolFees",
          "type": "uint256"
        },
        {
          "internalType": "address",
          "name": "protocolFeeRecipient",
          "type": "address"
        }
      ],
      "stateMutability": "view",
      "type": "function"
    },
    {
      "inputs": [],
      "name": "fullProfitUnlockDate",
      "outputs": [
        {
          "internalType": "uint256",
          "name": "",
          "type": "uint256"
        }
      ],
      "stateMutability": "view",
      "type": "function"
    },
    {
      "inputs": [],
      "name": "futureRoleManager",
      "outputs": [
        {
          "internalType": "address",
          "name": "",
          "type": "address"
        }
      ],
      "stateMutability": "view",
      "type": "function"
    },
    {
      "inputs": [
        {
          "internalType": "address",
          "name": "strategy",
          "type": "address"
        }
      ],
      "name": "getDebt",
      "outputs": [
        {
          "internalType": "uint256",
          "name": "",
          "type": "uint256"
        }
      ],
      "stateMutability": "view",
      "type": "function"
    },
    {
      "inputs": [],
      "name": "getDefaultQueue",
      "outputs": [
        {
          "internalType": "address[]",
          "name": "",
          "type": "address[]"
        }
      ],
      "stateMutability": "view",
      "type": "function"
    },
    {
      "inputs": [],
      "name": "getDefaultQueueLength",
      "outputs": [
        {
          "internalType": "uint256",
          "name": "length",
          "type": "uint256"
        }
      ],
      "stateMutability": "view",
      "type": "function"
    },
    {
      "inputs": [
        {
          "internalType": "bytes32",
          "name": "role",
          "type": "bytes32"
        }
      ],
      "name": "getRoleAdmin",
      "outputs": [
        {
          "internalType": "bytes32",
          "name": "",
          "type": "bytes32"
        }
      ],
      "stateMutability": "view",
      "type": "function"
    },
    {
      "inputs": [],
      "name": "governance",
      "outputs": [
        {
          "internalType": "address",
          "name": "",
          "type": "address"
        }
      ],
      "stateMutability": "view",
      "type": "function"
    },
    {
      "inputs": [
        {
          "internalType": "bytes32",
          "name": "role",
          "type": "bytes32"
        },
        {
          "internalType": "address",
          "name": "account",
          "type": "address"
        }
      ],
      "name": "grantRole",
      "outputs": [],
      "stateMutability": "nonpayable",
      "type": "function"
    },
    {
      "inputs": [
        {
          "internalType": "bytes32",
          "name": "role",
          "type": "bytes32"
        },
        {
          "internalType": "address",
          "name": "account",
          "type": "address"
        }
      ],
      "name": "hasRole",
      "outputs": [
        {
          "internalType": "bool",
          "name": "",
          "type": "bool"
        }
      ],
      "stateMutability": "view",
      "type": "function"
    },
    {
      "inputs": [],
      "name": "lastProfitUpdate",
      "outputs": [
        {
          "internalType": "uint256",
          "name": "",
          "type": "uint256"
        }
      ],
      "stateMutability": "view",
      "type": "function"
    },
    {
      "inputs": [],
      "name": "minimumTotalIdle",
      "outputs": [
        {
          "internalType": "uint256",
          "name": "",
          "type": "uint256"
        }
      ],
      "stateMutability": "view",
      "type": "function"
    },
    {
      "inputs": [
        {
          "internalType": "address",
          "name": "",
          "type": "address"
        }
      ],
      "name": "nonces",
      "outputs": [
        {
          "internalType": "uint256",
          "name": "",
          "type": "uint256"
        }
      ],
      "stateMutability": "view",
      "type": "function"
    },
    {
      "inputs": [
        {
          "internalType": "bytes32",
          "name": "",
          "type": "bytes32"
        }
      ],
      "name": "openRoles",
      "outputs": [
        {
          "internalType": "bool",
          "name": "",
          "type": "bool"
        }
      ],
      "stateMutability": "view",
      "type": "function"
    },
    {
      "inputs": [
        {
          "internalType": "address",
          "name": "strategy",
          "type": "address"
        }
      ],
      "name": "processReport",
      "outputs": [
        {
          "internalType": "uint256",
          "name": "",
          "type": "uint256"
        },
        {
          "internalType": "uint256",
          "name": "",
          "type": "uint256"
        }
      ],
      "stateMutability": "nonpayable",
      "type": "function"
    },
    {
      "inputs": [],
      "name": "profitMaxUnlockTime",
      "outputs": [
        {
          "internalType": "uint256",
          "name": "",
          "type": "uint256"
        }
      ],
      "stateMutability": "view",
      "type": "function"
    },
    {
      "inputs": [],
      "name": "profitUnlockingRate",
      "outputs": [
        {
          "internalType": "uint256",
          "name": "",
          "type": "uint256"
        }
      ],
      "stateMutability": "view",
      "type": "function"
    },
    {
      "inputs": [
        {
          "internalType": "bytes32",
          "name": "role",
          "type": "bytes32"
        },
        {
          "internalType": "address",
          "name": "account",
          "type": "address"
        }
      ],
      "name": "renounceRole",
      "outputs": [],
      "stateMutability": "nonpayable",
      "type": "function"
    },
    {
      "inputs": [
        {
          "internalType": "bytes32",
          "name": "role",
          "type": "bytes32"
        },
        {
          "internalType": "address",
          "name": "account",
          "type": "address"
        }
      ],
      "name": "revokeRole",
      "outputs": [],
      "stateMutability": "nonpayable",
      "type": "function"
    },
    {
      "inputs": [
        {
          "internalType": "address",
          "name": "strategy",
          "type": "address"
        },
        {
          "internalType": "bool",
          "name": "force",
          "type": "bool"
        }
      ],
      "name": "revokeStrategy",
      "outputs": [],
      "stateMutability": "nonpayable",
      "type": "function"
    },
    {
      "inputs": [],
      "name": "roleManager",
      "outputs": [
        {
          "internalType": "address",
          "name": "",
          "type": "address"
        }
      ],
      "stateMutability": "view",
      "type": "function"
    },
    {
      "inputs": [
        {
          "internalType": "address",
          "name": "",
          "type": "address"
        }
      ],
      "name": "roles",
      "outputs": [
        {
          "internalType": "bytes32",
          "name": "",
          "type": "bytes32"
        }
      ],
      "stateMutability": "view",
      "type": "function"
    },
    {
      "inputs": [
        {
          "internalType": "address",
          "name": "strategy",
          "type": "address"
        },
        {
          "internalType": "uint256",
          "name": "_newDebt",
          "type": "uint256"
        }
      ],
      "name": "setDebt",
      "outputs": [],
      "stateMutability": "nonpayable",
      "type": "function"
    },
    {
      "inputs": [
        {
          "internalType": "uint256",
          "name": "totalFees",
          "type": "uint256"
        },
        {
          "internalType": "uint256",
          "name": "totalRefunds",
          "type": "uint256"
        },
        {
          "internalType": "uint256",
          "name": "protocolFees",
          "type": "uint256"
        },
        {
          "internalType": "address",
          "name": "protocolFeeRecipient",
          "type": "address"
        }
      ],
      "name": "setFees",
      "outputs": [],
      "stateMutability": "nonpayable",
      "type": "function"
    },
    {
      "inputs": [],
      "name": "setters",
      "outputs": [
        {
          "internalType": "address",
          "name": "",
          "type": "address"
        }
      ],
      "stateMutability": "view",
      "type": "function"
    },
    {
      "inputs": [],
      "name": "sharesManager",
      "outputs": [
        {
          "internalType": "address",
          "name": "",
          "type": "address"
        }
      ],
      "stateMutability": "view",
      "type": "function"
    },
    {
      "inputs": [],
      "name": "shutdown",
      "outputs": [
        {
          "internalType": "bool",
          "name": "",
          "type": "bool"
        }
      ],
      "stateMutability": "view",
      "type": "function"
    },
    {
      "inputs": [
        {
          "internalType": "address",
          "name": "",
          "type": "address"
        }
      ],
      "name": "strategies",
      "outputs": [
        {
          "internalType": "uint256",
          "name": "activation",
          "type": "uint256"
        },
        {
          "internalType": "uint256",
          "name": "lastReport",
          "type": "uint256"
        },
        {
          "internalType": "uint256",
          "name": "currentDebt",
          "type": "uint256"
        },
        {
          "internalType": "uint256",
          "name": "maxDebt",
          "type": "uint256"
        }
      ],
      "stateMutability": "view",
      "type": "function"
    },
    {
      "inputs": [],
      "name": "strategyManager",
      "outputs": [
        {
          "internalType": "address",
          "name": "",
          "type": "address"
        }
      ],
      "stateMutability": "view",
      "type": "function"
    },
    {
      "inputs": [
        {
          "internalType": "bytes4",
          "name": "interfaceId",
          "type": "bytes4"
        }
      ],
      "name": "supportsInterface",
      "outputs": [
        {
          "internalType": "bool",
          "name": "",
          "type": "bool"
        }
      ],
      "stateMutability": "view",
      "type": "function"
    },
    {
      "inputs": [],
      "name": "totalDebtAmount",
      "outputs": [
        {
          "internalType": "uint256",
          "name": "",
          "type": "uint256"
        }
      ],
      "stateMutability": "view",
      "type": "function"
    },
    {
      "inputs": [],
      "name": "totalIdleAmount",
      "outputs": [
        {
          "internalType": "uint256",
          "name": "",
          "type": "uint256"
        }
      ],
      "stateMutability": "view",
      "type": "function"
    },
    {
      "inputs": [],
      "name": "totalSupplyAmount",
      "outputs": [
        {
          "internalType": "uint256",
          "name": "",
          "type": "uint256"
        }
      ],
      "stateMutability": "view",
      "type": "function"
    },
    {
      "inputs": [
        {
          "internalType": "address",
          "name": "sender",
          "type": "address"
        },
        {
          "internalType": "address",
          "name": "strategy",
          "type": "address"
        },
        {
          "internalType": "uint256",
          "name": "targetDebt",
          "type": "uint256"
        }
      ],
      "name": "updateDebt",
      "outputs": [
        {
          "internalType": "uint256",
          "name": "",
          "type": "uint256"
        }
      ],
      "stateMutability": "nonpayable",
      "type": "function"
    },
    {
      "inputs": [
        {
          "internalType": "address",
          "name": "strategy",
          "type": "address"
        },
        {
          "internalType": "uint256",
          "name": "newMaxDebt",
          "type": "uint256"
        }
      ],
      "name": "updateMaxDebtForStrategy",
      "outputs": [],
      "stateMutability": "nonpayable",
      "type": "function"
    },
    {
      "inputs": [],
      "name": "useDefaultQueue",
      "outputs": [
        {
          "internalType": "bool",
          "name": "",
          "type": "bool"
        }
      ],
      "stateMutability": "view",
      "type": "function"
    },
    {
      "inputs": [],
      "name": "withdrawLimitModule",
      "outputs": [
        {
          "internalType": "address",
          "name": "",
          "type": "address"
        }
      ],
      "stateMutability": "view",
      "type": "function"
    }
  ],
  "transactionHash": "0xa5998111e240e1c4036e0381c35b1dbba330bb02163f1b88cab6f02a0f4a110e",
  "args": [
    "0xdf29cb40cb92a1b8e8337f542e3846e185deff96",
    "0x8c892F0dEE6E599f22B83688E23D074b9eaCa2cb"
  ],
  "numDeployments": 1,
  "solcInputHash": "94fa051da3b46ef97592ccf25a1c46c7",
  "bytecode": "0x60e06040526301e185586080523480156200001957600080fd5b50604051620032e8380380620032e88339810160408190526200003c9162000167565b6001600160a01b0382811660a0523360c052600280546001600160a01b031916918316919091179055620000726000826200007a565b5050620001aa565b62000086828262000103565b620000ff576000828152602081815260408083206001600160a01b03851684529091529020805460ff19166001179055620000be3390565b6001600160a01b0316816001600160a01b0316837f2f8788117e7eff1d82e926ec794901d17c78024a50270940304540a733656f0d60405160405180910390a45b5050565b6000828152602081815260408083206001600160a01b038516845290915290205460ff165b92915050565b60006001600160a01b03821662000128565b6200014b816200012e565b81146200015757600080fd5b50565b8051620001288162000140565b600080604083850312156200017f576200017f600080fd5b60006200018d85856200015a565b9250506020620001a0858286016200015a565b9150509250929050565b60805160a05160c0516130d66200021260003960008181610448015261230301526000818161052601528181610a940152818161110f01528181611203015281816114e40152818161155e0152818161165801526116fa015260006103db01526130d66000f3fe608060405234801561001057600080fd5b506004361061031b5760003560e01c806391986003116101a557806391986003146106c457806391d14854146106d757806399374642146106ea5780639a78e72e1461070a5780639af1d35a146107365780639e34e348146107655780639f3988f314610778578063a217fddf1461079f578063a835cd81146107a7578063a98222c4146107ba578063ab5b4d49146107e1578063acded97d14610808578063b1c46c9f1461081b578063b3c187f21461082e578063b6cc2d1f14610841578063ba71ecd414610862578063bbe4eb491461086a578063bee7e3d914610877578063c065ca071461088a578063c0993eea146108b1578063c8d74b60146108d8578063c8dffa95146108ff578063d4ae064f14610908578063d547741f1461092f578063ecf7085814610942578063f1daeba81461094b578063f42c77ae14610972578063f5b944eb14610985578063f6d7bfa0146109ac578063f828f50b146109bf578063fc0e74d1146109c8578063fd967f47146109dc578063fec61f06146109e5578063ff1e7f0814610a0c57600080fd5b8062435da51461032057806301ffc9a71461034957806303dcd12c146103695780630835a3fc1461039d5780630952864e146103a65780630ad283d0146103af57806316d3bfbb146103d6578063223e5479146103fd578063248a9ca31461041257806329f3cef5146104255780632d6326921461043a5780632dd31000146104435780632f2ff15d1461046a5780633644e5151461047d57806336568abe1461048657806336fba084146104995780633764254a146104a557806339b70e38146104b857806339ebf823146104cb5780633cd7b5ab146105105780633f7b5e40146105195780634800d97f146105215780634ce1d38a146105555780634cfe51dc1461057c5780634d4bb197146105a35780634fb3ccc5146105ca5780635141eebb146105dd57806353a66132146105e65780635aa6e675146106095780635bf6b4fb1461061c578063652da3241461064357806377e3b2671461066a5780637ecebe001461069b5780638afca8f0146106bb575b600080fd5b601854610333906001600160a01b031681565b6040516103409190612641565b60405180910390f35b61035c610357366004612671565b610a1f565b604051610340919061269a565b6103907f633076a97f32ae349b28772e7b1483f67a926f150cbc501d02bdbd77389325ab81565b60405161034091906126ae565b61039060115481565b610390601a5481565b6103907fc723f4dd6268e1c374639e36d629c765285ee7003913389d582c300f186dde9781565b6103907f000000000000000000000000000000000000000000000000000000000000000081565b61041061040b3660046126d0565b610a56565b005b610390610420366004612702565b610c5b565b61042d610c70565b6040516103409190612780565b610390601b5481565b6103337f000000000000000000000000000000000000000000000000000000000000000081565b610410610478366004612791565b610cd2565b610390601f5481565b610410610494366004612791565b610cf3565b61039064e8d4a5100081565b6104106104b33660046127ce565b610d32565b600154610333906001600160a01b031681565b6105006104d93660046126d0565b60056020526000908152604090208054600182015460028301546003909301549192909184565b6040516103409493929190612801565b61039060105481565b610390600a81565b6105487f000000000000000000000000000000000000000000000000000000000000000081565b6040516103409190612877565b6103907f69d1171ac0a63777a6733cda21aec9ed3d48a4fd11f273c934a691dec5e5589c81565b6103907f862f91c9d89d6135b19873b921c90b702cb2e175c371b8430026b9577e69111981565b6103907f6e71edae12b1b97f4d1f60370fef10105fa2faae0126114a169c64845d6126c981565b601354610333906001600160a01b031681565b610390601c5481565b61035c6105f4366004612702565b60176020526000908152604090205460ff1681565b600454610333906001600160a01b031681565b6103907fea672c1c09cd95c51af9509f646f3615ff0071aae8652bd821471ee9037fd72c81565b6103907fcd9f023a942ee35097ead74b2505bea9f2c5d47465db92dd195cf7f01a41cfe181565b61068e604051806040016040528060058152602001640312e302e360dc1b81525081565b60405161034091906128e7565b6103906106a93660046126d0565b601e6020526000908152604090205481565b610390601d5481565b601554610333906001600160a01b031681565b61035c6106e5366004612791565b610d5d565b6103906106f83660046126d0565b60166020526000908152604090205481565b6103906107183660046126d0565b6001600160a01b031660009081526005602052604090206002015490565b600654600754600854600954610755939291906001600160a01b031684565b60405161034094939291906128f8565b601454610333906001600160a01b031681565b6103907f6f430d649a8640e48ff9bfbc353b3f99ed630163857821b3b4075e3871dafbf581565b610390600081565b6103906107b536600461292d565b610d86565b6103907f2f0dbbe8c2c0170206c50ec0cafa1c0dbd03e73e67c2a960178df30a0a30ee2e81565b6103907f900d80def0427daac599092fcb16b21808ec68dd9a2e1eae89d1e8db2135737581565b600254610333906001600160a01b031681565b61041061082936600461297d565b6118d5565b601954610333906001600160a01b031681565b61085461084f3660046126d0565b611943565b6040516103409291906129e1565b600a54610390565b600b5461035c9060ff1681565b600354610333906001600160a01b031681565b6103907f2a0e761830cc61f2707ea7bb138008bf9dda7f7d34c77736d0a116604e95ea1681565b6103907f8b73c3c69bb8fe3d512ecc4cf759cc79239f7b179b0ffacaa9a75d522b39400f81565b6103907f152ebba56b9738ee3d8baea1b76fa31dcdcd79b1929bfea7d58ee12cfdf1a65381565b610390600f5481565b6103907fa18eaea71a088b547b8c932b48861853b3434d9a3240b94466c607e28b69659581565b61041061093d366004612791565b611cc8565b61039060125481565b6103907f7cbb3cdf689b8ea3e9d265f66bc4e0a99069268217017d38d2a5a559abc6271981565b610410610980366004612a0f565b611ce4565b6103907ff206625bad3d9112d5609b8d356e6fbd514cd1f69980d4ce2b3e6e68e1789ace81565b6104106109ba3660046127ce565b611f05565b610390600e5481565b60195461035c90600160a01b900460ff1681565b61039061271081565b6103907fd45f7ccff42f059d4e47c3f027c444272257266f7e88b981e142f0aa38fbfd7881565b610333610a1a366004612702565b611f99565b60006001600160e01b03198216637965db0b60e01b1480610a5057506301ffc9a760e01b6001600160e01b03198316145b92915050565b6001600160a01b0381161580610a7457506001600160a01b03811630145b15610a925760405163d92e233d60e01b815260040160405180910390fd5b7f00000000000000000000000000000000000000000000000000000000000000006001600160a01b0316816001600160a01b03166338d52e0f6040518163ffffffff1660e01b8152600401602060405180830381865afa158015610afa573d6000803e3d6000fd5b505050506040513d601f19601f82011682018060405250810190610b1e9190612a4d565b6001600160a01b031614610b4557604051636448d6e960e11b815260040160405180910390fd5b6001600160a01b03811660009081526005602052604090205415610b7c5760405163c976754d60e01b815260040160405180910390fd5b604080516080810182524280825260208083019182526000838501818152606085018281526001600160a01b038816835260059093529490209251835590516001830155915160028201559051600390910155600a805490811015610c2757600a80546001810182556000919091527fc65a7bb8d6351c1cf70c95a316cc6a92839c986682d98bc35f958f4883f9d2a80180546001600160a01b0319166001600160a01b0384161790555b816001600160a01b03166000805160206130618339815191526000604051610c4f9190612ab7565b60405180910390a25050565b60009081526020819052604090206001015490565b6060600a805480602002602001604051908101604052809291908181526020018280548015610cc857602002820191906000526020600020905b81546001600160a01b03168152600190910190602001808311610caa575b5050505050905090565b610cdb82610c5b565b610ce481611fc3565b610cee8383611fd0565b505050565b6001600160a01b0381163314610d245760405162461bcd60e51b8152600401610d1b90612ac5565b60405180910390fd5b610d2e8282612054565b5050565b6000610d3d81611fc3565b506001600160a01b03909116600090815260056020526040902060020155565b6000918252602082815260408084206001600160a01b0393909316845291905290205460ff1690565b60025460408051635453491f60e01b815290516000926001600160a01b031691635453491f916004808301926020929190829003018187875af1158015610dd1573d6000803e3d6000fd5b505050506040513d601f19601f82011682018060405250810190610df59190612b23565b6010556002546040805163cea5a1a760e01b815290516001600160a01b039092169163cea5a1a79160048082019260209290919082900301816000875af1158015610e44573d6000803e3d6000fd5b505050506040513d601f19601f82011682018060405250810190610e689190612b23565b6011556001600160a01b0383166000908152600560205260409020600201548214801590610e9a575060115460105411155b15610eb85760405163356680b760e01b815260040160405180910390fd5b6001600160a01b038316600090815260056020526040902060020154601954839190600160a01b900460ff161515600103610ef257600091505b808203610f125760405163084df06b60e41b815260040160405180910390fd5b818111156113ae576000610f268383612b5a565b905060115481601054610f399190612b6d565b1015610f5c57601054601154610f4f9190612b5a565b905081811115610f5c5750805b604051636c82bbbf60e11b81526000906001600160a01b038816906307a2d13a90829063d905777e90610f93908d90600401612641565b602060405180830381865afa158015610fb0573d6000803e3d6000fd5b505050506040513d601f19601f82011682018060405250810190610fd49190612b23565b6040518263ffffffff1660e01b8152600401610ff091906126ae565b602060405180830381865afa15801561100d573d6000803e3d6000fd5b505050506040513d601f19601f820116820180604052508101906110319190612b23565b90506000811161105457604051637c946ed760e01b815260040160405180910390fd5b81811015611060578091505b600254604051635a56909960e01b81526000916001600160a01b031690635a56909990611093908b908790600401612b80565b602060405180830381865afa1580156110b0573d6000803e3d6000fd5b505050506040513d601f19601f820116820180604052508101906110d49190612b23565b905080156110f5576040516339589fdd60e21b815260040160405180910390fd5b6040516370a0823160e01b81526000906001600160a01b037f000000000000000000000000000000000000000000000000000000000000000016906370a0823190611144908d90600401612641565b602060405180830381865afa158015611161573d6000803e3d6000fd5b505050506040513d601f19601f820116820180604052508101906111859190612b23565b6002546040516316a7a12b60e31b81529192506001600160a01b03169063b53d0958906111b8908c908890600401612b80565b600060405180830381600087803b1580156111d257600080fd5b505af11580156111e6573d6000803e3d6000fd5b50506040516370a0823160e01b8152600092506001600160a01b037f00000000000000000000000000000000000000000000000000000000000000001691506370a0823190611239908e90600401612641565b602060405180830381865afa158015611256573d6000803e3d6000fd5b505050506040513d601f19601f8201168201806040525081019061127a9190612b23565b9050600061129161128b8484612b5a565b886120b9565b90508581111561129f578095505b80601060008282546112b19190612b6d565b9250508190555085600f60008282546112ca9190612b5a565b9091555050600254601054604051634d28468560e11b81526001600160a01b0390921691639a508d0a91611300916004016126ae565b600060405180830381600087803b15801561131a57600080fd5b505af115801561132e573d6000803e3d6000fd5b5050600254600f5460405163e315cd7560e01b81526001600160a01b03909216935063e315cd759250611363916004016126ae565b600060405180830381600087803b15801561137d57600080fd5b505af1158015611391573d6000803e3d6000fd5b5050505085876113a19190612b5a565b9750505050505050611872565b6001600160a01b0385166000908152600560205260409020600301548211156113ea5760405163d49d8c2360e01b815260040160405180910390fd5b60405163402d267d60e01b81526000906001600160a01b0387169063402d267d90611419908a90600401612641565b602060405180830381865afa158015611436573d6000803e3d6000fd5b505050506040513d601f19601f8201168201806040525081019061145a9190612b23565b90506000811161147d57604051637c946ed760e01b815260040160405180910390fd5b60006114898385612b5a565b9050818111156114965750805b60006011546010546114a89190612b5a565b9050808211156114b6578091505b811561186e5760025460405163300d25a560e21b81526001600160a01b039091169063c034969490611510907f0000000000000000000000000000000000000000000000000000000000000000908c908790600401612b8e565b600060405180830381600087803b15801561152a57600080fd5b505af115801561153e573d6000803e3d6000fd5b50506002546040516370a0823160e01b8152600093506001600160a01b037f0000000000000000000000000000000000000000000000000000000000000000811693506370a082319261159692911690600401612641565b602060405180830381865afa1580156115b3573d6000803e3d6000fd5b505050506040513d601f19601f820116820180604052508101906115d79190612b23565b60025460405163af76d4bd60e01b81529192506001600160a01b03169063af76d4bd9061160a908c908790600401612b80565b600060405180830381600087803b15801561162457600080fd5b505af1158015611638573d6000803e3d6000fd5b50506002546040516370a0823160e01b8152600093506001600160a01b037f0000000000000000000000000000000000000000000000000000000000000000811693506370a082319261169092911690600401612641565b602060405180830381865afa1580156116ad573d6000803e3d6000fd5b505050506040513d601f19601f820116820180604052508101906116d19190612b23565b60025460405163300d25a560e21b81529192506001600160a01b03169063c034969490611727907f0000000000000000000000000000000000000000000000000000000000000000908e90600090600401612bcb565b600060405180830381600087803b15801561174157600080fd5b505af1158015611755573d6000803e3d6000fd5b5050505080826117659190612b5a565b935083601060008282546117799190612b5a565b9250508190555083600f60008282546117929190612b6d565b9091555050600254601054604051634d28468560e11b81526001600160a01b0390921691639a508d0a916117c8916004016126ae565b600060405180830381600087803b1580156117e257600080fd5b505af11580156117f6573d6000803e3d6000fd5b5050600254600f5460405163e315cd7560e01b81526001600160a01b03909216935063e315cd75925061182b916004016126ae565b600060405180830381600087803b15801561184557600080fd5b505af1158015611859573d6000803e3d6000fd5b5050505083866118699190612b6d565b965050505b5050505b6001600160a01b03851660008181526005602052604090819020600201849055517f5e2b8821ad6e0e26207e0cb4d242d07eeb1cbb1cfd853e645bdcd27cc5484f95906118c290849086906129e1565b60405180910390a25090505b9392505050565b600684905560078390556008829055600980546001600160a01b0319166001600160a01b0383161790556040518290849086907f94aff052e386f7223093efb6183667af7a14a6d206ce5e9c66a9c064ebe9452890611935908690612641565b60405180910390a450505050565b6001600160a01b0381166000908152600560205260408120548190810361197d57604051630631bc2160e51b815260040160405180910390fd5b600260009054906101000a90046001600160a01b03166001600160a01b031663e0bf18ad6040518163ffffffff1660e01b8152600401600060405180830381600087803b1580156119cd57600080fd5b505af11580156119e1573d6000803e3d6000fd5b505050506000806119f1856120cf565b915091506000611a0286848461220b565b60025481516040808401519051631d8325ef60e01b81529394506000936001600160a01b0390931692631d8325ef92611a45928992899291908e90600401612bf3565b6060604051808303816000875af1158015611a64573d6000803e3d6000fd5b505050506040513d601f19601f82011682018060405250810190611a889190612cf7565b6002546040516356dd3ccf60e11b815291925060009182916001600160a01b03169063adba799e90611ac290869088908b90600401612d9f565b60408051808303816000875af1158015611ae0573d6000803e3d6000fd5b505050506040513d601f19601f82011682018060405250810190611b049190612dc8565b600254604051633e986eed60e01b81529294509092506001600160a01b031690633e986eed90611b3a90859085906004016129e1565b600060405180830381600087803b158015611b5457600080fd5b505af1158015611b68573d6000803e3d6000fd5b505050506001600160a01b038981166000818152600560205260408082204260018201556002908101549054888301519251637ff0007760e01b81529495600080516020613081833981519152958d958d959390921692637ff0007792611bd192600401612dfb565b602060405180830381865afa158015611bee573d6000803e3d6000fd5b505050506040513d601f19601f82011682018060405250810190611c129190612b23565b60025460208a015160408b01516001600160a01b0390921691637ff0007791611c3a91612b6d565b60006040518363ffffffff1660e01b8152600401611c59929190612dfb565b602060405180830381865afa158015611c76573d6000803e3d6000fd5b505050506040513d601f19601f82011682018060405250810190611c9a9190612b23565b8a60200151604051611cb196959493929190612e16565b60405180910390a250939792965091945050505050565b611cd182610c5b565b611cda81611fc3565b610cee8383612054565b6001600160a01b0382166000908152600560205260408120549003611d1c57604051630631bc2160e51b815260040160405180910390fd5b6001600160a01b03821660009081526005602052604081206002015415801590611d44575081155b15611d6257604051633546382f60e21b815260040160405180910390fd5b506001600160a01b038216600090815260056020526040812060020154600f805491928392611d92908490612b5a565b92505081905550826001600160a01b0316600080516020613081833981519152600083600080600080604051611dcd96959493929190612e70565b60405180910390a2604080516080810182526000808252602080830182815283850183815260608086018581526001600160a01b038b168652600590945295909320935184555160018401559051600283015551600390910155600a5415611ebb5760005b600a54811015611eb9576000600a8281548110611e5157611e51612ebf565b6000918252602090912001546001600160a01b03908116915086168114611ea65780838381518110611e8557611e85612ebf565b60200260200101906001600160a01b031690816001600160a01b0316815250505b5080611eb181612ed5565b915050611e32565b505b8051611ece90600a9060208401906125a1565b50836001600160a01b03166000805160206130618339815191526001604051611ef79190612ab7565b60405180910390a250505050565b6001600160a01b0382166000908152600560205260408120549003611f3d57604051630631bc2160e51b815260040160405180910390fd5b6001600160a01b038216600081815260056020526040908190206003018390555132907fb3eef2123fec1523a6bbc90aceb203000154c1a4974335fe06b544c7534d4b8990611f8d9085906126ae565b60405180910390a35050565b600a8181548110611fa957600080fd5b6000918252602090912001546001600160a01b0316905081565b611fcd81336123cb565b50565b611fda8282610d5d565b610d2e576000828152602081815260408083206001600160a01b03851684529091529020805460ff191660011790556120103390565b6001600160a01b0316816001600160a01b0316837f2f8788117e7eff1d82e926ec794901d17c78024a50270940304540a733656f0d60405160405180910390a45050565b61205e8282610d5d565b15610d2e576000828152602081815260408083206001600160a01b0385168085529252808320805460ff1916905551339285917ff6391f5c32d9c69d2a47ea670b442974b53935d1edc7fd64eb21e047a839171b9190a45050565b60008183106120c857816118ce565b5090919050565b6002546040516370a0823160e01b8152600091829182916001600160a01b03808716926370a0823192612106921690600401612641565b602060405180830381865afa158015612123573d6000803e3d6000fd5b505050506040513d601f19601f820116820180604052508101906121479190612b23565b90506000846001600160a01b03166307a2d13a836040518263ffffffff1660e01b815260040161217791906126ae565b602060405180830381865afa158015612194573d6000803e3d6000fd5b505050506040513d601f19601f820116820180604052508101906121b89190612b23565b6001600160a01b03861660009081526005602052604081206002015491925080828411156121f1576121ea8385612b5a565b91506121fe565b6121fb8484612b5a565b90505b9097909650945050505050565b61223f604051806080016040528060008152602001600081526020016000815260200160006001600160a01b031681525090565b6040805160808101825260065481526007546020820152600854918101919091526009546001600160a01b03908116606083015260135416156123c35760135460405163921f8a8f60e01b81526001600160a01b039091169063921f8a8f906122b090889088908890600401612eef565b60408051808303816000875af11580156122ce573d6000803e3d6000fd5b505050506040513d601f19601f820116820180604052508101906122f29190612dc8565b6020830152808252156123c35760007f00000000000000000000000000000000000000000000000000000000000000006001600160a01b03166307d3277f6040518163ffffffff1660e01b81526004016040805180830381865afa15801561235e573d6000803e3d6000fd5b505050506040513d601f19601f820116820180604052508101906123829190612f1f565b6001600160a01b03166060840152905061ffff8116156123c1578151612710906123b19061ffff841690612f52565b6123bb9190612f87565b60408301525b505b949350505050565b6123d58282610d5d565b610d2e576123e281612424565b6123ed836020612436565b6040516020016123fe929190612fbd565b60408051601f198184030181529082905262461bcd60e51b8252610d1b916004016128e7565b6060610a506001600160a01b03831660145b60606000612445836002612f52565b612450906002612b6d565b6001600160401b0381111561246757612467612c3f565b6040519080825280601f01601f191660200182016040528015612491576020820181803683370190505b509050600360fc1b816000815181106124ac576124ac612ebf565b60200101906001600160f81b031916908160001a905350600f60fb1b816001815181106124db576124db612ebf565b60200101906001600160f81b031916908160001a90535060006124ff846002612f52565b61250a906001612b6d565b90505b6001811115612582576f181899199a1a9b1b9c1cb0b131b232b360811b85600f166010811061253e5761253e612ebf565b1a60f81b82828151811061255457612554612ebf565b60200101906001600160f81b031916908160001a90535060049490941c9361257b8161300f565b905061250d565b5083156118ce5760405162461bcd60e51b8152600401610d1b90613026565b8280548282559060005260206000209081019282156125f6579160200282015b828111156125f657825182546001600160a01b0319166001600160a01b039091161782556020909201916001909101906125c1565b50612602929150612606565b5090565b5b808211156126025760008155600101612607565b6001600160a01b031690565b6000610a508261261b565b61263b81612627565b82525050565b60208101610a508284612632565b6001600160e01b031981165b8114611fcd57600080fd5b8035610a508161264f565b60006020828403121561268657612686600080fd5b60006123c38484612666565b80151561263b565b60208101610a508284612692565b8061263b565b60208101610a5082846126a8565b61265b81612627565b8035610a50816126bc565b6000602082840312156126e5576126e5600080fd5b60006123c384846126c5565b8061265b565b8035610a50816126f1565b60006020828403121561271757612717600080fd5b60006123c384846126f7565b600061272f8383612632565b505060200190565b6000612741825190565b80845260209384019383018060005b838110156127755781516127648882612723565b975060208301925050600101612750565b509495945050505050565b602080825281016118ce8184612737565b600080604083850312156127a7576127a7600080fd5b60006127b385856126f7565b92505060206127c4858286016126c5565b9150509250929050565b600080604083850312156127e4576127e4600080fd5b60006127f085856126c5565b92505060206127c4858286016126f7565b6080810161280f82876126a8565b61281c60208301866126a8565b61282960408301856126a8565b61283660608301846126a8565b95945050505050565b6000610a506128536128508461261b565b90565b61261b565b6000610a508261283f565b6000610a5082612858565b61263b81612863565b60208101610a50828461286e565b60005b838110156128a0578181015183820152602001612888565b50506000910152565b601f01601f191690565b60006128bd825190565b8084526020840193506128d4818560208601612885565b6128dd816128a9565b9093019392505050565b602080825281016118ce81846128b3565b6080810161290682876126a8565b61291360208301866126a8565b61292060408301856126a8565b6128366060830184612632565b60008060006060848603121561294557612945600080fd5b600061295186866126c5565b9350506020612962868287016126c5565b9250506040612973868287016126f7565b9150509250925092565b6000806000806080858703121561299657612996600080fd5b60006129a287876126f7565b94505060206129b3878288016126f7565b93505060406129c4878288016126f7565b92505060606129d5878288016126c5565b91505092959194509250565b604081016129ef82856126a8565b6118ce60208301846126a8565b80151561265b565b8035610a50816129fc565b60008060408385031215612a2557612a25600080fd5b6000612a3185856126c5565b92505060206127c485828601612a04565b8051610a50816126bc565b600060208284031215612a6257612a62600080fd5b60006123c38484612a42565b634e487b7160e01b600052602160045260246000fd5b60028110611fcd57611fcd612a6e565b80612a9e81612a84565b919050565b6000610a5082612a94565b61263b81612aa3565b60208101610a508284612aae565b60208082528101610a5081602f81527f416363657373436f6e74726f6c3a2063616e206f6e6c792072656e6f756e636560208201526e103937b632b9903337b91039b2b63360891b604082015260600190565b8051610a50816126f1565b600060208284031215612b3857612b38600080fd5b60006123c38484612b18565b634e487b7160e01b600052601160045260246000fd5b81810381811115610a5057610a50612b44565b80820180821115610a5057610a50612b44565b604081016129ef8285612632565b60608101612b9c8286612632565b612ba96020830185612632565b6123c360408301846126a8565b6000610a506128508381565b61263b81612bb6565b60608101612bd98286612632565b612be66020830185612632565b6123c36040830184612bc2565b60a08101612c0182886126a8565b612c0e60208301876126a8565b612c1b60408301866126a8565b612c2860608301856126a8565b612c356080830184612632565b9695505050505050565b634e487b7160e01b600052604160045260246000fd5b612c5e826128a9565b81018181106001600160401b0382111715612c7b57612c7b612c3f565b6040525050565b6000612c8d60405190565b9050612a9e8282612c55565b600060608284031215612cae57612cae600080fd5b612cb86060612c82565b90506000612cc68484612b18565b8252506020612cd784848301612b18565b6020830152506040612ceb84828501612b18565b60408301525092915050565b600060608284031215612d0c57612d0c600080fd5b60006123c38484612c99565b80516060830190612d2984826126a8565b506020820151612d3c60208501826126a8565b506040820151612d4f60408501826126a8565b50505050565b80516080830190612d6684826126a8565b506020820151612d7960208501826126a8565b506040820151612d8c60408501826126a8565b506060820151612d4f6060850182612632565b6101008101612dae8286612d18565b612dbb6060830185612d55565b6123c360e08301846126a8565b60008060408385031215612dde57612dde600080fd5b6000612dea8585612b18565b92505060206127c485828601612b18565b60408101612e0982856126a8565b6118ce6020830184612aae565b60c08101612e2482896126a8565b612e3160208301886126a8565b612e3e60408301876126a8565b612e4b60608301866126a8565b612e5860808301856126a8565b612e6560a08301846126a8565b979650505050505050565b60c08101612e7e8289612bc2565b612e8b60208301886126a8565b612e986040830187612bc2565b612ea56060830186612bc2565b612eb26080830185612bc2565b612e6560a0830184612bc2565b634e487b7160e01b600052603260045260246000fd5b60006000198203612ee857612ee8612b44565b5060010190565b60608101612efd8286612632565b612ba960208301856126a8565b61ffff811661265b565b8051610a5081612f0a565b60008060408385031215612f3557612f35600080fd5b6000612f418585612f14565b92505060206127c485828601612a42565b6000816000190483118215151615612f6c57612f6c612b44565b500290565b634e487b7160e01b600052601260045260246000fd5b600082612f9657612f96612f71565b500490565b6000612fa5825190565b612fb3818560208601612885565b9290920192915050565b76020b1b1b2b9b9a1b7b73a3937b61d1030b1b1b7bab73a1604d1b81526017016000612fe98285612f9b565b7001034b99036b4b9b9b4b733903937b6329607d1b815260110191506123c38284612f9b565b60008161301e5761301e612b44565b506000190190565b60208082528181019081527f537472696e67733a20686578206c656e67746820696e73756666696369656e74604083015260608201610a5056febcf55f13710eed7eda89416c2984da5475fcff67e96fe85e56eed808559a52227f2ad1d3ba35276f35ef140f83e3e0f17b23064fd710113d3f7a5ab30d267811a26469706673582212202d664f941923d9dd2b5b0821fe13a97ac9ac858c7386bbf1a9e764f23bc5745d64736f6c63430008100033",
  "devdoc": {
    "kind": "dev",
    "methods": {
      "getRoleAdmin(bytes32)": {
        "details": "Returns the admin role that controls `role`. See {grantRole} and {revokeRole}. To change a role's admin, use {_setRoleAdmin}."
      },
      "grantRole(bytes32,address)": {
        "details": "Grants `role` to `account`. If `account` had not been already granted `role`, emits a {RoleGranted} event. Requirements: - the caller must have ``role``'s admin role. May emit a {RoleGranted} event."
      },
      "hasRole(bytes32,address)": {
        "details": "Returns `true` if `account` has been granted `role`."
      },
      "renounceRole(bytes32,address)": {
        "details": "Revokes `role` from the calling account. Roles are often managed via {grantRole} and {revokeRole}: this function's purpose is to provide a mechanism for accounts to lose their privileges if they are compromised (such as when a trusted device is misplaced). If the calling account had been revoked `role`, emits a {RoleRevoked} event. Requirements: - the caller must be `account`. May emit a {RoleRevoked} event."
      },
      "revokeRole(bytes32,address)": {
        "details": "Revokes `role` from `account`. If `account` had been granted `role`, emits a {RoleRevoked} event. Requirements: - the caller must have ``role``'s admin role. May emit a {RoleRevoked} event."
      },
      "supportsInterface(bytes4)": {
        "details": "See {IERC165-supportsInterface}."
      }
    },
    "title": "STRATEGY MANAGEMENT",
    "version": 1
  },
  "userdoc": {
    "kind": "user",
    "methods": {},
    "version": 1
  },
  "storageLayout": {
    "storage": [
      {
        "astId": 24,
        "contract": "contracts/StrategyManager.sol:StrategyManager",
        "label": "_roles",
        "offset": 0,
        "slot": "0",
        "type": "t_mapping(t_bytes32,t_struct(RoleData)19_storage)"
      },
      {
        "astId": 9466,
        "contract": "contracts/StrategyManager.sol:StrategyManager",
        "label": "strategyManager",
        "offset": 0,
        "slot": "1",
        "type": "t_address"
      },
      {
        "astId": 9468,
        "contract": "contracts/StrategyManager.sol:StrategyManager",
        "label": "sharesManager",
        "offset": 0,
        "slot": "2",
        "type": "t_address"
      },
      {
        "astId": 9470,
        "contract": "contracts/StrategyManager.sol:StrategyManager",
        "label": "setters",
        "offset": 0,
        "slot": "3",
        "type": "t_address"
      },
      {
        "astId": 9472,
        "contract": "contracts/StrategyManager.sol:StrategyManager",
        "label": "governance",
        "offset": 0,
        "slot": "4",
        "type": "t_address"
      },
      {
        "astId": 9477,
        "contract": "contracts/StrategyManager.sol:StrategyManager",
        "label": "strategies",
        "offset": 0,
        "slot": "5",
        "type": "t_mapping(t_address,t_struct(StrategyParams)9638_storage)"
      },
      {
        "astId": 9480,
        "contract": "contracts/StrategyManager.sol:StrategyManager",
        "label": "fees",
        "offset": 0,
        "slot": "6",
        "type": "t_struct(FeeAssessment)9647_storage"
      },
      {
        "astId": 9483,
        "contract": "contracts/StrategyManager.sol:StrategyManager",
        "label": "defaultQueue",
        "offset": 0,
        "slot": "10",
        "type": "t_array(t_address)dyn_storage"
      },
      {
        "astId": 9485,
        "contract": "contracts/StrategyManager.sol:StrategyManager",
        "label": "useDefaultQueue",
        "offset": 0,
        "slot": "11",
        "type": "t_bool"
      },
      {
        "astId": 9487,
        "contract": "contracts/StrategyManager.sol:StrategyManager",
        "label": "initialized",
        "offset": 1,
        "slot": "11",
        "type": "t_bool"
      },
      {
        "astId": 9491,
        "contract": "contracts/StrategyManager.sol:StrategyManager",
        "label": "_balanceOf",
        "offset": 0,
        "slot": "12",
        "type": "t_mapping(t_address,t_uint256)"
      },
      {
        "astId": 9497,
        "contract": "contracts/StrategyManager.sol:StrategyManager",
        "label": "_allowance",
        "offset": 0,
        "slot": "13",
        "type": "t_mapping(t_address,t_mapping(t_address,t_uint256))"
      },
      {
        "astId": 9499,
        "contract": "contracts/StrategyManager.sol:StrategyManager",
        "label": "totalSupplyAmount",
        "offset": 0,
        "slot": "14",
        "type": "t_uint256"
      },
      {
        "astId": 9501,
        "contract": "contracts/StrategyManager.sol:StrategyManager",
        "label": "totalDebtAmount",
        "offset": 0,
        "slot": "15",
        "type": "t_uint256"
      },
      {
        "astId": 9503,
        "contract": "contracts/StrategyManager.sol:StrategyManager",
        "label": "totalIdleAmount",
        "offset": 0,
        "slot": "16",
        "type": "t_uint256"
      },
      {
        "astId": 9505,
        "contract": "contracts/StrategyManager.sol:StrategyManager",
        "label": "minimumTotalIdle",
        "offset": 0,
        "slot": "17",
        "type": "t_uint256"
      },
      {
        "astId": 9507,
        "contract": "contracts/StrategyManager.sol:StrategyManager",
        "label": "depositLimit",
        "offset": 0,
        "slot": "18",
        "type": "t_uint256"
      },
      {
        "astId": 9509,
        "contract": "contracts/StrategyManager.sol:StrategyManager",
        "label": "accountant",
        "offset": 0,
        "slot": "19",
        "type": "t_address"
      },
      {
        "astId": 9511,
        "contract": "contracts/StrategyManager.sol:StrategyManager",
        "label": "depositLimitModule",
        "offset": 0,
        "slot": "20",
        "type": "t_address"
      },
      {
        "astId": 9513,
        "contract": "contracts/StrategyManager.sol:StrategyManager",
        "label": "withdrawLimitModule",
        "offset": 0,
        "slot": "21",
        "type": "t_address"
      },
      {
        "astId": 9517,
        "contract": "contracts/StrategyManager.sol:StrategyManager",
        "label": "roles",
        "offset": 0,
        "slot": "22",
        "type": "t_mapping(t_address,t_bytes32)"
      },
      {
        "astId": 9521,
        "contract": "contracts/StrategyManager.sol:StrategyManager",
        "label": "openRoles",
        "offset": 0,
        "slot": "23",
        "type": "t_mapping(t_bytes32,t_bool)"
      },
      {
        "astId": 9523,
        "contract": "contracts/StrategyManager.sol:StrategyManager",
        "label": "roleManager",
        "offset": 0,
        "slot": "24",
        "type": "t_address"
      },
      {
        "astId": 9525,
        "contract": "contracts/StrategyManager.sol:StrategyManager",
        "label": "futureRoleManager",
        "offset": 0,
        "slot": "25",
        "type": "t_address"
      },
      {
        "astId": 9527,
        "contract": "contracts/StrategyManager.sol:StrategyManager",
        "label": "shutdown",
        "offset": 20,
        "slot": "25",
        "type": "t_bool"
      },
      {
        "astId": 9529,
        "contract": "contracts/StrategyManager.sol:StrategyManager",
        "label": "profitMaxUnlockTime",
        "offset": 0,
        "slot": "26",
        "type": "t_uint256"
      },
      {
        "astId": 9531,
        "contract": "contracts/StrategyManager.sol:StrategyManager",
        "label": "fullProfitUnlockDate",
        "offset": 0,
        "slot": "27",
        "type": "t_uint256"
      },
      {
        "astId": 9533,
        "contract": "contracts/StrategyManager.sol:StrategyManager",
        "label": "profitUnlockingRate",
        "offset": 0,
        "slot": "28",
        "type": "t_uint256"
      },
      {
        "astId": 9535,
        "contract": "contracts/StrategyManager.sol:StrategyManager",
        "label": "lastProfitUpdate",
        "offset": 0,
        "slot": "29",
        "type": "t_uint256"
      },
      {
        "astId": 9539,
        "contract": "contracts/StrategyManager.sol:StrategyManager",
        "label": "nonces",
        "offset": 0,
        "slot": "30",
        "type": "t_mapping(t_address,t_uint256)"
      },
      {
        "astId": 9546,
        "contract": "contracts/StrategyManager.sol:StrategyManager",
        "label": "DOMAIN_SEPARATOR",
        "offset": 0,
        "slot": "31",
        "type": "t_bytes32"
      }
    ],
    "types": {
      "t_address": {
        "encoding": "inplace",
        "label": "address",
        "numberOfBytes": "20"
      },
      "t_array(t_address)dyn_storage": {
        "base": "t_address",
        "encoding": "dynamic_array",
        "label": "address[]",
        "numberOfBytes": "32"
      },
      "t_bool": {
        "encoding": "inplace",
        "label": "bool",
        "numberOfBytes": "1"
      },
      "t_bytes32": {
        "encoding": "inplace",
        "label": "bytes32",
        "numberOfBytes": "32"
      },
      "t_mapping(t_address,t_bool)": {
        "encoding": "mapping",
        "key": "t_address",
        "label": "mapping(address => bool)",
        "numberOfBytes": "32",
        "value": "t_bool"
      },
      "t_mapping(t_address,t_bytes32)": {
        "encoding": "mapping",
        "key": "t_address",
        "label": "mapping(address => bytes32)",
        "numberOfBytes": "32",
        "value": "t_bytes32"
      },
      "t_mapping(t_address,t_mapping(t_address,t_uint256))": {
        "encoding": "mapping",
        "key": "t_address",
        "label": "mapping(address => mapping(address => uint256))",
        "numberOfBytes": "32",
        "value": "t_mapping(t_address,t_uint256)"
      },
      "t_mapping(t_address,t_struct(StrategyParams)9638_storage)": {
        "encoding": "mapping",
        "key": "t_address",
        "label": "mapping(address => struct StrategyParams)",
        "numberOfBytes": "32",
        "value": "t_struct(StrategyParams)9638_storage"
      },
      "t_mapping(t_address,t_uint256)": {
        "encoding": "mapping",
        "key": "t_address",
        "label": "mapping(address => uint256)",
        "numberOfBytes": "32",
        "value": "t_uint256"
      },
      "t_mapping(t_bytes32,t_bool)": {
        "encoding": "mapping",
        "key": "t_bytes32",
        "label": "mapping(bytes32 => bool)",
        "numberOfBytes": "32",
        "value": "t_bool"
      },
      "t_mapping(t_bytes32,t_struct(RoleData)19_storage)": {
        "encoding": "mapping",
        "key": "t_bytes32",
        "label": "mapping(bytes32 => struct AccessControl.RoleData)",
        "numberOfBytes": "32",
        "value": "t_struct(RoleData)19_storage"
      },
      "t_struct(FeeAssessment)9647_storage": {
        "encoding": "inplace",
        "label": "struct FeeAssessment",
        "members": [
          {
            "astId": 9640,
            "contract": "contracts/StrategyManager.sol:StrategyManager",
            "label": "totalFees",
            "offset": 0,
            "slot": "0",
            "type": "t_uint256"
          },
          {
            "astId": 9642,
            "contract": "contracts/StrategyManager.sol:StrategyManager",
            "label": "totalRefunds",
            "offset": 0,
            "slot": "1",
            "type": "t_uint256"
          },
          {
            "astId": 9644,
            "contract": "contracts/StrategyManager.sol:StrategyManager",
            "label": "protocolFees",
            "offset": 0,
            "slot": "2",
            "type": "t_uint256"
          },
          {
            "astId": 9646,
            "contract": "contracts/StrategyManager.sol:StrategyManager",
            "label": "protocolFeeRecipient",
            "offset": 0,
            "slot": "3",
            "type": "t_address"
          }
        ],
        "numberOfBytes": "128"
      },
      "t_struct(RoleData)19_storage": {
        "encoding": "inplace",
        "label": "struct AccessControl.RoleData",
        "members": [
          {
            "astId": 16,
            "contract": "contracts/StrategyManager.sol:StrategyManager",
            "label": "members",
            "offset": 0,
            "slot": "0",
            "type": "t_mapping(t_address,t_bool)"
          },
          {
            "astId": 18,
            "contract": "contracts/StrategyManager.sol:StrategyManager",
            "label": "adminRole",
            "offset": 0,
            "slot": "1",
            "type": "t_bytes32"
          }
        ],
        "numberOfBytes": "64"
      },
      "t_struct(StrategyParams)9638_storage": {
        "encoding": "inplace",
        "label": "struct StrategyParams",
        "members": [
          {
            "astId": 9631,
            "contract": "contracts/StrategyManager.sol:StrategyManager",
            "label": "activation",
            "offset": 0,
            "slot": "0",
            "type": "t_uint256"
          },
          {
            "astId": 9633,
            "contract": "contracts/StrategyManager.sol:StrategyManager",
            "label": "lastReport",
            "offset": 0,
            "slot": "1",
            "type": "t_uint256"
          },
          {
            "astId": 9635,
            "contract": "contracts/StrategyManager.sol:StrategyManager",
            "label": "currentDebt",
            "offset": 0,
            "slot": "2",
            "type": "t_uint256"
          },
          {
            "astId": 9637,
            "contract": "contracts/StrategyManager.sol:StrategyManager",
            "label": "maxDebt",
            "offset": 0,
            "slot": "3",
            "type": "t_uint256"
          }
        ],
        "numberOfBytes": "128"
      },
      "t_uint256": {
        "encoding": "inplace",
        "label": "uint256",
        "numberOfBytes": "32"
      }
    }
  }
}