{
  "address": "0xF121f5ba70cC3e4556AFFE0E586E2c4C12cCA354",
  "abi": [
    {
      "inputs": [
        {
          "internalType": "string",
          "name": "_name",
          "type": "string"
        },
        {
          "internalType": "uint8",
          "name": "_decimals",
          "type": "uint8"
        }
      ],
      "stateMutability": "nonpayable",
      "type": "constructor"
    },
    {
      "anonymous": false,
      "inputs": [
        {
          "indexed": true,
          "internalType": "address",
          "name": "owner",
          "type": "address"
        },
        {
          "indexed": true,
          "internalType": "address",
          "name": "spender",
          "type": "address"
        },
        {
          "indexed": false,
          "internalType": "uint256",
          "name": "value",
          "type": "uint256"
        }
      ],
      "name": "Approval",
      "type": "event"
    },
    {
      "anonymous": false,
      "inputs": [
        {
          "indexed": true,
          "internalType": "address",
          "name": "from",
          "type": "address"
        },
        {
          "indexed": true,
          "internalType": "address",
          "name": "to",
          "type": "address"
        },
        {
          "indexed": false,
          "internalType": "uint256",
          "name": "value",
          "type": "uint256"
        }
      ],
      "name": "Transfer",
      "type": "event"
    },
    {
      "inputs": [
        {
          "internalType": "address",
          "name": "owner",
          "type": "address"
        },
        {
          "internalType": "address",
          "name": "spender",
          "type": "address"
        }
      ],
      "name": "allowance",
      "outputs": [
        {
          "internalType": "uint256",
          "name": "",
          "type": "uint256"
        }
      ],
      "stateMutability": "view",
      "type": "function"
    },
    {
      "inputs": [
        {
          "internalType": "address",
          "name": "spender",
          "type": "address"
        },
        {
          "internalType": "uint256",
          "name": "amount",
          "type": "uint256"
        }
      ],
      "name": "approve",
      "outputs": [
        {
          "internalType": "bool",
          "name": "",
          "type": "bool"
        }
      ],
      "stateMutability": "nonpayable",
      "type": "function"
    },
    {
      "inputs": [
        {
          "internalType": "address",
          "name": "account",
          "type": "address"
        }
      ],
      "name": "balanceOf",
      "outputs": [
        {
          "internalType": "uint256",
          "name": "",
          "type": "uint256"
        }
      ],
      "stateMutability": "view",
      "type": "function"
    },
    {
      "inputs": [],
      "name": "decimals",
      "outputs": [
        {
          "internalType": "uint8",
          "name": "",
          "type": "uint8"
        }
      ],
      "stateMutability": "view",
      "type": "function"
    },
    {
      "inputs": [],
      "name": "decimals_",
      "outputs": [
        {
          "internalType": "uint8",
          "name": "",
          "type": "uint8"
        }
      ],
      "stateMutability": "view",
      "type": "function"
    },
    {
      "inputs": [
        {
          "internalType": "address",
          "name": "spender",
          "type": "address"
        },
        {
          "internalType": "uint256",
          "name": "subtractedValue",
          "type": "uint256"
        }
      ],
      "name": "decreaseAllowance",
      "outputs": [
        {
          "internalType": "bool",
          "name": "",
          "type": "bool"
        }
      ],
      "stateMutability": "nonpayable",
      "type": "function"
    },
    {
      "inputs": [
        {
          "internalType": "address",
          "name": "spender",
          "type": "address"
        },
        {
          "internalType": "uint256",
          "name": "addedValue",
          "type": "uint256"
        }
      ],
      "name": "increaseAllowance",
      "outputs": [
        {
          "internalType": "bool",
          "name": "",
          "type": "bool"
        }
      ],
      "stateMutability": "nonpayable",
      "type": "function"
    },
    {
      "inputs": [
        {
          "internalType": "address",
          "name": "_to",
          "type": "address"
        },
        {
          "internalType": "uint256",
          "name": "_amount",
          "type": "uint256"
        }
      ],
      "name": "mint",
      "outputs": [],
      "stateMutability": "nonpayable",
      "type": "function"
    },
    {
      "inputs": [],
      "name": "name",
      "outputs": [
        {
          "internalType": "string",
          "name": "",
          "type": "string"
        }
      ],
      "stateMutability": "view",
      "type": "function"
    },
    {
      "inputs": [],
      "name": "symbol",
      "outputs": [
        {
          "internalType": "string",
          "name": "",
          "type": "string"
        }
      ],
      "stateMutability": "view",
      "type": "function"
    },
    {
      "inputs": [],
      "name": "totalSupply",
      "outputs": [
        {
          "internalType": "uint256",
          "name": "",
          "type": "uint256"
        }
      ],
      "stateMutability": "view",
      "type": "function"
    },
    {
      "inputs": [
        {
          "internalType": "address",
          "name": "to",
          "type": "address"
        },
        {
          "internalType": "uint256",
          "name": "amount",
          "type": "uint256"
        }
      ],
      "name": "transfer",
      "outputs": [
        {
          "internalType": "bool",
          "name": "",
          "type": "bool"
        }
      ],
      "stateMutability": "nonpayable",
      "type": "function"
    },
    {
      "inputs": [
        {
          "internalType": "address",
          "name": "from",
          "type": "address"
        },
        {
          "internalType": "address",
          "name": "to",
          "type": "address"
        },
        {
          "internalType": "uint256",
          "name": "amount",
          "type": "uint256"
        }
      ],
      "name": "transferFrom",
      "outputs": [
        {
          "internalType": "bool",
          "name": "",
          "type": "bool"
        }
      ],
      "stateMutability": "nonpayable",
      "type": "function"
    }
  ],
  "transactionHash": "0x4d8bd6a529ac5d8278c700fad4087fe2447046a396a6a53e9ec50af2d1e228bd",
  "args": [
    "FXD",
    18
  ],
  "numDeployments": 2,
  "solcInputHash": "0c8cd673b91b68eed92eaa776e080998",
  "bytecode": "0x60806040523480156200001157600080fd5b5060405162000ecf38038062000ecf8339810160408190526200003491620001c9565b8180600362000044828262000324565b50600462000053828262000324565b50506005805460ff191660ff939093169290921790915550620003f49050565b634e487b7160e01b600052604160045260246000fd5b601f19601f83011681018181106001600160401b0382111715620000b157620000b162000073565b6040525050565b6000620000c460405190565b9050620000d2828262000089565b919050565b60006001600160401b03821115620000f357620000f362000073565b601f19601f83011660200192915050565b60005b838110156200012157818101518382015260200162000107565b50506000910152565b6000620001416200013b84620000d7565b620000b8565b9050828152602081018484840111156200015e576200015e600080fd5b6200016b84828562000104565b509392505050565b600082601f830112620001895762000189600080fd5b81516200019b8482602086016200012a565b949350505050565b60ff81168114620001b357600080fd5b50565b8051620001c381620001a3565b92915050565b60008060408385031215620001e157620001e1600080fd5b82516001600160401b03811115620001fc57620001fc600080fd5b6200020a8582860162000173565b92505060206200021d85828601620001b6565b9150509250929050565b634e487b7160e01b600052602260045260246000fd5b6002810460018216806200025257607f821691505b60208210810362000267576200026762000227565b50919050565b6000620001c36200027b8381565b90565b62000289836200026d565b81546008840282811b60001990911b908116901990911617825550505050565b6000620002b88184846200027e565b505050565b81811015620002dc57620002d3600082620002a9565b600101620002bd565b5050565b601f821115620002b8576000818152602090206020601f85010481016020851015620003095750805b6200031d6020601f860104830182620002bd565b5050505050565b81516001600160401b0381111562000340576200034062000073565b6200034c82546200023d565b62000359828285620002e0565b6020601f831160018114620003905760008415620003775750858201515b600019600886021c1981166002860217865550620003ec565b600085815260208120601f198616915b82811015620003c25788850151825560209485019460019092019101620003a0565b86831015620003df5784890151600019601f89166008021c191682555b6001600288020188555050505b505050505050565b610acb80620004046000396000f3fe608060405234801561001057600080fd5b50600436106100af5760003560e01c806306fdde03146100b4578063095ea7b3146100d257806318160ddd146100f257806323b872dd14610103578063313ce56714610116578063395093511461012a57806340c10f191461013d57806370a082311461015257806395d89b411461017b578063a457c2d714610183578063a9059cbb14610196578063dd62ed3e146101a9578063f785ef72146101bc575b600080fd5b6100bc6101c9565b6040516100c9919061060d565b60405180910390f35b6100e56100e0366004610669565b61025b565b6040516100c991906106b0565b6002545b6040516100c991906106c4565b6100e56101113660046106d2565b610275565b60055460ff165b6040516100c9919061072b565b6100e5610138366004610669565b610299565b61015061014b366004610669565b6102bb565b005b6100f6610160366004610739565b6001600160a01b031660009081526020819052604090205490565b6100bc6102c9565b6100e5610191366004610669565b6102d8565b6100e56101a4366004610669565b61031e565b6100f66101b7366004610762565b61032c565b60055461011d9060ff1681565b6060600380546101d8906107ab565b80601f0160208091040260200160405190810160405280929190818152602001828054610204906107ab565b80156102515780601f1061022657610100808354040283529160200191610251565b820191906000526020600020905b81548152906001019060200180831161023457829003601f168201915b5050505050905090565b600033610269818585610357565b60019150505b92915050565b60003361028385828561040b565b61028e858585610455565b506001949350505050565b6000336102698185856102ac838361032c565b6102b691906107ed565b610357565b6102c58282610533565b5050565b6060600480546101d8906107ab565b600033816102e6828661032c565b9050838110156103115760405162461bcd60e51b815260040161030890610845565b60405180910390fd5b61028e8286868403610357565b600033610269818585610455565b6001600160a01b03918216600090815260016020908152604080832093909416825291909152205490565b6001600160a01b03831661037d5760405162461bcd60e51b815260040161030890610896565b6001600160a01b0382166103a35760405162461bcd60e51b8152600401610308906108e5565b6001600160a01b0380841660008181526001602090815260408083209487168084529490915290819020849055517f8c5be1e5ebec7d5bd14f71427d1e84f3dd0314c0f7b2291e5b200ac8c7c3b925906103fe9085906106c4565b60405180910390a3505050565b6000610417848461032c565b9050600019811461044f57818110156104425760405162461bcd60e51b81526004016103089061092c565b61044f8484848403610357565b50505050565b6001600160a01b03831661047b5760405162461bcd60e51b81526004016103089061097e565b6001600160a01b0382166104a15760405162461bcd60e51b8152600401610308906109ce565b6001600160a01b038316600090815260208190526040902054818110156104da5760405162461bcd60e51b815260040161030890610a21565b6001600160a01b038085166000818152602081905260408082208686039055928616808252908390208054860190559151600080516020610a76833981519152906105269086906106c4565b60405180910390a361044f565b6001600160a01b0382166105595760405162461bcd60e51b815260040161030890610a65565b806002600082825461056b91906107ed565b90915550506001600160a01b03821660008181526020819052604080822080548501905551600080516020610a76833981519152906105ab9085906106c4565b60405180910390a35050565b60005b838110156105d25781810151838201526020016105ba565b50506000910152565b60006105e5825190565b8084526020840193506105fc8185602086016105b7565b601f01601f19169290920192915050565b6020808252810161061e81846105db565b9392505050565b60006001600160a01b03821661026f565b61063f81610625565b811461064a57600080fd5b50565b803561026f81610636565b8061063f565b803561026f81610658565b6000806040838503121561067f5761067f600080fd5b600061068b858561064d565b925050602061069c8582860161065e565b9150509250929050565b8015155b82525050565b6020810161026f82846106a6565b806106aa565b6020810161026f82846106be565b6000806000606084860312156106ea576106ea600080fd5b60006106f6868661064d565b93505060206107078682870161064d565b92505060406107188682870161065e565b9150509250925092565b60ff81166106aa565b6020810161026f8284610722565b60006020828403121561074e5761074e600080fd5b600061075a848461064d565b949350505050565b6000806040838503121561077857610778600080fd5b6000610784858561064d565b925050602061069c8582860161064d565b634e487b7160e01b600052602260045260246000fd5b6002810460018216806107bf57607f821691505b6020821081036107d1576107d1610795565b50919050565b634e487b7160e01b600052601160045260246000fd5b8082018082111561026f5761026f6107d7565b602581526000602082017f45524332303a2064656372656173656420616c6c6f77616e63652062656c6f77815264207a65726f60d81b602082015291505b5060400190565b6020808252810161026f81610800565b602481526000602082017f45524332303a20617070726f76652066726f6d20746865207a65726f206164648152637265737360e01b6020820152915061083e565b6020808252810161026f81610855565b602281526000602082017f45524332303a20617070726f766520746f20746865207a65726f206164647265815261737360f01b6020820152915061083e565b6020808252810161026f816108a6565b601d81526000602082017f45524332303a20696e73756666696369656e7420616c6c6f77616e6365000000815291505b5060200190565b6020808252810161026f816108f5565b602581526000602082017f45524332303a207472616e736665722066726f6d20746865207a65726f206164815264647265737360d81b6020820152915061083e565b6020808252810161026f8161093c565b602381526000602082017f45524332303a207472616e7366657220746f20746865207a65726f206164647281526265737360e81b6020820152915061083e565b6020808252810161026f8161098e565b602681526000602082017f45524332303a207472616e7366657220616d6f756e7420657863656564732062815265616c616e636560d01b6020820152915061083e565b6020808252810161026f816109de565b601f81526000602082017f45524332303a206d696e7420746f20746865207a65726f20616464726573730081529150610925565b6020808252810161026f81610a3156feddf252ad1be2c89b69c2b068fc378daa952ba7f163c4a11628f55a4df523b3efa2646970667358221220e7642d3b5d5cc42ae332424f7d7d5afa30ffe7511d1c128bc17e0dcf0e45d77e64736f6c63430008100033",
  "devdoc": {
    "kind": "dev",
    "methods": {
      "allowance(address,address)": {
        "details": "See {IERC20-allowance}."
      },
      "approve(address,uint256)": {
        "details": "See {IERC20-approve}. NOTE: If `amount` is the maximum `uint256`, the allowance is not updated on `transferFrom`. This is semantically equivalent to an infinite approval. Requirements: - `spender` cannot be the zero address."
      },
      "balanceOf(address)": {
        "details": "See {IERC20-balanceOf}."
      },
      "decimals()": {
        "details": "Returns the number of decimals used to get its user representation. For example, if `decimals` equals `2`, a balance of `505` tokens should be displayed to a user as `5.05` (`505 / 10 ** 2`). Tokens usually opt for a value of 18, imitating the relationship between Ether and Wei. This is the default value returned by this function, unless it's overridden. NOTE: This information is only used for _display_ purposes: it in no way affects any of the arithmetic of the contract, including {IERC20-balanceOf} and {IERC20-transfer}."
      },
      "decreaseAllowance(address,uint256)": {
        "details": "Atomically decreases the allowance granted to `spender` by the caller. This is an alternative to {approve} that can be used as a mitigation for problems described in {IERC20-approve}. Emits an {Approval} event indicating the updated allowance. Requirements: - `spender` cannot be the zero address. - `spender` must have allowance for the caller of at least `subtractedValue`."
      },
      "increaseAllowance(address,uint256)": {
        "details": "Atomically increases the allowance granted to `spender` by the caller. This is an alternative to {approve} that can be used as a mitigation for problems described in {IERC20-approve}. Emits an {Approval} event indicating the updated allowance. Requirements: - `spender` cannot be the zero address."
      },
      "name()": {
        "details": "Returns the name of the token."
      },
      "symbol()": {
        "details": "Returns the symbol of the token, usually a shorter version of the name."
      },
      "totalSupply()": {
        "details": "See {IERC20-totalSupply}."
      },
      "transfer(address,uint256)": {
        "details": "See {IERC20-transfer}. Requirements: - `to` cannot be the zero address. - the caller must have a balance of at least `amount`."
      },
      "transferFrom(address,address,uint256)": {
        "details": "See {IERC20-transferFrom}. Emits an {Approval} event indicating the updated allowance. This is not required by the EIP. See the note at the beginning of {ERC20}. NOTE: Does not update the allowance if the current allowance is the maximum `uint256`. Requirements: - `from` and `to` cannot be the zero address. - `from` must have a balance of at least `amount`. - the caller must have allowance for ``from``'s tokens of at least `amount`."
      }
    },
    "version": 1
  },
  "userdoc": {
    "kind": "user",
    "methods": {},
    "version": 1
  },
  "storageLayout": {
    "storage": [
      {
        "astId": 469,
        "contract": "contracts/test/mocks/Token.sol:Token",
        "label": "_balances",
        "offset": 0,
        "slot": "0",
        "type": "t_mapping(t_address,t_uint256)"
      },
      {
        "astId": 475,
        "contract": "contracts/test/mocks/Token.sol:Token",
        "label": "_allowances",
        "offset": 0,
        "slot": "1",
        "type": "t_mapping(t_address,t_mapping(t_address,t_uint256))"
      },
      {
        "astId": 477,
        "contract": "contracts/test/mocks/Token.sol:Token",
        "label": "_totalSupply",
        "offset": 0,
        "slot": "2",
        "type": "t_uint256"
      },
      {
        "astId": 479,
        "contract": "contracts/test/mocks/Token.sol:Token",
        "label": "_name",
        "offset": 0,
        "slot": "3",
        "type": "t_string_storage"
      },
      {
        "astId": 481,
        "contract": "contracts/test/mocks/Token.sol:Token",
        "label": "_symbol",
        "offset": 0,
        "slot": "4",
        "type": "t_string_storage"
      },
      {
        "astId": 10600,
        "contract": "contracts/test/mocks/Token.sol:Token",
        "label": "decimals_",
        "offset": 0,
        "slot": "5",
        "type": "t_uint8"
      }
    ],
    "types": {
      "t_address": {
        "encoding": "inplace",
        "label": "address",
        "numberOfBytes": "20"
      },
      "t_mapping(t_address,t_mapping(t_address,t_uint256))": {
        "encoding": "mapping",
        "key": "t_address",
        "label": "mapping(address => mapping(address => uint256))",
        "numberOfBytes": "32",
        "value": "t_mapping(t_address,t_uint256)"
      },
      "t_mapping(t_address,t_uint256)": {
        "encoding": "mapping",
        "key": "t_address",
        "label": "mapping(address => uint256)",
        "numberOfBytes": "32",
        "value": "t_uint256"
      },
      "t_string_storage": {
        "encoding": "bytes",
        "label": "string",
        "numberOfBytes": "32"
      },
      "t_uint256": {
        "encoding": "inplace",
        "label": "uint256",
        "numberOfBytes": "32"
      },
      "t_uint8": {
        "encoding": "inplace",
        "label": "uint8",
        "numberOfBytes": "1"
      }
    }
  }
}