{
  "address": "0xE291820E9Af7c48F40DEf6525926e3a30ecFFAE8",
  "abi": [
    {
      "inputs": [],
      "name": "AlreadyInitialized",
      "type": "error"
    },
    {
      "inputs": [],
      "name": "AmountTooHigh",
      "type": "error"
    },
    {
      "inputs": [],
      "name": "DebtDidntChange",
      "type": "error"
    },
    {
      "inputs": [
        {
          "internalType": "uint256",
          "name": "newDebt",
          "type": "uint256"
        },
        {
          "internalType": "uint256",
          "name": "maxDebt",
          "type": "uint256"
        }
      ],
      "name": "DebtHigherThanMaxDebt",
      "type": "error"
    },
    {
      "inputs": [],
      "name": "ERC20ApprovalFailed",
      "type": "error"
    },
    {
      "inputs": [
        {
          "internalType": "uint256",
          "name": "currentAllowance",
          "type": "uint256"
        }
      ],
      "name": "ERC20InsufficientAllowance",
      "type": "error"
    },
    {
      "inputs": [],
      "name": "ERC20PermitExpired",
      "type": "error"
    },
    {
      "inputs": [
        {
          "internalType": "address",
          "name": "recoveredAddress",
          "type": "address"
        }
      ],
      "name": "ERC20PermitInvalidSignature",
      "type": "error"
    },
    {
      "inputs": [],
      "name": "ERC20TransferFailed",
      "type": "error"
    },
    {
      "inputs": [
        {
          "internalType": "uint256",
          "name": "recipientMaxDeposit",
          "type": "uint256"
        }
      ],
      "name": "ExceedDepositLimit",
      "type": "error"
    },
    {
      "inputs": [],
      "name": "FeeExceedsMax",
      "type": "error"
    },
    {
      "inputs": [
        {
          "internalType": "address",
          "name": "strategy",
          "type": "address"
        }
      ],
      "name": "InactiveStrategy",
      "type": "error"
    },
    {
      "inputs": [],
      "name": "InactiveVault",
      "type": "error"
    },
    {
      "inputs": [
        {
          "internalType": "uint256",
          "name": "currTotalIdle",
          "type": "uint256"
        },
        {
          "internalType": "uint256",
          "name": "requestedAssets",
          "type": "uint256"
        }
      ],
      "name": "InsufficientAssets",
      "type": "error"
    },
    {
      "inputs": [],
      "name": "InsufficientFunds",
      "type": "error"
    },
    {
      "inputs": [
        {
          "internalType": "uint256",
          "name": "balanceOfOwner",
          "type": "uint256"
        }
      ],
      "name": "InsufficientShares",
      "type": "error"
    },
    {
      "inputs": [
        {
          "internalType": "address",
          "name": "asset",
          "type": "address"
        }
      ],
      "name": "InvalidAsset",
      "type": "error"
    },
    {
      "inputs": [],
      "name": "InvalidAssetDecimals",
      "type": "error"
    },
    {
      "inputs": [],
      "name": "MaxLoss",
      "type": "error"
    },
    {
      "inputs": [],
      "name": "ProfitUnlockTimeTooLong",
      "type": "error"
    },
    {
      "inputs": [],
      "name": "StrategyAlreadyActive",
      "type": "error"
    },
    {
      "inputs": [
        {
          "internalType": "uint256",
          "name": "strageyCurrentDebt",
          "type": "uint256"
        }
      ],
      "name": "StrategyDebtIsLessThanAssetsNeeded",
      "type": "error"
    },
    {
      "inputs": [
        {
          "internalType": "uint256",
          "name": "debt",
          "type": "uint256"
        }
      ],
      "name": "StrategyHasDebt",
      "type": "error"
    },
    {
      "inputs": [
        {
          "internalType": "uint256",
          "name": "unrealisedLosses",
          "type": "uint256"
        }
      ],
      "name": "StrategyHasUnrealisedLosses",
      "type": "error"
    },
    {
      "inputs": [],
      "name": "TooMuchLoss",
      "type": "error"
    },
    {
      "inputs": [],
      "name": "UsingDepositLimit",
      "type": "error"
    },
    {
      "inputs": [],
      "name": "UsingModule",
      "type": "error"
    },
    {
      "inputs": [],
      "name": "ZeroAddress",
      "type": "error"
    },
    {
      "inputs": [],
      "name": "ZeroValue",
      "type": "error"
    },
    {
      "anonymous": false,
      "inputs": [
        {
          "indexed": true,
          "internalType": "address",
          "name": "owner",
          "type": "address"
        },
        {
          "indexed": true,
          "internalType": "address",
          "name": "spender",
          "type": "address"
        },
        {
          "indexed": false,
          "internalType": "uint256",
          "name": "value",
          "type": "uint256"
        }
      ],
      "name": "Approval",
      "type": "event"
    },
    {
      "anonymous": false,
      "inputs": [
        {
          "indexed": true,
          "internalType": "address",
          "name": "strategy",
          "type": "address"
        },
        {
          "indexed": false,
          "internalType": "uint256",
          "name": "amount",
          "type": "uint256"
        }
      ],
      "name": "DebtPurchased",
      "type": "event"
    },
    {
      "anonymous": false,
      "inputs": [
        {
          "indexed": true,
          "internalType": "address",
          "name": "strategy",
          "type": "address"
        },
        {
          "indexed": false,
          "internalType": "uint256",
          "name": "currentDebt",
          "type": "uint256"
        },
        {
          "indexed": false,
          "internalType": "uint256",
          "name": "newDebt",
          "type": "uint256"
        }
      ],
      "name": "DebtUpdated",
      "type": "event"
    },
    {
      "anonymous": false,
      "inputs": [
        {
          "indexed": true,
          "internalType": "address",
          "name": "sender",
          "type": "address"
        },
        {
          "indexed": true,
          "internalType": "address",
          "name": "owner",
          "type": "address"
        },
        {
          "indexed": false,
          "internalType": "uint256",
          "name": "assets",
          "type": "uint256"
        },
        {
          "indexed": false,
          "internalType": "uint256",
          "name": "shares",
          "type": "uint256"
        }
      ],
      "name": "Deposit",
      "type": "event"
    },
    {
      "anonymous": false,
      "inputs": [
        {
          "indexed": true,
          "internalType": "bytes32",
          "name": "role",
          "type": "bytes32"
        },
        {
          "indexed": true,
          "internalType": "bytes32",
          "name": "previousAdminRole",
          "type": "bytes32"
        },
        {
          "indexed": true,
          "internalType": "bytes32",
          "name": "newAdminRole",
          "type": "bytes32"
        }
      ],
      "name": "RoleAdminChanged",
      "type": "event"
    },
    {
      "anonymous": false,
      "inputs": [
        {
          "indexed": true,
          "internalType": "bytes32",
          "name": "role",
          "type": "bytes32"
        },
        {
          "indexed": true,
          "internalType": "address",
          "name": "account",
          "type": "address"
        },
        {
          "indexed": true,
          "internalType": "address",
          "name": "sender",
          "type": "address"
        }
      ],
      "name": "RoleGranted",
      "type": "event"
    },
    {
      "anonymous": false,
      "inputs": [
        {
          "indexed": true,
          "internalType": "bytes32",
          "name": "role",
          "type": "bytes32"
        },
        {
          "indexed": true,
          "internalType": "address",
          "name": "account",
          "type": "address"
        },
        {
          "indexed": true,
          "internalType": "address",
          "name": "sender",
          "type": "address"
        }
      ],
      "name": "RoleRevoked",
      "type": "event"
    },
    {
      "anonymous": false,
      "inputs": [
        {
          "indexed": true,
          "internalType": "address",
          "name": "account",
          "type": "address"
        },
        {
          "indexed": false,
          "internalType": "bytes32",
          "name": "role",
          "type": "bytes32"
        }
      ],
      "name": "RoleSet",
      "type": "event"
    },
    {
      "anonymous": false,
      "inputs": [
        {
          "indexed": true,
          "internalType": "bytes32",
          "name": "role",
          "type": "bytes32"
        },
        {
          "indexed": false,
          "internalType": "enum RoleStatusChange",
          "name": "status",
          "type": "uint8"
        }
      ],
      "name": "RoleStatusChanged",
      "type": "event"
    },
    {
      "anonymous": false,
      "inputs": [],
      "name": "Shutdown",
      "type": "event"
    },
    {
      "anonymous": false,
      "inputs": [
        {
          "indexed": true,
          "internalType": "address",
          "name": "strategy",
          "type": "address"
        },
        {
          "indexed": false,
          "internalType": "enum StrategyChangeType",
          "name": "changeType",
          "type": "uint8"
        }
      ],
      "name": "StrategyChanged",
      "type": "event"
    },
    {
      "anonymous": false,
      "inputs": [
        {
          "indexed": true,
          "internalType": "address",
          "name": "strategy",
          "type": "address"
        },
        {
          "indexed": false,
          "internalType": "uint256",
          "name": "gain",
          "type": "uint256"
        },
        {
          "indexed": false,
          "internalType": "uint256",
          "name": "loss",
          "type": "uint256"
        },
        {
          "indexed": false,
          "internalType": "uint256",
          "name": "currentDebt",
          "type": "uint256"
        },
        {
          "indexed": false,
          "internalType": "uint256",
          "name": "protocolFees",
          "type": "uint256"
        },
        {
          "indexed": false,
          "internalType": "uint256",
          "name": "totalFees",
          "type": "uint256"
        },
        {
          "indexed": false,
          "internalType": "uint256",
          "name": "totalRefunds",
          "type": "uint256"
        }
      ],
      "name": "StrategyReported",
      "type": "event"
    },
    {
      "anonymous": false,
      "inputs": [
        {
          "indexed": true,
          "internalType": "address",
          "name": "from",
          "type": "address"
        },
        {
          "indexed": true,
          "internalType": "address",
          "name": "to",
          "type": "address"
        },
        {
          "indexed": false,
          "internalType": "uint256",
          "name": "value",
          "type": "uint256"
        }
      ],
      "name": "Transfer",
      "type": "event"
    },
    {
      "anonymous": false,
      "inputs": [
        {
          "indexed": false,
          "internalType": "address",
          "name": "accountant",
          "type": "address"
        }
      ],
      "name": "UpdatedAccountant",
      "type": "event"
    },
    {
      "anonymous": false,
      "inputs": [
        {
          "indexed": false,
          "internalType": "address[]",
          "name": "newDefaultQueue",
          "type": "address[]"
        }
      ],
      "name": "UpdatedDefaultQueue",
      "type": "event"
    },
    {
      "anonymous": false,
      "inputs": [
        {
          "indexed": false,
          "internalType": "uint256",
          "name": "depositLimit",
          "type": "uint256"
        }
      ],
      "name": "UpdatedDepositLimit",
      "type": "event"
    },
    {
      "anonymous": false,
      "inputs": [
        {
          "indexed": false,
          "internalType": "address",
          "name": "depositLimitModule",
          "type": "address"
        }
      ],
      "name": "UpdatedDepositLimitModule",
      "type": "event"
    },
    {
      "anonymous": false,
      "inputs": [
        {
          "indexed": false,
          "internalType": "uint256",
          "name": "totalFees",
          "type": "uint256"
        },
        {
          "indexed": false,
          "internalType": "uint256",
          "name": "totalRefunds",
          "type": "uint256"
        },
        {
          "indexed": false,
          "internalType": "uint256",
          "name": "protocolFees",
          "type": "uint256"
        },
        {
          "indexed": false,
          "internalType": "address",
          "name": "protocolFeeRecipient",
          "type": "address"
        }
      ],
      "name": "UpdatedFees",
      "type": "event"
    },
    {
      "anonymous": false,
      "inputs": [
        {
          "indexed": true,
          "internalType": "address",
          "name": "sender",
          "type": "address"
        },
        {
          "indexed": true,
          "internalType": "address",
          "name": "strategy",
          "type": "address"
        },
        {
          "indexed": false,
          "internalType": "uint256",
          "name": "newDebt",
          "type": "uint256"
        }
      ],
      "name": "UpdatedMaxDebtForStrategy",
      "type": "event"
    },
    {
      "anonymous": false,
      "inputs": [
        {
          "indexed": false,
          "internalType": "uint256",
          "name": "minimumTotalIdle",
          "type": "uint256"
        }
      ],
      "name": "UpdatedMinimumTotalIdle",
      "type": "event"
    },
    {
      "anonymous": false,
      "inputs": [
        {
          "indexed": false,
          "internalType": "uint256",
          "name": "profitMaxUnlockTime",
          "type": "uint256"
        }
      ],
      "name": "UpdatedProfitMaxUnlockTime",
      "type": "event"
    },
    {
      "anonymous": false,
      "inputs": [
        {
          "indexed": false,
          "internalType": "address",
          "name": "roleManager",
          "type": "address"
        }
      ],
      "name": "UpdatedRoleManager",
      "type": "event"
    },
    {
      "anonymous": false,
      "inputs": [
        {
          "indexed": false,
          "internalType": "bool",
          "name": "useDefaultQueue",
          "type": "bool"
        }
      ],
      "name": "UpdatedUseDefaultQueue",
      "type": "event"
    },
    {
      "anonymous": false,
      "inputs": [
        {
          "indexed": false,
          "internalType": "address",
          "name": "withdrawLimitModule",
          "type": "address"
        }
      ],
      "name": "UpdatedWithdrawLimitModule",
      "type": "event"
    },
    {
      "anonymous": false,
      "inputs": [
        {
          "indexed": true,
          "internalType": "address",
          "name": "sender",
          "type": "address"
        },
        {
          "indexed": true,
          "internalType": "address",
          "name": "receiver",
          "type": "address"
        },
        {
          "indexed": true,
          "internalType": "address",
          "name": "owner",
          "type": "address"
        },
        {
          "indexed": false,
          "internalType": "uint256",
          "name": "assets",
          "type": "uint256"
        },
        {
          "indexed": false,
          "internalType": "uint256",
          "name": "shares",
          "type": "uint256"
        }
      ],
      "name": "Withdraw",
      "type": "event"
    },
    {
      "inputs": [],
      "name": "API_VERSION",
      "outputs": [
        {
          "internalType": "string",
          "name": "",
          "type": "string"
        }
      ],
      "stateMutability": "view",
      "type": "function"
    },
    {
      "inputs": [],
      "name": "DEBT_PURCHASER",
      "outputs": [
        {
          "internalType": "bytes32",
          "name": "",
          "type": "bytes32"
        }
      ],
      "stateMutability": "view",
      "type": "function"
    },
    {
      "inputs": [],
      "name": "DEFAULT_ADMIN_ROLE",
      "outputs": [
        {
          "internalType": "bytes32",
          "name": "",
          "type": "bytes32"
        }
      ],
      "stateMutability": "view",
      "type": "function"
    },
    {
      "inputs": [],
      "name": "DOMAIN_SEPARATOR",
      "outputs": [
        {
          "internalType": "bytes32",
          "name": "",
          "type": "bytes32"
        }
      ],
      "stateMutability": "view",
      "type": "function"
    },
    {
      "inputs": [],
      "name": "DOMAIN_TYPE_HASH",
      "outputs": [
        {
          "internalType": "bytes32",
          "name": "",
          "type": "bytes32"
        }
      ],
      "stateMutability": "view",
      "type": "function"
    },
    {
      "inputs": [],
      "name": "MAX_BPS",
      "outputs": [
        {
          "internalType": "uint256",
          "name": "",
          "type": "uint256"
        }
      ],
      "stateMutability": "view",
      "type": "function"
    },
    {
      "inputs": [],
      "name": "MAX_BPS_EXTENDED",
      "outputs": [
        {
          "internalType": "uint256",
          "name": "",
          "type": "uint256"
        }
      ],
      "stateMutability": "view",
      "type": "function"
    },
    {
      "inputs": [],
      "name": "MAX_FEE_BPS",
      "outputs": [
        {
          "internalType": "uint16",
          "name": "",
          "type": "uint16"
        }
      ],
      "stateMutability": "view",
      "type": "function"
    },
    {
      "inputs": [],
      "name": "MAX_QUEUE",
      "outputs": [
        {
          "internalType": "uint256",
          "name": "",
          "type": "uint256"
        }
      ],
      "stateMutability": "view",
      "type": "function"
    },
    {
      "inputs": [],
      "name": "ONE_YEAR",
      "outputs": [
        {
          "internalType": "uint256",
          "name": "",
          "type": "uint256"
        }
      ],
      "stateMutability": "view",
      "type": "function"
    },
    {
      "inputs": [],
      "name": "PERMIT_TYPE_HASH",
      "outputs": [
        {
          "internalType": "bytes32",
          "name": "",
          "type": "bytes32"
        }
      ],
      "stateMutability": "view",
      "type": "function"
    },
    {
      "inputs": [],
      "name": "REPORTING_MANAGER",
      "outputs": [
        {
          "internalType": "bytes32",
          "name": "",
          "type": "bytes32"
        }
      ],
      "stateMutability": "view",
      "type": "function"
    },
    {
      "inputs": [],
      "name": "STRATEGY_MANAGER",
      "outputs": [
        {
          "internalType": "bytes32",
          "name": "",
          "type": "bytes32"
        }
      ],
      "stateMutability": "view",
      "type": "function"
    },
    {
      "inputs": [],
      "name": "accountant",
      "outputs": [
        {
          "internalType": "address",
          "name": "",
          "type": "address"
        }
      ],
      "stateMutability": "view",
      "type": "function"
    },
    {
      "inputs": [
        {
          "internalType": "address",
          "name": "newStrategy",
          "type": "address"
        }
      ],
      "name": "addStrategy",
      "outputs": [],
      "stateMutability": "nonpayable",
      "type": "function"
    },
    {
      "inputs": [
        {
          "internalType": "address",
          "name": "owner",
          "type": "address"
        },
        {
          "internalType": "address",
          "name": "spender",
          "type": "address"
        }
      ],
      "name": "allowance",
      "outputs": [
        {
          "internalType": "uint256",
          "name": "",
          "type": "uint256"
        }
      ],
      "stateMutability": "view",
      "type": "function"
    },
    {
      "inputs": [
        {
          "internalType": "address",
          "name": "spender",
          "type": "address"
        },
        {
          "internalType": "uint256",
          "name": "amount",
          "type": "uint256"
        }
      ],
      "name": "approve",
      "outputs": [
        {
          "internalType": "bool",
          "name": "",
          "type": "bool"
        }
      ],
      "stateMutability": "nonpayable",
      "type": "function"
    },
    {
      "inputs": [
        {
          "internalType": "address",
          "name": "strategy",
          "type": "address"
        },
        {
          "internalType": "uint256",
          "name": "assetsNeeded",
          "type": "uint256"
        }
      ],
      "name": "assessShareOfUnrealisedLosses",
      "outputs": [
        {
          "internalType": "uint256",
          "name": "",
          "type": "uint256"
        }
      ],
      "stateMutability": "view",
      "type": "function"
    },
    {
      "inputs": [],
      "name": "asset",
      "outputs": [
        {
          "internalType": "address",
          "name": "",
          "type": "address"
        }
      ],
      "stateMutability": "view",
      "type": "function"
    },
    {
      "inputs": [],
      "name": "assetContract",
      "outputs": [
        {
          "internalType": "contract IERC20",
          "name": "",
          "type": "address"
        }
      ],
      "stateMutability": "view",
      "type": "function"
    },
    {
      "inputs": [
        {
          "internalType": "address",
          "name": "addr",
          "type": "address"
        }
      ],
      "name": "balanceOf",
      "outputs": [
        {
          "internalType": "uint256",
          "name": "",
          "type": "uint256"
        }
      ],
      "stateMutability": "view",
      "type": "function"
    },
    {
      "inputs": [
        {
          "internalType": "address",
          "name": "strategy",
          "type": "address"
        },
        {
          "internalType": "uint256",
          "name": "amount",
          "type": "uint256"
        }
      ],
      "name": "buyDebt",
      "outputs": [],
      "stateMutability": "nonpayable",
      "type": "function"
    },
    {
      "inputs": [
        {
          "internalType": "uint256",
          "name": "shares",
          "type": "uint256"
        }
      ],
      "name": "convertToAssets",
      "outputs": [
        {
          "internalType": "uint256",
          "name": "",
          "type": "uint256"
        }
      ],
      "stateMutability": "view",
      "type": "function"
    },
    {
      "inputs": [
        {
          "internalType": "uint256",
          "name": "assets",
          "type": "uint256"
        }
      ],
      "name": "convertToShares",
      "outputs": [
        {
          "internalType": "uint256",
          "name": "",
          "type": "uint256"
        }
      ],
      "stateMutability": "view",
      "type": "function"
    },
    {
      "inputs": [],
      "name": "customFeeBPS",
      "outputs": [
        {
          "internalType": "uint16",
          "name": "",
          "type": "uint16"
        }
      ],
      "stateMutability": "view",
      "type": "function"
    },
    {
      "inputs": [],
      "name": "customFeeRecipient",
      "outputs": [
        {
          "internalType": "address",
          "name": "",
          "type": "address"
        }
      ],
      "stateMutability": "view",
      "type": "function"
    },
    {
      "inputs": [],
      "name": "customFees",
      "outputs": [
        {
          "internalType": "uint256",
          "name": "totalFees",
          "type": "uint256"
        },
        {
          "internalType": "uint256",
          "name": "totalRefunds",
          "type": "uint256"
        },
        {
          "internalType": "uint256",
          "name": "protocolFees",
          "type": "uint256"
        },
        {
          "internalType": "address",
          "name": "protocolFeeRecipient",
          "type": "address"
        }
      ],
      "stateMutability": "view",
      "type": "function"
    },
    {
      "inputs": [],
      "name": "decimals",
      "outputs": [
        {
          "internalType": "uint8",
          "name": "",
          "type": "uint8"
        }
      ],
      "stateMutability": "view",
      "type": "function"
    },
    {
      "inputs": [],
      "name": "decimalsValue",
      "outputs": [
        {
          "internalType": "uint8",
          "name": "",
          "type": "uint8"
        }
      ],
      "stateMutability": "view",
      "type": "function"
    },
    {
      "inputs": [
        {
          "internalType": "uint256",
          "name": "",
          "type": "uint256"
        }
      ],
      "name": "defaultQueue",
      "outputs": [
        {
          "internalType": "address",
          "name": "",
          "type": "address"
        }
      ],
      "stateMutability": "view",
      "type": "function"
    },
    {
      "inputs": [
        {
          "internalType": "uint256",
          "name": "assets",
          "type": "uint256"
        },
        {
          "internalType": "address",
          "name": "receiver",
          "type": "address"
        }
      ],
      "name": "deposit",
      "outputs": [
        {
          "internalType": "uint256",
          "name": "",
          "type": "uint256"
        }
      ],
      "stateMutability": "nonpayable",
      "type": "function"
    },
    {
      "inputs": [],
      "name": "depositLimit",
      "outputs": [
        {
          "internalType": "uint256",
          "name": "",
          "type": "uint256"
        }
      ],
      "stateMutability": "view",
      "type": "function"
    },
    {
      "inputs": [],
      "name": "depositLimitModule",
      "outputs": [
        {
          "internalType": "address",
          "name": "",
          "type": "address"
        }
      ],
      "stateMutability": "view",
      "type": "function"
    },
    {
      "inputs": [],
      "name": "factoryAddress",
      "outputs": [
        {
          "internalType": "address",
          "name": "",
          "type": "address"
        }
      ],
      "stateMutability": "view",
      "type": "function"
    },
    {
      "inputs": [],
      "name": "fees",
      "outputs": [
        {
          "components": [
            {
              "internalType": "uint256",
              "name": "totalFees",
              "type": "uint256"
            },
            {
              "internalType": "uint256",
              "name": "totalRefunds",
              "type": "uint256"
            },
            {
              "internalType": "uint256",
              "name": "protocolFees",
              "type": "uint256"
            },
            {
              "internalType": "address",
              "name": "protocolFeeRecipient",
              "type": "address"
            }
          ],
          "internalType": "struct FeeAssessment",
          "name": "",
          "type": "tuple"
        }
      ],
      "stateMutability": "view",
      "type": "function"
    },
    {
      "inputs": [
        {
          "internalType": "address",
          "name": "strategy",
          "type": "address"
        }
      ],
      "name": "forceRevokeStrategy",
      "outputs": [],
      "stateMutability": "nonpayable",
      "type": "function"
    },
    {
      "inputs": [],
      "name": "fullProfitUnlockDate",
      "outputs": [
        {
          "internalType": "uint256",
          "name": "",
          "type": "uint256"
        }
      ],
      "stateMutability": "view",
      "type": "function"
    },
    {
      "inputs": [],
      "name": "futureRoleManager",
      "outputs": [
        {
          "internalType": "address",
          "name": "",
          "type": "address"
        }
      ],
      "stateMutability": "view",
      "type": "function"
    },
    {
      "inputs": [
        {
          "internalType": "address",
          "name": "strategy",
          "type": "address"
        }
      ],
      "name": "getDebt",
      "outputs": [
        {
          "internalType": "uint256",
          "name": "",
          "type": "uint256"
        }
      ],
      "stateMutability": "view",
      "type": "function"
    },
    {
      "inputs": [],
      "name": "getDefaultQueueLength",
      "outputs": [
        {
          "internalType": "uint256",
          "name": "length",
          "type": "uint256"
        }
      ],
      "stateMutability": "view",
      "type": "function"
    },
    {
      "inputs": [
        {
          "internalType": "bytes32",
          "name": "role",
          "type": "bytes32"
        }
      ],
      "name": "getRoleAdmin",
      "outputs": [
        {
          "internalType": "bytes32",
          "name": "",
          "type": "bytes32"
        }
      ],
      "stateMutability": "view",
      "type": "function"
    },
    {
      "inputs": [
        {
          "internalType": "bytes32",
          "name": "role",
          "type": "bytes32"
        },
        {
          "internalType": "address",
          "name": "account",
          "type": "address"
        }
      ],
      "name": "grantRole",
      "outputs": [],
      "stateMutability": "nonpayable",
      "type": "function"
    },
    {
      "inputs": [
        {
          "internalType": "bytes32",
          "name": "role",
          "type": "bytes32"
        },
        {
          "internalType": "address",
          "name": "account",
          "type": "address"
        }
      ],
      "name": "hasRole",
      "outputs": [
        {
          "internalType": "bool",
          "name": "",
          "type": "bool"
        }
      ],
      "stateMutability": "view",
      "type": "function"
    },
    {
      "inputs": [
        {
          "internalType": "uint256",
          "name": "_profitMaxUnlockTime",
          "type": "uint256"
        },
        {
          "internalType": "address",
          "name": "_asset",
          "type": "address"
        },
        {
          "internalType": "uint8",
          "name": "_decimals",
          "type": "uint8"
        },
        {
          "internalType": "string",
          "name": "_name",
          "type": "string"
        },
        {
          "internalType": "string",
          "name": "_symbol",
          "type": "string"
        },
        {
          "internalType": "address",
          "name": "_accountant",
          "type": "address"
        }
      ],
      "name": "initialize",
      "outputs": [],
      "stateMutability": "nonpayable",
      "type": "function"
    },
    {
      "inputs": [],
      "name": "lastProfitUpdate",
      "outputs": [
        {
          "internalType": "uint256",
          "name": "",
          "type": "uint256"
        }
      ],
      "stateMutability": "view",
      "type": "function"
    },
    {
      "inputs": [
        {
          "internalType": "address",
          "name": "receiver",
          "type": "address"
        }
      ],
      "name": "maxDeposit",
      "outputs": [
        {
          "internalType": "uint256",
          "name": "",
          "type": "uint256"
        }
      ],
      "stateMutability": "view",
      "type": "function"
    },
    {
      "inputs": [
        {
          "internalType": "address",
          "name": "receiver",
          "type": "address"
        }
      ],
      "name": "maxMint",
      "outputs": [
        {
          "internalType": "uint256",
          "name": "",
          "type": "uint256"
        }
      ],
      "stateMutability": "view",
      "type": "function"
    },
    {
      "inputs": [
        {
          "internalType": "address",
          "name": "owner",
          "type": "address"
        },
        {
          "internalType": "uint256",
          "name": "maxLoss",
          "type": "uint256"
        },
        {
          "internalType": "address[]",
          "name": "_strategies",
          "type": "address[]"
        }
      ],
      "name": "maxRedeem",
      "outputs": [
        {
          "internalType": "uint256",
          "name": "",
          "type": "uint256"
        }
      ],
      "stateMutability": "view",
      "type": "function"
    },
    {
      "inputs": [
        {
          "internalType": "address",
          "name": "owner",
          "type": "address"
        },
        {
          "internalType": "uint256",
          "name": "maxLoss",
          "type": "uint256"
        },
        {
          "internalType": "address[]",
          "name": "_strategies",
          "type": "address[]"
        }
      ],
      "name": "maxWithdraw",
      "outputs": [
        {
          "internalType": "uint256",
          "name": "",
          "type": "uint256"
        }
      ],
      "stateMutability": "view",
      "type": "function"
    },
    {
      "inputs": [],
      "name": "minimumTotalIdle",
      "outputs": [
        {
          "internalType": "uint256",
          "name": "",
          "type": "uint256"
        }
      ],
      "stateMutability": "view",
      "type": "function"
    },
    {
      "inputs": [
        {
          "internalType": "uint256",
          "name": "shares",
          "type": "uint256"
        },
        {
          "internalType": "address",
          "name": "receiver",
          "type": "address"
        }
      ],
      "name": "mint",
      "outputs": [
        {
          "internalType": "uint256",
          "name": "",
          "type": "uint256"
        }
      ],
      "stateMutability": "nonpayable",
      "type": "function"
    },
    {
      "inputs": [],
      "name": "name",
      "outputs": [
        {
          "internalType": "string",
          "name": "",
          "type": "string"
        }
      ],
      "stateMutability": "view",
      "type": "function"
    },
    {
      "inputs": [
        {
          "internalType": "address",
          "name": "",
          "type": "address"
        }
      ],
      "name": "nonces",
      "outputs": [
        {
          "internalType": "uint256",
          "name": "",
          "type": "uint256"
        }
      ],
      "stateMutability": "view",
      "type": "function"
    },
    {
      "inputs": [
        {
          "internalType": "bytes32",
          "name": "",
          "type": "bytes32"
        }
      ],
      "name": "openRoles",
      "outputs": [
        {
          "internalType": "bool",
          "name": "",
          "type": "bool"
        }
      ],
      "stateMutability": "view",
      "type": "function"
    },
    {
      "inputs": [
        {
          "internalType": "address",
          "name": "owner",
          "type": "address"
        },
        {
          "internalType": "address",
          "name": "spender",
          "type": "address"
        },
        {
          "internalType": "uint256",
          "name": "amount",
          "type": "uint256"
        },
        {
          "internalType": "uint256",
          "name": "deadline",
          "type": "uint256"
        },
        {
          "internalType": "uint8",
          "name": "v",
          "type": "uint8"
        },
        {
          "internalType": "bytes32",
          "name": "r",
          "type": "bytes32"
        },
        {
          "internalType": "bytes32",
          "name": "s",
          "type": "bytes32"
        }
      ],
      "name": "permit",
      "outputs": [
        {
          "internalType": "bool",
          "name": "",
          "type": "bool"
        }
      ],
      "stateMutability": "nonpayable",
      "type": "function"
    },
    {
      "inputs": [
        {
          "internalType": "uint256",
          "name": "assets",
          "type": "uint256"
        }
      ],
      "name": "previewDeposit",
      "outputs": [
        {
          "internalType": "uint256",
          "name": "",
          "type": "uint256"
        }
      ],
      "stateMutability": "view",
      "type": "function"
    },
    {
      "inputs": [
        {
          "internalType": "uint256",
          "name": "shares",
          "type": "uint256"
        }
      ],
      "name": "previewMint",
      "outputs": [
        {
          "internalType": "uint256",
          "name": "",
          "type": "uint256"
        }
      ],
      "stateMutability": "view",
      "type": "function"
    },
    {
      "inputs": [
        {
          "internalType": "uint256",
          "name": "shares",
          "type": "uint256"
        }
      ],
      "name": "previewRedeem",
      "outputs": [
        {
          "internalType": "uint256",
          "name": "",
          "type": "uint256"
        }
      ],
      "stateMutability": "view",
      "type": "function"
    },
    {
      "inputs": [
        {
          "internalType": "uint256",
          "name": "assets",
          "type": "uint256"
        }
      ],
      "name": "previewWithdraw",
      "outputs": [
        {
          "internalType": "uint256",
          "name": "",
          "type": "uint256"
        }
      ],
      "stateMutability": "view",
      "type": "function"
    },
    {
      "inputs": [],
      "name": "pricePerShare",
      "outputs": [
        {
          "internalType": "uint256",
          "name": "",
          "type": "uint256"
        }
      ],
      "stateMutability": "view",
      "type": "function"
    },
    {
      "inputs": [
        {
          "internalType": "address",
          "name": "strategy",
          "type": "address"
        }
      ],
      "name": "processReport",
      "outputs": [
        {
          "internalType": "uint256",
          "name": "",
          "type": "uint256"
        },
        {
          "internalType": "uint256",
          "name": "",
          "type": "uint256"
        }
      ],
      "stateMutability": "nonpayable",
      "type": "function"
    },
    {
      "inputs": [],
      "name": "profitMaxUnlockTime",
      "outputs": [
        {
          "internalType": "uint256",
          "name": "",
          "type": "uint256"
        }
      ],
      "stateMutability": "view",
      "type": "function"
    },
    {
      "inputs": [],
      "name": "profitUnlockingRate",
      "outputs": [
        {
          "internalType": "uint256",
          "name": "",
          "type": "uint256"
        }
      ],
      "stateMutability": "view",
      "type": "function"
    },
    {
      "inputs": [
        {
          "internalType": "uint256",
          "name": "shares",
          "type": "uint256"
        },
        {
          "internalType": "address",
          "name": "receiver",
          "type": "address"
        },
        {
          "internalType": "address",
          "name": "owner",
          "type": "address"
        },
        {
          "internalType": "uint256",
          "name": "maxLoss",
          "type": "uint256"
        },
        {
          "internalType": "address[]",
          "name": "_strategies",
          "type": "address[]"
        }
      ],
      "name": "redeem",
      "outputs": [
        {
          "internalType": "uint256",
          "name": "",
          "type": "uint256"
        }
      ],
      "stateMutability": "nonpayable",
      "type": "function"
    },
    {
      "inputs": [
        {
          "internalType": "bytes32",
          "name": "role",
          "type": "bytes32"
        },
        {
          "internalType": "address",
          "name": "account",
          "type": "address"
        }
      ],
      "name": "renounceRole",
      "outputs": [],
      "stateMutability": "nonpayable",
      "type": "function"
    },
    {
      "inputs": [
        {
          "internalType": "bytes32",
          "name": "role",
          "type": "bytes32"
        },
        {
          "internalType": "address",
          "name": "account",
          "type": "address"
        }
      ],
      "name": "revokeRole",
      "outputs": [],
      "stateMutability": "nonpayable",
      "type": "function"
    },
    {
      "inputs": [
        {
          "internalType": "address",
          "name": "strategy",
          "type": "address"
        }
      ],
      "name": "revokeStrategy",
      "outputs": [],
      "stateMutability": "nonpayable",
      "type": "function"
    },
    {
      "inputs": [],
      "name": "roleManager",
      "outputs": [
        {
          "internalType": "address",
          "name": "",
          "type": "address"
        }
      ],
      "stateMutability": "view",
      "type": "function"
    },
    {
      "inputs": [
        {
          "internalType": "address",
          "name": "",
          "type": "address"
        }
      ],
      "name": "roles",
      "outputs": [
        {
          "internalType": "bytes32",
          "name": "",
          "type": "bytes32"
        }
      ],
      "stateMutability": "view",
      "type": "function"
    },
    {
      "inputs": [
        {
          "internalType": "address",
          "name": "newAccountant",
          "type": "address"
        }
      ],
      "name": "setAccountant",
      "outputs": [],
      "stateMutability": "nonpayable",
      "type": "function"
    },
    {
      "inputs": [
        {
          "internalType": "address[]",
          "name": "newDefaultQueue",
          "type": "address[]"
        }
      ],
      "name": "setDefaultQueue",
      "outputs": [],
      "stateMutability": "nonpayable",
      "type": "function"
    },
    {
      "inputs": [
        {
          "internalType": "uint256",
          "name": "_depositLimit",
          "type": "uint256"
        }
      ],
      "name": "setDepositLimit",
      "outputs": [],
      "stateMutability": "nonpayable",
      "type": "function"
    },
    {
      "inputs": [
        {
          "internalType": "address",
          "name": "_depositLimitModule",
          "type": "address"
        }
      ],
      "name": "setDepositLimitModule",
      "outputs": [],
      "stateMutability": "nonpayable",
      "type": "function"
    },
    {
      "inputs": [
        {
          "internalType": "uint256",
          "name": "totalFees",
          "type": "uint256"
        },
        {
          "internalType": "uint256",
          "name": "totalRefunds",
          "type": "uint256"
        },
        {
          "internalType": "uint256",
          "name": "protocolFees",
          "type": "uint256"
        },
        {
          "internalType": "address",
          "name": "protocolFeeRecipient",
          "type": "address"
        }
      ],
      "name": "setFees",
      "outputs": [],
      "stateMutability": "nonpayable",
      "type": "function"
    },
    {
      "inputs": [
        {
          "internalType": "uint256",
          "name": "_minimumTotalIdle",
          "type": "uint256"
        }
      ],
      "name": "setMinimumTotalIdle",
      "outputs": [],
      "stateMutability": "nonpayable",
      "type": "function"
    },
    {
      "inputs": [
        {
          "internalType": "uint256",
          "name": "_newProfitMaxUnlockTime",
          "type": "uint256"
        }
      ],
      "name": "setProfitMaxUnlockTime",
      "outputs": [],
      "stateMutability": "nonpayable",
      "type": "function"
    },
    {
      "inputs": [
        {
          "internalType": "bool",
          "name": "_useDefaultQueue",
          "type": "bool"
        }
      ],
      "name": "setUseDefaultQueue",
      "outputs": [],
      "stateMutability": "nonpayable",
      "type": "function"
    },
    {
      "inputs": [
        {
          "internalType": "address",
          "name": "_withdrawLimitModule",
          "type": "address"
        }
      ],
      "name": "setWithdrawLimitModule",
      "outputs": [],
      "stateMutability": "nonpayable",
      "type": "function"
    },
    {
      "inputs": [],
      "name": "sharesName",
      "outputs": [
        {
          "internalType": "string",
          "name": "",
          "type": "string"
        }
      ],
      "stateMutability": "view",
      "type": "function"
    },
    {
      "inputs": [],
      "name": "sharesSymbol",
      "outputs": [
        {
          "internalType": "string",
          "name": "",
          "type": "string"
        }
      ],
      "stateMutability": "view",
      "type": "function"
    },
    {
      "inputs": [],
      "name": "shutdown",
      "outputs": [
        {
          "internalType": "bool",
          "name": "",
          "type": "bool"
        }
      ],
      "stateMutability": "view",
      "type": "function"
    },
    {
      "inputs": [],
      "name": "shutdownVault",
      "outputs": [],
      "stateMutability": "nonpayable",
      "type": "function"
    },
    {
      "inputs": [
        {
          "internalType": "address",
          "name": "",
          "type": "address"
        }
      ],
      "name": "strategies",
      "outputs": [
        {
          "internalType": "uint256",
          "name": "activation",
          "type": "uint256"
        },
        {
          "internalType": "uint256",
          "name": "lastReport",
          "type": "uint256"
        },
        {
          "internalType": "uint256",
          "name": "currentDebt",
          "type": "uint256"
        },
        {
          "internalType": "uint256",
          "name": "maxDebt",
          "type": "uint256"
        }
      ],
      "stateMutability": "view",
      "type": "function"
    },
    {
      "inputs": [
        {
          "internalType": "bytes4",
          "name": "interfaceId",
          "type": "bytes4"
        }
      ],
      "name": "supportsInterface",
      "outputs": [
        {
          "internalType": "bool",
          "name": "",
          "type": "bool"
        }
      ],
      "stateMutability": "view",
      "type": "function"
    },
    {
      "inputs": [],
      "name": "symbol",
      "outputs": [
        {
          "internalType": "string",
          "name": "",
          "type": "string"
        }
      ],
      "stateMutability": "view",
      "type": "function"
    },
    {
      "inputs": [],
      "name": "totalAssets",
      "outputs": [
        {
          "internalType": "uint256",
          "name": "",
          "type": "uint256"
        }
      ],
      "stateMutability": "view",
      "type": "function"
    },
    {
      "inputs": [],
      "name": "totalDebtAmount",
      "outputs": [
        {
          "internalType": "uint256",
          "name": "",
          "type": "uint256"
        }
      ],
      "stateMutability": "view",
      "type": "function"
    },
    {
      "inputs": [],
      "name": "totalIdleAmount",
      "outputs": [
        {
          "internalType": "uint256",
          "name": "",
          "type": "uint256"
        }
      ],
      "stateMutability": "view",
      "type": "function"
    },
    {
      "inputs": [],
      "name": "totalSupply",
      "outputs": [
        {
          "internalType": "uint256",
          "name": "",
          "type": "uint256"
        }
      ],
      "stateMutability": "view",
      "type": "function"
    },
    {
      "inputs": [],
      "name": "totalSupplyAmount",
      "outputs": [
        {
          "internalType": "uint256",
          "name": "",
          "type": "uint256"
        }
      ],
      "stateMutability": "view",
      "type": "function"
    },
    {
      "inputs": [
        {
          "internalType": "address",
          "name": "receiver",
          "type": "address"
        },
        {
          "internalType": "uint256",
          "name": "amount",
          "type": "uint256"
        }
      ],
      "name": "transfer",
      "outputs": [
        {
          "internalType": "bool",
          "name": "",
          "type": "bool"
        }
      ],
      "stateMutability": "nonpayable",
      "type": "function"
    },
    {
      "inputs": [
        {
          "internalType": "address",
          "name": "sender",
          "type": "address"
        },
        {
          "internalType": "address",
          "name": "receiver",
          "type": "address"
        },
        {
          "internalType": "uint256",
          "name": "amount",
          "type": "uint256"
        }
      ],
      "name": "transferFrom",
      "outputs": [
        {
          "internalType": "bool",
          "name": "",
          "type": "bool"
        }
      ],
      "stateMutability": "nonpayable",
      "type": "function"
    },
    {
      "inputs": [],
      "name": "unlockedShares",
      "outputs": [
        {
          "internalType": "uint256",
          "name": "",
          "type": "uint256"
        }
      ],
      "stateMutability": "view",
      "type": "function"
    },
    {
      "inputs": [
        {
          "internalType": "address",
          "name": "sender",
          "type": "address"
        },
        {
          "internalType": "address",
          "name": "strategy",
          "type": "address"
        },
        {
          "internalType": "uint256",
          "name": "targetDebt",
          "type": "uint256"
        }
      ],
      "name": "updateDebt",
      "outputs": [
        {
          "internalType": "uint256",
          "name": "",
          "type": "uint256"
        }
      ],
      "stateMutability": "nonpayable",
      "type": "function"
    },
    {
      "inputs": [
        {
          "internalType": "address",
          "name": "strategy",
          "type": "address"
        },
        {
          "internalType": "uint256",
          "name": "newMaxDebt",
          "type": "uint256"
        }
      ],
      "name": "updateMaxDebtForStrategy",
      "outputs": [],
      "stateMutability": "nonpayable",
      "type": "function"
    },
    {
      "inputs": [],
      "name": "useDefaultQueue",
      "outputs": [
        {
          "internalType": "bool",
          "name": "",
          "type": "bool"
        }
      ],
      "stateMutability": "view",
      "type": "function"
    },
    {
      "inputs": [
        {
          "internalType": "uint256",
          "name": "assets",
          "type": "uint256"
        },
        {
          "internalType": "address",
          "name": "receiver",
          "type": "address"
        },
        {
          "internalType": "address",
          "name": "owner",
          "type": "address"
        },
        {
          "internalType": "uint256",
          "name": "maxLoss",
          "type": "uint256"
        },
        {
          "internalType": "address[]",
          "name": "_strategies",
          "type": "address[]"
        }
      ],
      "name": "withdraw",
      "outputs": [
        {
          "internalType": "uint256",
          "name": "",
          "type": "uint256"
        }
      ],
      "stateMutability": "nonpayable",
      "type": "function"
    },
    {
      "inputs": [],
      "name": "withdrawLimitModule",
      "outputs": [
        {
          "internalType": "address",
          "name": "",
          "type": "address"
        }
      ],
      "stateMutability": "view",
      "type": "function"
    }
  ],
  "transactionHash": "0x30a6b4faa08ff193d2664b3802a185200793b48262953a12b0822acf9a10b196",
  "args": [],
  "numDeployments": 1,
  "solcInputHash": "f0e86c7bd2bf3d6c80a8ae40242bdbd0",
  "bytecode": "0x608060405234801561001057600080fd5b5060018055615fc480620000256000396000f3fe608060405234801561001057600080fd5b50600436106104655760003560e01c80637ecebe001161024a5780637ecebe001461083e5780638212fd431461085e57806389b893f1146108715780638afca8f01461089957806391986003146108a257806391d14854146108b557806394bf804d146108c857806395d89b41146108db578063966dae0e146108e357806399374642146108f657806399530b06146109165780639a78e72e1461091e5780639af1d35a1461094a5780639bbca8841461098e5780639e34e348146109a15780639fc2c476146109b4578063a217fddf146109c9578063a835cd81146109d1578063a9059cbb146109e4578063ab5b4d49146109f7578063b1c46c9f14610a0c578063b3c187f214610a1f578063b3d7f6b914610a32578063b6cc2d1f14610a45578063ba71ecd414610a66578063bb994d4814610a6e578063bbe4eb4914610a81578063bdc8144b14610a95578063bf4f150714610aa8578063c0993eea14610abb578063c63d75b614610ad0578063c6e6f59214610ae3578063c8dffa9514610af6578063d505accf14610aff578063d547741f14610b12578063d55be8c614610b25578063d81a09f614610b2e578063d9a0e97a14610b41578063dd62ed3e14610b49578063df69b22a14610b5c578063e5236cc914610b6f578063ecf7085814610b77578063ef8b30f714610ae3578063f2e3c4d314610b80578063f6d7bfa014610b93578063f828f50b14610ba6578063fc0e74d114610baf578063fd967f4714610bc3578063ff1e7f0814610bcc57600080fd5b8062435da51461046a57806301e1d1141461049357806301ffc9a7146104a957806303dcd12c146104cc57806306580f2d146104e157806306fdde03146104f457806307a2d13a146105095780630835a3fc1461051c5780630952864e14610525578063095ea7b31461052e5780630a28a4771461054157806316b87ac01461055457806316d3bfbb1461056957806318160ddd14610574578063223e54791461057c57806323b872dd1461058f578063248a9ca3146105a25780632d632692146105b55780632d772168146105be5780632f2ff15d146105d1578063313ce567146105e457806334b5fab6146106045780633644e5151461061757806336568abe1461062057806336fba0841461063357806338d52e0f1461063f57806339ebf823146106505780633c6aa9f1146106a55780633cd7b5ab146106b95780633f7b5e40146106c2578063402d267d146106ca578063405977e7146106dd57806348ea7127146106f05780634bbd71e9146107035780634cdad506146105095780634d08d131146107165780634d16304f146107455780634d4bb197146107585780634fb3ccc51461076d5780635141eebb1461078057806353a6613214610789578063568097d1146107ab5780635a569099146107b3578063633f228c146107c657806365cb6765146107d95780636e553f65146107ec57806370a08231146107ff57806370c33c801461081257806377e3b2671461081a575b600080fd5b600f5461047d906001600160a01b031681565b60405161048a919061533a565b60405180910390f35b61049b610bdf565b60405190815260200161048a565b6104bc6104b736600461534e565b610bee565b604051901515815260200161048a565b61049b600080516020615e0f83398151915281565b61049b6104ef3660046153d1565b610c25565b6104fc610c96565b60405161048a9190615470565b61049b6105173660046154a3565b610d28565b61049b60065481565b61049b60085481565b6104bc61053c3660046154bc565b610d35565b61049b61054f3660046154a3565b610d49565b6105676105623660046154e8565b610d56565b005b61049b6301e1855881565b61049b610d70565b61056761058a3660046154e8565b610d7a565b6104bc61059d366004615505565b610f86565b61049b6105b03660046154a3565b610fe4565b61049b60095481565b6105676105cc3660046154e8565b610ff9565b6105676105df366004615546565b61109c565b601354600160c81b900460ff165b60405160ff909116815260200161048a565b61049b610612366004615576565b6110bd565b61049b60025481565b61056761062e366004615546565b61113f565b61049b64e8d4a5100081565b6013546001600160a01b031661047d565b61068561065e3660046154e8565b601b6020526000908152604090208054600182015460028301546003909301549192909184565b60408051948552602085019390935291830152606082015260800161048a565b6013546105f290600160c81b900460ff1681565b61049b60055481565b61049b600a81565b61049b6106d83660046154e8565b6111b9565b6105676106eb3660046154bc565b6111c4565b6105676106fe3660046154e8565b611418565b6105676107113660046154e8565b61146e565b601754601854601954601a54610735939291906001600160a01b031684565b60405161048a94939291906155d1565b60135461047d906001600160a01b031681565b61049b600080516020615ecf83398151915281565b600c5461047d906001600160a01b031681565b61049b600a5481565b6104bc6107973660046154a3565b602080526000908152604090205460ff1681565b6104fc6114c4565b61049b6107c13660046154bc565b611552565b6105676107d43660046155f5565b6115a4565b61049b6107e7366004615576565b61168b565b61049b6107fa366004615546565b6116d4565b61049b61080d3660046154e8565b6116f4565b6104fc61174d565b6104fc604051806040016040528060058152602001640312e302e360dc1b81525081565b61049b61084c3660046154e8565b601e6020526000908152604090205481565b61056761086c3660046154a3565b61175a565b60135461088690600160a01b900461ffff1681565b60405161ffff909116815260200161048a565b61049b600b5481565b600e5461047d906001600160a01b031681565b6104bc6108c3366004615546565b61179a565b61049b6108d6366004615546565b6117c3565b6104fc6117d8565b60115461047d906001600160a01b031681565b61049b6109043660046154e8565b601f6020526000908152604090205481565b61049b6117e7565b61049b61092c3660046154e8565b6001600160a01b03166000908152601b602052604090206002015490565b61095261180d565b60405161048a91908151815260208083015190820152604080830151908201526060918201516001600160a01b03169181019190915260800190565b61056761099c366004615644565b61184b565b600d5461047d906001600160a01b031681565b61049b600080516020615e4f83398151915281565b61049b600081565b61049b6109df366004615505565b6118b0565b6104bc6109f23660046154bc565b611f59565b61049b600080516020615f0f83398151915281565b610567610a1a366004615661565b611fab565b60105461047d906001600160a01b031681565b61049b610a403660046154a3565b612025565b610a58610a533660046154e8565b612032565b60405161048a9291906156a2565b60165461049b565b610567610a7c3660046154e8565b612181565b6013546104bc90600160b01b900460ff1681565b610567610aa33660046154a3565b6121a4565b610567610ab6366004615707565b61222b565b61049b600080516020615f2f83398151915281565b61049b610ade3660046154e8565b612488565b61049b610af13660046154a3565b6124a1565b61049b60045481565b6104bc610b0d3660046157b6565b6124ae565b610567610b20366004615546565b6126c9565b61088661138881565b61049b610b3c3660046153d1565b6126e5565b61049b61274c565b61049b610b57366004615824565b612756565b610567610b6a3660046154a3565b612781565b610567612812565b61049b60075481565b60125461047d906001600160a01b031681565b610567610ba13660046154bc565b612914565b61049b60035481565b6013546104bc90600160b81b900460ff1681565b61049b61271081565b61047d610bda3660046154a3565b6129c5565b6000610be96129ef565b905090565b60006001600160e01b03198216637965db0b60e01b1480610c1f57506301ffc9a760e01b6001600160e01b03198316145b92915050565b6000610c2f612a01565b6000610c3c886000612a5a565b9050610c80338888848c8a8a8a80806020026020016040519081016040528093929190818152602001838360200280828437600092019190915250612af092505050565b915050610c8c60018055565b9695505050505050565b606060148054610ca590615852565b80601f0160208091040260200160405190810160405280929190818152602001828054610cd190615852565b8015610d1e5780601f10610cf357610100808354040283529160200191610d1e565b820191906000526020600020905b815481529060010190602001808311610d0157829003601f168201915b5050505050905090565b6000610c1f826000612a5a565b6000610d42338484612b8d565b9392505050565b6000610c1f826001612c1e565b6000610d6181612ccc565b610d6c826001612cd9565b5050565b6000610be9612f0f565b600080516020615e4f833981519152610d9281612ccc565b6001600160a01b0382161580610db057506001600160a01b03821630145b15610dce5760405163d92e233d60e01b815260040160405180910390fd5b6000826001600160a01b03166338d52e0f6040518163ffffffff1660e01b8152600401602060405180830381865afa158015610e0e573d6000803e3d6000fd5b505050506040513d601f19601f82011682018060405250810190610e32919061588c565b6013549091506001600160a01b03808316911614610e6e57806040516337bce3c560e11b8152600401610e65919061533a565b60405180910390fd5b6001600160a01b0383166000908152601b602052604090205415610ea55760405163c976754d60e01b815260040160405180910390fd5b604080516080810182524280825260208083019182526000838501818152606085018281526001600160a01b038a168352601b9093529490209251835590516001830155915160028201559051600390910155601654600a811015610f5057601680546001810182556000919091527fd833147d7dc355ba459fc788f669e58cfaf9dc25ddcd0702e87d69c7b51242890180546001600160a01b0319166001600160a01b0386161790555b836001600160a01b0316600080516020615e6f8339815191526000604051610f7891906158bf565b60405180910390a250505050565b60006001600160a01b038316301480610fa657506001600160a01b038316155b15610fc45760405163d92e233d60e01b815260040160405180910390fd5b610fcf843384612f26565b610fda848484612f8b565b5060019392505050565b60009081526020819052604090206001015490565b600061100481612ccc565b601354600160b81b900460ff1615156001036110335760405163036882cf60e41b815260040160405180910390fd5b6000196007541461105757604051634e41418560e11b815260040160405180910390fd5b600d80546001600160a01b0319166001600160a01b038416179055604051600080516020615e2f8339815191529061109090849061533a565b60405180910390a15050565b6110a582610fe4565b6110ae81612ccc565b6110b8838361308a565b505050565b6000806110fe868686868080602002602001604051908101604052809392919081815260200183836020028082843760009201919091525061310e92505050565b9050600061110d826001612c1e565b6001600160a01b0388166000908152601c60205260409020549091506111349082906134e1565b979650505050505050565b6001600160a01b03811633146111af5760405162461bcd60e51b815260206004820152602f60248201527f416363657373436f6e74726f6c3a2063616e206f6e6c792072656e6f756e636560448201526e103937b632b9903337b91039b2b63360891b6064820152608401610e65565b610d6c82826134f7565b6000610c1f8261355c565b600080516020615f0f8339815191526111dc81612ccc565b6111e4612a01565b6001600160a01b0383166000908152601b6020526040812054900361121e578260405163489d081b60e11b8152600401610e65919061533a565b6001600160a01b0383166000908152601b6020526040902060020154801580611245575082155b1561126357604051637c946ed760e01b815260040160405180910390fd5b8083111561126f578092505b60008184866001600160a01b03166370a08231306040518263ffffffff1660e01b815260040161129f919061533a565b602060405180830381865afa1580156112bc573d6000803e3d6000fd5b505050506040513d601f19601f820116820180604052508101906112e091906158e7565b6112ea9190615916565b6112f49190615943565b90508060000361131757604051637c946ed760e01b815260040160405180910390fd5b61132330333087613634565b6001600160a01b0385166000908152601b60205260408120600201805486929061134e908490615957565b9250508190555083600460008282546113679190615957565b925050819055508360056000828254611380919061596a565b90915550506001600160a01b038516600080516020615f6f833981519152836113a98782615957565b6040516113b79291906156a2565b60405180910390a26113ca853383613717565b846001600160a01b03167fe94e7f88819f66c19b097748cb754149f63b1a176ed425dee1f1ee933e6d09b08560405161140591815260200190565b60405180910390a250506110b860018055565b600061142381612ccc565b600c80546001600160a01b0319166001600160a01b0384161790556040517f7421df9bb5aa804486a873c3f79b4bda8b65888cb4ceb1ce73ab3415f479adea9061109090849061533a565b600061147981612ccc565b600e80546001600160a01b0319166001600160a01b0384161790556040517fb02c7aec2b89901bc7caa8b5cd2ed1ede10b5dd3d3c15f2a249ef51a76a3fc949061109090849061533a565b601580546114d190615852565b80601f01602080910402602001604051908101604052809291908181526020018280546114fd90615852565b801561154a5780601f1061151f5761010080835404028352916020019161154a565b820191906000526020600020905b81548152906001019060200180831161152d57829003601f168201915b505050505081565b6001600160a01b0382166000908152601b60205260408120600201548281101561159257604051633327137b60e21b815260048101829052602401610e65565b61159c84846137e0565b949350505050565b600080516020615e4f8339815191526115bc81612ccc565b60005b8281101561163f5760008484838181106115db576115db61597d565b90506020020160208101906115f091906154e8565b6001600160a01b0381166000908152601b60205260408120549192500361162c578060405163489d081b60e11b8152600401610e65919061533a565b508061163781615993565b9150506115bf565b5061164c6016848461521b565b507f3adf0cd8b4427265ab8cb9118d0b9c61b811c637fe87c5be9f2f4d91ce17cfbc838360405161167e9291906159ac565b60405180910390a1505050565b60006116cb858585858080602002602001604051908101604052809392919081815260200183836020028082843760009201919091525061310e92505050565b95945050505050565b60006116de612a01565b6116e9338385613940565b9050610c1f60018055565b6000306001600160a01b038316036117315761170e613aca565b6001600160a01b0383166000908152601c6020526040902054610c1f9190615957565b506001600160a01b03166000908152601c602052604090205490565b601480546114d190615852565b600061176581612ccc565b60068290556040518281527f3c79c9aaa553ffa63df7f68d233487e697a31db07a59fb73fbab634e1871202090602001611090565b6000918252602082815260408084206001600160a01b0393909316845291905290205460ff1690565b60006117cd612a01565b6116e9338385613b28565b606060158054610ca590615852565b601354600090610be99061180690600160c81b900460ff16600a615ad3565b6000612a5a565b61181561527e565b50604080516080810182526017548152601854602082015260195491810191909152601a546001600160a01b0316606082015290565b600080516020615e4f83398151915261186381612ccc565b60138054831515600160b01b0260ff60b01b199091161790556040517fa9cd3583c5278952720fbec6b769ae08cbab1491fd69ae1edeb07ed07c9432f99061109090841515815260200190565b6000600080516020615e4f8339815191526118ca81612ccc565b6118d2612a01565b6001600160a01b0384166000908152601b60205260409020600201548314801590611901575060065460055411155b1561191f5760405163356680b760e01b815260040160405180910390fd5b6001600160a01b0384166000908152601b6020526040902060020154601354849190600160b81b900460ff16151560010361195957600091505b8082036119795760405163084df06b60e41b815260040160405180910390fd5b81811115611c5b57600061198d8383615957565b9050600654816005546119a0919061596a565b10156119c3576005546006546119b69190615957565b9050818111156119c35750805b604051636c82bbbf60e11b81526000906001600160a01b038916906307a2d13a90829063d905777e906119fa908e9060040161533a565b602060405180830381865afa158015611a17573d6000803e3d6000fd5b505050506040513d601f19601f82011682018060405250810190611a3b91906158e7565b6040518263ffffffff1660e01b8152600401611a5991815260200190565b602060405180830381865afa158015611a76573d6000803e3d6000fd5b505050506040513d601f19601f82011682018060405250810190611a9a91906158e7565b905080600003611abd57604051637c946ed760e01b815260040160405180910390fd5b81811015611ac9578091505b6000611ad589846137e0565b90508015611af95760405163311d104160e01b815260048101829052602401610e65565b6013546040516370a0823160e01b81526000916001600160a01b0316906370a0823190611b2a908e9060040161533a565b602060405180830381865afa158015611b47573d6000803e3d6000fd5b505050506040513d601f19601f82011682018060405250810190611b6b91906158e7565b9050611b778a85613c70565b6013546040516370a0823160e01b81526000916001600160a01b0316906370a0823190611ba8908f9060040161533a565b602060405180830381865afa158015611bc5573d6000803e3d6000fd5b505050506040513d601f19601f82011682018060405250810190611be991906158e7565b90506000611c00611bfa8484615957565b886134e1565b905085811115611c0e578095505b8060056000828254611c20919061596a565b925050819055508560046000828254611c399190615957565b90915550611c449050565b611c4e8688615957565b9750505050505050611eff565b6001600160a01b0386166000908152601b6020526040902060030154821115611cb6576001600160a01b0386166000908152601b602052604090819020600301549051638f55f52760e01b8152610e659184916004016156a2565b60405163402d267d60e01b81526000906001600160a01b0388169063402d267d90611ce5908b9060040161533a565b602060405180830381865afa158015611d02573d6000803e3d6000fd5b505050506040513d601f19601f82011682018060405250810190611d2691906158e7565b905080600003611d4957604051637c946ed760e01b815260040160405180910390fd5b6000611d558385615957565b905081811115611d625750805b6000600654600554611d749190615957565b905080821115611d82578091505b8115611efb57601354611d9f906001600160a01b03168a84613dcd565b6013546040516370a0823160e01b81526000916001600160a01b0316906370a0823190611dd090309060040161533a565b602060405180830381865afa158015611ded573d6000803e3d6000fd5b505050506040513d601f19601f82011682018060405250810190611e1191906158e7565b9050611e1d8a84613e96565b6013546040516370a0823160e01b81526000916001600160a01b0316906370a0823190611e4e90309060040161533a565b602060405180830381865afa158015611e6b573d6000803e3d6000fd5b505050506040513d601f19601f82011682018060405250810190611e8f91906158e7565b601354909150611eaa906001600160a01b03168c6000613dcd565b611eb48183615957565b93508360056000828254611ec89190615957565b925050819055508360046000828254611ee1919061596a565b90915550611eec9050565b611ef6848761596a565b965050505b5050505b6001600160a01b0386166000818152601b60205260409081902060020184905551600080516020615f6f83398151915290611f3d90849086906156a2565b60405180910390a2509150611f5160018055565b509392505050565b60006001600160a01b038316301480611f7957506001600160a01b038316155b15611f975760405163d92e233d60e01b815260040160405180910390fd5b611fa2338484612f8b565b50600192915050565b6000611fb681612ccc565b601785905560188490556019839055601a80546001600160a01b0319166001600160a01b0384161790556040517f94aff052e386f7223093efb6183667af7a14a6d206ce5e9c66a9c064ebe94528906120169087908790879087906155d1565b60405180910390a15050505050565b6000610c1f826001612a5a565b600080600080516020615e0f83398151915261204d81612ccc565b612055612a01565b6001600160a01b0384166000908152601b6020526040812054900361208f578360405163489d081b60e11b8152600401610e65919061533a565b612097613f07565b6000806120a386613f37565b9150915060006120b487848461406b565b905060006120cd8484846000015185604001518c61427b565b90506000806120dd83858861438f565b915091506120eb8282614526565b6001600160a01b038a166000818152601b60205260408082204260018201556002015490860151600080516020615eaf833981519152928a928a9290916121329190612a5a565b61214989602001518a60400151611806919061596a565b8a6020015160405161216096959493929190615ae2565b60405180910390a25093965091945050505061217b60018055565b50915091565b600080516020615e4f83398151915261219981612ccc565b610d6c826000612cd9565b60006121af81612ccc565b601354600160b81b900460ff1615156001036121de5760405163036882cf60e41b815260040160405180910390fd5b600d546001600160a01b031615612208576040516364b9991160e11b815260040160405180910390fd5b6007829055604051828152600080516020615def83398151915290602001611090565b600061223681612ccc565b601354600160c01b900460ff1615156001036122645760405162dc149f60e41b815260040160405180910390fd5b333b1561228257601180546001600160a01b031916331790556122b8565b601180546001600160a01b03199081169091556013805461027160a31b61ffff60a01b1990911617905560128054909116331790555b600c80546001600160a01b0319166001600160a01b0384161790556301e185588911156122f85760405163fdfbb0b760e01b815260040160405180910390fd5b60088990556013805460ff60c81b1916600160c81b60ff8a811682029290921792839055610100920416106123405760405163e236476560e01b815260040160405180910390fd5b601380546001600160a01b0319166001600160a01b038a161790556014612368868883615b6e565b506015612376848683615b6e565b5061238260003361308a565b61239a600080516020615e4f8339815191523361308a565b6123b2600080516020615e0f8339815191523361308a565b6123ca600080516020615f0f8339815191523361308a565b600080516020615f2f83398151915286866040516123e9929190615c2d565b60408051918290038220828201825260058352640312e302e360dc1b6020938401528151928301939093528101919091527f06c015bd22b4c69690933c1058878ebdfef31f9aaae40bbe86d8a09fe1b2972c60608201524660808201523060a082015260c00160408051601f19818403018152919052805160209091012060025550506013805460ff60c01b1916600160c01b17905550505050505050565b6000806124948361355c565b9050610d42816000612c1e565b6000610c1f826000612c1e565b60006001600160a01b0388166124d75760405163d92e233d60e01b815260040160405180910390fd5b428510156124f8576040516363bef56160e11b815260040160405180910390fd5b6001600160a01b038881166000818152601e60209081526040808320548151600080516020615ecf8339815191528185015280830195909552948c166060850152608084018b905260a0840185905260c08085018b90528151808603909101815260e08501909152805191012060025461190160f01b6101008501526101028401526101228301819052916101420160408051601f198184030181528282528051602091820120600080855291840180845281905260ff8b169284019290925260608301899052608083018890529092509060019060a0016020604051602081039080840390855afa1580156125f2573d6000803e3d6000fd5b5050604051601f1901519150506001600160a01b038116158061262757508b6001600160a01b0316816001600160a01b031614155b156126475780604051633934136760e01b8152600401610e65919061533a565b6126528c8c8c612b8d565b506001600160a01b038c166000908152601e6020526040812080549161267783615993565b91905055508a6001600160a01b03168c6001600160a01b0316600080516020615eef8339815191528c6040516126af91815260200190565b60405180910390a35060019b9a5050505050505050505050565b6126d282610fe4565b6126db81612ccc565b6110b883836134f7565b60006126ef612a01565b60006126fc886001612c1e565b90506127403388888b858a8a8a80806020026020016040519081016040528093929190818152602001838360200280828437600092019190915250612af092505050565b509050610c8c60018055565b6000610be9613aca565b6001600160a01b039182166000908152601d6020908152604080832093909416825291909152205490565b600061278c81612ccc565b6301e185588211156127b15760405163fdfbb0b760e01b815260040160405180910390fd5b816000036127dd57306000818152601c60205260409020546127d2916145c7565b6000600a8190556009555b60088290556040518281527fc464d502702beac6615fdfda7756f59ccaf253cb2591db454c8def44d03bddd990602001611090565b600061281d81612ccc565b601354600160b81b900460ff16151560010361284c5760405163036882cf60e41b815260040160405180910390fd5b6013805460ff60b81b1916600160b81b179055600d546001600160a01b0316156128a857600d80546001600160a01b0319169055604051600080516020615e2f8339815191529061289f9060009061533a565b60405180910390a15b60006007819055604051908152600080516020615def8339815191529060200160405180910390a16128e8600080516020615e4f8339815191523361308a565b6040517f4426aa1fb73e391071491fcfe21a88b5c38a0a0333a1f6e77161470439704cf890600090a150565b600080516020615e4f83398151915261292c81612ccc565b6001600160a01b0383166000908152601b60205260408120549003612966578260405163489d081b60e11b8152600401610e65919061533a565b6001600160a01b0383166000818152601b6020526040908190206003018490555133907fb3eef2123fec1523a6bbc90aceb203000154c1a4974335fe06b544c7534d4b89906129b89086815260200190565b60405180910390a3505050565b601681815481106129d557600080fd5b6000918252602090912001546001600160a01b0316905081565b6000600454600554610be9919061596a565b600260015403612a535760405162461bcd60e51b815260206004820152601f60248201527f5265656e7472616e637947756172643a207265656e7472616e742063616c6c006044820152606401610e65565b6002600155565b6000600019831480612a6a575082155b15612a76575081610c1f565b6000612a80612f0f565b905080600003612a935783915050610c1f565b6000612a9d6129ef565b612aa79086615916565b90506000612ab58383615943565b90506001856001811115612acb57612acb6158a9565b148015612ae05750612add8383615c3d565b15155b156116cb57610c8c60018261596a565b6000612afe87878686614698565b612b0986898661475a565b600080612b16878561477e565b91509150612b298989888a86868b614e1f565b876001600160a01b0316896001600160a01b03168b6001600160a01b03167ffbde797d201c681b91056529119e0b02407c7bb96a4a2c75c01fc9667232c8db858a604051612b789291906156a2565b60405180910390a45098975050505050505050565b60006001600160a01b0384161580612bac57506001600160a01b038316155b15612bca5760405163d92e233d60e01b815260040160405180910390fd5b6001600160a01b038481166000818152601d60209081526040808320948816808452948252918290208690559051858152600080516020615eef833981519152910160405180910390a35060019392505050565b6000600019831480612c2e575082155b15612c3a575081610c1f565b6000612c44612f0f565b90506000612c506129ef565b905080600003612c775781600003612c6c578492505050610c1f565b600092505050610c1f565b6000612c838387615916565b90506000612c918383615943565b90506001866001811115612ca757612ca76158a9565b148015612cbc5750612cb98383615c3d565b15155b15610c8c5761113460018261596a565b612cd68133614eab565b50565b6001600160a01b0382166000908152601b60205260408120549003612d13578160405163489d081b60e11b8152600401610e65919061533a565b6001600160a01b0382166000908152601b602052604081206002015415801590612d3b575081155b15612d7a576001600160a01b0383166000908152601b6020526040908190206002015490516357d8a97560e11b81526004810191909152602401610e65565b506001600160a01b0382166000908152601b60205260408120600201546004805491928392612daa908490615957565b92505081905550826001600160a01b0316600080516020615eaf833981519152600083600080600080604051612de596959493929190615ae2565b60405180910390a2604080516080810182526000808252602080830182815283850183815260608086018581526001600160a01b038b168652601b9094529590932093518455516001840155905160028301555160039091015560165415612ed35760005b601654811015612ed157600060168281548110612e6957612e6961597d565b6000918252602090912001546001600160a01b03908116915086168114612ebe5780838381518110612e9d57612e9d61597d565b60200260200101906001600160a01b031690816001600160a01b0316815250505b5080612ec981615993565b915050612e4a565b505b8051612ee69060169060208401906152af565b50836001600160a01b0316600080516020615e6f8339815191526001604051610f7891906158bf565b6000612f19613aca565b600354610be99190615957565b6001600160a01b038084166000908152601d602090815260408083209386168352929052205481811015612f7057604051631649cee760e01b815260048101829052602401610e65565b612f848484612f7f8585615957565b612b8d565b5050505050565b6001600160a01b0383166000908152601c602052604090205481811015612fc55760405163356680b760e01b815260040160405180910390fd5b6001600160a01b0384161580612fe257506001600160a01b038316155b156130005760405163d92e233d60e01b815260040160405180910390fd5b61300a8282615957565b6001600160a01b038086166000908152601c60205260408082209390935590851681522054613039838261596a565b6001600160a01b038086166000818152601c60205260409081902093909355915190871690600080516020615e8f8339815191529061307b9087815260200190565b60405180910390a35050505050565b613094828261179a565b610d6c576000828152602081815260408083206001600160a01b03851684529091529020805460ff191660011790556130ca3390565b6001600160a01b0316816001600160a01b0316837f2f8788117e7eff1d82e926ec794901d17c78024a50270940304540a733656f0d60405160405180910390a45050565b6001600160a01b0383166000908152601c602052604081205481906131339082612a5a565b600e549091506001600160a01b0316156131d357600e54604051632319b8cf60e01b81526000916001600160a01b031690632319b8cf9061317c90899089908990600401615c51565b602060405180830381865afa158015613199573d6000803e3d6000fd5b505050506040513d601f19601f820116820180604052508101906131bd91906158e7565b9050818110156131cb578091505b509050610d42565b600554808211156134d857835181906000908190158015906131ff5750601354600160b01b900460ff16155b61326357601680548060200260200160405190810160405280929190818152602001828054801561325957602002820191906000526020600020905b81546001600160a01b0316815260019091019060200180831161323b575b5050505050613265565b865b905060005b81518110156134d15760008282815181106132875761328761597d565b60200260200101519050601b6000826001600160a01b03166001600160a01b03168152602001908152602001600020600001546000036132dc578060405163489d081b60e11b8152600401610e65919061533a565b600061330c6132eb878a615957565b6001600160a01b0384166000908152601b60205260409020600201546134e1565b9050600061331a83836137e0565b90506000836001600160a01b03166307a2d13a856001600160a01b031663d905777e306040518263ffffffff1660e01b8152600401613359919061533a565b602060405180830381865afa158015613376573d6000803e3d6000fd5b505050506040513d601f19601f8201168201806040525081019061339a91906158e7565b6040518263ffffffff1660e01b81526004016133b891815260200190565b602060405180830381865afa1580156133d5573d6000803e3d6000fd5b505050506040513d601f19601f820116820180604052508101906133f991906158e7565b90506134058284615957565b81101561343057826134178284615916565b6134219190615943565b915061342d828261596a565b92505b8260000361344157505050506134bf565b60008211801561345257506127108d105b15613492576127108d613465858b61596a565b61346f9190615916565b6134799190615943565b613483838961596a565b111561349257505050506134d1565b61349c838961596a565b97508988106134ae57505050506134d1565b6134b8828861596a565b9650505050505b806134c981615993565b91505061326a565b5091935050505b50949350505050565b60008183106134f05781610d42565b5090919050565b613501828261179a565b15610d6c576000828152602081815260408083206001600160a01b0385168085529252808320805460ff1916905551339285917ff6391f5c32d9c69d2a47ea670b442974b53935d1edc7fd64eb21e047a839171b9190a45050565b60006001600160a01b03821630148061357c57506001600160a01b038216155b1561358957506000919050565b600d546001600160a01b0316801561360857604051632355178960e11b81526001600160a01b038216906346aa2f12906135c790869060040161533a565b602060405180830381865afa1580156135e4573d6000803e3d6000fd5b505050506040513d601f19601f82011682018060405250810190610d4291906158e7565b60006136126129ef565b60075490915080821061362a57506000949350505050565b6116cb8282615957565b6001600160a01b038416158061365157506001600160a01b038316155b8061366357506001600160a01b038216155b156136815760405163d92e233d60e01b815260040160405180910390fd5b6040516323b872dd60e01b81526001600160a01b038516906323b872dd906136b190869086908690600401615cb4565b6020604051808303816000875af11580156136d0573d6000803e3d6000fd5b505050506040513d601f19601f820116820180604052508101906136f49190615cd8565b61371157604051633c9fd93960e21b815260040160405180910390fd5b50505050565b6001600160a01b038316158061373457506001600160a01b038216155b156137525760405163d92e233d60e01b815260040160405180910390fd5b60405163a9059cbb60e01b81526001600160a01b0384169063a9059cbb906137809085908590600401615cf5565b6020604051808303816000875af115801561379f573d6000803e3d6000fd5b505050506040513d601f19601f820116820180604052508101906137c39190615cd8565b6110b857604051633c9fd93960e21b815260040160405180910390fd5b6001600160a01b0382166000818152601b60205260408082206002015490516370a0823160e01b8152919290918391906370a082319061382490309060040161533a565b602060405180830381865afa158015613841573d6000803e3d6000fd5b505050506040513d601f19601f8201168201806040525081019061386591906158e7565b6040516303d1689d60e11b8152600481018290529091506000906001600160a01b038716906307a2d13a90602401602060405180830381865afa1580156138b0573d6000803e3d6000fd5b505050506040513d601f19601f820116820180604052508101906138d491906158e7565b905082811015806138e3575082155b156138f45760009350505050610c1f565b60006139008287615916565b9050600061390e8583615943565b6139189088615957565b90506139248583615c3d565b156111345761393460018261596a565b98975050505050505050565b601354600090600160b81b900460ff1615156001036139725760405163036882cf60e41b815260040160405180910390fd5b61397b8361355c565b8211156139a75761398b8361355c565b604051630ee7300760e11b8152600401610e6591815260200190565b816000036139c857604051637c946ed760e01b815260040160405180910390fd5b6013546040516323b872dd60e01b81526001600160a01b03909116906323b872dd906139fc90339030908790600401615cb4565b6020604051808303816000875af1158015613a1b573d6000803e3d6000fd5b505050506040513d601f19601f82011682018060405250810190613a3f9190615cd8565b508160056000828254613a52919061596a565b9091555060009050613a648385614f04565b905080600003613a8757604051637c946ed760e01b815260040160405180910390fd5b836001600160a01b0316856001600160a01b0316600080516020615f4f8339815191528584604051613aba9291906156a2565b60405180910390a3949350505050565b6009546000908142821115613b0b5764e8d4a51000600b5442613aed9190615957565b600a54613afa9190615916565b613b049190615943565b9050610c1f565b8115610c1f5750306000908152601c602052604090205492915050565b601354600090600160b81b900460ff161515600103613b5a5760405163036882cf60e41b815260040160405180910390fd5b6000613b67836001612a5a565b905080600003613b8a57604051637c946ed760e01b815260040160405180910390fd5b613b938461355c565b811115613ba35761398b8461355c565b6013546040516323b872dd60e01b81526001600160a01b03909116906323b872dd90613bd790889030908690600401615cb4565b6020604051808303816000875af1158015613bf6573d6000803e3d6000fd5b505050506040513d601f19601f82011682018060405250810190613c1a9190615cd8565b508060056000828254613c2d919061596a565b90915550613c3d90508385614fb6565b836001600160a01b0316856001600160a01b0316600080516020615f4f8339815191528386604051613aba9291906156a2565b604051630a28a47760e01b815260048101829052600090613d52906001600160a01b03851690630a28a47790602401602060405180830381865afa158015613cbc573d6000803e3d6000fd5b505050506040513d601f19601f82011682018060405250810190613ce091906158e7565b6040516370a0823160e01b81526001600160a01b038616906370a0823190613d0c90309060040161533a565b602060405180830381865afa158015613d29573d6000803e3d6000fd5b505050506040513d601f19601f82011682018060405250810190613d4d91906158e7565b6134e1565b604051635d043b2960e11b815260048101829052306024820181905260448201529091506001600160a01b0384169063ba087652906064016020604051808303816000875af1158015613da9573d6000803e3d6000fd5b505050506040513d601f19601f8201168201806040525081019061371191906158e7565b6001600160a01b0383161580613dea57506001600160a01b038216155b15613e085760405163d92e233d60e01b815260040160405180910390fd5b60405163095ea7b360e01b81526001600160a01b0384169063095ea7b390613e369085908590600401615cf5565b6020604051808303816000875af1158015613e55573d6000803e3d6000fd5b505050506040513d601f19601f82011682018060405250810190613e799190615cd8565b6110b857604051631946df2360e31b815260040160405180910390fd5b604051636e553f6560e01b8152600481018290523060248201526001600160a01b03831690636e553f65906044016020604051808303816000875af1158015613ee3573d6000803e3d6000fd5b505050506040513d601f19601f820116820180604052508101906110b891906158e7565b6000613f11613aca565b905080600003613f1e5750565b426009541115613f2d5742600b555b612cd681306145c7565b6000806000836001600160a01b03166370a08231306040518263ffffffff1660e01b8152600401613f68919061533a565b602060405180830381865afa158015613f85573d6000803e3d6000fd5b505050506040513d601f19601f82011682018060405250810190613fa991906158e7565b6040516303d1689d60e11b8152600481018290529091506000906001600160a01b038616906307a2d13a90602401602060405180830381865afa158015613ff4573d6000803e3d6000fd5b505050506040513d601f19601f8201168201806040525081019061401891906158e7565b6001600160a01b0386166000908152601b602052604081206002015491925080828411156140515761404a8385615957565b915061405e565b61405b8484615957565b90505b9097909650945050505050565b61407361527e565b600c546001600160a01b03161561424357604080516080810182526000808252602082018190528183018190526060820152600c54915163921f8a8f60e01b81526001600160a01b03878116600483015260248201879052604482018690529192919091169063921f8a8f9060640160408051808303816000875af1158015614100573d6000803e3d6000fd5b505050506040513d601f19601f820116820180604052508101906141249190615d0e565b60208301528082521561423c576011546000906001600160a01b031661416957506013546012546001600160a01b03166060830152600160a01b900461ffff166141e5565b601154604080516307d3277f60e01b815281516001600160a01b03909316926307d3277f926004808401939192918290030181865afa1580156141b0573d6000803e3d6000fd5b505050506040513d601f19601f820116820180604052508101906141d49190615d32565b6001600160a01b0316606084015290505b61ffff8116156131cb576127108161ffff16111561421657604051635ff85e3f60e01b815260040160405180910390fd5b81516127109061422b9061ffff841690615916565b6142359190615943565b6040830152505b9050610d42565b50604080516080810182526017548152601854602082015260195491810191909152601a546001600160a01b03166060820152610d42565b614283615304565b61428b615304565b6001600160a01b0383166000908152601b602052604090206002015487156142d8576142c0846142bb8a8461596a565b61504f565b87600460008282546142d2919061596a565b90915550505b8615614304576142ec846142bb8984615957565b86600460008282546142fe9190615957565b90915550505b6000614310878961596a565b11156143845761432a614323878961596a565b6001612c1e565b8251839061433990839061596a565b90525085156143845761435661434f8688615957565b6000612c1e565b6020830152841561438457600061436d8987615916565b905061437d61434f606483615943565b6040840152505b509695505050505050565b6000806000808560200151111561441d576020850151600c546143d99190613d4d906143c3906001600160a01b03166116f4565b600c54613d4d906001600160a01b031630612756565b60208601819052601354600c54614401926001600160a01b0392831692909116903090613634565b846020015160056000828254614417919061596a565b90915550505b600085602001518561442f919061596a565b11801561443d575060085415155b1561445e5761445b856020015185614455919061596a565b30614f04565b90505b306000908152601c6020526040812054614479908390615957565b8751909150156144da57865161449390613d4d848461596a565b8088526144a090306145c7565b60006144b08860000151846134e1565b90506144bc8184615957565b88519093506144cc908290615957565b6144d69083615957565b9150505b6020870151156144ff576020870151600c546144ff91906001600160a01b0316614fb6565b60408701511561451b5761451b87604001518760600151614fb6565b969095509350505050565b6000614532828461596a565b905080156145bd57600042600954111561456157426009546145549190615957565b61455e9085615916565b90505b600082600854856145729190615916565b61457c908461596a565b6145869190615943565b90508061459864e8d4a5100085615916565b6145a29190615943565b600a556145af814261596a565b600955505042600b55505050565b6000600a55505050565b6001600160a01b0381166000908152601c602052604090205482111561461e576001600160a01b0381166000908152601c6020526040908190205490516307f885ff60e21b81526004810191909152602401610e65565b6001600160a01b0381166000908152601c602052604081208054849290614646908490615957565b92505081905550816003600082825461465f9190615957565b90915550506040518281526000906001600160a01b03831690600080516020615e8f833981519152906020015b60405180910390a35050565b6001600160a01b0384166146bf5760405163d92e233d60e01b815260040160405180910390fd5b6127108111156146e257604051631a7ed0a160e31b815260040160405180910390fd5b8160000361470357604051637c946ed760e01b815260040160405180910390fd5b6001600160a01b0383166000908152601c6020526040902054821115613711576001600160a01b0383166000908152601c6020526040908190205490516307f885ff60e21b81526004810191909152602401610e65565b826001600160a01b0316826001600160a01b0316146110b8576110b8838383612f26565b6040805160c0810182528381526005546020820152600480548284015260006060830181905260135493516370a0823160e01b8152909384938493909260808401926001600160a01b0316916370a08231916147dc9130910161533a565b602060405180830381865afa1580156147f9573d6000803e3d6000fd5b505050506040513d601f19601f8201168201806040525081019061481d91906158e7565b8152600060209182015281015181519192501015614e0a576060600085516000141580156148555750601354600160b01b900460ff16155b15614865575050835184906148c3565b60168054806020026020016040519081016040528092919081815260200182805480156148bb57602002820191906000526020600020905b81546001600160a01b0316815260019091019060200180831161489d575b505050505091505b602083015183516148d49190615957565b606084015260005b8251811015614dcf5760008382815181106148f9576148f961597d565b6020908102919091018101516001600160a01b0381166000908152601b909252604082205490925090819003614944578160405163489d081b60e11b8152600401610e65919061533a565b6001600160a01b0382166000908152601b6020526040812060020154606088015190919061497290836134e1565b90506000846001600160a01b03166307a2d13a866001600160a01b031663d905777e306040518263ffffffff1660e01b81526004016149b1919061533a565b602060405180830381865afa1580156149ce573d6000803e3d6000fd5b505050506040513d601f19601f820116820180604052508101906149f291906158e7565b6040518263ffffffff1660e01b8152600401614a1091815260200190565b602060405180830381865afa158015614a2d573d6000803e3d6000fd5b505050506040513d601f19601f82011682018060405250810190614a5191906158e7565b90506000614a5f86846137e0565b90508015614b5857614a718184615957565b821015614aab576000614a848285615957565b905080614a918484615916565b614a9b9190615943565b9150614aa7828461596a565b9350505b614ab58184615957565b9250808a600001818151614ac99190615957565b90525060608a018051829190614ae0908390615957565b90525060408a018051829190614af7908390615957565b90525081158015614b085750600081115b15614b58576000614b198286615957565b9050614b25878261504f565b866001600160a01b0316600080516020615f6f8339815191528683604051614b4e9291906156a2565b60405180910390a2505b614b6283836134e1565b925082600003614b7757505050505050614dbd565b614b818684613c70565b6013546040516370a0823160e01b81526000916001600160a01b0316906370a0823190614bb290309060040161533a565b602060405180830381865afa158015614bcf573d6000803e3d6000fd5b505050506040513d601f19601f82011682018060405250810190614bf391906158e7565b905060008b6080015182614c079190615957565b9050600085821115614c3e5786821115614c2357869550614c53565b614c2d8683615957565b614c37908761596a565b9550614c53565b85821015614c5357614c508287615957565b90505b80868e60200151614c64919061596a565b614c6e9190615957565b600003614c8157600060208e0152614ca0565b614c8b8187615957565b8d602001818151614c9c919061596a565b9052505b8c51614cad908290615957565b600003614cbd5760008d52614cd3565b808d600001818151614ccf9190615957565b9052505b858d60400151614ce39190615957565b600003614cf657600060408e0152614d0c565b858d604001818151614d089190615957565b9052505b6000614d18858861596a565b881015614d2757506000614d3e565b614d31858861596a565b614d3b9089615957565b90505b614d488a8261504f565b896001600160a01b0316600080516020615f6f8339815191528983604051614d719291906156a2565b60405180910390a260208e01518e5111614d945750505050505050505050614dcf565b60808e0184905260608e018051889190614daf908390615957565b905250505050505050505050505b80614dc781615993565b9150506148dc565b50825160208401511015614dff576020830151835160405163b97fded160e01b8152610e659291906004016156a2565b505060408101516004555b805160209091015190925090505b9250929050565b8284118015614e2f575061271081105b15614e7457612710614e418286615916565b614e4b9190615943565b614e558486615957565b1115614e74576040516307f65e3960e11b815260040160405180910390fd5b614e7e85876145c7565b614e888383615957565b600555601354614ea2906001600160a01b03168885613717565b50505050505050565b614eb5828261179a565b610d6c57614ec28161506e565b614ecd836020615080565b604051602001614ede929190615d68565b60408051601f198184030181529082905262461bcd60e51b8252610e6591600401615470565b60006001600160a01b038216614f2d5760405163d92e233d60e01b815260040160405180910390fd5b6000614f37612f0f565b90506000614f436129ef565b9050600082600003614f56575084614f9c565b85821115614f8357614f688683615957565b614f728488615916565b614f7c9190615943565b9050614f9c565b60405163fd7850ad60e01b815260040160405180910390fd5b80600003614fb05760009350505050610c1f565b6116cb81865b6001600160a01b038116614fdd5760405163d92e233d60e01b815260040160405180910390fd5b6001600160a01b0381166000908152601c60205260408120805484929061500590849061596a565b92505081905550816003600082825461501e919061596a565b90915550506040518281526001600160a01b03821690600090600080516020615e8f8339815191529060200161468c565b6001600160a01b039091166000908152601b6020526040902060020155565b6060610c1f6001600160a01b03831660145b6060600061508f836002615916565b61509a90600261596a565b6001600160401b038111156150b1576150b1615b0a565b6040519080825280601f01601f1916602001820160405280156150db576020820181803683370190505b509050600360fc1b816000815181106150f6576150f661597d565b60200101906001600160f81b031916908160001a905350600f60fb1b816001815181106151255761512561597d565b60200101906001600160f81b031916908160001a9053506000615149846002615916565b61515490600161596a565b90505b60018111156151cc576f181899199a1a9b1b9c1cb0b131b232b360811b85600f16601081106151885761518861597d565b1a60f81b82828151811061519e5761519e61597d565b60200101906001600160f81b031916908160001a90535060049490941c936151c581615dd7565b9050615157565b508315610d425760405162461bcd60e51b815260206004820181905260248201527f537472696e67733a20686578206c656e67746820696e73756666696369656e746044820152606401610e65565b82805482825590600052602060002090810192821561526e579160200282015b8281111561526e5781546001600160a01b0319166001600160a01b0384351617825560209092019160019091019061523b565b5061527a929150615325565b5090565b604051806080016040528060008152602001600081526020016000815260200160006001600160a01b031681525090565b82805482825590600052602060002090810192821561526e579160200282015b8281111561526e57825182546001600160a01b0319166001600160a01b039091161782556020909201916001909101906152cf565b60405180606001604052806000815260200160008152602001600081525090565b5b8082111561527a5760008155600101615326565b6001600160a01b0391909116815260200190565b60006020828403121561536057600080fd5b81356001600160e01b031981168114610d4257600080fd5b6001600160a01b0381168114612cd657600080fd5b60008083601f84011261539f57600080fd5b5081356001600160401b038111156153b657600080fd5b6020830191508360208260051b8501011115614e1857600080fd5b60008060008060008060a087890312156153ea57600080fd5b8635955060208701356153fc81615378565b9450604087013561540c81615378565b93506060870135925060808701356001600160401b0381111561542e57600080fd5b61543a89828a0161538d565b979a9699509497509295939492505050565b60005b8381101561546757818101518382015260200161544f565b50506000910152565b602081526000825180602084015261548f81604085016020870161544c565b601f01601f19169190910160400192915050565b6000602082840312156154b557600080fd5b5035919050565b600080604083850312156154cf57600080fd5b82356154da81615378565b946020939093013593505050565b6000602082840312156154fa57600080fd5b8135610d4281615378565b60008060006060848603121561551a57600080fd5b833561552581615378565b9250602084013561553581615378565b929592945050506040919091013590565b6000806040838503121561555957600080fd5b82359150602083013561556b81615378565b809150509250929050565b6000806000806060858703121561558c57600080fd5b843561559781615378565b93506020850135925060408501356001600160401b038111156155b957600080fd5b6155c58782880161538d565b95989497509550505050565b938452602084019290925260408301526001600160a01b0316606082015260800190565b6000806020838503121561560857600080fd5b82356001600160401b0381111561561e57600080fd5b61562a8582860161538d565b90969095509350505050565b8015158114612cd657600080fd5b60006020828403121561565657600080fd5b8135610d4281615636565b6000806000806080858703121561567757600080fd5b843593506020850135925060408501359150606085013561569781615378565b939692955090935050565b918252602082015260400190565b803560ff811681146156c157600080fd5b919050565b60008083601f8401126156d857600080fd5b5081356001600160401b038111156156ef57600080fd5b602083019150836020828501011115614e1857600080fd5b60008060008060008060008060c0898b03121561572357600080fd5b88359750602089013561573581615378565b965061574360408a016156b0565b955060608901356001600160401b038082111561575f57600080fd5b61576b8c838d016156c6565b909750955060808b013591508082111561578457600080fd5b506157918b828c016156c6565b90945092505060a08901356157a581615378565b809150509295985092959890939650565b600080600080600080600060e0888a0312156157d157600080fd5b87356157dc81615378565b965060208801356157ec81615378565b95506040880135945060608801359350615808608089016156b0565b925060a0880135915060c0880135905092959891949750929550565b6000806040838503121561583757600080fd5b823561584281615378565b9150602083013561556b81615378565b600181811c9082168061586657607f821691505b60208210810361588657634e487b7160e01b600052602260045260246000fd5b50919050565b60006020828403121561589e57600080fd5b8151610d4281615378565b634e487b7160e01b600052602160045260246000fd5b60208101600283106158e157634e487b7160e01b600052602160045260246000fd5b91905290565b6000602082840312156158f957600080fd5b5051919050565b634e487b7160e01b600052601160045260246000fd5b8082028115828204841417610c1f57610c1f615900565b634e487b7160e01b600052601260045260246000fd5b6000826159525761595261592d565b500490565b81810381811115610c1f57610c1f615900565b80820180821115610c1f57610c1f615900565b634e487b7160e01b600052603260045260246000fd5b6000600182016159a5576159a5615900565b5060010190565b60208082528181018390526000908460408401835b868110156143845782356159d481615378565b6001600160a01b0316825291830191908301906001016159c1565b600181815b80851115615a2a578160001904821115615a1057615a10615900565b80851615615a1d57918102915b93841c93908002906159f4565b509250929050565b600082615a4157506001610c1f565b81615a4e57506000610c1f565b8160018114615a645760028114615a6e57615a8a565b6001915050610c1f565b60ff841115615a7f57615a7f615900565b50506001821b610c1f565b5060208310610133831016604e8410600b8410161715615aad575081810a610c1f565b615ab783836159ef565b8060001904821115615acb57615acb615900565b029392505050565b6000610d4260ff841683615a32565b958652602086019490945260408501929092526060840152608083015260a082015260c00190565b634e487b7160e01b600052604160045260246000fd5b601f8211156110b857600081815260208120601f850160051c81016020861015615b475750805b601f850160051c820191505b81811015615b6657828155600101615b53565b505050505050565b6001600160401b03831115615b8557615b85615b0a565b615b9983615b938354615852565b83615b20565b6000601f841160018114615bcd5760008515615bb55750838201355b600019600387901b1c1916600186901b178355612f84565b600083815260209020601f19861690835b82811015615bfe5786850135825560209485019460019092019101615bde565b5086821015615c1b5760001960f88860031b161c19848701351681555b505060018560011b0183555050505050565b8183823760009101908152919050565b600082615c4c57615c4c61592d565b500690565b6001600160a01b038481168252602080830185905260606040840181905284519084018190526000928583019290916080860190855b81811015615ca5578551851683529483019491830191600101615c87565b50909998505050505050505050565b6001600160a01b039384168152919092166020820152604081019190915260600190565b600060208284031215615cea57600080fd5b8151610d4281615636565b6001600160a01b03929092168252602082015260400190565b60008060408385031215615d2157600080fd5b505080516020909101519092909150565b60008060408385031215615d4557600080fd5b825161ffff81168114615d5757600080fd5b602084015190925061556b81615378565b76020b1b1b2b9b9a1b7b73a3937b61d1030b1b1b7bab73a1604d1b815260008351615d9a81601785016020880161544c565b7001034b99036b4b9b9b4b733903937b6329607d1b6017918401918201528351615dcb81602884016020880161544c565b01602801949350505050565b600081615de657615de6615900565b50600019019056fed5c8971839cd457e3e7008c5010f80fdfb8dbe466e9eff20c25d5d7c1e93d3fb633076a97f32ae349b28772e7b1483f67a926f150cbc501d02bdbd77389325ab1e92f04e56f08d7fc631d317720ce6c1392414dbf052f01c99b4d50ccc494c091893e1a169e79f2fe8aa327b1bceb2fede7a1b76a54824f95ea0e737720954aebcf55f13710eed7eda89416c2984da5475fcff67e96fe85e56eed808559a5222ddf252ad1be2c89b69c2b068fc378daa952ba7f163c4a11628f55a4df523b3ef7f2ad1d3ba35276f35ef140f83e3e0f17b23064fd710113d3f7a5ab30d2678116e71edae12b1b97f4d1f60370fef10105fa2faae0126114a169c64845d6126c98c5be1e5ebec7d5bd14f71427d1e84f3dd0314c0f7b2291e5b200ac8c7c3b925900d80def0427daac599092fcb16b21808ec68dd9a2e1eae89d1e8db213573758b73c3c69bb8fe3d512ecc4cf759cc79239f7b179b0ffacaa9a75d522b39400fdcbc1c05240f31ff3ad067ef1ee35ce4997762752e3a095284754544f4c709d75e2b8821ad6e0e26207e0cb4d242d07eeb1cbb1cfd853e645bdcd27cc5484f95a264697066735822122037ac3d79d54dffba255ea4d20d41c07b9ff2edd592ce40b8311d8410f7601c5f64736f6c63430008130033",
  "devdoc": {
    "events": {
      "Approval(address,address,uint256)": {
        "details": "Emitted when the allowance of a `spender` for an `owner` is set by a call to {approve}. `value` is the new allowance."
      },
      "RoleAdminChanged(bytes32,bytes32,bytes32)": {
        "details": "Emitted when `newAdminRole` is set as ``role``'s admin role, replacing `previousAdminRole` `DEFAULT_ADMIN_ROLE` is the starting admin for all roles, despite {RoleAdminChanged} not being emitted signaling this. _Available since v3.1._"
      },
      "RoleGranted(bytes32,address,address)": {
        "details": "Emitted when `account` is granted `role`. `sender` is the account that originated the contract call, an admin role bearer except when using {AccessControl-_setupRole}."
      },
      "RoleRevoked(bytes32,address,address)": {
        "details": "Emitted when `account` is revoked `role`. `sender` is the account that originated the contract call:   - if using `revokeRole`, it is the admin role bearer   - if using `renounceRole`, it is the role bearer (i.e. `account`)"
      },
      "Transfer(address,address,uint256)": {
        "details": "Emitted when `value` tokens are moved from one account (`from`) to another (`to`). Note that `value` may be zero."
      }
    },
    "kind": "dev",
    "methods": {
      "addStrategy(address)": {
        "params": {
          "newStrategy": "The new strategy to add."
        }
      },
      "allowance(address,address)": {
        "params": {
          "owner": "The address that owns the shares.",
          "spender": "The address that is allowed to spend the shares."
        }
      },
      "approve(address,uint256)": {
        "params": {
          "amount": "The amount of shares to approve.",
          "spender": "The address to approve."
        },
        "returns": {
          "_0": "True if the approval was successful."
        }
      },
      "assessShareOfUnrealisedLosses(address,uint256)": {
        "params": {
          "assetsNeeded": "The amount of assets needed by the strategy.",
          "strategy": "The strategy to assess the share of unrealised losses for."
        }
      },
      "asset()": {
        "returns": {
          "_0": "The address of the asset."
        }
      },
      "balanceOf(address)": {
        "params": {
          "addr": "The address to get the balance of."
        },
        "returns": {
          "_0": "The balance of the user."
        }
      },
      "buyDebt(address,uint256)": {
        "details": "This should only ever be used in an emergency in place of force revoking a strategy in order to not report a loss. It allows the DEBT_PURCHASER role to buy the strategies debt for an equal amount of `asset`.",
        "params": {
          "amount": "The amount of debt to buy from the vault.",
          "strategy": "The strategy to buy the debt for"
        }
      },
      "convertToAssets(uint256)": {
        "params": {
          "shares": "The amount of shares to convert."
        },
        "returns": {
          "_0": "The amount of assets."
        }
      },
      "convertToShares(uint256)": {
        "params": {
          "assets": "The amount of assets to convert."
        },
        "returns": {
          "_0": "The amount of shares."
        }
      },
      "decimals()": {
        "returns": {
          "_0": "The number of decimals of the asset/share."
        }
      },
      "deposit(uint256,address)": {
        "params": {
          "assets": "The amount of assets to deposit.",
          "receiver": "The address to receive the shares."
        },
        "returns": {
          "_0": "The amount of shares minted."
        }
      },
      "fees()": {
        "returns": {
          "_0": "The vault's fees."
        }
      },
      "forceRevokeStrategy(address)": {
        "details": "The vault will remove the strategy and write off any debt left in it as a loss. This function is a dangerous function as it can force a strategy to take a loss. All possible assets should be removed from the strategy first via update_debt. If a strategy is removed erroneously it can be re-added and the loss will be credited as profit. Fees will apply.",
        "params": {
          "strategy": "The strategy to force revoke."
        }
      },
      "getDebt(address)": {
        "params": {
          "strategy": "The strategy to withdraw from."
        }
      },
      "getRoleAdmin(bytes32)": {
        "details": "Returns the admin role that controls `role`. See {grantRole} and {revokeRole}. To change a role's admin, use {_setRoleAdmin}."
      },
      "grantRole(bytes32,address)": {
        "details": "Grants `role` to `account`. If `account` had not been already granted `role`, emits a {RoleGranted} event. Requirements: - the caller must have ``role``'s admin role. May emit a {RoleGranted} event."
      },
      "hasRole(bytes32,address)": {
        "details": "Returns `true` if `account` has been granted `role`."
      },
      "maxDeposit(address)": {
        "params": {
          "receiver": "The address that will receive the shares."
        },
        "returns": {
          "_0": "The maximum amount of assets that can be deposited."
        }
      },
      "maxMint(address)": {
        "params": {
          "receiver": "The address that will receive the shares."
        },
        "returns": {
          "_0": "The maximum amount of shares that can be minted."
        }
      },
      "maxRedeem(address,uint256,address[])": {
        "details": "Complies to normal 4626 interface and takes custom params.",
        "params": {
          "_strategies": "Custom strategies queue if any.",
          "maxLoss": "Custom maxLoss if any.",
          "owner": "The address that owns the shares."
        },
        "returns": {
          "_0": "The maximum amount of shares that can be redeemed."
        }
      },
      "maxWithdraw(address,uint256,address[])": {
        "details": "Complies to normal 4626 interface and takes custom params.",
        "params": {
          "_strategies": "Custom strategies queue if any.",
          "maxLoss": "Custom maxLoss if any.",
          "owner": "The address that owns the shares."
        },
        "returns": {
          "_0": "The maximum amount of assets that can be withdrawn."
        }
      },
      "mint(uint256,address)": {
        "params": {
          "receiver": "The address to receive the shares.",
          "shares": "The amount of shares to mint."
        },
        "returns": {
          "_0": "The amount of assets deposited."
        }
      },
      "permit(address,address,uint256,uint256,uint8,bytes32,bytes32)": {
        "params": {
          "amount": "The amount of shares to approve.",
          "deadline": "The deadline for the permit.",
          "owner": "The address to approve.",
          "r": "The r component of the signature.",
          "s": "The s component of the signature.",
          "spender": "The address to approve.",
          "v": "The v component of the signature."
        },
        "returns": {
          "_0": "True if the approval was successful."
        }
      },
      "previewDeposit(uint256)": {
        "params": {
          "assets": "The amount of assets to deposit."
        },
        "returns": {
          "_0": "The amount of shares that would be minted."
        }
      },
      "previewMint(uint256)": {
        "params": {
          "shares": "The amount of shares to mint."
        },
        "returns": {
          "_0": "The amount of assets that would be deposited."
        }
      },
      "previewRedeem(uint256)": {
        "params": {
          "shares": "The amount of shares to redeem."
        },
        "returns": {
          "_0": "The amount of assets that would be withdrawn."
        }
      },
      "previewWithdraw(uint256)": {
        "params": {
          "assets": "The amount of assets to withdraw."
        },
        "returns": {
          "_0": "The amount of shares that would be redeemed."
        }
      },
      "pricePerShare()": {
        "details": "This value offers limited precision. Integrations that require exact precision should use convertToAssets or convertToShares instead.",
        "returns": {
          "_0": "The price per share."
        }
      },
      "processReport(address)": {
        "details": "Processing a report means comparing the debt that the strategy has taken with the current amount of funds it is reporting. If the strategy owes less than it currently has, it means it has had a profit, else (assets < debt) it has had a loss. Different strategies might choose different reporting strategies: pessimistic, only realised P&L, ... The best way to report depends on the strategy. The profit will be distributed following a smooth curve over the vaults profitMaxUnlockTime seconds. Losses will be taken immediately, first from the profit buffer (avoiding an impact in pps), then will reduce pps. Any applicable fees are charged and distributed during the report as well to the specified recipients.",
        "params": {
          "strategy": "The strategy to process the report for."
        },
        "returns": {
          "_0": "The gain and loss of the strategy."
        }
      },
      "redeem(uint256,address,address,uint256,address[])": {
        "details": "The default behavior is to allow losses to be realized.",
        "params": {
          "_strategies": "Optional array of strategies to withdraw from.",
          "maxLoss": "Optional amount of acceptable loss in Basis Points.",
          "owner": "The address who's shares are being burnt.",
          "receiver": "The address to receive the assets.",
          "shares": "The amount of shares to burn."
        },
        "returns": {
          "_0": "The amount of assets actually withdrawn."
        }
      },
      "renounceRole(bytes32,address)": {
        "details": "Revokes `role` from the calling account. Roles are often managed via {grantRole} and {revokeRole}: this function's purpose is to provide a mechanism for accounts to lose their privileges if they are compromised (such as when a trusted device is misplaced). If the calling account had been revoked `role`, emits a {RoleRevoked} event. Requirements: - the caller must be `account`. May emit a {RoleRevoked} event."
      },
      "revokeRole(bytes32,address)": {
        "details": "Revokes `role` from `account`. If `account` had been granted `role`, emits a {RoleRevoked} event. Requirements: - the caller must have ``role``'s admin role. May emit a {RoleRevoked} event."
      },
      "revokeStrategy(address)": {
        "params": {
          "strategy": "The strategy to revoke."
        }
      },
      "setAccountant(address)": {
        "params": {
          "newAccountant": "The new accountant address."
        }
      },
      "setDefaultQueue(address[])": {
        "details": "Will check each strategy to make sure it is active.",
        "params": {
          "newDefaultQueue": "The new default queue array."
        }
      },
      "setDepositLimit(uint256)": {
        "details": "Can not be changed if a depositLimitModule is set or if shutdown.",
        "params": {
          "_depositLimit": "The new deposit limit."
        }
      },
      "setDepositLimitModule(address)": {
        "details": "The default `depositLimit` will need to be set to max uint256 since the module will override it.",
        "params": {
          "_depositLimitModule": "Address of the module."
        }
      },
      "setMinimumTotalIdle(uint256)": {
        "params": {
          "_minimumTotalIdle": "The new minimum total idle."
        }
      },
      "setProfitMaxUnlockTime(uint256)": {
        "details": "The time is denominated in seconds and must be less than 1 year.  We only need to update locking period if setting to 0,  since the current period will use the old rate and on the next  report it will be reset with the new unlocking time.  Setting to 0 will cause any currently locked profit to instantly unlock and an immediate increase in the vaults Price Per Share.",
        "params": {
          "_newProfitMaxUnlockTime": "The new profit max unlock time."
        }
      },
      "setUseDefaultQueue(bool)": {
        "details": "If set `True` the default queue will always be used no matter whats passed in.",
        "params": {
          "_useDefaultQueue": "new value."
        }
      },
      "setWithdrawLimitModule(address)": {
        "details": "This will override the default `maxWithdraw`.",
        "params": {
          "_withdrawLimitModule": "Address of the module."
        }
      },
      "supportsInterface(bytes4)": {
        "details": "See {IERC165-supportsInterface}."
      },
      "totalAssets()": {
        "returns": {
          "_0": "The total assets held by the vault."
        }
      },
      "totalSupply()": {
        "returns": {
          "_0": "The total supply of shares."
        }
      },
      "transfer(address,uint256)": {
        "params": {
          "amount": "The amount of shares to transfer.",
          "receiver": "The address to transfer shares to."
        },
        "returns": {
          "_0": "True if the transfer was successful."
        }
      },
      "transferFrom(address,address,uint256)": {
        "params": {
          "amount": "The amount of shares to transfer.",
          "receiver": "The address to transfer shares to.",
          "sender": "The address to transfer shares from."
        },
        "returns": {
          "_0": "True if the transfer was successful."
        }
      },
      "unlockedShares()": {
        "returns": {
          "_0": "The amount of shares that are have been unlocked."
        }
      },
      "updateDebt(address,address,uint256)": {
        "params": {
          "strategy": "The strategy to update the debt for.",
          "targetDebt": "The target debt for the strategy."
        },
        "returns": {
          "_0": "The amount of debt added or removed."
        }
      },
      "updateMaxDebtForStrategy(address,uint256)": {
        "params": {
          "newMaxDebt": "The new max debt for the strategy.",
          "strategy": "The strategy to update the max debt for."
        }
      },
      "withdraw(uint256,address,address,uint256,address[])": {
        "details": "The default behavior is to not allow any loss.",
        "params": {
          "_strategies": "Optional array of strategies to withdraw from.",
          "assets": "The amount of asset to withdraw.",
          "maxLoss": "Optional amount of acceptable loss in Basis Points.",
          "owner": "The address who's shares are being burnt.",
          "receiver": "The address to receive the assets."
        },
        "returns": {
          "_0": "The amount of shares actually burnt."
        }
      }
    },
    "title": "Fathom Vault",
    "version": 1
  },
  "userdoc": {
    "kind": "user",
    "methods": {
      "API_VERSION()": {
        "notice": "The version of this vault."
      },
      "DOMAIN_SEPARATOR()": {
        "notice": "EIP-2612 permit() domain separator."
      },
      "DOMAIN_TYPE_HASH()": {
        "notice": "EIP-2612 permit() typehashes"
      },
      "MAX_BPS()": {
        "notice": "100% in Basis Points."
      },
      "MAX_BPS_EXTENDED()": {
        "notice": "Extended for profit locking calculations."
      },
      "MAX_FEE_BPS()": {
        "notice": "50% in BPS for fees."
      },
      "MAX_QUEUE()": {
        "notice": "The max length the withdrawal queue can be."
      },
      "ONE_YEAR()": {
        "notice": "One year constant for calculating the profit unlocking rate."
      },
      "STRATEGY_MANAGER()": {
        "notice": "Roles"
      },
      "accountant()": {
        "notice": "Contract that charges fees and can give refunds."
      },
      "addStrategy(address)": {
        "notice": "Add a new strategy."
      },
      "allowance(address,address)": {
        "notice": "Get the allowance for a spender."
      },
      "approve(address,uint256)": {
        "notice": "Approve an address to spend the vault's shares."
      },
      "assessShareOfUnrealisedLosses(address,uint256)": {
        "notice": "Assess the share of unrealised losses for a strategy."
      },
      "asset()": {
        "notice": "Get the address of the asset."
      },
      "assetContract()": {
        "notice": "Address of the underlying token used by the vault"
      },
      "balanceOf(address)": {
        "notice": "Get the balance of a user."
      },
      "buyDebt(address,uint256)": {
        "notice": "Used for governance to buy bad debt from the vault."
      },
      "convertToAssets(uint256)": {
        "notice": "Convert an amount of shares to assets."
      },
      "convertToShares(uint256)": {
        "notice": "Convert an amount of assets to shares."
      },
      "customFeeBPS()": {
        "notice": "The custom fee BPS charged for withdrawals."
      },
      "customFeeRecipient()": {
        "notice": "Address of the custom fee recipient."
      },
      "decimals()": {
        "notice": "Get the number of decimals of the asset/share."
      },
      "decimalsValue()": {
        "notice": "The current decimals value of the vault."
      },
      "defaultQueue(uint256)": {
        "notice": "The current default withdrawal queue."
      },
      "deposit(uint256,address)": {
        "notice": "Deposit assets into the vault."
      },
      "depositLimit()": {
        "notice": "Maximum amount of tokens that the vault can accept. If totalAssets > deposit_limit, deposits will revert."
      },
      "depositLimitModule()": {
        "notice": "Contract to control the deposit limit."
      },
      "factoryAddress()": {
        "notice": "Factory address"
      },
      "fees()": {
        "notice": "Get the vault's fees."
      },
      "forceRevokeStrategy(address)": {
        "notice": "Force revoke a strategy."
      },
      "fullProfitUnlockDate()": {
        "notice": "The timestamp of when the current unlocking period ends."
      },
      "futureRoleManager()": {
        "notice": "Temporary variable to store the address of the next role_manager until the role is accepted."
      },
      "getDebt(address)": {
        "notice": "Get debt for a strategy."
      },
      "getDefaultQueueLength()": {
        "notice": "Get default strategy queue length."
      },
      "lastProfitUpdate()": {
        "notice": "Last timestamp of the most recent profitable report."
      },
      "maxDeposit(address)": {
        "notice": "Get the maximum amount of assets that can be deposited."
      },
      "maxMint(address)": {
        "notice": "Get the maximum amount of shares that can be minted."
      },
      "maxRedeem(address,uint256,address[])": {
        "notice": "Get the maximum amount of shares that can be redeemed."
      },
      "maxWithdraw(address,uint256,address[])": {
        "notice": "Get the maximum amount of assets that can be withdrawn."
      },
      "minimumTotalIdle()": {
        "notice": "Minimum amount of assets that should be kept in the vault contract to allow for fast, cheap redeems."
      },
      "mint(uint256,address)": {
        "notice": "Mint shares for the receiver."
      },
      "name()": {
        "notice": "ERC20 - name of the vault's token"
      },
      "nonces(address)": {
        "notice": "EIP-2612 permit() nonces"
      },
      "openRoles(bytes32)": {
        "notice": "HashMap mapping roles to their permissioned state. If false, the role is not open to the public."
      },
      "permit(address,address,uint256,uint256,uint8,bytes32,bytes32)": {
        "notice": "Approve an address to spend the vault's shares."
      },
      "previewDeposit(uint256)": {
        "notice": "Preview the amount of shares that would be minted for a deposit."
      },
      "previewMint(uint256)": {
        "notice": "Preview the amount of assets that would be deposited for a mint."
      },
      "previewRedeem(uint256)": {
        "notice": "Preview the amount of assets that would be withdrawn for a redeem."
      },
      "previewWithdraw(uint256)": {
        "notice": "Preview the amount of shares that would be redeemed for a withdraw."
      },
      "pricePerShare()": {
        "notice": "Get the price per share (pps) of the vault."
      },
      "processReport(address)": {
        "notice": "Process the report of a strategy."
      },
      "profitMaxUnlockTime()": {
        "notice": "The amount of time profits will unlock over."
      },
      "profitUnlockingRate()": {
        "notice": "The per second rate at which profit will unlock."
      },
      "redeem(uint256,address,address,uint256,address[])": {
        "notice": "Redeems an amount of shares of `owners` shares sending funds to `receiver`."
      },
      "revokeStrategy(address)": {
        "notice": "Revoke a strategy."
      },
      "roleManager()": {
        "notice": "Address that can add and remove roles to addresses."
      },
      "roles(address)": {
        "notice": "HashMap mapping addresses to their roles"
      },
      "setAccountant(address)": {
        "notice": "Set the new accountant address."
      },
      "setDefaultQueue(address[])": {
        "notice": "Set the new default queue array."
      },
      "setDepositLimit(uint256)": {
        "notice": "Set the new deposit limit."
      },
      "setDepositLimitModule(address)": {
        "notice": "Set a contract to handle the deposit limit."
      },
      "setFees(uint256,uint256,uint256,address)": {
        "notice": "Set fees and refunds."
      },
      "setMinimumTotalIdle(uint256)": {
        "notice": "Set the new minimum total idle."
      },
      "setProfitMaxUnlockTime(uint256)": {
        "notice": "Set the new profit max unlock time."
      },
      "setUseDefaultQueue(bool)": {
        "notice": "Set a new value for `use_default_queue`."
      },
      "setWithdrawLimitModule(address)": {
        "notice": "Set a contract to handle the withdraw limit."
      },
      "sharesName()": {
        "notice": "ERC20 - name of the vault's token"
      },
      "sharesSymbol()": {
        "notice": "ERC20 - symbol of the vault's token"
      },
      "shutdown()": {
        "notice": "State of the vault - if set to true, only withdrawals will be available. It can't be reverted."
      },
      "shutdownVault()": {
        "notice": "Shutdown the vault."
      },
      "strategies(address)": {
        "notice": "HashMap that records all the strategies that are allowed to receive assets from the vault."
      },
      "symbol()": {
        "notice": "ERC20 - symbol of the vault's token"
      },
      "totalAssets()": {
        "notice": "Get the total assets held by the vault."
      },
      "totalDebtAmount()": {
        "notice": "Total amount of assets that has been deposited in strategies."
      },
      "totalIdleAmount()": {
        "notice": "Current assets held in the vault contract. Replacing balanceOf(this) to avoid pricePerShare manipulation."
      },
      "totalSupply()": {
        "notice": "Get the total supply of shares."
      },
      "totalSupplyAmount()": {
        "notice": "Total amount of shares that are currently minted including those locked. NOTE: To get the ERC20 compliant version use totalSupply()."
      },
      "transfer(address,uint256)": {
        "notice": "Transfer shares to a receiver."
      },
      "transferFrom(address,address,uint256)": {
        "notice": "Transfer shares from a sender to a receiver."
      },
      "unlockedShares()": {
        "notice": "Get the amount of shares that have been unlocked."
      },
      "updateDebt(address,address,uint256)": {
        "notice": "Update the debt for a strategy."
      },
      "updateMaxDebtForStrategy(address,uint256)": {
        "notice": "Update the max debt for a strategy."
      },
      "useDefaultQueue()": {
        "notice": "Should the vault use the default_queue regardless whats passed in."
      },
      "withdraw(uint256,address,address,uint256,address[])": {
        "notice": "Withdraw an amount of asset to `receiver` burning `owner`s shares."
      },
      "withdrawLimitModule()": {
        "notice": "Contract to control the withdraw limit."
      }
    },
    "notice": "The Fathom Vault is designed as a non-opinionated system to distribute funds of depositors for a specific `asset` into different opportunities (aka Strategies) and manage accounting in a robust way.",
    "version": 1
  },
  "storageLayout": {
    "storage": [
      {
        "astId": 24,
        "contract": "contracts/packages/VaultPackage.sol:VaultPackage",
        "label": "_roles",
        "offset": 0,
        "slot": "0",
        "type": "t_mapping(t_bytes32,t_struct(RoleData)19_storage)"
      },
      {
        "astId": 796,
        "contract": "contracts/packages/VaultPackage.sol:VaultPackage",
        "label": "_status",
        "offset": 0,
        "slot": "1",
        "type": "t_uint256"
      },
      {
        "astId": 3876,
        "contract": "contracts/packages/VaultPackage.sol:VaultPackage",
        "label": "DOMAIN_SEPARATOR",
        "offset": 0,
        "slot": "2",
        "type": "t_bytes32"
      },
      {
        "astId": 3879,
        "contract": "contracts/packages/VaultPackage.sol:VaultPackage",
        "label": "totalSupplyAmount",
        "offset": 0,
        "slot": "3",
        "type": "t_uint256"
      },
      {
        "astId": 3882,
        "contract": "contracts/packages/VaultPackage.sol:VaultPackage",
        "label": "totalDebtAmount",
        "offset": 0,
        "slot": "4",
        "type": "t_uint256"
      },
      {
        "astId": 3885,
        "contract": "contracts/packages/VaultPackage.sol:VaultPackage",
        "label": "totalIdleAmount",
        "offset": 0,
        "slot": "5",
        "type": "t_uint256"
      },
      {
        "astId": 3888,
        "contract": "contracts/packages/VaultPackage.sol:VaultPackage",
        "label": "minimumTotalIdle",
        "offset": 0,
        "slot": "6",
        "type": "t_uint256"
      },
      {
        "astId": 3891,
        "contract": "contracts/packages/VaultPackage.sol:VaultPackage",
        "label": "depositLimit",
        "offset": 0,
        "slot": "7",
        "type": "t_uint256"
      },
      {
        "astId": 3894,
        "contract": "contracts/packages/VaultPackage.sol:VaultPackage",
        "label": "profitMaxUnlockTime",
        "offset": 0,
        "slot": "8",
        "type": "t_uint256"
      },
      {
        "astId": 3897,
        "contract": "contracts/packages/VaultPackage.sol:VaultPackage",
        "label": "fullProfitUnlockDate",
        "offset": 0,
        "slot": "9",
        "type": "t_uint256"
      },
      {
        "astId": 3900,
        "contract": "contracts/packages/VaultPackage.sol:VaultPackage",
        "label": "profitUnlockingRate",
        "offset": 0,
        "slot": "10",
        "type": "t_uint256"
      },
      {
        "astId": 3903,
        "contract": "contracts/packages/VaultPackage.sol:VaultPackage",
        "label": "lastProfitUpdate",
        "offset": 0,
        "slot": "11",
        "type": "t_uint256"
      },
      {
        "astId": 3906,
        "contract": "contracts/packages/VaultPackage.sol:VaultPackage",
        "label": "accountant",
        "offset": 0,
        "slot": "12",
        "type": "t_address"
      },
      {
        "astId": 3909,
        "contract": "contracts/packages/VaultPackage.sol:VaultPackage",
        "label": "depositLimitModule",
        "offset": 0,
        "slot": "13",
        "type": "t_address"
      },
      {
        "astId": 3912,
        "contract": "contracts/packages/VaultPackage.sol:VaultPackage",
        "label": "withdrawLimitModule",
        "offset": 0,
        "slot": "14",
        "type": "t_address"
      },
      {
        "astId": 3915,
        "contract": "contracts/packages/VaultPackage.sol:VaultPackage",
        "label": "roleManager",
        "offset": 0,
        "slot": "15",
        "type": "t_address"
      },
      {
        "astId": 3918,
        "contract": "contracts/packages/VaultPackage.sol:VaultPackage",
        "label": "futureRoleManager",
        "offset": 0,
        "slot": "16",
        "type": "t_address"
      },
      {
        "astId": 3921,
        "contract": "contracts/packages/VaultPackage.sol:VaultPackage",
        "label": "factoryAddress",
        "offset": 0,
        "slot": "17",
        "type": "t_address"
      },
      {
        "astId": 3924,
        "contract": "contracts/packages/VaultPackage.sol:VaultPackage",
        "label": "customFeeRecipient",
        "offset": 0,
        "slot": "18",
        "type": "t_address"
      },
      {
        "astId": 3928,
        "contract": "contracts/packages/VaultPackage.sol:VaultPackage",
        "label": "assetContract",
        "offset": 0,
        "slot": "19",
        "type": "t_contract(IERC20)1515"
      },
      {
        "astId": 3931,
        "contract": "contracts/packages/VaultPackage.sol:VaultPackage",
        "label": "customFeeBPS",
        "offset": 20,
        "slot": "19",
        "type": "t_uint16"
      },
      {
        "astId": 3934,
        "contract": "contracts/packages/VaultPackage.sol:VaultPackage",
        "label": "useDefaultQueue",
        "offset": 22,
        "slot": "19",
        "type": "t_bool"
      },
      {
        "astId": 3937,
        "contract": "contracts/packages/VaultPackage.sol:VaultPackage",
        "label": "shutdown",
        "offset": 23,
        "slot": "19",
        "type": "t_bool"
      },
      {
        "astId": 3940,
        "contract": "contracts/packages/VaultPackage.sol:VaultPackage",
        "label": "initialized",
        "offset": 24,
        "slot": "19",
        "type": "t_bool"
      },
      {
        "astId": 3943,
        "contract": "contracts/packages/VaultPackage.sol:VaultPackage",
        "label": "decimalsValue",
        "offset": 25,
        "slot": "19",
        "type": "t_uint8"
      },
      {
        "astId": 3946,
        "contract": "contracts/packages/VaultPackage.sol:VaultPackage",
        "label": "sharesName",
        "offset": 0,
        "slot": "20",
        "type": "t_string_storage"
      },
      {
        "astId": 3949,
        "contract": "contracts/packages/VaultPackage.sol:VaultPackage",
        "label": "sharesSymbol",
        "offset": 0,
        "slot": "21",
        "type": "t_string_storage"
      },
      {
        "astId": 3953,
        "contract": "contracts/packages/VaultPackage.sol:VaultPackage",
        "label": "defaultQueue",
        "offset": 0,
        "slot": "22",
        "type": "t_array(t_address)dyn_storage"
      },
      {
        "astId": 3956,
        "contract": "contracts/packages/VaultPackage.sol:VaultPackage",
        "label": "customFees",
        "offset": 0,
        "slot": "23",
        "type": "t_struct(FeeAssessment)4010_storage"
      },
      {
        "astId": 3962,
        "contract": "contracts/packages/VaultPackage.sol:VaultPackage",
        "label": "strategies",
        "offset": 0,
        "slot": "27",
        "type": "t_mapping(t_address,t_struct(StrategyParams)4001_storage)"
      },
      {
        "astId": 3967,
        "contract": "contracts/packages/VaultPackage.sol:VaultPackage",
        "label": "_balanceOf",
        "offset": 0,
        "slot": "28",
        "type": "t_mapping(t_address,t_uint256)"
      },
      {
        "astId": 3974,
        "contract": "contracts/packages/VaultPackage.sol:VaultPackage",
        "label": "_allowance",
        "offset": 0,
        "slot": "29",
        "type": "t_mapping(t_address,t_mapping(t_address,t_uint256))"
      },
      {
        "astId": 3979,
        "contract": "contracts/packages/VaultPackage.sol:VaultPackage",
        "label": "nonces",
        "offset": 0,
        "slot": "30",
        "type": "t_mapping(t_address,t_uint256)"
      },
      {
        "astId": 3984,
        "contract": "contracts/packages/VaultPackage.sol:VaultPackage",
        "label": "roles",
        "offset": 0,
        "slot": "31",
        "type": "t_mapping(t_address,t_bytes32)"
      },
      {
        "astId": 3989,
        "contract": "contracts/packages/VaultPackage.sol:VaultPackage",
        "label": "openRoles",
        "offset": 0,
        "slot": "32",
        "type": "t_mapping(t_bytes32,t_bool)"
      }
    ],
    "types": {
      "t_address": {
        "encoding": "inplace",
        "label": "address",
        "numberOfBytes": "20"
      },
      "t_array(t_address)dyn_storage": {
        "base": "t_address",
        "encoding": "dynamic_array",
        "label": "address[]",
        "numberOfBytes": "32"
      },
      "t_bool": {
        "encoding": "inplace",
        "label": "bool",
        "numberOfBytes": "1"
      },
      "t_bytes32": {
        "encoding": "inplace",
        "label": "bytes32",
        "numberOfBytes": "32"
      },
      "t_contract(IERC20)1515": {
        "encoding": "inplace",
        "label": "contract IERC20",
        "numberOfBytes": "20"
      },
      "t_mapping(t_address,t_bool)": {
        "encoding": "mapping",
        "key": "t_address",
        "label": "mapping(address => bool)",
        "numberOfBytes": "32",
        "value": "t_bool"
      },
      "t_mapping(t_address,t_bytes32)": {
        "encoding": "mapping",
        "key": "t_address",
        "label": "mapping(address => bytes32)",
        "numberOfBytes": "32",
        "value": "t_bytes32"
      },
      "t_mapping(t_address,t_mapping(t_address,t_uint256))": {
        "encoding": "mapping",
        "key": "t_address",
        "label": "mapping(address => mapping(address => uint256))",
        "numberOfBytes": "32",
        "value": "t_mapping(t_address,t_uint256)"
      },
      "t_mapping(t_address,t_struct(StrategyParams)4001_storage)": {
        "encoding": "mapping",
        "key": "t_address",
        "label": "mapping(address => struct StrategyParams)",
        "numberOfBytes": "32",
        "value": "t_struct(StrategyParams)4001_storage"
      },
      "t_mapping(t_address,t_uint256)": {
        "encoding": "mapping",
        "key": "t_address",
        "label": "mapping(address => uint256)",
        "numberOfBytes": "32",
        "value": "t_uint256"
      },
      "t_mapping(t_bytes32,t_bool)": {
        "encoding": "mapping",
        "key": "t_bytes32",
        "label": "mapping(bytes32 => bool)",
        "numberOfBytes": "32",
        "value": "t_bool"
      },
      "t_mapping(t_bytes32,t_struct(RoleData)19_storage)": {
        "encoding": "mapping",
        "key": "t_bytes32",
        "label": "mapping(bytes32 => struct AccessControl.RoleData)",
        "numberOfBytes": "32",
        "value": "t_struct(RoleData)19_storage"
      },
      "t_string_storage": {
        "encoding": "bytes",
        "label": "string",
        "numberOfBytes": "32"
      },
      "t_struct(FeeAssessment)4010_storage": {
        "encoding": "inplace",
        "label": "struct FeeAssessment",
        "members": [
          {
            "astId": 4003,
            "contract": "contracts/packages/VaultPackage.sol:VaultPackage",
            "label": "totalFees",
            "offset": 0,
            "slot": "0",
            "type": "t_uint256"
          },
          {
            "astId": 4005,
            "contract": "contracts/packages/VaultPackage.sol:VaultPackage",
            "label": "totalRefunds",
            "offset": 0,
            "slot": "1",
            "type": "t_uint256"
          },
          {
            "astId": 4007,
            "contract": "contracts/packages/VaultPackage.sol:VaultPackage",
            "label": "protocolFees",
            "offset": 0,
            "slot": "2",
            "type": "t_uint256"
          },
          {
            "astId": 4009,
            "contract": "contracts/packages/VaultPackage.sol:VaultPackage",
            "label": "protocolFeeRecipient",
            "offset": 0,
            "slot": "3",
            "type": "t_address"
          }
        ],
        "numberOfBytes": "128"
      },
      "t_struct(RoleData)19_storage": {
        "encoding": "inplace",
        "label": "struct AccessControl.RoleData",
        "members": [
          {
            "astId": 16,
            "contract": "contracts/packages/VaultPackage.sol:VaultPackage",
            "label": "members",
            "offset": 0,
            "slot": "0",
            "type": "t_mapping(t_address,t_bool)"
          },
          {
            "astId": 18,
            "contract": "contracts/packages/VaultPackage.sol:VaultPackage",
            "label": "adminRole",
            "offset": 0,
            "slot": "1",
            "type": "t_bytes32"
          }
        ],
        "numberOfBytes": "64"
      },
      "t_struct(StrategyParams)4001_storage": {
        "encoding": "inplace",
        "label": "struct StrategyParams",
        "members": [
          {
            "astId": 3994,
            "contract": "contracts/packages/VaultPackage.sol:VaultPackage",
            "label": "activation",
            "offset": 0,
            "slot": "0",
            "type": "t_uint256"
          },
          {
            "astId": 3996,
            "contract": "contracts/packages/VaultPackage.sol:VaultPackage",
            "label": "lastReport",
            "offset": 0,
            "slot": "1",
            "type": "t_uint256"
          },
          {
            "astId": 3998,
            "contract": "contracts/packages/VaultPackage.sol:VaultPackage",
            "label": "currentDebt",
            "offset": 0,
            "slot": "2",
            "type": "t_uint256"
          },
          {
            "astId": 4000,
            "contract": "contracts/packages/VaultPackage.sol:VaultPackage",
            "label": "maxDebt",
            "offset": 0,
            "slot": "3",
            "type": "t_uint256"
          }
        ],
        "numberOfBytes": "128"
      },
      "t_uint16": {
        "encoding": "inplace",
        "label": "uint16",
        "numberOfBytes": "2"
      },
      "t_uint256": {
        "encoding": "inplace",
        "label": "uint256",
        "numberOfBytes": "32"
      },
      "t_uint8": {
        "encoding": "inplace",
        "label": "uint8",
        "numberOfBytes": "1"
      }
    }
  }
}