{
  "address": "0x297C02FE71E36e4e79fb545417e2abb9Dd23a3f4",
  "abi": [
    {
      "inputs": [],
      "name": "DebtDidntChange",
      "type": "error"
    },
    {
      "inputs": [],
      "name": "DebtHigherThanMaxDebt",
      "type": "error"
    },
    {
      "inputs": [],
      "name": "ERC20InsufficientAllowance",
      "type": "error"
    },
    {
      "inputs": [],
      "name": "ERC20PermitExpired",
      "type": "error"
    },
    {
      "inputs": [],
      "name": "ERC20PermitInvalidSignature",
      "type": "error"
    },
    {
      "inputs": [],
      "name": "ExceedDepositLimit",
      "type": "error"
    },
    {
      "inputs": [],
      "name": "InactiveStrategy",
      "type": "error"
    },
    {
      "inputs": [],
      "name": "InsufficientAssets",
      "type": "error"
    },
    {
      "inputs": [],
      "name": "InsufficientFunds",
      "type": "error"
    },
    {
      "inputs": [],
      "name": "InsufficientShares",
      "type": "error"
    },
    {
      "inputs": [],
      "name": "InvalidAsset",
      "type": "error"
    },
    {
      "inputs": [],
      "name": "InvalidAssetDecimals",
      "type": "error"
    },
    {
      "inputs": [],
      "name": "MaxLoss",
      "type": "error"
    },
    {
      "inputs": [],
      "name": "ProfitUnlockTimeTooLong",
      "type": "error"
    },
    {
      "inputs": [],
      "name": "StrategyAlreadyActive",
      "type": "error"
    },
    {
      "inputs": [],
      "name": "StrategyDebtIsLessThanAssetsNeeded",
      "type": "error"
    },
    {
      "inputs": [],
      "name": "StrategyHasDebt",
      "type": "error"
    },
    {
      "inputs": [],
      "name": "StrategyHasUnrealisedLosses",
      "type": "error"
    },
    {
      "inputs": [],
      "name": "StrategyIsShutdown",
      "type": "error"
    },
    {
      "inputs": [],
      "name": "TooMuchLoss",
      "type": "error"
    },
    {
      "inputs": [],
      "name": "UsingModule",
      "type": "error"
    },
    {
      "inputs": [],
      "name": "ZeroAddress",
      "type": "error"
    },
    {
      "inputs": [],
      "name": "ZeroValue",
      "type": "error"
    },
    {
      "anonymous": false,
      "inputs": [
        {
          "indexed": true,
          "internalType": "address",
          "name": "strategy",
          "type": "address"
        },
        {
          "indexed": false,
          "internalType": "uint256",
          "name": "amount",
          "type": "uint256"
        }
      ],
      "name": "DebtPurchased",
      "type": "event"
    },
    {
      "anonymous": false,
      "inputs": [
        {
          "indexed": true,
          "internalType": "address",
          "name": "strategy",
          "type": "address"
        },
        {
          "indexed": false,
          "internalType": "uint256",
          "name": "currentDebt",
          "type": "uint256"
        },
        {
          "indexed": false,
          "internalType": "uint256",
          "name": "newDebt",
          "type": "uint256"
        }
      ],
      "name": "DebtUpdated",
      "type": "event"
    },
    {
      "anonymous": false,
      "inputs": [
        {
          "indexed": true,
          "internalType": "bytes32",
          "name": "role",
          "type": "bytes32"
        },
        {
          "indexed": true,
          "internalType": "bytes32",
          "name": "previousAdminRole",
          "type": "bytes32"
        },
        {
          "indexed": true,
          "internalType": "bytes32",
          "name": "newAdminRole",
          "type": "bytes32"
        }
      ],
      "name": "RoleAdminChanged",
      "type": "event"
    },
    {
      "anonymous": false,
      "inputs": [
        {
          "indexed": true,
          "internalType": "bytes32",
          "name": "role",
          "type": "bytes32"
        },
        {
          "indexed": true,
          "internalType": "address",
          "name": "account",
          "type": "address"
        },
        {
          "indexed": true,
          "internalType": "address",
          "name": "sender",
          "type": "address"
        }
      ],
      "name": "RoleGranted",
      "type": "event"
    },
    {
      "anonymous": false,
      "inputs": [
        {
          "indexed": true,
          "internalType": "bytes32",
          "name": "role",
          "type": "bytes32"
        },
        {
          "indexed": true,
          "internalType": "address",
          "name": "account",
          "type": "address"
        },
        {
          "indexed": true,
          "internalType": "address",
          "name": "sender",
          "type": "address"
        }
      ],
      "name": "RoleRevoked",
      "type": "event"
    },
    {
      "anonymous": false,
      "inputs": [
        {
          "indexed": true,
          "internalType": "address",
          "name": "account",
          "type": "address"
        },
        {
          "indexed": false,
          "internalType": "bytes32",
          "name": "role",
          "type": "bytes32"
        }
      ],
      "name": "RoleSet",
      "type": "event"
    },
    {
      "anonymous": false,
      "inputs": [
        {
          "indexed": true,
          "internalType": "bytes32",
          "name": "role",
          "type": "bytes32"
        },
        {
          "indexed": true,
          "internalType": "enum RoleStatusChange",
          "name": "status",
          "type": "uint8"
        }
      ],
      "name": "RoleStatusChanged",
      "type": "event"
    },
    {
      "anonymous": false,
      "inputs": [],
      "name": "Shutdown",
      "type": "event"
    },
    {
      "anonymous": false,
      "inputs": [
        {
          "indexed": true,
          "internalType": "address",
          "name": "strategy",
          "type": "address"
        },
        {
          "indexed": false,
          "internalType": "enum StrategyChangeType",
          "name": "changeType",
          "type": "uint8"
        }
      ],
      "name": "StrategyChanged",
      "type": "event"
    },
    {
      "anonymous": false,
      "inputs": [
        {
          "indexed": true,
          "internalType": "address",
          "name": "strategy",
          "type": "address"
        },
        {
          "indexed": false,
          "internalType": "uint256",
          "name": "gain",
          "type": "uint256"
        },
        {
          "indexed": false,
          "internalType": "uint256",
          "name": "loss",
          "type": "uint256"
        },
        {
          "indexed": false,
          "internalType": "uint256",
          "name": "currentDebt",
          "type": "uint256"
        },
        {
          "indexed": false,
          "internalType": "uint256",
          "name": "protocolFees",
          "type": "uint256"
        },
        {
          "indexed": false,
          "internalType": "uint256",
          "name": "totalFees",
          "type": "uint256"
        },
        {
          "indexed": false,
          "internalType": "uint256",
          "name": "totalRefunds",
          "type": "uint256"
        }
      ],
      "name": "StrategyReported",
      "type": "event"
    },
    {
      "anonymous": false,
      "inputs": [
        {
          "indexed": true,
          "internalType": "address",
          "name": "accountant",
          "type": "address"
        }
      ],
      "name": "UpdateAccountant",
      "type": "event"
    },
    {
      "anonymous": false,
      "inputs": [
        {
          "indexed": false,
          "internalType": "address[]",
          "name": "newDefaultQueue",
          "type": "address[]"
        }
      ],
      "name": "UpdateDefaultQueue",
      "type": "event"
    },
    {
      "anonymous": false,
      "inputs": [
        {
          "indexed": false,
          "internalType": "uint256",
          "name": "depositLimit",
          "type": "uint256"
        }
      ],
      "name": "UpdateDepositLimit",
      "type": "event"
    },
    {
      "anonymous": false,
      "inputs": [
        {
          "indexed": true,
          "internalType": "address",
          "name": "depositLimitModule",
          "type": "address"
        }
      ],
      "name": "UpdateDepositLimitModule",
      "type": "event"
    },
    {
      "anonymous": false,
      "inputs": [
        {
          "indexed": false,
          "internalType": "uint256",
          "name": "minimumTotalIdle",
          "type": "uint256"
        }
      ],
      "name": "UpdateMinimumTotalIdle",
      "type": "event"
    },
    {
      "anonymous": false,
      "inputs": [
        {
          "indexed": false,
          "internalType": "uint256",
          "name": "profitMaxUnlockTime",
          "type": "uint256"
        }
      ],
      "name": "UpdateProfitMaxUnlockTime",
      "type": "event"
    },
    {
      "anonymous": false,
      "inputs": [
        {
          "indexed": true,
          "internalType": "address",
          "name": "roleManager",
          "type": "address"
        }
      ],
      "name": "UpdateRoleManager",
      "type": "event"
    },
    {
      "anonymous": false,
      "inputs": [
        {
          "indexed": false,
          "internalType": "bool",
          "name": "useDefaultQueue",
          "type": "bool"
        }
      ],
      "name": "UpdateUseDefaultQueue",
      "type": "event"
    },
    {
      "anonymous": false,
      "inputs": [
        {
          "indexed": true,
          "internalType": "address",
          "name": "withdrawLimitModule",
          "type": "address"
        }
      ],
      "name": "UpdateWithdrawLimitModule",
      "type": "event"
    },
    {
      "anonymous": false,
      "inputs": [
        {
          "indexed": true,
          "internalType": "uint256",
          "name": "totalFees",
          "type": "uint256"
        },
        {
          "indexed": true,
          "internalType": "uint256",
          "name": "totalRefunds",
          "type": "uint256"
        },
        {
          "indexed": true,
          "internalType": "uint256",
          "name": "protocolFees",
          "type": "uint256"
        },
        {
          "indexed": false,
          "internalType": "address",
          "name": "protocolFeeRecipient",
          "type": "address"
        }
      ],
      "name": "UpdatedFees",
      "type": "event"
    },
    {
      "anonymous": false,
      "inputs": [
        {
          "indexed": true,
          "internalType": "address",
          "name": "sender",
          "type": "address"
        },
        {
          "indexed": true,
          "internalType": "address",
          "name": "strategy",
          "type": "address"
        },
        {
          "indexed": false,
          "internalType": "uint256",
          "name": "newDebt",
          "type": "uint256"
        }
      ],
      "name": "UpdatedMaxDebtForStrategy",
      "type": "event"
    },
    {
      "inputs": [],
      "name": "ACCOUNTANT_MANAGER",
      "outputs": [
        {
          "internalType": "bytes32",
          "name": "",
          "type": "bytes32"
        }
      ],
      "stateMutability": "view",
      "type": "function"
    },
    {
      "inputs": [],
      "name": "ADD_STRATEGY_MANAGER",
      "outputs": [
        {
          "internalType": "bytes32",
          "name": "",
          "type": "bytes32"
        }
      ],
      "stateMutability": "view",
      "type": "function"
    },
    {
      "inputs": [],
      "name": "API_VERSION",
      "outputs": [
        {
          "internalType": "string",
          "name": "",
          "type": "string"
        }
      ],
      "stateMutability": "view",
      "type": "function"
    },
    {
      "inputs": [],
      "name": "DEBT_MANAGER",
      "outputs": [
        {
          "internalType": "bytes32",
          "name": "",
          "type": "bytes32"
        }
      ],
      "stateMutability": "view",
      "type": "function"
    },
    {
      "inputs": [],
      "name": "DEBT_PURCHASER",
      "outputs": [
        {
          "internalType": "bytes32",
          "name": "",
          "type": "bytes32"
        }
      ],
      "stateMutability": "view",
      "type": "function"
    },
    {
      "inputs": [],
      "name": "DEFAULT_ADMIN_ROLE",
      "outputs": [
        {
          "internalType": "bytes32",
          "name": "",
          "type": "bytes32"
        }
      ],
      "stateMutability": "view",
      "type": "function"
    },
    {
      "inputs": [],
      "name": "DEPOSIT_LIMIT_MANAGER",
      "outputs": [
        {
          "internalType": "bytes32",
          "name": "",
          "type": "bytes32"
        }
      ],
      "stateMutability": "view",
      "type": "function"
    },
    {
      "inputs": [],
      "name": "DOMAIN_SEPARATOR",
      "outputs": [
        {
          "internalType": "bytes32",
          "name": "",
          "type": "bytes32"
        }
      ],
      "stateMutability": "view",
      "type": "function"
    },
    {
      "inputs": [],
      "name": "DOMAIN_TYPE_HASH",
      "outputs": [
        {
          "internalType": "bytes32",
          "name": "",
          "type": "bytes32"
        }
      ],
      "stateMutability": "view",
      "type": "function"
    },
    {
      "inputs": [],
      "name": "EMERGENCY_MANAGER",
      "outputs": [
        {
          "internalType": "bytes32",
          "name": "",
          "type": "bytes32"
        }
      ],
      "stateMutability": "view",
      "type": "function"
    },
    {
      "inputs": [],
      "name": "FACTORY",
      "outputs": [
        {
          "internalType": "address",
          "name": "",
          "type": "address"
        }
      ],
      "stateMutability": "view",
      "type": "function"
    },
    {
      "inputs": [],
      "name": "FORCE_REVOKE_MANAGER",
      "outputs": [
        {
          "internalType": "bytes32",
          "name": "",
          "type": "bytes32"
        }
      ],
      "stateMutability": "view",
      "type": "function"
    },
    {
      "inputs": [],
      "name": "MAX_BPS",
      "outputs": [
        {
          "internalType": "uint256",
          "name": "",
          "type": "uint256"
        }
      ],
      "stateMutability": "view",
      "type": "function"
    },
    {
      "inputs": [],
      "name": "MAX_BPS_EXTENDED",
      "outputs": [
        {
          "internalType": "uint256",
          "name": "",
          "type": "uint256"
        }
      ],
      "stateMutability": "view",
      "type": "function"
    },
    {
      "inputs": [],
      "name": "MAX_DEBT_MANAGER",
      "outputs": [
        {
          "internalType": "bytes32",
          "name": "",
          "type": "bytes32"
        }
      ],
      "stateMutability": "view",
      "type": "function"
    },
    {
      "inputs": [],
      "name": "MAX_QUEUE",
      "outputs": [
        {
          "internalType": "uint256",
          "name": "",
          "type": "uint256"
        }
      ],
      "stateMutability": "view",
      "type": "function"
    },
    {
      "inputs": [],
      "name": "MINIMUM_IDLE_MANAGER",
      "outputs": [
        {
          "internalType": "bytes32",
          "name": "",
          "type": "bytes32"
        }
      ],
      "stateMutability": "view",
      "type": "function"
    },
    {
      "inputs": [],
      "name": "ONE_YEAR",
      "outputs": [
        {
          "internalType": "uint256",
          "name": "",
          "type": "uint256"
        }
      ],
      "stateMutability": "view",
      "type": "function"
    },
    {
      "inputs": [],
      "name": "PERMIT_TYPE_HASH",
      "outputs": [
        {
          "internalType": "bytes32",
          "name": "",
          "type": "bytes32"
        }
      ],
      "stateMutability": "view",
      "type": "function"
    },
    {
      "inputs": [],
      "name": "PROFIT_UNLOCK_MANAGER",
      "outputs": [
        {
          "internalType": "bytes32",
          "name": "",
          "type": "bytes32"
        }
      ],
      "stateMutability": "view",
      "type": "function"
    },
    {
      "inputs": [],
      "name": "QUEUE_MANAGER",
      "outputs": [
        {
          "internalType": "bytes32",
          "name": "",
          "type": "bytes32"
        }
      ],
      "stateMutability": "view",
      "type": "function"
    },
    {
      "inputs": [],
      "name": "REPORTING_MANAGER",
      "outputs": [
        {
          "internalType": "bytes32",
          "name": "",
          "type": "bytes32"
        }
      ],
      "stateMutability": "view",
      "type": "function"
    },
    {
      "inputs": [],
      "name": "REVOKE_STRATEGY_MANAGER",
      "outputs": [
        {
          "internalType": "bytes32",
          "name": "",
          "type": "bytes32"
        }
      ],
      "stateMutability": "view",
      "type": "function"
    },
    {
      "inputs": [],
      "name": "ROLE_MANAGER",
      "outputs": [
        {
          "internalType": "bytes32",
          "name": "",
          "type": "bytes32"
        }
      ],
      "stateMutability": "view",
      "type": "function"
    },
    {
      "inputs": [],
      "name": "WITHDRAW_LIMIT_MANAGER",
      "outputs": [
        {
          "internalType": "bytes32",
          "name": "",
          "type": "bytes32"
        }
      ],
      "stateMutability": "view",
      "type": "function"
    },
    {
      "inputs": [],
      "name": "accountant",
      "outputs": [
        {
          "internalType": "address",
          "name": "",
          "type": "address"
        }
      ],
      "stateMutability": "view",
      "type": "function"
    },
    {
      "inputs": [
        {
          "internalType": "address",
          "name": "newStrategy",
          "type": "address"
        }
      ],
      "name": "addStrategy",
      "outputs": [],
      "stateMutability": "nonpayable",
      "type": "function"
    },
    {
      "inputs": [
        {
          "internalType": "address",
          "name": "owner",
          "type": "address"
        },
        {
          "internalType": "address",
          "name": "spender",
          "type": "address"
        }
      ],
      "name": "allowance",
      "outputs": [
        {
          "internalType": "uint256",
          "name": "",
          "type": "uint256"
        }
      ],
      "stateMutability": "view",
      "type": "function"
    },
    {
      "inputs": [
        {
          "internalType": "address",
          "name": "spender",
          "type": "address"
        },
        {
          "internalType": "uint256",
          "name": "amount",
          "type": "uint256"
        }
      ],
      "name": "approve",
      "outputs": [
        {
          "internalType": "bool",
          "name": "",
          "type": "bool"
        }
      ],
      "stateMutability": "nonpayable",
      "type": "function"
    },
    {
      "inputs": [],
      "name": "asset",
      "outputs": [
        {
          "internalType": "address",
          "name": "",
          "type": "address"
        }
      ],
      "stateMutability": "view",
      "type": "function"
    },
    {
      "inputs": [
        {
          "internalType": "address",
          "name": "addr",
          "type": "address"
        }
      ],
      "name": "balanceOf",
      "outputs": [
        {
          "internalType": "uint256",
          "name": "",
          "type": "uint256"
        }
      ],
      "stateMutability": "view",
      "type": "function"
    },
    {
      "inputs": [
        {
          "internalType": "address",
          "name": "strategy",
          "type": "address"
        },
        {
          "internalType": "uint256",
          "name": "amount",
          "type": "uint256"
        }
      ],
      "name": "buyDebt",
      "outputs": [],
      "stateMutability": "nonpayable",
      "type": "function"
    },
    {
      "inputs": [
        {
          "internalType": "uint256",
          "name": "shares",
          "type": "uint256"
        }
      ],
      "name": "convertToAssets",
      "outputs": [
        {
          "internalType": "uint256",
          "name": "",
          "type": "uint256"
        }
      ],
      "stateMutability": "view",
      "type": "function"
    },
    {
      "inputs": [
        {
          "internalType": "uint256",
          "name": "assets",
          "type": "uint256"
        }
      ],
      "name": "convertToShares",
      "outputs": [
        {
          "internalType": "uint256",
          "name": "",
          "type": "uint256"
        }
      ],
      "stateMutability": "view",
      "type": "function"
    },
    {
      "inputs": [],
      "name": "decimals",
      "outputs": [
        {
          "internalType": "uint8",
          "name": "",
          "type": "uint8"
        }
      ],
      "stateMutability": "view",
      "type": "function"
    },
    {
      "inputs": [
        {
          "internalType": "address",
          "name": "spender",
          "type": "address"
        },
        {
          "internalType": "uint256",
          "name": "amount",
          "type": "uint256"
        }
      ],
      "name": "decreaseAllowance",
      "outputs": [
        {
          "internalType": "bool",
          "name": "",
          "type": "bool"
        }
      ],
      "stateMutability": "nonpayable",
      "type": "function"
    },
    {
      "inputs": [
        {
          "internalType": "uint256",
          "name": "",
          "type": "uint256"
        }
      ],
      "name": "defaultQueue",
      "outputs": [
        {
          "internalType": "address",
          "name": "",
          "type": "address"
        }
      ],
      "stateMutability": "view",
      "type": "function"
    },
    {
      "inputs": [
        {
          "internalType": "uint256",
          "name": "assets",
          "type": "uint256"
        },
        {
          "internalType": "address",
          "name": "receiver",
          "type": "address"
        }
      ],
      "name": "deposit",
      "outputs": [
        {
          "internalType": "uint256",
          "name": "",
          "type": "uint256"
        }
      ],
      "stateMutability": "nonpayable",
      "type": "function"
    },
    {
      "inputs": [],
      "name": "depositLimit",
      "outputs": [
        {
          "internalType": "uint256",
          "name": "",
          "type": "uint256"
        }
      ],
      "stateMutability": "view",
      "type": "function"
    },
    {
      "inputs": [],
      "name": "depositLimitModule",
      "outputs": [
        {
          "internalType": "address",
          "name": "",
          "type": "address"
        }
      ],
      "stateMutability": "view",
      "type": "function"
    },
    {
      "inputs": [],
      "name": "fees",
      "outputs": [
        {
          "internalType": "uint256",
          "name": "totalFees",
          "type": "uint256"
        },
        {
          "internalType": "uint256",
          "name": "totalRefunds",
          "type": "uint256"
        },
        {
          "internalType": "uint256",
          "name": "protocolFees",
          "type": "uint256"
        },
        {
          "internalType": "address",
          "name": "protocolFeeRecipient",
          "type": "address"
        }
      ],
      "stateMutability": "view",
      "type": "function"
    },
    {
      "inputs": [
        {
          "internalType": "address",
          "name": "strategy",
          "type": "address"
        }
      ],
      "name": "forceRevokeStrategy",
      "outputs": [],
      "stateMutability": "nonpayable",
      "type": "function"
    },
    {
      "inputs": [],
      "name": "fullProfitUnlockDate",
      "outputs": [
        {
          "internalType": "uint256",
          "name": "",
          "type": "uint256"
        }
      ],
      "stateMutability": "view",
      "type": "function"
    },
    {
      "inputs": [],
      "name": "futureRoleManager",
      "outputs": [
        {
          "internalType": "address",
          "name": "",
          "type": "address"
        }
      ],
      "stateMutability": "view",
      "type": "function"
    },
    {
      "inputs": [
        {
          "internalType": "address",
          "name": "strategy",
          "type": "address"
        }
      ],
      "name": "getDebt",
      "outputs": [
        {
          "internalType": "uint256",
          "name": "",
          "type": "uint256"
        }
      ],
      "stateMutability": "view",
      "type": "function"
    },
    {
      "inputs": [
        {
          "internalType": "bytes32",
          "name": "role",
          "type": "bytes32"
        }
      ],
      "name": "getRoleAdmin",
      "outputs": [
        {
          "internalType": "bytes32",
          "name": "",
          "type": "bytes32"
        }
      ],
      "stateMutability": "view",
      "type": "function"
    },
    {
      "inputs": [],
      "name": "governance",
      "outputs": [
        {
          "internalType": "address",
          "name": "",
          "type": "address"
        }
      ],
      "stateMutability": "view",
      "type": "function"
    },
    {
      "inputs": [
        {
          "internalType": "bytes32",
          "name": "role",
          "type": "bytes32"
        },
        {
          "internalType": "address",
          "name": "account",
          "type": "address"
        }
      ],
      "name": "grantRole",
      "outputs": [],
      "stateMutability": "nonpayable",
      "type": "function"
    },
    {
      "inputs": [
        {
          "internalType": "bytes32",
          "name": "role",
          "type": "bytes32"
        },
        {
          "internalType": "address",
          "name": "account",
          "type": "address"
        }
      ],
      "name": "hasRole",
      "outputs": [
        {
          "internalType": "bool",
          "name": "",
          "type": "bool"
        }
      ],
      "stateMutability": "view",
      "type": "function"
    },
    {
      "inputs": [
        {
          "internalType": "address",
          "name": "spender",
          "type": "address"
        },
        {
          "internalType": "uint256",
          "name": "amount",
          "type": "uint256"
        }
      ],
      "name": "increaseAllowance",
      "outputs": [
        {
          "internalType": "bool",
          "name": "",
          "type": "bool"
        }
      ],
      "stateMutability": "nonpayable",
      "type": "function"
    },
    {
      "inputs": [
        {
          "internalType": "uint256",
          "name": "_profitMaxUnlockTime",
          "type": "uint256"
        },
        {
          "internalType": "address payable",
          "name": "_strategyManagerAddress",
          "type": "address"
        },
        {
          "internalType": "address",
          "name": "_sharesManagerAddress",
          "type": "address"
        },
        {
          "internalType": "address payable",
          "name": "_settersAddress",
          "type": "address"
        },
        {
          "internalType": "address",
          "name": "_governanceAddress",
          "type": "address"
        }
      ],
      "name": "initialize",
      "outputs": [],
      "stateMutability": "nonpayable",
      "type": "function"
    },
    {
      "inputs": [],
      "name": "lastProfitUpdate",
      "outputs": [
        {
          "internalType": "uint256",
          "name": "",
          "type": "uint256"
        }
      ],
      "stateMutability": "view",
      "type": "function"
    },
    {
      "inputs": [
        {
          "internalType": "address",
          "name": "receiver",
          "type": "address"
        }
      ],
      "name": "maxDeposit",
      "outputs": [
        {
          "internalType": "uint256",
          "name": "",
          "type": "uint256"
        }
      ],
      "stateMutability": "view",
      "type": "function"
    },
    {
      "inputs": [
        {
          "internalType": "address",
          "name": "receiver",
          "type": "address"
        }
      ],
      "name": "maxMint",
      "outputs": [
        {
          "internalType": "uint256",
          "name": "",
          "type": "uint256"
        }
      ],
      "stateMutability": "view",
      "type": "function"
    },
    {
      "inputs": [
        {
          "internalType": "address",
          "name": "owner",
          "type": "address"
        },
        {
          "internalType": "uint256",
          "name": "maxLoss",
          "type": "uint256"
        },
        {
          "internalType": "address[]",
          "name": "_strategies",
          "type": "address[]"
        }
      ],
      "name": "maxRedeem",
      "outputs": [
        {
          "internalType": "uint256",
          "name": "",
          "type": "uint256"
        }
      ],
      "stateMutability": "nonpayable",
      "type": "function"
    },
    {
      "inputs": [
        {
          "internalType": "address",
          "name": "owner",
          "type": "address"
        },
        {
          "internalType": "uint256",
          "name": "maxLoss",
          "type": "uint256"
        },
        {
          "internalType": "address[]",
          "name": "_strategies",
          "type": "address[]"
        }
      ],
      "name": "maxWithdraw",
      "outputs": [
        {
          "internalType": "uint256",
          "name": "",
          "type": "uint256"
        }
      ],
      "stateMutability": "nonpayable",
      "type": "function"
    },
    {
      "inputs": [],
      "name": "minimumTotalIdle",
      "outputs": [
        {
          "internalType": "uint256",
          "name": "",
          "type": "uint256"
        }
      ],
      "stateMutability": "view",
      "type": "function"
    },
    {
      "inputs": [
        {
          "internalType": "uint256",
          "name": "shares",
          "type": "uint256"
        },
        {
          "internalType": "address",
          "name": "receiver",
          "type": "address"
        }
      ],
      "name": "mint",
      "outputs": [
        {
          "internalType": "uint256",
          "name": "",
          "type": "uint256"
        }
      ],
      "stateMutability": "nonpayable",
      "type": "function"
    },
    {
      "inputs": [
        {
          "internalType": "address",
          "name": "",
          "type": "address"
        }
      ],
      "name": "nonces",
      "outputs": [
        {
          "internalType": "uint256",
          "name": "",
          "type": "uint256"
        }
      ],
      "stateMutability": "view",
      "type": "function"
    },
    {
      "inputs": [
        {
          "internalType": "bytes32",
          "name": "",
          "type": "bytes32"
        }
      ],
      "name": "openRoles",
      "outputs": [
        {
          "internalType": "bool",
          "name": "",
          "type": "bool"
        }
      ],
      "stateMutability": "view",
      "type": "function"
    },
    {
      "inputs": [
        {
          "internalType": "address",
          "name": "owner",
          "type": "address"
        },
        {
          "internalType": "address",
          "name": "spender",
          "type": "address"
        },
        {
          "internalType": "uint256",
          "name": "amount",
          "type": "uint256"
        },
        {
          "internalType": "uint256",
          "name": "deadline",
          "type": "uint256"
        },
        {
          "internalType": "uint8",
          "name": "v",
          "type": "uint8"
        },
        {
          "internalType": "bytes32",
          "name": "r",
          "type": "bytes32"
        },
        {
          "internalType": "bytes32",
          "name": "s",
          "type": "bytes32"
        }
      ],
      "name": "permit",
      "outputs": [
        {
          "internalType": "bool",
          "name": "",
          "type": "bool"
        }
      ],
      "stateMutability": "nonpayable",
      "type": "function"
    },
    {
      "inputs": [
        {
          "internalType": "uint256",
          "name": "assets",
          "type": "uint256"
        }
      ],
      "name": "previewDeposit",
      "outputs": [
        {
          "internalType": "uint256",
          "name": "",
          "type": "uint256"
        }
      ],
      "stateMutability": "view",
      "type": "function"
    },
    {
      "inputs": [
        {
          "internalType": "uint256",
          "name": "shares",
          "type": "uint256"
        }
      ],
      "name": "previewMint",
      "outputs": [
        {
          "internalType": "uint256",
          "name": "",
          "type": "uint256"
        }
      ],
      "stateMutability": "view",
      "type": "function"
    },
    {
      "inputs": [
        {
          "internalType": "uint256",
          "name": "shares",
          "type": "uint256"
        }
      ],
      "name": "previewRedeem",
      "outputs": [
        {
          "internalType": "uint256",
          "name": "",
          "type": "uint256"
        }
      ],
      "stateMutability": "view",
      "type": "function"
    },
    {
      "inputs": [
        {
          "internalType": "uint256",
          "name": "assets",
          "type": "uint256"
        }
      ],
      "name": "previewWithdraw",
      "outputs": [
        {
          "internalType": "uint256",
          "name": "",
          "type": "uint256"
        }
      ],
      "stateMutability": "view",
      "type": "function"
    },
    {
      "inputs": [],
      "name": "pricePerShare",
      "outputs": [
        {
          "internalType": "uint256",
          "name": "",
          "type": "uint256"
        }
      ],
      "stateMutability": "view",
      "type": "function"
    },
    {
      "inputs": [
        {
          "internalType": "address",
          "name": "strategy",
          "type": "address"
        }
      ],
      "name": "processReport",
      "outputs": [
        {
          "internalType": "uint256",
          "name": "",
          "type": "uint256"
        },
        {
          "internalType": "uint256",
          "name": "",
          "type": "uint256"
        }
      ],
      "stateMutability": "nonpayable",
      "type": "function"
    },
    {
      "inputs": [],
      "name": "profitMaxUnlockTime",
      "outputs": [
        {
          "internalType": "uint256",
          "name": "",
          "type": "uint256"
        }
      ],
      "stateMutability": "view",
      "type": "function"
    },
    {
      "inputs": [],
      "name": "profitUnlockingRate",
      "outputs": [
        {
          "internalType": "uint256",
          "name": "",
          "type": "uint256"
        }
      ],
      "stateMutability": "view",
      "type": "function"
    },
    {
      "inputs": [
        {
          "internalType": "uint256",
          "name": "shares",
          "type": "uint256"
        },
        {
          "internalType": "address",
          "name": "receiver",
          "type": "address"
        },
        {
          "internalType": "address",
          "name": "owner",
          "type": "address"
        },
        {
          "internalType": "uint256",
          "name": "maxLoss",
          "type": "uint256"
        },
        {
          "internalType": "address[]",
          "name": "_strategies",
          "type": "address[]"
        }
      ],
      "name": "redeem",
      "outputs": [
        {
          "internalType": "uint256",
          "name": "",
          "type": "uint256"
        }
      ],
      "stateMutability": "nonpayable",
      "type": "function"
    },
    {
      "inputs": [
        {
          "internalType": "bytes32",
          "name": "role",
          "type": "bytes32"
        },
        {
          "internalType": "address",
          "name": "account",
          "type": "address"
        }
      ],
      "name": "renounceRole",
      "outputs": [],
      "stateMutability": "nonpayable",
      "type": "function"
    },
    {
      "inputs": [
        {
          "internalType": "bytes32",
          "name": "role",
          "type": "bytes32"
        },
        {
          "internalType": "address",
          "name": "account",
          "type": "address"
        }
      ],
      "name": "revokeRole",
      "outputs": [],
      "stateMutability": "nonpayable",
      "type": "function"
    },
    {
      "inputs": [
        {
          "internalType": "address",
          "name": "strategy",
          "type": "address"
        }
      ],
      "name": "revokeStrategy",
      "outputs": [],
      "stateMutability": "nonpayable",
      "type": "function"
    },
    {
      "inputs": [],
      "name": "roleManager",
      "outputs": [
        {
          "internalType": "address",
          "name": "",
          "type": "address"
        }
      ],
      "stateMutability": "view",
      "type": "function"
    },
    {
      "inputs": [
        {
          "internalType": "address",
          "name": "",
          "type": "address"
        }
      ],
      "name": "roles",
      "outputs": [
        {
          "internalType": "bytes32",
          "name": "",
          "type": "bytes32"
        }
      ],
      "stateMutability": "view",
      "type": "function"
    },
    {
      "inputs": [
        {
          "internalType": "address",
          "name": "newAccountant",
          "type": "address"
        }
      ],
      "name": "setAccountant",
      "outputs": [],
      "stateMutability": "nonpayable",
      "type": "function"
    },
    {
      "inputs": [
        {
          "internalType": "address[]",
          "name": "newDefaultQueue",
          "type": "address[]"
        }
      ],
      "name": "setDefaultQueue",
      "outputs": [],
      "stateMutability": "nonpayable",
      "type": "function"
    },
    {
      "inputs": [
        {
          "internalType": "uint256",
          "name": "_depositLimit",
          "type": "uint256"
        }
      ],
      "name": "setDepositLimit",
      "outputs": [],
      "stateMutability": "nonpayable",
      "type": "function"
    },
    {
      "inputs": [
        {
          "internalType": "address",
          "name": "_depositLimitModule",
          "type": "address"
        }
      ],
      "name": "setDepositLimitModule",
      "outputs": [],
      "stateMutability": "nonpayable",
      "type": "function"
    },
    {
      "inputs": [
        {
          "internalType": "uint256",
          "name": "totalFees",
          "type": "uint256"
        },
        {
          "internalType": "uint256",
          "name": "totalRefunds",
          "type": "uint256"
        },
        {
          "internalType": "uint256",
          "name": "protocolFees",
          "type": "uint256"
        },
        {
          "internalType": "address",
          "name": "protocolFeeRecipient",
          "type": "address"
        }
      ],
      "name": "setFees",
      "outputs": [],
      "stateMutability": "nonpayable",
      "type": "function"
    },
    {
      "inputs": [
        {
          "internalType": "uint256",
          "name": "_minimumTotalIdle",
          "type": "uint256"
        }
      ],
      "name": "setMinimumTotalIdle",
      "outputs": [],
      "stateMutability": "nonpayable",
      "type": "function"
    },
    {
      "inputs": [
        {
          "internalType": "uint256",
          "name": "_newProfitMaxUnlockTime",
          "type": "uint256"
        }
      ],
      "name": "setProfitMaxUnlockTime",
      "outputs": [],
      "stateMutability": "nonpayable",
      "type": "function"
    },
    {
      "inputs": [
        {
          "internalType": "bool",
          "name": "_useDefaultQueue",
          "type": "bool"
        }
      ],
      "name": "setUseDefaultQueue",
      "outputs": [],
      "stateMutability": "nonpayable",
      "type": "function"
    },
    {
      "inputs": [
        {
          "internalType": "address",
          "name": "_withdrawLimitModule",
          "type": "address"
        }
      ],
      "name": "setWithdrawLimitModule",
      "outputs": [],
      "stateMutability": "nonpayable",
      "type": "function"
    },
    {
      "inputs": [],
      "name": "setters",
      "outputs": [
        {
          "internalType": "address payable",
          "name": "",
          "type": "address"
        }
      ],
      "stateMutability": "view",
      "type": "function"
    },
    {
      "inputs": [],
      "name": "sharesManager",
      "outputs": [
        {
          "internalType": "address",
          "name": "",
          "type": "address"
        }
      ],
      "stateMutability": "view",
      "type": "function"
    },
    {
      "inputs": [],
      "name": "shutdown",
      "outputs": [
        {
          "internalType": "bool",
          "name": "",
          "type": "bool"
        }
      ],
      "stateMutability": "view",
      "type": "function"
    },
    {
      "inputs": [],
      "name": "shutdownVault",
      "outputs": [],
      "stateMutability": "nonpayable",
      "type": "function"
    },
    {
      "inputs": [
        {
          "internalType": "address",
          "name": "",
          "type": "address"
        }
      ],
      "name": "strategies",
      "outputs": [
        {
          "internalType": "uint256",
          "name": "activation",
          "type": "uint256"
        },
        {
          "internalType": "uint256",
          "name": "lastReport",
          "type": "uint256"
        },
        {
          "internalType": "uint256",
          "name": "currentDebt",
          "type": "uint256"
        },
        {
          "internalType": "uint256",
          "name": "maxDebt",
          "type": "uint256"
        }
      ],
      "stateMutability": "view",
      "type": "function"
    },
    {
      "inputs": [],
      "name": "strategyManager",
      "outputs": [
        {
          "internalType": "address payable",
          "name": "",
          "type": "address"
        }
      ],
      "stateMutability": "view",
      "type": "function"
    },
    {
      "inputs": [
        {
          "internalType": "bytes4",
          "name": "interfaceId",
          "type": "bytes4"
        }
      ],
      "name": "supportsInterface",
      "outputs": [
        {
          "internalType": "bool",
          "name": "",
          "type": "bool"
        }
      ],
      "stateMutability": "view",
      "type": "function"
    },
    {
      "inputs": [],
      "name": "totalAssets",
      "outputs": [
        {
          "internalType": "uint256",
          "name": "",
          "type": "uint256"
        }
      ],
      "stateMutability": "view",
      "type": "function"
    },
    {
      "inputs": [],
      "name": "totalDebtAmount",
      "outputs": [
        {
          "internalType": "uint256",
          "name": "",
          "type": "uint256"
        }
      ],
      "stateMutability": "view",
      "type": "function"
    },
    {
      "inputs": [],
      "name": "totalIdleAmount",
      "outputs": [
        {
          "internalType": "uint256",
          "name": "",
          "type": "uint256"
        }
      ],
      "stateMutability": "view",
      "type": "function"
    },
    {
      "inputs": [],
      "name": "totalSupply",
      "outputs": [
        {
          "internalType": "uint256",
          "name": "",
          "type": "uint256"
        }
      ],
      "stateMutability": "view",
      "type": "function"
    },
    {
      "inputs": [],
      "name": "totalSupplyAmount",
      "outputs": [
        {
          "internalType": "uint256",
          "name": "",
          "type": "uint256"
        }
      ],
      "stateMutability": "view",
      "type": "function"
    },
    {
      "inputs": [
        {
          "internalType": "address",
          "name": "receiver",
          "type": "address"
        },
        {
          "internalType": "uint256",
          "name": "amount",
          "type": "uint256"
        }
      ],
      "name": "transfer",
      "outputs": [
        {
          "internalType": "bool",
          "name": "",
          "type": "bool"
        }
      ],
      "stateMutability": "nonpayable",
      "type": "function"
    },
    {
      "inputs": [
        {
          "internalType": "address",
          "name": "sender",
          "type": "address"
        },
        {
          "internalType": "address",
          "name": "receiver",
          "type": "address"
        },
        {
          "internalType": "uint256",
          "name": "amount",
          "type": "uint256"
        }
      ],
      "name": "transferFrom",
      "outputs": [
        {
          "internalType": "bool",
          "name": "",
          "type": "bool"
        }
      ],
      "stateMutability": "nonpayable",
      "type": "function"
    },
    {
      "inputs": [],
      "name": "unlockedShares",
      "outputs": [
        {
          "internalType": "uint256",
          "name": "",
          "type": "uint256"
        }
      ],
      "stateMutability": "view",
      "type": "function"
    },
    {
      "inputs": [
        {
          "internalType": "address",
          "name": "sender",
          "type": "address"
        },
        {
          "internalType": "address",
          "name": "strategy",
          "type": "address"
        },
        {
          "internalType": "uint256",
          "name": "targetDebt",
          "type": "uint256"
        }
      ],
      "name": "updateDebt",
      "outputs": [
        {
          "internalType": "uint256",
          "name": "",
          "type": "uint256"
        }
      ],
      "stateMutability": "nonpayable",
      "type": "function"
    },
    {
      "inputs": [
        {
          "internalType": "address",
          "name": "strategy",
          "type": "address"
        },
        {
          "internalType": "uint256",
          "name": "newMaxDebt",
          "type": "uint256"
        }
      ],
      "name": "updateMaxDebtForStrategy",
      "outputs": [],
      "stateMutability": "nonpayable",
      "type": "function"
    },
    {
      "inputs": [],
      "name": "useDefaultQueue",
      "outputs": [
        {
          "internalType": "bool",
          "name": "",
          "type": "bool"
        }
      ],
      "stateMutability": "view",
      "type": "function"
    },
    {
      "inputs": [
        {
          "internalType": "uint256",
          "name": "assets",
          "type": "uint256"
        },
        {
          "internalType": "address",
          "name": "receiver",
          "type": "address"
        },
        {
          "internalType": "address",
          "name": "owner",
          "type": "address"
        },
        {
          "internalType": "uint256",
          "name": "maxLoss",
          "type": "uint256"
        },
        {
          "internalType": "address[]",
          "name": "_strategies",
          "type": "address[]"
        }
      ],
      "name": "withdraw",
      "outputs": [
        {
          "internalType": "uint256",
          "name": "",
          "type": "uint256"
        }
      ],
      "stateMutability": "nonpayable",
      "type": "function"
    },
    {
      "inputs": [],
      "name": "withdrawLimitModule",
      "outputs": [
        {
          "internalType": "address",
          "name": "",
          "type": "address"
        }
      ],
      "stateMutability": "view",
      "type": "function"
    }
  ],
  "transactionHash": "0x421b5ee5af27916e4a88532155a96ccd40aedc76b8450c96e7d78180435c9cbe",
  "args": [],
  "numDeployments": 1,
  "solcInputHash": "a5bd5c56c80b310da3199880f04ea2ea",
  "bytecode": "0x60a06040526301e1855860805234801561001857600080fd5b506001805560805161342861003f600039600081816105ac015261120001526134286000f3fe608060405234801561001057600080fd5b50600436106104a75760003560e01c80637ecebe001161026b5780637ecebe00146108ce5780638212fd43146108ee5780638afca8f014610901578063919860031461090a57806391d148541461091d57806394bf804d14610930578063993746421461094357806399530b06146109635780639a78e72e1461096b5780639af1d35a1461097e5780639bbca884146109ad5780639e34e348146109c05780639f3988f3146109d3578063a217fddf146109e8578063a457c2d7146109f0578063a835cd8114610a03578063a9059cbb14610a16578063a98222c414610a29578063ab5b4d4914610a3e578063acded97d14610a53578063b1c46c9f14610a66578063b3c187f214610a79578063b3d7f6b914610a8c578063b6cc2d1f14610a9f578063bb994d4814610ac0578063bbe4eb4914610ad3578063bdc8144b14610ae0578063bee7e3d914610af3578063c065ca0714610b06578063c0993eea14610b1b578063c63d75b614610b30578063c6e6f59214610b43578063c8d74b6014610b56578063c8dffa9514610b6b578063d4ae064f14610b74578063d505accf14610b89578063d547741f14610b9c578063d81a09f614610baf578063d9a0e97a14610bc2578063dd62ed3e14610bca578063df69b22a14610bdd578063e5236cc914610bf0578063ecf7085814610bf8578063ef8b30f714610b43578063f1daeba814610c01578063f5b944eb14610c16578063f6d7bfa014610c3d578063f828f50b14610c50578063fc0e74d114610c59578063fd967f4714610c6d578063fec61f0614610c76578063ff1e7f0814610c8b57600080fd5b8062435da5146104ac57806301e1d114146104d557806301ffc9a7146104ea57806303dcd12c1461050a57806306580f2d1461051f57806307a2d13a146105325780630835a3fc146105455780630952864e1461054e578063095ea7b3146105575780630a28a4771461056a5780630ad283d01461057d57806316b87ac01461059257806316d3bfbb146105a757806318160ddd146105ce578063223e5479146105d657806323b872dd146105e9578063248a9ca3146105fc5780632d6326921461060f5780632d772168146106185780632dd310001461062b5780632f2ff15d1461063e578063313ce5671461065157806334b5fab6146106665780633641e083146106795780633644e5151461068c57806336568abe1461069557806336fba084146106a857806338d52e0f146106b457806339509351146106bc57806339b70e38146106cf57806339ebf823146106e25780633cd7b5ab146107275780633f7b5e4014610730578063402d267d14610738578063405977e71461074b57806348ea71271461075e5780634bbd71e9146107715780634cdad506146105325780634ce1d38a146107845780634cfe51dc146107995780634d4bb197146107ae5780634fb3ccc5146107d55780635141eebb146107e857806353a66132146107f15780635aa6e675146108145780635bf6b4fb14610827578063633f228c1461083c578063652da3241461084f57806365cb6765146108645780636e553f651461087757806370a082311461088a57806377e3b2671461089d575b600080fd5b6019546104bf906001600160a01b031681565b6040516104cc919061238a565b60405180910390f35b6104dd610c9e565b6040516104cc919061239e565b6104fd6104f83660046123ce565b610d10565b6040516104cc91906123f7565b6104dd60008051602061325383398151915281565b6104dd61052d36600461253a565b610d47565b6104dd6105403660046125cc565b610de0565b6104dd60125481565b6104dd601b5481565b6104fd6105653660046125ed565b610ded565b6104dd6105783660046125cc565b610e6c565b6104dd60008051602061327383398151915281565b6105a56105a036600461262a565b610e79565b005b6104dd7f000000000000000000000000000000000000000000000000000000000000000081565b6104dd610efa565b6105a56105e436600461262a565b610f44565b6104fd6105f736600461264b565b610f8c565b6104dd61060a3660046125cc565b611049565b6104dd601c5481565b6105a561062636600461262a565b61105e565b6021546104bf906001600160a01b031681565b6105a561064c36600461269b565b6110a5565b6106596110c6565b6040516104cc91906126d7565b6104dd6106743660046126e5565b611134565b6105a5610687366004612745565b6111ac565b6104dd60205481565b6105a56106a336600461269b565b611415565b6104dd64e8d4a5100081565b6104bf61144b565b6104fd6106ca3660046125ed565b6114b9565b6002546104bf906001600160a01b031681565b6107176106f036600461262a565b60066020526000908152604090208054600182015460028301546003909301549192909184565b6040516104cc94939291906127b0565b6104dd60115481565b6104dd600a81565b6104dd61074636600461262a565b6114ee565b6105a56107593660046125ed565b611560565b6105a561076c36600461262a565b6115ed565b6105a561077f36600461262a565b611634565b6104dd6000805160206133d383398151915281565b6104dd6000805160206132d383398151915281565b6104dd7f6e71edae12b1b97f4d1f60370fef10105fa2faae0126114a169c64845d6126c981565b6014546104bf906001600160a01b031681565b6104dd601d5481565b6104fd6107ff3660046125cc565b60186020526000908152604090205460ff1681565b6005546104bf906001600160a01b031681565b6104dd6000805160206132b383398151915281565b6105a561084a366004612836565b61167b565b6104dd60008051602061323383398151915281565b6104dd6108723660046126e5565b6116fb565b6104dd61088536600461269b565b611730565b6104dd61089836600461262a565b6117bc565b6108c1604051806040016040528060058152602001640312e302e360dc1b81525081565b6040516104cc91906128d5565b6104dd6108dc36600461262a565b601f6020526000908152604090205481565b6105a56108fc3660046125cc565b6117ed565b6104dd601e5481565b6016546104bf906001600160a01b031681565b6104fd61092b36600461269b565b611834565b6104dd61093e36600461269b565b61185d565b6104dd61095136600461262a565b60176020526000908152604090205481565b6104dd61189b565b6104dd61097936600461262a565b611929565b600754600854600954600a5461099d939291906001600160a01b031684565b6040516104cc94939291906128e6565b6105a56109bb36600461292e565b61195a565b6015546104bf906001600160a01b031681565b6104dd60008051602061333383398151915281565b6104dd600081565b6104fd6109fe3660046125ed565b6119a1565b6104dd610a1136600461264b565b6119d6565b6104fd610a243660046125ed565b611a82565b6104dd6000805160206133b383398151915281565b6104dd60008051602061335383398151915281565b6003546104bf906001600160a01b031681565b6105a5610a7436600461294f565b611b2f565b601a546104bf906001600160a01b031681565b6104dd610a9a3660046125cc565b611baa565b610ab2610aad36600461262a565b611bb7565b6040516104cc9291906129b3565b6105a5610ace36600461262a565b611c5f565b600c546104fd9060ff1681565b6105a5610aee3660046125cc565b611caa565b6004546104bf906001600160a01b031681565b6104dd6000805160206132f383398151915281565b6104dd60008051602061337383398151915281565b6104dd610b3e36600461262a565b611cf2565b6104dd610b513660046125cc565b611d23565b6104dd60008051602061321383398151915281565b6104dd60105481565b6104dd60008051602061339383398151915281565b6104fd610b973660046129e2565b611d30565b6105a5610baa36600461269b565b611dbc565b6104dd610bbd36600461253a565b611dd8565b6104dd611e1a565b6104dd610bd8366004612a81565b611e64565b6105a5610beb3660046125cc565b611ed8565b6105a5611f1f565b6104dd60135481565b6104dd60008051602061331383398151915281565b6104dd7ff206625bad3d9112d5609b8d356e6fbd514cd1f69980d4ce2b3e6e68e1789ace81565b6105a5610c4b3660046125ed565b611f9b565b6104dd600f5481565b601a546104fd90600160a01b900460ff1681565b6104dd61271081565b6104dd60008051602061329383398151915281565b6104bf610c993660046125cc565b611fe5565b600354604080516278744560e21b815290516000926001600160a01b0316916301e1d1149160048083019260209291908290030181865afa158015610ce7573d6000803e3d6000fd5b505050506040513d601f19601f82011682018060405250810190610d0b9190612aae565b905090565b60006001600160e01b03198216637965db0b60e01b1480610d4157506301ffc9a760e01b6001600160e01b03198316145b92915050565b6000610d5161200f565b6003546040516306580f2d60e01b81526001600160a01b03909116906306580f2d90610d899089908990899089908990600401612b2c565b6020604051808303816000875af1158015610da8573d6000803e3d6000fd5b505050506040513d601f19601f82011682018060405250810190610dcc9190612aae565b9050610dd760018055565b95945050505050565b6000610d41826000612038565b60035460405163e1f21c6760e01b81526000916001600160a01b03169063e1f21c6790610e2290339087908790600401612b7e565b6020604051808303816000875af1158015610e41573d6000803e3d6000fd5b505050506040513d601f19601f82011682018060405250810190610e659190612bb1565b9392505050565b6000610d4182600161206b565b6000805160206132b3833981519152610e918161209e565b600254604051637a163bd760e11b81526001600160a01b039091169063f42c77ae90610ec4908590600190600401612bd2565b600060405180830381600087803b158015610ede57600080fd5b505af1158015610ef2573d6000803e3d6000fd5b505050505050565b600354604080516318160ddd60e01b815290516000926001600160a01b0316916318160ddd9160048083019260209291908290030181865afa158015610ce7573d6000803e3d6000fd5b6000805160206132f3833981519152610f5c8161209e565b60025460405163223e547960e01b81526001600160a01b039091169063223e547990610ec490859060040161238a565b60006001600160a01b038316301480610fac57506001600160a01b038316155b15610fca5760405163d92e233d60e01b815260040160405180910390fd5b6003546040516323b872dd60e01b81526001600160a01b03909116906323b872dd90610ffe90879087908790600401612b7e565b6020604051808303816000875af115801561101d573d6000803e3d6000fd5b505050506040513d601f19601f820116820180604052508101906110419190612bb1565b949350505050565b60009081526020819052604090206001015490565b6000805160206133b38339815191526110768161209e565b600480546040516305aee42d60e31b81526001600160a01b0390911691632d77216891610ec49186910161238a565b6110ae82611049565b6110b78161209e565b6110c183836120ab565b505050565b6003546040805163313ce56760e01b815290516000926001600160a01b03169163313ce5679160048083019260209291908290030181865afa158015611110573d6000803e3d6000fd5b505050506040513d601f19601f82011682018060405250810190610d0b9190612bf8565b600354604051631a5afd5b60e11b81526000916001600160a01b0316906334b5fab69061116990879087908790600401612c19565b6020604051808303816000875af1158015611188573d6000803e3d6000fd5b505050506040513d601f19601f820116820180604052508101906110419190612aae565b60006111b78161209e565b600c54610100900460ff1615156001036111ec5760405162461bcd60e51b81526004016111e390612c73565b60405180910390fd5b602180546001600160a01b031916331790557f000000000000000000000000000000000000000000000000000000000000000086111561123f5760405163fdfbb0b760e01b815260040160405180910390fd5b601b869055600280546001600160a01b038088166001600160a01b031992831617909255600380548784169083161790556004805486841690831617905560058054928516929091169190911790556112996000336120ab565b6112b16000805160206133b3833981519152336120ab565b6112c96000805160206132f3833981519152336120ab565b6112e1600080516020613313833981519152336120ab565b6112f9600080516020613213833981519152336120ab565b611311600080516020613253833981519152336120ab565b600354604080516306fdde0360e01b81529051600080516020613373833981519152926001600160a01b0316916306fdde039160048083019260009291908290030181865afa158015611368573d6000803e3d6000fd5b505050506040513d6000823e601f3d908101601f191682016040526113909190810190612d06565b805160209182012060408051808201825260058152640312e302e360dc1b90840152516113e493927f06c015bd22b4c69690933c1058878ebdfef31f9aaae40bbe86d8a09fe1b2972c914691309101612d40565b60408051601f19818403018152919052805160209182012090555050600c805461ff00191661010017905550505050565b6001600160a01b038116331461143d5760405162461bcd60e51b81526004016111e390612d8c565b611447828261212f565b5050565b600354604080516338d52e0f60e01b815290516000926001600160a01b0316916338d52e0f9160048083019260209291908290030181865afa158015611495573d6000803e3d6000fd5b505050506040513d601f19601f82011682018060405250810190610d0b9190612dea565b600354604051633621d16560e11b81526000916001600160a01b031690636c43a2ca90610e2290339087908790600401612b7e565b60035460405163402d267d60e01b81526000916001600160a01b03169063402d267d9061151f90859060040161238a565b602060405180830381865afa15801561153c573d6000803e3d6000fd5b505050506040513d601f19601f82011682018060405250810190610d419190612aae565b6000805160206133538339815191526115788161209e565b61158061200f565b60055460405163405977e760e01b81526001600160a01b039091169063405977e7906115b29086908690600401612e0b565b600060405180830381600087803b1580156115cc57600080fd5b505af11580156115e0573d6000803e3d6000fd5b505050506110c160018055565b6000805160206132338339815191526116058161209e565b600480546040516348ea712760e01b81526001600160a01b03909116916348ea712791610ec49186910161238a565b6000805160206133d383398151915261164c8161209e565b60048054604051634bbd71e960e01b81526001600160a01b0390911691634bbd71e991610ec49186910161238a565b6000805160206132d38339815191526116938161209e565b600480546040516318cfc8a360e21b81526001600160a01b039091169163633f228c916116c4918791879101612e65565b600060405180830381600087803b1580156116de57600080fd5b505af11580156116f2573d6000803e3d6000fd5b50505050505050565b6003546040516365cb676560e01b81526000916001600160a01b0316906365cb67659061116990879087908790600401612c19565b600061173a61200f565b600354604051638340f54960e01b81526001600160a01b0390911690638340f5499061176e90339086908890600401612b7e565b6020604051808303816000875af115801561178d573d6000803e3d6000fd5b505050506040513d601f19601f820116820180604052508101906117b19190612aae565b9050610d4160018055565b6003546040516370a0823160e01b81526000916001600160a01b0316906370a082319061151f90859060040161238a565b6000805160206132738339815191526118058161209e565b60048054604051638212fd4360e01b81526001600160a01b0390911691638212fd4391610ec49186910161239e565b6000918252602082815260408084206001600160a01b0393909316845291905290205460ff1690565b600061186761200f565b600354604051636361ddf360e11b81526001600160a01b039091169063c6c3bbe69061176e90339086908890600401612b7e565b6000610d0b600360009054906101000a90046001600160a01b03166001600160a01b031663313ce5676040518163ffffffff1660e01b8152600401602060405180830381865afa1580156118f3573d6000803e3d6000fd5b505050506040513d601f19601f820116820180604052508101906119179190612bf8565b61192290600a612f9b565b6000612038565b600254604051634d3c739760e11b81526000916001600160a01b031690639a78e72e9061151f90859060040161238a565b6000805160206132d38339815191526119728161209e565b600480546040516326ef2a2160e21b81526001600160a01b0390911691639bbca88491610ec4918691016123f7565b60035460405163d73b1dc960e01b81526000916001600160a01b03169063d73b1dc990610e2290339087908790600401612b7e565b60006000805160206132138339815191526119f08161209e565b6119f861200f565b60025460405163a835cd8160e01b81526001600160a01b039091169063a835cd8190611a2c90889088908890600401612b7e565b6020604051808303816000875af1158015611a4b573d6000803e3d6000fd5b505050506040513d601f19601f82011682018060405250810190611a6f9190612aae565b9150611a7a60018055565b509392505050565b60006001600160a01b038316301480611aa257506001600160a01b038316155b15611ac05760405163d92e233d60e01b815260040160405180910390fd5b6003546040516317d5759960e31b81526001600160a01b039091169063beabacc890611af490339087908790600401612b7e565b600060405180830381600087803b158015611b0e57600080fd5b505af1158015611b22573d6000803e3d6000fd5b5060019695505050505050565b6000611b3a8161209e565b60025460405163b1c46c9f60e01b81526001600160a01b039091169063b1c46c9f90611b709088908890889088906004016128e6565b600060405180830381600087803b158015611b8a57600080fd5b505af1158015611b9e573d6000803e3d6000fd5b505050505b5050505050565b6000610d41826001612038565b600080600080516020613253833981519152611bd28161209e565b611bda61200f565b60025460405163b6cc2d1f60e01b81526001600160a01b039091169063b6cc2d1f90611c0a90879060040161238a565b60408051808303816000875af1158015611c28573d6000803e3d6000fd5b505050506040513d601f19601f82011682018060405250810190611c4c9190612fb0565b92509250611c5960018055565b50915091565b600080516020613333833981519152611c778161209e565b600254604051637a163bd760e11b81526001600160a01b039091169063f42c77ae90610ec4908590600090600401612bd2565b6000805160206133b3833981519152611cc28161209e565b60035460405163bdc8144b60e01b81526001600160a01b039091169063bdc8144b90610ec490859060040161239e565b60035460405163631ebadb60e11b81526000916001600160a01b03169063c63d75b69061151f90859060040161238a565b6000610d4182600061206b565b60035460405163d505accf60e01b81526000916001600160a01b03169063d505accf90611d6d908b908b908b908b908b908b908b90600401612fe3565b6020604051808303816000875af1158015611d8c573d6000803e3d6000fd5b505050506040513d601f19601f82011682018060405250810190611db09190612bb1565b98975050505050505050565b611dc582611049565b611dce8161209e565b6110c1838361212f565b6000611de261200f565b600354604051636c0d04fb60e11b81526001600160a01b039091169063d81a09f690610d899089908990899089908990600401612b2c565b60035460408051636cd074bd60e11b815290516000926001600160a01b03169163d9a0e97a9160048083019260209291908290030181865afa158015610ce7573d6000803e3d6000fd5b600354604051636eb1769f60e11b81526000916001600160a01b03169063dd62ed3e90611e97908690869060040161303f565b602060405180830381865afa158015611eb4573d6000803e3d6000fd5b505050506040513d601f19601f82011682018060405250810190610e659190612aae565b600080516020613393833981519152611ef08161209e565b60048054604051636fb4d91560e11b81526001600160a01b039091169163df69b22a91610ec49186910161239e565b600080516020613293833981519152611f378161209e565b600560009054906101000a90046001600160a01b03166001600160a01b031663e5236cc96040518163ffffffff1660e01b8152600401600060405180830381600087803b158015611f8757600080fd5b505af1158015611ba3573d6000803e3d6000fd5b600080516020613313833981519152611fb38161209e565b6002546040516307b6bdfd60e51b81526001600160a01b039091169063f6d7bfa0906116c49086908690600401612e0b565b600b8181548110611ff557600080fd5b6000918252602090912001546001600160a01b0316905081565b6002600154036120315760405162461bcd60e51b81526004016111e39061308e565b6002600155565b600354604051637ff0007760e01b81526000916001600160a01b031690637ff0007790611e9790869086906004016130e2565b600354604051635d4086af60e01b81526000916001600160a01b031690635d4086af90611e9790869086906004016130e2565b6120a88133612194565b50565b6120b58282611834565b611447576000828152602081815260408083206001600160a01b03851684529091529020805460ff191660011790556120eb3390565b6001600160a01b0316816001600160a01b0316837f2f8788117e7eff1d82e926ec794901d17c78024a50270940304540a733656f0d60405160405180910390a45050565b6121398282611834565b15611447576000828152602081815260408083206001600160a01b0385168085529252808320805460ff1916905551339285917ff6391f5c32d9c69d2a47ea670b442974b53935d1edc7fd64eb21e047a839171b9190a45050565b61219e8282611834565b611447576121ab816121ed565b6121b68360206121ff565b6040516020016121c792919061311f565b60408051601f198184030181529082905262461bcd60e51b82526111e3916004016128d5565b6060610d416001600160a01b03831660145b6060600061220e836002613171565b612219906002613190565b6001600160401b0381111561223057612230612434565b6040519080825280601f01601f19166020018201604052801561225a576020820181803683370190505b509050600360fc1b81600081518110612275576122756131a3565b60200101906001600160f81b031916908160001a905350600f60fb1b816001815181106122a4576122a46131a3565b60200101906001600160f81b031916908160001a90535060006122c8846002613171565b6122d3906001613190565b90505b600181111561234b576f181899199a1a9b1b9c1cb0b131b232b360811b85600f1660108110612307576123076131a3565b1a60f81b82828151811061231d5761231d6131a3565b60200101906001600160f81b031916908160001a90535060049490941c93612344816131b9565b90506122d6565b508315610e655760405162461bcd60e51b81526004016111e390613202565b60006001600160a01b038216610d41565b6123848161236a565b82525050565b60208101610d41828461237b565b80612384565b60208101610d418284612398565b6001600160e01b031981165b81146120a857600080fd5b8035610d41816123ac565b6000602082840312156123e3576123e3600080fd5b600061104184846123c3565b801515612384565b60208101610d4182846123ef565b806123b8565b8035610d4181612405565b6123b88161236a565b8035610d4181612416565b601f01601f191690565b634e487b7160e01b600052604160045260246000fd5b6124538261242a565b81018181106001600160401b038211171561247057612470612434565b6040525050565b600061248260405190565b905061248e828261244a565b919050565b60006001600160401b038211156124ac576124ac612434565b5060209081020190565b60006124c96124c484612493565b612477565b838152905060208082019084028301858111156124e8576124e8600080fd5b835b8181101561250c57806124fd888261241f565b845250602092830192016124ea565b5050509392505050565b600082601f83011261252a5761252a600080fd5b81356110418482602086016124b6565b600080600080600060a0868803121561255557612555600080fd5b6000612561888861240b565b95505060206125728882890161241f565b94505060406125838882890161241f565b93505060606125948882890161240b565b92505060808601356001600160401b038111156125b3576125b3600080fd5b6125bf88828901612516565b9150509295509295909350565b6000602082840312156125e1576125e1600080fd5b6000611041848461240b565b6000806040838503121561260357612603600080fd5b600061260f858561241f565b92505060206126208582860161240b565b9150509250929050565b60006020828403121561263f5761263f600080fd5b6000611041848461241f565b60008060006060848603121561266357612663600080fd5b600061266f868661241f565b93505060206126808682870161241f565b92505060406126918682870161240b565b9150509250925092565b600080604083850312156126b1576126b1600080fd5b60006126bd858561240b565b92505060206126208582860161241f565b60ff8116612384565b60208101610d4182846126ce565b6000806000606084860312156126fd576126fd600080fd5b6000612709868661241f565b935050602061271a8682870161240b565b92505060408401356001600160401b0381111561273957612739600080fd5b61269186828701612516565b600080600080600060a0868803121561276057612760600080fd5b600061276c888861240b565b955050602061277d8882890161241f565b945050604061278e8882890161241f565b935050606061279f8882890161241f565b92505060806125bf8882890161241f565b608081016127be8287612398565b6127cb6020830186612398565b6127d86040830185612398565b610dd76060830184612398565b60008083601f8401126127fa576127fa600080fd5b5081356001600160401b0381111561281457612814600080fd5b60208301915083602082028301111561282f5761282f600080fd5b9250929050565b6000806020838503121561284c5761284c600080fd5b82356001600160401b0381111561286557612865600080fd5b612871858286016127e5565b92509250509250929050565b60005b83811015612898578181015183820152602001612880565b50506000910152565b60006128ab825190565b8084526020840193506128c281856020860161287d565b6128cb8161242a565b9093019392505050565b60208082528101610e6581846128a1565b608081016128f48287612398565b6129016020830186612398565b61290e6040830185612398565b610dd7606083018461237b565b8015156123b8565b8035610d418161291b565b60006020828403121561294357612943600080fd5b60006110418484612923565b6000806000806080858703121561296857612968600080fd5b6000612974878761240b565b94505060206129858782880161240b565b93505060406129968782880161240b565b92505060606129a78782880161241f565b91505092959194509250565b604081016129c18285612398565b610e656020830184612398565b60ff81166123b8565b8035610d41816129ce565b600080600080600080600060e0888a031215612a0057612a00600080fd5b6000612a0c8a8a61241f565b9750506020612a1d8a828b0161241f565b9650506040612a2e8a828b0161240b565b9550506060612a3f8a828b0161240b565b9450506080612a508a828b016129d7565b93505060a0612a618a828b0161240b565b92505060c0612a728a828b0161240b565b91505092959891949750929550565b60008060408385031215612a9757612a97600080fd5b60006126bd858561241f565b8051610d4181612405565b600060208284031215612ac357612ac3600080fd5b60006110418484612aa3565b6000612adb838361237b565b505060200190565b6000612aed825190565b80845260209384019383018060005b83811015612b21578151612b108882612acf565b975060208301925050600101612afc565b509495945050505050565b60a08101612b3a8288612398565b612b47602083018761237b565b612b54604083018661237b565b612b616060830185612398565b8181036080830152612b738184612ae3565b979650505050505050565b60608101612b8c828661237b565b612b99602083018561237b565b6110416040830184612398565b8051610d418161291b565b600060208284031215612bc657612bc6600080fd5b60006110418484612ba6565b60408101612be0828561237b565b610e6560208301846123ef565b8051610d41816129ce565b600060208284031215612c0d57612c0d600080fd5b60006110418484612bed565b60608101612c27828661237b565b612c346020830185612398565b8181036040830152610dd78184612ae3565b6013815260006020820172185b1c9958591e481a5b9a5d1a585b1a5e9959606a1b815291505b5060200190565b60208082528101610d4181612c46565b60006001600160401b03821115612c9c57612c9c612434565b612ca58261242a565b60200192915050565b6000612cbc6124c484612c83565b905082815260208101848484011115612cd757612cd7600080fd5b611a7a84828561287d565b600082601f830112612cf657612cf6600080fd5b8151611041848260208601612cae565b600060208284031215612d1b57612d1b600080fd5b81516001600160401b03811115612d3457612d34600080fd5b61104184828501612ce2565b60a08101612d4e8288612398565b612d5b6020830187612398565b612d686040830186612398565b612d756060830185612398565b612d82608083018461237b565b9695505050505050565b60208082528101610d4181602f81527f416363657373436f6e74726f6c3a2063616e206f6e6c792072656e6f756e636560208201526e103937b632b9903337b91039b2b63360891b604082015260600190565b8051610d4181612416565b600060208284031215612dff57612dff600080fd5b60006110418484612ddf565b604081016129c1828561237b565b6000610e65602084018461241f565b8183526000602084019350818060005b85811015612b2157612e4a8284612e19565b612e548882612acf565b975060208301925050600101612e38565b60208082528101611041818486612e28565b634e487b7160e01b600052601160045260246000fd5b80825b6001851115612ecc57808604811115612eab57612eab612e77565b6001851615612eb957908102905b8002612ec58560011c90565b9450612e90565b94509492505050565b600082612ee457506001610e65565b81612ef157506000610e65565b8160018114612f075760028114612f1157612f3e565b6001915050610e65565b60ff841115612f2257612f22612e77565b8360020a915084821115612f3857612f38612e77565b50610e65565b5060208310610133831016604e8410600b8410161715612f71575081810a83811115612f6c57612f6c612e77565b610e65565b612f7e8484846001612e8d565b92509050818404811115612f9457612f94612e77565b0292915050565b600060ff83169250610e656000198484612ed5565b60008060408385031215612fc657612fc6600080fd5b6000612fd28585612aa3565b925050602061262085828601612aa3565b60e08101612ff1828a61237b565b612ffe602083018961237b565b61300b6040830188612398565b6130186060830187612398565b61302560808301866126ce565b61303260a0830185612398565b611db060c0830184612398565b6040810161304d828561237b565b610e65602083018461237b565b601f81526000602082017f5265656e7472616e637947756172643a207265656e7472616e742063616c6c0081529150612c6c565b60208082528101610d418161305a565b634e487b7160e01b600052602160045260246000fd5b600281106120a8576120a861309e565b8061248e816130b4565b6000610d41826130c4565b612384816130ce565b604081016130f08285612398565b610e6560208301846130d9565b6000613107825190565b61311581856020860161287d565b9290920192915050565b76020b1b1b2b9b9a1b7b73a3937b61d1030b1b1b7bab73a1604d1b8152601701600061314b82856130fd565b7001034b99036b4b9b9b4b733903937b6329607d1b8152601101915061104182846130fd565b600081600019048311821515161561318b5761318b612e77565b500290565b80820180821115610d4157610d41612e77565b634e487b7160e01b600052603260045260246000fd5b6000816131c8576131c8612e77565b506000190190565b60208082527f537472696e67733a20686578206c656e67746820696e73756666696369656e7491019081526000612c6c565b60208082528101610d41816131d056fe152ebba56b9738ee3d8baea1b76fa31dcdcd79b1929bfea7d58ee12cfdf1a653cd9f023a942ee35097ead74b2505bea9f2c5d47465db92dd195cf7f01a41cfe1633076a97f32ae349b28772e7b1483f67a926f150cbc501d02bdbd77389325abc723f4dd6268e1c374639e36d629c765285ee7003913389d582c300f186dde97d45f7ccff42f059d4e47c3f027c444272257266f7e88b981e142f0aa38fbfd78ea672c1c09cd95c51af9509f646f3615ff0071aae8652bd821471ee9037fd72c862f91c9d89d6135b19873b921c90b702cb2e175c371b8430026b9577e6911192a0e761830cc61f2707ea7bb138008bf9dda7f7d34c77736d0a116604e95ea167cbb3cdf689b8ea3e9d265f66bc4e0a99069268217017d38d2a5a559abc627196f430d649a8640e48ff9bfbc353b3f99ed630163857821b3b4075e3871dafbf5900d80def0427daac599092fcb16b21808ec68dd9a2e1eae89d1e8db213573758b73c3c69bb8fe3d512ecc4cf759cc79239f7b179b0ffacaa9a75d522b39400fa18eaea71a088b547b8c932b48861853b3434d9a3240b94466c607e28b6965952f0dbbe8c2c0170206c50ec0cafa1c0dbd03e73e67c2a960178df30a0a30ee2e69d1171ac0a63777a6733cda21aec9ed3d48a4fd11f273c934a691dec5e5589ca26469706673582212201ff3c39cc742a33182407e168e2604306022e444257651718f7f8de0d622263c64736f6c63430008100033",
  "devdoc": {
    "kind": "dev",
    "methods": {
      "getRoleAdmin(bytes32)": {
        "details": "Returns the admin role that controls `role`. See {grantRole} and {revokeRole}. To change a role's admin, use {_setRoleAdmin}."
      },
      "grantRole(bytes32,address)": {
        "details": "Grants `role` to `account`. If `account` had not been already granted `role`, emits a {RoleGranted} event. Requirements: - the caller must have ``role``'s admin role. May emit a {RoleGranted} event."
      },
      "hasRole(bytes32,address)": {
        "details": "Returns `true` if `account` has been granted `role`."
      },
      "renounceRole(bytes32,address)": {
        "details": "Revokes `role` from the calling account. Roles are often managed via {grantRole} and {revokeRole}: this function's purpose is to provide a mechanism for accounts to lose their privileges if they are compromised (such as when a trusted device is misplaced). If the calling account had been revoked `role`, emits a {RoleRevoked} event. Requirements: - the caller must be `account`. May emit a {RoleRevoked} event."
      },
      "revokeRole(bytes32,address)": {
        "details": "Revokes `role` from `account`. If `account` had been granted `role`, emits a {RoleRevoked} event. Requirements: - the caller must have ``role``'s admin role. May emit a {RoleRevoked} event."
      },
      "supportsInterface(bytes4)": {
        "details": "See {IERC165-supportsInterface}."
      }
    },
    "title": "Yearn V3 Vault",
    "version": 1
  },
  "userdoc": {
    "kind": "user",
    "methods": {},
    "notice": "The Yearn VaultV3 is designed as a non-opinionated system to distribute funds of  depositors for a specific `asset` into different opportunities (aka Strategies) and manage accounting in a robust way.",
    "version": 1
  },
  "storageLayout": {
    "storage": [
      {
        "astId": 24,
        "contract": "contracts/Packages/VaultPackage.sol:VaultPackage",
        "label": "_roles",
        "offset": 0,
        "slot": "0",
        "type": "t_mapping(t_bytes32,t_struct(RoleData)19_storage)"
      },
      {
        "astId": 796,
        "contract": "contracts/Packages/VaultPackage.sol:VaultPackage",
        "label": "_status",
        "offset": 0,
        "slot": "1",
        "type": "t_uint256"
      },
      {
        "astId": 5270,
        "contract": "contracts/Packages/VaultPackage.sol:VaultPackage",
        "label": "strategyManager",
        "offset": 0,
        "slot": "2",
        "type": "t_address_payable"
      },
      {
        "astId": 5272,
        "contract": "contracts/Packages/VaultPackage.sol:VaultPackage",
        "label": "sharesManager",
        "offset": 0,
        "slot": "3",
        "type": "t_address"
      },
      {
        "astId": 5274,
        "contract": "contracts/Packages/VaultPackage.sol:VaultPackage",
        "label": "setters",
        "offset": 0,
        "slot": "4",
        "type": "t_address_payable"
      },
      {
        "astId": 5276,
        "contract": "contracts/Packages/VaultPackage.sol:VaultPackage",
        "label": "governance",
        "offset": 0,
        "slot": "5",
        "type": "t_address"
      },
      {
        "astId": 5281,
        "contract": "contracts/Packages/VaultPackage.sol:VaultPackage",
        "label": "strategies",
        "offset": 0,
        "slot": "6",
        "type": "t_mapping(t_address,t_struct(StrategyParams)5442_storage)"
      },
      {
        "astId": 5284,
        "contract": "contracts/Packages/VaultPackage.sol:VaultPackage",
        "label": "fees",
        "offset": 0,
        "slot": "7",
        "type": "t_struct(FeeAssessment)5451_storage"
      },
      {
        "astId": 5287,
        "contract": "contracts/Packages/VaultPackage.sol:VaultPackage",
        "label": "defaultQueue",
        "offset": 0,
        "slot": "11",
        "type": "t_array(t_address)dyn_storage"
      },
      {
        "astId": 5289,
        "contract": "contracts/Packages/VaultPackage.sol:VaultPackage",
        "label": "useDefaultQueue",
        "offset": 0,
        "slot": "12",
        "type": "t_bool"
      },
      {
        "astId": 5291,
        "contract": "contracts/Packages/VaultPackage.sol:VaultPackage",
        "label": "initialized",
        "offset": 1,
        "slot": "12",
        "type": "t_bool"
      },
      {
        "astId": 5295,
        "contract": "contracts/Packages/VaultPackage.sol:VaultPackage",
        "label": "_balanceOf",
        "offset": 0,
        "slot": "13",
        "type": "t_mapping(t_address,t_uint256)"
      },
      {
        "astId": 5301,
        "contract": "contracts/Packages/VaultPackage.sol:VaultPackage",
        "label": "_allowance",
        "offset": 0,
        "slot": "14",
        "type": "t_mapping(t_address,t_mapping(t_address,t_uint256))"
      },
      {
        "astId": 5303,
        "contract": "contracts/Packages/VaultPackage.sol:VaultPackage",
        "label": "totalSupplyAmount",
        "offset": 0,
        "slot": "15",
        "type": "t_uint256"
      },
      {
        "astId": 5305,
        "contract": "contracts/Packages/VaultPackage.sol:VaultPackage",
        "label": "totalDebtAmount",
        "offset": 0,
        "slot": "16",
        "type": "t_uint256"
      },
      {
        "astId": 5307,
        "contract": "contracts/Packages/VaultPackage.sol:VaultPackage",
        "label": "totalIdleAmount",
        "offset": 0,
        "slot": "17",
        "type": "t_uint256"
      },
      {
        "astId": 5309,
        "contract": "contracts/Packages/VaultPackage.sol:VaultPackage",
        "label": "minimumTotalIdle",
        "offset": 0,
        "slot": "18",
        "type": "t_uint256"
      },
      {
        "astId": 5311,
        "contract": "contracts/Packages/VaultPackage.sol:VaultPackage",
        "label": "depositLimit",
        "offset": 0,
        "slot": "19",
        "type": "t_uint256"
      },
      {
        "astId": 5313,
        "contract": "contracts/Packages/VaultPackage.sol:VaultPackage",
        "label": "accountant",
        "offset": 0,
        "slot": "20",
        "type": "t_address"
      },
      {
        "astId": 5315,
        "contract": "contracts/Packages/VaultPackage.sol:VaultPackage",
        "label": "depositLimitModule",
        "offset": 0,
        "slot": "21",
        "type": "t_address"
      },
      {
        "astId": 5317,
        "contract": "contracts/Packages/VaultPackage.sol:VaultPackage",
        "label": "withdrawLimitModule",
        "offset": 0,
        "slot": "22",
        "type": "t_address"
      },
      {
        "astId": 5321,
        "contract": "contracts/Packages/VaultPackage.sol:VaultPackage",
        "label": "roles",
        "offset": 0,
        "slot": "23",
        "type": "t_mapping(t_address,t_bytes32)"
      },
      {
        "astId": 5325,
        "contract": "contracts/Packages/VaultPackage.sol:VaultPackage",
        "label": "openRoles",
        "offset": 0,
        "slot": "24",
        "type": "t_mapping(t_bytes32,t_bool)"
      },
      {
        "astId": 5327,
        "contract": "contracts/Packages/VaultPackage.sol:VaultPackage",
        "label": "roleManager",
        "offset": 0,
        "slot": "25",
        "type": "t_address"
      },
      {
        "astId": 5329,
        "contract": "contracts/Packages/VaultPackage.sol:VaultPackage",
        "label": "futureRoleManager",
        "offset": 0,
        "slot": "26",
        "type": "t_address"
      },
      {
        "astId": 5331,
        "contract": "contracts/Packages/VaultPackage.sol:VaultPackage",
        "label": "shutdown",
        "offset": 20,
        "slot": "26",
        "type": "t_bool"
      },
      {
        "astId": 5333,
        "contract": "contracts/Packages/VaultPackage.sol:VaultPackage",
        "label": "profitMaxUnlockTime",
        "offset": 0,
        "slot": "27",
        "type": "t_uint256"
      },
      {
        "astId": 5335,
        "contract": "contracts/Packages/VaultPackage.sol:VaultPackage",
        "label": "fullProfitUnlockDate",
        "offset": 0,
        "slot": "28",
        "type": "t_uint256"
      },
      {
        "astId": 5337,
        "contract": "contracts/Packages/VaultPackage.sol:VaultPackage",
        "label": "profitUnlockingRate",
        "offset": 0,
        "slot": "29",
        "type": "t_uint256"
      },
      {
        "astId": 5339,
        "contract": "contracts/Packages/VaultPackage.sol:VaultPackage",
        "label": "lastProfitUpdate",
        "offset": 0,
        "slot": "30",
        "type": "t_uint256"
      },
      {
        "astId": 5343,
        "contract": "contracts/Packages/VaultPackage.sol:VaultPackage",
        "label": "nonces",
        "offset": 0,
        "slot": "31",
        "type": "t_mapping(t_address,t_uint256)"
      },
      {
        "astId": 5350,
        "contract": "contracts/Packages/VaultPackage.sol:VaultPackage",
        "label": "DOMAIN_SEPARATOR",
        "offset": 0,
        "slot": "32",
        "type": "t_bytes32"
      },
      {
        "astId": 4031,
        "contract": "contracts/Packages/VaultPackage.sol:VaultPackage",
        "label": "FACTORY",
        "offset": 0,
        "slot": "33",
        "type": "t_address"
      }
    ],
    "types": {
      "t_address": {
        "encoding": "inplace",
        "label": "address",
        "numberOfBytes": "20"
      },
      "t_address_payable": {
        "encoding": "inplace",
        "label": "address payable",
        "numberOfBytes": "20"
      },
      "t_array(t_address)dyn_storage": {
        "base": "t_address",
        "encoding": "dynamic_array",
        "label": "address[]",
        "numberOfBytes": "32"
      },
      "t_bool": {
        "encoding": "inplace",
        "label": "bool",
        "numberOfBytes": "1"
      },
      "t_bytes32": {
        "encoding": "inplace",
        "label": "bytes32",
        "numberOfBytes": "32"
      },
      "t_mapping(t_address,t_bool)": {
        "encoding": "mapping",
        "key": "t_address",
        "label": "mapping(address => bool)",
        "numberOfBytes": "32",
        "value": "t_bool"
      },
      "t_mapping(t_address,t_bytes32)": {
        "encoding": "mapping",
        "key": "t_address",
        "label": "mapping(address => bytes32)",
        "numberOfBytes": "32",
        "value": "t_bytes32"
      },
      "t_mapping(t_address,t_mapping(t_address,t_uint256))": {
        "encoding": "mapping",
        "key": "t_address",
        "label": "mapping(address => mapping(address => uint256))",
        "numberOfBytes": "32",
        "value": "t_mapping(t_address,t_uint256)"
      },
      "t_mapping(t_address,t_struct(StrategyParams)5442_storage)": {
        "encoding": "mapping",
        "key": "t_address",
        "label": "mapping(address => struct StrategyParams)",
        "numberOfBytes": "32",
        "value": "t_struct(StrategyParams)5442_storage"
      },
      "t_mapping(t_address,t_uint256)": {
        "encoding": "mapping",
        "key": "t_address",
        "label": "mapping(address => uint256)",
        "numberOfBytes": "32",
        "value": "t_uint256"
      },
      "t_mapping(t_bytes32,t_bool)": {
        "encoding": "mapping",
        "key": "t_bytes32",
        "label": "mapping(bytes32 => bool)",
        "numberOfBytes": "32",
        "value": "t_bool"
      },
      "t_mapping(t_bytes32,t_struct(RoleData)19_storage)": {
        "encoding": "mapping",
        "key": "t_bytes32",
        "label": "mapping(bytes32 => struct AccessControl.RoleData)",
        "numberOfBytes": "32",
        "value": "t_struct(RoleData)19_storage"
      },
      "t_struct(FeeAssessment)5451_storage": {
        "encoding": "inplace",
        "label": "struct FeeAssessment",
        "members": [
          {
            "astId": 5444,
            "contract": "contracts/Packages/VaultPackage.sol:VaultPackage",
            "label": "totalFees",
            "offset": 0,
            "slot": "0",
            "type": "t_uint256"
          },
          {
            "astId": 5446,
            "contract": "contracts/Packages/VaultPackage.sol:VaultPackage",
            "label": "totalRefunds",
            "offset": 0,
            "slot": "1",
            "type": "t_uint256"
          },
          {
            "astId": 5448,
            "contract": "contracts/Packages/VaultPackage.sol:VaultPackage",
            "label": "protocolFees",
            "offset": 0,
            "slot": "2",
            "type": "t_uint256"
          },
          {
            "astId": 5450,
            "contract": "contracts/Packages/VaultPackage.sol:VaultPackage",
            "label": "protocolFeeRecipient",
            "offset": 0,
            "slot": "3",
            "type": "t_address"
          }
        ],
        "numberOfBytes": "128"
      },
      "t_struct(RoleData)19_storage": {
        "encoding": "inplace",
        "label": "struct AccessControl.RoleData",
        "members": [
          {
            "astId": 16,
            "contract": "contracts/Packages/VaultPackage.sol:VaultPackage",
            "label": "members",
            "offset": 0,
            "slot": "0",
            "type": "t_mapping(t_address,t_bool)"
          },
          {
            "astId": 18,
            "contract": "contracts/Packages/VaultPackage.sol:VaultPackage",
            "label": "adminRole",
            "offset": 0,
            "slot": "1",
            "type": "t_bytes32"
          }
        ],
        "numberOfBytes": "64"
      },
      "t_struct(StrategyParams)5442_storage": {
        "encoding": "inplace",
        "label": "struct StrategyParams",
        "members": [
          {
            "astId": 5435,
            "contract": "contracts/Packages/VaultPackage.sol:VaultPackage",
            "label": "activation",
            "offset": 0,
            "slot": "0",
            "type": "t_uint256"
          },
          {
            "astId": 5437,
            "contract": "contracts/Packages/VaultPackage.sol:VaultPackage",
            "label": "lastReport",
            "offset": 0,
            "slot": "1",
            "type": "t_uint256"
          },
          {
            "astId": 5439,
            "contract": "contracts/Packages/VaultPackage.sol:VaultPackage",
            "label": "currentDebt",
            "offset": 0,
            "slot": "2",
            "type": "t_uint256"
          },
          {
            "astId": 5441,
            "contract": "contracts/Packages/VaultPackage.sol:VaultPackage",
            "label": "maxDebt",
            "offset": 0,
            "slot": "3",
            "type": "t_uint256"
          }
        ],
        "numberOfBytes": "128"
      },
      "t_uint256": {
        "encoding": "inplace",
        "label": "uint256",
        "numberOfBytes": "32"
      }
    }
  }
}